{
  "contractName": "Callbacks",
  "abi": [
    {
      "anonymous": false,
      "inputs": [
        {
          "indexed": true,
          "internalType": "address",
          "name": "_owner",
          "type": "address"
        },
        {
          "indexed": true,
          "internalType": "address",
          "name": "_operator",
          "type": "address"
        },
        {
          "indexed": false,
          "internalType": "bool",
          "name": "_approved",
          "type": "bool"
        }
      ],
      "name": "ApprovalForAll",
      "type": "event"
    },
    {
      "anonymous": false,
      "inputs": [
        {
          "indexed": true,
          "internalType": "uint256",
          "name": "_CallbackId",
          "type": "uint256"
        }
      ],
      "name": "CallbackUpdated",
      "type": "event"
    },
    {
      "anonymous": false,
      "inputs": [
        {
          "indexed": true,
          "internalType": "address",
          "name": "previousOwner",
          "type": "address"
        },
        {
          "indexed": true,
          "internalType": "address",
          "name": "newOwner",
          "type": "address"
        }
      ],
      "name": "OwnershipTransferred",
      "type": "event"
    },
    {
      "anonymous": false,
      "inputs": [
        {
          "indexed": true,
          "internalType": "uint256",
          "name": "_id",
          "type": "uint256"
        },
        {
          "indexed": false,
          "internalType": "uint256",
          "name": "_documentHash",
          "type": "uint256"
        }
      ],
      "name": "TokenUpdated",
      "type": "event"
    },
    {
      "anonymous": false,
      "inputs": [
        {
          "indexed": true,
          "internalType": "address",
          "name": "_operator",
          "type": "address"
        },
        {
          "indexed": true,
          "internalType": "address",
          "name": "_from",
          "type": "address"
        },
        {
          "indexed": true,
          "internalType": "address",
          "name": "_to",
          "type": "address"
        },
        {
          "indexed": false,
          "internalType": "uint256[]",
          "name": "_ids",
          "type": "uint256[]"
        },
        {
          "indexed": false,
          "internalType": "uint256[]",
          "name": "_values",
          "type": "uint256[]"
        }
      ],
      "name": "TransferBatch",
      "type": "event"
    },
    {
      "anonymous": false,
      "inputs": [
        {
          "indexed": true,
          "internalType": "address",
          "name": "_operator",
          "type": "address"
        },
        {
          "indexed": true,
          "internalType": "address",
          "name": "_from",
          "type": "address"
        },
        {
          "indexed": true,
          "internalType": "address",
          "name": "_to",
          "type": "address"
        },
        {
          "indexed": false,
          "internalType": "uint256",
          "name": "_id",
          "type": "uint256"
        },
        {
          "indexed": false,
          "internalType": "uint256",
          "name": "_value",
          "type": "uint256"
        }
      ],
      "name": "TransferSingle",
      "type": "event"
    },
    {
      "anonymous": false,
      "inputs": [
        {
          "indexed": false,
          "internalType": "string",
          "name": "_value",
          "type": "string"
        },
        {
          "indexed": true,
          "internalType": "uint256",
          "name": "_id",
          "type": "uint256"
        }
      ],
      "name": "URI",
      "type": "event"
    },
    {
      "inputs": [
        {
          "internalType": "uint256",
          "name": "",
          "type": "uint256"
        }
      ],
      "name": "_callbacks",
      "outputs": [
        {
          "internalType": "uint256",
          "name": "tokenId",
          "type": "uint256"
        },
        {
          "internalType": "uint256",
          "name": "price",
          "type": "uint256"
        },
        {
          "internalType": "uint256",
          "name": "escrowedAmount",
          "type": "uint256"
        },
        {
          "internalType": "uint256",
          "name": "callCounter",
          "type": "uint256"
        },
        {
          "internalType": "uint256",
          "name": "documentHash",
          "type": "uint256"
        },
        {
          "internalType": "address",
          "name": "caller",
          "type": "address"
        },
        {
          "internalType": "bool",
          "name": "needLegalApproval",
          "type": "bool"
        },
        {
          "internalType": "bool",
          "name": "approvedByLegal",
          "type": "bool"
        },
        {
          "internalType": "bool",
          "name": "refused",
          "type": "bool"
        },
        {
          "internalType": "bool",
          "name": "accepted",
          "type": "bool"
        },
        {
          "internalType": "bool",
          "name": "completed",
          "type": "bool"
        }
      ],
      "stateMutability": "view",
      "type": "function"
    },
    {
      "inputs": [],
      "name": "_config",
      "outputs": [
        {
          "internalType": "uint256",
          "name": "callbackAutoExecuteMaxAddresses",
          "type": "uint256"
        },
        {
          "internalType": "string",
          "name": "baseURI",
          "type": "string"
        }
      ],
      "stateMutability": "view",
      "type": "function"
    },
    {
      "inputs": [
        {
          "internalType": "uint256",
          "name": "",
          "type": "uint256"
        }
      ],
      "name": "_tokens",
      "outputs": [
        {
          "internalType": "uint256",
          "name": "supply",
          "type": "uint256"
        },
        {
          "internalType": "uint256",
          "name": "decimals",
          "type": "uint256"
        },
        {
          "internalType": "uint256",
          "name": "lumpSumTransactionFees",
          "type": "uint256"
        },
        {
          "internalType": "uint256",
          "name": "valueTransactionFees",
          "type": "uint256"
        },
        {
          "internalType": "uint256",
          "name": "minHoldingForCallback",
          "type": "uint256"
        },
        {
          "internalType": "uint256",
          "name": "metadataHash",
          "type": "uint256"
        },
        {
          "internalType": "address",
          "name": "legalAuthority",
          "type": "address"
        },
        {
          "internalType": "bool",
          "name": "isPrivate",
          "type": "bool"
        },
        {
          "internalType": "bool",
          "name": "locked",
          "type": "bool"
        }
      ],
      "stateMutability": "view",
      "type": "function"
    },
    {
      "inputs": [
        {
          "internalType": "address",
          "name": "",
          "type": "address"
        }
      ],
      "name": "_users",
      "outputs": [
        {
          "internalType": "bool",
          "name": "isTokenizer",
          "type": "bool"
        },
        {
          "internalType": "bool",
          "name": "isLocked",
          "type": "bool"
        },
        {
          "internalType": "uint256",
          "name": "ETHBalance",
          "type": "uint256"
        }
      ],
      "stateMutability": "view",
      "type": "function"
    },
    {
      "inputs": [
        {
          "internalType": "address",
          "name": "account",
          "type": "address"
        },
        {
          "internalType": "uint256",
          "name": "id",
          "type": "uint256"
        }
      ],
      "name": "balanceOf",
      "outputs": [
        {
          "internalType": "uint256",
          "name": "",
          "type": "uint256"
        }
      ],
      "stateMutability": "view",
      "type": "function"
    },
    {
      "inputs": [
        {
          "internalType": "address[]",
          "name": "accounts",
          "type": "address[]"
        },
        {
          "internalType": "uint256[]",
          "name": "ids",
          "type": "uint256[]"
        }
      ],
      "name": "balanceOfBatch",
      "outputs": [
        {
          "internalType": "uint256[]",
          "name": "",
          "type": "uint256[]"
        }
      ],
      "stateMutability": "view",
      "type": "function"
    },
    {
      "inputs": [
        {
          "internalType": "address",
          "name": "account",
          "type": "address"
        },
        {
          "internalType": "address",
          "name": "operator",
          "type": "address"
        }
      ],
      "name": "isApprovedForAll",
      "outputs": [
        {
          "internalType": "bool",
          "name": "",
          "type": "bool"
        }
      ],
      "stateMutability": "view",
      "type": "function"
    },
    {
      "inputs": [],
      "name": "owner",
      "outputs": [
        {
          "internalType": "address",
          "name": "",
          "type": "address"
        }
      ],
      "stateMutability": "view",
      "type": "function"
    },
    {
      "inputs": [
        {
          "internalType": "address",
          "name": "from",
          "type": "address"
        },
        {
          "internalType": "address",
          "name": "to",
          "type": "address"
        },
        {
          "internalType": "uint256[]",
          "name": "ids",
          "type": "uint256[]"
        },
        {
          "internalType": "uint256[]",
          "name": "values",
          "type": "uint256[]"
        },
        {
          "internalType": "bytes",
          "name": "data",
          "type": "bytes"
        }
      ],
      "name": "safeBatchTransferFrom",
      "outputs": [],
      "stateMutability": "payable",
      "type": "function"
    },
    {
      "inputs": [
        {
          "internalType": "address",
          "name": "from",
          "type": "address"
        },
        {
          "internalType": "address",
          "name": "to",
          "type": "address"
        },
        {
          "internalType": "uint256",
          "name": "id",
          "type": "uint256"
        },
        {
          "internalType": "uint256",
          "name": "value",
          "type": "uint256"
        },
        {
          "internalType": "bytes",
          "name": "data",
          "type": "bytes"
        }
      ],
      "name": "safeTransferFrom",
      "outputs": [],
      "stateMutability": "payable",
      "type": "function"
    },
    {
      "inputs": [
        {
          "internalType": "address",
          "name": "operator",
          "type": "address"
        },
        {
          "internalType": "bool",
          "name": "approved",
          "type": "bool"
        }
      ],
      "name": "setApprovalForAll",
      "outputs": [],
      "stateMutability": "nonpayable",
      "type": "function"
    },
    {
      "inputs": [
        {
          "internalType": "bytes4",
          "name": "_interfaceID",
          "type": "bytes4"
        }
      ],
      "name": "supportsInterface",
      "outputs": [
        {
          "internalType": "bool",
          "name": "",
          "type": "bool"
        }
      ],
      "stateMutability": "pure",
      "type": "function"
    },
    {
      "inputs": [
        {
          "internalType": "address",
          "name": "newOwner",
          "type": "address"
        }
      ],
      "name": "transferOwnership",
      "outputs": [],
      "stateMutability": "nonpayable",
      "type": "function"
    },
    {
      "inputs": [
        {
          "internalType": "uint256",
          "name": "newMax",
          "type": "uint256"
        }
      ],
      "name": "setCallbackAutoExecuteMaxAddresses",
      "outputs": [],
      "stateMutability": "nonpayable",
      "type": "function"
    },
    {
      "inputs": [
        {
          "internalType": "uint256",
          "name": "callbackId",
          "type": "uint256"
        },
        {
          "internalType": "uint256",
          "name": "tokenId",
          "type": "uint256"
        },
        {
          "internalType": "uint256",
          "name": "price",
          "type": "uint256"
        },
        {
          "internalType": "address[]",
          "name": "callees",
          "type": "address[]"
        },
        {
          "internalType": "uint256",
          "name": "documentHash",
          "type": "uint256"
        }
      ],
      "name": "proposeCallback",
      "outputs": [],
      "stateMutability": "payable",
      "type": "function"
    },
    {
      "inputs": [
        {
          "internalType": "uint256",
          "name": "callbackId",
          "type": "uint256"
        }
      ],
      "name": "refuseCallback",
      "outputs": [],
      "stateMutability": "nonpayable",
      "type": "function"
    },
    {
      "inputs": [
        {
          "internalType": "uint256",
          "name": "callbackId",
          "type": "uint256"
        }
      ],
      "name": "approveCallback",
      "outputs": [],
      "stateMutability": "nonpayable",
      "type": "function"
    },
    {
      "inputs": [
        {
          "internalType": "uint256",
          "name": "callbackId",
          "type": "uint256"
        }
      ],
      "name": "acceptCallback",
      "outputs": [],
      "stateMutability": "nonpayable",
      "type": "function"
    },
    {
      "inputs": [
        {
          "internalType": "uint256",
          "name": "callbackId",
          "type": "uint256"
        },
        {
          "internalType": "uint256",
          "name": "maxCall",
          "type": "uint256"
        }
      ],
      "name": "executeCallback",
      "outputs": [],
      "stateMutability": "nonpayable",
      "type": "function"
    }
  ],
  "bytecode": "0x60806040523480156200001157600080fd5b506200001d3362000023565b620000df565b6001600160a01b03811662000084576040517f08c379a0000000000000000000000000000000000000000000000000000000008152600401808060200182810382526026815260200180620036e36026913960400191505060405180910390fd5b600080546040516001600160a01b03808516939216917f8be0079c531659141344cd1fd0a4f28419497f9722a3daafe3b4186f6b6457e091a3600080546001600160a01b0319166001600160a01b0392909216919091179055565b6135f480620000ef6000396000f3fe6080604052600436106101135760003560e01c80638da5cb5b116100a0578063e985e9c511610064578063e985e9c514610797578063ed70554d146107d2578063f242432a14610850578063f2fde38b146108e3578063fc3fcec71461091657610113565b80638da5cb5b146106215780638f96f13114610652578063a22cb4651461067c578063c255620a146106b7578063d842b673146106e157610113565b806331d5f78c116100e757806331d5f78c14610368578063369c37e9146103925780633cacd7d6146103bc578063414ed0ce1461040f5780634e1273f4146104a157610113565b8062fdd58e1461011857806301ffc9a7146101635780632eb2c2d6146101ab5780632ed42bf7146102d4575b600080fd5b34801561012457600080fd5b506101516004803603604081101561013b57600080fd5b506001600160a01b038135169060200135610946565b60408051918252519081900360200190f35b34801561016f57600080fd5b506101976004803603602081101561018657600080fd5b50356001600160e01b0319166109bb565b604080519115158252519081900360200190f35b6102d2600480360360a08110156101c157600080fd5b6001600160a01b038235811692602081013590911691810190606081016040820135600160201b8111156101f457600080fd5b82018360208201111561020657600080fd5b803590602001918460208302840111600160201b8311171561022757600080fd5b919390929091602081019035600160201b81111561024457600080fd5b82018360208201111561025657600080fd5b803590602001918460208302840111600160201b8311171561027757600080fd5b919390929091602081019035600160201b81111561029457600080fd5b8201836020820111156102a657600080fd5b803590602001918460018302840111600160201b831117156102c757600080fd5b509092509050610a02565b005b3480156102e057600080fd5b506102e9610d88565b6040518083815260200180602001828103825283818151815260200191508051906020019080838360005b8381101561032c578181015183820152602001610314565b50505050905090810190601f1680156103595780820380516001836020036101000a031916815260200191505b50935050505060405180910390f35b34801561037457600080fd5b506102d26004803603602081101561038b57600080fd5b5035610e1b565b34801561039e57600080fd5b506102d2600480360360208110156103b557600080fd5b5035610ff9565b3480156103c857600080fd5b506103ef600480360360208110156103df57600080fd5b50356001600160a01b0316611057565b604080519315158452911515602084015282820152519081900360600190f35b34801561041b57600080fd5b506104396004803603602081101561043257600080fd5b503561107d565b604080519b8c5260208c019a909a528a8a019890985260608a019690965260808901949094526001600160a01b0390921660a0880152151560c0870152151560e086015215156101008501521515610120840152151561014083015251908190036101600190f35b3480156104ad57600080fd5b506105d1600480360360408110156104c457600080fd5b810190602081018135600160201b8111156104de57600080fd5b8201836020820111156104f057600080fd5b803590602001918460208302840111600160201b8311171561051157600080fd5b9190808060200260200160405190810160405280939291908181526020018383602002808284376000920191909152509295949360208101935035915050600160201b81111561056057600080fd5b82018360208201111561057257600080fd5b803590602001918460208302840111600160201b8311171561059357600080fd5b9190808060200260200160405190810160405280939291908181526020018383602002808284376000920191909152509295506110f0945050505050565b60408051602080825283518183015283519192839290830191858101910280838360005b8381101561060d5781810151838201526020016105f5565b505050509050019250505060405180910390f35b34801561062d57600080fd5b50610636611274565b604080516001600160a01b039092168252519081900360200190f35b34801561065e57600080fd5b506102d26004803603602081101561067557600080fd5b5035611283565b34801561068857600080fd5b506102d26004803603604081101561069f57600080fd5b506001600160a01b03813516906020013515156114bc565b3480156106c357600080fd5b506102d2600480360360208110156106da57600080fd5b5035611572565b6102d2600480360360a08110156106f757600080fd5b81359160208101359160408201359190810190608081016060820135600160201b81111561072457600080fd5b82018360208201111561073657600080fd5b803590602001918460208302840111600160201b8311171561075757600080fd5b91908080602002602001604051908101604052809392919081815260200183836020028082843760009201919091525092955050913592506117e8915050565b3480156107a357600080fd5b50610197600480360360408110156107ba57600080fd5b506001600160a01b0381358116916020013516611a74565b3480156107de57600080fd5b506107fc600480360360208110156107f557600080fd5b5035611ab7565b60408051998a5260208a0198909852888801969096526060880194909452608087019290925260a08601526001600160a01b031660c0850152151560e0840152151561010083015251908190036101200190f35b6102d2600480360360a081101561086657600080fd5b6001600160a01b03823581169260208101359091169160408201359160608101359181019060a081016080820135600160201b8111156108a557600080fd5b8201836020820111156108b757600080fd5b803590602001918460018302840111600160201b831117156108d857600080fd5b509092509050611b13565b3480156108ef57600080fd5b506102d26004803603602081101561090657600080fd5b50356001600160a01b0316611d6d565b34801561092257600080fd5b506102d26004803603604081101561093957600080fd5b5080359060200135611dd2565b60006001600160a01b03831661098d5760405162461bcd60e51b815260040180806020018281038252602b815260200180613375602b913960400191505060405180910390fd5b506000818152600e602090815260408083206001600160a01b03861684526007019091529020545b92915050565b60006001600160e01b031982166301ffc9a760e01b14806109ec57506001600160e01b03198216636cdb3d1360e11b145b156109f9575060016109fd565b5060005b919050565b848314610a405760405162461bcd60e51b815260040180806020018281038252602e815260200180613560602e913960400191505060405180910390fd5b6001600160a01b038716610a855760405162461bcd60e51b81526004018080602001828103825260288152602001806133e66028913960400191505060405180910390fd5b6001600160a01b038816331480610aa75750610aa18833611a74565b15156001145b610ae25760405162461bcd60e51b81526004018080602001828103825260378152602001806135296037913960400191505060405180910390fd5b6000803411610b0c576001600160a01b0389166000908152600d6020526040902060010154610b0e565b345b905060005b86811015610b5857610b4c8a8a8a8a85818110610b2c57fe5b90506020020135898986818110610b3f57fe5b9050602002013586611f9b565b90910390600101610b13565b50876001600160a01b0316896001600160a01b0316336001600160a01b03167f4a39dc06d4c0dbc64b70af90fd698a233a518aa5d07e595d983b8c0526c8f7fb8a8a8a8a6040518080602001806020018381038352878782818152602001925060200280828437600083820152601f01601f19169091018481038352858152602090810191508690860280828437600083820152604051601f909101601f19169092018290039850909650505050505050a4610cae338a8a8a8a8080602002602001604051908101604052809392919081815260200183836020028082843760009201919091525050604080516020808e0282810182019093528d82529093508d92508c91829185019084908082843760009201919091525050604080516020601f8d018190048102820181019092528b815292508b91508a908190840183828082843760009201919091525061219892505050565b600034118015610cbe5750600081115b15610d5957604051600090339083908381818185875af1925050503d8060008114610d05576040519150601f19603f3d011682016040523d82523d6000602084013e610d0a565b606091505b5050905080610d53576040805162461bcd60e51b815260206004820152601060248201526f2a3930b739b332b9103330b4b632b21760811b604482015290519081900360640190fd5b50610d7d565b34610d7d576001600160a01b0389166000908152600d602052604090206001018190555b505050505050505050565b6001805460028054604080516020838716156101000260001901909316849004601f81018490048402820184019092528181529394939291830182828015610e115780601f10610de657610100808354040283529160200191610e11565b820191906000526020600020905b815481529060010190602001808311610df457829003601f168201915b5050505050905082565b610e2361327c565b6000828152600f602090815260409182902082516101808101845281548152600182015481840152600282015481850152600382015460608201526004820154608082015260058201546001600160a01b03811660a083015260ff600160a01b82048116151560c0840152600160a81b82048116151560e0840152600160b01b820481161515610100840152600160b81b820481161515610120840152600160c01b909104161515610140820152600682018054855181860281018601909652808652919492936101608601939290830182828015610f2b57602002820191906000526020600020905b81546001600160a01b03168152600190910190602001808311610f0d575b50505091909252505081519192505015801590610f4f57508051610f4f9033612391565b8015610f5e5750610100810151155b8015610f6d5750610120810151155b610fbe576040805162461bcd60e51b815260206004820152601f60248201527f496e76616c696420617267756d656e7473206f72207065726d697373696f6e00604482015290519081900360640190fd5b6000828152600f6020526040808220600501805460ff60a81b1916600160a81b1790555183916000805160206133c683398151915291a25050565b6110016123b5565b611052576040805162461bcd60e51b815260206004820181905260248201527f4f776e61626c653a2063616c6c6572206973206e6f7420746865206f776e6572604482015290519081900360640190fd5b600155565b600d602052600090815260409020805460019091015460ff808316926101009004169083565b600f6020526000908152604090208054600182015460028301546003840154600485015460059095015493949293919290916001600160a01b0381169060ff600160a01b8204811691600160a81b8104821691600160b01b8204811691600160b81b8104821691600160c01b909104168b565b606081518351146111325760405162461bcd60e51b815260040180806020018281038252603081526020018061343a6030913960400191505060405180910390fd5b6060835167ffffffffffffffff8111801561114c57600080fd5b50604051908082528060200260200182016040528015611176578160200160208202803683370190505b50905060005b845181101561126c5760006001600160a01b031685828151811061119c57fe5b60200260200101516001600160a01b031614156111ea5760405162461bcd60e51b81526004018080602001828103825260348152602001806134a06034913960400191505060405180910390fd5b600e60008583815181106111fa57fe5b60200260200101518152602001908152602001600020600701600086838151811061122157fe5b60200260200101516001600160a01b03166001600160a01b031681526020019081526020016000206000015482828151811061125957fe5b602090810291909101015260010161117c565b509392505050565b6000546001600160a01b031690565b61128b61327c565b6000828152600f602090815260409182902082516101808101845281548152600182015481840152600282015481850152600382015460608201526004820154608082015260058201546001600160a01b03811660a083015260ff600160a01b82048116151560c0840152600160a81b82048116151560e0840152600160b01b820481161515610100840152600160b81b820481161515610120840152600160c01b90910416151561014082015260068201805485518186028101860190965280865291949293610160860193929083018282801561139357602002820191906000526020600020905b81546001600160a01b03168152600190910190602001808311611375575b505050919092525050815191925050158015906113b35750610100810151155b80156113c25750610120810151155b8015611407575080516113d590336123c6565b806113e7575080516113e79033612391565b8061140757508060a001516001600160a01b0316336001600160a01b0316145b611458576040805162461bcd60e51b815260206004820152601f60248201527f496e76616c696420617267756d656e7473206f72207065726d697373696f6e00604482015290519081900360640190fd5b6000828152600f60209081526040808320600501805460ff60b01b1916600160b01b1790558381015160a08501516001600160a01b03168452600d90925280832060010180549092019091555183916000805160206133c683398151915291a25050565b336001600160a01b03831614156115045760405162461bcd60e51b815260040180806020018281038252602c81526020018061340e602c913960400191505060405180910390fd5b3360008181526010602090815260408083206001600160a01b03871680855290835292819020805460ff1916861515908117909155815190815290519293927f17307eab39ab6107e8899845ad3d59bd9653f200f220920489ca2b5937696c31929181900390910190a35050565b61157a61327c565b6000828152600f602090815260409182902082516101808101845281548152600182015481840152600282015481850152600382015460608201526004820154608082015260058201546001600160a01b03811660a083015260ff600160a01b82048116151560c0840152600160a81b82048116151560e0840152600160b01b820481161515610100840152600160b81b820481161515610120840152600160c01b90910416151561014082015260068201805485518186028101860190965280865291949293610160860193929083018282801561168257602002820191906000526020600020905b81546001600160a01b03168152600190910190602001808311611664575b505050919092525050815191925050158015906116a6575080516116a690336123c6565b80156116bf57508060c0015115806116bf57508060e001515b80156116ce5750610100810151155b80156116dd5750610120810151155b801561170457506116fc81600001518260200151836101600151612400565b816040015110155b61173f5760405162461bcd60e51b81526004018080602001828103825260348152602001806134f56034913960400191505060405180910390fd5b6000828152600f6020526040808220600501805460ff60b81b1916600160b81b1790555183916000805160206133c683398151915291a261016081015151156117975761179282826101600151516124b7565b6117e4565b60015481516000908152600e6020526040902060080154116117d25780516000908152600e60205260409020600801546117929083906124b7565b6117e481600001518260800151612767565b5050565b6000858152600f602052604090205415801561181157506000848152600e602052604090205415155b80156118275750611823848484612400565b3410155b80156118365750600154825111155b611887576040805162461bcd60e51b815260206004820152601a60248201527f496e76616c696420617267756d656e7473206f722076616c7565000000000000604482015290519081900360640190fd5b6000848152600e60205260408120600481015490546118b391612710916118ad916127c3565b9061281c565b905060405180610180016040528086815260200185815260200134815260200160008152602001838152602001336001600160a01b03168152602001856000148061191957506000878152600e6020908152604080832033845260070190915290205483115b80611925575060008551115b151581526000602080830182905260408084018390526060808501849052608080860185905260a09586018a90528c8552600f8452938290208651815586840151600182015591860151600283015585015160038201559184015160048301559183015160058201805460c086015160e08701516101008801516101208901516101408a01511515600160c01b0260ff60c01b19911515600160b81b0260ff60b81b19931515600160b01b0260ff60b01b19951515600160a81b0260ff60a81b19971515600160a01b0260ff60a01b196001600160a01b03909c166001600160a01b0319909a16999099179a909a16979097179590951697909717929092169390931792909216171691909117905561016083015180519192611a50926006850192909101906132f0565b50506040518791506000805160206133c683398151915290600090a2505050505050565b6000611a80838361285e565b80611ab057506001600160a01b0380841660009081526010602090815260408083209386168352929052205460ff165b9392505050565b600e60205260009081526040902080546001820154600283015460038401546004850154600586015460069096015494959394929391929091906001600160a01b0381169060ff600160a01b8204811691600160a81b90041689565b6001600160a01b038516611b585760405162461bcd60e51b81526004018080602001828103825260288152602001806133e66028913960400191505060405180910390fd5b6001600160a01b038616331480611b7a5750611b748633611a74565b15156001145b611bb55760405162461bcd60e51b81526004018080602001828103825260378152602001806135296037913960400191505060405180910390fd5b6000803411611bdf576001600160a01b0387166000908152600d6020526040902060010154611be1565b345b9050611bf08787878785611f9b565b81039050856001600160a01b0316876001600160a01b0316336001600160a01b03167fc3d58168c5ae7397731d063d5bbf3d657854427343f4c083240f7aacaa2d0f628888604051808381526020018281526020019250505060405180910390a4611c95338888888888888080601f01602080910402602001604051908101604052809392919081815260200183838082843760009201919091525061294592505050565b600034118015611ca55750600081115b15611d4057604051600090339083908381818185875af1925050503d8060008114611cec576040519150601f19603f3d011682016040523d82523d6000602084013e611cf1565b606091505b5050905080611d3a576040805162461bcd60e51b815260206004820152601060248201526f2a3930b739b332b9103330b4b632b21760811b604482015290519081900360640190fd5b50611d64565b34611d64576001600160a01b0387166000908152600d602052604090206001018190555b50505050505050565b611d756123b5565b611dc6576040805162461bcd60e51b815260206004820181905260248201527f4f776e61626c653a2063616c6c6572206973206e6f7420746865206f776e6572604482015290519081900360640190fd5b611dcf81612aba565b50565b611dda61327c565b6000838152600f602090815260409182902082516101808101845281548152600182015481840152600282015481850152600382015460608201526004820154608082015260058201546001600160a01b03811660a083015260ff600160a01b82048116151560c0840152600160a81b82048116151560e0840152600160b01b820481161515610100840152600160b81b820481161515610120840152600160c01b909104161515610140820152600682018054855181860281018601909652808652919492936101608601939290830182828015611ee257602002820191906000526020600020905b81546001600160a01b03168152600190910190602001808311611ec4575b50505091909252505081519192505015801590611f06575061012081015115156001145b8015611f155750610140810151155b611f59576040805162461bcd60e51b815260206004820152601060248201526f496e76616c69642063616c6c6261636b60801b604482015290519081900360640190fd5b611f6383836124b7565b6000838152600f6020526040902060050154600160c01b900460ff1615611f9657611f9681600001518260800151612b5a565b505050565b6000611fa986868686612bb0565b15611fe4576040805162461bcd60e51b8152602060048201526006602482015265131bd8dad95960d21b604482015290519081900360640190fd5b611fef868585612be8565b905080821015612046576040805162461bcd60e51b815260206004820152601960248201527f496e73756666696369656e742045544820666f72206665657300000000000000604482015290519081900360640190fd5b6040805180820182526014815273496e73756666696369656e742062616c616e636560601b6020808301919091526000878152600e82528381206001600160a01b038b16825260070190915291909120546120a2918590612dca565b6000858152600e602090815260408083206001600160a01b038b1684526007019091529020556120d3858585612e61565b60005b6000858152600e602052604090206009015481101561218e576000858152600e6020526040812060090180548390811061210c57fe5b6000918252602080832090910154888352600e90915260408220600a0180546001600160a01b039092169350908490811061214357fe5b60009182526020909120015490506121616127106118ad86846127c3565b6001600160a01b039092166000908152600d602052604090206001908101805490930190925550016120d6565b5095945050505050565b6121aa846001600160a01b03166130fd565b156123895763bc197c8160e01b6001600160e01b031916846001600160a01b031663bc197c8188888787876040518663ffffffff1660e01b815260040180866001600160a01b03168152602001856001600160a01b03168152602001806020018060200180602001848103845287818151815260200191508051906020019060200280838360005b8381101561224a578181015183820152602001612232565b50505050905001848103835286818151815260200191508051906020019060200280838360005b83811015612289578181015183820152602001612271565b50505050905001848103825285818151815260200191508051906020019080838360005b838110156122c55781810151838201526020016122ad565b50505050905090810190601f1680156122f25780820380516001836020036101000a031916815260200191505b5098505050505050505050602060405180830381600087803b15801561231757600080fd5b505af115801561232b573d6000803e3d6000fd5b505050506040513d602081101561234157600080fd5b50516001600160e01b031916146123895760405162461bcd60e51b815260040180806020018281038252603681526020018061346a6036913960400191505060405180910390fd5b505050505050565b6000918252600e6020526040909120600601546001600160a01b0391821691161490565b6000546001600160a01b0316331490565b6000828152600e602090815260408083206001600160a01b038516845260070190915281206002015460ff1680611ab05750611ab06123b5565b80516000908190612441576000858152600e6020818152604080842033855260078101835290842054938990529190525461243a91613139565b90506124a4565b60005b83518110156124a257600e6000878152602001908152602001600020600701600085838151811061247157fe5b6020908102919091018101516001600160a01b03168252810191909152604001600020549190910190600101612444565b505b6124ae81856127c3565b95945050505050565b6000828152600f6020526040902080546006909101546060906124ea576000828152600e602052604090206008016124fc565b6000848152600f602052604090206006015b80548060200260200160405190810160405280929190818152602001828054801561255057602002820191906000526020600020905b81546001600160a01b03168152600190910190602001808311612532575b505083516000898152600f602052604081206003015495965060001990910194935091505085820183116125845782612588565b8582015b90506000825b8281116126e25760008682815181106125a357fe5b60209081029190910181015160008a8152600e835260408082206001600160a01b03841683526007019093529190912054909150156126d9576000888152600e602090815260408083206001600160a01b0385168085526007909101808452828520548f8652600f855292852060010154919094529290915293840193612629916127c3565b6001600160a01b038083166000818152600d6020908152604080832060010180549096019095558e8252600f8152848220600501548d8352600e82528583208484526007018252918590205485518e81529182015284519190931693919233927fc3d58168c5ae7397731d063d5bbf3d657854427343f4c083240f7aacaa2d0f6292918290030190a46000888152600e602090815260408083206001600160a01b03851684526007019091528120555b5060010161258e565b506000888152600f6020526040902060050154612709906001600160a01b03168783612e61565b6000888152600f602052604090206003018290558382141561275d576000888152600f6020526040808220600501805460ff60c01b1916600160c01b1790555189916000805160206133c683398151915291a25b5050505050505050565b6000828152600e6020908152604091829020600601805460ff60a81b1916600160a81b1790558151838152915184927f199acc06cd2556bbc146fa3cb578799037dffcbf256eca32aaf2ef656925d2fd92908290030190a25050565b6000826127d2575060006109b5565b828202828482816127df57fe5b0414611ab05760405162461bcd60e51b81526004018080602001828103825260218152602001806134d46021913960400191505060405180910390fd5b6000611ab083836040518060400160405280601a81526020017f536166654d6174683a206469766973696f6e206279207a65726f00000000000081525061317b565b6000805b600a81101561293b576000600382600a811061287a57fe5b01546001600160a01b031614612933576000600382600a811061289957fe5b01546040805163c455279160e01b81526001600160a01b0388811660048301529151928216935090861691839163c4552791916024808301926020929190829003018186803b1580156128eb57600080fd5b505afa1580156128ff573d6000803e3d6000fd5b505050506040513d602081101561291557600080fd5b50516001600160a01b03161415612931576001925050506109b5565b505b600101612862565b5060009392505050565b612957846001600160a01b03166130fd565b156123895763f23a6e6160e01b6001600160e01b031916846001600160a01b031663f23a6e6188888787876040518663ffffffff1660e01b815260040180866001600160a01b03168152602001856001600160a01b0316815260200184815260200183815260200180602001828103825283818151815260200191508051906020019080838360005b838110156129f85781810151838201526020016129e0565b50505050905090810190601f168015612a255780820380516001836020036101000a031916815260200191505b509650505050505050602060405180830381600087803b158015612a4857600080fd5b505af1158015612a5c573d6000803e3d6000fd5b505050506040513d6020811015612a7257600080fd5b50516001600160e01b031916146123895760405162461bcd60e51b815260040180806020018281038252603181526020018061358e6031913960400191505060405180910390fd5b6001600160a01b038116612aff5760405162461bcd60e51b81526004018080602001828103825260268152602001806133a06026913960400191505060405180910390fd5b600080546040516001600160a01b03808516939216917f8be0079c531659141344cd1fd0a4f28419497f9722a3daafe3b4186f6b6457e091a3600080546001600160a01b0319166001600160a01b0392909216919091179055565b6000828152600e6020908152604091829020600601805460ff60a81b191690558151838152915184927f199acc06cd2556bbc146fa3cb578799037dffcbf256eca32aaf2ef656925d2fd92908290030190a25050565b6000612bbb836131e0565b80612bca5750612bca856131ff565b80612bd95750612bd9846131ff565b806124ae575050159392505050565b6000828152600e60205260408120600b015481904290600019015b6000868152600e60205260408120600b01805483908110612c2057fe5b60009182526020822060029091020101546000888152600e60205260408120600b018054929350909184908110612c5357fe5b9060005260206000209060020201600160028110612c6d57fe5b01546000898152600e602090815260408083206001600160a01b038e168452600701909152812060010154919250908311612d0a576000898152600e602090815260408083206001600160a01b038e168452600701909152902060010154612cdf9062015180906118ad908890613139565b905080612cea575060015b612cfe88612cf883856127c3565b906127c3565b86019550505050612d49565b612d1b620151806118ad8786613139565b905080612d26575060015b9193508391612d3988612cf883856127c3565b9095019450505060001901612c03565b506000858152600e6020526040902060010154612d6a908390600a0a61281c565b6000868152600e602052604081206003015491935090612d95906305f5e100906118ad9088906127c3565b6000878152600e6020526040902060020154909150612dbf90612db89083613222565b8490613222565b979650505050505050565b60008184841115612e595760405162461bcd60e51b81526004018080602001828103825283818151815260200191508051906020019080838360005b83811015612e1e578181015183820152602001612e06565b50505050905090810190601f168015612e4b5780820380516001836020036101000a031916815260200191505b509250505060405180910390fd5b505050900390565b6000828152600e6020526040902060060154600160a01b900460ff161580612eb757506000828152600e602090815260408083206001600160a01b038716845260070190915290206002015462010000900460ff165b612eff576040805162461bcd60e51b81526020600482015260146024820152731059191c995cdcc81b9bdd08185c1c1c9bdd995960621b604482015290519081900360640190fd5b6000828152600e602090815260408083206001600160a01b0387168452600701909152812054612f2f9083613222565b6000848152600e602090815260408083206001600160a01b038916845260070190915290205490915061302c576000838152600e602090815260408083206001600160a01b0388168452600701909152902060020154610100900460ff16612ffb576001600160a01b0384166000818152600d6020908152604080832060020180546001818101835591855283852001889055878452600e83529083206008810180549283018155845282842090910180546001600160a01b0319168517905592909152600790910190525b6000838152600e602090815260408083206001600160a01b03881684526007019091529020426001909101556130cd565b6000838152600e602090815260408083206001600160a01b0388168452600701909152812060010154613060904290613139565b6000858152600e602090815260408083206001600160a01b038a1684526007019091528120549192509061309a9084906118ad90856127c3565b6000868152600e602090815260408083206001600160a01b038b1684526007019091529020429190910360019091015550505b6000928352600e602090815260408085206001600160a01b03909616855260079095019052929091209190915550565b6000813f7fc5d2460186f7233c927e7db2dcc703c0e500b653ca82273b7bfad8045d85a47081158015906131315750808214155b949350505050565b6000611ab083836040518060400160405280601e81526020017f536166654d6174683a207375627472616374696f6e206f766572666c6f770000815250612dca565b600081836131ca5760405162461bcd60e51b8152602060048201818152835160248401528351909283926044909101919085019080838360008315612e1e578181015183820152602001612e06565b5060008385816131d657fe5b0495945050505050565b6000908152600e6020526040902060060154600160a81b900460ff1690565b6001600160a01b03166000908152600d6020526040902054610100900460ff1690565b600082820183811015611ab0576040805162461bcd60e51b815260206004820152601b60248201527f536166654d6174683a206164646974696f6e206f766572666c6f770000000000604482015290519081900360640190fd5b604051806101800160405280600081526020016000815260200160008152602001600081526020016000815260200160006001600160a01b03168152602001600015158152602001600015158152602001600015158152602001600015158152602001600015158152602001606081525090565b828054828255906000526020600020908101928215613345579160200282015b8281111561334557825182546001600160a01b0319166001600160a01b03909116178255602090920191600190910190613310565b50613351929150613355565b5090565b5b808211156133515780546001600160a01b031916815560010161335656fe455243313135353a2062616c616e636520717565727920666f7220746865207a65726f20616464726573734f776e61626c653a206e6577206f776e657220697320746865207a65726f20616464726573736ce984c7277c5fe8f47fdf17245300ed19587e3bc1041342d79726b2b2f1dc0b455243313135353a207461726765742061646472657373206d757374206265206e6f6e2d7a65726f455243313135353a2063616e6e6f742073657420617070726f76616c2073746174757320666f722073656c66455243313135353a206163636f756e747320616e6420494473206d75737420686176652073616d65206c656e67746873455243313135353a20676f7420756e6b6e6f776e2076616c75652066726f6d206f6e4552433131353542617463685265636569766564455243313135353a20736f6d65206164647265737320696e2062617463682062616c616e6365207175657279206973207a65726f536166654d6174683a206d756c7469706c69636174696f6e206f766572666c6f77496e73756666696369656e742063616c6c6261636b2c207065726d697373696f6e206f7220657363726f77656420616d6f756e74455243313135353a206e656564206f70657261746f7220617070726f76616c20666f7220337264207061727479207472616e7366657273455243313135353a2049447320616e642076616c756573206d75737420686176652073616d65206c656e67746873455243313135353a20676f7420756e6b6e6f776e2076616c75652066726f6d206f6e455243313135355265636569766564a26469706673582212202c8d94bdf9c610acbc5bebda1bba209184e3fe0aa53bc0b68d51f6ebe6d7018064736f6c634300070100334f776e61626c653a206e6577206f776e657220697320746865207a65726f2061646472657373",
  "immutableReferences": {},
  "source": "// SPDX-License-Identifier: GPL-3.0-or-later\n\npragma solidity ^0.7.1;\n\nimport './lib/ERC1155/ERC1155.sol';\n\ncontract Callbacks is ERC1155 {\n\n    using SafeMath for uint256;\n\n\n    /***************************************\n    CALLBACKS\n    ****************************************/\n\n    /**\n     * @dev Maximum addresses to execute automatically the callback when is accepted.\n     * @param newMax new maximum\n     */\n    function setCallbackAutoExecuteMaxAddresses(uint256 newMax) external onlyOwner {\n        _config.callbackAutoExecuteMaxAddresses = newMax;\n    }\n\n    /**\n     * @dev Propose to buy the whole supply of a token.\n     * The proposer must hold minHoldingForCallback% of the total supply.\n     * StashBlox must approve the price with acceptCallback();\n     * @param tokenId Token ID\n     * @param price proposed price\n     * @param callees list of calless. Empty list means all holders.\n     */\n    function proposeCallback(uint256 callbackId, uint256 tokenId, uint256 price, address[] memory callees, uint256 documentHash) external payable {\n        require(_callbacks[callbackId].tokenId == 0 && _tokens[tokenId].supply > 0 &&\n                msg.value >= _callbackPrice(tokenId, price, callees) &&\n                callees.length <= _config.callbackAutoExecuteMaxAddresses, \"Invalid arguments or value\");\n\n        uint256 minHolding = (_tokens[tokenId].supply.mul(_tokens[tokenId].minHoldingForCallback)).div(10000);\n\n        _callbacks[callbackId] = Callback({\n            tokenId: tokenId,\n            caller: msg.sender,\n            callees: callees,\n            price: price,\n            escrowedAmount: msg.value,\n            needLegalApproval: (price == 0) ||\n                               (_tokens[tokenId].holders[msg.sender].balance < minHolding) ||\n                               (callees.length > 0),\n            approvedByLegal: false,\n            refused: false,\n            accepted: false,\n            callCounter: 0,\n            completed: false,\n            documentHash: documentHash\n        });\n\n        emit CallbackUpdated(callbackId);\n    }\n\n    /**\n     * @dev Refuse a callback if the price is not enough.\n     * @param callbackId callback proposition ID\n     */\n    function refuseCallback(uint256 callbackId) external {\n        Callback memory callback = _callbacks[callbackId];\n\n        require(callback.tokenId != 0 &&\n                callback.refused == false &&\n                callback.accepted == false &&\n                (_isMaintener(callback.tokenId, msg.sender) ||\n                 _isLegalAuthority(callback.tokenId, msg.sender) ||\n                 msg.sender == callback.caller), \"Invalid arguments or permission\");\n\n        _callbacks[callbackId].refused = true;\n        _users[callback.caller].ETHBalance += callback.escrowedAmount;\n\n        emit CallbackUpdated(callbackId);\n    }\n\n    /**\n     * @dev Approve a callback\n     * @param callbackId callback proposition ID\n     */\n    function approveCallback(uint256 callbackId) external {\n        Callback memory callback = _callbacks[callbackId];\n\n        require(callback.tokenId != 0 &&\n                _isLegalAuthority(callback.tokenId, msg.sender) &&\n                callback.refused == false &&\n                callback.accepted == false, \"Invalid arguments or permission\");\n\n        _callbacks[callbackId].approvedByLegal = true;\n\n        emit CallbackUpdated(callbackId);\n    }\n\n    /**\n     * @dev Accept a callback\n     * @param callbackId callback proposition ID\n     */\n    function acceptCallback(uint256 callbackId) external {\n        Callback memory callback = _callbacks[callbackId];\n\n        require(callback.tokenId != 0 &&\n                _isMaintener(callback.tokenId, msg.sender) &&\n                (!callback.needLegalApproval || callback.approvedByLegal) &&\n                callback.refused == false &&\n                callback.accepted == false &&\n                callback.escrowedAmount >= _callbackPrice(callback.tokenId, callback.price, callback.callees),\n                \"Insufficient callback, permission or escrowed amount\");\n\n        _callbacks[callbackId].accepted = true;\n\n        emit CallbackUpdated(callbackId);\n\n        if (callback.callees.length > 0) {\n            _executeCallback(callbackId, callback.callees.length);\n        } else if (_tokens[callback.tokenId].holderList.length <= _config.callbackAutoExecuteMaxAddresses) {\n            _executeCallback(callbackId, _tokens[callback.tokenId].holderList.length);\n        } else {\n            _lockToken(callback.tokenId, callback.documentHash);\n        }\n    }\n\n    /**\n     * @dev Accept a callback. Caller need to recall the function to continue the callback until completed.\n     * @param callbackId callback proposition ID\n     * @param maxCall maximal call to excute\n     */\n    function executeCallback(uint256 callbackId, uint256 maxCall) external {\n        Callback memory callback = _callbacks[callbackId];\n\n        require(callback.tokenId != 0 &&\n                callback.accepted == true &&\n                callback.completed == false, \"Invalid callback\");\n\n        _executeCallback(callbackId, maxCall);\n\n        if (_callbacks[callbackId].completed) {\n            _unlockToken(callback.tokenId, callback.documentHash);\n        }\n    }\n\n\n    function _executeCallback(uint256 callbackId, uint256 maxCall) internal {\n        uint256 tokenId = _callbacks[callbackId].tokenId;\n\n        address[] memory callees = _callbacks[callbackId].callees.length > 0 ?\n                                   _callbacks[callbackId].callees :\n                                   _tokens[tokenId].holderList;\n\n        uint256 max = callees.length - 1;\n        uint256 start = _callbacks[callbackId].callCounter;\n        uint256 end = start + maxCall <  max ? start + maxCall : max;\n\n        uint256 callbackAmount = 0;\n        for (uint256 i = start; i <= end; i++) {\n            address callee = callees[i];\n            if (_tokens[tokenId].holders[callee].balance > 0) {\n                callbackAmount += _tokens[tokenId].holders[callee].balance;\n                _users[callee].ETHBalance += _tokens[tokenId].holders[callee].balance.mul(_callbacks[callbackId].price);\n\n                emit TransferSingle(msg.sender,\n                                    callee,\n                                    _callbacks[callbackId].caller,\n                                    tokenId,\n                                    _tokens[tokenId].holders[callee].balance);\n\n                _tokens[tokenId].holders[callee].balance = 0;\n            }\n        }\n        _addToBalance(_callbacks[callbackId].caller, tokenId, callbackAmount);\n\n        _callbacks[callbackId].callCounter = end;\n        if (end == max) {\n            _callbacks[callbackId].completed = true;\n            emit CallbackUpdated(callbackId);\n        }\n    }\n\n\n    function _callbackPrice(uint256 tokenId, uint256 price, address[] memory callees) internal view returns (uint256) {\n        uint256 callbackAmount = 0;\n        if (callees.length == 0) {\n            callbackAmount = _tokens[tokenId].supply.sub(_tokens[tokenId].holders[msg.sender].balance);\n        } else {\n            for (uint i; i < callees.length; i++) {\n                callbackAmount += _tokens[tokenId].holders[callees[i]].balance;\n            }\n        }\n        return callbackAmount.mul(price);\n    }\n\n}\n",
  "sourcePath": "/home/ouziel/Work/StashBloxContracts/contracts/Callbacks.sol",
  "compiler": {
    "name": "solc",
    "version": "0.7.1+commit.f4a555be.Emscripten.clang"
  },
  "schemaVersion": "3.2.3",
  "updatedAt": "2020-10-20T09:56:54.099Z",
  "devdoc": {
    "kind": "dev",
    "methods": {
      "acceptCallback(uint256)": {
        "details": "Accept a callback",
        "params": {
          "callbackId": "callback proposition ID"
        }
      },
      "approveCallback(uint256)": {
        "details": "Approve a callback",
        "params": {
          "callbackId": "callback proposition ID"
        }
      },
      "balanceOf(address,uint256)": {
        "details": "Get the specified address' balance for token with specified ID. Attempting to query the zero account for a balance will result in a revert.",
        "params": {
          "account": "The address of the token holder",
          "id": "ID of the token"
        },
        "returns": {
          "_0": "The account's balance of the token type requested"
        }
      },
      "balanceOfBatch(address[],uint256[])": {
        "details": "Get the balance of multiple account/token pairs. If any of the query accounts is the zero account, this query will revert.",
        "params": {
          "accounts": "The addresses of the token holders",
          "ids": "IDs of the tokens"
        },
        "returns": {
          "_0": "Balances for each account and token id pair"
        }
      },
      "executeCallback(uint256,uint256)": {
        "details": "Accept a callback. Caller need to recall the function to continue the callback until completed.",
        "params": {
          "callbackId": "callback proposition ID",
          "maxCall": "maximal call to excute"
        }
      },
      "isApprovedForAll(address,address)": {
        "params": {
          "account": "The account of the Tokens",
          "operator": "Address of authorized operator"
        },
        "returns": {
          "_0": "True if the operator is approved, false if not"
        }
      },
      "owner()": {
        "details": "Returns the address of the current owner."
      },
      "proposeCallback(uint256,uint256,uint256,address[],uint256)": {
        "details": "Propose to buy the whole supply of a token. The proposer must hold minHoldingForCallback% of the total supply. StashBlox must approve the price with acceptCallback();",
        "params": {
          "callees": "list of calless. Empty list means all holders.",
          "price": "proposed price",
          "tokenId": "Token ID"
        }
      },
      "refuseCallback(uint256)": {
        "details": "Refuse a callback if the price is not enough.",
        "params": {
          "callbackId": "callback proposition ID"
        }
      },
      "safeBatchTransferFrom(address,address,uint256[],uint256[],bytes)": {
        "details": "Transfers `values` amount(s) of `ids` from the `from` address to the `to` address specified. Caller must be approved to manage the tokens being transferred out of the `from` account. If `to` is a smart contract, will call `onERC1155BatchReceived` on `to` and act appropriately.",
        "params": {
          "data": "Data forwarded to `onERC1155Received` if `to` is a contract receiver",
          "from": "Source address",
          "ids": "IDs of each token type",
          "to": "Target address",
          "values": "Transfer amounts per token type"
        }
      },
      "safeTransferFrom(address,address,uint256,uint256,bytes)": {
        "details": "Transfers `value` amount of an `id` from the `from` address to the `to` address specified. Caller must be approved to manage the tokens being transferred out of the `from` account. If `to` is a smart contract, will call `onERC1155Received` on `to` and act appropriately.",
        "params": {
          "data": "Data forwarded to `onERC1155Received` if `to` is a contract receiver",
          "from": "Source address",
          "id": "ID of the token type",
          "to": "Target address",
          "value": "Transfer amount"
        }
      },
      "setApprovalForAll(address,bool)": {
        "details": "Sets or unsets the approval of a given operator. An operator is allowed to transfer all tokens of the sender on their behalf. Because an account already has operator privileges for itself, this function will revert if the account attempts to set the approval status for itself.",
        "params": {
          "approved": "representing the status of the approval to be set",
          "operator": "address to set the approval"
        }
      },
      "setCallbackAutoExecuteMaxAddresses(uint256)": {
        "details": "Maximum addresses to execute automatically the callback when is accepted.",
        "params": {
          "newMax": "new maximum"
        }
      },
      "supportsInterface(bytes4)": {
        "params": {
          "_interfaceID": "The interface identifier, as specified in ERC-165"
        },
        "returns": {
          "_0": "`true` if the contract implements `_interfaceID` and"
        }
      },
      "transferOwnership(address)": {
        "details": "Transfers ownership of the contract to a new account (`newOwner`). Can only be called by the current owner."
      }
    },
    "version": 1
  },
  "userdoc": {
    "kind": "user",
    "methods": {
      "isApprovedForAll(address,address)": {
        "notice": "Queries the approval status of an operator for a given account."
      },
      "supportsInterface(bytes4)": {
        "notice": "Query if a contract implements an interface"
      }
    },
    "version": 1
  }
}