{
  "contractName": "Callable",
  "abi": [
    {
      "anonymous": false,
      "inputs": [
        {
          "indexed": true,
          "internalType": "address",
          "name": "_owner",
          "type": "address"
        },
        {
          "indexed": true,
          "internalType": "address",
          "name": "_operator",
          "type": "address"
        },
        {
          "indexed": false,
          "internalType": "bool",
          "name": "_approved",
          "type": "bool"
        }
      ],
      "name": "ApprovalForAll",
      "type": "event"
    },
    {
      "anonymous": false,
      "inputs": [
        {
          "indexed": true,
          "internalType": "uint256",
          "name": "_CallbackId",
          "type": "uint256"
        }
      ],
      "name": "CallbackUpdated",
      "type": "event"
    },
    {
      "anonymous": false,
      "inputs": [
        {
          "indexed": true,
          "internalType": "address",
          "name": "previousOwner",
          "type": "address"
        },
        {
          "indexed": true,
          "internalType": "address",
          "name": "newOwner",
          "type": "address"
        }
      ],
      "name": "OwnershipTransferred",
      "type": "event"
    },
    {
      "anonymous": false,
      "inputs": [
        {
          "indexed": true,
          "internalType": "uint256",
          "name": "_id",
          "type": "uint256"
        },
        {
          "indexed": false,
          "internalType": "uint256",
          "name": "_documentHash",
          "type": "uint256"
        }
      ],
      "name": "TokenUpdated",
      "type": "event"
    },
    {
      "anonymous": false,
      "inputs": [
        {
          "indexed": true,
          "internalType": "address",
          "name": "_operator",
          "type": "address"
        },
        {
          "indexed": true,
          "internalType": "address",
          "name": "_from",
          "type": "address"
        },
        {
          "indexed": true,
          "internalType": "address",
          "name": "_to",
          "type": "address"
        },
        {
          "indexed": false,
          "internalType": "uint256[]",
          "name": "_ids",
          "type": "uint256[]"
        },
        {
          "indexed": false,
          "internalType": "uint256[]",
          "name": "_values",
          "type": "uint256[]"
        }
      ],
      "name": "TransferBatch",
      "type": "event"
    },
    {
      "anonymous": false,
      "inputs": [
        {
          "indexed": true,
          "internalType": "address",
          "name": "_operator",
          "type": "address"
        },
        {
          "indexed": true,
          "internalType": "address",
          "name": "_from",
          "type": "address"
        },
        {
          "indexed": true,
          "internalType": "address",
          "name": "_to",
          "type": "address"
        },
        {
          "indexed": false,
          "internalType": "uint256",
          "name": "_id",
          "type": "uint256"
        },
        {
          "indexed": false,
          "internalType": "uint256",
          "name": "_value",
          "type": "uint256"
        }
      ],
      "name": "TransferSingle",
      "type": "event"
    },
    {
      "anonymous": false,
      "inputs": [
        {
          "indexed": false,
          "internalType": "string",
          "name": "_value",
          "type": "string"
        },
        {
          "indexed": true,
          "internalType": "uint256",
          "name": "_id",
          "type": "uint256"
        }
      ],
      "name": "URI",
      "type": "event"
    },
    {
      "inputs": [
        {
          "internalType": "uint256",
          "name": "",
          "type": "uint256"
        }
      ],
      "name": "_callbacks",
      "outputs": [
        {
          "internalType": "uint256",
          "name": "tokenId",
          "type": "uint256"
        },
        {
          "internalType": "uint256",
          "name": "price",
          "type": "uint256"
        },
        {
          "internalType": "uint256",
          "name": "escrowedAmount",
          "type": "uint256"
        },
        {
          "internalType": "uint256",
          "name": "callCounter",
          "type": "uint256"
        },
        {
          "internalType": "uint256",
          "name": "documentHash",
          "type": "uint256"
        },
        {
          "internalType": "address",
          "name": "caller",
          "type": "address"
        },
        {
          "internalType": "bool",
          "name": "needLegalApproval",
          "type": "bool"
        },
        {
          "internalType": "bool",
          "name": "approvedByLegal",
          "type": "bool"
        },
        {
          "internalType": "bool",
          "name": "refused",
          "type": "bool"
        },
        {
          "internalType": "bool",
          "name": "accepted",
          "type": "bool"
        },
        {
          "internalType": "bool",
          "name": "completed",
          "type": "bool"
        }
      ],
      "stateMutability": "view",
      "type": "function"
    },
    {
      "inputs": [],
      "name": "_config",
      "outputs": [
        {
          "internalType": "uint256",
          "name": "callbackAutoExecuteMaxAddresses",
          "type": "uint256"
        },
        {
          "internalType": "string",
          "name": "baseURI",
          "type": "string"
        }
      ],
      "stateMutability": "view",
      "type": "function"
    },
    {
      "inputs": [
        {
          "internalType": "uint256",
          "name": "",
          "type": "uint256"
        }
      ],
      "name": "_tokens",
      "outputs": [
        {
          "internalType": "uint256",
          "name": "supply",
          "type": "uint256"
        },
        {
          "internalType": "uint256",
          "name": "decimals",
          "type": "uint256"
        },
        {
          "internalType": "uint256",
          "name": "lumpSumTransactionFees",
          "type": "uint256"
        },
        {
          "internalType": "uint256",
          "name": "valueTransactionFees",
          "type": "uint256"
        },
        {
          "internalType": "uint256",
          "name": "minHoldingForCallback",
          "type": "uint256"
        },
        {
          "internalType": "uint256",
          "name": "metadataHash",
          "type": "uint256"
        },
        {
          "internalType": "address",
          "name": "legalAuthority",
          "type": "address"
        },
        {
          "internalType": "bool",
          "name": "isPrivate",
          "type": "bool"
        },
        {
          "internalType": "bool",
          "name": "locked",
          "type": "bool"
        }
      ],
      "stateMutability": "view",
      "type": "function"
    },
    {
      "inputs": [
        {
          "internalType": "address",
          "name": "",
          "type": "address"
        }
      ],
      "name": "_users",
      "outputs": [
        {
          "internalType": "bool",
          "name": "isTokenizer",
          "type": "bool"
        },
        {
          "internalType": "bool",
          "name": "isLocked",
          "type": "bool"
        },
        {
          "internalType": "uint256",
          "name": "ETHBalance",
          "type": "uint256"
        }
      ],
      "stateMutability": "view",
      "type": "function"
    },
    {
      "inputs": [
        {
          "internalType": "uint256",
          "name": "id",
          "type": "uint256"
        },
        {
          "internalType": "address",
          "name": "maintener",
          "type": "address"
        }
      ],
      "name": "authorizeMaintener",
      "outputs": [],
      "stateMutability": "nonpayable",
      "type": "function"
    },
    {
      "inputs": [
        {
          "internalType": "address",
          "name": "tokenizer",
          "type": "address"
        }
      ],
      "name": "authorizeTokenizer",
      "outputs": [],
      "stateMutability": "nonpayable",
      "type": "function"
    },
    {
      "inputs": [
        {
          "internalType": "address",
          "name": "account",
          "type": "address"
        },
        {
          "internalType": "uint256",
          "name": "id",
          "type": "uint256"
        }
      ],
      "name": "balanceOf",
      "outputs": [
        {
          "internalType": "uint256",
          "name": "",
          "type": "uint256"
        }
      ],
      "stateMutability": "view",
      "type": "function"
    },
    {
      "inputs": [
        {
          "internalType": "address[]",
          "name": "accounts",
          "type": "address[]"
        },
        {
          "internalType": "uint256[]",
          "name": "ids",
          "type": "uint256[]"
        }
      ],
      "name": "balanceOfBatch",
      "outputs": [
        {
          "internalType": "uint256[]",
          "name": "",
          "type": "uint256[]"
        }
      ],
      "stateMutability": "view",
      "type": "function"
    },
    {
      "inputs": [
        {
          "internalType": "uint256",
          "name": "id",
          "type": "uint256"
        },
        {
          "internalType": "uint256[]",
          "name": "ids",
          "type": "uint256[]"
        },
        {
          "internalType": "uint256[]",
          "name": "metadataHashes",
          "type": "uint256[]"
        }
      ],
      "name": "cloneToken",
      "outputs": [],
      "stateMutability": "nonpayable",
      "type": "function"
    },
    {
      "inputs": [
        {
          "internalType": "address",
          "name": "recipient",
          "type": "address"
        },
        {
          "internalType": "uint256",
          "name": "id",
          "type": "uint256"
        },
        {
          "internalType": "uint256",
          "name": "supply",
          "type": "uint256"
        },
        {
          "internalType": "uint256",
          "name": "decimals",
          "type": "uint256"
        },
        {
          "internalType": "uint256",
          "name": "metadataHash",
          "type": "uint256"
        },
        {
          "internalType": "uint256[3]",
          "name": "transactionFees",
          "type": "uint256[3]"
        },
        {
          "internalType": "address[]",
          "name": "feesRecipients",
          "type": "address[]"
        },
        {
          "internalType": "uint256[]",
          "name": "feesRecipientsPercentage",
          "type": "uint256[]"
        },
        {
          "internalType": "uint256",
          "name": "minHoldingForCallback",
          "type": "uint256"
        },
        {
          "internalType": "bool",
          "name": "isPrivate",
          "type": "bool"
        },
        {
          "internalType": "address",
          "name": "legalAuthority",
          "type": "address"
        }
      ],
      "name": "createToken",
      "outputs": [],
      "stateMutability": "nonpayable",
      "type": "function"
    },
    {
      "inputs": [
        {
          "internalType": "address",
          "name": "account",
          "type": "address"
        },
        {
          "internalType": "address",
          "name": "operator",
          "type": "address"
        }
      ],
      "name": "isApprovedForAll",
      "outputs": [
        {
          "internalType": "bool",
          "name": "",
          "type": "bool"
        }
      ],
      "stateMutability": "view",
      "type": "function"
    },
    {
      "inputs": [
        {
          "internalType": "address",
          "name": "addr",
          "type": "address"
        }
      ],
      "name": "isLockedAddress",
      "outputs": [
        {
          "internalType": "bool",
          "name": "",
          "type": "bool"
        }
      ],
      "stateMutability": "view",
      "type": "function"
    },
    {
      "inputs": [
        {
          "internalType": "uint256",
          "name": "id",
          "type": "uint256"
        }
      ],
      "name": "isLockedToken",
      "outputs": [
        {
          "internalType": "bool",
          "name": "",
          "type": "bool"
        }
      ],
      "stateMutability": "view",
      "type": "function"
    },
    {
      "inputs": [
        {
          "internalType": "uint256",
          "name": "id",
          "type": "uint256"
        },
        {
          "internalType": "address",
          "name": "maintener",
          "type": "address"
        }
      ],
      "name": "isMaintener",
      "outputs": [
        {
          "internalType": "bool",
          "name": "",
          "type": "bool"
        }
      ],
      "stateMutability": "view",
      "type": "function"
    },
    {
      "inputs": [
        {
          "internalType": "address",
          "name": "tokenizer",
          "type": "address"
        }
      ],
      "name": "isTokenizer",
      "outputs": [
        {
          "internalType": "bool",
          "name": "",
          "type": "bool"
        }
      ],
      "stateMutability": "view",
      "type": "function"
    },
    {
      "inputs": [
        {
          "internalType": "address",
          "name": "addr",
          "type": "address"
        }
      ],
      "name": "lockAddress",
      "outputs": [],
      "stateMutability": "nonpayable",
      "type": "function"
    },
    {
      "inputs": [
        {
          "internalType": "uint256",
          "name": "id",
          "type": "uint256"
        },
        {
          "internalType": "uint256",
          "name": "documentHash",
          "type": "uint256"
        }
      ],
      "name": "lockToken",
      "outputs": [],
      "stateMutability": "nonpayable",
      "type": "function"
    },
    {
      "inputs": [],
      "name": "owner",
      "outputs": [
        {
          "internalType": "address",
          "name": "",
          "type": "address"
        }
      ],
      "stateMutability": "view",
      "type": "function"
    },
    {
      "inputs": [
        {
          "internalType": "uint256",
          "name": "id",
          "type": "uint256"
        },
        {
          "internalType": "address",
          "name": "maintener",
          "type": "address"
        }
      ],
      "name": "revokeMaintener",
      "outputs": [],
      "stateMutability": "nonpayable",
      "type": "function"
    },
    {
      "inputs": [
        {
          "internalType": "address",
          "name": "tokenizer",
          "type": "address"
        }
      ],
      "name": "revokeTokenizer",
      "outputs": [],
      "stateMutability": "nonpayable",
      "type": "function"
    },
    {
      "inputs": [
        {
          "internalType": "address",
          "name": "from",
          "type": "address"
        },
        {
          "internalType": "address",
          "name": "to",
          "type": "address"
        },
        {
          "internalType": "uint256[]",
          "name": "ids",
          "type": "uint256[]"
        },
        {
          "internalType": "uint256[]",
          "name": "values",
          "type": "uint256[]"
        },
        {
          "internalType": "bytes",
          "name": "data",
          "type": "bytes"
        }
      ],
      "name": "safeBatchTransferFrom",
      "outputs": [],
      "stateMutability": "payable",
      "type": "function"
    },
    {
      "inputs": [
        {
          "internalType": "address",
          "name": "from",
          "type": "address"
        },
        {
          "internalType": "address",
          "name": "to",
          "type": "address"
        },
        {
          "internalType": "uint256",
          "name": "id",
          "type": "uint256"
        },
        {
          "internalType": "uint256",
          "name": "value",
          "type": "uint256"
        },
        {
          "internalType": "bytes",
          "name": "data",
          "type": "bytes"
        }
      ],
      "name": "safeTransferFrom",
      "outputs": [],
      "stateMutability": "payable",
      "type": "function"
    },
    {
      "inputs": [
        {
          "internalType": "address",
          "name": "operator",
          "type": "address"
        },
        {
          "internalType": "bool",
          "name": "approved",
          "type": "bool"
        }
      ],
      "name": "setApprovalForAll",
      "outputs": [],
      "stateMutability": "nonpayable",
      "type": "function"
    },
    {
      "inputs": [
        {
          "internalType": "address[10]",
          "name": "proxyAddresses",
          "type": "address[10]"
        }
      ],
      "name": "setProxyRegistryAddress",
      "outputs": [],
      "stateMutability": "nonpayable",
      "type": "function"
    },
    {
      "inputs": [
        {
          "internalType": "bytes4",
          "name": "_interfaceID",
          "type": "bytes4"
        }
      ],
      "name": "supportsInterface",
      "outputs": [
        {
          "internalType": "bool",
          "name": "",
          "type": "bool"
        }
      ],
      "stateMutability": "pure",
      "type": "function"
    },
    {
      "inputs": [
        {
          "internalType": "address",
          "name": "account",
          "type": "address"
        },
        {
          "internalType": "uint256",
          "name": "id",
          "type": "uint256"
        },
        {
          "internalType": "uint256",
          "name": "value",
          "type": "uint256"
        }
      ],
      "name": "transactionFees",
      "outputs": [
        {
          "internalType": "uint256",
          "name": "",
          "type": "uint256"
        }
      ],
      "stateMutability": "view",
      "type": "function"
    },
    {
      "inputs": [
        {
          "internalType": "address",
          "name": "newOwner",
          "type": "address"
        }
      ],
      "name": "transferOwnership",
      "outputs": [],
      "stateMutability": "nonpayable",
      "type": "function"
    },
    {
      "inputs": [
        {
          "internalType": "address",
          "name": "addr",
          "type": "address"
        }
      ],
      "name": "unlockAddress",
      "outputs": [],
      "stateMutability": "nonpayable",
      "type": "function"
    },
    {
      "inputs": [
        {
          "internalType": "uint256",
          "name": "id",
          "type": "uint256"
        },
        {
          "internalType": "uint256",
          "name": "documentHash",
          "type": "uint256"
        }
      ],
      "name": "unlockToken",
      "outputs": [],
      "stateMutability": "nonpayable",
      "type": "function"
    },
    {
      "inputs": [
        {
          "internalType": "uint256",
          "name": "id",
          "type": "uint256"
        },
        {
          "internalType": "uint256",
          "name": "metadataHash",
          "type": "uint256"
        },
        {
          "internalType": "uint256[3]",
          "name": "transactionFees",
          "type": "uint256[3]"
        },
        {
          "internalType": "address[]",
          "name": "feesRecipients",
          "type": "address[]"
        },
        {
          "internalType": "uint256[]",
          "name": "feesRecipientsPercentage",
          "type": "uint256[]"
        },
        {
          "internalType": "uint256",
          "name": "minHoldingForCallback",
          "type": "uint256"
        },
        {
          "internalType": "bool",
          "name": "isPrivate",
          "type": "bool"
        },
        {
          "internalType": "address",
          "name": "legalAuthority",
          "type": "address"
        }
      ],
      "name": "updateToken",
      "outputs": [],
      "stateMutability": "nonpayable",
      "type": "function"
    },
    {
      "inputs": [
        {
          "internalType": "uint256",
          "name": "newMax",
          "type": "uint256"
        }
      ],
      "name": "setCallbackAutoExecuteMaxAddresses",
      "outputs": [],
      "stateMutability": "nonpayable",
      "type": "function"
    },
    {
      "inputs": [
        {
          "internalType": "uint256",
          "name": "callbackId",
          "type": "uint256"
        },
        {
          "internalType": "uint256",
          "name": "tokenId",
          "type": "uint256"
        },
        {
          "internalType": "uint256",
          "name": "price",
          "type": "uint256"
        },
        {
          "internalType": "address[]",
          "name": "callees",
          "type": "address[]"
        },
        {
          "internalType": "uint256",
          "name": "documentHash",
          "type": "uint256"
        }
      ],
      "name": "proposeCallback",
      "outputs": [],
      "stateMutability": "payable",
      "type": "function"
    },
    {
      "inputs": [
        {
          "internalType": "uint256",
          "name": "callbackId",
          "type": "uint256"
        }
      ],
      "name": "refuseCallback",
      "outputs": [],
      "stateMutability": "nonpayable",
      "type": "function"
    },
    {
      "inputs": [
        {
          "internalType": "uint256",
          "name": "callbackId",
          "type": "uint256"
        }
      ],
      "name": "approveCallback",
      "outputs": [],
      "stateMutability": "nonpayable",
      "type": "function"
    },
    {
      "inputs": [
        {
          "internalType": "uint256",
          "name": "callbackId",
          "type": "uint256"
        }
      ],
      "name": "acceptCallback",
      "outputs": [],
      "stateMutability": "nonpayable",
      "type": "function"
    },
    {
      "inputs": [
        {
          "internalType": "uint256",
          "name": "callbackId",
          "type": "uint256"
        },
        {
          "internalType": "uint256",
          "name": "maxCall",
          "type": "uint256"
        }
      ],
      "name": "executeCallback",
      "outputs": [],
      "stateMutability": "nonpayable",
      "type": "function"
    }
  ],
  "bytecode": "0x60806040523480156200001157600080fd5b506200001d3362000023565b620000e0565b6001600160a01b03811662000084576040517f08c379a000000000000000000000000000000000000000000000000000000000815260040180806020018281038252602681526020018062004b836026913960400191505060405180910390fd5b600f546040516001600160a01b038084169216907f8be0079c531659141344cd1fd0a4f28419497f9722a3daafe3b4186f6b6457e090600090a3600f80546001600160a01b0319166001600160a01b0392909216919091179055565b614a9380620000f06000396000f3fe60806040526004361061020e5760003560e01c8063a22cb46511610118578063d1660e18116100a0578063ed70554d1161006f578063ed70554d14610ef3578063f242432a14610f71578063f2fde38b14611004578063f8a5a07c14611037578063fc3fcec71461116e5761020e565b8063d1660e1814610d8a578063d41d0aa314610dc9578063d842b67314610e02578063e985e9c514610eb85761020e565b8063bba75c83116100e7578063bba75c8314610b33578063c02f303c14610b5d578063c255620a14610b90578063c40b87ae14610bba578063cba54e6014610d575761020e565b8063a22cb46514610a65578063aba7fe8a14610aa0578063b7eb5e0a14610ad0578063baa3411014610b035761020e565b80634392e5771161019b5780637627b7321161016a5780637627b7321461096b5780638870147b1461099e5780638aeba37e146109d15780638da5cb5b14610a0a5780638f96f13114610a3b5761020e565b80634392e577146105cf5780634ab0d253146106305780634e1273f4146107b25780635dafec1b146109325761020e565b806331d5f78c116101e257806331d5f78c1461046357806334a90d021461048d578063369c37e9146104c05780633cacd7d6146104ea578063414ed0ce1461053d5761020e565b8062fdd58e1461021357806301ffc9a71461025e5780632eb2c2d6146102a65780632ed42bf7146103cf575b600080fd5b34801561021f57600080fd5b5061024c6004803603604081101561023657600080fd5b506001600160a01b03813516906020013561119e565b60408051918252519081900360200190f35b34801561026a57600080fd5b506102926004803603602081101561028157600080fd5b50356001600160e01b031916611213565b604080519115158252519081900360200190f35b6103cd600480360360a08110156102bc57600080fd5b6001600160a01b038235811692602081013590911691810190606081016040820135600160201b8111156102ef57600080fd5b82018360208201111561030157600080fd5b803590602001918460208302840111600160201b8311171561032257600080fd5b919390929091602081019035600160201b81111561033f57600080fd5b82018360208201111561035157600080fd5b803590602001918460208302840111600160201b8311171561037257600080fd5b919390929091602081019035600160201b81111561038f57600080fd5b8201836020820111156103a157600080fd5b803590602001918460018302840111600160201b831117156103c257600080fd5b50909250905061125a565b005b3480156103db57600080fd5b506103e46115e0565b6040518083815260200180602001828103825283818151815260200191508051906020019080838360005b8381101561042757818101518382015260200161040f565b50505050905090810190601f1680156104545780820380516001836020036101000a031916815260200191505b50935050505060405180910390f35b34801561046f57600080fd5b506103cd6004803603602081101561048657600080fd5b5035611676565b34801561049957600080fd5b506103cd600480360360208110156104b057600080fd5b50356001600160a01b0316611854565b3480156104cc57600080fd5b506103cd600480360360208110156104e357600080fd5b50356118c1565b3480156104f657600080fd5b5061051d6004803603602081101561050d57600080fd5b50356001600160a01b031661190d565b604080519315158452911515602084015282820152519081900360600190f35b34801561054957600080fd5b506105676004803603602081101561056057600080fd5b5035611933565b604080519b8c5260208c019a909a528a8a019890985260608a019690965260808901949094526001600160a01b0390921660a0880152151560c0870152151560e086015215156101008501521515610120840152151561014083015251908190036101600190f35b3480156105db57600080fd5b506103cd60048036036101408110156105f357600080fd5b81019080806101400190600a806020026040519081016040528092919082600a602002808284376000920191909152509194506119a69350505050565b34801561063c57600080fd5b506103cd600480360361014081101561065457600080fd5b6040805160608181018352843594602081013594810193909260a08401929091840190600390839083908082843760009201919091525091949392602081019250359050600160201b8111156106a957600080fd5b8201836020820111156106bb57600080fd5b803590602001918460208302840111600160201b831117156106dc57600080fd5b9190808060200260200160405190810160405280939291908181526020018383602002808284376000920191909152509295949360208101935035915050600160201b81111561072b57600080fd5b82018360208201111561073d57600080fd5b803590602001918460208302840111600160201b8311171561075e57600080fd5b919080806020026020016040519081016040528093929190818152602001838360200280828437600092019190915250929550508235935050506020810135151590604001356001600160a01b03166119fe565b3480156107be57600080fd5b506108e2600480360360408110156107d557600080fd5b810190602081018135600160201b8111156107ef57600080fd5b82018360208201111561080157600080fd5b803590602001918460208302840111600160201b8311171561082257600080fd5b9190808060200260200160405190810160405280939291908181526020018383602002808284376000920191909152509295949360208101935035915050600160201b81111561087157600080fd5b82018360208201111561088357600080fd5b803590602001918460208302840111600160201b831117156108a457600080fd5b919080806020026020016040519081016040528093929190818152602001838360200280828437600092019190915250929550611af5945050505050565b60408051602080825283518183015283519192839290830191858101910280838360005b8381101561091e578181015183820152602001610906565b505050509050019250505060405180910390f35b34801561093e57600080fd5b506102926004803603604081101561095557600080fd5b50803590602001356001600160a01b0316611c79565b34801561097757600080fd5b506103cd6004803603602081101561098e57600080fd5b50356001600160a01b0316611c8c565b3480156109aa57600080fd5b506103cd600480360360208110156109c157600080fd5b50356001600160a01b0316611cf7565b3480156109dd57600080fd5b506103cd600480360360408110156109f457600080fd5b50803590602001356001600160a01b0316611d5f565b348015610a1657600080fd5b50610a1f611ddd565b604080516001600160a01b039092168252519081900360200190f35b348015610a4757600080fd5b506103cd60048036036020811015610a5e57600080fd5b5035611dec565b348015610a7157600080fd5b506103cd60048036036040811015610a8857600080fd5b506001600160a01b0381351690602001351515612025565b348015610aac57600080fd5b506103cd60048036036040811015610ac357600080fd5b50803590602001356120db565b348015610adc57600080fd5b506103cd60048036036020811015610af357600080fd5b50356001600160a01b0316612140565b348015610b0f57600080fd5b506103cd60048036036040811015610b2657600080fd5b50803590602001356121a9565b348015610b3f57600080fd5b5061029260048036036020811015610b5657600080fd5b5035612209565b348015610b6957600080fd5b5061029260048036036020811015610b8057600080fd5b50356001600160a01b0316612214565b348015610b9c57600080fd5b506103cd60048036036020811015610bb357600080fd5b503561221f565b348015610bc657600080fd5b506103cd60048036036101a0811015610bde57600080fd5b60408051606081810183526001600160a01b03853516946020810135949381013593828201359360808301359391830192916101008301919060a0840190600390839083908082843760009201919091525091949392602081019250359050600160201b811115610c4e57600080fd5b820183602082011115610c6057600080fd5b803590602001918460208302840111600160201b83111715610c8157600080fd5b9190808060200260200160405190810160405280939291908181526020018383602002808284376000920191909152509295949360208101935035915050600160201b811115610cd057600080fd5b820183602082011115610ce257600080fd5b803590602001918460208302840111600160201b83111715610d0357600080fd5b919080806020026020016040519081016040528093929190818152602001838360200280828437600092019190915250929550508235935050506020810135151590604001356001600160a01b0316612490565b348015610d6357600080fd5b5061029260048036036020811015610d7a57600080fd5b50356001600160a01b031661253d565b348015610d9657600080fd5b5061024c60048036036060811015610dad57600080fd5b506001600160a01b038135169060208101359060400135612548565b348015610dd557600080fd5b506103cd60048036036040811015610dec57600080fd5b50803590602001356001600160a01b031661255d565b6103cd600480360360a0811015610e1857600080fd5b81359160208101359160408201359190810190608081016060820135600160201b811115610e4557600080fd5b820183602082011115610e5757600080fd5b803590602001918460208302840111600160201b83111715610e7857600080fd5b91908080602002602001604051908101604052809392919081815260200183836020028082843760009201919091525092955050913592506125d8915050565b348015610ec457600080fd5b5061029260048036036040811015610edb57600080fd5b506001600160a01b0381358116916020013516612864565b348015610eff57600080fd5b50610f1d60048036036020811015610f1657600080fd5b50356128a5565b60408051998a5260208a0198909852888801969096526060880194909452608087019290925260a08601526001600160a01b031660c0850152151560e0840152151561010083015251908190036101200190f35b6103cd600480360360a0811015610f8757600080fd5b6001600160a01b03823581169260208101359091169160408201359160608101359181019060a081016080820135600160201b811115610fc657600080fd5b820183602082011115610fd857600080fd5b803590602001918460018302840111600160201b83111715610ff957600080fd5b509092509050612901565b34801561101057600080fd5b506103cd6004803603602081101561102757600080fd5b50356001600160a01b0316612b49565b34801561104357600080fd5b506103cd6004803603606081101561105a57600080fd5b81359190810190604081016020820135600160201b81111561107b57600080fd5b82018360208201111561108d57600080fd5b803590602001918460208302840111600160201b831117156110ae57600080fd5b9190808060200260200160405190810160405280939291908181526020018383602002808284376000920191909152509295949360208101935035915050600160201b8111156110fd57600080fd5b82018360208201111561110f57600080fd5b803590602001918460208302840111600160201b8311171561113057600080fd5b919080806020026020016040519081016040528093929190818152602001838360200280828437600092019190915250929550612b9c945050505050565b34801561117a57600080fd5b506103cd6004803603604081101561119157600080fd5b5080359060200135612d2d565b60006001600160a01b0383166111e55760405162461bcd60e51b815260040180806020018281038252602b8152602001806147f4602b913960400191505060405180910390fd5b506000818152600d602090815260408083206001600160a01b03861684526007019091529020545b92915050565b60006001600160e01b031982166301ffc9a760e01b148061124457506001600160e01b03198216636cdb3d1360e11b145b1561125157506001611255565b5060005b919050565b8483146112985760405162461bcd60e51b815260040180806020018281038252602e8152602001806149ff602e913960400191505060405180910390fd5b6001600160a01b0387166112dd5760405162461bcd60e51b81526004018080602001828103825260288152602001806148656028913960400191505060405180910390fd5b6001600160a01b0388163314806112ff57506112f98833612864565b15156001145b61133a5760405162461bcd60e51b81526004018080602001828103825260378152602001806149c86037913960400191505060405180910390fd5b6000803411611364576001600160a01b0389166000908152600c6020526040902060010154611366565b345b905060005b868110156113b0576113a48a8a8a8a8581811061138457fe5b9050602002013589898681811061139757fe5b9050602002013586612ef1565b9091039060010161136b565b50876001600160a01b0316896001600160a01b0316336001600160a01b03167f4a39dc06d4c0dbc64b70af90fd698a233a518aa5d07e595d983b8c0526c8f7fb8a8a8a8a6040518080602001806020018381038352878782818152602001925060200280828437600083820152601f01601f19169091018481038352858152602090810191508690860280828437600083820152604051601f909101601f19169092018290039850909650505050505050a4611506338a8a8a8a8080602002602001604051908101604052809392919081815260200183836020028082843760009201919091525050604080516020808e0282810182019093528d82529093508d92508c91829185019084908082843760009201919091525050604080516020601f8d018190048102820181019092528b815292508b91508a9081908401838280828437600092019190915250612f5192505050565b6000341180156115165750600081115b156115b157604051600090339083908381818185875af1925050503d806000811461155d576040519150601f19603f3d011682016040523d82523d6000602084013e611562565b606091505b50509050806115ab576040805162461bcd60e51b815260206004820152601060248201526f2a3930b739b332b9103330b4b632b21760811b604482015290519081900360640190fd5b506115d5565b346115d5576001600160a01b0389166000908152600c602052604090206001018190555b505050505050505050565b6000805460018054604080516020600284861615610100026000190190941693909304601f8101849004840282018401909252818152939493929183018282801561166c5780601f106116415761010080835404028352916020019161166c565b820191906000526020600020905b81548152906001019060200180831161164f57829003601f168201915b5050505050905082565b61167e61460b565b6000828152600e602090815260409182902082516101808101845281548152600182015481840152600282015481850152600382015460608201526004820154608082015260058201546001600160a01b03811660a083015260ff600160a01b82048116151560c0840152600160a81b82048116151560e0840152600160b01b820481161515610100840152600160b81b820481161515610120840152600160c01b90910416151561014082015260068201805485518186028101860190965280865291949293610160860193929083018282801561178657602002820191906000526020600020905b81546001600160a01b03168152600190910190602001808311611768575b505050919092525050815191925050158015906117aa575080516117aa903361314a565b80156117b95750610100810151155b80156117c85750610120810151155b611819576040805162461bcd60e51b815260206004820152601f60248201527f496e76616c696420617267756d656e7473206f72207065726d697373696f6e00604482015290519081900360640190fd5b6000828152600e6020526040808220600501805460ff60a81b1916600160a81b17905551839160008051602061484583398151915291a25050565b61185c61316e565b61189b576040805162461bcd60e51b815260206004820181905260248201526000805160206149a8833981519152604482015290519081900360640190fd5b6001600160a01b03166000908152600c60205260409020805461ff001916610100179055565b6118c961316e565b611908576040805162461bcd60e51b815260206004820181905260248201526000805160206149a8833981519152604482015290519081900360640190fd5b600055565b600c602052600090815260409020805460019091015460ff808316926101009004169083565b600e6020526000908152604090208054600182015460028301546003840154600485015460059095015493949293919290916001600160a01b0381169060ff600160a01b8204811691600160a81b8104821691600160b01b8204811691600160b81b8104821691600160c01b909104168b565b6119ae61316e565b6119ed576040805162461bcd60e51b815260206004820181905260248201526000805160206149a8833981519152604482015290519081900360640190fd5b6119fa600282600a61467f565b5050565b87611a09813361317f565b611a54576040805162461bcd60e51b815260206004820152601760248201527624b739bab33334b1b4b2b73a103832b936b4b9b9b4b7b760491b604482015290519081900360640190fd5b6000898152600d6020526040902054611aa4576040805162461bcd60e51b815260206004820152600d60248201526c2ab735b737bbb7103a37b5b2b760991b604482015290519081900360640190fd5b611ab489898989898989896131b9565b6040805189815290518a917f199acc06cd2556bbc146fa3cb578799037dffcbf256eca32aaf2ef656925d2fd919081900360200190a2505050505050505050565b60608151835114611b375760405162461bcd60e51b81526004018080602001828103825260308152602001806148b96030913960400191505060405180910390fd5b6060835167ffffffffffffffff81118015611b5157600080fd5b50604051908082528060200260200182016040528015611b7b578160200160208202803683370190505b50905060005b8451811015611c715760006001600160a01b0316858281518110611ba157fe5b60200260200101516001600160a01b03161415611bef5760405162461bcd60e51b815260040180806020018281038252603481526020018061491f6034913960400191505060405180910390fd5b600d6000858381518110611bff57fe5b602002602001015181526020019081526020016000206007016000868381518110611c2657fe5b60200260200101516001600160a01b03166001600160a01b0316815260200190815260200160002060000154828281518110611c5e57fe5b6020908102919091010152600101611b81565b509392505050565b6000611c85838361317f565b9392505050565b611c9461316e565b611cd3576040805162461bcd60e51b815260206004820181905260248201526000805160206149a8833981519152604482015290519081900360640190fd5b6001600160a01b03166000908152600c60205260409020805460ff19166001179055565b611cff61316e565b611d3e576040805162461bcd60e51b815260206004820181905260248201526000805160206149a8833981519152604482015290519081900360640190fd5b6001600160a01b03166000908152600c60205260409020805460ff19169055565b611d6761316e565b611da6576040805162461bcd60e51b815260206004820181905260248201526000805160206149a8833981519152604482015290519081900360640190fd5b6000918252600d602090815260408084206001600160a01b039093168452600790920190529020600201805460ff19166001179055565b600f546001600160a01b031690565b611df461460b565b6000828152600e602090815260409182902082516101808101845281548152600182015481840152600282015481850152600382015460608201526004820154608082015260058201546001600160a01b03811660a083015260ff600160a01b82048116151560c0840152600160a81b82048116151560e0840152600160b01b820481161515610100840152600160b81b820481161515610120840152600160c01b909104161515610140820152600682018054855181860281018601909652808652919492936101608601939290830182828015611efc57602002820191906000526020600020905b81546001600160a01b03168152600190910190602001808311611ede575b50505091909252505081519192505015801590611f1c5750610100810151155b8015611f2b5750610120810151155b8015611f7057508051611f3e903361317f565b80611f5057508051611f50903361314a565b80611f7057508060a001516001600160a01b0316336001600160a01b0316145b611fc1576040805162461bcd60e51b815260206004820152601f60248201527f496e76616c696420617267756d656e7473206f72207065726d697373696f6e00604482015290519081900360640190fd5b6000828152600e60209081526040808320600501805460ff60b01b1916600160b01b1790558381015160a08501516001600160a01b03168452600c909252808320600101805490920190915551839160008051602061484583398151915291a25050565b336001600160a01b038316141561206d5760405162461bcd60e51b815260040180806020018281038252602c81526020018061488d602c913960400191505060405180910390fd5b3360008181526010602090815260408083206001600160a01b03871680855290835292819020805460ff1916861515908117909155815190815290519293927f17307eab39ab6107e8899845ad3d59bd9653f200f220920489ca2b5937696c31929181900390910190a35050565b816120e6813361317f565b612131576040805162461bcd60e51b815260206004820152601760248201527624b739bab33334b1b4b2b73a103832b936b4b9b9b4b7b760491b604482015290519081900360640190fd5b61213b838361335d565b505050565b61214861316e565b612187576040805162461bcd60e51b815260206004820181905260248201526000805160206149a8833981519152604482015290519081900360640190fd5b6001600160a01b03166000908152600c60205260409020805461ff0019169055565b816121b4813361317f565b6121ff576040805162461bcd60e51b815260206004820152601760248201527624b739bab33334b1b4b2b73a103832b936b4b9b9b4b7b760491b604482015290519081900360640190fd5b61213b83836133b3565b600061120d8261340f565b600061120d8261342e565b61222761460b565b6000828152600e602090815260409182902082516101808101845281548152600182015481840152600282015481850152600382015460608201526004820154608082015260058201546001600160a01b03811660a083015260ff600160a01b82048116151560c0840152600160a81b82048116151560e0840152600160b01b820481161515610100840152600160b81b820481161515610120840152600160c01b90910416151561014082015260068201805485518186028101860190965280865291949293610160860193929083018282801561232f57602002820191906000526020600020905b81546001600160a01b03168152600190910190602001808311612311575b5050509190925250508151919250501580159061235357508051612353903361317f565b801561236c57508060c00151158061236c57508060e001515b801561237b5750610100810151155b801561238a5750610120810151155b80156123b157506123a981600001518260200151836101600151613458565b816040015110155b6123ec5760405162461bcd60e51b81526004018080602001828103825260348152602001806149746034913960400191505060405180910390fd5b6000828152600e6020526040808220600501805460ff60b81b1916600160b81b17905551839160008051602061484583398151915291a261016081015151156124445761243f828261016001515161350f565b6119fa565b6000805482518252600d6020526040909120600801541161247e5780516000908152600d602052604090206008015461243f90839061350f565b6119fa816000015182608001516133b3565b6124993361342e565b6124e4576040805162461bcd60e51b815260206004820152601760248201527624b739bab33334b1b4b2b73a103832b936b4b9b9b4b7b760491b604482015290519081900360640190fd5b6124f78b8b8b8b8b8b8b8b8b8b8b6137ad565b604080518b8152602081018b905281516001600160a01b038e169260009233926000805160206147d4833981519152929181900390910190a45050505050505050505050565b600061120d82613916565b6000612555848484613939565b949350505050565b61256561316e565b6125a4576040805162461bcd60e51b815260206004820181905260248201526000805160206149a8833981519152604482015290519081900360640190fd5b6000918252600d602090815260408084206001600160a01b039093168452600790920190529020600201805460ff19169055565b6000858152600e602052604090205415801561260157506000848152600d602052604090205415155b80156126175750612613848484613458565b3410155b80156126265750600054825111155b612677576040805162461bcd60e51b815260206004820152601a60248201527f496e76616c696420617267756d656e7473206f722076616c7565000000000000604482015290519081900360640190fd5b6000848152600d60205260408120600481015490546126a3916127109161269d91613b1b565b90613b74565b905060405180610180016040528086815260200185815260200134815260200160008152602001838152602001336001600160a01b03168152602001856000148061270957506000878152600d6020908152604080832033845260070190915290205483115b80612715575060008551115b151581526000602080830182905260408084018390526060808501849052608080860185905260a09586018a90528c8552600e8452938290208651815586840151600182015591860151600283015585015160038201559184015160048301559183015160058201805460c086015160e08701516101008801516101208901516101408a01511515600160c01b0260ff60c01b19911515600160b81b0260ff60b81b19931515600160b01b0260ff60b01b19951515600160a81b0260ff60a81b19971515600160a01b0260ff60a01b196001600160a01b03909c166001600160a01b0319909a16999099179a909a16979097179590951697909717929092169390931792909216171691909117905561016083015180519192612840926006850192909101906146d7565b505060405187915060008051602061484583398151915290600090a2505050505050565b60006128708383613bb6565b80611c855750506001600160a01b03918216600090815260106020908152604080832093909416825291909152205460ff1690565b600d60205260009081526040902080546001820154600283015460038401546004850154600586015460069096015494959394929391929091906001600160a01b0381169060ff600160a01b8204811691600160a81b90041689565b6001600160a01b0385166129465760405162461bcd60e51b81526004018080602001828103825260288152602001806148656028913960400191505060405180910390fd5b6001600160a01b03861633148061296857506129628633612864565b15156001145b6129a35760405162461bcd60e51b81526004018080602001828103825260378152602001806149c86037913960400191505060405180910390fd5b60008034116129cd576001600160a01b0387166000908152600c60205260409020600101546129cf565b345b90506129de8787878785612ef1565b81039050856001600160a01b0316876001600160a01b0316336001600160a01b03166000805160206147d48339815191528888604051808381526020018281526020019250505060405180910390a4612a71338888888888888080601f016020809104026020016040519081016040528093929190818152602001838380828437600092019190915250613c9d92505050565b600034118015612a815750600081115b15612b1c57604051600090339083908381818185875af1925050503d8060008114612ac8576040519150601f19603f3d011682016040523d82523d6000602084013e612acd565b606091505b5050905080612b16576040805162461bcd60e51b815260206004820152601060248201526f2a3930b739b332b9103330b4b632b21760811b604482015290519081900360640190fd5b50612b40565b34612b40576001600160a01b0387166000908152600c602052604090206001018190555b50505050505050565b612b5161316e565b612b90576040805162461bcd60e51b815260206004820181905260248201526000805160206149a8833981519152604482015290519081900360640190fd5b612b9981613e12565b50565b612ba53361342e565b612bf0576040805162461bcd60e51b815260206004820152601760248201527624b739bab33334b1b4b2b73a103832b936b4b9b9b4b7b760491b604482015290519081900360640190fd5b6000838152600d602052604090205415801590612c0e575080518251145b612c53576040805162461bcd60e51b8152602060048201526011602482015270496e76616c696420617267756d656e747360781b604482015290519081900360640190fd5b60005b8251811015612d2757612c9084848381518110612c6f57fe5b6020026020010151848481518110612c8357fe5b6020026020010151613eb3565b6000848152600d602052604081206008018054909190612cac57fe5b600091825260208220015484516001600160a01b03909116919033906000805160206147d483398151915290879086908110612ce457fe5b6020026020010151600d60008a815260200190815260200160002060000154604051808381526020018281526020019250505060405180910390a4600101612c56565b50505050565b612d3561460b565b6000838152600e602090815260409182902082516101808101845281548152600182015481840152600282015481850152600382015460608201526004820154608082015260058201546001600160a01b03811660a083015260ff600160a01b82048116151560c0840152600160a81b82048116151560e0840152600160b01b820481161515610100840152600160b81b820481161515610120840152600160c01b909104161515610140820152600682018054855181860281018601909652808652919492936101608601939290830182828015612e3d57602002820191906000526020600020905b81546001600160a01b03168152600190910190602001808311612e1f575b50505091909252505081519192505015801590612e61575061012081015115156001145b8015612e705750610140810151155b612eb4576040805162461bcd60e51b815260206004820152601060248201526f496e76616c69642063616c6c6261636b60801b604482015290519081900360640190fd5b612ebe838361350f565b6000838152600e6020526040902060050154600160c01b900460ff161561213b5761213b8160000151826080015161335d565b6000612eff86868686614050565b15612f3a576040805162461bcd60e51b8152602060048201526006602482015265131bd8dad95960d21b604482015290519081900360640190fd5b612f478686868686614088565b9695505050505050565b612f63846001600160a01b031661423e565b156131425763bc197c8160e01b6001600160e01b031916846001600160a01b031663bc197c8188888787876040518663ffffffff1660e01b815260040180866001600160a01b03168152602001856001600160a01b03168152602001806020018060200180602001848103845287818151815260200191508051906020019060200280838360005b83811015613003578181015183820152602001612feb565b50505050905001848103835286818151815260200191508051906020019060200280838360005b8381101561304257818101518382015260200161302a565b50505050905001848103825285818151815260200191508051906020019080838360005b8381101561307e578181015183820152602001613066565b50505050905090810190601f1680156130ab5780820380516001836020036101000a031916815260200191505b5098505050505050505050602060405180830381600087803b1580156130d057600080fd5b505af11580156130e4573d6000803e3d6000fd5b505050506040513d60208110156130fa57600080fd5b50516001600160e01b031916146131425760405162461bcd60e51b81526004018080602001828103825260368152602001806148e96036913960400191505060405180910390fd5b505050505050565b6000918252600d6020526040909120600601546001600160a01b0391821691161490565b600f546001600160a01b0316331490565b6000828152600d602090815260408083206001600160a01b038516845260070190915281206002015460ff1680611c855750611c8561316e565b6000805b85518110156131e9578581815181106131d257fe5b6020026020010151820191508060010190506131bd565b50600086511180156131f9575060015b8015613206575080612710145b8015613213575061271084105b613258576040805162461bcd60e51b8152602060048201526011602482015270496e76616c696420617267756d656e747360781b604482015290519081900360640190fd5b6000898152600d60209081526040808320600581018c90558a516002808301919091558b840151600383015582518084018452428152928c015183850152600b9091018054600181018255908552929093206132b893928302019161472b565b506000898152600d6020908152604090912087516132de926009909201918901906146d7565b506000898152600d60209081526040909120865161330492600a90920191880190614765565b50506000978852600d602052604090972060048101929092556006909101805460ff60a01b1916600160a01b92151592909202919091176001600160a01b0319166001600160a01b039096169590951790945550505050565b6000828152600d6020908152604091829020600601805460ff60a81b191690558151838152915184927f199acc06cd2556bbc146fa3cb578799037dffcbf256eca32aaf2ef656925d2fd92908290030190a25050565b6000828152600d6020908152604091829020600601805460ff60a81b1916600160a81b1790558151838152915184927f199acc06cd2556bbc146fa3cb578799037dffcbf256eca32aaf2ef656925d2fd92908290030190a25050565b6000908152600d6020526040902060060154600160a81b900460ff1690565b6001600160a01b0381166000908152600c602052604081205460ff168061120d575061120d61316e565b80516000908190613499576000858152600d6020818152604080842033855260078101835290842054938990529190525461349291614275565b90506134fc565b60005b83518110156134fa57600d600087815260200190815260200160002060070160008583815181106134c957fe5b6020908102919091018101516001600160a01b0316825281019190915260400160002054919091019060010161349c565b505b6135068185613b1b565b95945050505050565b6000828152600e602052604090208054600690910154606090613542576000828152600d60205260409020600801613554565b6000848152600e602052604090206006015b8054806020026020016040519081016040528092919081815260200182805480156135a857602002820191906000526020600020905b81546001600160a01b0316815260019091019060200180831161358a575b505083516000898152600e602052604081206003015495965060001990910194935091505085820183116135dc57826135e0565b8582015b90506000825b8281116137285760008682815181106135fb57fe5b60209081029190910181015160008a8152600d835260408082206001600160a01b038416835260070190935291909120549091501561371f576000888152600d602090815260408083206001600160a01b0385168085526007909101808452828520548f8652600e85529285206001015491909452929091529384019361368191613b1b565b6001600160a01b038083166000818152600c6020908152604080832060010180549096019095558e8252600e8152848220600501548d8352600d82528583208484526007018252918590205485518e81529182015284519190931693919233926000805160206147d483398151915292918290030190a46000888152600d602090815260408083206001600160a01b03851684526007019091528120555b506001016135e6565b506000888152600e602052604090206005015461374f906001600160a01b031687836142b7565b6000888152600e60205260409020600301829055838214156137a3576000888152600e6020526040808220600501805460ff60c01b1916600160c01b17905551899160008051602061484583398151915291a25b5050505050505050565b60008a8152600d60205260409020541580156137c95750600089115b61380e576040805162461bcd60e51b8152602060048201526011602482015270496e76616c696420617267756d656e747360781b604482015290519081900360640190fd5b88600d60008c81526020019081526020016000206000018190555087600d60008c8152602001908152602001600020600101819055506001600d60008c81526020019081526020016000206007016000336001600160a01b03166001600160a01b0316815260200190815260200160002060020160006101000a81548160ff0219169083151502179055506001600d60008c815260200190815260200160002060070160008d6001600160a01b03166001600160a01b0316815260200190815260200160002060020160026101000a81548160ff0219169083151502179055506138fe8a888888888888886131b9565b6139098b8b8b6142b7565b5050505050505050505050565b6001600160a01b03166000908152600c6020526040902054610100900460ff1690565b6000828152600d60205260408120600b015481904290600019015b6000868152600d60205260408120600b0180548390811061397157fe5b60009182526020822060029091020101546000888152600d60205260408120600b0180549293509091849081106139a457fe5b90600052602060002090600202016001600281106139be57fe5b01546000898152600d602090815260408083206001600160a01b038e168452600701909152812060010154919250908311613a5b576000898152600d602090815260408083206001600160a01b038e168452600701909152902060010154613a3090620151809061269d908890614275565b905080613a3b575060015b613a4f88613a498385613b1b565b90613b1b565b86019550505050613a9a565b613a6c6201518061269d8786614275565b905080613a77575060015b9193508391613a8a88613a498385613b1b565b9095019450505060001901613954565b506000858152600d6020526040902060010154613abb908390600a0a613b74565b6000868152600d602052604081206003015491935090613ae6906305f5e1009061269d908890613b1b565b6000878152600d6020526040902060020154909150613b1090613b0990836144b5565b84906144b5565b979650505050505050565b600082613b2a5750600061120d565b82820282848281613b3757fe5b0414611c855760405162461bcd60e51b81526004018080602001828103825260218152602001806149536021913960400191505060405180910390fd5b6000611c8583836040518060400160405280601a81526020017f536166654d6174683a206469766973696f6e206279207a65726f00000000000081525061450f565b6000805b600a811015613c93576000600282600a8110613bd257fe5b01546001600160a01b031614613c8b576000600282600a8110613bf157fe5b01546040805163c455279160e01b81526001600160a01b0388811660048301529151928216935090861691839163c4552791916024808301926020929190829003018186803b158015613c4357600080fd5b505afa158015613c57573d6000803e3d6000fd5b505050506040513d6020811015613c6d57600080fd5b50516001600160a01b03161415613c895760019250505061120d565b505b600101613bba565b5060009392505050565b613caf846001600160a01b031661423e565b156131425763f23a6e6160e01b6001600160e01b031916846001600160a01b031663f23a6e6188888787876040518663ffffffff1660e01b815260040180866001600160a01b03168152602001856001600160a01b0316815260200184815260200183815260200180602001828103825283818151815260200191508051906020019080838360005b83811015613d50578181015183820152602001613d38565b50505050905090810190601f168015613d7d5780820380516001836020036101000a031916815260200191505b509650505050505050602060405180830381600087803b158015613da057600080fd5b505af1158015613db4573d6000803e3d6000fd5b505050506040513d6020811015613dca57600080fd5b50516001600160e01b031916146131425760405162461bcd60e51b8152600401808060200182810382526031815260200180614a2d6031913960400191505060405180910390fd5b6001600160a01b038116613e575760405162461bcd60e51b815260040180806020018281038252602681526020018061481f6026913960400191505060405180910390fd5b600f546040516001600160a01b038084169216907f8be0079c531659141344cd1fd0a4f28419497f9722a3daafe3b4186f6b6457e090600090a3600f80546001600160a01b0319166001600160a01b0392909216919091179055565b6000838152600d60205260408120600801805461213b9290613ed157fe5b6000918252602080832090910154868352600d8083526040808520805460018201548351606081018552600284015481526003840154818901528c895294909652600b90910180546001600160a01b03909516968a96929592948a949093908401929190613f3b57fe5b9060005260206000209060020201600160028110613f5557fe5b0154905260008a8152600d602090815260409182902060090180548351818402810184019094528084529091830182828015613fba57602002820191906000526020600020905b81546001600160a01b03168152600190910190602001808311613f9c575b50505060008d8152600d6020908152604091829020600a018054835181840281018401909452808452929450925083018282801561401757602002820191906000526020600020905b815481526020019060010190808311614003575b50505060008e8152600d60205260409020600481015460069091015490925060ff600160a01b82041691506001600160a01b03166137ad565b600061405b8361340f565b8061406a575061406a85613916565b80614079575061407984613916565b80613506575050159392505050565b6000614095868585613939565b9050808210156140ec576040805162461bcd60e51b815260206004820152601960248201527f496e73756666696369656e742045544820666f72206665657300000000000000604482015290519081900360640190fd5b6040805180820182526014815273496e73756666696369656e742062616c616e636560601b6020808301919091526000878152600d82528381206001600160a01b038b16825260070190915291909120546141489185906145b1565b6000858152600d602090815260408083206001600160a01b038b1684526007019091529020556141798585856142b7565b60005b6000858152600d6020526040902060090154811015614234576000858152600d602052604081206009018054839081106141b257fe5b6000918252602080832090910154888352600d90915260408220600a0180546001600160a01b03909216935090849081106141e957fe5b600091825260209091200154905061420761271061269d8684613b1b565b6001600160a01b039092166000908152600c6020526040902060019081018054909301909255500161417c565b5095945050505050565b6000813f7fc5d2460186f7233c927e7db2dcc703c0e500b653ca82273b7bfad8045d85a47081158015906125555750141592915050565b6000611c8583836040518060400160405280601e81526020017f536166654d6174683a207375627472616374696f6e206f766572666c6f7700008152506145b1565b6000828152600d602090815260408083206001600160a01b03871684526007019091528120546142e790836144b5565b6000848152600d602090815260408083206001600160a01b03891684526007019091529020549091506143e4576000838152600d602090815260408083206001600160a01b0388168452600701909152902060020154610100900460ff166143b3576001600160a01b0384166000818152600c6020908152604080832060020180546001818101835591855283852001889055878452600d83529083206008810180549283018155845282842090910180546001600160a01b0319168517905592909152600790910190525b6000838152600d602090815260408083206001600160a01b0388168452600701909152902042600190910155614485565b6000838152600d602090815260408083206001600160a01b0388168452600701909152812060010154614418904290614275565b6000858152600d602090815260408083206001600160a01b038a1684526007019091528120549192509061445290849061269d9085613b1b565b6000868152600d602090815260408083206001600160a01b038b1684526007019091529020429190910360019091015550505b6000928352600d602090815260408085206001600160a01b03909616855260079095019052929091209190915550565b600082820183811015611c85576040805162461bcd60e51b815260206004820152601b60248201527f536166654d6174683a206164646974696f6e206f766572666c6f770000000000604482015290519081900360640190fd5b6000818361459b5760405162461bcd60e51b81526004018080602001828103825283818151815260200191508051906020019080838360005b83811015614560578181015183820152602001614548565b50505050905090810190601f16801561458d5780820380516001836020036101000a031916815260200191505b509250505060405180910390fd5b5060008385816145a757fe5b0495945050505050565b600081848411156146035760405162461bcd60e51b8152602060048201818152835160248401528351909283926044909101919085019080838360008315614560578181015183820152602001614548565b505050900390565b604051806101800160405280600081526020016000815260200160008152602001600081526020016000815260200160006001600160a01b03168152602001600015158152602001600015158152602001600015158152602001600015158152602001600015158152602001606081525090565b82600a81019282156146c7579160200282015b828111156146c757825182546001600160a01b0319166001600160a01b03909116178255602090920191600190910190614692565b506146d392915061479f565b5090565b8280548282559060005260206000209081019282156146c757916020028201828111156146c757825182546001600160a01b0319166001600160a01b03909116178255602090920191600190910190614692565b8260028101928215614759579160200282015b8281111561475957825182559160200191906001019061473e565b506146d39291506147be565b828054828255906000526020600020908101928215614759579160200282018281111561475957825182559160200191906001019061473e565b5b808211156146d35780546001600160a01b03191681556001016147a0565b5b808211156146d357600081556001016147bf56fec3d58168c5ae7397731d063d5bbf3d657854427343f4c083240f7aacaa2d0f62455243313135353a2062616c616e636520717565727920666f7220746865207a65726f20616464726573734f776e61626c653a206e6577206f776e657220697320746865207a65726f20616464726573736ce984c7277c5fe8f47fdf17245300ed19587e3bc1041342d79726b2b2f1dc0b455243313135353a207461726765742061646472657373206d757374206265206e6f6e2d7a65726f455243313135353a2063616e6e6f742073657420617070726f76616c2073746174757320666f722073656c66455243313135353a206163636f756e747320616e6420494473206d75737420686176652073616d65206c656e67746873455243313135353a20676f7420756e6b6e6f776e2076616c75652066726f6d206f6e4552433131353542617463685265636569766564455243313135353a20736f6d65206164647265737320696e2062617463682062616c616e6365207175657279206973207a65726f536166654d6174683a206d756c7469706c69636174696f6e206f766572666c6f77496e73756666696369656e742063616c6c6261636b2c207065726d697373696f6e206f7220657363726f77656420616d6f756e744f776e61626c653a2063616c6c6572206973206e6f7420746865206f776e6572455243313135353a206e656564206f70657261746f7220617070726f76616c20666f7220337264207061727479207472616e7366657273455243313135353a2049447320616e642076616c756573206d75737420686176652073616d65206c656e67746873455243313135353a20676f7420756e6b6e6f776e2076616c75652066726f6d206f6e455243313135355265636569766564a26469706673582212203e52f7753da7632ce8f8a13574c2076a6c81288051820dba08ed491035f1d0a464736f6c634300070100334f776e61626c653a206e6577206f776e657220697320746865207a65726f2061646472657373",
  "immutableReferences": {},
  "source": "// SPDX-License-Identifier: GPL-3.0-or-later\n\npragma solidity ^0.7.1;\n\nimport './Lockable.sol';\n\ncontract Callable is Lockable {\n\n    using SafeMath for uint256;\n\n\n    /***************************************\n    CALLBACKS\n    ****************************************/\n\n    /**\n     * @dev Maximum addresses to execute automatically the callback when is accepted.\n     * @param newMax new maximum\n     */\n    function setCallbackAutoExecuteMaxAddresses(uint256 newMax) external onlyOwner {\n        _config.callbackAutoExecuteMaxAddresses = newMax;\n    }\n\n    /**\n     * @dev Propose to buy the whole supply of a token.\n     * The proposer must hold minHoldingForCallback% of the total supply.\n     * StashBlox must approve the price with acceptCallback();\n     * @param tokenId Token ID\n     * @param price proposed price\n     * @param callees list of calless. Empty list means all holders.\n     */\n    function proposeCallback(uint256 callbackId, uint256 tokenId, uint256 price, address[] memory callees, uint256 documentHash) external payable {\n        require(_callbacks[callbackId].tokenId == 0 && _tokens[tokenId].supply > 0 &&\n                msg.value >= _callbackPrice(tokenId, price, callees) &&\n                callees.length <= _config.callbackAutoExecuteMaxAddresses, \"Invalid arguments or value\");\n\n        uint256 minHolding = (_tokens[tokenId].supply.mul(_tokens[tokenId].minHoldingForCallback)).div(10000);\n\n        _callbacks[callbackId] = Callback({\n            tokenId: tokenId,\n            caller: msg.sender,\n            callees: callees,\n            price: price,\n            escrowedAmount: msg.value,\n            needLegalApproval: (price == 0) ||\n                               (_tokens[tokenId].holders[msg.sender].balance < minHolding) ||\n                               (callees.length > 0),\n            approvedByLegal: false,\n            refused: false,\n            accepted: false,\n            callCounter: 0,\n            completed: false,\n            documentHash: documentHash\n        });\n\n        emit CallbackUpdated(callbackId);\n    }\n\n    /**\n     * @dev Refuse a callback if the price is not enough.\n     * @param callbackId callback proposition ID\n     */\n    function refuseCallback(uint256 callbackId) external {\n        Callback memory callback = _callbacks[callbackId];\n\n        require(callback.tokenId != 0 &&\n                callback.refused == false &&\n                callback.accepted == false &&\n                (_isMaintener(callback.tokenId, msg.sender) ||\n                 _isLegalAuthority(callback.tokenId, msg.sender) ||\n                 msg.sender == callback.caller), \"Invalid arguments or permission\");\n\n        _callbacks[callbackId].refused = true;\n        _users[callback.caller].ETHBalance += callback.escrowedAmount;\n\n        emit CallbackUpdated(callbackId);\n    }\n\n    /**\n     * @dev Approve a callback\n     * @param callbackId callback proposition ID\n     */\n    function approveCallback(uint256 callbackId) external {\n        Callback memory callback = _callbacks[callbackId];\n\n        require(callback.tokenId != 0 &&\n                _isLegalAuthority(callback.tokenId, msg.sender) &&\n                callback.refused == false &&\n                callback.accepted == false, \"Invalid arguments or permission\");\n\n        _callbacks[callbackId].approvedByLegal = true;\n\n        emit CallbackUpdated(callbackId);\n    }\n\n    /**\n     * @dev Accept a callback\n     * @param callbackId callback proposition ID\n     */\n    function acceptCallback(uint256 callbackId) external {\n        Callback memory callback = _callbacks[callbackId];\n\n        require(callback.tokenId != 0 &&\n                _isMaintener(callback.tokenId, msg.sender) &&\n                (!callback.needLegalApproval || callback.approvedByLegal) &&\n                callback.refused == false &&\n                callback.accepted == false &&\n                callback.escrowedAmount >= _callbackPrice(callback.tokenId, callback.price, callback.callees),\n                \"Insufficient callback, permission or escrowed amount\");\n\n        _callbacks[callbackId].accepted = true;\n\n        emit CallbackUpdated(callbackId);\n\n        if (callback.callees.length > 0) {\n            _executeCallback(callbackId, callback.callees.length);\n        } else if (_tokens[callback.tokenId].holderList.length <= _config.callbackAutoExecuteMaxAddresses) {\n            _executeCallback(callbackId, _tokens[callback.tokenId].holderList.length);\n        } else {\n            _lockToken(callback.tokenId, callback.documentHash);\n        }\n    }\n\n    /**\n     * @dev Accept a callback. Caller need to recall the function to continue the callback until completed.\n     * @param callbackId callback proposition ID\n     * @param maxCall maximal call to excute\n     */\n    function executeCallback(uint256 callbackId, uint256 maxCall) external {\n        Callback memory callback = _callbacks[callbackId];\n\n        require(callback.tokenId != 0 &&\n                callback.accepted == true &&\n                callback.completed == false, \"Invalid callback\");\n\n        _executeCallback(callbackId, maxCall);\n\n        if (_callbacks[callbackId].completed) {\n            _unlockToken(callback.tokenId, callback.documentHash);\n        }\n    }\n\n\n    function _executeCallback(uint256 callbackId, uint256 maxCall) internal {\n        uint256 tokenId = _callbacks[callbackId].tokenId;\n\n        address[] memory callees = _callbacks[callbackId].callees.length > 0 ?\n                                   _callbacks[callbackId].callees :\n                                   _tokens[tokenId].holderList;\n\n        uint256 max = callees.length - 1;\n        uint256 start = _callbacks[callbackId].callCounter;\n        uint256 end = start + maxCall <  max ? start + maxCall : max;\n\n        uint256 callbackAmount = 0;\n        for (uint256 i = start; i <= end; i++) {\n            address callee = callees[i];\n            if (_tokens[tokenId].holders[callee].balance > 0) {\n                callbackAmount += _tokens[tokenId].holders[callee].balance;\n                _users[callee].ETHBalance += _tokens[tokenId].holders[callee].balance.mul(_callbacks[callbackId].price);\n\n                emit TransferSingle(msg.sender,\n                                    callee,\n                                    _callbacks[callbackId].caller,\n                                    tokenId,\n                                    _tokens[tokenId].holders[callee].balance);\n\n                _tokens[tokenId].holders[callee].balance = 0;\n            }\n        }\n        _addToBalance(_callbacks[callbackId].caller, tokenId, callbackAmount);\n\n        _callbacks[callbackId].callCounter = end;\n        if (end == max) {\n            _callbacks[callbackId].completed = true;\n            emit CallbackUpdated(callbackId);\n        }\n    }\n\n    function _callbackPrice(uint256 tokenId, uint256 price, address[] memory callees) internal view returns (uint256) {\n        uint256 callbackAmount = 0;\n        if (callees.length == 0) {\n            callbackAmount = _tokens[tokenId].supply.sub(_tokens[tokenId].holders[msg.sender].balance);\n        } else {\n            for (uint i; i < callees.length; i++) {\n                callbackAmount += _tokens[tokenId].holders[callees[i]].balance;\n            }\n        }\n        return callbackAmount.mul(price);\n    }\n\n    function _isLegalAuthority(uint256 id, address legalAuthority) internal view returns (bool) {\n        return _tokens[id].legalAuthority == legalAuthority;\n    }\n\n}\n",
  "sourcePath": "/home/ouziel/Work/StashBloxContracts/contracts/lib/Callable.sol",
  "compiler": {
    "name": "solc",
    "version": "0.7.1+commit.f4a555be.Emscripten.clang"
  },
  "schemaVersion": "3.2.3",
  "updatedAt": "2020-10-20T17:55:09.242Z",
  "devdoc": {
    "kind": "dev",
    "methods": {
      "acceptCallback(uint256)": {
        "details": "Accept a callback",
        "params": {
          "callbackId": "callback proposition ID"
        }
      },
      "approveCallback(uint256)": {
        "details": "Approve a callback",
        "params": {
          "callbackId": "callback proposition ID"
        }
      },
      "authorizeMaintener(uint256,address)": {
        "details": "Function to authorize an address to maintain a token.",
        "params": {
          "maintener": "The authorized address"
        }
      },
      "authorizeTokenizer(address)": {
        "details": "Function to authorize an address to create a token.",
        "params": {
          "tokenizer": "The authorized address"
        }
      },
      "balanceOf(address,uint256)": {
        "details": "Get the specified address' balance for token with specified ID. Attempting to query the zero account for a balance will result in a revert.",
        "params": {
          "account": "The address of the token holder",
          "id": "ID of the token"
        },
        "returns": {
          "_0": "The account's balance of the token type requested"
        }
      },
      "balanceOfBatch(address[],uint256[])": {
        "details": "Get the balance of multiple account/token pairs. If any of the query accounts is the zero account, this query will revert.",
        "params": {
          "accounts": "The addresses of the token holders",
          "ids": "IDs of the tokens"
        },
        "returns": {
          "_0": "Balances for each account and token id pair"
        }
      },
      "cloneToken(uint256,uint256[],uint256[])": {
        "details": "Function to mint tokens in batch.",
        "params": {
          "id": "Identifier of the template",
          "ids": "list of IDs of the tokens to be minted",
          "metadataHashes": "list of metadata file hashes"
        }
      },
      "createToken(address,uint256,uint256,uint256,uint256,uint256[3],address[],uint256[],uint256,bool,address)": {
        "details": "Function to mint an amount of a token with the given ID.",
        "params": {
          "feesRecipients": "list of addresses receiving transfer fees",
          "feesRecipientsPercentage": "list of percentage, each one for the corresponding feesRecipients",
          "id": "ID of the token to be minted",
          "metadataHash": "Metadata file hash",
          "minHoldingForCallback": "minimum holding to propose a callback",
          "recipient": "The address that will own the minted tokens",
          "supply": "Amount of the token to be minted",
          "transactionFees": "transaction fees: [lumpSumFees (in WEI), valueProportionalFees (ratio of transfered amount * 10**8), storageFees (in storageCredit * 10**8)]"
        }
      },
      "executeCallback(uint256,uint256)": {
        "details": "Accept a callback. Caller need to recall the function to continue the callback until completed.",
        "params": {
          "callbackId": "callback proposition ID",
          "maxCall": "maximal call to excute"
        }
      },
      "isApprovedForAll(address,address)": {
        "params": {
          "account": "The account of the Tokens",
          "operator": "Address of authorized operator"
        },
        "returns": {
          "_0": "True if the operator is approved, false if not"
        }
      },
      "isLockedAddress(address)": {
        "details": "Function to check if an address is lockec.",
        "params": {
          "addr": "The address to check"
        }
      },
      "isLockedToken(uint256)": {
        "details": "Function to check if a token is locked.",
        "params": {
          "id": "The token ID"
        }
      },
      "isMaintener(uint256,address)": {
        "details": "Function to check if an address is authorized to maintain a token.",
        "params": {
          "id": "the token id",
          "maintener": "The authorized address"
        },
        "returns": {
          "_0": "true if it's a maintener address"
        }
      },
      "isTokenizer(address)": {
        "details": "Function to check if an address is authorized to create a token.",
        "params": {
          "tokenizer": "The authorized address"
        }
      },
      "lockAddress(address)": {
        "details": "Function to lock an address.",
        "params": {
          "addr": "The address to lock"
        }
      },
      "lockToken(uint256,uint256)": {
        "details": "Function to lock a token.",
        "params": {
          "id": "The token ID"
        }
      },
      "owner()": {
        "details": "Returns the address of the current owner."
      },
      "proposeCallback(uint256,uint256,uint256,address[],uint256)": {
        "details": "Propose to buy the whole supply of a token. The proposer must hold minHoldingForCallback% of the total supply. StashBlox must approve the price with acceptCallback();",
        "params": {
          "callees": "list of calless. Empty list means all holders.",
          "price": "proposed price",
          "tokenId": "Token ID"
        }
      },
      "refuseCallback(uint256)": {
        "details": "Refuse a callback if the price is not enough.",
        "params": {
          "callbackId": "callback proposition ID"
        }
      },
      "revokeMaintener(uint256,address)": {
        "details": "Function to revoke the authorization to maintain a token.",
        "params": {
          "id": "the token id",
          "maintener": "The authorized address"
        }
      },
      "revokeTokenizer(address)": {
        "details": "Function to revoke the authorization to create a token.",
        "params": {
          "tokenizer": "The authorized address"
        }
      },
      "safeBatchTransferFrom(address,address,uint256[],uint256[],bytes)": {
        "details": "Transfers `values` amount(s) of `ids` from the `from` address to the `to` address specified. Caller must be approved to manage the tokens being transferred out of the `from` account. If `to` is a smart contract, will call `onERC1155BatchReceived` on `to` and act appropriately.",
        "params": {
          "data": "Data forwarded to `onERC1155Received` if `to` is a contract receiver",
          "from": "Source address",
          "ids": "IDs of each token type",
          "to": "Target address",
          "values": "Transfer amounts per token type"
        }
      },
      "safeTransferFrom(address,address,uint256,uint256,bytes)": {
        "details": "Transfers `value` amount of an `id` from the `from` address to the `to` address specified. Caller must be approved to manage the tokens being transferred out of the `from` account. If `to` is a smart contract, will call `onERC1155Received` on `to` and act appropriately.",
        "params": {
          "data": "Data forwarded to `onERC1155Received` if `to` is a contract receiver",
          "from": "Source address",
          "id": "ID of the token type",
          "to": "Target address",
          "value": "Transfer amount"
        }
      },
      "setApprovalForAll(address,bool)": {
        "details": "Sets or unsets the approval of a given operator. An operator is allowed to transfer all tokens of the sender on their behalf. Because an account already has operator privileges for itself, this function will revert if the account attempts to set the approval status for itself.",
        "params": {
          "approved": "representing the status of the approval to be set",
          "operator": "address to set the approval"
        }
      },
      "setCallbackAutoExecuteMaxAddresses(uint256)": {
        "details": "Maximum addresses to execute automatically the callback when is accepted.",
        "params": {
          "newMax": "new maximum"
        }
      },
      "setProxyRegistryAddress(address[10])": {
        "details": "Function to update the operator whitelist",
        "params": {
          "proxyAddresses": "List of addresses"
        }
      },
      "supportsInterface(bytes4)": {
        "params": {
          "_interfaceID": "The interface identifier, as specified in ERC-165"
        },
        "returns": {
          "_0": "`true` if the contract implements `_interfaceID` and"
        }
      },
      "transactionFees(address,uint256,uint256)": {
        "details": "Function to get the transaction price to transfer tokens.",
        "params": {
          "account": "the address from where to transfer the tokens",
          "id": "The token ID",
          "value": "The amount to transfer"
        }
      },
      "transferOwnership(address)": {
        "details": "Transfers ownership of the contract to a new account (`newOwner`). Can only be called by the current owner."
      },
      "unlockAddress(address)": {
        "details": "Function to unlock an address.",
        "params": {
          "addr": "The address to unlock"
        }
      },
      "unlockToken(uint256,uint256)": {
        "details": "Function to unlock a token.",
        "params": {
          "id": "The token ID"
        }
      }
    },
    "version": 1
  },
  "userdoc": {
    "kind": "user",
    "methods": {
      "isApprovedForAll(address,address)": {
        "notice": "Queries the approval status of an operator for a given account."
      },
      "supportsInterface(bytes4)": {
        "notice": "Query if a contract implements an interface"
      }
    },
    "version": 1
  }
}