{
  "contractName": "Callable",
  "abi": [
    {
      "anonymous": false,
      "inputs": [
        {
          "indexed": true,
          "internalType": "address",
          "name": "_owner",
          "type": "address"
        },
        {
          "indexed": true,
          "internalType": "address",
          "name": "_operator",
          "type": "address"
        },
        {
          "indexed": false,
          "internalType": "bool",
          "name": "_approved",
          "type": "bool"
        }
      ],
      "name": "ApprovalForAll",
      "type": "event"
    },
    {
      "anonymous": false,
      "inputs": [
        {
          "indexed": true,
          "internalType": "uint256",
          "name": "_callbackId",
          "type": "uint256"
        }
      ],
      "name": "CallbackUpdated",
      "type": "event"
    },
    {
      "anonymous": false,
      "inputs": [
        {
          "indexed": true,
          "internalType": "address",
          "name": "previousOwner",
          "type": "address"
        },
        {
          "indexed": true,
          "internalType": "address",
          "name": "newOwner",
          "type": "address"
        }
      ],
      "name": "OwnershipTransferred",
      "type": "event"
    },
    {
      "anonymous": false,
      "inputs": [
        {
          "indexed": true,
          "internalType": "uint256",
          "name": "_id",
          "type": "uint256"
        },
        {
          "indexed": false,
          "internalType": "uint256",
          "name": "_documentHash",
          "type": "uint256"
        }
      ],
      "name": "TokenUpdated",
      "type": "event"
    },
    {
      "anonymous": false,
      "inputs": [
        {
          "indexed": true,
          "internalType": "address",
          "name": "_operator",
          "type": "address"
        },
        {
          "indexed": true,
          "internalType": "address",
          "name": "_from",
          "type": "address"
        },
        {
          "indexed": true,
          "internalType": "address",
          "name": "_to",
          "type": "address"
        },
        {
          "indexed": false,
          "internalType": "uint256[]",
          "name": "_ids",
          "type": "uint256[]"
        },
        {
          "indexed": false,
          "internalType": "uint256[]",
          "name": "_values",
          "type": "uint256[]"
        }
      ],
      "name": "TransferBatch",
      "type": "event"
    },
    {
      "anonymous": false,
      "inputs": [
        {
          "indexed": true,
          "internalType": "address",
          "name": "_operator",
          "type": "address"
        },
        {
          "indexed": true,
          "internalType": "address",
          "name": "_from",
          "type": "address"
        },
        {
          "indexed": true,
          "internalType": "address",
          "name": "_to",
          "type": "address"
        },
        {
          "indexed": false,
          "internalType": "uint256",
          "name": "_id",
          "type": "uint256"
        },
        {
          "indexed": false,
          "internalType": "uint256",
          "name": "_value",
          "type": "uint256"
        }
      ],
      "name": "TransferSingle",
      "type": "event"
    },
    {
      "anonymous": false,
      "inputs": [
        {
          "indexed": false,
          "internalType": "string",
          "name": "_value",
          "type": "string"
        },
        {
          "indexed": true,
          "internalType": "uint256",
          "name": "_id",
          "type": "uint256"
        }
      ],
      "name": "URI",
      "type": "event"
    },
    {
      "inputs": [
        {
          "internalType": "uint256",
          "name": "",
          "type": "uint256"
        }
      ],
      "name": "_callbacks",
      "outputs": [
        {
          "internalType": "uint256",
          "name": "tokenId",
          "type": "uint256"
        },
        {
          "internalType": "uint256",
          "name": "price",
          "type": "uint256"
        },
        {
          "internalType": "uint256",
          "name": "escrowedAmount",
          "type": "uint256"
        },
        {
          "internalType": "uint256",
          "name": "callCounter",
          "type": "uint256"
        },
        {
          "internalType": "uint256",
          "name": "documentHash",
          "type": "uint256"
        },
        {
          "internalType": "address",
          "name": "caller",
          "type": "address"
        },
        {
          "internalType": "bool",
          "name": "needLegalApproval",
          "type": "bool"
        },
        {
          "internalType": "bool",
          "name": "approvedByLegal",
          "type": "bool"
        },
        {
          "internalType": "bool",
          "name": "refused",
          "type": "bool"
        },
        {
          "internalType": "bool",
          "name": "accepted",
          "type": "bool"
        },
        {
          "internalType": "bool",
          "name": "completed",
          "type": "bool"
        }
      ],
      "stateMutability": "view",
      "type": "function"
    },
    {
      "inputs": [],
      "name": "_config",
      "outputs": [
        {
          "internalType": "uint256",
          "name": "callbackAutoExecuteMaxAddresses",
          "type": "uint256"
        },
        {
          "internalType": "string",
          "name": "baseURI",
          "type": "string"
        },
        {
          "internalType": "string",
          "name": "versionRecipient",
          "type": "string"
        },
        {
          "internalType": "address",
          "name": "owner",
          "type": "address"
        },
        {
          "internalType": "address",
          "name": "GSNTrustedForwarder",
          "type": "address"
        },
        {
          "internalType": "address",
          "name": "proxyRegistryAddress",
          "type": "address"
        }
      ],
      "stateMutability": "view",
      "type": "function"
    },
    {
      "inputs": [
        {
          "internalType": "uint256",
          "name": "",
          "type": "uint256"
        }
      ],
      "name": "_tokens",
      "outputs": [
        {
          "internalType": "uint256",
          "name": "supply",
          "type": "uint256"
        },
        {
          "internalType": "uint256",
          "name": "decimals",
          "type": "uint256"
        },
        {
          "internalType": "uint256",
          "name": "lumpSumTransactionFees",
          "type": "uint256"
        },
        {
          "internalType": "uint256",
          "name": "valueTransactionFees",
          "type": "uint256"
        },
        {
          "internalType": "uint256",
          "name": "minHoldingForCallback",
          "type": "uint256"
        },
        {
          "internalType": "uint256",
          "name": "metadataHash",
          "type": "uint256"
        },
        {
          "internalType": "address",
          "name": "legalAuthority",
          "type": "address"
        },
        {
          "internalType": "bool",
          "name": "isPrivate",
          "type": "bool"
        },
        {
          "internalType": "bool",
          "name": "locked",
          "type": "bool"
        }
      ],
      "stateMutability": "view",
      "type": "function"
    },
    {
      "inputs": [
        {
          "internalType": "address",
          "name": "",
          "type": "address"
        }
      ],
      "name": "_users",
      "outputs": [
        {
          "internalType": "bool",
          "name": "isTokenizer",
          "type": "bool"
        },
        {
          "internalType": "bool",
          "name": "isLocked",
          "type": "bool"
        },
        {
          "internalType": "uint256",
          "name": "ETHBalance",
          "type": "uint256"
        }
      ],
      "stateMutability": "view",
      "type": "function"
    },
    {
      "inputs": [
        {
          "internalType": "uint256",
          "name": "id",
          "type": "uint256"
        },
        {
          "internalType": "address",
          "name": "holder",
          "type": "address"
        }
      ],
      "name": "approveHolder",
      "outputs": [],
      "stateMutability": "nonpayable",
      "type": "function"
    },
    {
      "inputs": [
        {
          "internalType": "uint256",
          "name": "id",
          "type": "uint256"
        },
        {
          "internalType": "address",
          "name": "maintener",
          "type": "address"
        }
      ],
      "name": "authorizeMaintener",
      "outputs": [],
      "stateMutability": "nonpayable",
      "type": "function"
    },
    {
      "inputs": [
        {
          "internalType": "address",
          "name": "tokenizer",
          "type": "address"
        }
      ],
      "name": "authorizeTokenizer",
      "outputs": [],
      "stateMutability": "nonpayable",
      "type": "function"
    },
    {
      "inputs": [
        {
          "internalType": "address",
          "name": "account",
          "type": "address"
        },
        {
          "internalType": "uint256",
          "name": "id",
          "type": "uint256"
        }
      ],
      "name": "averageAge",
      "outputs": [
        {
          "internalType": "uint256",
          "name": "",
          "type": "uint256"
        }
      ],
      "stateMutability": "view",
      "type": "function"
    },
    {
      "inputs": [
        {
          "internalType": "address",
          "name": "account",
          "type": "address"
        },
        {
          "internalType": "uint256",
          "name": "id",
          "type": "uint256"
        }
      ],
      "name": "balanceOf",
      "outputs": [
        {
          "internalType": "uint256",
          "name": "",
          "type": "uint256"
        }
      ],
      "stateMutability": "view",
      "type": "function"
    },
    {
      "inputs": [
        {
          "internalType": "address[]",
          "name": "accounts",
          "type": "address[]"
        },
        {
          "internalType": "uint256[]",
          "name": "ids",
          "type": "uint256[]"
        }
      ],
      "name": "balanceOfBatch",
      "outputs": [
        {
          "internalType": "uint256[]",
          "name": "",
          "type": "uint256[]"
        }
      ],
      "stateMutability": "view",
      "type": "function"
    },
    {
      "inputs": [
        {
          "internalType": "uint256",
          "name": "id",
          "type": "uint256"
        },
        {
          "internalType": "uint256[]",
          "name": "ids",
          "type": "uint256[]"
        },
        {
          "internalType": "uint256[]",
          "name": "metadataHashes",
          "type": "uint256[]"
        }
      ],
      "name": "cloneToken",
      "outputs": [],
      "stateMutability": "nonpayable",
      "type": "function"
    },
    {
      "inputs": [
        {
          "internalType": "address",
          "name": "recipient",
          "type": "address"
        },
        {
          "internalType": "uint256",
          "name": "id",
          "type": "uint256"
        },
        {
          "internalType": "uint256",
          "name": "supply",
          "type": "uint256"
        },
        {
          "internalType": "uint256",
          "name": "decimals",
          "type": "uint256"
        },
        {
          "internalType": "uint256",
          "name": "metadataHash",
          "type": "uint256"
        },
        {
          "internalType": "uint256[3]",
          "name": "transactionFees",
          "type": "uint256[3]"
        },
        {
          "internalType": "address[]",
          "name": "feesRecipients",
          "type": "address[]"
        },
        {
          "internalType": "uint256[]",
          "name": "feesRecipientsPercentage",
          "type": "uint256[]"
        },
        {
          "internalType": "uint256",
          "name": "minHoldingForCallback",
          "type": "uint256"
        },
        {
          "internalType": "bool",
          "name": "isPrivate",
          "type": "bool"
        },
        {
          "internalType": "address",
          "name": "legalAuthority",
          "type": "address"
        }
      ],
      "name": "createToken",
      "outputs": [],
      "stateMutability": "nonpayable",
      "type": "function"
    },
    {
      "inputs": [
        {
          "internalType": "address",
          "name": "account",
          "type": "address"
        },
        {
          "internalType": "address",
          "name": "operator",
          "type": "address"
        }
      ],
      "name": "isApprovedForAll",
      "outputs": [
        {
          "internalType": "bool",
          "name": "",
          "type": "bool"
        }
      ],
      "stateMutability": "view",
      "type": "function"
    },
    {
      "inputs": [
        {
          "internalType": "address",
          "name": "addr",
          "type": "address"
        }
      ],
      "name": "isLockedAddress",
      "outputs": [
        {
          "internalType": "bool",
          "name": "",
          "type": "bool"
        }
      ],
      "stateMutability": "view",
      "type": "function"
    },
    {
      "inputs": [
        {
          "internalType": "uint256",
          "name": "id",
          "type": "uint256"
        }
      ],
      "name": "isLockedToken",
      "outputs": [
        {
          "internalType": "bool",
          "name": "",
          "type": "bool"
        }
      ],
      "stateMutability": "view",
      "type": "function"
    },
    {
      "inputs": [
        {
          "internalType": "uint256",
          "name": "id",
          "type": "uint256"
        },
        {
          "internalType": "address",
          "name": "maintener",
          "type": "address"
        }
      ],
      "name": "isMaintener",
      "outputs": [
        {
          "internalType": "bool",
          "name": "",
          "type": "bool"
        }
      ],
      "stateMutability": "view",
      "type": "function"
    },
    {
      "inputs": [
        {
          "internalType": "address",
          "name": "tokenizer",
          "type": "address"
        }
      ],
      "name": "isTokenizer",
      "outputs": [
        {
          "internalType": "bool",
          "name": "",
          "type": "bool"
        }
      ],
      "stateMutability": "view",
      "type": "function"
    },
    {
      "inputs": [
        {
          "internalType": "address",
          "name": "forwarder",
          "type": "address"
        }
      ],
      "name": "isTrustedForwarder",
      "outputs": [
        {
          "internalType": "bool",
          "name": "",
          "type": "bool"
        }
      ],
      "stateMutability": "view",
      "type": "function"
    },
    {
      "inputs": [
        {
          "internalType": "address",
          "name": "addr",
          "type": "address"
        }
      ],
      "name": "lockAddress",
      "outputs": [],
      "stateMutability": "nonpayable",
      "type": "function"
    },
    {
      "inputs": [
        {
          "internalType": "uint256",
          "name": "id",
          "type": "uint256"
        },
        {
          "internalType": "uint256",
          "name": "documentHash",
          "type": "uint256"
        }
      ],
      "name": "lockToken",
      "outputs": [],
      "stateMutability": "nonpayable",
      "type": "function"
    },
    {
      "inputs": [],
      "name": "owner",
      "outputs": [
        {
          "internalType": "address",
          "name": "",
          "type": "address"
        }
      ],
      "stateMutability": "view",
      "type": "function"
    },
    {
      "inputs": [
        {
          "internalType": "uint256",
          "name": "id",
          "type": "uint256"
        },
        {
          "internalType": "address",
          "name": "holder",
          "type": "address"
        }
      ],
      "name": "revokeHolder",
      "outputs": [],
      "stateMutability": "nonpayable",
      "type": "function"
    },
    {
      "inputs": [
        {
          "internalType": "uint256",
          "name": "id",
          "type": "uint256"
        },
        {
          "internalType": "address",
          "name": "maintener",
          "type": "address"
        }
      ],
      "name": "revokeMaintener",
      "outputs": [],
      "stateMutability": "nonpayable",
      "type": "function"
    },
    {
      "inputs": [
        {
          "internalType": "address",
          "name": "tokenizer",
          "type": "address"
        }
      ],
      "name": "revokeTokenizer",
      "outputs": [],
      "stateMutability": "nonpayable",
      "type": "function"
    },
    {
      "inputs": [
        {
          "internalType": "address",
          "name": "from",
          "type": "address"
        },
        {
          "internalType": "address",
          "name": "to",
          "type": "address"
        },
        {
          "internalType": "uint256[]",
          "name": "ids",
          "type": "uint256[]"
        },
        {
          "internalType": "uint256[]",
          "name": "values",
          "type": "uint256[]"
        },
        {
          "internalType": "bytes",
          "name": "data",
          "type": "bytes"
        }
      ],
      "name": "safeBatchTransferFrom",
      "outputs": [],
      "stateMutability": "payable",
      "type": "function"
    },
    {
      "inputs": [
        {
          "internalType": "address",
          "name": "from",
          "type": "address"
        },
        {
          "internalType": "address",
          "name": "to",
          "type": "address"
        },
        {
          "internalType": "uint256",
          "name": "id",
          "type": "uint256"
        },
        {
          "internalType": "uint256",
          "name": "value",
          "type": "uint256"
        },
        {
          "internalType": "bytes",
          "name": "data",
          "type": "bytes"
        }
      ],
      "name": "safeTransferFrom",
      "outputs": [],
      "stateMutability": "payable",
      "type": "function"
    },
    {
      "inputs": [
        {
          "internalType": "address",
          "name": "operator",
          "type": "address"
        },
        {
          "internalType": "bool",
          "name": "approved",
          "type": "bool"
        }
      ],
      "name": "setApprovalForAll",
      "outputs": [],
      "stateMutability": "nonpayable",
      "type": "function"
    },
    {
      "inputs": [
        {
          "internalType": "address",
          "name": "proxyAddress",
          "type": "address"
        }
      ],
      "name": "setProxyRegistryAddress",
      "outputs": [],
      "stateMutability": "nonpayable",
      "type": "function"
    },
    {
      "inputs": [
        {
          "internalType": "bytes4",
          "name": "_interfaceID",
          "type": "bytes4"
        }
      ],
      "name": "supportsInterface",
      "outputs": [
        {
          "internalType": "bool",
          "name": "",
          "type": "bool"
        }
      ],
      "stateMutability": "pure",
      "type": "function"
    },
    {
      "inputs": [
        {
          "internalType": "address",
          "name": "account",
          "type": "address"
        },
        {
          "internalType": "uint256",
          "name": "id",
          "type": "uint256"
        },
        {
          "internalType": "uint256",
          "name": "value",
          "type": "uint256"
        }
      ],
      "name": "transactionFees",
      "outputs": [
        {
          "internalType": "uint256",
          "name": "",
          "type": "uint256"
        }
      ],
      "stateMutability": "view",
      "type": "function"
    },
    {
      "inputs": [
        {
          "internalType": "address",
          "name": "newOwner",
          "type": "address"
        }
      ],
      "name": "transferOwnership",
      "outputs": [],
      "stateMutability": "nonpayable",
      "type": "function"
    },
    {
      "inputs": [
        {
          "internalType": "address",
          "name": "addr",
          "type": "address"
        }
      ],
      "name": "unlockAddress",
      "outputs": [],
      "stateMutability": "nonpayable",
      "type": "function"
    },
    {
      "inputs": [
        {
          "internalType": "uint256",
          "name": "id",
          "type": "uint256"
        },
        {
          "internalType": "uint256",
          "name": "documentHash",
          "type": "uint256"
        }
      ],
      "name": "unlockToken",
      "outputs": [],
      "stateMutability": "nonpayable",
      "type": "function"
    },
    {
      "inputs": [
        {
          "internalType": "uint256",
          "name": "id",
          "type": "uint256"
        },
        {
          "internalType": "uint256",
          "name": "metadataHash",
          "type": "uint256"
        },
        {
          "internalType": "uint256[3]",
          "name": "transactionFees",
          "type": "uint256[3]"
        },
        {
          "internalType": "address[]",
          "name": "feesRecipients",
          "type": "address[]"
        },
        {
          "internalType": "uint256[]",
          "name": "feesRecipientsPercentage",
          "type": "uint256[]"
        },
        {
          "internalType": "uint256",
          "name": "minHoldingForCallback",
          "type": "uint256"
        },
        {
          "internalType": "bool",
          "name": "isPrivate",
          "type": "bool"
        },
        {
          "internalType": "address",
          "name": "legalAuthority",
          "type": "address"
        }
      ],
      "name": "updateToken",
      "outputs": [],
      "stateMutability": "nonpayable",
      "type": "function"
    },
    {
      "inputs": [
        {
          "internalType": "uint256",
          "name": "id",
          "type": "uint256"
        }
      ],
      "name": "uri",
      "outputs": [
        {
          "internalType": "string",
          "name": "",
          "type": "string"
        }
      ],
      "stateMutability": "view",
      "type": "function"
    },
    {
      "inputs": [],
      "name": "versionRecipient",
      "outputs": [
        {
          "internalType": "string",
          "name": "",
          "type": "string"
        }
      ],
      "stateMutability": "view",
      "type": "function"
    },
    {
      "inputs": [
        {
          "internalType": "uint256",
          "name": "newMax",
          "type": "uint256"
        }
      ],
      "name": "setCallbackAutoExecuteMaxAddresses",
      "outputs": [],
      "stateMutability": "nonpayable",
      "type": "function"
    },
    {
      "inputs": [
        {
          "internalType": "uint256",
          "name": "callbackId",
          "type": "uint256"
        },
        {
          "internalType": "uint256",
          "name": "tokenId",
          "type": "uint256"
        },
        {
          "internalType": "uint256",
          "name": "price",
          "type": "uint256"
        },
        {
          "internalType": "address[]",
          "name": "callees",
          "type": "address[]"
        },
        {
          "internalType": "uint256",
          "name": "documentHash",
          "type": "uint256"
        }
      ],
      "name": "proposeCallback",
      "outputs": [],
      "stateMutability": "payable",
      "type": "function"
    },
    {
      "inputs": [
        {
          "internalType": "uint256",
          "name": "callbackId",
          "type": "uint256"
        }
      ],
      "name": "refuseCallback",
      "outputs": [],
      "stateMutability": "nonpayable",
      "type": "function"
    },
    {
      "inputs": [
        {
          "internalType": "uint256",
          "name": "callbackId",
          "type": "uint256"
        }
      ],
      "name": "approveCallback",
      "outputs": [],
      "stateMutability": "nonpayable",
      "type": "function"
    },
    {
      "inputs": [
        {
          "internalType": "uint256",
          "name": "callbackId",
          "type": "uint256"
        }
      ],
      "name": "acceptCallback",
      "outputs": [],
      "stateMutability": "nonpayable",
      "type": "function"
    },
    {
      "inputs": [
        {
          "internalType": "uint256",
          "name": "callbackId",
          "type": "uint256"
        },
        {
          "internalType": "uint256",
          "name": "maxCall",
          "type": "uint256"
        }
      ],
      "name": "executeCallback",
      "outputs": [],
      "stateMutability": "nonpayable",
      "type": "function"
    }
  ],
  "bytecode": "0x60806040523480156200001157600080fd5b5062000026620000206200002c565b62000062565b62000133565b60006018361080159062000046575062000046336200011f565b156200005c575060131936013560601c6200005f565b50335b90565b6001600160a01b038116620000c3576040517f08c379a0000000000000000000000000000000000000000000000000000000008152600401808060200182810382526026815260200180620054246026913960400191505060405180910390fd5b6003546040516001600160a01b038084169216907f8be0079c531659141344cd1fd0a4f28419497f9722a3daafe3b4186f6b6457e090600090a3600380546001600160a01b0319166001600160a01b0392909216919091179055565b6004546001600160a01b0390811691161490565b6152e180620001436000396000f3fe6080604052600436106102505760003560e01c80638da5cb5b11610139578063cba54e60116100b6578063e985e9c51161007a578063e985e9c5146110f4578063ed70554d1461112f578063f242432a146111ad578063f2fde38b14611240578063f8a5a07c14611273578063fc3fcec7146113aa57610250565b8063cba54e6014610f60578063d1660e1814610f93578063d26ea6c014610fd2578063d41d0aa314611005578063d842b6731461103e57610250565b8063baa34110116100fd578063baa3411014610d0c578063bba75c8314610d3c578063c02f303c14610d66578063c255620a14610d99578063c40b87ae14610dc357610250565b80638da5cb5b14610c135780638f96f13114610c44578063a22cb46514610c6e578063aba7fe8a14610ca9578063b7eb5e0a14610cd957610250565b8063486ff0cd116101d25780635dafec1b116101965780635dafec1b14610ac95780635dd2b9a614610b02578063759c521414610b3b5780637627b73214610b745780638870147b14610ba75780638aeba37e14610bda57610250565b8063486ff0cd146107465780634ab0d2531461075b5780634e1273f4146108dd578063572b6c0514610a5d578063585941d514610a9057610250565b806331d5f78c1161021957806331d5f78c146105da57806334a90d0214610604578063369c37e9146106375780633cacd7d614610661578063414ed0ce146106b457610250565b8062fdd58e1461025557806301ffc9a7146102a05780630e89341c146102e85780632eb2c2d6146103875780632ed42bf7146104b0575b600080fd5b34801561026157600080fd5b5061028e6004803603604081101561027857600080fd5b506001600160a01b0381351690602001356113da565b60408051918252519081900360200190f35b3480156102ac57600080fd5b506102d4600480360360208110156102c357600080fd5b50356001600160e01b03191661144e565b604080519115158252519081900360200190f35b3480156102f457600080fd5b506103126004803603602081101561030b57600080fd5b5035611495565b6040805160208082528351818301528351919283929083019185019080838360005b8381101561034c578181015183820152602001610334565b50505050905090810190601f1680156103795780820380516001836020036101000a031916815260200191505b509250505060405180910390f35b6104ae600480360360a081101561039d57600080fd5b6001600160a01b038235811692602081013590911691810190606081016040820135600160201b8111156103d057600080fd5b8201836020820111156103e257600080fd5b803590602001918460208302840111600160201b8311171561040357600080fd5b919390929091602081019035600160201b81111561042057600080fd5b82018360208201111561043257600080fd5b803590602001918460208302840111600160201b8311171561045357600080fd5b919390929091602081019035600160201b81111561047057600080fd5b82018360208201111561048257600080fd5b803590602001918460018302840111600160201b831117156104a357600080fd5b509092509050611536565b005b3480156104bc57600080fd5b506104c5611809565b604051808781526020018060200180602001866001600160a01b03168152602001856001600160a01b03168152602001846001600160a01b03168152602001838103835288818151815260200191508051906020019080838360005b83811015610539578181015183820152602001610521565b50505050905090810190601f1680156105665780820380516001836020036101000a031916815260200191505b50838103825287518152875160209182019189019080838360005b83811015610599578181015183820152602001610581565b50505050905090810190601f1680156105c65780820380516001836020036101000a031916815260200191505b509850505050505050505060405180910390f35b3480156105e657600080fd5b506104ae600480360360208110156105fd57600080fd5b5035611952565b34801561061057600080fd5b506104ae6004803603602081101561062757600080fd5b50356001600160a01b0316611b37565b34801561064357600080fd5b506104ae6004803603602081101561065a57600080fd5b5035611ba4565b34801561066d57600080fd5b506106946004803603602081101561068457600080fd5b50356001600160a01b0316611bf0565b604080519315158452911515602084015282820152519081900360600190f35b3480156106c057600080fd5b506106de600480360360208110156106d757600080fd5b5035611c16565b604080519b8c5260208c019a909a528a8a019890985260608a019690965260808901949094526001600160a01b0390921660a0880152151560c0870152151560e086015215156101008501521515610120840152151561014083015251908190036101600190f35b34801561075257600080fd5b50610312611c89565b34801561076757600080fd5b506104ae600480360361014081101561077f57600080fd5b6040805160608181018352843594602081013594810193909260a08401929091840190600390839083908082843760009201919091525091949392602081019250359050600160201b8111156107d457600080fd5b8201836020820111156107e657600080fd5b803590602001918460208302840111600160201b8311171561080757600080fd5b9190808060200260200160405190810160405280939291908181526020018383602002808284376000920191909152509295949360208101935035915050600160201b81111561085657600080fd5b82018360208201111561086857600080fd5b803590602001918460208302840111600160201b8311171561088957600080fd5b919080806020026020016040519081016040528093929190818152602001838360200280828437600092019190915250929550508235935050506020810135151590604001356001600160a01b0316611d1d565b3480156108e957600080fd5b50610a0d6004803603604081101561090057600080fd5b810190602081018135600160201b81111561091a57600080fd5b82018360208201111561092c57600080fd5b803590602001918460208302840111600160201b8311171561094d57600080fd5b9190808060200260200160405190810160405280939291908181526020018383602002808284376000920191909152509295949360208101935035915050600160201b81111561099c57600080fd5b8201836020820111156109ae57600080fd5b803590602001918460208302840111600160201b831117156109cf57600080fd5b919080806020026020016040519081016040528093929190818152602001838360200280828437600092019190915250929550611e0f945050505050565b60408051602080825283518183015283519192839290830191858101910280838360005b83811015610a49578181015183820152602001610a31565b505050509050019250505060405180910390f35b348015610a6957600080fd5b506102d460048036036020811015610a8057600080fd5b50356001600160a01b0316611f93565b348015610a9c57600080fd5b5061028e60048036036040811015610ab357600080fd5b506001600160a01b038135169060200135611fa7565b348015610ad557600080fd5b506102d460048036036040811015610aec57600080fd5b50803590602001356001600160a01b0316611fe1565b348015610b0e57600080fd5b506104ae60048036036040811015610b2557600080fd5b50803590602001356001600160a01b0316611fed565b348015610b4757600080fd5b506104ae60048036036040811015610b5e57600080fd5b50803590602001356001600160a01b0316612074565b348015610b8057600080fd5b506104ae60048036036020811015610b9757600080fd5b50356001600160a01b03166120f6565b348015610bb357600080fd5b506104ae60048036036020811015610bca57600080fd5b50356001600160a01b0316612161565b348015610be657600080fd5b506104ae60048036036040811015610bfd57600080fd5b50803590602001356001600160a01b03166121c9565b348015610c1f57600080fd5b50610c28612246565b604080516001600160a01b039092168252519081900360200190f35b348015610c5057600080fd5b506104ae60048036036020811015610c6757600080fd5b5035612255565b348015610c7a57600080fd5b506104ae60048036036040811015610c9157600080fd5b506001600160a01b0381351690602001351515612499565b348015610cb557600080fd5b506104ae60048036036040811015610ccc57600080fd5b508035906020013561258c565b348015610ce557600080fd5b506104ae60048036036020811015610cfc57600080fd5b50356001600160a01b03166125e7565b348015610d1857600080fd5b506104ae60048036036040811015610d2f57600080fd5b5080359060200135612650565b348015610d4857600080fd5b506102d460048036036020811015610d5f57600080fd5b50356126a6565b348015610d7257600080fd5b506102d460048036036020811015610d8957600080fd5b50356001600160a01b03166126b1565b348015610da557600080fd5b506104ae60048036036020811015610dbc57600080fd5b50356126bc565b348015610dcf57600080fd5b506104ae60048036036101a0811015610de757600080fd5b60408051606081810183526001600160a01b03853516946020810135949381013593828201359360808301359391830192916101008301919060a0840190600390839083908082843760009201919091525091949392602081019250359050600160201b811115610e5757600080fd5b820183602082011115610e6957600080fd5b803590602001918460208302840111600160201b83111715610e8a57600080fd5b9190808060200260200160405190810160405280939291908181526020018383602002808284376000920191909152509295949360208101935035915050600160201b811115610ed957600080fd5b820183602082011115610eeb57600080fd5b803590602001918460208302840111600160201b83111715610f0c57600080fd5b919080806020026020016040519081016040528093929190818152602001838360200280828437600092019190915250929550508235935050506020810135151590604001356001600160a01b0316612933565b348015610f6c57600080fd5b506102d460048036036020811015610f8357600080fd5b50356001600160a01b03166129ec565b348015610f9f57600080fd5b5061028e60048036036060811015610fb657600080fd5b506001600160a01b0381351690602081013590604001356129f7565b348015610fde57600080fd5b506104ae60048036036020811015610ff557600080fd5b50356001600160a01b0316612a0c565b34801561101157600080fd5b506104ae6004803603604081101561102857600080fd5b50803590602001356001600160a01b0316612a75565b6104ae600480360360a081101561105457600080fd5b81359160208101359160408201359190810190608081016060820135600160201b81111561108157600080fd5b82018360208201111561109357600080fd5b803590602001918460208302840111600160201b831117156110b457600080fd5b9190808060200260200160405190810160405280939291908181526020018383602002808284376000920191909152509295505091359250612aef915050565b34801561110057600080fd5b506102d46004803603604081101561111757600080fd5b506001600160a01b0381358116916020013516612d99565b34801561113b57600080fd5b506111596004803603602081101561115257600080fd5b5035612da5565b60408051998a5260208a0198909852888801969096526060880194909452608087019290925260a08601526001600160a01b031660c0850152151560e0840152151561010083015251908190036101200190f35b6104ae600480360360a08110156111c357600080fd5b6001600160a01b03823581169260208101359091169160408201359160608101359181019060a081016080820135600160201b81111561120257600080fd5b82018360208201111561121457600080fd5b803590602001918460018302840111600160201b8311171561123557600080fd5b509092509050612e01565b34801561124c57600080fd5b506104ae6004803603602081101561126357600080fd5b50356001600160a01b0316612f66565b34801561127f57600080fd5b506104ae6004803603606081101561129657600080fd5b81359190810190604081016020820135600160201b8111156112b757600080fd5b8201836020820111156112c957600080fd5b803590602001918460208302840111600160201b831117156112ea57600080fd5b9190808060200260200160405190810160405280939291908181526020018383602002808284376000920191909152509295949360208101935035915050600160201b81111561133957600080fd5b82018360208201111561134b57600080fd5b803590602001918460208302840111600160201b8311171561136c57600080fd5b919080806020026020016040519081016040528093929190818152602001838360200280828437600092019190915250929550612fb9945050505050565b3480156113b657600080fd5b506104ae600480360360408110156113cd57600080fd5b5080359060200135613149565b60006001600160a01b0383166114215760405162461bcd60e51b815260040180806020018281038252602b815260200180615022602b913960400191505060405180910390fd5b5060008181526007602081815260408084206001600160a01b038716855290920190529020545b92915050565b60006001600160e01b031982166301ffc9a760e01b148061147f57506001600160e01b03198216636cdb3d1360e11b145b1561148c57506001611490565b5060005b919050565b60018054604080516020600284861615610100026000190190941693909304601f810184900484028201840190925281815260609361144893919290918301828280156115235780601f106114f857610100808354040283529160200191611523565b820191906000526020600020905b81548152906001019060200180831161150657829003601f168201915b50505050506115318461330d565b6133c9565b8483146115745760405162461bcd60e51b815260040180806020018281038252602e81526020018061524d602e913960400191505060405180910390fd5b6001600160a01b0387166115b95760405162461bcd60e51b81526004018080602001828103825260288152602001806150b36028913960400191505060405180910390fd5b6115c16134d3565b6001600160a01b0316886001600160a01b031614806115f257506115ec886115e76134d3565b612d99565b15156001145b61162d5760405162461bcd60e51b81526004018080602001828103825260378152602001806152166037913960400191505060405180910390fd5b61169c888888888080602002602001604051908101604052809392919081815260200183836020028082843760009201919091525050604080516020808c0282810182019093528b82529093508b92508a91829185019084908082843760009201919091525061350592505050565b866001600160a01b0316886001600160a01b03166116b86134d3565b6001600160a01b03167f4a39dc06d4c0dbc64b70af90fd698a233a518aa5d07e595d983b8c0526c8f7fb898989896040518080602001806020018381038352878782818152602001925060200280828437600083820152601f01601f19169091018481038352858152602090810191508690860280828437600083820152604051601f909101601f19169092018290039850909650505050505050a46117ff61175f6134d3565b898989898080602002602001604051908101604052809392919081815260200183836020028082843760009201919091525050604080516020808d0282810182019093528c82529093508c92508b91829185019084908082843760009201919091525050604080516020601f8c018190048102820181019092528a815292508a91508990819084018382808284376000920191909152506135bf92505050565b5050505050505050565b6000805460018054604080516020600284861615610100026000190190941693909304601f810184900484028201840190925281815293949392918301828280156118955780601f1061186a57610100808354040283529160200191611895565b820191906000526020600020905b81548152906001019060200180831161187857829003601f168201915b50505060028085018054604080516020601f60001961010060018716150201909416959095049283018590048502810185019091528181529596959450909250908301828280156119275780601f106118fc57610100808354040283529160200191611927565b820191906000526020600020905b81548152906001019060200180831161190a57829003601f168201915b505050506003830154600484015460059094015492936001600160a01b039182169390821692501686565b61195a614e80565b60008281526008602090815260409182902082516101808101845281548152600182015481840152600282015481850152600382015460608201526004820154608082015260058201546001600160a01b03811660a083015260ff600160a01b82048116151560c0840152600160a81b82048116151560e0840152600160b01b820481161515610100840152600160b81b820481161515610120840152600160c01b909104161515610140820152600682018054855181860281018601909652808652919492936101608601939290830182828015611a6257602002820191906000526020600020905b81546001600160a01b03168152600190910190602001808311611a44575b50505091909252505081519192505015801590611a8d57508051611a8d90611a886134d3565b6137b0565b8015611a9c5750610100810151155b8015611aab5750610120810151155b611afc576040805162461bcd60e51b815260206004820152601f60248201527f496e76616c696420617267756d656e7473206f72207065726d697373696f6e00604482015290519081900360640190fd5b600082815260086020526040808220600501805460ff60a81b1916600160a81b17905551839160008051602061509383398151915291a25050565b611b3f6137d4565b611b7e576040805162461bcd60e51b815260206004820181905260248201526000805160206151f6833981519152604482015290519081900360640190fd5b6001600160a01b03166000908152600660205260409020805461ff001916610100179055565b611bac6137d4565b611beb576040805162461bcd60e51b815260206004820181905260248201526000805160206151f6833981519152604482015290519081900360640190fd5b600055565b6006602052600090815260409020805460019091015460ff808316926101009004169083565b60086020526000908152604090208054600182015460028301546003840154600485015460059095015493949293919290916001600160a01b0381169060ff600160a01b8204811691600160a81b8104821691600160b01b8204811691600160b81b8104821691600160c01b909104168b565b60028054604080516020601f6000196101006001871615020190941685900493840181900481028201810190925282815260609390929091830182828015611d125780601f10611ce757610100808354040283529160200191611d12565b820191906000526020600020905b815481529060010190602001808311611cf557829003601f168201915b505050505090505b90565b87611d2f81611d2a6134d3565b6137fa565b611d6e576040805162461bcd60e51b8152602060048201526017602482015260008051602061504d833981519152604482015290519081900360640190fd5b600089815260076020526040902054611dbe576040805162461bcd60e51b815260206004820152600d60248201526c2ab735b737bbb7103a37b5b2b760991b604482015290519081900360640190fd5b611dce8989898989898989613833565b6040805189815290518a917f199acc06cd2556bbc146fa3cb578799037dffcbf256eca32aaf2ef656925d2fd919081900360200190a2505050505050505050565b60608151835114611e515760405162461bcd60e51b81526004018080602001828103825260308152602001806151076030913960400191505060405180910390fd5b6060835167ffffffffffffffff81118015611e6b57600080fd5b50604051908082528060200260200182016040528015611e95578160200160208202803683370190505b50905060005b8451811015611f8b5760006001600160a01b0316858281518110611ebb57fe5b60200260200101516001600160a01b03161415611f095760405162461bcd60e51b815260040180806020018281038252603481526020018061516d6034913960400191505060405180910390fd5b60076000858381518110611f1957fe5b602002602001015181526020019081526020016000206007016000868381518110611f4057fe5b60200260200101516001600160a01b03166001600160a01b0316815260200190815260200160002060000154828281518110611f7857fe5b6020908102919091010152600101611e9b565b509392505050565b6004546001600160a01b0390811691161490565b60008181526007602081815260408084206001600160a01b03871685529092019052812060010154611fda9042906139d7565b9392505050565b6000611fda83836137fa565b81611ffa81611d2a6134d3565b612039576040805162461bcd60e51b8152602060048201526017602482015260008051602061504d833981519152604482015290519081900360640190fd5b5060009182526007602081815260408085206001600160a01b0390941685529290910190529020600201805462ff0000191662010000179055565b8161208181611d2a6134d3565b6120c0576040805162461bcd60e51b8152602060048201526017602482015260008051602061504d833981519152604482015290519081900360640190fd5b5060009182526007602081815260408085206001600160a01b0390941685529290910190529020600201805462ff000019169055565b6120fe6137d4565b61213d576040805162461bcd60e51b815260206004820181905260248201526000805160206151f6833981519152604482015290519081900360640190fd5b6001600160a01b03166000908152600660205260409020805460ff19166001179055565b6121696137d4565b6121a8576040805162461bcd60e51b815260206004820181905260248201526000805160206151f6833981519152604482015290519081900360640190fd5b6001600160a01b03166000908152600660205260409020805460ff19169055565b6121d16137d4565b612210576040805162461bcd60e51b815260206004820181905260248201526000805160206151f6833981519152604482015290519081900360640190fd5b60009182526007602081815260408085206001600160a01b0390941685529290910190529020600201805460ff19166001179055565b6003546001600160a01b031690565b61225d614e80565b60008281526008602090815260409182902082516101808101845281548152600182015481840152600282015481850152600382015460608201526004820154608082015260058201546001600160a01b03811660a083015260ff600160a01b82048116151560c0840152600160a81b82048116151560e0840152600160b01b820481161515610100840152600160b81b820481161515610120840152600160c01b90910416151561014082015260068201805485518186028101860190965280865291949293610160860193929083018282801561236557602002820191906000526020600020905b81546001600160a01b03168152600190910190602001808311612347575b505050919092525050815191925050158015906123855750610100810151155b80156123945750610120810151155b80156123e4575080516123a990611d2a6134d3565b806123bd575080516123bd90611a886134d3565b806123e457508060a001516001600160a01b03166123d96134d3565b6001600160a01b0316145b612435576040805162461bcd60e51b815260206004820152601f60248201527f496e76616c696420617267756d656e7473206f72207065726d697373696f6e00604482015290519081900360640190fd5b6000828152600860209081526040808320600501805460ff60b01b1916600160b01b1790558381015160a08501516001600160a01b031684526006909252808320600101805490920190915551839160008051602061509383398151915291a25050565b816001600160a01b03166124ab6134d3565b6001600160a01b031614156124f15760405162461bcd60e51b815260040180806020018281038252602c8152602001806150db602c913960400191505060405180910390fd5b80600660006124fe6134d3565b6001600160a01b0390811682526020808301939093526040918201600090812091871680825260039092019093529120805460ff1916921515929092179091556125466134d3565b6001600160a01b03167f17307eab39ab6107e8899845ad3d59bd9653f200f220920489ca2b5937696c318360405180821515815260200191505060405180910390a35050565b8161259981611d2a6134d3565b6125d8576040805162461bcd60e51b8152602060048201526017602482015260008051602061504d833981519152604482015290519081900360640190fd5b6125e28383613a19565b505050565b6125ef6137d4565b61262e576040805162461bcd60e51b815260206004820181905260248201526000805160206151f6833981519152604482015290519081900360640190fd5b6001600160a01b03166000908152600660205260409020805461ff0019169055565b8161265d81611d2a6134d3565b61269c576040805162461bcd60e51b8152602060048201526017602482015260008051602061504d833981519152604482015290519081900360640190fd5b6125e28383613a6f565b600061144882613acb565b600061144882613aea565b6126c4614e80565b60008281526008602090815260409182902082516101808101845281548152600182015481840152600282015481850152600382015460608201526004820154608082015260058201546001600160a01b03811660a083015260ff600160a01b82048116151560c0840152600160a81b82048116151560e0840152600160b01b820481161515610100840152600160b81b820481161515610120840152600160c01b9091041615156101408201526006820180548551818602810186019096528086529194929361016086019392908301828280156127cc57602002820191906000526020600020905b81546001600160a01b031681526001909101906020018083116127ae575b505050919092525050815191925050158015906127f2575080516127f290611d2a6134d3565b801561280b57508060c00151158061280b57508060e001515b801561281a5750610100810151155b80156128295750610120810151155b8015612850575061284881600001518260200151836101600151613b14565b816040015110155b61288b5760405162461bcd60e51b81526004018080602001828103825260348152602001806151c26034913960400191505060405180910390fd5b600082815260086020526040808220600501805460ff60b81b1916600160b81b17905551839160008051602061509383398151915291a261016081015151156128e3576128de8282610160015151613bea565b61292f565b600080548251825260076020526040909120600801541161291d5780516000908152600760205260409020600801546128de908390613bea565b61292f81600001518260800151613a6f565b5050565b61294361293e6134d3565b613aea565b612982576040805162461bcd60e51b8152602060048201526017602482015260008051602061504d833981519152604482015290519081900360640190fd5b6129958b8b8b8b8b8b8b8b8b8b8b613e9d565b6001600160a01b038b1660006129a96134d3565b6001600160a01b03166000805160206150028339815191528d8d604051808381526020018281526020019250505060405180910390a45050505050505050505050565b600061144882613fdc565b6000612a04848484613fff565b949350505050565b612a146137d4565b612a53576040805162461bcd60e51b815260206004820181905260248201526000805160206151f6833981519152604482015290519081900360640190fd5b600580546001600160a01b0319166001600160a01b0392909216919091179055565b612a7d6137d4565b612abc576040805162461bcd60e51b815260206004820181905260248201526000805160206151f6833981519152604482015290519081900360640190fd5b60009182526007602081815260408085206001600160a01b0390941685529290910190529020600201805460ff19169055565b600085815260086020526040902054158015612b18575060008481526007602052604090205415155b8015612b2e5750612b2a848484613b14565b3410155b8015612b3d5750600054825111155b612b8e576040805162461bcd60e51b815260206004820152601a60248201527f496e76616c696420617267756d656e7473206f722076616c7565000000000000604482015290519081900360640190fd5b600084815260076020526040812060048101549054612bba9161271091612bb4916141df565b90614238565b905060405180610180016040528086815260200185815260200134815260200160008152602001838152602001612bef6134d3565b6001600160a01b03168152602001851580612c3e5750600087815260076020819052604082208592910190612c226134d3565b6001600160a01b03168152602081019190915260400160002054105b80612c4a575060008551115b151581526000602080830182905260408084018390526060808501849052608080860185905260a09586018a90528c855260088452938290208651815586840151600182015591860151600283015585015160038201559184015160048301559183015160058201805460c086015160e08701516101008801516101208901516101408a01511515600160c01b0260ff60c01b19911515600160b81b0260ff60b81b19931515600160b01b0260ff60b01b19951515600160a81b0260ff60a81b19971515600160a01b0260ff60a01b196001600160a01b03909c166001600160a01b0319909a16999099179a909a16979097179590951697909717929092169390931792909216171691909117905561016083015180519192612d7592600685019290910190614ef4565b505060405187915060008051602061509383398151915290600090a2505050505050565b6000611fda838361427a565b600760205260009081526040902080546001820154600283015460038401546004850154600586015460069096015494959394929391929091906001600160a01b0381169060ff600160a01b8204811691600160a81b90041689565b6001600160a01b038516612e465760405162461bcd60e51b81526004018080602001828103825260288152602001806150b36028913960400191505060405180910390fd5b612e4e6134d3565b6001600160a01b0316866001600160a01b03161480612e7a5750612e74866115e76134d3565b15156001145b612eb55760405162461bcd60e51b81526004018080602001828103825260378152602001806152166037913960400191505060405180910390fd5b612ec1868686866142bf565b846001600160a01b0316866001600160a01b0316612edd6134d3565b6001600160a01b03166000805160206150028339815191528787604051808381526020018281526020019250505060405180910390a4612f5e612f1e6134d3565b8787878787878080601f01602080910402602001604051908101604052809392919081815260200183838082843760009201919091525061433792505050565b505050505050565b612f6e6137d4565b612fad576040805162461bcd60e51b815260206004820181905260248201526000805160206151f6833981519152604482015290519081900360640190fd5b612fb6816144ac565b50565b612fc461293e6134d3565b613003576040805162461bcd60e51b8152602060048201526017602482015260008051602061504d833981519152604482015290519081900360640190fd5b60008381526007602052604090205415801590613021575080518251145b613066576040805162461bcd60e51b8152602060048201526011602482015270496e76616c696420617267756d656e747360781b604482015290519081900360640190fd5b60005b8251811015613143576130a38484838151811061308257fe5b602002602001015184848151811061309657fe5b602002602001015161454d565b600084815260076020526040812060080180549091906130bf57fe5b60009182526020822001546001600160a01b0316906130dc6134d3565b6001600160a01b031660008051602061500283398151915286858151811061310057fe5b6020026020010151600760008a815260200190815260200160002060000154604051808381526020018281526020019250505060405180910390a4600101613069565b50505050565b613151614e80565b60008381526008602090815260409182902082516101808101845281548152600182015481840152600282015481850152600382015460608201526004820154608082015260058201546001600160a01b03811660a083015260ff600160a01b82048116151560c0840152600160a81b82048116151560e0840152600160b01b820481161515610100840152600160b81b820481161515610120840152600160c01b90910416151561014082015260068201805485518186028101860190965280865291949293610160860193929083018282801561325957602002820191906000526020600020905b81546001600160a01b0316815260019091019060200180831161323b575b5050509190925250508151919250501580159061327d575061012081015115156001145b801561328c5750610140810151155b6132d0576040805162461bcd60e51b815260206004820152601060248201526f496e76616c69642063616c6c6261636b60801b604482015290519081900360640190fd5b6132da8383613bea565b600083815260086020526040902060050154600160c01b900460ff16156125e2576125e281600001518260800151613a19565b60606000825b8015613329576001919091019060109004613313565b60608267ffffffffffffffff8111801561334257600080fd5b506040519080825280601f01601f19166020018201604052801561336d576020820181803683370190505b50905060005b838110156133c05760108606925061338a836146ea565b826001838703038151811061339b57fe5b60200101906001600160f81b031916908160001a905350601086049550600101613373565b50949350505050565b805182516060918491849184910167ffffffffffffffff811180156133ed57600080fd5b506040519080825280601f01601f191660200182016040528015613418576020820181803683370190505b509050806000805b85518110156134715785818151811061343557fe5b602001015160f81c60f81b83838060010194508151811061345257fe5b60200101906001600160f81b031916908160001a905350600101613420565b5060005b84518110156134c65784818151811061348a57fe5b602001015160f81c60f81b8383806001019450815181106134a757fe5b60200101906001600160f81b031916908160001a905350600101613475565b5090979650505050505050565b6000601836108015906134ea57506134ea33611f93565b156134fe575060131936013560601c611d1a565b5033611d1a565b600080341161352f576001600160a01b038516600090815260066020526040902060010154613531565b345b905060005b83518110156135ad576135a3613574878787858151811061355357fe5b602002602001015187868151811061356757fe5b602002602001015161472e565b60408051808201909152601081526f092dce6eaccccd2c6d2cadce8408aa8960831b6020820152849190614783565b9150600101613536565b506135b8858261481a565b5050505050565b6135d1846001600160a01b031661489b565b15612f5e5763bc197c8160e01b6001600160e01b031916846001600160a01b031663bc197c8188888787876040518663ffffffff1660e01b815260040180866001600160a01b03168152602001856001600160a01b03168152602001806020018060200180602001848103845287818151815260200191508051906020019060200280838360005b83811015613671578181015183820152602001613659565b50505050905001848103835286818151815260200191508051906020019060200280838360005b838110156136b0578181015183820152602001613698565b50505050905001848103825285818151815260200191508051906020019080838360005b838110156136ec5781810151838201526020016136d4565b50505050905090810190601f1680156137195780820380516001836020036101000a031916815260200191505b5098505050505050505050602060405180830381600087803b15801561373e57600080fd5b505af1158015613752573d6000803e3d6000fd5b505050506040513d602081101561376857600080fd5b50516001600160e01b03191614612f5e5760405162461bcd60e51b81526004018080602001828103825260368152602001806151376036913960400191505060405180910390fd5b600091825260076020526040909120600601546001600160a01b0391821691161490565b6003546000906001600160a01b03166137eb6134d3565b6001600160a01b031614905090565b60008281526007602081815260408084206001600160a01b0386168552909201905281206002015460ff1680611fda5750611fda6137d4565b6000805b85518110156138635785818151811061384c57fe5b602002602001015182019150806001019050613837565b5060008651118015613873575060015b8015613880575080612710145b801561388d575061271084105b6138d2576040805162461bcd60e51b8152602060048201526011602482015270496e76616c696420617267756d656e747360781b604482015290519081900360640190fd5b6000898152600760209081526040808320600581018c90558a516002808301919091558b840151600383015582518084018452428152928c015183850152600b909101805460018101825590855292909320613932939283020191614f59565b506000898152600760209081526040909120875161395892600990920191890190614ef4565b506000898152600760209081526040909120865161397e92600a90920191880190614f93565b505060009788526007602052604090972060048101929092556006909101805460ff60a01b1916600160a01b92151592909202919091176001600160a01b0319166001600160a01b039096169590951790945550505050565b6000611fda83836040518060400160405280601e81526020017f536166654d6174683a207375627472616374696f6e206f766572666c6f770000815250614783565b600082815260076020908152604091829020600601805460ff60a81b191690558151838152915184927f199acc06cd2556bbc146fa3cb578799037dffcbf256eca32aaf2ef656925d2fd92908290030190a25050565b600082815260076020908152604091829020600601805460ff60a81b1916600160a81b1790558151838152915184927f199acc06cd2556bbc146fa3cb578799037dffcbf256eca32aaf2ef656925d2fd92908290030190a25050565b600090815260076020526040902060060154600160a81b900460ff1690565b6001600160a01b03811660009081526006602052604081205460ff168061144857506114486137d4565b80516000908190613b745760008581526007602081905260408220613b6d92910190613b3e6134d3565b6001600160a01b03168152602080820192909252604090810160009081205489825260079093522054906139d7565b9050613bd7565b60005b8351811015613bd557600760008781526020019081526020016000206007016000858381518110613ba457fe5b6020908102919091018101516001600160a01b03168252810191909152604001600020549190910190600101613b77565b505b613be181856141df565b95945050505050565b60008281526008602052604090208054600690910154606090613c1d576000828152600760205260409020600801613c2f565b60008481526008602052604090206006015b805480602002602001604051908101604052809291908181526020018280548015613c8357602002820191906000526020600020905b81546001600160a01b03168152600190910190602001808311613c65575b505083516000898152600860205260408120600301549596506000199091019493509150508582018311613cb75782613cbb565b8582015b90506000825b828111613e19576000868281518110613cd657fe5b60209081029190910181015160008a8152600780845260408083206001600160a01b0385168452909101909352919091205490915015613e105760008881526007602081815260408084206001600160a01b0386168086529301808352818520548f865260088452918520600101549390945292905293810193613d5a91906141df565b6001600160a01b03808316600081815260066020908152604080832060010180549096019095558e82526008905292909220600501541690613d9a6134d3565b60008b81526007602081815260408084206001600160a01b03898116865293018252928390205483518f81529182015282519390911692600080516020615002833981519152929181900390910190a460008881526007602081815260408084206001600160a01b038616855290920190528120555b50600101613cc1565b50600088815260086020526040902060050154613e40906001600160a01b031687836148d2565b6000888152600860205260409020600301829055838214156117ff57600088815260086020526040808220600501805460ff60c01b1916600160c01b17905551899160008051602061509383398151915291a25050505050505050565b60008a815260076020526040902054158015613eb95750600089115b613efe576040805162461bcd60e51b8152602060048201526011602482015270496e76616c696420617267756d656e747360781b604482015290519081900360640190fd5b60008a815260076020819052604082208b815560018082018c905592910190613f256134d3565b6001600160a01b03166001600160a01b0316815260200190815260200160002060020160006101000a81548160ff0219169083151502179055506001600760008c815260200190815260200160002060070160008d6001600160a01b03166001600160a01b0316815260200190815260200160002060020160026101000a81548160ff021916908315150217905550613fc48a88888888888888613833565b613fcf8b8b8b6148d2565b5050505050505050505050565b6001600160a01b0316600090815260066020526040902054610100900460ff1690565b6000828152600760205260408120600b015481904290600019015b6000868152600760205260408120600b0180548390811061403757fe5b60009182526020822060029091020101546000888152600760205260408120600b01805492935090918490811061406a57fe5b906000526020600020906002020160016002811061408457fe5b015460008981526007602081815260408084206001600160a01b038f168552909201905281206001015491925090831161411f5760008981526007602081815260408084206001600160a01b038f16855290920190529020600101546140f4906201518090612bb49088906139d7565b9050806140ff575060015b6141138861410d83856141df565b906141df565b8601955050505061415e565b61413062015180612bb487866139d7565b90508061413b575060015b919350839161414e8861410d83856141df565b909501945050506000190161401a565b5060008581526007602052604090206001015461417f908390600a0a614238565b600086815260076020526040812060030154919350906141aa906305f5e10090612bb49088906141df565b6000878152600760205260409020600201549091506141d4906141cd908361497a565b849061497a565b979650505050505050565b6000826141ee57506000611448565b828202828482816141fb57fe5b0414611fda5760405162461bcd60e51b81526004018080602001828103825260218152602001806151a16021913960400191505060405180910390fd5b6000611fda83836040518060400160405280601a81526020017f536166654d6174683a206469766973696f6e206279207a65726f0000000000008152506149d4565b60006142868383614a39565b80611fda5750506001600160a01b0391821660009081526006602090815260408083209390941682526003909201909152205460ff1690565b60008034116142e9576001600160a01b0385166000908152600660205260409020600101546142eb565b345b905061432b6142fc8686868661472e565b60408051808201909152601081526f092dce6eaccccd2c6d2cadce8408aa8960831b6020820152839190614783565b90506135b8858261481a565b614349846001600160a01b031661489b565b15612f5e5763f23a6e6160e01b6001600160e01b031916846001600160a01b031663f23a6e6188888787876040518663ffffffff1660e01b815260040180866001600160a01b03168152602001856001600160a01b0316815260200184815260200183815260200180602001828103825283818151815260200191508051906020019080838360005b838110156143ea5781810151838201526020016143d2565b50505050905090810190601f1680156144175780820380516001836020036101000a031916815260200191505b509650505050505050602060405180830381600087803b15801561443a57600080fd5b505af115801561444e573d6000803e3d6000fd5b505050506040513d602081101561446457600080fd5b50516001600160e01b03191614612f5e5760405162461bcd60e51b815260040180806020018281038252603181526020018061527b6031913960400191505060405180910390fd5b6001600160a01b0381166144f15760405162461bcd60e51b815260040180806020018281038252602681526020018061506d6026913960400191505060405180910390fd5b6003546040516001600160a01b038084169216907f8be0079c531659141344cd1fd0a4f28419497f9722a3daafe3b4186f6b6457e090600090a3600380546001600160a01b0319166001600160a01b0392909216919091179055565b600083815260076020526040812060080180546125e2929061456b57fe5b600091825260208083209091015486835260078083526040808520805460018201548351606081018552600284015481526003840154818901528c895294909652600b90910180546001600160a01b03909516968a96929592948a9490939084019291906145d557fe5b90600052602060002090600202016001600281106145ef57fe5b0154905260008a8152600760209081526040918290206009018054835181840281018401909452808452909183018282801561465457602002820191906000526020600020905b81546001600160a01b03168152600190910190602001808311614636575b50505060008d815260076020908152604091829020600a01805483518184028101840190945280845292945092508301828280156146b157602002820191906000526020600020905b81548152602001906001019080831161469d575b50505060008e8152600760205260409020600481015460069091015490925060ff600160a01b82041691506001600160a01b0316613e9d565b600060098260ff161161470457506030810160f81b611490565b8160ff16600a1115801561471c5750600f8260ff1611155b1561025057506057810160f81b611490565b600061473c85858585614aef565b15614777576040805162461bcd60e51b8152602060048201526006602482015265131bd8dad95960d21b604482015290519081900360640190fd5b613be185858585614b27565b600081848411156148125760405162461bcd60e51b81526004018080602001828103825283818151815260200191508051906020019080838360005b838110156147d75781810151838201526020016147bf565b50505050905090810190601f1680156148045780820380516001836020036101000a031916815260200191505b509250505060405180910390fd5b505050900390565b60003411801561482a5750600081115b15614876576001600160a01b038216600090815260066020526040902060010154614855908261497a565b6001600160a01b03831660009081526006602052604090206001015561292f565b3461292f576001600160a01b0391909116600090815260066020526040902060010155565b6000813f7fc5d2460186f7233c927e7db2dcc703c0e500b653ca82273b7bfad8045d85a4708115801590612a045750141592915050565b600082815260076020526040902060060154600160a01b900460ff161580614927575060008281526007602081815260408084206001600160a01b0388168552909201905290206002015462010000900460ff165b61496f576040805162461bcd60e51b81526020600482015260146024820152731059191c995cdcc81b9bdd08185c1c1c9bdd995960621b604482015290519081900360640190fd5b6125e2838383614c79565b600082820183811015611fda576040805162461bcd60e51b815260206004820152601b60248201527f536166654d6174683a206164646974696f6e206f766572666c6f770000000000604482015290519081900360640190fd5b60008183614a235760405162461bcd60e51b81526020600482018181528351602484015283519092839260449091019190850190808383600083156147d75781810151838201526020016147bf565b506000838581614a2f57fe5b0495945050505050565b6005546000906001600160a01b031615614ae6576005546040805163c455279160e01b81526001600160a01b03868116600483015291519282169291851691839163c4552791916024808301926020929190829003018186803b158015614a9f57600080fd5b505afa158015614ab3573d6000803e3d6000fd5b505050506040513d6020811015614ac957600080fd5b50516001600160a01b03161415614ae4576001915050611448565b505b50600092915050565b6000614afa83613acb565b80614b095750614b0985613fdc565b80614b185750614b1884613fdc565b80613be1575050159392505050565b6040805180820182526014815273496e73756666696369656e742062616c616e636560601b602080830191909152600085815260078083528482206001600160a01b038a1683520190915291822054614b81918490614783565b60008481526007602081815260408084206001600160a01b038b1685529092019052902055614bb18484846148d2565b614bbc858484613fff565b905060005b6000848152600760205260409020600901548110156133c0576000848152600760205260408120600901805483908110614bf757fe5b6000918252602080832090910154878352600790915260408220600a0180546001600160a01b0390921693509084908110614c2e57fe5b6000918252602090912001549050614c4c612710612bb486846141df565b6001600160a01b039092166000908152600660205260409020600190810180549093019092555001614bc1565b60008281526007602081815260408084206001600160a01b03881685529092019052812054614ca8908361497a565b60008481526007602081815260408084206001600160a01b038a1685529092019052902054909150614db35760008381526007602081815260408084206001600160a01b03891685529092019052902060020154610100900460ff16614d83576001600160a01b038416600081815260066020908152604080832060029081018054600181810183559186528486200189905588855260078085528386206008810180549384018155875285872090920180546001600160a01b03191688179055958552909401909152902001805461ff0019166101001790555b60008381526007602081815260408084206001600160a01b03891685529092019052902042600190910155614e51565b60008381526007602081815260408084206001600160a01b03891685529092019052812060010154614de69042906139d7565b60008581526007602081815260408084206001600160a01b038b168552909201905281205491925090614e1f908490612bb490856141df565b60008681526007602081815260408084206001600160a01b038c16855290920190529020429190910360019091015550505b60009283526007602081815260408086206001600160a01b039097168652959091019052929091209190915550565b604051806101800160405280600081526020016000815260200160008152602001600081526020016000815260200160006001600160a01b03168152602001600015158152602001600015158152602001600015158152602001600015158152602001600015158152602001606081525090565b828054828255906000526020600020908101928215614f49579160200282015b82811115614f4957825182546001600160a01b0319166001600160a01b03909116178255602090920191600190910190614f14565b50614f55929150614fcd565b5090565b8260028101928215614f87579160200282015b82811115614f87578251825591602001919060010190614f6c565b50614f55929150614fec565b828054828255906000526020600020908101928215614f875791602002820182811115614f87578251825591602001919060010190614f6c565b5b80821115614f555780546001600160a01b0319168155600101614fce565b5b80821115614f555760008155600101614fed56fec3d58168c5ae7397731d063d5bbf3d657854427343f4c083240f7aacaa2d0f62455243313135353a2062616c616e636520717565727920666f7220746865207a65726f2061646472657373496e73756666696369656e74207065726d697373696f6e0000000000000000004f776e61626c653a206e6577206f776e657220697320746865207a65726f20616464726573736ce984c7277c5fe8f47fdf17245300ed19587e3bc1041342d79726b2b2f1dc0b455243313135353a207461726765742061646472657373206d757374206265206e6f6e2d7a65726f455243313135353a2063616e6e6f742073657420617070726f76616c2073746174757320666f722073656c66455243313135353a206163636f756e747320616e6420494473206d75737420686176652073616d65206c656e67746873455243313135353a20676f7420756e6b6e6f776e2076616c75652066726f6d206f6e4552433131353542617463685265636569766564455243313135353a20736f6d65206164647265737320696e2062617463682062616c616e6365207175657279206973207a65726f536166654d6174683a206d756c7469706c69636174696f6e206f766572666c6f77496e73756666696369656e742063616c6c6261636b2c207065726d697373696f6e206f7220657363726f77656420616d6f756e744f776e61626c653a2063616c6c6572206973206e6f7420746865206f776e6572455243313135353a206e656564206f70657261746f7220617070726f76616c20666f7220337264207061727479207472616e7366657273455243313135353a2049447320616e642076616c756573206d75737420686176652073616d65206c656e67746873455243313135353a20676f7420756e6b6e6f776e2076616c75652066726f6d206f6e455243313135355265636569766564a2646970667358221220417a33af4e91d7889d09742d9184b139ad525e153262005dd706126595dc39f364736f6c634300070100334f776e61626c653a206e6577206f776e657220697320746865207a65726f2061646472657373",
  "immutableReferences": {},
  "source": "// SPDX-License-Identifier: GPL-3.0-or-later\npragma solidity ^0.7.1;\n\nimport './Lockable.sol';\n\ncontract Callable is Lockable {\n\n    using SafeMath for uint256;\n\n\n    /****************************\n    EVENTS\n    *****************************/\n\n\n    event CallbackUpdated(uint256 indexed _callbackId);\n\n\n    /****************************\n    EXTERNAL FUNCTIONS\n    *****************************/\n\n\n    /**\n     * @dev Maximum addresses to execute automatically the callback when is accepted.\n     * @param newMax new maximum\n     */\n    function setCallbackAutoExecuteMaxAddresses(uint256 newMax) external onlyOwner {\n        _config.callbackAutoExecuteMaxAddresses = newMax;\n    }\n\n    /**\n     * @dev Propose to buy the whole supply of a token.\n     * The proposer must hold minHoldingForCallback% of the total supply.\n     * StashBlox must approve the price with acceptCallback();\n     * @param tokenId Token ID\n     * @param price proposed price\n     * @param callees list of calless. Empty list means all holders.\n     */\n    function proposeCallback(uint256 callbackId, uint256 tokenId, uint256 price, address[] memory callees, uint256 documentHash) external payable {\n        require(_callbacks[callbackId].tokenId == 0 && _tokens[tokenId].supply > 0 &&\n                msg.value >= _callbackPrice(tokenId, price, callees) &&\n                callees.length <= _config.callbackAutoExecuteMaxAddresses, \"Invalid arguments or value\");\n\n        uint256 minHolding = (_tokens[tokenId].supply.mul(_tokens[tokenId].minHoldingForCallback)).div(10000);\n\n        _callbacks[callbackId] = Callback({\n            tokenId: tokenId,\n            caller: _msgSender(),\n            callees: callees,\n            price: price,\n            escrowedAmount: msg.value,\n            needLegalApproval: (price == 0) ||\n                               (_tokens[tokenId].holders[_msgSender()].balance < minHolding) ||\n                               (callees.length > 0),\n            approvedByLegal: false,\n            refused: false,\n            accepted: false,\n            callCounter: 0,\n            completed: false,\n            documentHash: documentHash\n        });\n\n        emit CallbackUpdated(callbackId);\n    }\n\n    /**\n     * @dev Refuse a callback if the price is not enough.\n     * @param callbackId callback proposition ID\n     */\n    function refuseCallback(uint256 callbackId) external {\n        Callback memory callback = _callbacks[callbackId];\n\n        require(callback.tokenId != 0 &&\n                callback.refused == false &&\n                callback.accepted == false &&\n                (_isMaintener(callback.tokenId, _msgSender()) ||\n                 _isLegalAuthority(callback.tokenId, _msgSender()) ||\n                 _msgSender() == callback.caller), \"Invalid arguments or permission\");\n\n        _callbacks[callbackId].refused = true;\n        _users[callback.caller].ETHBalance += callback.escrowedAmount;\n\n        emit CallbackUpdated(callbackId);\n    }\n\n    /**\n     * @dev Approve a callback\n     * @param callbackId callback proposition ID\n     */\n    function approveCallback(uint256 callbackId) external {\n        Callback memory callback = _callbacks[callbackId];\n\n        require(callback.tokenId != 0 &&\n                _isLegalAuthority(callback.tokenId, _msgSender()) &&\n                callback.refused == false &&\n                callback.accepted == false, \"Invalid arguments or permission\");\n\n        _callbacks[callbackId].approvedByLegal = true;\n\n        emit CallbackUpdated(callbackId);\n    }\n\n    /**\n     * @dev Accept a callback\n     * @param callbackId callback proposition ID\n     */\n    function acceptCallback(uint256 callbackId) external {\n        Callback memory callback = _callbacks[callbackId];\n\n        require(callback.tokenId != 0 &&\n                _isMaintener(callback.tokenId, _msgSender()) &&\n                (!callback.needLegalApproval || callback.approvedByLegal) &&\n                callback.refused == false &&\n                callback.accepted == false &&\n                callback.escrowedAmount >= _callbackPrice(callback.tokenId, callback.price, callback.callees),\n                \"Insufficient callback, permission or escrowed amount\");\n\n        _callbacks[callbackId].accepted = true;\n\n        emit CallbackUpdated(callbackId);\n\n        if (callback.callees.length > 0) {\n            _executeCallback(callbackId, callback.callees.length);\n        } else if (_tokens[callback.tokenId].holderList.length <= _config.callbackAutoExecuteMaxAddresses) {\n            _executeCallback(callbackId, _tokens[callback.tokenId].holderList.length);\n        } else {\n            _lockToken(callback.tokenId, callback.documentHash);\n        }\n    }\n\n    /**\n     * @dev Accept a callback. Caller need to recall the function to continue the callback until completed.\n     * @param callbackId callback proposition ID\n     * @param maxCall maximal call to excute\n     */\n    function executeCallback(uint256 callbackId, uint256 maxCall) external {\n        Callback memory callback = _callbacks[callbackId];\n\n        require(callback.tokenId != 0 &&\n                callback.accepted == true &&\n                callback.completed == false, \"Invalid callback\");\n\n        _executeCallback(callbackId, maxCall);\n\n        if (_callbacks[callbackId].completed) {\n            _unlockToken(callback.tokenId, callback.documentHash);\n        }\n    }\n\n\n    /****************************\n    INTERNAL FUNCTIONS\n    *****************************/\n\n\n    function _executeCallback(uint256 callbackId, uint256 maxCall) internal {\n        uint256 tokenId = _callbacks[callbackId].tokenId;\n\n        address[] memory callees = _callbacks[callbackId].callees.length > 0 ?\n                                   _callbacks[callbackId].callees :\n                                   _tokens[tokenId].holderList;\n\n        uint256 max = callees.length - 1;\n        uint256 start = _callbacks[callbackId].callCounter;\n        uint256 end = start + maxCall <  max ? start + maxCall : max;\n\n        uint256 callbackAmount = 0;\n        for (uint256 i = start; i <= end; i++) {\n            address callee = callees[i];\n            if (_tokens[tokenId].holders[callee].balance > 0) {\n                callbackAmount += _tokens[tokenId].holders[callee].balance;\n                _users[callee].ETHBalance += _tokens[tokenId].holders[callee].balance.mul(_callbacks[callbackId].price);\n\n                emit TransferSingle(_msgSender(),\n                                    callee,\n                                    _callbacks[callbackId].caller,\n                                    tokenId,\n                                    _tokens[tokenId].holders[callee].balance);\n\n                _tokens[tokenId].holders[callee].balance = 0;\n            }\n        }\n        _addToBalance(_callbacks[callbackId].caller, tokenId, callbackAmount);\n\n        _callbacks[callbackId].callCounter = end;\n        if (end == max) {\n            _callbacks[callbackId].completed = true;\n            emit CallbackUpdated(callbackId);\n        }\n    }\n\n    function _callbackPrice(uint256 tokenId, uint256 price, address[] memory callees) internal view returns (uint256) {\n        uint256 callbackAmount = 0;\n        if (callees.length == 0) {\n            callbackAmount = _tokens[tokenId].supply.sub(_tokens[tokenId].holders[_msgSender()].balance);\n        } else {\n            for (uint i; i < callees.length; i++) {\n                callbackAmount += _tokens[tokenId].holders[callees[i]].balance;\n            }\n        }\n        return callbackAmount.mul(price);\n    }\n\n    function _isLegalAuthority(uint256 id, address legalAuthority) internal view returns (bool) {\n        return _tokens[id].legalAuthority == legalAuthority;\n    }\n\n}\n",
  "sourcePath": "/home/ouziel/Work/StashBloxContracts/contracts/lib/Callable.sol",
  "compiler": {
    "name": "solc",
    "version": "0.7.1+commit.f4a555be.Emscripten.clang"
  },
  "schemaVersion": "3.2.3",
  "updatedAt": "2020-10-22T10:26:15.527Z",
  "devdoc": {
    "kind": "dev",
    "methods": {
      "acceptCallback(uint256)": {
        "details": "Accept a callback",
        "params": {
          "callbackId": "callback proposition ID"
        }
      },
      "approveCallback(uint256)": {
        "details": "Approve a callback",
        "params": {
          "callbackId": "callback proposition ID"
        }
      },
      "approveHolder(uint256,address)": {
        "details": "Function to approve holder for a private token.",
        "params": {
          "holder": "The authorized address",
          "id": "the token id"
        }
      },
      "authorizeMaintener(uint256,address)": {
        "details": "Function to authorize an address to maintain a token.",
        "params": {
          "maintener": "The authorized address"
        }
      },
      "authorizeTokenizer(address)": {
        "details": "Function to authorize an address to create a token.",
        "params": {
          "tokenizer": "The authorized address"
        }
      },
      "averageAge(address,uint256)": {
        "details": "Function to get the average age of the token for the given address.",
        "params": {
          "account": "the address from where to transfer the tokens",
          "id": "The token ID"
        },
        "returns": {
          "_0": "average age in seconds"
        }
      },
      "balanceOf(address,uint256)": {
        "details": "Get the specified address' balance for token with specified ID. Attempting to query the zero account for a balance will result in a revert.",
        "params": {
          "account": "The address of the token holder",
          "id": "ID of the token"
        },
        "returns": {
          "_0": "The account's balance of the token type requested"
        }
      },
      "balanceOfBatch(address[],uint256[])": {
        "details": "Get the balance of multiple account/token pairs. If any of the query accounts is the zero account, this query will revert.",
        "params": {
          "accounts": "The addresses of the token holders",
          "ids": "IDs of the tokens"
        },
        "returns": {
          "_0": "Balances for each account and token id pair"
        }
      },
      "cloneToken(uint256,uint256[],uint256[])": {
        "details": "Function to mint tokens in batch.",
        "params": {
          "id": "Identifier of the template",
          "ids": "list of IDs of the tokens to be minted",
          "metadataHashes": "list of metadata file hashes"
        }
      },
      "createToken(address,uint256,uint256,uint256,uint256,uint256[3],address[],uint256[],uint256,bool,address)": {
        "details": "Function to mint an amount of a token with the given ID.",
        "params": {
          "feesRecipients": "list of addresses receiving transfer fees",
          "feesRecipientsPercentage": "list of percentage, each one for the corresponding feesRecipients",
          "id": "ID of the token to be minted",
          "isPrivate": "true if holder need approval",
          "legalAuthority": "address of the legal authority",
          "metadataHash": "Metadata file hash",
          "minHoldingForCallback": "minimum holding to propose a callback",
          "recipient": "The address that will own the minted tokens",
          "supply": "Amount of the token to be minted",
          "transactionFees": "transaction fees: [lumpSumFees (in WEI), valueProportionalFees (ratio of transfered amount * 10**8), storageFees (in storageCredit * 10**8)]"
        }
      },
      "executeCallback(uint256,uint256)": {
        "details": "Accept a callback. Caller need to recall the function to continue the callback until completed.",
        "params": {
          "callbackId": "callback proposition ID",
          "maxCall": "maximal call to excute"
        }
      },
      "isApprovedForAll(address,address)": {
        "params": {
          "account": "The account of the Tokens",
          "operator": "Address of authorized operator"
        },
        "returns": {
          "_0": "True if the operator is approved, false if not"
        }
      },
      "isLockedAddress(address)": {
        "details": "Function to check if an address is lockec.",
        "params": {
          "addr": "The address to check"
        }
      },
      "isLockedToken(uint256)": {
        "details": "Function to check if a token is locked.",
        "params": {
          "id": "The token ID"
        }
      },
      "isMaintener(uint256,address)": {
        "details": "Function to check if an address is authorized to maintain a token.",
        "params": {
          "id": "the token id",
          "maintener": "The authorized address"
        },
        "returns": {
          "_0": "true if it's a maintener address"
        }
      },
      "isTokenizer(address)": {
        "details": "Function to check if an address is authorized to create a token.",
        "params": {
          "tokenizer": "The authorized address"
        }
      },
      "lockAddress(address)": {
        "details": "Function to lock an address.",
        "params": {
          "addr": "The address to lock"
        }
      },
      "lockToken(uint256,uint256)": {
        "details": "Function to lock a token.",
        "params": {
          "id": "The token ID"
        }
      },
      "owner()": {
        "details": "Returns the address of the current owner."
      },
      "proposeCallback(uint256,uint256,uint256,address[],uint256)": {
        "details": "Propose to buy the whole supply of a token. The proposer must hold minHoldingForCallback% of the total supply. StashBlox must approve the price with acceptCallback();",
        "params": {
          "callees": "list of calless. Empty list means all holders.",
          "price": "proposed price",
          "tokenId": "Token ID"
        }
      },
      "refuseCallback(uint256)": {
        "details": "Refuse a callback if the price is not enough.",
        "params": {
          "callbackId": "callback proposition ID"
        }
      },
      "revokeHolder(uint256,address)": {
        "details": "Function to revoke holder for a private token.",
        "params": {
          "holder": "The authorized address",
          "id": "the token id"
        }
      },
      "revokeMaintener(uint256,address)": {
        "details": "Function to revoke the authorization to maintain a token.",
        "params": {
          "id": "the token id",
          "maintener": "The authorized address"
        }
      },
      "revokeTokenizer(address)": {
        "details": "Function to revoke the authorization to create a token.",
        "params": {
          "tokenizer": "The authorized address"
        }
      },
      "safeBatchTransferFrom(address,address,uint256[],uint256[],bytes)": {
        "details": "Transfers `values` amount(s) of `ids` from the `from` address to the `to` address specified. Caller must be approved to manage the tokens being transferred out of the `from` account. If `to` is a smart contract, will call `onERC1155BatchReceived` on `to` and act appropriately.",
        "params": {
          "data": "Data forwarded to `onERC1155Received` if `to` is a contract receiver",
          "from": "Source address",
          "ids": "IDs of each token type",
          "to": "Target address",
          "values": "Transfer amounts per token type"
        }
      },
      "safeTransferFrom(address,address,uint256,uint256,bytes)": {
        "details": "Transfers `value` amount of an `id` from the `from` address to the `to` address specified. Caller must be approved to manage the tokens being transferred out of the `from` account. If `to` is a smart contract, will call `onERC1155Received` on `to` and act appropriately.",
        "params": {
          "data": "Data forwarded to `onERC1155Received` if `to` is a contract receiver",
          "from": "Source address",
          "id": "ID of the token type",
          "to": "Target address",
          "value": "Transfer amount"
        }
      },
      "setApprovalForAll(address,bool)": {
        "details": "Sets or unsets the approval of a given operator. An operator is allowed to transfer all tokens of the sender on their behalf. Because an account already has operator privileges for itself, this function will revert if the account attempts to set the approval status for itself.",
        "params": {
          "approved": "representing the status of the approval to be set",
          "operator": "address to set the approval"
        }
      },
      "setCallbackAutoExecuteMaxAddresses(uint256)": {
        "details": "Maximum addresses to execute automatically the callback when is accepted.",
        "params": {
          "newMax": "new maximum"
        }
      },
      "setProxyRegistryAddress(address)": {
        "details": "Function to update the operator whitelist",
        "params": {
          "proxyAddress": "Proxy address"
        }
      },
      "supportsInterface(bytes4)": {
        "params": {
          "_interfaceID": "The interface identifier, as specified in ERC-165"
        },
        "returns": {
          "_0": "`true` if the contract implements `_interfaceID` and"
        }
      },
      "transactionFees(address,uint256,uint256)": {
        "details": "Function to get the transaction price to transfer tokens.",
        "params": {
          "account": "the address from where to transfer the tokens",
          "id": "The token ID",
          "value": "The amount to transfer"
        },
        "returns": {
          "_0": "transfer price"
        }
      },
      "transferOwnership(address)": {
        "details": "Transfers ownership of the contract to a new account (`newOwner`). Can only be called by the current owner."
      },
      "unlockAddress(address)": {
        "details": "Function to unlock an address.",
        "params": {
          "addr": "The address to unlock"
        }
      },
      "unlockToken(uint256,uint256)": {
        "details": "Function to unlock a token.",
        "params": {
          "id": "The token ID"
        }
      },
      "updateToken(uint256,uint256,uint256[3],address[],uint256[],uint256,bool,address)": {
        "details": "Function to update a token with the given ID.",
        "params": {
          "feesRecipients": "list of addresses receiving transfer fees",
          "feesRecipientsPercentage": "list of percentage, each one for the corresponding feesRecipients",
          "id": "ID of the token to be updated",
          "isPrivate": "true if holder need approval",
          "legalAuthority": "address of the legal authority",
          "metadataHash": "Metadata file hash",
          "minHoldingForCallback": "minimum holding to propose a callback",
          "transactionFees": "transaction fees: [lumpSumFees (in WEI), valueProportionalFees (ratio of transfered amount * 10**8), storageFees (in storageCredit * 10**8)]"
        }
      },
      "uri(uint256)": {
        "params": {
          "id": "Token ID"
        },
        "returns": {
          "_0": "URI string"
        }
      }
    },
    "version": 1
  },
  "userdoc": {
    "kind": "user",
    "methods": {
      "isApprovedForAll(address,address)": {
        "notice": "Queries the approval status of an operator for a given account."
      },
      "isTrustedForwarder(address)": {
        "notice": "return if the forwarder is trusted to forward relayed transactions to us. the forwarder is required to verify the sender's signature, and verify the call is not a replay."
      },
      "supportsInterface(bytes4)": {
        "notice": "Query if a contract implements an interface"
      }
    },
    "version": 1
  }
}