{
  "contractName": "Callable",
  "abi": [
    {
      "anonymous": false,
      "inputs": [
        {
          "indexed": true,
          "internalType": "address",
          "name": "_owner",
          "type": "address"
        },
        {
          "indexed": true,
          "internalType": "address",
          "name": "_operator",
          "type": "address"
        },
        {
          "indexed": false,
          "internalType": "bool",
          "name": "_approved",
          "type": "bool"
        }
      ],
      "name": "ApprovalForAll",
      "type": "event"
    },
    {
      "anonymous": false,
      "inputs": [
        {
          "indexed": true,
          "internalType": "uint256",
          "name": "_callbackId",
          "type": "uint256"
        }
      ],
      "name": "CallbackUpdated",
      "type": "event"
    },
    {
      "anonymous": false,
      "inputs": [
        {
          "indexed": true,
          "internalType": "address",
          "name": "previousOwner",
          "type": "address"
        },
        {
          "indexed": true,
          "internalType": "address",
          "name": "newOwner",
          "type": "address"
        }
      ],
      "name": "OwnershipTransferred",
      "type": "event"
    },
    {
      "anonymous": false,
      "inputs": [
        {
          "indexed": true,
          "internalType": "uint256",
          "name": "_id",
          "type": "uint256"
        },
        {
          "indexed": false,
          "internalType": "uint256",
          "name": "_documentHash",
          "type": "uint256"
        }
      ],
      "name": "TokenUpdated",
      "type": "event"
    },
    {
      "anonymous": false,
      "inputs": [
        {
          "indexed": true,
          "internalType": "address",
          "name": "_operator",
          "type": "address"
        },
        {
          "indexed": true,
          "internalType": "address",
          "name": "_from",
          "type": "address"
        },
        {
          "indexed": true,
          "internalType": "address",
          "name": "_to",
          "type": "address"
        },
        {
          "indexed": false,
          "internalType": "uint256[]",
          "name": "_ids",
          "type": "uint256[]"
        },
        {
          "indexed": false,
          "internalType": "uint256[]",
          "name": "_values",
          "type": "uint256[]"
        }
      ],
      "name": "TransferBatch",
      "type": "event"
    },
    {
      "anonymous": false,
      "inputs": [
        {
          "indexed": true,
          "internalType": "address",
          "name": "_operator",
          "type": "address"
        },
        {
          "indexed": true,
          "internalType": "address",
          "name": "_from",
          "type": "address"
        },
        {
          "indexed": true,
          "internalType": "address",
          "name": "_to",
          "type": "address"
        },
        {
          "indexed": false,
          "internalType": "uint256",
          "name": "_id",
          "type": "uint256"
        },
        {
          "indexed": false,
          "internalType": "uint256",
          "name": "_value",
          "type": "uint256"
        }
      ],
      "name": "TransferSingle",
      "type": "event"
    },
    {
      "anonymous": false,
      "inputs": [
        {
          "indexed": false,
          "internalType": "string",
          "name": "_value",
          "type": "string"
        },
        {
          "indexed": true,
          "internalType": "uint256",
          "name": "_id",
          "type": "uint256"
        }
      ],
      "name": "URI",
      "type": "event"
    },
    {
      "inputs": [
        {
          "internalType": "uint256",
          "name": "",
          "type": "uint256"
        }
      ],
      "name": "_callbacks",
      "outputs": [
        {
          "internalType": "uint256",
          "name": "tokenId",
          "type": "uint256"
        },
        {
          "internalType": "uint256",
          "name": "price",
          "type": "uint256"
        },
        {
          "internalType": "uint256",
          "name": "escrowedAmount",
          "type": "uint256"
        },
        {
          "internalType": "uint256",
          "name": "callCounter",
          "type": "uint256"
        },
        {
          "internalType": "uint256",
          "name": "documentHash",
          "type": "uint256"
        },
        {
          "internalType": "address",
          "name": "caller",
          "type": "address"
        },
        {
          "internalType": "bool",
          "name": "needLegalApproval",
          "type": "bool"
        },
        {
          "internalType": "bool",
          "name": "approvedByLegal",
          "type": "bool"
        },
        {
          "internalType": "bool",
          "name": "refused",
          "type": "bool"
        },
        {
          "internalType": "bool",
          "name": "accepted",
          "type": "bool"
        },
        {
          "internalType": "bool",
          "name": "completed",
          "type": "bool"
        }
      ],
      "stateMutability": "view",
      "type": "function"
    },
    {
      "inputs": [],
      "name": "_config",
      "outputs": [
        {
          "internalType": "uint256",
          "name": "callbackAutoExecuteMaxAddresses",
          "type": "uint256"
        },
        {
          "internalType": "string",
          "name": "baseURI",
          "type": "string"
        },
        {
          "internalType": "address",
          "name": "owner",
          "type": "address"
        }
      ],
      "stateMutability": "view",
      "type": "function"
    },
    {
      "inputs": [
        {
          "internalType": "uint256",
          "name": "",
          "type": "uint256"
        }
      ],
      "name": "_tokens",
      "outputs": [
        {
          "internalType": "uint256",
          "name": "supply",
          "type": "uint256"
        },
        {
          "internalType": "uint256",
          "name": "decimals",
          "type": "uint256"
        },
        {
          "internalType": "uint256",
          "name": "lumpSumTransactionFees",
          "type": "uint256"
        },
        {
          "internalType": "uint256",
          "name": "valueTransactionFees",
          "type": "uint256"
        },
        {
          "internalType": "uint256",
          "name": "minHoldingForCallback",
          "type": "uint256"
        },
        {
          "internalType": "uint256",
          "name": "metadataHash",
          "type": "uint256"
        },
        {
          "internalType": "address",
          "name": "legalAuthority",
          "type": "address"
        },
        {
          "internalType": "bool",
          "name": "isPrivate",
          "type": "bool"
        },
        {
          "internalType": "bool",
          "name": "locked",
          "type": "bool"
        }
      ],
      "stateMutability": "view",
      "type": "function"
    },
    {
      "inputs": [
        {
          "internalType": "address",
          "name": "",
          "type": "address"
        }
      ],
      "name": "_users",
      "outputs": [
        {
          "internalType": "bool",
          "name": "isTokenizer",
          "type": "bool"
        },
        {
          "internalType": "bool",
          "name": "isLocked",
          "type": "bool"
        },
        {
          "internalType": "uint256",
          "name": "ETHBalance",
          "type": "uint256"
        }
      ],
      "stateMutability": "view",
      "type": "function"
    },
    {
      "inputs": [
        {
          "internalType": "uint256",
          "name": "id",
          "type": "uint256"
        },
        {
          "internalType": "address",
          "name": "holder",
          "type": "address"
        }
      ],
      "name": "approveHolder",
      "outputs": [],
      "stateMutability": "nonpayable",
      "type": "function"
    },
    {
      "inputs": [
        {
          "internalType": "uint256",
          "name": "id",
          "type": "uint256"
        },
        {
          "internalType": "address",
          "name": "maintener",
          "type": "address"
        }
      ],
      "name": "authorizeMaintener",
      "outputs": [],
      "stateMutability": "nonpayable",
      "type": "function"
    },
    {
      "inputs": [
        {
          "internalType": "address",
          "name": "tokenizer",
          "type": "address"
        }
      ],
      "name": "authorizeTokenizer",
      "outputs": [],
      "stateMutability": "nonpayable",
      "type": "function"
    },
    {
      "inputs": [
        {
          "internalType": "address",
          "name": "account",
          "type": "address"
        },
        {
          "internalType": "uint256",
          "name": "id",
          "type": "uint256"
        }
      ],
      "name": "averageAge",
      "outputs": [
        {
          "internalType": "uint256",
          "name": "",
          "type": "uint256"
        }
      ],
      "stateMutability": "view",
      "type": "function"
    },
    {
      "inputs": [
        {
          "internalType": "address",
          "name": "account",
          "type": "address"
        },
        {
          "internalType": "uint256",
          "name": "id",
          "type": "uint256"
        }
      ],
      "name": "balanceOf",
      "outputs": [
        {
          "internalType": "uint256",
          "name": "",
          "type": "uint256"
        }
      ],
      "stateMutability": "view",
      "type": "function"
    },
    {
      "inputs": [
        {
          "internalType": "address[]",
          "name": "accounts",
          "type": "address[]"
        },
        {
          "internalType": "uint256[]",
          "name": "ids",
          "type": "uint256[]"
        }
      ],
      "name": "balanceOfBatch",
      "outputs": [
        {
          "internalType": "uint256[]",
          "name": "",
          "type": "uint256[]"
        }
      ],
      "stateMutability": "view",
      "type": "function"
    },
    {
      "inputs": [
        {
          "internalType": "uint256",
          "name": "id",
          "type": "uint256"
        },
        {
          "internalType": "uint256[]",
          "name": "ids",
          "type": "uint256[]"
        },
        {
          "internalType": "uint256[]",
          "name": "metadataHashes",
          "type": "uint256[]"
        }
      ],
      "name": "cloneToken",
      "outputs": [],
      "stateMutability": "nonpayable",
      "type": "function"
    },
    {
      "inputs": [
        {
          "internalType": "address",
          "name": "recipient",
          "type": "address"
        },
        {
          "internalType": "uint256",
          "name": "id",
          "type": "uint256"
        },
        {
          "internalType": "uint256",
          "name": "supply",
          "type": "uint256"
        },
        {
          "internalType": "uint256",
          "name": "decimals",
          "type": "uint256"
        },
        {
          "internalType": "uint256",
          "name": "metadataHash",
          "type": "uint256"
        },
        {
          "internalType": "uint256[3]",
          "name": "transactionFees",
          "type": "uint256[3]"
        },
        {
          "internalType": "address[]",
          "name": "feesRecipients",
          "type": "address[]"
        },
        {
          "internalType": "uint256[]",
          "name": "feesRecipientsPercentage",
          "type": "uint256[]"
        },
        {
          "internalType": "uint256",
          "name": "minHoldingForCallback",
          "type": "uint256"
        },
        {
          "internalType": "bool",
          "name": "isPrivate",
          "type": "bool"
        },
        {
          "internalType": "address",
          "name": "legalAuthority",
          "type": "address"
        }
      ],
      "name": "createToken",
      "outputs": [],
      "stateMutability": "nonpayable",
      "type": "function"
    },
    {
      "inputs": [
        {
          "internalType": "address",
          "name": "account",
          "type": "address"
        },
        {
          "internalType": "address",
          "name": "operator",
          "type": "address"
        }
      ],
      "name": "isApprovedForAll",
      "outputs": [
        {
          "internalType": "bool",
          "name": "",
          "type": "bool"
        }
      ],
      "stateMutability": "view",
      "type": "function"
    },
    {
      "inputs": [
        {
          "internalType": "address",
          "name": "addr",
          "type": "address"
        }
      ],
      "name": "isLockedAddress",
      "outputs": [
        {
          "internalType": "bool",
          "name": "",
          "type": "bool"
        }
      ],
      "stateMutability": "view",
      "type": "function"
    },
    {
      "inputs": [
        {
          "internalType": "uint256",
          "name": "id",
          "type": "uint256"
        }
      ],
      "name": "isLockedToken",
      "outputs": [
        {
          "internalType": "bool",
          "name": "",
          "type": "bool"
        }
      ],
      "stateMutability": "view",
      "type": "function"
    },
    {
      "inputs": [
        {
          "internalType": "uint256",
          "name": "id",
          "type": "uint256"
        },
        {
          "internalType": "address",
          "name": "maintener",
          "type": "address"
        }
      ],
      "name": "isMaintener",
      "outputs": [
        {
          "internalType": "bool",
          "name": "",
          "type": "bool"
        }
      ],
      "stateMutability": "view",
      "type": "function"
    },
    {
      "inputs": [
        {
          "internalType": "address",
          "name": "tokenizer",
          "type": "address"
        }
      ],
      "name": "isTokenizer",
      "outputs": [
        {
          "internalType": "bool",
          "name": "",
          "type": "bool"
        }
      ],
      "stateMutability": "view",
      "type": "function"
    },
    {
      "inputs": [
        {
          "internalType": "address",
          "name": "addr",
          "type": "address"
        }
      ],
      "name": "lockAddress",
      "outputs": [],
      "stateMutability": "nonpayable",
      "type": "function"
    },
    {
      "inputs": [
        {
          "internalType": "uint256",
          "name": "id",
          "type": "uint256"
        },
        {
          "internalType": "uint256",
          "name": "documentHash",
          "type": "uint256"
        }
      ],
      "name": "lockToken",
      "outputs": [],
      "stateMutability": "nonpayable",
      "type": "function"
    },
    {
      "inputs": [],
      "name": "owner",
      "outputs": [
        {
          "internalType": "address",
          "name": "",
          "type": "address"
        }
      ],
      "stateMutability": "view",
      "type": "function"
    },
    {
      "inputs": [
        {
          "internalType": "uint256",
          "name": "id",
          "type": "uint256"
        },
        {
          "internalType": "address",
          "name": "holder",
          "type": "address"
        }
      ],
      "name": "revokeHolder",
      "outputs": [],
      "stateMutability": "nonpayable",
      "type": "function"
    },
    {
      "inputs": [
        {
          "internalType": "uint256",
          "name": "id",
          "type": "uint256"
        },
        {
          "internalType": "address",
          "name": "maintener",
          "type": "address"
        }
      ],
      "name": "revokeMaintener",
      "outputs": [],
      "stateMutability": "nonpayable",
      "type": "function"
    },
    {
      "inputs": [
        {
          "internalType": "address",
          "name": "tokenizer",
          "type": "address"
        }
      ],
      "name": "revokeTokenizer",
      "outputs": [],
      "stateMutability": "nonpayable",
      "type": "function"
    },
    {
      "inputs": [
        {
          "internalType": "address",
          "name": "from",
          "type": "address"
        },
        {
          "internalType": "address",
          "name": "to",
          "type": "address"
        },
        {
          "internalType": "uint256[]",
          "name": "ids",
          "type": "uint256[]"
        },
        {
          "internalType": "uint256[]",
          "name": "values",
          "type": "uint256[]"
        },
        {
          "internalType": "bytes",
          "name": "data",
          "type": "bytes"
        }
      ],
      "name": "safeBatchTransferFrom",
      "outputs": [],
      "stateMutability": "payable",
      "type": "function"
    },
    {
      "inputs": [
        {
          "internalType": "address",
          "name": "from",
          "type": "address"
        },
        {
          "internalType": "address",
          "name": "to",
          "type": "address"
        },
        {
          "internalType": "uint256",
          "name": "id",
          "type": "uint256"
        },
        {
          "internalType": "uint256",
          "name": "value",
          "type": "uint256"
        },
        {
          "internalType": "bytes",
          "name": "data",
          "type": "bytes"
        }
      ],
      "name": "safeTransferFrom",
      "outputs": [],
      "stateMutability": "payable",
      "type": "function"
    },
    {
      "inputs": [
        {
          "internalType": "address",
          "name": "operator",
          "type": "address"
        },
        {
          "internalType": "bool",
          "name": "approved",
          "type": "bool"
        }
      ],
      "name": "setApprovalForAll",
      "outputs": [],
      "stateMutability": "nonpayable",
      "type": "function"
    },
    {
      "inputs": [
        {
          "internalType": "address[10]",
          "name": "proxyAddresses",
          "type": "address[10]"
        }
      ],
      "name": "setProxyRegistryAddress",
      "outputs": [],
      "stateMutability": "nonpayable",
      "type": "function"
    },
    {
      "inputs": [
        {
          "internalType": "bytes4",
          "name": "_interfaceID",
          "type": "bytes4"
        }
      ],
      "name": "supportsInterface",
      "outputs": [
        {
          "internalType": "bool",
          "name": "",
          "type": "bool"
        }
      ],
      "stateMutability": "pure",
      "type": "function"
    },
    {
      "inputs": [
        {
          "internalType": "address",
          "name": "account",
          "type": "address"
        },
        {
          "internalType": "uint256",
          "name": "id",
          "type": "uint256"
        },
        {
          "internalType": "uint256",
          "name": "value",
          "type": "uint256"
        }
      ],
      "name": "transactionFees",
      "outputs": [
        {
          "internalType": "uint256",
          "name": "",
          "type": "uint256"
        }
      ],
      "stateMutability": "view",
      "type": "function"
    },
    {
      "inputs": [
        {
          "internalType": "address",
          "name": "newOwner",
          "type": "address"
        }
      ],
      "name": "transferOwnership",
      "outputs": [],
      "stateMutability": "nonpayable",
      "type": "function"
    },
    {
      "inputs": [
        {
          "internalType": "address",
          "name": "addr",
          "type": "address"
        }
      ],
      "name": "unlockAddress",
      "outputs": [],
      "stateMutability": "nonpayable",
      "type": "function"
    },
    {
      "inputs": [
        {
          "internalType": "uint256",
          "name": "id",
          "type": "uint256"
        },
        {
          "internalType": "uint256",
          "name": "documentHash",
          "type": "uint256"
        }
      ],
      "name": "unlockToken",
      "outputs": [],
      "stateMutability": "nonpayable",
      "type": "function"
    },
    {
      "inputs": [
        {
          "internalType": "uint256",
          "name": "id",
          "type": "uint256"
        },
        {
          "internalType": "uint256",
          "name": "metadataHash",
          "type": "uint256"
        },
        {
          "internalType": "uint256[3]",
          "name": "transactionFees",
          "type": "uint256[3]"
        },
        {
          "internalType": "address[]",
          "name": "feesRecipients",
          "type": "address[]"
        },
        {
          "internalType": "uint256[]",
          "name": "feesRecipientsPercentage",
          "type": "uint256[]"
        },
        {
          "internalType": "uint256",
          "name": "minHoldingForCallback",
          "type": "uint256"
        },
        {
          "internalType": "bool",
          "name": "isPrivate",
          "type": "bool"
        },
        {
          "internalType": "address",
          "name": "legalAuthority",
          "type": "address"
        }
      ],
      "name": "updateToken",
      "outputs": [],
      "stateMutability": "nonpayable",
      "type": "function"
    },
    {
      "inputs": [
        {
          "internalType": "uint256",
          "name": "id",
          "type": "uint256"
        }
      ],
      "name": "uri",
      "outputs": [
        {
          "internalType": "string",
          "name": "",
          "type": "string"
        }
      ],
      "stateMutability": "view",
      "type": "function"
    },
    {
      "inputs": [
        {
          "internalType": "uint256",
          "name": "newMax",
          "type": "uint256"
        }
      ],
      "name": "setCallbackAutoExecuteMaxAddresses",
      "outputs": [],
      "stateMutability": "nonpayable",
      "type": "function"
    },
    {
      "inputs": [
        {
          "internalType": "uint256",
          "name": "callbackId",
          "type": "uint256"
        },
        {
          "internalType": "uint256",
          "name": "tokenId",
          "type": "uint256"
        },
        {
          "internalType": "uint256",
          "name": "price",
          "type": "uint256"
        },
        {
          "internalType": "address[]",
          "name": "callees",
          "type": "address[]"
        },
        {
          "internalType": "uint256",
          "name": "documentHash",
          "type": "uint256"
        }
      ],
      "name": "proposeCallback",
      "outputs": [],
      "stateMutability": "payable",
      "type": "function"
    },
    {
      "inputs": [
        {
          "internalType": "uint256",
          "name": "callbackId",
          "type": "uint256"
        }
      ],
      "name": "refuseCallback",
      "outputs": [],
      "stateMutability": "nonpayable",
      "type": "function"
    },
    {
      "inputs": [
        {
          "internalType": "uint256",
          "name": "callbackId",
          "type": "uint256"
        }
      ],
      "name": "approveCallback",
      "outputs": [],
      "stateMutability": "nonpayable",
      "type": "function"
    },
    {
      "inputs": [
        {
          "internalType": "uint256",
          "name": "callbackId",
          "type": "uint256"
        }
      ],
      "name": "acceptCallback",
      "outputs": [],
      "stateMutability": "nonpayable",
      "type": "function"
    },
    {
      "inputs": [
        {
          "internalType": "uint256",
          "name": "callbackId",
          "type": "uint256"
        },
        {
          "internalType": "uint256",
          "name": "maxCall",
          "type": "uint256"
        }
      ],
      "name": "executeCallback",
      "outputs": [],
      "stateMutability": "nonpayable",
      "type": "function"
    }
  ],
  "bytecode": "0x60806040523480156200001157600080fd5b506200001d3362000023565b620000e0565b6001600160a01b03811662000084576040517f08c379a0000000000000000000000000000000000000000000000000000000008152600401808060200182810382526026815260200180620051016026913960400191505060405180910390fd5b600c546040516001600160a01b038084169216907f8be0079c531659141344cd1fd0a4f28419497f9722a3daafe3b4186f6b6457e090600090a3600c80546001600160a01b0319166001600160a01b0392909216919091179055565b61501180620000f06000396000f3fe60806040526004361061023a5760003560e01c80638da5cb5b1161012e578063cba54e60116100ab578063ed70554d1161006f578063ed70554d14611079578063f242432a146110f7578063f2fde38b1461118a578063f8a5a07c146111bd578063fc3fcec7146112f45761023a565b8063cba54e6014610edd578063d1660e1814610f10578063d41d0aa314610f4f578063d842b67314610f88578063e985e9c51461103e5761023a565b8063baa34110116100f2578063baa3411014610c89578063bba75c8314610cb9578063c02f303c14610ce3578063c255620a14610d16578063c40b87ae14610d405761023a565b80638da5cb5b14610b905780638f96f13114610bc1578063a22cb46514610beb578063aba7fe8a14610c26578063b7eb5e0a14610c565761023a565b80634392e577116101bc5780635dd2b9a6116101805780635dd2b9a614610a7f578063759c521414610ab85780637627b73214610af15780638870147b14610b245780638aeba37e14610b575761023a565b80634392e577146106aa5780634ab0d2531461070b5780634e1273f41461088d578063585941d514610a0d5780635dafec1b14610a465761023a565b806331d5f78c1161020357806331d5f78c1461053e57806334a90d0214610568578063369c37e91461059b5780633cacd7d6146105c5578063414ed0ce146106185761023a565b8062fdd58e1461023f57806301ffc9a71461028a5780630e89341c146102d25780632eb2c2d6146103715780632ed42bf71461049a575b600080fd5b34801561024b57600080fd5b506102786004803603604081101561026257600080fd5b506001600160a01b038135169060200135611324565b60408051918252519081900360200190f35b34801561029657600080fd5b506102be600480360360208110156102ad57600080fd5b50356001600160e01b031916611399565b604080519115158252519081900360200190f35b3480156102de57600080fd5b506102fc600480360360208110156102f557600080fd5b50356113e0565b6040805160208082528351818301528351919283929083019185019080838360005b8381101561033657818101518382015260200161031e565b50505050905090810190601f1680156103635780820380516001836020036101000a031916815260200191505b509250505060405180910390f35b610498600480360360a081101561038757600080fd5b6001600160a01b038235811692602081013590911691810190606081016040820135600160201b8111156103ba57600080fd5b8201836020820111156103cc57600080fd5b803590602001918460208302840111600160201b831117156103ed57600080fd5b919390929091602081019035600160201b81111561040a57600080fd5b82018360208201111561041c57600080fd5b803590602001918460208302840111600160201b8311171561043d57600080fd5b919390929091602081019035600160201b81111561045a57600080fd5b82018360208201111561046c57600080fd5b803590602001918460018302840111600160201b8311171561048d57600080fd5b509092509050611481565b005b3480156104a657600080fd5b506104af61172f565b6040518084815260200180602001836001600160a01b03168152602001828103825284818151815260200191508051906020019080838360005b838110156105015781810151838201526020016104e9565b50505050905090810190601f16801561052e5780820380516001836020036101000a031916815260200191505b5094505050505060405180910390f35b34801561054a57600080fd5b506104986004803603602081101561056157600080fd5b50356117d4565b34801561057457600080fd5b506104986004803603602081101561058b57600080fd5b50356001600160a01b03166119b2565b3480156105a757600080fd5b50610498600480360360208110156105be57600080fd5b5035611a1f565b3480156105d157600080fd5b506105f8600480360360208110156105e857600080fd5b50356001600160a01b0316611a6b565b604080519315158452911515602084015282820152519081900360600190f35b34801561062457600080fd5b506106426004803603602081101561063b57600080fd5b5035611a91565b604080519b8c5260208c019a909a528a8a019890985260608a019690965260808901949094526001600160a01b0390921660a0880152151560c0870152151560e086015215156101008501521515610120840152151561014083015251908190036101600190f35b3480156106b657600080fd5b5061049860048036036101408110156106ce57600080fd5b81019080806101400190600a806020026040519081016040528092919082600a60200280828437600092019190915250919450611b049350505050565b34801561071757600080fd5b50610498600480360361014081101561072f57600080fd5b6040805160608181018352843594602081013594810193909260a08401929091840190600390839083908082843760009201919091525091949392602081019250359050600160201b81111561078457600080fd5b82018360208201111561079657600080fd5b803590602001918460208302840111600160201b831117156107b757600080fd5b9190808060200260200160405190810160405280939291908181526020018383602002808284376000920191909152509295949360208101935035915050600160201b81111561080657600080fd5b82018360208201111561081857600080fd5b803590602001918460208302840111600160201b8311171561083957600080fd5b919080806020026020016040519081016040528093929190818152602001838360200280828437600092019190915250929550508235935050506020810135151590604001356001600160a01b0316611b5c565b34801561089957600080fd5b506109bd600480360360408110156108b057600080fd5b810190602081018135600160201b8111156108ca57600080fd5b8201836020820111156108dc57600080fd5b803590602001918460208302840111600160201b831117156108fd57600080fd5b9190808060200260200160405190810160405280939291908181526020018383602002808284376000920191909152509295949360208101935035915050600160201b81111561094c57600080fd5b82018360208201111561095e57600080fd5b803590602001918460208302840111600160201b8311171561097f57600080fd5b919080806020026020016040519081016040528093929190818152602001838360200280828437600092019190915250929550611c47945050505050565b60408051602080825283518183015283519192839290830191858101910280838360005b838110156109f95781810151838201526020016109e1565b505050509050019250505060405180910390f35b348015610a1957600080fd5b5061027860048036036040811015610a3057600080fd5b506001600160a01b038135169060200135611dcb565b348015610a5257600080fd5b506102be60048036036040811015610a6957600080fd5b50803590602001356001600160a01b0316611e06565b348015610a8b57600080fd5b5061049860048036036040811015610aa257600080fd5b50803590602001356001600160a01b0316611e12565b348015610ac457600080fd5b5061049860048036036040811015610adb57600080fd5b50803590602001356001600160a01b0316611e98565b348015610afd57600080fd5b5061049860048036036020811015610b1457600080fd5b50356001600160a01b0316611f19565b348015610b3057600080fd5b5061049860048036036020811015610b4757600080fd5b50356001600160a01b0316611f84565b348015610b6357600080fd5b5061049860048036036040811015610b7a57600080fd5b50803590602001356001600160a01b0316611fec565b348015610b9c57600080fd5b50610ba561206a565b604080516001600160a01b039092168252519081900360200190f35b348015610bcd57600080fd5b5061049860048036036020811015610be457600080fd5b5035612079565b348015610bf757600080fd5b5061049860048036036040811015610c0e57600080fd5b506001600160a01b03813516906020013515156122b2565b348015610c3257600080fd5b5061049860048036036040811015610c4957600080fd5b508035906020013561236c565b348015610c6257600080fd5b5061049860048036036020811015610c7957600080fd5b50356001600160a01b03166123c5565b348015610c9557600080fd5b5061049860048036036040811015610cac57600080fd5b508035906020013561242e565b348015610cc557600080fd5b506102be60048036036020811015610cdc57600080fd5b5035612482565b348015610cef57600080fd5b506102be60048036036020811015610d0657600080fd5b50356001600160a01b031661248d565b348015610d2257600080fd5b5061049860048036036020811015610d3957600080fd5b5035612498565b348015610d4c57600080fd5b5061049860048036036101a0811015610d6457600080fd5b60408051606081810183526001600160a01b03853516946020810135949381013593828201359360808301359391830192916101008301919060a0840190600390839083908082843760009201919091525091949392602081019250359050600160201b811115610dd457600080fd5b820183602082011115610de657600080fd5b803590602001918460208302840111600160201b83111715610e0757600080fd5b9190808060200260200160405190810160405280939291908181526020018383602002808284376000920191909152509295949360208101935035915050600160201b811115610e5657600080fd5b820183602082011115610e6857600080fd5b803590602001918460208302840111600160201b83111715610e8957600080fd5b919080806020026020016040519081016040528093929190818152602001838360200280828437600092019190915250929550508235935050506020810135151590604001356001600160a01b0316612709565b348015610ee957600080fd5b506102be60048036036020811015610f0057600080fd5b50356001600160a01b03166127aa565b348015610f1c57600080fd5b5061027860048036036060811015610f3357600080fd5b506001600160a01b0381351690602081013590604001356127b5565b348015610f5b57600080fd5b5061049860048036036040811015610f7257600080fd5b50803590602001356001600160a01b03166127ca565b610498600480360360a0811015610f9e57600080fd5b81359160208101359160408201359190810190608081016060820135600160201b811115610fcb57600080fd5b820183602082011115610fdd57600080fd5b803590602001918460208302840111600160201b83111715610ffe57600080fd5b9190808060200260200160405190810160405280939291908181526020018383602002808284376000920191909152509295505091359250612845915050565b34801561104a57600080fd5b506102be6004803603604081101561106157600080fd5b506001600160a01b0381358116916020013516612ad1565b34801561108557600080fd5b506110a36004803603602081101561109c57600080fd5b5035612add565b60408051998a5260208a0198909852888801969096526060880194909452608087019290925260a08601526001600160a01b031660c0850152151560e0840152151561010083015251908190036101200190f35b610498600480360360a081101561110d57600080fd5b6001600160a01b03823581169260208101359091169160408201359160608101359181019060a081016080820135600160201b81111561114c57600080fd5b82018360208201111561115e57600080fd5b803590602001918460018302840111600160201b8311171561117f57600080fd5b509092509050612b39565b34801561119657600080fd5b50610498600480360360208110156111ad57600080fd5b50356001600160a01b0316612c7e565b3480156111c957600080fd5b50610498600480360360608110156111e057600080fd5b81359190810190604081016020820135600160201b81111561120157600080fd5b82018360208201111561121357600080fd5b803590602001918460208302840111600160201b8311171561123457600080fd5b9190808060200260200160405190810160405280939291908181526020018383602002808284376000920191909152509295949360208101935035915050600160201b81111561128357600080fd5b82018360208201111561129557600080fd5b803590602001918460208302840111600160201b831117156112b657600080fd5b919080806020026020016040519081016040528093929190818152602001838360200280828437600092019190915250929550612cd1945050505050565b34801561130057600080fd5b506104986004803603604081101561131757600080fd5b5080359060200135612e56565b60006001600160a01b03831661136b5760405162461bcd60e51b815260040180806020018281038252602b815260200180614d52602b913960400191505060405180910390fd5b506000818152600e602090815260408083206001600160a01b03861684526007019091529020545b92915050565b60006001600160e01b031982166301ffc9a760e01b14806113ca57506001600160e01b03198216636cdb3d1360e11b145b156113d7575060016113db565b5060005b919050565b60018054604080516020600284861615610100026000190190941693909304601f8101849004840282018401909252818152606093611393939192909183018282801561146e5780601f106114435761010080835404028352916020019161146e565b820191906000526020600020905b81548152906001019060200180831161145157829003601f168201915b505050505061147c8461301a565b6130d6565b8483146114bf5760405162461bcd60e51b815260040180806020018281038252602e815260200180614f7d602e913960400191505060405180910390fd5b6001600160a01b0387166115045760405162461bcd60e51b8152600401808060200182810382526028815260200180614de36028913960400191505060405180910390fd5b6001600160a01b03881633148061152657506115208833612ad1565b15156001145b6115615760405162461bcd60e51b8152600401808060200182810382526037815260200180614f466037913960400191505060405180910390fd5b6115d0888888888080602002602001604051908101604052809392919081815260200183836020028082843760009201919091525050604080516020808c0282810182019093528b82529093508b92508a9182918501908490808284376000920191909152506131e092505050565b866001600160a01b0316886001600160a01b0316336001600160a01b03167f4a39dc06d4c0dbc64b70af90fd698a233a518aa5d07e595d983b8c0526c8f7fb898989896040518080602001806020018381038352878782818152602001925060200280828437600083820152601f01601f19169091018481038352858152602090810191508690860280828437600083820152604051601f909101601f19169092018290039850909650505050505050a461172533898989898080602002602001604051908101604052809392919081815260200183836020028082843760009201919091525050604080516020808d0282810182019093528c82529093508c92508b91829185019084908082843760009201919091525050604080516020601f8c018190048102820181019092528a815292508a915089908190840183828082843760009201919091525061329a92505050565b5050505050505050565b6000805460018054604080516020600284861615610100026000190190941693909304601f810184900484028201840190925281815293949392918301828280156117bb5780601f10611790576101008083540402835291602001916117bb565b820191906000526020600020905b81548152906001019060200180831161179e57829003601f168201915b505050600c90930154919250506001600160a01b031683565b6117dc614b69565b6000828152600f602090815260409182902082516101808101845281548152600182015481840152600282015481850152600382015460608201526004820154608082015260058201546001600160a01b03811660a083015260ff600160a01b82048116151560c0840152600160a81b82048116151560e0840152600160b01b820481161515610100840152600160b81b820481161515610120840152600160c01b9091041615156101408201526006820180548551818602810186019096528086529194929361016086019392908301828280156118e457602002820191906000526020600020905b81546001600160a01b031681526001909101906020018083116118c6575b5050509190925250508151919250501580159061190857508051611908903361348b565b80156119175750610100810151155b80156119265750610120810151155b611977576040805162461bcd60e51b815260206004820152601f60248201527f496e76616c696420617267756d656e7473206f72207065726d697373696f6e00604482015290519081900360640190fd5b6000828152600f6020526040808220600501805460ff60a81b1916600160a81b179055518391600080516020614dc383398151915291a25050565b6119ba6134af565b6119f9576040805162461bcd60e51b81526020600482018190526024820152600080516020614f26833981519152604482015290519081900360640190fd5b6001600160a01b03166000908152600d60205260409020805461ff001916610100179055565b611a276134af565b611a66576040805162461bcd60e51b81526020600482018190526024820152600080516020614f26833981519152604482015290519081900360640190fd5b600055565b600d602052600090815260409020805460019091015460ff808316926101009004169083565b600f6020526000908152604090208054600182015460028301546003840154600485015460059095015493949293919290916001600160a01b0381169060ff600160a01b8204811691600160a81b8104821691600160b01b8204811691600160b81b8104821691600160c01b909104168b565b611b0c6134af565b611b4b576040805162461bcd60e51b81526020600482018190526024820152600080516020614f26833981519152604482015290519081900360640190fd5b611b58600282600a614bdd565b5050565b87611b6781336134c0565b611ba6576040805162461bcd60e51b81526020600482015260176024820152600080516020614d7d833981519152604482015290519081900360640190fd5b6000898152600e6020526040902054611bf6576040805162461bcd60e51b815260206004820152600d60248201526c2ab735b737bbb7103a37b5b2b760991b604482015290519081900360640190fd5b611c0689898989898989896134fa565b6040805189815290518a917f199acc06cd2556bbc146fa3cb578799037dffcbf256eca32aaf2ef656925d2fd919081900360200190a2505050505050505050565b60608151835114611c895760405162461bcd60e51b8152600401808060200182810382526030815260200180614e376030913960400191505060405180910390fd5b6060835167ffffffffffffffff81118015611ca357600080fd5b50604051908082528060200260200182016040528015611ccd578160200160208202803683370190505b50905060005b8451811015611dc35760006001600160a01b0316858281518110611cf357fe5b60200260200101516001600160a01b03161415611d415760405162461bcd60e51b8152600401808060200182810382526034815260200180614e9d6034913960400191505060405180910390fd5b600e6000858381518110611d5157fe5b602002602001015181526020019081526020016000206007016000868381518110611d7857fe5b60200260200101516001600160a01b03166001600160a01b0316815260200190815260200160002060000154828281518110611db057fe5b6020908102919091010152600101611cd3565b509392505050565b6000818152600e602090815260408083206001600160a01b0386168452600701909152812060010154611dff90429061369e565b9392505050565b6000611dff83836134c0565b81611e1d81336134c0565b611e5c576040805162461bcd60e51b81526020600482015260176024820152600080516020614d7d833981519152604482015290519081900360640190fd5b506000918252600e602090815260408084206001600160a01b039093168452600790920190529020600201805462ff0000191662010000179055565b81611ea381336134c0565b611ee2576040805162461bcd60e51b81526020600482015260176024820152600080516020614d7d833981519152604482015290519081900360640190fd5b506000918252600e602090815260408084206001600160a01b039093168452600790920190529020600201805462ff000019169055565b611f216134af565b611f60576040805162461bcd60e51b81526020600482018190526024820152600080516020614f26833981519152604482015290519081900360640190fd5b6001600160a01b03166000908152600d60205260409020805460ff19166001179055565b611f8c6134af565b611fcb576040805162461bcd60e51b81526020600482018190526024820152600080516020614f26833981519152604482015290519081900360640190fd5b6001600160a01b03166000908152600d60205260409020805460ff19169055565b611ff46134af565b612033576040805162461bcd60e51b81526020600482018190526024820152600080516020614f26833981519152604482015290519081900360640190fd5b6000918252600e602090815260408084206001600160a01b039093168452600790920190529020600201805460ff19166001179055565b600c546001600160a01b031690565b612081614b69565b6000828152600f602090815260409182902082516101808101845281548152600182015481840152600282015481850152600382015460608201526004820154608082015260058201546001600160a01b03811660a083015260ff600160a01b82048116151560c0840152600160a81b82048116151560e0840152600160b01b820481161515610100840152600160b81b820481161515610120840152600160c01b90910416151561014082015260068201805485518186028101860190965280865291949293610160860193929083018282801561218957602002820191906000526020600020905b81546001600160a01b0316815260019091019060200180831161216b575b505050919092525050815191925050158015906121a95750610100810151155b80156121b85750610120810151155b80156121fd575080516121cb90336134c0565b806121dd575080516121dd903361348b565b806121fd57508060a001516001600160a01b0316336001600160a01b0316145b61224e576040805162461bcd60e51b815260206004820152601f60248201527f496e76616c696420617267756d656e7473206f72207065726d697373696f6e00604482015290519081900360640190fd5b6000828152600f60209081526040808320600501805460ff60b01b1916600160b01b1790558381015160a08501516001600160a01b03168452600d9092528083206001018054909201909155518391600080516020614dc383398151915291a25050565b336001600160a01b03831614156122fa5760405162461bcd60e51b815260040180806020018281038252602c815260200180614e0b602c913960400191505060405180910390fd5b336000818152600d602090815260408083206001600160a01b0387168085526003909101835292819020805460ff1916861515908117909155815190815290519293927f17307eab39ab6107e8899845ad3d59bd9653f200f220920489ca2b5937696c31929181900390910190a35050565b8161237781336134c0565b6123b6576040805162461bcd60e51b81526020600482015260176024820152600080516020614d7d833981519152604482015290519081900360640190fd5b6123c083836136e0565b505050565b6123cd6134af565b61240c576040805162461bcd60e51b81526020600482018190526024820152600080516020614f26833981519152604482015290519081900360640190fd5b6001600160a01b03166000908152600d60205260409020805461ff0019169055565b8161243981336134c0565b612478576040805162461bcd60e51b81526020600482015260176024820152600080516020614d7d833981519152604482015290519081900360640190fd5b6123c08383613736565b600061139382613792565b6000611393826137b1565b6124a0614b69565b6000828152600f602090815260409182902082516101808101845281548152600182015481840152600282015481850152600382015460608201526004820154608082015260058201546001600160a01b03811660a083015260ff600160a01b82048116151560c0840152600160a81b82048116151560e0840152600160b01b820481161515610100840152600160b81b820481161515610120840152600160c01b9091041615156101408201526006820180548551818602810186019096528086529194929361016086019392908301828280156125a857602002820191906000526020600020905b81546001600160a01b0316815260019091019060200180831161258a575b505050919092525050815191925050158015906125cc575080516125cc90336134c0565b80156125e557508060c0015115806125e557508060e001515b80156125f45750610100810151155b80156126035750610120810151155b801561262a5750612622816000015182602001518361016001516137db565b816040015110155b6126655760405162461bcd60e51b8152600401808060200182810382526034815260200180614ef26034913960400191505060405180910390fd5b6000828152600f6020526040808220600501805460ff60b81b1916600160b81b179055518391600080516020614dc383398151915291a261016081015151156126bd576126b88282610160015151613892565b611b58565b6000805482518252600e602052604090912060080154116126f75780516000908152600e60205260409020600801546126b8908390613892565b611b5881600001518260800151613736565b612712336137b1565b612751576040805162461bcd60e51b81526020600482015260176024820152600080516020614d7d833981519152604482015290519081900360640190fd5b6127648b8b8b8b8b8b8b8b8b8b8b613b2f565b604080518b8152602081018b905281516001600160a01b038e16926000923392600080516020614d32833981519152929181900390910190a45050505050505050505050565b600061139382613c98565b60006127c2848484613cbb565b949350505050565b6127d26134af565b612811576040805162461bcd60e51b81526020600482018190526024820152600080516020614f26833981519152604482015290519081900360640190fd5b6000918252600e602090815260408084206001600160a01b039093168452600790920190529020600201805460ff19169055565b6000858152600f602052604090205415801561286e57506000848152600e602052604090205415155b801561288457506128808484846137db565b3410155b80156128935750600054825111155b6128e4576040805162461bcd60e51b815260206004820152601a60248201527f496e76616c696420617267756d656e7473206f722076616c7565000000000000604482015290519081900360640190fd5b6000848152600e6020526040812060048101549054612910916127109161290a91613e9d565b90613ef6565b905060405180610180016040528086815260200185815260200134815260200160008152602001838152602001336001600160a01b03168152602001856000148061297657506000878152600e6020908152604080832033845260070190915290205483115b80612982575060008551115b151581526000602080830182905260408084018390526060808501849052608080860185905260a09586018a90528c8552600f8452938290208651815586840151600182015591860151600283015585015160038201559184015160048301559183015160058201805460c086015160e08701516101008801516101208901516101408a01511515600160c01b0260ff60c01b19911515600160b81b0260ff60b81b19931515600160b01b0260ff60b01b19951515600160a81b0260ff60a81b19971515600160a01b0260ff60a01b196001600160a01b03909c166001600160a01b0319909a16999099179a909a16979097179590951697909717929092169390931792909216171691909117905561016083015180519192612aad92600685019290910190614c35565b5050604051879150600080516020614dc383398151915290600090a2505050505050565b6000611dff8383613f38565b600e60205260009081526040902080546001820154600283015460038401546004850154600586015460069096015494959394929391929091906001600160a01b0381169060ff600160a01b8204811691600160a81b90041689565b6001600160a01b038516612b7e5760405162461bcd60e51b8152600401808060200182810382526028815260200180614de36028913960400191505060405180910390fd5b6001600160a01b038616331480612ba05750612b9a8633612ad1565b15156001145b612bdb5760405162461bcd60e51b8152600401808060200182810382526037815260200180614f466037913960400191505060405180910390fd5b612be786868686613f7d565b846001600160a01b0316866001600160a01b0316336001600160a01b0316600080516020614d328339815191528787604051808381526020018281526020019250505060405180910390a4612c76338787878787878080601f016020809104026020016040519081016040528093929190818152602001838380828437600092019190915250613ff592505050565b505050505050565b612c866134af565b612cc5576040805162461bcd60e51b81526020600482018190526024820152600080516020614f26833981519152604482015290519081900360640190fd5b612cce8161416a565b50565b612cda336137b1565b612d19576040805162461bcd60e51b81526020600482015260176024820152600080516020614d7d833981519152604482015290519081900360640190fd5b6000838152600e602052604090205415801590612d37575080518251145b612d7c576040805162461bcd60e51b8152602060048201526011602482015270496e76616c696420617267756d656e747360781b604482015290519081900360640190fd5b60005b8251811015612e5057612db984848381518110612d9857fe5b6020026020010151848481518110612dac57fe5b602002602001015161420b565b6000848152600e602052604081206008018054909190612dd557fe5b600091825260208220015484516001600160a01b0390911691903390600080516020614d3283398151915290879086908110612e0d57fe5b6020026020010151600e60008a815260200190815260200160002060000154604051808381526020018281526020019250505060405180910390a4600101612d7f565b50505050565b612e5e614b69565b6000838152600f602090815260409182902082516101808101845281548152600182015481840152600282015481850152600382015460608201526004820154608082015260058201546001600160a01b03811660a083015260ff600160a01b82048116151560c0840152600160a81b82048116151560e0840152600160b01b820481161515610100840152600160b81b820481161515610120840152600160c01b909104161515610140820152600682018054855181860281018601909652808652919492936101608601939290830182828015612f6657602002820191906000526020600020905b81546001600160a01b03168152600190910190602001808311612f48575b50505091909252505081519192505015801590612f8a575061012081015115156001145b8015612f995750610140810151155b612fdd576040805162461bcd60e51b815260206004820152601060248201526f496e76616c69642063616c6c6261636b60801b604482015290519081900360640190fd5b612fe78383613892565b6000838152600f6020526040902060050154600160c01b900460ff16156123c0576123c0816000015182608001516136e0565b60606000825b8015613036576001919091019060109004613020565b60608267ffffffffffffffff8111801561304f57600080fd5b506040519080825280601f01601f19166020018201604052801561307a576020820181803683370190505b50905060005b838110156130cd57601086069250613097836143a8565b82600183870303815181106130a857fe5b60200101906001600160f81b031916908160001a905350601086049550600101613080565b50949350505050565b805182516060918491849184910167ffffffffffffffff811180156130fa57600080fd5b506040519080825280601f01601f191660200182016040528015613125576020820181803683370190505b509050806000805b855181101561317e5785818151811061314257fe5b602001015160f81c60f81b83838060010194508151811061315f57fe5b60200101906001600160f81b031916908160001a90535060010161312d565b5060005b84518110156131d35784818151811061319757fe5b602001015160f81c60f81b8383806001019450815181106131b457fe5b60200101906001600160f81b031916908160001a905350600101613182565b5090979650505050505050565b600080341161320a576001600160a01b0385166000908152600d602052604090206001015461320c565b345b905060005b83518110156132885761327e61324f878787858151811061322e57fe5b602002602001015187868151811061324257fe5b60200260200101516143ec565b60408051808201909152601081526f092dce6eaccccd2c6d2cadce8408aa8960831b6020820152849190614441565b9150600101613211565b5061329385826144d8565b5050505050565b6132ac846001600160a01b0316614559565b15612c765763bc197c8160e01b6001600160e01b031916846001600160a01b031663bc197c8188888787876040518663ffffffff1660e01b815260040180866001600160a01b03168152602001856001600160a01b03168152602001806020018060200180602001848103845287818151815260200191508051906020019060200280838360005b8381101561334c578181015183820152602001613334565b50505050905001848103835286818151815260200191508051906020019060200280838360005b8381101561338b578181015183820152602001613373565b50505050905001848103825285818151815260200191508051906020019080838360005b838110156133c75781810151838201526020016133af565b50505050905090810190601f1680156133f45780820380516001836020036101000a031916815260200191505b5098505050505050505050602060405180830381600087803b15801561341957600080fd5b505af115801561342d573d6000803e3d6000fd5b505050506040513d602081101561344357600080fd5b50516001600160e01b03191614612c765760405162461bcd60e51b8152600401808060200182810382526036815260200180614e676036913960400191505060405180910390fd5b6000918252600e6020526040909120600601546001600160a01b0391821691161490565b600c546001600160a01b0316331490565b6000828152600e602090815260408083206001600160a01b038516845260070190915281206002015460ff1680611dff5750611dff6134af565b6000805b855181101561352a5785818151811061351357fe5b6020026020010151820191508060010190506134fe565b506000865111801561353a575060015b8015613547575080612710145b8015613554575061271084105b613599576040805162461bcd60e51b8152602060048201526011602482015270496e76616c696420617267756d656e747360781b604482015290519081900360640190fd5b6000898152600e60209081526040808320600581018c90558a516002808301919091558b840151600383015582518084018452428152928c015183850152600b9091018054600181018255908552929093206135f9939283020191614c89565b506000898152600e60209081526040909120875161361f92600990920191890190614c35565b506000898152600e60209081526040909120865161364592600a90920191880190614cc3565b50506000978852600e602052604090972060048101929092556006909101805460ff60a01b1916600160a01b92151592909202919091176001600160a01b0319166001600160a01b039096169590951790945550505050565b6000611dff83836040518060400160405280601e81526020017f536166654d6174683a207375627472616374696f6e206f766572666c6f770000815250614441565b6000828152600e6020908152604091829020600601805460ff60a81b191690558151838152915184927f199acc06cd2556bbc146fa3cb578799037dffcbf256eca32aaf2ef656925d2fd92908290030190a25050565b6000828152600e6020908152604091829020600601805460ff60a81b1916600160a81b1790558151838152915184927f199acc06cd2556bbc146fa3cb578799037dffcbf256eca32aaf2ef656925d2fd92908290030190a25050565b6000908152600e6020526040902060060154600160a81b900460ff1690565b6001600160a01b0381166000908152600d602052604081205460ff168061139357506113936134af565b8051600090819061381c576000858152600e602081815260408084203385526007810183529084205493899052919052546138159161369e565b905061387f565b60005b835181101561387d57600e6000878152602001908152602001600020600701600085838151811061384c57fe5b6020908102919091018101516001600160a01b0316825281019190915260400160002054919091019060010161381f565b505b6138898185613e9d565b95945050505050565b6000828152600f6020526040902080546006909101546060906138c5576000828152600e602052604090206008016138d7565b6000848152600f602052604090206006015b80548060200260200160405190810160405280929190818152602001828054801561392b57602002820191906000526020600020905b81546001600160a01b0316815260019091019060200180831161390d575b505083516000898152600f6020526040812060030154959650600019909101949350915050858201831161395f5782613963565b8582015b90506000825b828111613aab57600086828151811061397e57fe5b60209081029190910181015160008a8152600e835260408082206001600160a01b0384168352600701909352919091205490915015613aa2576000888152600e602090815260408083206001600160a01b0385168085526007909101808452828520548f8652600f855292852060010154919094529290915293840193613a0491613e9d565b6001600160a01b038083166000818152600d6020908152604080832060010180549096019095558e8252600f8152848220600501548d8352600e82528583208484526007018252918590205485518e8152918201528451919093169391923392600080516020614d3283398151915292918290030190a46000888152600e602090815260408083206001600160a01b03851684526007019091528120555b50600101613969565b506000888152600f6020526040902060050154613ad2906001600160a01b03168783614590565b6000888152600f6020526040902060030182905583821415611725576000888152600f6020526040808220600501805460ff60c01b1916600160c01b179055518991600080516020614dc383398151915291a25050505050505050565b60008a8152600e6020526040902054158015613b4b5750600089115b613b90576040805162461bcd60e51b8152602060048201526011602482015270496e76616c696420617267756d656e747360781b604482015290519081900360640190fd5b88600e60008c81526020019081526020016000206000018190555087600e60008c8152602001908152602001600020600101819055506001600e60008c81526020019081526020016000206007016000336001600160a01b03166001600160a01b0316815260200190815260200160002060020160006101000a81548160ff0219169083151502179055506001600e60008c815260200190815260200160002060070160008d6001600160a01b03166001600160a01b0316815260200190815260200160002060020160026101000a81548160ff021916908315150217905550613c808a888888888888886134fa565b613c8b8b8b8b614590565b5050505050505050505050565b6001600160a01b03166000908152600d6020526040902054610100900460ff1690565b6000828152600e60205260408120600b015481904290600019015b6000868152600e60205260408120600b01805483908110613cf357fe5b60009182526020822060029091020101546000888152600e60205260408120600b018054929350909184908110613d2657fe5b9060005260206000209060020201600160028110613d4057fe5b01546000898152600e602090815260408083206001600160a01b038e168452600701909152812060010154919250908311613ddd576000898152600e602090815260408083206001600160a01b038e168452600701909152902060010154613db290620151809061290a90889061369e565b905080613dbd575060015b613dd188613dcb8385613e9d565b90613e9d565b86019550505050613e1c565b613dee6201518061290a878661369e565b905080613df9575060015b9193508391613e0c88613dcb8385613e9d565b9095019450505060001901613cd6565b506000858152600e6020526040902060010154613e3d908390600a0a613ef6565b6000868152600e602052604081206003015491935090613e68906305f5e1009061290a908890613e9d565b6000878152600e6020526040902060020154909150613e9290613e8b9083614639565b8490614639565b979650505050505050565b600082613eac57506000611393565b82820282848281613eb957fe5b0414611dff5760405162461bcd60e51b8152600401808060200182810382526021815260200180614ed16021913960400191505060405180910390fd5b6000611dff83836040518060400160405280601a81526020017f536166654d6174683a206469766973696f6e206279207a65726f000000000000815250614693565b6000613f4483836146f8565b80611dff5750506001600160a01b039182166000908152600d602090815260408083209390941682526003909201909152205460ff1690565b6000803411613fa7576001600160a01b0385166000908152600d6020526040902060010154613fa9565b345b9050613fe9613fba868686866143ec565b60408051808201909152601081526f092dce6eaccccd2c6d2cadce8408aa8960831b6020820152839190614441565b905061329385826144d8565b614007846001600160a01b0316614559565b15612c765763f23a6e6160e01b6001600160e01b031916846001600160a01b031663f23a6e6188888787876040518663ffffffff1660e01b815260040180866001600160a01b03168152602001856001600160a01b0316815260200184815260200183815260200180602001828103825283818151815260200191508051906020019080838360005b838110156140a8578181015183820152602001614090565b50505050905090810190601f1680156140d55780820380516001836020036101000a031916815260200191505b509650505050505050602060405180830381600087803b1580156140f857600080fd5b505af115801561410c573d6000803e3d6000fd5b505050506040513d602081101561412257600080fd5b50516001600160e01b03191614612c765760405162461bcd60e51b8152600401808060200182810382526031815260200180614fab6031913960400191505060405180910390fd5b6001600160a01b0381166141af5760405162461bcd60e51b8152600401808060200182810382526026815260200180614d9d6026913960400191505060405180910390fd5b600c546040516001600160a01b038084169216907f8be0079c531659141344cd1fd0a4f28419497f9722a3daafe3b4186f6b6457e090600090a3600c80546001600160a01b0319166001600160a01b0392909216919091179055565b6000838152600e6020526040812060080180546123c0929061422957fe5b6000918252602080832090910154868352600e8083526040808520805460018201548351606081018552600284015481526003840154818901528c895294909652600b90910180546001600160a01b03909516968a96929592948a94909390840192919061429357fe5b90600052602060002090600202016001600281106142ad57fe5b0154905260008a8152600e60209081526040918290206009018054835181840281018401909452808452909183018282801561431257602002820191906000526020600020905b81546001600160a01b031681526001909101906020018083116142f4575b50505060008d8152600e6020908152604091829020600a018054835181840281018401909452808452929450925083018282801561436f57602002820191906000526020600020905b81548152602001906001019080831161435b575b50505060008e8152600e60205260409020600481015460069091015490925060ff600160a01b82041691506001600160a01b0316613b2f565b600060098260ff16116143c257506030810160f81b6113db565b8160ff16600a111580156143da5750600f8260ff1611155b1561023a57506057810160f81b6113db565b60006143fa858585856147df565b15614435576040805162461bcd60e51b8152602060048201526006602482015265131bd8dad95960d21b604482015290519081900360640190fd5b61388985858585614817565b600081848411156144d05760405162461bcd60e51b81526004018080602001828103825283818151815260200191508051906020019080838360005b8381101561449557818101518382015260200161447d565b50505050905090810190601f1680156144c25780820380516001836020036101000a031916815260200191505b509250505060405180910390fd5b505050900390565b6000341180156144e85750600081115b15614534576001600160a01b0382166000908152600d60205260409020600101546145139082614639565b6001600160a01b0383166000908152600d6020526040902060010155611b58565b34611b58576001600160a01b03919091166000908152600d6020526040902060010155565b6000813f7fc5d2460186f7233c927e7db2dcc703c0e500b653ca82273b7bfad8045d85a47081158015906127c25750141592915050565b6000828152600e6020526040902060060154600160a01b900460ff1615806145e657506000828152600e602090815260408083206001600160a01b038716845260070190915290206002015462010000900460ff165b61462e576040805162461bcd60e51b81526020600482015260146024820152731059191c995cdcc81b9bdd08185c1c1c9bdd995960621b604482015290519081900360640190fd5b6123c083838361496b565b600082820183811015611dff576040805162461bcd60e51b815260206004820152601b60248201527f536166654d6174683a206164646974696f6e206f766572666c6f770000000000604482015290519081900360640190fd5b600081836146e25760405162461bcd60e51b815260206004820181815283516024840152835190928392604490910191908501908083836000831561449557818101518382015260200161447d565b5060008385816146ee57fe5b0495945050505050565b6000805b600a8110156147d5576000600282600a811061471457fe5b01546001600160a01b0316146147cd576000600282600a811061473357fe5b01546040805163c455279160e01b81526001600160a01b0388811660048301529151928216935090861691839163c4552791916024808301926020929190829003018186803b15801561478557600080fd5b505afa158015614799573d6000803e3d6000fd5b505050506040513d60208110156147af57600080fd5b50516001600160a01b031614156147cb57600192505050611393565b505b6001016146fc565b5060009392505050565b60006147ea83613792565b806147f957506147f985613c98565b80614808575061480884613c98565b80613889575050159392505050565b6040805180820182526014815273496e73756666696369656e742062616c616e636560601b6020808301919091526000858152600e82528381206001600160a01b038916825260070190915291822054614872918490614441565b6000848152600e602090815260408083206001600160a01b038a1684526007019091529020556148a3848484614590565b6148ae858484613cbb565b905060005b6000848152600e60205260409020600901548110156130cd576000848152600e602052604081206009018054839081106148e957fe5b6000918252602080832090910154878352600e90915260408220600a0180546001600160a01b039092169350908490811061492057fe5b600091825260209091200154905061493e61271061290a8684613e9d565b6001600160a01b039092166000908152600d602052604090206001908101805490930190925550016148b3565b6000828152600e602090815260408083206001600160a01b038716845260070190915281205461499b9083614639565b6000848152600e602090815260408083206001600160a01b0389168452600701909152902054909150614a98576000838152600e602090815260408083206001600160a01b0388168452600701909152902060020154610100900460ff16614a67576001600160a01b0384166000818152600d6020908152604080832060020180546001818101835591855283852001889055878452600e83529083206008810180549283018155845282842090910180546001600160a01b0319168517905592909152600790910190525b6000838152600e602090815260408083206001600160a01b0388168452600701909152902042600190910155614b39565b6000838152600e602090815260408083206001600160a01b0388168452600701909152812060010154614acc90429061369e565b6000858152600e602090815260408083206001600160a01b038a16845260070190915281205491925090614b0690849061290a9085613e9d565b6000868152600e602090815260408083206001600160a01b038b1684526007019091529020429190910360019091015550505b6000928352600e602090815260408085206001600160a01b03909616855260079095019052929091209190915550565b604051806101800160405280600081526020016000815260200160008152602001600081526020016000815260200160006001600160a01b03168152602001600015158152602001600015158152602001600015158152602001600015158152602001600015158152602001606081525090565b82600a8101928215614c25579160200282015b82811115614c2557825182546001600160a01b0319166001600160a01b03909116178255602090920191600190910190614bf0565b50614c31929150614cfd565b5090565b828054828255906000526020600020908101928215614c255791602002820182811115614c2557825182546001600160a01b0319166001600160a01b03909116178255602090920191600190910190614bf0565b8260028101928215614cb7579160200282015b82811115614cb7578251825591602001919060010190614c9c565b50614c31929150614d1c565b828054828255906000526020600020908101928215614cb75791602002820182811115614cb7578251825591602001919060010190614c9c565b5b80821115614c315780546001600160a01b0319168155600101614cfe565b5b80821115614c315760008155600101614d1d56fec3d58168c5ae7397731d063d5bbf3d657854427343f4c083240f7aacaa2d0f62455243313135353a2062616c616e636520717565727920666f7220746865207a65726f2061646472657373496e73756666696369656e74207065726d697373696f6e0000000000000000004f776e61626c653a206e6577206f776e657220697320746865207a65726f20616464726573736ce984c7277c5fe8f47fdf17245300ed19587e3bc1041342d79726b2b2f1dc0b455243313135353a207461726765742061646472657373206d757374206265206e6f6e2d7a65726f455243313135353a2063616e6e6f742073657420617070726f76616c2073746174757320666f722073656c66455243313135353a206163636f756e747320616e6420494473206d75737420686176652073616d65206c656e67746873455243313135353a20676f7420756e6b6e6f776e2076616c75652066726f6d206f6e4552433131353542617463685265636569766564455243313135353a20736f6d65206164647265737320696e2062617463682062616c616e6365207175657279206973207a65726f536166654d6174683a206d756c7469706c69636174696f6e206f766572666c6f77496e73756666696369656e742063616c6c6261636b2c207065726d697373696f6e206f7220657363726f77656420616d6f756e744f776e61626c653a2063616c6c6572206973206e6f7420746865206f776e6572455243313135353a206e656564206f70657261746f7220617070726f76616c20666f7220337264207061727479207472616e7366657273455243313135353a2049447320616e642076616c756573206d75737420686176652073616d65206c656e67746873455243313135353a20676f7420756e6b6e6f776e2076616c75652066726f6d206f6e455243313135355265636569766564a2646970667358221220e1d45193bb2cd0000133f377bd74fb7b00dc62ca5b685e45c07ebc7764814a3764736f6c634300070100334f776e61626c653a206e6577206f776e657220697320746865207a65726f2061646472657373",
  "immutableReferences": {},
  "source": "// SPDX-License-Identifier: GPL-3.0-or-later\npragma solidity ^0.7.1;\n\nimport './Lockable.sol';\n\ncontract Callable is Lockable {\n\n    using SafeMath for uint256;\n\n\n    /****************************\n    EVENTS\n    *****************************/\n\n\n    event CallbackUpdated(uint256 indexed _callbackId);\n\n\n    /****************************\n    EXTERNAL FUNCTIONS\n    *****************************/\n\n\n    /**\n     * @dev Maximum addresses to execute automatically the callback when is accepted.\n     * @param newMax new maximum\n     */\n    function setCallbackAutoExecuteMaxAddresses(uint256 newMax) external onlyOwner {\n        _config.callbackAutoExecuteMaxAddresses = newMax;\n    }\n\n    /**\n     * @dev Propose to buy the whole supply of a token.\n     * The proposer must hold minHoldingForCallback% of the total supply.\n     * StashBlox must approve the price with acceptCallback();\n     * @param tokenId Token ID\n     * @param price proposed price\n     * @param callees list of calless. Empty list means all holders.\n     */\n    function proposeCallback(uint256 callbackId, uint256 tokenId, uint256 price, address[] memory callees, uint256 documentHash) external payable {\n        require(_callbacks[callbackId].tokenId == 0 && _tokens[tokenId].supply > 0 &&\n                msg.value >= _callbackPrice(tokenId, price, callees) &&\n                callees.length <= _config.callbackAutoExecuteMaxAddresses, \"Invalid arguments or value\");\n\n        uint256 minHolding = (_tokens[tokenId].supply.mul(_tokens[tokenId].minHoldingForCallback)).div(10000);\n\n        _callbacks[callbackId] = Callback({\n            tokenId: tokenId,\n            caller: msg.sender,\n            callees: callees,\n            price: price,\n            escrowedAmount: msg.value,\n            needLegalApproval: (price == 0) ||\n                               (_tokens[tokenId].holders[msg.sender].balance < minHolding) ||\n                               (callees.length > 0),\n            approvedByLegal: false,\n            refused: false,\n            accepted: false,\n            callCounter: 0,\n            completed: false,\n            documentHash: documentHash\n        });\n\n        emit CallbackUpdated(callbackId);\n    }\n\n    /**\n     * @dev Refuse a callback if the price is not enough.\n     * @param callbackId callback proposition ID\n     */\n    function refuseCallback(uint256 callbackId) external {\n        Callback memory callback = _callbacks[callbackId];\n\n        require(callback.tokenId != 0 &&\n                callback.refused == false &&\n                callback.accepted == false &&\n                (_isMaintener(callback.tokenId, msg.sender) ||\n                 _isLegalAuthority(callback.tokenId, msg.sender) ||\n                 msg.sender == callback.caller), \"Invalid arguments or permission\");\n\n        _callbacks[callbackId].refused = true;\n        _users[callback.caller].ETHBalance += callback.escrowedAmount;\n\n        emit CallbackUpdated(callbackId);\n    }\n\n    /**\n     * @dev Approve a callback\n     * @param callbackId callback proposition ID\n     */\n    function approveCallback(uint256 callbackId) external {\n        Callback memory callback = _callbacks[callbackId];\n\n        require(callback.tokenId != 0 &&\n                _isLegalAuthority(callback.tokenId, msg.sender) &&\n                callback.refused == false &&\n                callback.accepted == false, \"Invalid arguments or permission\");\n\n        _callbacks[callbackId].approvedByLegal = true;\n\n        emit CallbackUpdated(callbackId);\n    }\n\n    /**\n     * @dev Accept a callback\n     * @param callbackId callback proposition ID\n     */\n    function acceptCallback(uint256 callbackId) external {\n        Callback memory callback = _callbacks[callbackId];\n\n        require(callback.tokenId != 0 &&\n                _isMaintener(callback.tokenId, msg.sender) &&\n                (!callback.needLegalApproval || callback.approvedByLegal) &&\n                callback.refused == false &&\n                callback.accepted == false &&\n                callback.escrowedAmount >= _callbackPrice(callback.tokenId, callback.price, callback.callees),\n                \"Insufficient callback, permission or escrowed amount\");\n\n        _callbacks[callbackId].accepted = true;\n\n        emit CallbackUpdated(callbackId);\n\n        if (callback.callees.length > 0) {\n            _executeCallback(callbackId, callback.callees.length);\n        } else if (_tokens[callback.tokenId].holderList.length <= _config.callbackAutoExecuteMaxAddresses) {\n            _executeCallback(callbackId, _tokens[callback.tokenId].holderList.length);\n        } else {\n            _lockToken(callback.tokenId, callback.documentHash);\n        }\n    }\n\n    /**\n     * @dev Accept a callback. Caller need to recall the function to continue the callback until completed.\n     * @param callbackId callback proposition ID\n     * @param maxCall maximal call to excute\n     */\n    function executeCallback(uint256 callbackId, uint256 maxCall) external {\n        Callback memory callback = _callbacks[callbackId];\n\n        require(callback.tokenId != 0 &&\n                callback.accepted == true &&\n                callback.completed == false, \"Invalid callback\");\n\n        _executeCallback(callbackId, maxCall);\n\n        if (_callbacks[callbackId].completed) {\n            _unlockToken(callback.tokenId, callback.documentHash);\n        }\n    }\n\n\n    /****************************\n    INTERNAL FUNCTIONS\n    *****************************/\n\n\n    function _executeCallback(uint256 callbackId, uint256 maxCall) internal {\n        uint256 tokenId = _callbacks[callbackId].tokenId;\n\n        address[] memory callees = _callbacks[callbackId].callees.length > 0 ?\n                                   _callbacks[callbackId].callees :\n                                   _tokens[tokenId].holderList;\n\n        uint256 max = callees.length - 1;\n        uint256 start = _callbacks[callbackId].callCounter;\n        uint256 end = start + maxCall <  max ? start + maxCall : max;\n\n        uint256 callbackAmount = 0;\n        for (uint256 i = start; i <= end; i++) {\n            address callee = callees[i];\n            if (_tokens[tokenId].holders[callee].balance > 0) {\n                callbackAmount += _tokens[tokenId].holders[callee].balance;\n                _users[callee].ETHBalance += _tokens[tokenId].holders[callee].balance.mul(_callbacks[callbackId].price);\n\n                emit TransferSingle(msg.sender,\n                                    callee,\n                                    _callbacks[callbackId].caller,\n                                    tokenId,\n                                    _tokens[tokenId].holders[callee].balance);\n\n                _tokens[tokenId].holders[callee].balance = 0;\n            }\n        }\n        _addToBalance(_callbacks[callbackId].caller, tokenId, callbackAmount);\n\n        _callbacks[callbackId].callCounter = end;\n        if (end == max) {\n            _callbacks[callbackId].completed = true;\n            emit CallbackUpdated(callbackId);\n        }\n    }\n\n    function _callbackPrice(uint256 tokenId, uint256 price, address[] memory callees) internal view returns (uint256) {\n        uint256 callbackAmount = 0;\n        if (callees.length == 0) {\n            callbackAmount = _tokens[tokenId].supply.sub(_tokens[tokenId].holders[msg.sender].balance);\n        } else {\n            for (uint i; i < callees.length; i++) {\n                callbackAmount += _tokens[tokenId].holders[callees[i]].balance;\n            }\n        }\n        return callbackAmount.mul(price);\n    }\n\n    function _isLegalAuthority(uint256 id, address legalAuthority) internal view returns (bool) {\n        return _tokens[id].legalAuthority == legalAuthority;\n    }\n\n}\n",
  "sourcePath": "/home/ouziel/Work/StashBloxContracts/contracts/lib/Callable.sol",
  "compiler": {
    "name": "solc",
    "version": "0.7.1+commit.f4a555be.Emscripten.clang"
  },
  "schemaVersion": "3.2.3",
  "updatedAt": "2020-10-21T20:10:49.853Z",
  "devdoc": {
    "kind": "dev",
    "methods": {
      "acceptCallback(uint256)": {
        "details": "Accept a callback",
        "params": {
          "callbackId": "callback proposition ID"
        }
      },
      "approveCallback(uint256)": {
        "details": "Approve a callback",
        "params": {
          "callbackId": "callback proposition ID"
        }
      },
      "approveHolder(uint256,address)": {
        "details": "Function to approve holder for a private token.",
        "params": {
          "holder": "The authorized address",
          "id": "the token id"
        }
      },
      "authorizeMaintener(uint256,address)": {
        "details": "Function to authorize an address to maintain a token.",
        "params": {
          "maintener": "The authorized address"
        }
      },
      "authorizeTokenizer(address)": {
        "details": "Function to authorize an address to create a token.",
        "params": {
          "tokenizer": "The authorized address"
        }
      },
      "averageAge(address,uint256)": {
        "details": "Function to get the average age of the token for the given address.",
        "params": {
          "account": "the address from where to transfer the tokens",
          "id": "The token ID"
        },
        "returns": {
          "_0": "average age in seconds"
        }
      },
      "balanceOf(address,uint256)": {
        "details": "Get the specified address' balance for token with specified ID. Attempting to query the zero account for a balance will result in a revert.",
        "params": {
          "account": "The address of the token holder",
          "id": "ID of the token"
        },
        "returns": {
          "_0": "The account's balance of the token type requested"
        }
      },
      "balanceOfBatch(address[],uint256[])": {
        "details": "Get the balance of multiple account/token pairs. If any of the query accounts is the zero account, this query will revert.",
        "params": {
          "accounts": "The addresses of the token holders",
          "ids": "IDs of the tokens"
        },
        "returns": {
          "_0": "Balances for each account and token id pair"
        }
      },
      "cloneToken(uint256,uint256[],uint256[])": {
        "details": "Function to mint tokens in batch.",
        "params": {
          "id": "Identifier of the template",
          "ids": "list of IDs of the tokens to be minted",
          "metadataHashes": "list of metadata file hashes"
        }
      },
      "createToken(address,uint256,uint256,uint256,uint256,uint256[3],address[],uint256[],uint256,bool,address)": {
        "details": "Function to mint an amount of a token with the given ID.",
        "params": {
          "feesRecipients": "list of addresses receiving transfer fees",
          "feesRecipientsPercentage": "list of percentage, each one for the corresponding feesRecipients",
          "id": "ID of the token to be minted",
          "isPrivate": "true if holder need approval",
          "legalAuthority": "address of the legal authority",
          "metadataHash": "Metadata file hash",
          "minHoldingForCallback": "minimum holding to propose a callback",
          "recipient": "The address that will own the minted tokens",
          "supply": "Amount of the token to be minted",
          "transactionFees": "transaction fees: [lumpSumFees (in WEI), valueProportionalFees (ratio of transfered amount * 10**8), storageFees (in storageCredit * 10**8)]"
        }
      },
      "executeCallback(uint256,uint256)": {
        "details": "Accept a callback. Caller need to recall the function to continue the callback until completed.",
        "params": {
          "callbackId": "callback proposition ID",
          "maxCall": "maximal call to excute"
        }
      },
      "isApprovedForAll(address,address)": {
        "params": {
          "account": "The account of the Tokens",
          "operator": "Address of authorized operator"
        },
        "returns": {
          "_0": "True if the operator is approved, false if not"
        }
      },
      "isLockedAddress(address)": {
        "details": "Function to check if an address is lockec.",
        "params": {
          "addr": "The address to check"
        }
      },
      "isLockedToken(uint256)": {
        "details": "Function to check if a token is locked.",
        "params": {
          "id": "The token ID"
        }
      },
      "isMaintener(uint256,address)": {
        "details": "Function to check if an address is authorized to maintain a token.",
        "params": {
          "id": "the token id",
          "maintener": "The authorized address"
        },
        "returns": {
          "_0": "true if it's a maintener address"
        }
      },
      "isTokenizer(address)": {
        "details": "Function to check if an address is authorized to create a token.",
        "params": {
          "tokenizer": "The authorized address"
        }
      },
      "lockAddress(address)": {
        "details": "Function to lock an address.",
        "params": {
          "addr": "The address to lock"
        }
      },
      "lockToken(uint256,uint256)": {
        "details": "Function to lock a token.",
        "params": {
          "id": "The token ID"
        }
      },
      "owner()": {
        "details": "Returns the address of the current owner."
      },
      "proposeCallback(uint256,uint256,uint256,address[],uint256)": {
        "details": "Propose to buy the whole supply of a token. The proposer must hold minHoldingForCallback% of the total supply. StashBlox must approve the price with acceptCallback();",
        "params": {
          "callees": "list of calless. Empty list means all holders.",
          "price": "proposed price",
          "tokenId": "Token ID"
        }
      },
      "refuseCallback(uint256)": {
        "details": "Refuse a callback if the price is not enough.",
        "params": {
          "callbackId": "callback proposition ID"
        }
      },
      "revokeHolder(uint256,address)": {
        "details": "Function to revoke holder for a private token.",
        "params": {
          "holder": "The authorized address",
          "id": "the token id"
        }
      },
      "revokeMaintener(uint256,address)": {
        "details": "Function to revoke the authorization to maintain a token.",
        "params": {
          "id": "the token id",
          "maintener": "The authorized address"
        }
      },
      "revokeTokenizer(address)": {
        "details": "Function to revoke the authorization to create a token.",
        "params": {
          "tokenizer": "The authorized address"
        }
      },
      "safeBatchTransferFrom(address,address,uint256[],uint256[],bytes)": {
        "details": "Transfers `values` amount(s) of `ids` from the `from` address to the `to` address specified. Caller must be approved to manage the tokens being transferred out of the `from` account. If `to` is a smart contract, will call `onERC1155BatchReceived` on `to` and act appropriately.",
        "params": {
          "data": "Data forwarded to `onERC1155Received` if `to` is a contract receiver",
          "from": "Source address",
          "ids": "IDs of each token type",
          "to": "Target address",
          "values": "Transfer amounts per token type"
        }
      },
      "safeTransferFrom(address,address,uint256,uint256,bytes)": {
        "details": "Transfers `value` amount of an `id` from the `from` address to the `to` address specified. Caller must be approved to manage the tokens being transferred out of the `from` account. If `to` is a smart contract, will call `onERC1155Received` on `to` and act appropriately.",
        "params": {
          "data": "Data forwarded to `onERC1155Received` if `to` is a contract receiver",
          "from": "Source address",
          "id": "ID of the token type",
          "to": "Target address",
          "value": "Transfer amount"
        }
      },
      "setApprovalForAll(address,bool)": {
        "details": "Sets or unsets the approval of a given operator. An operator is allowed to transfer all tokens of the sender on their behalf. Because an account already has operator privileges for itself, this function will revert if the account attempts to set the approval status for itself.",
        "params": {
          "approved": "representing the status of the approval to be set",
          "operator": "address to set the approval"
        }
      },
      "setCallbackAutoExecuteMaxAddresses(uint256)": {
        "details": "Maximum addresses to execute automatically the callback when is accepted.",
        "params": {
          "newMax": "new maximum"
        }
      },
      "setProxyRegistryAddress(address[10])": {
        "details": "Function to update the operator whitelist",
        "params": {
          "proxyAddresses": "List of addresses"
        }
      },
      "supportsInterface(bytes4)": {
        "params": {
          "_interfaceID": "The interface identifier, as specified in ERC-165"
        },
        "returns": {
          "_0": "`true` if the contract implements `_interfaceID` and"
        }
      },
      "transactionFees(address,uint256,uint256)": {
        "details": "Function to get the transaction price to transfer tokens.",
        "params": {
          "account": "the address from where to transfer the tokens",
          "id": "The token ID",
          "value": "The amount to transfer"
        },
        "returns": {
          "_0": "transfer price"
        }
      },
      "transferOwnership(address)": {
        "details": "Transfers ownership of the contract to a new account (`newOwner`). Can only be called by the current owner."
      },
      "unlockAddress(address)": {
        "details": "Function to unlock an address.",
        "params": {
          "addr": "The address to unlock"
        }
      },
      "unlockToken(uint256,uint256)": {
        "details": "Function to unlock a token.",
        "params": {
          "id": "The token ID"
        }
      },
      "updateToken(uint256,uint256,uint256[3],address[],uint256[],uint256,bool,address)": {
        "details": "Function to update a token with the given ID.",
        "params": {
          "feesRecipients": "list of addresses receiving transfer fees",
          "feesRecipientsPercentage": "list of percentage, each one for the corresponding feesRecipients",
          "id": "ID of the token to be updated",
          "isPrivate": "true if holder need approval",
          "legalAuthority": "address of the legal authority",
          "metadataHash": "Metadata file hash",
          "minHoldingForCallback": "minimum holding to propose a callback",
          "transactionFees": "transaction fees: [lumpSumFees (in WEI), valueProportionalFees (ratio of transfered amount * 10**8), storageFees (in storageCredit * 10**8)]"
        }
      },
      "uri(uint256)": {
        "params": {
          "id": "Token ID"
        },
        "returns": {
          "_0": "URI string"
        }
      }
    },
    "version": 1
  },
  "userdoc": {
    "kind": "user",
    "methods": {
      "isApprovedForAll(address,address)": {
        "notice": "Queries the approval status of an operator for a given account."
      },
      "supportsInterface(bytes4)": {
        "notice": "Query if a contract implements an interface"
      }
    },
    "version": 1
  }
}