{
  "contractName": "Callable",
  "abi": [
    {
      "anonymous": false,
      "inputs": [
        {
          "indexed": true,
          "internalType": "address",
          "name": "_owner",
          "type": "address"
        },
        {
          "indexed": true,
          "internalType": "address",
          "name": "_operator",
          "type": "address"
        },
        {
          "indexed": false,
          "internalType": "bool",
          "name": "_approved",
          "type": "bool"
        }
      ],
      "name": "ApprovalForAll",
      "type": "event"
    },
    {
      "anonymous": false,
      "inputs": [
        {
          "indexed": true,
          "internalType": "uint256",
          "name": "_CallbackId",
          "type": "uint256"
        }
      ],
      "name": "CallbackUpdated",
      "type": "event"
    },
    {
      "anonymous": false,
      "inputs": [
        {
          "indexed": true,
          "internalType": "address",
          "name": "previousOwner",
          "type": "address"
        },
        {
          "indexed": true,
          "internalType": "address",
          "name": "newOwner",
          "type": "address"
        }
      ],
      "name": "OwnershipTransferred",
      "type": "event"
    },
    {
      "anonymous": false,
      "inputs": [
        {
          "indexed": true,
          "internalType": "uint256",
          "name": "_id",
          "type": "uint256"
        },
        {
          "indexed": false,
          "internalType": "uint256",
          "name": "_documentHash",
          "type": "uint256"
        }
      ],
      "name": "TokenUpdated",
      "type": "event"
    },
    {
      "anonymous": false,
      "inputs": [
        {
          "indexed": true,
          "internalType": "address",
          "name": "_operator",
          "type": "address"
        },
        {
          "indexed": true,
          "internalType": "address",
          "name": "_from",
          "type": "address"
        },
        {
          "indexed": true,
          "internalType": "address",
          "name": "_to",
          "type": "address"
        },
        {
          "indexed": false,
          "internalType": "uint256[]",
          "name": "_ids",
          "type": "uint256[]"
        },
        {
          "indexed": false,
          "internalType": "uint256[]",
          "name": "_values",
          "type": "uint256[]"
        }
      ],
      "name": "TransferBatch",
      "type": "event"
    },
    {
      "anonymous": false,
      "inputs": [
        {
          "indexed": true,
          "internalType": "address",
          "name": "_operator",
          "type": "address"
        },
        {
          "indexed": true,
          "internalType": "address",
          "name": "_from",
          "type": "address"
        },
        {
          "indexed": true,
          "internalType": "address",
          "name": "_to",
          "type": "address"
        },
        {
          "indexed": false,
          "internalType": "uint256",
          "name": "_id",
          "type": "uint256"
        },
        {
          "indexed": false,
          "internalType": "uint256",
          "name": "_value",
          "type": "uint256"
        }
      ],
      "name": "TransferSingle",
      "type": "event"
    },
    {
      "anonymous": false,
      "inputs": [
        {
          "indexed": false,
          "internalType": "string",
          "name": "_value",
          "type": "string"
        },
        {
          "indexed": true,
          "internalType": "uint256",
          "name": "_id",
          "type": "uint256"
        }
      ],
      "name": "URI",
      "type": "event"
    },
    {
      "inputs": [
        {
          "internalType": "uint256",
          "name": "",
          "type": "uint256"
        }
      ],
      "name": "_callbacks",
      "outputs": [
        {
          "internalType": "uint256",
          "name": "tokenId",
          "type": "uint256"
        },
        {
          "internalType": "uint256",
          "name": "price",
          "type": "uint256"
        },
        {
          "internalType": "uint256",
          "name": "escrowedAmount",
          "type": "uint256"
        },
        {
          "internalType": "uint256",
          "name": "callCounter",
          "type": "uint256"
        },
        {
          "internalType": "uint256",
          "name": "documentHash",
          "type": "uint256"
        },
        {
          "internalType": "address",
          "name": "caller",
          "type": "address"
        },
        {
          "internalType": "bool",
          "name": "needLegalApproval",
          "type": "bool"
        },
        {
          "internalType": "bool",
          "name": "approvedByLegal",
          "type": "bool"
        },
        {
          "internalType": "bool",
          "name": "refused",
          "type": "bool"
        },
        {
          "internalType": "bool",
          "name": "accepted",
          "type": "bool"
        },
        {
          "internalType": "bool",
          "name": "completed",
          "type": "bool"
        }
      ],
      "stateMutability": "view",
      "type": "function"
    },
    {
      "inputs": [],
      "name": "_config",
      "outputs": [
        {
          "internalType": "uint256",
          "name": "callbackAutoExecuteMaxAddresses",
          "type": "uint256"
        },
        {
          "internalType": "string",
          "name": "baseURI",
          "type": "string"
        }
      ],
      "stateMutability": "view",
      "type": "function"
    },
    {
      "inputs": [
        {
          "internalType": "uint256",
          "name": "",
          "type": "uint256"
        }
      ],
      "name": "_tokens",
      "outputs": [
        {
          "internalType": "uint256",
          "name": "supply",
          "type": "uint256"
        },
        {
          "internalType": "uint256",
          "name": "decimals",
          "type": "uint256"
        },
        {
          "internalType": "uint256",
          "name": "lumpSumTransactionFees",
          "type": "uint256"
        },
        {
          "internalType": "uint256",
          "name": "valueTransactionFees",
          "type": "uint256"
        },
        {
          "internalType": "uint256",
          "name": "minHoldingForCallback",
          "type": "uint256"
        },
        {
          "internalType": "uint256",
          "name": "metadataHash",
          "type": "uint256"
        },
        {
          "internalType": "address",
          "name": "legalAuthority",
          "type": "address"
        },
        {
          "internalType": "bool",
          "name": "isPrivate",
          "type": "bool"
        },
        {
          "internalType": "bool",
          "name": "locked",
          "type": "bool"
        }
      ],
      "stateMutability": "view",
      "type": "function"
    },
    {
      "inputs": [
        {
          "internalType": "address",
          "name": "",
          "type": "address"
        }
      ],
      "name": "_users",
      "outputs": [
        {
          "internalType": "bool",
          "name": "isTokenizer",
          "type": "bool"
        },
        {
          "internalType": "bool",
          "name": "isLocked",
          "type": "bool"
        },
        {
          "internalType": "uint256",
          "name": "ETHBalance",
          "type": "uint256"
        }
      ],
      "stateMutability": "view",
      "type": "function"
    },
    {
      "inputs": [
        {
          "internalType": "uint256",
          "name": "id",
          "type": "uint256"
        },
        {
          "internalType": "address",
          "name": "holder",
          "type": "address"
        }
      ],
      "name": "approveHolder",
      "outputs": [],
      "stateMutability": "nonpayable",
      "type": "function"
    },
    {
      "inputs": [
        {
          "internalType": "uint256",
          "name": "id",
          "type": "uint256"
        },
        {
          "internalType": "address",
          "name": "maintener",
          "type": "address"
        }
      ],
      "name": "authorizeMaintener",
      "outputs": [],
      "stateMutability": "nonpayable",
      "type": "function"
    },
    {
      "inputs": [
        {
          "internalType": "address",
          "name": "tokenizer",
          "type": "address"
        }
      ],
      "name": "authorizeTokenizer",
      "outputs": [],
      "stateMutability": "nonpayable",
      "type": "function"
    },
    {
      "inputs": [
        {
          "internalType": "address",
          "name": "account",
          "type": "address"
        },
        {
          "internalType": "uint256",
          "name": "id",
          "type": "uint256"
        }
      ],
      "name": "balanceOf",
      "outputs": [
        {
          "internalType": "uint256",
          "name": "",
          "type": "uint256"
        }
      ],
      "stateMutability": "view",
      "type": "function"
    },
    {
      "inputs": [
        {
          "internalType": "address[]",
          "name": "accounts",
          "type": "address[]"
        },
        {
          "internalType": "uint256[]",
          "name": "ids",
          "type": "uint256[]"
        }
      ],
      "name": "balanceOfBatch",
      "outputs": [
        {
          "internalType": "uint256[]",
          "name": "",
          "type": "uint256[]"
        }
      ],
      "stateMutability": "view",
      "type": "function"
    },
    {
      "inputs": [
        {
          "internalType": "uint256",
          "name": "id",
          "type": "uint256"
        },
        {
          "internalType": "uint256[]",
          "name": "ids",
          "type": "uint256[]"
        },
        {
          "internalType": "uint256[]",
          "name": "metadataHashes",
          "type": "uint256[]"
        }
      ],
      "name": "cloneToken",
      "outputs": [],
      "stateMutability": "nonpayable",
      "type": "function"
    },
    {
      "inputs": [
        {
          "internalType": "address",
          "name": "recipient",
          "type": "address"
        },
        {
          "internalType": "uint256",
          "name": "id",
          "type": "uint256"
        },
        {
          "internalType": "uint256",
          "name": "supply",
          "type": "uint256"
        },
        {
          "internalType": "uint256",
          "name": "decimals",
          "type": "uint256"
        },
        {
          "internalType": "uint256",
          "name": "metadataHash",
          "type": "uint256"
        },
        {
          "internalType": "uint256[3]",
          "name": "transactionFees",
          "type": "uint256[3]"
        },
        {
          "internalType": "address[]",
          "name": "feesRecipients",
          "type": "address[]"
        },
        {
          "internalType": "uint256[]",
          "name": "feesRecipientsPercentage",
          "type": "uint256[]"
        },
        {
          "internalType": "uint256",
          "name": "minHoldingForCallback",
          "type": "uint256"
        },
        {
          "internalType": "bool",
          "name": "isPrivate",
          "type": "bool"
        },
        {
          "internalType": "address",
          "name": "legalAuthority",
          "type": "address"
        }
      ],
      "name": "createToken",
      "outputs": [],
      "stateMutability": "nonpayable",
      "type": "function"
    },
    {
      "inputs": [
        {
          "internalType": "address",
          "name": "account",
          "type": "address"
        },
        {
          "internalType": "address",
          "name": "operator",
          "type": "address"
        }
      ],
      "name": "isApprovedForAll",
      "outputs": [
        {
          "internalType": "bool",
          "name": "",
          "type": "bool"
        }
      ],
      "stateMutability": "view",
      "type": "function"
    },
    {
      "inputs": [
        {
          "internalType": "address",
          "name": "addr",
          "type": "address"
        }
      ],
      "name": "isLockedAddress",
      "outputs": [
        {
          "internalType": "bool",
          "name": "",
          "type": "bool"
        }
      ],
      "stateMutability": "view",
      "type": "function"
    },
    {
      "inputs": [
        {
          "internalType": "uint256",
          "name": "id",
          "type": "uint256"
        }
      ],
      "name": "isLockedToken",
      "outputs": [
        {
          "internalType": "bool",
          "name": "",
          "type": "bool"
        }
      ],
      "stateMutability": "view",
      "type": "function"
    },
    {
      "inputs": [
        {
          "internalType": "uint256",
          "name": "id",
          "type": "uint256"
        },
        {
          "internalType": "address",
          "name": "maintener",
          "type": "address"
        }
      ],
      "name": "isMaintener",
      "outputs": [
        {
          "internalType": "bool",
          "name": "",
          "type": "bool"
        }
      ],
      "stateMutability": "view",
      "type": "function"
    },
    {
      "inputs": [
        {
          "internalType": "address",
          "name": "tokenizer",
          "type": "address"
        }
      ],
      "name": "isTokenizer",
      "outputs": [
        {
          "internalType": "bool",
          "name": "",
          "type": "bool"
        }
      ],
      "stateMutability": "view",
      "type": "function"
    },
    {
      "inputs": [
        {
          "internalType": "address",
          "name": "addr",
          "type": "address"
        }
      ],
      "name": "lockAddress",
      "outputs": [],
      "stateMutability": "nonpayable",
      "type": "function"
    },
    {
      "inputs": [
        {
          "internalType": "uint256",
          "name": "id",
          "type": "uint256"
        },
        {
          "internalType": "uint256",
          "name": "documentHash",
          "type": "uint256"
        }
      ],
      "name": "lockToken",
      "outputs": [],
      "stateMutability": "nonpayable",
      "type": "function"
    },
    {
      "inputs": [],
      "name": "owner",
      "outputs": [
        {
          "internalType": "address",
          "name": "",
          "type": "address"
        }
      ],
      "stateMutability": "view",
      "type": "function"
    },
    {
      "inputs": [
        {
          "internalType": "uint256",
          "name": "id",
          "type": "uint256"
        },
        {
          "internalType": "address",
          "name": "holder",
          "type": "address"
        }
      ],
      "name": "revokeHolder",
      "outputs": [],
      "stateMutability": "nonpayable",
      "type": "function"
    },
    {
      "inputs": [
        {
          "internalType": "uint256",
          "name": "id",
          "type": "uint256"
        },
        {
          "internalType": "address",
          "name": "maintener",
          "type": "address"
        }
      ],
      "name": "revokeMaintener",
      "outputs": [],
      "stateMutability": "nonpayable",
      "type": "function"
    },
    {
      "inputs": [
        {
          "internalType": "address",
          "name": "tokenizer",
          "type": "address"
        }
      ],
      "name": "revokeTokenizer",
      "outputs": [],
      "stateMutability": "nonpayable",
      "type": "function"
    },
    {
      "inputs": [
        {
          "internalType": "address",
          "name": "from",
          "type": "address"
        },
        {
          "internalType": "address",
          "name": "to",
          "type": "address"
        },
        {
          "internalType": "uint256[]",
          "name": "ids",
          "type": "uint256[]"
        },
        {
          "internalType": "uint256[]",
          "name": "values",
          "type": "uint256[]"
        },
        {
          "internalType": "bytes",
          "name": "data",
          "type": "bytes"
        }
      ],
      "name": "safeBatchTransferFrom",
      "outputs": [],
      "stateMutability": "payable",
      "type": "function"
    },
    {
      "inputs": [
        {
          "internalType": "address",
          "name": "from",
          "type": "address"
        },
        {
          "internalType": "address",
          "name": "to",
          "type": "address"
        },
        {
          "internalType": "uint256",
          "name": "id",
          "type": "uint256"
        },
        {
          "internalType": "uint256",
          "name": "value",
          "type": "uint256"
        },
        {
          "internalType": "bytes",
          "name": "data",
          "type": "bytes"
        }
      ],
      "name": "safeTransferFrom",
      "outputs": [],
      "stateMutability": "payable",
      "type": "function"
    },
    {
      "inputs": [
        {
          "internalType": "address",
          "name": "operator",
          "type": "address"
        },
        {
          "internalType": "bool",
          "name": "approved",
          "type": "bool"
        }
      ],
      "name": "setApprovalForAll",
      "outputs": [],
      "stateMutability": "nonpayable",
      "type": "function"
    },
    {
      "inputs": [
        {
          "internalType": "address[10]",
          "name": "proxyAddresses",
          "type": "address[10]"
        }
      ],
      "name": "setProxyRegistryAddress",
      "outputs": [],
      "stateMutability": "nonpayable",
      "type": "function"
    },
    {
      "inputs": [
        {
          "internalType": "bytes4",
          "name": "_interfaceID",
          "type": "bytes4"
        }
      ],
      "name": "supportsInterface",
      "outputs": [
        {
          "internalType": "bool",
          "name": "",
          "type": "bool"
        }
      ],
      "stateMutability": "pure",
      "type": "function"
    },
    {
      "inputs": [
        {
          "internalType": "address",
          "name": "account",
          "type": "address"
        },
        {
          "internalType": "uint256",
          "name": "id",
          "type": "uint256"
        },
        {
          "internalType": "uint256",
          "name": "value",
          "type": "uint256"
        }
      ],
      "name": "transactionFees",
      "outputs": [
        {
          "internalType": "uint256",
          "name": "",
          "type": "uint256"
        }
      ],
      "stateMutability": "view",
      "type": "function"
    },
    {
      "inputs": [
        {
          "internalType": "address",
          "name": "newOwner",
          "type": "address"
        }
      ],
      "name": "transferOwnership",
      "outputs": [],
      "stateMutability": "nonpayable",
      "type": "function"
    },
    {
      "inputs": [
        {
          "internalType": "address",
          "name": "addr",
          "type": "address"
        }
      ],
      "name": "unlockAddress",
      "outputs": [],
      "stateMutability": "nonpayable",
      "type": "function"
    },
    {
      "inputs": [
        {
          "internalType": "uint256",
          "name": "id",
          "type": "uint256"
        },
        {
          "internalType": "uint256",
          "name": "documentHash",
          "type": "uint256"
        }
      ],
      "name": "unlockToken",
      "outputs": [],
      "stateMutability": "nonpayable",
      "type": "function"
    },
    {
      "inputs": [
        {
          "internalType": "uint256",
          "name": "id",
          "type": "uint256"
        },
        {
          "internalType": "uint256",
          "name": "metadataHash",
          "type": "uint256"
        },
        {
          "internalType": "uint256[3]",
          "name": "transactionFees",
          "type": "uint256[3]"
        },
        {
          "internalType": "address[]",
          "name": "feesRecipients",
          "type": "address[]"
        },
        {
          "internalType": "uint256[]",
          "name": "feesRecipientsPercentage",
          "type": "uint256[]"
        },
        {
          "internalType": "uint256",
          "name": "minHoldingForCallback",
          "type": "uint256"
        },
        {
          "internalType": "bool",
          "name": "isPrivate",
          "type": "bool"
        },
        {
          "internalType": "address",
          "name": "legalAuthority",
          "type": "address"
        }
      ],
      "name": "updateToken",
      "outputs": [],
      "stateMutability": "nonpayable",
      "type": "function"
    },
    {
      "inputs": [
        {
          "internalType": "uint256",
          "name": "newMax",
          "type": "uint256"
        }
      ],
      "name": "setCallbackAutoExecuteMaxAddresses",
      "outputs": [],
      "stateMutability": "nonpayable",
      "type": "function"
    },
    {
      "inputs": [
        {
          "internalType": "uint256",
          "name": "callbackId",
          "type": "uint256"
        },
        {
          "internalType": "uint256",
          "name": "tokenId",
          "type": "uint256"
        },
        {
          "internalType": "uint256",
          "name": "price",
          "type": "uint256"
        },
        {
          "internalType": "address[]",
          "name": "callees",
          "type": "address[]"
        },
        {
          "internalType": "uint256",
          "name": "documentHash",
          "type": "uint256"
        }
      ],
      "name": "proposeCallback",
      "outputs": [],
      "stateMutability": "payable",
      "type": "function"
    },
    {
      "inputs": [
        {
          "internalType": "uint256",
          "name": "callbackId",
          "type": "uint256"
        }
      ],
      "name": "refuseCallback",
      "outputs": [],
      "stateMutability": "nonpayable",
      "type": "function"
    },
    {
      "inputs": [
        {
          "internalType": "uint256",
          "name": "callbackId",
          "type": "uint256"
        }
      ],
      "name": "approveCallback",
      "outputs": [],
      "stateMutability": "nonpayable",
      "type": "function"
    },
    {
      "inputs": [
        {
          "internalType": "uint256",
          "name": "callbackId",
          "type": "uint256"
        }
      ],
      "name": "acceptCallback",
      "outputs": [],
      "stateMutability": "nonpayable",
      "type": "function"
    },
    {
      "inputs": [
        {
          "internalType": "uint256",
          "name": "callbackId",
          "type": "uint256"
        },
        {
          "internalType": "uint256",
          "name": "maxCall",
          "type": "uint256"
        }
      ],
      "name": "executeCallback",
      "outputs": [],
      "stateMutability": "nonpayable",
      "type": "function"
    }
  ],
  "bytecode": "0x60806040523480156200001157600080fd5b506200001d3362000023565b620000e0565b6001600160a01b03811662000084576040517f08c379a000000000000000000000000000000000000000000000000000000000815260040180806020018281038252602681526020018062004d0a6026913960400191505060405180910390fd5b600f546040516001600160a01b038084169216907f8be0079c531659141344cd1fd0a4f28419497f9722a3daafe3b4186f6b6457e090600090a3600f80546001600160a01b0319166001600160a01b0392909216919091179055565b614c1a80620000f06000396000f3fe6080604052600436106102245760003560e01c80638f96f13111610123578063cba54e60116100ab578063ed70554d1161006f578063ed70554d14610f7b578063f242432a14610ff9578063f2fde38b1461108c578063f8a5a07c146110bf578063fc3fcec7146111f657610224565b8063cba54e6014610ddf578063d1660e1814610e12578063d41d0aa314610e51578063d842b67314610e8a578063e985e9c514610f4057610224565b8063baa34110116100f2578063baa3411014610b8b578063bba75c8314610bbb578063c02f303c14610be5578063c255620a14610c18578063c40b87ae14610c4257610224565b80638f96f13114610ac3578063a22cb46514610aed578063aba7fe8a14610b28578063b7eb5e0a14610b5857610224565b80634392e577116101b1578063759c521411610175578063759c5214146109ba5780637627b732146109f35780638870147b14610a265780638aeba37e14610a595780638da5cb5b14610a9257610224565b80634392e577146105e55780634ab0d253146106465780634e1273f4146107c85780635dafec1b146109485780635dd2b9a61461098157610224565b806331d5f78c116101f857806331d5f78c1461047957806334a90d02146104a3578063369c37e9146104d65780633cacd7d614610500578063414ed0ce1461055357610224565b8062fdd58e1461022957806301ffc9a7146102745780632eb2c2d6146102bc5780632ed42bf7146103e5575b600080fd5b34801561023557600080fd5b506102626004803603604081101561024c57600080fd5b506001600160a01b038135169060200135611226565b60408051918252519081900360200190f35b34801561028057600080fd5b506102a86004803603602081101561029757600080fd5b50356001600160e01b03191661129b565b604080519115158252519081900360200190f35b6103e3600480360360a08110156102d257600080fd5b6001600160a01b038235811692602081013590911691810190606081016040820135600160201b81111561030557600080fd5b82018360208201111561031757600080fd5b803590602001918460208302840111600160201b8311171561033857600080fd5b919390929091602081019035600160201b81111561035557600080fd5b82018360208201111561036757600080fd5b803590602001918460208302840111600160201b8311171561038857600080fd5b919390929091602081019035600160201b8111156103a557600080fd5b8201836020820111156103b757600080fd5b803590602001918460018302840111600160201b831117156103d857600080fd5b5090925090506112e2565b005b3480156103f157600080fd5b506103fa611590565b6040518083815260200180602001828103825283818151815260200191508051906020019080838360005b8381101561043d578181015183820152602001610425565b50505050905090810190601f16801561046a5780820380516001836020036101000a031916815260200191505b50935050505060405180910390f35b34801561048557600080fd5b506103e36004803603602081101561049c57600080fd5b5035611626565b3480156104af57600080fd5b506103e3600480360360208110156104c657600080fd5b50356001600160a01b0316611804565b3480156104e257600080fd5b506103e3600480360360208110156104f957600080fd5b5035611871565b34801561050c57600080fd5b506105336004803603602081101561052357600080fd5b50356001600160a01b03166118bd565b604080519315158452911515602084015282820152519081900360600190f35b34801561055f57600080fd5b5061057d6004803603602081101561057657600080fd5b50356118e3565b604080519b8c5260208c019a909a528a8a019890985260608a019690965260808901949094526001600160a01b0390921660a0880152151560c0870152151560e086015215156101008501521515610120840152151561014083015251908190036101600190f35b3480156105f157600080fd5b506103e3600480360361014081101561060957600080fd5b81019080806101400190600a806020026040519081016040528092919082600a602002808284376000920191909152509194506119569350505050565b34801561065257600080fd5b506103e3600480360361014081101561066a57600080fd5b6040805160608181018352843594602081013594810193909260a08401929091840190600390839083908082843760009201919091525091949392602081019250359050600160201b8111156106bf57600080fd5b8201836020820111156106d157600080fd5b803590602001918460208302840111600160201b831117156106f257600080fd5b9190808060200260200160405190810160405280939291908181526020018383602002808284376000920191909152509295949360208101935035915050600160201b81111561074157600080fd5b82018360208201111561075357600080fd5b803590602001918460208302840111600160201b8311171561077457600080fd5b919080806020026020016040519081016040528093929190818152602001838360200280828437600092019190915250929550508235935050506020810135151590604001356001600160a01b03166119ae565b3480156107d457600080fd5b506108f8600480360360408110156107eb57600080fd5b810190602081018135600160201b81111561080557600080fd5b82018360208201111561081757600080fd5b803590602001918460208302840111600160201b8311171561083857600080fd5b9190808060200260200160405190810160405280939291908181526020018383602002808284376000920191909152509295949360208101935035915050600160201b81111561088757600080fd5b82018360208201111561089957600080fd5b803590602001918460208302840111600160201b831117156108ba57600080fd5b919080806020026020016040519081016040528093929190818152602001838360200280828437600092019190915250929550611a99945050505050565b60408051602080825283518183015283519192839290830191858101910280838360005b8381101561093457818101518382015260200161091c565b505050509050019250505060405180910390f35b34801561095457600080fd5b506102a86004803603604081101561096b57600080fd5b50803590602001356001600160a01b0316611c1d565b34801561098d57600080fd5b506103e3600480360360408110156109a457600080fd5b50803590602001356001600160a01b0316611c30565b3480156109c657600080fd5b506103e3600480360360408110156109dd57600080fd5b50803590602001356001600160a01b0316611cb6565b3480156109ff57600080fd5b506103e360048036036020811015610a1657600080fd5b50356001600160a01b0316611d37565b348015610a3257600080fd5b506103e360048036036020811015610a4957600080fd5b50356001600160a01b0316611da2565b348015610a6557600080fd5b506103e360048036036040811015610a7c57600080fd5b50803590602001356001600160a01b0316611e0a565b348015610a9e57600080fd5b50610aa7611e88565b604080516001600160a01b039092168252519081900360200190f35b348015610acf57600080fd5b506103e360048036036020811015610ae657600080fd5b5035611e97565b348015610af957600080fd5b506103e360048036036040811015610b1057600080fd5b506001600160a01b03813516906020013515156120d0565b348015610b3457600080fd5b506103e360048036036040811015610b4b57600080fd5b5080359060200135612186565b348015610b6457600080fd5b506103e360048036036020811015610b7b57600080fd5b50356001600160a01b03166121df565b348015610b9757600080fd5b506103e360048036036040811015610bae57600080fd5b5080359060200135612248565b348015610bc757600080fd5b506102a860048036036020811015610bde57600080fd5b503561229c565b348015610bf157600080fd5b506102a860048036036020811015610c0857600080fd5b50356001600160a01b03166122a7565b348015610c2457600080fd5b506103e360048036036020811015610c3b57600080fd5b50356122b2565b348015610c4e57600080fd5b506103e360048036036101a0811015610c6657600080fd5b60408051606081810183526001600160a01b03853516946020810135949381013593828201359360808301359391830192916101008301919060a0840190600390839083908082843760009201919091525091949392602081019250359050600160201b811115610cd657600080fd5b820183602082011115610ce857600080fd5b803590602001918460208302840111600160201b83111715610d0957600080fd5b9190808060200260200160405190810160405280939291908181526020018383602002808284376000920191909152509295949360208101935035915050600160201b811115610d5857600080fd5b820183602082011115610d6a57600080fd5b803590602001918460208302840111600160201b83111715610d8b57600080fd5b919080806020026020016040519081016040528093929190818152602001838360200280828437600092019190915250929550508235935050506020810135151590604001356001600160a01b0316612523565b348015610deb57600080fd5b506102a860048036036020811015610e0257600080fd5b50356001600160a01b03166125c4565b348015610e1e57600080fd5b5061026260048036036060811015610e3557600080fd5b506001600160a01b0381351690602081013590604001356125cf565b348015610e5d57600080fd5b506103e360048036036040811015610e7457600080fd5b50803590602001356001600160a01b03166125e4565b6103e3600480360360a0811015610ea057600080fd5b81359160208101359160408201359190810190608081016060820135600160201b811115610ecd57600080fd5b820183602082011115610edf57600080fd5b803590602001918460208302840111600160201b83111715610f0057600080fd5b919080806020026020016040519081016040528093929190818152602001838360200280828437600092019190915250929550509135925061265f915050565b348015610f4c57600080fd5b506102a860048036036040811015610f6357600080fd5b506001600160a01b03813581169160200135166128eb565b348015610f8757600080fd5b50610fa560048036036020811015610f9e57600080fd5b503561292c565b60408051998a5260208a0198909852888801969096526060880194909452608087019290925260a08601526001600160a01b031660c0850152151560e0840152151561010083015251908190036101200190f35b6103e3600480360360a081101561100f57600080fd5b6001600160a01b03823581169260208101359091169160408201359160608101359181019060a081016080820135600160201b81111561104e57600080fd5b82018360208201111561106057600080fd5b803590602001918460018302840111600160201b8311171561108157600080fd5b509092509050612988565b34801561109857600080fd5b506103e3600480360360208110156110af57600080fd5b50356001600160a01b0316612acd565b3480156110cb57600080fd5b506103e3600480360360608110156110e257600080fd5b81359190810190604081016020820135600160201b81111561110357600080fd5b82018360208201111561111557600080fd5b803590602001918460208302840111600160201b8311171561113657600080fd5b9190808060200260200160405190810160405280939291908181526020018383602002808284376000920191909152509295949360208101935035915050600160201b81111561118557600080fd5b82018360208201111561119757600080fd5b803590602001918460208302840111600160201b831117156111b857600080fd5b919080806020026020016040519081016040528093929190818152602001838360200280828437600092019190915250929550612b20945050505050565b34801561120257600080fd5b506103e36004803603604081101561121957600080fd5b5080359060200135612ca5565b60006001600160a01b03831661126d5760405162461bcd60e51b815260040180806020018281038252602b81526020018061495b602b913960400191505060405180910390fd5b506000818152600d602090815260408083206001600160a01b03861684526007019091529020545b92915050565b60006001600160e01b031982166301ffc9a760e01b14806112cc57506001600160e01b03198216636cdb3d1360e11b145b156112d9575060016112dd565b5060005b919050565b8483146113205760405162461bcd60e51b815260040180806020018281038252602e815260200180614b86602e913960400191505060405180910390fd5b6001600160a01b0387166113655760405162461bcd60e51b81526004018080602001828103825260288152602001806149ec6028913960400191505060405180910390fd5b6001600160a01b038816331480611387575061138188336128eb565b15156001145b6113c25760405162461bcd60e51b8152600401808060200182810382526037815260200180614b4f6037913960400191505060405180910390fd5b611431888888888080602002602001604051908101604052809392919081815260200183836020028082843760009201919091525050604080516020808c0282810182019093528b82529093508b92508a918291850190849080828437600092019190915250612e6992505050565b866001600160a01b0316886001600160a01b0316336001600160a01b03167f4a39dc06d4c0dbc64b70af90fd698a233a518aa5d07e595d983b8c0526c8f7fb898989896040518080602001806020018381038352878782818152602001925060200280828437600083820152601f01601f19169091018481038352858152602090810191508690860280828437600083820152604051601f909101601f19169092018290039850909650505050505050a461158633898989898080602002602001604051908101604052809392919081815260200183836020028082843760009201919091525050604080516020808d0282810182019093528c82529093508c92508b91829185019084908082843760009201919091525050604080516020601f8c018190048102820181019092528a815292508a9150899081908401838280828437600092019190915250612f2392505050565b5050505050505050565b6000805460018054604080516020600284861615610100026000190190941693909304601f8101849004840282018401909252818152939493929183018282801561161c5780601f106115f15761010080835404028352916020019161161c565b820191906000526020600020905b8154815290600101906020018083116115ff57829003601f168201915b5050505050905082565b61162e614772565b6000828152600e602090815260409182902082516101808101845281548152600182015481840152600282015481850152600382015460608201526004820154608082015260058201546001600160a01b03811660a083015260ff600160a01b82048116151560c0840152600160a81b82048116151560e0840152600160b01b820481161515610100840152600160b81b820481161515610120840152600160c01b90910416151561014082015260068201805485518186028101860190965280865291949293610160860193929083018282801561173657602002820191906000526020600020905b81546001600160a01b03168152600190910190602001808311611718575b5050509190925250508151919250501580159061175a5750805161175a9033613114565b80156117695750610100810151155b80156117785750610120810151155b6117c9576040805162461bcd60e51b815260206004820152601f60248201527f496e76616c696420617267756d656e7473206f72207065726d697373696f6e00604482015290519081900360640190fd5b6000828152600e6020526040808220600501805460ff60a81b1916600160a81b1790555183916000805160206149cc83398151915291a25050565b61180c613138565b61184b576040805162461bcd60e51b81526020600482018190526024820152600080516020614b2f833981519152604482015290519081900360640190fd5b6001600160a01b03166000908152600c60205260409020805461ff001916610100179055565b611879613138565b6118b8576040805162461bcd60e51b81526020600482018190526024820152600080516020614b2f833981519152604482015290519081900360640190fd5b600055565b600c602052600090815260409020805460019091015460ff808316926101009004169083565b600e6020526000908152604090208054600182015460028301546003840154600485015460059095015493949293919290916001600160a01b0381169060ff600160a01b8204811691600160a81b8104821691600160b01b8204811691600160b81b8104821691600160c01b909104168b565b61195e613138565b61199d576040805162461bcd60e51b81526020600482018190526024820152600080516020614b2f833981519152604482015290519081900360640190fd5b6119aa600282600a6147e6565b5050565b876119b98133613149565b6119f8576040805162461bcd60e51b81526020600482015260176024820152600080516020614986833981519152604482015290519081900360640190fd5b6000898152600d6020526040902054611a48576040805162461bcd60e51b815260206004820152600d60248201526c2ab735b737bbb7103a37b5b2b760991b604482015290519081900360640190fd5b611a588989898989898989613183565b6040805189815290518a917f199acc06cd2556bbc146fa3cb578799037dffcbf256eca32aaf2ef656925d2fd919081900360200190a2505050505050505050565b60608151835114611adb5760405162461bcd60e51b8152600401808060200182810382526030815260200180614a406030913960400191505060405180910390fd5b6060835167ffffffffffffffff81118015611af557600080fd5b50604051908082528060200260200182016040528015611b1f578160200160208202803683370190505b50905060005b8451811015611c155760006001600160a01b0316858281518110611b4557fe5b60200260200101516001600160a01b03161415611b935760405162461bcd60e51b8152600401808060200182810382526034815260200180614aa66034913960400191505060405180910390fd5b600d6000858381518110611ba357fe5b602002602001015181526020019081526020016000206007016000868381518110611bca57fe5b60200260200101516001600160a01b03166001600160a01b0316815260200190815260200160002060000154828281518110611c0257fe5b6020908102919091010152600101611b25565b509392505050565b6000611c298383613149565b9392505050565b81611c3b8133613149565b611c7a576040805162461bcd60e51b81526020600482015260176024820152600080516020614986833981519152604482015290519081900360640190fd5b506000918252600d602090815260408084206001600160a01b039093168452600790920190529020600201805462ff0000191662010000179055565b81611cc18133613149565b611d00576040805162461bcd60e51b81526020600482015260176024820152600080516020614986833981519152604482015290519081900360640190fd5b506000918252600d602090815260408084206001600160a01b039093168452600790920190529020600201805462ff000019169055565b611d3f613138565b611d7e576040805162461bcd60e51b81526020600482018190526024820152600080516020614b2f833981519152604482015290519081900360640190fd5b6001600160a01b03166000908152600c60205260409020805460ff19166001179055565b611daa613138565b611de9576040805162461bcd60e51b81526020600482018190526024820152600080516020614b2f833981519152604482015290519081900360640190fd5b6001600160a01b03166000908152600c60205260409020805460ff19169055565b611e12613138565b611e51576040805162461bcd60e51b81526020600482018190526024820152600080516020614b2f833981519152604482015290519081900360640190fd5b6000918252600d602090815260408084206001600160a01b039093168452600790920190529020600201805460ff19166001179055565b600f546001600160a01b031690565b611e9f614772565b6000828152600e602090815260409182902082516101808101845281548152600182015481840152600282015481850152600382015460608201526004820154608082015260058201546001600160a01b03811660a083015260ff600160a01b82048116151560c0840152600160a81b82048116151560e0840152600160b01b820481161515610100840152600160b81b820481161515610120840152600160c01b909104161515610140820152600682018054855181860281018601909652808652919492936101608601939290830182828015611fa757602002820191906000526020600020905b81546001600160a01b03168152600190910190602001808311611f89575b50505091909252505081519192505015801590611fc75750610100810151155b8015611fd65750610120810151155b801561201b57508051611fe99033613149565b80611ffb57508051611ffb9033613114565b8061201b57508060a001516001600160a01b0316336001600160a01b0316145b61206c576040805162461bcd60e51b815260206004820152601f60248201527f496e76616c696420617267756d656e7473206f72207065726d697373696f6e00604482015290519081900360640190fd5b6000828152600e60209081526040808320600501805460ff60b01b1916600160b01b1790558381015160a08501516001600160a01b03168452600c90925280832060010180549092019091555183916000805160206149cc83398151915291a25050565b336001600160a01b03831614156121185760405162461bcd60e51b815260040180806020018281038252602c815260200180614a14602c913960400191505060405180910390fd5b3360008181526010602090815260408083206001600160a01b03871680855290835292819020805460ff1916861515908117909155815190815290519293927f17307eab39ab6107e8899845ad3d59bd9653f200f220920489ca2b5937696c31929181900390910190a35050565b816121918133613149565b6121d0576040805162461bcd60e51b81526020600482015260176024820152600080516020614986833981519152604482015290519081900360640190fd5b6121da8383613327565b505050565b6121e7613138565b612226576040805162461bcd60e51b81526020600482018190526024820152600080516020614b2f833981519152604482015290519081900360640190fd5b6001600160a01b03166000908152600c60205260409020805461ff0019169055565b816122538133613149565b612292576040805162461bcd60e51b81526020600482015260176024820152600080516020614986833981519152604482015290519081900360640190fd5b6121da838361337d565b6000611295826133d9565b6000611295826133f8565b6122ba614772565b6000828152600e602090815260409182902082516101808101845281548152600182015481840152600282015481850152600382015460608201526004820154608082015260058201546001600160a01b03811660a083015260ff600160a01b82048116151560c0840152600160a81b82048116151560e0840152600160b01b820481161515610100840152600160b81b820481161515610120840152600160c01b9091041615156101408201526006820180548551818602810186019096528086529194929361016086019392908301828280156123c257602002820191906000526020600020905b81546001600160a01b031681526001909101906020018083116123a4575b505050919092525050815191925050158015906123e6575080516123e69033613149565b80156123ff57508060c0015115806123ff57508060e001515b801561240e5750610100810151155b801561241d5750610120810151155b8015612444575061243c81600001518260200151836101600151613422565b816040015110155b61247f5760405162461bcd60e51b8152600401808060200182810382526034815260200180614afb6034913960400191505060405180910390fd5b6000828152600e6020526040808220600501805460ff60b81b1916600160b81b1790555183916000805160206149cc83398151915291a261016081015151156124d7576124d282826101600151516134d9565b6119aa565b6000805482518252600d602052604090912060080154116125115780516000908152600d60205260409020600801546124d29083906134d9565b6119aa8160000151826080015161337d565b61252c336133f8565b61256b576040805162461bcd60e51b81526020600482015260176024820152600080516020614986833981519152604482015290519081900360640190fd5b61257e8b8b8b8b8b8b8b8b8b8b8b613776565b604080518b8152602081018b905281516001600160a01b038e1692600092339260008051602061493b833981519152929181900390910190a45050505050505050505050565b6000611295826138df565b60006125dc848484613902565b949350505050565b6125ec613138565b61262b576040805162461bcd60e51b81526020600482018190526024820152600080516020614b2f833981519152604482015290519081900360640190fd5b6000918252600d602090815260408084206001600160a01b039093168452600790920190529020600201805460ff19169055565b6000858152600e602052604090205415801561268857506000848152600d602052604090205415155b801561269e575061269a848484613422565b3410155b80156126ad5750600054825111155b6126fe576040805162461bcd60e51b815260206004820152601a60248201527f496e76616c696420617267756d656e7473206f722076616c7565000000000000604482015290519081900360640190fd5b6000848152600d602052604081206004810154905461272a916127109161272491613ae4565b90613b3d565b905060405180610180016040528086815260200185815260200134815260200160008152602001838152602001336001600160a01b03168152602001856000148061279057506000878152600d6020908152604080832033845260070190915290205483115b8061279c575060008551115b151581526000602080830182905260408084018390526060808501849052608080860185905260a09586018a90528c8552600e8452938290208651815586840151600182015591860151600283015585015160038201559184015160048301559183015160058201805460c086015160e08701516101008801516101208901516101408a01511515600160c01b0260ff60c01b19911515600160b81b0260ff60b81b19931515600160b01b0260ff60b01b19951515600160a81b0260ff60a81b19971515600160a01b0260ff60a01b196001600160a01b03909c166001600160a01b0319909a16999099179a909a169790971795909516979097179290921693909317929092161716919091179055610160830151805191926128c79260068501929091019061483e565b50506040518791506000805160206149cc83398151915290600090a2505050505050565b60006128f78383613b7f565b80611c295750506001600160a01b03918216600090815260106020908152604080832093909416825291909152205460ff1690565b600d60205260009081526040902080546001820154600283015460038401546004850154600586015460069096015494959394929391929091906001600160a01b0381169060ff600160a01b8204811691600160a81b90041689565b6001600160a01b0385166129cd5760405162461bcd60e51b81526004018080602001828103825260288152602001806149ec6028913960400191505060405180910390fd5b6001600160a01b0386163314806129ef57506129e986336128eb565b15156001145b612a2a5760405162461bcd60e51b8152600401808060200182810382526037815260200180614b4f6037913960400191505060405180910390fd5b612a3686868686613c66565b846001600160a01b0316866001600160a01b0316336001600160a01b031660008051602061493b8339815191528787604051808381526020018281526020019250505060405180910390a4612ac5338787878787878080601f016020809104026020016040519081016040528093929190818152602001838380828437600092019190915250613cde92505050565b505050505050565b612ad5613138565b612b14576040805162461bcd60e51b81526020600482018190526024820152600080516020614b2f833981519152604482015290519081900360640190fd5b612b1d81613e53565b50565b612b29336133f8565b612b68576040805162461bcd60e51b81526020600482015260176024820152600080516020614986833981519152604482015290519081900360640190fd5b6000838152600d602052604090205415801590612b86575080518251145b612bcb576040805162461bcd60e51b8152602060048201526011602482015270496e76616c696420617267756d656e747360781b604482015290519081900360640190fd5b60005b8251811015612c9f57612c0884848381518110612be757fe5b6020026020010151848481518110612bfb57fe5b6020026020010151613ef4565b6000848152600d602052604081206008018054909190612c2457fe5b600091825260208220015484516001600160a01b039091169190339060008051602061493b83398151915290879086908110612c5c57fe5b6020026020010151600d60008a815260200190815260200160002060000154604051808381526020018281526020019250505060405180910390a4600101612bce565b50505050565b612cad614772565b6000838152600e602090815260409182902082516101808101845281548152600182015481840152600282015481850152600382015460608201526004820154608082015260058201546001600160a01b03811660a083015260ff600160a01b82048116151560c0840152600160a81b82048116151560e0840152600160b01b820481161515610100840152600160b81b820481161515610120840152600160c01b909104161515610140820152600682018054855181860281018601909652808652919492936101608601939290830182828015612db557602002820191906000526020600020905b81546001600160a01b03168152600190910190602001808311612d97575b50505091909252505081519192505015801590612dd9575061012081015115156001145b8015612de85750610140810151155b612e2c576040805162461bcd60e51b815260206004820152601060248201526f496e76616c69642063616c6c6261636b60801b604482015290519081900360640190fd5b612e3683836134d9565b6000838152600e6020526040902060050154600160c01b900460ff16156121da576121da81600001518260800151613327565b6000803411612e93576001600160a01b0385166000908152600c6020526040902060010154612e95565b345b905060005b8351811015612f1157612f07612ed88787878581518110612eb757fe5b6020026020010151878681518110612ecb57fe5b6020026020010151614091565b60408051808201909152601081526f092dce6eaccccd2c6d2cadce8408aa8960831b60208201528491906140e6565b9150600101612e9a565b50612f1c858261417d565b5050505050565b612f35846001600160a01b03166141fe565b15612ac55763bc197c8160e01b6001600160e01b031916846001600160a01b031663bc197c8188888787876040518663ffffffff1660e01b815260040180866001600160a01b03168152602001856001600160a01b03168152602001806020018060200180602001848103845287818151815260200191508051906020019060200280838360005b83811015612fd5578181015183820152602001612fbd565b50505050905001848103835286818151815260200191508051906020019060200280838360005b83811015613014578181015183820152602001612ffc565b50505050905001848103825285818151815260200191508051906020019080838360005b83811015613050578181015183820152602001613038565b50505050905090810190601f16801561307d5780820380516001836020036101000a031916815260200191505b5098505050505050505050602060405180830381600087803b1580156130a257600080fd5b505af11580156130b6573d6000803e3d6000fd5b505050506040513d60208110156130cc57600080fd5b50516001600160e01b03191614612ac55760405162461bcd60e51b8152600401808060200182810382526036815260200180614a706036913960400191505060405180910390fd5b6000918252600d6020526040909120600601546001600160a01b0391821691161490565b600f546001600160a01b0316331490565b6000828152600d602090815260408083206001600160a01b038516845260070190915281206002015460ff1680611c295750611c29613138565b6000805b85518110156131b35785818151811061319c57fe5b602002602001015182019150806001019050613187565b50600086511180156131c3575060015b80156131d0575080612710145b80156131dd575061271084105b613222576040805162461bcd60e51b8152602060048201526011602482015270496e76616c696420617267756d656e747360781b604482015290519081900360640190fd5b6000898152600d60209081526040808320600581018c90558a516002808301919091558b840151600383015582518084018452428152928c015183850152600b909101805460018101825590855292909320613282939283020191614892565b506000898152600d6020908152604090912087516132a89260099092019189019061483e565b506000898152600d6020908152604090912086516132ce92600a909201918801906148cc565b50506000978852600d602052604090972060048101929092556006909101805460ff60a01b1916600160a01b92151592909202919091176001600160a01b0319166001600160a01b039096169590951790945550505050565b6000828152600d6020908152604091829020600601805460ff60a81b191690558151838152915184927f199acc06cd2556bbc146fa3cb578799037dffcbf256eca32aaf2ef656925d2fd92908290030190a25050565b6000828152600d6020908152604091829020600601805460ff60a81b1916600160a81b1790558151838152915184927f199acc06cd2556bbc146fa3cb578799037dffcbf256eca32aaf2ef656925d2fd92908290030190a25050565b6000908152600d6020526040902060060154600160a81b900460ff1690565b6001600160a01b0381166000908152600c602052604081205460ff16806112955750611295613138565b80516000908190613463576000858152600d6020818152604080842033855260078101835290842054938990529190525461345c91614235565b90506134c6565b60005b83518110156134c457600d6000878152602001908152602001600020600701600085838151811061349357fe5b6020908102919091018101516001600160a01b03168252810191909152604001600020549190910190600101613466565b505b6134d08185613ae4565b95945050505050565b6000828152600e60205260409020805460069091015460609061350c576000828152600d6020526040902060080161351e565b6000848152600e602052604090206006015b80548060200260200160405190810160405280929190818152602001828054801561357257602002820191906000526020600020905b81546001600160a01b03168152600190910190602001808311613554575b505083516000898152600e602052604081206003015495965060001990910194935091505085820183116135a657826135aa565b8582015b90506000825b8281116136f25760008682815181106135c557fe5b60209081029190910181015160008a8152600d835260408082206001600160a01b03841683526007019093529190912054909150156136e9576000888152600d602090815260408083206001600160a01b0385168085526007909101808452828520548f8652600e85529285206001015491909452929091529384019361364b91613ae4565b6001600160a01b038083166000818152600c6020908152604080832060010180549096019095558e8252600e8152848220600501548d8352600d82528583208484526007018252918590205485518e815291820152845191909316939192339260008051602061493b83398151915292918290030190a46000888152600d602090815260408083206001600160a01b03851684526007019091528120555b506001016135b0565b506000888152600e6020526040902060050154613719906001600160a01b03168783614277565b6000888152600e6020526040902060030182905583821415611586576000888152600e6020526040808220600501805460ff60c01b1916600160c01b1790555189916000805160206149cc83398151915291a25050505050505050565b60008a8152600d60205260409020541580156137925750600089115b6137d7576040805162461bcd60e51b8152602060048201526011602482015270496e76616c696420617267756d656e747360781b604482015290519081900360640190fd5b88600d60008c81526020019081526020016000206000018190555087600d60008c8152602001908152602001600020600101819055506001600d60008c81526020019081526020016000206007016000336001600160a01b03166001600160a01b0316815260200190815260200160002060020160006101000a81548160ff0219169083151502179055506001600d60008c815260200190815260200160002060070160008d6001600160a01b03166001600160a01b0316815260200190815260200160002060020160026101000a81548160ff0219169083151502179055506138c78a88888888888888613183565b6138d28b8b8b614277565b5050505050505050505050565b6001600160a01b03166000908152600c6020526040902054610100900460ff1690565b6000828152600d60205260408120600b015481904290600019015b6000868152600d60205260408120600b0180548390811061393a57fe5b60009182526020822060029091020101546000888152600d60205260408120600b01805492935090918490811061396d57fe5b906000526020600020906002020160016002811061398757fe5b01546000898152600d602090815260408083206001600160a01b038e168452600701909152812060010154919250908311613a24576000898152600d602090815260408083206001600160a01b038e1684526007019091529020600101546139f9906201518090612724908890614235565b905080613a04575060015b613a1888613a128385613ae4565b90613ae4565b86019550505050613a63565b613a35620151806127248786614235565b905080613a40575060015b9193508391613a5388613a128385613ae4565b909501945050506000190161391d565b506000858152600d6020526040902060010154613a84908390600a0a613b3d565b6000868152600d602052604081206003015491935090613aaf906305f5e10090612724908890613ae4565b6000878152600d6020526040902060020154909150613ad990613ad29083614320565b8490614320565b979650505050505050565b600082613af357506000611295565b82820282848281613b0057fe5b0414611c295760405162461bcd60e51b8152600401808060200182810382526021815260200180614ada6021913960400191505060405180910390fd5b6000611c2983836040518060400160405280601a81526020017f536166654d6174683a206469766973696f6e206279207a65726f00000000000081525061437a565b6000805b600a811015613c5c576000600282600a8110613b9b57fe5b01546001600160a01b031614613c54576000600282600a8110613bba57fe5b01546040805163c455279160e01b81526001600160a01b0388811660048301529151928216935090861691839163c4552791916024808301926020929190829003018186803b158015613c0c57600080fd5b505afa158015613c20573d6000803e3d6000fd5b505050506040513d6020811015613c3657600080fd5b50516001600160a01b03161415613c5257600192505050611295565b505b600101613b83565b5060009392505050565b6000803411613c90576001600160a01b0385166000908152600c6020526040902060010154613c92565b345b9050613cd2613ca386868686614091565b60408051808201909152601081526f092dce6eaccccd2c6d2cadce8408aa8960831b60208201528391906140e6565b9050612f1c858261417d565b613cf0846001600160a01b03166141fe565b15612ac55763f23a6e6160e01b6001600160e01b031916846001600160a01b031663f23a6e6188888787876040518663ffffffff1660e01b815260040180866001600160a01b03168152602001856001600160a01b0316815260200184815260200183815260200180602001828103825283818151815260200191508051906020019080838360005b83811015613d91578181015183820152602001613d79565b50505050905090810190601f168015613dbe5780820380516001836020036101000a031916815260200191505b509650505050505050602060405180830381600087803b158015613de157600080fd5b505af1158015613df5573d6000803e3d6000fd5b505050506040513d6020811015613e0b57600080fd5b50516001600160e01b03191614612ac55760405162461bcd60e51b8152600401808060200182810382526031815260200180614bb46031913960400191505060405180910390fd5b6001600160a01b038116613e985760405162461bcd60e51b81526004018080602001828103825260268152602001806149a66026913960400191505060405180910390fd5b600f546040516001600160a01b038084169216907f8be0079c531659141344cd1fd0a4f28419497f9722a3daafe3b4186f6b6457e090600090a3600f80546001600160a01b0319166001600160a01b0392909216919091179055565b6000838152600d6020526040812060080180546121da9290613f1257fe5b6000918252602080832090910154868352600d8083526040808520805460018201548351606081018552600284015481526003840154818901528c895294909652600b90910180546001600160a01b03909516968a96929592948a949093908401929190613f7c57fe5b9060005260206000209060020201600160028110613f9657fe5b0154905260008a8152600d602090815260409182902060090180548351818402810184019094528084529091830182828015613ffb57602002820191906000526020600020905b81546001600160a01b03168152600190910190602001808311613fdd575b50505060008d8152600d6020908152604091829020600a018054835181840281018401909452808452929450925083018282801561405857602002820191906000526020600020905b815481526020019060010190808311614044575b50505060008e8152600d60205260409020600481015460069091015490925060ff600160a01b82041691506001600160a01b0316613776565b600061409f858585856143df565b156140da576040805162461bcd60e51b8152602060048201526006602482015265131bd8dad95960d21b604482015290519081900360640190fd5b6134d085858585614417565b600081848411156141755760405162461bcd60e51b81526004018080602001828103825283818151815260200191508051906020019080838360005b8381101561413a578181015183820152602001614122565b50505050905090810190601f1680156141675780820380516001836020036101000a031916815260200191505b509250505060405180910390fd5b505050900390565b60003411801561418d5750600081115b156141d9576001600160a01b0382166000908152600c60205260409020600101546141b89082614320565b6001600160a01b0383166000908152600c60205260409020600101556119aa565b346119aa576001600160a01b03919091166000908152600c6020526040902060010155565b6000813f7fc5d2460186f7233c927e7db2dcc703c0e500b653ca82273b7bfad8045d85a47081158015906125dc5750141592915050565b6000611c2983836040518060400160405280601e81526020017f536166654d6174683a207375627472616374696f6e206f766572666c6f7700008152506140e6565b6000828152600d6020526040902060060154600160a01b900460ff1615806142cd57506000828152600d602090815260408083206001600160a01b038716845260070190915290206002015462010000900460ff165b614315576040805162461bcd60e51b81526020600482015260146024820152731059191c995cdcc81b9bdd08185c1c1c9bdd995960621b604482015290519081900360640190fd5b6121da838383614574565b600082820183811015611c29576040805162461bcd60e51b815260206004820152601b60248201527f536166654d6174683a206164646974696f6e206f766572666c6f770000000000604482015290519081900360640190fd5b600081836143c95760405162461bcd60e51b815260206004820181815283516024840152835190928392604490910191908501908083836000831561413a578181015183820152602001614122565b5060008385816143d557fe5b0495945050505050565b60006143ea836133d9565b806143f957506143f9856138df565b806144085750614408846138df565b806134d0575050159392505050565b6040805180820182526014815273496e73756666696369656e742062616c616e636560601b6020808301919091526000858152600d82528381206001600160a01b0389168252600701909152918220546144729184906140e6565b6000848152600d602090815260408083206001600160a01b038a1684526007019091529020556144a3848484614277565b6144ae858484613902565b905060005b6000848152600d602052604090206009015481101561456b576000848152600d602052604081206009018054839081106144e957fe5b6000918252602080832090910154878352600d90915260408220600a0180546001600160a01b039092169350908490811061452057fe5b600091825260209091200154905061453e6127106127248684613ae4565b6001600160a01b039092166000908152600c602052604090206001908101805490930190925550016144b3565b50949350505050565b6000828152600d602090815260408083206001600160a01b03871684526007019091528120546145a49083614320565b6000848152600d602090815260408083206001600160a01b03891684526007019091529020549091506146a1576000838152600d602090815260408083206001600160a01b0388168452600701909152902060020154610100900460ff16614670576001600160a01b0384166000818152600c6020908152604080832060020180546001818101835591855283852001889055878452600d83529083206008810180549283018155845282842090910180546001600160a01b0319168517905592909152600790910190525b6000838152600d602090815260408083206001600160a01b0388168452600701909152902042600190910155614742565b6000838152600d602090815260408083206001600160a01b03881684526007019091528120600101546146d5904290614235565b6000858152600d602090815260408083206001600160a01b038a1684526007019091528120549192509061470f9084906127249085613ae4565b6000868152600d602090815260408083206001600160a01b038b1684526007019091529020429190910360019091015550505b6000928352600d602090815260408085206001600160a01b03909616855260079095019052929091209190915550565b604051806101800160405280600081526020016000815260200160008152602001600081526020016000815260200160006001600160a01b03168152602001600015158152602001600015158152602001600015158152602001600015158152602001600015158152602001606081525090565b82600a810192821561482e579160200282015b8281111561482e57825182546001600160a01b0319166001600160a01b039091161782556020909201916001909101906147f9565b5061483a929150614906565b5090565b82805482825590600052602060002090810192821561482e579160200282018281111561482e57825182546001600160a01b0319166001600160a01b039091161782556020909201916001909101906147f9565b82600281019282156148c0579160200282015b828111156148c05782518255916020019190600101906148a5565b5061483a929150614925565b8280548282559060005260206000209081019282156148c057916020028201828111156148c05782518255916020019190600101906148a5565b5b8082111561483a5780546001600160a01b0319168155600101614907565b5b8082111561483a576000815560010161492656fec3d58168c5ae7397731d063d5bbf3d657854427343f4c083240f7aacaa2d0f62455243313135353a2062616c616e636520717565727920666f7220746865207a65726f2061646472657373496e73756666696369656e74207065726d697373696f6e0000000000000000004f776e61626c653a206e6577206f776e657220697320746865207a65726f20616464726573736ce984c7277c5fe8f47fdf17245300ed19587e3bc1041342d79726b2b2f1dc0b455243313135353a207461726765742061646472657373206d757374206265206e6f6e2d7a65726f455243313135353a2063616e6e6f742073657420617070726f76616c2073746174757320666f722073656c66455243313135353a206163636f756e747320616e6420494473206d75737420686176652073616d65206c656e67746873455243313135353a20676f7420756e6b6e6f776e2076616c75652066726f6d206f6e4552433131353542617463685265636569766564455243313135353a20736f6d65206164647265737320696e2062617463682062616c616e6365207175657279206973207a65726f536166654d6174683a206d756c7469706c69636174696f6e206f766572666c6f77496e73756666696369656e742063616c6c6261636b2c207065726d697373696f6e206f7220657363726f77656420616d6f756e744f776e61626c653a2063616c6c6572206973206e6f7420746865206f776e6572455243313135353a206e656564206f70657261746f7220617070726f76616c20666f7220337264207061727479207472616e7366657273455243313135353a2049447320616e642076616c756573206d75737420686176652073616d65206c656e67746873455243313135353a20676f7420756e6b6e6f776e2076616c75652066726f6d206f6e455243313135355265636569766564a26469706673582212207d2f4a3687e82b07f671a2b12194e25bf82c71f3df80db51e574e65278c850b164736f6c634300070100334f776e61626c653a206e6577206f776e657220697320746865207a65726f2061646472657373",
  "immutableReferences": {},
  "source": "// SPDX-License-Identifier: GPL-3.0-or-later\npragma solidity ^0.7.1;\n\nimport './Lockable.sol';\n\ncontract Callable is Lockable {\n\n    using SafeMath for uint256;\n\n\n    /****************************\n    EVENTS\n    *****************************/\n\n\n    event CallbackUpdated(uint256 indexed _CallbackId);\n\n\n    /****************************\n    EXTERNAL FUNCTIONS\n    *****************************/\n\n\n    /**\n     * @dev Maximum addresses to execute automatically the callback when is accepted.\n     * @param newMax new maximum\n     */\n    function setCallbackAutoExecuteMaxAddresses(uint256 newMax) external onlyOwner {\n        _config.callbackAutoExecuteMaxAddresses = newMax;\n    }\n\n    /**\n     * @dev Propose to buy the whole supply of a token.\n     * The proposer must hold minHoldingForCallback% of the total supply.\n     * StashBlox must approve the price with acceptCallback();\n     * @param tokenId Token ID\n     * @param price proposed price\n     * @param callees list of calless. Empty list means all holders.\n     */\n    function proposeCallback(uint256 callbackId, uint256 tokenId, uint256 price, address[] memory callees, uint256 documentHash) external payable {\n        require(_callbacks[callbackId].tokenId == 0 && _tokens[tokenId].supply > 0 &&\n                msg.value >= _callbackPrice(tokenId, price, callees) &&\n                callees.length <= _config.callbackAutoExecuteMaxAddresses, \"Invalid arguments or value\");\n\n        uint256 minHolding = (_tokens[tokenId].supply.mul(_tokens[tokenId].minHoldingForCallback)).div(10000);\n\n        _callbacks[callbackId] = Callback({\n            tokenId: tokenId,\n            caller: msg.sender,\n            callees: callees,\n            price: price,\n            escrowedAmount: msg.value,\n            needLegalApproval: (price == 0) ||\n                               (_tokens[tokenId].holders[msg.sender].balance < minHolding) ||\n                               (callees.length > 0),\n            approvedByLegal: false,\n            refused: false,\n            accepted: false,\n            callCounter: 0,\n            completed: false,\n            documentHash: documentHash\n        });\n\n        emit CallbackUpdated(callbackId);\n    }\n\n    /**\n     * @dev Refuse a callback if the price is not enough.\n     * @param callbackId callback proposition ID\n     */\n    function refuseCallback(uint256 callbackId) external {\n        Callback memory callback = _callbacks[callbackId];\n\n        require(callback.tokenId != 0 &&\n                callback.refused == false &&\n                callback.accepted == false &&\n                (_isMaintener(callback.tokenId, msg.sender) ||\n                 _isLegalAuthority(callback.tokenId, msg.sender) ||\n                 msg.sender == callback.caller), \"Invalid arguments or permission\");\n\n        _callbacks[callbackId].refused = true;\n        _users[callback.caller].ETHBalance += callback.escrowedAmount;\n\n        emit CallbackUpdated(callbackId);\n    }\n\n    /**\n     * @dev Approve a callback\n     * @param callbackId callback proposition ID\n     */\n    function approveCallback(uint256 callbackId) external {\n        Callback memory callback = _callbacks[callbackId];\n\n        require(callback.tokenId != 0 &&\n                _isLegalAuthority(callback.tokenId, msg.sender) &&\n                callback.refused == false &&\n                callback.accepted == false, \"Invalid arguments or permission\");\n\n        _callbacks[callbackId].approvedByLegal = true;\n\n        emit CallbackUpdated(callbackId);\n    }\n\n    /**\n     * @dev Accept a callback\n     * @param callbackId callback proposition ID\n     */\n    function acceptCallback(uint256 callbackId) external {\n        Callback memory callback = _callbacks[callbackId];\n\n        require(callback.tokenId != 0 &&\n                _isMaintener(callback.tokenId, msg.sender) &&\n                (!callback.needLegalApproval || callback.approvedByLegal) &&\n                callback.refused == false &&\n                callback.accepted == false &&\n                callback.escrowedAmount >= _callbackPrice(callback.tokenId, callback.price, callback.callees),\n                \"Insufficient callback, permission or escrowed amount\");\n\n        _callbacks[callbackId].accepted = true;\n\n        emit CallbackUpdated(callbackId);\n\n        if (callback.callees.length > 0) {\n            _executeCallback(callbackId, callback.callees.length);\n        } else if (_tokens[callback.tokenId].holderList.length <= _config.callbackAutoExecuteMaxAddresses) {\n            _executeCallback(callbackId, _tokens[callback.tokenId].holderList.length);\n        } else {\n            _lockToken(callback.tokenId, callback.documentHash);\n        }\n    }\n\n    /**\n     * @dev Accept a callback. Caller need to recall the function to continue the callback until completed.\n     * @param callbackId callback proposition ID\n     * @param maxCall maximal call to excute\n     */\n    function executeCallback(uint256 callbackId, uint256 maxCall) external {\n        Callback memory callback = _callbacks[callbackId];\n\n        require(callback.tokenId != 0 &&\n                callback.accepted == true &&\n                callback.completed == false, \"Invalid callback\");\n\n        _executeCallback(callbackId, maxCall);\n\n        if (_callbacks[callbackId].completed) {\n            _unlockToken(callback.tokenId, callback.documentHash);\n        }\n    }\n\n\n    /****************************\n    INTERNAL FUNCTIONS\n    *****************************/\n\n\n    function _executeCallback(uint256 callbackId, uint256 maxCall) internal {\n        uint256 tokenId = _callbacks[callbackId].tokenId;\n\n        address[] memory callees = _callbacks[callbackId].callees.length > 0 ?\n                                   _callbacks[callbackId].callees :\n                                   _tokens[tokenId].holderList;\n\n        uint256 max = callees.length - 1;\n        uint256 start = _callbacks[callbackId].callCounter;\n        uint256 end = start + maxCall <  max ? start + maxCall : max;\n\n        uint256 callbackAmount = 0;\n        for (uint256 i = start; i <= end; i++) {\n            address callee = callees[i];\n            if (_tokens[tokenId].holders[callee].balance > 0) {\n                callbackAmount += _tokens[tokenId].holders[callee].balance;\n                _users[callee].ETHBalance += _tokens[tokenId].holders[callee].balance.mul(_callbacks[callbackId].price);\n\n                emit TransferSingle(msg.sender,\n                                    callee,\n                                    _callbacks[callbackId].caller,\n                                    tokenId,\n                                    _tokens[tokenId].holders[callee].balance);\n\n                _tokens[tokenId].holders[callee].balance = 0;\n            }\n        }\n        _addToBalance(_callbacks[callbackId].caller, tokenId, callbackAmount);\n\n        _callbacks[callbackId].callCounter = end;\n        if (end == max) {\n            _callbacks[callbackId].completed = true;\n            emit CallbackUpdated(callbackId);\n        }\n    }\n\n    function _callbackPrice(uint256 tokenId, uint256 price, address[] memory callees) internal view returns (uint256) {\n        uint256 callbackAmount = 0;\n        if (callees.length == 0) {\n            callbackAmount = _tokens[tokenId].supply.sub(_tokens[tokenId].holders[msg.sender].balance);\n        } else {\n            for (uint i; i < callees.length; i++) {\n                callbackAmount += _tokens[tokenId].holders[callees[i]].balance;\n            }\n        }\n        return callbackAmount.mul(price);\n    }\n\n    function _isLegalAuthority(uint256 id, address legalAuthority) internal view returns (bool) {\n        return _tokens[id].legalAuthority == legalAuthority;\n    }\n\n}\n",
  "sourcePath": "/home/ouziel/Work/StashBloxContracts/contracts/lib/Callable.sol",
  "compiler": {
    "name": "solc",
    "version": "0.7.1+commit.f4a555be.Emscripten.clang"
  },
  "schemaVersion": "3.2.3",
  "updatedAt": "2020-10-20T21:56:14.845Z",
  "devdoc": {
    "kind": "dev",
    "methods": {
      "acceptCallback(uint256)": {
        "details": "Accept a callback",
        "params": {
          "callbackId": "callback proposition ID"
        }
      },
      "approveCallback(uint256)": {
        "details": "Approve a callback",
        "params": {
          "callbackId": "callback proposition ID"
        }
      },
      "approveHolder(uint256,address)": {
        "details": "Function to approve holder for a private token.",
        "params": {
          "holder": "The authorized address",
          "id": "the token id"
        }
      },
      "authorizeMaintener(uint256,address)": {
        "details": "Function to authorize an address to maintain a token.",
        "params": {
          "maintener": "The authorized address"
        }
      },
      "authorizeTokenizer(address)": {
        "details": "Function to authorize an address to create a token.",
        "params": {
          "tokenizer": "The authorized address"
        }
      },
      "balanceOf(address,uint256)": {
        "details": "Get the specified address' balance for token with specified ID. Attempting to query the zero account for a balance will result in a revert.",
        "params": {
          "account": "The address of the token holder",
          "id": "ID of the token"
        },
        "returns": {
          "_0": "The account's balance of the token type requested"
        }
      },
      "balanceOfBatch(address[],uint256[])": {
        "details": "Get the balance of multiple account/token pairs. If any of the query accounts is the zero account, this query will revert.",
        "params": {
          "accounts": "The addresses of the token holders",
          "ids": "IDs of the tokens"
        },
        "returns": {
          "_0": "Balances for each account and token id pair"
        }
      },
      "cloneToken(uint256,uint256[],uint256[])": {
        "details": "Function to mint tokens in batch.",
        "params": {
          "id": "Identifier of the template",
          "ids": "list of IDs of the tokens to be minted",
          "metadataHashes": "list of metadata file hashes"
        }
      },
      "createToken(address,uint256,uint256,uint256,uint256,uint256[3],address[],uint256[],uint256,bool,address)": {
        "details": "Function to mint an amount of a token with the given ID.",
        "params": {
          "feesRecipients": "list of addresses receiving transfer fees",
          "feesRecipientsPercentage": "list of percentage, each one for the corresponding feesRecipients",
          "id": "ID of the token to be minted",
          "isPrivate": "true if holder need approval",
          "legalAuthority": "address of the legal authority",
          "metadataHash": "Metadata file hash",
          "minHoldingForCallback": "minimum holding to propose a callback",
          "recipient": "The address that will own the minted tokens",
          "supply": "Amount of the token to be minted",
          "transactionFees": "transaction fees: [lumpSumFees (in WEI), valueProportionalFees (ratio of transfered amount * 10**8), storageFees (in storageCredit * 10**8)]"
        }
      },
      "executeCallback(uint256,uint256)": {
        "details": "Accept a callback. Caller need to recall the function to continue the callback until completed.",
        "params": {
          "callbackId": "callback proposition ID",
          "maxCall": "maximal call to excute"
        }
      },
      "isApprovedForAll(address,address)": {
        "params": {
          "account": "The account of the Tokens",
          "operator": "Address of authorized operator"
        },
        "returns": {
          "_0": "True if the operator is approved, false if not"
        }
      },
      "isLockedAddress(address)": {
        "details": "Function to check if an address is lockec.",
        "params": {
          "addr": "The address to check"
        }
      },
      "isLockedToken(uint256)": {
        "details": "Function to check if a token is locked.",
        "params": {
          "id": "The token ID"
        }
      },
      "isMaintener(uint256,address)": {
        "details": "Function to check if an address is authorized to maintain a token.",
        "params": {
          "id": "the token id",
          "maintener": "The authorized address"
        },
        "returns": {
          "_0": "true if it's a maintener address"
        }
      },
      "isTokenizer(address)": {
        "details": "Function to check if an address is authorized to create a token.",
        "params": {
          "tokenizer": "The authorized address"
        }
      },
      "lockAddress(address)": {
        "details": "Function to lock an address.",
        "params": {
          "addr": "The address to lock"
        }
      },
      "lockToken(uint256,uint256)": {
        "details": "Function to lock a token.",
        "params": {
          "id": "The token ID"
        }
      },
      "owner()": {
        "details": "Returns the address of the current owner."
      },
      "proposeCallback(uint256,uint256,uint256,address[],uint256)": {
        "details": "Propose to buy the whole supply of a token. The proposer must hold minHoldingForCallback% of the total supply. StashBlox must approve the price with acceptCallback();",
        "params": {
          "callees": "list of calless. Empty list means all holders.",
          "price": "proposed price",
          "tokenId": "Token ID"
        }
      },
      "refuseCallback(uint256)": {
        "details": "Refuse a callback if the price is not enough.",
        "params": {
          "callbackId": "callback proposition ID"
        }
      },
      "revokeHolder(uint256,address)": {
        "details": "Function to revoke holder for a private token.",
        "params": {
          "holder": "The authorized address",
          "id": "the token id"
        }
      },
      "revokeMaintener(uint256,address)": {
        "details": "Function to revoke the authorization to maintain a token.",
        "params": {
          "id": "the token id",
          "maintener": "The authorized address"
        }
      },
      "revokeTokenizer(address)": {
        "details": "Function to revoke the authorization to create a token.",
        "params": {
          "tokenizer": "The authorized address"
        }
      },
      "safeBatchTransferFrom(address,address,uint256[],uint256[],bytes)": {
        "details": "Transfers `values` amount(s) of `ids` from the `from` address to the `to` address specified. Caller must be approved to manage the tokens being transferred out of the `from` account. If `to` is a smart contract, will call `onERC1155BatchReceived` on `to` and act appropriately.",
        "params": {
          "data": "Data forwarded to `onERC1155Received` if `to` is a contract receiver",
          "from": "Source address",
          "ids": "IDs of each token type",
          "to": "Target address",
          "values": "Transfer amounts per token type"
        }
      },
      "safeTransferFrom(address,address,uint256,uint256,bytes)": {
        "details": "Transfers `value` amount of an `id` from the `from` address to the `to` address specified. Caller must be approved to manage the tokens being transferred out of the `from` account. If `to` is a smart contract, will call `onERC1155Received` on `to` and act appropriately.",
        "params": {
          "data": "Data forwarded to `onERC1155Received` if `to` is a contract receiver",
          "from": "Source address",
          "id": "ID of the token type",
          "to": "Target address",
          "value": "Transfer amount"
        }
      },
      "setApprovalForAll(address,bool)": {
        "details": "Sets or unsets the approval of a given operator. An operator is allowed to transfer all tokens of the sender on their behalf. Because an account already has operator privileges for itself, this function will revert if the account attempts to set the approval status for itself.",
        "params": {
          "approved": "representing the status of the approval to be set",
          "operator": "address to set the approval"
        }
      },
      "setCallbackAutoExecuteMaxAddresses(uint256)": {
        "details": "Maximum addresses to execute automatically the callback when is accepted.",
        "params": {
          "newMax": "new maximum"
        }
      },
      "setProxyRegistryAddress(address[10])": {
        "details": "Function to update the operator whitelist",
        "params": {
          "proxyAddresses": "List of addresses"
        }
      },
      "supportsInterface(bytes4)": {
        "params": {
          "_interfaceID": "The interface identifier, as specified in ERC-165"
        },
        "returns": {
          "_0": "`true` if the contract implements `_interfaceID` and"
        }
      },
      "transactionFees(address,uint256,uint256)": {
        "details": "Function to get the transaction price to transfer tokens.",
        "params": {
          "account": "the address from where to transfer the tokens",
          "id": "The token ID",
          "value": "The amount to transfer"
        }
      },
      "transferOwnership(address)": {
        "details": "Transfers ownership of the contract to a new account (`newOwner`). Can only be called by the current owner."
      },
      "unlockAddress(address)": {
        "details": "Function to unlock an address.",
        "params": {
          "addr": "The address to unlock"
        }
      },
      "unlockToken(uint256,uint256)": {
        "details": "Function to unlock a token.",
        "params": {
          "id": "The token ID"
        }
      },
      "updateToken(uint256,uint256,uint256[3],address[],uint256[],uint256,bool,address)": {
        "details": "Function to update a token with the given ID.",
        "params": {
          "feesRecipients": "list of addresses receiving transfer fees",
          "feesRecipientsPercentage": "list of percentage, each one for the corresponding feesRecipients",
          "id": "ID of the token to be updated",
          "isPrivate": "true if holder need approval",
          "legalAuthority": "address of the legal authority",
          "metadataHash": "Metadata file hash",
          "minHoldingForCallback": "minimum holding to propose a callback",
          "transactionFees": "transaction fees: [lumpSumFees (in WEI), valueProportionalFees (ratio of transfered amount * 10**8), storageFees (in storageCredit * 10**8)]"
        }
      }
    },
    "version": 1
  },
  "userdoc": {
    "kind": "user",
    "methods": {
      "isApprovedForAll(address,address)": {
        "notice": "Queries the approval status of an operator for a given account."
      },
      "supportsInterface(bytes4)": {
        "notice": "Query if a contract implements an interface"
      }
    },
    "version": 1
  }
}