{
  "contractName": "Callable",
  "abi": [
    {
      "anonymous": false,
      "inputs": [
        {
          "indexed": true,
          "internalType": "address",
          "name": "_owner",
          "type": "address"
        },
        {
          "indexed": true,
          "internalType": "address",
          "name": "_operator",
          "type": "address"
        },
        {
          "indexed": false,
          "internalType": "bool",
          "name": "_approved",
          "type": "bool"
        }
      ],
      "name": "ApprovalForAll",
      "type": "event"
    },
    {
      "anonymous": false,
      "inputs": [
        {
          "indexed": true,
          "internalType": "uint256",
          "name": "_callbackId",
          "type": "uint256"
        }
      ],
      "name": "CallbackUpdated",
      "type": "event"
    },
    {
      "anonymous": false,
      "inputs": [
        {
          "indexed": true,
          "internalType": "address",
          "name": "previousOwner",
          "type": "address"
        },
        {
          "indexed": true,
          "internalType": "address",
          "name": "newOwner",
          "type": "address"
        }
      ],
      "name": "OwnershipTransferred",
      "type": "event"
    },
    {
      "anonymous": false,
      "inputs": [
        {
          "indexed": true,
          "internalType": "uint256",
          "name": "_id",
          "type": "uint256"
        },
        {
          "indexed": false,
          "internalType": "uint256",
          "name": "_documentHash",
          "type": "uint256"
        }
      ],
      "name": "TokenUpdated",
      "type": "event"
    },
    {
      "anonymous": false,
      "inputs": [
        {
          "indexed": true,
          "internalType": "address",
          "name": "_operator",
          "type": "address"
        },
        {
          "indexed": true,
          "internalType": "address",
          "name": "_from",
          "type": "address"
        },
        {
          "indexed": true,
          "internalType": "address",
          "name": "_to",
          "type": "address"
        },
        {
          "indexed": false,
          "internalType": "uint256[]",
          "name": "_ids",
          "type": "uint256[]"
        },
        {
          "indexed": false,
          "internalType": "uint256[]",
          "name": "_values",
          "type": "uint256[]"
        }
      ],
      "name": "TransferBatch",
      "type": "event"
    },
    {
      "anonymous": false,
      "inputs": [
        {
          "indexed": true,
          "internalType": "address",
          "name": "_operator",
          "type": "address"
        },
        {
          "indexed": true,
          "internalType": "address",
          "name": "_from",
          "type": "address"
        },
        {
          "indexed": true,
          "internalType": "address",
          "name": "_to",
          "type": "address"
        },
        {
          "indexed": false,
          "internalType": "uint256",
          "name": "_id",
          "type": "uint256"
        },
        {
          "indexed": false,
          "internalType": "uint256",
          "name": "_value",
          "type": "uint256"
        }
      ],
      "name": "TransferSingle",
      "type": "event"
    },
    {
      "anonymous": false,
      "inputs": [
        {
          "indexed": false,
          "internalType": "string",
          "name": "_value",
          "type": "string"
        },
        {
          "indexed": true,
          "internalType": "uint256",
          "name": "_id",
          "type": "uint256"
        }
      ],
      "name": "URI",
      "type": "event"
    },
    {
      "inputs": [
        {
          "internalType": "uint256",
          "name": "",
          "type": "uint256"
        }
      ],
      "name": "_callbacks",
      "outputs": [
        {
          "internalType": "uint256",
          "name": "tokenId",
          "type": "uint256"
        },
        {
          "internalType": "uint256",
          "name": "price",
          "type": "uint256"
        },
        {
          "internalType": "uint256",
          "name": "escrowedAmount",
          "type": "uint256"
        },
        {
          "internalType": "uint256",
          "name": "callCounter",
          "type": "uint256"
        },
        {
          "internalType": "uint256",
          "name": "documentHash",
          "type": "uint256"
        },
        {
          "internalType": "address",
          "name": "caller",
          "type": "address"
        },
        {
          "internalType": "bool",
          "name": "needLegalApproval",
          "type": "bool"
        },
        {
          "internalType": "bool",
          "name": "approvedByLegal",
          "type": "bool"
        },
        {
          "internalType": "bool",
          "name": "refused",
          "type": "bool"
        },
        {
          "internalType": "bool",
          "name": "accepted",
          "type": "bool"
        },
        {
          "internalType": "bool",
          "name": "completed",
          "type": "bool"
        }
      ],
      "stateMutability": "view",
      "type": "function"
    },
    {
      "inputs": [],
      "name": "_config",
      "outputs": [
        {
          "internalType": "uint256",
          "name": "callbackAutoExecuteMaxAddresses",
          "type": "uint256"
        },
        {
          "internalType": "string",
          "name": "baseURI",
          "type": "string"
        },
        {
          "internalType": "address",
          "name": "owner",
          "type": "address"
        }
      ],
      "stateMutability": "view",
      "type": "function"
    },
    {
      "inputs": [
        {
          "internalType": "uint256",
          "name": "",
          "type": "uint256"
        }
      ],
      "name": "_tokens",
      "outputs": [
        {
          "internalType": "uint256",
          "name": "supply",
          "type": "uint256"
        },
        {
          "internalType": "uint256",
          "name": "decimals",
          "type": "uint256"
        },
        {
          "internalType": "uint256",
          "name": "lumpSumTransactionFees",
          "type": "uint256"
        },
        {
          "internalType": "uint256",
          "name": "valueTransactionFees",
          "type": "uint256"
        },
        {
          "internalType": "uint256",
          "name": "minHoldingForCallback",
          "type": "uint256"
        },
        {
          "internalType": "uint256",
          "name": "metadataHash",
          "type": "uint256"
        },
        {
          "internalType": "address",
          "name": "legalAuthority",
          "type": "address"
        },
        {
          "internalType": "bool",
          "name": "isPrivate",
          "type": "bool"
        },
        {
          "internalType": "bool",
          "name": "locked",
          "type": "bool"
        }
      ],
      "stateMutability": "view",
      "type": "function"
    },
    {
      "inputs": [
        {
          "internalType": "address",
          "name": "",
          "type": "address"
        }
      ],
      "name": "_users",
      "outputs": [
        {
          "internalType": "bool",
          "name": "isTokenizer",
          "type": "bool"
        },
        {
          "internalType": "bool",
          "name": "isLocked",
          "type": "bool"
        },
        {
          "internalType": "uint256",
          "name": "ETHBalance",
          "type": "uint256"
        }
      ],
      "stateMutability": "view",
      "type": "function"
    },
    {
      "inputs": [
        {
          "internalType": "uint256",
          "name": "id",
          "type": "uint256"
        },
        {
          "internalType": "address",
          "name": "holder",
          "type": "address"
        }
      ],
      "name": "approveHolder",
      "outputs": [],
      "stateMutability": "nonpayable",
      "type": "function"
    },
    {
      "inputs": [
        {
          "internalType": "uint256",
          "name": "id",
          "type": "uint256"
        },
        {
          "internalType": "address",
          "name": "maintener",
          "type": "address"
        }
      ],
      "name": "authorizeMaintener",
      "outputs": [],
      "stateMutability": "nonpayable",
      "type": "function"
    },
    {
      "inputs": [
        {
          "internalType": "address",
          "name": "tokenizer",
          "type": "address"
        }
      ],
      "name": "authorizeTokenizer",
      "outputs": [],
      "stateMutability": "nonpayable",
      "type": "function"
    },
    {
      "inputs": [
        {
          "internalType": "address",
          "name": "account",
          "type": "address"
        },
        {
          "internalType": "uint256",
          "name": "id",
          "type": "uint256"
        }
      ],
      "name": "averageAge",
      "outputs": [
        {
          "internalType": "uint256",
          "name": "",
          "type": "uint256"
        }
      ],
      "stateMutability": "view",
      "type": "function"
    },
    {
      "inputs": [
        {
          "internalType": "address",
          "name": "account",
          "type": "address"
        },
        {
          "internalType": "uint256",
          "name": "id",
          "type": "uint256"
        }
      ],
      "name": "balanceOf",
      "outputs": [
        {
          "internalType": "uint256",
          "name": "",
          "type": "uint256"
        }
      ],
      "stateMutability": "view",
      "type": "function"
    },
    {
      "inputs": [
        {
          "internalType": "address[]",
          "name": "accounts",
          "type": "address[]"
        },
        {
          "internalType": "uint256[]",
          "name": "ids",
          "type": "uint256[]"
        }
      ],
      "name": "balanceOfBatch",
      "outputs": [
        {
          "internalType": "uint256[]",
          "name": "",
          "type": "uint256[]"
        }
      ],
      "stateMutability": "view",
      "type": "function"
    },
    {
      "inputs": [
        {
          "internalType": "uint256",
          "name": "id",
          "type": "uint256"
        },
        {
          "internalType": "uint256[]",
          "name": "ids",
          "type": "uint256[]"
        },
        {
          "internalType": "uint256[]",
          "name": "metadataHashes",
          "type": "uint256[]"
        }
      ],
      "name": "cloneToken",
      "outputs": [],
      "stateMutability": "nonpayable",
      "type": "function"
    },
    {
      "inputs": [
        {
          "internalType": "address",
          "name": "recipient",
          "type": "address"
        },
        {
          "internalType": "uint256",
          "name": "id",
          "type": "uint256"
        },
        {
          "internalType": "uint256",
          "name": "supply",
          "type": "uint256"
        },
        {
          "internalType": "uint256",
          "name": "decimals",
          "type": "uint256"
        },
        {
          "internalType": "uint256",
          "name": "metadataHash",
          "type": "uint256"
        },
        {
          "internalType": "uint256[3]",
          "name": "transactionFees",
          "type": "uint256[3]"
        },
        {
          "internalType": "address[]",
          "name": "feesRecipients",
          "type": "address[]"
        },
        {
          "internalType": "uint256[]",
          "name": "feesRecipientsPercentage",
          "type": "uint256[]"
        },
        {
          "internalType": "uint256",
          "name": "minHoldingForCallback",
          "type": "uint256"
        },
        {
          "internalType": "bool",
          "name": "isPrivate",
          "type": "bool"
        },
        {
          "internalType": "address",
          "name": "legalAuthority",
          "type": "address"
        }
      ],
      "name": "createToken",
      "outputs": [],
      "stateMutability": "nonpayable",
      "type": "function"
    },
    {
      "inputs": [
        {
          "internalType": "address",
          "name": "account",
          "type": "address"
        },
        {
          "internalType": "address",
          "name": "operator",
          "type": "address"
        }
      ],
      "name": "isApprovedForAll",
      "outputs": [
        {
          "internalType": "bool",
          "name": "",
          "type": "bool"
        }
      ],
      "stateMutability": "view",
      "type": "function"
    },
    {
      "inputs": [
        {
          "internalType": "address",
          "name": "addr",
          "type": "address"
        }
      ],
      "name": "isLockedAddress",
      "outputs": [
        {
          "internalType": "bool",
          "name": "",
          "type": "bool"
        }
      ],
      "stateMutability": "view",
      "type": "function"
    },
    {
      "inputs": [
        {
          "internalType": "uint256",
          "name": "id",
          "type": "uint256"
        }
      ],
      "name": "isLockedToken",
      "outputs": [
        {
          "internalType": "bool",
          "name": "",
          "type": "bool"
        }
      ],
      "stateMutability": "view",
      "type": "function"
    },
    {
      "inputs": [
        {
          "internalType": "uint256",
          "name": "id",
          "type": "uint256"
        },
        {
          "internalType": "address",
          "name": "maintener",
          "type": "address"
        }
      ],
      "name": "isMaintener",
      "outputs": [
        {
          "internalType": "bool",
          "name": "",
          "type": "bool"
        }
      ],
      "stateMutability": "view",
      "type": "function"
    },
    {
      "inputs": [
        {
          "internalType": "address",
          "name": "tokenizer",
          "type": "address"
        }
      ],
      "name": "isTokenizer",
      "outputs": [
        {
          "internalType": "bool",
          "name": "",
          "type": "bool"
        }
      ],
      "stateMutability": "view",
      "type": "function"
    },
    {
      "inputs": [
        {
          "internalType": "address",
          "name": "forwarder",
          "type": "address"
        }
      ],
      "name": "isTrustedForwarder",
      "outputs": [
        {
          "internalType": "bool",
          "name": "",
          "type": "bool"
        }
      ],
      "stateMutability": "view",
      "type": "function"
    },
    {
      "inputs": [
        {
          "internalType": "address",
          "name": "addr",
          "type": "address"
        }
      ],
      "name": "lockAddress",
      "outputs": [],
      "stateMutability": "nonpayable",
      "type": "function"
    },
    {
      "inputs": [
        {
          "internalType": "uint256",
          "name": "id",
          "type": "uint256"
        },
        {
          "internalType": "uint256",
          "name": "documentHash",
          "type": "uint256"
        }
      ],
      "name": "lockToken",
      "outputs": [],
      "stateMutability": "nonpayable",
      "type": "function"
    },
    {
      "inputs": [],
      "name": "owner",
      "outputs": [
        {
          "internalType": "address",
          "name": "",
          "type": "address"
        }
      ],
      "stateMutability": "view",
      "type": "function"
    },
    {
      "inputs": [
        {
          "internalType": "uint256",
          "name": "id",
          "type": "uint256"
        },
        {
          "internalType": "address",
          "name": "holder",
          "type": "address"
        }
      ],
      "name": "revokeHolder",
      "outputs": [],
      "stateMutability": "nonpayable",
      "type": "function"
    },
    {
      "inputs": [
        {
          "internalType": "uint256",
          "name": "id",
          "type": "uint256"
        },
        {
          "internalType": "address",
          "name": "maintener",
          "type": "address"
        }
      ],
      "name": "revokeMaintener",
      "outputs": [],
      "stateMutability": "nonpayable",
      "type": "function"
    },
    {
      "inputs": [
        {
          "internalType": "address",
          "name": "tokenizer",
          "type": "address"
        }
      ],
      "name": "revokeTokenizer",
      "outputs": [],
      "stateMutability": "nonpayable",
      "type": "function"
    },
    {
      "inputs": [
        {
          "internalType": "address",
          "name": "from",
          "type": "address"
        },
        {
          "internalType": "address",
          "name": "to",
          "type": "address"
        },
        {
          "internalType": "uint256[]",
          "name": "ids",
          "type": "uint256[]"
        },
        {
          "internalType": "uint256[]",
          "name": "values",
          "type": "uint256[]"
        },
        {
          "internalType": "bytes",
          "name": "data",
          "type": "bytes"
        }
      ],
      "name": "safeBatchTransferFrom",
      "outputs": [],
      "stateMutability": "payable",
      "type": "function"
    },
    {
      "inputs": [
        {
          "internalType": "address",
          "name": "from",
          "type": "address"
        },
        {
          "internalType": "address",
          "name": "to",
          "type": "address"
        },
        {
          "internalType": "uint256",
          "name": "id",
          "type": "uint256"
        },
        {
          "internalType": "uint256",
          "name": "value",
          "type": "uint256"
        },
        {
          "internalType": "bytes",
          "name": "data",
          "type": "bytes"
        }
      ],
      "name": "safeTransferFrom",
      "outputs": [],
      "stateMutability": "payable",
      "type": "function"
    },
    {
      "inputs": [
        {
          "internalType": "address",
          "name": "operator",
          "type": "address"
        },
        {
          "internalType": "bool",
          "name": "approved",
          "type": "bool"
        }
      ],
      "name": "setApprovalForAll",
      "outputs": [],
      "stateMutability": "nonpayable",
      "type": "function"
    },
    {
      "inputs": [
        {
          "internalType": "address[10]",
          "name": "proxyAddresses",
          "type": "address[10]"
        }
      ],
      "name": "setProxyRegistryAddress",
      "outputs": [],
      "stateMutability": "nonpayable",
      "type": "function"
    },
    {
      "inputs": [
        {
          "internalType": "bytes4",
          "name": "_interfaceID",
          "type": "bytes4"
        }
      ],
      "name": "supportsInterface",
      "outputs": [
        {
          "internalType": "bool",
          "name": "",
          "type": "bool"
        }
      ],
      "stateMutability": "pure",
      "type": "function"
    },
    {
      "inputs": [
        {
          "internalType": "address",
          "name": "account",
          "type": "address"
        },
        {
          "internalType": "uint256",
          "name": "id",
          "type": "uint256"
        },
        {
          "internalType": "uint256",
          "name": "value",
          "type": "uint256"
        }
      ],
      "name": "transactionFees",
      "outputs": [
        {
          "internalType": "uint256",
          "name": "",
          "type": "uint256"
        }
      ],
      "stateMutability": "view",
      "type": "function"
    },
    {
      "inputs": [
        {
          "internalType": "address",
          "name": "newOwner",
          "type": "address"
        }
      ],
      "name": "transferOwnership",
      "outputs": [],
      "stateMutability": "nonpayable",
      "type": "function"
    },
    {
      "inputs": [],
      "name": "trustedForwarder",
      "outputs": [
        {
          "internalType": "address",
          "name": "",
          "type": "address"
        }
      ],
      "stateMutability": "view",
      "type": "function"
    },
    {
      "inputs": [
        {
          "internalType": "address",
          "name": "addr",
          "type": "address"
        }
      ],
      "name": "unlockAddress",
      "outputs": [],
      "stateMutability": "nonpayable",
      "type": "function"
    },
    {
      "inputs": [
        {
          "internalType": "uint256",
          "name": "id",
          "type": "uint256"
        },
        {
          "internalType": "uint256",
          "name": "documentHash",
          "type": "uint256"
        }
      ],
      "name": "unlockToken",
      "outputs": [],
      "stateMutability": "nonpayable",
      "type": "function"
    },
    {
      "inputs": [
        {
          "internalType": "uint256",
          "name": "id",
          "type": "uint256"
        },
        {
          "internalType": "uint256",
          "name": "metadataHash",
          "type": "uint256"
        },
        {
          "internalType": "uint256[3]",
          "name": "transactionFees",
          "type": "uint256[3]"
        },
        {
          "internalType": "address[]",
          "name": "feesRecipients",
          "type": "address[]"
        },
        {
          "internalType": "uint256[]",
          "name": "feesRecipientsPercentage",
          "type": "uint256[]"
        },
        {
          "internalType": "uint256",
          "name": "minHoldingForCallback",
          "type": "uint256"
        },
        {
          "internalType": "bool",
          "name": "isPrivate",
          "type": "bool"
        },
        {
          "internalType": "address",
          "name": "legalAuthority",
          "type": "address"
        }
      ],
      "name": "updateToken",
      "outputs": [],
      "stateMutability": "nonpayable",
      "type": "function"
    },
    {
      "inputs": [
        {
          "internalType": "uint256",
          "name": "id",
          "type": "uint256"
        }
      ],
      "name": "uri",
      "outputs": [
        {
          "internalType": "string",
          "name": "",
          "type": "string"
        }
      ],
      "stateMutability": "view",
      "type": "function"
    },
    {
      "inputs": [],
      "name": "versionRecipient",
      "outputs": [
        {
          "internalType": "string",
          "name": "",
          "type": "string"
        }
      ],
      "stateMutability": "view",
      "type": "function"
    },
    {
      "inputs": [
        {
          "internalType": "uint256",
          "name": "newMax",
          "type": "uint256"
        }
      ],
      "name": "setCallbackAutoExecuteMaxAddresses",
      "outputs": [],
      "stateMutability": "nonpayable",
      "type": "function"
    },
    {
      "inputs": [
        {
          "internalType": "uint256",
          "name": "callbackId",
          "type": "uint256"
        },
        {
          "internalType": "uint256",
          "name": "tokenId",
          "type": "uint256"
        },
        {
          "internalType": "uint256",
          "name": "price",
          "type": "uint256"
        },
        {
          "internalType": "address[]",
          "name": "callees",
          "type": "address[]"
        },
        {
          "internalType": "uint256",
          "name": "documentHash",
          "type": "uint256"
        }
      ],
      "name": "proposeCallback",
      "outputs": [],
      "stateMutability": "payable",
      "type": "function"
    },
    {
      "inputs": [
        {
          "internalType": "uint256",
          "name": "callbackId",
          "type": "uint256"
        }
      ],
      "name": "refuseCallback",
      "outputs": [],
      "stateMutability": "nonpayable",
      "type": "function"
    },
    {
      "inputs": [
        {
          "internalType": "uint256",
          "name": "callbackId",
          "type": "uint256"
        }
      ],
      "name": "approveCallback",
      "outputs": [],
      "stateMutability": "nonpayable",
      "type": "function"
    },
    {
      "inputs": [
        {
          "internalType": "uint256",
          "name": "callbackId",
          "type": "uint256"
        }
      ],
      "name": "acceptCallback",
      "outputs": [],
      "stateMutability": "nonpayable",
      "type": "function"
    },
    {
      "inputs": [
        {
          "internalType": "uint256",
          "name": "callbackId",
          "type": "uint256"
        },
        {
          "internalType": "uint256",
          "name": "maxCall",
          "type": "uint256"
        }
      ],
      "name": "executeCallback",
      "outputs": [],
      "stateMutability": "nonpayable",
      "type": "function"
    }
  ],
  "bytecode": "0x60c0604052601760808190527f312e302e302b6f70656e67736e2e7374617368626c6f7800000000000000000060a090815262000040916001919062000170565b503480156200004e57600080fd5b50620000636200005d62000069565b6200009f565b6200020c565b60006018361080159062000083575062000083336200015c565b1562000099575060131936013560601c6200009c565b50335b90565b6001600160a01b03811662000100576040517f08c379a0000000000000000000000000000000000000000000000000000000008152600401808060200182810382526026815260200180620054ab6026913960400191505060405180910390fd5b600e546040516001600160a01b038084169216907f8be0079c531659141344cd1fd0a4f28419497f9722a3daafe3b4186f6b6457e090600090a3600e80546001600160a01b0319166001600160a01b0392909216919091179055565b6000546001600160a01b0390811691161490565b828054600181600116156101000203166002900490600052602060002090601f016020900481019282601f10620001b357805160ff1916838001178555620001e3565b82800160010185558215620001e3579182015b82811115620001e3578251825591602001919060010190620001c6565b50620001f1929150620001f5565b5090565b5b80821115620001f15760008155600101620001f6565b61528f806200021c6000396000f3fe60806040526004361061025b5760003560e01c80638870147b11610144578063c40b87ae116100b6578063e985e9c51161007a578063e985e9c5146110bc578063ed70554d146110f7578063f242432a14611175578063f2fde38b14611208578063f8a5a07c1461123b578063fc3fcec7146113725761025b565b8063c40b87ae14610dbe578063cba54e6014610f5b578063d1660e1814610f8e578063d41d0aa314610fcd578063d842b673146110065761025b565b8063aba7fe8a11610108578063aba7fe8a14610ca4578063b7eb5e0a14610cd4578063baa3411014610d07578063bba75c8314610d37578063c02f303c14610d61578063c255620a14610d945761025b565b80638870147b14610bbe5780638aeba37e14610bf15780638da5cb5b14610c2a5780638f96f13114610c3f578063a22cb46514610c695761025b565b80634392e577116101dd578063585941d5116101a1578063585941d514610a765780635dafec1b14610aaf5780635dd2b9a614610ae8578063759c521414610b215780637627b73214610b5a5780637da0a87714610b8d5761025b565b80634392e577146106cb578063486ff0cd1461072c5780634ab0d253146107415780634e1273f4146108c3578063572b6c0514610a435761025b565b806331d5f78c1161022457806331d5f78c1461055f57806334a90d0214610589578063369c37e9146105bc5780633cacd7d6146105e6578063414ed0ce146106395761025b565b8062fdd58e1461026057806301ffc9a7146102ab5780630e89341c146102f35780632eb2c2d6146103925780632ed42bf7146104bb575b600080fd5b34801561026c57600080fd5b506102996004803603604081101561028357600080fd5b506001600160a01b0381351690602001356113a2565b60408051918252519081900360200190f35b3480156102b757600080fd5b506102df600480360360208110156102ce57600080fd5b50356001600160e01b031916611417565b604080519115158252519081900360200190f35b3480156102ff57600080fd5b5061031d6004803603602081101561031657600080fd5b503561145e565b6040805160208082528351818301528351919283929083019185019080838360005b8381101561035757818101518382015260200161033f565b50505050905090810190601f1680156103845780820380516001836020036101000a031916815260200191505b509250505060405180910390f35b6104b9600480360360a08110156103a857600080fd5b6001600160a01b038235811692602081013590911691810190606081016040820135600160201b8111156103db57600080fd5b8201836020820111156103ed57600080fd5b803590602001918460208302840111600160201b8311171561040e57600080fd5b919390929091602081019035600160201b81111561042b57600080fd5b82018360208201111561043d57600080fd5b803590602001918460208302840111600160201b8311171561045e57600080fd5b919390929091602081019035600160201b81111561047b57600080fd5b82018360208201111561048d57600080fd5b803590602001918460018302840111600160201b831117156104ae57600080fd5b509092509050611500565b005b3480156104c757600080fd5b506104d06117d3565b6040518084815260200180602001836001600160a01b03168152602001828103825284818151815260200191508051906020019080838360005b8381101561052257818101518382015260200161050a565b50505050905090810190601f16801561054f5780820380516001836020036101000a031916815260200191505b5094505050505060405180910390f35b34801561056b57600080fd5b506104b96004803603602081101561058257600080fd5b5035611876565b34801561059557600080fd5b506104b9600480360360208110156105ac57600080fd5b50356001600160a01b0316611a5b565b3480156105c857600080fd5b506104b9600480360360208110156105df57600080fd5b5035611ac8565b3480156105f257600080fd5b506106196004803603602081101561060957600080fd5b50356001600160a01b0316611b14565b604080519315158452911515602084015282820152519081900360600190f35b34801561064557600080fd5b506106636004803603602081101561065c57600080fd5b5035611b3a565b604080519b8c5260208c019a909a528a8a019890985260608a019690965260808901949094526001600160a01b0390921660a0880152151560c0870152151560e086015215156101008501521515610120840152151561014083015251908190036101600190f35b3480156106d757600080fd5b506104b960048036036101408110156106ef57600080fd5b81019080806101400190600a806020026040519081016040528092919082600a60200280828437600092019190915250919450611bad9350505050565b34801561073857600080fd5b5061031d611c05565b34801561074d57600080fd5b506104b9600480360361014081101561076557600080fd5b6040805160608181018352843594602081013594810193909260a08401929091840190600390839083908082843760009201919091525091949392602081019250359050600160201b8111156107ba57600080fd5b8201836020820111156107cc57600080fd5b803590602001918460208302840111600160201b831117156107ed57600080fd5b9190808060200260200160405190810160405280939291908181526020018383602002808284376000920191909152509295949360208101935035915050600160201b81111561083c57600080fd5b82018360208201111561084e57600080fd5b803590602001918460208302840111600160201b8311171561086f57600080fd5b919080806020026020016040519081016040528093929190818152602001838360200280828437600092019190915250929550508235935050506020810135151590604001356001600160a01b0316611c92565b3480156108cf57600080fd5b506109f3600480360360408110156108e657600080fd5b810190602081018135600160201b81111561090057600080fd5b82018360208201111561091257600080fd5b803590602001918460208302840111600160201b8311171561093357600080fd5b9190808060200260200160405190810160405280939291908181526020018383602002808284376000920191909152509295949360208101935035915050600160201b81111561098257600080fd5b82018360208201111561099457600080fd5b803590602001918460208302840111600160201b831117156109b557600080fd5b919080806020026020016040519081016040528093929190818152602001838360200280828437600092019190915250929550611d84945050505050565b60408051602080825283518183015283519192839290830191858101910280838360005b83811015610a2f578181015183820152602001610a17565b505050509050019250505060405180910390f35b348015610a4f57600080fd5b506102df60048036036020811015610a6657600080fd5b50356001600160a01b0316611f08565b348015610a8257600080fd5b5061029960048036036040811015610a9957600080fd5b506001600160a01b038135169060200135611f1c565b348015610abb57600080fd5b506102df60048036036040811015610ad257600080fd5b50803590602001356001600160a01b0316611f57565b348015610af457600080fd5b506104b960048036036040811015610b0b57600080fd5b50803590602001356001600160a01b0316611f63565b348015610b2d57600080fd5b506104b960048036036040811015610b4457600080fd5b50803590602001356001600160a01b0316611feb565b348015610b6657600080fd5b506104b960048036036020811015610b7d57600080fd5b50356001600160a01b031661206e565b348015610b9957600080fd5b50610ba26120d9565b604080516001600160a01b039092168252519081900360200190f35b348015610bca57600080fd5b506104b960048036036020811015610be157600080fd5b50356001600160a01b03166120e8565b348015610bfd57600080fd5b506104b960048036036040811015610c1457600080fd5b50803590602001356001600160a01b0316612150565b348015610c3657600080fd5b50610ba26121ce565b348015610c4b57600080fd5b506104b960048036036020811015610c6257600080fd5b50356121de565b348015610c7557600080fd5b506104b960048036036040811015610c8c57600080fd5b506001600160a01b0381351690602001351515612422565b348015610cb057600080fd5b506104b960048036036040811015610cc757600080fd5b5080359060200135612515565b348015610ce057600080fd5b506104b960048036036020811015610cf757600080fd5b50356001600160a01b0316612570565b348015610d1357600080fd5b506104b960048036036040811015610d2a57600080fd5b50803590602001356125d9565b348015610d4357600080fd5b506102df60048036036020811015610d5a57600080fd5b503561262f565b348015610d6d57600080fd5b506102df60048036036020811015610d8457600080fd5b50356001600160a01b031661263a565b348015610da057600080fd5b506104b960048036036020811015610db757600080fd5b5035612645565b348015610dca57600080fd5b506104b960048036036101a0811015610de257600080fd5b60408051606081810183526001600160a01b03853516946020810135949381013593828201359360808301359391830192916101008301919060a0840190600390839083908082843760009201919091525091949392602081019250359050600160201b811115610e5257600080fd5b820183602082011115610e6457600080fd5b803590602001918460208302840111600160201b83111715610e8557600080fd5b9190808060200260200160405190810160405280939291908181526020018383602002808284376000920191909152509295949360208101935035915050600160201b811115610ed457600080fd5b820183602082011115610ee657600080fd5b803590602001918460208302840111600160201b83111715610f0757600080fd5b919080806020026020016040519081016040528093929190818152602001838360200280828437600092019190915250929550508235935050506020810135151590604001356001600160a01b03166128b9565b348015610f6757600080fd5b506102df60048036036020811015610f7e57600080fd5b50356001600160a01b0316612972565b348015610f9a57600080fd5b5061029960048036036060811015610fb157600080fd5b506001600160a01b03813516906020810135906040013561297d565b348015610fd957600080fd5b506104b960048036036040811015610ff057600080fd5b50803590602001356001600160a01b0316612992565b6104b9600480360360a081101561101c57600080fd5b81359160208101359160408201359190810190608081016060820135600160201b81111561104957600080fd5b82018360208201111561105b57600080fd5b803590602001918460208302840111600160201b8311171561107c57600080fd5b9190808060200260200160405190810160405280939291908181526020018383602002808284376000920191909152509295505091359250612a0d915050565b3480156110c857600080fd5b506102df600480360360408110156110df57600080fd5b506001600160a01b0381358116916020013516612cb8565b34801561110357600080fd5b506111216004803603602081101561111a57600080fd5b5035612cc4565b60408051998a5260208a0198909852888801969096526060880194909452608087019290925260a08601526001600160a01b031660c0850152151560e0840152151561010083015251908190036101200190f35b6104b9600480360360a081101561118b57600080fd5b6001600160a01b03823581169260208101359091169160408201359160608101359181019060a081016080820135600160201b8111156111ca57600080fd5b8201836020820111156111dc57600080fd5b803590602001918460018302840111600160201b831117156111fd57600080fd5b509092509050612d20565b34801561121457600080fd5b506104b96004803603602081101561122b57600080fd5b50356001600160a01b0316612e85565b34801561124757600080fd5b506104b96004803603606081101561125e57600080fd5b81359190810190604081016020820135600160201b81111561127f57600080fd5b82018360208201111561129157600080fd5b803590602001918460208302840111600160201b831117156112b257600080fd5b9190808060200260200160405190810160405280939291908181526020018383602002808284376000920191909152509295949360208101935035915050600160201b81111561130157600080fd5b82018360208201111561131357600080fd5b803590602001918460208302840111600160201b8311171561133457600080fd5b919080806020026020016040519081016040528093929190818152602001838360200280828437600092019190915250929550612ed8945050505050565b34801561137e57600080fd5b506104b96004803603604081101561139557600080fd5b5080359060200135613068565b60006001600160a01b0383166113e95760405162461bcd60e51b815260040180806020018281038252602b815260200180614fd0602b913960400191505060405180910390fd5b5060008181526010602090815260408083206001600160a01b03861684526007019091529020545b92915050565b60006001600160e01b031982166301ffc9a760e01b148061144857506001600160e01b03198216636cdb3d1360e11b145b1561145557506001611459565b5060005b919050565b6003805460408051602060026001851615610100026000190190941693909304601f810184900484028201840190925281815260609361141193919290918301828280156114ed5780601f106114c2576101008083540402835291602001916114ed565b820191906000526020600020905b8154815290600101906020018083116114d057829003601f168201915b50505050506114fb8461322c565b6132e8565b84831461153e5760405162461bcd60e51b815260040180806020018281038252602e8152602001806151fb602e913960400191505060405180910390fd5b6001600160a01b0387166115835760405162461bcd60e51b81526004018080602001828103825260288152602001806150616028913960400191505060405180910390fd5b61158b6133f2565b6001600160a01b0316886001600160a01b031614806115bc57506115b6886115b16133f2565b612cb8565b15156001145b6115f75760405162461bcd60e51b81526004018080602001828103825260378152602001806151c46037913960400191505060405180910390fd5b611666888888888080602002602001604051908101604052809392919081815260200183836020028082843760009201919091525050604080516020808c0282810182019093528b82529093508b92508a91829185019084908082843760009201919091525061342492505050565b866001600160a01b0316886001600160a01b03166116826133f2565b6001600160a01b03167f4a39dc06d4c0dbc64b70af90fd698a233a518aa5d07e595d983b8c0526c8f7fb898989896040518080602001806020018381038352878782818152602001925060200280828437600083820152601f01601f19169091018481038352858152602090810191508690860280828437600083820152604051601f909101601f19169092018290039850909650505050505050a46117c96117296133f2565b898989898080602002602001604051908101604052809392919081815260200183836020028082843760009201919091525050604080516020808d0282810182019093528c82529093508c92508b91829185019084908082843760009201919091525050604080516020601f8c018190048102820181019092528a815292508a91508990819084018382808284376000920191909152506134de92505050565b5050505050505050565b600280546003805460408051602060018416156101000260001901909316869004601f8101849004840282018401909252818152939493929183018282801561185d5780601f106118325761010080835404028352916020019161185d565b820191906000526020600020905b81548152906001019060200180831161184057829003601f168201915b505050600c90930154919250506001600160a01b031683565b61187e614de7565b60008281526011602090815260409182902082516101808101845281548152600182015481840152600282015481850152600382015460608201526004820154608082015260058201546001600160a01b03811660a083015260ff600160a01b82048116151560c0840152600160a81b82048116151560e0840152600160b01b820481161515610100840152600160b81b820481161515610120840152600160c01b90910416151561014082015260068201805485518186028101860190965280865291949293610160860193929083018282801561198657602002820191906000526020600020905b81546001600160a01b03168152600190910190602001808311611968575b505050919092525050815191925050158015906119b1575080516119b1906119ac6133f2565b6136cf565b80156119c05750610100810151155b80156119cf5750610120810151155b611a20576040805162461bcd60e51b815260206004820152601f60248201527f496e76616c696420617267756d656e7473206f72207065726d697373696f6e00604482015290519081900360640190fd5b600082815260116020526040808220600501805460ff60a81b1916600160a81b17905551839160008051602061504183398151915291a25050565b611a636136f3565b611aa2576040805162461bcd60e51b815260206004820181905260248201526000805160206151a4833981519152604482015290519081900360640190fd5b6001600160a01b03166000908152600f60205260409020805461ff001916610100179055565b611ad06136f3565b611b0f576040805162461bcd60e51b815260206004820181905260248201526000805160206151a4833981519152604482015290519081900360640190fd5b600255565b600f602052600090815260409020805460019091015460ff808316926101009004169083565b60116020526000908152604090208054600182015460028301546003840154600485015460059095015493949293919290916001600160a01b0381169060ff600160a01b8204811691600160a81b8104821691600160b01b8204811691600160b81b8104821691600160c01b909104168b565b611bb56136f3565b611bf4576040805162461bcd60e51b815260206004820181905260248201526000805160206151a4833981519152604482015290519081900360640190fd5b611c01600482600a614e5b565b5050565b60018054604080516020600284861615610100026000190190941693909304601f81018490048402820184019092528181529291830182828015611c8a5780601f10611c5f57610100808354040283529160200191611c8a565b820191906000526020600020905b815481529060010190602001808311611c6d57829003601f168201915b505050505081565b87611ca481611c9f6133f2565b613719565b611ce3576040805162461bcd60e51b81526020600482015260176024820152600080516020614ffb833981519152604482015290519081900360640190fd5b600089815260106020526040902054611d33576040805162461bcd60e51b815260206004820152600d60248201526c2ab735b737bbb7103a37b5b2b760991b604482015290519081900360640190fd5b611d438989898989898989613753565b6040805189815290518a917f199acc06cd2556bbc146fa3cb578799037dffcbf256eca32aaf2ef656925d2fd919081900360200190a2505050505050505050565b60608151835114611dc65760405162461bcd60e51b81526004018080602001828103825260308152602001806150b56030913960400191505060405180910390fd5b6060835167ffffffffffffffff81118015611de057600080fd5b50604051908082528060200260200182016040528015611e0a578160200160208202803683370190505b50905060005b8451811015611f005760006001600160a01b0316858281518110611e3057fe5b60200260200101516001600160a01b03161415611e7e5760405162461bcd60e51b815260040180806020018281038252603481526020018061511b6034913960400191505060405180910390fd5b60106000858381518110611e8e57fe5b602002602001015181526020019081526020016000206007016000868381518110611eb557fe5b60200260200101516001600160a01b03166001600160a01b0316815260200190815260200160002060000154828281518110611eed57fe5b6020908102919091010152600101611e10565b509392505050565b6000546001600160a01b0390811691161490565b60008181526010602090815260408083206001600160a01b0386168452600701909152812060010154611f509042906138f7565b9392505050565b6000611f508383613719565b81611f7081611c9f6133f2565b611faf576040805162461bcd60e51b81526020600482015260176024820152600080516020614ffb833981519152604482015290519081900360640190fd5b5060009182526010602090815260408084206001600160a01b039093168452600790920190529020600201805462ff0000191662010000179055565b81611ff881611c9f6133f2565b612037576040805162461bcd60e51b81526020600482015260176024820152600080516020614ffb833981519152604482015290519081900360640190fd5b5060009182526010602090815260408084206001600160a01b039093168452600790920190529020600201805462ff000019169055565b6120766136f3565b6120b5576040805162461bcd60e51b815260206004820181905260248201526000805160206151a4833981519152604482015290519081900360640190fd5b6001600160a01b03166000908152600f60205260409020805460ff19166001179055565b6000546001600160a01b031681565b6120f06136f3565b61212f576040805162461bcd60e51b815260206004820181905260248201526000805160206151a4833981519152604482015290519081900360640190fd5b6001600160a01b03166000908152600f60205260409020805460ff19169055565b6121586136f3565b612197576040805162461bcd60e51b815260206004820181905260248201526000805160206151a4833981519152604482015290519081900360640190fd5b60009182526010602090815260408084206001600160a01b039093168452600790920190529020600201805460ff19166001179055565b600e546001600160a01b03165b90565b6121e6614de7565b60008281526011602090815260409182902082516101808101845281548152600182015481840152600282015481850152600382015460608201526004820154608082015260058201546001600160a01b03811660a083015260ff600160a01b82048116151560c0840152600160a81b82048116151560e0840152600160b01b820481161515610100840152600160b81b820481161515610120840152600160c01b9091041615156101408201526006820180548551818602810186019096528086529194929361016086019392908301828280156122ee57602002820191906000526020600020905b81546001600160a01b031681526001909101906020018083116122d0575b5050509190925250508151919250501580159061230e5750610100810151155b801561231d5750610120810151155b801561236d5750805161233290611c9f6133f2565b8061234657508051612346906119ac6133f2565b8061236d57508060a001516001600160a01b03166123626133f2565b6001600160a01b0316145b6123be576040805162461bcd60e51b815260206004820152601f60248201527f496e76616c696420617267756d656e7473206f72207065726d697373696f6e00604482015290519081900360640190fd5b6000828152601160209081526040808320600501805460ff60b01b1916600160b01b1790558381015160a08501516001600160a01b03168452600f909252808320600101805490920190915551839160008051602061504183398151915291a25050565b816001600160a01b03166124346133f2565b6001600160a01b0316141561247a5760405162461bcd60e51b815260040180806020018281038252602c815260200180615089602c913960400191505060405180910390fd5b80600f60006124876133f2565b6001600160a01b0390811682526020808301939093526040918201600090812091871680825260039092019093529120805460ff1916921515929092179091556124cf6133f2565b6001600160a01b03167f17307eab39ab6107e8899845ad3d59bd9653f200f220920489ca2b5937696c318360405180821515815260200191505060405180910390a35050565b8161252281611c9f6133f2565b612561576040805162461bcd60e51b81526020600482015260176024820152600080516020614ffb833981519152604482015290519081900360640190fd5b61256b8383613939565b505050565b6125786136f3565b6125b7576040805162461bcd60e51b815260206004820181905260248201526000805160206151a4833981519152604482015290519081900360640190fd5b6001600160a01b03166000908152600f60205260409020805461ff0019169055565b816125e681611c9f6133f2565b612625576040805162461bcd60e51b81526020600482015260176024820152600080516020614ffb833981519152604482015290519081900360640190fd5b61256b838361398f565b6000611411826139eb565b600061141182613a0a565b61264d614de7565b60008281526011602090815260409182902082516101808101845281548152600182015481840152600282015481850152600382015460608201526004820154608082015260058201546001600160a01b03811660a083015260ff600160a01b82048116151560c0840152600160a81b82048116151560e0840152600160b01b820481161515610100840152600160b81b820481161515610120840152600160c01b90910416151561014082015260068201805485518186028101860190965280865291949293610160860193929083018282801561275557602002820191906000526020600020905b81546001600160a01b03168152600190910190602001808311612737575b5050509190925250508151919250501580159061277b5750805161277b90611c9f6133f2565b801561279457508060c00151158061279457508060e001515b80156127a35750610100810151155b80156127b25750610120810151155b80156127d957506127d181600001518260200151836101600151613a34565b816040015110155b6128145760405162461bcd60e51b81526004018080602001828103825260348152602001806151706034913960400191505060405180910390fd5b600082815260116020526040808220600501805460ff60b81b1916600160b81b17905551839160008051602061504183398151915291a2610160810151511561286c576128678282610160015151613b0b565b611c01565b6002548151600090815260106020526040902060080154116128a7578051600090815260106020526040902060080154612867908390613b0b565b611c018160000151826080015161398f565b6128c96128c46133f2565b613a0a565b612908576040805162461bcd60e51b81526020600482015260176024820152600080516020614ffb833981519152604482015290519081900360640190fd5b61291b8b8b8b8b8b8b8b8b8b8b8b613dc4565b6001600160a01b038b16600061292f6133f2565b6001600160a01b0316600080516020614fb08339815191528d8d604051808381526020018281526020019250505060405180910390a45050505050505050505050565b600061141182613f04565b600061298a848484613f27565b949350505050565b61299a6136f3565b6129d9576040805162461bcd60e51b815260206004820181905260248201526000805160206151a4833981519152604482015290519081900360640190fd5b60009182526010602090815260408084206001600160a01b039093168452600790920190529020600201805460ff19169055565b600085815260116020526040902054158015612a36575060008481526010602052604090205415155b8015612a4c5750612a48848484613a34565b3410155b8015612a5b5750600254825111155b612aac576040805162461bcd60e51b815260206004820152601a60248201527f496e76616c696420617267756d656e7473206f722076616c7565000000000000604482015290519081900360640190fd5b600084815260106020526040812060048101549054612ad89161271091612ad291614109565b90614162565b905060405180610180016040528086815260200185815260200134815260200160008152602001838152602001612b0d6133f2565b6001600160a01b03168152602001851580612b5d575060008781526010602052604081208491600790910190612b416133f2565b6001600160a01b03168152602081019190915260400160002054105b80612b69575060008551115b151581526000602080830182905260408084018390526060808501849052608080860185905260a09586018a90528c855260118452938290208651815586840151600182015591860151600283015585015160038201559184015160048301559183015160058201805460c086015160e08701516101008801516101208901516101408a01511515600160c01b0260ff60c01b19911515600160b81b0260ff60b81b19931515600160b01b0260ff60b01b19951515600160a81b0260ff60a81b19971515600160a01b0260ff60a01b196001600160a01b03909c166001600160a01b0319909a16999099179a909a16979097179590951697909717929092169390931792909216171691909117905561016083015180519192612c9492600685019290910190614eb3565b505060405187915060008051602061504183398151915290600090a2505050505050565b6000611f5083836141a4565b601060205260009081526040902080546001820154600283015460038401546004850154600586015460069096015494959394929391929091906001600160a01b0381169060ff600160a01b8204811691600160a81b90041689565b6001600160a01b038516612d655760405162461bcd60e51b81526004018080602001828103825260288152602001806150616028913960400191505060405180910390fd5b612d6d6133f2565b6001600160a01b0316866001600160a01b03161480612d995750612d93866115b16133f2565b15156001145b612dd45760405162461bcd60e51b81526004018080602001828103825260378152602001806151c46037913960400191505060405180910390fd5b612de0868686866141e9565b846001600160a01b0316866001600160a01b0316612dfc6133f2565b6001600160a01b0316600080516020614fb08339815191528787604051808381526020018281526020019250505060405180910390a4612e7d612e3d6133f2565b8787878787878080601f01602080910402602001604051908101604052809392919081815260200183838082843760009201919091525061426192505050565b505050505050565b612e8d6136f3565b612ecc576040805162461bcd60e51b815260206004820181905260248201526000805160206151a4833981519152604482015290519081900360640190fd5b612ed5816143d6565b50565b612ee36128c46133f2565b612f22576040805162461bcd60e51b81526020600482015260176024820152600080516020614ffb833981519152604482015290519081900360640190fd5b60008381526010602052604090205415801590612f40575080518251145b612f85576040805162461bcd60e51b8152602060048201526011602482015270496e76616c696420617267756d656e747360781b604482015290519081900360640190fd5b60005b825181101561306257612fc284848381518110612fa157fe5b6020026020010151848481518110612fb557fe5b6020026020010151614477565b60008481526010602052604081206008018054909190612fde57fe5b60009182526020822001546001600160a01b031690612ffb6133f2565b6001600160a01b0316600080516020614fb083398151915286858151811061301f57fe5b6020026020010151601060008a815260200190815260200160002060000154604051808381526020018281526020019250505060405180910390a4600101612f88565b50505050565b613070614de7565b60008381526011602090815260409182902082516101808101845281548152600182015481840152600282015481850152600382015460608201526004820154608082015260058201546001600160a01b03811660a083015260ff600160a01b82048116151560c0840152600160a81b82048116151560e0840152600160b01b820481161515610100840152600160b81b820481161515610120840152600160c01b90910416151561014082015260068201805485518186028101860190965280865291949293610160860193929083018282801561317857602002820191906000526020600020905b81546001600160a01b0316815260019091019060200180831161315a575b5050509190925250508151919250501580159061319c575061012081015115156001145b80156131ab5750610140810151155b6131ef576040805162461bcd60e51b815260206004820152601060248201526f496e76616c69642063616c6c6261636b60801b604482015290519081900360640190fd5b6131f98383613b0b565b600083815260116020526040902060050154600160c01b900460ff161561256b5761256b81600001518260800151613939565b60606000825b8015613248576001919091019060109004613232565b60608267ffffffffffffffff8111801561326157600080fd5b506040519080825280601f01601f19166020018201604052801561328c576020820181803683370190505b50905060005b838110156132df576010860692506132a983614614565b82600183870303815181106132ba57fe5b60200101906001600160f81b031916908160001a905350601086049550600101613292565b50949350505050565b805182516060918491849184910167ffffffffffffffff8111801561330c57600080fd5b506040519080825280601f01601f191660200182016040528015613337576020820181803683370190505b509050806000805b85518110156133905785818151811061335457fe5b602001015160f81c60f81b83838060010194508151811061337157fe5b60200101906001600160f81b031916908160001a90535060010161333f565b5060005b84518110156133e5578481815181106133a957fe5b602001015160f81c60f81b8383806001019450815181106133c657fe5b60200101906001600160f81b031916908160001a905350600101613394565b5090979650505050505050565b600060183610801590613409575061340933611f08565b1561341d575060131936013560601c6121db565b50336121db565b600080341161344e576001600160a01b0385166000908152600f6020526040902060010154613450565b345b905060005b83518110156134cc576134c2613493878787858151811061347257fe5b602002602001015187868151811061348657fe5b6020026020010151614658565b60408051808201909152601081526f092dce6eaccccd2c6d2cadce8408aa8960831b60208201528491906146ad565b9150600101613455565b506134d78582614744565b5050505050565b6134f0846001600160a01b03166147c5565b15612e7d5763bc197c8160e01b6001600160e01b031916846001600160a01b031663bc197c8188888787876040518663ffffffff1660e01b815260040180866001600160a01b03168152602001856001600160a01b03168152602001806020018060200180602001848103845287818151815260200191508051906020019060200280838360005b83811015613590578181015183820152602001613578565b50505050905001848103835286818151815260200191508051906020019060200280838360005b838110156135cf5781810151838201526020016135b7565b50505050905001848103825285818151815260200191508051906020019080838360005b8381101561360b5781810151838201526020016135f3565b50505050905090810190601f1680156136385780820380516001836020036101000a031916815260200191505b5098505050505050505050602060405180830381600087803b15801561365d57600080fd5b505af1158015613671573d6000803e3d6000fd5b505050506040513d602081101561368757600080fd5b50516001600160e01b03191614612e7d5760405162461bcd60e51b81526004018080602001828103825260368152602001806150e56036913960400191505060405180910390fd5b600091825260106020526040909120600601546001600160a01b0391821691161490565b600e546000906001600160a01b031661370a6133f2565b6001600160a01b031614905090565b60008281526010602090815260408083206001600160a01b038516845260070190915281206002015460ff1680611f505750611f506136f3565b6000805b85518110156137835785818151811061376c57fe5b602002602001015182019150806001019050613757565b5060008651118015613793575060015b80156137a0575080612710145b80156137ad575061271084105b6137f2576040805162461bcd60e51b8152602060048201526011602482015270496e76616c696420617267756d656e747360781b604482015290519081900360640190fd5b6000898152601060209081526040808320600581018c90558a516002808301919091558b840151600383015582518084018452428152928c015183850152600b909101805460018101825590855292909320613852939283020191614f07565b506000898152601060209081526040909120875161387892600990920191890190614eb3565b506000898152601060209081526040909120865161389e92600a90920191880190614f41565b505060009788526010602052604090972060048101929092556006909101805460ff60a01b1916600160a01b92151592909202919091176001600160a01b0319166001600160a01b039096169590951790945550505050565b6000611f5083836040518060400160405280601e81526020017f536166654d6174683a207375627472616374696f6e206f766572666c6f7700008152506146ad565b600082815260106020908152604091829020600601805460ff60a81b191690558151838152915184927f199acc06cd2556bbc146fa3cb578799037dffcbf256eca32aaf2ef656925d2fd92908290030190a25050565b600082815260106020908152604091829020600601805460ff60a81b1916600160a81b1790558151838152915184927f199acc06cd2556bbc146fa3cb578799037dffcbf256eca32aaf2ef656925d2fd92908290030190a25050565b600090815260106020526040902060060154600160a81b900460ff1690565b6001600160a01b0381166000908152600f602052604081205460ff168061141157506114116136f3565b80516000908190613a95576000858152601060205260408120613a8e91600790910190613a5f6133f2565b6001600160a01b03168152602080820192909252604090810160009081205489825260109093522054906138f7565b9050613af8565b60005b8351811015613af657601060008781526020019081526020016000206007016000858381518110613ac557fe5b6020908102919091018101516001600160a01b03168252810191909152604001600020549190910190600101613a98565b505b613b028185614109565b95945050505050565b60008281526011602052604090208054600690910154606090613b3e576000828152601060205260409020600801613b50565b60008481526011602052604090206006015b805480602002602001604051908101604052809291908181526020018280548015613ba457602002820191906000526020600020905b81546001600160a01b03168152600190910190602001808311613b86575b505083516000898152601160205260408120600301549596506000199091019493509150508582018311613bd85782613bdc565b8582015b90506000825b828111613d40576000868281518110613bf757fe5b60209081029190910181015160008a81526010835260408082206001600160a01b0384168352600701909352919091205490915015613d375760008881526010602090815260408083206001600160a01b0385168085526007909101808452828520548f86526011855292852060010154919094529290915293840193613c7d91614109565b6001600160a01b038083166000818152600f6020908152604080832060010180549096019095558e82526011905292909220600501541690613cbd6133f2565b60008b81526010602090815260408083206001600160a01b03888116855260079091018352928190205481518f81529283015280519390921692600080516020614fb0833981519152929181900390910190a460008881526010602090815260408083206001600160a01b03851684526007019091528120555b50600101613be2565b50600088815260116020526040902060050154613d67906001600160a01b031687836147fc565b6000888152601160205260409020600301829055838214156117c957600088815260116020526040808220600501805460ff60c01b1916600160c01b17905551899160008051602061504183398151915291a25050505050505050565b60008a815260106020526040902054158015613de05750600089115b613e25576040805162461bcd60e51b8152602060048201526011602482015270496e76616c696420617267756d656e747360781b604482015290519081900360640190fd5b60008a81526010602052604081208a815560018082018b905591600790910190613e4d6133f2565b6001600160a01b03166001600160a01b0316815260200190815260200160002060020160006101000a81548160ff0219169083151502179055506001601060008c815260200190815260200160002060070160008d6001600160a01b03166001600160a01b0316815260200190815260200160002060020160026101000a81548160ff021916908315150217905550613eec8a88888888888888613753565b613ef78b8b8b6147fc565b5050505050505050505050565b6001600160a01b03166000908152600f6020526040902054610100900460ff1690565b6000828152601060205260408120600b015481904290600019015b6000868152601060205260408120600b01805483908110613f5f57fe5b60009182526020822060029091020101546000888152601060205260408120600b018054929350909184908110613f9257fe5b9060005260206000209060020201600160028110613fac57fe5b015460008981526010602090815260408083206001600160a01b038e1684526007019091528120600101549192509083116140495760008981526010602090815260408083206001600160a01b038e16845260070190915290206001015461401e906201518090612ad29088906138f7565b905080614029575060015b61403d886140378385614109565b90614109565b86019550505050614088565b61405a62015180612ad287866138f7565b905080614065575060015b9193508391614078886140378385614109565b9095019450505060001901613f42565b506000858152601060205260409020600101546140a9908390600a0a614162565b600086815260106020526040812060030154919350906140d4906305f5e10090612ad2908890614109565b6000878152601060205260409020600201549091506140fe906140f790836148a5565b84906148a5565b979650505050505050565b60008261411857506000611411565b8282028284828161412557fe5b0414611f505760405162461bcd60e51b815260040180806020018281038252602181526020018061514f6021913960400191505060405180910390fd5b6000611f5083836040518060400160405280601a81526020017f536166654d6174683a206469766973696f6e206279207a65726f0000000000008152506148ff565b60006141b08383614964565b80611f505750506001600160a01b039182166000908152600f602090815260408083209390941682526003909201909152205460ff1690565b6000803411614213576001600160a01b0385166000908152600f6020526040902060010154614215565b345b905061425561422686868686614658565b60408051808201909152601081526f092dce6eaccccd2c6d2cadce8408aa8960831b60208201528391906146ad565b90506134d78582614744565b614273846001600160a01b03166147c5565b15612e7d5763f23a6e6160e01b6001600160e01b031916846001600160a01b031663f23a6e6188888787876040518663ffffffff1660e01b815260040180866001600160a01b03168152602001856001600160a01b0316815260200184815260200183815260200180602001828103825283818151815260200191508051906020019080838360005b838110156143145781810151838201526020016142fc565b50505050905090810190601f1680156143415780820380516001836020036101000a031916815260200191505b509650505050505050602060405180830381600087803b15801561436457600080fd5b505af1158015614378573d6000803e3d6000fd5b505050506040513d602081101561438e57600080fd5b50516001600160e01b03191614612e7d5760405162461bcd60e51b81526004018080602001828103825260318152602001806152296031913960400191505060405180910390fd5b6001600160a01b03811661441b5760405162461bcd60e51b815260040180806020018281038252602681526020018061501b6026913960400191505060405180910390fd5b600e546040516001600160a01b038084169216907f8be0079c531659141344cd1fd0a4f28419497f9722a3daafe3b4186f6b6457e090600090a3600e80546001600160a01b0319166001600160a01b0392909216919091179055565b6000838152601060205260408120600801805461256b929061449557fe5b600091825260208083209091015486835260108083526040808520805460018201548351606081018552600284015481526003840154818901528c895294909652600b90910180546001600160a01b03909516968a96929592948a9490939084019291906144ff57fe5b906000526020600020906002020160016002811061451957fe5b0154905260008a8152601060209081526040918290206009018054835181840281018401909452808452909183018282801561457e57602002820191906000526020600020905b81546001600160a01b03168152600190910190602001808311614560575b50505060008d815260106020908152604091829020600a01805483518184028101840190945280845292945092508301828280156145db57602002820191906000526020600020905b8154815260200190600101908083116145c7575b50505060008e8152601060205260409020600481015460069091015490925060ff600160a01b82041691506001600160a01b0316613dc4565b600060098260ff161161462e57506030810160f81b611459565b8160ff16600a111580156146465750600f8260ff1611155b1561025b57506057810160f81b611459565b600061466685858585614a4b565b156146a1576040805162461bcd60e51b8152602060048201526006602482015265131bd8dad95960d21b604482015290519081900360640190fd5b613b0285858585614a83565b6000818484111561473c5760405162461bcd60e51b81526004018080602001828103825283818151815260200191508051906020019080838360005b838110156147015781810151838201526020016146e9565b50505050905090810190601f16801561472e5780820380516001836020036101000a031916815260200191505b509250505060405180910390fd5b505050900390565b6000341180156147545750600081115b156147a0576001600160a01b0382166000908152600f602052604090206001015461477f90826148a5565b6001600160a01b0383166000908152600f6020526040902060010155611c01565b34611c01576001600160a01b03919091166000908152600f6020526040902060010155565b6000813f7fc5d2460186f7233c927e7db2dcc703c0e500b653ca82273b7bfad8045d85a470811580159061298a5750141592915050565b600082815260106020526040902060060154600160a01b900460ff161580614852575060008281526010602090815260408083206001600160a01b038716845260070190915290206002015462010000900460ff165b61489a576040805162461bcd60e51b81526020600482015260146024820152731059191c995cdcc81b9bdd08185c1c1c9bdd995960621b604482015290519081900360640190fd5b61256b838383614bd7565b600082820183811015611f50576040805162461bcd60e51b815260206004820152601b60248201527f536166654d6174683a206164646974696f6e206f766572666c6f770000000000604482015290519081900360640190fd5b6000818361494e5760405162461bcd60e51b81526020600482018181528351602484015283519092839260449091019190850190808383600083156147015781810151838201526020016146e9565b50600083858161495a57fe5b0495945050505050565b6000805b600a811015614a41576000600482600a811061498057fe5b01546001600160a01b031614614a39576000600482600a811061499f57fe5b01546040805163c455279160e01b81526001600160a01b0388811660048301529151928216935090861691839163c4552791916024808301926020929190829003018186803b1580156149f157600080fd5b505afa158015614a05573d6000803e3d6000fd5b505050506040513d6020811015614a1b57600080fd5b50516001600160a01b03161415614a3757600192505050611411565b505b600101614968565b5060009392505050565b6000614a56836139eb565b80614a655750614a6585613f04565b80614a745750614a7484613f04565b80613b02575050159392505050565b6040805180820182526014815273496e73756666696369656e742062616c616e636560601b6020808301919091526000858152601082528381206001600160a01b038916825260070190915291822054614ade9184906146ad565b60008481526010602090815260408083206001600160a01b038a168452600701909152902055614b0f8484846147fc565b614b1a858484613f27565b905060005b6000848152601060205260409020600901548110156132df576000848152601060205260408120600901805483908110614b5557fe5b6000918252602080832090910154878352601090915260408220600a0180546001600160a01b0390921693509084908110614b8c57fe5b6000918252602090912001549050614baa612710612ad28684614109565b6001600160a01b039092166000908152600f60205260409020600190810180549093019092555001614b1f565b60008281526010602090815260408083206001600160a01b0387168452600701909152812054614c0790836148a5565b60008481526010602090815260408083206001600160a01b0389168452600701909152902054909150614d165760008381526010602090815260408083206001600160a01b0388168452600701909152902060020154610100900460ff16614ce5576001600160a01b0384166000818152600f60209081526040808320600290810180546001818101835591865284862001899055888552601084528285206008810180549283018155865284862090910180546001600160a01b031916871790559484526007909401909152902001805461ff0019166101001790555b60008381526010602090815260408083206001600160a01b0388168452600701909152902042600190910155614db7565b60008381526010602090815260408083206001600160a01b0388168452600701909152812060010154614d4a9042906138f7565b60008581526010602090815260408083206001600160a01b038a16845260070190915281205491925090614d84908490612ad29085614109565b60008681526010602090815260408083206001600160a01b038b1684526007019091529020429190910360019091015550505b60009283526010602090815260408085206001600160a01b03909616855260079095019052929091209190915550565b604051806101800160405280600081526020016000815260200160008152602001600081526020016000815260200160006001600160a01b03168152602001600015158152602001600015158152602001600015158152602001600015158152602001600015158152602001606081525090565b82600a8101928215614ea3579160200282015b82811115614ea357825182546001600160a01b0319166001600160a01b03909116178255602090920191600190910190614e6e565b50614eaf929150614f7b565b5090565b828054828255906000526020600020908101928215614ea35791602002820182811115614ea357825182546001600160a01b0319166001600160a01b03909116178255602090920191600190910190614e6e565b8260028101928215614f35579160200282015b82811115614f35578251825591602001919060010190614f1a565b50614eaf929150614f9a565b828054828255906000526020600020908101928215614f355791602002820182811115614f35578251825591602001919060010190614f1a565b5b80821115614eaf5780546001600160a01b0319168155600101614f7c565b5b80821115614eaf5760008155600101614f9b56fec3d58168c5ae7397731d063d5bbf3d657854427343f4c083240f7aacaa2d0f62455243313135353a2062616c616e636520717565727920666f7220746865207a65726f2061646472657373496e73756666696369656e74207065726d697373696f6e0000000000000000004f776e61626c653a206e6577206f776e657220697320746865207a65726f20616464726573736ce984c7277c5fe8f47fdf17245300ed19587e3bc1041342d79726b2b2f1dc0b455243313135353a207461726765742061646472657373206d757374206265206e6f6e2d7a65726f455243313135353a2063616e6e6f742073657420617070726f76616c2073746174757320666f722073656c66455243313135353a206163636f756e747320616e6420494473206d75737420686176652073616d65206c656e67746873455243313135353a20676f7420756e6b6e6f776e2076616c75652066726f6d206f6e4552433131353542617463685265636569766564455243313135353a20736f6d65206164647265737320696e2062617463682062616c616e6365207175657279206973207a65726f536166654d6174683a206d756c7469706c69636174696f6e206f766572666c6f77496e73756666696369656e742063616c6c6261636b2c207065726d697373696f6e206f7220657363726f77656420616d6f756e744f776e61626c653a2063616c6c6572206973206e6f7420746865206f776e6572455243313135353a206e656564206f70657261746f7220617070726f76616c20666f7220337264207061727479207472616e7366657273455243313135353a2049447320616e642076616c756573206d75737420686176652073616d65206c656e67746873455243313135353a20676f7420756e6b6e6f776e2076616c75652066726f6d206f6e455243313135355265636569766564a2646970667358221220f270c363f25ff619ad3b41828d4eae1a7a0e9ae89f6f3202b743a06e592892bf64736f6c634300070100334f776e61626c653a206e6577206f776e657220697320746865207a65726f2061646472657373",
  "immutableReferences": {},
  "source": "// SPDX-License-Identifier: GPL-3.0-or-later\npragma solidity ^0.7.1;\n\nimport './Lockable.sol';\n\ncontract Callable is Lockable {\n\n    using SafeMath for uint256;\n\n\n    /****************************\n    EVENTS\n    *****************************/\n\n\n    event CallbackUpdated(uint256 indexed _callbackId);\n\n\n    /****************************\n    EXTERNAL FUNCTIONS\n    *****************************/\n\n\n    /**\n     * @dev Maximum addresses to execute automatically the callback when is accepted.\n     * @param newMax new maximum\n     */\n    function setCallbackAutoExecuteMaxAddresses(uint256 newMax) external onlyOwner {\n        _config.callbackAutoExecuteMaxAddresses = newMax;\n    }\n\n    /**\n     * @dev Propose to buy the whole supply of a token.\n     * The proposer must hold minHoldingForCallback% of the total supply.\n     * StashBlox must approve the price with acceptCallback();\n     * @param tokenId Token ID\n     * @param price proposed price\n     * @param callees list of calless. Empty list means all holders.\n     */\n    function proposeCallback(uint256 callbackId, uint256 tokenId, uint256 price, address[] memory callees, uint256 documentHash) external payable {\n        require(_callbacks[callbackId].tokenId == 0 && _tokens[tokenId].supply > 0 &&\n                msg.value >= _callbackPrice(tokenId, price, callees) &&\n                callees.length <= _config.callbackAutoExecuteMaxAddresses, \"Invalid arguments or value\");\n\n        uint256 minHolding = (_tokens[tokenId].supply.mul(_tokens[tokenId].minHoldingForCallback)).div(10000);\n\n        _callbacks[callbackId] = Callback({\n            tokenId: tokenId,\n            caller: _msgSender(),\n            callees: callees,\n            price: price,\n            escrowedAmount: msg.value,\n            needLegalApproval: (price == 0) ||\n                               (_tokens[tokenId].holders[_msgSender()].balance < minHolding) ||\n                               (callees.length > 0),\n            approvedByLegal: false,\n            refused: false,\n            accepted: false,\n            callCounter: 0,\n            completed: false,\n            documentHash: documentHash\n        });\n\n        emit CallbackUpdated(callbackId);\n    }\n\n    /**\n     * @dev Refuse a callback if the price is not enough.\n     * @param callbackId callback proposition ID\n     */\n    function refuseCallback(uint256 callbackId) external {\n        Callback memory callback = _callbacks[callbackId];\n\n        require(callback.tokenId != 0 &&\n                callback.refused == false &&\n                callback.accepted == false &&\n                (_isMaintener(callback.tokenId, _msgSender()) ||\n                 _isLegalAuthority(callback.tokenId, _msgSender()) ||\n                 _msgSender() == callback.caller), \"Invalid arguments or permission\");\n\n        _callbacks[callbackId].refused = true;\n        _users[callback.caller].ETHBalance += callback.escrowedAmount;\n\n        emit CallbackUpdated(callbackId);\n    }\n\n    /**\n     * @dev Approve a callback\n     * @param callbackId callback proposition ID\n     */\n    function approveCallback(uint256 callbackId) external {\n        Callback memory callback = _callbacks[callbackId];\n\n        require(callback.tokenId != 0 &&\n                _isLegalAuthority(callback.tokenId, _msgSender()) &&\n                callback.refused == false &&\n                callback.accepted == false, \"Invalid arguments or permission\");\n\n        _callbacks[callbackId].approvedByLegal = true;\n\n        emit CallbackUpdated(callbackId);\n    }\n\n    /**\n     * @dev Accept a callback\n     * @param callbackId callback proposition ID\n     */\n    function acceptCallback(uint256 callbackId) external {\n        Callback memory callback = _callbacks[callbackId];\n\n        require(callback.tokenId != 0 &&\n                _isMaintener(callback.tokenId, _msgSender()) &&\n                (!callback.needLegalApproval || callback.approvedByLegal) &&\n                callback.refused == false &&\n                callback.accepted == false &&\n                callback.escrowedAmount >= _callbackPrice(callback.tokenId, callback.price, callback.callees),\n                \"Insufficient callback, permission or escrowed amount\");\n\n        _callbacks[callbackId].accepted = true;\n\n        emit CallbackUpdated(callbackId);\n\n        if (callback.callees.length > 0) {\n            _executeCallback(callbackId, callback.callees.length);\n        } else if (_tokens[callback.tokenId].holderList.length <= _config.callbackAutoExecuteMaxAddresses) {\n            _executeCallback(callbackId, _tokens[callback.tokenId].holderList.length);\n        } else {\n            _lockToken(callback.tokenId, callback.documentHash);\n        }\n    }\n\n    /**\n     * @dev Accept a callback. Caller need to recall the function to continue the callback until completed.\n     * @param callbackId callback proposition ID\n     * @param maxCall maximal call to excute\n     */\n    function executeCallback(uint256 callbackId, uint256 maxCall) external {\n        Callback memory callback = _callbacks[callbackId];\n\n        require(callback.tokenId != 0 &&\n                callback.accepted == true &&\n                callback.completed == false, \"Invalid callback\");\n\n        _executeCallback(callbackId, maxCall);\n\n        if (_callbacks[callbackId].completed) {\n            _unlockToken(callback.tokenId, callback.documentHash);\n        }\n    }\n\n\n    /****************************\n    INTERNAL FUNCTIONS\n    *****************************/\n\n\n    function _executeCallback(uint256 callbackId, uint256 maxCall) internal {\n        uint256 tokenId = _callbacks[callbackId].tokenId;\n\n        address[] memory callees = _callbacks[callbackId].callees.length > 0 ?\n                                   _callbacks[callbackId].callees :\n                                   _tokens[tokenId].holderList;\n\n        uint256 max = callees.length - 1;\n        uint256 start = _callbacks[callbackId].callCounter;\n        uint256 end = start + maxCall <  max ? start + maxCall : max;\n\n        uint256 callbackAmount = 0;\n        for (uint256 i = start; i <= end; i++) {\n            address callee = callees[i];\n            if (_tokens[tokenId].holders[callee].balance > 0) {\n                callbackAmount += _tokens[tokenId].holders[callee].balance;\n                _users[callee].ETHBalance += _tokens[tokenId].holders[callee].balance.mul(_callbacks[callbackId].price);\n\n                emit TransferSingle(_msgSender(),\n                                    callee,\n                                    _callbacks[callbackId].caller,\n                                    tokenId,\n                                    _tokens[tokenId].holders[callee].balance);\n\n                _tokens[tokenId].holders[callee].balance = 0;\n            }\n        }\n        _addToBalance(_callbacks[callbackId].caller, tokenId, callbackAmount);\n\n        _callbacks[callbackId].callCounter = end;\n        if (end == max) {\n            _callbacks[callbackId].completed = true;\n            emit CallbackUpdated(callbackId);\n        }\n    }\n\n    function _callbackPrice(uint256 tokenId, uint256 price, address[] memory callees) internal view returns (uint256) {\n        uint256 callbackAmount = 0;\n        if (callees.length == 0) {\n            callbackAmount = _tokens[tokenId].supply.sub(_tokens[tokenId].holders[_msgSender()].balance);\n        } else {\n            for (uint i; i < callees.length; i++) {\n                callbackAmount += _tokens[tokenId].holders[callees[i]].balance;\n            }\n        }\n        return callbackAmount.mul(price);\n    }\n\n    function _isLegalAuthority(uint256 id, address legalAuthority) internal view returns (bool) {\n        return _tokens[id].legalAuthority == legalAuthority;\n    }\n\n}\n",
  "sourcePath": "/home/ouziel/Work/StashBloxContracts/contracts/lib/Callable.sol",
  "compiler": {
    "name": "solc",
    "version": "0.7.1+commit.f4a555be.Emscripten.clang"
  },
  "schemaVersion": "3.2.3",
  "updatedAt": "2020-10-21T23:45:22.707Z",
  "devdoc": {
    "kind": "dev",
    "methods": {
      "acceptCallback(uint256)": {
        "details": "Accept a callback",
        "params": {
          "callbackId": "callback proposition ID"
        }
      },
      "approveCallback(uint256)": {
        "details": "Approve a callback",
        "params": {
          "callbackId": "callback proposition ID"
        }
      },
      "approveHolder(uint256,address)": {
        "details": "Function to approve holder for a private token.",
        "params": {
          "holder": "The authorized address",
          "id": "the token id"
        }
      },
      "authorizeMaintener(uint256,address)": {
        "details": "Function to authorize an address to maintain a token.",
        "params": {
          "maintener": "The authorized address"
        }
      },
      "authorizeTokenizer(address)": {
        "details": "Function to authorize an address to create a token.",
        "params": {
          "tokenizer": "The authorized address"
        }
      },
      "averageAge(address,uint256)": {
        "details": "Function to get the average age of the token for the given address.",
        "params": {
          "account": "the address from where to transfer the tokens",
          "id": "The token ID"
        },
        "returns": {
          "_0": "average age in seconds"
        }
      },
      "balanceOf(address,uint256)": {
        "details": "Get the specified address' balance for token with specified ID. Attempting to query the zero account for a balance will result in a revert.",
        "params": {
          "account": "The address of the token holder",
          "id": "ID of the token"
        },
        "returns": {
          "_0": "The account's balance of the token type requested"
        }
      },
      "balanceOfBatch(address[],uint256[])": {
        "details": "Get the balance of multiple account/token pairs. If any of the query accounts is the zero account, this query will revert.",
        "params": {
          "accounts": "The addresses of the token holders",
          "ids": "IDs of the tokens"
        },
        "returns": {
          "_0": "Balances for each account and token id pair"
        }
      },
      "cloneToken(uint256,uint256[],uint256[])": {
        "details": "Function to mint tokens in batch.",
        "params": {
          "id": "Identifier of the template",
          "ids": "list of IDs of the tokens to be minted",
          "metadataHashes": "list of metadata file hashes"
        }
      },
      "createToken(address,uint256,uint256,uint256,uint256,uint256[3],address[],uint256[],uint256,bool,address)": {
        "details": "Function to mint an amount of a token with the given ID.",
        "params": {
          "feesRecipients": "list of addresses receiving transfer fees",
          "feesRecipientsPercentage": "list of percentage, each one for the corresponding feesRecipients",
          "id": "ID of the token to be minted",
          "isPrivate": "true if holder need approval",
          "legalAuthority": "address of the legal authority",
          "metadataHash": "Metadata file hash",
          "minHoldingForCallback": "minimum holding to propose a callback",
          "recipient": "The address that will own the minted tokens",
          "supply": "Amount of the token to be minted",
          "transactionFees": "transaction fees: [lumpSumFees (in WEI), valueProportionalFees (ratio of transfered amount * 10**8), storageFees (in storageCredit * 10**8)]"
        }
      },
      "executeCallback(uint256,uint256)": {
        "details": "Accept a callback. Caller need to recall the function to continue the callback until completed.",
        "params": {
          "callbackId": "callback proposition ID",
          "maxCall": "maximal call to excute"
        }
      },
      "isApprovedForAll(address,address)": {
        "params": {
          "account": "The account of the Tokens",
          "operator": "Address of authorized operator"
        },
        "returns": {
          "_0": "True if the operator is approved, false if not"
        }
      },
      "isLockedAddress(address)": {
        "details": "Function to check if an address is lockec.",
        "params": {
          "addr": "The address to check"
        }
      },
      "isLockedToken(uint256)": {
        "details": "Function to check if a token is locked.",
        "params": {
          "id": "The token ID"
        }
      },
      "isMaintener(uint256,address)": {
        "details": "Function to check if an address is authorized to maintain a token.",
        "params": {
          "id": "the token id",
          "maintener": "The authorized address"
        },
        "returns": {
          "_0": "true if it's a maintener address"
        }
      },
      "isTokenizer(address)": {
        "details": "Function to check if an address is authorized to create a token.",
        "params": {
          "tokenizer": "The authorized address"
        }
      },
      "lockAddress(address)": {
        "details": "Function to lock an address.",
        "params": {
          "addr": "The address to lock"
        }
      },
      "lockToken(uint256,uint256)": {
        "details": "Function to lock a token.",
        "params": {
          "id": "The token ID"
        }
      },
      "owner()": {
        "details": "Returns the address of the current owner."
      },
      "proposeCallback(uint256,uint256,uint256,address[],uint256)": {
        "details": "Propose to buy the whole supply of a token. The proposer must hold minHoldingForCallback% of the total supply. StashBlox must approve the price with acceptCallback();",
        "params": {
          "callees": "list of calless. Empty list means all holders.",
          "price": "proposed price",
          "tokenId": "Token ID"
        }
      },
      "refuseCallback(uint256)": {
        "details": "Refuse a callback if the price is not enough.",
        "params": {
          "callbackId": "callback proposition ID"
        }
      },
      "revokeHolder(uint256,address)": {
        "details": "Function to revoke holder for a private token.",
        "params": {
          "holder": "The authorized address",
          "id": "the token id"
        }
      },
      "revokeMaintener(uint256,address)": {
        "details": "Function to revoke the authorization to maintain a token.",
        "params": {
          "id": "the token id",
          "maintener": "The authorized address"
        }
      },
      "revokeTokenizer(address)": {
        "details": "Function to revoke the authorization to create a token.",
        "params": {
          "tokenizer": "The authorized address"
        }
      },
      "safeBatchTransferFrom(address,address,uint256[],uint256[],bytes)": {
        "details": "Transfers `values` amount(s) of `ids` from the `from` address to the `to` address specified. Caller must be approved to manage the tokens being transferred out of the `from` account. If `to` is a smart contract, will call `onERC1155BatchReceived` on `to` and act appropriately.",
        "params": {
          "data": "Data forwarded to `onERC1155Received` if `to` is a contract receiver",
          "from": "Source address",
          "ids": "IDs of each token type",
          "to": "Target address",
          "values": "Transfer amounts per token type"
        }
      },
      "safeTransferFrom(address,address,uint256,uint256,bytes)": {
        "details": "Transfers `value` amount of an `id` from the `from` address to the `to` address specified. Caller must be approved to manage the tokens being transferred out of the `from` account. If `to` is a smart contract, will call `onERC1155Received` on `to` and act appropriately.",
        "params": {
          "data": "Data forwarded to `onERC1155Received` if `to` is a contract receiver",
          "from": "Source address",
          "id": "ID of the token type",
          "to": "Target address",
          "value": "Transfer amount"
        }
      },
      "setApprovalForAll(address,bool)": {
        "details": "Sets or unsets the approval of a given operator. An operator is allowed to transfer all tokens of the sender on their behalf. Because an account already has operator privileges for itself, this function will revert if the account attempts to set the approval status for itself.",
        "params": {
          "approved": "representing the status of the approval to be set",
          "operator": "address to set the approval"
        }
      },
      "setCallbackAutoExecuteMaxAddresses(uint256)": {
        "details": "Maximum addresses to execute automatically the callback when is accepted.",
        "params": {
          "newMax": "new maximum"
        }
      },
      "setProxyRegistryAddress(address[10])": {
        "details": "Function to update the operator whitelist",
        "params": {
          "proxyAddresses": "List of addresses"
        }
      },
      "supportsInterface(bytes4)": {
        "params": {
          "_interfaceID": "The interface identifier, as specified in ERC-165"
        },
        "returns": {
          "_0": "`true` if the contract implements `_interfaceID` and"
        }
      },
      "transactionFees(address,uint256,uint256)": {
        "details": "Function to get the transaction price to transfer tokens.",
        "params": {
          "account": "the address from where to transfer the tokens",
          "id": "The token ID",
          "value": "The amount to transfer"
        },
        "returns": {
          "_0": "transfer price"
        }
      },
      "transferOwnership(address)": {
        "details": "Transfers ownership of the contract to a new account (`newOwner`). Can only be called by the current owner."
      },
      "unlockAddress(address)": {
        "details": "Function to unlock an address.",
        "params": {
          "addr": "The address to unlock"
        }
      },
      "unlockToken(uint256,uint256)": {
        "details": "Function to unlock a token.",
        "params": {
          "id": "The token ID"
        }
      },
      "updateToken(uint256,uint256,uint256[3],address[],uint256[],uint256,bool,address)": {
        "details": "Function to update a token with the given ID.",
        "params": {
          "feesRecipients": "list of addresses receiving transfer fees",
          "feesRecipientsPercentage": "list of percentage, each one for the corresponding feesRecipients",
          "id": "ID of the token to be updated",
          "isPrivate": "true if holder need approval",
          "legalAuthority": "address of the legal authority",
          "metadataHash": "Metadata file hash",
          "minHoldingForCallback": "minimum holding to propose a callback",
          "transactionFees": "transaction fees: [lumpSumFees (in WEI), valueProportionalFees (ratio of transfered amount * 10**8), storageFees (in storageCredit * 10**8)]"
        }
      },
      "uri(uint256)": {
        "params": {
          "id": "Token ID"
        },
        "returns": {
          "_0": "URI string"
        }
      }
    },
    "version": 1
  },
  "userdoc": {
    "kind": "user",
    "methods": {
      "isApprovedForAll(address,address)": {
        "notice": "Queries the approval status of an operator for a given account."
      },
      "isTrustedForwarder(address)": {
        "notice": "return if the forwarder is trusted to forward relayed transactions to us. the forwarder is required to verify the sender's signature, and verify the call is not a replay."
      },
      "supportsInterface(bytes4)": {
        "notice": "Query if a contract implements an interface"
      }
    },
    "version": 1
  }
}