{
  "contractName": "ChargeableTransfer",
  "abi": [
    {
      "inputs": [
        {
          "internalType": "uint256",
          "name": "",
          "type": "uint256"
        }
      ],
      "name": "_callbacks",
      "outputs": [
        {
          "internalType": "uint256",
          "name": "tokenId",
          "type": "uint256"
        },
        {
          "internalType": "uint256",
          "name": "price",
          "type": "uint256"
        },
        {
          "internalType": "uint256",
          "name": "escrowedAmount",
          "type": "uint256"
        },
        {
          "internalType": "uint256",
          "name": "callCounter",
          "type": "uint256"
        },
        {
          "internalType": "uint256",
          "name": "documentHash",
          "type": "uint256"
        },
        {
          "internalType": "address",
          "name": "caller",
          "type": "address"
        },
        {
          "internalType": "bool",
          "name": "needLegalApproval",
          "type": "bool"
        },
        {
          "internalType": "bool",
          "name": "approvedByLegal",
          "type": "bool"
        },
        {
          "internalType": "bool",
          "name": "refused",
          "type": "bool"
        },
        {
          "internalType": "bool",
          "name": "accepted",
          "type": "bool"
        },
        {
          "internalType": "bool",
          "name": "completed",
          "type": "bool"
        }
      ],
      "stateMutability": "view",
      "type": "function"
    },
    {
      "inputs": [],
      "name": "_config",
      "outputs": [
        {
          "internalType": "uint256",
          "name": "callbackAutoExecuteMaxAddresses",
          "type": "uint256"
        },
        {
          "internalType": "string",
          "name": "baseURI",
          "type": "string"
        },
        {
          "internalType": "address",
          "name": "owner",
          "type": "address"
        }
      ],
      "stateMutability": "view",
      "type": "function"
    },
    {
      "inputs": [
        {
          "internalType": "uint256",
          "name": "",
          "type": "uint256"
        }
      ],
      "name": "_tokens",
      "outputs": [
        {
          "internalType": "uint256",
          "name": "supply",
          "type": "uint256"
        },
        {
          "internalType": "uint256",
          "name": "decimals",
          "type": "uint256"
        },
        {
          "internalType": "uint256",
          "name": "lumpSumTransactionFees",
          "type": "uint256"
        },
        {
          "internalType": "uint256",
          "name": "valueTransactionFees",
          "type": "uint256"
        },
        {
          "internalType": "uint256",
          "name": "minHoldingForCallback",
          "type": "uint256"
        },
        {
          "internalType": "uint256",
          "name": "metadataHash",
          "type": "uint256"
        },
        {
          "internalType": "address",
          "name": "legalAuthority",
          "type": "address"
        },
        {
          "internalType": "bool",
          "name": "isPrivate",
          "type": "bool"
        },
        {
          "internalType": "bool",
          "name": "locked",
          "type": "bool"
        }
      ],
      "stateMutability": "view",
      "type": "function"
    },
    {
      "inputs": [
        {
          "internalType": "address",
          "name": "",
          "type": "address"
        }
      ],
      "name": "_users",
      "outputs": [
        {
          "internalType": "bool",
          "name": "isTokenizer",
          "type": "bool"
        },
        {
          "internalType": "bool",
          "name": "isLocked",
          "type": "bool"
        },
        {
          "internalType": "uint256",
          "name": "ETHBalance",
          "type": "uint256"
        }
      ],
      "stateMutability": "view",
      "type": "function"
    },
    {
      "inputs": [
        {
          "internalType": "address",
          "name": "forwarder",
          "type": "address"
        }
      ],
      "name": "isTrustedForwarder",
      "outputs": [
        {
          "internalType": "bool",
          "name": "",
          "type": "bool"
        }
      ],
      "stateMutability": "view",
      "type": "function"
    },
    {
      "inputs": [],
      "name": "trustedForwarder",
      "outputs": [
        {
          "internalType": "address",
          "name": "",
          "type": "address"
        }
      ],
      "stateMutability": "view",
      "type": "function"
    },
    {
      "inputs": [
        {
          "internalType": "uint256",
          "name": "id",
          "type": "uint256"
        }
      ],
      "name": "uri",
      "outputs": [
        {
          "internalType": "string",
          "name": "",
          "type": "string"
        }
      ],
      "stateMutability": "view",
      "type": "function"
    },
    {
      "inputs": [],
      "name": "versionRecipient",
      "outputs": [
        {
          "internalType": "string",
          "name": "",
          "type": "string"
        }
      ],
      "stateMutability": "view",
      "type": "function"
    },
    {
      "inputs": [
        {
          "internalType": "address",
          "name": "account",
          "type": "address"
        },
        {
          "internalType": "uint256",
          "name": "id",
          "type": "uint256"
        },
        {
          "internalType": "uint256",
          "name": "value",
          "type": "uint256"
        }
      ],
      "name": "transactionFees",
      "outputs": [
        {
          "internalType": "uint256",
          "name": "",
          "type": "uint256"
        }
      ],
      "stateMutability": "view",
      "type": "function"
    },
    {
      "inputs": [
        {
          "internalType": "address",
          "name": "account",
          "type": "address"
        },
        {
          "internalType": "uint256",
          "name": "id",
          "type": "uint256"
        }
      ],
      "name": "averageAge",
      "outputs": [
        {
          "internalType": "uint256",
          "name": "",
          "type": "uint256"
        }
      ],
      "stateMutability": "view",
      "type": "function"
    }
  ],
  "bytecode": "0x60c0604052601760808190527f312e302e302b6f70656e67736e2e7374617368626c6f7800000000000000000060a090815261003e9160019190610051565b5034801561004b57600080fd5b506100e4565b828054600181600116156101000203166002900490600052602060002090601f016020900481019282601f1061009257805160ff19168380011785556100bf565b828001600101855582156100bf579182015b828111156100bf5782518255916020019190600101906100a4565b506100cb9291506100cf565b5090565b5b808211156100cb57600081556001016100d0565b610d9e806100f36000396000f3fe608060405234801561001057600080fd5b506004361061009e5760003560e01c8063572b6c0511610066578063572b6c051461029f578063585941d5146102d95780637da0a87714610317578063d1660e181461033b578063ed70554d1461036d5761009e565b80630e89341c146100a35780632ed42bf7146101355780633cacd7d6146101cc578063414ed0ce14610212578063486ff0cd14610297575b600080fd5b6100c0600480360360208110156100b957600080fd5b50356103de565b6040805160208082528351818301528351919283929083019185019080838360005b838110156100fa5781810151838201526020016100e2565b50505050905090810190601f1680156101275780820380516001836020036101000a031916815260200191505b509250505060405180910390f35b61013d610488565b6040518084815260200180602001836001600160a01b03168152602001828103825284818151815260200191508051906020019080838360005b8381101561018f578181015183820152602001610177565b50505050905090810190601f1680156101bc5780820380516001836020036101000a031916815260200191505b5094505050505060405180910390f35b6101f2600480360360208110156101e257600080fd5b50356001600160a01b031661052b565b604080519315158452911515602084015282820152519081900360600190f35b61022f6004803603602081101561022857600080fd5b5035610551565b604080519b8c5260208c019a909a528a8a019890985260608a019690965260808901949094526001600160a01b0390921660a0880152151560c0870152151560e086015215156101008501521515610120840152151561014083015251908190036101600190f35b6100c06105c4565b6102c5600480360360208110156102b557600080fd5b50356001600160a01b0316610651565b604080519115158252519081900360200190f35b610305600480360360408110156102ef57600080fd5b506001600160a01b038135169060200135610665565b60408051918252519081900360200190f35b61031f6106a2565b604080516001600160a01b039092168252519081900360200190f35b6103056004803603606081101561035157600080fd5b506001600160a01b0381351690602081013590604001356106b1565b61038a6004803603602081101561038357600080fd5b50356106c6565b60408051998a5260208a0198909852888801969096526060880194909452608087019290925260a08601526001600160a01b031660c0850152151560e0840152151561010083015251908190036101200190f35b6003805460408051602060026001851615610100026000190190941693909304601f8101849004840282018401909252818152606093610480939192909183018282801561046d5780601f106104425761010080835404028352916020019161046d565b820191906000526020600020905b81548152906001019060200180831161045057829003601f168201915b505050505061047b84610722565b6107de565b90505b919050565b600280546003805460408051602060018416156101000260001901909316869004601f810184900484028201840190925281815293949392918301828280156105125780601f106104e757610100808354040283529160200191610512565b820191906000526020600020905b8154815290600101906020018083116104f557829003601f168201915b505050600c90930154919250506001600160a01b031683565b600f602052600090815260409020805460019091015460ff808316926101009004169083565b60116020526000908152604090208054600182015460028301546003840154600485015460059095015493949293919290916001600160a01b0381169060ff600160a01b8204811691600160a81b8104821691600160b01b8204811691600160b81b8104821691600160c01b909104168b565b60018054604080516020600284861615610100026000190190941693909304601f810184900484028201840190925281815292918301828280156106495780601f1061061e57610100808354040283529160200191610649565b820191906000526020600020905b81548152906001019060200180831161062c57829003601f168201915b505050505081565b6000546001600160a01b0390811691161490565b60008181526010602090815260408083206001600160a01b03861684526007019091528120600101546106999042906108e8565b90505b92915050565b6000546001600160a01b031681565b60006106be84848461092a565b949350505050565b601060205260009081526040902080546001820154600283015460038401546004850154600586015460069096015494959394929391929091906001600160a01b0381169060ff600160a01b8204811691600160a81b90041689565b60606000825b801561073e576001919091019060109004610728565b60608267ffffffffffffffff8111801561075757600080fd5b506040519080825280601f01601f191660200182016040528015610782576020820181803683370190505b50905060005b838110156107d55760108606925061079f83610b12565b82600183870303815181106107b057fe5b60200101906001600160f81b031916908160001a905350601086049550600101610788565b50949350505050565b805182516060918491849184910167ffffffffffffffff8111801561080257600080fd5b506040519080825280601f01601f19166020018201604052801561082d576020820181803683370190505b509050806000805b85518110156108865785818151811061084a57fe5b602001015160f81c60f81b83838060010194508151811061086757fe5b60200101906001600160f81b031916908160001a905350600101610835565b5060005b84518110156108db5784818151811061089f57fe5b602001015160f81c60f81b8383806001019450815181106108bc57fe5b60200101906001600160f81b031916908160001a90535060010161088a565b5090979650505050505050565b600061069983836040518060400160405280601e81526020017f536166654d6174683a207375627472616374696f6e206f766572666c6f770000815250610b56565b6000828152601060205260408120600b015481904290600019015b6000868152601060205260408120600b0180548390811061096257fe5b60009182526020822060029091020101546000888152601060205260408120600b01805492935090918490811061099557fe5b90600052602060002090600202016001600281106109af57fe5b015460008981526010602090815260408083206001600160a01b038e168452600701909152812060010154919250908311610a525760008981526010602090815260408083206001600160a01b038e168452600701909152902060010154610a27906201518090610a219088906108e8565b90610bed565b905080610a32575060015b610a4688610a408385610c2f565b90610c2f565b86019550505050610a91565b610a6362015180610a2187866108e8565b905080610a6e575060015b9193508391610a8188610a408385610c2f565b9095019450505060001901610945565b50600085815260106020526040902060010154610ab2908390600a0a610bed565b60008681526010602052604081206003015491935090610add906305f5e10090610a21908890610c2f565b600087815260106020526040902060020154909150610b0790610b009083610c88565b8490610c88565b979650505050505050565b600060098260ff1611610b2c57506030810160f81b610483565b8160ff16600a11158015610b445750600f8260ff1611155b1561009e57506057810160f81b610483565b60008184841115610be55760405162461bcd60e51b81526004018080602001828103825283818151815260200191508051906020019080838360005b83811015610baa578181015183820152602001610b92565b50505050905090810190601f168015610bd75780820380516001836020036101000a031916815260200191505b509250505060405180910390fd5b505050900390565b600061069983836040518060400160405280601a81526020017f536166654d6174683a206469766973696f6e206279207a65726f000000000000815250610ce2565b600082610c3e5750600061069c565b82820282848281610c4b57fe5b04146106995760405162461bcd60e51b8152600401808060200182810382526021815260200180610d486021913960400191505060405180910390fd5b600082820183811015610699576040805162461bcd60e51b815260206004820152601b60248201527f536166654d6174683a206164646974696f6e206f766572666c6f770000000000604482015290519081900360640190fd5b60008183610d315760405162461bcd60e51b8152602060048201818152835160248401528351909283926044909101919085019080838360008315610baa578181015183820152602001610b92565b506000838581610d3d57fe5b049594505050505056fe536166654d6174683a206d756c7469706c69636174696f6e206f766572666c6f77a26469706673582212206b173833548ad5b1acb2bc5becdf489295818d0a24c04ad2c2d19fc4175d679764736f6c63430007010033",
  "immutableReferences": {},
  "source": "// SPDX-License-Identifier: GPL-3.0-or-later\npragma solidity ^0.7.1;\n\nimport \"../utils/SafeMath.sol\";\nimport './Data.sol';\n\ncontract ChargeableTransfer is Data {\n\n    using SafeMath for uint256;\n\n\n    /****************************\n    EXTERNAL FUNCTIONS\n    *****************************/\n\n\n    /**\n     * @dev Function to get the transaction price to transfer tokens.\n     * @param account the address from where to transfer the tokens\n     * @param id The token ID\n     * @param value The amount to transfer\n     * @return transfer price\n     */\n    function transactionFees(address account, uint256 id, uint256 value) public view returns (uint256) {\n        return _transactionFees(account, id, value);\n    }\n\n    /**\n     * @dev Function to get the average age of the token for the given address.\n     * @param account the address from where to transfer the tokens\n     * @param id The token ID\n     * @return average age in seconds\n     */\n    function averageAge(address account, uint256 id) public view returns (uint256) {\n        return block.timestamp.sub(_tokens[id].holders[account].birthday);\n    }\n\n\n    /****************************\n    INTERNAL FUNCTIONS\n    *****************************/\n\n\n    // update balance, lists of holders and token average age of the recipient\n    function _addToBalance(address recipient, uint256 id, uint256 value) internal virtual {\n        uint256 newBalance = _tokens[id].holders[recipient].balance.add(value);\n\n        if (_tokens[id].holders[recipient].balance == 0) {\n\n            if (!_tokens[id].holders[recipient].isHolder) {\n                _users[recipient].tokens.push(id);\n                _tokens[id].holderList.push(recipient);\n                _tokens[id].holders[recipient].isHolder;\n            }\n\n            _tokens[id].holders[recipient].birthday = block.timestamp;\n\n        } else {\n\n            // calculate the average birthday of the received and hold tokens\n            uint256 oldTokensAge = block.timestamp.sub(_tokens[id].holders[recipient].birthday);\n            uint256 newTokenAge = (_tokens[id].holders[recipient].balance.mul(oldTokensAge)).div(newBalance);\n\n            _tokens[id].holders[recipient].birthday = block.timestamp - newTokenAge;\n        }\n\n        _tokens[id].holders[recipient].balance = newBalance;\n    }\n\n    // Calculate transaction fees\n    function _transactionFees(address account, uint256 id, uint256 value) internal view returns (uint256) {\n        uint256 totalCost = 0;\n        uint256 timeCursor = block.timestamp;\n\n        for (uint i = _tokens[id].storageCostHistory.length - 1; i >= 0; i--) {\n\n            uint256 costStartAt = _tokens[id].storageCostHistory[i][0];\n            uint256 cost = _tokens[id].storageCostHistory[i][1];\n            uint256 storageDays;\n\n            if (_tokens[id].holders[account].birthday >= costStartAt) {\n                storageDays = (timeCursor.sub(_tokens[id].holders[account].birthday)).div(86400);\n                if (storageDays == 0) storageDays = 1;\n                totalCost += (storageDays.mul(cost)).mul(value);\n                break;\n            } else {\n                storageDays = (timeCursor.sub(costStartAt)).div(86400);\n                if (storageDays == 0) storageDays = 1;\n                timeCursor = costStartAt;\n                totalCost += (storageDays.mul(cost)).mul(value);\n            }\n        }\n\n        // TODO!\n        totalCost = totalCost.div(10**_tokens[id].decimals); // storage cost are for one full token\n\n        uint256 valueFees = (value.mul(_tokens[id].valueTransactionFees)).div(10**8);\n        return totalCost.add(_tokens[id].lumpSumTransactionFees.add(valueFees));\n    }\n\n    function _moveTokens(address from, address to, uint256 id, uint256 value) internal virtual returns (uint256 fees) {\n        _tokens[id].holders[from].balance = _tokens[id].holders[from].balance.sub(value, \"Insufficient balance\");\n        _addToBalance(to, id, value);\n\n        fees = _transactionFees(from, id, value);\n\n        for (uint256 i = 0; i < _tokens[id].feesRecipients.length; ++i) {\n            address feesRecipient = _tokens[id].feesRecipients[i];\n            uint256 feesRecipientsPercentage = _tokens[id].feesRecipientsPercentage[i];\n            _users[feesRecipient].ETHBalance += (fees.mul(feesRecipientsPercentage)).div(10000);\n        }\n\n        return fees;\n    }\n\n    // Used by ERC1155.sol in safeTransferFrom\n    function _transfer(address from, address to, uint256 id, uint256 value) internal {\n        uint256 feesBalance = msg.value > 0 ? msg.value : _users[from].ETHBalance;\n        feesBalance = feesBalance.sub(_moveTokens(from, to, id, value), \"Insufficient ETH\");\n        _returnChange(from, feesBalance);\n    }\n\n    // Used by ERC1155.sol in safeTransferFromBatch\n    function _transferBatch(address from, address to, uint256[] memory ids, uint256[] memory values) internal {\n        uint256 feesBalance = msg.value > 0 ? msg.value : _users[from].ETHBalance;\n        for (uint256 i = 0; i < ids.length; ++i) {\n            feesBalance = feesBalance.sub(_moveTokens(from, to, ids[i], values[i]), \"Insufficient ETH\");\n        }\n        _returnChange(from, feesBalance);\n    }\n\n    function _returnChange(address from, uint256 feesBalance) internal {\n      if (msg.value > 0 && feesBalance > 0) {\n          _users[from].ETHBalance = _users[from].ETHBalance.add(feesBalance);\n      } else if (msg.value == 0) {\n          _users[from].ETHBalance = feesBalance;\n      }\n    }\n\n}\n",
  "sourcePath": "/home/ouziel/Work/StashBloxContracts/contracts/lib/ChargeableTransfer.sol",
  "compiler": {
    "name": "solc",
    "version": "0.7.1+commit.f4a555be.Emscripten.clang"
  },
  "schemaVersion": "3.2.3",
  "updatedAt": "2020-10-21T21:50:16.103Z",
  "devdoc": {
    "kind": "dev",
    "methods": {
      "averageAge(address,uint256)": {
        "details": "Function to get the average age of the token for the given address.",
        "params": {
          "account": "the address from where to transfer the tokens",
          "id": "The token ID"
        },
        "returns": {
          "_0": "average age in seconds"
        }
      },
      "transactionFees(address,uint256,uint256)": {
        "details": "Function to get the transaction price to transfer tokens.",
        "params": {
          "account": "the address from where to transfer the tokens",
          "id": "The token ID",
          "value": "The amount to transfer"
        },
        "returns": {
          "_0": "transfer price"
        }
      },
      "uri(uint256)": {
        "params": {
          "id": "Token ID"
        },
        "returns": {
          "_0": "URI string"
        }
      }
    },
    "version": 1
  },
  "userdoc": {
    "kind": "user",
    "methods": {
      "isTrustedForwarder(address)": {
        "notice": "return if the forwarder is trusted to forward relayed transactions to us. the forwarder is required to verify the sender's signature, and verify the call is not a replay."
      }
    },
    "version": 1
  }
}