{
  "contractName": "ChargeableTransfer",
  "abi": [
    {
      "inputs": [
        {
          "internalType": "uint256",
          "name": "",
          "type": "uint256"
        }
      ],
      "name": "_callbacks",
      "outputs": [
        {
          "internalType": "uint256",
          "name": "tokenId",
          "type": "uint256"
        },
        {
          "internalType": "uint256",
          "name": "price",
          "type": "uint256"
        },
        {
          "internalType": "uint256",
          "name": "escrowedAmount",
          "type": "uint256"
        },
        {
          "internalType": "uint256",
          "name": "callCounter",
          "type": "uint256"
        },
        {
          "internalType": "uint256",
          "name": "documentHash",
          "type": "uint256"
        },
        {
          "internalType": "address",
          "name": "caller",
          "type": "address"
        },
        {
          "internalType": "bool",
          "name": "needLegalApproval",
          "type": "bool"
        },
        {
          "internalType": "bool",
          "name": "approvedByLegal",
          "type": "bool"
        },
        {
          "internalType": "bool",
          "name": "refused",
          "type": "bool"
        },
        {
          "internalType": "bool",
          "name": "accepted",
          "type": "bool"
        },
        {
          "internalType": "bool",
          "name": "completed",
          "type": "bool"
        }
      ],
      "stateMutability": "view",
      "type": "function"
    },
    {
      "inputs": [],
      "name": "_config",
      "outputs": [
        {
          "internalType": "uint256",
          "name": "callbackAutoExecuteMaxAddresses",
          "type": "uint256"
        },
        {
          "internalType": "string",
          "name": "baseURI",
          "type": "string"
        },
        {
          "internalType": "address",
          "name": "owner",
          "type": "address"
        }
      ],
      "stateMutability": "view",
      "type": "function"
    },
    {
      "inputs": [
        {
          "internalType": "uint256",
          "name": "",
          "type": "uint256"
        }
      ],
      "name": "_tokens",
      "outputs": [
        {
          "internalType": "uint256",
          "name": "supply",
          "type": "uint256"
        },
        {
          "internalType": "uint256",
          "name": "decimals",
          "type": "uint256"
        },
        {
          "internalType": "uint256",
          "name": "lumpSumTransactionFees",
          "type": "uint256"
        },
        {
          "internalType": "uint256",
          "name": "valueTransactionFees",
          "type": "uint256"
        },
        {
          "internalType": "uint256",
          "name": "minHoldingForCallback",
          "type": "uint256"
        },
        {
          "internalType": "uint256",
          "name": "metadataHash",
          "type": "uint256"
        },
        {
          "internalType": "address",
          "name": "legalAuthority",
          "type": "address"
        },
        {
          "internalType": "bool",
          "name": "isPrivate",
          "type": "bool"
        },
        {
          "internalType": "bool",
          "name": "locked",
          "type": "bool"
        }
      ],
      "stateMutability": "view",
      "type": "function"
    },
    {
      "inputs": [
        {
          "internalType": "address",
          "name": "",
          "type": "address"
        }
      ],
      "name": "_users",
      "outputs": [
        {
          "internalType": "bool",
          "name": "isTokenizer",
          "type": "bool"
        },
        {
          "internalType": "bool",
          "name": "isLocked",
          "type": "bool"
        },
        {
          "internalType": "uint256",
          "name": "ETHBalance",
          "type": "uint256"
        }
      ],
      "stateMutability": "view",
      "type": "function"
    },
    {
      "inputs": [
        {
          "internalType": "uint256",
          "name": "id",
          "type": "uint256"
        }
      ],
      "name": "uri",
      "outputs": [
        {
          "internalType": "string",
          "name": "",
          "type": "string"
        }
      ],
      "stateMutability": "view",
      "type": "function"
    },
    {
      "inputs": [
        {
          "internalType": "address",
          "name": "account",
          "type": "address"
        },
        {
          "internalType": "uint256",
          "name": "id",
          "type": "uint256"
        },
        {
          "internalType": "uint256",
          "name": "value",
          "type": "uint256"
        }
      ],
      "name": "transactionFees",
      "outputs": [
        {
          "internalType": "uint256",
          "name": "",
          "type": "uint256"
        }
      ],
      "stateMutability": "view",
      "type": "function"
    },
    {
      "inputs": [
        {
          "internalType": "address",
          "name": "account",
          "type": "address"
        },
        {
          "internalType": "uint256",
          "name": "id",
          "type": "uint256"
        }
      ],
      "name": "averageAge",
      "outputs": [
        {
          "internalType": "uint256",
          "name": "",
          "type": "uint256"
        }
      ],
      "stateMutability": "view",
      "type": "function"
    }
  ],
  "bytecode": "0x608060405234801561001057600080fd5b50610c68806100206000396000f3fe608060405234801561001057600080fd5b506004361061007d5760003560e01c8063414ed0ce1161005b578063414ed0ce146101f1578063585941d514610276578063d1660e18146102b4578063ed70554d146102e65761007d565b80630e89341c146100825780632ed42bf7146101145780633cacd7d6146101ab575b600080fd5b61009f6004803603602081101561009857600080fd5b5035610357565b6040805160208082528351818301528351919283929083019185019080838360005b838110156100d95781810151838201526020016100c1565b50505050905090810190601f1680156101065780820380516001836020036101000a031916815260200191505b509250505060405180910390f35b61011c610400565b6040518084815260200180602001836001600160a01b03168152602001828103825284818151815260200191508051906020019080838360005b8381101561016e578181015183820152602001610156565b50505050905090810190601f16801561019b5780820380516001836020036101000a031916815260200191505b5094505050505060405180910390f35b6101d1600480360360208110156101c157600080fd5b50356001600160a01b03166104a5565b604080519315158452911515602084015282820152519081900360600190f35b61020e6004803603602081101561020757600080fd5b50356104cb565b604080519b8c5260208c019a909a528a8a019890985260608a019690965260808901949094526001600160a01b0390921660a0880152151560c0870152151560e086015215156101008501521515610120840152151561014083015251908190036101600190f35b6102a26004803603604081101561028c57600080fd5b506001600160a01b03813516906020013561053e565b60408051918252519081900360200190f35b6102a2600480360360608110156102ca57600080fd5b506001600160a01b03813516906020810135906040013561057b565b610303600480360360208110156102fc57600080fd5b5035610590565b60408051998a5260208a0198909852888801969096526060880194909452608087019290925260a08601526001600160a01b031660c0850152151560e0840152151561010083015251908190036101200190f35b60018054604080516020600284861615610100026000190190941693909304601f81018490048402820184019092528181526060936103f893919290918301828280156103e55780601f106103ba576101008083540402835291602001916103e5565b820191906000526020600020905b8154815290600101906020018083116103c857829003601f168201915b50505050506103f3846105ec565b6106a8565b90505b919050565b6000805460018054604080516020600284861615610100026000190190941693909304601f8101849004840282018401909252818152939493929183018282801561048c5780601f106104615761010080835404028352916020019161048c565b820191906000526020600020905b81548152906001019060200180831161046f57829003601f168201915b505050600c90930154919250506001600160a01b031683565b600d602052600090815260409020805460019091015460ff808316926101009004169083565b600f6020526000908152604090208054600182015460028301546003840154600485015460059095015493949293919290916001600160a01b0381169060ff600160a01b8204811691600160a81b8104821691600160b01b8204811691600160b81b8104821691600160c01b909104168b565b6000818152600e602090815260408083206001600160a01b03861684526007019091528120600101546105729042906107b2565b90505b92915050565b60006105888484846107f4565b949350505050565b600e60205260009081526040902080546001820154600283015460038401546004850154600586015460069096015494959394929391929091906001600160a01b0381169060ff600160a01b8204811691600160a81b90041689565b60606000825b80156106085760019190910190601090046105f2565b60608267ffffffffffffffff8111801561062157600080fd5b506040519080825280601f01601f19166020018201604052801561064c576020820181803683370190505b50905060005b8381101561069f57601086069250610669836109dc565b826001838703038151811061067a57fe5b60200101906001600160f81b031916908160001a905350601086049550600101610652565b50949350505050565b805182516060918491849184910167ffffffffffffffff811180156106cc57600080fd5b506040519080825280601f01601f1916602001820160405280156106f7576020820181803683370190505b509050806000805b85518110156107505785818151811061071457fe5b602001015160f81c60f81b83838060010194508151811061073157fe5b60200101906001600160f81b031916908160001a9053506001016106ff565b5060005b84518110156107a55784818151811061076957fe5b602001015160f81c60f81b83838060010194508151811061078657fe5b60200101906001600160f81b031916908160001a905350600101610754565b5090979650505050505050565b600061057283836040518060400160405280601e81526020017f536166654d6174683a207375627472616374696f6e206f766572666c6f770000815250610a20565b6000828152600e60205260408120600b015481904290600019015b6000868152600e60205260408120600b0180548390811061082c57fe5b60009182526020822060029091020101546000888152600e60205260408120600b01805492935090918490811061085f57fe5b906000526020600020906002020160016002811061087957fe5b01546000898152600e602090815260408083206001600160a01b038e16845260070190915281206001015491925090831161091c576000898152600e602090815260408083206001600160a01b038e1684526007019091529020600101546108f19062015180906108eb9088906107b2565b90610ab7565b9050806108fc575060015b6109108861090a8385610af9565b90610af9565b8601955050505061095b565b61092d620151806108eb87866107b2565b905080610938575060015b919350839161094b8861090a8385610af9565b909501945050506000190161080f565b506000858152600e602052604090206001015461097c908390600a0a610ab7565b6000868152600e6020526040812060030154919350906109a7906305f5e100906108eb908890610af9565b6000878152600e60205260409020600201549091506109d1906109ca9083610b52565b8490610b52565b979650505050505050565b600060098260ff16116109f657506030810160f81b6103fb565b8160ff16600a11158015610a0e5750600f8260ff1611155b1561007d57506057810160f81b6103fb565b60008184841115610aaf5760405162461bcd60e51b81526004018080602001828103825283818151815260200191508051906020019080838360005b83811015610a74578181015183820152602001610a5c565b50505050905090810190601f168015610aa15780820380516001836020036101000a031916815260200191505b509250505060405180910390fd5b505050900390565b600061057283836040518060400160405280601a81526020017f536166654d6174683a206469766973696f6e206279207a65726f000000000000815250610bac565b600082610b0857506000610575565b82820282848281610b1557fe5b04146105725760405162461bcd60e51b8152600401808060200182810382526021815260200180610c126021913960400191505060405180910390fd5b600082820183811015610572576040805162461bcd60e51b815260206004820152601b60248201527f536166654d6174683a206164646974696f6e206f766572666c6f770000000000604482015290519081900360640190fd5b60008183610bfb5760405162461bcd60e51b8152602060048201818152835160248401528351909283926044909101919085019080838360008315610a74578181015183820152602001610a5c565b506000838581610c0757fe5b049594505050505056fe536166654d6174683a206d756c7469706c69636174696f6e206f766572666c6f77a26469706673582212208777ebc6f79997927e909fe206c35882f654b30f349098ed4a40440d3685505064736f6c63430007010033",
  "immutableReferences": {},
  "source": "// SPDX-License-Identifier: GPL-3.0-or-later\npragma solidity ^0.7.1;\n\nimport \"../utils/SafeMath.sol\";\nimport './Data.sol';\n\ncontract ChargeableTransfer is Data {\n\n    using SafeMath for uint256;\n\n\n    /****************************\n    EXTERNAL FUNCTIONS\n    *****************************/\n\n\n    /**\n     * @dev Function to get the transaction price to transfer tokens.\n     * @param account the address from where to transfer the tokens\n     * @param id The token ID\n     * @param value The amount to transfer\n     * @return transfer price\n     */\n    function transactionFees(address account, uint256 id, uint256 value) public view returns (uint256) {\n        return _transactionFees(account, id, value);\n    }\n\n    /**\n     * @dev Function to get the average age of the token for the given address.\n     * @param account the address from where to transfer the tokens\n     * @param id The token ID\n     * @return average age in seconds\n     */\n    function averageAge(address account, uint256 id) public view returns (uint256) {\n        return block.timestamp.sub(_tokens[id].holders[account].birthday);\n    }\n\n\n    /****************************\n    INTERNAL FUNCTIONS\n    *****************************/\n\n\n    // update balance, lists of holders and token average age of the recipient\n    function _addToBalance(address recipient, uint256 id, uint256 value) internal virtual {\n        uint256 newBalance = _tokens[id].holders[recipient].balance.add(value);\n\n        if (_tokens[id].holders[recipient].balance == 0) {\n\n            if (!_tokens[id].holders[recipient].isHolder) {\n                _users[recipient].tokens.push(id);\n                _tokens[id].holderList.push(recipient);\n                _tokens[id].holders[recipient].isHolder;\n            }\n\n            _tokens[id].holders[recipient].birthday = block.timestamp;\n\n        } else {\n\n            // calculate the average birthday of the received and hold tokens\n            uint256 oldTokensAge = block.timestamp.sub(_tokens[id].holders[recipient].birthday);\n            uint256 newTokenAge = (_tokens[id].holders[recipient].balance.mul(oldTokensAge)).div(newBalance);\n\n            _tokens[id].holders[recipient].birthday = block.timestamp - newTokenAge;\n        }\n\n        _tokens[id].holders[recipient].balance = newBalance;\n    }\n\n    // Calculate transaction fees\n    function _transactionFees(address account, uint256 id, uint256 value) internal view returns (uint256) {\n        uint256 totalCost = 0;\n        uint256 timeCursor = block.timestamp;\n\n        for (uint i = _tokens[id].storageCostHistory.length - 1; i >= 0; i--) {\n\n            uint256 costStartAt = _tokens[id].storageCostHistory[i][0];\n            uint256 cost = _tokens[id].storageCostHistory[i][1];\n            uint256 storageDays;\n\n            if (_tokens[id].holders[account].birthday >= costStartAt) {\n                storageDays = (timeCursor.sub(_tokens[id].holders[account].birthday)).div(86400);\n                if (storageDays == 0) storageDays = 1;\n                totalCost += (storageDays.mul(cost)).mul(value);\n                break;\n            } else {\n                storageDays = (timeCursor.sub(costStartAt)).div(86400);\n                if (storageDays == 0) storageDays = 1;\n                timeCursor = costStartAt;\n                totalCost += (storageDays.mul(cost)).mul(value);\n            }\n        }\n\n        // TODO!\n        totalCost = totalCost.div(10**_tokens[id].decimals); // storage cost are for one full token\n\n        uint256 valueFees = (value.mul(_tokens[id].valueTransactionFees)).div(10**8);\n        return totalCost.add(_tokens[id].lumpSumTransactionFees.add(valueFees));\n    }\n\n    function _moveTokens(address from, address to, uint256 id, uint256 value) internal virtual returns (uint256 fees) {\n        _tokens[id].holders[from].balance = _tokens[id].holders[from].balance.sub(value, \"Insufficient balance\");\n        _addToBalance(to, id, value);\n\n        fees = _transactionFees(from, id, value);\n\n        for (uint256 i = 0; i < _tokens[id].feesRecipients.length; ++i) {\n            address feesRecipient = _tokens[id].feesRecipients[i];\n            uint256 feesRecipientsPercentage = _tokens[id].feesRecipientsPercentage[i];\n            _users[feesRecipient].ETHBalance += (fees.mul(feesRecipientsPercentage)).div(10000);\n        }\n\n        return fees;\n    }\n\n    // Used by ERC1155.sol in safeTransferFrom\n    function _transfer(address from, address to, uint256 id, uint256 value) internal {\n        uint256 feesBalance = msg.value > 0 ? msg.value : _users[from].ETHBalance;\n        feesBalance = feesBalance.sub(_moveTokens(from, to, id, value), \"Insufficient ETH\");\n        _returnChange(from, feesBalance);\n    }\n\n    // Used by ERC1155.sol in safeTransferFromBatch\n    function _transferBatch(address from, address to, uint256[] memory ids, uint256[] memory values) internal {\n        uint256 feesBalance = msg.value > 0 ? msg.value : _users[from].ETHBalance;\n        for (uint256 i = 0; i < ids.length; ++i) {\n            feesBalance = feesBalance.sub(_moveTokens(from, to, ids[i], values[i]), \"Insufficient ETH\");\n        }\n        _returnChange(from, feesBalance);\n    }\n\n    function _returnChange(address from, uint256 feesBalance) internal {\n      if (msg.value > 0 && feesBalance > 0) {\n          _users[from].ETHBalance = _users[from].ETHBalance.add(feesBalance);\n      } else if (msg.value == 0) {\n          _users[from].ETHBalance = feesBalance;\n      }\n    }\n\n}\n",
  "sourcePath": "/home/ouziel/Work/StashBloxContracts/contracts/lib/ChargeableTransfer.sol",
  "compiler": {
    "name": "solc",
    "version": "0.7.1+commit.f4a555be.Emscripten.clang"
  },
  "schemaVersion": "3.2.3",
  "updatedAt": "2020-10-21T20:10:49.881Z",
  "devdoc": {
    "kind": "dev",
    "methods": {
      "averageAge(address,uint256)": {
        "details": "Function to get the average age of the token for the given address.",
        "params": {
          "account": "the address from where to transfer the tokens",
          "id": "The token ID"
        },
        "returns": {
          "_0": "average age in seconds"
        }
      },
      "transactionFees(address,uint256,uint256)": {
        "details": "Function to get the transaction price to transfer tokens.",
        "params": {
          "account": "the address from where to transfer the tokens",
          "id": "The token ID",
          "value": "The amount to transfer"
        },
        "returns": {
          "_0": "transfer price"
        }
      },
      "uri(uint256)": {
        "params": {
          "id": "Token ID"
        },
        "returns": {
          "_0": "URI string"
        }
      }
    },
    "version": 1
  },
  "userdoc": {
    "kind": "user",
    "methods": {},
    "version": 1
  }
}