{
  "contractName": "ChargeableTransfer",
  "abi": [
    {
      "inputs": [
        {
          "internalType": "uint256",
          "name": "",
          "type": "uint256"
        }
      ],
      "name": "_callbacks",
      "outputs": [
        {
          "internalType": "uint256",
          "name": "tokenId",
          "type": "uint256"
        },
        {
          "internalType": "uint256",
          "name": "price",
          "type": "uint256"
        },
        {
          "internalType": "uint256",
          "name": "escrowedAmount",
          "type": "uint256"
        },
        {
          "internalType": "uint256",
          "name": "callCounter",
          "type": "uint256"
        },
        {
          "internalType": "uint256",
          "name": "documentHash",
          "type": "uint256"
        },
        {
          "internalType": "address",
          "name": "caller",
          "type": "address"
        },
        {
          "internalType": "bool",
          "name": "needLegalApproval",
          "type": "bool"
        },
        {
          "internalType": "bool",
          "name": "approvedByLegal",
          "type": "bool"
        },
        {
          "internalType": "bool",
          "name": "refused",
          "type": "bool"
        },
        {
          "internalType": "bool",
          "name": "accepted",
          "type": "bool"
        },
        {
          "internalType": "bool",
          "name": "completed",
          "type": "bool"
        }
      ],
      "stateMutability": "view",
      "type": "function"
    },
    {
      "inputs": [],
      "name": "_config",
      "outputs": [
        {
          "internalType": "uint256",
          "name": "callbackAutoExecuteMaxAddresses",
          "type": "uint256"
        },
        {
          "internalType": "string",
          "name": "baseURI",
          "type": "string"
        },
        {
          "internalType": "address",
          "name": "owner",
          "type": "address"
        }
      ],
      "stateMutability": "view",
      "type": "function"
    },
    {
      "inputs": [
        {
          "internalType": "uint256",
          "name": "",
          "type": "uint256"
        }
      ],
      "name": "_tokens",
      "outputs": [
        {
          "internalType": "uint256",
          "name": "supply",
          "type": "uint256"
        },
        {
          "internalType": "uint256",
          "name": "decimals",
          "type": "uint256"
        },
        {
          "internalType": "uint256",
          "name": "lumpSumTransactionFees",
          "type": "uint256"
        },
        {
          "internalType": "uint256",
          "name": "valueTransactionFees",
          "type": "uint256"
        },
        {
          "internalType": "uint256",
          "name": "minHoldingForCallback",
          "type": "uint256"
        },
        {
          "internalType": "uint256",
          "name": "metadataHash",
          "type": "uint256"
        },
        {
          "internalType": "address",
          "name": "legalAuthority",
          "type": "address"
        },
        {
          "internalType": "bool",
          "name": "isPrivate",
          "type": "bool"
        },
        {
          "internalType": "bool",
          "name": "locked",
          "type": "bool"
        }
      ],
      "stateMutability": "view",
      "type": "function"
    },
    {
      "inputs": [
        {
          "internalType": "address",
          "name": "",
          "type": "address"
        }
      ],
      "name": "_users",
      "outputs": [
        {
          "internalType": "bool",
          "name": "isTokenizer",
          "type": "bool"
        },
        {
          "internalType": "bool",
          "name": "isLocked",
          "type": "bool"
        },
        {
          "internalType": "uint256",
          "name": "ETHBalance",
          "type": "uint256"
        }
      ],
      "stateMutability": "view",
      "type": "function"
    },
    {
      "inputs": [
        {
          "internalType": "address",
          "name": "account",
          "type": "address"
        },
        {
          "internalType": "uint256",
          "name": "id",
          "type": "uint256"
        },
        {
          "internalType": "uint256",
          "name": "value",
          "type": "uint256"
        }
      ],
      "name": "transactionFees",
      "outputs": [
        {
          "internalType": "uint256",
          "name": "",
          "type": "uint256"
        }
      ],
      "stateMutability": "view",
      "type": "function"
    },
    {
      "inputs": [
        {
          "internalType": "address",
          "name": "account",
          "type": "address"
        },
        {
          "internalType": "uint256",
          "name": "id",
          "type": "uint256"
        }
      ],
      "name": "averageAge",
      "outputs": [
        {
          "internalType": "uint256",
          "name": "",
          "type": "uint256"
        }
      ],
      "stateMutability": "view",
      "type": "function"
    }
  ],
  "bytecode": "0x608060405234801561001057600080fd5b50610908806100206000396000f3fe608060405234801561001057600080fd5b50600436106100625760003560e01c80632ed42bf7146100675780633cacd7d6146100fe578063414ed0ce14610144578063585941d5146101c9578063d1660e1814610207578063ed70554d14610239575b600080fd5b61006f6102aa565b6040518084815260200180602001836001600160a01b03168152602001828103825284818151815260200191508051906020019080838360005b838110156100c15781810151838201526020016100a9565b50505050905090810190601f1680156100ee5780820380516001836020036101000a031916815260200191505b5094505050505060405180910390f35b6101246004803603602081101561011457600080fd5b50356001600160a01b031661034f565b604080519315158452911515602084015282820152519081900360600190f35b6101616004803603602081101561015a57600080fd5b5035610375565b604080519b8c5260208c019a909a528a8a019890985260608a019690965260808901949094526001600160a01b0390921660a0880152151560c0870152151560e086015215156101008501521515610120840152151561014083015251908190036101600190f35b6101f5600480360360408110156101df57600080fd5b506001600160a01b0381351690602001356103e8565b60408051918252519081900360200190f35b6101f56004803603606081101561021d57600080fd5b506001600160a01b038135169060208101359060400135610425565b6102566004803603602081101561024f57600080fd5b503561043a565b60408051998a5260208a0198909852888801969096526060880194909452608087019290925260a08601526001600160a01b031660c0850152151560e0840152151561010083015251908190036101200190f35b6000805460018054604080516020600284861615610100026000190190941693909304601f810184900484028201840190925281815293949392918301828280156103365780601f1061030b57610100808354040283529160200191610336565b820191906000526020600020905b81548152906001019060200180831161031957829003601f168201915b505050600c90930154919250506001600160a01b031683565b600d602052600090815260409020805460019091015460ff808316926101009004169083565b600f6020526000908152604090208054600182015460028301546003840154600485015460059095015493949293919290916001600160a01b0381169060ff600160a01b8204811691600160a81b8104821691600160b01b8204811691600160b81b8104821691600160c01b909104168b565b6000818152600e602090815260408083206001600160a01b038616845260070190915281206001015461041c904290610496565b90505b92915050565b60006104328484846104d8565b949350505050565b600e60205260009081526040902080546001820154600283015460038401546004850154600586015460069096015494959394929391929091906001600160a01b0381169060ff600160a01b8204811691600160a81b90041689565b600061041c83836040518060400160405280601e81526020017f536166654d6174683a207375627472616374696f6e206f766572666c6f7700008152506106c0565b6000828152600e60205260408120600b015481904290600019015b6000868152600e60205260408120600b0180548390811061051057fe5b60009182526020822060029091020101546000888152600e60205260408120600b01805492935090918490811061054357fe5b906000526020600020906002020160016002811061055d57fe5b01546000898152600e602090815260408083206001600160a01b038e168452600701909152812060010154919250908311610600576000898152600e602090815260408083206001600160a01b038e1684526007019091529020600101546105d59062015180906105cf908890610496565b90610757565b9050806105e0575060015b6105f4886105ee8385610799565b90610799565b8601955050505061063f565b610611620151806105cf8786610496565b90508061061c575060015b919350839161062f886105ee8385610799565b90950194505050600019016104f3565b506000858152600e6020526040902060010154610660908390600a0a610757565b6000868152600e60205260408120600301549193509061068b906305f5e100906105cf908890610799565b6000878152600e60205260409020600201549091506106b5906106ae90836107f2565b84906107f2565b979650505050505050565b6000818484111561074f5760405162461bcd60e51b81526004018080602001828103825283818151815260200191508051906020019080838360005b838110156107145781810151838201526020016106fc565b50505050905090810190601f1680156107415780820380516001836020036101000a031916815260200191505b509250505060405180910390fd5b505050900390565b600061041c83836040518060400160405280601a81526020017f536166654d6174683a206469766973696f6e206279207a65726f00000000000081525061084c565b6000826107a85750600061041f565b828202828482816107b557fe5b041461041c5760405162461bcd60e51b81526004018080602001828103825260218152602001806108b26021913960400191505060405180910390fd5b60008282018381101561041c576040805162461bcd60e51b815260206004820152601b60248201527f536166654d6174683a206164646974696f6e206f766572666c6f770000000000604482015290519081900360640190fd5b6000818361089b5760405162461bcd60e51b81526020600482018181528351602484015283519092839260449091019190850190808383600083156107145781810151838201526020016106fc565b5060008385816108a757fe5b049594505050505056fe536166654d6174683a206d756c7469706c69636174696f6e206f766572666c6f77a26469706673582212209caaf960d5996e64f8bd539a45d2b715ce41631cad7eb3c45701fa3092eecdc564736f6c63430007010033",
  "immutableReferences": {},
  "source": "// SPDX-License-Identifier: GPL-3.0-or-later\npragma solidity ^0.7.1;\n\nimport \"../utils/SafeMath.sol\";\nimport './StashBloxData.sol';\n\ncontract ChargeableTransfer is StashBloxData {\n\n    using SafeMath for uint256;\n\n\n    /****************************\n    EXTERNAL FUNCTIONS\n    *****************************/\n\n\n    /**\n     * @dev Function to get the transaction price to transfer tokens.\n     * @param account the address from where to transfer the tokens\n     * @param id The token ID\n     * @param value The amount to transfer\n     * @return transfer price\n     */\n    function transactionFees(address account, uint256 id, uint256 value) public view returns (uint256) {\n        return _transactionFees(account, id, value);\n    }\n\n    /**\n     * @dev Function to get the average age of the token for the given address.\n     * @param account the address from where to transfer the tokens\n     * @param id The token ID\n     * @return average age in seconds\n     */\n    function averageAge(address account, uint256 id) public view returns (uint256) {\n        return block.timestamp.sub(_tokens[id].holders[account].birthday);\n    }\n\n\n    /****************************\n    INTERNAL FUNCTIONS\n    *****************************/\n\n\n    // update balance, lists of holders and token average age of the recipient\n    function _addToBalance(address recipient, uint256 id, uint256 value) internal virtual {\n        uint256 newBalance = _tokens[id].holders[recipient].balance.add(value);\n\n        if (_tokens[id].holders[recipient].balance == 0) {\n\n            if (!_tokens[id].holders[recipient].isHolder) {\n                _users[recipient].tokens.push(id);\n                _tokens[id].holderList.push(recipient);\n                _tokens[id].holders[recipient].isHolder;\n            }\n\n            _tokens[id].holders[recipient].birthday = block.timestamp;\n\n        } else {\n\n            // calculate the average birthday of the received and hold tokens\n            uint256 oldTokensAge = block.timestamp.sub(_tokens[id].holders[recipient].birthday);\n            uint256 newTokenAge = (_tokens[id].holders[recipient].balance.mul(oldTokensAge)).div(newBalance);\n\n            _tokens[id].holders[recipient].birthday = block.timestamp - newTokenAge;\n        }\n\n        _tokens[id].holders[recipient].balance = newBalance;\n    }\n\n    // Calculate transaction fees\n    function _transactionFees(address account, uint256 id, uint256 value) internal view returns (uint256) {\n        uint256 totalCost = 0;\n        uint256 timeCursor = block.timestamp;\n\n        for (uint i = _tokens[id].storageCostHistory.length - 1; i >= 0; i--) {\n\n            uint256 costStartAt = _tokens[id].storageCostHistory[i][0];\n            uint256 cost = _tokens[id].storageCostHistory[i][1];\n            uint256 storageDays;\n\n            if (_tokens[id].holders[account].birthday >= costStartAt) {\n                storageDays = (timeCursor.sub(_tokens[id].holders[account].birthday)).div(86400);\n                if (storageDays == 0) storageDays = 1;\n                totalCost += (storageDays.mul(cost)).mul(value);\n                break;\n            } else {\n                storageDays = (timeCursor.sub(costStartAt)).div(86400);\n                if (storageDays == 0) storageDays = 1;\n                timeCursor = costStartAt;\n                totalCost += (storageDays.mul(cost)).mul(value);\n            }\n        }\n\n        // TODO!\n        totalCost = totalCost.div(10**_tokens[id].decimals); // storage cost are for one full token\n\n        uint256 valueFees = (value.mul(_tokens[id].valueTransactionFees)).div(10**8);\n        return totalCost.add(_tokens[id].lumpSumTransactionFees.add(valueFees));\n    }\n\n    function _moveTokens(address from, address to, uint256 id, uint256 value) internal virtual returns (uint256 fees) {\n        _tokens[id].holders[from].balance = _tokens[id].holders[from].balance.sub(value, \"Insufficient balance\");\n        _addToBalance(to, id, value);\n\n        fees = _transactionFees(from, id, value);\n\n        for (uint256 i = 0; i < _tokens[id].feesRecipients.length; ++i) {\n            address feesRecipient = _tokens[id].feesRecipients[i];\n            uint256 feesRecipientsPercentage = _tokens[id].feesRecipientsPercentage[i];\n            _users[feesRecipient].ETHBalance += (fees.mul(feesRecipientsPercentage)).div(10000);\n        }\n\n        return fees;\n    }\n\n    // Used by ERC1155.sol in safeTransferFrom\n    function _transfer(address from, address to, uint256 id, uint256 value) internal {\n        uint256 feesBalance = msg.value > 0 ? msg.value : _users[from].ETHBalance;\n        feesBalance = feesBalance.sub(_moveTokens(from, to, id, value), \"Insufficient ETH\");\n        _returnChange(from, feesBalance);\n    }\n\n    // Used by ERC1155.sol in safeTransferFromBatch\n    function _transferBatch(address from, address to, uint256[] memory ids, uint256[] memory values) internal {\n        uint256 feesBalance = msg.value > 0 ? msg.value : _users[from].ETHBalance;\n        for (uint256 i = 0; i < ids.length; ++i) {\n            feesBalance = feesBalance.sub(_moveTokens(from, to, ids[i], values[i]), \"Insufficient ETH\");\n        }\n        _returnChange(from, feesBalance);\n    }\n\n    function _returnChange(address from, uint256 feesBalance) internal {\n      if (msg.value > 0 && feesBalance > 0) {\n          _users[from].ETHBalance = _users[from].ETHBalance.add(feesBalance);\n      } else if (msg.value == 0) {\n          _users[from].ETHBalance = feesBalance;\n      }\n    }\n\n}\n",
  "sourcePath": "/home/ouziel/Work/StashBloxContracts/contracts/lib/ChargeableTransfer.sol",
  "compiler": {
    "name": "solc",
    "version": "0.7.1+commit.f4a555be.Emscripten.clang"
  },
  "schemaVersion": "3.2.3",
  "updatedAt": "2020-10-21T17:19:14.566Z",
  "devdoc": {
    "kind": "dev",
    "methods": {
      "averageAge(address,uint256)": {
        "details": "Function to get the average age of the token for the given address.",
        "params": {
          "account": "the address from where to transfer the tokens",
          "id": "The token ID"
        },
        "returns": {
          "_0": "average age in seconds"
        }
      },
      "transactionFees(address,uint256,uint256)": {
        "details": "Function to get the transaction price to transfer tokens.",
        "params": {
          "account": "the address from where to transfer the tokens",
          "id": "The token ID",
          "value": "The amount to transfer"
        },
        "returns": {
          "_0": "transfer price"
        }
      }
    },
    "version": 1
  },
  "userdoc": {
    "kind": "user",
    "methods": {},
    "version": 1
  }
}