{
  "contractName": "Data",
  "abi": [
    {
      "inputs": [
        {
          "internalType": "uint256",
          "name": "",
          "type": "uint256"
        }
      ],
      "name": "_callbacks",
      "outputs": [
        {
          "internalType": "uint256",
          "name": "tokenId",
          "type": "uint256"
        },
        {
          "internalType": "uint256",
          "name": "price",
          "type": "uint256"
        },
        {
          "internalType": "uint256",
          "name": "escrowedAmount",
          "type": "uint256"
        },
        {
          "internalType": "uint256",
          "name": "callCounter",
          "type": "uint256"
        },
        {
          "internalType": "uint256",
          "name": "documentHash",
          "type": "uint256"
        },
        {
          "internalType": "address",
          "name": "caller",
          "type": "address"
        },
        {
          "internalType": "bool",
          "name": "needLegalApproval",
          "type": "bool"
        },
        {
          "internalType": "bool",
          "name": "approvedByLegal",
          "type": "bool"
        },
        {
          "internalType": "bool",
          "name": "refused",
          "type": "bool"
        },
        {
          "internalType": "bool",
          "name": "accepted",
          "type": "bool"
        },
        {
          "internalType": "bool",
          "name": "completed",
          "type": "bool"
        }
      ],
      "stateMutability": "view",
      "type": "function"
    },
    {
      "inputs": [],
      "name": "_config",
      "outputs": [
        {
          "internalType": "uint256",
          "name": "callbackAutoExecuteMaxAddresses",
          "type": "uint256"
        },
        {
          "internalType": "string",
          "name": "baseURI",
          "type": "string"
        },
        {
          "internalType": "address",
          "name": "owner",
          "type": "address"
        }
      ],
      "stateMutability": "view",
      "type": "function"
    },
    {
      "inputs": [
        {
          "internalType": "uint256",
          "name": "",
          "type": "uint256"
        }
      ],
      "name": "_tokens",
      "outputs": [
        {
          "internalType": "uint256",
          "name": "supply",
          "type": "uint256"
        },
        {
          "internalType": "uint256",
          "name": "decimals",
          "type": "uint256"
        },
        {
          "internalType": "uint256",
          "name": "lumpSumTransactionFees",
          "type": "uint256"
        },
        {
          "internalType": "uint256",
          "name": "valueTransactionFees",
          "type": "uint256"
        },
        {
          "internalType": "uint256",
          "name": "minHoldingForCallback",
          "type": "uint256"
        },
        {
          "internalType": "uint256",
          "name": "metadataHash",
          "type": "uint256"
        },
        {
          "internalType": "address",
          "name": "legalAuthority",
          "type": "address"
        },
        {
          "internalType": "bool",
          "name": "isPrivate",
          "type": "bool"
        },
        {
          "internalType": "bool",
          "name": "locked",
          "type": "bool"
        }
      ],
      "stateMutability": "view",
      "type": "function"
    },
    {
      "inputs": [
        {
          "internalType": "address",
          "name": "",
          "type": "address"
        }
      ],
      "name": "_users",
      "outputs": [
        {
          "internalType": "bool",
          "name": "isTokenizer",
          "type": "bool"
        },
        {
          "internalType": "bool",
          "name": "isLocked",
          "type": "bool"
        },
        {
          "internalType": "uint256",
          "name": "ETHBalance",
          "type": "uint256"
        }
      ],
      "stateMutability": "view",
      "type": "function"
    },
    {
      "inputs": [
        {
          "internalType": "address",
          "name": "forwarder",
          "type": "address"
        }
      ],
      "name": "isTrustedForwarder",
      "outputs": [
        {
          "internalType": "bool",
          "name": "",
          "type": "bool"
        }
      ],
      "stateMutability": "view",
      "type": "function"
    },
    {
      "inputs": [],
      "name": "trustedForwarder",
      "outputs": [
        {
          "internalType": "address",
          "name": "",
          "type": "address"
        }
      ],
      "stateMutability": "view",
      "type": "function"
    },
    {
      "inputs": [],
      "name": "versionRecipient",
      "outputs": [
        {
          "internalType": "string",
          "name": "",
          "type": "string"
        }
      ],
      "stateMutability": "view",
      "type": "function"
    },
    {
      "inputs": [
        {
          "internalType": "uint256",
          "name": "id",
          "type": "uint256"
        }
      ],
      "name": "uri",
      "outputs": [
        {
          "internalType": "string",
          "name": "",
          "type": "string"
        }
      ],
      "stateMutability": "view",
      "type": "function"
    }
  ],
  "bytecode": "0x60c0604052601760808190527f312e302e302b6f70656e67736e2e7374617368626c6f7800000000000000000060a090815261003e9160019190610051565b5034801561004b57600080fd5b506100e4565b828054600181600116156101000203166002900490600052602060002090601f016020900481019282601f1061009257805160ff19168380011785556100bf565b828001600101855582156100bf579182015b828111156100bf5782518255916020019190600101906100a4565b506100cb9291506100cf565b5090565b5b808211156100cb57600081556001016100d0565b61088a806100f36000396000f3fe608060405234801561001057600080fd5b50600436106100885760003560e01c8063486ff0cd1161005b578063486ff0cd14610281578063572b6c05146102895780637da0a877146102c3578063ed70554d146102e757610088565b80630e89341c1461008d5780632ed42bf71461011f5780633cacd7d6146101b6578063414ed0ce146101fc575b600080fd5b6100aa600480360360208110156100a357600080fd5b5035610358565b6040805160208082528351818301528351919283929083019185019080838360005b838110156100e45781810151838201526020016100cc565b50505050905090810190601f1680156101115780820380516001836020036101000a031916815260200191505b509250505060405180910390f35b610127610402565b6040518084815260200180602001836001600160a01b03168152602001828103825284818151815260200191508051906020019080838360005b83811015610179578181015183820152602001610161565b50505050905090810190601f1680156101a65780820380516001836020036101000a031916815260200191505b5094505050505060405180910390f35b6101dc600480360360208110156101cc57600080fd5b50356001600160a01b03166104a5565b604080519315158452911515602084015282820152519081900360600190f35b6102196004803603602081101561021257600080fd5b50356104cb565b604080519b8c5260208c019a909a528a8a019890985260608a019690965260808901949094526001600160a01b0390921660a0880152151560c0870152151560e086015215156101008501521515610120840152151561014083015251908190036101600190f35b6100aa61053e565b6102af6004803603602081101561029f57600080fd5b50356001600160a01b03166105cb565b604080519115158252519081900360200190f35b6102cb6105df565b604080516001600160a01b039092168252519081900360200190f35b610304600480360360208110156102fd57600080fd5b50356105ee565b60408051998a5260208a0198909852888801969096526060880194909452608087019290925260a08601526001600160a01b031660c0850152151560e0840152151561010083015251908190036101200190f35b6003805460408051602060026001851615610100026000190190941693909304601f81018490048402820184019092528181526060936103fa93919290918301828280156103e75780601f106103bc576101008083540402835291602001916103e7565b820191906000526020600020905b8154815290600101906020018083116103ca57829003601f168201915b50505050506103f58461064a565b610706565b90505b919050565b600280546003805460408051602060018416156101000260001901909316869004601f8101849004840282018401909252818152939493929183018282801561048c5780601f106104615761010080835404028352916020019161048c565b820191906000526020600020905b81548152906001019060200180831161046f57829003601f168201915b505050600c90930154919250506001600160a01b031683565b600f602052600090815260409020805460019091015460ff808316926101009004169083565b60116020526000908152604090208054600182015460028301546003840154600485015460059095015493949293919290916001600160a01b0381169060ff600160a01b8204811691600160a81b8104821691600160b01b8204811691600160b81b8104821691600160c01b909104168b565b60018054604080516020600284861615610100026000190190941693909304601f810184900484028201840190925281815292918301828280156105c35780601f10610598576101008083540402835291602001916105c3565b820191906000526020600020905b8154815290600101906020018083116105a657829003601f168201915b505050505081565b6000546001600160a01b0390811691161490565b6000546001600160a01b031681565b601060205260009081526040902080546001820154600283015460038401546004850154600586015460069096015494959394929391929091906001600160a01b0381169060ff600160a01b8204811691600160a81b90041689565b60606000825b8015610666576001919091019060109004610650565b60608267ffffffffffffffff8111801561067f57600080fd5b506040519080825280601f01601f1916602001820160405280156106aa576020820181803683370190505b50905060005b838110156106fd576010860692506106c783610810565b82600183870303815181106106d857fe5b60200101906001600160f81b031916908160001a9053506010860495506001016106b0565b50949350505050565b805182516060918491849184910167ffffffffffffffff8111801561072a57600080fd5b506040519080825280601f01601f191660200182016040528015610755576020820181803683370190505b509050806000805b85518110156107ae5785818151811061077257fe5b602001015160f81c60f81b83838060010194508151811061078f57fe5b60200101906001600160f81b031916908160001a90535060010161075d565b5060005b8451811015610803578481815181106107c757fe5b602001015160f81c60f81b8383806001019450815181106107e457fe5b60200101906001600160f81b031916908160001a9053506001016107b2565b5090979650505050505050565b600060098260ff161161082a57506030810160f81b6103fd565b8160ff16600a111580156108425750600f8260ff1611155b1561008857506057810160f81b6103fd56fea2646970667358221220d37925452aea31b8a2a4c086db7e71441adc437b9c5541a97e6481922f8a8c3564736f6c63430007010033",
  "immutableReferences": {},
  "source": "// SPDX-License-Identifier: GPL-3.0-or-later\npragma solidity ^0.7.1;\n\nimport '../utils/StringUtils.sol';\nimport '../interfaces/IERC1155Metadata.sol';\nimport './GSNCapable.sol';\n\ncontract Data is GSNCapable, IERC1155Metadata, StringUtils {\n\n\n    /***************************************\n    TYPES\n    ****************************************/\n\n\n    struct User {\n        bool isTokenizer;\n        bool isLocked;\n        uint256 ETHBalance;\n        uint256[] tokens;\n        mapping(address => bool) operatorApprovals;\n    }\n\n    struct Holder {\n        uint256 balance;\n        uint256 birthday;\n        bool isMaintener;\n        bool isHolder; // never come back to false\n        bool isApproved; // for private tokens\n    }\n\n    struct Token {\n        uint256 supply;\n        uint256 decimals;\n        uint256 lumpSumTransactionFees;\n        uint256 valueTransactionFees;\n        uint256 minHoldingForCallback;\n        uint256 metadataHash;\n        address legalAuthority;\n        bool isPrivate;\n        bool locked;\n        mapping(address => Holder) holders;\n        address[] holderList; // Can contains zero balance\n        address[] feesRecipients;\n        uint256[] feesRecipientsPercentage;\n        uint256[2][] storageCostHistory; //list of tuple [timestamp, price]\n    }\n\n    struct Config {\n        uint256 callbackAutoExecuteMaxAddresses;\n        string baseURI;\n        address[10] proxyRegistryAddresses;\n        address owner;\n    }\n\n    struct Callback {\n        uint256 tokenId;\n        uint256 price;\n        uint256 escrowedAmount;\n        uint256 callCounter;\n        uint256 documentHash;\n        address caller;\n        bool needLegalApproval;\n        bool approvedByLegal;\n        bool refused;\n        bool accepted;\n        bool completed;\n        address[] callees;\n    }\n\n\n    /***************************************\n    CONSTANTS\n    ****************************************/\n\n\n    bytes4 constant internal INTERFACE_SIGNATURE_ERC165 = 0x01ffc9a7;\n    bytes4 constant internal INTERFACE_SIGNATURE_ERC1155 = 0xd9b67a26;\n    string public override versionRecipient = \"1.0.0+opengsn.stashblox\";\n\n\n    /***************************************\n    GLOBAL VARIABLES\n    ****************************************/\n\n\n    Config public  _config;\n    mapping (address => User) public _users;\n    mapping (uint256 => Token) public _tokens;\n    mapping (uint256 => Callback) public _callbacks;\n\n\n    /***************************************\n    EXTERNAL FUNCTIONS\n    ****************************************/\n\n\n    /**\n     * @param id Token ID\n     * @return URI string\n     */\n    function uri(uint256 id) external view override returns (string memory) {\n        return _strConcat(_config.baseURI, _toHexString(id));\n    }\n\n}\n",
  "sourcePath": "/home/ouziel/Work/StashBloxContracts/contracts/lib/Data.sol",
  "compiler": {
    "name": "solc",
    "version": "0.7.1+commit.f4a555be.Emscripten.clang"
  },
  "schemaVersion": "3.2.3",
  "updatedAt": "2020-10-21T21:50:16.114Z",
  "devdoc": {
    "kind": "dev",
    "methods": {
      "uri(uint256)": {
        "params": {
          "id": "Token ID"
        },
        "returns": {
          "_0": "URI string"
        }
      }
    },
    "version": 1
  },
  "userdoc": {
    "kind": "user",
    "methods": {
      "isTrustedForwarder(address)": {
        "notice": "return if the forwarder is trusted to forward relayed transactions to us. the forwarder is required to verify the sender's signature, and verify the call is not a replay."
      }
    },
    "version": 1
  }
}