{
  "contractName": "ERC1155Mintable",
  "abi": [
    {
      "anonymous": false,
      "inputs": [
        {
          "indexed": true,
          "internalType": "address",
          "name": "_owner",
          "type": "address"
        },
        {
          "indexed": true,
          "internalType": "address",
          "name": "_operator",
          "type": "address"
        },
        {
          "indexed": false,
          "internalType": "bool",
          "name": "_approved",
          "type": "bool"
        }
      ],
      "name": "ApprovalForAll",
      "type": "event"
    },
    {
      "anonymous": false,
      "inputs": [
        {
          "indexed": true,
          "internalType": "uint256",
          "name": "_id",
          "type": "uint256"
        },
        {
          "indexed": false,
          "internalType": "address",
          "name": "_proposer",
          "type": "address"
        },
        {
          "indexed": false,
          "internalType": "uint256",
          "name": "_price",
          "type": "uint256"
        }
      ],
      "name": "CallbackAccepted",
      "type": "event"
    },
    {
      "anonymous": false,
      "inputs": [
        {
          "indexed": true,
          "internalType": "uint256",
          "name": "_id",
          "type": "uint256"
        },
        {
          "indexed": false,
          "internalType": "address",
          "name": "_proposer",
          "type": "address"
        },
        {
          "indexed": false,
          "internalType": "uint256",
          "name": "_price",
          "type": "uint256"
        }
      ],
      "name": "CallbackCanceled",
      "type": "event"
    },
    {
      "anonymous": false,
      "inputs": [
        {
          "indexed": true,
          "internalType": "uint256",
          "name": "_id",
          "type": "uint256"
        },
        {
          "indexed": false,
          "internalType": "address",
          "name": "_proposer",
          "type": "address"
        },
        {
          "indexed": false,
          "internalType": "uint256",
          "name": "_price",
          "type": "uint256"
        }
      ],
      "name": "CallbackProposed",
      "type": "event"
    },
    {
      "anonymous": false,
      "inputs": [
        {
          "indexed": true,
          "internalType": "uint256",
          "name": "_id",
          "type": "uint256"
        },
        {
          "indexed": false,
          "internalType": "address",
          "name": "_proposer",
          "type": "address"
        },
        {
          "indexed": false,
          "internalType": "uint256",
          "name": "_price",
          "type": "uint256"
        }
      ],
      "name": "CallbackRefused",
      "type": "event"
    },
    {
      "anonymous": false,
      "inputs": [
        {
          "indexed": true,
          "internalType": "uint256",
          "name": "_id",
          "type": "uint256"
        },
        {
          "indexed": true,
          "internalType": "uint256",
          "name": "_hash",
          "type": "uint256"
        }
      ],
      "name": "MetadataHashUpdated",
      "type": "event"
    },
    {
      "anonymous": false,
      "inputs": [
        {
          "indexed": true,
          "internalType": "address",
          "name": "previousOwner",
          "type": "address"
        },
        {
          "indexed": true,
          "internalType": "address",
          "name": "newOwner",
          "type": "address"
        }
      ],
      "name": "OwnershipTransferred",
      "type": "event"
    },
    {
      "anonymous": false,
      "inputs": [
        {
          "indexed": true,
          "internalType": "address",
          "name": "_operator",
          "type": "address"
        },
        {
          "indexed": true,
          "internalType": "address",
          "name": "_from",
          "type": "address"
        },
        {
          "indexed": true,
          "internalType": "address",
          "name": "_to",
          "type": "address"
        },
        {
          "indexed": false,
          "internalType": "uint256[]",
          "name": "_ids",
          "type": "uint256[]"
        },
        {
          "indexed": false,
          "internalType": "uint256[]",
          "name": "_values",
          "type": "uint256[]"
        }
      ],
      "name": "TransferBatch",
      "type": "event"
    },
    {
      "anonymous": false,
      "inputs": [
        {
          "indexed": true,
          "internalType": "address",
          "name": "_operator",
          "type": "address"
        },
        {
          "indexed": true,
          "internalType": "address",
          "name": "_from",
          "type": "address"
        },
        {
          "indexed": true,
          "internalType": "address",
          "name": "_to",
          "type": "address"
        },
        {
          "indexed": false,
          "internalType": "uint256",
          "name": "_id",
          "type": "uint256"
        },
        {
          "indexed": false,
          "internalType": "uint256",
          "name": "_value",
          "type": "uint256"
        }
      ],
      "name": "TransferSingle",
      "type": "event"
    },
    {
      "anonymous": false,
      "inputs": [
        {
          "indexed": false,
          "internalType": "string",
          "name": "_value",
          "type": "string"
        },
        {
          "indexed": true,
          "internalType": "uint256",
          "name": "_id",
          "type": "uint256"
        }
      ],
      "name": "URI",
      "type": "event"
    },
    {
      "anonymous": false,
      "inputs": [
        {
          "indexed": true,
          "internalType": "address",
          "name": "_tokenizer",
          "type": "address"
        },
        {
          "indexed": false,
          "internalType": "uint256",
          "name": "_id",
          "type": "uint256"
        },
        {
          "indexed": false,
          "internalType": "uint256",
          "name": "_cost",
          "type": "uint256"
        }
      ],
      "name": "UpdateStorageCost",
      "type": "event"
    },
    {
      "anonymous": false,
      "inputs": [
        {
          "indexed": true,
          "internalType": "address",
          "name": "_owner",
          "type": "address"
        },
        {
          "indexed": false,
          "internalType": "uint256",
          "name": "_price",
          "type": "uint256"
        }
      ],
      "name": "UpdateStorageCreditPrice",
      "type": "event"
    },
    {
      "constant": true,
      "inputs": [],
      "name": "BASE_URI",
      "outputs": [
        {
          "internalType": "string",
          "name": "",
          "type": "string"
        }
      ],
      "payable": false,
      "stateMutability": "view",
      "type": "function"
    },
    {
      "constant": true,
      "inputs": [
        {
          "internalType": "uint256",
          "name": "id",
          "type": "uint256"
        }
      ],
      "name": "addressesByToken",
      "outputs": [
        {
          "internalType": "string",
          "name": "result",
          "type": "string"
        }
      ],
      "payable": false,
      "stateMutability": "view",
      "type": "function"
    },
    {
      "constant": true,
      "inputs": [
        {
          "internalType": "address",
          "name": "account",
          "type": "address"
        },
        {
          "internalType": "uint256",
          "name": "id",
          "type": "uint256"
        }
      ],
      "name": "balanceOf",
      "outputs": [
        {
          "internalType": "uint256",
          "name": "",
          "type": "uint256"
        }
      ],
      "payable": false,
      "stateMutability": "view",
      "type": "function"
    },
    {
      "constant": true,
      "inputs": [
        {
          "internalType": "address[]",
          "name": "accounts",
          "type": "address[]"
        },
        {
          "internalType": "uint256[]",
          "name": "ids",
          "type": "uint256[]"
        }
      ],
      "name": "balanceOfBatch",
      "outputs": [
        {
          "internalType": "uint256[]",
          "name": "",
          "type": "uint256[]"
        }
      ],
      "payable": false,
      "stateMutability": "view",
      "type": "function"
    },
    {
      "constant": true,
      "inputs": [
        {
          "internalType": "address",
          "name": "account",
          "type": "address"
        },
        {
          "internalType": "uint256",
          "name": "id",
          "type": "uint256"
        }
      ],
      "name": "birthdayOf",
      "outputs": [
        {
          "internalType": "uint256",
          "name": "",
          "type": "uint256"
        }
      ],
      "payable": false,
      "stateMutability": "view",
      "type": "function"
    },
    {
      "constant": true,
      "inputs": [
        {
          "internalType": "address",
          "name": "account",
          "type": "address"
        },
        {
          "internalType": "address",
          "name": "operator",
          "type": "address"
        }
      ],
      "name": "isApprovedForAll",
      "outputs": [
        {
          "internalType": "bool",
          "name": "",
          "type": "bool"
        }
      ],
      "payable": false,
      "stateMutability": "view",
      "type": "function"
    },
    {
      "constant": true,
      "inputs": [
        {
          "internalType": "address",
          "name": "addr",
          "type": "address"
        }
      ],
      "name": "isLockedAddress",
      "outputs": [
        {
          "internalType": "bool",
          "name": "",
          "type": "bool"
        }
      ],
      "payable": false,
      "stateMutability": "view",
      "type": "function"
    },
    {
      "constant": true,
      "inputs": [
        {
          "internalType": "uint256",
          "name": "id",
          "type": "uint256"
        }
      ],
      "name": "isLockedToken",
      "outputs": [
        {
          "internalType": "bool",
          "name": "",
          "type": "bool"
        }
      ],
      "payable": false,
      "stateMutability": "view",
      "type": "function"
    },
    {
      "constant": false,
      "inputs": [
        {
          "internalType": "address",
          "name": "addr",
          "type": "address"
        }
      ],
      "name": "lockAddress",
      "outputs": [],
      "payable": false,
      "stateMutability": "nonpayable",
      "type": "function"
    },
    {
      "constant": false,
      "inputs": [
        {
          "internalType": "uint256",
          "name": "id",
          "type": "uint256"
        }
      ],
      "name": "lockToken",
      "outputs": [],
      "payable": false,
      "stateMutability": "nonpayable",
      "type": "function"
    },
    {
      "constant": true,
      "inputs": [
        {
          "internalType": "uint256",
          "name": "id",
          "type": "uint256"
        }
      ],
      "name": "metadataHash",
      "outputs": [
        {
          "internalType": "uint256",
          "name": "",
          "type": "uint256"
        }
      ],
      "payable": false,
      "stateMutability": "view",
      "type": "function"
    },
    {
      "constant": true,
      "inputs": [],
      "name": "owner",
      "outputs": [
        {
          "internalType": "address",
          "name": "",
          "type": "address"
        }
      ],
      "payable": false,
      "stateMutability": "view",
      "type": "function"
    },
    {
      "constant": false,
      "inputs": [
        {
          "internalType": "address",
          "name": "from",
          "type": "address"
        },
        {
          "internalType": "address",
          "name": "to",
          "type": "address"
        },
        {
          "internalType": "uint256[]",
          "name": "ids",
          "type": "uint256[]"
        },
        {
          "internalType": "uint256[]",
          "name": "values",
          "type": "uint256[]"
        },
        {
          "internalType": "bytes",
          "name": "data",
          "type": "bytes"
        }
      ],
      "name": "safeBatchTransferFrom",
      "outputs": [],
      "payable": true,
      "stateMutability": "payable",
      "type": "function"
    },
    {
      "constant": false,
      "inputs": [
        {
          "internalType": "address",
          "name": "from",
          "type": "address"
        },
        {
          "internalType": "address",
          "name": "to",
          "type": "address"
        },
        {
          "internalType": "uint256",
          "name": "id",
          "type": "uint256"
        },
        {
          "internalType": "uint256",
          "name": "value",
          "type": "uint256"
        },
        {
          "internalType": "bytes",
          "name": "data",
          "type": "bytes"
        }
      ],
      "name": "safeTransferFrom",
      "outputs": [],
      "payable": true,
      "stateMutability": "payable",
      "type": "function"
    },
    {
      "constant": false,
      "inputs": [
        {
          "internalType": "address",
          "name": "operator",
          "type": "address"
        },
        {
          "internalType": "bool",
          "name": "approved",
          "type": "bool"
        }
      ],
      "name": "setApprovalForAll",
      "outputs": [],
      "payable": false,
      "stateMutability": "nonpayable",
      "type": "function"
    },
    {
      "constant": true,
      "inputs": [
        {
          "internalType": "address",
          "name": "account",
          "type": "address"
        },
        {
          "internalType": "uint256",
          "name": "id",
          "type": "uint256"
        },
        {
          "internalType": "uint256",
          "name": "value",
          "type": "uint256"
        }
      ],
      "name": "storageFees",
      "outputs": [
        {
          "internalType": "uint256",
          "name": "",
          "type": "uint256"
        }
      ],
      "payable": false,
      "stateMutability": "view",
      "type": "function"
    },
    {
      "constant": true,
      "inputs": [
        {
          "internalType": "bytes4",
          "name": "_interfaceID",
          "type": "bytes4"
        }
      ],
      "name": "supportsInterface",
      "outputs": [
        {
          "internalType": "bool",
          "name": "",
          "type": "bool"
        }
      ],
      "payable": false,
      "stateMutability": "view",
      "type": "function"
    },
    {
      "constant": true,
      "inputs": [
        {
          "internalType": "address",
          "name": "account",
          "type": "address"
        }
      ],
      "name": "tokensByAddress",
      "outputs": [
        {
          "internalType": "string",
          "name": "result",
          "type": "string"
        }
      ],
      "payable": false,
      "stateMutability": "view",
      "type": "function"
    },
    {
      "constant": false,
      "inputs": [
        {
          "internalType": "address",
          "name": "newOwner",
          "type": "address"
        }
      ],
      "name": "transferOwnership",
      "outputs": [],
      "payable": false,
      "stateMutability": "nonpayable",
      "type": "function"
    },
    {
      "constant": false,
      "inputs": [
        {
          "internalType": "address",
          "name": "addr",
          "type": "address"
        }
      ],
      "name": "unlockAddress",
      "outputs": [],
      "payable": false,
      "stateMutability": "nonpayable",
      "type": "function"
    },
    {
      "constant": false,
      "inputs": [
        {
          "internalType": "uint256",
          "name": "id",
          "type": "uint256"
        }
      ],
      "name": "unlockToken",
      "outputs": [],
      "payable": false,
      "stateMutability": "nonpayable",
      "type": "function"
    },
    {
      "constant": true,
      "inputs": [
        {
          "internalType": "uint256",
          "name": "id",
          "type": "uint256"
        }
      ],
      "name": "uri",
      "outputs": [
        {
          "internalType": "string",
          "name": "",
          "type": "string"
        }
      ],
      "payable": false,
      "stateMutability": "view",
      "type": "function"
    },
    {
      "constant": false,
      "inputs": [
        {
          "internalType": "address",
          "name": "tokenizer",
          "type": "address"
        }
      ],
      "name": "authorizeTokenizer",
      "outputs": [],
      "payable": false,
      "stateMutability": "nonpayable",
      "type": "function"
    },
    {
      "constant": false,
      "inputs": [
        {
          "internalType": "address",
          "name": "tokenizer",
          "type": "address"
        }
      ],
      "name": "revokeTokenizer",
      "outputs": [],
      "payable": false,
      "stateMutability": "nonpayable",
      "type": "function"
    },
    {
      "constant": true,
      "inputs": [
        {
          "internalType": "address",
          "name": "tokenizer",
          "type": "address"
        }
      ],
      "name": "isTokenizer",
      "outputs": [
        {
          "internalType": "bool",
          "name": "",
          "type": "bool"
        }
      ],
      "payable": false,
      "stateMutability": "view",
      "type": "function"
    },
    {
      "constant": false,
      "inputs": [
        {
          "internalType": "address",
          "name": "recipient",
          "type": "address"
        },
        {
          "internalType": "uint256",
          "name": "id",
          "type": "uint256"
        },
        {
          "internalType": "uint256",
          "name": "supply",
          "type": "uint256"
        },
        {
          "internalType": "uint256",
          "name": "metadataHash",
          "type": "uint256"
        },
        {
          "internalType": "uint256",
          "name": "storageCreditCost",
          "type": "uint256"
        },
        {
          "internalType": "uint256",
          "name": "minHoldingForCallback",
          "type": "uint256"
        },
        {
          "internalType": "address[]",
          "name": "feesRecipients",
          "type": "address[]"
        },
        {
          "internalType": "uint256[]",
          "name": "feesRecipientsPercentage",
          "type": "uint256[]"
        }
      ],
      "name": "createToken",
      "outputs": [],
      "payable": false,
      "stateMutability": "nonpayable",
      "type": "function"
    },
    {
      "constant": false,
      "inputs": [
        {
          "internalType": "uint256",
          "name": "supply",
          "type": "uint256"
        },
        {
          "internalType": "uint256",
          "name": "storageCreditCost",
          "type": "uint256"
        },
        {
          "internalType": "uint256",
          "name": "minHoldingForCallback",
          "type": "uint256"
        },
        {
          "internalType": "address[]",
          "name": "feesRecipients",
          "type": "address[]"
        },
        {
          "internalType": "uint256[]",
          "name": "feesRecipientsPercentage",
          "type": "uint256[]"
        }
      ],
      "name": "setCreateTokensDefaultValues",
      "outputs": [],
      "payable": false,
      "stateMutability": "nonpayable",
      "type": "function"
    },
    {
      "constant": false,
      "inputs": [
        {
          "internalType": "address",
          "name": "recipient",
          "type": "address"
        },
        {
          "internalType": "uint256[]",
          "name": "ids",
          "type": "uint256[]"
        },
        {
          "internalType": "uint256[]",
          "name": "metadataHashes",
          "type": "uint256[]"
        }
      ],
      "name": "createTokens",
      "outputs": [],
      "payable": false,
      "stateMutability": "nonpayable",
      "type": "function"
    },
    {
      "constant": false,
      "inputs": [
        {
          "internalType": "uint256",
          "name": "id",
          "type": "uint256"
        },
        {
          "internalType": "uint256",
          "name": "metadataHash",
          "type": "uint256"
        }
      ],
      "name": "updateMetadataHash",
      "outputs": [],
      "payable": false,
      "stateMutability": "nonpayable",
      "type": "function"
    },
    {
      "constant": false,
      "inputs": [
        {
          "internalType": "uint256",
          "name": "newPrice",
          "type": "uint256"
        }
      ],
      "name": "updateStorageCreditPrice",
      "outputs": [],
      "payable": false,
      "stateMutability": "nonpayable",
      "type": "function"
    },
    {
      "constant": false,
      "inputs": [
        {
          "internalType": "uint256",
          "name": "id",
          "type": "uint256"
        },
        {
          "internalType": "uint256",
          "name": "newCost",
          "type": "uint256"
        }
      ],
      "name": "updateStorageCost",
      "outputs": [],
      "payable": false,
      "stateMutability": "nonpayable",
      "type": "function"
    },
    {
      "constant": false,
      "inputs": [
        {
          "internalType": "address",
          "name": "to",
          "type": "address"
        },
        {
          "internalType": "uint256",
          "name": "amount",
          "type": "uint256"
        }
      ],
      "name": "withdraw",
      "outputs": [],
      "payable": false,
      "stateMutability": "nonpayable",
      "type": "function"
    },
    {
      "constant": false,
      "inputs": [
        {
          "internalType": "uint256",
          "name": "id",
          "type": "uint256"
        },
        {
          "internalType": "uint256",
          "name": "price",
          "type": "uint256"
        }
      ],
      "name": "proposeCallback",
      "outputs": [],
      "payable": true,
      "stateMutability": "payable",
      "type": "function"
    },
    {
      "constant": false,
      "inputs": [
        {
          "internalType": "uint256",
          "name": "id",
          "type": "uint256"
        },
        {
          "internalType": "address",
          "name": "proposer",
          "type": "address"
        }
      ],
      "name": "refuseCallback",
      "outputs": [],
      "payable": false,
      "stateMutability": "nonpayable",
      "type": "function"
    },
    {
      "constant": false,
      "inputs": [
        {
          "internalType": "uint256",
          "name": "id",
          "type": "uint256"
        },
        {
          "internalType": "address",
          "name": "proposer",
          "type": "address"
        }
      ],
      "name": "acceptCallback",
      "outputs": [],
      "payable": false,
      "stateMutability": "nonpayable",
      "type": "function"
    },
    {
      "constant": true,
      "inputs": [
        {
          "internalType": "uint256",
          "name": "id",
          "type": "uint256"
        }
      ],
      "name": "totalSupply",
      "outputs": [
        {
          "internalType": "uint256",
          "name": "",
          "type": "uint256"
        }
      ],
      "payable": false,
      "stateMutability": "view",
      "type": "function"
    }
  ],
  "bytecode": "0x60806040526103e8600655611f4060175562000021336200002760201b60201c565b6200016d565b600073ffffffffffffffffffffffffffffffffffffffff168173ffffffffffffffffffffffffffffffffffffffff161415620000af576040517f08c379a0000000000000000000000000000000000000000000000000000000008152600401808060200182810382526026815260200180620069f66026913960400191505060405180910390fd5b8073ffffffffffffffffffffffffffffffffffffffff166000809054906101000a900473ffffffffffffffffffffffffffffffffffffffff1673ffffffffffffffffffffffffffffffffffffffff167f8be0079c531659141344cd1fd0a4f28419497f9722a3daafe3b4186f6b6457e060405160405180910390a3806000806101000a81548173ffffffffffffffffffffffffffffffffffffffff021916908373ffffffffffffffffffffffffffffffffffffffff16021790555050565b616879806200017d6000396000f3fe60806040526004361061020e5760003560e01c8063b5690ac111610118578063dbddb26a116100a0578063f242432a1161006f578063f242432a1461114a578063f2fde38b14611217578063f38320ce14611268578063f3fef3a314611363578063f8c89fd0146113be5761020e565b8063dbddb26a14610f87578063dd2e0ac014611017578063e1c95f8a14611052578063e985e9c5146110c15761020e565b8063c02f303c116100e7578063c02f303c14610c44578063c4be3c3c14610cad578063cba54e6014610d26578063cf6c97ca14610d8f578063d6bc594214610ebd5761020e565b8063b5690ac114610a9d578063b7eb5e0a14610b51578063bba75c8314610ba2578063bd85b03914610bf55761020e565b806370e0b1451161019b5780638870147b1161016a5780638870147b146108f85780638da5cb5b14610949578063939cd641146109a0578063a22cb465146109e5578063a294007214610a425761020e565b806370e0b145146107f95780637627b7321461083157806380f20363146108825780638495b141146108bd5761020e565b80632eb2c2d6116101e25780632eb2c2d6146103f757806334a90d021461055a5780634e1273f4146105ab5780636b62becb146107595780636fe8ded21461079e5761020e565b8062fdd58e1461021357806301ffc9a7146102825780630e89341c146102f4578063219cc8bc146103a8575b600080fd5b34801561021f57600080fd5b5061026c6004803603604081101561023657600080fd5b81019080803573ffffffffffffffffffffffffffffffffffffffff169060200190929190803590602001909291905050506114b7565b6040518082815260200191505060405180910390f35b34801561028e57600080fd5b506102da600480360360208110156102a557600080fd5b8101908080357bffffffffffffffffffffffffffffffffffffffffffffffffffffffff19169060200190929190505050611597565b604051808215151515815260200191505060405180910390f35b34801561030057600080fd5b5061032d6004803603602081101561031757600080fd5b8101908080359060200190929190505050611648565b6040518080602001828103825283818151815260200191508051906020019080838360005b8381101561036d578082015181840152602081019050610352565b50505050905090810190601f16801561039a5780820380516001836020036101000a031916815260200191505b509250505060405180910390f35b3480156103b457600080fd5b506103e1600480360360208110156103cb57600080fd5b8101908080359060200190929190505050611698565b6040518082815260200191505060405180910390f35b610558600480360360a081101561040d57600080fd5b81019080803573ffffffffffffffffffffffffffffffffffffffff169060200190929190803573ffffffffffffffffffffffffffffffffffffffff1690602001909291908035906020019064010000000081111561046a57600080fd5b82018360208201111561047c57600080fd5b8035906020019184602083028401116401000000008311171561049e57600080fd5b9091929391929390803590602001906401000000008111156104bf57600080fd5b8201836020820111156104d157600080fd5b803590602001918460208302840111640100000000831117156104f357600080fd5b90919293919293908035906020019064010000000081111561051457600080fd5b82018360208201111561052657600080fd5b8035906020019184600183028401116401000000008311171561054857600080fd5b90919293919293905050506116b5565b005b34801561056657600080fd5b506105a96004803603602081101561057d57600080fd5b81019080803573ffffffffffffffffffffffffffffffffffffffff169060200190929190505050611b34565b005b3480156105b757600080fd5b50610702600480360360408110156105ce57600080fd5b81019080803590602001906401000000008111156105eb57600080fd5b8201836020820111156105fd57600080fd5b8035906020019184602083028401116401000000008311171561061f57600080fd5b919080806020026020016040519081016040528093929190818152602001838360200280828437600081840152601f19601f8201169050808301925050505050505091929192908035906020019064010000000081111561067f57600080fd5b82018360208201111561069157600080fd5b803590602001918460208302840111640100000000831117156106b357600080fd5b919080806020026020016040519081016040528093929190818152602001838360200280828437600081840152601f19601f820116905080830192505050505050509192919290505050611c09565b6040518080602001828103825283818151815260200191508051906020019060200280838360005b8381101561074557808201518184015260208101905061072a565b505050509050019250505060405180910390f35b34801561076557600080fd5b5061079c6004803603604081101561077c57600080fd5b810190808035906020019092919080359060200190929190505050611de7565b005b3480156107aa57600080fd5b506107f7600480360360408110156107c157600080fd5b8101908080359060200190929190803573ffffffffffffffffffffffffffffffffffffffff169060200190929190505050611e53565b005b61082f6004803603604081101561080f57600080fd5b810190808035906020019092919080359060200190929190505050612125565b005b34801561083d57600080fd5b506108806004803603602081101561085457600080fd5b81019080803573ffffffffffffffffffffffffffffffffffffffff1690602001909291905050506124d2565b005b34801561088e57600080fd5b506108bb600480360360208110156108a557600080fd5b81019080803590602001909291905050506125a7565b005b3480156108c957600080fd5b506108f6600480360360208110156108e057600080fd5b810190808035906020019092919050505061264f565b005b34801561090457600080fd5b506109476004803603602081101561091b57600080fd5b81019080803573ffffffffffffffffffffffffffffffffffffffff169060200190929190505050612705565b005b34801561095557600080fd5b5061095e6127da565b604051808273ffffffffffffffffffffffffffffffffffffffff1673ffffffffffffffffffffffffffffffffffffffff16815260200191505060405180910390f35b3480156109ac57600080fd5b506109e3600480360360408110156109c357600080fd5b810190808035906020019092919080359060200190929190505050612803565b005b3480156109f157600080fd5b50610a4060048036036040811015610a0857600080fd5b81019080803573ffffffffffffffffffffffffffffffffffffffff16906020019092919080351515906020019092919050505061291e565b005b348015610a4e57600080fd5b50610a9b60048036036040811015610a6557600080fd5b8101908080359060200190929190803573ffffffffffffffffffffffffffffffffffffffff169060200190929190505050612aa4565b005b348015610aa957600080fd5b50610ad660048036036020811015610ac057600080fd5b8101908080359060200190929190505050613169565b6040518080602001828103825283818151815260200191508051906020019080838360005b83811015610b16578082015181840152602081019050610afb565b50505050905090810190601f168015610b435780820380516001836020036101000a031916815260200191505b509250505060405180910390f35b348015610b5d57600080fd5b50610ba060048036036020811015610b7457600080fd5b81019080803573ffffffffffffffffffffffffffffffffffffffff1690602001909291905050506132e9565b005b348015610bae57600080fd5b50610bdb60048036036020811015610bc557600080fd5b81019080803590602001909291905050506133be565b604051808215151515815260200191505060405180910390f35b348015610c0157600080fd5b50610c2e60048036036020811015610c1857600080fd5b81019080803590602001909291905050506133d0565b6040518082815260200191505060405180910390f35b348015610c5057600080fd5b50610c9360048036036020811015610c6757600080fd5b81019080803573ffffffffffffffffffffffffffffffffffffffff1690602001909291905050506133ed565b604051808215151515815260200191505060405180910390f35b348015610cb957600080fd5b50610d1060048036036060811015610cd057600080fd5b81019080803573ffffffffffffffffffffffffffffffffffffffff16906020019092919080359060200190929190803590602001909291905050506133ff565b6040518082815260200191505060405180910390f35b348015610d3257600080fd5b50610d7560048036036020811015610d4957600080fd5b81019080803573ffffffffffffffffffffffffffffffffffffffff169060200190929190505050613415565b604051808215151515815260200191505060405180910390f35b348015610d9b57600080fd5b50610ebb6004803603610100811015610db357600080fd5b81019080803573ffffffffffffffffffffffffffffffffffffffff169060200190929190803590602001909291908035906020019092919080359060200190929190803590602001909291908035906020019092919080359060200190640100000000811115610e2257600080fd5b820183602082011115610e3457600080fd5b80359060200191846020830284011164010000000083111715610e5657600080fd5b909192939192939080359060200190640100000000811115610e7757600080fd5b820183602082011115610e8957600080fd5b80359060200191846020830284011164010000000083111715610eab57600080fd5b9091929391929390505050613427565b005b348015610ec957600080fd5b50610f0c60048036036020811015610ee057600080fd5b81019080803573ffffffffffffffffffffffffffffffffffffffff169060200190929190505050613523565b6040518080602001828103825283818151815260200191508051906020019080838360005b83811015610f4c578082015181840152602081019050610f31565b50505050905090810190601f168015610f795780820380516001836020036101000a031916815260200191505b509250505060405180910390f35b348015610f9357600080fd5b50610f9c613735565b6040518080602001828103825283818151815260200191508051906020019080838360005b83811015610fdc578082015181840152602081019050610fc1565b50505050905090810190601f1680156110095780820380516001836020036101000a031916815260200191505b509250505060405180910390f35b34801561102357600080fd5b506110506004803603602081101561103a57600080fd5b810190808035906020019092919050505061376e565b005b34801561105e57600080fd5b506110ab6004803603604081101561107557600080fd5b81019080803573ffffffffffffffffffffffffffffffffffffffff16906020019092919080359060200190929190505050613817565b6040518082815260200191505060405180910390f35b3480156110cd57600080fd5b50611130600480360360408110156110e457600080fd5b81019080803573ffffffffffffffffffffffffffffffffffffffff169060200190929190803573ffffffffffffffffffffffffffffffffffffffff169060200190929190505050613957565b604051808215151515815260200191505060405180910390f35b611215600480360360a081101561116057600080fd5b81019080803573ffffffffffffffffffffffffffffffffffffffff169060200190929190803573ffffffffffffffffffffffffffffffffffffffff1690602001909291908035906020019092919080359060200190929190803590602001906401000000008111156111d157600080fd5b8201836020820111156111e357600080fd5b8035906020019184600183028401116401000000008311171561120557600080fd5b90919293919293905050506139eb565b005b34801561122357600080fd5b506112666004803603602081101561123a57600080fd5b81019080803573ffffffffffffffffffffffffffffffffffffffff169060200190929190505050613ce9565b005b34801561127457600080fd5b506113616004803603606081101561128b57600080fd5b81019080803573ffffffffffffffffffffffffffffffffffffffff169060200190929190803590602001906401000000008111156112c857600080fd5b8201836020820111156112da57600080fd5b803590602001918460208302840111640100000000831117156112fc57600080fd5b90919293919293908035906020019064010000000081111561131d57600080fd5b82018360208201111561132f57600080fd5b8035906020019184602083028401116401000000008311171561135157600080fd5b9091929391929390505050613d6f565b005b34801561136f57600080fd5b506113bc6004803603604081101561138657600080fd5b81019080803573ffffffffffffffffffffffffffffffffffffffff16906020019092919080359060200190929190505050613f01565b005b3480156113ca57600080fd5b506114b5600480360360a08110156113e157600080fd5b810190808035906020019092919080359060200190929190803590602001909291908035906020019064010000000081111561141c57600080fd5b82018360208201111561142e57600080fd5b8035906020019184602083028401116401000000008311171561145057600080fd5b90919293919293908035906020019064010000000081111561147157600080fd5b82018360208201111561148357600080fd5b803590602001918460208302840111640100000000831117156114a557600080fd5b90919293919293905050506140f0565b005b60008073ffffffffffffffffffffffffffffffffffffffff168373ffffffffffffffffffffffffffffffffffffffff16141561153e576040517f08c379a000000000000000000000000000000000000000000000000000000000815260040180806020018281038252602b815260200180616323602b913960400191505060405180910390fd5b6003600083815260200190815260200160002060008473ffffffffffffffffffffffffffffffffffffffff1673ffffffffffffffffffffffffffffffffffffffff16815260200190815260200160002054905092915050565b60006301ffc9a760e01b7bffffffffffffffffffffffffffffffffffffffffffffffffffffffff1916827bffffffffffffffffffffffffffffffffffffffffffffffffffffffff19161480611630575063d9b67a2660e01b7bffffffffffffffffffffffffffffffffffffffffffffffffffffffff1916827bffffffffffffffffffffffffffffffffffffffffffffffffffffffff1916145b1561163e5760019050611643565b600090505b919050565b60606116916040518060400160405280601d81526020017f68747470733a2f2f7374617368626c6f782e636f6d2f746f6b656e732f00000081525061168c84614190565b61427f565b9050919050565b6000600e6000838152602001908152602001600020549050919050565b838390508686905014611713576040517f08c379a000000000000000000000000000000000000000000000000000000000815260040180806020018281038252602e8152602001806166e1602e913960400191505060405180910390fd5b600073ffffffffffffffffffffffffffffffffffffffff168773ffffffffffffffffffffffffffffffffffffffff161415611799576040517f08c379a00000000000000000000000000000000000000000000000000000000081526004018080602001828103825260288152602001806163746028913960400191505060405180910390fd5b3373ffffffffffffffffffffffffffffffffffffffff168873ffffffffffffffffffffffffffffffffffffffff1614806117e05750600115156117dc8933613957565b1515145b611835576040517f08c379a00000000000000000000000000000000000000000000000000000000081526004018080602001828103825260378152602001806166aa6037913960400191505060405180910390fd5b600034905060008090505b8787905081101561188b5761187c8a8a8a8a8581811061185c57fe5b9050602002013589898681811061186f57fe5b90506020020135866143ca565b82039150806001019050611840565b508773ffffffffffffffffffffffffffffffffffffffff168973ffffffffffffffffffffffffffffffffffffffff163373ffffffffffffffffffffffffffffffffffffffff167f4a39dc06d4c0dbc64b70af90fd698a233a518aa5d07e595d983b8c0526c8f7fb8a8a8a8a6040518080602001806020018381038352878782818152602001925060200280828437600081840152601f19601f8201169050808301925050508381038252858582818152602001925060200280828437600081840152601f19601f820116905080830192505050965050505050505060405180910390a4611a42338a8a8a8a80806020026020016040519081016040528093929190818152602001838360200280828437600081840152601f19601f82011690508083019250505050505050898980806020026020016040519081016040528093929190818152602001838360200280828437600081840152601f19601f8201169050808301925050505050505088888080601f016020809104026020016040519081016040528093929190818152602001838380828437600081840152601f19601f82011690508083019250505050505050614af6565b6000811115611b295760003373ffffffffffffffffffffffffffffffffffffffff168260405180600001905060006040518083038185875af1925050503d8060008114611aab576040519150601f19603f3d011682016040523d82523d6000602084013e611ab0565b606091505b5050905080611b27576040517f08c379a00000000000000000000000000000000000000000000000000000000081526004018080602001828103825260108152602001807f5472616e73666572206661696c65642e0000000000000000000000000000000081525060200191505060405180910390fd5b505b505050505050505050565b611b3c614dc5565b611bae576040517f08c379a00000000000000000000000000000000000000000000000000000000081526004018080602001828103825260208152602001807f4f776e61626c653a2063616c6c6572206973206e6f7420746865206f776e657281525060200191505060405180910390fd5b6001600260008373ffffffffffffffffffffffffffffffffffffffff1673ffffffffffffffffffffffffffffffffffffffff16815260200190815260200160002060006101000a81548160ff02191690831515021790555050565b60608151835114611c65576040517f08c379a000000000000000000000000000000000000000000000000000000000815260040180806020018281038252603081526020018061647e6030913960400191505060405180910390fd5b60608351604051908082528060200260200182016040528015611c975781602001602082028038833980820191505090505b50905060008090505b8451811015611ddc57600073ffffffffffffffffffffffffffffffffffffffff16858281518110611ccd57fe5b602002602001015173ffffffffffffffffffffffffffffffffffffffff161415611d42576040517f08c379a000000000000000000000000000000000000000000000000000000000815260040180806020018281038252603481526020018061650e6034913960400191505060405180910390fd5b60036000858381518110611d5257fe5b602002602001015181526020019081526020016000206000868381518110611d7657fe5b602002602001015173ffffffffffffffffffffffffffffffffffffffff1673ffffffffffffffffffffffffffffffffffffffff16815260200190815260200160002054828281518110611dc557fe5b602002602001018181525050806001019050611ca0565b508091505092915050565b611df033614e1c565b611e45576040517f08c379a00000000000000000000000000000000000000000000000000000000081526004018080602001828103825260238152602001806164256023913960400191505060405180910390fd5b611e4f8282614e81565b5050565b611e5b614dc5565b611ecd576040517f08c379a00000000000000000000000000000000000000000000000000000000081526004018080602001828103825260208152602001807f4f776e61626c653a2063616c6c6572206973206e6f7420746865206f776e657281525060200191505060405180910390fd5b60006011600084815260200190815260200160002060008373ffffffffffffffffffffffffffffffffffffffff1673ffffffffffffffffffffffffffffffffffffffff168152602001908152602001600020600060028110611f2b57fe5b0154905060006011600085815260200190815260200160002060008473ffffffffffffffffffffffffffffffffffffffff1673ffffffffffffffffffffffffffffffffffffffff168152602001908152602001600020600160028110611f8d57fe5b0154905060008211611fea576040517f08c379a000000000000000000000000000000000000000000000000000000000815260040180806020018281038252602a8152602001806165c2602a913960400191505060405180910390fd5b80600960008573ffffffffffffffffffffffffffffffffffffffff1673ffffffffffffffffffffffffffffffffffffffff168152602001908152602001600020600082825401925050819055506040518060400160405280600060ff168152602001600060ff168152506011600086815260200190815260200160002060008573ffffffffffffffffffffffffffffffffffffffff1673ffffffffffffffffffffffffffffffffffffffff1681526020019081526020016000209060026120b2929190616039565b50837fd7e908f6f9af1236bea3e4382bb17cabca5929dec62fbb431284240820150ddd8484604051808373ffffffffffffffffffffffffffffffffffffffff1673ffffffffffffffffffffffffffffffffffffffff1681526020018281526020019250505060405180910390a250505050565b6000600f600084815260200190815260200160002054116121ae576040517f08c379a00000000000000000000000000000000000000000000000000000000081526004018080602001828103825260198152602001807f5374617368426c6f783a20556e6b6e6f776e20746f6b656e2e0000000000000081525060200191505060405180910390fd5b60008111612207576040517f08c379a00000000000000000000000000000000000000000000000000000000081526004018080602001828103825260288152602001806163c86028913960400191505060405180910390fd5b60006122566127106122486012600087815260200190815260200160002054600f600088815260200190815260200160002054614ecb90919063ffffffff16565b614f5190919063ffffffff16565b9050806003600085815260200190815260200160002060003373ffffffffffffffffffffffffffffffffffffffff1673ffffffffffffffffffffffffffffffffffffffff168152602001908152602001600020541015612301576040517f08c379a00000000000000000000000000000000000000000000000000000000081526004018080602001828103825260368152602001806164486036913960400191505060405180910390fd5b60006123796003600086815260200190815260200160002060003373ffffffffffffffffffffffffffffffffffffffff1673ffffffffffffffffffffffffffffffffffffffff16815260200190815260200160002054600f600087815260200190815260200160002054614f9b90919063ffffffff16565b905060006123908483614ecb90919063ffffffff16565b9050803410156123eb576040517f08c379a000000000000000000000000000000000000000000000000000000000815260040180806020018281038252603581526020018061658d6035913960400191505060405180910390fd5b6040518060400160405280858152602001348152506011600087815260200190815260200160002060003373ffffffffffffffffffffffffffffffffffffffff1673ffffffffffffffffffffffffffffffffffffffff16815260200190815260200160002090600261245e92919061607e565b50847f2a7673db20f80755f65f456687dc9fd630454e8c76e428cb4a4ae1d0410cef5e3386604051808373ffffffffffffffffffffffffffffffffffffffff1673ffffffffffffffffffffffffffffffffffffffff1681526020018281526020019250505060405180910390a25050505050565b6124da614dc5565b61254c576040517f08c379a00000000000000000000000000000000000000000000000000000000081526004018080602001828103825260208152602001807f4f776e61626c653a2063616c6c6572206973206e6f7420746865206f776e657281525060200191505060405180910390fd5b6001601060008373ffffffffffffffffffffffffffffffffffffffff1673ffffffffffffffffffffffffffffffffffffffff16815260200190815260200160002060006101000a81548160ff02191690831515021790555050565b6125af614dc5565b612621576040517f08c379a00000000000000000000000000000000000000000000000000000000081526004018080602001828103825260208152602001807f4f776e61626c653a2063616c6c6572206973206e6f7420746865206f776e657281525060200191505060405180910390fd5b600180600083815260200190815260200160002060006101000a81548160ff02191690831515021790555050565b61265833614e1c565b6126ad576040517f08c379a00000000000000000000000000000000000000000000000000000000081526004018080602001828103825260238152602001806164256023913960400191505060405180910390fd5b806006819055503373ffffffffffffffffffffffffffffffffffffffff167f5c5a35dc0829d2f6a31d1d6da57c4315ba7b562ee447c87b75c732cfd96abde9826040518082815260200191505060405180910390a250565b61270d614dc5565b61277f576040517f08c379a00000000000000000000000000000000000000000000000000000000081526004018080602001828103825260208152602001807f4f776e61626c653a2063616c6c6572206973206e6f7420746865206f776e657281525060200191505060405180910390fd5b6000601060008373ffffffffffffffffffffffffffffffffffffffff1673ffffffffffffffffffffffffffffffffffffffff16815260200190815260200160002060006101000a81548160ff02191690831515021790555050565b60008060009054906101000a900473ffffffffffffffffffffffffffffffffffffffff16905090565b61280c33614e1c565b612861576040517f08c379a00000000000000000000000000000000000000000000000000000000081526004018080602001828103825260238152602001806164256023913960400191505060405180910390fd5b60056000838152602001908152602001600020604051806040016040528042815260200183815250908060018154018082558091505090600182039060005260206000209060020201600090919290919091509060026128c292919061607e565b50503373ffffffffffffffffffffffffffffffffffffffff167f4bd9446604f43017ac3918d8db419b59a3b6f2a6cdd456eed5de99621bb627658383604051808381526020018281526020019250505060405180910390a25050565b8173ffffffffffffffffffffffffffffffffffffffff163373ffffffffffffffffffffffffffffffffffffffff1614156129a3576040517f08c379a000000000000000000000000000000000000000000000000000000000815260040180806020018281038252602c81526020018061639c602c913960400191505060405180910390fd5b80600d60003373ffffffffffffffffffffffffffffffffffffffff1673ffffffffffffffffffffffffffffffffffffffff16815260200190815260200160002060008473ffffffffffffffffffffffffffffffffffffffff1673ffffffffffffffffffffffffffffffffffffffff16815260200190815260200160002060006101000a81548160ff0219169083151502179055508173ffffffffffffffffffffffffffffffffffffffff163373ffffffffffffffffffffffffffffffffffffffff167f17307eab39ab6107e8899845ad3d59bd9653f200f220920489ca2b5937696c3183604051808215151515815260200191505060405180910390a35050565b612aac614dc5565b612b1e576040517f08c379a00000000000000000000000000000000000000000000000000000000081526004018080602001828103825260208152602001807f4f776e61626c653a2063616c6c6572206973206e6f7420746865206f776e657281525060200191505060405180910390fd5b60006011600084815260200190815260200160002060008373ffffffffffffffffffffffffffffffffffffffff1673ffffffffffffffffffffffffffffffffffffffff168152602001908152602001600020600060028110612b7c57fe5b0154905060006011600085815260200190815260200160002060008473ffffffffffffffffffffffffffffffffffffffff1673ffffffffffffffffffffffffffffffffffffffff168152602001908152602001600020600160028110612bde57fe5b0154905060008211612c3b576040517f08c379a000000000000000000000000000000000000000000000000000000000815260040180806020018281038252602a8152602001806165c2602a913960400191505060405180910390fd5b6000612c8a612710612c7c6012600089815260200190815260200160002054600f60008a815260200190815260200160002054614ecb90919063ffffffff16565b614f5190919063ffffffff16565b9050806003600087815260200190815260200160002060003373ffffffffffffffffffffffffffffffffffffffff1673ffffffffffffffffffffffffffffffffffffffff168152602001908152602001600020541015612d35576040517f08c379a00000000000000000000000000000000000000000000000000000000081526004018080602001828103825260388152602001806162eb6038913960400191505060405180910390fd5b6000612dad6003600088815260200190815260200160002060003373ffffffffffffffffffffffffffffffffffffffff1673ffffffffffffffffffffffffffffffffffffffff16815260200190815260200160002054600f600089815260200190815260200160002054614f9b90919063ffffffff16565b90506000612dc48583614ecb90919063ffffffff16565b905080841015612e1f576040517f08c379a000000000000000000000000000000000000000000000000000000000815260040180806020018281038252603f81526020018061666b603f913960400191505060405180910390fd5b60008090505b600b600089815260200190815260200160002080549050811015612fb7576000600b60008a81526020019081526020016000208281548110612e6357fe5b9060005260206000200160009054906101000a900473ffffffffffffffffffffffffffffffffffffffff1690506000600360008b815260200190815260200160002060008373ffffffffffffffffffffffffffffffffffffffff1673ffffffffffffffffffffffffffffffffffffffff1681526020019081526020016000205490506000811115612faa576000612f03828a614ecb90919063ffffffff16565b905080600960008573ffffffffffffffffffffffffffffffffffffffff1673ffffffffffffffffffffffffffffffffffffffff168152602001908152602001600020600082825401925050819055506000600360008d815260200190815260200160002060008573ffffffffffffffffffffffffffffffffffffffff1673ffffffffffffffffffffffffffffffffffffffff16815260200190815260200160002081905550505b5050806001019050612e25565b50600f6000888152602001908152602001600020546003600089815260200190815260200160002060008873ffffffffffffffffffffffffffffffffffffffff1673ffffffffffffffffffffffffffffffffffffffff168152602001908152602001600020819055508084111561307857808403600960008873ffffffffffffffffffffffffffffffffffffffff1673ffffffffffffffffffffffffffffffffffffffff168152602001908152602001600020600082825401925050819055505b6040518060400160405280600060ff168152602001600060ff168152506011600089815260200190815260200160002060008873ffffffffffffffffffffffffffffffffffffffff1673ffffffffffffffffffffffffffffffffffffffff1681526020019081526020016000209060026130f3929190616039565b50867f1a28571d07f35a57e1ed755a57928ae32539f444bbcef661637165f04fb5083f8787604051808373ffffffffffffffffffffffffffffffffffffffff1673ffffffffffffffffffffffffffffffffffffffff1681526020018281526020019250505060405180910390a250505050505050565b606060008090505b600b6000848152602001908152602001600020805490508110156132e0576000600b600085815260200190815260200160002082815481106131af57fe5b9060005260206000200160009054906101000a900473ffffffffffffffffffffffffffffffffffffffff16905060006003600086815260200190815260200160002060008373ffffffffffffffffffffffffffffffffffffffff1673ffffffffffffffffffffffffffffffffffffffff1681526020019081526020016000205411156132d2576000835111156132af5761327e836040518060400160405280600181526020017f200000000000000000000000000000000000000000000000000000000000000081525061427f565b92506132a8836132a38373ffffffffffffffffffffffffffffffffffffffff16614190565b61427f565b92506132d1565b6132ce8173ffffffffffffffffffffffffffffffffffffffff16614190565b92505b5b508080600101915050613171565b50809050919050565b6132f1614dc5565b613363576040517f08c379a00000000000000000000000000000000000000000000000000000000081526004018080602001828103825260208152602001807f4f776e61626c653a2063616c6c6572206973206e6f7420746865206f776e657281525060200191505060405180910390fd5b6000600260008373ffffffffffffffffffffffffffffffffffffffff1673ffffffffffffffffffffffffffffffffffffffff16815260200190815260200160002060006101000a81548160ff02191690831515021790555050565b60006133c982614fe5565b9050919050565b6000600f6000838152602001908152602001600020549050919050565b60006133f882614e1c565b9050919050565b600061340c84848461500f565b90509392505050565b600061342082615276565b9050919050565b61343033614e1c565b613485576040517f08c379a00000000000000000000000000000000000000000000000000000000081526004018080602001828103825260238152602001806164256023913960400191505060405180910390fd5b6135178a8a8a8a8a8a8a8a80806020026020016040519081016040528093929190818152602001838360200280828437600081840152601f19601f82011690508083019250505050505050898980806020026020016040519081016040528093929190818152602001838360200280828437600081840152601f19601f820116905080830192505050505050506152cc565b50505050505050505050565b6060600073ffffffffffffffffffffffffffffffffffffffff168273ffffffffffffffffffffffffffffffffffffffff1614156135ab576040517f08c379a000000000000000000000000000000000000000000000000000000000815260040180806020018281038252602b815260200180616323602b913960400191505060405180910390fd5b60008090505b600a60008473ffffffffffffffffffffffffffffffffffffffff1673ffffffffffffffffffffffffffffffffffffffff1681526020019081526020016000208054905081101561372c576000600a60008573ffffffffffffffffffffffffffffffffffffffff1673ffffffffffffffffffffffffffffffffffffffff168152602001908152602001600020828154811061364757fe5b9060005260206000200154905060006003600083815260200190815260200160002060008673ffffffffffffffffffffffffffffffffffffffff1673ffffffffffffffffffffffffffffffffffffffff16815260200190815260200160002054111561371e57600083511115613711576136f6836040518060400160405280600181526020017f200000000000000000000000000000000000000000000000000000000000000081525061427f565b925061370a8361370583614190565b61427f565b925061371d565b61371a81614190565b92505b5b5080806001019150506135b1565b50809050919050565b6040518060400160405280601d81526020017f68747470733a2f2f7374617368626c6f782e636f6d2f746f6b656e732f00000081525081565b613776614dc5565b6137e8576040517f08c379a00000000000000000000000000000000000000000000000000000000081526004018080602001828103825260208152602001807f4f776e61626c653a2063616c6c6572206973206e6f7420746865206f776e657281525060200191505060405180910390fd5b60006001600083815260200190815260200160002060006101000a81548160ff02191690831515021790555050565b60008073ffffffffffffffffffffffffffffffffffffffff168373ffffffffffffffffffffffffffffffffffffffff16141561389e576040517f08c379a000000000000000000000000000000000000000000000000000000000815260040180806020018281038252602b815260200180616323602b913960400191505060405180910390fd5b60006003600084815260200190815260200160002060008573ffffffffffffffffffffffffffffffffffffffff1673ffffffffffffffffffffffffffffffffffffffff168152602001908152602001600020541461394c576004600083815260200190815260200160002060008473ffffffffffffffffffffffffffffffffffffffff1673ffffffffffffffffffffffffffffffffffffffff1681526020019081526020016000205461394f565b60005b905092915050565b6000600d60008473ffffffffffffffffffffffffffffffffffffffff1673ffffffffffffffffffffffffffffffffffffffff16815260200190815260200160002060008373ffffffffffffffffffffffffffffffffffffffff1673ffffffffffffffffffffffffffffffffffffffff16815260200190815260200160002060009054906101000a900460ff16905092915050565b600073ffffffffffffffffffffffffffffffffffffffff168573ffffffffffffffffffffffffffffffffffffffff161415613a71576040517f08c379a00000000000000000000000000000000000000000000000000000000081526004018080602001828103825260288152602001806163746028913960400191505060405180910390fd5b3373ffffffffffffffffffffffffffffffffffffffff168673ffffffffffffffffffffffffffffffffffffffff161480613ab8575060011515613ab48733613957565b1515145b613b0d576040517f08c379a00000000000000000000000000000000000000000000000000000000081526004018080602001828103825260378152602001806166aa6037913960400191505060405180910390fd5b6000349050613b1f87878787856143ca565b810390508573ffffffffffffffffffffffffffffffffffffffff168773ffffffffffffffffffffffffffffffffffffffff163373ffffffffffffffffffffffffffffffffffffffff167fc3d58168c5ae7397731d063d5bbf3d657854427343f4c083240f7aacaa2d0f628888604051808381526020018281526020019250505060405180910390a4613bf9338888888888888080601f016020809104026020016040519081016040528093929190818152602001838380828437600081840152601f19601f82011690508083019250505050505050615966565b6000811115613ce05760003373ffffffffffffffffffffffffffffffffffffffff168260405180600001905060006040518083038185875af1925050503d8060008114613c62576040519150601f19603f3d011682016040523d82523d6000602084013e613c67565b606091505b5050905080613cde576040517f08c379a00000000000000000000000000000000000000000000000000000000081526004018080602001828103825260108152602001807f5472616e73666572206661696c65642e0000000000000000000000000000000081525060200191505060405180910390fd5b505b50505050505050565b613cf1614dc5565b613d63576040517f08c379a00000000000000000000000000000000000000000000000000000000081526004018080602001828103825260208152602001807f4f776e61626c653a2063616c6c6572206973206e6f7420746865206f776e657281525060200191505060405180910390fd5b613d6c81615bb3565b50565b613d7833614e1c565b613dcd576040517f08c379a00000000000000000000000000000000000000000000000000000000081526004018080602001828103825260238152602001806164256023913960400191505060405180910390fd5b60008090505b84849050811015613ef957613eee86868684818110613dee57fe5b90506020020135601354868686818110613e0457fe5b905060200201356014546017546015805480602002602001604051908101604052809291908181526020018280548015613e9357602002820191906000526020600020905b8160009054906101000a900473ffffffffffffffffffffffffffffffffffffffff1673ffffffffffffffffffffffffffffffffffffffff1681526020019060010190808311613e49575b50505050506016805480602002602001604051908101604052809291908181526020018280548015613ee457602002820191906000526020600020905b815481526020019060010190808311613ed0575b50505050506152cc565b806001019050613dd3565b505050505050565b613f09614dc5565b613f7b576040517f08c379a00000000000000000000000000000000000000000000000000000000081526004018080602001828103825260208152602001807f4f776e61626c653a2063616c6c6572206973206e6f7420746865206f776e657281525060200191505060405180910390fd5b80600960008473ffffffffffffffffffffffffffffffffffffffff1673ffffffffffffffffffffffffffffffffffffffff16815260200190815260200160002054106140ec5760008273ffffffffffffffffffffffffffffffffffffffff168260405180600001905060006040518083038185875af1925050503d8060008114614021576040519150601f19603f3d011682016040523d82523d6000602084013e614026565b606091505b505090508061409d576040517f08c379a000000000000000000000000000000000000000000000000000000000815260040180806020018281038252601d8152602001807f5374617368426c6f783a205769746864726177616c206661696c65642e00000081525060200191505060405180910390fd5b81600960008573ffffffffffffffffffffffffffffffffffffffff1673ffffffffffffffffffffffffffffffffffffffff16815260200190815260200160002060008282540392505081905550505b5050565b6140f933614e1c565b61414e576040517f08c379a00000000000000000000000000000000000000000000000000000000081526004018080602001828103825260238152602001806164256023913960400191505060405180910390fd5b8660138190555085601481905550846017819055508383601591906141749291906160be565b5081816016919061418692919061615e565b5050505050505050565b6060600080905060008390505b600081146141bf578180600101925050601081816141b757fe5b04905061419d565b6060826040519080825280601f01601f1916602001820160405280156141f45781602001600182028038833980820191505090505b50905060008090505b83811015614273576010868161420f57fe5b06925061421b83615cf7565b826001838703038151811061422c57fe5b60200101907effffffffffffffffffffffffffffffffffffffffffffffffffffffffffffff1916908160001a9053506010868161426557fe5b0495508060010190506141fd565b50809350505050919050565b6060808390506060839050606081518351016040519080825280601f01601f1916602001820160405280156142c35781602001600182028038833980820191505090505b509050606081905060008090506000809050600090505b8551811015614348578581815181106142ef57fe5b602001015160f81c60f81b83838060010194508151811061430c57fe5b60200101907effffffffffffffffffffffffffffffffffffffffffffffffffffffffffffff1916908160001a90535080806001019150506142da565b600090505b84518110156143bb5784818151811061436257fe5b602001015160f81c60f81b83838060010194508151811061437f57fe5b60200101907effffffffffffffffffffffffffffffffffffffffffffffffffffffffffffff1916908160001a905350808060010191505061434d565b82965050505050505092915050565b60006143d886868686615da0565b1561444b576040517f08c379a00000000000000000000000000000000000000000000000000000000081526004018080602001828103825260068152602001807f4c6f636b6564000000000000000000000000000000000000000000000000000081525060200191505060405180910390fd5b61445686858561500f565b9050808210156144b1576040517f08c379a000000000000000000000000000000000000000000000000000000000815260040180806020018281038252602b81526020018061681a602b913960400191505060405180910390fd5b61452e836040518060600160405280602a8152602001616542602a91396003600088815260200190815260200160002060008a73ffffffffffffffffffffffffffffffffffffffff1673ffffffffffffffffffffffffffffffffffffffff16815260200190815260200160002054615de09092919063ffffffff16565b6003600086815260200190815260200160002060008873ffffffffffffffffffffffffffffffffffffffff1673ffffffffffffffffffffffffffffffffffffffff1681526020019081526020016000208190555060006145e7846003600088815260200190815260200160002060008973ffffffffffffffffffffffffffffffffffffffff1673ffffffffffffffffffffffffffffffffffffffff16815260200190815260200160002054615ea090919063ffffffff16565b905060006003600087815260200190815260200160002060008873ffffffffffffffffffffffffffffffffffffffff1673ffffffffffffffffffffffffffffffffffffffff16815260200190815260200160002054141561483b57600c600086815260200190815260200160002060008773ffffffffffffffffffffffffffffffffffffffff1673ffffffffffffffffffffffffffffffffffffffff16815260200190815260200160002060009054906101000a900460ff166147e157600a60008773ffffffffffffffffffffffffffffffffffffffff1673ffffffffffffffffffffffffffffffffffffffff168152602001908152602001600020859080600181540180825580915050906001820390600052602060002001600090919290919091505550600b60008681526020019081526020016000208690806001815401808255809150509060018203906000526020600020016000909192909190916101000a81548173ffffffffffffffffffffffffffffffffffffffff021916908373ffffffffffffffffffffffffffffffffffffffff16021790555050600c600086815260200190815260200160002060008773ffffffffffffffffffffffffffffffffffffffff1673ffffffffffffffffffffffffffffffffffffffff16815260200190815260200160002060009054906101000a9050505b426004600087815260200190815260200160002060008873ffffffffffffffffffffffffffffffffffffffff1673ffffffffffffffffffffffffffffffffffffffff16815260200190815260200160002081905550614975565b60006148a06004600088815260200190815260200160002060008973ffffffffffffffffffffffffffffffffffffffff1673ffffffffffffffffffffffffffffffffffffffff1681526020019081526020016000205442614f9b90919063ffffffff16565b905060006149198361490b84600360008c815260200190815260200160002060008d73ffffffffffffffffffffffffffffffffffffffff1673ffffffffffffffffffffffffffffffffffffffff16815260200190815260200160002054614ecb90919063ffffffff16565b614f5190919063ffffffff16565b90508042036004600089815260200190815260200160002060008a73ffffffffffffffffffffffffffffffffffffffff1673ffffffffffffffffffffffffffffffffffffffff1681526020019081526020016000208190555050505b806003600087815260200190815260200160002060008873ffffffffffffffffffffffffffffffffffffffff1673ffffffffffffffffffffffffffffffffffffffff1681526020019081526020016000208190555060008090505b6007600087815260200190815260200160002080549050811015614ae8576000600760008881526020019081526020016000208281548110614a0e57fe5b9060005260206000200160009054906101000a900473ffffffffffffffffffffffffffffffffffffffff1690506000600860008981526020019081526020016000208381548110614a5b57fe5b90600052602060002001549050614a8f612710614a818388614ecb90919063ffffffff16565b614f5190919063ffffffff16565b600960008473ffffffffffffffffffffffffffffffffffffffff1673ffffffffffffffffffffffffffffffffffffffff1681526020019081526020016000206000828254019250508190555050508060010190506149d0565b508191505095945050505050565b614b158473ffffffffffffffffffffffffffffffffffffffff16615f28565b15614dbd578373ffffffffffffffffffffffffffffffffffffffff1663bc197c81905060e01b7bffffffffffffffffffffffffffffffffffffffffffffffffffffffff19168473ffffffffffffffffffffffffffffffffffffffff1663bc197c8188888787876040518663ffffffff1660e01b8152600401808673ffffffffffffffffffffffffffffffffffffffff1673ffffffffffffffffffffffffffffffffffffffff1681526020018573ffffffffffffffffffffffffffffffffffffffff1673ffffffffffffffffffffffffffffffffffffffff168152602001806020018060200180602001848103845287818151815260200191508051906020019060200280838360005b83811015614c39578082015181840152602081019050614c1e565b50505050905001848103835286818151815260200191508051906020019060200280838360005b83811015614c7b578082015181840152602081019050614c60565b50505050905001848103825285818151815260200191508051906020019080838360005b83811015614cba578082015181840152602081019050614c9f565b50505050905090810190601f168015614ce75780820380516001836020036101000a031916815260200191505b5098505050505050505050602060405180830381600087803b158015614d0c57600080fd5b505af1158015614d20573d6000803e3d6000fd5b505050506040513d6020811015614d3657600080fd5b81019080805190602001909291905050507bffffffffffffffffffffffffffffffffffffffffffffffffffffffff191614614dbc576040517f08c379a00000000000000000000000000000000000000000000000000000000081526004018080602001828103825260368152602001806164d86036913960400191505060405180910390fd5b5b505050505050565b60008060009054906101000a900473ffffffffffffffffffffffffffffffffffffffff1673ffffffffffffffffffffffffffffffffffffffff163373ffffffffffffffffffffffffffffffffffffffff1614905090565b6000601060008373ffffffffffffffffffffffffffffffffffffffff1673ffffffffffffffffffffffffffffffffffffffff16815260200190815260200160002060009054906101000a900460ff1680614e7a5750614e79614dc5565b5b9050919050565b80600e60008481526020019081526020016000208190555080827f9cd9c60390fc75c213fd8d644749f61388dd30ed6c6eb4647b793b5b580fb43060405160405180910390a35050565b600080831415614ede5760009050614f4b565b6000828402905082848281614eef57fe5b0414614f46576040517f08c379a000000000000000000000000000000000000000000000000000000000815260040180806020018281038252602181526020018061656c6021913960400191505060405180910390fd5b809150505b92915050565b6000614f9383836040518060400160405280601a81526020017f536166654d6174683a206469766973696f6e206279207a65726f000000000000815250615f73565b905092915050565b6000614fdd83836040518060400160405280601e81526020017f536166654d6174683a207375627472616374696f6e206f766572666c6f770000815250615de0565b905092915050565b60006001600083815260200190815260200160002060009054906101000a900460ff169050919050565b60008073ffffffffffffffffffffffffffffffffffffffff168473ffffffffffffffffffffffffffffffffffffffff161415615096576040517f08c379a000000000000000000000000000000000000000000000000000000000815260040180806020018281038252602b815260200180616323602b913960400191505060405180910390fd5b600080905060004290506000600160056000888152602001908152602001600020805490500390505b600081106152695760006005600088815260200190815260200160002082815481106150e757fe5b906000526020600020906002020160006002811061510157fe5b0154905060006305f5e100600654600560008b8152602001908152602001600020858154811061512d57fe5b906000526020600020906002020160016002811061514757fe5b0154028161515157fe5b049050600082600460008b815260200190815260200160002060008c73ffffffffffffffffffffffffffffffffffffffff1673ffffffffffffffffffffffffffffffffffffffff168152602001908152602001600020541061522d5762015180600460008b815260200190815260200160002060008c73ffffffffffffffffffffffffffffffffffffffff1673ffffffffffffffffffffffffffffffffffffffff1681526020019081526020016000205486038161520b57fe5b049050600081141561521c57600190505b878282020286019550505050615269565b620151808386038161523b57fe5b049050600081141561524c57600190505b8294508782820202860195505050508080600190039150506150bf565b5081925050509392505050565b6000600260008373ffffffffffffffffffffffffffffffffffffffff1673ffffffffffffffffffffffffffffffffffffffff16815260200190815260200160002060009054906101000a900460ff169050919050565b6000600f60008981526020019081526020016000205414615355576040517f08c379a000000000000000000000000000000000000000000000000000000000815260040180806020018281038252601f8152602001807f5374617368426c6f783a20546f6b656e20616c7265616479206d696e7465640081525060200191505060405180910390fd5b600086116153ae576040517f08c379a000000000000000000000000000000000000000000000000000000000815260040180806020018281038252602a8152602001806164ae602a913960400191505060405180910390fd5b60008411615407576040517f08c379a00000000000000000000000000000000000000000000000000000000081526004018080602001828103825260358152602001806163f06035913960400191505060405180910390fd5b60008311615460576040517f08c379a00000000000000000000000000000000000000000000000000000000081526004018080602001828103825260398152602001806167e16039913960400191505060405180910390fd5b6127108311156154bb576040517f08c379a000000000000000000000000000000000000000000000000000000000815260040180806020018281038252604481526020018061670f6044913960600191505060405180910390fd5b6000825111615515576040517f08c379a000000000000000000000000000000000000000000000000000000000815260040180806020018281038252602b815260200180616785602b913960400191505060405180910390fd5b805182511461556f576040517f08c379a00000000000000000000000000000000000000000000000000000000081526004018080602001828103825260328152602001806167536032913960400191505060405180910390fd5b600080905060008090505b82518110156156125782818151811061558f57fe5b60200260200101518201915060008382815181106155a957fe5b602002602001015111615607576040517f08c379a000000000000000000000000000000000000000000000000000000000815260040180806020018281038252603c8152602001806165ec603c913960400191505060405180910390fd5b80600101905061557a565b50612710811461566d576040517f08c379a00000000000000000000000000000000000000000000000000000000081526004018080602001828103825260438152602001806166286043913960600191505060405180910390fd5b6001600c60008a815260200190815260200160002060008b73ffffffffffffffffffffffffffffffffffffffff1673ffffffffffffffffffffffffffffffffffffffff16815260200190815260200160002060006101000a81548160ff021916908315150217905550600a60008a73ffffffffffffffffffffffffffffffffffffffff1673ffffffffffffffffffffffffffffffffffffffff16815260200190815260200160002088908060018154018082558091505090600182039060005260206000200160009091929091909150555086600f60008a81526020019081526020016000208190555086600360008a815260200190815260200160002060008b73ffffffffffffffffffffffffffffffffffffffff1673ffffffffffffffffffffffffffffffffffffffff168152602001908152602001600020819055506157b68887614e81565b42600460008a815260200190815260200160002060008b73ffffffffffffffffffffffffffffffffffffffff1673ffffffffffffffffffffffffffffffffffffffff16815260200190815260200160002081905550600560008981526020019081526020016000206040518060400160405280428152602001878152509080600181540180825580915050906001820390600052602060002090600202016000909192909190915090600261586c92919061607e565b505083601260008a81526020019081526020016000208190555082600760008a815260200190815260200160002090805190602001906158ad9291906161ab565b5081600860008a815260200190815260200160002090805190602001906158d5929190616235565b508873ffffffffffffffffffffffffffffffffffffffff16600073ffffffffffffffffffffffffffffffffffffffff163373ffffffffffffffffffffffffffffffffffffffff167fc3d58168c5ae7397731d063d5bbf3d657854427343f4c083240f7aacaa2d0f628b8b604051808381526020018281526020019250505060405180910390a4505050505050505050565b6159858473ffffffffffffffffffffffffffffffffffffffff16615f28565b15615bab578373ffffffffffffffffffffffffffffffffffffffff1663f23a6e61905060e01b7bffffffffffffffffffffffffffffffffffffffffffffffffffffffff19168473ffffffffffffffffffffffffffffffffffffffff1663f23a6e6188888787876040518663ffffffff1660e01b8152600401808673ffffffffffffffffffffffffffffffffffffffff1673ffffffffffffffffffffffffffffffffffffffff1681526020018573ffffffffffffffffffffffffffffffffffffffff1673ffffffffffffffffffffffffffffffffffffffff16815260200184815260200183815260200180602001828103825283818151815260200191508051906020019080838360005b83811015615aaa578082015181840152602081019050615a8f565b50505050905090810190601f168015615ad75780820380516001836020036101000a031916815260200191505b509650505050505050602060405180830381600087803b158015615afa57600080fd5b505af1158015615b0e573d6000803e3d6000fd5b505050506040513d6020811015615b2457600080fd5b81019080805190602001909291905050507bffffffffffffffffffffffffffffffffffffffffffffffffffffffff191614615baa576040517f08c379a00000000000000000000000000000000000000000000000000000000081526004018080602001828103825260318152602001806167b06031913960400191505060405180910390fd5b5b505050505050565b600073ffffffffffffffffffffffffffffffffffffffff168173ffffffffffffffffffffffffffffffffffffffff161415615c39576040517f08c379a000000000000000000000000000000000000000000000000000000000815260040180806020018281038252602681526020018061634e6026913960400191505060405180910390fd5b8073ffffffffffffffffffffffffffffffffffffffff166000809054906101000a900473ffffffffffffffffffffffffffffffffffffffff1673ffffffffffffffffffffffffffffffffffffffff167f8be0079c531659141344cd1fd0a4f28419497f9722a3daafe3b4186f6b6457e060405160405180910390a3806000806101000a81548173ffffffffffffffffffffffffffffffffffffffff021916908373ffffffffffffffffffffffffffffffffffffffff16021790555050565b60008160ff16600011158015615d11575060098260ff1611155b15615d4657817f300000000000000000000000000000000000000000000000000000000000000060f81c0160f81b9050615d9b565b8160ff16600a11158015615d5e5750600f8260ff1611155b15615d9657600a827f610000000000000000000000000000000000000000000000000000000000000060f81c010360f81b9050615d9b565b600080fd5b919050565b6000615dab83614fe5565b80615dbb5750615dba85615276565b5b80615dcb5750615dca84615276565b5b80615dd65750600082145b9050949350505050565b6000838311158290615e8d576040517f08c379a00000000000000000000000000000000000000000000000000000000081526004018080602001828103825283818151815260200191508051906020019080838360005b83811015615e52578082015181840152602081019050615e37565b50505050905090810190601f168015615e7f5780820380516001836020036101000a031916815260200191505b509250505060405180910390fd5b5060008385039050809150509392505050565b600080828401905083811015615f1e576040517f08c379a000000000000000000000000000000000000000000000000000000000815260040180806020018281038252601b8152602001807f536166654d6174683a206164646974696f6e206f766572666c6f77000000000081525060200191505060405180910390fd5b8091505092915050565b60008060007fc5d2460186f7233c927e7db2dcc703c0e500b653ca82273b7bfad8045d85a47060001b9050833f91506000801b8214158015615f6a5750808214155b92505050919050565b6000808311829061601f576040517f08c379a00000000000000000000000000000000000000000000000000000000081526004018080602001828103825283818151815260200191508051906020019080838360005b83811015615fe4578082015181840152602081019050615fc9565b50505050905090810190601f1680156160115780820380516001836020036101000a031916815260200191505b509250505060405180910390fd5b50600083858161602b57fe5b049050809150509392505050565b826002810192821561606d579160200282015b8281111561606c578251829060ff1690559160200191906001019061604c565b5b50905061607a9190616282565b5090565b82600281019282156160ad579160200282015b828111156160ac578251825591602001919060010190616091565b5b5090506160ba9190616282565b5090565b82805482825590600052602060002090810192821561614d579160200282015b8281111561614c57823573ffffffffffffffffffffffffffffffffffffffff168260006101000a81548173ffffffffffffffffffffffffffffffffffffffff021916908373ffffffffffffffffffffffffffffffffffffffff160217905550916020019190600101906160de565b5b50905061615a91906162a7565b5090565b82805482825590600052602060002090810192821561619a579160200282015b8281111561619957823582559160200191906001019061617e565b5b5090506161a79190616282565b5090565b828054828255906000526020600020908101928215616224579160200282015b828111156162235782518260006101000a81548173ffffffffffffffffffffffffffffffffffffffff021916908373ffffffffffffffffffffffffffffffffffffffff160217905550916020019190600101906161cb565b5b50905061623191906162a7565b5090565b828054828255906000526020600020908101928215616271579160200282015b82811115616270578251825591602001919060010190616255565b5b50905061627e9190616282565b5090565b6162a491905b808211156162a0576000816000905550600101616288565b5090565b90565b6162e791905b808211156162e357600081816101000a81549073ffffffffffffffffffffffffffffffffffffffff0219169055506001016162ad565b5090565b9056fe5374617368426c6f783a20696e73756666696369656e742062616c616e636520746f2065786563757465207468652063616c6c6261636b2e455243313135353a2062616c616e636520717565727920666f7220746865207a65726f20616464726573734f776e61626c653a206e6577206f776e657220697320746865207a65726f2061646472657373455243313135353a207461726765742061646472657373206d757374206265206e6f6e2d7a65726f455243313135353a2063616e6e6f742073657420617070726f76616c2073746174757320666f722073656c665374617368426c6f783a205072696365206d7573742062652067726561746572207468616e20302e5374617368426c6f783a2073746f72616765437265646974436f73742073686f756c642062652067726561746572207468616e20304d696e7461626c653a2063616c6c6572206973206e6f74206120746f6b656e697a65725374617368426c6f783a20696e73756666696369656e742062616c616e636520746f2070726f706f736520612063616c6c6261636b2e455243313135353a206163636f756e747320616e6420494473206d75737420686176652073616d65206c656e677468735374617368426c6f783a20737570706c792073686f756c642062652067726561746572207468616e2030455243313135353a20676f7420756e6b6e6f776e2076616c75652066726f6d206f6e4552433131353542617463685265636569766564455243313135353a20736f6d65206164647265737320696e2062617463682062616c616e6365207175657279206973207a65726f455243313135353a20696e73756666696369656e742062616c616e636520666f72207472616e73666572536166654d6174683a206d756c7469706c69636174696f6e206f766572666c6f775374617368426c6f783a20696e73756666696369656e742076616c756520666f72207468652070726f706f7365642070726963652e5374617368426c6f783a2063616c6c6261636b2070726f706f736974696f6e206e6f7420666f756e642e5374617368426c6f783a2066656573526563697069656e747350657263656e746167652073686f756c642062652067726561746572207468616e20305374617368426c6f783a20546f74616c206f662066656573526563697069656e747350657263656e74616765206d75737420626520657175616c20746f2031303030305374617368426c6f783a20696e73756666696369656e7420657363726f7765642076616c756520746f2065786563757465207468652063616c6c6261636b2e455243313135353a206e656564206f70657261746f7220617070726f76616c20666f7220337264207061727479207472616e7366657273455243313135353a2049447320616e642076616c756573206d75737420686176652073616d65206c656e677468735374617368426c6f783a206d696e486f6c64696e67466f7243616c6c6261636b2073686f756c64206265206c6f776572206f7220657175616c207468616e2031303030305374617368426c6f783a20696e76616c69642066656573526563697069656e747350657263656e74616765206c656e6774685374617368426c6f783a206e656564206174206c65617374206f6e652066656573526563697069656e7473455243313135353a20676f7420756e6b6e6f776e2076616c75652066726f6d206f6e4552433131353552656365697665645374617368426c6f783a206d696e486f6c64696e67466f7243616c6c6261636b2073686f756c642062652067726561746572207468616e2030455243313135353a20696e73756666696369656e742045544820666f72207472616e736665722066656573a265627a7a7231582049e655cc0031561bd4b000824842c336407ccb1939269b1970321ae0f7875d8064736f6c634300050c00324f776e61626c653a206e6577206f776e657220697320746865207a65726f2061646472657373",
  "source": "pragma solidity ^0.5.12;\n// pragma experimental ABIEncoderV2;\n\nimport './ERC1155.sol';\nimport './ERC1155Metadata.sol';\nimport '../ERC173/ERC173.sol';\nimport '../utils/StringUtils.sol';\n\ncontract ERC1155Mintable is ERC1155, ERC1155Metadata {\n\n    // Mapping from token ID to Supply\n    mapping (uint256 => uint256) internal _supplies;\n    mapping (address => bool) private _authorizedTokenizers;\n\n    // Minimum holding to propose a callback\n\n    // list of callback propositions\n    // _callbackPropositions[tokenID][proposer] = [priceForEachToken, ETHAmountEscrowed]\n    mapping (uint256 => mapping(address => uint256[2])) _callbackPropositions;\n    // Minimum holding to propose a callback for each token\n    mapping (uint256 => uint256) _minHoldingForCallback;\n\n    // default values for token batch creation\n    uint256 defaultSupply;\n    uint256 defaultStorageCreditCost;\n    address[] defaultFeesRecipients;\n    uint256[] defaultFeesRecipientsPercentage;\n    uint256 defaultMinHoldingForCallback = 8000; // 80%\n\n    event UpdateStorageCost(address indexed _tokenizer, uint256 _id, uint256 _cost);\n    event UpdateStorageCreditPrice(address indexed _owner, uint256 _price);\n    event CallbackProposed(uint256 indexed _id, address _proposer, uint256 _price);\n    event CallbackRefused(uint256 indexed _id, address _proposer, uint256 _price);\n    event CallbackAccepted(uint256 indexed _id, address _proposer, uint256 _price);\n    event CallbackCanceled(uint256 indexed _id, address _proposer, uint256 _price);\n\n    function authorizeTokenizer(address tokenizer) external onlyOwner {\n        _authorizedTokenizers[tokenizer] = true;\n    }\n\n    function revokeTokenizer(address tokenizer) external onlyOwner {\n        _authorizedTokenizers[tokenizer] = false;\n    }\n\n    function _isTokenizer(address tokenizer) internal view returns (bool) {\n        return _authorizedTokenizers[tokenizer] || _isOwner();\n    }\n\n    function isTokenizer(address tokenizer) external view returns (bool) {\n        return _isTokenizer(tokenizer);\n    }\n\n    modifier onlyTokenizer() {\n        require(_isTokenizer(msg.sender), \"Mintable: caller is not a tokenizer\");\n        _;\n    }\n\n    function _createToken(address recipient,\n                         uint256 id,\n                         uint256 supply,\n                         uint256 metadataHash,\n                         uint256 storageCreditCost,\n                         uint256 minHoldingForCallback,\n                         address[] memory feesRecipients,\n                         uint256[] memory feesRecipientsPercentage)\n    internal {\n\n        require(_supplies[id] == 0, \"StashBlox: Token already minted\");\n        require(supply > 0, \"StashBlox: supply should be greater than 0\");\n        require(storageCreditCost > 0, \"StashBlox: storageCreditCost should be greater than 0\");\n        require(minHoldingForCallback > 0, \"StashBlox: minHoldingForCallback should be greater than 0\");\n        require(minHoldingForCallback <= 10000, \"StashBlox: minHoldingForCallback should be lower or equal than 10000\");\n        require(feesRecipients.length > 0, \"StashBlox: need at least one feesRecipients\");\n        require(feesRecipients.length == feesRecipientsPercentage.length, \"StashBlox: invalid feesRecipientsPercentage length\");\n\n        uint256 totalPercentage = 0;\n        for (uint256 i = 0; i < feesRecipientsPercentage.length; ++i) {\n            totalPercentage += feesRecipientsPercentage[i];\n            require(feesRecipientsPercentage[i] > 0, \"StashBlox: feesRecipientsPercentage should be greater than 0\");\n        }\n        require(totalPercentage == 10000, \"StashBlox: Total of feesRecipientsPercentage must be equal to 10000\");\n\n        _isHolder[id][recipient] = true;\n        _tokensByAddress[recipient].push(id);\n        _supplies[id] = supply;\n        _balances[id][recipient] = supply;\n        _updateMetadataHash(id, metadataHash);\n        _birthdays[id][recipient] = block.timestamp;\n        _storageCostHistory[id].push([block.timestamp, storageCreditCost]);\n        _minHoldingForCallback[id] = minHoldingForCallback;\n        _feesRecipients[id] = feesRecipients;\n        _feesRecipientsPercentage[id] = feesRecipientsPercentage;\n\n        emit TransferSingle(msg.sender, address(0), recipient, id, supply);\n        // emit URI(uri, id);\n    }\n\n    /**\n     * @dev Function to mint an amount of a token with the given ID.\n     * @param recipient The address that will own the minted tokens\n     * @param id ID of the token to be minted\n     * @param supply Amount of the token to be minted\n     * @param metadataHash Metadata file hash\n     * @param storageCreditCost cost for 24h storage in storageCredit (x 10 ^ 8 for the precision)\n     * @param minHoldingForCallback minimum holding to propose a callback\n     * @param feesRecipients list of addresses receiving transfer fees\n     * @param feesRecipientsPercentage list of percentage, each one for the corresponding feesRecipients\n     */\n    function createToken(address recipient,\n                         uint256 id,\n                         uint256 supply,\n                         uint256 metadataHash,\n                         uint256 storageCreditCost,\n                         uint256 minHoldingForCallback,\n                         address[] calldata feesRecipients,\n                         uint256[] calldata feesRecipientsPercentage)\n    external onlyTokenizer {\n        _createToken(recipient,\n                     id,\n                     supply,\n                     metadataHash,\n                     storageCreditCost,\n                     minHoldingForCallback,\n                     feesRecipients,\n                     feesRecipientsPercentage);\n    }\n\n    /**\n     * @dev Set default values for batch token creation.\n     * @param supply Amount of the token to be minted\n     * @param storageCreditCost cost for 24h storage in storageCredit (x 10 ^ 8 for the precision)\n     * @param minHoldingForCallback minimum holding to propose a callback\n     * @param feesRecipients list of addresses receiving transfer fees\n     * @param feesRecipientsPercentage list of percentage, each one for the corresponding feesRecipients\n     */\n    function setCreateTokensDefaultValues(uint256 supply,\n                                          uint256 storageCreditCost,\n                                          uint256 minHoldingForCallback,\n                                          address[] calldata feesRecipients,\n                                          uint256[] calldata feesRecipientsPercentage)\n    external onlyTokenizer {\n\n        defaultSupply = supply;\n        defaultStorageCreditCost = storageCreditCost;\n        defaultMinHoldingForCallback = minHoldingForCallback;\n        defaultFeesRecipients = feesRecipients;\n        defaultFeesRecipientsPercentage = feesRecipientsPercentage;\n    }\n\n    /**\n     * @dev Function to mint token in batch. Default value must be set with setCreateTokensDefaultValues.\n     * @param recipient The address that will own the minted tokens\n     * @param ids list of IDs of the tokens to be minted\n     * @param metadataHashes list of Metadata file hash\n     */\n    function createTokens(address recipient,\n                          uint256[] calldata ids,\n                          uint256[] calldata metadataHashes)\n    external onlyTokenizer {\n\n        for (uint256 i = 0; i < ids.length; ++i) {\n            _createToken(recipient,\n                         ids[i],\n                         defaultSupply,\n                         metadataHashes[i],\n                         defaultStorageCreditCost,\n                         defaultMinHoldingForCallback,\n                         defaultFeesRecipients,\n                         defaultFeesRecipientsPercentage);\n        }\n    }\n\n    function updateMetadataHash(uint256 id, uint256 metadataHash) external onlyTokenizer {\n      _updateMetadataHash(id, metadataHash);\n    }\n\n    function updateStorageCreditPrice(uint256 newPrice) external onlyTokenizer {\n      storageCreditPrice = newPrice;\n      emit UpdateStorageCreditPrice(msg.sender, newPrice);\n    }\n\n    function updateStorageCost(uint256 id, uint256 newCost) external onlyTokenizer {\n      _storageCostHistory[id].push([block.timestamp, newCost]);\n      emit UpdateStorageCost(msg.sender, id, newCost);\n    }\n\n    function withdraw(address to, uint256 amount) external onlyOwner {\n      if (_ETHBalances[to] >= amount) {\n        (bool success, ) = to.call.value(amount)(\"\");\n        require(success, \"StashBlox: Withdrawal failed.\");\n        _ETHBalances[to] -= amount;\n      }\n    }\n\n    /**\n     * @dev Propose to buy the whole supply of a token.\n     * The proposer must hold minHoldingForCallback% of the total supply.\n     * StashBlox must approve the price with acceptCallback();\n     * @param id Token ID\n     * @param price proposed price\n     */\n    function proposeCallback(uint256 id, uint256 price) external payable {\n      require(_supplies[id] > 0, \"StashBlox: Unknown token.\");\n      require(price > 0, \"StashBlox: Price must be greater than 0.\");\n\n      uint256 minHolding = (_supplies[id].mul(_minHoldingForCallback[id])).div(10000);\n      require(_balances[id][msg.sender] >= minHolding, \"StashBlox: insufficient balance to propose a callback.\");\n\n      uint256 callbackAmount = _supplies[id].sub(_balances[id][msg.sender]);\n      uint256 callbackPrice = callbackAmount.mul(price);\n      require(msg.value >= callbackPrice, \"StashBlox: insufficient value for the proposed price.\");\n\n      _callbackPropositions[id][msg.sender] = [price, msg.value];\n      emit CallbackProposed(id, msg.sender, price);\n    }\n\n    /**\n     * @dev Refuse a callback if the price is not enough.\n     * @param id Token ID\n     * @param proposer address of the proposer\n     */\n    function refuseCallback(uint256 id, address proposer) external onlyOwner {\n      uint256 price = _callbackPropositions[id][proposer][0];\n      uint256 escrowedAmount = _callbackPropositions[id][proposer][1];\n\n      require(price > 0, \"StashBlox: callback proposition not found.\");\n\n      // return escrowed amount. Proposer must use withdraw() function to get\n      // escrowed amount.\n      _ETHBalances[proposer] += escrowedAmount;\n\n      _callbackPropositions[id][proposer] = [0, 0];\n      emit CallbackRefused(id, proposer, price);\n    }\n\n    /**\n     * @dev Accept a callback\n     * @param id Token ID\n     * @param proposer address of the proposer\n     */\n    function acceptCallback(uint256 id, address proposer) external onlyOwner {\n      uint256 price = _callbackPropositions[id][proposer][0];\n      uint256 escrowedAmount = _callbackPropositions[id][proposer][1];\n\n      require(price > 0, \"StashBlox: callback proposition not found.\");\n\n      uint256 minHolding = (_supplies[id].mul(_minHoldingForCallback[id])).div(10000);\n      require(_balances[id][msg.sender] >= minHolding, \"StashBlox: insufficient balance to execute the callback.\");\n\n      uint256 callbackAmount = _supplies[id].sub(_balances[id][msg.sender]);\n      uint256 callbackPrice = callbackAmount.mul(price);\n      require(escrowedAmount >= callbackPrice, \"StashBlox: insufficient escrowed value to execute the callback.\");\n\n      // move tokens to the proposer address and escrowed ETH to the holders addresses\n      // Holders must use withdraw() function to get paiement amount.\n      for (uint256 i = 0; i < _addressesByToken[id].length; ++i) {\n        address holderAddress = _addressesByToken[id][i];\n        uint256 holderBalance = _balances[id][holderAddress];\n        if (holderBalance > 0) {\n          uint256 holderPrice = price.mul(holderBalance);\n          _ETHBalances[holderAddress] += holderPrice;\n          _balances[id][holderAddress] = 0;\n        }\n      }\n      _balances[id][proposer] = _supplies[id];\n      if (escrowedAmount > callbackPrice) {\n        _ETHBalances[proposer] += escrowedAmount - callbackPrice;\n      }\n\n      _callbackPropositions[id][proposer] = [0, 0];\n      emit CallbackAccepted(id, proposer, price);\n    }\n\n\n    /**\n     * @param id Token ID\n     * @return Token supply\n     */\n    function totalSupply(uint256 id) external view returns (uint256) {\n        return _supplies[id];\n    }\n}\n",
  "sourcePath": "/home/ouziel/Work/StashBloxContracts/contracts/lib/ERC1155/ERC1155Mintable.sol",
  "compiler": {
    "name": "solc",
    "version": "0.5.12+commit.7709ece9.Emscripten.clang"
  },
  "schemaVersion": "3.2.3",
  "updatedAt": "2020-09-26T12:10:30.978Z",
  "devdoc": {
    "methods": {
      "acceptCallback(uint256,address)": {
        "details": "Accept a callback",
        "params": {
          "id": "Token ID",
          "proposer": "address of the proposer"
        }
      },
      "balanceOf(address,uint256)": {
        "details": "Get the specified address' balance for token with specified ID. Attempting to query the zero account for a balance will result in a revert.",
        "params": {
          "account": "The address of the token holder",
          "id": "ID of the token"
        },
        "return": "The account's balance of the token type requested"
      },
      "balanceOfBatch(address[],uint256[])": {
        "details": "Get the balance of multiple account/token pairs. If any of the query accounts is the zero account, this query will revert.",
        "params": {
          "accounts": "The addresses of the token holders",
          "ids": "IDs of the tokens"
        },
        "return": "Balances for each account and token id pair"
      },
      "createToken(address,uint256,uint256,uint256,uint256,uint256,address[],uint256[])": {
        "details": "Function to mint an amount of a token with the given ID.",
        "params": {
          "feesRecipients": "list of addresses receiving transfer fees",
          "feesRecipientsPercentage": "list of percentage, each one for the corresponding feesRecipients",
          "id": "ID of the token to be minted",
          "metadataHash": "Metadata file hash",
          "minHoldingForCallback": "minimum holding to propose a callback",
          "recipient": "The address that will own the minted tokens",
          "storageCreditCost": "cost for 24h storage in storageCredit (x 10 ^ 8 for the precision)",
          "supply": "Amount of the token to be minted"
        }
      },
      "createTokens(address,uint256[],uint256[])": {
        "details": "Function to mint token in batch. Default value must be set with setCreateTokensDefaultValues.",
        "params": {
          "ids": "list of IDs of the tokens to be minted",
          "metadataHashes": "list of Metadata file hash",
          "recipient": "The address that will own the minted tokens"
        }
      },
      "isApprovedForAll(address,address)": {
        "params": {
          "account": "The account of the Tokens",
          "operator": "Address of authorized operator"
        },
        "return": "True if the operator is approved, false if not"
      },
      "owner()": {
        "details": "Returns the address of the current owner."
      },
      "proposeCallback(uint256,uint256)": {
        "details": "Propose to buy the whole supply of a token. The proposer must hold minHoldingForCallback% of the total supply. StashBlox must approve the price with acceptCallback();",
        "params": {
          "id": "Token ID",
          "price": "proposed price"
        }
      },
      "refuseCallback(uint256,address)": {
        "details": "Refuse a callback if the price is not enough.",
        "params": {
          "id": "Token ID",
          "proposer": "address of the proposer"
        }
      },
      "safeBatchTransferFrom(address,address,uint256[],uint256[],bytes)": {
        "details": "Transfers `values` amount(s) of `ids` from the `from` address to the `to` address specified. Caller must be approved to manage the tokens being transferred out of the `from` account. If `to` is a smart contract, will call `onERC1155BatchReceived` on `to` and act appropriately.",
        "params": {
          "data": "Data forwarded to `onERC1155Received` if `to` is a contract receiver",
          "from": "Source address",
          "ids": "IDs of each token type",
          "to": "Target address",
          "values": "Transfer amounts per token type"
        }
      },
      "safeTransferFrom(address,address,uint256,uint256,bytes)": {
        "details": "Transfers `value` amount of an `id` from the `from` address to the `to` address specified. Caller must be approved to manage the tokens being transferred out of the `from` account. If `to` is a smart contract, will call `onERC1155Received` on `to` and act appropriately.",
        "params": {
          "data": "Data forwarded to `onERC1155Received` if `to` is a contract receiver",
          "from": "Source address",
          "id": "ID of the token type",
          "to": "Target address",
          "value": "Transfer amount"
        }
      },
      "setApprovalForAll(address,bool)": {
        "details": "Sets or unsets the approval of a given operator.     * An operator is allowed to transfer all tokens of the sender on their behalf.     * Because an account already has operator privileges for itself, this function will revert if the account attempts to set the approval status for itself.",
        "params": {
          "approved": "representing the status of the approval to be set",
          "operator": "address to set the approval"
        }
      },
      "setCreateTokensDefaultValues(uint256,uint256,uint256,address[],uint256[])": {
        "details": "Set default values for batch token creation.",
        "params": {
          "feesRecipients": "list of addresses receiving transfer fees",
          "feesRecipientsPercentage": "list of percentage, each one for the corresponding feesRecipients",
          "minHoldingForCallback": "minimum holding to propose a callback",
          "storageCreditCost": "cost for 24h storage in storageCredit (x 10 ^ 8 for the precision)",
          "supply": "Amount of the token to be minted"
        }
      },
      "supportsInterface(bytes4)": {
        "params": {
          "_interfaceID": "The interface identifier, as specified in ERC-165"
        },
        "return": "`true` if the contract implements `_interfaceID` and"
      },
      "totalSupply(uint256)": {
        "params": {
          "id": "Token ID"
        },
        "return": "Token supply"
      },
      "transferOwnership(address)": {
        "details": "Transfers ownership of the contract to a new account (`newOwner`). Can only be called by the current owner."
      },
      "uri(uint256)": {
        "params": {
          "id": "Token ID"
        },
        "return": "URI string"
      }
    }
  },
  "userdoc": {
    "methods": {
      "isApprovedForAll(address,address)": {
        "notice": "Queries the approval status of an operator for a given account."
      },
      "supportsInterface(bytes4)": {
        "notice": "Query if a contract implements an interface"
      }
    }
  }
}