{
  "contractName": "ERC1155Mintable",
  "abi": [
    {
      "anonymous": false,
      "inputs": [
        {
          "indexed": true,
          "internalType": "address",
          "name": "_owner",
          "type": "address"
        },
        {
          "indexed": true,
          "internalType": "address",
          "name": "_operator",
          "type": "address"
        },
        {
          "indexed": false,
          "internalType": "bool",
          "name": "_approved",
          "type": "bool"
        }
      ],
      "name": "ApprovalForAll",
      "type": "event"
    },
    {
      "anonymous": false,
      "inputs": [
        {
          "indexed": true,
          "internalType": "uint256",
          "name": "_id",
          "type": "uint256"
        },
        {
          "indexed": true,
          "internalType": "uint256",
          "name": "_hash",
          "type": "uint256"
        }
      ],
      "name": "MetadataHashUpdated",
      "type": "event"
    },
    {
      "anonymous": false,
      "inputs": [
        {
          "indexed": true,
          "internalType": "address",
          "name": "previousOwner",
          "type": "address"
        },
        {
          "indexed": true,
          "internalType": "address",
          "name": "newOwner",
          "type": "address"
        }
      ],
      "name": "OwnershipTransferred",
      "type": "event"
    },
    {
      "anonymous": false,
      "inputs": [
        {
          "indexed": true,
          "internalType": "address",
          "name": "_operator",
          "type": "address"
        },
        {
          "indexed": true,
          "internalType": "address",
          "name": "_from",
          "type": "address"
        },
        {
          "indexed": true,
          "internalType": "address",
          "name": "_to",
          "type": "address"
        },
        {
          "indexed": false,
          "internalType": "uint256[]",
          "name": "_ids",
          "type": "uint256[]"
        },
        {
          "indexed": false,
          "internalType": "uint256[]",
          "name": "_values",
          "type": "uint256[]"
        }
      ],
      "name": "TransferBatch",
      "type": "event"
    },
    {
      "anonymous": false,
      "inputs": [
        {
          "indexed": true,
          "internalType": "address",
          "name": "_operator",
          "type": "address"
        },
        {
          "indexed": true,
          "internalType": "address",
          "name": "_from",
          "type": "address"
        },
        {
          "indexed": true,
          "internalType": "address",
          "name": "_to",
          "type": "address"
        },
        {
          "indexed": false,
          "internalType": "uint256",
          "name": "_id",
          "type": "uint256"
        },
        {
          "indexed": false,
          "internalType": "uint256",
          "name": "_value",
          "type": "uint256"
        }
      ],
      "name": "TransferSingle",
      "type": "event"
    },
    {
      "anonymous": false,
      "inputs": [
        {
          "indexed": false,
          "internalType": "string",
          "name": "_value",
          "type": "string"
        },
        {
          "indexed": true,
          "internalType": "uint256",
          "name": "_id",
          "type": "uint256"
        }
      ],
      "name": "URI",
      "type": "event"
    },
    {
      "anonymous": false,
      "inputs": [
        {
          "indexed": true,
          "internalType": "address",
          "name": "_tokenizer",
          "type": "address"
        },
        {
          "indexed": false,
          "internalType": "uint256",
          "name": "_id",
          "type": "uint256"
        },
        {
          "indexed": false,
          "internalType": "uint256",
          "name": "_cost",
          "type": "uint256"
        }
      ],
      "name": "UpdateStorageCost",
      "type": "event"
    },
    {
      "anonymous": false,
      "inputs": [
        {
          "indexed": true,
          "internalType": "address",
          "name": "_owner",
          "type": "address"
        },
        {
          "indexed": false,
          "internalType": "uint256",
          "name": "_price",
          "type": "uint256"
        }
      ],
      "name": "UpdateStorageCreditPrice",
      "type": "event"
    },
    {
      "inputs": [],
      "name": "BASE_URI",
      "outputs": [
        {
          "internalType": "string",
          "name": "",
          "type": "string"
        }
      ],
      "stateMutability": "view",
      "type": "function"
    },
    {
      "inputs": [
        {
          "internalType": "address",
          "name": "",
          "type": "address"
        }
      ],
      "name": "_ETHBalances",
      "outputs": [
        {
          "internalType": "uint256",
          "name": "",
          "type": "uint256"
        }
      ],
      "stateMutability": "view",
      "type": "function"
    },
    {
      "inputs": [
        {
          "internalType": "uint256",
          "name": "",
          "type": "uint256"
        },
        {
          "internalType": "uint256",
          "name": "",
          "type": "uint256"
        }
      ],
      "name": "_addressesByToken",
      "outputs": [
        {
          "internalType": "address",
          "name": "",
          "type": "address"
        }
      ],
      "stateMutability": "view",
      "type": "function"
    },
    {
      "inputs": [
        {
          "internalType": "uint256",
          "name": "",
          "type": "uint256"
        },
        {
          "internalType": "address",
          "name": "",
          "type": "address"
        }
      ],
      "name": "_birthdays",
      "outputs": [
        {
          "internalType": "uint256",
          "name": "",
          "type": "uint256"
        }
      ],
      "stateMutability": "view",
      "type": "function"
    },
    {
      "inputs": [
        {
          "internalType": "address",
          "name": "",
          "type": "address"
        },
        {
          "internalType": "uint256",
          "name": "",
          "type": "uint256"
        }
      ],
      "name": "_tokensByAddress",
      "outputs": [
        {
          "internalType": "uint256",
          "name": "",
          "type": "uint256"
        }
      ],
      "stateMutability": "view",
      "type": "function"
    },
    {
      "inputs": [
        {
          "internalType": "address",
          "name": "account",
          "type": "address"
        },
        {
          "internalType": "uint256",
          "name": "id",
          "type": "uint256"
        }
      ],
      "name": "balanceOf",
      "outputs": [
        {
          "internalType": "uint256",
          "name": "",
          "type": "uint256"
        }
      ],
      "stateMutability": "view",
      "type": "function"
    },
    {
      "inputs": [
        {
          "internalType": "address[]",
          "name": "accounts",
          "type": "address[]"
        },
        {
          "internalType": "uint256[]",
          "name": "ids",
          "type": "uint256[]"
        }
      ],
      "name": "balanceOfBatch",
      "outputs": [
        {
          "internalType": "uint256[]",
          "name": "",
          "type": "uint256[]"
        }
      ],
      "stateMutability": "view",
      "type": "function"
    },
    {
      "inputs": [
        {
          "internalType": "address",
          "name": "account",
          "type": "address"
        },
        {
          "internalType": "address",
          "name": "operator",
          "type": "address"
        }
      ],
      "name": "isApprovedForAll",
      "outputs": [
        {
          "internalType": "bool",
          "name": "",
          "type": "bool"
        }
      ],
      "stateMutability": "view",
      "type": "function"
    },
    {
      "inputs": [
        {
          "internalType": "address",
          "name": "addr",
          "type": "address"
        }
      ],
      "name": "isLockedAddress",
      "outputs": [
        {
          "internalType": "bool",
          "name": "",
          "type": "bool"
        }
      ],
      "stateMutability": "view",
      "type": "function"
    },
    {
      "inputs": [
        {
          "internalType": "uint256",
          "name": "id",
          "type": "uint256"
        }
      ],
      "name": "isLockedToken",
      "outputs": [
        {
          "internalType": "bool",
          "name": "",
          "type": "bool"
        }
      ],
      "stateMutability": "view",
      "type": "function"
    },
    {
      "inputs": [
        {
          "internalType": "address",
          "name": "addr",
          "type": "address"
        }
      ],
      "name": "lockAddress",
      "outputs": [],
      "stateMutability": "nonpayable",
      "type": "function"
    },
    {
      "inputs": [
        {
          "internalType": "uint256",
          "name": "id",
          "type": "uint256"
        }
      ],
      "name": "lockToken",
      "outputs": [],
      "stateMutability": "nonpayable",
      "type": "function"
    },
    {
      "inputs": [
        {
          "internalType": "uint256",
          "name": "id",
          "type": "uint256"
        }
      ],
      "name": "metadataHash",
      "outputs": [
        {
          "internalType": "uint256",
          "name": "",
          "type": "uint256"
        }
      ],
      "stateMutability": "view",
      "type": "function"
    },
    {
      "inputs": [],
      "name": "owner",
      "outputs": [
        {
          "internalType": "address",
          "name": "",
          "type": "address"
        }
      ],
      "stateMutability": "view",
      "type": "function"
    },
    {
      "inputs": [
        {
          "internalType": "address",
          "name": "from",
          "type": "address"
        },
        {
          "internalType": "address",
          "name": "to",
          "type": "address"
        },
        {
          "internalType": "uint256[]",
          "name": "ids",
          "type": "uint256[]"
        },
        {
          "internalType": "uint256[]",
          "name": "values",
          "type": "uint256[]"
        },
        {
          "internalType": "bytes",
          "name": "data",
          "type": "bytes"
        }
      ],
      "name": "safeBatchTransferFrom",
      "outputs": [],
      "stateMutability": "payable",
      "type": "function"
    },
    {
      "inputs": [
        {
          "internalType": "address",
          "name": "from",
          "type": "address"
        },
        {
          "internalType": "address",
          "name": "to",
          "type": "address"
        },
        {
          "internalType": "uint256",
          "name": "id",
          "type": "uint256"
        },
        {
          "internalType": "uint256",
          "name": "value",
          "type": "uint256"
        },
        {
          "internalType": "bytes",
          "name": "data",
          "type": "bytes"
        }
      ],
      "name": "safeTransferFrom",
      "outputs": [],
      "stateMutability": "payable",
      "type": "function"
    },
    {
      "inputs": [
        {
          "internalType": "address",
          "name": "operator",
          "type": "address"
        },
        {
          "internalType": "bool",
          "name": "approved",
          "type": "bool"
        }
      ],
      "name": "setApprovalForAll",
      "outputs": [],
      "stateMutability": "nonpayable",
      "type": "function"
    },
    {
      "inputs": [
        {
          "internalType": "address",
          "name": "account",
          "type": "address"
        },
        {
          "internalType": "uint256",
          "name": "id",
          "type": "uint256"
        },
        {
          "internalType": "uint256",
          "name": "value",
          "type": "uint256"
        }
      ],
      "name": "storageFees",
      "outputs": [
        {
          "internalType": "uint256",
          "name": "",
          "type": "uint256"
        }
      ],
      "stateMutability": "view",
      "type": "function"
    },
    {
      "inputs": [
        {
          "internalType": "bytes4",
          "name": "_interfaceID",
          "type": "bytes4"
        }
      ],
      "name": "supportsInterface",
      "outputs": [
        {
          "internalType": "bool",
          "name": "",
          "type": "bool"
        }
      ],
      "stateMutability": "pure",
      "type": "function"
    },
    {
      "inputs": [
        {
          "internalType": "address",
          "name": "newOwner",
          "type": "address"
        }
      ],
      "name": "transferOwnership",
      "outputs": [],
      "stateMutability": "nonpayable",
      "type": "function"
    },
    {
      "inputs": [
        {
          "internalType": "address",
          "name": "addr",
          "type": "address"
        }
      ],
      "name": "unlockAddress",
      "outputs": [],
      "stateMutability": "nonpayable",
      "type": "function"
    },
    {
      "inputs": [
        {
          "internalType": "uint256",
          "name": "id",
          "type": "uint256"
        }
      ],
      "name": "unlockToken",
      "outputs": [],
      "stateMutability": "nonpayable",
      "type": "function"
    },
    {
      "inputs": [
        {
          "internalType": "uint256",
          "name": "id",
          "type": "uint256"
        }
      ],
      "name": "uri",
      "outputs": [
        {
          "internalType": "string",
          "name": "",
          "type": "string"
        }
      ],
      "stateMutability": "pure",
      "type": "function"
    },
    {
      "inputs": [
        {
          "internalType": "address",
          "name": "tokenizer",
          "type": "address"
        }
      ],
      "name": "authorizeTokenizer",
      "outputs": [],
      "stateMutability": "nonpayable",
      "type": "function"
    },
    {
      "inputs": [
        {
          "internalType": "address",
          "name": "tokenizer",
          "type": "address"
        }
      ],
      "name": "revokeTokenizer",
      "outputs": [],
      "stateMutability": "nonpayable",
      "type": "function"
    },
    {
      "inputs": [
        {
          "internalType": "address",
          "name": "tokenizer",
          "type": "address"
        }
      ],
      "name": "isTokenizer",
      "outputs": [
        {
          "internalType": "bool",
          "name": "",
          "type": "bool"
        }
      ],
      "stateMutability": "view",
      "type": "function"
    },
    {
      "inputs": [
        {
          "internalType": "address",
          "name": "recipient",
          "type": "address"
        },
        {
          "internalType": "uint256",
          "name": "id",
          "type": "uint256"
        },
        {
          "internalType": "uint256",
          "name": "supply",
          "type": "uint256"
        },
        {
          "internalType": "uint256",
          "name": "metadataHash",
          "type": "uint256"
        },
        {
          "internalType": "uint256",
          "name": "storageCreditCost",
          "type": "uint256"
        },
        {
          "internalType": "uint256",
          "name": "minHoldingForCallback",
          "type": "uint256"
        },
        {
          "internalType": "address[]",
          "name": "feesRecipients",
          "type": "address[]"
        },
        {
          "internalType": "uint256[]",
          "name": "feesRecipientsPercentage",
          "type": "uint256[]"
        }
      ],
      "name": "createToken",
      "outputs": [],
      "stateMutability": "nonpayable",
      "type": "function"
    },
    {
      "inputs": [
        {
          "internalType": "uint256",
          "name": "id",
          "type": "uint256"
        },
        {
          "internalType": "uint256",
          "name": "metadataHash",
          "type": "uint256"
        }
      ],
      "name": "updateMetadataHash",
      "outputs": [],
      "stateMutability": "nonpayable",
      "type": "function"
    },
    {
      "inputs": [
        {
          "internalType": "uint256",
          "name": "newPrice",
          "type": "uint256"
        }
      ],
      "name": "updateStorageCreditPrice",
      "outputs": [],
      "stateMutability": "nonpayable",
      "type": "function"
    },
    {
      "inputs": [
        {
          "internalType": "uint256",
          "name": "id",
          "type": "uint256"
        },
        {
          "internalType": "uint256",
          "name": "newCost",
          "type": "uint256"
        }
      ],
      "name": "updateStorageCost",
      "outputs": [],
      "stateMutability": "nonpayable",
      "type": "function"
    },
    {
      "inputs": [
        {
          "internalType": "address",
          "name": "to",
          "type": "address"
        },
        {
          "internalType": "uint256",
          "name": "amount",
          "type": "uint256"
        }
      ],
      "name": "withdraw",
      "outputs": [],
      "stateMutability": "nonpayable",
      "type": "function"
    }
  ],
  "bytecode": "0x60806040526103e86006553480156200001757600080fd5b50620000233362000029565b620000e5565b6001600160a01b0381166200008a576040517f08c379a00000000000000000000000000000000000000000000000000000000081526004018080602001828103825260268152602001806200328a6026913960400191505060405180910390fd5b600080546040516001600160a01b03808516939216917f8be0079c531659141344cd1fd0a4f28419497f9722a3daafe3b4186f6b6457e091a3600080546001600160a01b0319166001600160a01b0392909216919091179055565b61319580620000f56000396000f3fe6080604052600436106101d75760003560e01c8063939cd64111610102578063d7b80ebc11610095578063ea2bd64d11610064578063ea2bd64d14610aab578063f242432a14610ae4578063f2fde38b14610b77578063f3fef3a314610baa576101d7565b8063d7b80ebc146109fe578063dbddb26a14610a31578063dd2e0ac014610a46578063e985e9c514610a70576101d7565b8063c02f303c116100d1578063c02f303c14610860578063c4be3c3c14610893578063cba54e60146108d2578063cf6c97ca14610905576101d7565b8063939cd64114610798578063a22cb465146107c8578063b7eb5e0a14610803578063bba75c8314610836576101d7565b80634e1273f41161017a57806380f203631161014957806380f20363146106fc5780638495b141146107265780638870147b146107505780638da5cb5b14610783576101d7565b80634e1273f4146104e05780636b62becb146106605780636eb987c7146106905780637627b732146106c9576101d7565b8063119c0737116101b6578063119c07371461030e578063219cc8bc1461035a5780632eb2c2d61461038457806334a90d02146104ad576101d7565b8062fdd58e146101dc57806301ffc9a7146102275780630e89341c1461026f575b600080fd5b3480156101e857600080fd5b50610215600480360360408110156101ff57600080fd5b506001600160a01b038135169060200135610be3565b60408051918252519081900360200190f35b34801561023357600080fd5b5061025b6004803603602081101561024a57600080fd5b50356001600160e01b031916610c55565b604080519115158252519081900360200190f35b34801561027b57600080fd5b506102996004803603602081101561029257600080fd5b5035610c9c565b6040805160208082528351818301528351919283929083019185019080838360005b838110156102d35781810151838201526020016102bb565b50505050905090810190601f1680156103005780820380516001836020036101000a031916815260200191505b509250505060405180910390f35b34801561031a57600080fd5b5061033e6004803603604081101561033157600080fd5b5080359060200135610ce5565b604080516001600160a01b039092168252519081900360200190f35b34801561036657600080fd5b506102156004803603602081101561037d57600080fd5b5035610d1a565b6104ab600480360360a081101561039a57600080fd5b6001600160a01b038235811692602081013590911691810190606081016040820135600160201b8111156103cd57600080fd5b8201836020820111156103df57600080fd5b803590602001918460208302840111600160201b8311171561040057600080fd5b919390929091602081019035600160201b81111561041d57600080fd5b82018360208201111561042f57600080fd5b803590602001918460208302840111600160201b8311171561045057600080fd5b919390929091602081019035600160201b81111561046d57600080fd5b82018360208201111561047f57600080fd5b803590602001918460018302840111600160201b831117156104a057600080fd5b509092509050610d2c565b005b3480156104b957600080fd5b506104ab600480360360208110156104d057600080fd5b50356001600160a01b031661104e565b3480156104ec57600080fd5b506106106004803603604081101561050357600080fd5b810190602081018135600160201b81111561051d57600080fd5b82018360208201111561052f57600080fd5b803590602001918460208302840111600160201b8311171561055057600080fd5b9190808060200260200160405190810160405280939291908181526020018383602002808284376000920191909152509295949360208101935035915050600160201b81111561059f57600080fd5b8201836020820111156105b157600080fd5b803590602001918460208302840111600160201b831117156105d257600080fd5b9190808060200260200160405190810160405280939291908181526020018383602002808284376000920191909152509295506110b9945050505050565b60408051602080825283518183015283519192839290830191858101910280838360005b8381101561064c578181015183820152602001610634565b505050509050019250505060405180910390f35b34801561066c57600080fd5b506104ab6004803603604081101561068357600080fd5b5080359060200135611237565b34801561069c57600080fd5b50610215600480360360408110156106b357600080fd5b506001600160a01b038135169060200135611289565b3480156106d557600080fd5b506104ab600480360360208110156106ec57600080fd5b50356001600160a01b03166112b7565b34801561070857600080fd5b506104ab6004803603602081101561071f57600080fd5b5035611322565b34801561073257600080fd5b506104ab6004803603602081101561074957600080fd5b5035611387565b34801561075c57600080fd5b506104ab6004803603602081101561077357600080fd5b50356001600160a01b0316611409565b34801561078f57600080fd5b5061033e611471565b3480156107a457600080fd5b506104ab600480360360408110156107bb57600080fd5b5080359060200135611480565b3480156107d457600080fd5b506104ab600480360360408110156107eb57600080fd5b506001600160a01b0381351690602001351515611546565b34801561080f57600080fd5b506104ab6004803603602081101561082657600080fd5b50356001600160a01b03166115fc565b34801561084257600080fd5b5061025b6004803603602081101561085957600080fd5b5035611664565b34801561086c57600080fd5b5061025b6004803603602081101561088357600080fd5b50356001600160a01b031661166f565b34801561089f57600080fd5b50610215600480360360608110156108b657600080fd5b506001600160a01b03813516906020810135906040013561167a565b3480156108de57600080fd5b5061025b600480360360208110156108f557600080fd5b50356001600160a01b031661168f565b34801561091157600080fd5b506104ab600480360361010081101561092957600080fd5b6001600160a01b038235169160208101359160408201359160608101359160808201359160a08101359181019060e0810160c0820135600160201b81111561097057600080fd5b82018360208201111561098257600080fd5b803590602001918460208302840111600160201b831117156109a357600080fd5b919390929091602081019035600160201b8111156109c057600080fd5b8201836020820111156109d257600080fd5b803590602001918460208302840111600160201b831117156109f357600080fd5b50909250905061169a565b348015610a0a57600080fd5b5061021560048036036020811015610a2157600080fd5b50356001600160a01b0316611751565b348015610a3d57600080fd5b50610299611763565b348015610a5257600080fd5b506104ab60048036036020811015610a6957600080fd5b503561179c565b348015610a7c57600080fd5b5061025b60048036036040811015610a9357600080fd5b506001600160a01b03813581169160200135166117fb565b348015610ab757600080fd5b5061021560048036036040811015610ace57600080fd5b50803590602001356001600160a01b0316611829565b6104ab600480360360a0811015610afa57600080fd5b6001600160a01b03823581169260208101359091169160408201359160608101359181019060a081016080820135600160201b811115610b3957600080fd5b820183602082011115610b4b57600080fd5b803590602001918460018302840111600160201b83111715610b6c57600080fd5b509092509050611846565b348015610b8357600080fd5b506104ab60048036036020811015610b9a57600080fd5b50356001600160a01b0316611a3c565b348015610bb657600080fd5b506104ab60048036036040811015610bcd57600080fd5b506001600160a01b038135169060200135611a8f565b60006001600160a01b038316610c2a5760405162461bcd60e51b815260040180806020018281038252602b815260200180612e53602b913960400191505060405180910390fd5b5060008181526003602090815260408083206001600160a01b03861684529091529020545b92915050565b60006001600160e01b031982166301ffc9a760e01b1480610c8657506001600160e01b03198216636cdb3d1360e11b145b15610c9357506001610c97565b5060005b919050565b6060610c4f6040518060400160405280601d81526020017f68747470733a2f2f7374617368626c6f782e636f6d2f746f6b656e732f000000815250610ce084611c0d565b611cc9565b600b6020528160005260406000208181548110610cfe57fe5b6000918252602090912001546001600160a01b03169150829050565b6000908152600e602052604090205490565b848314610d6a5760405162461bcd60e51b815260040180806020018281038252602e8152602001806130d6602e913960400191505060405180910390fd5b6001600160a01b038716610daf5760405162461bcd60e51b8152600401808060200182810382526028815260200180612ea46028913960400191505060405180910390fd5b6001600160a01b038816331480610dd15750610dcb88336117fb565b15156001145b610e0c5760405162461bcd60e51b815260040180806020018281038252603781526020018061309f6037913960400191505060405180910390fd5b3460005b86811015610e5557610e498a8a8a8a85818110610e2957fe5b90506020020135898986818110610e3c57fe5b9050602002013586611dd3565b90910390600101610e10565b50876001600160a01b0316896001600160a01b0316336001600160a01b03167f4a39dc06d4c0dbc64b70af90fd698a233a518aa5d07e595d983b8c0526c8f7fb8a8a8a8a6040518080602001806020018381038352878782818152602001925060200280828437600083820152601f01601f19169091018481038352858152602090810191508690860280828437600083820152604051601f909101601f19169092018290039850909650505050505050a4610fab338a8a8a8a8080602002602001604051908101604052809392919081815260200183836020028082843760009201919091525050604080516020808e0282810182019093528d82529093508d92508c91829185019084908082843760009201919091525050604080516020601f8d018190048102820181019092528b815292508b91508a908190840183828082843760009201919091525061213e92505050565b801561104357604051600090339083908381818185875af1925050503d8060008114610ff3576040519150601f19603f3d011682016040523d82523d6000602084013e610ff8565b606091505b5050905080611041576040805162461bcd60e51b815260206004820152601060248201526f2a3930b739b332b9103330b4b632b21760811b604482015290519081900360640190fd5b505b505050505050505050565b611056612337565b611095576040805162461bcd60e51b81526020600482018190526024820152600080516020613000833981519152604482015290519081900360640190fd5b6001600160a01b03166000908152600260205260409020805460ff19166001179055565b606081518351146110fb5760405162461bcd60e51b8152600401808060200182810382526030815260200180612f1b6030913960400191505060405180910390fd5b6060835167ffffffffffffffff8111801561111557600080fd5b5060405190808252806020026020018201604052801561113f578160200160208202803683370190505b50905060005b845181101561122f5760006001600160a01b031685828151811061116557fe5b60200260200101516001600160a01b031614156111b35760405162461bcd60e51b8152600401808060200182810382526034815260200180612f816034913960400191505060405180910390fd5b600360008583815181106111c357fe5b6020026020010151815260200190815260200160002060008683815181106111e757fe5b60200260200101516001600160a01b03166001600160a01b031681526020019081526020016000205482828151811061121c57fe5b6020908102919091010152600101611145565b509392505050565b61124033612348565b61127b5760405162461bcd60e51b8152600401808060200182810382526023815260200180612ef86023913960400191505060405180910390fd5b6112858282612372565b5050565b600a60205281600052604060002081815481106112a257fe5b90600052602060002001600091509150505481565b6112bf612337565b6112fe576040805162461bcd60e51b81526020600482018190526024820152600080516020613000833981519152604482015290519081900360640190fd5b6001600160a01b03166000908152601060205260409020805460ff19166001179055565b61132a612337565b611369576040805162461bcd60e51b81526020600482018190526024820152600080516020613000833981519152604482015290519081900360640190fd5b6000908152600160208190526040909120805460ff19169091179055565b61139033612348565b6113cb5760405162461bcd60e51b8152600401808060200182810382526023815260200180612ef86023913960400191505060405180910390fd5b600681905560408051828152905133917f5c5a35dc0829d2f6a31d1d6da57c4315ba7b562ee447c87b75c732cfd96abde9919081900360200190a250565b611411612337565b611450576040805162461bcd60e51b81526020600482018190526024820152600080516020613000833981519152604482015290519081900360640190fd5b6001600160a01b03166000908152601060205260409020805460ff19169055565b6000546001600160a01b031690565b61148933612348565b6114c45760405162461bcd60e51b8152600401808060200182810382526023815260200180612ef86023913960400191505060405180910390fd5b6000828152600560209081526040808320815180830190925242825281830185905280546001810182559084529190922061150792600292830290910191612d45565b506040805183815260208101839052815133927f4bd9446604f43017ac3918d8db419b59a3b6f2a6cdd456eed5de99621bb62765928290030190a25050565b336001600160a01b038316141561158e5760405162461bcd60e51b815260040180806020018281038252602c815260200180612ecc602c913960400191505060405180910390fd5b336000818152600d602090815260408083206001600160a01b03871680855290835292819020805460ff1916861515908117909155815190815290519293927f17307eab39ab6107e8899845ad3d59bd9653f200f220920489ca2b5937696c31929181900390910190a35050565b611604612337565b611643576040805162461bcd60e51b81526020600482018190526024820152600080516020613000833981519152604482015290519081900360640190fd5b6001600160a01b03166000908152600260205260409020805460ff19169055565b6000610c4f826123b1565b6000610c4f82612348565b60006116878484846123c6565b949350505050565b6000610c4f8261253f565b6116a333612348565b6116de5760405162461bcd60e51b8152600401808060200182810382526023815260200180612ef86023913960400191505060405180910390fd5b6110418a8a8a8a8a8a8a8a8080602002602001604051908101604052809392919081815260200183836020028082843760009201919091525050604080516020808e0282810182019093528d82529093508d92508c91829185019084908082843760009201919091525061255d92505050565b60096020526000908152604090205481565b6040518060400160405280601d81526020017f68747470733a2f2f7374617368626c6f782e636f6d2f746f6b656e732f00000081525081565b6117a4612337565b6117e3576040805162461bcd60e51b81526020600482018190526024820152600080516020613000833981519152604482015290519081900360640190fd5b6000908152600160205260409020805460ff19169055565b6001600160a01b039182166000908152600d6020908152604080832093909416825291909152205460ff1690565b600460209081526000928352604080842090915290825290205481565b6001600160a01b03851661188b5760405162461bcd60e51b8152600401808060200182810382526028815260200180612ea46028913960400191505060405180910390fd5b6001600160a01b0386163314806118ad57506118a786336117fb565b15156001145b6118e85760405162461bcd60e51b815260040180806020018281038252603781526020018061309f6037913960400191505060405180910390fd5b346118f68787878785611dd3565b81039050856001600160a01b0316876001600160a01b0316336001600160a01b03167fc3d58168c5ae7397731d063d5bbf3d657854427343f4c083240f7aacaa2d0f628888604051808381526020018281526020019250505060405180910390a461199b338888888888888080601f01602080910402602001604051908101604052809392919081815260200183838082843760009201919091525061284092505050565b8015611a3357604051600090339083908381818185875af1925050503d80600081146119e3576040519150601f19603f3d011682016040523d82523d6000602084013e6119e8565b606091505b5050905080611a31576040805162461bcd60e51b815260206004820152601060248201526f2a3930b739b332b9103330b4b632b21760811b604482015290519081900360640190fd5b505b50505050505050565b611a44612337565b611a83576040805162461bcd60e51b81526020600482018190526024820152600080516020613000833981519152604482015290519081900360640190fd5b611a8c816129b5565b50565b611a97612337565b611ad6576040805162461bcd60e51b81526020600482018190526024820152600080516020613000833981519152604482015290519081900360640190fd5b6001600160a01b038216600090815260096020526040902054811115611b43576040805162461bcd60e51b815260206004820181905260248201527f5374617368426c6f783a20496e73756666696369656e742062616c616e63652e604482015290519081900360640190fd5b6040516000906001600160a01b0384169083908381818185875af1925050503d8060008114611b8e576040519150601f19603f3d011682016040523d82523d6000602084013e611b93565b606091505b5050905080611be9576040805162461bcd60e51b815260206004820152601d60248201527f5374617368426c6f783a205769746864726177616c206661696c65642e000000604482015290519081900360640190fd5b506001600160a01b0390911660009081526009602052604090208054919091039055565b60606000825b8015611c29576001919091019060109004611c13565b60608267ffffffffffffffff81118015611c4257600080fd5b506040519080825280601f01601f191660200182016040528015611c6d576020820181803683370190505b50905060005b83811015611cc057601086069250611c8a83612a55565b8260018387030381518110611c9b57fe5b60200101906001600160f81b031916908160001a905350601086049550600101611c73565b50949350505050565b805182516060918491849184910167ffffffffffffffff81118015611ced57600080fd5b506040519080825280601f01601f191660200182016040528015611d18576020820181803683370190505b509050806000805b8551811015611d7157858181518110611d3557fe5b602001015160f81c60f81b838380600101945081518110611d5257fe5b60200101906001600160f81b031916908160001a905350600101611d20565b5060005b8451811015611dc657848181518110611d8a57fe5b602001015160f81c60f81b838380600101945081518110611da757fe5b60200101906001600160f81b031916908160001a905350600101611d75565b5090979650505050505050565b6000611de186868686612a99565b15611e1c576040805162461bcd60e51b8152602060048201526006602482015265131bd8dad95960d21b604482015290519081900360640190fd5b611e278685856123c6565b905080821015611e685760405162461bcd60e51b815260040180806020018281038252602b815260200180613135602b913960400191505060405180910390fd5b611eaf836040518060600160405280602a8152602001612fb5602a913960008781526003602090815260408083206001600160a01b038d1684529091529020549190612ad4565b60008581526003602090815260408083206001600160a01b038b811685529252808320939093558716815290812054611ee89085612b6b565b60008681526003602090815260408083206001600160a01b038b168452909152902054909150611fca576000858152600c602090815260408083206001600160a01b038a16845290915290205460ff16611fa0576001600160a01b0386166000818152600a60209081526040808320805460018181018355918552838520018a9055898452600b83528184208054918201815584528284200180546001600160a01b03191685179055888352600c8252822092909152525b60008581526004602090815260408083206001600160a01b038a1684529091529020429055612061565b60008581526004602090815260408083206001600160a01b038a168452909152812054611ff8904290612bcc565b60008781526003602090815260408083206001600160a01b038c1684529091528120549192509061203590849061202f9085612c0e565b90612c67565b60008881526004602090815260408083206001600160a01b038d16845290915290204291909103905550505b60008581526003602090815260408083206001600160a01b038a16845290915281208290555b6000868152600760205260409020548110156121335760008681526007602052604081208054839081106120b757fe5b600091825260208083209091015489835260089091526040822080546001600160a01b03909216935090849081106120eb57fe5b600091825260209091200154905061210961271061202f8784612c0e565b6001600160a01b039092166000908152600960205260409020805490920190915550600101612087565b505095945050505050565b612150846001600160a01b0316612ca9565b1561232f5763bc197c8160e01b6001600160e01b031916846001600160a01b031663bc197c8188888787876040518663ffffffff1660e01b815260040180866001600160a01b03168152602001856001600160a01b03168152602001806020018060200180602001848103845287818151815260200191508051906020019060200280838360005b838110156121f05781810151838201526020016121d8565b50505050905001848103835286818151815260200191508051906020019060200280838360005b8381101561222f578181015183820152602001612217565b50505050905001848103825285818151815260200191508051906020019080838360005b8381101561226b578181015183820152602001612253565b50505050905090810190601f1680156122985780820380516001836020036101000a031916815260200191505b5098505050505050505050602060405180830381600087803b1580156122bd57600080fd5b505af11580156122d1573d6000803e3d6000fd5b505050506040513d60208110156122e757600080fd5b50516001600160e01b0319161461232f5760405162461bcd60e51b8152600401808060200182810382526036815260200180612f4b6036913960400191505060405180910390fd5b505050505050565b6000546001600160a01b0316331490565b6001600160a01b03811660009081526010602052604081205460ff1680610c4f5750610c4f612337565b6000828152600e602052604080822083905551829184917f9cd9c60390fc75c213fd8d644749f61388dd30ed6c6eb4647b793b5b580fb4309190a35050565b60009081526001602052604090205460ff1690565b60006001600160a01b03841661240d5760405162461bcd60e51b815260040180806020018281038252602b815260200180612e53602b913960400191505060405180910390fd5b6000838152600560205260408120544290600019015b600086815260056020526040812080548390811061243d57fe5b6000918252602082206002909102010154905060006305f5e100600654600560008b8152602001908152602001600020858154811061247857fe5b906000526020600020906002020160016002811061249257fe5b0154028161249c57fe5b60008a81526004602090815260408083206001600160a01b038f16845290915281205492909104925090831161250f575060008881526004602090815260408083206001600160a01b038d168452909152902054620151809085030480612501575060015b028602939093019250612534565b50620151808285030480612521575060015b0286029390930192915060001901612423565b509095945050505050565b6001600160a01b031660009081526002602052604090205460ff1690565b6000878152600f60205260409020541580156125795750600086115b80156125855750600084115b80156125915750600083115b801561259f57506127108311155b80156125ac575060008251115b80156125b9575080518251145b61260a576040805162461bcd60e51b815260206004820152601c60248201527f5374617368426c6f783a20496e76616c696420617267756d656e747300000000604482015290519081900360640190fd5b6000805b82518110156126895782818151811061262357fe5b602002602001015182019150600083828151811061263d57fe5b6020026020010151116126815760405162461bcd60e51b815260040180806020018281038252603c815260200180613020603c913960400191505060405180910390fd5b60010161260e565b5080612710146126ca5760405162461bcd60e51b815260040180806020018281038252604381526020018061305c6043913960600191505060405180910390fd5b6000888152600c602090815260408083206001600160a01b038d16808552908352818420805460ff19166001908117909155600a8452828520805491820181558552838520018c90558b8452600f83528184208b905560038352818420908452909152902087905561273c8887612372565b60008881526004602090815260408083206001600160a01b038d168452825280832042908190558b845260058352818420825180840190935290825281830189905280546001810182559084529190922061279f92600292830290910191612d45565b5060008881526011602090815260408083208790556007825290912084516127c992860190612d83565b50600088815260086020908152604090912083516127e992850190612de4565b50604080518981526020810189905281516001600160a01b038c169260009233927fc3d58168c5ae7397731d063d5bbf3d657854427343f4c083240f7aacaa2d0f62929181900390910190a4505050505050505050565b612852846001600160a01b0316612ca9565b1561232f5763f23a6e6160e01b6001600160e01b031916846001600160a01b031663f23a6e6188888787876040518663ffffffff1660e01b815260040180866001600160a01b03168152602001856001600160a01b0316815260200184815260200183815260200180602001828103825283818151815260200191508051906020019080838360005b838110156128f35781810151838201526020016128db565b50505050905090810190601f1680156129205780820380516001836020036101000a031916815260200191505b509650505050505050602060405180830381600087803b15801561294357600080fd5b505af1158015612957573d6000803e3d6000fd5b505050506040513d602081101561296d57600080fd5b50516001600160e01b0319161461232f5760405162461bcd60e51b81526004018080602001828103825260318152602001806131046031913960400191505060405180910390fd5b6001600160a01b0381166129fa5760405162461bcd60e51b8152600401808060200182810382526026815260200180612e7e6026913960400191505060405180910390fd5b600080546040516001600160a01b03808516939216917f8be0079c531659141344cd1fd0a4f28419497f9722a3daafe3b4186f6b6457e091a3600080546001600160a01b0319166001600160a01b0392909216919091179055565b600060098260ff1611612a6f57506030810160f81b610c97565b8160ff16600a11158015612a875750600f8260ff1611155b156101d757506057810160f81b610c97565b6000612aa4836123b1565b80612ab35750612ab38561253f565b80612ac25750612ac28461253f565b80612acb575081155b95945050505050565b60008184841115612b635760405162461bcd60e51b81526004018080602001828103825283818151815260200191508051906020019080838360005b83811015612b28578181015183820152602001612b10565b50505050905090810190601f168015612b555780820380516001836020036101000a031916815260200191505b509250505060405180910390fd5b505050900390565b600082820183811015612bc5576040805162461bcd60e51b815260206004820152601b60248201527f536166654d6174683a206164646974696f6e206f766572666c6f770000000000604482015290519081900360640190fd5b9392505050565b6000612bc583836040518060400160405280601e81526020017f536166654d6174683a207375627472616374696f6e206f766572666c6f770000815250612ad4565b600082612c1d57506000610c4f565b82820282848281612c2a57fe5b0414612bc55760405162461bcd60e51b8152600401808060200182810382526021815260200180612fdf6021913960400191505060405180910390fd5b6000612bc583836040518060400160405280601a81526020017f536166654d6174683a206469766973696f6e206279207a65726f000000000000815250612ce0565b6000813f7fc5d2460186f7233c927e7db2dcc703c0e500b653ca82273b7bfad8045d85a47081158015906116875750141592915050565b60008183612d2f5760405162461bcd60e51b8152602060048201818152835160248401528351909283926044909101919085019080838360008315612b28578181015183820152602001612b10565b506000838581612d3b57fe5b0495945050505050565b8260028101928215612d73579160200282015b82811115612d73578251825591602001919060010190612d58565b50612d7f929150612e1e565b5090565b828054828255906000526020600020908101928215612dd8579160200282015b82811115612dd857825182546001600160a01b0319166001600160a01b03909116178255602090920191600190910190612da3565b50612d7f929150612e33565b828054828255906000526020600020908101928215612d735791602002820182811115612d73578251825591602001919060010190612d58565b5b80821115612d7f5760008155600101612e1f565b5b80821115612d7f5780546001600160a01b0319168155600101612e3456fe455243313135353a2062616c616e636520717565727920666f7220746865207a65726f20616464726573734f776e61626c653a206e6577206f776e657220697320746865207a65726f2061646472657373455243313135353a207461726765742061646472657373206d757374206265206e6f6e2d7a65726f455243313135353a2063616e6e6f742073657420617070726f76616c2073746174757320666f722073656c664d696e7461626c653a2063616c6c6572206973206e6f74206120746f6b656e697a6572455243313135353a206163636f756e747320616e6420494473206d75737420686176652073616d65206c656e67746873455243313135353a20676f7420756e6b6e6f776e2076616c75652066726f6d206f6e4552433131353542617463685265636569766564455243313135353a20736f6d65206164647265737320696e2062617463682062616c616e6365207175657279206973207a65726f455243313135353a20696e73756666696369656e742062616c616e636520666f72207472616e73666572536166654d6174683a206d756c7469706c69636174696f6e206f766572666c6f774f776e61626c653a2063616c6c6572206973206e6f7420746865206f776e65725374617368426c6f783a2066656573526563697069656e747350657263656e746167652073686f756c642062652067726561746572207468616e20305374617368426c6f783a20546f74616c206f662066656573526563697069656e747350657263656e74616765206d75737420626520657175616c20746f203130303030455243313135353a206e656564206f70657261746f7220617070726f76616c20666f7220337264207061727479207472616e7366657273455243313135353a2049447320616e642076616c756573206d75737420686176652073616d65206c656e67746873455243313135353a20676f7420756e6b6e6f776e2076616c75652066726f6d206f6e455243313135355265636569766564455243313135353a20696e73756666696369656e742045544820666f72207472616e736665722066656573a2646970667358221220ce1b5d5212f413e8150e1482d1d631bb248ef4b139f6ea156b7e3b807907d53c64736f6c634300070100334f776e61626c653a206e6577206f776e657220697320746865207a65726f2061646472657373",
  "immutableReferences": {},
  "source": "pragma solidity ^0.7.1;\n\nimport './ERC1155.sol';\nimport './ERC1155Metadata.sol';\nimport '../ERC173/ERC173.sol';\nimport '../utils/StringUtils.sol';\n\ncontract ERC1155Mintable is ERC1155, ERC1155Metadata {\n\n    // Mapping from token ID to Supply\n    mapping (uint256 => uint256) internal _supplies;\n    mapping (address => bool) private _authorizedTokenizers;\n\n    // Minimum holding to propose a callback for each token\n    mapping (uint256 => uint256) _minHoldingForCallback;\n\n    event UpdateStorageCost(address indexed _tokenizer, uint256 _id, uint256 _cost);\n    event UpdateStorageCreditPrice(address indexed _owner, uint256 _price);\n\n\n    function authorizeTokenizer(address tokenizer) external onlyOwner {\n        _authorizedTokenizers[tokenizer] = true;\n    }\n\n    function revokeTokenizer(address tokenizer) external onlyOwner {\n        _authorizedTokenizers[tokenizer] = false;\n    }\n\n    function _isTokenizer(address tokenizer) internal view returns (bool) {\n        return _authorizedTokenizers[tokenizer] || _isOwner();\n    }\n\n    function isTokenizer(address tokenizer) external view returns (bool) {\n        return _isTokenizer(tokenizer);\n    }\n\n    modifier onlyTokenizer() {\n        require(_isTokenizer(msg.sender), \"Mintable: caller is not a tokenizer\");\n        _;\n    }\n\n    function _createToken(address recipient,\n                         uint256 id,\n                         uint256 supply,\n                         uint256 metadataHash,\n                         uint256 storageCreditCost,\n                         uint256 minHoldingForCallback,\n                         address[] memory feesRecipients,\n                         uint256[] memory feesRecipientsPercentage)\n    internal {\n\n        // require(_supplies[id] == 0, \"StashBlox: Token already minted\");\n        // require(supply > 0, \"StashBlox: supply should be greater than 0\");\n        // require(storageCreditCost > 0, \"StashBlox: storageCreditCost should be greater than 0\");\n        // require(minHoldingForCallback > 0, \"StashBlox: minHoldingForCallback should be greater than 0\");\n        // require(minHoldingForCallback <= 10000, \"StashBlox: minHoldingForCallback should be lower or equal than 10000\");\n        // require(feesRecipients.length > 0, \"StashBlox: need at least one feesRecipients\");\n        // require(feesRecipients.length == feesRecipientsPercentage.length, \"StashBlox: invalid feesRecipientsPercentage length\");\n        require(_supplies[id] == 0 &&\n                supply > 0 &&\n                storageCreditCost > 0 &&\n                minHoldingForCallback > 0 &&\n                minHoldingForCallback <= 10000 &&\n                feesRecipients.length > 0 &&\n                feesRecipients.length == feesRecipientsPercentage.length, \"StashBlox: Invalid arguments\");\n\n        uint256 totalPercentage = 0;\n        for (uint256 i = 0; i < feesRecipientsPercentage.length; ++i) {\n            totalPercentage += feesRecipientsPercentage[i];\n            require(feesRecipientsPercentage[i] > 0, \"StashBlox: feesRecipientsPercentage should be greater than 0\");\n        }\n        require(totalPercentage == 10000, \"StashBlox: Total of feesRecipientsPercentage must be equal to 10000\");\n\n        _isHolder[id][recipient] = true;\n        _tokensByAddress[recipient].push(id);\n        _supplies[id] = supply;\n        _balances[id][recipient] = supply;\n        _updateMetadataHash(id, metadataHash);\n        _birthdays[id][recipient] = block.timestamp;\n        _storageCostHistory[id].push([block.timestamp, storageCreditCost]);\n        _minHoldingForCallback[id] = minHoldingForCallback;\n        _feesRecipients[id] = feesRecipients;\n        _feesRecipientsPercentage[id] = feesRecipientsPercentage;\n\n        emit TransferSingle(msg.sender, address(0), recipient, id, supply);\n        // emit URI(uri, id);\n    }\n\n    /**\n     * @dev Function to mint an amount of a token with the given ID.\n     * @param recipient The address that will own the minted tokens\n     * @param id ID of the token to be minted\n     * @param supply Amount of the token to be minted\n     * @param metadataHash Metadata file hash\n     * @param storageCreditCost cost for 24h storage in storageCredit (x 10 ^ 8 for the precision)\n     * @param minHoldingForCallback minimum holding to propose a callback\n     * @param feesRecipients list of addresses receiving transfer fees\n     * @param feesRecipientsPercentage list of percentage, each one for the corresponding feesRecipients\n     */\n    function createToken(address recipient,\n                         uint256 id,\n                         uint256 supply,\n                         uint256 metadataHash,\n                         uint256 storageCreditCost,\n                         uint256 minHoldingForCallback,\n                         address[] calldata feesRecipients,\n                         uint256[] calldata feesRecipientsPercentage)\n    external onlyTokenizer {\n        _createToken(recipient,\n                     id,\n                     supply,\n                     metadataHash,\n                     storageCreditCost,\n                     minHoldingForCallback,\n                     feesRecipients,\n                     feesRecipientsPercentage);\n    }\n\n    function updateMetadataHash(uint256 id, uint256 metadataHash) external onlyTokenizer {\n      _updateMetadataHash(id, metadataHash);\n    }\n\n    function updateStorageCreditPrice(uint256 newPrice) external onlyTokenizer {\n      storageCreditPrice = newPrice;\n      emit UpdateStorageCreditPrice(msg.sender, newPrice);\n    }\n\n    function updateStorageCost(uint256 id, uint256 newCost) external onlyTokenizer {\n      _storageCostHistory[id].push([block.timestamp, newCost]);\n      emit UpdateStorageCost(msg.sender, id, newCost);\n    }\n\n    function withdraw(address to, uint256 amount) external onlyOwner {\n      require(_ETHBalances[to] >= amount, \"StashBlox: Insufficient balance.\");\n      (bool success, ) = to.call{value: amount}(\"\");\n      require(success, \"StashBlox: Withdrawal failed.\");\n      _ETHBalances[to] -= amount;\n    }\n\n    // /**\n    //  * @param id Token ID\n    //  * @return Token supply\n    //  */\n    // function totalSupply(uint256 id) external view returns (uint256) {\n    //     return _supplies[id];\n    // }\n}\n",
  "sourcePath": "/home/ouziel/Work/StashBloxContracts/contracts/lib/ERC1155/ERC1155Mintable.sol",
  "compiler": {
    "name": "solc",
    "version": "0.7.1+commit.f4a555be.Emscripten.clang"
  },
  "schemaVersion": "3.2.3",
  "updatedAt": "2020-10-01T18:51:38.744Z",
  "devdoc": {
    "kind": "dev",
    "methods": {
      "balanceOf(address,uint256)": {
        "details": "Get the specified address' balance for token with specified ID. Attempting to query the zero account for a balance will result in a revert.",
        "params": {
          "account": "The address of the token holder",
          "id": "ID of the token"
        },
        "returns": {
          "_0": "The account's balance of the token type requested"
        }
      },
      "balanceOfBatch(address[],uint256[])": {
        "details": "Get the balance of multiple account/token pairs. If any of the query accounts is the zero account, this query will revert.",
        "params": {
          "accounts": "The addresses of the token holders",
          "ids": "IDs of the tokens"
        },
        "returns": {
          "_0": "Balances for each account and token id pair"
        }
      },
      "createToken(address,uint256,uint256,uint256,uint256,uint256,address[],uint256[])": {
        "details": "Function to mint an amount of a token with the given ID.",
        "params": {
          "feesRecipients": "list of addresses receiving transfer fees",
          "feesRecipientsPercentage": "list of percentage, each one for the corresponding feesRecipients",
          "id": "ID of the token to be minted",
          "metadataHash": "Metadata file hash",
          "minHoldingForCallback": "minimum holding to propose a callback",
          "recipient": "The address that will own the minted tokens",
          "storageCreditCost": "cost for 24h storage in storageCredit (x 10 ^ 8 for the precision)",
          "supply": "Amount of the token to be minted"
        }
      },
      "isApprovedForAll(address,address)": {
        "params": {
          "account": "The account of the Tokens",
          "operator": "Address of authorized operator"
        },
        "returns": {
          "_0": "True if the operator is approved, false if not"
        }
      },
      "owner()": {
        "details": "Returns the address of the current owner."
      },
      "safeBatchTransferFrom(address,address,uint256[],uint256[],bytes)": {
        "details": "Transfers `values` amount(s) of `ids` from the `from` address to the `to` address specified. Caller must be approved to manage the tokens being transferred out of the `from` account. If `to` is a smart contract, will call `onERC1155BatchReceived` on `to` and act appropriately.",
        "params": {
          "data": "Data forwarded to `onERC1155Received` if `to` is a contract receiver",
          "from": "Source address",
          "ids": "IDs of each token type",
          "to": "Target address",
          "values": "Transfer amounts per token type"
        }
      },
      "safeTransferFrom(address,address,uint256,uint256,bytes)": {
        "details": "Transfers `value` amount of an `id` from the `from` address to the `to` address specified. Caller must be approved to manage the tokens being transferred out of the `from` account. If `to` is a smart contract, will call `onERC1155Received` on `to` and act appropriately.",
        "params": {
          "data": "Data forwarded to `onERC1155Received` if `to` is a contract receiver",
          "from": "Source address",
          "id": "ID of the token type",
          "to": "Target address",
          "value": "Transfer amount"
        }
      },
      "setApprovalForAll(address,bool)": {
        "details": "Sets or unsets the approval of a given operator. An operator is allowed to transfer all tokens of the sender on their behalf. Because an account already has operator privileges for itself, this function will revert if the account attempts to set the approval status for itself.",
        "params": {
          "approved": "representing the status of the approval to be set",
          "operator": "address to set the approval"
        }
      },
      "supportsInterface(bytes4)": {
        "params": {
          "_interfaceID": "The interface identifier, as specified in ERC-165"
        },
        "returns": {
          "_0": "`true` if the contract implements `_interfaceID` and"
        }
      },
      "transferOwnership(address)": {
        "details": "Transfers ownership of the contract to a new account (`newOwner`). Can only be called by the current owner."
      },
      "uri(uint256)": {
        "params": {
          "id": "Token ID"
        },
        "returns": {
          "_0": "URI string"
        }
      }
    },
    "version": 1
  },
  "userdoc": {
    "kind": "user",
    "methods": {
      "isApprovedForAll(address,address)": {
        "notice": "Queries the approval status of an operator for a given account."
      },
      "supportsInterface(bytes4)": {
        "notice": "Query if a contract implements an interface"
      }
    },
    "version": 1
  }
}