{
  "contractName": "ERC1155",
  "abi": [
    {
      "anonymous": false,
      "inputs": [
        {
          "indexed": true,
          "internalType": "address",
          "name": "_owner",
          "type": "address"
        },
        {
          "indexed": true,
          "internalType": "address",
          "name": "_operator",
          "type": "address"
        },
        {
          "indexed": false,
          "internalType": "bool",
          "name": "_approved",
          "type": "bool"
        }
      ],
      "name": "ApprovalForAll",
      "type": "event"
    },
    {
      "anonymous": false,
      "inputs": [
        {
          "indexed": true,
          "internalType": "uint256",
          "name": "_callbackPropositionId",
          "type": "uint256"
        }
      ],
      "name": "CallbackAccepted",
      "type": "event"
    },
    {
      "anonymous": false,
      "inputs": [
        {
          "indexed": true,
          "internalType": "uint256",
          "name": "_callbackPropositionId",
          "type": "uint256"
        }
      ],
      "name": "CallbackApproved",
      "type": "event"
    },
    {
      "anonymous": false,
      "inputs": [
        {
          "indexed": true,
          "internalType": "uint256",
          "name": "_callbackPropositionId",
          "type": "uint256"
        }
      ],
      "name": "CallbackCompleted",
      "type": "event"
    },
    {
      "anonymous": false,
      "inputs": [
        {
          "indexed": true,
          "internalType": "uint256",
          "name": "_callbackPropositionId",
          "type": "uint256"
        }
      ],
      "name": "CallbackProposed",
      "type": "event"
    },
    {
      "anonymous": false,
      "inputs": [
        {
          "indexed": true,
          "internalType": "uint256",
          "name": "_callbackPropositionId",
          "type": "uint256"
        }
      ],
      "name": "CallbackRefused",
      "type": "event"
    },
    {
      "anonymous": false,
      "inputs": [
        {
          "indexed": true,
          "internalType": "uint256",
          "name": "_id",
          "type": "uint256"
        },
        {
          "indexed": true,
          "internalType": "uint256",
          "name": "_hash",
          "type": "uint256"
        }
      ],
      "name": "MetadataHashUpdated",
      "type": "event"
    },
    {
      "anonymous": false,
      "inputs": [
        {
          "indexed": true,
          "internalType": "address",
          "name": "previousOwner",
          "type": "address"
        },
        {
          "indexed": true,
          "internalType": "address",
          "name": "newOwner",
          "type": "address"
        }
      ],
      "name": "OwnershipTransferred",
      "type": "event"
    },
    {
      "anonymous": false,
      "inputs": [
        {
          "indexed": true,
          "internalType": "uint256",
          "name": "_id",
          "type": "uint256"
        },
        {
          "indexed": false,
          "internalType": "uint256",
          "name": "_documentHash",
          "type": "uint256"
        }
      ],
      "name": "TokenLocked",
      "type": "event"
    },
    {
      "anonymous": false,
      "inputs": [
        {
          "indexed": true,
          "internalType": "uint256",
          "name": "_id",
          "type": "uint256"
        },
        {
          "indexed": false,
          "internalType": "uint256",
          "name": "_documentHash",
          "type": "uint256"
        }
      ],
      "name": "TokenUnlocked",
      "type": "event"
    },
    {
      "anonymous": false,
      "inputs": [
        {
          "indexed": true,
          "internalType": "address",
          "name": "_operator",
          "type": "address"
        },
        {
          "indexed": true,
          "internalType": "address",
          "name": "_from",
          "type": "address"
        },
        {
          "indexed": true,
          "internalType": "address",
          "name": "_to",
          "type": "address"
        },
        {
          "indexed": false,
          "internalType": "uint256[]",
          "name": "_ids",
          "type": "uint256[]"
        },
        {
          "indexed": false,
          "internalType": "uint256[]",
          "name": "_values",
          "type": "uint256[]"
        }
      ],
      "name": "TransferBatch",
      "type": "event"
    },
    {
      "anonymous": false,
      "inputs": [
        {
          "indexed": true,
          "internalType": "address",
          "name": "_operator",
          "type": "address"
        },
        {
          "indexed": true,
          "internalType": "address",
          "name": "_from",
          "type": "address"
        },
        {
          "indexed": true,
          "internalType": "address",
          "name": "_to",
          "type": "address"
        },
        {
          "indexed": false,
          "internalType": "uint256",
          "name": "_id",
          "type": "uint256"
        },
        {
          "indexed": false,
          "internalType": "uint256",
          "name": "_value",
          "type": "uint256"
        }
      ],
      "name": "TransferSingle",
      "type": "event"
    },
    {
      "anonymous": false,
      "inputs": [
        {
          "indexed": false,
          "internalType": "string",
          "name": "_value",
          "type": "string"
        },
        {
          "indexed": true,
          "internalType": "uint256",
          "name": "_id",
          "type": "uint256"
        }
      ],
      "name": "URI",
      "type": "event"
    },
    {
      "anonymous": false,
      "inputs": [
        {
          "indexed": true,
          "internalType": "address",
          "name": "_maintener",
          "type": "address"
        },
        {
          "indexed": false,
          "internalType": "uint256",
          "name": "_id",
          "type": "uint256"
        },
        {
          "indexed": false,
          "internalType": "uint256[3]",
          "name": "_fees",
          "type": "uint256[3]"
        }
      ],
      "name": "UpdateTransactionFees",
      "type": "event"
    },
    {
      "inputs": [],
      "name": "BASE_URI",
      "outputs": [
        {
          "internalType": "string",
          "name": "",
          "type": "string"
        }
      ],
      "stateMutability": "view",
      "type": "function"
    },
    {
      "inputs": [
        {
          "internalType": "address",
          "name": "",
          "type": "address"
        }
      ],
      "name": "_ETHBalances",
      "outputs": [
        {
          "internalType": "uint256",
          "name": "",
          "type": "uint256"
        }
      ],
      "stateMutability": "view",
      "type": "function"
    },
    {
      "inputs": [
        {
          "internalType": "uint256",
          "name": "",
          "type": "uint256"
        },
        {
          "internalType": "uint256",
          "name": "",
          "type": "uint256"
        }
      ],
      "name": "_addressesByToken",
      "outputs": [
        {
          "internalType": "address",
          "name": "",
          "type": "address"
        }
      ],
      "stateMutability": "view",
      "type": "function"
    },
    {
      "inputs": [
        {
          "internalType": "uint256",
          "name": "",
          "type": "uint256"
        },
        {
          "internalType": "address",
          "name": "",
          "type": "address"
        }
      ],
      "name": "_approvedHolders",
      "outputs": [
        {
          "internalType": "bool",
          "name": "",
          "type": "bool"
        }
      ],
      "stateMutability": "view",
      "type": "function"
    },
    {
      "inputs": [
        {
          "internalType": "uint256",
          "name": "",
          "type": "uint256"
        },
        {
          "internalType": "address",
          "name": "",
          "type": "address"
        }
      ],
      "name": "_balances",
      "outputs": [
        {
          "internalType": "uint256",
          "name": "",
          "type": "uint256"
        }
      ],
      "stateMutability": "view",
      "type": "function"
    },
    {
      "inputs": [
        {
          "internalType": "uint256",
          "name": "",
          "type": "uint256"
        },
        {
          "internalType": "address",
          "name": "",
          "type": "address"
        }
      ],
      "name": "_birthdays",
      "outputs": [
        {
          "internalType": "uint256",
          "name": "",
          "type": "uint256"
        }
      ],
      "stateMutability": "view",
      "type": "function"
    },
    {
      "inputs": [
        {
          "internalType": "uint256",
          "name": "",
          "type": "uint256"
        }
      ],
      "name": "_callbackPropositions",
      "outputs": [
        {
          "internalType": "uint256",
          "name": "tokenId",
          "type": "uint256"
        },
        {
          "internalType": "address",
          "name": "caller",
          "type": "address"
        },
        {
          "internalType": "uint256",
          "name": "price",
          "type": "uint256"
        },
        {
          "internalType": "uint256",
          "name": "escrowedAmount",
          "type": "uint256"
        },
        {
          "internalType": "bool",
          "name": "needLegalApproval",
          "type": "bool"
        },
        {
          "internalType": "bool",
          "name": "approvedByLegal",
          "type": "bool"
        },
        {
          "internalType": "bool",
          "name": "refused",
          "type": "bool"
        },
        {
          "internalType": "bool",
          "name": "accepted",
          "type": "bool"
        },
        {
          "internalType": "uint256",
          "name": "callCounter",
          "type": "uint256"
        },
        {
          "internalType": "bool",
          "name": "completed",
          "type": "bool"
        },
        {
          "internalType": "uint256",
          "name": "documentHash",
          "type": "uint256"
        }
      ],
      "stateMutability": "view",
      "type": "function"
    },
    {
      "inputs": [
        {
          "internalType": "address",
          "name": "",
          "type": "address"
        },
        {
          "internalType": "uint256",
          "name": "",
          "type": "uint256"
        }
      ],
      "name": "_tokensByAddress",
      "outputs": [
        {
          "internalType": "uint256",
          "name": "",
          "type": "uint256"
        }
      ],
      "stateMutability": "view",
      "type": "function"
    },
    {
      "inputs": [
        {
          "internalType": "uint256",
          "name": "id",
          "type": "uint256"
        }
      ],
      "name": "metadataHash",
      "outputs": [
        {
          "internalType": "uint256",
          "name": "",
          "type": "uint256"
        }
      ],
      "stateMutability": "view",
      "type": "function"
    },
    {
      "inputs": [],
      "name": "owner",
      "outputs": [
        {
          "internalType": "address",
          "name": "",
          "type": "address"
        }
      ],
      "stateMutability": "view",
      "type": "function"
    },
    {
      "inputs": [
        {
          "internalType": "address",
          "name": "newOwner",
          "type": "address"
        }
      ],
      "name": "transferOwnership",
      "outputs": [],
      "stateMutability": "nonpayable",
      "type": "function"
    },
    {
      "inputs": [
        {
          "internalType": "uint256",
          "name": "id",
          "type": "uint256"
        }
      ],
      "name": "uri",
      "outputs": [
        {
          "internalType": "string",
          "name": "",
          "type": "string"
        }
      ],
      "stateMutability": "pure",
      "type": "function"
    },
    {
      "inputs": [
        {
          "internalType": "bytes4",
          "name": "_interfaceID",
          "type": "bytes4"
        }
      ],
      "name": "supportsInterface",
      "outputs": [
        {
          "internalType": "bool",
          "name": "",
          "type": "bool"
        }
      ],
      "stateMutability": "pure",
      "type": "function"
    },
    {
      "inputs": [
        {
          "internalType": "address",
          "name": "account",
          "type": "address"
        },
        {
          "internalType": "uint256",
          "name": "id",
          "type": "uint256"
        }
      ],
      "name": "balanceOf",
      "outputs": [
        {
          "internalType": "uint256",
          "name": "",
          "type": "uint256"
        }
      ],
      "stateMutability": "view",
      "type": "function"
    },
    {
      "inputs": [
        {
          "internalType": "address[]",
          "name": "accounts",
          "type": "address[]"
        },
        {
          "internalType": "uint256[]",
          "name": "ids",
          "type": "uint256[]"
        }
      ],
      "name": "balanceOfBatch",
      "outputs": [
        {
          "internalType": "uint256[]",
          "name": "",
          "type": "uint256[]"
        }
      ],
      "stateMutability": "view",
      "type": "function"
    },
    {
      "inputs": [
        {
          "internalType": "address",
          "name": "operator",
          "type": "address"
        },
        {
          "internalType": "bool",
          "name": "approved",
          "type": "bool"
        }
      ],
      "name": "setApprovalForAll",
      "outputs": [],
      "stateMutability": "nonpayable",
      "type": "function"
    },
    {
      "inputs": [
        {
          "internalType": "address",
          "name": "account",
          "type": "address"
        },
        {
          "internalType": "address",
          "name": "operator",
          "type": "address"
        }
      ],
      "name": "isApprovedForAll",
      "outputs": [
        {
          "internalType": "bool",
          "name": "",
          "type": "bool"
        }
      ],
      "stateMutability": "view",
      "type": "function"
    },
    {
      "inputs": [
        {
          "internalType": "address",
          "name": "from",
          "type": "address"
        },
        {
          "internalType": "address",
          "name": "to",
          "type": "address"
        },
        {
          "internalType": "uint256",
          "name": "id",
          "type": "uint256"
        },
        {
          "internalType": "uint256",
          "name": "value",
          "type": "uint256"
        },
        {
          "internalType": "bytes",
          "name": "data",
          "type": "bytes"
        }
      ],
      "name": "safeTransferFrom",
      "outputs": [],
      "stateMutability": "payable",
      "type": "function"
    },
    {
      "inputs": [
        {
          "internalType": "address",
          "name": "from",
          "type": "address"
        },
        {
          "internalType": "address",
          "name": "to",
          "type": "address"
        },
        {
          "internalType": "uint256[]",
          "name": "ids",
          "type": "uint256[]"
        },
        {
          "internalType": "uint256[]",
          "name": "values",
          "type": "uint256[]"
        },
        {
          "internalType": "bytes",
          "name": "data",
          "type": "bytes"
        }
      ],
      "name": "safeBatchTransferFrom",
      "outputs": [],
      "stateMutability": "payable",
      "type": "function"
    }
  ],
  "bytecode": "0x60806040526001601155603260195534801561001a57600080fd5b5061002433610029565b6100e4565b6001600160a01b038116610089576040517f08c379a0000000000000000000000000000000000000000000000000000000008152600401808060200182810382526026815260200180620026f56026913960400191505060405180910390fd5b600080546040516001600160a01b03808516939216917f8be0079c531659141344cd1fd0a4f28419497f9722a3daafe3b4186f6b6457e091a3600080546001600160a01b0319166001600160a01b0392909216919091179055565b61260180620000f46000396000f3fe6080604052600436106101135760003560e01c806397869e27116100a0578063e985e9c511610064578063e985e9c514610701578063ea2bd64d1461073c578063f242432a14610775578063f2fde38b14610808578063fc25a4da1461083b57610113565b806397869e27146105b75780639e1c9d1914610645578063a22cb4651461067e578063d7b80ebc146106b9578063dbddb26a146106ec57610113565b8063219cc8bc116100e7578063219cc8bc146102965780632eb2c2d6146102c05780634e1273f4146103e95780636eb987c7146105695780638da5cb5b146105a257610113565b8062fdd58e1461011857806301ffc9a7146101635780630e89341c146101ab578063119c07371461024a575b600080fd5b34801561012457600080fd5b506101516004803603604081101561013b57600080fd5b506001600160a01b038135169060200135610874565b60408051918252519081900360200190f35b34801561016f57600080fd5b506101976004803603602081101561018657600080fd5b50356001600160e01b0319166108e6565b604080519115158252519081900360200190f35b3480156101b757600080fd5b506101d5600480360360208110156101ce57600080fd5b503561092d565b6040805160208082528351818301528351919283929083019185019080838360005b8381101561020f5781810151838201526020016101f7565b50505050905090810190601f16801561023c5780820380516001836020036101000a031916815260200191505b509250505060405180910390f35b34801561025657600080fd5b5061027a6004803603604081101561026d57600080fd5b5080359060200135610976565b604080516001600160a01b039092168252519081900360200190f35b3480156102a257600080fd5b50610151600480360360208110156102b957600080fd5b50356109ab565b6103e7600480360360a08110156102d657600080fd5b6001600160a01b038235811692602081013590911691810190606081016040820135600160201b81111561030957600080fd5b82018360208201111561031b57600080fd5b803590602001918460208302840111600160201b8311171561033c57600080fd5b919390929091602081019035600160201b81111561035957600080fd5b82018360208201111561036b57600080fd5b803590602001918460208302840111600160201b8311171561038c57600080fd5b919390929091602081019035600160201b8111156103a957600080fd5b8201836020820111156103bb57600080fd5b803590602001918460018302840111600160201b831117156103dc57600080fd5b5090925090506109bd565b005b3480156103f557600080fd5b506105196004803603604081101561040c57600080fd5b810190602081018135600160201b81111561042657600080fd5b82018360208201111561043857600080fd5b803590602001918460208302840111600160201b8311171561045957600080fd5b9190808060200260200160405190810160405280939291908181526020018383602002808284376000920191909152509295949360208101935035915050600160201b8111156104a857600080fd5b8201836020820111156104ba57600080fd5b803590602001918460208302840111600160201b831117156104db57600080fd5b919080806020026020016040519081016040528093929190818152602001838360200280828437600092019190915250929550610d3d945050505050565b60408051602080825283518183015283519192839290830191858101910280838360005b8381101561055557818101518382015260200161053d565b505050509050019250505060405180910390f35b34801561057557600080fd5b506101516004803603604081101561058c57600080fd5b506001600160a01b038135169060200135610ebb565b3480156105ae57600080fd5b5061027a610ee9565b3480156105c357600080fd5b506105e1600480360360208110156105da57600080fd5b5035610ef8565b604080519b8c526001600160a01b03909a1660208c01528a8a019890985260608a0196909652931515608089015291151560a0880152151560c0870152151560e0860152610100850152151561012084015261014083015251908190036101600190f35b34801561065157600080fd5b506101976004803603604081101561066857600080fd5b50803590602001356001600160a01b0316610f69565b34801561068a57600080fd5b506103e7600480360360408110156106a157600080fd5b506001600160a01b0381351690602001351515610f89565b3480156106c557600080fd5b50610151600480360360208110156106dc57600080fd5b50356001600160a01b031661103f565b3480156106f857600080fd5b506101d5611051565b34801561070d57600080fd5b506101976004803603604081101561072457600080fd5b506001600160a01b038135811691602001351661108a565b34801561074857600080fd5b506101516004803603604081101561075f57600080fd5b50803590602001356001600160a01b03166110cd565b6103e7600480360360a081101561078b57600080fd5b6001600160a01b03823581169260208101359091169160408201359160608101359181019060a081016080820135600160201b8111156107ca57600080fd5b8201836020820111156107dc57600080fd5b803590602001918460018302840111600160201b831117156107fd57600080fd5b5090925090506110ea565b34801561081457600080fd5b506103e76004803603602081101561082b57600080fd5b50356001600160a01b031661133e565b34801561084757600080fd5b506101516004803603604081101561085e57600080fd5b50803590602001356001600160a01b03166113a3565b60006001600160a01b0383166108bb5760405162461bcd60e51b815260040180806020018281038252602b815260200180612381602b913960400191505060405180910390fd5b5060008181526002602090815260408083206001600160a01b03861684529091529020545b92915050565b60006001600160e01b031982166301ffc9a760e01b148061091757506001600160e01b03198216636cdb3d1360e11b145b1561092457506001610928565b5060005b919050565b60606108e06040518060400160405280601d81526020017f68747470733a2f2f7374617368626c6f782e636f6d2f746f6b656e732f000000815250610971846113c0565b61147c565b600d602052816000526040600020818154811061098f57fe5b6000918252602090912001546001600160a01b03169150829050565b60009081526001602052604090205490565b8483146109fb5760405162461bcd60e51b815260040180806020018281038252602e815260200180612542602e913960400191505060405180910390fd5b6001600160a01b038716610a405760405162461bcd60e51b81526004018080602001828103825260288152602001806123d26028913960400191505060405180910390fd5b6001600160a01b038816331480610a625750610a5c883361108a565b15156001145b610a9d5760405162461bcd60e51b815260040180806020018281038252603781526020018061250b6037913960400191505060405180910390fd5b6000803411610ac4576001600160a01b0389166000908152600b6020526040902054610ac6565b345b905060005b86811015610b1057610b048a8a8a8a85818110610ae457fe5b90506020020135898986818110610af757fe5b9050602002013586611586565b90910390600101610acb565b50876001600160a01b0316896001600160a01b0316336001600160a01b03167f4a39dc06d4c0dbc64b70af90fd698a233a518aa5d07e595d983b8c0526c8f7fb8a8a8a8a6040518080602001806020018381038352878782818152602001925060200280828437600083820152601f01601f19169091018481038352858152602090810191508690860280828437600083820152604051601f909101601f19169092018290039850909650505050505050a4610c66338a8a8a8a8080602002602001604051908101604052809392919081815260200183836020028082843760009201919091525050604080516020808e0282810182019093528d82529093508d92508c91829185019084908082843760009201919091525050604080516020601f8d018190048102820181019092528b815292508b91508a908190840183828082843760009201919091525061174f92505050565b600034118015610c765750600081115b15610d1157604051600090339083908381818185875af1925050503d8060008114610cbd576040519150601f19603f3d011682016040523d82523d6000602084013e610cc2565b606091505b5050905080610d0b576040805162461bcd60e51b815260206004820152601060248201526f2a3930b739b332b9103330b4b632b21760811b604482015290519081900360640190fd5b50610d32565b34610d32576001600160a01b0389166000908152600b602052604090208190555b505050505050505050565b60608151835114610d7f5760405162461bcd60e51b81526004018080602001828103825260308152602001806124266030913960400191505060405180910390fd5b6060835167ffffffffffffffff81118015610d9957600080fd5b50604051908082528060200260200182016040528015610dc3578160200160208202803683370190505b50905060005b8451811015610eb35760006001600160a01b0316858281518110610de957fe5b60200260200101516001600160a01b03161415610e375760405162461bcd60e51b815260040180806020018281038252603481526020018061248c6034913960400191505060405180910390fd5b60026000858381518110610e4757fe5b602002602001015181526020019081526020016000206000868381518110610e6b57fe5b60200260200101516001600160a01b03166001600160a01b0316815260200190815260200160002054828281518110610ea057fe5b6020908102919091010152600101610dc9565b509392505050565b600c6020528160005260406000208181548110610ed457fe5b90600052602060002001600091509150505481565b6000546001600160a01b031690565b6012602052600090815260409020805460018201546003830154600484015460058501546006860154600787015460089097015495966001600160a01b03909516959394929360ff80841694610100850482169462010000810483169463010000009091048316939092909116908b565b601b60209081526000928352604080842090915290825290205460ff1681565b336001600160a01b0383161415610fd15760405162461bcd60e51b815260040180806020018281038252602c8152602001806123fa602c913960400191505060405180910390fd5b336000818152601c602090815260408083206001600160a01b03871680855290835292819020805460ff1916861515908117909155815190815290519293927f17307eab39ab6107e8899845ad3d59bd9653f200f220920489ca2b5937696c31929181900390910190a35050565b600b6020526000908152604090205481565b6040518060400160405280601d81526020017f68747470733a2f2f7374617368626c6f782e636f6d2f746f6b656e732f00000081525081565b60006110968383611948565b806110c657506001600160a01b038084166000908152601c602090815260408083209386168352929052205460ff165b9392505050565b600560209081526000928352604080842090915290825290205481565b6001600160a01b03851661112f5760405162461bcd60e51b81526004018080602001828103825260288152602001806123d26028913960400191505060405180910390fd5b6001600160a01b038616331480611151575061114b863361108a565b15156001145b61118c5760405162461bcd60e51b815260040180806020018281038252603781526020018061250b6037913960400191505060405180910390fd5b60008034116111b3576001600160a01b0387166000908152600b60205260409020546111b5565b345b90506111c48787878785611586565b81039050856001600160a01b0316876001600160a01b0316336001600160a01b03167fc3d58168c5ae7397731d063d5bbf3d657854427343f4c083240f7aacaa2d0f628888604051808381526020018281526020019250505060405180910390a4611269338888888888888080601f016020809104026020016040519081016040528093929190818152602001838380828437600092019190915250611a1892505050565b6000341180156112795750600081115b1561131457604051600090339083908381818185875af1925050503d80600081146112c0576040519150601f19603f3d011682016040523d82523d6000602084013e6112c5565b606091505b505090508061130e576040805162461bcd60e51b815260206004820152601060248201526f2a3930b739b332b9103330b4b632b21760811b604482015290519081900360640190fd5b50611335565b34611335576001600160a01b0387166000908152600b602052604090208190555b50505050505050565b611346611b8d565b611397576040805162461bcd60e51b815260206004820181905260248201527f4f776e61626c653a2063616c6c6572206973206e6f7420746865206f776e6572604482015290519081900360640190fd5b6113a081611b9e565b50565b600260209081526000928352604080842090915290825290205481565b60606000825b80156113dc5760019190910190601090046113c6565b60608267ffffffffffffffff811180156113f557600080fd5b506040519080825280601f01601f191660200182016040528015611420576020820181803683370190505b50905060005b838110156114735760108606925061143d83611c3e565b826001838703038151811061144e57fe5b60200101906001600160f81b031916908160001a905350601086049550600101611426565b50949350505050565b805182516060918491849184910167ffffffffffffffff811180156114a057600080fd5b506040519080825280601f01601f1916602001820160405280156114cb576020820181803683370190505b509050806000805b8551811015611524578581815181106114e857fe5b602001015160f81c60f81b83838060010194508151811061150557fe5b60200101906001600160f81b031916908160001a9053506001016114d3565b5060005b84518110156115795784818151811061153d57fe5b602001015160f81c60f81b83838060010194508151811061155a57fe5b60200101906001600160f81b031916908160001a905350600101611528565b5090979650505050505050565b600061159486868686611c82565b156115cf576040805162461bcd60e51b8152602060048201526006602482015265131bd8dad95960d21b604482015290519081900360640190fd5b6115da868585611cbd565b90508082101561161b5760405162461bcd60e51b815260040180806020018281038252602b8152602001806125a1602b913960400191505060405180910390fd5b611662836040518060600160405280602a81526020016124c0602a913960008781526002602090815260408083206001600160a01b038d1684529091529020549190611e81565b60008581526002602090815260408083206001600160a01b038b168452909152902055611690858585611f18565b60005b6000858152600960205260409020548110156117455760008581526009602052604081208054839081106116c357fe5b6000918252602080832090910154888352600a9091526040822080546001600160a01b03909216935090849081106116f757fe5b600091825260209091200154905061171b6127106117158684612175565b906121ce565b6001600160a01b039092166000908152600b60205260409020805490920190915550600101611693565b5095945050505050565b611761846001600160a01b0316612210565b156119405763bc197c8160e01b6001600160e01b031916846001600160a01b031663bc197c8188888787876040518663ffffffff1660e01b815260040180866001600160a01b03168152602001856001600160a01b03168152602001806020018060200180602001848103845287818151815260200191508051906020019060200280838360005b838110156118015781810151838201526020016117e9565b50505050905001848103835286818151815260200191508051906020019060200280838360005b83811015611840578181015183820152602001611828565b50505050905001848103825285818151815260200191508051906020019080838360005b8381101561187c578181015183820152602001611864565b50505050905090810190601f1680156118a95780820380516001836020036101000a031916815260200191505b5098505050505050505050602060405180830381600087803b1580156118ce57600080fd5b505af11580156118e2573d6000803e3d6000fd5b505050506040513d60208110156118f857600080fd5b50516001600160e01b031916146119405760405162461bcd60e51b81526004018080602001828103825260368152602001806124566036913960400191505060405180910390fd5b505050505050565b6000805b601754811015611a0e5760006017828154811061196557fe5b600091825260209182902001546040805163c455279160e01b81526001600160a01b0389811660048301529151928216945090871692849263c4552791926024808201939291829003018186803b1580156119bf57600080fd5b505afa1580156119d3573d6000803e3d6000fd5b505050506040513d60208110156119e957600080fd5b50516001600160a01b03161415611a05576001925050506108e0565b5060010161194c565b5060009392505050565b611a2a846001600160a01b0316612210565b156119405763f23a6e6160e01b6001600160e01b031916846001600160a01b031663f23a6e6188888787876040518663ffffffff1660e01b815260040180866001600160a01b03168152602001856001600160a01b0316815260200184815260200183815260200180602001828103825283818151815260200191508051906020019080838360005b83811015611acb578181015183820152602001611ab3565b50505050905090810190601f168015611af85780820380516001836020036101000a031916815260200191505b509650505050505050602060405180830381600087803b158015611b1b57600080fd5b505af1158015611b2f573d6000803e3d6000fd5b505050506040513d6020811015611b4557600080fd5b50516001600160e01b031916146119405760405162461bcd60e51b81526004018080602001828103825260318152602001806125706031913960400191505060405180910390fd5b6000546001600160a01b0316331490565b6001600160a01b038116611be35760405162461bcd60e51b81526004018080602001828103825260268152602001806123ac6026913960400191505060405180910390fd5b600080546040516001600160a01b03808516939216917f8be0079c531659141344cd1fd0a4f28419497f9722a3daafe3b4186f6b6457e091a3600080546001600160a01b0319166001600160a01b0392909216919091179055565b600060098260ff1611611c5857506030810160f81b610928565b8160ff16600a11158015611c705750600f8260ff1611155b1561011357506057810160f81b610928565b6000611c8d8361224c565b80611c9c5750611c9c85612261565b80611cab5750611cab84612261565b80611cb4575081155b95945050505050565b60008281526006602052604081205481904290600019015b6000868152600660205260408120805483908110611cef57fe5b600091825260208220600290910201015460008881526006602052604081208054929350909184908110611d1f57fe5b9060005260206000209060020201600160028110611d3957fe5b015460008981526005602090815260408083206001600160a01b038e168452909152812054919250908311611dca5760008981526005602090815260408083206001600160a01b038e168452909152902054611d9f90620151809061171590889061227f565b905080611daa575060015b611dbe88611db88385612175565b90612175565b86019550505050611e09565b611ddb62015180611715878661227f565b905080611de6575060015b9193508391611df988611db88385612175565b9095019450505060001901611cd5565b50600085815260046020526040902054611e27908390600a0a6121ce565b60008681526008602052604081205491935090611e4f906305f5e10090611715908890612175565b600087815260076020526040902054909150611e7690611e6f90836122c1565b84906122c1565b979650505050505050565b60008184841115611f105760405162461bcd60e51b81526004018080602001828103825283818151815260200191508051906020019080838360005b83811015611ed5578181015183820152602001611ebd565b50505050905090810190601f168015611f025780820380516001836020036101000a031916815260200191505b509250505060405180910390fd5b505050900390565b6000828152601a602052604090205460ff161580611f5857506000828152601b602090815260408083206001600160a01b038716845290915290205460ff165b611fa9576040805162461bcd60e51b815260206004820152601f60248201527f5374617368426c6f783a2061646472657373206e6f7420617070726f76656400604482015290519081900360640190fd5b60008281526002602090815260408083206001600160a01b0387168452909152812054611fd690836122c1565b60008481526002602090815260408083206001600160a01b03891684529091529020549091506120b8576000838152600e602090815260408083206001600160a01b038816845290915290205460ff1661208e576001600160a01b0384166000818152600c6020908152604080832080546001818101835591855283852001889055878452600d83528184208054918201815584528284200180546001600160a01b03191685179055868352600e8252822092909152525b60008381526005602090815260408083206001600160a01b03881684529091529020429055612149565b60008381526005602090815260408083206001600160a01b03881684529091528120546120e690429061227f565b60008581526002602090815260408083206001600160a01b038a1684529091528120549192509061211d9084906117159085612175565b60008681526005602090815260408083206001600160a01b038b16845290915290204291909103905550505b60009283526002602090815260408085206001600160a01b039096168552949052929091209190915550565b600082612184575060006108e0565b8282028284828161219157fe5b04146110c65760405162461bcd60e51b81526004018080602001828103825260218152602001806124ea6021913960400191505060405180910390fd5b60006110c683836040518060400160405280601a81526020017f536166654d6174683a206469766973696f6e206279207a65726f00000000000081525061231b565b6000813f7fc5d2460186f7233c927e7db2dcc703c0e500b653ca82273b7bfad8045d85a47081158015906122445750808214155b949350505050565b6000908152600f602052604090205460ff1690565b6001600160a01b031660009081526010602052604090205460ff1690565b60006110c683836040518060400160405280601e81526020017f536166654d6174683a207375627472616374696f6e206f766572666c6f770000815250611e81565b6000828201838110156110c6576040805162461bcd60e51b815260206004820152601b60248201527f536166654d6174683a206164646974696f6e206f766572666c6f770000000000604482015290519081900360640190fd5b6000818361236a5760405162461bcd60e51b8152602060048201818152835160248401528351909283926044909101919085019080838360008315611ed5578181015183820152602001611ebd565b50600083858161237657fe5b049594505050505056fe455243313135353a2062616c616e636520717565727920666f7220746865207a65726f20616464726573734f776e61626c653a206e6577206f776e657220697320746865207a65726f2061646472657373455243313135353a207461726765742061646472657373206d757374206265206e6f6e2d7a65726f455243313135353a2063616e6e6f742073657420617070726f76616c2073746174757320666f722073656c66455243313135353a206163636f756e747320616e6420494473206d75737420686176652073616d65206c656e67746873455243313135353a20676f7420756e6b6e6f776e2076616c75652066726f6d206f6e4552433131353542617463685265636569766564455243313135353a20736f6d65206164647265737320696e2062617463682062616c616e6365207175657279206973207a65726f455243313135353a20696e73756666696369656e742062616c616e636520666f72207472616e73666572536166654d6174683a206d756c7469706c69636174696f6e206f766572666c6f77455243313135353a206e656564206f70657261746f7220617070726f76616c20666f7220337264207061727479207472616e7366657273455243313135353a2049447320616e642076616c756573206d75737420686176652073616d65206c656e67746873455243313135353a20676f7420756e6b6e6f776e2076616c75652066726f6d206f6e455243313135355265636569766564455243313135353a20696e73756666696369656e742045544820666f72207472616e736665722066656573a26469706673582212202eb1e74beca455672dda0f6d478b7c6ad6a71addd859b4f795a4e95bfa58c45664736f6c634300070100334f776e61626c653a206e6577206f776e657220697320746865207a65726f2061646472657373",
  "immutableReferences": {},
  "source": "// SPDX-License-Identifier: MIT\n\npragma solidity ^0.7.1;\n\nimport \"./IERC1155.sol\";\nimport \"./IERC1155Receiver.sol\";\nimport \"../ERC165/IERC165.sol\";\nimport \"../utils/SafeMath.sol\";\nimport \"../utils/Address.sol\";\n\nimport '../../StashBloxBase.sol';\n\n/**\n * @title Standard ERC1155 token\n *\n * @dev Implementation of the basic standard multi-token.\n * See https://eips.ethereum.org/EIPS/eip-1155\n * Originally based on code by Enjin: https://github.com/enjin/erc-1155\n */\ncontract ERC1155 is IERC165, IERC1155, StashBloxBase {\n\n    bytes4 constant private INTERFACE_SIGNATURE_ERC165 = 0x01ffc9a7;\n    bytes4 constant private INTERFACE_SIGNATURE_ERC1155 = 0xd9b67a26;\n\n    using SafeMath for uint256;\n    using Address for address;\n\n    // Mapping from token ID to account balances\n    // mapping (uint256 => mapping(address => uint256)) _balances;\n\n    // Mapping from account to operator approvals\n    mapping (address => mapping(address => bool)) private _operatorApprovals;\n\n    /**\n     * @notice Query if a contract implements an interface\n     * @param _interfaceID  The interface identifier, as specified in ERC-165\n     * @return `true` if the contract implements `_interfaceID` and\n     */\n    function supportsInterface(bytes4 _interfaceID) external pure override returns (bool) {\n      if (_interfaceID == INTERFACE_SIGNATURE_ERC165 ||\n          _interfaceID == INTERFACE_SIGNATURE_ERC1155) {\n        return true;\n      }\n      return false;\n    }\n\n    /**\n        @dev Get the specified address' balance for token with specified ID.\n\n        Attempting to query the zero account for a balance will result in a revert.\n\n        @param account The address of the token holder\n        @param id ID of the token\n        @return The account's balance of the token type requested\n     */\n    function balanceOf(address account, uint256 id) public view override returns (uint256) {\n        require(account != address(0), \"ERC1155: balance query for the zero address\");\n        return _balances[id][account];\n    }\n\n    /**\n        @dev Get the balance of multiple account/token pairs.\n\n        If any of the query accounts is the zero account, this query will revert.\n\n        @param accounts The addresses of the token holders\n        @param ids IDs of the tokens\n        @return Balances for each account and token id pair\n     */\n    function balanceOfBatch(\n        address[] memory accounts,\n        uint256[] memory ids\n    )\n        public\n        view\n        override returns (uint256[] memory)\n    {\n        require(accounts.length == ids.length, \"ERC1155: accounts and IDs must have same lengths\");\n\n        uint256[] memory batchBalances = new uint256[](accounts.length);\n\n        for (uint256 i = 0; i < accounts.length; ++i) {\n            require(accounts[i] != address(0), \"ERC1155: some address in batch balance query is zero\");\n            batchBalances[i] = _balances[ids[i]][accounts[i]];\n        }\n\n        return batchBalances;\n    }\n\n    /**\n     * @dev Sets or unsets the approval of a given operator.\n     *\n     * An operator is allowed to transfer all tokens of the sender on their behalf.\n     *\n     * Because an account already has operator privileges for itself, this function will revert\n     * if the account attempts to set the approval status for itself.\n     *\n     * @param operator address to set the approval\n     * @param approved representing the status of the approval to be set\n     */\n    function setApprovalForAll(address operator, bool approved) external override {\n        require(msg.sender != operator, \"ERC1155: cannot set approval status for self\");\n        _operatorApprovals[msg.sender][operator] = approved;\n        emit ApprovalForAll(msg.sender, operator, approved);\n    }\n\n    /**\n        @notice Queries the approval status of an operator for a given account.\n        @param account   The account of the Tokens\n        @param operator  Address of authorized operator\n        @return           True if the operator is approved, false if not\n    */\n    function isApprovedForAll(address account, address operator) public view override returns (bool) {\n        return _isWhitelistedOperator(account, operator) || _operatorApprovals[account][operator];\n    }\n\n    /**\n        @dev Transfers `value` amount of an `id` from the `from` address to the `to` address specified.\n        Caller must be approved to manage the tokens being transferred out of the `from` account.\n        If `to` is a smart contract, will call `onERC1155Received` on `to` and act appropriately.\n        @param from Source address\n        @param to Target address\n        @param id ID of the token type\n        @param value Transfer amount\n        @param data Data forwarded to `onERC1155Received` if `to` is a contract receiver\n    */\n    function safeTransferFrom(\n        address from,\n        address to,\n        uint256 id,\n        uint256 value,\n        bytes calldata data\n    )\n        external payable override\n    {\n        require(to != address(0), \"ERC1155: target address must be non-zero\");\n        require(\n            from == msg.sender || isApprovedForAll(from, msg.sender) == true,\n            \"ERC1155: need operator approval for 3rd party transfers\"\n        );\n\n        uint256 feesBalance = msg.value > 0 ? msg.value : _ETHBalances[from];\n        feesBalance = feesBalance - _moveTokens(from, to, id, value, feesBalance);\n\n        emit TransferSingle(msg.sender, from, to, id, value);\n\n        _doSafeTransferAcceptanceCheck(msg.sender, from, to, id, value, data);\n\n        if (msg.value > 0 && feesBalance > 0) {\n            (bool success, ) = msg.sender.call{value: feesBalance}(\"\");\n            require(success, \"Transfer failed.\");\n        } else if (msg.value == 0) {\n            _ETHBalances[from] = feesBalance;\n        }\n    }\n\n    /**\n        @dev Transfers `values` amount(s) of `ids` from the `from` address to the\n        `to` address specified. Caller must be approved to manage the tokens being\n        transferred out of the `from` account. If `to` is a smart contract, will\n        call `onERC1155BatchReceived` on `to` and act appropriately.\n        @param from Source address\n        @param to Target address\n        @param ids IDs of each token type\n        @param values Transfer amounts per token type\n        @param data Data forwarded to `onERC1155Received` if `to` is a contract receiver\n    */\n    function safeBatchTransferFrom(\n        address from,\n        address to,\n        uint256[] calldata ids,\n        uint256[] calldata values,\n        bytes calldata data\n    )\n        external payable override\n    {\n        require(ids.length == values.length, \"ERC1155: IDs and values must have same lengths\");\n        require(to != address(0), \"ERC1155: target address must be non-zero\");\n        require(\n            from == msg.sender || isApprovedForAll(from, msg.sender) == true,\n            \"ERC1155: need operator approval for 3rd party transfers\"\n        );\n\n        uint256 feesBalance = msg.value > 0 ? msg.value : _ETHBalances[from];\n        for (uint256 i = 0; i < ids.length; ++i) {\n            feesBalance = feesBalance - _moveTokens(from, to, ids[i], values[i], feesBalance);\n        }\n\n        emit TransferBatch(msg.sender, from, to, ids, values);\n\n        _doSafeBatchTransferAcceptanceCheck(msg.sender, from, to, ids, values, data);\n\n        if (msg.value > 0 && feesBalance > 0) {\n            (bool success, ) = msg.sender.call{value: feesBalance}(\"\");\n            require(success, \"Transfer failed.\");\n        } else if (msg.value == 0) {\n            _ETHBalances[from] = feesBalance;\n        }\n    }\n\n    function _doSafeTransferAcceptanceCheck(\n        address operator,\n        address from,\n        address to,\n        uint256 id,\n        uint256 value,\n        bytes memory data\n    )\n        internal\n    {\n        if(to.isContract()) {\n            require(\n                IERC1155Receiver(to).onERC1155Received(operator, from, id, value, data) ==\n                    IERC1155Receiver(to).onERC1155Received.selector,\n                \"ERC1155: got unknown value from onERC1155Received\"\n            );\n        }\n    }\n\n    function _doSafeBatchTransferAcceptanceCheck(\n        address operator,\n        address from,\n        address to,\n        uint256[] memory ids,\n        uint256[] memory values,\n        bytes memory data\n    )\n        internal\n    {\n        if(to.isContract()) {\n            require(\n                IERC1155Receiver(to).onERC1155BatchReceived(operator, from, ids, values, data) ==\n                    IERC1155Receiver(to).onERC1155BatchReceived.selector,\n                \"ERC1155: got unknown value from onERC1155BatchReceived\"\n            );\n        }\n    }\n}\n",
  "sourcePath": "/home/ouziel/Work/StashBloxContracts/contracts/lib/ERC1155/ERC1155.sol",
  "compiler": {
    "name": "solc",
    "version": "0.7.1+commit.f4a555be.Emscripten.clang"
  },
  "schemaVersion": "3.2.3",
  "updatedAt": "2020-10-15T20:04:15.676Z",
  "devdoc": {
    "details": "Implementation of the basic standard multi-token. See https://eips.ethereum.org/EIPS/eip-1155 Originally based on code by Enjin: https://github.com/enjin/erc-1155",
    "kind": "dev",
    "methods": {
      "balanceOf(address,uint256)": {
        "details": "Get the specified address' balance for token with specified ID. Attempting to query the zero account for a balance will result in a revert.",
        "params": {
          "account": "The address of the token holder",
          "id": "ID of the token"
        },
        "returns": {
          "_0": "The account's balance of the token type requested"
        }
      },
      "balanceOfBatch(address[],uint256[])": {
        "details": "Get the balance of multiple account/token pairs. If any of the query accounts is the zero account, this query will revert.",
        "params": {
          "accounts": "The addresses of the token holders",
          "ids": "IDs of the tokens"
        },
        "returns": {
          "_0": "Balances for each account and token id pair"
        }
      },
      "isApprovedForAll(address,address)": {
        "params": {
          "account": "The account of the Tokens",
          "operator": "Address of authorized operator"
        },
        "returns": {
          "_0": "True if the operator is approved, false if not"
        }
      },
      "owner()": {
        "details": "Returns the address of the current owner."
      },
      "safeBatchTransferFrom(address,address,uint256[],uint256[],bytes)": {
        "details": "Transfers `values` amount(s) of `ids` from the `from` address to the `to` address specified. Caller must be approved to manage the tokens being transferred out of the `from` account. If `to` is a smart contract, will call `onERC1155BatchReceived` on `to` and act appropriately.",
        "params": {
          "data": "Data forwarded to `onERC1155Received` if `to` is a contract receiver",
          "from": "Source address",
          "ids": "IDs of each token type",
          "to": "Target address",
          "values": "Transfer amounts per token type"
        }
      },
      "safeTransferFrom(address,address,uint256,uint256,bytes)": {
        "details": "Transfers `value` amount of an `id` from the `from` address to the `to` address specified. Caller must be approved to manage the tokens being transferred out of the `from` account. If `to` is a smart contract, will call `onERC1155Received` on `to` and act appropriately.",
        "params": {
          "data": "Data forwarded to `onERC1155Received` if `to` is a contract receiver",
          "from": "Source address",
          "id": "ID of the token type",
          "to": "Target address",
          "value": "Transfer amount"
        }
      },
      "setApprovalForAll(address,bool)": {
        "details": "Sets or unsets the approval of a given operator. An operator is allowed to transfer all tokens of the sender on their behalf. Because an account already has operator privileges for itself, this function will revert if the account attempts to set the approval status for itself.",
        "params": {
          "approved": "representing the status of the approval to be set",
          "operator": "address to set the approval"
        }
      },
      "supportsInterface(bytes4)": {
        "params": {
          "_interfaceID": "The interface identifier, as specified in ERC-165"
        },
        "returns": {
          "_0": "`true` if the contract implements `_interfaceID` and"
        }
      },
      "transferOwnership(address)": {
        "details": "Transfers ownership of the contract to a new account (`newOwner`). Can only be called by the current owner."
      },
      "uri(uint256)": {
        "params": {
          "id": "Token ID"
        },
        "returns": {
          "_0": "URI string"
        }
      }
    },
    "title": "Standard ERC1155 token",
    "version": 1
  },
  "userdoc": {
    "kind": "user",
    "methods": {
      "isApprovedForAll(address,address)": {
        "notice": "Queries the approval status of an operator for a given account."
      },
      "supportsInterface(bytes4)": {
        "notice": "Query if a contract implements an interface"
      }
    },
    "version": 1
  }
}