{
  "contractName": "ERC1155Mintable",
  "abi": [
    {
      "anonymous": false,
      "inputs": [
        {
          "indexed": true,
          "internalType": "address",
          "name": "_owner",
          "type": "address"
        },
        {
          "indexed": true,
          "internalType": "address",
          "name": "_operator",
          "type": "address"
        },
        {
          "indexed": false,
          "internalType": "bool",
          "name": "_approved",
          "type": "bool"
        }
      ],
      "name": "ApprovalForAll",
      "type": "event"
    },
    {
      "anonymous": false,
      "inputs": [
        {
          "indexed": true,
          "internalType": "uint256",
          "name": "_id",
          "type": "uint256"
        },
        {
          "indexed": true,
          "internalType": "uint256",
          "name": "_hash",
          "type": "uint256"
        }
      ],
      "name": "MetadataHashUpdated",
      "type": "event"
    },
    {
      "anonymous": false,
      "inputs": [
        {
          "indexed": true,
          "internalType": "address",
          "name": "previousOwner",
          "type": "address"
        },
        {
          "indexed": true,
          "internalType": "address",
          "name": "newOwner",
          "type": "address"
        }
      ],
      "name": "OwnershipTransferred",
      "type": "event"
    },
    {
      "anonymous": false,
      "inputs": [
        {
          "indexed": true,
          "internalType": "address",
          "name": "_operator",
          "type": "address"
        },
        {
          "indexed": true,
          "internalType": "address",
          "name": "_from",
          "type": "address"
        },
        {
          "indexed": true,
          "internalType": "address",
          "name": "_to",
          "type": "address"
        },
        {
          "indexed": false,
          "internalType": "uint256[]",
          "name": "_ids",
          "type": "uint256[]"
        },
        {
          "indexed": false,
          "internalType": "uint256[]",
          "name": "_values",
          "type": "uint256[]"
        }
      ],
      "name": "TransferBatch",
      "type": "event"
    },
    {
      "anonymous": false,
      "inputs": [
        {
          "indexed": true,
          "internalType": "address",
          "name": "_operator",
          "type": "address"
        },
        {
          "indexed": true,
          "internalType": "address",
          "name": "_from",
          "type": "address"
        },
        {
          "indexed": true,
          "internalType": "address",
          "name": "_to",
          "type": "address"
        },
        {
          "indexed": false,
          "internalType": "uint256",
          "name": "_id",
          "type": "uint256"
        },
        {
          "indexed": false,
          "internalType": "uint256",
          "name": "_value",
          "type": "uint256"
        }
      ],
      "name": "TransferSingle",
      "type": "event"
    },
    {
      "anonymous": false,
      "inputs": [
        {
          "indexed": false,
          "internalType": "string",
          "name": "_value",
          "type": "string"
        },
        {
          "indexed": true,
          "internalType": "uint256",
          "name": "_id",
          "type": "uint256"
        }
      ],
      "name": "URI",
      "type": "event"
    },
    {
      "constant": true,
      "inputs": [],
      "name": "BASE_URI",
      "outputs": [
        {
          "internalType": "string",
          "name": "",
          "type": "string"
        }
      ],
      "payable": false,
      "stateMutability": "view",
      "type": "function"
    },
    {
      "constant": true,
      "inputs": [
        {
          "internalType": "address",
          "name": "account",
          "type": "address"
        },
        {
          "internalType": "uint256",
          "name": "id",
          "type": "uint256"
        }
      ],
      "name": "balanceOf",
      "outputs": [
        {
          "internalType": "uint256",
          "name": "",
          "type": "uint256"
        }
      ],
      "payable": false,
      "stateMutability": "view",
      "type": "function"
    },
    {
      "constant": true,
      "inputs": [
        {
          "internalType": "address[]",
          "name": "accounts",
          "type": "address[]"
        },
        {
          "internalType": "uint256[]",
          "name": "ids",
          "type": "uint256[]"
        }
      ],
      "name": "balanceOfBatch",
      "outputs": [
        {
          "internalType": "uint256[]",
          "name": "",
          "type": "uint256[]"
        }
      ],
      "payable": false,
      "stateMutability": "view",
      "type": "function"
    },
    {
      "constant": true,
      "inputs": [
        {
          "internalType": "address",
          "name": "account",
          "type": "address"
        },
        {
          "internalType": "uint256",
          "name": "id",
          "type": "uint256"
        }
      ],
      "name": "birthdayOf",
      "outputs": [
        {
          "internalType": "uint256",
          "name": "",
          "type": "uint256"
        }
      ],
      "payable": false,
      "stateMutability": "view",
      "type": "function"
    },
    {
      "constant": true,
      "inputs": [
        {
          "internalType": "address",
          "name": "account",
          "type": "address"
        },
        {
          "internalType": "address",
          "name": "operator",
          "type": "address"
        }
      ],
      "name": "isApprovedForAll",
      "outputs": [
        {
          "internalType": "bool",
          "name": "",
          "type": "bool"
        }
      ],
      "payable": false,
      "stateMutability": "view",
      "type": "function"
    },
    {
      "constant": true,
      "inputs": [
        {
          "internalType": "address",
          "name": "addr",
          "type": "address"
        }
      ],
      "name": "isLockedAddress",
      "outputs": [
        {
          "internalType": "bool",
          "name": "",
          "type": "bool"
        }
      ],
      "payable": false,
      "stateMutability": "view",
      "type": "function"
    },
    {
      "constant": true,
      "inputs": [
        {
          "internalType": "uint256",
          "name": "id",
          "type": "uint256"
        }
      ],
      "name": "isLockedToken",
      "outputs": [
        {
          "internalType": "bool",
          "name": "",
          "type": "bool"
        }
      ],
      "payable": false,
      "stateMutability": "view",
      "type": "function"
    },
    {
      "constant": false,
      "inputs": [
        {
          "internalType": "address",
          "name": "addr",
          "type": "address"
        }
      ],
      "name": "lockAddress",
      "outputs": [],
      "payable": false,
      "stateMutability": "nonpayable",
      "type": "function"
    },
    {
      "constant": false,
      "inputs": [
        {
          "internalType": "uint256",
          "name": "id",
          "type": "uint256"
        }
      ],
      "name": "lockToken",
      "outputs": [],
      "payable": false,
      "stateMutability": "nonpayable",
      "type": "function"
    },
    {
      "constant": true,
      "inputs": [
        {
          "internalType": "uint256",
          "name": "id",
          "type": "uint256"
        }
      ],
      "name": "metadataHash",
      "outputs": [
        {
          "internalType": "uint256",
          "name": "",
          "type": "uint256"
        }
      ],
      "payable": false,
      "stateMutability": "view",
      "type": "function"
    },
    {
      "constant": true,
      "inputs": [],
      "name": "owner",
      "outputs": [
        {
          "internalType": "address",
          "name": "",
          "type": "address"
        }
      ],
      "payable": false,
      "stateMutability": "view",
      "type": "function"
    },
    {
      "constant": false,
      "inputs": [
        {
          "internalType": "address",
          "name": "from",
          "type": "address"
        },
        {
          "internalType": "address",
          "name": "to",
          "type": "address"
        },
        {
          "internalType": "uint256[]",
          "name": "ids",
          "type": "uint256[]"
        },
        {
          "internalType": "uint256[]",
          "name": "values",
          "type": "uint256[]"
        },
        {
          "internalType": "bytes",
          "name": "data",
          "type": "bytes"
        }
      ],
      "name": "safeBatchTransferFrom",
      "outputs": [],
      "payable": true,
      "stateMutability": "payable",
      "type": "function"
    },
    {
      "constant": false,
      "inputs": [
        {
          "internalType": "address",
          "name": "from",
          "type": "address"
        },
        {
          "internalType": "address",
          "name": "to",
          "type": "address"
        },
        {
          "internalType": "uint256",
          "name": "id",
          "type": "uint256"
        },
        {
          "internalType": "uint256",
          "name": "value",
          "type": "uint256"
        },
        {
          "internalType": "bytes",
          "name": "data",
          "type": "bytes"
        }
      ],
      "name": "safeTransferFrom",
      "outputs": [],
      "payable": true,
      "stateMutability": "payable",
      "type": "function"
    },
    {
      "constant": false,
      "inputs": [
        {
          "internalType": "address",
          "name": "operator",
          "type": "address"
        },
        {
          "internalType": "bool",
          "name": "approved",
          "type": "bool"
        }
      ],
      "name": "setApprovalForAll",
      "outputs": [],
      "payable": false,
      "stateMutability": "nonpayable",
      "type": "function"
    },
    {
      "constant": true,
      "inputs": [
        {
          "internalType": "address",
          "name": "account",
          "type": "address"
        },
        {
          "internalType": "uint256",
          "name": "id",
          "type": "uint256"
        },
        {
          "internalType": "uint256",
          "name": "value",
          "type": "uint256"
        }
      ],
      "name": "storageFees",
      "outputs": [
        {
          "internalType": "uint256",
          "name": "",
          "type": "uint256"
        }
      ],
      "payable": false,
      "stateMutability": "view",
      "type": "function"
    },
    {
      "constant": true,
      "inputs": [
        {
          "internalType": "bytes4",
          "name": "_interfaceID",
          "type": "bytes4"
        }
      ],
      "name": "supportsInterface",
      "outputs": [
        {
          "internalType": "bool",
          "name": "",
          "type": "bool"
        }
      ],
      "payable": false,
      "stateMutability": "view",
      "type": "function"
    },
    {
      "constant": true,
      "inputs": [
        {
          "internalType": "address",
          "name": "account",
          "type": "address"
        }
      ],
      "name": "tokensByAddress",
      "outputs": [
        {
          "internalType": "string",
          "name": "result",
          "type": "string"
        }
      ],
      "payable": false,
      "stateMutability": "view",
      "type": "function"
    },
    {
      "constant": false,
      "inputs": [
        {
          "internalType": "address",
          "name": "newOwner",
          "type": "address"
        }
      ],
      "name": "transferOwnership",
      "outputs": [],
      "payable": false,
      "stateMutability": "nonpayable",
      "type": "function"
    },
    {
      "constant": false,
      "inputs": [
        {
          "internalType": "address",
          "name": "addr",
          "type": "address"
        }
      ],
      "name": "unlockAddress",
      "outputs": [],
      "payable": false,
      "stateMutability": "nonpayable",
      "type": "function"
    },
    {
      "constant": false,
      "inputs": [
        {
          "internalType": "uint256",
          "name": "id",
          "type": "uint256"
        }
      ],
      "name": "unlockToken",
      "outputs": [],
      "payable": false,
      "stateMutability": "nonpayable",
      "type": "function"
    },
    {
      "constant": true,
      "inputs": [
        {
          "internalType": "uint256",
          "name": "id",
          "type": "uint256"
        }
      ],
      "name": "uri",
      "outputs": [
        {
          "internalType": "string",
          "name": "",
          "type": "string"
        }
      ],
      "payable": false,
      "stateMutability": "view",
      "type": "function"
    },
    {
      "constant": false,
      "inputs": [
        {
          "internalType": "address",
          "name": "tokenizer",
          "type": "address"
        }
      ],
      "name": "authorizeTokenizer",
      "outputs": [],
      "payable": false,
      "stateMutability": "nonpayable",
      "type": "function"
    },
    {
      "constant": false,
      "inputs": [
        {
          "internalType": "address",
          "name": "tokenizer",
          "type": "address"
        }
      ],
      "name": "revokeTokenizer",
      "outputs": [],
      "payable": false,
      "stateMutability": "nonpayable",
      "type": "function"
    },
    {
      "constant": true,
      "inputs": [
        {
          "internalType": "address",
          "name": "tokenizer",
          "type": "address"
        }
      ],
      "name": "isTokenizer",
      "outputs": [
        {
          "internalType": "bool",
          "name": "",
          "type": "bool"
        }
      ],
      "payable": false,
      "stateMutability": "view",
      "type": "function"
    },
    {
      "constant": false,
      "inputs": [
        {
          "internalType": "uint256[]",
          "name": "ids",
          "type": "uint256[]"
        },
        {
          "internalType": "address[]",
          "name": "recipients",
          "type": "address[]"
        },
        {
          "internalType": "uint256[]",
          "name": "values",
          "type": "uint256[]"
        },
        {
          "internalType": "uint256[]",
          "name": "metadataHashes",
          "type": "uint256[]"
        },
        {
          "internalType": "uint256[]",
          "name": "storagePrices",
          "type": "uint256[]"
        }
      ],
      "name": "createTokens",
      "outputs": [],
      "payable": false,
      "stateMutability": "nonpayable",
      "type": "function"
    },
    {
      "constant": false,
      "inputs": [
        {
          "internalType": "uint256",
          "name": "id",
          "type": "uint256"
        },
        {
          "internalType": "uint256",
          "name": "metadataHash",
          "type": "uint256"
        }
      ],
      "name": "updateMetadataHash",
      "outputs": [],
      "payable": false,
      "stateMutability": "nonpayable",
      "type": "function"
    },
    {
      "constant": true,
      "inputs": [
        {
          "internalType": "uint256",
          "name": "id",
          "type": "uint256"
        }
      ],
      "name": "totalSupply",
      "outputs": [
        {
          "internalType": "uint256",
          "name": "",
          "type": "uint256"
        }
      ],
      "payable": false,
      "stateMutability": "view",
      "type": "function"
    }
  ],
  "bytecode": "0x608060405262000015336200001b60201b60201c565b62000161565b600073ffffffffffffffffffffffffffffffffffffffff168173ffffffffffffffffffffffffffffffffffffffff161415620000a3576040517f08c379a0000000000000000000000000000000000000000000000000000000008152600401808060200182810382526026815260200180620043416026913960400191505060405180910390fd5b8073ffffffffffffffffffffffffffffffffffffffff166000809054906101000a900473ffffffffffffffffffffffffffffffffffffffff1673ffffffffffffffffffffffffffffffffffffffff167f8be0079c531659141344cd1fd0a4f28419497f9722a3daafe3b4186f6b6457e060405160405180910390a3806000806101000a81548173ffffffffffffffffffffffffffffffffffffffff021916908373ffffffffffffffffffffffffffffffffffffffff16021790555050565b6141d080620001716000396000f3fe60806040526004361061019b5760003560e01c8063a22cb465116100ec578063d6bc59421161008a578063e1c95f8a11610064578063e1c95f8a14610e69578063e985e9c514610ed8578063f242432a14610f61578063f2fde38b1461102e5761019b565b8063d6bc594214610cd4578063dbddb26a14610d9e578063dd2e0ac014610e2e5761019b565b8063bd85b039116100c6578063bd85b03914610b3a578063c02f303c14610b89578063c4be3c3c14610bf2578063cba54e6014610c6b5761019b565b8063a22cb46514610a39578063b7eb5e0a14610a96578063bba75c8314610ae75761019b565b80634e1273f41161015957806380f203631161013357806380f203631461077c57806383fd5a0e146107b75780638870147b146109915780638da5cb5b146109e25761019b565b80634e1273f4146105385780636b62becb146106e65780637627b7321461072b5761019b565b8062fdd58e146101a057806301ffc9a71461020f5780630e89341c14610281578063219cc8bc146103355780632eb2c2d61461038457806334a90d02146104e7575b600080fd5b3480156101ac57600080fd5b506101f9600480360360408110156101c357600080fd5b81019080803573ffffffffffffffffffffffffffffffffffffffff1690602001909291908035906020019092919050505061107f565b6040518082815260200191505060405180910390f35b34801561021b57600080fd5b506102676004803603602081101561023257600080fd5b8101908080357bffffffffffffffffffffffffffffffffffffffffffffffffffffffff1916906020019092919050505061115f565b604051808215151515815260200191505060405180910390f35b34801561028d57600080fd5b506102ba600480360360208110156102a457600080fd5b8101908080359060200190929190505050611210565b6040518080602001828103825283818151815260200191508051906020019080838360005b838110156102fa5780820151818401526020810190506102df565b50505050905090810190601f1680156103275780820380516001836020036101000a031916815260200191505b509250505060405180910390f35b34801561034157600080fd5b5061036e6004803603602081101561035857600080fd5b8101908080359060200190929190505050611260565b6040518082815260200191505060405180910390f35b6104e5600480360360a081101561039a57600080fd5b81019080803573ffffffffffffffffffffffffffffffffffffffff169060200190929190803573ffffffffffffffffffffffffffffffffffffffff169060200190929190803590602001906401000000008111156103f757600080fd5b82018360208201111561040957600080fd5b8035906020019184602083028401116401000000008311171561042b57600080fd5b90919293919293908035906020019064010000000081111561044c57600080fd5b82018360208201111561045e57600080fd5b8035906020019184602083028401116401000000008311171561048057600080fd5b9091929391929390803590602001906401000000008111156104a157600080fd5b8201836020820111156104b357600080fd5b803590602001918460018302840111640100000000831117156104d557600080fd5b909192939192939050505061127d565b005b3480156104f357600080fd5b506105366004803603602081101561050a57600080fd5b81019080803573ffffffffffffffffffffffffffffffffffffffff169060200190929190505050611666565b005b34801561054457600080fd5b5061068f6004803603604081101561055b57600080fd5b810190808035906020019064010000000081111561057857600080fd5b82018360208201111561058a57600080fd5b803590602001918460208302840111640100000000831117156105ac57600080fd5b919080806020026020016040519081016040528093929190818152602001838360200280828437600081840152601f19601f8201169050808301925050505050505091929192908035906020019064010000000081111561060c57600080fd5b82018360208201111561061e57600080fd5b8035906020019184602083028401116401000000008311171561064057600080fd5b919080806020026020016040519081016040528093929190818152602001838360200280828437600081840152601f19601f82011690508083019250505050505050919291929050505061173b565b6040518080602001828103825283818151815260200191508051906020019060200280838360005b838110156106d25780820151818401526020810190506106b7565b505050509050019250505060405180910390f35b3480156106f257600080fd5b506107296004803603604081101561070957600080fd5b810190808035906020019092919080359060200190929190505050611919565b005b34801561073757600080fd5b5061077a6004803603602081101561074e57600080fd5b81019080803573ffffffffffffffffffffffffffffffffffffffff169060200190929190505050611985565b005b34801561078857600080fd5b506107b56004803603602081101561079f57600080fd5b8101908080359060200190929190505050611a5a565b005b3480156107c357600080fd5b5061098f600480360360a08110156107da57600080fd5b81019080803590602001906401000000008111156107f757600080fd5b82018360208201111561080957600080fd5b8035906020019184602083028401116401000000008311171561082b57600080fd5b90919293919293908035906020019064010000000081111561084c57600080fd5b82018360208201111561085e57600080fd5b8035906020019184602083028401116401000000008311171561088057600080fd5b9091929391929390803590602001906401000000008111156108a157600080fd5b8201836020820111156108b357600080fd5b803590602001918460208302840111640100000000831117156108d557600080fd5b9091929391929390803590602001906401000000008111156108f657600080fd5b82018360208201111561090857600080fd5b8035906020019184602083028401116401000000008311171561092a57600080fd5b90919293919293908035906020019064010000000081111561094b57600080fd5b82018360208201111561095d57600080fd5b8035906020019184602083028401116401000000008311171561097f57600080fd5b9091929391929390505050611b02565b005b34801561099d57600080fd5b506109e0600480360360208110156109b457600080fd5b81019080803573ffffffffffffffffffffffffffffffffffffffff169060200190929190505050611ec0565b005b3480156109ee57600080fd5b506109f7611f95565b604051808273ffffffffffffffffffffffffffffffffffffffff1673ffffffffffffffffffffffffffffffffffffffff16815260200191505060405180910390f35b348015610a4557600080fd5b50610a9460048036036040811015610a5c57600080fd5b81019080803573ffffffffffffffffffffffffffffffffffffffff169060200190929190803515159060200190929190505050611fbe565b005b348015610aa257600080fd5b50610ae560048036036020811015610ab957600080fd5b81019080803573ffffffffffffffffffffffffffffffffffffffff169060200190929190505050612144565b005b348015610af357600080fd5b50610b2060048036036020811015610b0a57600080fd5b8101908080359060200190929190505050612219565b604051808215151515815260200191505060405180910390f35b348015610b4657600080fd5b50610b7360048036036020811015610b5d57600080fd5b810190808035906020019092919050505061222b565b6040518082815260200191505060405180910390f35b348015610b9557600080fd5b50610bd860048036036020811015610bac57600080fd5b81019080803573ffffffffffffffffffffffffffffffffffffffff169060200190929190505050612248565b604051808215151515815260200191505060405180910390f35b348015610bfe57600080fd5b50610c5560048036036060811015610c1557600080fd5b81019080803573ffffffffffffffffffffffffffffffffffffffff169060200190929190803590602001909291908035906020019092919050505061225a565b6040518082815260200191505060405180910390f35b348015610c7757600080fd5b50610cba60048036036020811015610c8e57600080fd5b81019080803573ffffffffffffffffffffffffffffffffffffffff169060200190929190505050612270565b604051808215151515815260200191505060405180910390f35b348015610ce057600080fd5b50610d2360048036036020811015610cf757600080fd5b81019080803573ffffffffffffffffffffffffffffffffffffffff169060200190929190505050612282565b6040518080602001828103825283818151815260200191508051906020019080838360005b83811015610d63578082015181840152602081019050610d48565b50505050905090810190601f168015610d905780820380516001836020036101000a031916815260200191505b509250505060405180910390f35b348015610daa57600080fd5b50610db36124a1565b6040518080602001828103825283818151815260200191508051906020019080838360005b83811015610df3578082015181840152602081019050610dd8565b50505050905090810190601f168015610e205780820380516001836020036101000a031916815260200191505b509250505060405180910390f35b348015610e3a57600080fd5b50610e6760048036036020811015610e5157600080fd5b81019080803590602001909291905050506124da565b005b348015610e7557600080fd5b50610ec260048036036040811015610e8c57600080fd5b81019080803573ffffffffffffffffffffffffffffffffffffffff16906020019092919080359060200190929190505050612583565b6040518082815260200191505060405180910390f35b348015610ee457600080fd5b50610f4760048036036040811015610efb57600080fd5b81019080803573ffffffffffffffffffffffffffffffffffffffff169060200190929190803573ffffffffffffffffffffffffffffffffffffffff169060200190929190505050612663565b604051808215151515815260200191505060405180910390f35b61102c600480360360a0811015610f7757600080fd5b81019080803573ffffffffffffffffffffffffffffffffffffffff169060200190929190803573ffffffffffffffffffffffffffffffffffffffff169060200190929190803590602001909291908035906020019092919080359060200190640100000000811115610fe857600080fd5b820183602082011115610ffa57600080fd5b8035906020019184600183028401116401000000008311171561101c57600080fd5b90919293919293905050506126f7565b005b34801561103a57600080fd5b5061107d6004803603602081101561105157600080fd5b81019080803573ffffffffffffffffffffffffffffffffffffffff16906020019092919050505061295f565b005b60008073ffffffffffffffffffffffffffffffffffffffff168373ffffffffffffffffffffffffffffffffffffffff161415611106576040517f08c379a000000000000000000000000000000000000000000000000000000000815260040180806020018281038252602b815260200180613f03602b913960400191505060405180910390fd5b6003600083815260200190815260200160002060008473ffffffffffffffffffffffffffffffffffffffff1673ffffffffffffffffffffffffffffffffffffffff16815260200190815260200160002054905092915050565b60006301ffc9a760e01b7bffffffffffffffffffffffffffffffffffffffffffffffffffffffff1916827bffffffffffffffffffffffffffffffffffffffffffffffffffffffff191614806111f8575063d9b67a2660e01b7bffffffffffffffffffffffffffffffffffffffffffffffffffffffff1916827bffffffffffffffffffffffffffffffffffffffffffffffffffffffff1916145b15611206576001905061120b565b600090505b919050565b60606112596040518060400160405280601d81526020017f68747470733a2f2f7374617368626c6f782e636f6d2f746f6b656e732f000000815250611254846129e5565b612ad4565b9050919050565b600060086000838152602001908152602001600020549050919050565b8383905086869050146112db576040517f08c379a000000000000000000000000000000000000000000000000000000000815260040180806020018281038252602e815260200180614112602e913960400191505060405180910390fd5b600073ffffffffffffffffffffffffffffffffffffffff168773ffffffffffffffffffffffffffffffffffffffff161415611361576040517f08c379a0000000000000000000000000000000000000000000000000000000008152600401808060200182810382526028815260200180613f546028913960400191505060405180910390fd5b3373ffffffffffffffffffffffffffffffffffffffff168873ffffffffffffffffffffffffffffffffffffffff1614806113a85750600115156113a48933612663565b1515145b6113fd576040517f08c379a00000000000000000000000000000000000000000000000000000000081526004018080602001828103825260378152602001806140db6037913960400191505060405180910390fd5b600034905060008090505b87879050811015611453576114448a8a8a8a8581811061142457fe5b9050602002013589898681811061143757fe5b9050602002013586612c1f565b82039150806001019050611408565b5060008111156114a5573373ffffffffffffffffffffffffffffffffffffffff166108fc829081150290604051600060405180830381858888f193505050501580156114a3573d6000803e3d6000fd5b505b8773ffffffffffffffffffffffffffffffffffffffff168973ffffffffffffffffffffffffffffffffffffffff163373ffffffffffffffffffffffffffffffffffffffff167f4a39dc06d4c0dbc64b70af90fd698a233a518aa5d07e595d983b8c0526c8f7fb8a8a8a8a6040518080602001806020018381038352878782818152602001925060200280828437600081840152601f19601f8201169050808301925050508381038252858582818152602001925060200280828437600081840152601f19601f820116905080830192505050965050505050505060405180910390a461165b338a8a8a8a80806020026020016040519081016040528093929190818152602001838360200280828437600081840152601f19601f82011690508083019250505050505050898980806020026020016040519081016040528093929190818152602001838360200280828437600081840152601f19601f8201169050808301925050505050505088888080601f016020809104026020016040519081016040528093929190818152602001838380828437600081840152601f19601f8201169050808301925050505050505061310c565b505050505050505050565b61166e6133db565b6116e0576040517f08c379a00000000000000000000000000000000000000000000000000000000081526004018080602001828103825260208152602001807f4f776e61626c653a2063616c6c6572206973206e6f7420746865206f776e657281525060200191505060405180910390fd5b6001600260008373ffffffffffffffffffffffffffffffffffffffff1673ffffffffffffffffffffffffffffffffffffffff16815260200190815260200160002060006101000a81548160ff02191690831515021790555050565b60608151835114611797576040517f08c379a0000000000000000000000000000000000000000000000000000000008152600401808060200182810382526030815260200180613ff66030913960400191505060405180910390fd5b606083516040519080825280602002602001820160405280156117c95781602001602082028038833980820191505090505b50905060008090505b845181101561190e57600073ffffffffffffffffffffffffffffffffffffffff168582815181106117ff57fe5b602002602001015173ffffffffffffffffffffffffffffffffffffffff161415611874576040517f08c379a000000000000000000000000000000000000000000000000000000000815260040180806020018281038252603481526020018061405c6034913960400191505060405180910390fd5b6003600085838151811061188457fe5b6020026020010151815260200190815260200160002060008683815181106118a857fe5b602002602001015173ffffffffffffffffffffffffffffffffffffffff1673ffffffffffffffffffffffffffffffffffffffff168152602001908152602001600020548282815181106118f757fe5b6020026020010181815250508060010190506117d2565b508091505092915050565b61192233613432565b611977576040517f08c379a0000000000000000000000000000000000000000000000000000000008152600401808060200182810382526023815260200180613fd36023913960400191505060405180910390fd5b6119818282613497565b5050565b61198d6133db565b6119ff576040517f08c379a00000000000000000000000000000000000000000000000000000000081526004018080602001828103825260208152602001807f4f776e61626c653a2063616c6c6572206973206e6f7420746865206f776e657281525060200191505060405180910390fd5b6001600a60008373ffffffffffffffffffffffffffffffffffffffff1673ffffffffffffffffffffffffffffffffffffffff16815260200190815260200160002060006101000a81548160ff02191690831515021790555050565b611a626133db565b611ad4576040517f08c379a00000000000000000000000000000000000000000000000000000000081526004018080602001828103825260208152602001807f4f776e61626c653a2063616c6c6572206973206e6f7420746865206f776e657281525060200191505060405180910390fd5b600180600083815260200190815260200160002060006101000a81548160ff02191690831515021790555050565b611b0b33613432565b611b60576040517f08c379a0000000000000000000000000000000000000000000000000000000008152600401808060200182810382526023815260200180613fd36023913960400191505060405180910390fd5b878790508a8a9050148015611b7a57508585905088889050145b8015611b8b57508383905086869050145b611be0576040517f08c379a000000000000000000000000000000000000000000000000000000000815260040180806020018281038252602b815260200180613f7c602b913960400191505060405180910390fd5b60008090505b8a8a9050811015611c97576000600960008d8d85818110611c0357fe5b9050602002013581526020019081526020016000205414611c8c576040517f08c379a000000000000000000000000000000000000000000000000000000000815260040180806020018281038252601f8152602001807f5374617368426c6f783a20546f6b656e20616c7265616479206d696e7465640081525060200191505060405180910390fd5b806001019050611be6565b5060008090505b8a8a9050811015611eb35760008b8b83818110611cb757fe5b90506020020135905060008a8a84818110611cce57fe5b9050602002013573ffffffffffffffffffffffffffffffffffffffff1690506000898985818110611cfb57fe5b905060200201359050806009600085815260200190815260200160002081905550858585818110611d2857fe5b905060200201356005600085815260200190815260200160002081905550806003600085815260200190815260200160002060008473ffffffffffffffffffffffffffffffffffffffff1673ffffffffffffffffffffffffffffffffffffffff16815260200190815260200160002081905550600660008373ffffffffffffffffffffffffffffffffffffffff1673ffffffffffffffffffffffffffffffffffffffff1681526020019081526020016000208390806001815401808255809150509060018203906000526020600020016000909192909190915055508173ffffffffffffffffffffffffffffffffffffffff16600073ffffffffffffffffffffffffffffffffffffffff163373ffffffffffffffffffffffffffffffffffffffff167fc3d58168c5ae7397731d063d5bbf3d657854427343f4c083240f7aacaa2d0f628685604051808381526020018281526020019250505060405180910390a4611ea583898987818110611e9957fe5b90506020020135613497565b505050806001019050611c9e565b5050505050505050505050565b611ec86133db565b611f3a576040517f08c379a00000000000000000000000000000000000000000000000000000000081526004018080602001828103825260208152602001807f4f776e61626c653a2063616c6c6572206973206e6f7420746865206f776e657281525060200191505060405180910390fd5b6000600a60008373ffffffffffffffffffffffffffffffffffffffff1673ffffffffffffffffffffffffffffffffffffffff16815260200190815260200160002060006101000a81548160ff02191690831515021790555050565b60008060009054906101000a900473ffffffffffffffffffffffffffffffffffffffff16905090565b8173ffffffffffffffffffffffffffffffffffffffff163373ffffffffffffffffffffffffffffffffffffffff161415612043576040517f08c379a000000000000000000000000000000000000000000000000000000000815260040180806020018281038252602c815260200180613fa7602c913960400191505060405180910390fd5b80600760003373ffffffffffffffffffffffffffffffffffffffff1673ffffffffffffffffffffffffffffffffffffffff16815260200190815260200160002060008473ffffffffffffffffffffffffffffffffffffffff1673ffffffffffffffffffffffffffffffffffffffff16815260200190815260200160002060006101000a81548160ff0219169083151502179055508173ffffffffffffffffffffffffffffffffffffffff163373ffffffffffffffffffffffffffffffffffffffff167f17307eab39ab6107e8899845ad3d59bd9653f200f220920489ca2b5937696c3183604051808215151515815260200191505060405180910390a35050565b61214c6133db565b6121be576040517f08c379a00000000000000000000000000000000000000000000000000000000081526004018080602001828103825260208152602001807f4f776e61626c653a2063616c6c6572206973206e6f7420746865206f776e657281525060200191505060405180910390fd5b6000600260008373ffffffffffffffffffffffffffffffffffffffff1673ffffffffffffffffffffffffffffffffffffffff16815260200190815260200160002060006101000a81548160ff02191690831515021790555050565b6000612224826134e1565b9050919050565b600060096000838152602001908152602001600020549050919050565b600061225382613432565b9050919050565b600061226784848461350b565b90509392505050565b600061227b82613617565b9050919050565b6060600073ffffffffffffffffffffffffffffffffffffffff168273ffffffffffffffffffffffffffffffffffffffff16141561230a576040517f08c379a000000000000000000000000000000000000000000000000000000000815260040180806020018281038252602b815260200180613f03602b913960400191505060405180910390fd5b60008090505b600660008473ffffffffffffffffffffffffffffffffffffffff1673ffffffffffffffffffffffffffffffffffffffff16815260200190815260200160002080549050811015612498576000600660008573ffffffffffffffffffffffffffffffffffffffff1673ffffffffffffffffffffffffffffffffffffffff16815260200190815260200160002082815481106123a657fe5b9060005260206000200154905060006003600083815260200190815260200160002060008673ffffffffffffffffffffffffffffffffffffffff1673ffffffffffffffffffffffffffffffffffffffff16815260200190815260200160002054111561248a576060612417826129e5565b90506000845111156124845761242d818561366d565b61247f57612470846040518060400160405280600181526020017f2000000000000000000000000000000000000000000000000000000000000000815250612ad4565b935061247c8482612ad4565b93505b612488565b8093505b505b508080600101915050612310565b50809050919050565b6040518060400160405280601d81526020017f68747470733a2f2f7374617368626c6f782e636f6d2f746f6b656e732f00000081525081565b6124e26133db565b612554576040517f08c379a00000000000000000000000000000000000000000000000000000000081526004018080602001828103825260208152602001807f4f776e61626c653a2063616c6c6572206973206e6f7420746865206f776e657281525060200191505060405180910390fd5b60006001600083815260200190815260200160002060006101000a81548160ff02191690831515021790555050565b60008073ffffffffffffffffffffffffffffffffffffffff168373ffffffffffffffffffffffffffffffffffffffff16141561260a576040517f08c379a000000000000000000000000000000000000000000000000000000000815260040180806020018281038252602b815260200180613f03602b913960400191505060405180910390fd5b6004600083815260200190815260200160002060008473ffffffffffffffffffffffffffffffffffffffff1673ffffffffffffffffffffffffffffffffffffffff16815260200190815260200160002054905092915050565b6000600760008473ffffffffffffffffffffffffffffffffffffffff1673ffffffffffffffffffffffffffffffffffffffff16815260200190815260200160002060008373ffffffffffffffffffffffffffffffffffffffff1673ffffffffffffffffffffffffffffffffffffffff16815260200190815260200160002060009054906101000a900460ff16905092915050565b600073ffffffffffffffffffffffffffffffffffffffff168573ffffffffffffffffffffffffffffffffffffffff16141561277d576040517f08c379a0000000000000000000000000000000000000000000000000000000008152600401808060200182810382526028815260200180613f546028913960400191505060405180910390fd5b3373ffffffffffffffffffffffffffffffffffffffff168673ffffffffffffffffffffffffffffffffffffffff1614806127c45750600115156127c08733612663565b1515145b612819576040517f08c379a00000000000000000000000000000000000000000000000000000000081526004018080602001828103825260378152602001806140db6037913960400191505060405180910390fd5b600034905061282b8787878785612c1f565b810390506000811115612880573373ffffffffffffffffffffffffffffffffffffffff166108fc829081150290604051600060405180830381858888f1935050505015801561287e573d6000803e3d6000fd5b505b8573ffffffffffffffffffffffffffffffffffffffff168773ffffffffffffffffffffffffffffffffffffffff163373ffffffffffffffffffffffffffffffffffffffff167fc3d58168c5ae7397731d063d5bbf3d657854427343f4c083240f7aacaa2d0f628888604051808381526020018281526020019250505060405180910390a4612956338888888888888080601f016020809104026020016040519081016040528093929190818152602001838380828437600081840152601f19601f8201169050808301925050505050505061375f565b50505050505050565b6129676133db565b6129d9576040517f08c379a00000000000000000000000000000000000000000000000000000000081526004018080602001828103825260208152602001807f4f776e61626c653a2063616c6c6572206973206e6f7420746865206f776e657281525060200191505060405180910390fd5b6129e2816139ac565b50565b6060600080905060008390505b60008114612a1457818060010192505060108181612a0c57fe5b0490506129f2565b6060826040519080825280601f01601f191660200182016040528015612a495781602001600182028038833980820191505090505b50905060008090505b83811015612ac85760108681612a6457fe5b069250612a7083613af0565b8260018387030381518110612a8157fe5b60200101907effffffffffffffffffffffffffffffffffffffffffffffffffffffffffffff1916908160001a90535060108681612aba57fe5b049550806001019050612a52565b50809350505050919050565b6060808390506060839050606081518351016040519080825280601f01601f191660200182016040528015612b185781602001600182028038833980820191505090505b509050606081905060008090506000809050600090505b8551811015612b9d57858181518110612b4457fe5b602001015160f81c60f81b838380600101945081518110612b6157fe5b60200101907effffffffffffffffffffffffffffffffffffffffffffffffffffffffffffff1916908160001a9053508080600101915050612b2f565b600090505b8451811015612c1057848181518110612bb757fe5b602001015160f81c60f81b838380600101945081518110612bd457fe5b60200101907effffffffffffffffffffffffffffffffffffffffffffffffffffffffffffff1916908160001a9053508080600101915050612ba2565b82965050505050505092915050565b6000612c2d86868686613b99565b15612ca0576040517f08c379a00000000000000000000000000000000000000000000000000000000081526004018080602001828103825260068152602001807f4c6f636b6564000000000000000000000000000000000000000000000000000081525060200191505060405180910390fd5b612cab86858561350b565b905080821015612d06576040517f08c379a000000000000000000000000000000000000000000000000000000000815260040180806020018281038252602b815260200180614171602b913960400191505060405180910390fd5b612d83836040518060600160405280602a8152602001614090602a91396003600088815260200190815260200160002060008a73ffffffffffffffffffffffffffffffffffffffff1673ffffffffffffffffffffffffffffffffffffffff16815260200190815260200160002054613bd99092919063ffffffff16565b6003600086815260200190815260200160002060008873ffffffffffffffffffffffffffffffffffffffff1673ffffffffffffffffffffffffffffffffffffffff168152602001908152602001600020819055506000612e3c846003600088815260200190815260200160002060008973ffffffffffffffffffffffffffffffffffffffff1673ffffffffffffffffffffffffffffffffffffffff16815260200190815260200160002054613c9990919063ffffffff16565b905060006003600087815260200190815260200160002060008873ffffffffffffffffffffffffffffffffffffffff1673ffffffffffffffffffffffffffffffffffffffff168152602001908152602001600020541415612f5a57600660008773ffffffffffffffffffffffffffffffffffffffff1673ffffffffffffffffffffffffffffffffffffffff168152602001908152602001600020859080600181540180825580915050906001820390600052602060002001600090919290919091505550426004600087815260200190815260200160002060008873ffffffffffffffffffffffffffffffffffffffff1673ffffffffffffffffffffffffffffffffffffffff168152602001908152602001600020819055506130aa565b600061300f6004600088815260200190815260200160002060008973ffffffffffffffffffffffffffffffffffffffff1673ffffffffffffffffffffffffffffffffffffffff168152602001908152602001600020546003600089815260200190815260200160002060008a73ffffffffffffffffffffffffffffffffffffffff1673ffffffffffffffffffffffffffffffffffffffff16815260200190815260200160002054613d2190919063ffffffff16565b905060006130264287613d2190919063ffffffff16565b9050600061303d8284613c9990919063ffffffff16565b90506130528482613da790919063ffffffff16565b600460008a815260200190815260200160002060008b73ffffffffffffffffffffffffffffffffffffffff1673ffffffffffffffffffffffffffffffffffffffff168152602001908152602001600020819055505050505b806003600087815260200190815260200160002060008873ffffffffffffffffffffffffffffffffffffffff1673ffffffffffffffffffffffffffffffffffffffff168152602001908152602001600020819055508191505095945050505050565b61312b8473ffffffffffffffffffffffffffffffffffffffff16613df1565b156133d3578373ffffffffffffffffffffffffffffffffffffffff1663bc197c81905060e01b7bffffffffffffffffffffffffffffffffffffffffffffffffffffffff19168473ffffffffffffffffffffffffffffffffffffffff1663bc197c8188888787876040518663ffffffff1660e01b8152600401808673ffffffffffffffffffffffffffffffffffffffff1673ffffffffffffffffffffffffffffffffffffffff1681526020018573ffffffffffffffffffffffffffffffffffffffff1673ffffffffffffffffffffffffffffffffffffffff168152602001806020018060200180602001848103845287818151815260200191508051906020019060200280838360005b8381101561324f578082015181840152602081019050613234565b50505050905001848103835286818151815260200191508051906020019060200280838360005b83811015613291578082015181840152602081019050613276565b50505050905001848103825285818151815260200191508051906020019080838360005b838110156132d05780820151818401526020810190506132b5565b50505050905090810190601f1680156132fd5780820380516001836020036101000a031916815260200191505b5098505050505050505050602060405180830381600087803b15801561332257600080fd5b505af1158015613336573d6000803e3d6000fd5b505050506040513d602081101561334c57600080fd5b81019080805190602001909291905050507bffffffffffffffffffffffffffffffffffffffffffffffffffffffff1916146133d2576040517f08c379a00000000000000000000000000000000000000000000000000000000081526004018080602001828103825260368152602001806140266036913960400191505060405180910390fd5b5b505050505050565b60008060009054906101000a900473ffffffffffffffffffffffffffffffffffffffff1673ffffffffffffffffffffffffffffffffffffffff163373ffffffffffffffffffffffffffffffffffffffff1614905090565b6000600a60008373ffffffffffffffffffffffffffffffffffffffff1673ffffffffffffffffffffffffffffffffffffffff16815260200190815260200160002060009054906101000a900460ff1680613490575061348f6133db565b5b9050919050565b80600860008481526020019081526020016000208190555080827f9cd9c60390fc75c213fd8d644749f61388dd30ed6c6eb4647b793b5b580fb43060405160405180910390a35050565b60006001600083815260200190815260200160002060009054906101000a900460ff169050919050565b60008073ffffffffffffffffffffffffffffffffffffffff168473ffffffffffffffffffffffffffffffffffffffff161415613592576040517f08c379a000000000000000000000000000000000000000000000000000000000815260040180806020018281038252602b815260200180613f03602b913960400191505060405180910390fd5b6000620151806004600086815260200190815260200160002060008773ffffffffffffffffffffffffffffffffffffffff1673ffffffffffffffffffffffffffffffffffffffff168152602001908152602001600020544203816135f257fe5b0490508260056000868152602001908152602001600020548202029150509392505050565b6000600260008373ffffffffffffffffffffffffffffffffffffffff1673ffffffffffffffffffffffffffffffffffffffff16815260200190815260200160002060009054906101000a900460ff169050919050565b60006060839050606083905060008090505b82518251038110156137515760006001905060008090505b845181101561372f578481815181106136ac57fe5b602001015160f81c60f81b7effffffffffffffffffffffffffffffffffffffffffffffffffffffffffffff191684828501815181106136e757fe5b602001015160f81c60f81b7effffffffffffffffffffffffffffffffffffffffffffffffffffffffffffff191614613722576000915061372f565b8080600101915050613697565b508015613743576001945050505050613759565b50808060010191505061367f565b506000925050505b92915050565b61377e8473ffffffffffffffffffffffffffffffffffffffff16613df1565b156139a4578373ffffffffffffffffffffffffffffffffffffffff1663f23a6e61905060e01b7bffffffffffffffffffffffffffffffffffffffffffffffffffffffff19168473ffffffffffffffffffffffffffffffffffffffff1663f23a6e6188888787876040518663ffffffff1660e01b8152600401808673ffffffffffffffffffffffffffffffffffffffff1673ffffffffffffffffffffffffffffffffffffffff1681526020018573ffffffffffffffffffffffffffffffffffffffff1673ffffffffffffffffffffffffffffffffffffffff16815260200184815260200183815260200180602001828103825283818151815260200191508051906020019080838360005b838110156138a3578082015181840152602081019050613888565b50505050905090810190601f1680156138d05780820380516001836020036101000a031916815260200191505b509650505050505050602060405180830381600087803b1580156138f357600080fd5b505af1158015613907573d6000803e3d6000fd5b505050506040513d602081101561391d57600080fd5b81019080805190602001909291905050507bffffffffffffffffffffffffffffffffffffffffffffffffffffffff1916146139a3576040517f08c379a00000000000000000000000000000000000000000000000000000000081526004018080602001828103825260318152602001806141406031913960400191505060405180910390fd5b5b505050505050565b600073ffffffffffffffffffffffffffffffffffffffff168173ffffffffffffffffffffffffffffffffffffffff161415613a32576040517f08c379a0000000000000000000000000000000000000000000000000000000008152600401808060200182810382526026815260200180613f2e6026913960400191505060405180910390fd5b8073ffffffffffffffffffffffffffffffffffffffff166000809054906101000a900473ffffffffffffffffffffffffffffffffffffffff1673ffffffffffffffffffffffffffffffffffffffff167f8be0079c531659141344cd1fd0a4f28419497f9722a3daafe3b4186f6b6457e060405160405180910390a3806000806101000a81548173ffffffffffffffffffffffffffffffffffffffff021916908373ffffffffffffffffffffffffffffffffffffffff16021790555050565b60008160ff16600011158015613b0a575060098260ff1611155b15613b3f57817f300000000000000000000000000000000000000000000000000000000000000060f81c0160f81b9050613b94565b8160ff16600a11158015613b575750600f8260ff1611155b15613b8f57600a827f610000000000000000000000000000000000000000000000000000000000000060f81c010360f81b9050613b94565b600080fd5b919050565b6000613ba4836134e1565b80613bb45750613bb385613617565b5b80613bc45750613bc384613617565b5b80613bcf5750600082145b9050949350505050565b6000838311158290613c86576040517f08c379a00000000000000000000000000000000000000000000000000000000081526004018080602001828103825283818151815260200191508051906020019080838360005b83811015613c4b578082015181840152602081019050613c30565b50505050905090810190601f168015613c785780820380516001836020036101000a031916815260200191505b509250505060405180910390fd5b5060008385039050809150509392505050565b600080828401905083811015613d17576040517f08c379a000000000000000000000000000000000000000000000000000000000815260040180806020018281038252601b8152602001807f536166654d6174683a206164646974696f6e206f766572666c6f77000000000081525060200191505060405180910390fd5b8091505092915050565b600080831415613d345760009050613da1565b6000828402905082848281613d4557fe5b0414613d9c576040517f08c379a00000000000000000000000000000000000000000000000000000000081526004018080602001828103825260218152602001806140ba6021913960400191505060405180910390fd5b809150505b92915050565b6000613de983836040518060400160405280601a81526020017f536166654d6174683a206469766973696f6e206279207a65726f000000000000815250613e3c565b905092915050565b60008060007fc5d2460186f7233c927e7db2dcc703c0e500b653ca82273b7bfad8045d85a47060001b9050833f91506000801b8214158015613e335750808214155b92505050919050565b60008083118290613ee8576040517f08c379a00000000000000000000000000000000000000000000000000000000081526004018080602001828103825283818151815260200191508051906020019080838360005b83811015613ead578082015181840152602081019050613e92565b50505050905090810190601f168015613eda5780820380516001836020036101000a031916815260200191505b509250505060405180910390fd5b506000838581613ef457fe5b04905080915050939250505056fe455243313135353a2062616c616e636520717565727920666f7220746865207a65726f20616464726573734f776e61626c653a206e6577206f776e657220697320746865207a65726f2061646472657373455243313135353a207461726765742061646472657373206d757374206265206e6f6e2d7a65726f5374617368426c6f783a20616c6c206c69737473206d75737420686176652073616d65206c656e67746873455243313135353a2063616e6e6f742073657420617070726f76616c2073746174757320666f722073656c664d696e7461626c653a2063616c6c6572206973206e6f74206120746f6b656e697a6572455243313135353a206163636f756e747320616e6420494473206d75737420686176652073616d65206c656e67746873455243313135353a20676f7420756e6b6e6f776e2076616c75652066726f6d206f6e4552433131353542617463685265636569766564455243313135353a20736f6d65206164647265737320696e2062617463682062616c616e6365207175657279206973207a65726f455243313135353a20696e73756666696369656e742062616c616e636520666f72207472616e73666572536166654d6174683a206d756c7469706c69636174696f6e206f766572666c6f77455243313135353a206e656564206f70657261746f7220617070726f76616c20666f7220337264207061727479207472616e7366657273455243313135353a2049447320616e642076616c756573206d75737420686176652073616d65206c656e67746873455243313135353a20676f7420756e6b6e6f776e2076616c75652066726f6d206f6e455243313135355265636569766564455243313135353a20696e73756666696369656e742045544820666f72207472616e736665722066656573a265627a7a72315820056b4ed1cb1c73a485b44eab86f8d2013b5693a4814ad878f20b06dfcf9a0a5264736f6c634300050c00324f776e61626c653a206e6577206f776e657220697320746865207a65726f2061646472657373",
  "source": "pragma solidity ^0.5.12;\n// pragma experimental ABIEncoderV2;\n\nimport './ERC1155.sol';\nimport './ERC1155Metadata.sol';\nimport '../ERC173/ERC173.sol';\nimport '../utils/StringUtils.sol';\n\ncontract ERC1155Mintable is ERC1155, ERC1155Metadata {\n\n    // Mapping from token ID to Supply\n    mapping (uint256 => uint256) internal _supplies;\n    mapping (address => bool) private _authorizedTokenizers;\n\n\n    function authorizeTokenizer(address tokenizer) external onlyOwner {\n        _authorizedTokenizers[tokenizer] = true;\n    }\n\n    function revokeTokenizer(address tokenizer) external onlyOwner {\n        _authorizedTokenizers[tokenizer] = false;\n    }\n\n    function _isTokenizer(address tokenizer) internal view returns (bool) {\n        return _authorizedTokenizers[tokenizer] || _isOwner();\n    }\n\n    function isTokenizer(address tokenizer) external view returns (bool) {\n        return _isTokenizer(tokenizer);\n    }\n\n    modifier onlyTokenizer() {\n        require(_isTokenizer(msg.sender), \"Mintable: caller is not a tokenizer\");\n        _;\n    }\n\n    /**\n     * @dev Function to mint an amount of a token with the given ID.\n     * @param ids ID of the token to be minted\n     * @param recipients The addresses that will own the minted token\n     * @param values Amount of the token to be minted for each recipient\n     * @param metadataHashes Metadata files hashes\n     * @param storagePrices price for 24h storage\n     */\n    function createTokens(uint256[] calldata ids,\n                          address[] calldata recipients,\n                          uint256[] calldata values,\n                          uint256[] calldata metadataHashes,\n                          uint256[] calldata storagePrices)\n    external onlyTokenizer {\n\n        require(ids.length == recipients.length &&\n                recipients.length == values.length &&\n                values.length == metadataHashes.length, \"StashBlox: all lists must have same lengths\");\n\n        for (uint256 i = 0; i < ids.length; ++i)\n            require(_supplies[ids[i]] == 0, \"StashBlox: Token already minted\");\n\n        for (uint256 i = 0; i < ids.length; ++i) {\n            uint256 id = ids[i];\n            address to = recipients[i];\n            uint256 value = values[i];\n            _supplies[id] = value;\n            _storagePrices[id] = storagePrices[i];\n            _balances[id][to] = value;\n            _tokensByAddress[to].push(id);\n            emit TransferSingle(msg.sender, address(0), to, id, value);\n            _updateMetadataHash(id, metadataHashes[i]);\n            // emit URI(uri, id);\n        }\n    }\n\n    \n\n    function updateMetadataHash(uint256 id,\n                                uint256 metadataHash)\n    external onlyTokenizer {\n        _updateMetadataHash(id, metadataHash);\n    }\n\n    /**\n     * @param id Token ID\n     * @return Token supply\n     */\n    function totalSupply(uint256 id) external view returns (uint256) {\n        return _supplies[id];\n    }\n}\n",
  "sourcePath": "/home/ouziel/Work/StashBloxContracts/contracts/lib/ERC1155/ERC1155Mintable.sol",
  "compiler": {
    "name": "solc",
    "version": "0.5.12+commit.7709ece9.Emscripten.clang"
  },
  "schemaVersion": "3.0.16",
  "updatedAt": "2020-07-27T17:12:25.477Z",
  "devdoc": {
    "methods": {
      "balanceOf(address,uint256)": {
        "details": "Get the specified address' balance for token with specified ID. Attempting to query the zero account for a balance will result in a revert.",
        "params": {
          "account": "The address of the token holder",
          "id": "ID of the token"
        },
        "return": "The account's balance of the token type requested"
      },
      "balanceOfBatch(address[],uint256[])": {
        "details": "Get the balance of multiple account/token pairs. If any of the query accounts is the zero account, this query will revert.",
        "params": {
          "accounts": "The addresses of the token holders",
          "ids": "IDs of the tokens"
        },
        "return": "Balances for each account and token id pair"
      },
      "createTokens(uint256[],address[],uint256[],uint256[],uint256[])": {
        "details": "Function to mint an amount of a token with the given ID.",
        "params": {
          "ids": "ID of the token to be minted",
          "metadataHashes": "Metadata files hashes",
          "recipients": "The addresses that will own the minted token",
          "storagePrices": "price for 24h storage",
          "values": "Amount of the token to be minted for each recipient"
        }
      },
      "isApprovedForAll(address,address)": {
        "params": {
          "account": "The account of the Tokens",
          "operator": "Address of authorized operator"
        },
        "return": "True if the operator is approved, false if not"
      },
      "owner()": {
        "details": "Returns the address of the current owner."
      },
      "safeBatchTransferFrom(address,address,uint256[],uint256[],bytes)": {
        "details": "Transfers `values` amount(s) of `ids` from the `from` address to the `to` address specified. Caller must be approved to manage the tokens being transferred out of the `from` account. If `to` is a smart contract, will call `onERC1155BatchReceived` on `to` and act appropriately.",
        "params": {
          "data": "Data forwarded to `onERC1155Received` if `to` is a contract receiver",
          "from": "Source address",
          "ids": "IDs of each token type",
          "to": "Target address",
          "values": "Transfer amounts per token type"
        }
      },
      "safeTransferFrom(address,address,uint256,uint256,bytes)": {
        "details": "Transfers `value` amount of an `id` from the `from` address to the `to` address specified. Caller must be approved to manage the tokens being transferred out of the `from` account. If `to` is a smart contract, will call `onERC1155Received` on `to` and act appropriately.",
        "params": {
          "data": "Data forwarded to `onERC1155Received` if `to` is a contract receiver",
          "from": "Source address",
          "id": "ID of the token type",
          "to": "Target address",
          "value": "Transfer amount"
        }
      },
      "setApprovalForAll(address,bool)": {
        "details": "Sets or unsets the approval of a given operator.     * An operator is allowed to transfer all tokens of the sender on their behalf.     * Because an account already has operator privileges for itself, this function will revert if the account attempts to set the approval status for itself.",
        "params": {
          "approved": "representing the status of the approval to be set",
          "operator": "address to set the approval"
        }
      },
      "supportsInterface(bytes4)": {
        "params": {
          "_interfaceID": "The interface identifier, as specified in ERC-165"
        },
        "return": "`true` if the contract implements `_interfaceID` and"
      },
      "totalSupply(uint256)": {
        "params": {
          "id": "Token ID"
        },
        "return": "Token supply"
      },
      "transferOwnership(address)": {
        "details": "Transfers ownership of the contract to a new account (`newOwner`). Can only be called by the current owner."
      },
      "uri(uint256)": {
        "params": {
          "id": "Token ID"
        },
        "return": "URI string"
      }
    }
  },
  "userdoc": {
    "methods": {
      "isApprovedForAll(address,address)": {
        "notice": "Queries the approval status of an operator for a given account."
      },
      "supportsInterface(bytes4)": {
        "notice": "Query if a contract implements an interface"
      }
    }
  }
}