{
  "contractName": "ERC1155Documents",
  "abi": [
    {
      "anonymous": false,
      "inputs": [
        {
          "indexed": true,
          "internalType": "uint256",
          "name": "id",
          "type": "uint256"
        },
        {
          "indexed": false,
          "internalType": "uint256",
          "name": "hash",
          "type": "uint256"
        },
        {
          "indexed": false,
          "internalType": "string",
          "name": "name",
          "type": "string"
        }
      ],
      "name": "DocumentAdded",
      "type": "event"
    },
    {
      "anonymous": false,
      "inputs": [
        {
          "indexed": true,
          "internalType": "address",
          "name": "previousOwner",
          "type": "address"
        },
        {
          "indexed": true,
          "internalType": "address",
          "name": "newOwner",
          "type": "address"
        }
      ],
      "name": "OwnershipTransferred",
      "type": "event"
    },
    {
      "constant": true,
      "inputs": [],
      "name": "DOCUMENTS_BASE_URI",
      "outputs": [
        {
          "internalType": "string",
          "name": "",
          "type": "string"
        }
      ],
      "payable": false,
      "stateMutability": "view",
      "type": "function"
    },
    {
      "constant": true,
      "inputs": [],
      "name": "owner",
      "outputs": [
        {
          "internalType": "address",
          "name": "",
          "type": "address"
        }
      ],
      "payable": false,
      "stateMutability": "view",
      "type": "function"
    },
    {
      "constant": false,
      "inputs": [
        {
          "internalType": "address",
          "name": "newOwner",
          "type": "address"
        }
      ],
      "name": "transferOwnership",
      "outputs": [],
      "payable": false,
      "stateMutability": "nonpayable",
      "type": "function"
    },
    {
      "constant": false,
      "inputs": [
        {
          "internalType": "uint256",
          "name": "id",
          "type": "uint256"
        },
        {
          "internalType": "uint256",
          "name": "docHash",
          "type": "uint256"
        },
        {
          "internalType": "string",
          "name": "docName",
          "type": "string"
        }
      ],
      "name": "addDocument",
      "outputs": [],
      "payable": false,
      "stateMutability": "nonpayable",
      "type": "function"
    },
    {
      "constant": true,
      "inputs": [
        {
          "internalType": "uint256",
          "name": "docHash",
          "type": "uint256"
        }
      ],
      "name": "documentUri",
      "outputs": [
        {
          "internalType": "string",
          "name": "",
          "type": "string"
        }
      ],
      "payable": false,
      "stateMutability": "pure",
      "type": "function"
    }
  ],
  "bytecode": "0x60806040526100133361001860201b60201c565b6101dd565b600073ffffffffffffffffffffffffffffffffffffffff168173ffffffffffffffffffffffffffffffffffffffff161415610088576040517f08c379a000000000000000000000000000000000000000000000000000000000815260040161007f906101ac565b60405180910390fd5b8073ffffffffffffffffffffffffffffffffffffffff166000809054906101000a900473ffffffffffffffffffffffffffffffffffffffff1673ffffffffffffffffffffffffffffffffffffffff167f8be0079c531659141344cd1fd0a4f28419497f9722a3daafe3b4186f6b6457e060405160405180910390a3806000806101000a81548173ffffffffffffffffffffffffffffffffffffffff021916908373ffffffffffffffffffffffffffffffffffffffff16021790555050565b60006101536026836101cc565b91507f4f776e61626c653a206e6577206f776e657220697320746865207a65726f206160008301527f64647265737300000000000000000000000000000000000000000000000000006020830152604082019050919050565b600060208201905081810360008301526101c581610146565b9050919050565b600082825260208201905092915050565b610c75806101ec6000396000f3fe608060405234801561001057600080fd5b50600436106100575760003560e01c806361feed5c1461005c57806364d7e0531461007a5780638842ec22146100aa5780638da5cb5b146100c6578063f2fde38b146100e4575b600080fd5b610064610100565b6040516100719190610aa9565b60405180910390f35b610094600480360361008f91908101906108c3565b610139565b6040516100a19190610acb565b60405180910390f35b6100c460048036036100bf91908101906108ec565b610189565b005b6100ce610225565b6040516100db9190610a8e565b60405180910390f35b6100fe60048036036100f9919081019061089a565b61024e565b005b6040518060400160405280602081526020017f68747470733a2f2f7374617368626c6f782e636f6d2f646f63756d656e74732f81525081565b60606101826040518060400160405280602081526020017f68747470733a2f2f7374617368626c6f782e636f6d2f646f63756d656e74732f81525061017d846102a1565b610390565b9050919050565b6101916104db565b6101d0576040517f08c379a00000000000000000000000000000000000000000000000000000000081526004016101c790610b0d565b60405180910390fd5b61021f848484848080601f016020809104026020016040519081016040528093929190818152602001838380828437600081840152601f19601f82011690508083019250505050505050610532565b50505050565b60008060009054906101000a900473ffffffffffffffffffffffffffffffffffffffff16905090565b6102566104db565b610295576040517f08c379a000000000000000000000000000000000000000000000000000000000815260040161028c90610b0d565b60405180910390fd5b61029e816105aa565b50565b6060600080905060008390505b600081146102d0578180600101925050601081816102c857fe5b0490506102ae565b6060826040519080825280601f01601f1916602001820160405280156103055781602001600182028038833980820191505090505b50905060008090505b83811015610384576010868161032057fe5b06925061032c836106d8565b826001838703038151811061033d57fe5b60200101907effffffffffffffffffffffffffffffffffffffffffffffffffffffffffffff1916908160001a9053506010868161037657fe5b04955080600101905061030e565b50809350505050919050565b6060808390506060839050606081518351016040519080825280601f01601f1916602001820160405280156103d45781602001600182028038833980820191505090505b509050606081905060008090506000809050600090505b85518110156104595785818151811061040057fe5b602001015160f81c60f81b83838060010194508151811061041d57fe5b60200101907effffffffffffffffffffffffffffffffffffffffffffffffffffffffffffff1916908160001a90535080806001019150506103eb565b600090505b84518110156104cc5784818151811061047357fe5b602001015160f81c60f81b83838060010194508151811061049057fe5b60200101907effffffffffffffffffffffffffffffffffffffffffffffffffffffffffffff1916908160001a905350808060010191505061045e565b82965050505050505092915050565b60008060009054906101000a900473ffffffffffffffffffffffffffffffffffffffff1673ffffffffffffffffffffffffffffffffffffffff163373ffffffffffffffffffffffffffffffffffffffff1614905090565b80600160008581526020019081526020016000206000848152602001908152602001600020908051906020019061056a929190610781565b50827f7c77b0a5e04b8b0a37a64aa8dd7a24c2cdfb5f2302c065c6044b33077b96abaa838360405161059d929190610b2d565b60405180910390a2505050565b600073ffffffffffffffffffffffffffffffffffffffff168173ffffffffffffffffffffffffffffffffffffffff16141561061a576040517f08c379a000000000000000000000000000000000000000000000000000000000815260040161061190610aed565b60405180910390fd5b8073ffffffffffffffffffffffffffffffffffffffff166000809054906101000a900473ffffffffffffffffffffffffffffffffffffffff1673ffffffffffffffffffffffffffffffffffffffff167f8be0079c531659141344cd1fd0a4f28419497f9722a3daafe3b4186f6b6457e060405160405180910390a3806000806101000a81548173ffffffffffffffffffffffffffffffffffffffff021916908373ffffffffffffffffffffffffffffffffffffffff16021790555050565b60008160ff166000111580156106f2575060098260ff1611155b1561072757817f300000000000000000000000000000000000000000000000000000000000000060f81c0160f81b905061077c565b8160ff16600a1115801561073f5750600f8260ff1611155b1561077757600a827f610000000000000000000000000000000000000000000000000000000000000060f81c010360f81b905061077c565b600080fd5b919050565b828054600181600116156101000203166002900490600052602060002090601f016020900481019282601f106107c257805160ff19168380011785556107f0565b828001600101855582156107f0579182015b828111156107ef5782518255916020019190600101906107d4565b5b5090506107fd9190610801565b5090565b61082391905b8082111561081f576000816000905550600101610807565b5090565b90565b60008135905061083581610c04565b92915050565b60008083601f84011261084d57600080fd5b8235905067ffffffffffffffff81111561086657600080fd5b60208301915083600182028301111561087e57600080fd5b9250929050565b60008135905061089481610c1b565b92915050565b6000602082840312156108ac57600080fd5b60006108ba84828501610826565b91505092915050565b6000602082840312156108d557600080fd5b60006108e384828501610885565b91505092915050565b6000806000806060858703121561090257600080fd5b600061091087828801610885565b945050602061092187828801610885565b935050604085013567ffffffffffffffff81111561093e57600080fd5b61094a8782880161083b565b925092505092959194509250565b61096181610b84565b82525050565b600061097282610b68565b61097c8185610b73565b935061098c818560208601610bc0565b61099581610bf3565b840191505092915050565b60006109ab82610b5d565b6109b58185610b73565b93506109c5818560208601610bc0565b6109ce81610bf3565b840191505092915050565b60006109e6602683610b73565b91507f4f776e61626c653a206e6577206f776e657220697320746865207a65726f206160008301527f64647265737300000000000000000000000000000000000000000000000000006020830152604082019050919050565b6000610a4c602083610b73565b91507f4f776e61626c653a2063616c6c6572206973206e6f7420746865206f776e65726000830152602082019050919050565b610a8881610bb6565b82525050565b6000602082019050610aa36000830184610958565b92915050565b60006020820190508181036000830152610ac381846109a0565b905092915050565b60006020820190508181036000830152610ae58184610967565b905092915050565b60006020820190508181036000830152610b06816109d9565b9050919050565b60006020820190508181036000830152610b2681610a3f565b9050919050565b6000604082019050610b426000830185610a7f565b8181036020830152610b548184610967565b90509392505050565b600081519050919050565b600081519050919050565b600082825260208201905092915050565b6000610b8f82610b96565b9050919050565b600073ffffffffffffffffffffffffffffffffffffffff82169050919050565b6000819050919050565b60005b83811015610bde578082015181840152602081019050610bc3565b83811115610bed576000848401525b50505050565b6000601f19601f8301169050919050565b610c0d81610b84565b8114610c1857600080fd5b50565b610c2481610bb6565b8114610c2f57600080fd5b5056fea365627a7a723158202fad3fea536bdb8d285ecfc36b44e40fb2df7c18f1863bd3c39f909d049c6e916c6578706572696d656e74616cf564736f6c634300050c0040",
  "source": "pragma solidity ^0.5.12;\npragma experimental ABIEncoderV2;\n\nimport '../utils/StringUtils.sol';\nimport \"../ERC173/ERC173.sol\";\n\ncontract ERC1155Documents is ERC173, StringUtils {\n\n    string constant public DOCUMENTS_BASE_URI = \"https://stashblox.com/documents/\";\n\n    // Mapping tokenID => (hash => name) to documents\n    mapping (uint256 => mapping(uint256 => string)) _documents;\n\n    /**\n        @dev MUST emit when a document is added for a token ID.\n    */\n    event DocumentAdded(uint256 indexed id, uint256 hash, string name);\n\n    function _addDocument(uint256 id,\n                          uint256 docHash,\n                          string memory docName)\n    internal {\n        _documents[id][docHash] = docName;\n        emit DocumentAdded(id, docHash, docName);\n    }\n\n    function addDocument(uint256 id,\n                         uint256 docHash,\n                         string calldata docName)\n    external onlyOwner {\n        _addDocument(id, docHash, docName);\n    }\n\n    function documentUri(uint256 docHash) external pure returns (string memory) {\n        return _strConcat(DOCUMENTS_BASE_URI, _toHexString(docHash));\n    }\n\n}\n",
  "sourcePath": "/home/ouziel/Work/StashBloxContracts/contracts/lib/ERC1155/ERC1155Documents.sol",
  "compiler": {
    "name": "solc",
    "version": "0.5.12+commit.7709ece9.Emscripten.clang"
  },
  "schemaVersion": "3.0.16",
  "updatedAt": "2019-11-16T16:20:46.260Z",
  "devdoc": {
    "methods": {
      "owner()": {
        "details": "Returns the address of the current owner."
      },
      "transferOwnership(address)": {
        "details": "Transfers ownership of the contract to a new account (`newOwner`). Can only be called by the current owner."
      }
    }
  },
  "userdoc": {
    "methods": {}
  }
}