{
  "contractName": "ERC1155Metadata",
  "abi": [
    {
      "anonymous": false,
      "inputs": [
        {
          "indexed": true,
          "internalType": "uint256",
          "name": "_id",
          "type": "uint256"
        },
        {
          "indexed": true,
          "internalType": "uint256",
          "name": "_hash",
          "type": "uint256"
        }
      ],
      "name": "MetadataHashUpdated",
      "type": "event"
    },
    {
      "inputs": [],
      "name": "BASE_URI",
      "outputs": [
        {
          "internalType": "string",
          "name": "",
          "type": "string"
        }
      ],
      "stateMutability": "view",
      "type": "function"
    },
    {
      "inputs": [
        {
          "internalType": "uint256",
          "name": "id",
          "type": "uint256"
        }
      ],
      "name": "uri",
      "outputs": [
        {
          "internalType": "string",
          "name": "",
          "type": "string"
        }
      ],
      "stateMutability": "pure",
      "type": "function"
    },
    {
      "inputs": [
        {
          "internalType": "uint256",
          "name": "id",
          "type": "uint256"
        }
      ],
      "name": "metadataHash",
      "outputs": [
        {
          "internalType": "uint256",
          "name": "",
          "type": "uint256"
        }
      ],
      "stateMutability": "view",
      "type": "function"
    }
  ],
  "bytecode": "0x608060405234801561001057600080fd5b506103eb806100206000396000f3fe608060405234801561001057600080fd5b50600436106100415760003560e01c80630e89341c14610046578063219cc8bc146100d8578063dbddb26a14610107575b600080fd5b6100636004803603602081101561005c57600080fd5b503561010f565b6040805160208082528351818301528351919283929083019185019080838360005b8381101561009d578181015183820152602001610085565b50505050905090810190601f1680156100ca5780820380516001836020036101000a031916815260200191505b509250505060405180910390f35b6100f5600480360360208110156100ee57600080fd5b5035610160565b60408051918252519081900360200190f35b610063610172565b60606101586040518060400160405280601d81526020017f68747470733a2f2f7374617368626c6f782e636f6d2f746f6b656e732f000000815250610153846101ab565b610267565b90505b919050565b60009081526020819052604090205490565b6040518060400160405280601d81526020017f68747470733a2f2f7374617368626c6f782e636f6d2f746f6b656e732f00000081525081565b60606000825b80156101c75760019190910190601090046101b1565b60608267ffffffffffffffff811180156101e057600080fd5b506040519080825280601f01601f19166020018201604052801561020b576020820181803683370190505b50905060005b8381101561025e5760108606925061022883610371565b826001838703038151811061023957fe5b60200101906001600160f81b031916908160001a905350601086049550600101610211565b50949350505050565b805182516060918491849184910167ffffffffffffffff8111801561028b57600080fd5b506040519080825280601f01601f1916602001820160405280156102b6576020820181803683370190505b509050806000805b855181101561030f578581815181106102d357fe5b602001015160f81c60f81b8383806001019450815181106102f057fe5b60200101906001600160f81b031916908160001a9053506001016102be565b5060005b84518110156103645784818151811061032857fe5b602001015160f81c60f81b83838060010194508151811061034557fe5b60200101906001600160f81b031916908160001a905350600101610313565b5090979650505050505050565b600060098260ff161161038b57506030810160f81b61015b565b8160ff16600a111580156103a35750600f8260ff1611155b1561004157506057810160f81b61015b56fea2646970667358221220704bc798ba02d9095de799def3f94eea194716e98f4c991104f32a4aeb15072364736f6c63430007010033",
  "immutableReferences": {},
  "source": "// SPDX-License-Identifier: MIT\n\npragma solidity ^0.7.1;\n\nimport '../ERC1155/IERC1155Metadata.sol';\nimport '../utils/StringUtils.sol';\n\ncontract ERC1155Metadata is IERC1155Metadata, StringUtils {\n\n    // Mapping from token ID to URI\n    string constant public BASE_URI = \"https://stashblox.com/tokens/\";\n\n    mapping (uint256 => uint256) internal _metadataHashes;\n\n\n    event MetadataHashUpdated(uint256 indexed _id, uint256 indexed _hash);\n\n    /**\n     * @param id Token ID\n     * @return URI string\n     */\n    function uri(uint256 id) external pure override returns (string memory) {\n        return _strConcat(BASE_URI, _toHexString(id));\n    }\n\n    function metadataHash(uint256 id) external view returns (uint256) {\n        return _metadataHashes[id];\n    }\n\n    function _updateMetadataHash(uint256 id, uint256 hash) internal {\n         _metadataHashes[id] = hash;\n         emit MetadataHashUpdated(id, hash);\n    }\n\n}\n",
  "sourcePath": "/home/ouziel/Work/StashBloxContracts/contracts/lib/ERC1155/ERC1155Metadata.sol",
  "compiler": {
    "name": "solc",
    "version": "0.7.1+commit.f4a555be.Emscripten.clang"
  },
  "schemaVersion": "3.2.3",
  "updatedAt": "2020-10-02T16:06:25.427Z",
  "devdoc": {
    "kind": "dev",
    "methods": {
      "uri(uint256)": {
        "params": {
          "id": "Token ID"
        },
        "returns": {
          "_0": "URI string"
        }
      }
    },
    "version": 1
  },
  "userdoc": {
    "kind": "user",
    "methods": {},
    "version": 1
  }
}