{
  "contractName": "ERC1155Mintable",
  "abi": [
    {
      "anonymous": false,
      "inputs": [
        {
          "indexed": true,
          "internalType": "address",
          "name": "_owner",
          "type": "address"
        },
        {
          "indexed": true,
          "internalType": "address",
          "name": "_operator",
          "type": "address"
        },
        {
          "indexed": false,
          "internalType": "bool",
          "name": "_approved",
          "type": "bool"
        }
      ],
      "name": "ApprovalForAll",
      "type": "event"
    },
    {
      "anonymous": false,
      "inputs": [
        {
          "indexed": true,
          "internalType": "uint256",
          "name": "_id",
          "type": "uint256"
        },
        {
          "indexed": true,
          "internalType": "uint256",
          "name": "_hash",
          "type": "uint256"
        }
      ],
      "name": "MetadataHashUpdated",
      "type": "event"
    },
    {
      "anonymous": false,
      "inputs": [
        {
          "indexed": true,
          "internalType": "address",
          "name": "previousOwner",
          "type": "address"
        },
        {
          "indexed": true,
          "internalType": "address",
          "name": "newOwner",
          "type": "address"
        }
      ],
      "name": "OwnershipTransferred",
      "type": "event"
    },
    {
      "anonymous": false,
      "inputs": [
        {
          "indexed": true,
          "internalType": "address",
          "name": "_operator",
          "type": "address"
        },
        {
          "indexed": true,
          "internalType": "address",
          "name": "_from",
          "type": "address"
        },
        {
          "indexed": true,
          "internalType": "address",
          "name": "_to",
          "type": "address"
        },
        {
          "indexed": false,
          "internalType": "uint256[]",
          "name": "_ids",
          "type": "uint256[]"
        },
        {
          "indexed": false,
          "internalType": "uint256[]",
          "name": "_values",
          "type": "uint256[]"
        }
      ],
      "name": "TransferBatch",
      "type": "event"
    },
    {
      "anonymous": false,
      "inputs": [
        {
          "indexed": true,
          "internalType": "address",
          "name": "_operator",
          "type": "address"
        },
        {
          "indexed": true,
          "internalType": "address",
          "name": "_from",
          "type": "address"
        },
        {
          "indexed": true,
          "internalType": "address",
          "name": "_to",
          "type": "address"
        },
        {
          "indexed": false,
          "internalType": "uint256",
          "name": "_id",
          "type": "uint256"
        },
        {
          "indexed": false,
          "internalType": "uint256",
          "name": "_value",
          "type": "uint256"
        }
      ],
      "name": "TransferSingle",
      "type": "event"
    },
    {
      "anonymous": false,
      "inputs": [
        {
          "indexed": false,
          "internalType": "string",
          "name": "_value",
          "type": "string"
        },
        {
          "indexed": true,
          "internalType": "uint256",
          "name": "_id",
          "type": "uint256"
        }
      ],
      "name": "URI",
      "type": "event"
    },
    {
      "anonymous": false,
      "inputs": [
        {
          "indexed": true,
          "internalType": "address",
          "name": "_tokenizer",
          "type": "address"
        },
        {
          "indexed": false,
          "internalType": "uint256",
          "name": "_id",
          "type": "uint256"
        },
        {
          "indexed": false,
          "internalType": "uint256",
          "name": "_cost",
          "type": "uint256"
        }
      ],
      "name": "UpdateStorageCost",
      "type": "event"
    },
    {
      "anonymous": false,
      "inputs": [
        {
          "indexed": true,
          "internalType": "address",
          "name": "_owner",
          "type": "address"
        },
        {
          "indexed": false,
          "internalType": "uint256",
          "name": "_price",
          "type": "uint256"
        }
      ],
      "name": "UpdateStorageCreditPrice",
      "type": "event"
    },
    {
      "constant": true,
      "inputs": [],
      "name": "BASE_URI",
      "outputs": [
        {
          "internalType": "string",
          "name": "",
          "type": "string"
        }
      ],
      "payable": false,
      "stateMutability": "view",
      "type": "function"
    },
    {
      "constant": true,
      "inputs": [
        {
          "internalType": "uint256",
          "name": "id",
          "type": "uint256"
        }
      ],
      "name": "addressesByToken",
      "outputs": [
        {
          "internalType": "string",
          "name": "result",
          "type": "string"
        }
      ],
      "payable": false,
      "stateMutability": "view",
      "type": "function"
    },
    {
      "constant": true,
      "inputs": [
        {
          "internalType": "address",
          "name": "account",
          "type": "address"
        },
        {
          "internalType": "uint256",
          "name": "id",
          "type": "uint256"
        }
      ],
      "name": "balanceOf",
      "outputs": [
        {
          "internalType": "uint256",
          "name": "",
          "type": "uint256"
        }
      ],
      "payable": false,
      "stateMutability": "view",
      "type": "function"
    },
    {
      "constant": true,
      "inputs": [
        {
          "internalType": "address[]",
          "name": "accounts",
          "type": "address[]"
        },
        {
          "internalType": "uint256[]",
          "name": "ids",
          "type": "uint256[]"
        }
      ],
      "name": "balanceOfBatch",
      "outputs": [
        {
          "internalType": "uint256[]",
          "name": "",
          "type": "uint256[]"
        }
      ],
      "payable": false,
      "stateMutability": "view",
      "type": "function"
    },
    {
      "constant": true,
      "inputs": [
        {
          "internalType": "address",
          "name": "account",
          "type": "address"
        },
        {
          "internalType": "uint256",
          "name": "id",
          "type": "uint256"
        }
      ],
      "name": "birthdayOf",
      "outputs": [
        {
          "internalType": "uint256",
          "name": "",
          "type": "uint256"
        }
      ],
      "payable": false,
      "stateMutability": "view",
      "type": "function"
    },
    {
      "constant": true,
      "inputs": [
        {
          "internalType": "address",
          "name": "account",
          "type": "address"
        }
      ],
      "name": "ethBalanceOf",
      "outputs": [
        {
          "internalType": "uint256",
          "name": "",
          "type": "uint256"
        }
      ],
      "payable": false,
      "stateMutability": "view",
      "type": "function"
    },
    {
      "constant": true,
      "inputs": [
        {
          "internalType": "address",
          "name": "account",
          "type": "address"
        },
        {
          "internalType": "address",
          "name": "operator",
          "type": "address"
        }
      ],
      "name": "isApprovedForAll",
      "outputs": [
        {
          "internalType": "bool",
          "name": "",
          "type": "bool"
        }
      ],
      "payable": false,
      "stateMutability": "view",
      "type": "function"
    },
    {
      "constant": true,
      "inputs": [
        {
          "internalType": "address",
          "name": "addr",
          "type": "address"
        }
      ],
      "name": "isLockedAddress",
      "outputs": [
        {
          "internalType": "bool",
          "name": "",
          "type": "bool"
        }
      ],
      "payable": false,
      "stateMutability": "view",
      "type": "function"
    },
    {
      "constant": true,
      "inputs": [
        {
          "internalType": "uint256",
          "name": "id",
          "type": "uint256"
        }
      ],
      "name": "isLockedToken",
      "outputs": [
        {
          "internalType": "bool",
          "name": "",
          "type": "bool"
        }
      ],
      "payable": false,
      "stateMutability": "view",
      "type": "function"
    },
    {
      "constant": false,
      "inputs": [
        {
          "internalType": "address",
          "name": "addr",
          "type": "address"
        }
      ],
      "name": "lockAddress",
      "outputs": [],
      "payable": false,
      "stateMutability": "nonpayable",
      "type": "function"
    },
    {
      "constant": false,
      "inputs": [
        {
          "internalType": "uint256",
          "name": "id",
          "type": "uint256"
        }
      ],
      "name": "lockToken",
      "outputs": [],
      "payable": false,
      "stateMutability": "nonpayable",
      "type": "function"
    },
    {
      "constant": true,
      "inputs": [
        {
          "internalType": "uint256",
          "name": "id",
          "type": "uint256"
        }
      ],
      "name": "metadataHash",
      "outputs": [
        {
          "internalType": "uint256",
          "name": "",
          "type": "uint256"
        }
      ],
      "payable": false,
      "stateMutability": "view",
      "type": "function"
    },
    {
      "constant": true,
      "inputs": [],
      "name": "owner",
      "outputs": [
        {
          "internalType": "address",
          "name": "",
          "type": "address"
        }
      ],
      "payable": false,
      "stateMutability": "view",
      "type": "function"
    },
    {
      "constant": false,
      "inputs": [
        {
          "internalType": "address",
          "name": "from",
          "type": "address"
        },
        {
          "internalType": "address",
          "name": "to",
          "type": "address"
        },
        {
          "internalType": "uint256[]",
          "name": "ids",
          "type": "uint256[]"
        },
        {
          "internalType": "uint256[]",
          "name": "values",
          "type": "uint256[]"
        },
        {
          "internalType": "bytes",
          "name": "data",
          "type": "bytes"
        }
      ],
      "name": "safeBatchTransferFrom",
      "outputs": [],
      "payable": true,
      "stateMutability": "payable",
      "type": "function"
    },
    {
      "constant": false,
      "inputs": [
        {
          "internalType": "address",
          "name": "from",
          "type": "address"
        },
        {
          "internalType": "address",
          "name": "to",
          "type": "address"
        },
        {
          "internalType": "uint256",
          "name": "id",
          "type": "uint256"
        },
        {
          "internalType": "uint256",
          "name": "value",
          "type": "uint256"
        },
        {
          "internalType": "bytes",
          "name": "data",
          "type": "bytes"
        }
      ],
      "name": "safeTransferFrom",
      "outputs": [],
      "payable": true,
      "stateMutability": "payable",
      "type": "function"
    },
    {
      "constant": false,
      "inputs": [
        {
          "internalType": "address",
          "name": "operator",
          "type": "address"
        },
        {
          "internalType": "bool",
          "name": "approved",
          "type": "bool"
        }
      ],
      "name": "setApprovalForAll",
      "outputs": [],
      "payable": false,
      "stateMutability": "nonpayable",
      "type": "function"
    },
    {
      "constant": true,
      "inputs": [
        {
          "internalType": "address",
          "name": "account",
          "type": "address"
        },
        {
          "internalType": "uint256",
          "name": "id",
          "type": "uint256"
        },
        {
          "internalType": "uint256",
          "name": "value",
          "type": "uint256"
        }
      ],
      "name": "storageFees",
      "outputs": [
        {
          "internalType": "uint256",
          "name": "",
          "type": "uint256"
        }
      ],
      "payable": false,
      "stateMutability": "view",
      "type": "function"
    },
    {
      "constant": true,
      "inputs": [
        {
          "internalType": "bytes4",
          "name": "_interfaceID",
          "type": "bytes4"
        }
      ],
      "name": "supportsInterface",
      "outputs": [
        {
          "internalType": "bool",
          "name": "",
          "type": "bool"
        }
      ],
      "payable": false,
      "stateMutability": "view",
      "type": "function"
    },
    {
      "constant": true,
      "inputs": [
        {
          "internalType": "address",
          "name": "account",
          "type": "address"
        }
      ],
      "name": "tokensByAddress",
      "outputs": [
        {
          "internalType": "string",
          "name": "result",
          "type": "string"
        }
      ],
      "payable": false,
      "stateMutability": "view",
      "type": "function"
    },
    {
      "constant": false,
      "inputs": [
        {
          "internalType": "address",
          "name": "newOwner",
          "type": "address"
        }
      ],
      "name": "transferOwnership",
      "outputs": [],
      "payable": false,
      "stateMutability": "nonpayable",
      "type": "function"
    },
    {
      "constant": false,
      "inputs": [
        {
          "internalType": "address",
          "name": "addr",
          "type": "address"
        }
      ],
      "name": "unlockAddress",
      "outputs": [],
      "payable": false,
      "stateMutability": "nonpayable",
      "type": "function"
    },
    {
      "constant": false,
      "inputs": [
        {
          "internalType": "uint256",
          "name": "id",
          "type": "uint256"
        }
      ],
      "name": "unlockToken",
      "outputs": [],
      "payable": false,
      "stateMutability": "nonpayable",
      "type": "function"
    },
    {
      "constant": true,
      "inputs": [
        {
          "internalType": "uint256",
          "name": "id",
          "type": "uint256"
        }
      ],
      "name": "uri",
      "outputs": [
        {
          "internalType": "string",
          "name": "",
          "type": "string"
        }
      ],
      "payable": false,
      "stateMutability": "view",
      "type": "function"
    },
    {
      "constant": false,
      "inputs": [
        {
          "internalType": "address",
          "name": "tokenizer",
          "type": "address"
        }
      ],
      "name": "authorizeTokenizer",
      "outputs": [],
      "payable": false,
      "stateMutability": "nonpayable",
      "type": "function"
    },
    {
      "constant": false,
      "inputs": [
        {
          "internalType": "address",
          "name": "tokenizer",
          "type": "address"
        }
      ],
      "name": "revokeTokenizer",
      "outputs": [],
      "payable": false,
      "stateMutability": "nonpayable",
      "type": "function"
    },
    {
      "constant": true,
      "inputs": [
        {
          "internalType": "address",
          "name": "tokenizer",
          "type": "address"
        }
      ],
      "name": "isTokenizer",
      "outputs": [
        {
          "internalType": "bool",
          "name": "",
          "type": "bool"
        }
      ],
      "payable": false,
      "stateMutability": "view",
      "type": "function"
    },
    {
      "constant": false,
      "inputs": [
        {
          "internalType": "address",
          "name": "recipient",
          "type": "address"
        },
        {
          "internalType": "uint256",
          "name": "id",
          "type": "uint256"
        },
        {
          "internalType": "uint256",
          "name": "supply",
          "type": "uint256"
        },
        {
          "internalType": "uint256",
          "name": "metadataHash",
          "type": "uint256"
        },
        {
          "internalType": "uint256",
          "name": "storageCreditCost",
          "type": "uint256"
        },
        {
          "internalType": "uint256",
          "name": "minHoldingForCallback",
          "type": "uint256"
        },
        {
          "internalType": "address[]",
          "name": "feesRecipients",
          "type": "address[]"
        },
        {
          "internalType": "uint256[]",
          "name": "feesRecipientsPercentage",
          "type": "uint256[]"
        }
      ],
      "name": "createToken",
      "outputs": [],
      "payable": false,
      "stateMutability": "nonpayable",
      "type": "function"
    },
    {
      "constant": false,
      "inputs": [
        {
          "internalType": "uint256",
          "name": "id",
          "type": "uint256"
        },
        {
          "internalType": "uint256",
          "name": "metadataHash",
          "type": "uint256"
        }
      ],
      "name": "updateMetadataHash",
      "outputs": [],
      "payable": false,
      "stateMutability": "nonpayable",
      "type": "function"
    },
    {
      "constant": false,
      "inputs": [
        {
          "internalType": "uint256",
          "name": "newPrice",
          "type": "uint256"
        }
      ],
      "name": "updateStorageCreditPrice",
      "outputs": [],
      "payable": false,
      "stateMutability": "nonpayable",
      "type": "function"
    },
    {
      "constant": false,
      "inputs": [
        {
          "internalType": "uint256",
          "name": "id",
          "type": "uint256"
        },
        {
          "internalType": "uint256",
          "name": "newCost",
          "type": "uint256"
        }
      ],
      "name": "updateStorageCost",
      "outputs": [],
      "payable": false,
      "stateMutability": "nonpayable",
      "type": "function"
    },
    {
      "constant": false,
      "inputs": [
        {
          "internalType": "address",
          "name": "to",
          "type": "address"
        },
        {
          "internalType": "uint256",
          "name": "amount",
          "type": "uint256"
        }
      ],
      "name": "withdraw",
      "outputs": [],
      "payable": false,
      "stateMutability": "nonpayable",
      "type": "function"
    },
    {
      "constant": true,
      "inputs": [
        {
          "internalType": "uint256",
          "name": "id",
          "type": "uint256"
        }
      ],
      "name": "totalSupply",
      "outputs": [
        {
          "internalType": "uint256",
          "name": "",
          "type": "uint256"
        }
      ],
      "payable": false,
      "stateMutability": "view",
      "type": "function"
    }
  ],
  "bytecode": "0x60806040526103e86006556200001b336200002160201b60201c565b62000167565b600073ffffffffffffffffffffffffffffffffffffffff168173ffffffffffffffffffffffffffffffffffffffff161415620000a9576040517f08c379a0000000000000000000000000000000000000000000000000000000008152600401808060200182810382526026815260200180620056226026913960400191505060405180910390fd5b8073ffffffffffffffffffffffffffffffffffffffff166000809054906101000a900473ffffffffffffffffffffffffffffffffffffffff1673ffffffffffffffffffffffffffffffffffffffff167f8be0079c531659141344cd1fd0a4f28419497f9722a3daafe3b4186f6b6457e060405160405180910390a3806000806101000a81548173ffffffffffffffffffffffffffffffffffffffff021916908373ffffffffffffffffffffffffffffffffffffffff16021790555050565b6154ab80620001776000396000f3fe6080604052600436106101e25760003560e01c8063b5690ac111610102578063d6bc594211610095578063e985e9c511610064578063e985e9c51461100c578063f242432a14611095578063f2fde38b14611162578063f3fef3a3146111b3576101e2565b8063d6bc594214610e08578063dbddb26a14610ed2578063dd2e0ac014610f62578063e1c95f8a14610f9d576101e2565b8063c02f303c116100d1578063c02f303c14610b8f578063c4be3c3c14610bf8578063cba54e6014610c71578063cf6c97ca14610cda576101e2565b8063b5690ac1146109e8578063b7eb5e0a14610a9c578063bba75c8314610aed578063bd85b03914610b40576101e2565b80637252bbf21161017a5780638870147b116101495780638870147b1461089e5780638da5cb5b146108ef578063939cd64114610946578063a22cb4651461098b576101e2565b80637252bbf2146107725780637627b732146107d757806380f20363146108285780638495b14114610863576101e2565b80632eb2c2d6116101b65780632eb2c2d6146103cb57806334a90d021461052e5780634e1273f41461057f5780636b62becb1461072d576101e2565b8062fdd58e146101e757806301ffc9a7146102565780630e89341c146102c8578063219cc8bc1461037c575b600080fd5b3480156101f357600080fd5b506102406004803603604081101561020a57600080fd5b81019080803573ffffffffffffffffffffffffffffffffffffffff1690602001909291908035906020019092919050505061120e565b6040518082815260200191505060405180910390f35b34801561026257600080fd5b506102ae6004803603602081101561027957600080fd5b8101908080357bffffffffffffffffffffffffffffffffffffffffffffffffffffffff191690602001909291905050506112ee565b604051808215151515815260200191505060405180910390f35b3480156102d457600080fd5b50610301600480360360208110156102eb57600080fd5b810190808035906020019092919050505061139f565b6040518080602001828103825283818151815260200191508051906020019080838360005b83811015610341578082015181840152602081019050610326565b50505050905090810190601f16801561036e5780820380516001836020036101000a031916815260200191505b509250505060405180910390f35b34801561038857600080fd5b506103b56004803603602081101561039f57600080fd5b81019080803590602001909291905050506113ef565b6040518082815260200191505060405180910390f35b61052c600480360360a08110156103e157600080fd5b81019080803573ffffffffffffffffffffffffffffffffffffffff169060200190929190803573ffffffffffffffffffffffffffffffffffffffff1690602001909291908035906020019064010000000081111561043e57600080fd5b82018360208201111561045057600080fd5b8035906020019184602083028401116401000000008311171561047257600080fd5b90919293919293908035906020019064010000000081111561049357600080fd5b8201836020820111156104a557600080fd5b803590602001918460208302840111640100000000831117156104c757600080fd5b9091929391929390803590602001906401000000008111156104e857600080fd5b8201836020820111156104fa57600080fd5b8035906020019184600183028401116401000000008311171561051c57600080fd5b909192939192939050505061140c565b005b34801561053a57600080fd5b5061057d6004803603602081101561055157600080fd5b81019080803573ffffffffffffffffffffffffffffffffffffffff16906020019092919050505061188b565b005b34801561058b57600080fd5b506106d6600480360360408110156105a257600080fd5b81019080803590602001906401000000008111156105bf57600080fd5b8201836020820111156105d157600080fd5b803590602001918460208302840111640100000000831117156105f357600080fd5b919080806020026020016040519081016040528093929190818152602001838360200280828437600081840152601f19601f8201169050808301925050505050505091929192908035906020019064010000000081111561065357600080fd5b82018360208201111561066557600080fd5b8035906020019184602083028401116401000000008311171561068757600080fd5b919080806020026020016040519081016040528093929190818152602001838360200280828437600081840152601f19601f820116905080830192505050505050509192919290505050611960565b6040518080602001828103825283818151815260200191508051906020019060200280838360005b838110156107195780820151818401526020810190506106fe565b505050509050019250505060405180910390f35b34801561073957600080fd5b506107706004803603604081101561075057600080fd5b810190808035906020019092919080359060200190929190505050611b3e565b005b34801561077e57600080fd5b506107c16004803603602081101561079557600080fd5b81019080803573ffffffffffffffffffffffffffffffffffffffff169060200190929190505050611baa565b6040518082815260200191505060405180910390f35b3480156107e357600080fd5b50610826600480360360208110156107fa57600080fd5b81019080803573ffffffffffffffffffffffffffffffffffffffff169060200190929190505050611bf3565b005b34801561083457600080fd5b506108616004803603602081101561084b57600080fd5b8101908080359060200190929190505050611cc8565b005b34801561086f57600080fd5b5061089c6004803603602081101561088657600080fd5b8101908080359060200190929190505050611d70565b005b3480156108aa57600080fd5b506108ed600480360360208110156108c157600080fd5b81019080803573ffffffffffffffffffffffffffffffffffffffff169060200190929190505050611e26565b005b3480156108fb57600080fd5b50610904611efb565b604051808273ffffffffffffffffffffffffffffffffffffffff1673ffffffffffffffffffffffffffffffffffffffff16815260200191505060405180910390f35b34801561095257600080fd5b506109896004803603604081101561096957600080fd5b810190808035906020019092919080359060200190929190505050611f24565b005b34801561099757600080fd5b506109e6600480360360408110156109ae57600080fd5b81019080803573ffffffffffffffffffffffffffffffffffffffff16906020019092919080351515906020019092919050505061203f565b005b3480156109f457600080fd5b50610a2160048036036020811015610a0b57600080fd5b81019080803590602001909291905050506121c5565b6040518080602001828103825283818151815260200191508051906020019080838360005b83811015610a61578082015181840152602081019050610a46565b50505050905090810190601f168015610a8e5780820380516001836020036101000a031916815260200191505b509250505060405180910390f35b348015610aa857600080fd5b50610aeb60048036036020811015610abf57600080fd5b81019080803573ffffffffffffffffffffffffffffffffffffffff169060200190929190505050612345565b005b348015610af957600080fd5b50610b2660048036036020811015610b1057600080fd5b810190808035906020019092919050505061241a565b604051808215151515815260200191505060405180910390f35b348015610b4c57600080fd5b50610b7960048036036020811015610b6357600080fd5b810190808035906020019092919050505061242c565b6040518082815260200191505060405180910390f35b348015610b9b57600080fd5b50610bde60048036036020811015610bb257600080fd5b81019080803573ffffffffffffffffffffffffffffffffffffffff169060200190929190505050612449565b604051808215151515815260200191505060405180910390f35b348015610c0457600080fd5b50610c5b60048036036060811015610c1b57600080fd5b81019080803573ffffffffffffffffffffffffffffffffffffffff169060200190929190803590602001909291908035906020019092919050505061245b565b6040518082815260200191505060405180910390f35b348015610c7d57600080fd5b50610cc060048036036020811015610c9457600080fd5b81019080803573ffffffffffffffffffffffffffffffffffffffff169060200190929190505050612471565b604051808215151515815260200191505060405180910390f35b348015610ce657600080fd5b50610e066004803603610100811015610cfe57600080fd5b81019080803573ffffffffffffffffffffffffffffffffffffffff169060200190929190803590602001909291908035906020019092919080359060200190929190803590602001909291908035906020019092919080359060200190640100000000811115610d6d57600080fd5b820183602082011115610d7f57600080fd5b80359060200191846020830284011164010000000083111715610da157600080fd5b909192939192939080359060200190640100000000811115610dc257600080fd5b820183602082011115610dd457600080fd5b80359060200191846020830284011164010000000083111715610df657600080fd5b9091929391929390505050612483565b005b348015610e1457600080fd5b50610e5760048036036020811015610e2b57600080fd5b81019080803573ffffffffffffffffffffffffffffffffffffffff16906020019092919050505061257f565b6040518080602001828103825283818151815260200191508051906020019080838360005b83811015610e97578082015181840152602081019050610e7c565b50505050905090810190601f168015610ec45780820380516001836020036101000a031916815260200191505b509250505060405180910390f35b348015610ede57600080fd5b50610ee7612791565b6040518080602001828103825283818151815260200191508051906020019080838360005b83811015610f27578082015181840152602081019050610f0c565b50505050905090810190601f168015610f545780820380516001836020036101000a031916815260200191505b509250505060405180910390f35b348015610f6e57600080fd5b50610f9b60048036036020811015610f8557600080fd5b81019080803590602001909291905050506127ca565b005b348015610fa957600080fd5b50610ff660048036036040811015610fc057600080fd5b81019080803573ffffffffffffffffffffffffffffffffffffffff16906020019092919080359060200190929190505050612873565b6040518082815260200191505060405180910390f35b34801561101857600080fd5b5061107b6004803603604081101561102f57600080fd5b81019080803573ffffffffffffffffffffffffffffffffffffffff169060200190929190803573ffffffffffffffffffffffffffffffffffffffff1690602001909291905050506129b3565b604051808215151515815260200191505060405180910390f35b611160600480360360a08110156110ab57600080fd5b81019080803573ffffffffffffffffffffffffffffffffffffffff169060200190929190803573ffffffffffffffffffffffffffffffffffffffff16906020019092919080359060200190929190803590602001909291908035906020019064010000000081111561111c57600080fd5b82018360208201111561112e57600080fd5b8035906020019184600183028401116401000000008311171561115057600080fd5b9091929391929390505050612a47565b005b34801561116e57600080fd5b506111b16004803603602081101561118557600080fd5b81019080803573ffffffffffffffffffffffffffffffffffffffff169060200190929190505050612d45565b005b3480156111bf57600080fd5b5061120c600480360360408110156111d657600080fd5b81019080803573ffffffffffffffffffffffffffffffffffffffff16906020019092919080359060200190929190505050612dcb565b005b60008073ffffffffffffffffffffffffffffffffffffffff168373ffffffffffffffffffffffffffffffffffffffff161415611295576040517f08c379a000000000000000000000000000000000000000000000000000000000815260040180806020018281038252602b815260200180615051602b913960400191505060405180910390fd5b6003600083815260200190815260200160002060008473ffffffffffffffffffffffffffffffffffffffff1673ffffffffffffffffffffffffffffffffffffffff16815260200190815260200160002054905092915050565b60006301ffc9a760e01b7bffffffffffffffffffffffffffffffffffffffffffffffffffffffff1916827bffffffffffffffffffffffffffffffffffffffffffffffffffffffff19161480611387575063d9b67a2660e01b7bffffffffffffffffffffffffffffffffffffffffffffffffffffffff1916827bffffffffffffffffffffffffffffffffffffffffffffffffffffffff1916145b15611395576001905061139a565b600090505b919050565b60606113e86040518060400160405280601d81526020017f68747470733a2f2f7374617368626c6f782e636f6d2f746f6b656e732f0000008152506113e384613028565b613117565b9050919050565b6000600e6000838152602001908152602001600020549050919050565b83839050868690501461146a576040517f08c379a000000000000000000000000000000000000000000000000000000000815260040180806020018281038252602e815260200180615313602e913960400191505060405180910390fd5b600073ffffffffffffffffffffffffffffffffffffffff168773ffffffffffffffffffffffffffffffffffffffff1614156114f0576040517f08c379a00000000000000000000000000000000000000000000000000000000081526004018080602001828103825260288152602001806150a26028913960400191505060405180910390fd5b3373ffffffffffffffffffffffffffffffffffffffff168873ffffffffffffffffffffffffffffffffffffffff16148061153757506001151561153389336129b3565b1515145b61158c576040517f08c379a00000000000000000000000000000000000000000000000000000000081526004018080602001828103825260378152602001806152dc6037913960400191505060405180910390fd5b600034905060008090505b878790508110156115e2576115d38a8a8a8a858181106115b357fe5b905060200201358989868181106115c657fe5b9050602002013586613262565b82039150806001019050611597565b508773ffffffffffffffffffffffffffffffffffffffff168973ffffffffffffffffffffffffffffffffffffffff163373ffffffffffffffffffffffffffffffffffffffff167f4a39dc06d4c0dbc64b70af90fd698a233a518aa5d07e595d983b8c0526c8f7fb8a8a8a8a6040518080602001806020018381038352878782818152602001925060200280828437600081840152601f19601f8201169050808301925050508381038252858582818152602001925060200280828437600081840152601f19601f820116905080830192505050965050505050505060405180910390a4611799338a8a8a8a80806020026020016040519081016040528093929190818152602001838360200280828437600081840152601f19601f82011690508083019250505050505050898980806020026020016040519081016040528093929190818152602001838360200280828437600081840152601f19601f8201169050808301925050505050505088888080601f016020809104026020016040519081016040528093929190818152602001838380828437600081840152601f19601f8201169050808301925050505050505061398e565b60008111156118805760003373ffffffffffffffffffffffffffffffffffffffff168260405180600001905060006040518083038185875af1925050503d8060008114611802576040519150601f19603f3d011682016040523d82523d6000602084013e611807565b606091505b505090508061187e576040517f08c379a00000000000000000000000000000000000000000000000000000000081526004018080602001828103825260108152602001807f5472616e73666572206661696c65642e0000000000000000000000000000000081525060200191505060405180910390fd5b505b505050505050505050565b611893613c5d565b611905576040517f08c379a00000000000000000000000000000000000000000000000000000000081526004018080602001828103825260208152602001807f4f776e61626c653a2063616c6c6572206973206e6f7420746865206f776e657281525060200191505060405180910390fd5b6001600260008373ffffffffffffffffffffffffffffffffffffffff1673ffffffffffffffffffffffffffffffffffffffff16815260200190815260200160002060006101000a81548160ff02191690831515021790555050565b606081518351146119bc576040517f08c379a000000000000000000000000000000000000000000000000000000000815260040180806020018281038252603081526020018061514e6030913960400191505060405180910390fd5b606083516040519080825280602002602001820160405280156119ee5781602001602082028038833980820191505090505b50905060008090505b8451811015611b3357600073ffffffffffffffffffffffffffffffffffffffff16858281518110611a2457fe5b602002602001015173ffffffffffffffffffffffffffffffffffffffff161415611a99576040517f08c379a00000000000000000000000000000000000000000000000000000000081526004018080602001828103825260348152602001806151de6034913960400191505060405180910390fd5b60036000858381518110611aa957fe5b602002602001015181526020019081526020016000206000868381518110611acd57fe5b602002602001015173ffffffffffffffffffffffffffffffffffffffff1673ffffffffffffffffffffffffffffffffffffffff16815260200190815260200160002054828281518110611b1c57fe5b6020026020010181815250508060010190506119f7565b508091505092915050565b611b4733613cb4565b611b9c576040517f08c379a000000000000000000000000000000000000000000000000000000000815260040180806020018281038252602381526020018061512b6023913960400191505060405180910390fd5b611ba68282613d19565b5050565b6000600960008373ffffffffffffffffffffffffffffffffffffffff1673ffffffffffffffffffffffffffffffffffffffff168152602001908152602001600020549050919050565b611bfb613c5d565b611c6d576040517f08c379a00000000000000000000000000000000000000000000000000000000081526004018080602001828103825260208152602001807f4f776e61626c653a2063616c6c6572206973206e6f7420746865206f776e657281525060200191505060405180910390fd5b6001601060008373ffffffffffffffffffffffffffffffffffffffff1673ffffffffffffffffffffffffffffffffffffffff16815260200190815260200160002060006101000a81548160ff02191690831515021790555050565b611cd0613c5d565b611d42576040517f08c379a00000000000000000000000000000000000000000000000000000000081526004018080602001828103825260208152602001807f4f776e61626c653a2063616c6c6572206973206e6f7420746865206f776e657281525060200191505060405180910390fd5b600180600083815260200190815260200160002060006101000a81548160ff02191690831515021790555050565b611d7933613cb4565b611dce576040517f08c379a000000000000000000000000000000000000000000000000000000000815260040180806020018281038252602381526020018061512b6023913960400191505060405180910390fd5b806006819055503373ffffffffffffffffffffffffffffffffffffffff167f5c5a35dc0829d2f6a31d1d6da57c4315ba7b562ee447c87b75c732cfd96abde9826040518082815260200191505060405180910390a250565b611e2e613c5d565b611ea0576040517f08c379a00000000000000000000000000000000000000000000000000000000081526004018080602001828103825260208152602001807f4f776e61626c653a2063616c6c6572206973206e6f7420746865206f776e657281525060200191505060405180910390fd5b6000601060008373ffffffffffffffffffffffffffffffffffffffff1673ffffffffffffffffffffffffffffffffffffffff16815260200190815260200160002060006101000a81548160ff02191690831515021790555050565b60008060009054906101000a900473ffffffffffffffffffffffffffffffffffffffff16905090565b611f2d33613cb4565b611f82576040517f08c379a000000000000000000000000000000000000000000000000000000000815260040180806020018281038252602381526020018061512b6023913960400191505060405180910390fd5b6005600083815260200190815260200160002060405180604001604052804281526020018381525090806001815401808255809150509060018203906000526020600020906002020160009091929091909150906002611fe3929190614ed1565b50503373ffffffffffffffffffffffffffffffffffffffff167f4bd9446604f43017ac3918d8db419b59a3b6f2a6cdd456eed5de99621bb627658383604051808381526020018281526020019250505060405180910390a25050565b8173ffffffffffffffffffffffffffffffffffffffff163373ffffffffffffffffffffffffffffffffffffffff1614156120c4576040517f08c379a000000000000000000000000000000000000000000000000000000000815260040180806020018281038252602c8152602001806150ca602c913960400191505060405180910390fd5b80600d60003373ffffffffffffffffffffffffffffffffffffffff1673ffffffffffffffffffffffffffffffffffffffff16815260200190815260200160002060008473ffffffffffffffffffffffffffffffffffffffff1673ffffffffffffffffffffffffffffffffffffffff16815260200190815260200160002060006101000a81548160ff0219169083151502179055508173ffffffffffffffffffffffffffffffffffffffff163373ffffffffffffffffffffffffffffffffffffffff167f17307eab39ab6107e8899845ad3d59bd9653f200f220920489ca2b5937696c3183604051808215151515815260200191505060405180910390a35050565b606060008090505b600b60008481526020019081526020016000208054905081101561233c576000600b6000858152602001908152602001600020828154811061220b57fe5b9060005260206000200160009054906101000a900473ffffffffffffffffffffffffffffffffffffffff16905060006003600086815260200190815260200160002060008373ffffffffffffffffffffffffffffffffffffffff1673ffffffffffffffffffffffffffffffffffffffff16815260200190815260200160002054111561232e5760008351111561230b576122da836040518060400160405280600181526020017f2000000000000000000000000000000000000000000000000000000000000000815250613117565b9250612304836122ff8373ffffffffffffffffffffffffffffffffffffffff16613028565b613117565b925061232d565b61232a8173ffffffffffffffffffffffffffffffffffffffff16613028565b92505b5b5080806001019150506121cd565b50809050919050565b61234d613c5d565b6123bf576040517f08c379a00000000000000000000000000000000000000000000000000000000081526004018080602001828103825260208152602001807f4f776e61626c653a2063616c6c6572206973206e6f7420746865206f776e657281525060200191505060405180910390fd5b6000600260008373ffffffffffffffffffffffffffffffffffffffff1673ffffffffffffffffffffffffffffffffffffffff16815260200190815260200160002060006101000a81548160ff02191690831515021790555050565b600061242582613d63565b9050919050565b6000600f6000838152602001908152602001600020549050919050565b600061245482613cb4565b9050919050565b6000612468848484613d8d565b90509392505050565b600061247c82613ff4565b9050919050565b61248c33613cb4565b6124e1576040517f08c379a000000000000000000000000000000000000000000000000000000000815260040180806020018281038252602381526020018061512b6023913960400191505060405180910390fd5b6125738a8a8a8a8a8a8a8a80806020026020016040519081016040528093929190818152602001838360200280828437600081840152601f19601f82011690508083019250505050505050898980806020026020016040519081016040528093929190818152602001838360200280828437600081840152601f19601f8201169050808301925050505050505061404a565b50505050505050505050565b6060600073ffffffffffffffffffffffffffffffffffffffff168273ffffffffffffffffffffffffffffffffffffffff161415612607576040517f08c379a000000000000000000000000000000000000000000000000000000000815260040180806020018281038252602b815260200180615051602b913960400191505060405180910390fd5b60008090505b600a60008473ffffffffffffffffffffffffffffffffffffffff1673ffffffffffffffffffffffffffffffffffffffff16815260200190815260200160002080549050811015612788576000600a60008573ffffffffffffffffffffffffffffffffffffffff1673ffffffffffffffffffffffffffffffffffffffff16815260200190815260200160002082815481106126a357fe5b9060005260206000200154905060006003600083815260200190815260200160002060008673ffffffffffffffffffffffffffffffffffffffff1673ffffffffffffffffffffffffffffffffffffffff16815260200190815260200160002054111561277a5760008351111561276d57612752836040518060400160405280600181526020017f2000000000000000000000000000000000000000000000000000000000000000815250613117565b92506127668361276183613028565b613117565b9250612779565b61277681613028565b92505b5b50808060010191505061260d565b50809050919050565b6040518060400160405280601d81526020017f68747470733a2f2f7374617368626c6f782e636f6d2f746f6b656e732f00000081525081565b6127d2613c5d565b612844576040517f08c379a00000000000000000000000000000000000000000000000000000000081526004018080602001828103825260208152602001807f4f776e61626c653a2063616c6c6572206973206e6f7420746865206f776e657281525060200191505060405180910390fd5b60006001600083815260200190815260200160002060006101000a81548160ff02191690831515021790555050565b60008073ffffffffffffffffffffffffffffffffffffffff168373ffffffffffffffffffffffffffffffffffffffff1614156128fa576040517f08c379a000000000000000000000000000000000000000000000000000000000815260040180806020018281038252602b815260200180615051602b913960400191505060405180910390fd5b60006003600084815260200190815260200160002060008573ffffffffffffffffffffffffffffffffffffffff1673ffffffffffffffffffffffffffffffffffffffff16815260200190815260200160002054146129a8576004600083815260200190815260200160002060008473ffffffffffffffffffffffffffffffffffffffff1673ffffffffffffffffffffffffffffffffffffffff168152602001908152602001600020546129ab565b60005b905092915050565b6000600d60008473ffffffffffffffffffffffffffffffffffffffff1673ffffffffffffffffffffffffffffffffffffffff16815260200190815260200160002060008373ffffffffffffffffffffffffffffffffffffffff1673ffffffffffffffffffffffffffffffffffffffff16815260200190815260200160002060009054906101000a900460ff16905092915050565b600073ffffffffffffffffffffffffffffffffffffffff168573ffffffffffffffffffffffffffffffffffffffff161415612acd576040517f08c379a00000000000000000000000000000000000000000000000000000000081526004018080602001828103825260288152602001806150a26028913960400191505060405180910390fd5b3373ffffffffffffffffffffffffffffffffffffffff168673ffffffffffffffffffffffffffffffffffffffff161480612b14575060011515612b1087336129b3565b1515145b612b69576040517f08c379a00000000000000000000000000000000000000000000000000000000081526004018080602001828103825260378152602001806152dc6037913960400191505060405180910390fd5b6000349050612b7b8787878785613262565b810390508573ffffffffffffffffffffffffffffffffffffffff168773ffffffffffffffffffffffffffffffffffffffff163373ffffffffffffffffffffffffffffffffffffffff167fc3d58168c5ae7397731d063d5bbf3d657854427343f4c083240f7aacaa2d0f628888604051808381526020018281526020019250505060405180910390a4612c55338888888888888080601f016020809104026020016040519081016040528093929190818152602001838380828437600081840152601f19601f820116905080830192505050505050506146e4565b6000811115612d3c5760003373ffffffffffffffffffffffffffffffffffffffff168260405180600001905060006040518083038185875af1925050503d8060008114612cbe576040519150601f19603f3d011682016040523d82523d6000602084013e612cc3565b606091505b5050905080612d3a576040517f08c379a00000000000000000000000000000000000000000000000000000000081526004018080602001828103825260108152602001807f5472616e73666572206661696c65642e0000000000000000000000000000000081525060200191505060405180910390fd5b505b50505050505050565b612d4d613c5d565b612dbf576040517f08c379a00000000000000000000000000000000000000000000000000000000081526004018080602001828103825260208152602001807f4f776e61626c653a2063616c6c6572206973206e6f7420746865206f776e657281525060200191505060405180910390fd5b612dc881614931565b50565b612dd3613c5d565b612e45576040517f08c379a00000000000000000000000000000000000000000000000000000000081526004018080602001828103825260208152602001807f4f776e61626c653a2063616c6c6572206973206e6f7420746865206f776e657281525060200191505060405180910390fd5b80600960008473ffffffffffffffffffffffffffffffffffffffff1673ffffffffffffffffffffffffffffffffffffffff168152602001908152602001600020541015612efa576040517f08c379a00000000000000000000000000000000000000000000000000000000081526004018080602001828103825260208152602001807f5374617368426c6f783a20496e73756666696369656e742062616c616e63652e81525060200191505060405180910390fd5b60008273ffffffffffffffffffffffffffffffffffffffff168260405180600001905060006040518083038185875af1925050503d8060008114612f5a576040519150601f19603f3d011682016040523d82523d6000602084013e612f5f565b606091505b5050905080612fd6576040517f08c379a000000000000000000000000000000000000000000000000000000000815260040180806020018281038252601d8152602001807f5374617368426c6f783a205769746864726177616c206661696c65642e00000081525060200191505060405180910390fd5b81600960008573ffffffffffffffffffffffffffffffffffffffff1673ffffffffffffffffffffffffffffffffffffffff16815260200190815260200160002060008282540392505081905550505050565b6060600080905060008390505b600081146130575781806001019250506010818161304f57fe5b049050613035565b6060826040519080825280601f01601f19166020018201604052801561308c5781602001600182028038833980820191505090505b50905060008090505b8381101561310b57601086816130a757fe5b0692506130b383614a75565b82600183870303815181106130c457fe5b60200101907effffffffffffffffffffffffffffffffffffffffffffffffffffffffffffff1916908160001a905350601086816130fd57fe5b049550806001019050613095565b50809350505050919050565b6060808390506060839050606081518351016040519080825280601f01601f19166020018201604052801561315b5781602001600182028038833980820191505090505b509050606081905060008090506000809050600090505b85518110156131e05785818151811061318757fe5b602001015160f81c60f81b8383806001019450815181106131a457fe5b60200101907effffffffffffffffffffffffffffffffffffffffffffffffffffffffffffff1916908160001a9053508080600101915050613172565b600090505b8451811015613253578481815181106131fa57fe5b602001015160f81c60f81b83838060010194508151811061321757fe5b60200101907effffffffffffffffffffffffffffffffffffffffffffffffffffffffffffff1916908160001a90535080806001019150506131e5565b82965050505050505092915050565b600061327086868686614b1e565b156132e3576040517f08c379a00000000000000000000000000000000000000000000000000000000081526004018080602001828103825260068152602001807f4c6f636b6564000000000000000000000000000000000000000000000000000081525060200191505060405180910390fd5b6132ee868585613d8d565b905080821015613349576040517f08c379a000000000000000000000000000000000000000000000000000000000815260040180806020018281038252602b81526020018061544c602b913960400191505060405180910390fd5b6133c6836040518060600160405280602a8152602001615212602a91396003600088815260200190815260200160002060008a73ffffffffffffffffffffffffffffffffffffffff1673ffffffffffffffffffffffffffffffffffffffff16815260200190815260200160002054614b5e9092919063ffffffff16565b6003600086815260200190815260200160002060008873ffffffffffffffffffffffffffffffffffffffff1673ffffffffffffffffffffffffffffffffffffffff16815260200190815260200160002081905550600061347f846003600088815260200190815260200160002060008973ffffffffffffffffffffffffffffffffffffffff1673ffffffffffffffffffffffffffffffffffffffff16815260200190815260200160002054614c1e90919063ffffffff16565b905060006003600087815260200190815260200160002060008873ffffffffffffffffffffffffffffffffffffffff1673ffffffffffffffffffffffffffffffffffffffff1681526020019081526020016000205414156136d357600c600086815260200190815260200160002060008773ffffffffffffffffffffffffffffffffffffffff1673ffffffffffffffffffffffffffffffffffffffff16815260200190815260200160002060009054906101000a900460ff1661367957600a60008773ffffffffffffffffffffffffffffffffffffffff1673ffffffffffffffffffffffffffffffffffffffff168152602001908152602001600020859080600181540180825580915050906001820390600052602060002001600090919290919091505550600b60008681526020019081526020016000208690806001815401808255809150509060018203906000526020600020016000909192909190916101000a81548173ffffffffffffffffffffffffffffffffffffffff021916908373ffffffffffffffffffffffffffffffffffffffff16021790555050600c600086815260200190815260200160002060008773ffffffffffffffffffffffffffffffffffffffff1673ffffffffffffffffffffffffffffffffffffffff16815260200190815260200160002060009054906101000a9050505b426004600087815260200190815260200160002060008873ffffffffffffffffffffffffffffffffffffffff1673ffffffffffffffffffffffffffffffffffffffff1681526020019081526020016000208190555061380d565b60006137386004600088815260200190815260200160002060008973ffffffffffffffffffffffffffffffffffffffff1673ffffffffffffffffffffffffffffffffffffffff1681526020019081526020016000205442614ca690919063ffffffff16565b905060006137b1836137a384600360008c815260200190815260200160002060008d73ffffffffffffffffffffffffffffffffffffffff1673ffffffffffffffffffffffffffffffffffffffff16815260200190815260200160002054614cf090919063ffffffff16565b614d7690919063ffffffff16565b90508042036004600089815260200190815260200160002060008a73ffffffffffffffffffffffffffffffffffffffff1673ffffffffffffffffffffffffffffffffffffffff1681526020019081526020016000208190555050505b806003600087815260200190815260200160002060008873ffffffffffffffffffffffffffffffffffffffff1673ffffffffffffffffffffffffffffffffffffffff1681526020019081526020016000208190555060008090505b60076000878152602001908152602001600020805490508110156139805760006007600088815260200190815260200160002082815481106138a657fe5b9060005260206000200160009054906101000a900473ffffffffffffffffffffffffffffffffffffffff16905060006008600089815260200190815260200160002083815481106138f357fe5b906000526020600020015490506139276127106139198388614cf090919063ffffffff16565b614d7690919063ffffffff16565b600960008473ffffffffffffffffffffffffffffffffffffffff1673ffffffffffffffffffffffffffffffffffffffff168152602001908152602001600020600082825401925050819055505050806001019050613868565b508191505095945050505050565b6139ad8473ffffffffffffffffffffffffffffffffffffffff16614dc0565b15613c55578373ffffffffffffffffffffffffffffffffffffffff1663bc197c81905060e01b7bffffffffffffffffffffffffffffffffffffffffffffffffffffffff19168473ffffffffffffffffffffffffffffffffffffffff1663bc197c8188888787876040518663ffffffff1660e01b8152600401808673ffffffffffffffffffffffffffffffffffffffff1673ffffffffffffffffffffffffffffffffffffffff1681526020018573ffffffffffffffffffffffffffffffffffffffff1673ffffffffffffffffffffffffffffffffffffffff168152602001806020018060200180602001848103845287818151815260200191508051906020019060200280838360005b83811015613ad1578082015181840152602081019050613ab6565b50505050905001848103835286818151815260200191508051906020019060200280838360005b83811015613b13578082015181840152602081019050613af8565b50505050905001848103825285818151815260200191508051906020019080838360005b83811015613b52578082015181840152602081019050613b37565b50505050905090810190601f168015613b7f5780820380516001836020036101000a031916815260200191505b5098505050505050505050602060405180830381600087803b158015613ba457600080fd5b505af1158015613bb8573d6000803e3d6000fd5b505050506040513d6020811015613bce57600080fd5b81019080805190602001909291905050507bffffffffffffffffffffffffffffffffffffffffffffffffffffffff191614613c54576040517f08c379a00000000000000000000000000000000000000000000000000000000081526004018080602001828103825260368152602001806151a86036913960400191505060405180910390fd5b5b505050505050565b60008060009054906101000a900473ffffffffffffffffffffffffffffffffffffffff1673ffffffffffffffffffffffffffffffffffffffff163373ffffffffffffffffffffffffffffffffffffffff1614905090565b6000601060008373ffffffffffffffffffffffffffffffffffffffff1673ffffffffffffffffffffffffffffffffffffffff16815260200190815260200160002060009054906101000a900460ff1680613d125750613d11613c5d565b5b9050919050565b80600e60008481526020019081526020016000208190555080827f9cd9c60390fc75c213fd8d644749f61388dd30ed6c6eb4647b793b5b580fb43060405160405180910390a35050565b60006001600083815260200190815260200160002060009054906101000a900460ff169050919050565b60008073ffffffffffffffffffffffffffffffffffffffff168473ffffffffffffffffffffffffffffffffffffffff161415613e14576040517f08c379a000000000000000000000000000000000000000000000000000000000815260040180806020018281038252602b815260200180615051602b913960400191505060405180910390fd5b600080905060004290506000600160056000888152602001908152602001600020805490500390505b60008110613fe7576000600560008881526020019081526020016000208281548110613e6557fe5b9060005260206000209060020201600060028110613e7f57fe5b0154905060006305f5e100600654600560008b81526020019081526020016000208581548110613eab57fe5b9060005260206000209060020201600160028110613ec557fe5b01540281613ecf57fe5b049050600082600460008b815260200190815260200160002060008c73ffffffffffffffffffffffffffffffffffffffff1673ffffffffffffffffffffffffffffffffffffffff1681526020019081526020016000205410613fab5762015180600460008b815260200190815260200160002060008c73ffffffffffffffffffffffffffffffffffffffff1673ffffffffffffffffffffffffffffffffffffffff16815260200190815260200160002054860381613f8957fe5b0490506000811415613f9a57600190505b878282020286019550505050613fe7565b6201518083860381613fb957fe5b0490506000811415613fca57600190505b829450878282020286019550505050808060019003915050613e3d565b5081925050509392505050565b6000600260008373ffffffffffffffffffffffffffffffffffffffff1673ffffffffffffffffffffffffffffffffffffffff16815260200190815260200160002060009054906101000a900460ff169050919050565b6000600f600089815260200190815260200160002054146140d3576040517f08c379a000000000000000000000000000000000000000000000000000000000815260040180806020018281038252601f8152602001807f5374617368426c6f783a20546f6b656e20616c7265616479206d696e7465640081525060200191505060405180910390fd5b6000861161412c576040517f08c379a000000000000000000000000000000000000000000000000000000000815260040180806020018281038252602a81526020018061517e602a913960400191505060405180910390fd5b60008411614185576040517f08c379a00000000000000000000000000000000000000000000000000000000081526004018080602001828103825260358152602001806150f66035913960400191505060405180910390fd5b600083116141de576040517f08c379a00000000000000000000000000000000000000000000000000000000081526004018080602001828103825260398152602001806154136039913960400191505060405180910390fd5b612710831115614239576040517f08c379a00000000000000000000000000000000000000000000000000000000081526004018080602001828103825260448152602001806153416044913960600191505060405180910390fd5b6000825111614293576040517f08c379a000000000000000000000000000000000000000000000000000000000815260040180806020018281038252602b8152602001806153b7602b913960400191505060405180910390fd5b80518251146142ed576040517f08c379a00000000000000000000000000000000000000000000000000000000081526004018080602001828103825260328152602001806153856032913960400191505060405180910390fd5b600080905060008090505b82518110156143905782818151811061430d57fe5b602002602001015182019150600083828151811061432757fe5b602002602001015111614385576040517f08c379a000000000000000000000000000000000000000000000000000000000815260040180806020018281038252603c81526020018061525d603c913960400191505060405180910390fd5b8060010190506142f8565b5061271081146143eb576040517f08c379a00000000000000000000000000000000000000000000000000000000081526004018080602001828103825260438152602001806152996043913960600191505060405180910390fd5b6001600c60008a815260200190815260200160002060008b73ffffffffffffffffffffffffffffffffffffffff1673ffffffffffffffffffffffffffffffffffffffff16815260200190815260200160002060006101000a81548160ff021916908315150217905550600a60008a73ffffffffffffffffffffffffffffffffffffffff1673ffffffffffffffffffffffffffffffffffffffff16815260200190815260200160002088908060018154018082558091505090600182039060005260206000200160009091929091909150555086600f60008a81526020019081526020016000208190555086600360008a815260200190815260200160002060008b73ffffffffffffffffffffffffffffffffffffffff1673ffffffffffffffffffffffffffffffffffffffff168152602001908152602001600020819055506145348887613d19565b42600460008a815260200190815260200160002060008b73ffffffffffffffffffffffffffffffffffffffff1673ffffffffffffffffffffffffffffffffffffffff1681526020019081526020016000208190555060056000898152602001908152602001600020604051806040016040528042815260200187815250908060018154018082558091505090600182039060005260206000209060020201600090919290919091509060026145ea929190614ed1565b505083601160008a81526020019081526020016000208190555082600760008a8152602001908152602001600020908051906020019061462b929190614f11565b5081600860008a81526020019081526020016000209080519060200190614653929190614f9b565b508873ffffffffffffffffffffffffffffffffffffffff16600073ffffffffffffffffffffffffffffffffffffffff163373ffffffffffffffffffffffffffffffffffffffff167fc3d58168c5ae7397731d063d5bbf3d657854427343f4c083240f7aacaa2d0f628b8b604051808381526020018281526020019250505060405180910390a4505050505050505050565b6147038473ffffffffffffffffffffffffffffffffffffffff16614dc0565b15614929578373ffffffffffffffffffffffffffffffffffffffff1663f23a6e61905060e01b7bffffffffffffffffffffffffffffffffffffffffffffffffffffffff19168473ffffffffffffffffffffffffffffffffffffffff1663f23a6e6188888787876040518663ffffffff1660e01b8152600401808673ffffffffffffffffffffffffffffffffffffffff1673ffffffffffffffffffffffffffffffffffffffff1681526020018573ffffffffffffffffffffffffffffffffffffffff1673ffffffffffffffffffffffffffffffffffffffff16815260200184815260200183815260200180602001828103825283818151815260200191508051906020019080838360005b8381101561482857808201518184015260208101905061480d565b50505050905090810190601f1680156148555780820380516001836020036101000a031916815260200191505b509650505050505050602060405180830381600087803b15801561487857600080fd5b505af115801561488c573d6000803e3d6000fd5b505050506040513d60208110156148a257600080fd5b81019080805190602001909291905050507bffffffffffffffffffffffffffffffffffffffffffffffffffffffff191614614928576040517f08c379a00000000000000000000000000000000000000000000000000000000081526004018080602001828103825260318152602001806153e26031913960400191505060405180910390fd5b5b505050505050565b600073ffffffffffffffffffffffffffffffffffffffff168173ffffffffffffffffffffffffffffffffffffffff1614156149b7576040517f08c379a000000000000000000000000000000000000000000000000000000000815260040180806020018281038252602681526020018061507c6026913960400191505060405180910390fd5b8073ffffffffffffffffffffffffffffffffffffffff166000809054906101000a900473ffffffffffffffffffffffffffffffffffffffff1673ffffffffffffffffffffffffffffffffffffffff167f8be0079c531659141344cd1fd0a4f28419497f9722a3daafe3b4186f6b6457e060405160405180910390a3806000806101000a81548173ffffffffffffffffffffffffffffffffffffffff021916908373ffffffffffffffffffffffffffffffffffffffff16021790555050565b60008160ff16600011158015614a8f575060098260ff1611155b15614ac457817f300000000000000000000000000000000000000000000000000000000000000060f81c0160f81b9050614b19565b8160ff16600a11158015614adc5750600f8260ff1611155b15614b1457600a827f610000000000000000000000000000000000000000000000000000000000000060f81c010360f81b9050614b19565b600080fd5b919050565b6000614b2983613d63565b80614b395750614b3885613ff4565b5b80614b495750614b4884613ff4565b5b80614b545750600082145b9050949350505050565b6000838311158290614c0b576040517f08c379a00000000000000000000000000000000000000000000000000000000081526004018080602001828103825283818151815260200191508051906020019080838360005b83811015614bd0578082015181840152602081019050614bb5565b50505050905090810190601f168015614bfd5780820380516001836020036101000a031916815260200191505b509250505060405180910390fd5b5060008385039050809150509392505050565b600080828401905083811015614c9c576040517f08c379a000000000000000000000000000000000000000000000000000000000815260040180806020018281038252601b8152602001807f536166654d6174683a206164646974696f6e206f766572666c6f77000000000081525060200191505060405180910390fd5b8091505092915050565b6000614ce883836040518060400160405280601e81526020017f536166654d6174683a207375627472616374696f6e206f766572666c6f770000815250614b5e565b905092915050565b600080831415614d035760009050614d70565b6000828402905082848281614d1457fe5b0414614d6b576040517f08c379a000000000000000000000000000000000000000000000000000000000815260040180806020018281038252602181526020018061523c6021913960400191505060405180910390fd5b809150505b92915050565b6000614db883836040518060400160405280601a81526020017f536166654d6174683a206469766973696f6e206279207a65726f000000000000815250614e0b565b905092915050565b60008060007fc5d2460186f7233c927e7db2dcc703c0e500b653ca82273b7bfad8045d85a47060001b9050833f91506000801b8214158015614e025750808214155b92505050919050565b60008083118290614eb7576040517f08c379a00000000000000000000000000000000000000000000000000000000081526004018080602001828103825283818151815260200191508051906020019080838360005b83811015614e7c578082015181840152602081019050614e61565b50505050905090810190601f168015614ea95780820380516001836020036101000a031916815260200191505b509250505060405180910390fd5b506000838581614ec357fe5b049050809150509392505050565b8260028101928215614f00579160200282015b82811115614eff578251825591602001919060010190614ee4565b5b509050614f0d9190614fe8565b5090565b828054828255906000526020600020908101928215614f8a579160200282015b82811115614f895782518260006101000a81548173ffffffffffffffffffffffffffffffffffffffff021916908373ffffffffffffffffffffffffffffffffffffffff16021790555091602001919060010190614f31565b5b509050614f97919061500d565b5090565b828054828255906000526020600020908101928215614fd7579160200282015b82811115614fd6578251825591602001919060010190614fbb565b5b509050614fe49190614fe8565b5090565b61500a91905b80821115615006576000816000905550600101614fee565b5090565b90565b61504d91905b8082111561504957600081816101000a81549073ffffffffffffffffffffffffffffffffffffffff021916905550600101615013565b5090565b9056fe455243313135353a2062616c616e636520717565727920666f7220746865207a65726f20616464726573734f776e61626c653a206e6577206f776e657220697320746865207a65726f2061646472657373455243313135353a207461726765742061646472657373206d757374206265206e6f6e2d7a65726f455243313135353a2063616e6e6f742073657420617070726f76616c2073746174757320666f722073656c665374617368426c6f783a2073746f72616765437265646974436f73742073686f756c642062652067726561746572207468616e20304d696e7461626c653a2063616c6c6572206973206e6f74206120746f6b656e697a6572455243313135353a206163636f756e747320616e6420494473206d75737420686176652073616d65206c656e677468735374617368426c6f783a20737570706c792073686f756c642062652067726561746572207468616e2030455243313135353a20676f7420756e6b6e6f776e2076616c75652066726f6d206f6e4552433131353542617463685265636569766564455243313135353a20736f6d65206164647265737320696e2062617463682062616c616e6365207175657279206973207a65726f455243313135353a20696e73756666696369656e742062616c616e636520666f72207472616e73666572536166654d6174683a206d756c7469706c69636174696f6e206f766572666c6f775374617368426c6f783a2066656573526563697069656e747350657263656e746167652073686f756c642062652067726561746572207468616e20305374617368426c6f783a20546f74616c206f662066656573526563697069656e747350657263656e74616765206d75737420626520657175616c20746f203130303030455243313135353a206e656564206f70657261746f7220617070726f76616c20666f7220337264207061727479207472616e7366657273455243313135353a2049447320616e642076616c756573206d75737420686176652073616d65206c656e677468735374617368426c6f783a206d696e486f6c64696e67466f7243616c6c6261636b2073686f756c64206265206c6f776572206f7220657175616c207468616e2031303030305374617368426c6f783a20696e76616c69642066656573526563697069656e747350657263656e74616765206c656e6774685374617368426c6f783a206e656564206174206c65617374206f6e652066656573526563697069656e7473455243313135353a20676f7420756e6b6e6f776e2076616c75652066726f6d206f6e4552433131353552656365697665645374617368426c6f783a206d696e486f6c64696e67466f7243616c6c6261636b2073686f756c642062652067726561746572207468616e2030455243313135353a20696e73756666696369656e742045544820666f72207472616e736665722066656573a265627a7a72315820d3878568811912822025b7f42e6d5605f2a68a70dd5259bea1b870b11f7dd2e964736f6c634300050c00324f776e61626c653a206e6577206f776e657220697320746865207a65726f2061646472657373",
  "source": "pragma solidity ^0.5.12;\n// pragma experimental ABIEncoderV2;\n\nimport './ERC1155.sol';\nimport './ERC1155Metadata.sol';\nimport '../ERC173/ERC173.sol';\nimport '../utils/StringUtils.sol';\n\ncontract ERC1155Mintable is ERC1155, ERC1155Metadata {\n\n    // Mapping from token ID to Supply\n    mapping (uint256 => uint256) internal _supplies;\n    mapping (address => bool) private _authorizedTokenizers;\n\n    // Minimum holding to propose a callback for each token\n    mapping (uint256 => uint256) _minHoldingForCallback;\n\n    event UpdateStorageCost(address indexed _tokenizer, uint256 _id, uint256 _cost);\n    event UpdateStorageCreditPrice(address indexed _owner, uint256 _price);\n\n\n    function authorizeTokenizer(address tokenizer) external onlyOwner {\n        _authorizedTokenizers[tokenizer] = true;\n    }\n\n    function revokeTokenizer(address tokenizer) external onlyOwner {\n        _authorizedTokenizers[tokenizer] = false;\n    }\n\n    function _isTokenizer(address tokenizer) internal view returns (bool) {\n        return _authorizedTokenizers[tokenizer] || _isOwner();\n    }\n\n    function isTokenizer(address tokenizer) external view returns (bool) {\n        return _isTokenizer(tokenizer);\n    }\n\n    modifier onlyTokenizer() {\n        require(_isTokenizer(msg.sender), \"Mintable: caller is not a tokenizer\");\n        _;\n    }\n\n    function _createToken(address recipient,\n                         uint256 id,\n                         uint256 supply,\n                         uint256 metadataHash,\n                         uint256 storageCreditCost,\n                         uint256 minHoldingForCallback,\n                         address[] memory feesRecipients,\n                         uint256[] memory feesRecipientsPercentage)\n    internal {\n\n        require(_supplies[id] == 0, \"StashBlox: Token already minted\");\n        require(supply > 0, \"StashBlox: supply should be greater than 0\");\n        require(storageCreditCost > 0, \"StashBlox: storageCreditCost should be greater than 0\");\n        require(minHoldingForCallback > 0, \"StashBlox: minHoldingForCallback should be greater than 0\");\n        require(minHoldingForCallback <= 10000, \"StashBlox: minHoldingForCallback should be lower or equal than 10000\");\n        require(feesRecipients.length > 0, \"StashBlox: need at least one feesRecipients\");\n        require(feesRecipients.length == feesRecipientsPercentage.length, \"StashBlox: invalid feesRecipientsPercentage length\");\n\n        uint256 totalPercentage = 0;\n        for (uint256 i = 0; i < feesRecipientsPercentage.length; ++i) {\n            totalPercentage += feesRecipientsPercentage[i];\n            require(feesRecipientsPercentage[i] > 0, \"StashBlox: feesRecipientsPercentage should be greater than 0\");\n        }\n        require(totalPercentage == 10000, \"StashBlox: Total of feesRecipientsPercentage must be equal to 10000\");\n\n        _isHolder[id][recipient] = true;\n        _tokensByAddress[recipient].push(id);\n        _supplies[id] = supply;\n        _balances[id][recipient] = supply;\n        _updateMetadataHash(id, metadataHash);\n        _birthdays[id][recipient] = block.timestamp;\n        _storageCostHistory[id].push([block.timestamp, storageCreditCost]);\n        _minHoldingForCallback[id] = minHoldingForCallback;\n        _feesRecipients[id] = feesRecipients;\n        _feesRecipientsPercentage[id] = feesRecipientsPercentage;\n\n        emit TransferSingle(msg.sender, address(0), recipient, id, supply);\n        // emit URI(uri, id);\n    }\n\n    /**\n     * @dev Function to mint an amount of a token with the given ID.\n     * @param recipient The address that will own the minted tokens\n     * @param id ID of the token to be minted\n     * @param supply Amount of the token to be minted\n     * @param metadataHash Metadata file hash\n     * @param storageCreditCost cost for 24h storage in storageCredit (x 10 ^ 8 for the precision)\n     * @param minHoldingForCallback minimum holding to propose a callback\n     * @param feesRecipients list of addresses receiving transfer fees\n     * @param feesRecipientsPercentage list of percentage, each one for the corresponding feesRecipients\n     */\n    function createToken(address recipient,\n                         uint256 id,\n                         uint256 supply,\n                         uint256 metadataHash,\n                         uint256 storageCreditCost,\n                         uint256 minHoldingForCallback,\n                         address[] calldata feesRecipients,\n                         uint256[] calldata feesRecipientsPercentage)\n    external onlyTokenizer {\n        _createToken(recipient,\n                     id,\n                     supply,\n                     metadataHash,\n                     storageCreditCost,\n                     minHoldingForCallback,\n                     feesRecipients,\n                     feesRecipientsPercentage);\n    }\n\n    function updateMetadataHash(uint256 id, uint256 metadataHash) external onlyTokenizer {\n      _updateMetadataHash(id, metadataHash);\n    }\n\n    function updateStorageCreditPrice(uint256 newPrice) external onlyTokenizer {\n      storageCreditPrice = newPrice;\n      emit UpdateStorageCreditPrice(msg.sender, newPrice);\n    }\n\n    function updateStorageCost(uint256 id, uint256 newCost) external onlyTokenizer {\n      _storageCostHistory[id].push([block.timestamp, newCost]);\n      emit UpdateStorageCost(msg.sender, id, newCost);\n    }\n\n    function withdraw(address to, uint256 amount) external onlyOwner {\n      require(_ETHBalances[to] >= amount, \"StashBlox: Insufficient balance.\");\n      (bool success, ) = to.call.value(amount)(\"\");\n      require(success, \"StashBlox: Withdrawal failed.\");\n      _ETHBalances[to] -= amount;\n    }\n\n    /**\n     * @param id Token ID\n     * @return Token supply\n     */\n    function totalSupply(uint256 id) external view returns (uint256) {\n        return _supplies[id];\n    }\n}\n",
  "sourcePath": "/home/ouziel/Work/StashBloxContracts/contracts/lib/ERC1155/ERC1155Mintable.sol",
  "compiler": {
    "name": "solc",
    "version": "0.5.12+commit.7709ece9.Emscripten.clang"
  },
  "schemaVersion": "3.2.3",
  "updatedAt": "2020-09-27T14:48:35.459Z",
  "devdoc": {
    "methods": {
      "balanceOf(address,uint256)": {
        "details": "Get the specified address' balance for token with specified ID. Attempting to query the zero account for a balance will result in a revert.",
        "params": {
          "account": "The address of the token holder",
          "id": "ID of the token"
        },
        "return": "The account's balance of the token type requested"
      },
      "balanceOfBatch(address[],uint256[])": {
        "details": "Get the balance of multiple account/token pairs. If any of the query accounts is the zero account, this query will revert.",
        "params": {
          "accounts": "The addresses of the token holders",
          "ids": "IDs of the tokens"
        },
        "return": "Balances for each account and token id pair"
      },
      "createToken(address,uint256,uint256,uint256,uint256,uint256,address[],uint256[])": {
        "details": "Function to mint an amount of a token with the given ID.",
        "params": {
          "feesRecipients": "list of addresses receiving transfer fees",
          "feesRecipientsPercentage": "list of percentage, each one for the corresponding feesRecipients",
          "id": "ID of the token to be minted",
          "metadataHash": "Metadata file hash",
          "minHoldingForCallback": "minimum holding to propose a callback",
          "recipient": "The address that will own the minted tokens",
          "storageCreditCost": "cost for 24h storage in storageCredit (x 10 ^ 8 for the precision)",
          "supply": "Amount of the token to be minted"
        }
      },
      "isApprovedForAll(address,address)": {
        "params": {
          "account": "The account of the Tokens",
          "operator": "Address of authorized operator"
        },
        "return": "True if the operator is approved, false if not"
      },
      "owner()": {
        "details": "Returns the address of the current owner."
      },
      "safeBatchTransferFrom(address,address,uint256[],uint256[],bytes)": {
        "details": "Transfers `values` amount(s) of `ids` from the `from` address to the `to` address specified. Caller must be approved to manage the tokens being transferred out of the `from` account. If `to` is a smart contract, will call `onERC1155BatchReceived` on `to` and act appropriately.",
        "params": {
          "data": "Data forwarded to `onERC1155Received` if `to` is a contract receiver",
          "from": "Source address",
          "ids": "IDs of each token type",
          "to": "Target address",
          "values": "Transfer amounts per token type"
        }
      },
      "safeTransferFrom(address,address,uint256,uint256,bytes)": {
        "details": "Transfers `value` amount of an `id` from the `from` address to the `to` address specified. Caller must be approved to manage the tokens being transferred out of the `from` account. If `to` is a smart contract, will call `onERC1155Received` on `to` and act appropriately.",
        "params": {
          "data": "Data forwarded to `onERC1155Received` if `to` is a contract receiver",
          "from": "Source address",
          "id": "ID of the token type",
          "to": "Target address",
          "value": "Transfer amount"
        }
      },
      "setApprovalForAll(address,bool)": {
        "details": "Sets or unsets the approval of a given operator.     * An operator is allowed to transfer all tokens of the sender on their behalf.     * Because an account already has operator privileges for itself, this function will revert if the account attempts to set the approval status for itself.",
        "params": {
          "approved": "representing the status of the approval to be set",
          "operator": "address to set the approval"
        }
      },
      "supportsInterface(bytes4)": {
        "params": {
          "_interfaceID": "The interface identifier, as specified in ERC-165"
        },
        "return": "`true` if the contract implements `_interfaceID` and"
      },
      "totalSupply(uint256)": {
        "params": {
          "id": "Token ID"
        },
        "return": "Token supply"
      },
      "transferOwnership(address)": {
        "details": "Transfers ownership of the contract to a new account (`newOwner`). Can only be called by the current owner."
      },
      "uri(uint256)": {
        "params": {
          "id": "Token ID"
        },
        "return": "URI string"
      }
    }
  },
  "userdoc": {
    "methods": {
      "isApprovedForAll(address,address)": {
        "notice": "Queries the approval status of an operator for a given account."
      },
      "supportsInterface(bytes4)": {
        "notice": "Query if a contract implements an interface"
      }
    }
  }
}