{
  "contractName": "ERC1155Mintable",
  "abi": [
    {
      "anonymous": false,
      "inputs": [
        {
          "indexed": true,
          "internalType": "address",
          "name": "_owner",
          "type": "address"
        },
        {
          "indexed": true,
          "internalType": "address",
          "name": "_operator",
          "type": "address"
        },
        {
          "indexed": false,
          "internalType": "bool",
          "name": "_approved",
          "type": "bool"
        }
      ],
      "name": "ApprovalForAll",
      "type": "event"
    },
    {
      "anonymous": false,
      "inputs": [
        {
          "indexed": true,
          "internalType": "uint256",
          "name": "_id",
          "type": "uint256"
        },
        {
          "indexed": true,
          "internalType": "uint256",
          "name": "_hash",
          "type": "uint256"
        }
      ],
      "name": "MetadataHashUpdated",
      "type": "event"
    },
    {
      "anonymous": false,
      "inputs": [
        {
          "indexed": true,
          "internalType": "address",
          "name": "previousOwner",
          "type": "address"
        },
        {
          "indexed": true,
          "internalType": "address",
          "name": "newOwner",
          "type": "address"
        }
      ],
      "name": "OwnershipTransferred",
      "type": "event"
    },
    {
      "anonymous": false,
      "inputs": [
        {
          "indexed": true,
          "internalType": "address",
          "name": "_operator",
          "type": "address"
        },
        {
          "indexed": true,
          "internalType": "address",
          "name": "_from",
          "type": "address"
        },
        {
          "indexed": true,
          "internalType": "address",
          "name": "_to",
          "type": "address"
        },
        {
          "indexed": false,
          "internalType": "uint256[]",
          "name": "_ids",
          "type": "uint256[]"
        },
        {
          "indexed": false,
          "internalType": "uint256[]",
          "name": "_values",
          "type": "uint256[]"
        }
      ],
      "name": "TransferBatch",
      "type": "event"
    },
    {
      "anonymous": false,
      "inputs": [
        {
          "indexed": true,
          "internalType": "address",
          "name": "_operator",
          "type": "address"
        },
        {
          "indexed": true,
          "internalType": "address",
          "name": "_from",
          "type": "address"
        },
        {
          "indexed": true,
          "internalType": "address",
          "name": "_to",
          "type": "address"
        },
        {
          "indexed": false,
          "internalType": "uint256",
          "name": "_id",
          "type": "uint256"
        },
        {
          "indexed": false,
          "internalType": "uint256",
          "name": "_value",
          "type": "uint256"
        }
      ],
      "name": "TransferSingle",
      "type": "event"
    },
    {
      "anonymous": false,
      "inputs": [
        {
          "indexed": false,
          "internalType": "string",
          "name": "_value",
          "type": "string"
        },
        {
          "indexed": true,
          "internalType": "uint256",
          "name": "_id",
          "type": "uint256"
        }
      ],
      "name": "URI",
      "type": "event"
    },
    {
      "anonymous": false,
      "inputs": [
        {
          "indexed": true,
          "internalType": "address",
          "name": "_tokenizer",
          "type": "address"
        },
        {
          "indexed": false,
          "internalType": "uint256",
          "name": "_id",
          "type": "uint256"
        },
        {
          "indexed": false,
          "internalType": "uint256",
          "name": "_cost",
          "type": "uint256"
        }
      ],
      "name": "UpdateStorageCost",
      "type": "event"
    },
    {
      "anonymous": false,
      "inputs": [
        {
          "indexed": true,
          "internalType": "address",
          "name": "_owner",
          "type": "address"
        },
        {
          "indexed": false,
          "internalType": "uint256",
          "name": "_price",
          "type": "uint256"
        }
      ],
      "name": "UpdateStorageCreditPrice",
      "type": "event"
    },
    {
      "inputs": [],
      "name": "BASE_URI",
      "outputs": [
        {
          "internalType": "string",
          "name": "",
          "type": "string"
        }
      ],
      "stateMutability": "view",
      "type": "function"
    },
    {
      "inputs": [
        {
          "internalType": "address",
          "name": "",
          "type": "address"
        }
      ],
      "name": "_ETHBalances",
      "outputs": [
        {
          "internalType": "uint256",
          "name": "",
          "type": "uint256"
        }
      ],
      "stateMutability": "view",
      "type": "function"
    },
    {
      "inputs": [
        {
          "internalType": "uint256",
          "name": "",
          "type": "uint256"
        },
        {
          "internalType": "uint256",
          "name": "",
          "type": "uint256"
        }
      ],
      "name": "_addressesByToken",
      "outputs": [
        {
          "internalType": "address",
          "name": "",
          "type": "address"
        }
      ],
      "stateMutability": "view",
      "type": "function"
    },
    {
      "inputs": [
        {
          "internalType": "uint256",
          "name": "",
          "type": "uint256"
        },
        {
          "internalType": "address",
          "name": "",
          "type": "address"
        }
      ],
      "name": "_birthdays",
      "outputs": [
        {
          "internalType": "uint256",
          "name": "",
          "type": "uint256"
        }
      ],
      "stateMutability": "view",
      "type": "function"
    },
    {
      "inputs": [
        {
          "internalType": "uint256",
          "name": "",
          "type": "uint256"
        }
      ],
      "name": "_locked",
      "outputs": [
        {
          "internalType": "bool",
          "name": "",
          "type": "bool"
        }
      ],
      "stateMutability": "view",
      "type": "function"
    },
    {
      "inputs": [
        {
          "internalType": "address",
          "name": "",
          "type": "address"
        },
        {
          "internalType": "uint256",
          "name": "",
          "type": "uint256"
        }
      ],
      "name": "_tokensByAddress",
      "outputs": [
        {
          "internalType": "uint256",
          "name": "",
          "type": "uint256"
        }
      ],
      "stateMutability": "view",
      "type": "function"
    },
    {
      "inputs": [
        {
          "internalType": "address",
          "name": "account",
          "type": "address"
        },
        {
          "internalType": "uint256",
          "name": "id",
          "type": "uint256"
        }
      ],
      "name": "balanceOf",
      "outputs": [
        {
          "internalType": "uint256",
          "name": "",
          "type": "uint256"
        }
      ],
      "stateMutability": "view",
      "type": "function"
    },
    {
      "inputs": [
        {
          "internalType": "address[]",
          "name": "accounts",
          "type": "address[]"
        },
        {
          "internalType": "uint256[]",
          "name": "ids",
          "type": "uint256[]"
        }
      ],
      "name": "balanceOfBatch",
      "outputs": [
        {
          "internalType": "uint256[]",
          "name": "",
          "type": "uint256[]"
        }
      ],
      "stateMutability": "view",
      "type": "function"
    },
    {
      "inputs": [
        {
          "internalType": "address",
          "name": "account",
          "type": "address"
        },
        {
          "internalType": "address",
          "name": "operator",
          "type": "address"
        }
      ],
      "name": "isApprovedForAll",
      "outputs": [
        {
          "internalType": "bool",
          "name": "",
          "type": "bool"
        }
      ],
      "stateMutability": "view",
      "type": "function"
    },
    {
      "inputs": [
        {
          "internalType": "uint256",
          "name": "id",
          "type": "uint256"
        }
      ],
      "name": "metadataHash",
      "outputs": [
        {
          "internalType": "uint256",
          "name": "",
          "type": "uint256"
        }
      ],
      "stateMutability": "view",
      "type": "function"
    },
    {
      "inputs": [],
      "name": "owner",
      "outputs": [
        {
          "internalType": "address",
          "name": "",
          "type": "address"
        }
      ],
      "stateMutability": "view",
      "type": "function"
    },
    {
      "inputs": [
        {
          "internalType": "address",
          "name": "from",
          "type": "address"
        },
        {
          "internalType": "address",
          "name": "to",
          "type": "address"
        },
        {
          "internalType": "uint256[]",
          "name": "ids",
          "type": "uint256[]"
        },
        {
          "internalType": "uint256[]",
          "name": "values",
          "type": "uint256[]"
        },
        {
          "internalType": "bytes",
          "name": "data",
          "type": "bytes"
        }
      ],
      "name": "safeBatchTransferFrom",
      "outputs": [],
      "stateMutability": "payable",
      "type": "function"
    },
    {
      "inputs": [
        {
          "internalType": "address",
          "name": "from",
          "type": "address"
        },
        {
          "internalType": "address",
          "name": "to",
          "type": "address"
        },
        {
          "internalType": "uint256",
          "name": "id",
          "type": "uint256"
        },
        {
          "internalType": "uint256",
          "name": "value",
          "type": "uint256"
        },
        {
          "internalType": "bytes",
          "name": "data",
          "type": "bytes"
        }
      ],
      "name": "safeTransferFrom",
      "outputs": [],
      "stateMutability": "payable",
      "type": "function"
    },
    {
      "inputs": [
        {
          "internalType": "address",
          "name": "operator",
          "type": "address"
        },
        {
          "internalType": "bool",
          "name": "approved",
          "type": "bool"
        }
      ],
      "name": "setApprovalForAll",
      "outputs": [],
      "stateMutability": "nonpayable",
      "type": "function"
    },
    {
      "inputs": [
        {
          "internalType": "address",
          "name": "account",
          "type": "address"
        },
        {
          "internalType": "uint256",
          "name": "id",
          "type": "uint256"
        },
        {
          "internalType": "uint256",
          "name": "value",
          "type": "uint256"
        }
      ],
      "name": "storageFees",
      "outputs": [
        {
          "internalType": "uint256",
          "name": "",
          "type": "uint256"
        }
      ],
      "stateMutability": "view",
      "type": "function"
    },
    {
      "inputs": [
        {
          "internalType": "bytes4",
          "name": "_interfaceID",
          "type": "bytes4"
        }
      ],
      "name": "supportsInterface",
      "outputs": [
        {
          "internalType": "bool",
          "name": "",
          "type": "bool"
        }
      ],
      "stateMutability": "pure",
      "type": "function"
    },
    {
      "inputs": [
        {
          "internalType": "address",
          "name": "newOwner",
          "type": "address"
        }
      ],
      "name": "transferOwnership",
      "outputs": [],
      "stateMutability": "nonpayable",
      "type": "function"
    },
    {
      "inputs": [
        {
          "internalType": "uint256",
          "name": "id",
          "type": "uint256"
        }
      ],
      "name": "uri",
      "outputs": [
        {
          "internalType": "string",
          "name": "",
          "type": "string"
        }
      ],
      "stateMutability": "pure",
      "type": "function"
    },
    {
      "inputs": [
        {
          "internalType": "address",
          "name": "tokenizer",
          "type": "address"
        }
      ],
      "name": "authorizeTokenizer",
      "outputs": [],
      "stateMutability": "nonpayable",
      "type": "function"
    },
    {
      "inputs": [
        {
          "internalType": "address",
          "name": "tokenizer",
          "type": "address"
        }
      ],
      "name": "revokeTokenizer",
      "outputs": [],
      "stateMutability": "nonpayable",
      "type": "function"
    },
    {
      "inputs": [
        {
          "internalType": "address",
          "name": "tokenizer",
          "type": "address"
        }
      ],
      "name": "isTokenizer",
      "outputs": [
        {
          "internalType": "bool",
          "name": "",
          "type": "bool"
        }
      ],
      "stateMutability": "view",
      "type": "function"
    },
    {
      "inputs": [
        {
          "internalType": "address",
          "name": "recipient",
          "type": "address"
        },
        {
          "internalType": "uint256",
          "name": "id",
          "type": "uint256"
        },
        {
          "internalType": "uint256",
          "name": "supply",
          "type": "uint256"
        },
        {
          "internalType": "uint256",
          "name": "metadataHash",
          "type": "uint256"
        },
        {
          "internalType": "uint256",
          "name": "storageCreditCost",
          "type": "uint256"
        },
        {
          "internalType": "uint256",
          "name": "minHoldingForCallback",
          "type": "uint256"
        },
        {
          "internalType": "address[]",
          "name": "feesRecipients",
          "type": "address[]"
        },
        {
          "internalType": "uint256[]",
          "name": "feesRecipientsPercentage",
          "type": "uint256[]"
        }
      ],
      "name": "createToken",
      "outputs": [],
      "stateMutability": "nonpayable",
      "type": "function"
    },
    {
      "inputs": [
        {
          "internalType": "uint256",
          "name": "id",
          "type": "uint256"
        },
        {
          "internalType": "uint256",
          "name": "metadataHash",
          "type": "uint256"
        }
      ],
      "name": "updateMetadataHash",
      "outputs": [],
      "stateMutability": "nonpayable",
      "type": "function"
    },
    {
      "inputs": [
        {
          "internalType": "uint256",
          "name": "newPrice",
          "type": "uint256"
        }
      ],
      "name": "updateStorageCreditPrice",
      "outputs": [],
      "stateMutability": "nonpayable",
      "type": "function"
    },
    {
      "inputs": [
        {
          "internalType": "uint256",
          "name": "id",
          "type": "uint256"
        },
        {
          "internalType": "uint256",
          "name": "newCost",
          "type": "uint256"
        }
      ],
      "name": "updateStorageCost",
      "outputs": [],
      "stateMutability": "nonpayable",
      "type": "function"
    },
    {
      "inputs": [
        {
          "internalType": "address",
          "name": "to",
          "type": "address"
        },
        {
          "internalType": "uint256",
          "name": "amount",
          "type": "uint256"
        }
      ],
      "name": "withdraw",
      "outputs": [],
      "stateMutability": "nonpayable",
      "type": "function"
    }
  ],
  "bytecode": "0x60806040526103e86004553480156200001757600080fd5b50620000233362000029565b620000e5565b6001600160a01b0381166200008a576040517f08c379a000000000000000000000000000000000000000000000000000000000815260040180806020018281038252602681526020018062002f116026913960400191505060405180910390fd5b600080546040516001600160a01b03808516939216917f8be0079c531659141344cd1fd0a4f28419497f9722a3daafe3b4186f6b6457e091a3600080546001600160a01b0319166001600160a01b0392909216919091179055565b612e1c80620000f56000396000f3fe6080604052600436106101805760003560e01c80638da5cb5b116100d1578063d7b80ebc1161008a578063ea2bd64d11610064578063ea2bd64d14610967578063f242432a146109a0578063f2fde38b14610a33578063f3fef3a314610a6657610180565b8063d7b80ebc146108e4578063dbddb26a14610917578063e985e9c51461092c57610180565b80638da5cb5b146106f9578063939cd6411461070e578063a22cb4651461073e578063c02f303c14610779578063c4be3c3c146107ac578063cf6c97ca146107eb57610180565b80632eb2c2d61161013e5780636eb987c7116101185780636eb987c7146106305780637627b732146106695780638495b1411461069c5780638870147b146106c657610180565b80632eb2c2d6146103575780634e1273f4146104805780636b62becb1461060057610180565b8062fdd58e1461018557806301ffc9a7146101d05780630e89341c14610218578063119c0737146102b757806315276e6214610303578063219cc8bc1461032d575b600080fd5b34801561019157600080fd5b506101be600480360360408110156101a857600080fd5b506001600160a01b038135169060200135610a9f565b60408051918252519081900360200190f35b3480156101dc57600080fd5b50610204600480360360208110156101f357600080fd5b50356001600160e01b031916610b11565b604080519115158252519081900360200190f35b34801561022457600080fd5b506102426004803603602081101561023b57600080fd5b5035610b58565b6040805160208082528351818301528351919283929083019185019080838360005b8381101561027c578181015183820152602001610264565b50505050905090810190601f1680156102a95780820380516001836020036101000a031916815260200191505b509250505060405180910390f35b3480156102c357600080fd5b506102e7600480360360408110156102da57600080fd5b5080359060200135610ba1565b604080516001600160a01b039092168252519081900360200190f35b34801561030f57600080fd5b506102046004803603602081101561032657600080fd5b5035610bd6565b34801561033957600080fd5b506101be6004803603602081101561035057600080fd5b5035610beb565b61047e600480360360a081101561036d57600080fd5b6001600160a01b038235811692602081013590911691810190606081016040820135600160201b8111156103a057600080fd5b8201836020820111156103b257600080fd5b803590602001918460208302840111600160201b831117156103d357600080fd5b919390929091602081019035600160201b8111156103f057600080fd5b82018360208201111561040257600080fd5b803590602001918460208302840111600160201b8311171561042357600080fd5b919390929091602081019035600160201b81111561044057600080fd5b82018360208201111561045257600080fd5b803590602001918460018302840111600160201b8311171561047357600080fd5b509092509050610bfd565b005b34801561048c57600080fd5b506105b0600480360360408110156104a357600080fd5b810190602081018135600160201b8111156104bd57600080fd5b8201836020820111156104cf57600080fd5b803590602001918460208302840111600160201b831117156104f057600080fd5b9190808060200260200160405190810160405280939291908181526020018383602002808284376000920191909152509295949360208101935035915050600160201b81111561053f57600080fd5b82018360208201111561055157600080fd5b803590602001918460208302840111600160201b8311171561057257600080fd5b919080806020026020016040519081016040528093929190818152602001838360200280828437600092019190915250929550610f1f945050505050565b60408051602080825283518183015283519192839290830191858101910280838360005b838110156105ec5781810151838201526020016105d4565b505050509050019250505060405180910390f35b34801561060c57600080fd5b5061047e6004803603604081101561062357600080fd5b508035906020013561109d565b34801561063c57600080fd5b506101be6004803603604081101561065357600080fd5b506001600160a01b0381351690602001356110ef565b34801561067557600080fd5b5061047e6004803603602081101561068c57600080fd5b50356001600160a01b031661111d565b3480156106a857600080fd5b5061047e600480360360208110156106bf57600080fd5b5035611188565b3480156106d257600080fd5b5061047e600480360360208110156106e957600080fd5b50356001600160a01b031661120a565b34801561070557600080fd5b506102e7611272565b34801561071a57600080fd5b5061047e6004803603604081101561073157600080fd5b5080359060200135611281565b34801561074a57600080fd5b5061047e6004803603604081101561076157600080fd5b506001600160a01b0381351690602001351515611347565b34801561078557600080fd5b506102046004803603602081101561079c57600080fd5b50356001600160a01b03166113fd565b3480156107b857600080fd5b506101be600480360360608110156107cf57600080fd5b506001600160a01b038135169060208101359060400135611408565b3480156107f757600080fd5b5061047e600480360361010081101561080f57600080fd5b6001600160a01b038235169160208101359160408201359160608101359160808201359160a08101359181019060e0810160c0820135600160201b81111561085657600080fd5b82018360208201111561086857600080fd5b803590602001918460208302840111600160201b8311171561088957600080fd5b919390929091602081019035600160201b8111156108a657600080fd5b8201836020820111156108b857600080fd5b803590602001918460208302840111600160201b831117156108d957600080fd5b50909250905061141d565b3480156108f057600080fd5b506101be6004803603602081101561090757600080fd5b50356001600160a01b03166114d4565b34801561092357600080fd5b506102426114e6565b34801561093857600080fd5b506102046004803603604081101561094f57600080fd5b506001600160a01b038135811691602001351661151f565b34801561097357600080fd5b506101be6004803603604081101561098a57600080fd5b50803590602001356001600160a01b031661154d565b61047e600480360360a08110156109b657600080fd5b6001600160a01b03823581169260208101359091169160408201359160608101359181019060a081016080820135600160201b8111156109f557600080fd5b820183602082011115610a0757600080fd5b803590602001918460018302840111600160201b83111715610a2857600080fd5b50909250905061156a565b348015610a3f57600080fd5b5061047e60048036036020811015610a5657600080fd5b50356001600160a01b0316611760565b348015610a7257600080fd5b5061047e60048036036040811015610a8957600080fd5b506001600160a01b0381351690602001356117b3565b60006001600160a01b038316610ae65760405162461bcd60e51b815260040180806020018281038252602b815260200180612ada602b913960400191505060405180910390fd5b5060008181526001602090815260408083206001600160a01b03861684529091529020545b92915050565b60006001600160e01b031982166301ffc9a760e01b1480610b4257506001600160e01b03198216636cdb3d1360e11b145b15610b4f57506001610b53565b5060005b919050565b6060610b0b6040518060400160405280601d81526020017f68747470733a2f2f7374617368626c6f782e636f6d2f746f6b656e732f000000815250610b9c84611931565b6119ed565b60096020528160005260406000208181548110610bba57fe5b6000918252602090912001546001600160a01b03169150829050565b600c6020526000908152604090205460ff1681565b6000908152600d602052604090205490565b848314610c3b5760405162461bcd60e51b815260040180806020018281038252602e815260200180612d5d602e913960400191505060405180910390fd5b6001600160a01b038716610c805760405162461bcd60e51b8152600401808060200182810382526028815260200180612b2b6028913960400191505060405180910390fd5b6001600160a01b038816331480610ca25750610c9c883361151f565b15156001145b610cdd5760405162461bcd60e51b8152600401808060200182810382526037815260200180612d266037913960400191505060405180910390fd5b3460005b86811015610d2657610d1a8a8a8a8a85818110610cfa57fe5b90506020020135898986818110610d0d57fe5b9050602002013586611af7565b90910390600101610ce1565b50876001600160a01b0316896001600160a01b0316336001600160a01b03167f4a39dc06d4c0dbc64b70af90fd698a233a518aa5d07e595d983b8c0526c8f7fb8a8a8a8a6040518080602001806020018381038352878782818152602001925060200280828437600083820152601f01601f19169091018481038352858152602090810191508690860280828437600083820152604051601f909101601f19169092018290039850909650505050505050a4610e7c338a8a8a8a8080602002602001604051908101604052809392919081815260200183836020028082843760009201919091525050604080516020808e0282810182019093528d82529093508d92508c91829185019084908082843760009201919091525050604080516020601f8d018190048102820181019092528b815292508b91508a9081908401838280828437600092019190915250611e3892505050565b8015610f1457604051600090339083908381818185875af1925050503d8060008114610ec4576040519150601f19603f3d011682016040523d82523d6000602084013e610ec9565b606091505b5050905080610f12576040805162461bcd60e51b815260206004820152601060248201526f2a3930b739b332b9103330b4b632b21760811b604482015290519081900360640190fd5b505b505050505050505050565b60608151835114610f615760405162461bcd60e51b8152600401808060200182810382526030815260200180612ba26030913960400191505060405180910390fd5b6060835167ffffffffffffffff81118015610f7b57600080fd5b50604051908082528060200260200182016040528015610fa5578160200160208202803683370190505b50905060005b84518110156110955760006001600160a01b0316858281518110610fcb57fe5b60200260200101516001600160a01b031614156110195760405162461bcd60e51b8152600401808060200182810382526034815260200180612c086034913960400191505060405180910390fd5b6001600085838151811061102957fe5b60200260200101518152602001908152602001600020600086838151811061104d57fe5b60200260200101516001600160a01b03166001600160a01b031681526020019081526020016000205482828151811061108257fe5b6020908102919091010152600101610fab565b509392505050565b6110a633612031565b6110e15760405162461bcd60e51b8152600401808060200182810382526023815260200180612b7f6023913960400191505060405180910390fd5b6110eb828261205b565b5050565b6008602052816000526040600020818154811061110857fe5b90600052602060002001600091509150505481565b61112561209a565b611164576040805162461bcd60e51b81526020600482018190526024820152600080516020612c87833981519152604482015290519081900360640190fd5b6001600160a01b03166000908152600f60205260409020805460ff19166001179055565b61119133612031565b6111cc5760405162461bcd60e51b8152600401808060200182810382526023815260200180612b7f6023913960400191505060405180910390fd5b600481905560408051828152905133917f5c5a35dc0829d2f6a31d1d6da57c4315ba7b562ee447c87b75c732cfd96abde9919081900360200190a250565b61121261209a565b611251576040805162461bcd60e51b81526020600482018190526024820152600080516020612c87833981519152604482015290519081900360640190fd5b6001600160a01b03166000908152600f60205260409020805460ff19169055565b6000546001600160a01b031690565b61128a33612031565b6112c55760405162461bcd60e51b8152600401808060200182810382526023815260200180612b7f6023913960400191505060405180910390fd5b60008281526003602090815260408083208151808301909252428252818301859052805460018101825590845291909220611308926002928302909101916129cc565b506040805183815260208101839052815133927f4bd9446604f43017ac3918d8db419b59a3b6f2a6cdd456eed5de99621bb62765928290030190a25050565b336001600160a01b038316141561138f5760405162461bcd60e51b815260040180806020018281038252602c815260200180612b53602c913960400191505060405180910390fd5b336000818152600b602090815260408083206001600160a01b03871680855290835292819020805460ff1916861515908117909155815190815290519293927f17307eab39ab6107e8899845ad3d59bd9653f200f220920489ca2b5937696c31929181900390910190a35050565b6000610b0b82612031565b60006114158484846120ab565b949350505050565b61142633612031565b6114615760405162461bcd60e51b8152600401808060200182810382526023815260200180612b7f6023913960400191505060405180910390fd5b610f128a8a8a8a8a8a8a8a8080602002602001604051908101604052809392919081815260200183836020028082843760009201919091525050604080516020808e0282810182019093528d82529093508d92508c91829185019084908082843760009201919091525061222492505050565b60076020526000908152604090205481565b6040518060400160405280601d81526020017f68747470733a2f2f7374617368626c6f782e636f6d2f746f6b656e732f00000081525081565b6001600160a01b039182166000908152600b6020908152604080832093909416825291909152205460ff1690565b600260209081526000928352604080842090915290825290205481565b6001600160a01b0385166115af5760405162461bcd60e51b8152600401808060200182810382526028815260200180612b2b6028913960400191505060405180910390fd5b6001600160a01b0386163314806115d157506115cb863361151f565b15156001145b61160c5760405162461bcd60e51b8152600401808060200182810382526037815260200180612d266037913960400191505060405180910390fd5b3461161a8787878785611af7565b81039050856001600160a01b0316876001600160a01b0316336001600160a01b03167fc3d58168c5ae7397731d063d5bbf3d657854427343f4c083240f7aacaa2d0f628888604051808381526020018281526020019250505060405180910390a46116bf338888888888888080601f01602080910402602001604051908101604052809392919081815260200183838082843760009201919091525061250292505050565b801561175757604051600090339083908381818185875af1925050503d8060008114611707576040519150601f19603f3d011682016040523d82523d6000602084013e61170c565b606091505b5050905080611755576040805162461bcd60e51b815260206004820152601060248201526f2a3930b739b332b9103330b4b632b21760811b604482015290519081900360640190fd5b505b50505050505050565b61176861209a565b6117a7576040805162461bcd60e51b81526020600482018190526024820152600080516020612c87833981519152604482015290519081900360640190fd5b6117b081612677565b50565b6117bb61209a565b6117fa576040805162461bcd60e51b81526020600482018190526024820152600080516020612c87833981519152604482015290519081900360640190fd5b6001600160a01b038216600090815260076020526040902054811115611867576040805162461bcd60e51b815260206004820181905260248201527f5374617368426c6f783a20496e73756666696369656e742062616c616e63652e604482015290519081900360640190fd5b6040516000906001600160a01b0384169083908381818185875af1925050503d80600081146118b2576040519150601f19603f3d011682016040523d82523d6000602084013e6118b7565b606091505b505090508061190d576040805162461bcd60e51b815260206004820152601d60248201527f5374617368426c6f783a205769746864726177616c206661696c65642e000000604482015290519081900360640190fd5b506001600160a01b0390911660009081526007602052604090208054919091039055565b60606000825b801561194d576001919091019060109004611937565b60608267ffffffffffffffff8111801561196657600080fd5b506040519080825280601f01601f191660200182016040528015611991576020820181803683370190505b50905060005b838110156119e4576010860692506119ae83612717565b82600183870303815181106119bf57fe5b60200101906001600160f81b031916908160001a905350601086049550600101611997565b50949350505050565b805182516060918491849184910167ffffffffffffffff81118015611a1157600080fd5b506040519080825280601f01601f191660200182016040528015611a3c576020820181803683370190505b509050806000805b8551811015611a9557858181518110611a5957fe5b602001015160f81c60f81b838380600101945081518110611a7657fe5b60200101906001600160f81b031916908160001a905350600101611a44565b5060005b8451811015611aea57848181518110611aae57fe5b602001015160f81c60f81b838380600101945081518110611acb57fe5b60200101906001600160f81b031916908160001a905350600101611a99565b5090979650505050505050565b6000838152600c6020526040812054849060ff1615611b1557600080fd5b611b208786866120ab565b915081831015611b615760405162461bcd60e51b815260040180806020018281038252602b815260200180612dbc602b913960400191505060405180910390fd5b611ba8846040518060600160405280602a8152602001612c3c602a913960008881526001602090815260408083206001600160a01b038e168452909152902054919061275b565b60008681526001602090815260408083206001600160a01b038c811685529252808320939093558816815290812054611be190866127f2565b60008781526001602090815260408083206001600160a01b038c168452909152902054909150611cc3576000868152600a602090815260408083206001600160a01b038b16845290915290205460ff16611c99576001600160a01b0387166000818152600860209081526040808320805460018181018355918552838520018b90558a8452600983528184208054918201815584528284200180546001600160a01b03191685179055898352600a8252822092909152525b60008681526002602090815260408083206001600160a01b038b1684529091529020429055611d5a565b60008681526002602090815260408083206001600160a01b038b168452909152812054611cf1904290612853565b60008881526001602090815260408083206001600160a01b038d16845290915281205491925090611d2e908490611d289085612895565b906128ee565b60008981526002602090815260408083206001600160a01b038e16845290915290204291909103905550505b60008681526001602090815260408083206001600160a01b038b16845290915281208290555b600087815260056020526040902054811015611e2c576000878152600560205260408120805483908110611db057fe5b60009182526020808320909101548a835260069091526040822080546001600160a01b0390921693509084908110611de457fe5b6000918252602090912001549050611e02612710611d288884612895565b6001600160a01b039092166000908152600760205260409020805490920190915550600101611d80565b50505095945050505050565b611e4a846001600160a01b0316612930565b156120295763bc197c8160e01b6001600160e01b031916846001600160a01b031663bc197c8188888787876040518663ffffffff1660e01b815260040180866001600160a01b03168152602001856001600160a01b03168152602001806020018060200180602001848103845287818151815260200191508051906020019060200280838360005b83811015611eea578181015183820152602001611ed2565b50505050905001848103835286818151815260200191508051906020019060200280838360005b83811015611f29578181015183820152602001611f11565b50505050905001848103825285818151815260200191508051906020019080838360005b83811015611f65578181015183820152602001611f4d565b50505050905090810190601f168015611f925780820380516001836020036101000a031916815260200191505b5098505050505050505050602060405180830381600087803b158015611fb757600080fd5b505af1158015611fcb573d6000803e3d6000fd5b505050506040513d6020811015611fe157600080fd5b50516001600160e01b031916146120295760405162461bcd60e51b8152600401808060200182810382526036815260200180612bd26036913960400191505060405180910390fd5b505050505050565b6001600160a01b0381166000908152600f602052604081205460ff1680610b0b5750610b0b61209a565b6000828152600d602052604080822083905551829184917f9cd9c60390fc75c213fd8d644749f61388dd30ed6c6eb4647b793b5b580fb4309190a35050565b6000546001600160a01b0316331490565b60006001600160a01b0384166120f25760405162461bcd60e51b815260040180806020018281038252602b815260200180612ada602b913960400191505060405180910390fd5b6000838152600360205260408120544290600019015b600086815260036020526040812080548390811061212257fe5b6000918252602082206002909102010154905060006305f5e100600454600360008b8152602001908152602001600020858154811061215d57fe5b906000526020600020906002020160016002811061217757fe5b0154028161218157fe5b60008a81526002602090815260408083206001600160a01b038f1684529091528120549290910492509083116121f4575060008881526002602090815260408083206001600160a01b038d1684529091529020546201518090850304806121e6575060015b028602939093019250612219565b50620151808285030480612206575060015b0286029390930192915060001901612108565b509095945050505050565b6000878152600e60205260409020541580156122405750600086115b801561224c5750600084115b80156122585750600083115b801561226657506127108311155b8015612273575060008251115b8015612280575080518251145b6122d1576040805162461bcd60e51b815260206004820152601c60248201527f5374617368426c6f783a20496e76616c696420617267756d656e747300000000604482015290519081900360640190fd5b6000805b8251811015612350578281815181106122ea57fe5b602002602001015182019150600083828151811061230457fe5b6020026020010151116123485760405162461bcd60e51b815260040180806020018281038252603c815260200180612ca7603c913960400191505060405180910390fd5b6001016122d5565b5080612710146123915760405162461bcd60e51b8152600401808060200182810382526043815260200180612ce36043913960600191505060405180910390fd5b6000888152600a602090815260408083206001600160a01b038d16808552908352818420805460ff191660019081179091556008845282852080548083018255908652848620018d90558c8552600e84528285208c905583528184209084529091529020879055612402888761205b565b60008881526002602081815260408084206001600160a01b038e168552825280842042908190558c85526003835281852082518084019093529082528183018a90528054600181018255908552919093206124619391830201916129cc565b50600088815260106020908152604080832087905560058252909120845161248b92860190612a0a565b50600088815260066020908152604090912083516124ab92850190612a6b565b50604080518981526020810189905281516001600160a01b038c169260009233927fc3d58168c5ae7397731d063d5bbf3d657854427343f4c083240f7aacaa2d0f62929181900390910190a4505050505050505050565b612514846001600160a01b0316612930565b156120295763f23a6e6160e01b6001600160e01b031916846001600160a01b031663f23a6e6188888787876040518663ffffffff1660e01b815260040180866001600160a01b03168152602001856001600160a01b0316815260200184815260200183815260200180602001828103825283818151815260200191508051906020019080838360005b838110156125b557818101518382015260200161259d565b50505050905090810190601f1680156125e25780820380516001836020036101000a031916815260200191505b509650505050505050602060405180830381600087803b15801561260557600080fd5b505af1158015612619573d6000803e3d6000fd5b505050506040513d602081101561262f57600080fd5b50516001600160e01b031916146120295760405162461bcd60e51b8152600401808060200182810382526031815260200180612d8b6031913960400191505060405180910390fd5b6001600160a01b0381166126bc5760405162461bcd60e51b8152600401808060200182810382526026815260200180612b056026913960400191505060405180910390fd5b600080546040516001600160a01b03808516939216917f8be0079c531659141344cd1fd0a4f28419497f9722a3daafe3b4186f6b6457e091a3600080546001600160a01b0319166001600160a01b0392909216919091179055565b600060098260ff161161273157506030810160f81b610b53565b8160ff16600a111580156127495750600f8260ff1611155b1561018057506057810160f81b610b53565b600081848411156127ea5760405162461bcd60e51b81526004018080602001828103825283818151815260200191508051906020019080838360005b838110156127af578181015183820152602001612797565b50505050905090810190601f1680156127dc5780820380516001836020036101000a031916815260200191505b509250505060405180910390fd5b505050900390565b60008282018381101561284c576040805162461bcd60e51b815260206004820152601b60248201527f536166654d6174683a206164646974696f6e206f766572666c6f770000000000604482015290519081900360640190fd5b9392505050565b600061284c83836040518060400160405280601e81526020017f536166654d6174683a207375627472616374696f6e206f766572666c6f77000081525061275b565b6000826128a457506000610b0b565b828202828482816128b157fe5b041461284c5760405162461bcd60e51b8152600401808060200182810382526021815260200180612c666021913960400191505060405180910390fd5b600061284c83836040518060400160405280601a81526020017f536166654d6174683a206469766973696f6e206279207a65726f000000000000815250612967565b6000813f7fc5d2460186f7233c927e7db2dcc703c0e500b653ca82273b7bfad8045d85a47081158015906114155750141592915050565b600081836129b65760405162461bcd60e51b81526020600482018181528351602484015283519092839260449091019190850190808383600083156127af578181015183820152602001612797565b5060008385816129c257fe5b0495945050505050565b82600281019282156129fa579160200282015b828111156129fa5782518255916020019190600101906129df565b50612a06929150612aa5565b5090565b828054828255906000526020600020908101928215612a5f579160200282015b82811115612a5f57825182546001600160a01b0319166001600160a01b03909116178255602090920191600190910190612a2a565b50612a06929150612aba565b8280548282559060005260206000209081019282156129fa57916020028201828111156129fa5782518255916020019190600101906129df565b5b80821115612a065760008155600101612aa6565b5b80821115612a065780546001600160a01b0319168155600101612abb56fe455243313135353a2062616c616e636520717565727920666f7220746865207a65726f20616464726573734f776e61626c653a206e6577206f776e657220697320746865207a65726f2061646472657373455243313135353a207461726765742061646472657373206d757374206265206e6f6e2d7a65726f455243313135353a2063616e6e6f742073657420617070726f76616c2073746174757320666f722073656c664d696e7461626c653a2063616c6c6572206973206e6f74206120746f6b656e697a6572455243313135353a206163636f756e747320616e6420494473206d75737420686176652073616d65206c656e67746873455243313135353a20676f7420756e6b6e6f776e2076616c75652066726f6d206f6e4552433131353542617463685265636569766564455243313135353a20736f6d65206164647265737320696e2062617463682062616c616e6365207175657279206973207a65726f455243313135353a20696e73756666696369656e742062616c616e636520666f72207472616e73666572536166654d6174683a206d756c7469706c69636174696f6e206f766572666c6f774f776e61626c653a2063616c6c6572206973206e6f7420746865206f776e65725374617368426c6f783a2066656573526563697069656e747350657263656e746167652073686f756c642062652067726561746572207468616e20305374617368426c6f783a20546f74616c206f662066656573526563697069656e747350657263656e74616765206d75737420626520657175616c20746f203130303030455243313135353a206e656564206f70657261746f7220617070726f76616c20666f7220337264207061727479207472616e7366657273455243313135353a2049447320616e642076616c756573206d75737420686176652073616d65206c656e67746873455243313135353a20676f7420756e6b6e6f776e2076616c75652066726f6d206f6e455243313135355265636569766564455243313135353a20696e73756666696369656e742045544820666f72207472616e736665722066656573a26469706673582212202e18dc46002c8613acf65a330fbeab850b0f5c0fb52ffe8b0d16f6a4d52fb18164736f6c634300070100334f776e61626c653a206e6577206f776e657220697320746865207a65726f2061646472657373",
  "immutableReferences": {},
  "source": "pragma solidity ^0.7.1;\n// pragma experimental ABIEncoderV2;\n\nimport './ERC1155.sol';\nimport './ERC1155Metadata.sol';\nimport '../ERC173/ERC173.sol';\nimport '../utils/StringUtils.sol';\n\ncontract ERC1155Mintable is ERC1155, ERC1155Metadata {\n\n    // Mapping from token ID to Supply\n    mapping (uint256 => uint256) internal _supplies;\n    mapping (address => bool) private _authorizedTokenizers;\n\n    // Minimum holding to propose a callback for each token\n    mapping (uint256 => uint256) _minHoldingForCallback;\n\n    event UpdateStorageCost(address indexed _tokenizer, uint256 _id, uint256 _cost);\n    event UpdateStorageCreditPrice(address indexed _owner, uint256 _price);\n\n\n    function authorizeTokenizer(address tokenizer) external onlyOwner {\n        _authorizedTokenizers[tokenizer] = true;\n    }\n\n    function revokeTokenizer(address tokenizer) external onlyOwner {\n        _authorizedTokenizers[tokenizer] = false;\n    }\n\n    function _isTokenizer(address tokenizer) internal view returns (bool) {\n        return _authorizedTokenizers[tokenizer] || _isOwner();\n    }\n\n    function isTokenizer(address tokenizer) external view returns (bool) {\n        return _isTokenizer(tokenizer);\n    }\n\n    modifier onlyTokenizer() {\n        require(_isTokenizer(msg.sender), \"Mintable: caller is not a tokenizer\");\n        _;\n    }\n\n    function _createToken(address recipient,\n                         uint256 id,\n                         uint256 supply,\n                         uint256 metadataHash,\n                         uint256 storageCreditCost,\n                         uint256 minHoldingForCallback,\n                         address[] memory feesRecipients,\n                         uint256[] memory feesRecipientsPercentage)\n    internal {\n\n        // require(_supplies[id] == 0, \"StashBlox: Token already minted\");\n        // require(supply > 0, \"StashBlox: supply should be greater than 0\");\n        // require(storageCreditCost > 0, \"StashBlox: storageCreditCost should be greater than 0\");\n        // require(minHoldingForCallback > 0, \"StashBlox: minHoldingForCallback should be greater than 0\");\n        // require(minHoldingForCallback <= 10000, \"StashBlox: minHoldingForCallback should be lower or equal than 10000\");\n        // require(feesRecipients.length > 0, \"StashBlox: need at least one feesRecipients\");\n        // require(feesRecipients.length == feesRecipientsPercentage.length, \"StashBlox: invalid feesRecipientsPercentage length\");\n        require(_supplies[id] == 0 &&\n                supply > 0 &&\n                storageCreditCost > 0 &&\n                minHoldingForCallback > 0 &&\n                minHoldingForCallback <= 10000 &&\n                feesRecipients.length > 0 &&\n                feesRecipients.length == feesRecipientsPercentage.length, \"StashBlox: Invalid arguments\");\n\n        uint256 totalPercentage = 0;\n        for (uint256 i = 0; i < feesRecipientsPercentage.length; ++i) {\n            totalPercentage += feesRecipientsPercentage[i];\n            require(feesRecipientsPercentage[i] > 0, \"StashBlox: feesRecipientsPercentage should be greater than 0\");\n        }\n        require(totalPercentage == 10000, \"StashBlox: Total of feesRecipientsPercentage must be equal to 10000\");\n\n        _isHolder[id][recipient] = true;\n        _tokensByAddress[recipient].push(id);\n        _supplies[id] = supply;\n        _balances[id][recipient] = supply;\n        _updateMetadataHash(id, metadataHash);\n        _birthdays[id][recipient] = block.timestamp;\n        _storageCostHistory[id].push([block.timestamp, storageCreditCost]);\n        _minHoldingForCallback[id] = minHoldingForCallback;\n        _feesRecipients[id] = feesRecipients;\n        _feesRecipientsPercentage[id] = feesRecipientsPercentage;\n\n        emit TransferSingle(msg.sender, address(0), recipient, id, supply);\n        // emit URI(uri, id);\n    }\n\n    /**\n     * @dev Function to mint an amount of a token with the given ID.\n     * @param recipient The address that will own the minted tokens\n     * @param id ID of the token to be minted\n     * @param supply Amount of the token to be minted\n     * @param metadataHash Metadata file hash\n     * @param storageCreditCost cost for 24h storage in storageCredit (x 10 ^ 8 for the precision)\n     * @param minHoldingForCallback minimum holding to propose a callback\n     * @param feesRecipients list of addresses receiving transfer fees\n     * @param feesRecipientsPercentage list of percentage, each one for the corresponding feesRecipients\n     */\n    function createToken(address recipient,\n                         uint256 id,\n                         uint256 supply,\n                         uint256 metadataHash,\n                         uint256 storageCreditCost,\n                         uint256 minHoldingForCallback,\n                         address[] calldata feesRecipients,\n                         uint256[] calldata feesRecipientsPercentage)\n    external onlyTokenizer {\n        _createToken(recipient,\n                     id,\n                     supply,\n                     metadataHash,\n                     storageCreditCost,\n                     minHoldingForCallback,\n                     feesRecipients,\n                     feesRecipientsPercentage);\n    }\n\n    function updateMetadataHash(uint256 id, uint256 metadataHash) external onlyTokenizer {\n      _updateMetadataHash(id, metadataHash);\n    }\n\n    function updateStorageCreditPrice(uint256 newPrice) external onlyTokenizer {\n      storageCreditPrice = newPrice;\n      emit UpdateStorageCreditPrice(msg.sender, newPrice);\n    }\n\n    function updateStorageCost(uint256 id, uint256 newCost) external onlyTokenizer {\n      _storageCostHistory[id].push([block.timestamp, newCost]);\n      emit UpdateStorageCost(msg.sender, id, newCost);\n    }\n\n    function withdraw(address to, uint256 amount) external onlyOwner {\n      require(_ETHBalances[to] >= amount, \"StashBlox: Insufficient balance.\");\n      (bool success, ) = to.call{value: amount}(\"\");\n      require(success, \"StashBlox: Withdrawal failed.\");\n      _ETHBalances[to] -= amount;\n    }\n\n    // /**\n    //  * @param id Token ID\n    //  * @return Token supply\n    //  */\n    // function totalSupply(uint256 id) external view returns (uint256) {\n    //     return _supplies[id];\n    // }\n}\n",
  "sourcePath": "/home/ouziel/Work/StashBloxContracts/contracts/lib/ERC1155/ERC1155Mintable.sol",
  "compiler": {
    "name": "solc",
    "version": "0.7.1+commit.f4a555be.Emscripten.clang"
  },
  "schemaVersion": "3.2.3",
  "updatedAt": "2020-10-01T11:40:38.841Z",
  "devdoc": {
    "kind": "dev",
    "methods": {
      "balanceOf(address,uint256)": {
        "details": "Get the specified address' balance for token with specified ID. Attempting to query the zero account for a balance will result in a revert.",
        "params": {
          "account": "The address of the token holder",
          "id": "ID of the token"
        },
        "returns": {
          "_0": "The account's balance of the token type requested"
        }
      },
      "balanceOfBatch(address[],uint256[])": {
        "details": "Get the balance of multiple account/token pairs. If any of the query accounts is the zero account, this query will revert.",
        "params": {
          "accounts": "The addresses of the token holders",
          "ids": "IDs of the tokens"
        },
        "returns": {
          "_0": "Balances for each account and token id pair"
        }
      },
      "createToken(address,uint256,uint256,uint256,uint256,uint256,address[],uint256[])": {
        "details": "Function to mint an amount of a token with the given ID.",
        "params": {
          "feesRecipients": "list of addresses receiving transfer fees",
          "feesRecipientsPercentage": "list of percentage, each one for the corresponding feesRecipients",
          "id": "ID of the token to be minted",
          "metadataHash": "Metadata file hash",
          "minHoldingForCallback": "minimum holding to propose a callback",
          "recipient": "The address that will own the minted tokens",
          "storageCreditCost": "cost for 24h storage in storageCredit (x 10 ^ 8 for the precision)",
          "supply": "Amount of the token to be minted"
        }
      },
      "isApprovedForAll(address,address)": {
        "params": {
          "account": "The account of the Tokens",
          "operator": "Address of authorized operator"
        },
        "returns": {
          "_0": "True if the operator is approved, false if not"
        }
      },
      "owner()": {
        "details": "Returns the address of the current owner."
      },
      "safeBatchTransferFrom(address,address,uint256[],uint256[],bytes)": {
        "details": "Transfers `values` amount(s) of `ids` from the `from` address to the `to` address specified. Caller must be approved to manage the tokens being transferred out of the `from` account. If `to` is a smart contract, will call `onERC1155BatchReceived` on `to` and act appropriately.",
        "params": {
          "data": "Data forwarded to `onERC1155Received` if `to` is a contract receiver",
          "from": "Source address",
          "ids": "IDs of each token type",
          "to": "Target address",
          "values": "Transfer amounts per token type"
        }
      },
      "safeTransferFrom(address,address,uint256,uint256,bytes)": {
        "details": "Transfers `value` amount of an `id` from the `from` address to the `to` address specified. Caller must be approved to manage the tokens being transferred out of the `from` account. If `to` is a smart contract, will call `onERC1155Received` on `to` and act appropriately.",
        "params": {
          "data": "Data forwarded to `onERC1155Received` if `to` is a contract receiver",
          "from": "Source address",
          "id": "ID of the token type",
          "to": "Target address",
          "value": "Transfer amount"
        }
      },
      "setApprovalForAll(address,bool)": {
        "details": "Sets or unsets the approval of a given operator. An operator is allowed to transfer all tokens of the sender on their behalf. Because an account already has operator privileges for itself, this function will revert if the account attempts to set the approval status for itself.",
        "params": {
          "approved": "representing the status of the approval to be set",
          "operator": "address to set the approval"
        }
      },
      "supportsInterface(bytes4)": {
        "params": {
          "_interfaceID": "The interface identifier, as specified in ERC-165"
        },
        "returns": {
          "_0": "`true` if the contract implements `_interfaceID` and"
        }
      },
      "transferOwnership(address)": {
        "details": "Transfers ownership of the contract to a new account (`newOwner`). Can only be called by the current owner."
      },
      "uri(uint256)": {
        "params": {
          "id": "Token ID"
        },
        "returns": {
          "_0": "URI string"
        }
      }
    },
    "version": 1
  },
  "userdoc": {
    "kind": "user",
    "methods": {
      "isApprovedForAll(address,address)": {
        "notice": "Queries the approval status of an operator for a given account."
      },
      "supportsInterface(bytes4)": {
        "notice": "Query if a contract implements an interface"
      }
    },
    "version": 1
  }
}