{
  "contractName": "ERC1155Mintable",
  "abi": [
    {
      "anonymous": false,
      "inputs": [
        {
          "indexed": true,
          "internalType": "address",
          "name": "_owner",
          "type": "address"
        },
        {
          "indexed": true,
          "internalType": "address",
          "name": "_operator",
          "type": "address"
        },
        {
          "indexed": false,
          "internalType": "bool",
          "name": "_approved",
          "type": "bool"
        }
      ],
      "name": "ApprovalForAll",
      "type": "event"
    },
    {
      "anonymous": false,
      "inputs": [
        {
          "indexed": true,
          "internalType": "uint256",
          "name": "_id",
          "type": "uint256"
        },
        {
          "indexed": true,
          "internalType": "uint256",
          "name": "_hash",
          "type": "uint256"
        }
      ],
      "name": "MetadataHashUpdated",
      "type": "event"
    },
    {
      "anonymous": false,
      "inputs": [
        {
          "indexed": true,
          "internalType": "address",
          "name": "previousOwner",
          "type": "address"
        },
        {
          "indexed": true,
          "internalType": "address",
          "name": "newOwner",
          "type": "address"
        }
      ],
      "name": "OwnershipTransferred",
      "type": "event"
    },
    {
      "anonymous": false,
      "inputs": [
        {
          "indexed": true,
          "internalType": "address",
          "name": "_operator",
          "type": "address"
        },
        {
          "indexed": true,
          "internalType": "address",
          "name": "_from",
          "type": "address"
        },
        {
          "indexed": true,
          "internalType": "address",
          "name": "_to",
          "type": "address"
        },
        {
          "indexed": false,
          "internalType": "uint256[]",
          "name": "_ids",
          "type": "uint256[]"
        },
        {
          "indexed": false,
          "internalType": "uint256[]",
          "name": "_values",
          "type": "uint256[]"
        }
      ],
      "name": "TransferBatch",
      "type": "event"
    },
    {
      "anonymous": false,
      "inputs": [
        {
          "indexed": true,
          "internalType": "address",
          "name": "_operator",
          "type": "address"
        },
        {
          "indexed": true,
          "internalType": "address",
          "name": "_from",
          "type": "address"
        },
        {
          "indexed": true,
          "internalType": "address",
          "name": "_to",
          "type": "address"
        },
        {
          "indexed": false,
          "internalType": "uint256",
          "name": "_id",
          "type": "uint256"
        },
        {
          "indexed": false,
          "internalType": "uint256",
          "name": "_value",
          "type": "uint256"
        }
      ],
      "name": "TransferSingle",
      "type": "event"
    },
    {
      "anonymous": false,
      "inputs": [
        {
          "indexed": false,
          "internalType": "string",
          "name": "_value",
          "type": "string"
        },
        {
          "indexed": true,
          "internalType": "uint256",
          "name": "_id",
          "type": "uint256"
        }
      ],
      "name": "URI",
      "type": "event"
    },
    {
      "anonymous": false,
      "inputs": [
        {
          "indexed": true,
          "internalType": "address",
          "name": "_tokenizer",
          "type": "address"
        },
        {
          "indexed": false,
          "internalType": "uint256",
          "name": "_id",
          "type": "uint256"
        },
        {
          "indexed": false,
          "internalType": "uint256",
          "name": "_cost",
          "type": "uint256"
        }
      ],
      "name": "UpdateStorageCost",
      "type": "event"
    },
    {
      "anonymous": false,
      "inputs": [
        {
          "indexed": true,
          "internalType": "address",
          "name": "_owner",
          "type": "address"
        },
        {
          "indexed": false,
          "internalType": "uint256",
          "name": "_price",
          "type": "uint256"
        }
      ],
      "name": "UpdateStorageCreditPrice",
      "type": "event"
    },
    {
      "constant": true,
      "inputs": [],
      "name": "BASE_URI",
      "outputs": [
        {
          "internalType": "string",
          "name": "",
          "type": "string"
        }
      ],
      "payable": false,
      "stateMutability": "view",
      "type": "function"
    },
    {
      "constant": true,
      "inputs": [
        {
          "internalType": "uint256",
          "name": "id",
          "type": "uint256"
        }
      ],
      "name": "addressesByToken",
      "outputs": [
        {
          "internalType": "string",
          "name": "result",
          "type": "string"
        }
      ],
      "payable": false,
      "stateMutability": "view",
      "type": "function"
    },
    {
      "constant": true,
      "inputs": [
        {
          "internalType": "address",
          "name": "account",
          "type": "address"
        },
        {
          "internalType": "uint256",
          "name": "id",
          "type": "uint256"
        }
      ],
      "name": "balanceOf",
      "outputs": [
        {
          "internalType": "uint256",
          "name": "",
          "type": "uint256"
        }
      ],
      "payable": false,
      "stateMutability": "view",
      "type": "function"
    },
    {
      "constant": true,
      "inputs": [
        {
          "internalType": "address[]",
          "name": "accounts",
          "type": "address[]"
        },
        {
          "internalType": "uint256[]",
          "name": "ids",
          "type": "uint256[]"
        }
      ],
      "name": "balanceOfBatch",
      "outputs": [
        {
          "internalType": "uint256[]",
          "name": "",
          "type": "uint256[]"
        }
      ],
      "payable": false,
      "stateMutability": "view",
      "type": "function"
    },
    {
      "constant": true,
      "inputs": [
        {
          "internalType": "address",
          "name": "account",
          "type": "address"
        },
        {
          "internalType": "uint256",
          "name": "id",
          "type": "uint256"
        }
      ],
      "name": "birthdayOf",
      "outputs": [
        {
          "internalType": "uint256",
          "name": "",
          "type": "uint256"
        }
      ],
      "payable": false,
      "stateMutability": "view",
      "type": "function"
    },
    {
      "constant": true,
      "inputs": [
        {
          "internalType": "address",
          "name": "account",
          "type": "address"
        },
        {
          "internalType": "address",
          "name": "operator",
          "type": "address"
        }
      ],
      "name": "isApprovedForAll",
      "outputs": [
        {
          "internalType": "bool",
          "name": "",
          "type": "bool"
        }
      ],
      "payable": false,
      "stateMutability": "view",
      "type": "function"
    },
    {
      "constant": true,
      "inputs": [
        {
          "internalType": "address",
          "name": "addr",
          "type": "address"
        }
      ],
      "name": "isLockedAddress",
      "outputs": [
        {
          "internalType": "bool",
          "name": "",
          "type": "bool"
        }
      ],
      "payable": false,
      "stateMutability": "view",
      "type": "function"
    },
    {
      "constant": true,
      "inputs": [
        {
          "internalType": "uint256",
          "name": "id",
          "type": "uint256"
        }
      ],
      "name": "isLockedToken",
      "outputs": [
        {
          "internalType": "bool",
          "name": "",
          "type": "bool"
        }
      ],
      "payable": false,
      "stateMutability": "view",
      "type": "function"
    },
    {
      "constant": false,
      "inputs": [
        {
          "internalType": "address",
          "name": "addr",
          "type": "address"
        }
      ],
      "name": "lockAddress",
      "outputs": [],
      "payable": false,
      "stateMutability": "nonpayable",
      "type": "function"
    },
    {
      "constant": false,
      "inputs": [
        {
          "internalType": "uint256",
          "name": "id",
          "type": "uint256"
        }
      ],
      "name": "lockToken",
      "outputs": [],
      "payable": false,
      "stateMutability": "nonpayable",
      "type": "function"
    },
    {
      "constant": true,
      "inputs": [
        {
          "internalType": "uint256",
          "name": "id",
          "type": "uint256"
        }
      ],
      "name": "metadataHash",
      "outputs": [
        {
          "internalType": "uint256",
          "name": "",
          "type": "uint256"
        }
      ],
      "payable": false,
      "stateMutability": "view",
      "type": "function"
    },
    {
      "constant": true,
      "inputs": [],
      "name": "owner",
      "outputs": [
        {
          "internalType": "address",
          "name": "",
          "type": "address"
        }
      ],
      "payable": false,
      "stateMutability": "view",
      "type": "function"
    },
    {
      "constant": false,
      "inputs": [
        {
          "internalType": "address",
          "name": "from",
          "type": "address"
        },
        {
          "internalType": "address",
          "name": "to",
          "type": "address"
        },
        {
          "internalType": "uint256[]",
          "name": "ids",
          "type": "uint256[]"
        },
        {
          "internalType": "uint256[]",
          "name": "values",
          "type": "uint256[]"
        },
        {
          "internalType": "bytes",
          "name": "data",
          "type": "bytes"
        }
      ],
      "name": "safeBatchTransferFrom",
      "outputs": [],
      "payable": true,
      "stateMutability": "payable",
      "type": "function"
    },
    {
      "constant": false,
      "inputs": [
        {
          "internalType": "address",
          "name": "from",
          "type": "address"
        },
        {
          "internalType": "address",
          "name": "to",
          "type": "address"
        },
        {
          "internalType": "uint256",
          "name": "id",
          "type": "uint256"
        },
        {
          "internalType": "uint256",
          "name": "value",
          "type": "uint256"
        },
        {
          "internalType": "bytes",
          "name": "data",
          "type": "bytes"
        }
      ],
      "name": "safeTransferFrom",
      "outputs": [],
      "payable": true,
      "stateMutability": "payable",
      "type": "function"
    },
    {
      "constant": false,
      "inputs": [
        {
          "internalType": "address",
          "name": "operator",
          "type": "address"
        },
        {
          "internalType": "bool",
          "name": "approved",
          "type": "bool"
        }
      ],
      "name": "setApprovalForAll",
      "outputs": [],
      "payable": false,
      "stateMutability": "nonpayable",
      "type": "function"
    },
    {
      "constant": true,
      "inputs": [
        {
          "internalType": "address",
          "name": "account",
          "type": "address"
        },
        {
          "internalType": "uint256",
          "name": "id",
          "type": "uint256"
        },
        {
          "internalType": "uint256",
          "name": "value",
          "type": "uint256"
        }
      ],
      "name": "storageFees",
      "outputs": [
        {
          "internalType": "uint256",
          "name": "",
          "type": "uint256"
        }
      ],
      "payable": false,
      "stateMutability": "view",
      "type": "function"
    },
    {
      "constant": true,
      "inputs": [
        {
          "internalType": "bytes4",
          "name": "_interfaceID",
          "type": "bytes4"
        }
      ],
      "name": "supportsInterface",
      "outputs": [
        {
          "internalType": "bool",
          "name": "",
          "type": "bool"
        }
      ],
      "payable": false,
      "stateMutability": "view",
      "type": "function"
    },
    {
      "constant": true,
      "inputs": [
        {
          "internalType": "address",
          "name": "account",
          "type": "address"
        }
      ],
      "name": "tokensByAddress",
      "outputs": [
        {
          "internalType": "string",
          "name": "result",
          "type": "string"
        }
      ],
      "payable": false,
      "stateMutability": "view",
      "type": "function"
    },
    {
      "constant": false,
      "inputs": [
        {
          "internalType": "address",
          "name": "newOwner",
          "type": "address"
        }
      ],
      "name": "transferOwnership",
      "outputs": [],
      "payable": false,
      "stateMutability": "nonpayable",
      "type": "function"
    },
    {
      "constant": false,
      "inputs": [
        {
          "internalType": "address",
          "name": "addr",
          "type": "address"
        }
      ],
      "name": "unlockAddress",
      "outputs": [],
      "payable": false,
      "stateMutability": "nonpayable",
      "type": "function"
    },
    {
      "constant": false,
      "inputs": [
        {
          "internalType": "uint256",
          "name": "id",
          "type": "uint256"
        }
      ],
      "name": "unlockToken",
      "outputs": [],
      "payable": false,
      "stateMutability": "nonpayable",
      "type": "function"
    },
    {
      "constant": true,
      "inputs": [
        {
          "internalType": "uint256",
          "name": "id",
          "type": "uint256"
        }
      ],
      "name": "uri",
      "outputs": [
        {
          "internalType": "string",
          "name": "",
          "type": "string"
        }
      ],
      "payable": false,
      "stateMutability": "view",
      "type": "function"
    },
    {
      "constant": false,
      "inputs": [
        {
          "internalType": "address",
          "name": "tokenizer",
          "type": "address"
        }
      ],
      "name": "authorizeTokenizer",
      "outputs": [],
      "payable": false,
      "stateMutability": "nonpayable",
      "type": "function"
    },
    {
      "constant": false,
      "inputs": [
        {
          "internalType": "address",
          "name": "tokenizer",
          "type": "address"
        }
      ],
      "name": "revokeTokenizer",
      "outputs": [],
      "payable": false,
      "stateMutability": "nonpayable",
      "type": "function"
    },
    {
      "constant": true,
      "inputs": [
        {
          "internalType": "address",
          "name": "tokenizer",
          "type": "address"
        }
      ],
      "name": "isTokenizer",
      "outputs": [
        {
          "internalType": "bool",
          "name": "",
          "type": "bool"
        }
      ],
      "payable": false,
      "stateMutability": "view",
      "type": "function"
    },
    {
      "constant": false,
      "inputs": [
        {
          "internalType": "address",
          "name": "recipient",
          "type": "address"
        },
        {
          "internalType": "uint256",
          "name": "id",
          "type": "uint256"
        },
        {
          "internalType": "uint256",
          "name": "supply",
          "type": "uint256"
        },
        {
          "internalType": "uint256",
          "name": "metadataHash",
          "type": "uint256"
        },
        {
          "internalType": "uint256",
          "name": "storageCreditCost",
          "type": "uint256"
        },
        {
          "internalType": "uint256",
          "name": "minHoldingForCallback",
          "type": "uint256"
        },
        {
          "internalType": "address[]",
          "name": "feesRecipients",
          "type": "address[]"
        },
        {
          "internalType": "uint256[]",
          "name": "feesRecipientsPercentage",
          "type": "uint256[]"
        }
      ],
      "name": "createToken",
      "outputs": [],
      "payable": false,
      "stateMutability": "nonpayable",
      "type": "function"
    },
    {
      "constant": false,
      "inputs": [
        {
          "internalType": "uint256",
          "name": "supply",
          "type": "uint256"
        },
        {
          "internalType": "uint256",
          "name": "storageCreditCost",
          "type": "uint256"
        },
        {
          "internalType": "uint256",
          "name": "minHoldingForCallback",
          "type": "uint256"
        },
        {
          "internalType": "address[]",
          "name": "feesRecipients",
          "type": "address[]"
        },
        {
          "internalType": "uint256[]",
          "name": "feesRecipientsPercentage",
          "type": "uint256[]"
        }
      ],
      "name": "setCreateTokensDefaultValues",
      "outputs": [],
      "payable": false,
      "stateMutability": "nonpayable",
      "type": "function"
    },
    {
      "constant": false,
      "inputs": [
        {
          "internalType": "address",
          "name": "recipient",
          "type": "address"
        },
        {
          "internalType": "uint256[]",
          "name": "ids",
          "type": "uint256[]"
        },
        {
          "internalType": "uint256[]",
          "name": "metadataHashes",
          "type": "uint256[]"
        }
      ],
      "name": "createTokens",
      "outputs": [],
      "payable": false,
      "stateMutability": "nonpayable",
      "type": "function"
    },
    {
      "constant": false,
      "inputs": [
        {
          "internalType": "uint256",
          "name": "id",
          "type": "uint256"
        },
        {
          "internalType": "uint256",
          "name": "metadataHash",
          "type": "uint256"
        }
      ],
      "name": "updateMetadataHash",
      "outputs": [],
      "payable": false,
      "stateMutability": "nonpayable",
      "type": "function"
    },
    {
      "constant": false,
      "inputs": [
        {
          "internalType": "uint256",
          "name": "newPrice",
          "type": "uint256"
        }
      ],
      "name": "updateStorageCreditPrice",
      "outputs": [],
      "payable": false,
      "stateMutability": "nonpayable",
      "type": "function"
    },
    {
      "constant": false,
      "inputs": [
        {
          "internalType": "uint256",
          "name": "id",
          "type": "uint256"
        },
        {
          "internalType": "uint256",
          "name": "newCost",
          "type": "uint256"
        }
      ],
      "name": "updateStorageCost",
      "outputs": [],
      "payable": false,
      "stateMutability": "nonpayable",
      "type": "function"
    },
    {
      "constant": false,
      "inputs": [
        {
          "internalType": "address",
          "name": "to",
          "type": "address"
        },
        {
          "internalType": "uint256",
          "name": "amount",
          "type": "uint256"
        }
      ],
      "name": "withdraw",
      "outputs": [],
      "payable": false,
      "stateMutability": "nonpayable",
      "type": "function"
    },
    {
      "constant": true,
      "inputs": [
        {
          "internalType": "uint256",
          "name": "id",
          "type": "uint256"
        }
      ],
      "name": "totalSupply",
      "outputs": [
        {
          "internalType": "uint256",
          "name": "",
          "type": "uint256"
        }
      ],
      "payable": false,
      "stateMutability": "view",
      "type": "function"
    }
  ],
  "bytecode": "0x60806040526103e8600655611f4060165562000021336200002760201b60201c565b6200016d565b600073ffffffffffffffffffffffffffffffffffffffff168173ffffffffffffffffffffffffffffffffffffffff161415620000af576040517f08c379a000000000000000000000000000000000000000000000000000000000815260040180806020018281038252602681526020018062005a2a6026913960400191505060405180910390fd5b8073ffffffffffffffffffffffffffffffffffffffff166000809054906101000a900473ffffffffffffffffffffffffffffffffffffffff1673ffffffffffffffffffffffffffffffffffffffff167f8be0079c531659141344cd1fd0a4f28419497f9722a3daafe3b4186f6b6457e060405160405180910390a3806000806101000a81548173ffffffffffffffffffffffffffffffffffffffff021916908373ffffffffffffffffffffffffffffffffffffffff16021790555050565b6158ad806200017d6000396000f3fe6080604052600436106101ed5760003560e01c8063b7eb5e0a1161010d578063dbddb26a116100a0578063f242432a1161006f578063f242432a1461103b578063f2fde38b14611108578063f38320ce14611159578063f3fef3a314611254578063f8c89fd0146112af576101ed565b8063dbddb26a14610e78578063dd2e0ac014610f08578063e1c95f8a14610f43578063e985e9c514610fb2576101ed565b8063c4be3c3c116100dc578063c4be3c3c14610b9e578063cba54e6014610c17578063cf6c97ca14610c80578063d6bc594214610dae576101ed565b8063b7eb5e0a14610a42578063bba75c8314610a93578063bd85b03914610ae6578063c02f303c14610b35576101ed565b80637627b732116101855780638da5cb5b116101545780638da5cb5b14610895578063939cd641146108ec578063a22cb46514610931578063b5690ac11461098e576101ed565b80637627b7321461077d57806380f20363146107ce5780638495b141146108095780638870147b14610844576101ed565b80632eb2c2d6116101c15780632eb2c2d6146103d657806334a90d02146105395780634e1273f41461058a5780636b62becb14610738576101ed565b8062fdd58e146101f257806301ffc9a7146102615780630e89341c146102d3578063219cc8bc14610387575b600080fd5b3480156101fe57600080fd5b5061024b6004803603604081101561021557600080fd5b81019080803573ffffffffffffffffffffffffffffffffffffffff169060200190929190803590602001909291905050506113a8565b6040518082815260200191505060405180910390f35b34801561026d57600080fd5b506102b96004803603602081101561028457600080fd5b8101908080357bffffffffffffffffffffffffffffffffffffffffffffffffffffffff19169060200190929190505050611488565b604051808215151515815260200191505060405180910390f35b3480156102df57600080fd5b5061030c600480360360208110156102f657600080fd5b8101908080359060200190929190505050611539565b6040518080602001828103825283818151815260200191508051906020019080838360005b8381101561034c578082015181840152602081019050610331565b50505050905090810190601f1680156103795780820380516001836020036101000a031916815260200191505b509250505060405180910390f35b34801561039357600080fd5b506103c0600480360360208110156103aa57600080fd5b8101908080359060200190929190505050611589565b6040518082815260200191505060405180910390f35b610537600480360360a08110156103ec57600080fd5b81019080803573ffffffffffffffffffffffffffffffffffffffff169060200190929190803573ffffffffffffffffffffffffffffffffffffffff1690602001909291908035906020019064010000000081111561044957600080fd5b82018360208201111561045b57600080fd5b8035906020019184602083028401116401000000008311171561047d57600080fd5b90919293919293908035906020019064010000000081111561049e57600080fd5b8201836020820111156104b057600080fd5b803590602001918460208302840111640100000000831117156104d257600080fd5b9091929391929390803590602001906401000000008111156104f357600080fd5b82018360208201111561050557600080fd5b8035906020019184600183028401116401000000008311171561052757600080fd5b90919293919293905050506115a6565b005b34801561054557600080fd5b506105886004803603602081101561055c57600080fd5b81019080803573ffffffffffffffffffffffffffffffffffffffff169060200190929190505050611a25565b005b34801561059657600080fd5b506106e1600480360360408110156105ad57600080fd5b81019080803590602001906401000000008111156105ca57600080fd5b8201836020820111156105dc57600080fd5b803590602001918460208302840111640100000000831117156105fe57600080fd5b919080806020026020016040519081016040528093929190818152602001838360200280828437600081840152601f19601f8201169050808301925050505050505091929192908035906020019064010000000081111561065e57600080fd5b82018360208201111561067057600080fd5b8035906020019184602083028401116401000000008311171561069257600080fd5b919080806020026020016040519081016040528093929190818152602001838360200280828437600081840152601f19601f820116905080830192505050505050509192919290505050611afa565b6040518080602001828103825283818151815260200191508051906020019060200280838360005b83811015610724578082015181840152602081019050610709565b505050509050019250505060405180910390f35b34801561074457600080fd5b5061077b6004803603604081101561075b57600080fd5b810190808035906020019092919080359060200190929190505050611cd8565b005b34801561078957600080fd5b506107cc600480360360208110156107a057600080fd5b81019080803573ffffffffffffffffffffffffffffffffffffffff169060200190929190505050611d44565b005b3480156107da57600080fd5b50610807600480360360208110156107f157600080fd5b8101908080359060200190929190505050611e19565b005b34801561081557600080fd5b506108426004803603602081101561082c57600080fd5b8101908080359060200190929190505050611ec1565b005b34801561085057600080fd5b506108936004803603602081101561086757600080fd5b81019080803573ffffffffffffffffffffffffffffffffffffffff169060200190929190505050611f77565b005b3480156108a157600080fd5b506108aa61204c565b604051808273ffffffffffffffffffffffffffffffffffffffff1673ffffffffffffffffffffffffffffffffffffffff16815260200191505060405180910390f35b3480156108f857600080fd5b5061092f6004803603604081101561090f57600080fd5b810190808035906020019092919080359060200190929190505050612075565b005b34801561093d57600080fd5b5061098c6004803603604081101561095457600080fd5b81019080803573ffffffffffffffffffffffffffffffffffffffff169060200190929190803515159060200190929190505050612190565b005b34801561099a57600080fd5b506109c7600480360360208110156109b157600080fd5b8101908080359060200190929190505050612316565b6040518080602001828103825283818151815260200191508051906020019080838360005b83811015610a075780820151818401526020810190506109ec565b50505050905090810190601f168015610a345780820380516001836020036101000a031916815260200191505b509250505060405180910390f35b348015610a4e57600080fd5b50610a9160048036036020811015610a6557600080fd5b81019080803573ffffffffffffffffffffffffffffffffffffffff169060200190929190505050612496565b005b348015610a9f57600080fd5b50610acc60048036036020811015610ab657600080fd5b810190808035906020019092919050505061256b565b604051808215151515815260200191505060405180910390f35b348015610af257600080fd5b50610b1f60048036036020811015610b0957600080fd5b810190808035906020019092919050505061257d565b6040518082815260200191505060405180910390f35b348015610b4157600080fd5b50610b8460048036036020811015610b5857600080fd5b81019080803573ffffffffffffffffffffffffffffffffffffffff16906020019092919050505061259a565b604051808215151515815260200191505060405180910390f35b348015610baa57600080fd5b50610c0160048036036060811015610bc157600080fd5b81019080803573ffffffffffffffffffffffffffffffffffffffff16906020019092919080359060200190929190803590602001909291905050506125ac565b6040518082815260200191505060405180910390f35b348015610c2357600080fd5b50610c6660048036036020811015610c3a57600080fd5b81019080803573ffffffffffffffffffffffffffffffffffffffff1690602001909291905050506125c2565b604051808215151515815260200191505060405180910390f35b348015610c8c57600080fd5b50610dac6004803603610100811015610ca457600080fd5b81019080803573ffffffffffffffffffffffffffffffffffffffff169060200190929190803590602001909291908035906020019092919080359060200190929190803590602001909291908035906020019092919080359060200190640100000000811115610d1357600080fd5b820183602082011115610d2557600080fd5b80359060200191846020830284011164010000000083111715610d4757600080fd5b909192939192939080359060200190640100000000811115610d6857600080fd5b820183602082011115610d7a57600080fd5b80359060200191846020830284011164010000000083111715610d9c57600080fd5b90919293919293905050506125d4565b005b348015610dba57600080fd5b50610dfd60048036036020811015610dd157600080fd5b81019080803573ffffffffffffffffffffffffffffffffffffffff1690602001909291905050506126d0565b6040518080602001828103825283818151815260200191508051906020019080838360005b83811015610e3d578082015181840152602081019050610e22565b50505050905090810190601f168015610e6a5780820380516001836020036101000a031916815260200191505b509250505060405180910390f35b348015610e8457600080fd5b50610e8d6128e2565b6040518080602001828103825283818151815260200191508051906020019080838360005b83811015610ecd578082015181840152602081019050610eb2565b50505050905090810190601f168015610efa5780820380516001836020036101000a031916815260200191505b509250505060405180910390f35b348015610f1457600080fd5b50610f4160048036036020811015610f2b57600080fd5b810190808035906020019092919050505061291b565b005b348015610f4f57600080fd5b50610f9c60048036036040811015610f6657600080fd5b81019080803573ffffffffffffffffffffffffffffffffffffffff169060200190929190803590602001909291905050506129c4565b6040518082815260200191505060405180910390f35b348015610fbe57600080fd5b5061102160048036036040811015610fd557600080fd5b81019080803573ffffffffffffffffffffffffffffffffffffffff169060200190929190803573ffffffffffffffffffffffffffffffffffffffff169060200190929190505050612b04565b604051808215151515815260200191505060405180910390f35b611106600480360360a081101561105157600080fd5b81019080803573ffffffffffffffffffffffffffffffffffffffff169060200190929190803573ffffffffffffffffffffffffffffffffffffffff1690602001909291908035906020019092919080359060200190929190803590602001906401000000008111156110c257600080fd5b8201836020820111156110d457600080fd5b803590602001918460018302840111640100000000831117156110f657600080fd5b9091929391929390505050612b98565b005b34801561111457600080fd5b506111576004803603602081101561112b57600080fd5b81019080803573ffffffffffffffffffffffffffffffffffffffff169060200190929190505050612e96565b005b34801561116557600080fd5b506112526004803603606081101561117c57600080fd5b81019080803573ffffffffffffffffffffffffffffffffffffffff169060200190929190803590602001906401000000008111156111b957600080fd5b8201836020820111156111cb57600080fd5b803590602001918460208302840111640100000000831117156111ed57600080fd5b90919293919293908035906020019064010000000081111561120e57600080fd5b82018360208201111561122057600080fd5b8035906020019184602083028401116401000000008311171561124257600080fd5b9091929391929390505050612f1c565b005b34801561126057600080fd5b506112ad6004803603604081101561127757600080fd5b81019080803573ffffffffffffffffffffffffffffffffffffffff169060200190929190803590602001909291905050506130ae565b005b3480156112bb57600080fd5b506113a6600480360360a08110156112d257600080fd5b810190808035906020019092919080359060200190929190803590602001909291908035906020019064010000000081111561130d57600080fd5b82018360208201111561131f57600080fd5b8035906020019184602083028401116401000000008311171561134157600080fd5b90919293919293908035906020019064010000000081111561136257600080fd5b82018360208201111561137457600080fd5b8035906020019184602083028401116401000000008311171561139657600080fd5b909192939192939050505061329d565b005b60008073ffffffffffffffffffffffffffffffffffffffff168373ffffffffffffffffffffffffffffffffffffffff16141561142f576040517f08c379a000000000000000000000000000000000000000000000000000000000815260040180806020018281038252602b815260200180615453602b913960400191505060405180910390fd5b6003600083815260200190815260200160002060008473ffffffffffffffffffffffffffffffffffffffff1673ffffffffffffffffffffffffffffffffffffffff16815260200190815260200160002054905092915050565b60006301ffc9a760e01b7bffffffffffffffffffffffffffffffffffffffffffffffffffffffff1916827bffffffffffffffffffffffffffffffffffffffffffffffffffffffff19161480611521575063d9b67a2660e01b7bffffffffffffffffffffffffffffffffffffffffffffffffffffffff1916827bffffffffffffffffffffffffffffffffffffffffffffffffffffffff1916145b1561152f5760019050611534565b600090505b919050565b60606115826040518060400160405280601d81526020017f68747470733a2f2f7374617368626c6f782e636f6d2f746f6b656e732f00000081525061157d8461333d565b61342c565b9050919050565b6000600e6000838152602001908152602001600020549050919050565b838390508686905014611604576040517f08c379a000000000000000000000000000000000000000000000000000000000815260040180806020018281038252602e815260200180615715602e913960400191505060405180910390fd5b600073ffffffffffffffffffffffffffffffffffffffff168773ffffffffffffffffffffffffffffffffffffffff16141561168a576040517f08c379a00000000000000000000000000000000000000000000000000000000081526004018080602001828103825260288152602001806154a46028913960400191505060405180910390fd5b3373ffffffffffffffffffffffffffffffffffffffff168873ffffffffffffffffffffffffffffffffffffffff1614806116d15750600115156116cd8933612b04565b1515145b611726576040517f08c379a00000000000000000000000000000000000000000000000000000000081526004018080602001828103825260378152602001806156de6037913960400191505060405180910390fd5b600034905060008090505b8787905081101561177c5761176d8a8a8a8a8581811061174d57fe5b9050602002013589898681811061176057fe5b9050602002013586613577565b82039150806001019050611731565b508773ffffffffffffffffffffffffffffffffffffffff168973ffffffffffffffffffffffffffffffffffffffff163373ffffffffffffffffffffffffffffffffffffffff167f4a39dc06d4c0dbc64b70af90fd698a233a518aa5d07e595d983b8c0526c8f7fb8a8a8a8a6040518080602001806020018381038352878782818152602001925060200280828437600081840152601f19601f8201169050808301925050508381038252858582818152602001925060200280828437600081840152601f19601f820116905080830192505050965050505050505060405180910390a4611933338a8a8a8a80806020026020016040519081016040528093929190818152602001838360200280828437600081840152601f19601f82011690508083019250505050505050898980806020026020016040519081016040528093929190818152602001838360200280828437600081840152601f19601f8201169050808301925050505050505088888080601f016020809104026020016040519081016040528093929190818152602001838380828437600081840152601f19601f82011690508083019250505050505050613ca3565b6000811115611a1a5760003373ffffffffffffffffffffffffffffffffffffffff168260405180600001905060006040518083038185875af1925050503d806000811461199c576040519150601f19603f3d011682016040523d82523d6000602084013e6119a1565b606091505b5050905080611a18576040517f08c379a00000000000000000000000000000000000000000000000000000000081526004018080602001828103825260108152602001807f5472616e73666572206661696c65642e0000000000000000000000000000000081525060200191505060405180910390fd5b505b505050505050505050565b611a2d613f72565b611a9f576040517f08c379a00000000000000000000000000000000000000000000000000000000081526004018080602001828103825260208152602001807f4f776e61626c653a2063616c6c6572206973206e6f7420746865206f776e657281525060200191505060405180910390fd5b6001600260008373ffffffffffffffffffffffffffffffffffffffff1673ffffffffffffffffffffffffffffffffffffffff16815260200190815260200160002060006101000a81548160ff02191690831515021790555050565b60608151835114611b56576040517f08c379a00000000000000000000000000000000000000000000000000000000081526004018080602001828103825260308152602001806155506030913960400191505060405180910390fd5b60608351604051908082528060200260200182016040528015611b885781602001602082028038833980820191505090505b50905060008090505b8451811015611ccd57600073ffffffffffffffffffffffffffffffffffffffff16858281518110611bbe57fe5b602002602001015173ffffffffffffffffffffffffffffffffffffffff161415611c33576040517f08c379a00000000000000000000000000000000000000000000000000000000081526004018080602001828103825260348152602001806155e06034913960400191505060405180910390fd5b60036000858381518110611c4357fe5b602002602001015181526020019081526020016000206000868381518110611c6757fe5b602002602001015173ffffffffffffffffffffffffffffffffffffffff1673ffffffffffffffffffffffffffffffffffffffff16815260200190815260200160002054828281518110611cb657fe5b602002602001018181525050806001019050611b91565b508091505092915050565b611ce133613fc9565b611d36576040517f08c379a000000000000000000000000000000000000000000000000000000000815260040180806020018281038252602381526020018061552d6023913960400191505060405180910390fd5b611d40828261402e565b5050565b611d4c613f72565b611dbe576040517f08c379a00000000000000000000000000000000000000000000000000000000081526004018080602001828103825260208152602001807f4f776e61626c653a2063616c6c6572206973206e6f7420746865206f776e657281525060200191505060405180910390fd5b6001601060008373ffffffffffffffffffffffffffffffffffffffff1673ffffffffffffffffffffffffffffffffffffffff16815260200190815260200160002060006101000a81548160ff02191690831515021790555050565b611e21613f72565b611e93576040517f08c379a00000000000000000000000000000000000000000000000000000000081526004018080602001828103825260208152602001807f4f776e61626c653a2063616c6c6572206973206e6f7420746865206f776e657281525060200191505060405180910390fd5b600180600083815260200190815260200160002060006101000a81548160ff02191690831515021790555050565b611eca33613fc9565b611f1f576040517f08c379a000000000000000000000000000000000000000000000000000000000815260040180806020018281038252602381526020018061552d6023913960400191505060405180910390fd5b806006819055503373ffffffffffffffffffffffffffffffffffffffff167f5c5a35dc0829d2f6a31d1d6da57c4315ba7b562ee447c87b75c732cfd96abde9826040518082815260200191505060405180910390a250565b611f7f613f72565b611ff1576040517f08c379a00000000000000000000000000000000000000000000000000000000081526004018080602001828103825260208152602001807f4f776e61626c653a2063616c6c6572206973206e6f7420746865206f776e657281525060200191505060405180910390fd5b6000601060008373ffffffffffffffffffffffffffffffffffffffff1673ffffffffffffffffffffffffffffffffffffffff16815260200190815260200160002060006101000a81548160ff02191690831515021790555050565b60008060009054906101000a900473ffffffffffffffffffffffffffffffffffffffff16905090565b61207e33613fc9565b6120d3576040517f08c379a000000000000000000000000000000000000000000000000000000000815260040180806020018281038252602381526020018061552d6023913960400191505060405180910390fd5b60056000838152602001908152602001600020604051806040016040528042815260200183815250908060018154018082558091505090600182039060005260206000209060020201600090919290919091509060026121349291906151e6565b50503373ffffffffffffffffffffffffffffffffffffffff167f4bd9446604f43017ac3918d8db419b59a3b6f2a6cdd456eed5de99621bb627658383604051808381526020018281526020019250505060405180910390a25050565b8173ffffffffffffffffffffffffffffffffffffffff163373ffffffffffffffffffffffffffffffffffffffff161415612215576040517f08c379a000000000000000000000000000000000000000000000000000000000815260040180806020018281038252602c8152602001806154cc602c913960400191505060405180910390fd5b80600d60003373ffffffffffffffffffffffffffffffffffffffff1673ffffffffffffffffffffffffffffffffffffffff16815260200190815260200160002060008473ffffffffffffffffffffffffffffffffffffffff1673ffffffffffffffffffffffffffffffffffffffff16815260200190815260200160002060006101000a81548160ff0219169083151502179055508173ffffffffffffffffffffffffffffffffffffffff163373ffffffffffffffffffffffffffffffffffffffff167f17307eab39ab6107e8899845ad3d59bd9653f200f220920489ca2b5937696c3183604051808215151515815260200191505060405180910390a35050565b606060008090505b600b60008481526020019081526020016000208054905081101561248d576000600b6000858152602001908152602001600020828154811061235c57fe5b9060005260206000200160009054906101000a900473ffffffffffffffffffffffffffffffffffffffff16905060006003600086815260200190815260200160002060008373ffffffffffffffffffffffffffffffffffffffff1673ffffffffffffffffffffffffffffffffffffffff16815260200190815260200160002054111561247f5760008351111561245c5761242b836040518060400160405280600181526020017f200000000000000000000000000000000000000000000000000000000000000081525061342c565b9250612455836124508373ffffffffffffffffffffffffffffffffffffffff1661333d565b61342c565b925061247e565b61247b8173ffffffffffffffffffffffffffffffffffffffff1661333d565b92505b5b50808060010191505061231e565b50809050919050565b61249e613f72565b612510576040517f08c379a00000000000000000000000000000000000000000000000000000000081526004018080602001828103825260208152602001807f4f776e61626c653a2063616c6c6572206973206e6f7420746865206f776e657281525060200191505060405180910390fd5b6000600260008373ffffffffffffffffffffffffffffffffffffffff1673ffffffffffffffffffffffffffffffffffffffff16815260200190815260200160002060006101000a81548160ff02191690831515021790555050565b600061257682614078565b9050919050565b6000600f6000838152602001908152602001600020549050919050565b60006125a582613fc9565b9050919050565b60006125b98484846140a2565b90509392505050565b60006125cd82614309565b9050919050565b6125dd33613fc9565b612632576040517f08c379a000000000000000000000000000000000000000000000000000000000815260040180806020018281038252602381526020018061552d6023913960400191505060405180910390fd5b6126c48a8a8a8a8a8a8a8a80806020026020016040519081016040528093929190818152602001838360200280828437600081840152601f19601f82011690508083019250505050505050898980806020026020016040519081016040528093929190818152602001838360200280828437600081840152601f19601f8201169050808301925050505050505061435f565b50505050505050505050565b6060600073ffffffffffffffffffffffffffffffffffffffff168273ffffffffffffffffffffffffffffffffffffffff161415612758576040517f08c379a000000000000000000000000000000000000000000000000000000000815260040180806020018281038252602b815260200180615453602b913960400191505060405180910390fd5b60008090505b600a60008473ffffffffffffffffffffffffffffffffffffffff1673ffffffffffffffffffffffffffffffffffffffff168152602001908152602001600020805490508110156128d9576000600a60008573ffffffffffffffffffffffffffffffffffffffff1673ffffffffffffffffffffffffffffffffffffffff16815260200190815260200160002082815481106127f457fe5b9060005260206000200154905060006003600083815260200190815260200160002060008673ffffffffffffffffffffffffffffffffffffffff1673ffffffffffffffffffffffffffffffffffffffff1681526020019081526020016000205411156128cb576000835111156128be576128a3836040518060400160405280600181526020017f200000000000000000000000000000000000000000000000000000000000000081525061342c565b92506128b7836128b28361333d565b61342c565b92506128ca565b6128c78161333d565b92505b5b50808060010191505061275e565b50809050919050565b6040518060400160405280601d81526020017f68747470733a2f2f7374617368626c6f782e636f6d2f746f6b656e732f00000081525081565b612923613f72565b612995576040517f08c379a00000000000000000000000000000000000000000000000000000000081526004018080602001828103825260208152602001807f4f776e61626c653a2063616c6c6572206973206e6f7420746865206f776e657281525060200191505060405180910390fd5b60006001600083815260200190815260200160002060006101000a81548160ff02191690831515021790555050565b60008073ffffffffffffffffffffffffffffffffffffffff168373ffffffffffffffffffffffffffffffffffffffff161415612a4b576040517f08c379a000000000000000000000000000000000000000000000000000000000815260040180806020018281038252602b815260200180615453602b913960400191505060405180910390fd5b60006003600084815260200190815260200160002060008573ffffffffffffffffffffffffffffffffffffffff1673ffffffffffffffffffffffffffffffffffffffff1681526020019081526020016000205414612af9576004600083815260200190815260200160002060008473ffffffffffffffffffffffffffffffffffffffff1673ffffffffffffffffffffffffffffffffffffffff16815260200190815260200160002054612afc565b60005b905092915050565b6000600d60008473ffffffffffffffffffffffffffffffffffffffff1673ffffffffffffffffffffffffffffffffffffffff16815260200190815260200160002060008373ffffffffffffffffffffffffffffffffffffffff1673ffffffffffffffffffffffffffffffffffffffff16815260200190815260200160002060009054906101000a900460ff16905092915050565b600073ffffffffffffffffffffffffffffffffffffffff168573ffffffffffffffffffffffffffffffffffffffff161415612c1e576040517f08c379a00000000000000000000000000000000000000000000000000000000081526004018080602001828103825260288152602001806154a46028913960400191505060405180910390fd5b3373ffffffffffffffffffffffffffffffffffffffff168673ffffffffffffffffffffffffffffffffffffffff161480612c65575060011515612c618733612b04565b1515145b612cba576040517f08c379a00000000000000000000000000000000000000000000000000000000081526004018080602001828103825260378152602001806156de6037913960400191505060405180910390fd5b6000349050612ccc8787878785613577565b810390508573ffffffffffffffffffffffffffffffffffffffff168773ffffffffffffffffffffffffffffffffffffffff163373ffffffffffffffffffffffffffffffffffffffff167fc3d58168c5ae7397731d063d5bbf3d657854427343f4c083240f7aacaa2d0f628888604051808381526020018281526020019250505060405180910390a4612da6338888888888888080601f016020809104026020016040519081016040528093929190818152602001838380828437600081840152601f19601f820116905080830192505050505050506149f9565b6000811115612e8d5760003373ffffffffffffffffffffffffffffffffffffffff168260405180600001905060006040518083038185875af1925050503d8060008114612e0f576040519150601f19603f3d011682016040523d82523d6000602084013e612e14565b606091505b5050905080612e8b576040517f08c379a00000000000000000000000000000000000000000000000000000000081526004018080602001828103825260108152602001807f5472616e73666572206661696c65642e0000000000000000000000000000000081525060200191505060405180910390fd5b505b50505050505050565b612e9e613f72565b612f10576040517f08c379a00000000000000000000000000000000000000000000000000000000081526004018080602001828103825260208152602001807f4f776e61626c653a2063616c6c6572206973206e6f7420746865206f776e657281525060200191505060405180910390fd5b612f1981614c46565b50565b612f2533613fc9565b612f7a576040517f08c379a000000000000000000000000000000000000000000000000000000000815260040180806020018281038252602381526020018061552d6023913960400191505060405180910390fd5b60008090505b848490508110156130a65761309b86868684818110612f9b57fe5b90506020020135601254868686818110612fb157fe5b90506020020135601354601654601480548060200260200160405190810160405280929190818152602001828054801561304057602002820191906000526020600020905b8160009054906101000a900473ffffffffffffffffffffffffffffffffffffffff1673ffffffffffffffffffffffffffffffffffffffff1681526020019060010190808311612ff6575b5050505050601580548060200260200160405190810160405280929190818152602001828054801561309157602002820191906000526020600020905b81548152602001906001019080831161307d575b505050505061435f565b806001019050612f80565b505050505050565b6130b6613f72565b613128576040517f08c379a00000000000000000000000000000000000000000000000000000000081526004018080602001828103825260208152602001807f4f776e61626c653a2063616c6c6572206973206e6f7420746865206f776e657281525060200191505060405180910390fd5b80600960008473ffffffffffffffffffffffffffffffffffffffff1673ffffffffffffffffffffffffffffffffffffffff16815260200190815260200160002054106132995760008273ffffffffffffffffffffffffffffffffffffffff168260405180600001905060006040518083038185875af1925050503d80600081146131ce576040519150601f19603f3d011682016040523d82523d6000602084013e6131d3565b606091505b505090508061324a576040517f08c379a000000000000000000000000000000000000000000000000000000000815260040180806020018281038252601d8152602001807f5374617368426c6f783a205769746864726177616c206661696c65642e00000081525060200191505060405180910390fd5b81600960008573ffffffffffffffffffffffffffffffffffffffff1673ffffffffffffffffffffffffffffffffffffffff16815260200190815260200160002060008282540392505081905550505b5050565b6132a633613fc9565b6132fb576040517f08c379a000000000000000000000000000000000000000000000000000000000815260040180806020018281038252602381526020018061552d6023913960400191505060405180910390fd5b866012819055508560138190555084601681905550838360149190613321929190615226565b508181601591906133339291906152c6565b5050505050505050565b6060600080905060008390505b6000811461336c5781806001019250506010818161336457fe5b04905061334a565b6060826040519080825280601f01601f1916602001820160405280156133a15781602001600182028038833980820191505090505b50905060008090505b8381101561342057601086816133bc57fe5b0692506133c883614d8a565b82600183870303815181106133d957fe5b60200101907effffffffffffffffffffffffffffffffffffffffffffffffffffffffffffff1916908160001a9053506010868161341257fe5b0495508060010190506133aa565b50809350505050919050565b6060808390506060839050606081518351016040519080825280601f01601f1916602001820160405280156134705781602001600182028038833980820191505090505b509050606081905060008090506000809050600090505b85518110156134f55785818151811061349c57fe5b602001015160f81c60f81b8383806001019450815181106134b957fe5b60200101907effffffffffffffffffffffffffffffffffffffffffffffffffffffffffffff1916908160001a9053508080600101915050613487565b600090505b84518110156135685784818151811061350f57fe5b602001015160f81c60f81b83838060010194508151811061352c57fe5b60200101907effffffffffffffffffffffffffffffffffffffffffffffffffffffffffffff1916908160001a90535080806001019150506134fa565b82965050505050505092915050565b600061358586868686614e33565b156135f8576040517f08c379a00000000000000000000000000000000000000000000000000000000081526004018080602001828103825260068152602001807f4c6f636b6564000000000000000000000000000000000000000000000000000081525060200191505060405180910390fd5b6136038685856140a2565b90508082101561365e576040517f08c379a000000000000000000000000000000000000000000000000000000000815260040180806020018281038252602b81526020018061584e602b913960400191505060405180910390fd5b6136db836040518060600160405280602a8152602001615614602a91396003600088815260200190815260200160002060008a73ffffffffffffffffffffffffffffffffffffffff1673ffffffffffffffffffffffffffffffffffffffff16815260200190815260200160002054614e739092919063ffffffff16565b6003600086815260200190815260200160002060008873ffffffffffffffffffffffffffffffffffffffff1673ffffffffffffffffffffffffffffffffffffffff168152602001908152602001600020819055506000613794846003600088815260200190815260200160002060008973ffffffffffffffffffffffffffffffffffffffff1673ffffffffffffffffffffffffffffffffffffffff16815260200190815260200160002054614f3390919063ffffffff16565b905060006003600087815260200190815260200160002060008873ffffffffffffffffffffffffffffffffffffffff1673ffffffffffffffffffffffffffffffffffffffff1681526020019081526020016000205414156139e857600c600086815260200190815260200160002060008773ffffffffffffffffffffffffffffffffffffffff1673ffffffffffffffffffffffffffffffffffffffff16815260200190815260200160002060009054906101000a900460ff1661398e57600a60008773ffffffffffffffffffffffffffffffffffffffff1673ffffffffffffffffffffffffffffffffffffffff168152602001908152602001600020859080600181540180825580915050906001820390600052602060002001600090919290919091505550600b60008681526020019081526020016000208690806001815401808255809150509060018203906000526020600020016000909192909190916101000a81548173ffffffffffffffffffffffffffffffffffffffff021916908373ffffffffffffffffffffffffffffffffffffffff16021790555050600c600086815260200190815260200160002060008773ffffffffffffffffffffffffffffffffffffffff1673ffffffffffffffffffffffffffffffffffffffff16815260200190815260200160002060009054906101000a9050505b426004600087815260200190815260200160002060008873ffffffffffffffffffffffffffffffffffffffff1673ffffffffffffffffffffffffffffffffffffffff16815260200190815260200160002081905550613b22565b6000613a4d6004600088815260200190815260200160002060008973ffffffffffffffffffffffffffffffffffffffff1673ffffffffffffffffffffffffffffffffffffffff1681526020019081526020016000205442614fbb90919063ffffffff16565b90506000613ac683613ab884600360008c815260200190815260200160002060008d73ffffffffffffffffffffffffffffffffffffffff1673ffffffffffffffffffffffffffffffffffffffff1681526020019081526020016000205461500590919063ffffffff16565b61508b90919063ffffffff16565b90508042036004600089815260200190815260200160002060008a73ffffffffffffffffffffffffffffffffffffffff1673ffffffffffffffffffffffffffffffffffffffff1681526020019081526020016000208190555050505b806003600087815260200190815260200160002060008873ffffffffffffffffffffffffffffffffffffffff1673ffffffffffffffffffffffffffffffffffffffff1681526020019081526020016000208190555060008090505b6007600087815260200190815260200160002080549050811015613c95576000600760008881526020019081526020016000208281548110613bbb57fe5b9060005260206000200160009054906101000a900473ffffffffffffffffffffffffffffffffffffffff1690506000600860008981526020019081526020016000208381548110613c0857fe5b90600052602060002001549050613c3c612710613c2e838861500590919063ffffffff16565b61508b90919063ffffffff16565b600960008473ffffffffffffffffffffffffffffffffffffffff1673ffffffffffffffffffffffffffffffffffffffff168152602001908152602001600020600082825401925050819055505050806001019050613b7d565b508191505095945050505050565b613cc28473ffffffffffffffffffffffffffffffffffffffff166150d5565b15613f6a578373ffffffffffffffffffffffffffffffffffffffff1663bc197c81905060e01b7bffffffffffffffffffffffffffffffffffffffffffffffffffffffff19168473ffffffffffffffffffffffffffffffffffffffff1663bc197c8188888787876040518663ffffffff1660e01b8152600401808673ffffffffffffffffffffffffffffffffffffffff1673ffffffffffffffffffffffffffffffffffffffff1681526020018573ffffffffffffffffffffffffffffffffffffffff1673ffffffffffffffffffffffffffffffffffffffff168152602001806020018060200180602001848103845287818151815260200191508051906020019060200280838360005b83811015613de6578082015181840152602081019050613dcb565b50505050905001848103835286818151815260200191508051906020019060200280838360005b83811015613e28578082015181840152602081019050613e0d565b50505050905001848103825285818151815260200191508051906020019080838360005b83811015613e67578082015181840152602081019050613e4c565b50505050905090810190601f168015613e945780820380516001836020036101000a031916815260200191505b5098505050505050505050602060405180830381600087803b158015613eb957600080fd5b505af1158015613ecd573d6000803e3d6000fd5b505050506040513d6020811015613ee357600080fd5b81019080805190602001909291905050507bffffffffffffffffffffffffffffffffffffffffffffffffffffffff191614613f69576040517f08c379a00000000000000000000000000000000000000000000000000000000081526004018080602001828103825260368152602001806155aa6036913960400191505060405180910390fd5b5b505050505050565b60008060009054906101000a900473ffffffffffffffffffffffffffffffffffffffff1673ffffffffffffffffffffffffffffffffffffffff163373ffffffffffffffffffffffffffffffffffffffff1614905090565b6000601060008373ffffffffffffffffffffffffffffffffffffffff1673ffffffffffffffffffffffffffffffffffffffff16815260200190815260200160002060009054906101000a900460ff16806140275750614026613f72565b5b9050919050565b80600e60008481526020019081526020016000208190555080827f9cd9c60390fc75c213fd8d644749f61388dd30ed6c6eb4647b793b5b580fb43060405160405180910390a35050565b60006001600083815260200190815260200160002060009054906101000a900460ff169050919050565b60008073ffffffffffffffffffffffffffffffffffffffff168473ffffffffffffffffffffffffffffffffffffffff161415614129576040517f08c379a000000000000000000000000000000000000000000000000000000000815260040180806020018281038252602b815260200180615453602b913960400191505060405180910390fd5b600080905060004290506000600160056000888152602001908152602001600020805490500390505b600081106142fc57600060056000888152602001908152602001600020828154811061417a57fe5b906000526020600020906002020160006002811061419457fe5b0154905060006305f5e100600654600560008b815260200190815260200160002085815481106141c057fe5b90600052602060002090600202016001600281106141da57fe5b015402816141e457fe5b049050600082600460008b815260200190815260200160002060008c73ffffffffffffffffffffffffffffffffffffffff1673ffffffffffffffffffffffffffffffffffffffff16815260200190815260200160002054106142c05762015180600460008b815260200190815260200160002060008c73ffffffffffffffffffffffffffffffffffffffff1673ffffffffffffffffffffffffffffffffffffffff1681526020019081526020016000205486038161429e57fe5b04905060008114156142af57600190505b8782820202860195505050506142fc565b62015180838603816142ce57fe5b04905060008114156142df57600190505b829450878282020286019550505050808060019003915050614152565b5081925050509392505050565b6000600260008373ffffffffffffffffffffffffffffffffffffffff1673ffffffffffffffffffffffffffffffffffffffff16815260200190815260200160002060009054906101000a900460ff169050919050565b6000600f600089815260200190815260200160002054146143e8576040517f08c379a000000000000000000000000000000000000000000000000000000000815260040180806020018281038252601f8152602001807f5374617368426c6f783a20546f6b656e20616c7265616479206d696e7465640081525060200191505060405180910390fd5b60008611614441576040517f08c379a000000000000000000000000000000000000000000000000000000000815260040180806020018281038252602a815260200180615580602a913960400191505060405180910390fd5b6000841161449a576040517f08c379a00000000000000000000000000000000000000000000000000000000081526004018080602001828103825260358152602001806154f86035913960400191505060405180910390fd5b600083116144f3576040517f08c379a00000000000000000000000000000000000000000000000000000000081526004018080602001828103825260398152602001806158156039913960400191505060405180910390fd5b61271083111561454e576040517f08c379a00000000000000000000000000000000000000000000000000000000081526004018080602001828103825260448152602001806157436044913960600191505060405180910390fd5b60008251116145a8576040517f08c379a000000000000000000000000000000000000000000000000000000000815260040180806020018281038252602b8152602001806157b9602b913960400191505060405180910390fd5b8051825114614602576040517f08c379a00000000000000000000000000000000000000000000000000000000081526004018080602001828103825260328152602001806157876032913960400191505060405180910390fd5b600080905060008090505b82518110156146a55782818151811061462257fe5b602002602001015182019150600083828151811061463c57fe5b60200260200101511161469a576040517f08c379a000000000000000000000000000000000000000000000000000000000815260040180806020018281038252603c81526020018061565f603c913960400191505060405180910390fd5b80600101905061460d565b506127108114614700576040517f08c379a000000000000000000000000000000000000000000000000000000000815260040180806020018281038252604381526020018061569b6043913960600191505060405180910390fd5b6001600c60008a815260200190815260200160002060008b73ffffffffffffffffffffffffffffffffffffffff1673ffffffffffffffffffffffffffffffffffffffff16815260200190815260200160002060006101000a81548160ff021916908315150217905550600a60008a73ffffffffffffffffffffffffffffffffffffffff1673ffffffffffffffffffffffffffffffffffffffff16815260200190815260200160002088908060018154018082558091505090600182039060005260206000200160009091929091909150555086600f60008a81526020019081526020016000208190555086600360008a815260200190815260200160002060008b73ffffffffffffffffffffffffffffffffffffffff1673ffffffffffffffffffffffffffffffffffffffff16815260200190815260200160002081905550614849888761402e565b42600460008a815260200190815260200160002060008b73ffffffffffffffffffffffffffffffffffffffff1673ffffffffffffffffffffffffffffffffffffffff1681526020019081526020016000208190555060056000898152602001908152602001600020604051806040016040528042815260200187815250908060018154018082558091505090600182039060005260206000209060020201600090919290919091509060026148ff9291906151e6565b505083601160008a81526020019081526020016000208190555082600760008a81526020019081526020016000209080519060200190614940929190615313565b5081600860008a8152602001908152602001600020908051906020019061496892919061539d565b508873ffffffffffffffffffffffffffffffffffffffff16600073ffffffffffffffffffffffffffffffffffffffff163373ffffffffffffffffffffffffffffffffffffffff167fc3d58168c5ae7397731d063d5bbf3d657854427343f4c083240f7aacaa2d0f628b8b604051808381526020018281526020019250505060405180910390a4505050505050505050565b614a188473ffffffffffffffffffffffffffffffffffffffff166150d5565b15614c3e578373ffffffffffffffffffffffffffffffffffffffff1663f23a6e61905060e01b7bffffffffffffffffffffffffffffffffffffffffffffffffffffffff19168473ffffffffffffffffffffffffffffffffffffffff1663f23a6e6188888787876040518663ffffffff1660e01b8152600401808673ffffffffffffffffffffffffffffffffffffffff1673ffffffffffffffffffffffffffffffffffffffff1681526020018573ffffffffffffffffffffffffffffffffffffffff1673ffffffffffffffffffffffffffffffffffffffff16815260200184815260200183815260200180602001828103825283818151815260200191508051906020019080838360005b83811015614b3d578082015181840152602081019050614b22565b50505050905090810190601f168015614b6a5780820380516001836020036101000a031916815260200191505b509650505050505050602060405180830381600087803b158015614b8d57600080fd5b505af1158015614ba1573d6000803e3d6000fd5b505050506040513d6020811015614bb757600080fd5b81019080805190602001909291905050507bffffffffffffffffffffffffffffffffffffffffffffffffffffffff191614614c3d576040517f08c379a00000000000000000000000000000000000000000000000000000000081526004018080602001828103825260318152602001806157e46031913960400191505060405180910390fd5b5b505050505050565b600073ffffffffffffffffffffffffffffffffffffffff168173ffffffffffffffffffffffffffffffffffffffff161415614ccc576040517f08c379a000000000000000000000000000000000000000000000000000000000815260040180806020018281038252602681526020018061547e6026913960400191505060405180910390fd5b8073ffffffffffffffffffffffffffffffffffffffff166000809054906101000a900473ffffffffffffffffffffffffffffffffffffffff1673ffffffffffffffffffffffffffffffffffffffff167f8be0079c531659141344cd1fd0a4f28419497f9722a3daafe3b4186f6b6457e060405160405180910390a3806000806101000a81548173ffffffffffffffffffffffffffffffffffffffff021916908373ffffffffffffffffffffffffffffffffffffffff16021790555050565b60008160ff16600011158015614da4575060098260ff1611155b15614dd957817f300000000000000000000000000000000000000000000000000000000000000060f81c0160f81b9050614e2e565b8160ff16600a11158015614df15750600f8260ff1611155b15614e2957600a827f610000000000000000000000000000000000000000000000000000000000000060f81c010360f81b9050614e2e565b600080fd5b919050565b6000614e3e83614078565b80614e4e5750614e4d85614309565b5b80614e5e5750614e5d84614309565b5b80614e695750600082145b9050949350505050565b6000838311158290614f20576040517f08c379a00000000000000000000000000000000000000000000000000000000081526004018080602001828103825283818151815260200191508051906020019080838360005b83811015614ee5578082015181840152602081019050614eca565b50505050905090810190601f168015614f125780820380516001836020036101000a031916815260200191505b509250505060405180910390fd5b5060008385039050809150509392505050565b600080828401905083811015614fb1576040517f08c379a000000000000000000000000000000000000000000000000000000000815260040180806020018281038252601b8152602001807f536166654d6174683a206164646974696f6e206f766572666c6f77000000000081525060200191505060405180910390fd5b8091505092915050565b6000614ffd83836040518060400160405280601e81526020017f536166654d6174683a207375627472616374696f6e206f766572666c6f770000815250614e73565b905092915050565b6000808314156150185760009050615085565b600082840290508284828161502957fe5b0414615080576040517f08c379a000000000000000000000000000000000000000000000000000000000815260040180806020018281038252602181526020018061563e6021913960400191505060405180910390fd5b809150505b92915050565b60006150cd83836040518060400160405280601a81526020017f536166654d6174683a206469766973696f6e206279207a65726f000000000000815250615120565b905092915050565b60008060007fc5d2460186f7233c927e7db2dcc703c0e500b653ca82273b7bfad8045d85a47060001b9050833f91506000801b82141580156151175750808214155b92505050919050565b600080831182906151cc576040517f08c379a00000000000000000000000000000000000000000000000000000000081526004018080602001828103825283818151815260200191508051906020019080838360005b83811015615191578082015181840152602081019050615176565b50505050905090810190601f1680156151be5780820380516001836020036101000a031916815260200191505b509250505060405180910390fd5b5060008385816151d857fe5b049050809150509392505050565b8260028101928215615215579160200282015b828111156152145782518255916020019190600101906151f9565b5b50905061522291906153ea565b5090565b8280548282559060005260206000209081019282156152b5579160200282015b828111156152b457823573ffffffffffffffffffffffffffffffffffffffff168260006101000a81548173ffffffffffffffffffffffffffffffffffffffff021916908373ffffffffffffffffffffffffffffffffffffffff16021790555091602001919060010190615246565b5b5090506152c2919061540f565b5090565b828054828255906000526020600020908101928215615302579160200282015b828111156153015782358255916020019190600101906152e6565b5b50905061530f91906153ea565b5090565b82805482825590600052602060002090810192821561538c579160200282015b8281111561538b5782518260006101000a81548173ffffffffffffffffffffffffffffffffffffffff021916908373ffffffffffffffffffffffffffffffffffffffff16021790555091602001919060010190615333565b5b509050615399919061540f565b5090565b8280548282559060005260206000209081019282156153d9579160200282015b828111156153d85782518255916020019190600101906153bd565b5b5090506153e691906153ea565b5090565b61540c91905b808211156154085760008160009055506001016153f0565b5090565b90565b61544f91905b8082111561544b57600081816101000a81549073ffffffffffffffffffffffffffffffffffffffff021916905550600101615415565b5090565b9056fe455243313135353a2062616c616e636520717565727920666f7220746865207a65726f20616464726573734f776e61626c653a206e6577206f776e657220697320746865207a65726f2061646472657373455243313135353a207461726765742061646472657373206d757374206265206e6f6e2d7a65726f455243313135353a2063616e6e6f742073657420617070726f76616c2073746174757320666f722073656c665374617368426c6f783a2073746f72616765437265646974436f73742073686f756c642062652067726561746572207468616e20304d696e7461626c653a2063616c6c6572206973206e6f74206120746f6b656e697a6572455243313135353a206163636f756e747320616e6420494473206d75737420686176652073616d65206c656e677468735374617368426c6f783a20737570706c792073686f756c642062652067726561746572207468616e2030455243313135353a20676f7420756e6b6e6f776e2076616c75652066726f6d206f6e4552433131353542617463685265636569766564455243313135353a20736f6d65206164647265737320696e2062617463682062616c616e6365207175657279206973207a65726f455243313135353a20696e73756666696369656e742062616c616e636520666f72207472616e73666572536166654d6174683a206d756c7469706c69636174696f6e206f766572666c6f775374617368426c6f783a2066656573526563697069656e747350657263656e746167652073686f756c642062652067726561746572207468616e20305374617368426c6f783a20546f74616c206f662066656573526563697069656e747350657263656e74616765206d75737420626520657175616c20746f203130303030455243313135353a206e656564206f70657261746f7220617070726f76616c20666f7220337264207061727479207472616e7366657273455243313135353a2049447320616e642076616c756573206d75737420686176652073616d65206c656e677468735374617368426c6f783a206d696e486f6c64696e67466f7243616c6c6261636b2073686f756c64206265206c6f776572206f7220657175616c207468616e2031303030305374617368426c6f783a20696e76616c69642066656573526563697069656e747350657263656e74616765206c656e6774685374617368426c6f783a206e656564206174206c65617374206f6e652066656573526563697069656e7473455243313135353a20676f7420756e6b6e6f776e2076616c75652066726f6d206f6e4552433131353552656365697665645374617368426c6f783a206d696e486f6c64696e67466f7243616c6c6261636b2073686f756c642062652067726561746572207468616e2030455243313135353a20696e73756666696369656e742045544820666f72207472616e736665722066656573a265627a7a72315820dd9f6b737e814ff90307e99a74ff3821739186ca3b4adf71299364d1ee3cbf1d64736f6c634300050c00324f776e61626c653a206e6577206f776e657220697320746865207a65726f2061646472657373",
  "source": "pragma solidity ^0.5.12;\n// pragma experimental ABIEncoderV2;\n\nimport './ERC1155.sol';\nimport './ERC1155Metadata.sol';\nimport '../ERC173/ERC173.sol';\nimport '../utils/StringUtils.sol';\n\ncontract ERC1155Mintable is ERC1155, ERC1155Metadata {\n\n    // Mapping from token ID to Supply\n    mapping (uint256 => uint256) internal _supplies;\n    mapping (address => bool) private _authorizedTokenizers;\n\n    // Minimum holding to propose a callback for each token\n    mapping (uint256 => uint256) _minHoldingForCallback;\n\n    // default values for token batch creation\n    uint256 defaultSupply;\n    uint256 defaultStorageCreditCost;\n    address[] defaultFeesRecipients;\n    uint256[] defaultFeesRecipientsPercentage;\n    uint256 defaultMinHoldingForCallback = 8000; // 80%\n\n    event UpdateStorageCost(address indexed _tokenizer, uint256 _id, uint256 _cost);\n    event UpdateStorageCreditPrice(address indexed _owner, uint256 _price);\n\n\n    function authorizeTokenizer(address tokenizer) external onlyOwner {\n        _authorizedTokenizers[tokenizer] = true;\n    }\n\n    function revokeTokenizer(address tokenizer) external onlyOwner {\n        _authorizedTokenizers[tokenizer] = false;\n    }\n\n    function _isTokenizer(address tokenizer) internal view returns (bool) {\n        return _authorizedTokenizers[tokenizer] || _isOwner();\n    }\n\n    function isTokenizer(address tokenizer) external view returns (bool) {\n        return _isTokenizer(tokenizer);\n    }\n\n    modifier onlyTokenizer() {\n        require(_isTokenizer(msg.sender), \"Mintable: caller is not a tokenizer\");\n        _;\n    }\n\n    function _createToken(address recipient,\n                         uint256 id,\n                         uint256 supply,\n                         uint256 metadataHash,\n                         uint256 storageCreditCost,\n                         uint256 minHoldingForCallback,\n                         address[] memory feesRecipients,\n                         uint256[] memory feesRecipientsPercentage)\n    internal {\n\n        require(_supplies[id] == 0, \"StashBlox: Token already minted\");\n        require(supply > 0, \"StashBlox: supply should be greater than 0\");\n        require(storageCreditCost > 0, \"StashBlox: storageCreditCost should be greater than 0\");\n        require(minHoldingForCallback > 0, \"StashBlox: minHoldingForCallback should be greater than 0\");\n        require(minHoldingForCallback <= 10000, \"StashBlox: minHoldingForCallback should be lower or equal than 10000\");\n        require(feesRecipients.length > 0, \"StashBlox: need at least one feesRecipients\");\n        require(feesRecipients.length == feesRecipientsPercentage.length, \"StashBlox: invalid feesRecipientsPercentage length\");\n\n        uint256 totalPercentage = 0;\n        for (uint256 i = 0; i < feesRecipientsPercentage.length; ++i) {\n            totalPercentage += feesRecipientsPercentage[i];\n            require(feesRecipientsPercentage[i] > 0, \"StashBlox: feesRecipientsPercentage should be greater than 0\");\n        }\n        require(totalPercentage == 10000, \"StashBlox: Total of feesRecipientsPercentage must be equal to 10000\");\n\n        _isHolder[id][recipient] = true;\n        _tokensByAddress[recipient].push(id);\n        _supplies[id] = supply;\n        _balances[id][recipient] = supply;\n        _updateMetadataHash(id, metadataHash);\n        _birthdays[id][recipient] = block.timestamp;\n        _storageCostHistory[id].push([block.timestamp, storageCreditCost]);\n        _minHoldingForCallback[id] = minHoldingForCallback;\n        _feesRecipients[id] = feesRecipients;\n        _feesRecipientsPercentage[id] = feesRecipientsPercentage;\n\n        emit TransferSingle(msg.sender, address(0), recipient, id, supply);\n        // emit URI(uri, id);\n    }\n\n    /**\n     * @dev Function to mint an amount of a token with the given ID.\n     * @param recipient The address that will own the minted tokens\n     * @param id ID of the token to be minted\n     * @param supply Amount of the token to be minted\n     * @param metadataHash Metadata file hash\n     * @param storageCreditCost cost for 24h storage in storageCredit (x 10 ^ 8 for the precision)\n     * @param minHoldingForCallback minimum holding to propose a callback\n     * @param feesRecipients list of addresses receiving transfer fees\n     * @param feesRecipientsPercentage list of percentage, each one for the corresponding feesRecipients\n     */\n    function createToken(address recipient,\n                         uint256 id,\n                         uint256 supply,\n                         uint256 metadataHash,\n                         uint256 storageCreditCost,\n                         uint256 minHoldingForCallback,\n                         address[] calldata feesRecipients,\n                         uint256[] calldata feesRecipientsPercentage)\n    external onlyTokenizer {\n        _createToken(recipient,\n                     id,\n                     supply,\n                     metadataHash,\n                     storageCreditCost,\n                     minHoldingForCallback,\n                     feesRecipients,\n                     feesRecipientsPercentage);\n    }\n\n    /**\n     * @dev Set default values for batch token creation.\n     * @param supply Amount of the token to be minted\n     * @param storageCreditCost cost for 24h storage in storageCredit (x 10 ^ 8 for the precision)\n     * @param minHoldingForCallback minimum holding to propose a callback\n     * @param feesRecipients list of addresses receiving transfer fees\n     * @param feesRecipientsPercentage list of percentage, each one for the corresponding feesRecipients\n     */\n    function setCreateTokensDefaultValues(uint256 supply,\n                                          uint256 storageCreditCost,\n                                          uint256 minHoldingForCallback,\n                                          address[] calldata feesRecipients,\n                                          uint256[] calldata feesRecipientsPercentage)\n    external onlyTokenizer {\n\n        defaultSupply = supply;\n        defaultStorageCreditCost = storageCreditCost;\n        defaultMinHoldingForCallback = minHoldingForCallback;\n        defaultFeesRecipients = feesRecipients;\n        defaultFeesRecipientsPercentage = feesRecipientsPercentage;\n    }\n\n    /**\n     * @dev Function to mint token in batch. Default value must be set with setCreateTokensDefaultValues.\n     * @param recipient The address that will own the minted tokens\n     * @param ids list of IDs of the tokens to be minted\n     * @param metadataHashes list of Metadata file hash\n     */\n    function createTokens(address recipient,\n                          uint256[] calldata ids,\n                          uint256[] calldata metadataHashes)\n    external onlyTokenizer {\n\n        for (uint256 i = 0; i < ids.length; ++i) {\n            _createToken(recipient,\n                         ids[i],\n                         defaultSupply,\n                         metadataHashes[i],\n                         defaultStorageCreditCost,\n                         defaultMinHoldingForCallback,\n                         defaultFeesRecipients,\n                         defaultFeesRecipientsPercentage);\n        }\n    }\n\n    function updateMetadataHash(uint256 id, uint256 metadataHash) external onlyTokenizer {\n      _updateMetadataHash(id, metadataHash);\n    }\n\n    function updateStorageCreditPrice(uint256 newPrice) external onlyTokenizer {\n      storageCreditPrice = newPrice;\n      emit UpdateStorageCreditPrice(msg.sender, newPrice);\n    }\n\n    function updateStorageCost(uint256 id, uint256 newCost) external onlyTokenizer {\n      _storageCostHistory[id].push([block.timestamp, newCost]);\n      emit UpdateStorageCost(msg.sender, id, newCost);\n    }\n\n    function withdraw(address to, uint256 amount) external onlyOwner {\n      if (_ETHBalances[to] >= amount) {\n        (bool success, ) = to.call.value(amount)(\"\");\n        require(success, \"StashBlox: Withdrawal failed.\");\n        _ETHBalances[to] -= amount;\n      }\n    }\n\n    /**\n     * @param id Token ID\n     * @return Token supply\n     */\n    function totalSupply(uint256 id) external view returns (uint256) {\n        return _supplies[id];\n    }\n}\n",
  "sourcePath": "/home/ouziel/Work/StashBloxContracts/contracts/lib/ERC1155/ERC1155Mintable.sol",
  "compiler": {
    "name": "solc",
    "version": "0.5.12+commit.7709ece9.Emscripten.clang"
  },
  "schemaVersion": "3.2.3",
  "updatedAt": "2020-09-27T12:08:31.538Z",
  "devdoc": {
    "methods": {
      "balanceOf(address,uint256)": {
        "details": "Get the specified address' balance for token with specified ID. Attempting to query the zero account for a balance will result in a revert.",
        "params": {
          "account": "The address of the token holder",
          "id": "ID of the token"
        },
        "return": "The account's balance of the token type requested"
      },
      "balanceOfBatch(address[],uint256[])": {
        "details": "Get the balance of multiple account/token pairs. If any of the query accounts is the zero account, this query will revert.",
        "params": {
          "accounts": "The addresses of the token holders",
          "ids": "IDs of the tokens"
        },
        "return": "Balances for each account and token id pair"
      },
      "createToken(address,uint256,uint256,uint256,uint256,uint256,address[],uint256[])": {
        "details": "Function to mint an amount of a token with the given ID.",
        "params": {
          "feesRecipients": "list of addresses receiving transfer fees",
          "feesRecipientsPercentage": "list of percentage, each one for the corresponding feesRecipients",
          "id": "ID of the token to be minted",
          "metadataHash": "Metadata file hash",
          "minHoldingForCallback": "minimum holding to propose a callback",
          "recipient": "The address that will own the minted tokens",
          "storageCreditCost": "cost for 24h storage in storageCredit (x 10 ^ 8 for the precision)",
          "supply": "Amount of the token to be minted"
        }
      },
      "createTokens(address,uint256[],uint256[])": {
        "details": "Function to mint token in batch. Default value must be set with setCreateTokensDefaultValues.",
        "params": {
          "ids": "list of IDs of the tokens to be minted",
          "metadataHashes": "list of Metadata file hash",
          "recipient": "The address that will own the minted tokens"
        }
      },
      "isApprovedForAll(address,address)": {
        "params": {
          "account": "The account of the Tokens",
          "operator": "Address of authorized operator"
        },
        "return": "True if the operator is approved, false if not"
      },
      "owner()": {
        "details": "Returns the address of the current owner."
      },
      "safeBatchTransferFrom(address,address,uint256[],uint256[],bytes)": {
        "details": "Transfers `values` amount(s) of `ids` from the `from` address to the `to` address specified. Caller must be approved to manage the tokens being transferred out of the `from` account. If `to` is a smart contract, will call `onERC1155BatchReceived` on `to` and act appropriately.",
        "params": {
          "data": "Data forwarded to `onERC1155Received` if `to` is a contract receiver",
          "from": "Source address",
          "ids": "IDs of each token type",
          "to": "Target address",
          "values": "Transfer amounts per token type"
        }
      },
      "safeTransferFrom(address,address,uint256,uint256,bytes)": {
        "details": "Transfers `value` amount of an `id` from the `from` address to the `to` address specified. Caller must be approved to manage the tokens being transferred out of the `from` account. If `to` is a smart contract, will call `onERC1155Received` on `to` and act appropriately.",
        "params": {
          "data": "Data forwarded to `onERC1155Received` if `to` is a contract receiver",
          "from": "Source address",
          "id": "ID of the token type",
          "to": "Target address",
          "value": "Transfer amount"
        }
      },
      "setApprovalForAll(address,bool)": {
        "details": "Sets or unsets the approval of a given operator.     * An operator is allowed to transfer all tokens of the sender on their behalf.     * Because an account already has operator privileges for itself, this function will revert if the account attempts to set the approval status for itself.",
        "params": {
          "approved": "representing the status of the approval to be set",
          "operator": "address to set the approval"
        }
      },
      "setCreateTokensDefaultValues(uint256,uint256,uint256,address[],uint256[])": {
        "details": "Set default values for batch token creation.",
        "params": {
          "feesRecipients": "list of addresses receiving transfer fees",
          "feesRecipientsPercentage": "list of percentage, each one for the corresponding feesRecipients",
          "minHoldingForCallback": "minimum holding to propose a callback",
          "storageCreditCost": "cost for 24h storage in storageCredit (x 10 ^ 8 for the precision)",
          "supply": "Amount of the token to be minted"
        }
      },
      "supportsInterface(bytes4)": {
        "params": {
          "_interfaceID": "The interface identifier, as specified in ERC-165"
        },
        "return": "`true` if the contract implements `_interfaceID` and"
      },
      "totalSupply(uint256)": {
        "params": {
          "id": "Token ID"
        },
        "return": "Token supply"
      },
      "transferOwnership(address)": {
        "details": "Transfers ownership of the contract to a new account (`newOwner`). Can only be called by the current owner."
      },
      "uri(uint256)": {
        "params": {
          "id": "Token ID"
        },
        "return": "URI string"
      }
    }
  },
  "userdoc": {
    "methods": {
      "isApprovedForAll(address,address)": {
        "notice": "Queries the approval status of an operator for a given account."
      },
      "supportsInterface(bytes4)": {
        "notice": "Query if a contract implements an interface"
      }
    }
  }
}