{
  "contractName": "ERC1155Mintable",
  "abi": [
    {
      "anonymous": false,
      "inputs": [
        {
          "indexed": true,
          "internalType": "address",
          "name": "_owner",
          "type": "address"
        },
        {
          "indexed": true,
          "internalType": "address",
          "name": "_operator",
          "type": "address"
        },
        {
          "indexed": false,
          "internalType": "bool",
          "name": "_approved",
          "type": "bool"
        }
      ],
      "name": "ApprovalForAll",
      "type": "event"
    },
    {
      "anonymous": false,
      "inputs": [
        {
          "indexed": true,
          "internalType": "uint256",
          "name": "_id",
          "type": "uint256"
        },
        {
          "indexed": true,
          "internalType": "uint256",
          "name": "_hash",
          "type": "uint256"
        }
      ],
      "name": "MetadataHashUpdated",
      "type": "event"
    },
    {
      "anonymous": false,
      "inputs": [
        {
          "indexed": true,
          "internalType": "address",
          "name": "previousOwner",
          "type": "address"
        },
        {
          "indexed": true,
          "internalType": "address",
          "name": "newOwner",
          "type": "address"
        }
      ],
      "name": "OwnershipTransferred",
      "type": "event"
    },
    {
      "anonymous": false,
      "inputs": [
        {
          "indexed": true,
          "internalType": "address",
          "name": "_operator",
          "type": "address"
        },
        {
          "indexed": true,
          "internalType": "address",
          "name": "_from",
          "type": "address"
        },
        {
          "indexed": true,
          "internalType": "address",
          "name": "_to",
          "type": "address"
        },
        {
          "indexed": false,
          "internalType": "uint256[]",
          "name": "_ids",
          "type": "uint256[]"
        },
        {
          "indexed": false,
          "internalType": "uint256[]",
          "name": "_values",
          "type": "uint256[]"
        }
      ],
      "name": "TransferBatch",
      "type": "event"
    },
    {
      "anonymous": false,
      "inputs": [
        {
          "indexed": true,
          "internalType": "address",
          "name": "_operator",
          "type": "address"
        },
        {
          "indexed": true,
          "internalType": "address",
          "name": "_from",
          "type": "address"
        },
        {
          "indexed": true,
          "internalType": "address",
          "name": "_to",
          "type": "address"
        },
        {
          "indexed": false,
          "internalType": "uint256",
          "name": "_id",
          "type": "uint256"
        },
        {
          "indexed": false,
          "internalType": "uint256",
          "name": "_value",
          "type": "uint256"
        }
      ],
      "name": "TransferSingle",
      "type": "event"
    },
    {
      "anonymous": false,
      "inputs": [
        {
          "indexed": false,
          "internalType": "string",
          "name": "_value",
          "type": "string"
        },
        {
          "indexed": true,
          "internalType": "uint256",
          "name": "_id",
          "type": "uint256"
        }
      ],
      "name": "URI",
      "type": "event"
    },
    {
      "anonymous": false,
      "inputs": [
        {
          "indexed": true,
          "internalType": "address",
          "name": "_tokenizer",
          "type": "address"
        },
        {
          "indexed": false,
          "internalType": "uint256",
          "name": "_id",
          "type": "uint256"
        },
        {
          "indexed": false,
          "internalType": "uint256",
          "name": "_cost",
          "type": "uint256"
        }
      ],
      "name": "UpdateStorageCost",
      "type": "event"
    },
    {
      "anonymous": false,
      "inputs": [
        {
          "indexed": true,
          "internalType": "address",
          "name": "_owner",
          "type": "address"
        },
        {
          "indexed": false,
          "internalType": "uint256",
          "name": "_price",
          "type": "uint256"
        }
      ],
      "name": "UpdateStorageCreditPrice",
      "type": "event"
    },
    {
      "constant": true,
      "inputs": [],
      "name": "BASE_URI",
      "outputs": [
        {
          "internalType": "string",
          "name": "",
          "type": "string"
        }
      ],
      "payable": false,
      "stateMutability": "view",
      "type": "function"
    },
    {
      "constant": true,
      "inputs": [
        {
          "internalType": "address",
          "name": "",
          "type": "address"
        }
      ],
      "name": "_ETHBalances",
      "outputs": [
        {
          "internalType": "uint256",
          "name": "",
          "type": "uint256"
        }
      ],
      "payable": false,
      "stateMutability": "view",
      "type": "function"
    },
    {
      "constant": true,
      "inputs": [
        {
          "internalType": "uint256",
          "name": "",
          "type": "uint256"
        },
        {
          "internalType": "uint256",
          "name": "",
          "type": "uint256"
        }
      ],
      "name": "_addressesByToken",
      "outputs": [
        {
          "internalType": "address",
          "name": "",
          "type": "address"
        }
      ],
      "payable": false,
      "stateMutability": "view",
      "type": "function"
    },
    {
      "constant": true,
      "inputs": [
        {
          "internalType": "uint256",
          "name": "",
          "type": "uint256"
        },
        {
          "internalType": "address",
          "name": "",
          "type": "address"
        }
      ],
      "name": "_birthdays",
      "outputs": [
        {
          "internalType": "uint256",
          "name": "",
          "type": "uint256"
        }
      ],
      "payable": false,
      "stateMutability": "view",
      "type": "function"
    },
    {
      "constant": true,
      "inputs": [
        {
          "internalType": "uint256",
          "name": "",
          "type": "uint256"
        }
      ],
      "name": "_locked",
      "outputs": [
        {
          "internalType": "bool",
          "name": "",
          "type": "bool"
        }
      ],
      "payable": false,
      "stateMutability": "view",
      "type": "function"
    },
    {
      "constant": true,
      "inputs": [
        {
          "internalType": "address",
          "name": "",
          "type": "address"
        },
        {
          "internalType": "uint256",
          "name": "",
          "type": "uint256"
        }
      ],
      "name": "_tokensByAddress",
      "outputs": [
        {
          "internalType": "uint256",
          "name": "",
          "type": "uint256"
        }
      ],
      "payable": false,
      "stateMutability": "view",
      "type": "function"
    },
    {
      "constant": true,
      "inputs": [
        {
          "internalType": "address",
          "name": "account",
          "type": "address"
        },
        {
          "internalType": "uint256",
          "name": "id",
          "type": "uint256"
        }
      ],
      "name": "balanceOf",
      "outputs": [
        {
          "internalType": "uint256",
          "name": "",
          "type": "uint256"
        }
      ],
      "payable": false,
      "stateMutability": "view",
      "type": "function"
    },
    {
      "constant": true,
      "inputs": [
        {
          "internalType": "address[]",
          "name": "accounts",
          "type": "address[]"
        },
        {
          "internalType": "uint256[]",
          "name": "ids",
          "type": "uint256[]"
        }
      ],
      "name": "balanceOfBatch",
      "outputs": [
        {
          "internalType": "uint256[]",
          "name": "",
          "type": "uint256[]"
        }
      ],
      "payable": false,
      "stateMutability": "view",
      "type": "function"
    },
    {
      "constant": true,
      "inputs": [
        {
          "internalType": "address",
          "name": "account",
          "type": "address"
        },
        {
          "internalType": "address",
          "name": "operator",
          "type": "address"
        }
      ],
      "name": "isApprovedForAll",
      "outputs": [
        {
          "internalType": "bool",
          "name": "",
          "type": "bool"
        }
      ],
      "payable": false,
      "stateMutability": "view",
      "type": "function"
    },
    {
      "constant": true,
      "inputs": [
        {
          "internalType": "uint256",
          "name": "id",
          "type": "uint256"
        }
      ],
      "name": "metadataHash",
      "outputs": [
        {
          "internalType": "uint256",
          "name": "",
          "type": "uint256"
        }
      ],
      "payable": false,
      "stateMutability": "view",
      "type": "function"
    },
    {
      "constant": true,
      "inputs": [],
      "name": "owner",
      "outputs": [
        {
          "internalType": "address",
          "name": "",
          "type": "address"
        }
      ],
      "payable": false,
      "stateMutability": "view",
      "type": "function"
    },
    {
      "constant": false,
      "inputs": [
        {
          "internalType": "address",
          "name": "from",
          "type": "address"
        },
        {
          "internalType": "address",
          "name": "to",
          "type": "address"
        },
        {
          "internalType": "uint256[]",
          "name": "ids",
          "type": "uint256[]"
        },
        {
          "internalType": "uint256[]",
          "name": "values",
          "type": "uint256[]"
        },
        {
          "internalType": "bytes",
          "name": "data",
          "type": "bytes"
        }
      ],
      "name": "safeBatchTransferFrom",
      "outputs": [],
      "payable": true,
      "stateMutability": "payable",
      "type": "function"
    },
    {
      "constant": false,
      "inputs": [
        {
          "internalType": "address",
          "name": "from",
          "type": "address"
        },
        {
          "internalType": "address",
          "name": "to",
          "type": "address"
        },
        {
          "internalType": "uint256",
          "name": "id",
          "type": "uint256"
        },
        {
          "internalType": "uint256",
          "name": "value",
          "type": "uint256"
        },
        {
          "internalType": "bytes",
          "name": "data",
          "type": "bytes"
        }
      ],
      "name": "safeTransferFrom",
      "outputs": [],
      "payable": true,
      "stateMutability": "payable",
      "type": "function"
    },
    {
      "constant": false,
      "inputs": [
        {
          "internalType": "address",
          "name": "operator",
          "type": "address"
        },
        {
          "internalType": "bool",
          "name": "approved",
          "type": "bool"
        }
      ],
      "name": "setApprovalForAll",
      "outputs": [],
      "payable": false,
      "stateMutability": "nonpayable",
      "type": "function"
    },
    {
      "constant": true,
      "inputs": [
        {
          "internalType": "address",
          "name": "account",
          "type": "address"
        },
        {
          "internalType": "uint256",
          "name": "id",
          "type": "uint256"
        },
        {
          "internalType": "uint256",
          "name": "value",
          "type": "uint256"
        }
      ],
      "name": "storageFees",
      "outputs": [
        {
          "internalType": "uint256",
          "name": "",
          "type": "uint256"
        }
      ],
      "payable": false,
      "stateMutability": "view",
      "type": "function"
    },
    {
      "constant": true,
      "inputs": [
        {
          "internalType": "bytes4",
          "name": "_interfaceID",
          "type": "bytes4"
        }
      ],
      "name": "supportsInterface",
      "outputs": [
        {
          "internalType": "bool",
          "name": "",
          "type": "bool"
        }
      ],
      "payable": false,
      "stateMutability": "view",
      "type": "function"
    },
    {
      "constant": false,
      "inputs": [
        {
          "internalType": "address",
          "name": "newOwner",
          "type": "address"
        }
      ],
      "name": "transferOwnership",
      "outputs": [],
      "payable": false,
      "stateMutability": "nonpayable",
      "type": "function"
    },
    {
      "constant": true,
      "inputs": [
        {
          "internalType": "uint256",
          "name": "id",
          "type": "uint256"
        }
      ],
      "name": "uri",
      "outputs": [
        {
          "internalType": "string",
          "name": "",
          "type": "string"
        }
      ],
      "payable": false,
      "stateMutability": "view",
      "type": "function"
    },
    {
      "constant": false,
      "inputs": [
        {
          "internalType": "address",
          "name": "tokenizer",
          "type": "address"
        }
      ],
      "name": "authorizeTokenizer",
      "outputs": [],
      "payable": false,
      "stateMutability": "nonpayable",
      "type": "function"
    },
    {
      "constant": false,
      "inputs": [
        {
          "internalType": "address",
          "name": "tokenizer",
          "type": "address"
        }
      ],
      "name": "revokeTokenizer",
      "outputs": [],
      "payable": false,
      "stateMutability": "nonpayable",
      "type": "function"
    },
    {
      "constant": true,
      "inputs": [
        {
          "internalType": "address",
          "name": "tokenizer",
          "type": "address"
        }
      ],
      "name": "isTokenizer",
      "outputs": [
        {
          "internalType": "bool",
          "name": "",
          "type": "bool"
        }
      ],
      "payable": false,
      "stateMutability": "view",
      "type": "function"
    },
    {
      "constant": false,
      "inputs": [
        {
          "internalType": "address",
          "name": "recipient",
          "type": "address"
        },
        {
          "internalType": "uint256",
          "name": "id",
          "type": "uint256"
        },
        {
          "internalType": "uint256",
          "name": "supply",
          "type": "uint256"
        },
        {
          "internalType": "uint256",
          "name": "metadataHash",
          "type": "uint256"
        },
        {
          "internalType": "uint256",
          "name": "storageCreditCost",
          "type": "uint256"
        },
        {
          "internalType": "uint256",
          "name": "minHoldingForCallback",
          "type": "uint256"
        },
        {
          "internalType": "address[]",
          "name": "feesRecipients",
          "type": "address[]"
        },
        {
          "internalType": "uint256[]",
          "name": "feesRecipientsPercentage",
          "type": "uint256[]"
        }
      ],
      "name": "createToken",
      "outputs": [],
      "payable": false,
      "stateMutability": "nonpayable",
      "type": "function"
    },
    {
      "constant": false,
      "inputs": [
        {
          "internalType": "uint256",
          "name": "id",
          "type": "uint256"
        },
        {
          "internalType": "uint256",
          "name": "metadataHash",
          "type": "uint256"
        }
      ],
      "name": "updateMetadataHash",
      "outputs": [],
      "payable": false,
      "stateMutability": "nonpayable",
      "type": "function"
    },
    {
      "constant": false,
      "inputs": [
        {
          "internalType": "uint256",
          "name": "newPrice",
          "type": "uint256"
        }
      ],
      "name": "updateStorageCreditPrice",
      "outputs": [],
      "payable": false,
      "stateMutability": "nonpayable",
      "type": "function"
    },
    {
      "constant": false,
      "inputs": [
        {
          "internalType": "uint256",
          "name": "id",
          "type": "uint256"
        },
        {
          "internalType": "uint256",
          "name": "newCost",
          "type": "uint256"
        }
      ],
      "name": "updateStorageCost",
      "outputs": [],
      "payable": false,
      "stateMutability": "nonpayable",
      "type": "function"
    },
    {
      "constant": false,
      "inputs": [
        {
          "internalType": "address",
          "name": "to",
          "type": "address"
        },
        {
          "internalType": "uint256",
          "name": "amount",
          "type": "uint256"
        }
      ],
      "name": "withdraw",
      "outputs": [],
      "payable": false,
      "stateMutability": "nonpayable",
      "type": "function"
    }
  ],
  "bytecode": "0x60806040526103e86004556200001b336200002160201b60201c565b62000167565b600073ffffffffffffffffffffffffffffffffffffffff168173ffffffffffffffffffffffffffffffffffffffff161415620000a9576040517f08c379a000000000000000000000000000000000000000000000000000000000815260040180806020018281038252602681526020018062004aa66026913960400191505060405180910390fd5b8073ffffffffffffffffffffffffffffffffffffffff166000809054906101000a900473ffffffffffffffffffffffffffffffffffffffff1673ffffffffffffffffffffffffffffffffffffffff167f8be0079c531659141344cd1fd0a4f28419497f9722a3daafe3b4186f6b6457e060405160405180910390a3806000806101000a81548173ffffffffffffffffffffffffffffffffffffffff021916908373ffffffffffffffffffffffffffffffffffffffff16021790555050565b61492f80620001776000396000f3fe6080604052600436106101805760003560e01c80638da5cb5b116100d1578063d7b80ebc1161008a578063ea2bd64d11610064578063ea2bd64d14610d6a578063f242432a14610dd9578063f2fde38b14610ea6578063f3fef3a314610ef757610180565b8063d7b80ebc14610bec578063dbddb26a14610c51578063e985e9c514610ce157610180565b80638da5cb5b146108e3578063939cd6411461093a578063a22cb4651461097f578063c02f303c146109dc578063c4be3c3c14610a45578063cf6c97ca14610abe57610180565b80632eb2c2d61161013e5780636eb987c7116101185780636eb987c7146107975780637627b732146108065780638495b141146108575780638870147b1461089257610180565b80632eb2c2d6146104415780634e1273f4146105a45780636b62becb1461075257610180565b8062fdd58e1461018557806301ffc9a7146101f45780630e89341c14610266578063119c07371461031a57806315276e621461039f578063219cc8bc146103f2575b600080fd5b34801561019157600080fd5b506101de600480360360408110156101a857600080fd5b81019080803573ffffffffffffffffffffffffffffffffffffffff16906020019092919080359060200190929190505050610f52565b6040518082815260200191505060405180910390f35b34801561020057600080fd5b5061024c6004803603602081101561021757600080fd5b8101908080357bffffffffffffffffffffffffffffffffffffffffffffffffffffffff19169060200190929190505050611032565b604051808215151515815260200191505060405180910390f35b34801561027257600080fd5b5061029f6004803603602081101561028957600080fd5b81019080803590602001909291905050506110e3565b6040518080602001828103825283818151815260200191508051906020019080838360005b838110156102df5780820151818401526020810190506102c4565b50505050905090810190601f16801561030c5780820380516001836020036101000a031916815260200191505b509250505060405180910390f35b34801561032657600080fd5b5061035d6004803603604081101561033d57600080fd5b810190808035906020019092919080359060200190929190505050611133565b604051808273ffffffffffffffffffffffffffffffffffffffff1673ffffffffffffffffffffffffffffffffffffffff16815260200191505060405180910390f35b3480156103ab57600080fd5b506103d8600480360360208110156103c257600080fd5b810190808035906020019092919050505061117e565b604051808215151515815260200191505060405180910390f35b3480156103fe57600080fd5b5061042b6004803603602081101561041557600080fd5b810190808035906020019092919050505061119e565b6040518082815260200191505060405180910390f35b6105a2600480360360a081101561045757600080fd5b81019080803573ffffffffffffffffffffffffffffffffffffffff169060200190929190803573ffffffffffffffffffffffffffffffffffffffff169060200190929190803590602001906401000000008111156104b457600080fd5b8201836020820111156104c657600080fd5b803590602001918460208302840111640100000000831117156104e857600080fd5b90919293919293908035906020019064010000000081111561050957600080fd5b82018360208201111561051b57600080fd5b8035906020019184602083028401116401000000008311171561053d57600080fd5b90919293919293908035906020019064010000000081111561055e57600080fd5b82018360208201111561057057600080fd5b8035906020019184600183028401116401000000008311171561059257600080fd5b90919293919293905050506111bb565b005b3480156105b057600080fd5b506106fb600480360360408110156105c757600080fd5b81019080803590602001906401000000008111156105e457600080fd5b8201836020820111156105f657600080fd5b8035906020019184602083028401116401000000008311171561061857600080fd5b919080806020026020016040519081016040528093929190818152602001838360200280828437600081840152601f19601f8201169050808301925050505050505091929192908035906020019064010000000081111561067857600080fd5b82018360208201111561068a57600080fd5b803590602001918460208302840111640100000000831117156106ac57600080fd5b919080806020026020016040519081016040528093929190818152602001838360200280828437600081840152601f19601f82011690508083019250505050505050919291929050505061163a565b6040518080602001828103825283818151815260200191508051906020019060200280838360005b8381101561073e578082015181840152602081019050610723565b505050509050019250505060405180910390f35b34801561075e57600080fd5b506107956004803603604081101561077557600080fd5b810190808035906020019092919080359060200190929190505050611818565b005b3480156107a357600080fd5b506107f0600480360360408110156107ba57600080fd5b81019080803573ffffffffffffffffffffffffffffffffffffffff16906020019092919080359060200190929190505050611884565b6040518082815260200191505060405180910390f35b34801561081257600080fd5b506108556004803603602081101561082957600080fd5b81019080803573ffffffffffffffffffffffffffffffffffffffff1690602001909291905050506118b2565b005b34801561086357600080fd5b506108906004803603602081101561087a57600080fd5b8101908080359060200190929190505050611987565b005b34801561089e57600080fd5b506108e1600480360360208110156108b557600080fd5b81019080803573ffffffffffffffffffffffffffffffffffffffff169060200190929190505050611a3d565b005b3480156108ef57600080fd5b506108f8611b12565b604051808273ffffffffffffffffffffffffffffffffffffffff1673ffffffffffffffffffffffffffffffffffffffff16815260200191505060405180910390f35b34801561094657600080fd5b5061097d6004803603604081101561095d57600080fd5b810190808035906020019092919080359060200190929190505050611b3b565b005b34801561098b57600080fd5b506109da600480360360408110156109a257600080fd5b81019080803573ffffffffffffffffffffffffffffffffffffffff169060200190929190803515159060200190929190505050611c56565b005b3480156109e857600080fd5b50610a2b600480360360208110156109ff57600080fd5b81019080803573ffffffffffffffffffffffffffffffffffffffff169060200190929190505050611ddc565b604051808215151515815260200191505060405180910390f35b348015610a5157600080fd5b50610aa860048036036060811015610a6857600080fd5b81019080803573ffffffffffffffffffffffffffffffffffffffff1690602001909291908035906020019092919080359060200190929190505050611dee565b6040518082815260200191505060405180910390f35b348015610aca57600080fd5b50610bea6004803603610100811015610ae257600080fd5b81019080803573ffffffffffffffffffffffffffffffffffffffff169060200190929190803590602001909291908035906020019092919080359060200190929190803590602001909291908035906020019092919080359060200190640100000000811115610b5157600080fd5b820183602082011115610b6357600080fd5b80359060200191846020830284011164010000000083111715610b8557600080fd5b909192939192939080359060200190640100000000811115610ba657600080fd5b820183602082011115610bb857600080fd5b80359060200191846020830284011164010000000083111715610bda57600080fd5b9091929391929390505050611e04565b005b348015610bf857600080fd5b50610c3b60048036036020811015610c0f57600080fd5b81019080803573ffffffffffffffffffffffffffffffffffffffff169060200190929190505050611f00565b6040518082815260200191505060405180910390f35b348015610c5d57600080fd5b50610c66611f18565b6040518080602001828103825283818151815260200191508051906020019080838360005b83811015610ca6578082015181840152602081019050610c8b565b50505050905090810190601f168015610cd35780820380516001836020036101000a031916815260200191505b509250505060405180910390f35b348015610ced57600080fd5b50610d5060048036036040811015610d0457600080fd5b81019080803573ffffffffffffffffffffffffffffffffffffffff169060200190929190803573ffffffffffffffffffffffffffffffffffffffff169060200190929190505050611f51565b604051808215151515815260200191505060405180910390f35b348015610d7657600080fd5b50610dc360048036036040811015610d8d57600080fd5b8101908080359060200190929190803573ffffffffffffffffffffffffffffffffffffffff169060200190929190505050611fe5565b6040518082815260200191505060405180910390f35b610ea4600480360360a0811015610def57600080fd5b81019080803573ffffffffffffffffffffffffffffffffffffffff169060200190929190803573ffffffffffffffffffffffffffffffffffffffff169060200190929190803590602001909291908035906020019092919080359060200190640100000000811115610e6057600080fd5b820183602082011115610e7257600080fd5b80359060200191846001830284011164010000000083111715610e9457600080fd5b909192939192939050505061200a565b005b348015610eb257600080fd5b50610ef560048036036020811015610ec957600080fd5b81019080803573ffffffffffffffffffffffffffffffffffffffff169060200190929190505050612308565b005b348015610f0357600080fd5b50610f5060048036036040811015610f1a57600080fd5b81019080803573ffffffffffffffffffffffffffffffffffffffff1690602001909291908035906020019092919050505061238e565b005b60008073ffffffffffffffffffffffffffffffffffffffff168373ffffffffffffffffffffffffffffffffffffffff161415610fd9576040517f08c379a000000000000000000000000000000000000000000000000000000000815260040180806020018281038252602b8152602001806144d5602b913960400191505060405180910390fd5b6001600083815260200190815260200160002060008473ffffffffffffffffffffffffffffffffffffffff1673ffffffffffffffffffffffffffffffffffffffff16815260200190815260200160002054905092915050565b60006301ffc9a760e01b7bffffffffffffffffffffffffffffffffffffffffffffffffffffffff1916827bffffffffffffffffffffffffffffffffffffffffffffffffffffffff191614806110cb575063d9b67a2660e01b7bffffffffffffffffffffffffffffffffffffffffffffffffffffffff1916827bffffffffffffffffffffffffffffffffffffffffffffffffffffffff1916145b156110d957600190506110de565b600090505b919050565b606061112c6040518060400160405280601d81526020017f68747470733a2f2f7374617368626c6f782e636f6d2f746f6b656e732f000000815250611127846125eb565b6126da565b9050919050565b6009602052816000526040600020818154811061114c57fe5b906000526020600020016000915091509054906101000a900473ffffffffffffffffffffffffffffffffffffffff1681565b600c6020528060005260406000206000915054906101000a900460ff1681565b6000600d6000838152602001908152602001600020549050919050565b838390508686905014611219576040517f08c379a000000000000000000000000000000000000000000000000000000000815260040180806020018281038252602e815260200180614797602e913960400191505060405180910390fd5b600073ffffffffffffffffffffffffffffffffffffffff168773ffffffffffffffffffffffffffffffffffffffff16141561129f576040517f08c379a00000000000000000000000000000000000000000000000000000000081526004018080602001828103825260288152602001806145266028913960400191505060405180910390fd5b3373ffffffffffffffffffffffffffffffffffffffff168873ffffffffffffffffffffffffffffffffffffffff1614806112e65750600115156112e28933611f51565b1515145b61133b576040517f08c379a00000000000000000000000000000000000000000000000000000000081526004018080602001828103825260378152602001806147606037913960400191505060405180910390fd5b600034905060008090505b87879050811015611391576113828a8a8a8a8581811061136257fe5b9050602002013589898681811061137557fe5b9050602002013586612825565b82039150806001019050611346565b508773ffffffffffffffffffffffffffffffffffffffff168973ffffffffffffffffffffffffffffffffffffffff163373ffffffffffffffffffffffffffffffffffffffff167f4a39dc06d4c0dbc64b70af90fd698a233a518aa5d07e595d983b8c0526c8f7fb8a8a8a8a6040518080602001806020018381038352878782818152602001925060200280828437600081840152601f19601f8201169050808301925050508381038252858582818152602001925060200280828437600081840152601f19601f820116905080830192505050965050505050505060405180910390a4611548338a8a8a8a80806020026020016040519081016040528093929190818152602001838360200280828437600081840152601f19601f82011690508083019250505050505050898980806020026020016040519081016040528093929190818152602001838360200280828437600081840152601f19601f8201169050808301925050505050505088888080601f016020809104026020016040519081016040528093929190818152602001838380828437600081840152601f19601f82011690508083019250505050505050612ed2565b600081111561162f5760003373ffffffffffffffffffffffffffffffffffffffff168260405180600001905060006040518083038185875af1925050503d80600081146115b1576040519150601f19603f3d011682016040523d82523d6000602084013e6115b6565b606091505b505090508061162d576040517f08c379a00000000000000000000000000000000000000000000000000000000081526004018080602001828103825260108152602001807f5472616e73666572206661696c65642e0000000000000000000000000000000081525060200191505060405180910390fd5b505b505050505050505050565b60608151835114611696576040517f08c379a00000000000000000000000000000000000000000000000000000000081526004018080602001828103825260308152602001806145d26030913960400191505060405180910390fd5b606083516040519080825280602002602001820160405280156116c85781602001602082028038833980820191505090505b50905060008090505b845181101561180d57600073ffffffffffffffffffffffffffffffffffffffff168582815181106116fe57fe5b602002602001015173ffffffffffffffffffffffffffffffffffffffff161415611773576040517f08c379a00000000000000000000000000000000000000000000000000000000081526004018080602001828103825260348152602001806146626034913960400191505060405180910390fd5b6001600085838151811061178357fe5b6020026020010151815260200190815260200160002060008683815181106117a757fe5b602002602001015173ffffffffffffffffffffffffffffffffffffffff1673ffffffffffffffffffffffffffffffffffffffff168152602001908152602001600020548282815181106117f657fe5b6020026020010181815250508060010190506116d1565b508091505092915050565b611821336131a1565b611876576040517f08c379a00000000000000000000000000000000000000000000000000000000081526004018080602001828103825260238152602001806145af6023913960400191505060405180910390fd5b6118808282613206565b5050565b6008602052816000526040600020818154811061189d57fe5b90600052602060002001600091509150505481565b6118ba613250565b61192c576040517f08c379a00000000000000000000000000000000000000000000000000000000081526004018080602001828103825260208152602001807f4f776e61626c653a2063616c6c6572206973206e6f7420746865206f776e657281525060200191505060405180910390fd5b6001600f60008373ffffffffffffffffffffffffffffffffffffffff1673ffffffffffffffffffffffffffffffffffffffff16815260200190815260200160002060006101000a81548160ff02191690831515021790555050565b611990336131a1565b6119e5576040517f08c379a00000000000000000000000000000000000000000000000000000000081526004018080602001828103825260238152602001806145af6023913960400191505060405180910390fd5b806004819055503373ffffffffffffffffffffffffffffffffffffffff167f5c5a35dc0829d2f6a31d1d6da57c4315ba7b562ee447c87b75c732cfd96abde9826040518082815260200191505060405180910390a250565b611a45613250565b611ab7576040517f08c379a00000000000000000000000000000000000000000000000000000000081526004018080602001828103825260208152602001807f4f776e61626c653a2063616c6c6572206973206e6f7420746865206f776e657281525060200191505060405180910390fd5b6000600f60008373ffffffffffffffffffffffffffffffffffffffff1673ffffffffffffffffffffffffffffffffffffffff16815260200190815260200160002060006101000a81548160ff02191690831515021790555050565b60008060009054906101000a900473ffffffffffffffffffffffffffffffffffffffff16905090565b611b44336131a1565b611b99576040517f08c379a00000000000000000000000000000000000000000000000000000000081526004018080602001828103825260238152602001806145af6023913960400191505060405180910390fd5b6003600083815260200190815260200160002060405180604001604052804281526020018381525090806001815401808255809150509060018203906000526020600020906002020160009091929091909150906002611bfa929190614355565b50503373ffffffffffffffffffffffffffffffffffffffff167f4bd9446604f43017ac3918d8db419b59a3b6f2a6cdd456eed5de99621bb627658383604051808381526020018281526020019250505060405180910390a25050565b8173ffffffffffffffffffffffffffffffffffffffff163373ffffffffffffffffffffffffffffffffffffffff161415611cdb576040517f08c379a000000000000000000000000000000000000000000000000000000000815260040180806020018281038252602c81526020018061454e602c913960400191505060405180910390fd5b80600b60003373ffffffffffffffffffffffffffffffffffffffff1673ffffffffffffffffffffffffffffffffffffffff16815260200190815260200160002060008473ffffffffffffffffffffffffffffffffffffffff1673ffffffffffffffffffffffffffffffffffffffff16815260200190815260200160002060006101000a81548160ff0219169083151502179055508173ffffffffffffffffffffffffffffffffffffffff163373ffffffffffffffffffffffffffffffffffffffff167f17307eab39ab6107e8899845ad3d59bd9653f200f220920489ca2b5937696c3183604051808215151515815260200191505060405180910390a35050565b6000611de7826131a1565b9050919050565b6000611dfb8484846132a7565b90509392505050565b611e0d336131a1565b611e62576040517f08c379a00000000000000000000000000000000000000000000000000000000081526004018080602001828103825260238152602001806145af6023913960400191505060405180910390fd5b611ef48a8a8a8a8a8a8a8a80806020026020016040519081016040528093929190818152602001838360200280828437600081840152601f19601f82011690508083019250505050505050898980806020026020016040519081016040528093929190818152602001838360200280828437600081840152601f19601f8201169050808301925050505050505061350e565b50505050505050505050565b60076020528060005260406000206000915090505481565b6040518060400160405280601d81526020017f68747470733a2f2f7374617368626c6f782e636f6d2f746f6b656e732f00000081525081565b6000600b60008473ffffffffffffffffffffffffffffffffffffffff1673ffffffffffffffffffffffffffffffffffffffff16815260200190815260200160002060008373ffffffffffffffffffffffffffffffffffffffff1673ffffffffffffffffffffffffffffffffffffffff16815260200190815260200160002060009054906101000a900460ff16905092915050565b6002602052816000526040600020602052806000526040600020600091509150505481565b600073ffffffffffffffffffffffffffffffffffffffff168573ffffffffffffffffffffffffffffffffffffffff161415612090576040517f08c379a00000000000000000000000000000000000000000000000000000000081526004018080602001828103825260288152602001806145266028913960400191505060405180910390fd5b3373ffffffffffffffffffffffffffffffffffffffff168673ffffffffffffffffffffffffffffffffffffffff1614806120d75750600115156120d38733611f51565b1515145b61212c576040517f08c379a00000000000000000000000000000000000000000000000000000000081526004018080602001828103825260378152602001806147606037913960400191505060405180910390fd5b600034905061213e8787878785612825565b810390508573ffffffffffffffffffffffffffffffffffffffff168773ffffffffffffffffffffffffffffffffffffffff163373ffffffffffffffffffffffffffffffffffffffff167fc3d58168c5ae7397731d063d5bbf3d657854427343f4c083240f7aacaa2d0f628888604051808381526020018281526020019250505060405180910390a4612218338888888888888080601f016020809104026020016040519081016040528093929190818152602001838380828437600081840152601f19601f82011690508083019250505050505050613ba8565b60008111156122ff5760003373ffffffffffffffffffffffffffffffffffffffff168260405180600001905060006040518083038185875af1925050503d8060008114612281576040519150601f19603f3d011682016040523d82523d6000602084013e612286565b606091505b50509050806122fd576040517f08c379a00000000000000000000000000000000000000000000000000000000081526004018080602001828103825260108152602001807f5472616e73666572206661696c65642e0000000000000000000000000000000081525060200191505060405180910390fd5b505b50505050505050565b612310613250565b612382576040517f08c379a00000000000000000000000000000000000000000000000000000000081526004018080602001828103825260208152602001807f4f776e61626c653a2063616c6c6572206973206e6f7420746865206f776e657281525060200191505060405180910390fd5b61238b81613df5565b50565b612396613250565b612408576040517f08c379a00000000000000000000000000000000000000000000000000000000081526004018080602001828103825260208152602001807f4f776e61626c653a2063616c6c6572206973206e6f7420746865206f776e657281525060200191505060405180910390fd5b80600760008473ffffffffffffffffffffffffffffffffffffffff1673ffffffffffffffffffffffffffffffffffffffff1681526020019081526020016000205410156124bd576040517f08c379a00000000000000000000000000000000000000000000000000000000081526004018080602001828103825260208152602001807f5374617368426c6f783a20496e73756666696369656e742062616c616e63652e81525060200191505060405180910390fd5b60008273ffffffffffffffffffffffffffffffffffffffff168260405180600001905060006040518083038185875af1925050503d806000811461251d576040519150601f19603f3d011682016040523d82523d6000602084013e612522565b606091505b5050905080612599576040517f08c379a000000000000000000000000000000000000000000000000000000000815260040180806020018281038252601d8152602001807f5374617368426c6f783a205769746864726177616c206661696c65642e00000081525060200191505060405180910390fd5b81600760008573ffffffffffffffffffffffffffffffffffffffff1673ffffffffffffffffffffffffffffffffffffffff16815260200190815260200160002060008282540392505081905550505050565b6060600080905060008390505b6000811461261a5781806001019250506010818161261257fe5b0490506125f8565b6060826040519080825280601f01601f19166020018201604052801561264f5781602001600182028038833980820191505090505b50905060008090505b838110156126ce576010868161266a57fe5b06925061267683613f39565b826001838703038151811061268757fe5b60200101907effffffffffffffffffffffffffffffffffffffffffffffffffffffffffffff1916908160001a905350601086816126c057fe5b049550806001019050612658565b50809350505050919050565b6060808390506060839050606081518351016040519080825280601f01601f19166020018201604052801561271e5781602001600182028038833980820191505090505b509050606081905060008090506000809050600090505b85518110156127a35785818151811061274a57fe5b602001015160f81c60f81b83838060010194508151811061276757fe5b60200101907effffffffffffffffffffffffffffffffffffffffffffffffffffffffffffff1916908160001a9053508080600101915050612735565b600090505b8451811015612816578481815181106127bd57fe5b602001015160f81c60f81b8383806001019450815181106127da57fe5b60200101907effffffffffffffffffffffffffffffffffffffffffffffffffffffffffffff1916908160001a90535080806001019150506127a8565b82965050505050505092915050565b60006128328685856132a7565b90508082101561288d576040517f08c379a000000000000000000000000000000000000000000000000000000000815260040180806020018281038252602b8152602001806148d0602b913960400191505060405180910390fd5b61290a836040518060600160405280602a8152602001614696602a91396001600088815260200190815260200160002060008a73ffffffffffffffffffffffffffffffffffffffff1673ffffffffffffffffffffffffffffffffffffffff16815260200190815260200160002054613fe29092919063ffffffff16565b6001600086815260200190815260200160002060008873ffffffffffffffffffffffffffffffffffffffff1673ffffffffffffffffffffffffffffffffffffffff1681526020019081526020016000208190555060006129c3846001600088815260200190815260200160002060008973ffffffffffffffffffffffffffffffffffffffff1673ffffffffffffffffffffffffffffffffffffffff168152602001908152602001600020546140a290919063ffffffff16565b905060006001600087815260200190815260200160002060008873ffffffffffffffffffffffffffffffffffffffff1673ffffffffffffffffffffffffffffffffffffffff168152602001908152602001600020541415612c1757600a600086815260200190815260200160002060008773ffffffffffffffffffffffffffffffffffffffff1673ffffffffffffffffffffffffffffffffffffffff16815260200190815260200160002060009054906101000a900460ff16612bbd57600860008773ffffffffffffffffffffffffffffffffffffffff1673ffffffffffffffffffffffffffffffffffffffff168152602001908152602001600020859080600181540180825580915050906001820390600052602060002001600090919290919091505550600960008681526020019081526020016000208690806001815401808255809150509060018203906000526020600020016000909192909190916101000a81548173ffffffffffffffffffffffffffffffffffffffff021916908373ffffffffffffffffffffffffffffffffffffffff16021790555050600a600086815260200190815260200160002060008773ffffffffffffffffffffffffffffffffffffffff1673ffffffffffffffffffffffffffffffffffffffff16815260200190815260200160002060009054906101000a9050505b426002600087815260200190815260200160002060008873ffffffffffffffffffffffffffffffffffffffff1673ffffffffffffffffffffffffffffffffffffffff16815260200190815260200160002081905550612d51565b6000612c7c6002600088815260200190815260200160002060008973ffffffffffffffffffffffffffffffffffffffff1673ffffffffffffffffffffffffffffffffffffffff168152602001908152602001600020544261412a90919063ffffffff16565b90506000612cf583612ce784600160008c815260200190815260200160002060008d73ffffffffffffffffffffffffffffffffffffffff1673ffffffffffffffffffffffffffffffffffffffff1681526020019081526020016000205461417490919063ffffffff16565b6141fa90919063ffffffff16565b90508042036002600089815260200190815260200160002060008a73ffffffffffffffffffffffffffffffffffffffff1673ffffffffffffffffffffffffffffffffffffffff1681526020019081526020016000208190555050505b806001600087815260200190815260200160002060008873ffffffffffffffffffffffffffffffffffffffff1673ffffffffffffffffffffffffffffffffffffffff1681526020019081526020016000208190555060008090505b6005600087815260200190815260200160002080549050811015612ec4576000600560008881526020019081526020016000208281548110612dea57fe5b9060005260206000200160009054906101000a900473ffffffffffffffffffffffffffffffffffffffff1690506000600660008981526020019081526020016000208381548110612e3757fe5b90600052602060002001549050612e6b612710612e5d838861417490919063ffffffff16565b6141fa90919063ffffffff16565b600760008473ffffffffffffffffffffffffffffffffffffffff1673ffffffffffffffffffffffffffffffffffffffff168152602001908152602001600020600082825401925050819055505050806001019050612dac565b508191505095945050505050565b612ef18473ffffffffffffffffffffffffffffffffffffffff16614244565b15613199578373ffffffffffffffffffffffffffffffffffffffff1663bc197c81905060e01b7bffffffffffffffffffffffffffffffffffffffffffffffffffffffff19168473ffffffffffffffffffffffffffffffffffffffff1663bc197c8188888787876040518663ffffffff1660e01b8152600401808673ffffffffffffffffffffffffffffffffffffffff1673ffffffffffffffffffffffffffffffffffffffff1681526020018573ffffffffffffffffffffffffffffffffffffffff1673ffffffffffffffffffffffffffffffffffffffff168152602001806020018060200180602001848103845287818151815260200191508051906020019060200280838360005b83811015613015578082015181840152602081019050612ffa565b50505050905001848103835286818151815260200191508051906020019060200280838360005b8381101561305757808201518184015260208101905061303c565b50505050905001848103825285818151815260200191508051906020019080838360005b8381101561309657808201518184015260208101905061307b565b50505050905090810190601f1680156130c35780820380516001836020036101000a031916815260200191505b5098505050505050505050602060405180830381600087803b1580156130e857600080fd5b505af11580156130fc573d6000803e3d6000fd5b505050506040513d602081101561311257600080fd5b81019080805190602001909291905050507bffffffffffffffffffffffffffffffffffffffffffffffffffffffff191614613198576040517f08c379a000000000000000000000000000000000000000000000000000000000815260040180806020018281038252603681526020018061462c6036913960400191505060405180910390fd5b5b505050505050565b6000600f60008373ffffffffffffffffffffffffffffffffffffffff1673ffffffffffffffffffffffffffffffffffffffff16815260200190815260200160002060009054906101000a900460ff16806131ff57506131fe613250565b5b9050919050565b80600d60008481526020019081526020016000208190555080827f9cd9c60390fc75c213fd8d644749f61388dd30ed6c6eb4647b793b5b580fb43060405160405180910390a35050565b60008060009054906101000a900473ffffffffffffffffffffffffffffffffffffffff1673ffffffffffffffffffffffffffffffffffffffff163373ffffffffffffffffffffffffffffffffffffffff1614905090565b60008073ffffffffffffffffffffffffffffffffffffffff168473ffffffffffffffffffffffffffffffffffffffff16141561332e576040517f08c379a000000000000000000000000000000000000000000000000000000000815260040180806020018281038252602b8152602001806144d5602b913960400191505060405180910390fd5b600080905060004290506000600160036000888152602001908152602001600020805490500390505b6000811061350157600060036000888152602001908152602001600020828154811061337f57fe5b906000526020600020906002020160006002811061339957fe5b0154905060006305f5e100600454600360008b815260200190815260200160002085815481106133c557fe5b90600052602060002090600202016001600281106133df57fe5b015402816133e957fe5b049050600082600260008b815260200190815260200160002060008c73ffffffffffffffffffffffffffffffffffffffff1673ffffffffffffffffffffffffffffffffffffffff16815260200190815260200160002054106134c55762015180600260008b815260200190815260200160002060008c73ffffffffffffffffffffffffffffffffffffffff1673ffffffffffffffffffffffffffffffffffffffff168152602001908152602001600020548603816134a357fe5b04905060008114156134b457600190505b878282020286019550505050613501565b62015180838603816134d357fe5b04905060008114156134e457600190505b829450878282020286019550505050808060019003915050613357565b5081925050509392505050565b6000600e60008981526020019081526020016000205414613597576040517f08c379a000000000000000000000000000000000000000000000000000000000815260040180806020018281038252601f8152602001807f5374617368426c6f783a20546f6b656e20616c7265616479206d696e7465640081525060200191505060405180910390fd5b600086116135f0576040517f08c379a000000000000000000000000000000000000000000000000000000000815260040180806020018281038252602a815260200180614602602a913960400191505060405180910390fd5b60008411613649576040517f08c379a000000000000000000000000000000000000000000000000000000000815260040180806020018281038252603581526020018061457a6035913960400191505060405180910390fd5b600083116136a2576040517f08c379a00000000000000000000000000000000000000000000000000000000081526004018080602001828103825260398152602001806148976039913960400191505060405180910390fd5b6127108311156136fd576040517f08c379a00000000000000000000000000000000000000000000000000000000081526004018080602001828103825260448152602001806147c56044913960600191505060405180910390fd5b6000825111613757576040517f08c379a000000000000000000000000000000000000000000000000000000000815260040180806020018281038252602b81526020018061483b602b913960400191505060405180910390fd5b80518251146137b1576040517f08c379a00000000000000000000000000000000000000000000000000000000081526004018080602001828103825260328152602001806148096032913960400191505060405180910390fd5b600080905060008090505b8251811015613854578281815181106137d157fe5b60200260200101518201915060008382815181106137eb57fe5b602002602001015111613849576040517f08c379a000000000000000000000000000000000000000000000000000000000815260040180806020018281038252603c8152602001806146e1603c913960400191505060405180910390fd5b8060010190506137bc565b5061271081146138af576040517f08c379a000000000000000000000000000000000000000000000000000000000815260040180806020018281038252604381526020018061471d6043913960600191505060405180910390fd5b6001600a60008a815260200190815260200160002060008b73ffffffffffffffffffffffffffffffffffffffff1673ffffffffffffffffffffffffffffffffffffffff16815260200190815260200160002060006101000a81548160ff021916908315150217905550600860008a73ffffffffffffffffffffffffffffffffffffffff1673ffffffffffffffffffffffffffffffffffffffff16815260200190815260200160002088908060018154018082558091505090600182039060005260206000200160009091929091909150555086600e60008a81526020019081526020016000208190555086600160008a815260200190815260200160002060008b73ffffffffffffffffffffffffffffffffffffffff1673ffffffffffffffffffffffffffffffffffffffff168152602001908152602001600020819055506139f88887613206565b42600260008a815260200190815260200160002060008b73ffffffffffffffffffffffffffffffffffffffff1673ffffffffffffffffffffffffffffffffffffffff168152602001908152602001600020819055506003600089815260200190815260200160002060405180604001604052804281526020018781525090806001815401808255809150509060018203906000526020600020906002020160009091929091909150906002613aae929190614355565b505083601060008a81526020019081526020016000208190555082600560008a81526020019081526020016000209080519060200190613aef929190614395565b5081600660008a81526020019081526020016000209080519060200190613b1792919061441f565b508873ffffffffffffffffffffffffffffffffffffffff16600073ffffffffffffffffffffffffffffffffffffffff163373ffffffffffffffffffffffffffffffffffffffff167fc3d58168c5ae7397731d063d5bbf3d657854427343f4c083240f7aacaa2d0f628b8b604051808381526020018281526020019250505060405180910390a4505050505050505050565b613bc78473ffffffffffffffffffffffffffffffffffffffff16614244565b15613ded578373ffffffffffffffffffffffffffffffffffffffff1663f23a6e61905060e01b7bffffffffffffffffffffffffffffffffffffffffffffffffffffffff19168473ffffffffffffffffffffffffffffffffffffffff1663f23a6e6188888787876040518663ffffffff1660e01b8152600401808673ffffffffffffffffffffffffffffffffffffffff1673ffffffffffffffffffffffffffffffffffffffff1681526020018573ffffffffffffffffffffffffffffffffffffffff1673ffffffffffffffffffffffffffffffffffffffff16815260200184815260200183815260200180602001828103825283818151815260200191508051906020019080838360005b83811015613cec578082015181840152602081019050613cd1565b50505050905090810190601f168015613d195780820380516001836020036101000a031916815260200191505b509650505050505050602060405180830381600087803b158015613d3c57600080fd5b505af1158015613d50573d6000803e3d6000fd5b505050506040513d6020811015613d6657600080fd5b81019080805190602001909291905050507bffffffffffffffffffffffffffffffffffffffffffffffffffffffff191614613dec576040517f08c379a00000000000000000000000000000000000000000000000000000000081526004018080602001828103825260318152602001806148666031913960400191505060405180910390fd5b5b505050505050565b600073ffffffffffffffffffffffffffffffffffffffff168173ffffffffffffffffffffffffffffffffffffffff161415613e7b576040517f08c379a00000000000000000000000000000000000000000000000000000000081526004018080602001828103825260268152602001806145006026913960400191505060405180910390fd5b8073ffffffffffffffffffffffffffffffffffffffff166000809054906101000a900473ffffffffffffffffffffffffffffffffffffffff1673ffffffffffffffffffffffffffffffffffffffff167f8be0079c531659141344cd1fd0a4f28419497f9722a3daafe3b4186f6b6457e060405160405180910390a3806000806101000a81548173ffffffffffffffffffffffffffffffffffffffff021916908373ffffffffffffffffffffffffffffffffffffffff16021790555050565b60008160ff16600011158015613f53575060098260ff1611155b15613f8857817f300000000000000000000000000000000000000000000000000000000000000060f81c0160f81b9050613fdd565b8160ff16600a11158015613fa05750600f8260ff1611155b15613fd857600a827f610000000000000000000000000000000000000000000000000000000000000060f81c010360f81b9050613fdd565b600080fd5b919050565b600083831115829061408f576040517f08c379a00000000000000000000000000000000000000000000000000000000081526004018080602001828103825283818151815260200191508051906020019080838360005b83811015614054578082015181840152602081019050614039565b50505050905090810190601f1680156140815780820380516001836020036101000a031916815260200191505b509250505060405180910390fd5b5060008385039050809150509392505050565b600080828401905083811015614120576040517f08c379a000000000000000000000000000000000000000000000000000000000815260040180806020018281038252601b8152602001807f536166654d6174683a206164646974696f6e206f766572666c6f77000000000081525060200191505060405180910390fd5b8091505092915050565b600061416c83836040518060400160405280601e81526020017f536166654d6174683a207375627472616374696f6e206f766572666c6f770000815250613fe2565b905092915050565b60008083141561418757600090506141f4565b600082840290508284828161419857fe5b04146141ef576040517f08c379a00000000000000000000000000000000000000000000000000000000081526004018080602001828103825260218152602001806146c06021913960400191505060405180910390fd5b809150505b92915050565b600061423c83836040518060400160405280601a81526020017f536166654d6174683a206469766973696f6e206279207a65726f00000000000081525061428f565b905092915050565b60008060007fc5d2460186f7233c927e7db2dcc703c0e500b653ca82273b7bfad8045d85a47060001b9050833f91506000801b82141580156142865750808214155b92505050919050565b6000808311829061433b576040517f08c379a00000000000000000000000000000000000000000000000000000000081526004018080602001828103825283818151815260200191508051906020019080838360005b838110156143005780820151818401526020810190506142e5565b50505050905090810190601f16801561432d5780820380516001836020036101000a031916815260200191505b509250505060405180910390fd5b50600083858161434757fe5b049050809150509392505050565b8260028101928215614384579160200282015b82811115614383578251825591602001919060010190614368565b5b509050614391919061446c565b5090565b82805482825590600052602060002090810192821561440e579160200282015b8281111561440d5782518260006101000a81548173ffffffffffffffffffffffffffffffffffffffff021916908373ffffffffffffffffffffffffffffffffffffffff160217905550916020019190600101906143b5565b5b50905061441b9190614491565b5090565b82805482825590600052602060002090810192821561445b579160200282015b8281111561445a57825182559160200191906001019061443f565b5b509050614468919061446c565b5090565b61448e91905b8082111561448a576000816000905550600101614472565b5090565b90565b6144d191905b808211156144cd57600081816101000a81549073ffffffffffffffffffffffffffffffffffffffff021916905550600101614497565b5090565b9056fe455243313135353a2062616c616e636520717565727920666f7220746865207a65726f20616464726573734f776e61626c653a206e6577206f776e657220697320746865207a65726f2061646472657373455243313135353a207461726765742061646472657373206d757374206265206e6f6e2d7a65726f455243313135353a2063616e6e6f742073657420617070726f76616c2073746174757320666f722073656c665374617368426c6f783a2073746f72616765437265646974436f73742073686f756c642062652067726561746572207468616e20304d696e7461626c653a2063616c6c6572206973206e6f74206120746f6b656e697a6572455243313135353a206163636f756e747320616e6420494473206d75737420686176652073616d65206c656e677468735374617368426c6f783a20737570706c792073686f756c642062652067726561746572207468616e2030455243313135353a20676f7420756e6b6e6f776e2076616c75652066726f6d206f6e4552433131353542617463685265636569766564455243313135353a20736f6d65206164647265737320696e2062617463682062616c616e6365207175657279206973207a65726f455243313135353a20696e73756666696369656e742062616c616e636520666f72207472616e73666572536166654d6174683a206d756c7469706c69636174696f6e206f766572666c6f775374617368426c6f783a2066656573526563697069656e747350657263656e746167652073686f756c642062652067726561746572207468616e20305374617368426c6f783a20546f74616c206f662066656573526563697069656e747350657263656e74616765206d75737420626520657175616c20746f203130303030455243313135353a206e656564206f70657261746f7220617070726f76616c20666f7220337264207061727479207472616e7366657273455243313135353a2049447320616e642076616c756573206d75737420686176652073616d65206c656e677468735374617368426c6f783a206d696e486f6c64696e67466f7243616c6c6261636b2073686f756c64206265206c6f776572206f7220657175616c207468616e2031303030305374617368426c6f783a20696e76616c69642066656573526563697069656e747350657263656e74616765206c656e6774685374617368426c6f783a206e656564206174206c65617374206f6e652066656573526563697069656e7473455243313135353a20676f7420756e6b6e6f776e2076616c75652066726f6d206f6e4552433131353552656365697665645374617368426c6f783a206d696e486f6c64696e67466f7243616c6c6261636b2073686f756c642062652067726561746572207468616e2030455243313135353a20696e73756666696369656e742045544820666f72207472616e736665722066656573a265627a7a723158203da4e21dcf8b9c90c93db562e546942bf4103953d38dfad119c29af43f68676364736f6c634300050c00324f776e61626c653a206e6577206f776e657220697320746865207a65726f2061646472657373",
  "source": "pragma solidity ^0.5.12;\n// pragma experimental ABIEncoderV2;\n\nimport './ERC1155.sol';\nimport './ERC1155Metadata.sol';\nimport '../ERC173/ERC173.sol';\nimport '../utils/StringUtils.sol';\n\ncontract ERC1155Mintable is ERC1155, ERC1155Metadata {\n\n    // Mapping from token ID to Supply\n    mapping (uint256 => uint256) internal _supplies;\n    mapping (address => bool) private _authorizedTokenizers;\n\n    // Minimum holding to propose a callback for each token\n    mapping (uint256 => uint256) _minHoldingForCallback;\n\n    event UpdateStorageCost(address indexed _tokenizer, uint256 _id, uint256 _cost);\n    event UpdateStorageCreditPrice(address indexed _owner, uint256 _price);\n\n\n    function authorizeTokenizer(address tokenizer) external onlyOwner {\n        _authorizedTokenizers[tokenizer] = true;\n    }\n\n    function revokeTokenizer(address tokenizer) external onlyOwner {\n        _authorizedTokenizers[tokenizer] = false;\n    }\n\n    function _isTokenizer(address tokenizer) internal view returns (bool) {\n        return _authorizedTokenizers[tokenizer] || _isOwner();\n    }\n\n    function isTokenizer(address tokenizer) external view returns (bool) {\n        return _isTokenizer(tokenizer);\n    }\n\n    modifier onlyTokenizer() {\n        require(_isTokenizer(msg.sender), \"Mintable: caller is not a tokenizer\");\n        _;\n    }\n\n    function _createToken(address recipient,\n                         uint256 id,\n                         uint256 supply,\n                         uint256 metadataHash,\n                         uint256 storageCreditCost,\n                         uint256 minHoldingForCallback,\n                         address[] memory feesRecipients,\n                         uint256[] memory feesRecipientsPercentage)\n    internal {\n\n        require(_supplies[id] == 0, \"StashBlox: Token already minted\");\n        require(supply > 0, \"StashBlox: supply should be greater than 0\");\n        require(storageCreditCost > 0, \"StashBlox: storageCreditCost should be greater than 0\");\n        require(minHoldingForCallback > 0, \"StashBlox: minHoldingForCallback should be greater than 0\");\n        require(minHoldingForCallback <= 10000, \"StashBlox: minHoldingForCallback should be lower or equal than 10000\");\n        require(feesRecipients.length > 0, \"StashBlox: need at least one feesRecipients\");\n        require(feesRecipients.length == feesRecipientsPercentage.length, \"StashBlox: invalid feesRecipientsPercentage length\");\n\n        uint256 totalPercentage = 0;\n        for (uint256 i = 0; i < feesRecipientsPercentage.length; ++i) {\n            totalPercentage += feesRecipientsPercentage[i];\n            require(feesRecipientsPercentage[i] > 0, \"StashBlox: feesRecipientsPercentage should be greater than 0\");\n        }\n        require(totalPercentage == 10000, \"StashBlox: Total of feesRecipientsPercentage must be equal to 10000\");\n\n        _isHolder[id][recipient] = true;\n        _tokensByAddress[recipient].push(id);\n        _supplies[id] = supply;\n        _balances[id][recipient] = supply;\n        _updateMetadataHash(id, metadataHash);\n        _birthdays[id][recipient] = block.timestamp;\n        _storageCostHistory[id].push([block.timestamp, storageCreditCost]);\n        _minHoldingForCallback[id] = minHoldingForCallback;\n        _feesRecipients[id] = feesRecipients;\n        _feesRecipientsPercentage[id] = feesRecipientsPercentage;\n\n        emit TransferSingle(msg.sender, address(0), recipient, id, supply);\n        // emit URI(uri, id);\n    }\n\n    /**\n     * @dev Function to mint an amount of a token with the given ID.\n     * @param recipient The address that will own the minted tokens\n     * @param id ID of the token to be minted\n     * @param supply Amount of the token to be minted\n     * @param metadataHash Metadata file hash\n     * @param storageCreditCost cost for 24h storage in storageCredit (x 10 ^ 8 for the precision)\n     * @param minHoldingForCallback minimum holding to propose a callback\n     * @param feesRecipients list of addresses receiving transfer fees\n     * @param feesRecipientsPercentage list of percentage, each one for the corresponding feesRecipients\n     */\n    function createToken(address recipient,\n                         uint256 id,\n                         uint256 supply,\n                         uint256 metadataHash,\n                         uint256 storageCreditCost,\n                         uint256 minHoldingForCallback,\n                         address[] calldata feesRecipients,\n                         uint256[] calldata feesRecipientsPercentage)\n    external onlyTokenizer {\n        _createToken(recipient,\n                     id,\n                     supply,\n                     metadataHash,\n                     storageCreditCost,\n                     minHoldingForCallback,\n                     feesRecipients,\n                     feesRecipientsPercentage);\n    }\n\n    function updateMetadataHash(uint256 id, uint256 metadataHash) external onlyTokenizer {\n      _updateMetadataHash(id, metadataHash);\n    }\n\n    function updateStorageCreditPrice(uint256 newPrice) external onlyTokenizer {\n      storageCreditPrice = newPrice;\n      emit UpdateStorageCreditPrice(msg.sender, newPrice);\n    }\n\n    function updateStorageCost(uint256 id, uint256 newCost) external onlyTokenizer {\n      _storageCostHistory[id].push([block.timestamp, newCost]);\n      emit UpdateStorageCost(msg.sender, id, newCost);\n    }\n\n    function withdraw(address to, uint256 amount) external onlyOwner {\n      require(_ETHBalances[to] >= amount, \"StashBlox: Insufficient balance.\");\n      (bool success, ) = to.call.value(amount)(\"\");\n      require(success, \"StashBlox: Withdrawal failed.\");\n      _ETHBalances[to] -= amount;\n    }\n\n    // /**\n    //  * @param id Token ID\n    //  * @return Token supply\n    //  */\n    // function totalSupply(uint256 id) external view returns (uint256) {\n    //     return _supplies[id];\n    // }\n}\n",
  "sourcePath": "/home/ouziel/Work/StashBloxContracts/contracts/lib/ERC1155/ERC1155Mintable.sol",
  "compiler": {
    "name": "solc",
    "version": "0.5.12+commit.7709ece9.Emscripten.clang"
  },
  "schemaVersion": "3.2.3",
  "updatedAt": "2020-09-30T09:22:52.799Z",
  "devdoc": {
    "methods": {
      "balanceOf(address,uint256)": {
        "details": "Get the specified address' balance for token with specified ID. Attempting to query the zero account for a balance will result in a revert.",
        "params": {
          "account": "The address of the token holder",
          "id": "ID of the token"
        },
        "return": "The account's balance of the token type requested"
      },
      "balanceOfBatch(address[],uint256[])": {
        "details": "Get the balance of multiple account/token pairs. If any of the query accounts is the zero account, this query will revert.",
        "params": {
          "accounts": "The addresses of the token holders",
          "ids": "IDs of the tokens"
        },
        "return": "Balances for each account and token id pair"
      },
      "createToken(address,uint256,uint256,uint256,uint256,uint256,address[],uint256[])": {
        "details": "Function to mint an amount of a token with the given ID.",
        "params": {
          "feesRecipients": "list of addresses receiving transfer fees",
          "feesRecipientsPercentage": "list of percentage, each one for the corresponding feesRecipients",
          "id": "ID of the token to be minted",
          "metadataHash": "Metadata file hash",
          "minHoldingForCallback": "minimum holding to propose a callback",
          "recipient": "The address that will own the minted tokens",
          "storageCreditCost": "cost for 24h storage in storageCredit (x 10 ^ 8 for the precision)",
          "supply": "Amount of the token to be minted"
        }
      },
      "isApprovedForAll(address,address)": {
        "params": {
          "account": "The account of the Tokens",
          "operator": "Address of authorized operator"
        },
        "return": "True if the operator is approved, false if not"
      },
      "owner()": {
        "details": "Returns the address of the current owner."
      },
      "safeBatchTransferFrom(address,address,uint256[],uint256[],bytes)": {
        "details": "Transfers `values` amount(s) of `ids` from the `from` address to the `to` address specified. Caller must be approved to manage the tokens being transferred out of the `from` account. If `to` is a smart contract, will call `onERC1155BatchReceived` on `to` and act appropriately.",
        "params": {
          "data": "Data forwarded to `onERC1155Received` if `to` is a contract receiver",
          "from": "Source address",
          "ids": "IDs of each token type",
          "to": "Target address",
          "values": "Transfer amounts per token type"
        }
      },
      "safeTransferFrom(address,address,uint256,uint256,bytes)": {
        "details": "Transfers `value` amount of an `id` from the `from` address to the `to` address specified. Caller must be approved to manage the tokens being transferred out of the `from` account. If `to` is a smart contract, will call `onERC1155Received` on `to` and act appropriately.",
        "params": {
          "data": "Data forwarded to `onERC1155Received` if `to` is a contract receiver",
          "from": "Source address",
          "id": "ID of the token type",
          "to": "Target address",
          "value": "Transfer amount"
        }
      },
      "setApprovalForAll(address,bool)": {
        "details": "Sets or unsets the approval of a given operator.     * An operator is allowed to transfer all tokens of the sender on their behalf.     * Because an account already has operator privileges for itself, this function will revert if the account attempts to set the approval status for itself.",
        "params": {
          "approved": "representing the status of the approval to be set",
          "operator": "address to set the approval"
        }
      },
      "supportsInterface(bytes4)": {
        "params": {
          "_interfaceID": "The interface identifier, as specified in ERC-165"
        },
        "return": "`true` if the contract implements `_interfaceID` and"
      },
      "transferOwnership(address)": {
        "details": "Transfers ownership of the contract to a new account (`newOwner`). Can only be called by the current owner."
      },
      "uri(uint256)": {
        "params": {
          "id": "Token ID"
        },
        "return": "URI string"
      }
    }
  },
  "userdoc": {
    "methods": {
      "isApprovedForAll(address,address)": {
        "notice": "Queries the approval status of an operator for a given account."
      },
      "supportsInterface(bytes4)": {
        "notice": "Query if a contract implements an interface"
      }
    }
  }
}