{
  "contractName": "ERC1155Documents",
  "abi": [
    {
      "anonymous": false,
      "inputs": [
        {
          "indexed": true,
          "internalType": "uint256",
          "name": "id",
          "type": "uint256"
        },
        {
          "indexed": false,
          "internalType": "uint256",
          "name": "hash",
          "type": "uint256"
        },
        {
          "indexed": false,
          "internalType": "uint256",
          "name": "docType",
          "type": "uint256"
        }
      ],
      "name": "DocumentAdded",
      "type": "event"
    },
    {
      "anonymous": false,
      "inputs": [
        {
          "indexed": true,
          "internalType": "address",
          "name": "previousOwner",
          "type": "address"
        },
        {
          "indexed": true,
          "internalType": "address",
          "name": "newOwner",
          "type": "address"
        }
      ],
      "name": "OwnershipTransferred",
      "type": "event"
    },
    {
      "constant": true,
      "inputs": [],
      "name": "DOCUMENTS_BASE_URI",
      "outputs": [
        {
          "internalType": "string",
          "name": "",
          "type": "string"
        }
      ],
      "payable": false,
      "stateMutability": "view",
      "type": "function"
    },
    {
      "constant": true,
      "inputs": [],
      "name": "owner",
      "outputs": [
        {
          "internalType": "address",
          "name": "",
          "type": "address"
        }
      ],
      "payable": false,
      "stateMutability": "view",
      "type": "function"
    },
    {
      "constant": false,
      "inputs": [
        {
          "internalType": "address",
          "name": "newOwner",
          "type": "address"
        }
      ],
      "name": "transferOwnership",
      "outputs": [],
      "payable": false,
      "stateMutability": "nonpayable",
      "type": "function"
    },
    {
      "constant": false,
      "inputs": [
        {
          "internalType": "uint256",
          "name": "id",
          "type": "uint256"
        },
        {
          "internalType": "uint256",
          "name": "docHash",
          "type": "uint256"
        },
        {
          "internalType": "uint256",
          "name": "docType",
          "type": "uint256"
        }
      ],
      "name": "addDocument",
      "outputs": [],
      "payable": false,
      "stateMutability": "nonpayable",
      "type": "function"
    },
    {
      "constant": false,
      "inputs": [
        {
          "internalType": "uint256[]",
          "name": "ids",
          "type": "uint256[]"
        },
        {
          "internalType": "uint256[]",
          "name": "docHashes",
          "type": "uint256[]"
        },
        {
          "internalType": "uint256[]",
          "name": "docTypes",
          "type": "uint256[]"
        }
      ],
      "name": "addDocuments",
      "outputs": [],
      "payable": false,
      "stateMutability": "nonpayable",
      "type": "function"
    },
    {
      "constant": true,
      "inputs": [
        {
          "internalType": "uint256",
          "name": "docHash",
          "type": "uint256"
        }
      ],
      "name": "documentUri",
      "outputs": [
        {
          "internalType": "string",
          "name": "",
          "type": "string"
        }
      ],
      "payable": false,
      "stateMutability": "pure",
      "type": "function"
    }
  ],
  "bytecode": "0x60806040526100133361001860201b60201c565b6101dd565b600073ffffffffffffffffffffffffffffffffffffffff168173ffffffffffffffffffffffffffffffffffffffff161415610088576040517f08c379a000000000000000000000000000000000000000000000000000000000815260040161007f906101ac565b60405180910390fd5b8073ffffffffffffffffffffffffffffffffffffffff166000809054906101000a900473ffffffffffffffffffffffffffffffffffffffff1673ffffffffffffffffffffffffffffffffffffffff167f8be0079c531659141344cd1fd0a4f28419497f9722a3daafe3b4186f6b6457e060405160405180910390a3806000806101000a81548173ffffffffffffffffffffffffffffffffffffffff021916908373ffffffffffffffffffffffffffffffffffffffff16021790555050565b60006101536026836101cc565b91507f4f776e61626c653a206e6577206f776e657220697320746865207a65726f206160008301527f64647265737300000000000000000000000000000000000000000000000000006020830152604082019050919050565b600060208201905081810360008301526101c581610146565b9050919050565b600082825260208201905092915050565b610dae806101ec6000396000f3fe608060405234801561001057600080fd5b50600436106100625760003560e01c806361feed5c1461006757806364d7e053146100855780638da5cb5b146100b5578063b3270869146100d3578063b8c33258146100ef578063f2fde38b1461010b575b600080fd5b61006f610127565b60405161007c9190610bc9565b60405180910390f35b61009f600480360361009a919081019061099a565b610160565b6040516100ac9190610beb565b60405180910390f35b6100bd6101b0565b6040516100ca9190610bae565b60405180910390f35b6100ed60048036036100e891908101906109c3565b6101d9565b005b610109600480360361010491908101906108f6565b610230565b005b610125600480360361012091908101906108cd565b610336565b005b6040518060400160405280602081526020017f68747470733a2f2f7374617368626c6f782e636f6d2f646f63756d656e74732f81525081565b60606101a96040518060400160405280602081526020017f68747470733a2f2f7374617368626c6f782e636f6d2f646f63756d656e74732f8152506101a484610389565b610478565b9050919050565b60008060009054906101000a900473ffffffffffffffffffffffffffffffffffffffff16905090565b6101e16105c3565b610220576040517f08c379a000000000000000000000000000000000000000000000000000000000815260040161021790610c4d565b60405180910390fd5b61022b83838361061a565b505050565b6102386105c3565b610277576040517f08c379a000000000000000000000000000000000000000000000000000000000815260040161026e90610c4d565b60405180910390fd5b818190508686905014801561029157508181905084849050145b6102d0576040517f08c379a00000000000000000000000000000000000000000000000000000000081526004016102c790610c2d565b60405180910390fd5b60008090505b8686905081101561032d576103228787838181106102f057fe5b9050602002013586868481811061030357fe5b9050602002013585858581811061031657fe5b9050602002013561061a565b8060010190506102d6565b50505050505050565b61033e6105c3565b61037d576040517f08c379a000000000000000000000000000000000000000000000000000000000815260040161037490610c4d565b60405180910390fd5b61038681610682565b50565b6060600080905060008390505b600081146103b8578180600101925050601081816103b057fe5b049050610396565b6060826040519080825280601f01601f1916602001820160405280156103ed5781602001600182028038833980820191505090505b50905060008090505b8381101561046c576010868161040857fe5b069250610414836107b0565b826001838703038151811061042557fe5b60200101907effffffffffffffffffffffffffffffffffffffffffffffffffffffffffffff1916908160001a9053506010868161045e57fe5b0495508060010190506103f6565b50809350505050919050565b6060808390506060839050606081518351016040519080825280601f01601f1916602001820160405280156104bc5781602001600182028038833980820191505090505b509050606081905060008090506000809050600090505b8551811015610541578581815181106104e857fe5b602001015160f81c60f81b83838060010194508151811061050557fe5b60200101907effffffffffffffffffffffffffffffffffffffffffffffffffffffffffffff1916908160001a90535080806001019150506104d3565b600090505b84518110156105b45784818151811061055b57fe5b602001015160f81c60f81b83838060010194508151811061057857fe5b60200101907effffffffffffffffffffffffffffffffffffffffffffffffffffffffffffff1916908160001a9053508080600101915050610546565b82965050505050505092915050565b60008060009054906101000a900473ffffffffffffffffffffffffffffffffffffffff1673ffffffffffffffffffffffffffffffffffffffff163373ffffffffffffffffffffffffffffffffffffffff1614905090565b8060016000858152602001908152602001600020600084815260200190815260200160002081905550827ffb328d8835d6ffb715e29cb91a0ed3b84362533722865b0b339203f56bf1e7978383604051610675929190610c6d565b60405180910390a2505050565b600073ffffffffffffffffffffffffffffffffffffffff168173ffffffffffffffffffffffffffffffffffffffff1614156106f2576040517f08c379a00000000000000000000000000000000000000000000000000000000081526004016106e990610c0d565b60405180910390fd5b8073ffffffffffffffffffffffffffffffffffffffff166000809054906101000a900473ffffffffffffffffffffffffffffffffffffffff1673ffffffffffffffffffffffffffffffffffffffff167f8be0079c531659141344cd1fd0a4f28419497f9722a3daafe3b4186f6b6457e060405160405180910390a3806000806101000a81548173ffffffffffffffffffffffffffffffffffffffff021916908373ffffffffffffffffffffffffffffffffffffffff16021790555050565b60008160ff166000111580156107ca575060098260ff1611155b156107ff57817f300000000000000000000000000000000000000000000000000000000000000060f81c0160f81b9050610854565b8160ff16600a111580156108175750600f8260ff1611155b1561084f57600a827f610000000000000000000000000000000000000000000000000000000000000060f81c010360f81b9050610854565b600080fd5b919050565b60008135905061086881610d3d565b92915050565b60008083601f84011261088057600080fd5b8235905067ffffffffffffffff81111561089957600080fd5b6020830191508360208202830111156108b157600080fd5b9250929050565b6000813590506108c781610d54565b92915050565b6000602082840312156108df57600080fd5b60006108ed84828501610859565b91505092915050565b6000806000806000806060878903121561090f57600080fd5b600087013567ffffffffffffffff81111561092957600080fd5b61093589828a0161086e565b9650965050602087013567ffffffffffffffff81111561095457600080fd5b61096089828a0161086e565b9450945050604087013567ffffffffffffffff81111561097f57600080fd5b61098b89828a0161086e565b92509250509295509295509295565b6000602082840312156109ac57600080fd5b60006109ba848285016108b8565b91505092915050565b6000806000606084860312156109d857600080fd5b60006109e6868287016108b8565b93505060206109f7868287016108b8565b9250506040610a08868287016108b8565b9150509250925092565b610a1b81610cbd565b82525050565b6000610a2c82610ca1565b610a368185610cac565b9350610a46818560208601610cf9565b610a4f81610d2c565b840191505092915050565b6000610a6582610c96565b610a6f8185610cac565b9350610a7f818560208601610cf9565b610a8881610d2c565b840191505092915050565b6000610aa0602683610cac565b91507f4f776e61626c653a206e6577206f776e657220697320746865207a65726f206160008301527f64647265737300000000000000000000000000000000000000000000000000006020830152604082019050919050565b6000610b06602b83610cac565b91507f5374617368426c6f783a20616c6c206c69737473206d7573742068617665207360008301527f616d65206c656e677468730000000000000000000000000000000000000000006020830152604082019050919050565b6000610b6c602083610cac565b91507f4f776e61626c653a2063616c6c6572206973206e6f7420746865206f776e65726000830152602082019050919050565b610ba881610cef565b82525050565b6000602082019050610bc36000830184610a12565b92915050565b60006020820190508181036000830152610be38184610a5a565b905092915050565b60006020820190508181036000830152610c058184610a21565b905092915050565b60006020820190508181036000830152610c2681610a93565b9050919050565b60006020820190508181036000830152610c4681610af9565b9050919050565b60006020820190508181036000830152610c6681610b5f565b9050919050565b6000604082019050610c826000830185610b9f565b610c8f6020830184610b9f565b9392505050565b600081519050919050565b600081519050919050565b600082825260208201905092915050565b6000610cc882610ccf565b9050919050565b600073ffffffffffffffffffffffffffffffffffffffff82169050919050565b6000819050919050565b60005b83811015610d17578082015181840152602081019050610cfc565b83811115610d26576000848401525b50505050565b6000601f19601f8301169050919050565b610d4681610cbd565b8114610d5157600080fd5b50565b610d5d81610cef565b8114610d6857600080fd5b5056fea365627a7a7231582066ad9a07eb32f8e463920f0d247a99897a516bddb83883599ffc962b8b6a4db46c6578706572696d656e74616cf564736f6c634300050c0040",
  "source": "pragma solidity ^0.5.12;\npragma experimental ABIEncoderV2;\n\nimport '../utils/StringUtils.sol';\nimport \"../ERC173/ERC173.sol\";\n\ncontract ERC1155Documents is ERC173, StringUtils {\n\n    string constant public DOCUMENTS_BASE_URI = \"https://stashblox.com/documents/\";\n\n    // Mapping tokenID => (hash => name) to documents\n    mapping (uint256 => mapping(uint256 => uint256)) _documents;\n\n    /**\n        @dev MUST emit when a document is added for a token ID.\n    */\n    event DocumentAdded(uint256 indexed id, uint256 hash, uint256 docType);\n\n    function _addDocument(uint256 id,\n                          uint256 docHash,\n                          uint256 docType)\n    internal {\n        _documents[id][docHash] = docType;\n        emit DocumentAdded(id, docHash, docType);\n    }\n\n    function addDocument(uint256 id,\n                         uint256 docHash,\n                         uint256 docType)\n    external onlyOwner {\n        _addDocument(id, docHash, docType);\n    }\n\n    function addDocuments(uint256[] calldata ids,\n                          uint256[] calldata docHashes,\n                          uint256[] calldata docTypes)\n    external onlyOwner {\n        require(ids.length == docTypes.length &&\n                docHashes.length == docTypes.length, \"StashBlox: all lists must have same lengths\");\n\n        for (uint256 i = 0; i < ids.length; ++i)\n            _addDocument(ids[i], docHashes[i], docTypes[i]);\n    }\n\n    function documentUri(uint256 docHash) external pure returns (string memory) {\n        return _strConcat(DOCUMENTS_BASE_URI, _toHexString(docHash));\n    }\n\n}\n",
  "sourcePath": "/home/ouziel/Work/StashBloxContracts/contracts/lib/ERC1155/ERC1155Documents.sol",
  "compiler": {
    "name": "solc",
    "version": "0.5.12+commit.7709ece9.Emscripten.clang"
  },
  "schemaVersion": "3.0.16",
  "updatedAt": "2019-11-16T17:03:52.352Z",
  "devdoc": {
    "methods": {
      "owner()": {
        "details": "Returns the address of the current owner."
      },
      "transferOwnership(address)": {
        "details": "Transfers ownership of the contract to a new account (`newOwner`). Can only be called by the current owner."
      }
    }
  },
  "userdoc": {
    "methods": {}
  }
}