{
  "contractName": "ERC1155Documents",
  "abi": [
    {
      "anonymous": false,
      "inputs": [
        {
          "indexed": true,
          "internalType": "uint256",
          "name": "id",
          "type": "uint256"
        },
        {
          "indexed": false,
          "internalType": "uint256",
          "name": "hash",
          "type": "uint256"
        },
        {
          "indexed": false,
          "internalType": "string",
          "name": "name",
          "type": "string"
        }
      ],
      "name": "DocumentAdded",
      "type": "event"
    },
    {
      "anonymous": false,
      "inputs": [
        {
          "indexed": true,
          "internalType": "address",
          "name": "previousOwner",
          "type": "address"
        },
        {
          "indexed": true,
          "internalType": "address",
          "name": "newOwner",
          "type": "address"
        }
      ],
      "name": "OwnershipTransferred",
      "type": "event"
    },
    {
      "constant": true,
      "inputs": [],
      "name": "DOCUMENTS_BASE_URI",
      "outputs": [
        {
          "internalType": "string",
          "name": "",
          "type": "string"
        }
      ],
      "payable": false,
      "stateMutability": "view",
      "type": "function"
    },
    {
      "constant": true,
      "inputs": [],
      "name": "owner",
      "outputs": [
        {
          "internalType": "address",
          "name": "",
          "type": "address"
        }
      ],
      "payable": false,
      "stateMutability": "view",
      "type": "function"
    },
    {
      "constant": false,
      "inputs": [
        {
          "internalType": "address",
          "name": "newOwner",
          "type": "address"
        }
      ],
      "name": "transferOwnership",
      "outputs": [],
      "payable": false,
      "stateMutability": "nonpayable",
      "type": "function"
    },
    {
      "constant": false,
      "inputs": [
        {
          "internalType": "uint256",
          "name": "id",
          "type": "uint256"
        },
        {
          "internalType": "uint256",
          "name": "docHash",
          "type": "uint256"
        },
        {
          "internalType": "string",
          "name": "docName",
          "type": "string"
        }
      ],
      "name": "addDocument",
      "outputs": [],
      "payable": false,
      "stateMutability": "nonpayable",
      "type": "function"
    },
    {
      "constant": false,
      "inputs": [
        {
          "internalType": "uint256[]",
          "name": "ids",
          "type": "uint256[]"
        },
        {
          "internalType": "uint256[]",
          "name": "docHashes",
          "type": "uint256[]"
        },
        {
          "internalType": "string[]",
          "name": "docNames",
          "type": "string[]"
        }
      ],
      "name": "addDocuments",
      "outputs": [],
      "payable": false,
      "stateMutability": "nonpayable",
      "type": "function"
    },
    {
      "constant": true,
      "inputs": [
        {
          "internalType": "uint256",
          "name": "docHash",
          "type": "uint256"
        }
      ],
      "name": "documentUri",
      "outputs": [
        {
          "internalType": "string",
          "name": "",
          "type": "string"
        }
      ],
      "payable": false,
      "stateMutability": "pure",
      "type": "function"
    }
  ],
  "bytecode": "0x60806040526100133361001860201b60201c565b6101dd565b600073ffffffffffffffffffffffffffffffffffffffff168173ffffffffffffffffffffffffffffffffffffffff161415610088576040517f08c379a000000000000000000000000000000000000000000000000000000000815260040161007f906101ac565b60405180910390fd5b8073ffffffffffffffffffffffffffffffffffffffff166000809054906101000a900473ffffffffffffffffffffffffffffffffffffffff1673ffffffffffffffffffffffffffffffffffffffff167f8be0079c531659141344cd1fd0a4f28419497f9722a3daafe3b4186f6b6457e060405160405180910390a3806000806101000a81548173ffffffffffffffffffffffffffffffffffffffff021916908373ffffffffffffffffffffffffffffffffffffffff16021790555050565b60006101536026836101cc565b91507f4f776e61626c653a206e6577206f776e657220697320746865207a65726f206160008301527f64647265737300000000000000000000000000000000000000000000000000006020830152604082019050919050565b600060208201905081810360008301526101c581610146565b9050919050565b600082825260208201905092915050565b6110ad806101ec6000396000f3fe608060405234801561001057600080fd5b50600436106100625760003560e01c806361feed5c1461006757806364d7e053146100855780638842ec22146100b55780638da5cb5b146100d1578063f2fde38b146100ef578063f46e049b1461010b575b600080fd5b61006f610127565b60405161007c9190610ea1565b60405180910390f35b61009f600480360361009a9190810190610bef565b610160565b6040516100ac9190610ec3565b60405180910390f35b6100cf60048036036100ca9190810190610c18565b6101b0565b005b6100d961024c565b6040516100e69190610e86565b60405180910390f35b61010960048036036101049190810190610b22565b610275565b005b61012560048036036101209190810190610b4b565b6102c8565b005b6040518060400160405280602081526020017f68747470733a2f2f7374617368626c6f782e636f6d2f646f63756d656e74732f81525081565b60606101a96040518060400160405280602081526020017f68747470733a2f2f7374617368626c6f782e636f6d2f646f63756d656e74732f8152506101a484610495565b610584565b9050919050565b6101b86106cf565b6101f7576040517f08c379a00000000000000000000000000000000000000000000000000000000081526004016101ee90610f25565b60405180910390fd5b610246848484848080601f016020809104026020016040519081016040528093929190818152602001838380828437600081840152601f19601f82011690508083019250505050505050610726565b50505050565b60008060009054906101000a900473ffffffffffffffffffffffffffffffffffffffff16905090565b61027d6106cf565b6102bc576040517f08c379a00000000000000000000000000000000000000000000000000000000081526004016102b390610f25565b60405180910390fd5b6102c58161079e565b50565b6102d06106cf565b61030f576040517f08c379a000000000000000000000000000000000000000000000000000000000815260040161030690610f25565b60405180910390fd5b838390508686905014610357576040517f08c379a000000000000000000000000000000000000000000000000000000000815260040161034e90610f45565b60405180910390fd5b81819050848490501461039f576040517f08c379a000000000000000000000000000000000000000000000000000000000815260040161039690610f05565b60405180910390fd5b60008090505b8686905081101561048c576104818787838181106103bf57fe5b905060200201358686848181106103d257fe5b905060200201358585858181106103e557fe5b905060200281018035600160200383360303811261040257600080fd5b8083019250508135905060208201915067ffffffffffffffff81111561042757600080fd5b60018102360382131561043957600080fd5b8080601f016020809104026020016040519081016040528093929190818152602001838380828437600081840152601f19601f82011690508083019250505050505050610726565b8060010190506103a5565b50505050505050565b6060600080905060008390505b600081146104c4578180600101925050601081816104bc57fe5b0490506104a2565b6060826040519080825280601f01601f1916602001820160405280156104f95781602001600182028038833980820191505090505b50905060008090505b83811015610578576010868161051457fe5b069250610520836108cc565b826001838703038151811061053157fe5b60200101907effffffffffffffffffffffffffffffffffffffffffffffffffffffffffffff1916908160001a9053506010868161056a57fe5b049550806001019050610502565b50809350505050919050565b6060808390506060839050606081518351016040519080825280601f01601f1916602001820160405280156105c85781602001600182028038833980820191505090505b509050606081905060008090506000809050600090505b855181101561064d578581815181106105f457fe5b602001015160f81c60f81b83838060010194508151811061061157fe5b60200101907effffffffffffffffffffffffffffffffffffffffffffffffffffffffffffff1916908160001a90535080806001019150506105df565b600090505b84518110156106c05784818151811061066757fe5b602001015160f81c60f81b83838060010194508151811061068457fe5b60200101907effffffffffffffffffffffffffffffffffffffffffffffffffffffffffffff1916908160001a9053508080600101915050610652565b82965050505050505092915050565b60008060009054906101000a900473ffffffffffffffffffffffffffffffffffffffff1673ffffffffffffffffffffffffffffffffffffffff163373ffffffffffffffffffffffffffffffffffffffff1614905090565b80600160008581526020019081526020016000206000848152602001908152602001600020908051906020019061075e929190610975565b50827f7c77b0a5e04b8b0a37a64aa8dd7a24c2cdfb5f2302c065c6044b33077b96abaa8383604051610791929190610f65565b60405180910390a2505050565b600073ffffffffffffffffffffffffffffffffffffffff168173ffffffffffffffffffffffffffffffffffffffff16141561080e576040517f08c379a000000000000000000000000000000000000000000000000000000000815260040161080590610ee5565b60405180910390fd5b8073ffffffffffffffffffffffffffffffffffffffff166000809054906101000a900473ffffffffffffffffffffffffffffffffffffffff1673ffffffffffffffffffffffffffffffffffffffff167f8be0079c531659141344cd1fd0a4f28419497f9722a3daafe3b4186f6b6457e060405160405180910390a3806000806101000a81548173ffffffffffffffffffffffffffffffffffffffff021916908373ffffffffffffffffffffffffffffffffffffffff16021790555050565b60008160ff166000111580156108e6575060098260ff1611155b1561091b57817f300000000000000000000000000000000000000000000000000000000000000060f81c0160f81b9050610970565b8160ff16600a111580156109335750600f8260ff1611155b1561096b57600a827f610000000000000000000000000000000000000000000000000000000000000060f81c010360f81b9050610970565b600080fd5b919050565b828054600181600116156101000203166002900490600052602060002090601f016020900481019282601f106109b657805160ff19168380011785556109e4565b828001600101855582156109e4579182015b828111156109e35782518255916020019190600101906109c8565b5b5090506109f191906109f5565b5090565b610a1791905b80821115610a135760008160009055506001016109fb565b5090565b90565b600081359050610a298161103c565b92915050565b60008083601f840112610a4157600080fd5b8235905067ffffffffffffffff811115610a5a57600080fd5b602083019150836020820283011115610a7257600080fd5b9250929050565b60008083601f840112610a8b57600080fd5b8235905067ffffffffffffffff811115610aa457600080fd5b602083019150836020820283011115610abc57600080fd5b9250929050565b60008083601f840112610ad557600080fd5b8235905067ffffffffffffffff811115610aee57600080fd5b602083019150836001820283011115610b0657600080fd5b9250929050565b600081359050610b1c81611053565b92915050565b600060208284031215610b3457600080fd5b6000610b4284828501610a1a565b91505092915050565b60008060008060008060608789031215610b6457600080fd5b600087013567ffffffffffffffff811115610b7e57600080fd5b610b8a89828a01610a79565b9650965050602087013567ffffffffffffffff811115610ba957600080fd5b610bb589828a01610a79565b9450945050604087013567ffffffffffffffff811115610bd457600080fd5b610be089828a01610a2f565b92509250509295509295509295565b600060208284031215610c0157600080fd5b6000610c0f84828501610b0d565b91505092915050565b60008060008060608587031215610c2e57600080fd5b6000610c3c87828801610b0d565b9450506020610c4d87828801610b0d565b935050604085013567ffffffffffffffff811115610c6a57600080fd5b610c7687828801610ac3565b925092505092959194509250565b610c8d81610fbc565b82525050565b6000610c9e82610fa0565b610ca88185610fab565b9350610cb8818560208601610ff8565b610cc18161102b565b840191505092915050565b6000610cd782610f95565b610ce18185610fab565b9350610cf1818560208601610ff8565b610cfa8161102b565b840191505092915050565b6000610d12602683610fab565b91507f4f776e61626c653a206e6577206f776e657220697320746865207a65726f206160008301527f64647265737300000000000000000000000000000000000000000000000000006020830152604082019050919050565b6000610d78603283610fab565b91507f5374617368426c6f783a2068617368657320616e64206e616d6573206d75737460008301527f20686176652073616d65206c656e6774687300000000000000000000000000006020830152604082019050919050565b6000610dde602083610fab565b91507f4f776e61626c653a2063616c6c6572206973206e6f7420746865206f776e65726000830152602082019050919050565b6000610e1e603083610fab565b91507f5374617368426c6f783a2069647320616e6420686173686573206d757374206860008301527f6176652073616d65206c656e67746873000000000000000000000000000000006020830152604082019050919050565b610e8081610fee565b82525050565b6000602082019050610e9b6000830184610c84565b92915050565b60006020820190508181036000830152610ebb8184610ccc565b905092915050565b60006020820190508181036000830152610edd8184610c93565b905092915050565b60006020820190508181036000830152610efe81610d05565b9050919050565b60006020820190508181036000830152610f1e81610d6b565b9050919050565b60006020820190508181036000830152610f3e81610dd1565b9050919050565b60006020820190508181036000830152610f5e81610e11565b9050919050565b6000604082019050610f7a6000830185610e77565b8181036020830152610f8c8184610c93565b90509392505050565b600081519050919050565b600081519050919050565b600082825260208201905092915050565b6000610fc782610fce565b9050919050565b600073ffffffffffffffffffffffffffffffffffffffff82169050919050565b6000819050919050565b60005b83811015611016578082015181840152602081019050610ffb565b83811115611025576000848401525b50505050565b6000601f19601f8301169050919050565b61104581610fbc565b811461105057600080fd5b50565b61105c81610fee565b811461106757600080fd5b5056fea365627a7a723158202becc5f44e8502c24884d5ae04f74b07e4f8729f6ee8fdc8a8cc096c3b1622106c6578706572696d656e74616cf564736f6c634300050c0040",
  "source": "pragma solidity ^0.5.12;\npragma experimental ABIEncoderV2;\n\nimport '../utils/StringUtils.sol';\nimport \"../ERC173/ERC173.sol\";\n\ncontract ERC1155Documents is ERC173, StringUtils {\n\n    string constant public DOCUMENTS_BASE_URI = \"https://stashblox.com/documents/\";\n\n    // Mapping tokenID => (hash => name) to documents\n    mapping (uint256 => mapping(uint256 => string)) _documents;\n\n    /**\n        @dev MUST emit when a document is added for a token ID.\n    */\n    event DocumentAdded(uint256 indexed id, uint256 hash, string name);\n\n    function _addDocument(uint256 id,\n                          uint256 docHash,\n                          string memory docName)\n    internal {\n        _documents[id][docHash] = docName;\n        emit DocumentAdded(id, docHash, docName);\n    }\n\n    function addDocument(uint256 id,\n                         uint256 docHash,\n                         string calldata docName)\n    external onlyOwner {\n        _addDocument(id, docHash, docName);\n    }\n\n    function addDocuments(uint256[] calldata ids,\n                          uint256[] calldata docHashes,\n                          string[] calldata docNames)\n    external onlyOwner {\n        require(ids.length == docHashes.length, \"StashBlox: ids and hashes must have same lengths\");\n        require(docHashes.length == docNames.length, \"StashBlox: hashes and names must have same lengths\");\n\n        for (uint256 i = 0; i < ids.length; ++i) {\n            _addDocument(ids[i], docHashes[i], docNames[i]);\n        }\n    }\n\n    function documentUri(uint256 docHash) external pure returns (string memory) {\n        return _strConcat(DOCUMENTS_BASE_URI, _toHexString(docHash));\n    }\n\n}\n",
  "sourcePath": "/home/ouziel/Work/StashBloxContracts/contracts/lib/ERC1155/ERC1155Documents.sol",
  "compiler": {
    "name": "solc",
    "version": "0.5.12+commit.7709ece9.Emscripten.clang"
  },
  "schemaVersion": "3.0.16",
  "updatedAt": "2019-11-09T01:19:54.050Z",
  "devdoc": {
    "methods": {
      "owner()": {
        "details": "Returns the address of the current owner."
      },
      "transferOwnership(address)": {
        "details": "Transfers ownership of the contract to a new account (`newOwner`). Can only be called by the current owner."
      }
    }
  },
  "userdoc": {
    "methods": {}
  }
}