{
  "contractName": "ERC1155",
  "abi": [
    {
      "anonymous": false,
      "inputs": [
        {
          "indexed": true,
          "internalType": "address",
          "name": "_owner",
          "type": "address"
        },
        {
          "indexed": true,
          "internalType": "address",
          "name": "_operator",
          "type": "address"
        },
        {
          "indexed": false,
          "internalType": "bool",
          "name": "_approved",
          "type": "bool"
        }
      ],
      "name": "ApprovalForAll",
      "type": "event"
    },
    {
      "anonymous": false,
      "inputs": [
        {
          "indexed": true,
          "internalType": "address",
          "name": "previousOwner",
          "type": "address"
        },
        {
          "indexed": true,
          "internalType": "address",
          "name": "newOwner",
          "type": "address"
        }
      ],
      "name": "OwnershipTransferred",
      "type": "event"
    },
    {
      "anonymous": false,
      "inputs": [
        {
          "indexed": true,
          "internalType": "address",
          "name": "_operator",
          "type": "address"
        },
        {
          "indexed": true,
          "internalType": "address",
          "name": "_from",
          "type": "address"
        },
        {
          "indexed": true,
          "internalType": "address",
          "name": "_to",
          "type": "address"
        },
        {
          "indexed": false,
          "internalType": "uint256[]",
          "name": "_ids",
          "type": "uint256[]"
        },
        {
          "indexed": false,
          "internalType": "uint256[]",
          "name": "_values",
          "type": "uint256[]"
        }
      ],
      "name": "TransferBatch",
      "type": "event"
    },
    {
      "anonymous": false,
      "inputs": [
        {
          "indexed": true,
          "internalType": "address",
          "name": "_operator",
          "type": "address"
        },
        {
          "indexed": true,
          "internalType": "address",
          "name": "_from",
          "type": "address"
        },
        {
          "indexed": true,
          "internalType": "address",
          "name": "_to",
          "type": "address"
        },
        {
          "indexed": false,
          "internalType": "uint256",
          "name": "_id",
          "type": "uint256"
        },
        {
          "indexed": false,
          "internalType": "uint256",
          "name": "_value",
          "type": "uint256"
        }
      ],
      "name": "TransferSingle",
      "type": "event"
    },
    {
      "anonymous": false,
      "inputs": [
        {
          "indexed": false,
          "internalType": "string",
          "name": "_value",
          "type": "string"
        },
        {
          "indexed": true,
          "internalType": "uint256",
          "name": "_id",
          "type": "uint256"
        }
      ],
      "name": "URI",
      "type": "event"
    },
    {
      "constant": true,
      "inputs": [
        {
          "internalType": "address",
          "name": "addr",
          "type": "address"
        }
      ],
      "name": "isLockedAddress",
      "outputs": [
        {
          "internalType": "bool",
          "name": "",
          "type": "bool"
        }
      ],
      "payable": false,
      "stateMutability": "view",
      "type": "function"
    },
    {
      "constant": true,
      "inputs": [
        {
          "internalType": "uint256",
          "name": "id",
          "type": "uint256"
        }
      ],
      "name": "isLockedToken",
      "outputs": [
        {
          "internalType": "bool",
          "name": "",
          "type": "bool"
        }
      ],
      "payable": false,
      "stateMutability": "view",
      "type": "function"
    },
    {
      "constant": false,
      "inputs": [
        {
          "internalType": "address",
          "name": "addr",
          "type": "address"
        }
      ],
      "name": "lockAddress",
      "outputs": [],
      "payable": false,
      "stateMutability": "nonpayable",
      "type": "function"
    },
    {
      "constant": false,
      "inputs": [
        {
          "internalType": "uint256",
          "name": "id",
          "type": "uint256"
        }
      ],
      "name": "lockToken",
      "outputs": [],
      "payable": false,
      "stateMutability": "nonpayable",
      "type": "function"
    },
    {
      "constant": true,
      "inputs": [],
      "name": "owner",
      "outputs": [
        {
          "internalType": "address",
          "name": "",
          "type": "address"
        }
      ],
      "payable": false,
      "stateMutability": "view",
      "type": "function"
    },
    {
      "constant": false,
      "inputs": [
        {
          "internalType": "address",
          "name": "newOwner",
          "type": "address"
        }
      ],
      "name": "transferOwnership",
      "outputs": [],
      "payable": false,
      "stateMutability": "nonpayable",
      "type": "function"
    },
    {
      "constant": false,
      "inputs": [
        {
          "internalType": "address",
          "name": "addr",
          "type": "address"
        }
      ],
      "name": "unlockAddress",
      "outputs": [],
      "payable": false,
      "stateMutability": "nonpayable",
      "type": "function"
    },
    {
      "constant": false,
      "inputs": [
        {
          "internalType": "uint256",
          "name": "id",
          "type": "uint256"
        }
      ],
      "name": "unlockToken",
      "outputs": [],
      "payable": false,
      "stateMutability": "nonpayable",
      "type": "function"
    },
    {
      "constant": true,
      "inputs": [
        {
          "internalType": "bytes4",
          "name": "_interfaceID",
          "type": "bytes4"
        }
      ],
      "name": "supportsInterface",
      "outputs": [
        {
          "internalType": "bool",
          "name": "",
          "type": "bool"
        }
      ],
      "payable": false,
      "stateMutability": "view",
      "type": "function"
    },
    {
      "constant": true,
      "inputs": [
        {
          "internalType": "address",
          "name": "account",
          "type": "address"
        },
        {
          "internalType": "uint256",
          "name": "id",
          "type": "uint256"
        }
      ],
      "name": "balanceOf",
      "outputs": [
        {
          "internalType": "uint256",
          "name": "",
          "type": "uint256"
        }
      ],
      "payable": false,
      "stateMutability": "view",
      "type": "function"
    },
    {
      "constant": true,
      "inputs": [
        {
          "internalType": "address[]",
          "name": "accounts",
          "type": "address[]"
        },
        {
          "internalType": "uint256[]",
          "name": "ids",
          "type": "uint256[]"
        }
      ],
      "name": "balanceOfBatch",
      "outputs": [
        {
          "internalType": "uint256[]",
          "name": "",
          "type": "uint256[]"
        }
      ],
      "payable": false,
      "stateMutability": "view",
      "type": "function"
    },
    {
      "constant": false,
      "inputs": [
        {
          "internalType": "address",
          "name": "operator",
          "type": "address"
        },
        {
          "internalType": "bool",
          "name": "approved",
          "type": "bool"
        }
      ],
      "name": "setApprovalForAll",
      "outputs": [],
      "payable": false,
      "stateMutability": "nonpayable",
      "type": "function"
    },
    {
      "constant": true,
      "inputs": [
        {
          "internalType": "address",
          "name": "account",
          "type": "address"
        },
        {
          "internalType": "address",
          "name": "operator",
          "type": "address"
        }
      ],
      "name": "isApprovedForAll",
      "outputs": [
        {
          "internalType": "bool",
          "name": "",
          "type": "bool"
        }
      ],
      "payable": false,
      "stateMutability": "view",
      "type": "function"
    },
    {
      "constant": false,
      "inputs": [
        {
          "internalType": "address",
          "name": "from",
          "type": "address"
        },
        {
          "internalType": "address",
          "name": "to",
          "type": "address"
        },
        {
          "internalType": "uint256",
          "name": "id",
          "type": "uint256"
        },
        {
          "internalType": "uint256",
          "name": "value",
          "type": "uint256"
        },
        {
          "internalType": "bytes",
          "name": "data",
          "type": "bytes"
        }
      ],
      "name": "safeTransferFrom",
      "outputs": [],
      "payable": false,
      "stateMutability": "nonpayable",
      "type": "function"
    },
    {
      "constant": false,
      "inputs": [
        {
          "internalType": "address",
          "name": "from",
          "type": "address"
        },
        {
          "internalType": "address",
          "name": "to",
          "type": "address"
        },
        {
          "internalType": "uint256[]",
          "name": "ids",
          "type": "uint256[]"
        },
        {
          "internalType": "uint256[]",
          "name": "values",
          "type": "uint256[]"
        },
        {
          "internalType": "bytes",
          "name": "data",
          "type": "bytes"
        }
      ],
      "name": "safeBatchTransferFrom",
      "outputs": [],
      "payable": false,
      "stateMutability": "nonpayable",
      "type": "function"
    },
    {
      "constant": true,
      "inputs": [
        {
          "internalType": "address",
          "name": "account",
          "type": "address"
        },
        {
          "internalType": "uint256",
          "name": "id",
          "type": "uint256"
        }
      ],
      "name": "birthdayOf",
      "outputs": [
        {
          "internalType": "uint256",
          "name": "",
          "type": "uint256"
        }
      ],
      "payable": false,
      "stateMutability": "view",
      "type": "function"
    },
    {
      "constant": true,
      "inputs": [
        {
          "internalType": "address",
          "name": "account",
          "type": "address"
        }
      ],
      "name": "tokensByAddress",
      "outputs": [
        {
          "internalType": "string",
          "name": "result",
          "type": "string"
        }
      ],
      "payable": false,
      "stateMutability": "view",
      "type": "function"
    }
  ],
  "bytecode": "0x608060405262000015336200001b60201b60201c565b62000161565b600073ffffffffffffffffffffffffffffffffffffffff168173ffffffffffffffffffffffffffffffffffffffff161415620000a3576040517f08c379a00000000000000000000000000000000000000000000000000000000081526004018080602001828103825260268152602001806200324f6026913960400191505060405180910390fd5b8073ffffffffffffffffffffffffffffffffffffffff166000809054906101000a900473ffffffffffffffffffffffffffffffffffffffff1673ffffffffffffffffffffffffffffffffffffffff167f8be0079c531659141344cd1fd0a4f28419497f9722a3daafe3b4186f6b6457e060405160405180910390a3806000806101000a81548173ffffffffffffffffffffffffffffffffffffffff021916908373ffffffffffffffffffffffffffffffffffffffff16021790555050565b6130de80620001716000396000f3fe608060405234801561001057600080fd5b506004361061010a5760003560e01c8063b7eb5e0a116100a2578063dd2e0ac011610071578063dd2e0ac014610789578063e1c95f8a146107b7578063e985e9c514610819578063f242432a14610895578063f2fde38b146109625761010a565b8063b7eb5e0a146105e6578063bba75c831461062a578063cba54e6014610670578063d6bc5942146106cc5761010a565b80634e1273f4116100de5780634e1273f41461037d57806380f203631461051e5780638da5cb5b1461054c578063a22cb465146105965761010a565b8062fdd58e1461010f57806301ffc9a7146101715780632eb2c2d6146101d657806334a90d0214610339575b600080fd5b61015b6004803603604081101561012557600080fd5b81019080803573ffffffffffffffffffffffffffffffffffffffff169060200190929190803590602001909291905050506109a6565b6040518082815260200191505060405180910390f35b6101bc6004803603602081101561018757600080fd5b8101908080357bffffffffffffffffffffffffffffffffffffffffffffffffffffffff19169060200190929190505050610a86565b604051808215151515815260200191505060405180910390f35b610337600480360360a08110156101ec57600080fd5b81019080803573ffffffffffffffffffffffffffffffffffffffff169060200190929190803573ffffffffffffffffffffffffffffffffffffffff1690602001909291908035906020019064010000000081111561024957600080fd5b82018360208201111561025b57600080fd5b8035906020019184602083028401116401000000008311171561027d57600080fd5b90919293919293908035906020019064010000000081111561029e57600080fd5b8201836020820111156102b057600080fd5b803590602001918460208302840111640100000000831117156102d257600080fd5b9091929391929390803590602001906401000000008111156102f357600080fd5b82018360208201111561030557600080fd5b8035906020019184600183028401116401000000008311171561032757600080fd5b9091929391929390505050610b37565b005b61037b6004803603602081101561034f57600080fd5b81019080803573ffffffffffffffffffffffffffffffffffffffff169060200190929190505050610ec4565b005b6104c76004803603604081101561039357600080fd5b81019080803590602001906401000000008111156103b057600080fd5b8201836020820111156103c257600080fd5b803590602001918460208302840111640100000000831117156103e457600080fd5b919080806020026020016040519081016040528093929190818152602001838360200280828437600081840152601f19601f8201169050808301925050505050505091929192908035906020019064010000000081111561044457600080fd5b82018360208201111561045657600080fd5b8035906020019184602083028401116401000000008311171561047857600080fd5b919080806020026020016040519081016040528093929190818152602001838360200280828437600081840152601f19601f820116905080830192505050505050509192919290505050610f99565b6040518080602001828103825283818151815260200191508051906020019060200280838360005b8381101561050a5780820151818401526020810190506104ef565b505050509050019250505060405180910390f35b61054a6004803603602081101561053457600080fd5b8101908080359060200190929190505050611177565b005b61055461121f565b604051808273ffffffffffffffffffffffffffffffffffffffff1673ffffffffffffffffffffffffffffffffffffffff16815260200191505060405180910390f35b6105e4600480360360408110156105ac57600080fd5b81019080803573ffffffffffffffffffffffffffffffffffffffff169060200190929190803515159060200190929190505050611248565b005b610628600480360360208110156105fc57600080fd5b81019080803573ffffffffffffffffffffffffffffffffffffffff1690602001909291905050506113ce565b005b6106566004803603602081101561064057600080fd5b81019080803590602001909291905050506114a3565b604051808215151515815260200191505060405180910390f35b6106b26004803603602081101561068657600080fd5b81019080803573ffffffffffffffffffffffffffffffffffffffff1690602001909291905050506114b5565b604051808215151515815260200191505060405180910390f35b61070e600480360360208110156106e257600080fd5b81019080803573ffffffffffffffffffffffffffffffffffffffff1690602001909291905050506114c7565b6040518080602001828103825283818151815260200191508051906020019080838360005b8381101561074e578082015181840152602081019050610733565b50505050905090810190601f16801561077b5780820380516001836020036101000a031916815260200191505b509250505060405180910390f35b6107b56004803603602081101561079f57600080fd5b81019080803590602001909291905050506116e6565b005b610803600480360360408110156107cd57600080fd5b81019080803573ffffffffffffffffffffffffffffffffffffffff1690602001909291908035906020019092919050505061178f565b6040518082815260200191505060405180910390f35b61087b6004803603604081101561082f57600080fd5b81019080803573ffffffffffffffffffffffffffffffffffffffff169060200190929190803573ffffffffffffffffffffffffffffffffffffffff16906020019092919050505061186f565b604051808215151515815260200191505060405180910390f35b610960600480360360a08110156108ab57600080fd5b81019080803573ffffffffffffffffffffffffffffffffffffffff169060200190929190803573ffffffffffffffffffffffffffffffffffffffff16906020019092919080359060200190929190803590602001909291908035906020019064010000000081111561091c57600080fd5b82018360208201111561092e57600080fd5b8035906020019184600183028401116401000000008311171561095057600080fd5b9091929391929390505050611903565b005b6109a46004803603602081101561097857600080fd5b81019080803573ffffffffffffffffffffffffffffffffffffffff169060200190929190505050611b0f565b005b60008073ffffffffffffffffffffffffffffffffffffffff168373ffffffffffffffffffffffffffffffffffffffff161415610a2d576040517f08c379a000000000000000000000000000000000000000000000000000000000815260040180806020018281038252602b815260200180612e8a602b913960400191505060405180910390fd5b6003600083815260200190815260200160002060008473ffffffffffffffffffffffffffffffffffffffff1673ffffffffffffffffffffffffffffffffffffffff16815260200190815260200160002054905092915050565b60006301ffc9a760e01b7bffffffffffffffffffffffffffffffffffffffffffffffffffffffff1916827bffffffffffffffffffffffffffffffffffffffffffffffffffffffff19161480610b1f575063d9b67a2660e01b7bffffffffffffffffffffffffffffffffffffffffffffffffffffffff1916827bffffffffffffffffffffffffffffffffffffffffffffffffffffffff1916145b15610b2d5760019050610b32565b600090505b919050565b838390508686905014610b95576040517f08c379a000000000000000000000000000000000000000000000000000000000815260040180806020018281038252602e81526020018061304b602e913960400191505060405180910390fd5b600073ffffffffffffffffffffffffffffffffffffffff168773ffffffffffffffffffffffffffffffffffffffff161415610c1b576040517f08c379a0000000000000000000000000000000000000000000000000000000008152600401808060200182810382526028815260200180612edb6028913960400191505060405180910390fd5b3373ffffffffffffffffffffffffffffffffffffffff168873ffffffffffffffffffffffffffffffffffffffff161480610c62575060011515610c5e893361186f565b1515145b610cb7576040517f08c379a00000000000000000000000000000000000000000000000000000000081526004018080602001828103825260378152602001806130146037913960400191505060405180910390fd5b60008090505b86869050811015610d0357610cf88989898985818110610cd957fe5b90506020020135888886818110610cec57fe5b90506020020135611b95565b806001019050610cbd565b508673ffffffffffffffffffffffffffffffffffffffff168873ffffffffffffffffffffffffffffffffffffffff163373ffffffffffffffffffffffffffffffffffffffff167f4a39dc06d4c0dbc64b70af90fd698a233a518aa5d07e595d983b8c0526c8f7fb898989896040518080602001806020018381038352878782818152602001925060200280828437600081840152601f19601f8201169050808301925050508381038252858582818152602001925060200280828437600081840152601f19601f820116905080830192505050965050505050505060405180910390a4610eba338989898980806020026020016040519081016040528093929190818152602001838360200280828437600081840152601f19601f82011690508083019250505050505050888880806020026020016040519081016040528093929190818152602001838360200280828437600081840152601f19601f8201169050808301925050505050505087878080601f016020809104026020016040519081016040528093929190818152602001838380828437600081840152601f19601f82011690508083019250505050505050612014565b5050505050505050565b610ecc6122e3565b610f3e576040517f08c379a00000000000000000000000000000000000000000000000000000000081526004018080602001828103825260208152602001807f4f776e61626c653a2063616c6c6572206973206e6f7420746865206f776e657281525060200191505060405180910390fd5b6001600260008373ffffffffffffffffffffffffffffffffffffffff1673ffffffffffffffffffffffffffffffffffffffff16815260200190815260200160002060006101000a81548160ff02191690831515021790555050565b60608151835114610ff5576040517f08c379a0000000000000000000000000000000000000000000000000000000008152600401808060200182810382526030815260200180612f2f6030913960400191505060405180910390fd5b606083516040519080825280602002602001820160405280156110275781602001602082028038833980820191505090505b50905060008090505b845181101561116c57600073ffffffffffffffffffffffffffffffffffffffff1685828151811061105d57fe5b602002602001015173ffffffffffffffffffffffffffffffffffffffff1614156110d2576040517f08c379a0000000000000000000000000000000000000000000000000000000008152600401808060200182810382526034815260200180612f956034913960400191505060405180910390fd5b600360008583815181106110e257fe5b60200260200101518152602001908152602001600020600086838151811061110657fe5b602002602001015173ffffffffffffffffffffffffffffffffffffffff1673ffffffffffffffffffffffffffffffffffffffff1681526020019081526020016000205482828151811061115557fe5b602002602001018181525050806001019050611030565b508091505092915050565b61117f6122e3565b6111f1576040517f08c379a00000000000000000000000000000000000000000000000000000000081526004018080602001828103825260208152602001807f4f776e61626c653a2063616c6c6572206973206e6f7420746865206f776e657281525060200191505060405180910390fd5b600180600083815260200190815260200160002060006101000a81548160ff02191690831515021790555050565b60008060009054906101000a900473ffffffffffffffffffffffffffffffffffffffff16905090565b8173ffffffffffffffffffffffffffffffffffffffff163373ffffffffffffffffffffffffffffffffffffffff1614156112cd576040517f08c379a000000000000000000000000000000000000000000000000000000000815260040180806020018281038252602c815260200180612f03602c913960400191505060405180910390fd5b80600660003373ffffffffffffffffffffffffffffffffffffffff1673ffffffffffffffffffffffffffffffffffffffff16815260200190815260200160002060008473ffffffffffffffffffffffffffffffffffffffff1673ffffffffffffffffffffffffffffffffffffffff16815260200190815260200160002060006101000a81548160ff0219169083151502179055508173ffffffffffffffffffffffffffffffffffffffff163373ffffffffffffffffffffffffffffffffffffffff167f17307eab39ab6107e8899845ad3d59bd9653f200f220920489ca2b5937696c3183604051808215151515815260200191505060405180910390a35050565b6113d66122e3565b611448576040517f08c379a00000000000000000000000000000000000000000000000000000000081526004018080602001828103825260208152602001807f4f776e61626c653a2063616c6c6572206973206e6f7420746865206f776e657281525060200191505060405180910390fd5b6000600260008373ffffffffffffffffffffffffffffffffffffffff1673ffffffffffffffffffffffffffffffffffffffff16815260200190815260200160002060006101000a81548160ff02191690831515021790555050565b60006114ae8261233a565b9050919050565b60006114c082612364565b9050919050565b6060600073ffffffffffffffffffffffffffffffffffffffff168273ffffffffffffffffffffffffffffffffffffffff16141561154f576040517f08c379a000000000000000000000000000000000000000000000000000000000815260040180806020018281038252602b815260200180612e8a602b913960400191505060405180910390fd5b60008090505b600560008473ffffffffffffffffffffffffffffffffffffffff1673ffffffffffffffffffffffffffffffffffffffff168152602001908152602001600020805490508110156116dd576000600560008573ffffffffffffffffffffffffffffffffffffffff1673ffffffffffffffffffffffffffffffffffffffff16815260200190815260200160002082815481106115eb57fe5b9060005260206000200154905060006003600083815260200190815260200160002060008673ffffffffffffffffffffffffffffffffffffffff1673ffffffffffffffffffffffffffffffffffffffff1681526020019081526020016000205411156116cf57606061165c826123ba565b90506000845111156116c95761167281856124a9565b6116c4576116b5846040518060400160405280600181526020017f200000000000000000000000000000000000000000000000000000000000000081525061259b565b93506116c1848261259b565b93505b6116cd565b8093505b505b508080600101915050611555565b50809050919050565b6116ee6122e3565b611760576040517f08c379a00000000000000000000000000000000000000000000000000000000081526004018080602001828103825260208152602001807f4f776e61626c653a2063616c6c6572206973206e6f7420746865206f776e657281525060200191505060405180910390fd5b60006001600083815260200190815260200160002060006101000a81548160ff02191690831515021790555050565b60008073ffffffffffffffffffffffffffffffffffffffff168373ffffffffffffffffffffffffffffffffffffffff161415611816576040517f08c379a000000000000000000000000000000000000000000000000000000000815260040180806020018281038252602b815260200180612e8a602b913960400191505060405180910390fd5b6004600083815260200190815260200160002060008473ffffffffffffffffffffffffffffffffffffffff1673ffffffffffffffffffffffffffffffffffffffff16815260200190815260200160002054905092915050565b6000600660008473ffffffffffffffffffffffffffffffffffffffff1673ffffffffffffffffffffffffffffffffffffffff16815260200190815260200160002060008373ffffffffffffffffffffffffffffffffffffffff1673ffffffffffffffffffffffffffffffffffffffff16815260200190815260200160002060009054906101000a900460ff16905092915050565b600073ffffffffffffffffffffffffffffffffffffffff168573ffffffffffffffffffffffffffffffffffffffff161415611989576040517f08c379a0000000000000000000000000000000000000000000000000000000008152600401808060200182810382526028815260200180612edb6028913960400191505060405180910390fd5b3373ffffffffffffffffffffffffffffffffffffffff168673ffffffffffffffffffffffffffffffffffffffff1614806119d05750600115156119cc873361186f565b1515145b611a25576040517f08c379a00000000000000000000000000000000000000000000000000000000081526004018080602001828103825260378152602001806130146037913960400191505060405180910390fd5b611a3186868686611b95565b8473ffffffffffffffffffffffffffffffffffffffff168673ffffffffffffffffffffffffffffffffffffffff163373ffffffffffffffffffffffffffffffffffffffff167fc3d58168c5ae7397731d063d5bbf3d657854427343f4c083240f7aacaa2d0f628787604051808381526020018281526020019250505060405180910390a4611b07338787878787878080601f016020809104026020016040519081016040528093929190818152602001838380828437600081840152601f19601f820116905080830192505050505050506126e6565b505050505050565b611b176122e3565b611b89576040517f08c379a00000000000000000000000000000000000000000000000000000000081526004018080602001828103825260208152602001807f4f776e61626c653a2063616c6c6572206973206e6f7420746865206f776e657281525060200191505060405180910390fd5b611b9281612933565b50565b611ba184848484612a77565b15611c14576040517f08c379a00000000000000000000000000000000000000000000000000000000081526004018080602001828103825260068152602001807f4c6f636b6564000000000000000000000000000000000000000000000000000081525060200191505060405180910390fd5b611c91816040518060600160405280602a8152602001612fc9602a91396003600086815260200190815260200160002060008873ffffffffffffffffffffffffffffffffffffffff1673ffffffffffffffffffffffffffffffffffffffff16815260200190815260200160002054612ab79092919063ffffffff16565b6003600084815260200190815260200160002060008673ffffffffffffffffffffffffffffffffffffffff1673ffffffffffffffffffffffffffffffffffffffff168152602001908152602001600020819055506000611d4a826003600086815260200190815260200160002060008773ffffffffffffffffffffffffffffffffffffffff1673ffffffffffffffffffffffffffffffffffffffff16815260200190815260200160002054612b7790919063ffffffff16565b905060006003600085815260200190815260200160002060008673ffffffffffffffffffffffffffffffffffffffff1673ffffffffffffffffffffffffffffffffffffffff168152602001908152602001600020541415611e6857600560008573ffffffffffffffffffffffffffffffffffffffff1673ffffffffffffffffffffffffffffffffffffffff168152602001908152602001600020839080600181540180825580915050906001820390600052602060002001600090919290919091505550436004600085815260200190815260200160002060008673ffffffffffffffffffffffffffffffffffffffff1673ffffffffffffffffffffffffffffffffffffffff16815260200190815260200160002081905550611fb8565b6000611f1d6004600086815260200190815260200160002060008773ffffffffffffffffffffffffffffffffffffffff1673ffffffffffffffffffffffffffffffffffffffff168152602001908152602001600020546003600087815260200190815260200160002060008873ffffffffffffffffffffffffffffffffffffffff1673ffffffffffffffffffffffffffffffffffffffff16815260200190815260200160002054612bff90919063ffffffff16565b90506000611f344385612bff90919063ffffffff16565b90506000611f4b8284612b7790919063ffffffff16565b9050611f608482612c8590919063ffffffff16565b6004600088815260200190815260200160002060008973ffffffffffffffffffffffffffffffffffffffff1673ffffffffffffffffffffffffffffffffffffffff168152602001908152602001600020819055505050505b806003600085815260200190815260200160002060008673ffffffffffffffffffffffffffffffffffffffff1673ffffffffffffffffffffffffffffffffffffffff168152602001908152602001600020819055505050505050565b6120338473ffffffffffffffffffffffffffffffffffffffff16612ccf565b156122db578373ffffffffffffffffffffffffffffffffffffffff1663bc197c81905060e01b7bffffffffffffffffffffffffffffffffffffffffffffffffffffffff19168473ffffffffffffffffffffffffffffffffffffffff1663bc197c8188888787876040518663ffffffff1660e01b8152600401808673ffffffffffffffffffffffffffffffffffffffff1673ffffffffffffffffffffffffffffffffffffffff1681526020018573ffffffffffffffffffffffffffffffffffffffff1673ffffffffffffffffffffffffffffffffffffffff168152602001806020018060200180602001848103845287818151815260200191508051906020019060200280838360005b8381101561215757808201518184015260208101905061213c565b50505050905001848103835286818151815260200191508051906020019060200280838360005b8381101561219957808201518184015260208101905061217e565b50505050905001848103825285818151815260200191508051906020019080838360005b838110156121d85780820151818401526020810190506121bd565b50505050905090810190601f1680156122055780820380516001836020036101000a031916815260200191505b5098505050505050505050602060405180830381600087803b15801561222a57600080fd5b505af115801561223e573d6000803e3d6000fd5b505050506040513d602081101561225457600080fd5b81019080805190602001909291905050507bffffffffffffffffffffffffffffffffffffffffffffffffffffffff1916146122da576040517f08c379a0000000000000000000000000000000000000000000000000000000008152600401808060200182810382526036815260200180612f5f6036913960400191505060405180910390fd5b5b505050505050565b60008060009054906101000a900473ffffffffffffffffffffffffffffffffffffffff1673ffffffffffffffffffffffffffffffffffffffff163373ffffffffffffffffffffffffffffffffffffffff1614905090565b60006001600083815260200190815260200160002060009054906101000a900460ff169050919050565b6000600260008373ffffffffffffffffffffffffffffffffffffffff1673ffffffffffffffffffffffffffffffffffffffff16815260200190815260200160002060009054906101000a900460ff169050919050565b6060600080905060008390505b600081146123e9578180600101925050601081816123e157fe5b0490506123c7565b6060826040519080825280601f01601f19166020018201604052801561241e5781602001600182028038833980820191505090505b50905060008090505b8381101561249d576010868161243957fe5b06925061244583612d1a565b826001838703038151811061245657fe5b60200101907effffffffffffffffffffffffffffffffffffffffffffffffffffffffffffff1916908160001a9053506010868161248f57fe5b049550806001019050612427565b50809350505050919050565b60006060839050606083905060008090505b825182510381101561258d5760006001905060008090505b845181101561256b578481815181106124e857fe5b602001015160f81c60f81b7effffffffffffffffffffffffffffffffffffffffffffffffffffffffffffff1916848285018151811061252357fe5b602001015160f81c60f81b7effffffffffffffffffffffffffffffffffffffffffffffffffffffffffffff19161461255e576000915061256b565b80806001019150506124d3565b50801561257f576001945050505050612595565b5080806001019150506124bb565b506000925050505b92915050565b6060808390506060839050606081518351016040519080825280601f01601f1916602001820160405280156125df5781602001600182028038833980820191505090505b509050606081905060008090506000809050600090505b85518110156126645785818151811061260b57fe5b602001015160f81c60f81b83838060010194508151811061262857fe5b60200101907effffffffffffffffffffffffffffffffffffffffffffffffffffffffffffff1916908160001a90535080806001019150506125f6565b600090505b84518110156126d75784818151811061267e57fe5b602001015160f81c60f81b83838060010194508151811061269b57fe5b60200101907effffffffffffffffffffffffffffffffffffffffffffffffffffffffffffff1916908160001a9053508080600101915050612669565b82965050505050505092915050565b6127058473ffffffffffffffffffffffffffffffffffffffff16612ccf565b1561292b578373ffffffffffffffffffffffffffffffffffffffff1663f23a6e61905060e01b7bffffffffffffffffffffffffffffffffffffffffffffffffffffffff19168473ffffffffffffffffffffffffffffffffffffffff1663f23a6e6188888787876040518663ffffffff1660e01b8152600401808673ffffffffffffffffffffffffffffffffffffffff1673ffffffffffffffffffffffffffffffffffffffff1681526020018573ffffffffffffffffffffffffffffffffffffffff1673ffffffffffffffffffffffffffffffffffffffff16815260200184815260200183815260200180602001828103825283818151815260200191508051906020019080838360005b8381101561282a57808201518184015260208101905061280f565b50505050905090810190601f1680156128575780820380516001836020036101000a031916815260200191505b509650505050505050602060405180830381600087803b15801561287a57600080fd5b505af115801561288e573d6000803e3d6000fd5b505050506040513d60208110156128a457600080fd5b81019080805190602001909291905050507bffffffffffffffffffffffffffffffffffffffffffffffffffffffff19161461292a576040517f08c379a00000000000000000000000000000000000000000000000000000000081526004018080602001828103825260318152602001806130796031913960400191505060405180910390fd5b5b505050505050565b600073ffffffffffffffffffffffffffffffffffffffff168173ffffffffffffffffffffffffffffffffffffffff1614156129b9576040517f08c379a0000000000000000000000000000000000000000000000000000000008152600401808060200182810382526026815260200180612eb56026913960400191505060405180910390fd5b8073ffffffffffffffffffffffffffffffffffffffff166000809054906101000a900473ffffffffffffffffffffffffffffffffffffffff1673ffffffffffffffffffffffffffffffffffffffff167f8be0079c531659141344cd1fd0a4f28419497f9722a3daafe3b4186f6b6457e060405160405180910390a3806000806101000a81548173ffffffffffffffffffffffffffffffffffffffff021916908373ffffffffffffffffffffffffffffffffffffffff16021790555050565b6000612a828361233a565b80612a925750612a9185612364565b5b80612aa25750612aa184612364565b5b80612aad5750600082145b9050949350505050565b6000838311158290612b64576040517f08c379a00000000000000000000000000000000000000000000000000000000081526004018080602001828103825283818151815260200191508051906020019080838360005b83811015612b29578082015181840152602081019050612b0e565b50505050905090810190601f168015612b565780820380516001836020036101000a031916815260200191505b509250505060405180910390fd5b5060008385039050809150509392505050565b600080828401905083811015612bf5576040517f08c379a000000000000000000000000000000000000000000000000000000000815260040180806020018281038252601b8152602001807f536166654d6174683a206164646974696f6e206f766572666c6f77000000000081525060200191505060405180910390fd5b8091505092915050565b600080831415612c125760009050612c7f565b6000828402905082848281612c2357fe5b0414612c7a576040517f08c379a0000000000000000000000000000000000000000000000000000000008152600401808060200182810382526021815260200180612ff36021913960400191505060405180910390fd5b809150505b92915050565b6000612cc783836040518060400160405280601a81526020017f536166654d6174683a206469766973696f6e206279207a65726f000000000000815250612dc3565b905092915050565b60008060007fc5d2460186f7233c927e7db2dcc703c0e500b653ca82273b7bfad8045d85a47060001b9050833f91506000801b8214158015612d115750808214155b92505050919050565b60008160ff16600011158015612d34575060098260ff1611155b15612d6957817f300000000000000000000000000000000000000000000000000000000000000060f81c0160f81b9050612dbe565b8160ff16600a11158015612d815750600f8260ff1611155b15612db957600a827f610000000000000000000000000000000000000000000000000000000000000060f81c010360f81b9050612dbe565b600080fd5b919050565b60008083118290612e6f576040517f08c379a00000000000000000000000000000000000000000000000000000000081526004018080602001828103825283818151815260200191508051906020019080838360005b83811015612e34578082015181840152602081019050612e19565b50505050905090810190601f168015612e615780820380516001836020036101000a031916815260200191505b509250505060405180910390fd5b506000838581612e7b57fe5b04905080915050939250505056fe455243313135353a2062616c616e636520717565727920666f7220746865207a65726f20616464726573734f776e61626c653a206e6577206f776e657220697320746865207a65726f2061646472657373455243313135353a207461726765742061646472657373206d757374206265206e6f6e2d7a65726f455243313135353a2063616e6e6f742073657420617070726f76616c2073746174757320666f722073656c66455243313135353a206163636f756e747320616e6420494473206d75737420686176652073616d65206c656e67746873455243313135353a20676f7420756e6b6e6f776e2076616c75652066726f6d206f6e4552433131353542617463685265636569766564455243313135353a20736f6d65206164647265737320696e2062617463682062616c616e6365207175657279206973207a65726f455243313135353a20696e73756666696369656e742062616c616e636520666f72207472616e73666572536166654d6174683a206d756c7469706c69636174696f6e206f766572666c6f77455243313135353a206e656564206f70657261746f7220617070726f76616c20666f7220337264207061727479207472616e7366657273455243313135353a2049447320616e642076616c756573206d75737420686176652073616d65206c656e67746873455243313135353a20676f7420756e6b6e6f776e2076616c75652066726f6d206f6e455243313135355265636569766564a265627a7a723158202eb0fb43f06ecb7e60b02561cb61e894c478fed5489376cda0d7f7e21b506a7964736f6c634300050c00324f776e61626c653a206e6577206f776e657220697320746865207a65726f2061646472657373",
  "source": "pragma solidity ^0.5.12;\n\nimport \"./IERC1155.sol\";\nimport \"./IERC1155Receiver.sol\";\nimport \"../ERC165/IERC165.sol\";\nimport \"../utils/SafeMath.sol\";\nimport \"../utils/StringUtils.sol\";\nimport \"../utils/Address.sol\";\nimport './ERC1155Lockable.sol';\n\n/**\n * @title Standard ERC1155 token\n *\n * @dev Implementation of the basic standard multi-token.\n * See https://eips.ethereum.org/EIPS/eip-1155\n * Originally based on code by Enjin: https://github.com/enjin/erc-1155\n */\ncontract ERC1155 is IERC165, IERC1155, ERC1155Lockable, StringUtils\n{\n    bytes4 constant private INTERFACE_SIGNATURE_ERC165 = 0x01ffc9a7;\n    bytes4 constant private INTERFACE_SIGNATURE_ERC1155 = 0xd9b67a26;\n\n    using SafeMath for uint256;\n    using Address for address;\n\n    // Mapping from token ID to account balances\n    mapping (uint256 => mapping(address => uint256)) _balances;\n\n    // Mapping from token ID to account age\n    mapping (uint256 => mapping(address => uint256)) _birthdays;\n\n    // For each address a list of token IDs. Can contains IDs in double and with zero balance.\n    mapping (address => uint256[]) internal _tokensByAddress;\n\n    // Mapping from account to operator approvals\n    mapping (address => mapping(address => bool)) private _operatorApprovals;\n\n    /**\n     * @notice Query if a contract implements an interface\n     * @param _interfaceID  The interface identifier, as specified in ERC-165\n     * @return `true` if the contract implements `_interfaceID` and\n     */\n    function supportsInterface(bytes4 _interfaceID) external view returns (bool) {\n      if (_interfaceID == INTERFACE_SIGNATURE_ERC165 ||\n          _interfaceID == INTERFACE_SIGNATURE_ERC1155) {\n        return true;\n      }\n      return false;\n    }\n\n    /**\n        @dev Get the specified address' balance for token with specified ID.\n\n        Attempting to query the zero account for a balance will result in a revert.\n\n        @param account The address of the token holder\n        @param id ID of the token\n        @return The account's balance of the token type requested\n     */\n    function balanceOf(address account, uint256 id) public view returns (uint256) {\n        require(account != address(0), \"ERC1155: balance query for the zero address\");\n        return _balances[id][account];\n    }\n\n    /**\n        @dev Get the balance of multiple account/token pairs.\n\n        If any of the query accounts is the zero account, this query will revert.\n\n        @param accounts The addresses of the token holders\n        @param ids IDs of the tokens\n        @return Balances for each account and token id pair\n     */\n    function balanceOfBatch(\n        address[] memory accounts,\n        uint256[] memory ids\n    )\n        public\n        view\n        returns (uint256[] memory)\n    {\n        require(accounts.length == ids.length, \"ERC1155: accounts and IDs must have same lengths\");\n\n        uint256[] memory batchBalances = new uint256[](accounts.length);\n\n        for (uint256 i = 0; i < accounts.length; ++i) {\n            require(accounts[i] != address(0), \"ERC1155: some address in batch balance query is zero\");\n            batchBalances[i] = _balances[ids[i]][accounts[i]];\n        }\n\n        return batchBalances;\n    }\n\n    /**\n     * @dev Sets or unsets the approval of a given operator.\n     *\n     * An operator is allowed to transfer all tokens of the sender on their behalf.\n     *\n     * Because an account already has operator privileges for itself, this function will revert\n     * if the account attempts to set the approval status for itself.\n     *\n     * @param operator address to set the approval\n     * @param approved representing the status of the approval to be set\n     */\n    function setApprovalForAll(address operator, bool approved) external {\n        require(msg.sender != operator, \"ERC1155: cannot set approval status for self\");\n        _operatorApprovals[msg.sender][operator] = approved;\n        emit ApprovalForAll(msg.sender, operator, approved);\n    }\n\n    /**\n        @notice Queries the approval status of an operator for a given account.\n        @param account   The account of the Tokens\n        @param operator  Address of authorized operator\n        @return           True if the operator is approved, false if not\n    */\n    function isApprovedForAll(address account, address operator) public view returns (bool) {\n        return _operatorApprovals[account][operator];\n    }\n\n    /**\n        @dev Transfers `value` amount of an `id` from the `from` address to the `to` address specified.\n        Caller must be approved to manage the tokens being transferred out of the `from` account.\n        If `to` is a smart contract, will call `onERC1155Received` on `to` and act appropriately.\n        @param from Source address\n        @param to Target address\n        @param id ID of the token type\n        @param value Transfer amount\n        @param data Data forwarded to `onERC1155Received` if `to` is a contract receiver\n    */\n    function safeTransferFrom(\n        address from,\n        address to,\n        uint256 id,\n        uint256 value,\n        bytes calldata data\n    )\n        external\n    {\n        require(to != address(0), \"ERC1155: target address must be non-zero\");\n        require(\n            from == msg.sender || isApprovedForAll(from, msg.sender) == true,\n            \"ERC1155: need operator approval for 3rd party transfers\"\n        );\n\n        _moveTokens(from, to, id, value);\n\n        emit TransferSingle(msg.sender, from, to, id, value);\n\n        _doSafeTransferAcceptanceCheck(msg.sender, from, to, id, value, data);\n    }\n\n    /**\n        @dev Transfers `values` amount(s) of `ids` from the `from` address to the\n        `to` address specified. Caller must be approved to manage the tokens being\n        transferred out of the `from` account. If `to` is a smart contract, will\n        call `onERC1155BatchReceived` on `to` and act appropriately.\n        @param from Source address\n        @param to Target address\n        @param ids IDs of each token type\n        @param values Transfer amounts per token type\n        @param data Data forwarded to `onERC1155Received` if `to` is a contract receiver\n    */\n    function safeBatchTransferFrom(\n        address from,\n        address to,\n        uint256[] calldata ids,\n        uint256[] calldata values,\n        bytes calldata data\n    )\n        external\n    {\n        require(ids.length == values.length, \"ERC1155: IDs and values must have same lengths\");\n        require(to != address(0), \"ERC1155: target address must be non-zero\");\n        require(\n          from == msg.sender || isApprovedForAll(from, msg.sender) == true,\n          \"ERC1155: need operator approval for 3rd party transfers\"\n        );\n\n        for (uint256 i = 0; i < ids.length; ++i) {\n          _moveTokens(from, to, ids[i], values[i]);\n        }\n\n        emit TransferBatch(msg.sender, from, to, ids, values);\n\n        _doSafeBatchTransferAcceptanceCheck(msg.sender, from, to, ids, values, data);\n    }\n\n    function _moveTokens(address from, address to, uint256 id, uint256 value) internal {\n        require(!_isLockedMove(from, to, id, value), \"Locked\");\n\n        _balances[id][from] = _balances[id][from].sub(value, \"ERC1155: insufficient balance for transfer\");\n\n        uint256 newBalanceTo = _balances[id][to].add(value);\n\n        if (_balances[id][to] == 0) {\n          _tokensByAddress[to].push(id);\n          _birthdays[id][to] = block.number;\n        } else {\n          uint256 currentBirthday = _balances[id][to].mul(_birthdays[id][to]);\n          uint256 newBirthday = value.mul(block.number);\n          uint256 numerator = currentBirthday.add(newBirthday);\n          _birthdays[id][to] = numerator.div(newBalanceTo);\n        }\n\n        _balances[id][to] = newBalanceTo;\n    }\n\n    function birthdayOf(address account, uint256 id) public view returns (uint256) {\n        require(account != address(0), \"ERC1155: balance query for the zero address\");\n        return _birthdays[id][account];\n    }\n\n    function tokensByAddress(address account) public view returns (string memory result) {\n        require(account != address(0), \"ERC1155: balance query for the zero address\");\n\n        for (uint i = 0; i < _tokensByAddress[account].length; i++) {\n            uint256 id = _tokensByAddress[account][i];\n            if (_balances[id][account] > 0) {\n              string memory hexID = _toHexString(id);\n              if (bytes(result).length > 0) {\n                if (!_strContains(hexID, result)) {\n                  result = _strConcat(result, \" \");\n                  result = _strConcat(result, hexID);\n                }\n              } else {\n                result = hexID;\n              }\n            }\n        }\n        return result;\n    }\n\n\n\n    function _doSafeTransferAcceptanceCheck(\n        address operator,\n        address from,\n        address to,\n        uint256 id,\n        uint256 value,\n        bytes memory data\n    )\n        internal\n    {\n        if(to.isContract()) {\n            require(\n                IERC1155Receiver(to).onERC1155Received(operator, from, id, value, data) ==\n                    IERC1155Receiver(to).onERC1155Received.selector,\n                \"ERC1155: got unknown value from onERC1155Received\"\n            );\n        }\n    }\n\n    function _doSafeBatchTransferAcceptanceCheck(\n        address operator,\n        address from,\n        address to,\n        uint256[] memory ids,\n        uint256[] memory values,\n        bytes memory data\n    )\n        internal\n    {\n        if(to.isContract()) {\n            require(\n                IERC1155Receiver(to).onERC1155BatchReceived(operator, from, ids, values, data) ==\n                    IERC1155Receiver(to).onERC1155BatchReceived.selector,\n                \"ERC1155: got unknown value from onERC1155BatchReceived\"\n            );\n        }\n    }\n}\n",
  "sourcePath": "/home/ouziel/Work/StashBloxContracts/contracts/lib/ERC1155/ERC1155.sol",
  "compiler": {
    "name": "solc",
    "version": "0.5.12+commit.7709ece9.Emscripten.clang"
  },
  "schemaVersion": "3.0.16",
  "updatedAt": "2020-07-27T13:24:15.692Z",
  "devdoc": {
    "details": "Implementation of the basic standard multi-token. See https://eips.ethereum.org/EIPS/eip-1155 Originally based on code by Enjin: https://github.com/enjin/erc-1155",
    "methods": {
      "balanceOf(address,uint256)": {
        "details": "Get the specified address' balance for token with specified ID. Attempting to query the zero account for a balance will result in a revert.",
        "params": {
          "account": "The address of the token holder",
          "id": "ID of the token"
        },
        "return": "The account's balance of the token type requested"
      },
      "balanceOfBatch(address[],uint256[])": {
        "details": "Get the balance of multiple account/token pairs. If any of the query accounts is the zero account, this query will revert.",
        "params": {
          "accounts": "The addresses of the token holders",
          "ids": "IDs of the tokens"
        },
        "return": "Balances for each account and token id pair"
      },
      "isApprovedForAll(address,address)": {
        "params": {
          "account": "The account of the Tokens",
          "operator": "Address of authorized operator"
        },
        "return": "True if the operator is approved, false if not"
      },
      "owner()": {
        "details": "Returns the address of the current owner."
      },
      "safeBatchTransferFrom(address,address,uint256[],uint256[],bytes)": {
        "details": "Transfers `values` amount(s) of `ids` from the `from` address to the `to` address specified. Caller must be approved to manage the tokens being transferred out of the `from` account. If `to` is a smart contract, will call `onERC1155BatchReceived` on `to` and act appropriately.",
        "params": {
          "data": "Data forwarded to `onERC1155Received` if `to` is a contract receiver",
          "from": "Source address",
          "ids": "IDs of each token type",
          "to": "Target address",
          "values": "Transfer amounts per token type"
        }
      },
      "safeTransferFrom(address,address,uint256,uint256,bytes)": {
        "details": "Transfers `value` amount of an `id` from the `from` address to the `to` address specified. Caller must be approved to manage the tokens being transferred out of the `from` account. If `to` is a smart contract, will call `onERC1155Received` on `to` and act appropriately.",
        "params": {
          "data": "Data forwarded to `onERC1155Received` if `to` is a contract receiver",
          "from": "Source address",
          "id": "ID of the token type",
          "to": "Target address",
          "value": "Transfer amount"
        }
      },
      "setApprovalForAll(address,bool)": {
        "details": "Sets or unsets the approval of a given operator.     * An operator is allowed to transfer all tokens of the sender on their behalf.     * Because an account already has operator privileges for itself, this function will revert if the account attempts to set the approval status for itself.",
        "params": {
          "approved": "representing the status of the approval to be set",
          "operator": "address to set the approval"
        }
      },
      "supportsInterface(bytes4)": {
        "params": {
          "_interfaceID": "The interface identifier, as specified in ERC-165"
        },
        "return": "`true` if the contract implements `_interfaceID` and"
      },
      "transferOwnership(address)": {
        "details": "Transfers ownership of the contract to a new account (`newOwner`). Can only be called by the current owner."
      }
    },
    "title": "Standard ERC1155 token"
  },
  "userdoc": {
    "methods": {
      "isApprovedForAll(address,address)": {
        "notice": "Queries the approval status of an operator for a given account."
      },
      "supportsInterface(bytes4)": {
        "notice": "Query if a contract implements an interface"
      }
    }
  }
}