{
  "contractName": "ERC1155Sellable",
  "abi": [
    {
      "anonymous": false,
      "inputs": [
        {
          "indexed": true,
          "internalType": "address",
          "name": "_owner",
          "type": "address"
        },
        {
          "indexed": true,
          "internalType": "address",
          "name": "_operator",
          "type": "address"
        },
        {
          "indexed": false,
          "internalType": "bool",
          "name": "_approved",
          "type": "bool"
        }
      ],
      "name": "ApprovalForAll",
      "type": "event"
    },
    {
      "anonymous": false,
      "inputs": [
        {
          "indexed": true,
          "internalType": "uint256",
          "name": "dealId",
          "type": "uint256"
        }
      ],
      "name": "DealCancelled",
      "type": "event"
    },
    {
      "anonymous": false,
      "inputs": [
        {
          "indexed": true,
          "internalType": "uint256",
          "name": "dealId",
          "type": "uint256"
        }
      ],
      "name": "DealConfirmed",
      "type": "event"
    },
    {
      "anonymous": false,
      "inputs": [
        {
          "indexed": true,
          "internalType": "uint256",
          "name": "offerId",
          "type": "uint256"
        },
        {
          "indexed": true,
          "internalType": "uint256",
          "name": "dealId",
          "type": "uint256"
        },
        {
          "indexed": true,
          "internalType": "address",
          "name": "buyer",
          "type": "address"
        },
        {
          "indexed": false,
          "internalType": "uint256",
          "name": "amount",
          "type": "uint256"
        },
        {
          "indexed": false,
          "internalType": "uint256",
          "name": "endCancellationPeriod",
          "type": "uint256"
        }
      ],
      "name": "OfferAccepted",
      "type": "event"
    },
    {
      "anonymous": false,
      "inputs": [
        {
          "indexed": true,
          "internalType": "uint256",
          "name": "offerId",
          "type": "uint256"
        }
      ],
      "name": "OfferCancelled",
      "type": "event"
    },
    {
      "anonymous": false,
      "inputs": [
        {
          "indexed": true,
          "internalType": "uint256",
          "name": "offerId",
          "type": "uint256"
        },
        {
          "indexed": true,
          "internalType": "uint256",
          "name": "tokenId",
          "type": "uint256"
        },
        {
          "indexed": true,
          "internalType": "address",
          "name": "from",
          "type": "address"
        },
        {
          "indexed": false,
          "internalType": "uint256",
          "name": "amount",
          "type": "uint256"
        },
        {
          "indexed": false,
          "internalType": "uint256",
          "name": "priceCurrency",
          "type": "uint256"
        },
        {
          "indexed": false,
          "internalType": "uint256",
          "name": "price",
          "type": "uint256"
        }
      ],
      "name": "OfferOpened",
      "type": "event"
    },
    {
      "anonymous": false,
      "inputs": [
        {
          "indexed": true,
          "internalType": "address",
          "name": "previousOwner",
          "type": "address"
        },
        {
          "indexed": true,
          "internalType": "address",
          "name": "newOwner",
          "type": "address"
        }
      ],
      "name": "OwnershipTransferred",
      "type": "event"
    },
    {
      "anonymous": false,
      "inputs": [
        {
          "indexed": true,
          "internalType": "address",
          "name": "_operator",
          "type": "address"
        },
        {
          "indexed": true,
          "internalType": "address",
          "name": "_from",
          "type": "address"
        },
        {
          "indexed": true,
          "internalType": "address",
          "name": "_to",
          "type": "address"
        },
        {
          "indexed": false,
          "internalType": "uint256[]",
          "name": "_ids",
          "type": "uint256[]"
        },
        {
          "indexed": false,
          "internalType": "uint256[]",
          "name": "_values",
          "type": "uint256[]"
        }
      ],
      "name": "TransferBatch",
      "type": "event"
    },
    {
      "anonymous": false,
      "inputs": [
        {
          "indexed": true,
          "internalType": "address",
          "name": "_operator",
          "type": "address"
        },
        {
          "indexed": true,
          "internalType": "address",
          "name": "_from",
          "type": "address"
        },
        {
          "indexed": true,
          "internalType": "address",
          "name": "_to",
          "type": "address"
        },
        {
          "indexed": false,
          "internalType": "uint256",
          "name": "_id",
          "type": "uint256"
        },
        {
          "indexed": false,
          "internalType": "uint256",
          "name": "_value",
          "type": "uint256"
        }
      ],
      "name": "TransferSingle",
      "type": "event"
    },
    {
      "anonymous": false,
      "inputs": [
        {
          "indexed": false,
          "internalType": "string",
          "name": "_value",
          "type": "string"
        },
        {
          "indexed": true,
          "internalType": "uint256",
          "name": "_id",
          "type": "uint256"
        }
      ],
      "name": "URI",
      "type": "event"
    },
    {
      "constant": false,
      "inputs": [
        {
          "internalType": "address",
          "name": "tokenizer",
          "type": "address"
        }
      ],
      "name": "authorizeTokenizer",
      "outputs": [],
      "payable": false,
      "stateMutability": "nonpayable",
      "type": "function"
    },
    {
      "constant": true,
      "inputs": [
        {
          "internalType": "address",
          "name": "account",
          "type": "address"
        },
        {
          "internalType": "uint256",
          "name": "id",
          "type": "uint256"
        }
      ],
      "name": "balanceOf",
      "outputs": [
        {
          "internalType": "uint256",
          "name": "",
          "type": "uint256"
        }
      ],
      "payable": false,
      "stateMutability": "view",
      "type": "function"
    },
    {
      "constant": true,
      "inputs": [
        {
          "internalType": "address[]",
          "name": "accounts",
          "type": "address[]"
        },
        {
          "internalType": "uint256[]",
          "name": "ids",
          "type": "uint256[]"
        }
      ],
      "name": "balanceOfBatch",
      "outputs": [
        {
          "internalType": "uint256[]",
          "name": "",
          "type": "uint256[]"
        }
      ],
      "payable": false,
      "stateMutability": "view",
      "type": "function"
    },
    {
      "constant": false,
      "inputs": [
        {
          "internalType": "uint256[]",
          "name": "ids",
          "type": "uint256[]"
        },
        {
          "internalType": "address[]",
          "name": "recipients",
          "type": "address[]"
        },
        {
          "internalType": "uint256[]",
          "name": "values",
          "type": "uint256[]"
        }
      ],
      "name": "createTokens",
      "outputs": [],
      "payable": false,
      "stateMutability": "nonpayable",
      "type": "function"
    },
    {
      "constant": true,
      "inputs": [
        {
          "internalType": "address",
          "name": "account",
          "type": "address"
        },
        {
          "internalType": "address",
          "name": "operator",
          "type": "address"
        }
      ],
      "name": "isApprovedForAll",
      "outputs": [
        {
          "internalType": "bool",
          "name": "",
          "type": "bool"
        }
      ],
      "payable": false,
      "stateMutability": "view",
      "type": "function"
    },
    {
      "constant": true,
      "inputs": [
        {
          "internalType": "address",
          "name": "tokenizer",
          "type": "address"
        }
      ],
      "name": "isTokenizer",
      "outputs": [
        {
          "internalType": "bool",
          "name": "",
          "type": "bool"
        }
      ],
      "payable": false,
      "stateMutability": "view",
      "type": "function"
    },
    {
      "constant": true,
      "inputs": [],
      "name": "owner",
      "outputs": [
        {
          "internalType": "address",
          "name": "",
          "type": "address"
        }
      ],
      "payable": false,
      "stateMutability": "view",
      "type": "function"
    },
    {
      "constant": false,
      "inputs": [
        {
          "internalType": "address",
          "name": "tokenizer",
          "type": "address"
        }
      ],
      "name": "revokeTokenizer",
      "outputs": [],
      "payable": false,
      "stateMutability": "nonpayable",
      "type": "function"
    },
    {
      "constant": false,
      "inputs": [
        {
          "internalType": "address",
          "name": "from",
          "type": "address"
        },
        {
          "internalType": "address",
          "name": "to",
          "type": "address"
        },
        {
          "internalType": "uint256[]",
          "name": "ids",
          "type": "uint256[]"
        },
        {
          "internalType": "uint256[]",
          "name": "values",
          "type": "uint256[]"
        },
        {
          "internalType": "bytes",
          "name": "data",
          "type": "bytes"
        }
      ],
      "name": "safeBatchTransferFrom",
      "outputs": [],
      "payable": false,
      "stateMutability": "nonpayable",
      "type": "function"
    },
    {
      "constant": false,
      "inputs": [
        {
          "internalType": "address",
          "name": "from",
          "type": "address"
        },
        {
          "internalType": "address",
          "name": "to",
          "type": "address"
        },
        {
          "internalType": "uint256",
          "name": "id",
          "type": "uint256"
        },
        {
          "internalType": "uint256",
          "name": "value",
          "type": "uint256"
        },
        {
          "internalType": "bytes",
          "name": "data",
          "type": "bytes"
        }
      ],
      "name": "safeTransferFrom",
      "outputs": [],
      "payable": false,
      "stateMutability": "nonpayable",
      "type": "function"
    },
    {
      "constant": false,
      "inputs": [
        {
          "internalType": "address",
          "name": "operator",
          "type": "address"
        },
        {
          "internalType": "bool",
          "name": "approved",
          "type": "bool"
        }
      ],
      "name": "setApprovalForAll",
      "outputs": [],
      "payable": false,
      "stateMutability": "nonpayable",
      "type": "function"
    },
    {
      "constant": true,
      "inputs": [
        {
          "internalType": "bytes4",
          "name": "_interfaceID",
          "type": "bytes4"
        }
      ],
      "name": "supportsInterface",
      "outputs": [
        {
          "internalType": "bool",
          "name": "",
          "type": "bool"
        }
      ],
      "payable": false,
      "stateMutability": "view",
      "type": "function"
    },
    {
      "constant": true,
      "inputs": [
        {
          "internalType": "uint256",
          "name": "id",
          "type": "uint256"
        }
      ],
      "name": "totalSupply",
      "outputs": [
        {
          "internalType": "uint256",
          "name": "",
          "type": "uint256"
        }
      ],
      "payable": false,
      "stateMutability": "view",
      "type": "function"
    },
    {
      "constant": false,
      "inputs": [
        {
          "internalType": "address",
          "name": "newOwner",
          "type": "address"
        }
      ],
      "name": "transferOwnership",
      "outputs": [],
      "payable": false,
      "stateMutability": "nonpayable",
      "type": "function"
    },
    {
      "constant": false,
      "inputs": [
        {
          "internalType": "uint256[]",
          "name": "tokenIds",
          "type": "uint256[]"
        },
        {
          "internalType": "uint256[]",
          "name": "amounts",
          "type": "uint256[]"
        },
        {
          "internalType": "uint256[]",
          "name": "prices",
          "type": "uint256[]"
        },
        {
          "internalType": "uint256",
          "name": "priceCurrency",
          "type": "uint256"
        },
        {
          "internalType": "bool",
          "name": "acceptPartial",
          "type": "bool"
        },
        {
          "internalType": "address",
          "name": "paymentOfficer",
          "type": "address"
        },
        {
          "internalType": "address[]",
          "name": "authorizedBuyers",
          "type": "address[]"
        }
      ],
      "name": "openOffers",
      "outputs": [
        {
          "internalType": "uint256[]",
          "name": "offerIds",
          "type": "uint256[]"
        }
      ],
      "payable": false,
      "stateMutability": "nonpayable",
      "type": "function"
    },
    {
      "constant": false,
      "inputs": [
        {
          "internalType": "uint256[]",
          "name": "offerIds",
          "type": "uint256[]"
        }
      ],
      "name": "cancelOffers",
      "outputs": [],
      "payable": false,
      "stateMutability": "nonpayable",
      "type": "function"
    },
    {
      "constant": false,
      "inputs": [
        {
          "internalType": "uint256[]",
          "name": "offerIds",
          "type": "uint256[]"
        },
        {
          "internalType": "address[]",
          "name": "buyers",
          "type": "address[]"
        },
        {
          "internalType": "uint256[]",
          "name": "amounts",
          "type": "uint256[]"
        },
        {
          "internalType": "uint256[]",
          "name": "cancellationPeriods",
          "type": "uint256[]"
        }
      ],
      "name": "onOffersAccepted",
      "outputs": [
        {
          "internalType": "uint256[]",
          "name": "dealIds",
          "type": "uint256[]"
        }
      ],
      "payable": false,
      "stateMutability": "nonpayable",
      "type": "function"
    },
    {
      "constant": false,
      "inputs": [
        {
          "internalType": "uint256[]",
          "name": "dealIds",
          "type": "uint256[]"
        }
      ],
      "name": "confirmDeals",
      "outputs": [],
      "payable": false,
      "stateMutability": "nonpayable",
      "type": "function"
    },
    {
      "constant": false,
      "inputs": [
        {
          "internalType": "uint256[]",
          "name": "dealIds",
          "type": "uint256[]"
        }
      ],
      "name": "onPaymentsCancelled",
      "outputs": [],
      "payable": false,
      "stateMutability": "nonpayable",
      "type": "function"
    }
  ],
  "bytecode": "0x608060405262000015336200001b60201b60201c565b62000163565b600073ffffffffffffffffffffffffffffffffffffffff168173ffffffffffffffffffffffffffffffffffffffff161415620000a3576040517f08c379a00000000000000000000000000000000000000000000000000000000081526004018080602001828103825260268152602001806200507c6026913960400191505060405180910390fd5b8073ffffffffffffffffffffffffffffffffffffffff16600260009054906101000a900473ffffffffffffffffffffffffffffffffffffffff1673ffffffffffffffffffffffffffffffffffffffff167f8be0079c531659141344cd1fd0a4f28419497f9722a3daafe3b4186f6b6457e060405160405180910390a380600260006101000a81548173ffffffffffffffffffffffffffffffffffffffff021916908373ffffffffffffffffffffffffffffffffffffffff16021790555050565b614f0980620001736000396000f3fe608060405234801561001057600080fd5b50600436106101205760003560e01c806378e81535116100ad578063c02f303c11610071578063c02f303c14610b8f578063e5d09afe14610beb578063e985e9c514610d0e578063f242432a14610d8a578063f2fde38b14610e5757610120565b806378e81535146109f65780638870147b14610a6f5780638da5cb5b14610ab3578063a22cb46514610afd578063bd85b03914610b4d57610120565b806349342ac8116100f457806349342ac81461051c5780634ae25a861461071f5780634e1273f414610798578063713b47a1146109395780637627b732146109b257610120565b8062fdd58e1461012557806301ffc9a7146101875780632eb2c2d6146101ec5780633c0931201461034f575b600080fd5b6101716004803603604081101561013b57600080fd5b81019080803573ffffffffffffffffffffffffffffffffffffffff16906020019092919080359060200190929190505050610e9b565b6040518082815260200191505060405180910390f35b6101d26004803603602081101561019d57600080fd5b8101908080357bffffffffffffffffffffffffffffffffffffffffffffffffffffffff19169060200190929190505050610f7a565b604051808215151515815260200191505060405180910390f35b61034d600480360360a081101561020257600080fd5b81019080803573ffffffffffffffffffffffffffffffffffffffff169060200190929190803573ffffffffffffffffffffffffffffffffffffffff1690602001909291908035906020019064010000000081111561025f57600080fd5b82018360208201111561027157600080fd5b8035906020019184602083028401116401000000008311171561029357600080fd5b9091929391929390803590602001906401000000008111156102b457600080fd5b8201836020820111156102c657600080fd5b803590602001918460208302840111640100000000831117156102e857600080fd5b90919293919293908035906020019064010000000081111561030957600080fd5b82018360208201111561031b57600080fd5b8035906020019184600183028401116401000000008311171561033d57600080fd5b909192939192939050505061102b565b005b6104c56004803603608081101561036557600080fd5b810190808035906020019064010000000081111561038257600080fd5b82018360208201111561039457600080fd5b803590602001918460208302840111640100000000831117156103b657600080fd5b9091929391929390803590602001906401000000008111156103d757600080fd5b8201836020820111156103e957600080fd5b8035906020019184602083028401116401000000008311171561040b57600080fd5b90919293919293908035906020019064010000000081111561042c57600080fd5b82018360208201111561043e57600080fd5b8035906020019184602083028401116401000000008311171561046057600080fd5b90919293919293908035906020019064010000000081111561048157600080fd5b82018360208201111561049357600080fd5b803590602001918460208302840111640100000000831117156104b557600080fd5b90919293919293905050506113b8565b6040518080602001828103825283818151815260200191508051906020019060200280838360005b838110156105085780820151818401526020810190506104ed565b505050509050019250505060405180910390f35b6106c8600480360360e081101561053257600080fd5b810190808035906020019064010000000081111561054f57600080fd5b82018360208201111561056157600080fd5b8035906020019184602083028401116401000000008311171561058357600080fd5b9091929391929390803590602001906401000000008111156105a457600080fd5b8201836020820111156105b657600080fd5b803590602001918460208302840111640100000000831117156105d857600080fd5b9091929391929390803590602001906401000000008111156105f957600080fd5b82018360208201111561060b57600080fd5b8035906020019184602083028401116401000000008311171561062d57600080fd5b909192939192939080359060200190929190803515159060200190929190803573ffffffffffffffffffffffffffffffffffffffff1690602001909291908035906020019064010000000081111561068457600080fd5b82018360208201111561069657600080fd5b803590602001918460208302840111640100000000831117156106b857600080fd5b90919293919293905050506114f7565b6040518080602001828103825283818151815260200191508051906020019060200280838360005b8381101561070b5780820151818401526020810190506106f0565b505050509050019250505060405180910390f35b6107966004803603602081101561073557600080fd5b810190808035906020019064010000000081111561075257600080fd5b82018360208201111561076457600080fd5b8035906020019184602083028401116401000000008311171561078657600080fd5b9091929391929390505050611645565b005b6108e2600480360360408110156107ae57600080fd5b81019080803590602001906401000000008111156107cb57600080fd5b8201836020820111156107dd57600080fd5b803590602001918460208302840111640100000000831117156107ff57600080fd5b919080806020026020016040519081016040528093929190818152602001838360200280828437600081840152601f19601f8201169050808301925050505050505091929192908035906020019064010000000081111561085f57600080fd5b82018360208201111561087157600080fd5b8035906020019184602083028401116401000000008311171561089357600080fd5b919080806020026020016040519081016040528093929190818152602001838360200280828437600081840152601f19601f820116905080830192505050505050509192919290505050611681565b6040518080602001828103825283818151815260200191508051906020019060200280838360005b8381101561092557808201518184015260208101905061090a565b505050509050019250505060405180910390f35b6109b06004803603602081101561094f57600080fd5b810190808035906020019064010000000081111561096c57600080fd5b82018360208201111561097e57600080fd5b803590602001918460208302840111640100000000831117156109a057600080fd5b909192939192939050505061185e565b005b6109f4600480360360208110156109c857600080fd5b81019080803573ffffffffffffffffffffffffffffffffffffffff16906020019092919050505061189a565b005b610a6d60048036036020811015610a0c57600080fd5b8101908080359060200190640100000000811115610a2957600080fd5b820183602082011115610a3b57600080fd5b80359060200191846020830284011164010000000083111715610a5d57600080fd5b909192939192939050505061196f565b005b610ab160048036036020811015610a8557600080fd5b81019080803573ffffffffffffffffffffffffffffffffffffffff1690602001909291905050506119ab565b005b610abb611a80565b604051808273ffffffffffffffffffffffffffffffffffffffff1673ffffffffffffffffffffffffffffffffffffffff16815260200191505060405180910390f35b610b4b60048036036040811015610b1357600080fd5b81019080803573ffffffffffffffffffffffffffffffffffffffff169060200190929190803515159060200190929190505050611aaa565b005b610b7960048036036020811015610b6357600080fd5b8101908080359060200190929190505050611c30565b6040518082815260200191505060405180910390f35b610bd160048036036020811015610ba557600080fd5b81019080803573ffffffffffffffffffffffffffffffffffffffff169060200190929190505050611c4d565b604051808215151515815260200191505060405180910390f35b610d0c60048036036060811015610c0157600080fd5b8101908080359060200190640100000000811115610c1e57600080fd5b820183602082011115610c3057600080fd5b80359060200191846020830284011164010000000083111715610c5257600080fd5b909192939192939080359060200190640100000000811115610c7357600080fd5b820183602082011115610c8557600080fd5b80359060200191846020830284011164010000000083111715610ca757600080fd5b909192939192939080359060200190640100000000811115610cc857600080fd5b820183602082011115610cda57600080fd5b80359060200191846020830284011164010000000083111715610cfc57600080fd5b9091929391929390505050611ca3565b005b610d7060048036036040811015610d2457600080fd5b81019080803573ffffffffffffffffffffffffffffffffffffffff169060200190929190803573ffffffffffffffffffffffffffffffffffffffff16906020019092919050505061214a565b604051808215151515815260200191505060405180910390f35b610e55600480360360a0811015610da057600080fd5b81019080803573ffffffffffffffffffffffffffffffffffffffff169060200190929190803573ffffffffffffffffffffffffffffffffffffffff169060200190929190803590602001909291908035906020019092919080359060200190640100000000811115610e1157600080fd5b820183602082011115610e2357600080fd5b80359060200191846001830284011164010000000083111715610e4557600080fd5b90919293919293905050506121de565b005b610e9960048036036020811015610e6d57600080fd5b81019080803573ffffffffffffffffffffffffffffffffffffffff1690602001909291905050506123ea565b005b60008073ffffffffffffffffffffffffffffffffffffffff168373ffffffffffffffffffffffffffffffffffffffff161415610f22576040517f08c379a000000000000000000000000000000000000000000000000000000000815260040180806020018281038252602b815260200180614bb6602b913960400191505060405180910390fd5b60008083815260200190815260200160002060008473ffffffffffffffffffffffffffffffffffffffff1673ffffffffffffffffffffffffffffffffffffffff16815260200190815260200160002054905092915050565b60006301ffc9a760e01b7bffffffffffffffffffffffffffffffffffffffffffffffffffffffff1916827bffffffffffffffffffffffffffffffffffffffffffffffffffffffff19161480611013575063d9b67a2660e01b7bffffffffffffffffffffffffffffffffffffffffffffffffffffffff1916827bffffffffffffffffffffffffffffffffffffffffffffffffffffffff1916145b156110215760019050611026565b600090505b919050565b838390508686905014611089576040517f08c379a000000000000000000000000000000000000000000000000000000000815260040180806020018281038252602e815260200180614e52602e913960400191505060405180910390fd5b600073ffffffffffffffffffffffffffffffffffffffff168773ffffffffffffffffffffffffffffffffffffffff16141561110f576040517f08c379a0000000000000000000000000000000000000000000000000000000008152600401808060200182810382526028815260200180614c076028913960400191505060405180910390fd5b3373ffffffffffffffffffffffffffffffffffffffff168873ffffffffffffffffffffffffffffffffffffffff161480611156575060011515611152893361214a565b1515145b6111ab576040517f08c379a0000000000000000000000000000000000000000000000000000000008152600401808060200182810382526037815260200180614e1b6037913960400191505060405180910390fd5b60008090505b868690508110156111f7576111ec89898989858181106111cd57fe5b905060200201358888868181106111e057fe5b90506020020135612470565b8060010190506111b1565b508673ffffffffffffffffffffffffffffffffffffffff168873ffffffffffffffffffffffffffffffffffffffff163373ffffffffffffffffffffffffffffffffffffffff167f4a39dc06d4c0dbc64b70af90fd698a233a518aa5d07e595d983b8c0526c8f7fb898989896040518080602001806020018381038352878782818152602001925060200280828437600081840152601f19601f8201169050808301925050508381038252858582818152602001925060200280828437600081840152601f19601f820116905080830192505050965050505050505060405180910390a46113ae338989898980806020026020016040519081016040528093929190818152602001838360200280828437600081840152601f19601f82011690508083019250505050505050888880806020026020016040519081016040528093929190818152602001838360200280828437600081840152601f19601f8201169050808301925050505050505087878080601f016020809104026020016040519081016040528093929190818152602001838380828437600081840152601f19601f820116905080830192505050505050506125fa565b5050505050505050565b60606000898990501180156113d257508888905087879050145b80156113e357508686905085859050145b80156113f457508484905083839050145b611449576040517f08c379a0000000000000000000000000000000000000000000000000000000008152600401808060200182810382526043815260200180614dd86043913960600191505060405180910390fd5b60008090505b898990508110156114e7576114c48a8a8381811061146957fe5b9050602002013589898481811061147c57fe5b9050602002013573ffffffffffffffffffffffffffffffffffffffff168888858181106114a557fe5b905060200201358787868181106114b857fe5b905060200201356128c9565b8282815181106114d057fe5b60200260200101818152505080600101905061144f565b5080905098975050505050505050565b606060008c8c905011801561151157508b8b90508a8a9050145b801561152257508989905088889050145b611577576040517f08c379a0000000000000000000000000000000000000000000000000000000008152600401808060200182810382526043815260200180614dd86043913960600191505060405180910390fd5b60008090505b8c8c90508110156116325761160f8d8d8381811061159757fe5b90506020020135338d8d858181106115ab57fe5b905060200201358c8c868181106115be57fe5b905060200201358b8b8b8b8b80806020026020016040519081016040528093929190818152602001838360200280828437600081840152601f19601f820116905080830192505050505050506130c5565b82828151811061161b57fe5b60200260200101818152505080600101905061157d565b508090509b9a5050505050505050505050565b60008090505b8282905081101561167c5761167183838381811061166557fe5b90506020020135613675565b80600101905061164b565b505050565b606081518351146116dd576040517f08c379a0000000000000000000000000000000000000000000000000000000008152600401808060200182810382526030815260200180614c8f6030913960400191505060405180910390fd5b6060835160405190808252806020026020018201604052801561170f5781602001602082028038833980820191505090505b50905060008090505b845181101561185357600073ffffffffffffffffffffffffffffffffffffffff1685828151811061174557fe5b602002602001015173ffffffffffffffffffffffffffffffffffffffff1614156117ba576040517f08c379a0000000000000000000000000000000000000000000000000000000008152600401808060200182810382526034815260200180614d2c6034913960400191505060405180910390fd5b6000808583815181106117c957fe5b6020026020010151815260200190815260200160002060008683815181106117ed57fe5b602002602001015173ffffffffffffffffffffffffffffffffffffffff1673ffffffffffffffffffffffffffffffffffffffff1681526020019081526020016000205482828151811061183c57fe5b602002602001018181525050806001019050611718565b508091505092915050565b60008090505b828290508110156118955761188a83838381811061187e57fe5b90506020020135613a27565b806001019050611864565b505050565b6118a2613f3f565b611914576040517f08c379a00000000000000000000000000000000000000000000000000000000081526004018080602001828103825260208152602001807f4f776e61626c653a2063616c6c6572206973206e6f7420746865206f776e657281525060200191505060405180910390fd5b6001600460008373ffffffffffffffffffffffffffffffffffffffff1673ffffffffffffffffffffffffffffffffffffffff16815260200190815260200160002060006101000a81548160ff02191690831515021790555050565b60008090505b828290508110156119a65761199b83838381811061198f57fe5b90506020020135613f97565b806001019050611975565b505050565b6119b3613f3f565b611a25576040517f08c379a00000000000000000000000000000000000000000000000000000000081526004018080602001828103825260208152602001807f4f776e61626c653a2063616c6c6572206973206e6f7420746865206f776e657281525060200191505060405180910390fd5b6000600460008373ffffffffffffffffffffffffffffffffffffffff1673ffffffffffffffffffffffffffffffffffffffff16815260200190815260200160002060006101000a81548160ff02191690831515021790555050565b6000600260009054906101000a900473ffffffffffffffffffffffffffffffffffffffff16905090565b8173ffffffffffffffffffffffffffffffffffffffff163373ffffffffffffffffffffffffffffffffffffffff161415611b2f576040517f08c379a000000000000000000000000000000000000000000000000000000000815260040180806020018281038252602c815260200180614c63602c913960400191505060405180910390fd5b80600160003373ffffffffffffffffffffffffffffffffffffffff1673ffffffffffffffffffffffffffffffffffffffff16815260200190815260200160002060008473ffffffffffffffffffffffffffffffffffffffff1673ffffffffffffffffffffffffffffffffffffffff16815260200190815260200160002060006101000a81548160ff0219169083151502179055508173ffffffffffffffffffffffffffffffffffffffff163373ffffffffffffffffffffffffffffffffffffffff167f17307eab39ab6107e8899845ad3d59bd9653f200f220920489ca2b5937696c3183604051808215151515815260200191505060405180910390a35050565b600060036000838152602001908152602001600020549050919050565b6000600460008373ffffffffffffffffffffffffffffffffffffffff1673ffffffffffffffffffffffffffffffffffffffff16815260200190815260200160002060009054906101000a900460ff169050919050565b611cab613f3f565b611d1d576040517f08c379a00000000000000000000000000000000000000000000000000000000081526004018080602001828103825260208152602001807f4f776e61626c653a2063616c6c6572206973206e6f7420746865206f776e657281525060200191505060405180910390fd5b600460003373ffffffffffffffffffffffffffffffffffffffff1673ffffffffffffffffffffffffffffffffffffffff16815260200190815260200160002060009054906101000a900460ff16611ddc576040517f08c379a00000000000000000000000000000000000000000000000000000000081526004018080602001828103825260178152602001807f5374617368426c6f783a20556e617574686f72697a656400000000000000000081525060200191505060405180910390fd5b838390508686905014611e3a576040517f08c379a0000000000000000000000000000000000000000000000000000000008152600401808060200182810382526034815260200180614c2f6034913960400191505060405180910390fd5b818190508484905014611e98576040517f08c379a0000000000000000000000000000000000000000000000000000000008152600401808060200182810382526037815260200180614cbf6037913960400191505060405180910390fd5b60008090505b86869050811015611f4f57600060036000898985818110611ebb57fe5b9050602002013581526020019081526020016000205414611f44576040517f08c379a000000000000000000000000000000000000000000000000000000000815260040180806020018281038252601f8152602001807f5374617368426c6f783a20546f6b656e20616c7265616479206d696e7465640081525060200191505060405180910390fd5b806001019050611e9e565b5060008090505b86869050811015612141576000878783818110611f6f57fe5b9050602002013590506000868684818110611f8657fe5b9050602002013573ffffffffffffffffffffffffffffffffffffffff1690506000858585818110611fb357fe5b905060200201359050611fe28160036000868152602001908152602001600020546144fd90919063ffffffff16565b600360008581526020019081526020016000208190555061205b8160008086815260200190815260200160002060008573ffffffffffffffffffffffffffffffffffffffff1673ffffffffffffffffffffffffffffffffffffffff168152602001908152602001600020546144fd90919063ffffffff16565b60008085815260200190815260200160002060008473ffffffffffffffffffffffffffffffffffffffff1673ffffffffffffffffffffffffffffffffffffffff168152602001908152602001600020819055508173ffffffffffffffffffffffffffffffffffffffff16600073ffffffffffffffffffffffffffffffffffffffff163373ffffffffffffffffffffffffffffffffffffffff167fc3d58168c5ae7397731d063d5bbf3d657854427343f4c083240f7aacaa2d0f628685604051808381526020018281526020019250505060405180910390a4505050806001019050611f56565b50505050505050565b6000600160008473ffffffffffffffffffffffffffffffffffffffff1673ffffffffffffffffffffffffffffffffffffffff16815260200190815260200160002060008373ffffffffffffffffffffffffffffffffffffffff1673ffffffffffffffffffffffffffffffffffffffff16815260200190815260200160002060009054906101000a900460ff16905092915050565b600073ffffffffffffffffffffffffffffffffffffffff168573ffffffffffffffffffffffffffffffffffffffff161415612264576040517f08c379a0000000000000000000000000000000000000000000000000000000008152600401808060200182810382526028815260200180614c076028913960400191505060405180910390fd5b3373ffffffffffffffffffffffffffffffffffffffff168673ffffffffffffffffffffffffffffffffffffffff1614806122ab5750600115156122a7873361214a565b1515145b612300576040517f08c379a0000000000000000000000000000000000000000000000000000000008152600401808060200182810382526037815260200180614e1b6037913960400191505060405180910390fd5b61230c86868686612470565b8473ffffffffffffffffffffffffffffffffffffffff168673ffffffffffffffffffffffffffffffffffffffff163373ffffffffffffffffffffffffffffffffffffffff167fc3d58168c5ae7397731d063d5bbf3d657854427343f4c083240f7aacaa2d0f628787604051808381526020018281526020019250505060405180910390a46123e2338787878787878080601f016020809104026020016040519081016040528093929190818152602001838380828437600081840152601f19601f82011690508083019250505050505050614585565b505050505050565b6123f2613f3f565b612464576040517f08c379a00000000000000000000000000000000000000000000000000000000081526004018080602001828103825260208152602001807f4f776e61626c653a2063616c6c6572206973206e6f7420746865206f776e657281525060200191505060405180910390fd5b61246d816147d2565b50565b6124ec816040518060600160405280602a8152602001614d60602a913960008086815260200190815260200160002060008873ffffffffffffffffffffffffffffffffffffffff1673ffffffffffffffffffffffffffffffffffffffff168152602001908152602001600020546149189092919063ffffffff16565b60008084815260200190815260200160002060008673ffffffffffffffffffffffffffffffffffffffff1673ffffffffffffffffffffffffffffffffffffffff168152602001908152602001600020819055506125a18160008085815260200190815260200160002060008673ffffffffffffffffffffffffffffffffffffffff1673ffffffffffffffffffffffffffffffffffffffff168152602001908152602001600020546144fd90919063ffffffff16565b60008084815260200190815260200160002060008573ffffffffffffffffffffffffffffffffffffffff1673ffffffffffffffffffffffffffffffffffffffff1681526020019081526020016000208190555050505050565b6126198473ffffffffffffffffffffffffffffffffffffffff166149d8565b156128c1578373ffffffffffffffffffffffffffffffffffffffff1663bc197c81905060e01b7bffffffffffffffffffffffffffffffffffffffffffffffffffffffff19168473ffffffffffffffffffffffffffffffffffffffff1663bc197c8188888787876040518663ffffffff1660e01b8152600401808673ffffffffffffffffffffffffffffffffffffffff1673ffffffffffffffffffffffffffffffffffffffff1681526020018573ffffffffffffffffffffffffffffffffffffffff1673ffffffffffffffffffffffffffffffffffffffff168152602001806020018060200180602001848103845287818151815260200191508051906020019060200280838360005b8381101561273d578082015181840152602081019050612722565b50505050905001848103835286818151815260200191508051906020019060200280838360005b8381101561277f578082015181840152602081019050612764565b50505050905001848103825285818151815260200191508051906020019080838360005b838110156127be5780820151818401526020810190506127a3565b50505050905090810190601f1680156127eb5780820380516001836020036101000a031916815260200191505b5098505050505050505050602060405180830381600087803b15801561281057600080fd5b505af1158015612824573d6000803e3d6000fd5b505050506040513d602081101561283a57600080fd5b81019080805190602001909291905050507bffffffffffffffffffffffffffffffffffffffffffffffffffffffff1916146128c0576040517f08c379a0000000000000000000000000000000000000000000000000000000008152600401808060200182810382526036815260200180614cf66036913960400191505060405180910390fd5b5b505050505050565b60006128d3614ac4565b60086000878152602001908152602001600020604051806101a001604052908160008201548152602001600182015481526020016002820160009054906101000a900473ffffffffffffffffffffffffffffffffffffffff1673ffffffffffffffffffffffffffffffffffffffff1673ffffffffffffffffffffffffffffffffffffffff16815260200160038201548152602001600482015481526020016005820154815260200160068201548152602001600782015481526020016008820160009054906101000a900460ff161515151581526020016008820160019054906101000a900473ffffffffffffffffffffffffffffffffffffffff1673ffffffffffffffffffffffffffffffffffffffff1673ffffffffffffffffffffffffffffffffffffffff168152602001600a8201548152602001600b820160009054906101000a900460ff16151515158152602001600b820160019054906101000a900460ff161515151581525050905085816000015114612aba576040517f08c379a00000000000000000000000000000000000000000000000000000000081526004018080602001828103825260188152602001807f5374617368426c6f783a20556e6b6e6f776e204f66666572000000000000000081525060200191505060405180910390fd5b806101600151612b32576040517f08c379a00000000000000000000000000000000000000000000000000000000081526004018080602001828103825260178152602001807f5374617368426c6f783a204f6666657220636c6f73656400000000000000000081525060200191505060405180910390fd5b80610120015173ffffffffffffffffffffffffffffffffffffffff163373ffffffffffffffffffffffffffffffffffffffff1614612bd8576040517f08c379a00000000000000000000000000000000000000000000000000000000081526004018080602001828103825260178152602001807f5374617368426c6f783a20556e617574686f72697a656400000000000000000081525060200191505060405180910390fd5b60008161014001511115612cba576008600087815260200190815260200160002060090160008673ffffffffffffffffffffffffffffffffffffffff1673ffffffffffffffffffffffffffffffffffffffff16815260200190815260200160002060009054906101000a900460ff16612cb9576040517f08c379a00000000000000000000000000000000000000000000000000000000081526004018080602001828103825260178152602001807f5374617368426c6f783a20556e617574686f72697a656400000000000000000081525060200191505060405180910390fd5b5b80610100015115612d4a578060800151816060015103841115612d45576040517f08c379a00000000000000000000000000000000000000000000000000000000081526004018080602001828103825260198152602001807f5374617368426c6f783a20696e76616c696420616d6f756e740000000000000081525060200191505060405180910390fd5b612dc4565b80606001518414612dc3576040517f08c379a00000000000000000000000000000000000000000000000000000000081526004018080602001828103825260198152602001807f5374617368426c6f783a20696e76616c696420616d6f756e740000000000000081525060200191505060405180910390fd5b5b8360086000888152602001908152602001600020600401540160086000888152602001908152602001600020600401819055506000612e01614a23565b9050600084420190506000814210159050612e1a614b5e565b838160000181815250508981602001818152505088816040019073ffffffffffffffffffffffffffffffffffffffff16908173ffffffffffffffffffffffffffffffffffffffff16815250508781606001818152505082816080018181525050818160a00190151590811515815250508060096000868152602001908152602001600020600082015181600001556020820151816001015560408201518160020160006101000a81548173ffffffffffffffffffffffffffffffffffffffff021916908373ffffffffffffffffffffffffffffffffffffffff160217905550606082015181600301556080820151816004015560a08201518160050160006101000a81548160ff02191690831515021790555060c08201518160050160016101000a81548160ff02191690831515021790555090505087600860008c81526020019081526020016000206004015401600860008c8152602001908152602001600020600401819055508873ffffffffffffffffffffffffffffffffffffffff16848b7f8f414bb7b1129208b5a842a85f18292a47ad72117cca38e4363cf80dc189ec168b87604051808381526020018281526020019250505060405180910390a4811561305157612ff085602001518a8a614a3b565b87600860008c81526020019081526020016000206005015401600860008c815260200190815260200160002060050181905550837f9df29a48d557958defdbeb91dda0116b443663f2a358ab8947609973c5a7b51c60405160405180910390a25b600860008b815260200190815260200160002060030154600860008c81526020019081526020016000206005015414156130b5576000600860008c8152602001908152602001600020600b0160006101000a81548160ff0219169083151502179055505b8395505050505050949350505050565b600080600360008b8152602001908152602001600020541161314f576040517f08c379a00000000000000000000000000000000000000000000000000000000081526004018080602001828103825260188152602001807f5374617368426c6f783a20556e6b6e6f776e20546f6b656e000000000000000081525060200191505060405180910390fd5b866000808b815260200190815260200160002060003373ffffffffffffffffffffffffffffffffffffffff1673ffffffffffffffffffffffffffffffffffffffff168152602001908152602001600020541015613214576040517f08c379a000000000000000000000000000000000000000000000000000000000815260040180806020018281038252601f8152602001807f5374617368426c6f783a20496e73756666696369656e742062616c616e63650081525060200191505060405180910390fd5b61321d85614a6e565b61328f576040517f08c379a000000000000000000000000000000000000000000000000000000000815260040180806020018281038252601b8152602001807f5374617368426c6f783a20496e76616c69642063757272656e6379000000000081525060200191505060405180910390fd5b60008611613305576040517f08c379a00000000000000000000000000000000000000000000000000000000081526004018080602001828103825260188152602001807f5374617368426c6f783a20496e76616c6964207072696365000000000000000081525060200191505060405180910390fd5b600061330f614a79565b9050613319614ac4565b818160000181815250508a81602001818152505089816040019073ffffffffffffffffffffffffffffffffffffffff16908173ffffffffffffffffffffffffffffffffffffffff168152505088816060018181525050868160c0018181525050878160e001818152505085816101000190151590811515815250508481610120019073ffffffffffffffffffffffffffffffffffffffff16908173ffffffffffffffffffffffffffffffffffffffff16815250506001816101600190151590811515815250508060086000848152602001908152602001600020600082015181600001556020820151816001015560408201518160020160006101000a81548173ffffffffffffffffffffffffffffffffffffffff021916908373ffffffffffffffffffffffffffffffffffffffff160217905550606082015181600301556080820151816004015560a0820151816005015560c0820151816006015560e082015181600701556101008201518160080160006101000a81548160ff0219169083151502179055506101208201518160080160016101000a81548173ffffffffffffffffffffffffffffffffffffffff021916908373ffffffffffffffffffffffffffffffffffffffff16021790555061014082015181600a015561016082015181600b0160006101000a81548160ff02191690831515021790555061018082015181600b0160016101000a81548160ff02191690831515021790555090505060008090505b84518110156135f857600160086000858152602001908152602001600020600901600087848151811061356e57fe5b602002602001015173ffffffffffffffffffffffffffffffffffffffff1673ffffffffffffffffffffffffffffffffffffffff16815260200190815260200160002060006101000a81548160ff02191690831515021790555060086000848152602001908152602001600020600a016000815480929190600101919050555080600101905061353f565b506136048b338b614a91565b8973ffffffffffffffffffffffffffffffffffffffff168b837f917c305b3fd6b7f7a61920199134f9d7f7be34db77537dad166bcebe584dac168c8b8d60405180848152602001838152602001828152602001935050505060405180910390a4819250505098975050505050505050565b61367d614ac4565b60086000838152602001908152602001600020604051806101a001604052908160008201548152602001600182015481526020016002820160009054906101000a900473ffffffffffffffffffffffffffffffffffffffff1673ffffffffffffffffffffffffffffffffffffffff1673ffffffffffffffffffffffffffffffffffffffff16815260200160038201548152602001600482015481526020016005820154815260200160068201548152602001600782015481526020016008820160009054906101000a900460ff161515151581526020016008820160019054906101000a900473ffffffffffffffffffffffffffffffffffffffff1673ffffffffffffffffffffffffffffffffffffffff1673ffffffffffffffffffffffffffffffffffffffff168152602001600a8201548152602001600b820160009054906101000a900460ff16151515158152602001600b820160019054906101000a900460ff161515151581525050905081816000015114613864576040517f08c379a00000000000000000000000000000000000000000000000000000000081526004018080602001828103825260188152602001807f5374617368426c6f783a20556e6b6e6f776e204f66666572000000000000000081525060200191505060405180910390fd5b80610160015180156138795750806101800151155b6138ce576040517f08c379a0000000000000000000000000000000000000000000000000000000008152600401808060200182810382526024815260200180614e806024913960400191505060405180910390fd5b806040015173ffffffffffffffffffffffffffffffffffffffff163373ffffffffffffffffffffffffffffffffffffffff1614613973576040517f08c379a00000000000000000000000000000000000000000000000000000000081526004018080602001828103825260178152602001807f5374617368426c6f783a20556e617574686f72697a656400000000000000000081525060200191505060405180910390fd5b600160086000848152602001908152602001600020600b0160016101000a81548160ff021916908315150217905550600060086000848152602001908152602001600020600b0160006101000a81548160ff02191690831515021790555060008160a0015182608001518360600151030390506139f582602001513383614a3b565b827fc28b4aed030bfacc245c0501326e1beb8c0ef0d60e4edc21067fdeb52da2a7aa60405160405180910390a2505050565b613a2f614b5e565b600960008381526020019081526020016000206040518060e001604052908160008201548152602001600182015481526020016002820160009054906101000a900473ffffffffffffffffffffffffffffffffffffffff1673ffffffffffffffffffffffffffffffffffffffff1673ffffffffffffffffffffffffffffffffffffffff16815260200160038201548152602001600482015481526020016005820160009054906101000a900460ff161515151581526020016005820160019054906101000a900460ff161515151581525050905081816000015114613b7c576040517f08c379a00000000000000000000000000000000000000000000000000000000081526004018080602001828103825260178152602001807f5374617368426c6f783a20556e6b6e6f776e204465616c00000000000000000081525060200191505060405180910390fd5b8060a00151158015613b9057508060c00151155b613be5576040517f08c379a000000000000000000000000000000000000000000000000000000000815260040180806020018281038252602d815260200180614dab602d913960400191505060405180910390fd5b8060800151421015613c5f576040517f08c379a00000000000000000000000000000000000000000000000000000000081526004018080602001828103825260138152602001807f5374617368426c6f783a20546f6f20736f6f6e0000000000000000000000000081525060200191505060405180910390fd5b613c67614ac4565b6008600083602001518152602001908152602001600020604051806101a001604052908160008201548152602001600182015481526020016002820160009054906101000a900473ffffffffffffffffffffffffffffffffffffffff1673ffffffffffffffffffffffffffffffffffffffff1673ffffffffffffffffffffffffffffffffffffffff16815260200160038201548152602001600482015481526020016005820154815260200160068201548152602001600782015481526020016008820160009054906101000a900460ff161515151581526020016008820160019054906101000a900473ffffffffffffffffffffffffffffffffffffffff1673ffffffffffffffffffffffffffffffffffffffff1673ffffffffffffffffffffffffffffffffffffffff168152602001600a8201548152602001600b820160009054906101000a900460ff16151515158152602001600b820160019054906101000a900460ff161515151581525050905060016009600085815260200190815260200160002060050160006101000a81548160ff021916908315150217905550613e1f816020015183604001518460600151614a3b565b816060015160086000836000015181526020019081526020016000206005015401600860008360000151815260200190815260200160002060050181905550816060015160086000836000015181526020019081526020016000206004015403600860008360000151815260200190815260200160002060040181905550827f9df29a48d557958defdbeb91dda0116b443663f2a358ab8947609973c5a7b51c60405160405180910390a26008600082600001518152602001908152602001600020600301546008600083600001518152602001908152602001600020600501541415613f3a5760006008600083600001518152602001908152602001600020600b0160006101000a81548160ff0219169083151502179055505b505050565b6000600260009054906101000a900473ffffffffffffffffffffffffffffffffffffffff1673ffffffffffffffffffffffffffffffffffffffff163373ffffffffffffffffffffffffffffffffffffffff1614905090565b613f9f614b5e565b600960008381526020019081526020016000206040518060e001604052908160008201548152602001600182015481526020016002820160009054906101000a900473ffffffffffffffffffffffffffffffffffffffff1673ffffffffffffffffffffffffffffffffffffffff1673ffffffffffffffffffffffffffffffffffffffff16815260200160038201548152602001600482015481526020016005820160009054906101000a900460ff161515151581526020016005820160019054906101000a900460ff1615151515815250509050818160000151146140ec576040517f08c379a00000000000000000000000000000000000000000000000000000000081526004018080602001828103825260178152602001807f5374617368426c6f783a20556e6b6e6f776e204465616c00000000000000000081525060200191505060405180910390fd5b8060a0015115614147576040517f08c379a0000000000000000000000000000000000000000000000000000000008152600401808060200182810382526021815260200180614d8a6021913960400191505060405180910390fd5b806080015142106141c0576040517f08c379a00000000000000000000000000000000000000000000000000000000081526004018080602001828103825260138152602001807f5374617368426c6f783a20546f6f206c6174650000000000000000000000000081525060200191505060405180910390fd5b6141c8614ac4565b6008600083602001518152602001908152602001600020604051806101a001604052908160008201548152602001600182015481526020016002820160009054906101000a900473ffffffffffffffffffffffffffffffffffffffff1673ffffffffffffffffffffffffffffffffffffffff1673ffffffffffffffffffffffffffffffffffffffff16815260200160038201548152602001600482015481526020016005820154815260200160068201548152602001600782015481526020016008820160009054906101000a900460ff161515151581526020016008820160019054906101000a900473ffffffffffffffffffffffffffffffffffffffff1673ffffffffffffffffffffffffffffffffffffffff1673ffffffffffffffffffffffffffffffffffffffff168152602001600a8201548152602001600b820160009054906101000a900460ff16151515158152602001600b820160019054906101000a900460ff161515151581525050905080610120015173ffffffffffffffffffffffffffffffffffffffff163373ffffffffffffffffffffffffffffffffffffffff16146143e0576040517f08c379a00000000000000000000000000000000000000000000000000000000081526004018080602001828103825260178152602001807f5374617368426c6f783a20556e617574686f72697a656400000000000000000081525060200191505060405180910390fd5b60016009600085815260200190815260200160002060050160016101000a81548160ff021916908315150217905550816060015160086000836000015181526020019081526020016000206004015403600860008360000151815260200190815260200160002060040181905550827f31b0c01e8429f81903c3f8adc204767b8efa7cfca91a00f3b4bb40ce63c8a20660405160405180910390a26008600082600001518152602001908152602001600020600b0160019054906101000a900460ff16156144c4576144bf816020015182604001518460600151614a3b565b6144f8565b60016008600083600001518152602001908152602001600020600b0160006101000a81548160ff0219169083151502179055505b505050565b60008082840190508381101561457b576040517f08c379a000000000000000000000000000000000000000000000000000000000815260040180806020018281038252601b8152602001807f536166654d6174683a206164646974696f6e206f766572666c6f77000000000081525060200191505060405180910390fd5b8091505092915050565b6145a48473ffffffffffffffffffffffffffffffffffffffff166149d8565b156147ca578373ffffffffffffffffffffffffffffffffffffffff1663f23a6e61905060e01b7bffffffffffffffffffffffffffffffffffffffffffffffffffffffff19168473ffffffffffffffffffffffffffffffffffffffff1663f23a6e6188888787876040518663ffffffff1660e01b8152600401808673ffffffffffffffffffffffffffffffffffffffff1673ffffffffffffffffffffffffffffffffffffffff1681526020018573ffffffffffffffffffffffffffffffffffffffff1673ffffffffffffffffffffffffffffffffffffffff16815260200184815260200183815260200180602001828103825283818151815260200191508051906020019080838360005b838110156146c95780820151818401526020810190506146ae565b50505050905090810190601f1680156146f65780820380516001836020036101000a031916815260200191505b509650505050505050602060405180830381600087803b15801561471957600080fd5b505af115801561472d573d6000803e3d6000fd5b505050506040513d602081101561474357600080fd5b81019080805190602001909291905050507bffffffffffffffffffffffffffffffffffffffffffffffffffffffff1916146147c9576040517f08c379a0000000000000000000000000000000000000000000000000000000008152600401808060200182810382526031815260200180614ea46031913960400191505060405180910390fd5b5b505050505050565b600073ffffffffffffffffffffffffffffffffffffffff168173ffffffffffffffffffffffffffffffffffffffff161415614858576040517f08c379a0000000000000000000000000000000000000000000000000000000008152600401808060200182810382526026815260200180614be16026913960400191505060405180910390fd5b8073ffffffffffffffffffffffffffffffffffffffff16600260009054906101000a900473ffffffffffffffffffffffffffffffffffffffff1673ffffffffffffffffffffffffffffffffffffffff167f8be0079c531659141344cd1fd0a4f28419497f9722a3daafe3b4186f6b6457e060405160405180910390a380600260006101000a81548173ffffffffffffffffffffffffffffffffffffffff021916908373ffffffffffffffffffffffffffffffffffffffff16021790555050565b60008383111582906149c5576040517f08c379a00000000000000000000000000000000000000000000000000000000081526004018080602001828103825283818151815260200191508051906020019080838360005b8381101561498a57808201518184015260208101905061496f565b50505050905090810190601f1680156149b75780820380516001836020036101000a031916815260200191505b509250505060405180910390fd5b5060008385039050809150509392505050565b60008060007fc5d2460186f7233c927e7db2dcc703c0e500b653ca82273b7bfad8045d85a47060001b9050833f91506000801b8214158015614a1a5750808214155b92505050919050565b60006006600081548092919060010191905055905090565b614a69600760009054906101000a900473ffffffffffffffffffffffffffffffffffffffff16838584612470565b505050565b600060019050919050565b60006005600081548092919060010191905055905090565b614abf82600760009054906101000a900473ffffffffffffffffffffffffffffffffffffffff168584612470565b505050565b604051806101a001604052806000815260200160008152602001600073ffffffffffffffffffffffffffffffffffffffff1681526020016000815260200160008152602001600081526020016000815260200160008152602001600015158152602001600073ffffffffffffffffffffffffffffffffffffffff168152602001600081526020016000151581526020016000151581525090565b6040518060e001604052806000815260200160008152602001600073ffffffffffffffffffffffffffffffffffffffff1681526020016000815260200160008152602001600015158152602001600015158152509056fe455243313135353a2062616c616e636520717565727920666f7220746865207a65726f20616464726573734f776e61626c653a206e6577206f776e657220697320746865207a65726f2061646472657373455243313135353a207461726765742061646472657373206d757374206265206e6f6e2d7a65726f5374617368426c6f783a2069647320616e6420726563697069656e7473206d75737420686176652073616d65206c656e67746873455243313135353a2063616e6e6f742073657420617070726f76616c2073746174757320666f722073656c66455243313135353a206163636f756e747320616e6420494473206d75737420686176652073616d65206c656e677468735374617368426c6f783a20726563697069656e747320616e642076616c756573206d75737420686176652073616d65206c656e67746873455243313135353a20676f7420756e6b6e6f776e2076616c75652066726f6d206f6e4552433131353542617463685265636569766564455243313135353a20736f6d65206164647265737320696e2062617463682062616c616e6365207175657279206973207a65726f455243313135353a20696e73756666696369656e742062616c616e636520666f72207472616e736665725374617368426c6f783a204465616c20616c726561647920636f6e6669726d65645374617368426c6f783a204465616c20616c726561647920636f6e6669726d6564206f722063616e63656c65645374617368426c6f783a20616c6c206c697374206d75737420686176652073616d65206c656e6774687320616e64206174206c65617374206f6e6520656c656d656e74455243313135353a206e656564206f70657261746f7220617070726f76616c20666f7220337264207061727479207472616e7366657273455243313135353a2049447320616e642076616c756573206d75737420686176652073616d65206c656e677468735374617368426c6f783a204f6666657220636c6f736564206f722063616e63656c6c6564455243313135353a20676f7420756e6b6e6f776e2076616c75652066726f6d206f6e455243313135355265636569766564a265627a7a723158203bf7a267474dcd58b22af376229c20305271551b78e46f98f80e7302940925e964736f6c634300050c00324f776e61626c653a206e6577206f776e657220697320746865207a65726f2061646472657373",
  "source": "pragma solidity ^0.5.12;\n\nimport './ERC1155Mintable.sol';\nimport '../utils/StringUtils.sol';\n\ncontract ERC1155Sellable is ERC1155Mintable {\n\n    uint256 private _offerId;\n    uint256 private _dealId;\n    address private ESCROW_ADDRESS;\n\n    struct Offer {\n        uint256 id;\n        uint256 tokenId;\n        address from;\n        uint256 amount;\n        uint256 pendingAmount;\n        uint256 paidAmount;\n        uint256 priceCurrency;\n        uint256 price;\n        bool acceptPartial;\n        address paymentOfficer;\n        mapping (address => bool) authorizedBuyers;\n        uint256 authorizedBuyersLength;\n        bool open;\n        bool canceled;\n    }\n\n    struct Deal {\n        uint256 id;\n        uint256 offerId;\n        address buyer;\n        uint256 amount;\n        uint256 endCancellationPeriod;\n        bool confirmed;\n        bool canceled;\n    }\n\n    mapping (uint256 => Offer) private _offers;\n    mapping (uint256 => Deal) private _deals;\n\n    event OfferOpened(uint256 indexed offerId,\n                      uint256 indexed tokenId,\n                      address indexed from,\n                      uint256 amount,\n                      uint256 priceCurrency,\n                      uint256 price);\n    event OfferCancelled(uint256 indexed offerId);\n    event OfferAccepted(uint256 indexed offerId,\n                        uint256 indexed dealId,\n                        address indexed buyer,\n                        uint256 amount,\n                        uint256 endCancellationPeriod);\n    event DealConfirmed(uint256 indexed dealId);\n    event DealCancelled(uint256 indexed dealId);\n\n\n    function openOffers(uint256[] calldata tokenIds,\n                        uint256[] calldata amounts,\n                        uint256[] calldata prices, // by unit of id\n                        uint256 priceCurrency,\n                        bool acceptPartial,\n                        address paymentOfficer,\n                        address[] calldata authorizedBuyers) external returns (uint256[] memory offerIds) {\n\n        require((tokenIds.length > 0) &&\n                (amounts.length == tokenIds.length) &&\n                (prices.length == amounts.length),\n                \"StashBlox: all list must have same lengths and at least one element\");\n\n        for (uint256 i = 0; i < tokenIds.length; ++i)\n            offerIds[i] = _openOffer(tokenIds[i],\n                                     msg.sender,\n                                     amounts[i],\n                                     prices[i],\n                                     priceCurrency,\n                                     acceptPartial,\n                                     paymentOfficer,\n                                     authorizedBuyers);\n\n        return offerIds;\n    }\n\n    function cancelOffers(uint256[] calldata offerIds) external {\n        for (uint256 i = 0; i < offerIds.length; ++i) _cancelOffer(offerIds[i]);\n    }\n\n    function onOffersAccepted(uint256[] calldata offerIds,\n                              address[] calldata buyers,\n                              uint256[] calldata amounts,\n                              uint256[] calldata cancellationPeriods) external returns (uint256[] memory dealIds) {\n\n        require((offerIds.length > 0) &&\n                (buyers.length == offerIds.length) &&\n                (amounts.length == buyers.length) &&\n                (cancellationPeriods.length == amounts.length),\n                \"StashBlox: all list must have same lengths and at least one element\");\n\n        for (uint256 i = 0; i < offerIds.length; ++i)\n            dealIds[i] = _onOfferAccepted(offerIds[i],\n                                           buyers[i],\n                                           amounts[i],\n                                           cancellationPeriods[i]);\n\n        return dealIds;\n    }\n\n    function confirmDeals(uint256[] calldata dealIds) external {\n        for (uint256 i = 0; i < dealIds.length; ++i) _confirmDeal(dealIds[i]);\n    }\n\n    function onPaymentsCancelled(uint256[] calldata dealIds) external {\n        for (uint256 i = 0; i < dealIds.length; ++i) _onPaymentCancelled(dealIds[i]);\n    }\n\n    function _escrowToken(uint256 id, address from, uint256 amount) internal {\n        _moveTokens(from, ESCROW_ADDRESS, id, amount);\n    }\n\n    function _unescrowToken(uint256 id, address to, uint256 amount) internal {\n        _moveTokens(ESCROW_ADDRESS, to, id, amount);\n    }\n\n    function _getOfferId() internal returns (uint) {\n        return _offerId++;\n    }\n\n    function _getDealId() internal returns (uint) {\n        return _dealId++;\n    }\n\n    function _isValidCurrency(uint256) internal pure returns (bool) {\n        return true;\n    }\n\n    function _openOffer(uint256 tokenId,\n                        address from,\n                        uint256 amount,\n                        uint256 price, // by unit of id\n                        uint256 priceCurrency,\n                        bool acceptPartial,\n                        address paymentOfficer,\n                        address[] memory authorizedBuyers) internal returns (uint256) {\n\n        require(_supplies[tokenId] > 0, \"StashBlox: Unknown Token\");\n        require(_balances[tokenId][msg.sender] >= amount, \"StashBlox: Insufficient balance\");\n        require(_isValidCurrency(priceCurrency), \"StashBlox: Invalid currency\");\n        require(price > 0, \"StashBlox: Invalid price\");\n\n        uint256 newOfferId = _getOfferId();\n\n        Offer memory newOffer;\n        newOffer.id = newOfferId;\n        newOffer.tokenId = tokenId;\n        newOffer.from = from;\n        newOffer.amount = amount;\n        newOffer.priceCurrency = priceCurrency;\n        newOffer.price = price;\n        newOffer.acceptPartial = acceptPartial;\n        newOffer.paymentOfficer = paymentOfficer;\n        newOffer.open = true;\n\n        _offers[newOfferId] = newOffer;\n        for (uint256 i = 0; i < authorizedBuyers.length; ++i) {\n            _offers[newOfferId].authorizedBuyers[address(authorizedBuyers[i])] = true;\n            _offers[newOfferId].authorizedBuyersLength++;\n        }\n\n        //_balances[tokenId][msg.sender] = _balances[tokenId][msg.sender] - amount;\n        _escrowToken(tokenId, msg.sender, amount);\n\n        emit OfferOpened(newOfferId, tokenId, from, amount, priceCurrency, price);\n\n        return newOfferId;\n    }\n\n    function _cancelOffer(uint256 offerId) internal {\n        Offer memory offer = _offers[offerId];\n\n        require(offer.id == offerId, \"StashBlox: Unknown Offer\");\n        require(offer.open && !offer.canceled, \"StashBlox: Offer closed or cancelled\");\n        require(msg.sender == offer.from, \"StashBlox: Unauthorized\");\n\n        _offers[offerId].canceled = true;\n        _offers[offerId].open = false;\n\n        uint256 remainingBalance = offer.amount - offer.pendingAmount - offer.paidAmount;\n        //_balances[offer.tokenId][msg.sender] = _balances[offer.tokenId][msg.sender] + remainingBalance;\n        _unescrowToken(offer.tokenId, msg.sender, remainingBalance);\n\n        emit OfferCancelled(offerId);\n    }\n\n    function _onOfferAccepted(uint256 offerId,\n                              address buyer,\n                              uint256 amount,\n                              uint256 cancellationPeriod) internal returns (uint256) {\n\n        Offer memory offer = _offers[offerId];\n\n        require(offer.id == offerId, \"StashBlox: Unknown Offer\");\n        require(offer.open, \"StashBlox: Offer closed\");\n        require(msg.sender == offer.paymentOfficer, \"StashBlox: Unauthorized\");\n        if (offer.authorizedBuyersLength > 0) {\n            require(_offers[offerId].authorizedBuyers[buyer], \"StashBlox: Unauthorized\");\n        }\n        if (offer.acceptPartial) require(amount <= offer.amount - offer.pendingAmount, \"StashBlox: invalid amount\");\n        else require(amount == offer.amount, \"StashBlox: invalid amount\");\n\n        _offers[offerId].pendingAmount = _offers[offerId].pendingAmount + amount;\n\n        uint256 newDealId = _getDealId();\n        uint256 endCancellationPeriod = now + cancellationPeriod;\n        bool confirmed = (now >= endCancellationPeriod);\n\n        Deal memory newDeal;\n        newDeal.id = newDealId;\n        newDeal.offerId = offerId;\n        newDeal.buyer = buyer;\n        newDeal.amount = amount;\n        newDeal.endCancellationPeriod = endCancellationPeriod;\n        newDeal.confirmed = confirmed;\n        _deals[newDealId] = newDeal;\n\n        _offers[offerId].pendingAmount = _offers[offerId].pendingAmount + amount;\n\n        emit OfferAccepted(offerId, newDealId, buyer, amount, endCancellationPeriod);\n\n        if (confirmed) {\n            //_balances[offer.tokenId][buyer] = _balances[offer.tokenId][buyer] + amount;\n            _unescrowToken(offer.tokenId, buyer, amount);\n            _offers[offerId].paidAmount = _offers[offerId].paidAmount + amount;\n            emit DealConfirmed(newDealId);\n        }\n\n        if (_offers[offerId].paidAmount == _offers[offerId].amount) {\n            _offers[offerId].open = false;\n        }\n\n        return newDealId;\n    }\n\n    // if cancellation period everyone could call this function\n    function _confirmDeal(uint256 dealId) internal {\n        Deal memory deal = _deals[dealId];\n\n        require(deal.id == dealId, \"StashBlox: Unknown Deal\");\n        require(!deal.confirmed && !deal.canceled, \"StashBlox: Deal already confirmed or canceled\");\n        require(now >= deal.endCancellationPeriod, \"StashBlox: Too soon\");\n\n        Offer memory offer = _offers[deal.offerId];\n\n        _deals[dealId].confirmed = true;\n        //_balances[offer.tokenId][deal.buyer] = _balances[offer.tokenId][deal.buyer] + deal.amount;\n        _unescrowToken(offer.tokenId, deal.buyer, deal.amount);\n        _offers[offer.id].paidAmount = _offers[offer.id].paidAmount + deal.amount;\n        _offers[offer.id].pendingAmount = _offers[offer.id].pendingAmount - deal.amount;\n\n        emit DealConfirmed(dealId);\n\n        if (_offers[offer.id].paidAmount == _offers[offer.id].amount) {\n            _offers[offer.id].open = false;\n        }\n    }\n\n    function _onPaymentCancelled(uint256 dealId) internal {\n        Deal memory deal = _deals[dealId];\n\n        require(deal.id == dealId, \"StashBlox: Unknown Deal\");\n        require(!deal.confirmed, \"StashBlox: Deal already confirmed\");\n        require(now < deal.endCancellationPeriod, \"StashBlox: Too late\");\n\n        Offer memory offer = _offers[deal.offerId];\n\n        require(msg.sender == offer.paymentOfficer, \"StashBlox: Unauthorized\");\n\n        _deals[dealId].canceled = true;\n        _offers[offer.id].pendingAmount = _offers[offer.id].pendingAmount - deal.amount;\n\n        emit DealCancelled(dealId);\n\n        if (_offers[offer.id].canceled) {\n            //_balances[offer.tokenId][offer.from] = _balances[offer.tokenId][offer.from] + deal.amount;\n            _unescrowToken(offer.tokenId, offer.from, deal.amount);\n        } else {\n            _offers[offer.id].open = true;\n        }\n    }\n\n\n}\n",
  "sourcePath": "/home/ouziel/Work/StashBloxContracts/contracts/lib/ERC1155/ERC1155Sellable.sol",
  "compiler": {
    "name": "solc",
    "version": "0.5.12+commit.7709ece9.Emscripten.clang"
  },
  "schemaVersion": "3.0.16",
  "updatedAt": "2019-11-11T00:29:17.755Z",
  "devdoc": {
    "methods": {
      "balanceOf(address,uint256)": {
        "details": "Get the specified address' balance for token with specified ID. Attempting to query the zero account for a balance will result in a revert.",
        "params": {
          "account": "The address of the token holder",
          "id": "ID of the token"
        },
        "return": "The account's balance of the token type requested"
      },
      "balanceOfBatch(address[],uint256[])": {
        "details": "Get the balance of multiple account/token pairs. If any of the query accounts is the zero account, this query will revert.",
        "params": {
          "accounts": "The addresses of the token holders",
          "ids": "IDs of the tokens"
        },
        "return": "Balances for each account and token id pair"
      },
      "createTokens(uint256[],address[],uint256[])": {
        "details": "Function to mint an amount of a token with the given ID.",
        "params": {
          "ids": "ID of the token to be minted",
          "recipients": "The addresses that will own the minted token",
          "values": "Amount of the token to be minted for each recipient"
        }
      },
      "isApprovedForAll(address,address)": {
        "params": {
          "account": "The account of the Tokens",
          "operator": "Address of authorized operator"
        },
        "return": "True if the operator is approved, false if not"
      },
      "owner()": {
        "details": "Returns the address of the current owner."
      },
      "safeBatchTransferFrom(address,address,uint256[],uint256[],bytes)": {
        "details": "Transfers `values` amount(s) of `ids` from the `from` address to the `to` address specified. Caller must be approved to manage the tokens being transferred out of the `from` account. If `to` is a smart contract, will call `onERC1155BatchReceived` on `to` and act appropriately.",
        "params": {
          "data": "Data forwarded to `onERC1155Received` if `to` is a contract receiver",
          "from": "Source address",
          "ids": "IDs of each token type",
          "to": "Target address",
          "values": "Transfer amounts per token type"
        }
      },
      "safeTransferFrom(address,address,uint256,uint256,bytes)": {
        "details": "Transfers `value` amount of an `id` from the `from` address to the `to` address specified. Caller must be approved to manage the tokens being transferred out of the `from` account. If `to` is a smart contract, will call `onERC1155Received` on `to` and act appropriately.",
        "params": {
          "data": "Data forwarded to `onERC1155Received` if `to` is a contract receiver",
          "from": "Source address",
          "id": "ID of the token type",
          "to": "Target address",
          "value": "Transfer amount"
        }
      },
      "setApprovalForAll(address,bool)": {
        "details": "Sets or unsets the approval of a given operator.     * An operator is allowed to transfer all tokens of the sender on their behalf.     * Because an account already has operator privileges for itself, this function will revert if the account attempts to set the approval status for itself.",
        "params": {
          "approved": "representing the status of the approval to be set",
          "operator": "address to set the approval"
        }
      },
      "supportsInterface(bytes4)": {
        "params": {
          "_interfaceID": "The interface identifier, as specified in ERC-165"
        },
        "return": "`true` if the contract implements `_interfaceID` and"
      },
      "totalSupply(uint256)": {
        "params": {
          "id": "Token ID"
        },
        "return": "Token supply"
      },
      "transferOwnership(address)": {
        "details": "Transfers ownership of the contract to a new account (`newOwner`). Can only be called by the current owner."
      }
    }
  },
  "userdoc": {
    "methods": {
      "isApprovedForAll(address,address)": {
        "notice": "Queries the approval status of an operator for a given account."
      },
      "supportsInterface(bytes4)": {
        "notice": "Query if a contract implements an interface"
      }
    }
  }
}