{
  "contractName": "ERC1155Metadata",
  "abi": [
    {
      "anonymous": false,
      "inputs": [
        {
          "indexed": true,
          "internalType": "uint256",
          "name": "_id",
          "type": "uint256"
        },
        {
          "indexed": true,
          "internalType": "uint256",
          "name": "_hash",
          "type": "uint256"
        }
      ],
      "name": "MetadataHashUpdated",
      "type": "event"
    },
    {
      "constant": true,
      "inputs": [],
      "name": "BASE_URI",
      "outputs": [
        {
          "internalType": "string",
          "name": "",
          "type": "string"
        }
      ],
      "payable": false,
      "stateMutability": "view",
      "type": "function"
    },
    {
      "constant": true,
      "inputs": [
        {
          "internalType": "uint256",
          "name": "id",
          "type": "uint256"
        }
      ],
      "name": "uri",
      "outputs": [
        {
          "internalType": "string",
          "name": "",
          "type": "string"
        }
      ],
      "payable": false,
      "stateMutability": "view",
      "type": "function"
    },
    {
      "constant": true,
      "inputs": [
        {
          "internalType": "uint256",
          "name": "id",
          "type": "uint256"
        }
      ],
      "name": "metadataHash",
      "outputs": [
        {
          "internalType": "uint256",
          "name": "",
          "type": "uint256"
        }
      ],
      "payable": false,
      "stateMutability": "view",
      "type": "function"
    }
  ],
  "bytecode": "0x608060405234801561001057600080fd5b5061056f806100206000396000f3fe608060405234801561001057600080fd5b50600436106100415760003560e01c80630e89341c14610046578063219cc8bc146100ed578063dbddb26a1461012f575b600080fd5b6100726004803603602081101561005c57600080fd5b81019080803590602001909291905050506101b2565b6040518080602001828103825283818151815260200191508051906020019080838360005b838110156100b2578082015181840152602081019050610097565b50505050905090810190601f1680156100df5780820380516001836020036101000a031916815260200191505b509250505060405180910390f35b6101196004803603602081101561010357600080fd5b8101908080359060200190929190505050610202565b6040518082815260200191505060405180910390f35b61013761021e565b6040518080602001828103825283818151815260200191508051906020019080838360005b8381101561017757808201518184015260208101905061015c565b50505050905090810190601f1680156101a45780820380516001836020036101000a031916815260200191505b509250505060405180910390f35b60606101fb6040518060400160405280601d81526020017f68747470733a2f2f7374617368626c6f782e636f6d2f746f6b656e732f0000008152506101f684610257565b610346565b9050919050565b6000806000838152602001908152602001600020549050919050565b6040518060400160405280601d81526020017f68747470733a2f2f7374617368626c6f782e636f6d2f746f6b656e732f00000081525081565b6060600080905060008390505b600081146102865781806001019250506010818161027e57fe5b049050610264565b6060826040519080825280601f01601f1916602001820160405280156102bb5781602001600182028038833980820191505090505b50905060008090505b8381101561033a57601086816102d657fe5b0692506102e283610491565b82600183870303815181106102f357fe5b60200101907effffffffffffffffffffffffffffffffffffffffffffffffffffffffffffff1916908160001a9053506010868161032c57fe5b0495508060010190506102c4565b50809350505050919050565b6060808390506060839050606081518351016040519080825280601f01601f19166020018201604052801561038a5781602001600182028038833980820191505090505b509050606081905060008090506000809050600090505b855181101561040f578581815181106103b657fe5b602001015160f81c60f81b8383806001019450815181106103d357fe5b60200101907effffffffffffffffffffffffffffffffffffffffffffffffffffffffffffff1916908160001a90535080806001019150506103a1565b600090505b84518110156104825784818151811061042957fe5b602001015160f81c60f81b83838060010194508151811061044657fe5b60200101907effffffffffffffffffffffffffffffffffffffffffffffffffffffffffffff1916908160001a9053508080600101915050610414565b82965050505050505092915050565b60008160ff166000111580156104ab575060098260ff1611155b156104e057817f300000000000000000000000000000000000000000000000000000000000000060f81c0160f81b9050610535565b8160ff16600a111580156104f85750600f8260ff1611155b1561053057600a827f610000000000000000000000000000000000000000000000000000000000000060f81c010360f81b9050610535565b600080fd5b91905056fea265627a7a7231582089b188ff31538bc549a6df255b6da226676562c3a6a119f4bdcf06133901ae5a64736f6c634300050c0032",
  "source": "pragma solidity ^0.5.12;\n\nimport '../ERC1155/IERC1155Metadata.sol';\nimport '../utils/StringUtils.sol';\n\ncontract ERC1155Metadata is IERC1155Metadata, StringUtils {\n\n    // Mapping from token ID to URI\n    string constant public BASE_URI = \"https://stashblox.com/tokens/\";\n\n    mapping (uint256 => uint256) internal _metadataHashes;\n\n\n    event MetadataHashUpdated(uint256 indexed _id, uint256 indexed _hash);\n\n    /**\n     * @param id Token ID\n     * @return URI string\n     */\n    function uri(uint256 id) external view returns (string memory) {\n        return _strConcat(BASE_URI, _toHexString(id));\n    }\n\n    function metadataHash(uint256 id) external view returns (uint256) {\n        return _metadataHashes[id];\n    }\n\n    function _updateMetadataHash(uint256 id, uint256 hash) internal {\n         _metadataHashes[id] = hash;\n         emit MetadataHashUpdated(id, hash);\n    }\n\n}\n",
  "sourcePath": "/home/ouziel/Work/StashBloxContracts/contracts/lib/ERC1155/ERC1155Metadata.sol",
  "compiler": {
    "name": "solc",
    "version": "0.5.12+commit.7709ece9.Emscripten.clang"
  },
  "schemaVersion": "3.0.16",
  "updatedAt": "2020-07-21T15:22:22.169Z",
  "devdoc": {
    "methods": {
      "uri(uint256)": {
        "params": {
          "id": "Token ID"
        },
        "return": "URI string"
      }
    }
  },
  "userdoc": {
    "methods": {}
  }
}