{
  "contractName": "ERC173",
  "abi": [
    {
      "inputs": [],
      "stateMutability": "nonpayable",
      "type": "constructor"
    },
    {
      "anonymous": false,
      "inputs": [
        {
          "indexed": true,
          "internalType": "address",
          "name": "previousOwner",
          "type": "address"
        },
        {
          "indexed": true,
          "internalType": "address",
          "name": "newOwner",
          "type": "address"
        }
      ],
      "name": "OwnershipTransferred",
      "type": "event"
    },
    {
      "inputs": [],
      "name": "owner",
      "outputs": [
        {
          "internalType": "address",
          "name": "",
          "type": "address"
        }
      ],
      "stateMutability": "view",
      "type": "function"
    },
    {
      "inputs": [
        {
          "internalType": "address",
          "name": "newOwner",
          "type": "address"
        }
      ],
      "name": "transferOwnership",
      "outputs": [],
      "stateMutability": "nonpayable",
      "type": "function"
    }
  ],
  "bytecode": "0x608060405234801561001057600080fd5b5061001a3361001f565b6100d9565b6001600160a01b03811661007e576040517f08c379a00000000000000000000000000000000000000000000000000000000081526004018080602001828103825260268152602001806102f06026913960400191505060405180910390fd5b600080546040516001600160a01b03808516939216917f8be0079c531659141344cd1fd0a4f28419497f9722a3daafe3b4186f6b6457e091a3600080546001600160a01b0319166001600160a01b0392909216919091179055565b610208806100e86000396000f3fe608060405234801561001057600080fd5b50600436106100365760003560e01c80638da5cb5b1461003b578063f2fde38b1461005f575b600080fd5b610043610087565b604080516001600160a01b039092168252519081900360200190f35b6100856004803603602081101561007557600080fd5b50356001600160a01b0316610096565b005b6000546001600160a01b031690565b61009e6100fb565b6100ef576040805162461bcd60e51b815260206004820181905260248201527f4f776e61626c653a2063616c6c6572206973206e6f7420746865206f776e6572604482015290519081900360640190fd5b6100f88161010c565b50565b6000546001600160a01b0316331490565b6001600160a01b0381166101515760405162461bcd60e51b81526004018080602001828103825260268152602001806101ad6026913960400191505060405180910390fd5b600080546040516001600160a01b03808516939216917f8be0079c531659141344cd1fd0a4f28419497f9722a3daafe3b4186f6b6457e091a3600080546001600160a01b0319166001600160a01b039290921691909117905556fe4f776e61626c653a206e6577206f776e657220697320746865207a65726f2061646472657373a2646970667358221220d5b930f5fd822ca803d8ed4dd97e87093b6437a5b730db07c88b416e000375be64736f6c634300070100334f776e61626c653a206e6577206f776e657220697320746865207a65726f2061646472657373",
  "immutableReferences": {},
  "source": "// SPDX-License-Identifier: MIT\n\npragma solidity ^0.7.1;\n\nimport \"./IERC173.sol\";\n/**\n * @dev Contract module which provides a basic access control mechanism, where\n * there is an account (an owner) that can be granted exclusive access to\n * specific functions.\n *\n * This module is used through inheritance. It will make available the modifier\n * `onlyOwner`, which can be applied to your functions to restrict their use to\n * the owner.\n */\ncontract ERC173 is IERC173 {\n    address private _owner;\n\n    /**\n     * @dev Initializes the contract setting the deployer as the initial owner.\n     */\n    constructor () {\n        _transferOwnership(msg.sender);\n    }\n\n    /**\n     * @dev Returns the address of the current owner.\n     */\n    function owner() public view override returns (address) {\n        return _owner;\n    }\n\n    /**\n     * @dev Throws if called by any account other than the owner.\n     */\n    modifier onlyOwner() {\n        require(_isOwner(), \"Ownable: caller is not the owner\");\n        _;\n    }\n\n    /**\n     * @dev Transfers ownership of the contract to a new account (`newOwner`).\n     * Can only be called by the current owner.\n     */\n    function transferOwnership(address newOwner) public override onlyOwner {\n        _transferOwnership(newOwner);\n    }\n\n    /**\n     * @dev Transfers ownership of the contract to a new account (`newOwner`).\n     */\n    function _transferOwnership(address newOwner) internal {\n        require(newOwner != address(0), \"Ownable: new owner is the zero address\");\n        emit OwnershipTransferred(_owner, newOwner);\n        _owner = newOwner;\n    }\n\n    /**\n     * @dev Returns true if the caller is the current owner.\n     */\n    function _isOwner() internal view returns (bool) {\n        return msg.sender == _owner;\n    }\n}\n",
  "sourcePath": "/home/ouziel/Work/StashBloxContracts/contracts/lib/ERC173/ERC173.sol",
  "compiler": {
    "name": "solc",
    "version": "0.7.1+commit.f4a555be.Emscripten.clang"
  },
  "schemaVersion": "3.2.3",
  "updatedAt": "2020-10-02T16:06:25.435Z",
  "devdoc": {
    "details": "Contract module which provides a basic access control mechanism, where there is an account (an owner) that can be granted exclusive access to specific functions. This module is used through inheritance. It will make available the modifier `onlyOwner`, which can be applied to your functions to restrict their use to the owner.",
    "kind": "dev",
    "methods": {
      "constructor": {
        "details": "Initializes the contract setting the deployer as the initial owner."
      },
      "owner()": {
        "details": "Returns the address of the current owner."
      },
      "transferOwnership(address)": {
        "details": "Transfers ownership of the contract to a new account (`newOwner`). Can only be called by the current owner."
      }
    },
    "version": 1
  },
  "userdoc": {
    "kind": "user",
    "methods": {},
    "version": 1
  }
}