{
  "contractName": "ERC1155Mintable",
  "abi": [
    {
      "anonymous": false,
      "inputs": [
        {
          "indexed": true,
          "internalType": "address",
          "name": "_owner",
          "type": "address"
        },
        {
          "indexed": true,
          "internalType": "address",
          "name": "_operator",
          "type": "address"
        },
        {
          "indexed": false,
          "internalType": "bool",
          "name": "_approved",
          "type": "bool"
        }
      ],
      "name": "ApprovalForAll",
      "type": "event"
    },
    {
      "anonymous": false,
      "inputs": [
        {
          "indexed": true,
          "internalType": "uint256",
          "name": "_id",
          "type": "uint256"
        },
        {
          "indexed": false,
          "internalType": "address",
          "name": "_proposer",
          "type": "address"
        },
        {
          "indexed": false,
          "internalType": "uint256",
          "name": "_price",
          "type": "uint256"
        }
      ],
      "name": "CallbackAccepted",
      "type": "event"
    },
    {
      "anonymous": false,
      "inputs": [
        {
          "indexed": true,
          "internalType": "uint256",
          "name": "_id",
          "type": "uint256"
        },
        {
          "indexed": false,
          "internalType": "address",
          "name": "_proposer",
          "type": "address"
        },
        {
          "indexed": false,
          "internalType": "uint256",
          "name": "_price",
          "type": "uint256"
        }
      ],
      "name": "CallbackCanceled",
      "type": "event"
    },
    {
      "anonymous": false,
      "inputs": [
        {
          "indexed": true,
          "internalType": "uint256",
          "name": "_id",
          "type": "uint256"
        },
        {
          "indexed": false,
          "internalType": "address",
          "name": "_proposer",
          "type": "address"
        },
        {
          "indexed": false,
          "internalType": "uint256",
          "name": "_price",
          "type": "uint256"
        }
      ],
      "name": "CallbackProposed",
      "type": "event"
    },
    {
      "anonymous": false,
      "inputs": [
        {
          "indexed": true,
          "internalType": "uint256",
          "name": "_id",
          "type": "uint256"
        },
        {
          "indexed": false,
          "internalType": "address",
          "name": "_proposer",
          "type": "address"
        },
        {
          "indexed": false,
          "internalType": "uint256",
          "name": "_price",
          "type": "uint256"
        }
      ],
      "name": "CallbackRefused",
      "type": "event"
    },
    {
      "anonymous": false,
      "inputs": [
        {
          "indexed": true,
          "internalType": "uint256",
          "name": "_id",
          "type": "uint256"
        },
        {
          "indexed": true,
          "internalType": "uint256",
          "name": "_hash",
          "type": "uint256"
        }
      ],
      "name": "MetadataHashUpdated",
      "type": "event"
    },
    {
      "anonymous": false,
      "inputs": [
        {
          "indexed": true,
          "internalType": "address",
          "name": "previousOwner",
          "type": "address"
        },
        {
          "indexed": true,
          "internalType": "address",
          "name": "newOwner",
          "type": "address"
        }
      ],
      "name": "OwnershipTransferred",
      "type": "event"
    },
    {
      "anonymous": false,
      "inputs": [
        {
          "indexed": true,
          "internalType": "address",
          "name": "_operator",
          "type": "address"
        },
        {
          "indexed": true,
          "internalType": "address",
          "name": "_from",
          "type": "address"
        },
        {
          "indexed": true,
          "internalType": "address",
          "name": "_to",
          "type": "address"
        },
        {
          "indexed": false,
          "internalType": "uint256[]",
          "name": "_ids",
          "type": "uint256[]"
        },
        {
          "indexed": false,
          "internalType": "uint256[]",
          "name": "_values",
          "type": "uint256[]"
        }
      ],
      "name": "TransferBatch",
      "type": "event"
    },
    {
      "anonymous": false,
      "inputs": [
        {
          "indexed": true,
          "internalType": "address",
          "name": "_operator",
          "type": "address"
        },
        {
          "indexed": true,
          "internalType": "address",
          "name": "_from",
          "type": "address"
        },
        {
          "indexed": true,
          "internalType": "address",
          "name": "_to",
          "type": "address"
        },
        {
          "indexed": false,
          "internalType": "uint256",
          "name": "_id",
          "type": "uint256"
        },
        {
          "indexed": false,
          "internalType": "uint256",
          "name": "_value",
          "type": "uint256"
        }
      ],
      "name": "TransferSingle",
      "type": "event"
    },
    {
      "anonymous": false,
      "inputs": [
        {
          "indexed": false,
          "internalType": "string",
          "name": "_value",
          "type": "string"
        },
        {
          "indexed": true,
          "internalType": "uint256",
          "name": "_id",
          "type": "uint256"
        }
      ],
      "name": "URI",
      "type": "event"
    },
    {
      "anonymous": false,
      "inputs": [
        {
          "indexed": true,
          "internalType": "address",
          "name": "_tokenizer",
          "type": "address"
        },
        {
          "indexed": false,
          "internalType": "uint256",
          "name": "_id",
          "type": "uint256"
        },
        {
          "indexed": false,
          "internalType": "uint256",
          "name": "_cost",
          "type": "uint256"
        }
      ],
      "name": "UpdateStorageCost",
      "type": "event"
    },
    {
      "anonymous": false,
      "inputs": [
        {
          "indexed": true,
          "internalType": "address",
          "name": "_owner",
          "type": "address"
        },
        {
          "indexed": false,
          "internalType": "uint256",
          "name": "_price",
          "type": "uint256"
        }
      ],
      "name": "UpdateStorageCreditPrice",
      "type": "event"
    },
    {
      "constant": true,
      "inputs": [],
      "name": "BASE_URI",
      "outputs": [
        {
          "internalType": "string",
          "name": "",
          "type": "string"
        }
      ],
      "payable": false,
      "stateMutability": "view",
      "type": "function"
    },
    {
      "constant": true,
      "inputs": [
        {
          "internalType": "uint256",
          "name": "id",
          "type": "uint256"
        }
      ],
      "name": "addressesByToken",
      "outputs": [
        {
          "internalType": "string",
          "name": "result",
          "type": "string"
        }
      ],
      "payable": false,
      "stateMutability": "view",
      "type": "function"
    },
    {
      "constant": true,
      "inputs": [
        {
          "internalType": "address",
          "name": "account",
          "type": "address"
        },
        {
          "internalType": "uint256",
          "name": "id",
          "type": "uint256"
        }
      ],
      "name": "balanceOf",
      "outputs": [
        {
          "internalType": "uint256",
          "name": "",
          "type": "uint256"
        }
      ],
      "payable": false,
      "stateMutability": "view",
      "type": "function"
    },
    {
      "constant": true,
      "inputs": [
        {
          "internalType": "address[]",
          "name": "accounts",
          "type": "address[]"
        },
        {
          "internalType": "uint256[]",
          "name": "ids",
          "type": "uint256[]"
        }
      ],
      "name": "balanceOfBatch",
      "outputs": [
        {
          "internalType": "uint256[]",
          "name": "",
          "type": "uint256[]"
        }
      ],
      "payable": false,
      "stateMutability": "view",
      "type": "function"
    },
    {
      "constant": true,
      "inputs": [
        {
          "internalType": "address",
          "name": "account",
          "type": "address"
        },
        {
          "internalType": "uint256",
          "name": "id",
          "type": "uint256"
        }
      ],
      "name": "birthdayOf",
      "outputs": [
        {
          "internalType": "uint256",
          "name": "",
          "type": "uint256"
        }
      ],
      "payable": false,
      "stateMutability": "view",
      "type": "function"
    },
    {
      "constant": true,
      "inputs": [
        {
          "internalType": "address",
          "name": "account",
          "type": "address"
        },
        {
          "internalType": "address",
          "name": "operator",
          "type": "address"
        }
      ],
      "name": "isApprovedForAll",
      "outputs": [
        {
          "internalType": "bool",
          "name": "",
          "type": "bool"
        }
      ],
      "payable": false,
      "stateMutability": "view",
      "type": "function"
    },
    {
      "constant": true,
      "inputs": [
        {
          "internalType": "address",
          "name": "addr",
          "type": "address"
        }
      ],
      "name": "isLockedAddress",
      "outputs": [
        {
          "internalType": "bool",
          "name": "",
          "type": "bool"
        }
      ],
      "payable": false,
      "stateMutability": "view",
      "type": "function"
    },
    {
      "constant": true,
      "inputs": [
        {
          "internalType": "uint256",
          "name": "id",
          "type": "uint256"
        }
      ],
      "name": "isLockedToken",
      "outputs": [
        {
          "internalType": "bool",
          "name": "",
          "type": "bool"
        }
      ],
      "payable": false,
      "stateMutability": "view",
      "type": "function"
    },
    {
      "constant": false,
      "inputs": [
        {
          "internalType": "address",
          "name": "addr",
          "type": "address"
        }
      ],
      "name": "lockAddress",
      "outputs": [],
      "payable": false,
      "stateMutability": "nonpayable",
      "type": "function"
    },
    {
      "constant": false,
      "inputs": [
        {
          "internalType": "uint256",
          "name": "id",
          "type": "uint256"
        }
      ],
      "name": "lockToken",
      "outputs": [],
      "payable": false,
      "stateMutability": "nonpayable",
      "type": "function"
    },
    {
      "constant": true,
      "inputs": [
        {
          "internalType": "uint256",
          "name": "id",
          "type": "uint256"
        }
      ],
      "name": "metadataHash",
      "outputs": [
        {
          "internalType": "uint256",
          "name": "",
          "type": "uint256"
        }
      ],
      "payable": false,
      "stateMutability": "view",
      "type": "function"
    },
    {
      "constant": true,
      "inputs": [],
      "name": "owner",
      "outputs": [
        {
          "internalType": "address",
          "name": "",
          "type": "address"
        }
      ],
      "payable": false,
      "stateMutability": "view",
      "type": "function"
    },
    {
      "constant": false,
      "inputs": [
        {
          "internalType": "address",
          "name": "from",
          "type": "address"
        },
        {
          "internalType": "address",
          "name": "to",
          "type": "address"
        },
        {
          "internalType": "uint256[]",
          "name": "ids",
          "type": "uint256[]"
        },
        {
          "internalType": "uint256[]",
          "name": "values",
          "type": "uint256[]"
        },
        {
          "internalType": "bytes",
          "name": "data",
          "type": "bytes"
        }
      ],
      "name": "safeBatchTransferFrom",
      "outputs": [],
      "payable": true,
      "stateMutability": "payable",
      "type": "function"
    },
    {
      "constant": false,
      "inputs": [
        {
          "internalType": "address",
          "name": "from",
          "type": "address"
        },
        {
          "internalType": "address",
          "name": "to",
          "type": "address"
        },
        {
          "internalType": "uint256",
          "name": "id",
          "type": "uint256"
        },
        {
          "internalType": "uint256",
          "name": "value",
          "type": "uint256"
        },
        {
          "internalType": "bytes",
          "name": "data",
          "type": "bytes"
        }
      ],
      "name": "safeTransferFrom",
      "outputs": [],
      "payable": true,
      "stateMutability": "payable",
      "type": "function"
    },
    {
      "constant": false,
      "inputs": [
        {
          "internalType": "address",
          "name": "operator",
          "type": "address"
        },
        {
          "internalType": "bool",
          "name": "approved",
          "type": "bool"
        }
      ],
      "name": "setApprovalForAll",
      "outputs": [],
      "payable": false,
      "stateMutability": "nonpayable",
      "type": "function"
    },
    {
      "constant": true,
      "inputs": [
        {
          "internalType": "address",
          "name": "account",
          "type": "address"
        },
        {
          "internalType": "uint256",
          "name": "id",
          "type": "uint256"
        },
        {
          "internalType": "uint256",
          "name": "value",
          "type": "uint256"
        }
      ],
      "name": "storageFees",
      "outputs": [
        {
          "internalType": "uint256",
          "name": "",
          "type": "uint256"
        }
      ],
      "payable": false,
      "stateMutability": "view",
      "type": "function"
    },
    {
      "constant": true,
      "inputs": [
        {
          "internalType": "bytes4",
          "name": "_interfaceID",
          "type": "bytes4"
        }
      ],
      "name": "supportsInterface",
      "outputs": [
        {
          "internalType": "bool",
          "name": "",
          "type": "bool"
        }
      ],
      "payable": false,
      "stateMutability": "view",
      "type": "function"
    },
    {
      "constant": true,
      "inputs": [
        {
          "internalType": "address",
          "name": "account",
          "type": "address"
        }
      ],
      "name": "tokensByAddress",
      "outputs": [
        {
          "internalType": "string",
          "name": "result",
          "type": "string"
        }
      ],
      "payable": false,
      "stateMutability": "view",
      "type": "function"
    },
    {
      "constant": false,
      "inputs": [
        {
          "internalType": "address",
          "name": "newOwner",
          "type": "address"
        }
      ],
      "name": "transferOwnership",
      "outputs": [],
      "payable": false,
      "stateMutability": "nonpayable",
      "type": "function"
    },
    {
      "constant": false,
      "inputs": [
        {
          "internalType": "address",
          "name": "addr",
          "type": "address"
        }
      ],
      "name": "unlockAddress",
      "outputs": [],
      "payable": false,
      "stateMutability": "nonpayable",
      "type": "function"
    },
    {
      "constant": false,
      "inputs": [
        {
          "internalType": "uint256",
          "name": "id",
          "type": "uint256"
        }
      ],
      "name": "unlockToken",
      "outputs": [],
      "payable": false,
      "stateMutability": "nonpayable",
      "type": "function"
    },
    {
      "constant": true,
      "inputs": [
        {
          "internalType": "uint256",
          "name": "id",
          "type": "uint256"
        }
      ],
      "name": "uri",
      "outputs": [
        {
          "internalType": "string",
          "name": "",
          "type": "string"
        }
      ],
      "payable": false,
      "stateMutability": "view",
      "type": "function"
    },
    {
      "constant": false,
      "inputs": [
        {
          "internalType": "address",
          "name": "tokenizer",
          "type": "address"
        }
      ],
      "name": "authorizeTokenizer",
      "outputs": [],
      "payable": false,
      "stateMutability": "nonpayable",
      "type": "function"
    },
    {
      "constant": false,
      "inputs": [
        {
          "internalType": "address",
          "name": "tokenizer",
          "type": "address"
        }
      ],
      "name": "revokeTokenizer",
      "outputs": [],
      "payable": false,
      "stateMutability": "nonpayable",
      "type": "function"
    },
    {
      "constant": true,
      "inputs": [
        {
          "internalType": "address",
          "name": "tokenizer",
          "type": "address"
        }
      ],
      "name": "isTokenizer",
      "outputs": [
        {
          "internalType": "bool",
          "name": "",
          "type": "bool"
        }
      ],
      "payable": false,
      "stateMutability": "view",
      "type": "function"
    },
    {
      "constant": false,
      "inputs": [
        {
          "internalType": "address",
          "name": "recipient",
          "type": "address"
        },
        {
          "internalType": "uint256",
          "name": "id",
          "type": "uint256"
        },
        {
          "internalType": "uint256",
          "name": "supply",
          "type": "uint256"
        },
        {
          "internalType": "uint256",
          "name": "metadataHash",
          "type": "uint256"
        },
        {
          "internalType": "uint256",
          "name": "storageCreditCost",
          "type": "uint256"
        },
        {
          "internalType": "address[]",
          "name": "feesRecipients",
          "type": "address[]"
        },
        {
          "internalType": "uint256[]",
          "name": "feesRecipientsPercentage",
          "type": "uint256[]"
        }
      ],
      "name": "createToken",
      "outputs": [],
      "payable": false,
      "stateMutability": "nonpayable",
      "type": "function"
    },
    {
      "constant": false,
      "inputs": [
        {
          "internalType": "uint256",
          "name": "supply",
          "type": "uint256"
        },
        {
          "internalType": "uint256",
          "name": "storageCreditCost",
          "type": "uint256"
        },
        {
          "internalType": "address[]",
          "name": "feesRecipients",
          "type": "address[]"
        },
        {
          "internalType": "uint256[]",
          "name": "feesRecipientsPercentage",
          "type": "uint256[]"
        }
      ],
      "name": "setCreateTokensDefaultValues",
      "outputs": [],
      "payable": false,
      "stateMutability": "nonpayable",
      "type": "function"
    },
    {
      "constant": false,
      "inputs": [
        {
          "internalType": "address",
          "name": "recipient",
          "type": "address"
        },
        {
          "internalType": "uint256[]",
          "name": "ids",
          "type": "uint256[]"
        },
        {
          "internalType": "uint256[]",
          "name": "metadataHashes",
          "type": "uint256[]"
        }
      ],
      "name": "createTokens",
      "outputs": [],
      "payable": false,
      "stateMutability": "nonpayable",
      "type": "function"
    },
    {
      "constant": false,
      "inputs": [
        {
          "internalType": "uint256",
          "name": "id",
          "type": "uint256"
        },
        {
          "internalType": "uint256",
          "name": "metadataHash",
          "type": "uint256"
        }
      ],
      "name": "updateMetadataHash",
      "outputs": [],
      "payable": false,
      "stateMutability": "nonpayable",
      "type": "function"
    },
    {
      "constant": false,
      "inputs": [
        {
          "internalType": "uint256",
          "name": "newPrice",
          "type": "uint256"
        }
      ],
      "name": "updateStorageCreditPrice",
      "outputs": [],
      "payable": false,
      "stateMutability": "nonpayable",
      "type": "function"
    },
    {
      "constant": false,
      "inputs": [
        {
          "internalType": "uint256",
          "name": "id",
          "type": "uint256"
        },
        {
          "internalType": "uint256",
          "name": "newCost",
          "type": "uint256"
        }
      ],
      "name": "updateStorageCost",
      "outputs": [],
      "payable": false,
      "stateMutability": "nonpayable",
      "type": "function"
    },
    {
      "constant": false,
      "inputs": [
        {
          "internalType": "address",
          "name": "to",
          "type": "address"
        },
        {
          "internalType": "uint256",
          "name": "amount",
          "type": "uint256"
        }
      ],
      "name": "withdraw",
      "outputs": [],
      "payable": false,
      "stateMutability": "nonpayable",
      "type": "function"
    },
    {
      "constant": false,
      "inputs": [
        {
          "internalType": "uint256",
          "name": "id",
          "type": "uint256"
        },
        {
          "internalType": "uint256",
          "name": "price",
          "type": "uint256"
        }
      ],
      "name": "proposeCallback",
      "outputs": [],
      "payable": true,
      "stateMutability": "payable",
      "type": "function"
    },
    {
      "constant": false,
      "inputs": [
        {
          "internalType": "uint256",
          "name": "id",
          "type": "uint256"
        },
        {
          "internalType": "address",
          "name": "proposer",
          "type": "address"
        }
      ],
      "name": "refuseCallback",
      "outputs": [],
      "payable": false,
      "stateMutability": "nonpayable",
      "type": "function"
    },
    {
      "constant": false,
      "inputs": [
        {
          "internalType": "uint256",
          "name": "id",
          "type": "uint256"
        },
        {
          "internalType": "address",
          "name": "proposer",
          "type": "address"
        }
      ],
      "name": "acceptCallback",
      "outputs": [],
      "payable": false,
      "stateMutability": "nonpayable",
      "type": "function"
    },
    {
      "constant": true,
      "inputs": [
        {
          "internalType": "uint256",
          "name": "id",
          "type": "uint256"
        }
      ],
      "name": "totalSupply",
      "outputs": [
        {
          "internalType": "uint256",
          "name": "",
          "type": "uint256"
        }
      ],
      "payable": false,
      "stateMutability": "view",
      "type": "function"
    }
  ],
  "bytecode": "0x60806040526103e8600655611f4060115562000021336200002760201b60201c565b6200016d565b600073ffffffffffffffffffffffffffffffffffffffff168173ffffffffffffffffffffffffffffffffffffffff161415620000af576040517f08c379a0000000000000000000000000000000000000000000000000000000008152600401808060200182810382526026815260200180620068686026913960400191505060405180910390fd5b8073ffffffffffffffffffffffffffffffffffffffff166000809054906101000a900473ffffffffffffffffffffffffffffffffffffffff1673ffffffffffffffffffffffffffffffffffffffff167f8be0079c531659141344cd1fd0a4f28419497f9722a3daafe3b4186f6b6457e060405160405180910390a3806000806101000a81548173ffffffffffffffffffffffffffffffffffffffff021916908373ffffffffffffffffffffffffffffffffffffffff16021790555050565b6166eb806200017d6000396000f3fe60806040526004361061020e5760003560e01c8063a22cb46511610118578063d6bc5942116100a0578063e985e9c51161006f578063e985e9c5146111a5578063f242432a1461122e578063f2fde38b146112fb578063f38320ce1461134c578063f3fef3a3146114475761020e565b8063d6bc594214610fa1578063dbddb26a1461106b578063dd2e0ac0146110fb578063e1c95f8a146111365761020e565b8063bba75c83116100e7578063bba75c8314610db4578063bd85b03914610e07578063c02f303c14610e56578063c4be3c3c14610ebf578063cba54e6014610f385761020e565b8063a22cb46514610bf7578063a294007214610c54578063b5690ac114610caf578063b7eb5e0a14610d635761020e565b80636fe8ded21161019b5780638495b1411161016a5780638495b141146109e05780638870147b14610a1b5780638da5cb5b14610a6c578063935a365014610ac3578063939cd64114610bb25761020e565b80636fe8ded2146108c157806370e0b1451461091c5780637627b7321461095457806380f20363146109a55761020e565b80632eb2c2d6116101e25780632eb2c2d6146103f757806334a90d021461055a5780634e1273f4146105ab5780634fa2dbea146107595780636b62becb1461087c5761020e565b8062fdd58e1461021357806301ffc9a7146102825780630e89341c146102f4578063219cc8bc146103a8575b600080fd5b34801561021f57600080fd5b5061026c6004803603604081101561023657600080fd5b81019080803573ffffffffffffffffffffffffffffffffffffffff169060200190929190803590602001909291905050506114a2565b6040518082815260200191505060405180910390f35b34801561028e57600080fd5b506102da600480360360208110156102a557600080fd5b8101908080357bffffffffffffffffffffffffffffffffffffffffffffffffffffffff19169060200190929190505050611582565b604051808215151515815260200191505060405180910390f35b34801561030057600080fd5b5061032d6004803603602081101561031757600080fd5b8101908080359060200190929190505050611633565b6040518080602001828103825283818151815260200191508051906020019080838360005b8381101561036d578082015181840152602081019050610352565b50505050905090810190601f16801561039a5780820380516001836020036101000a031916815260200191505b509250505060405180910390f35b3480156103b457600080fd5b506103e1600480360360208110156103cb57600080fd5b8101908080359060200190929190505050611683565b6040518082815260200191505060405180910390f35b610558600480360360a081101561040d57600080fd5b81019080803573ffffffffffffffffffffffffffffffffffffffff169060200190929190803573ffffffffffffffffffffffffffffffffffffffff1690602001909291908035906020019064010000000081111561046a57600080fd5b82018360208201111561047c57600080fd5b8035906020019184602083028401116401000000008311171561049e57600080fd5b9091929391929390803590602001906401000000008111156104bf57600080fd5b8201836020820111156104d157600080fd5b803590602001918460208302840111640100000000831117156104f357600080fd5b90919293919293908035906020019064010000000081111561051457600080fd5b82018360208201111561052657600080fd5b8035906020019184600183028401116401000000008311171561054857600080fd5b90919293919293905050506116a0565b005b34801561056657600080fd5b506105a96004803603602081101561057d57600080fd5b81019080803573ffffffffffffffffffffffffffffffffffffffff169060200190929190505050611b1f565b005b3480156105b757600080fd5b50610702600480360360408110156105ce57600080fd5b81019080803590602001906401000000008111156105eb57600080fd5b8201836020820111156105fd57600080fd5b8035906020019184602083028401116401000000008311171561061f57600080fd5b919080806020026020016040519081016040528093929190818152602001838360200280828437600081840152601f19601f8201169050808301925050505050505091929192908035906020019064010000000081111561067f57600080fd5b82018360208201111561069157600080fd5b803590602001918460208302840111640100000000831117156106b357600080fd5b919080806020026020016040519081016040528093929190818152602001838360200280828437600081840152601f19601f820116905080830192505050505050509192919290505050611bf4565b6040518080602001828103825283818151815260200191508051906020019060200280838360005b8381101561074557808201518184015260208101905061072a565b505050509050019250505060405180910390f35b34801561076557600080fd5b5061087a600480360360e081101561077c57600080fd5b81019080803573ffffffffffffffffffffffffffffffffffffffff16906020019092919080359060200190929190803590602001909291908035906020019092919080359060200190929190803590602001906401000000008111156107e157600080fd5b8201836020820111156107f357600080fd5b8035906020019184602083028401116401000000008311171561081557600080fd5b90919293919293908035906020019064010000000081111561083657600080fd5b82018360208201111561084857600080fd5b8035906020019184602083028401116401000000008311171561086a57600080fd5b9091929391929390505050611dd2565b005b34801561088857600080fd5b506108bf6004803603604081101561089f57600080fd5b810190808035906020019092919080359060200190929190505050611ecc565b005b3480156108cd57600080fd5b5061091a600480360360408110156108e457600080fd5b8101908080359060200190929190803573ffffffffffffffffffffffffffffffffffffffff169060200190929190505050611f38565b005b6109526004803603604081101561093257600080fd5b81019080803590602001909291908035906020019092919050505061220a565b005b34801561096057600080fd5b506109a36004803603602081101561097757600080fd5b81019080803573ffffffffffffffffffffffffffffffffffffffff1690602001909291905050506125a6565b005b3480156109b157600080fd5b506109de600480360360208110156109c857600080fd5b810190808035906020019092919050505061267b565b005b3480156109ec57600080fd5b50610a1960048036036020811015610a0357600080fd5b8101908080359060200190929190505050612723565b005b348015610a2757600080fd5b50610a6a60048036036020811015610a3e57600080fd5b81019080803573ffffffffffffffffffffffffffffffffffffffff1690602001909291905050506127d9565b005b348015610a7857600080fd5b50610a816128ae565b604051808273ffffffffffffffffffffffffffffffffffffffff1673ffffffffffffffffffffffffffffffffffffffff16815260200191505060405180910390f35b348015610acf57600080fd5b50610bb060048036036080811015610ae657600080fd5b81019080803590602001909291908035906020019092919080359060200190640100000000811115610b1757600080fd5b820183602082011115610b2957600080fd5b80359060200191846020830284011164010000000083111715610b4b57600080fd5b909192939192939080359060200190640100000000811115610b6c57600080fd5b820183602082011115610b7e57600080fd5b80359060200191846020830284011164010000000083111715610ba057600080fd5b90919293919293905050506128d7565b005b348015610bbe57600080fd5b50610bf560048036036040811015610bd557600080fd5b81019080803590602001909291908035906020019092919050505061296f565b005b348015610c0357600080fd5b50610c5260048036036040811015610c1a57600080fd5b81019080803573ffffffffffffffffffffffffffffffffffffffff169060200190929190803515159060200190929190505050612a8a565b005b348015610c6057600080fd5b50610cad60048036036040811015610c7757600080fd5b8101908080359060200190929190803573ffffffffffffffffffffffffffffffffffffffff169060200190929190505050612c10565b005b348015610cbb57600080fd5b50610ce860048036036020811015610cd257600080fd5b81019080803590602001909291905050506132c4565b6040518080602001828103825283818151815260200191508051906020019080838360005b83811015610d28578082015181840152602081019050610d0d565b50505050905090810190601f168015610d555780820380516001836020036101000a031916815260200191505b509250505060405180910390f35b348015610d6f57600080fd5b50610db260048036036020811015610d8657600080fd5b81019080803573ffffffffffffffffffffffffffffffffffffffff169060200190929190505050613444565b005b348015610dc057600080fd5b50610ded60048036036020811015610dd757600080fd5b8101908080359060200190929190505050613519565b604051808215151515815260200191505060405180910390f35b348015610e1357600080fd5b50610e4060048036036020811015610e2a57600080fd5b810190808035906020019092919050505061352b565b6040518082815260200191505060405180910390f35b348015610e6257600080fd5b50610ea560048036036020811015610e7957600080fd5b81019080803573ffffffffffffffffffffffffffffffffffffffff169060200190929190505050613548565b604051808215151515815260200191505060405180910390f35b348015610ecb57600080fd5b50610f2260048036036060811015610ee257600080fd5b81019080803573ffffffffffffffffffffffffffffffffffffffff169060200190929190803590602001909291908035906020019092919050505061355a565b6040518082815260200191505060405180910390f35b348015610f4457600080fd5b50610f8760048036036020811015610f5b57600080fd5b81019080803573ffffffffffffffffffffffffffffffffffffffff169060200190929190505050613570565b604051808215151515815260200191505060405180910390f35b348015610fad57600080fd5b50610ff060048036036020811015610fc457600080fd5b81019080803573ffffffffffffffffffffffffffffffffffffffff169060200190929190505050613582565b6040518080602001828103825283818151815260200191508051906020019080838360005b83811015611030578082015181840152602081019050611015565b50505050905090810190601f16801561105d5780820380516001836020036101000a031916815260200191505b509250505060405180910390f35b34801561107757600080fd5b50611080613794565b6040518080602001828103825283818151815260200191508051906020019080838360005b838110156110c05780820151818401526020810190506110a5565b50505050905090810190601f1680156110ed5780820380516001836020036101000a031916815260200191505b509250505060405180910390f35b34801561110757600080fd5b506111346004803603602081101561111e57600080fd5b81019080803590602001909291905050506137cd565b005b34801561114257600080fd5b5061118f6004803603604081101561115957600080fd5b81019080803573ffffffffffffffffffffffffffffffffffffffff16906020019092919080359060200190929190505050613876565b6040518082815260200191505060405180910390f35b3480156111b157600080fd5b50611214600480360360408110156111c857600080fd5b81019080803573ffffffffffffffffffffffffffffffffffffffff169060200190929190803573ffffffffffffffffffffffffffffffffffffffff1690602001909291905050506139b6565b604051808215151515815260200191505060405180910390f35b6112f9600480360360a081101561124457600080fd5b81019080803573ffffffffffffffffffffffffffffffffffffffff169060200190929190803573ffffffffffffffffffffffffffffffffffffffff1690602001909291908035906020019092919080359060200190929190803590602001906401000000008111156112b557600080fd5b8201836020820111156112c757600080fd5b803590602001918460018302840111640100000000831117156112e957600080fd5b9091929391929390505050613a4a565b005b34801561130757600080fd5b5061134a6004803603602081101561131e57600080fd5b81019080803573ffffffffffffffffffffffffffffffffffffffff169060200190929190505050613d48565b005b34801561135857600080fd5b506114456004803603606081101561136f57600080fd5b81019080803573ffffffffffffffffffffffffffffffffffffffff169060200190929190803590602001906401000000008111156113ac57600080fd5b8201836020820111156113be57600080fd5b803590602001918460208302840111640100000000831117156113e057600080fd5b90919293919293908035906020019064010000000081111561140157600080fd5b82018360208201111561141357600080fd5b8035906020019184602083028401116401000000008311171561143557600080fd5b9091929391929390505050613dce565b005b34801561145357600080fd5b506114a06004803603604081101561146a57600080fd5b81019080803573ffffffffffffffffffffffffffffffffffffffff16906020019092919080359060200190929190505050613f5d565b005b60008073ffffffffffffffffffffffffffffffffffffffff168373ffffffffffffffffffffffffffffffffffffffff161415611529576040517f08c379a000000000000000000000000000000000000000000000000000000000815260040180806020018281038252602b815260200180616212602b913960400191505060405180910390fd5b6003600083815260200190815260200160002060008473ffffffffffffffffffffffffffffffffffffffff1673ffffffffffffffffffffffffffffffffffffffff16815260200190815260200160002054905092915050565b60006301ffc9a760e01b7bffffffffffffffffffffffffffffffffffffffffffffffffffffffff1916827bffffffffffffffffffffffffffffffffffffffffffffffffffffffff1916148061161b575063d9b67a2660e01b7bffffffffffffffffffffffffffffffffffffffffffffffffffffffff1916827bffffffffffffffffffffffffffffffffffffffffffffffffffffffff1916145b15611629576001905061162e565b600090505b919050565b606061167c6040518060400160405280601d81526020017f68747470733a2f2f7374617368626c6f782e636f6d2f746f6b656e732f0000008152506116778461414c565b61423b565b9050919050565b6000600e6000838152602001908152602001600020549050919050565b8383905086869050146116fe576040517f08c379a000000000000000000000000000000000000000000000000000000000815260040180806020018281038252602e8152602001806165d0602e913960400191505060405180910390fd5b600073ffffffffffffffffffffffffffffffffffffffff168773ffffffffffffffffffffffffffffffffffffffff161415611784576040517f08c379a00000000000000000000000000000000000000000000000000000000081526004018080602001828103825260288152602001806162636028913960400191505060405180910390fd5b3373ffffffffffffffffffffffffffffffffffffffff168873ffffffffffffffffffffffffffffffffffffffff1614806117cb5750600115156117c789336139b6565b1515145b611820576040517f08c379a00000000000000000000000000000000000000000000000000000000081526004018080602001828103825260378152602001806165996037913960400191505060405180910390fd5b600034905060008090505b87879050811015611876576118678a8a8a8a8581811061184757fe5b9050602002013589898681811061185a57fe5b9050602002013586614386565b8203915080600101905061182b565b508773ffffffffffffffffffffffffffffffffffffffff168973ffffffffffffffffffffffffffffffffffffffff163373ffffffffffffffffffffffffffffffffffffffff167f4a39dc06d4c0dbc64b70af90fd698a233a518aa5d07e595d983b8c0526c8f7fb8a8a8a8a6040518080602001806020018381038352878782818152602001925060200280828437600081840152601f19601f8201169050808301925050508381038252858582818152602001925060200280828437600081840152601f19601f820116905080830192505050965050505050505060405180910390a4611a2d338a8a8a8a80806020026020016040519081016040528093929190818152602001838360200280828437600081840152601f19601f82011690508083019250505050505050898980806020026020016040519081016040528093929190818152602001838360200280828437600081840152601f19601f8201169050808301925050505050505088888080601f016020809104026020016040519081016040528093929190818152602001838380828437600081840152601f19601f82011690508083019250505050505050614ab2565b6000811115611b145760003373ffffffffffffffffffffffffffffffffffffffff168260405180600001905060006040518083038185875af1925050503d8060008114611a96576040519150601f19603f3d011682016040523d82523d6000602084013e611a9b565b606091505b5050905080611b12576040517f08c379a00000000000000000000000000000000000000000000000000000000081526004018080602001828103825260108152602001807f5472616e73666572206661696c65642e0000000000000000000000000000000081525060200191505060405180910390fd5b505b505050505050505050565b611b27614d81565b611b99576040517f08c379a00000000000000000000000000000000000000000000000000000000081526004018080602001828103825260208152602001807f4f776e61626c653a2063616c6c6572206973206e6f7420746865206f776e657281525060200191505060405180910390fd5b6001600260008373ffffffffffffffffffffffffffffffffffffffff1673ffffffffffffffffffffffffffffffffffffffff16815260200190815260200160002060006101000a81548160ff02191690831515021790555050565b60608151835114611c50576040517f08c379a000000000000000000000000000000000000000000000000000000000815260040180806020018281038252603081526020018061636d6030913960400191505060405180910390fd5b60608351604051908082528060200260200182016040528015611c825781602001602082028038833980820191505090505b50905060008090505b8451811015611dc757600073ffffffffffffffffffffffffffffffffffffffff16858281518110611cb857fe5b602002602001015173ffffffffffffffffffffffffffffffffffffffff161415611d2d576040517f08c379a00000000000000000000000000000000000000000000000000000000081526004018080602001828103825260348152602001806163fd6034913960400191505060405180910390fd5b60036000858381518110611d3d57fe5b602002602001015181526020019081526020016000206000868381518110611d6157fe5b602002602001015173ffffffffffffffffffffffffffffffffffffffff1673ffffffffffffffffffffffffffffffffffffffff16815260200190815260200160002054828281518110611db057fe5b602002602001018181525050806001019050611c8b565b508091505092915050565b611ddb33614dd8565b611e30576040517f08c379a00000000000000000000000000000000000000000000000000000000081526004018080602001828103825260238152602001806163146023913960400191505060405180910390fd5b611ec18989898989898980806020026020016040519081016040528093929190818152602001838360200280828437600081840152601f19601f82011690508083019250505050505050888880806020026020016040519081016040528093929190818152602001838360200280828437600081840152601f19601f82011690508083019250505050505050614e3d565b505050505050505050565b611ed533614dd8565b611f2a576040517f08c379a00000000000000000000000000000000000000000000000000000000081526004018080602001828103825260238152602001806163146023913960400191505060405180910390fd5b611f34828261540a565b5050565b611f40614d81565b611fb2576040517f08c379a00000000000000000000000000000000000000000000000000000000081526004018080602001828103825260208152602001807f4f776e61626c653a2063616c6c6572206973206e6f7420746865206f776e657281525060200191505060405180910390fd5b60006012600084815260200190815260200160002060008373ffffffffffffffffffffffffffffffffffffffff1673ffffffffffffffffffffffffffffffffffffffff16815260200190815260200160002060006002811061201057fe5b0154905060006012600085815260200190815260200160002060008473ffffffffffffffffffffffffffffffffffffffff1673ffffffffffffffffffffffffffffffffffffffff16815260200190815260200160002060016002811061207257fe5b01549050600082116120cf576040517f08c379a000000000000000000000000000000000000000000000000000000000815260040180806020018281038252602a8152602001806164b1602a913960400191505060405180910390fd5b80600960008573ffffffffffffffffffffffffffffffffffffffff1673ffffffffffffffffffffffffffffffffffffffff168152602001908152602001600020600082825401925050819055506040518060400160405280600060ff168152602001600060ff168152506012600086815260200190815260200160002060008573ffffffffffffffffffffffffffffffffffffffff1673ffffffffffffffffffffffffffffffffffffffff168152602001908152602001600020906002612197929190615f28565b50837fd7e908f6f9af1236bea3e4382bb17cabca5929dec62fbb431284240820150ddd8484604051808373ffffffffffffffffffffffffffffffffffffffff1673ffffffffffffffffffffffffffffffffffffffff1681526020018281526020019250505060405180910390a250505050565b6000600f60008481526020019081526020016000205411612293576040517f08c379a00000000000000000000000000000000000000000000000000000000081526004018080602001828103825260198152602001807f5374617368426c6f783a20556e6b6e6f776e20746f6b656e2e0000000000000081525060200191505060405180910390fd5b600081116122ec576040517f08c379a00000000000000000000000000000000000000000000000000000000081526004018080602001828103825260288152602001806162b76028913960400191505060405180910390fd5b600061232a61271061231c601154600f60008881526020019081526020016000205461545490919063ffffffff16565b6154da90919063ffffffff16565b9050806003600085815260200190815260200160002060003373ffffffffffffffffffffffffffffffffffffffff1673ffffffffffffffffffffffffffffffffffffffff1681526020019081526020016000205410156123d5576040517f08c379a00000000000000000000000000000000000000000000000000000000081526004018080602001828103825260368152602001806163376036913960400191505060405180910390fd5b600061244d6003600086815260200190815260200160002060003373ffffffffffffffffffffffffffffffffffffffff1673ffffffffffffffffffffffffffffffffffffffff16815260200190815260200160002054600f60008781526020019081526020016000205461552490919063ffffffff16565b90506000612464848361545490919063ffffffff16565b9050803410156124bf576040517f08c379a000000000000000000000000000000000000000000000000000000000815260040180806020018281038252603581526020018061647c6035913960400191505060405180910390fd5b6040518060400160405280858152602001348152506012600087815260200190815260200160002060003373ffffffffffffffffffffffffffffffffffffffff1673ffffffffffffffffffffffffffffffffffffffff168152602001908152602001600020906002612532929190615f6d565b50847f2a7673db20f80755f65f456687dc9fd630454e8c76e428cb4a4ae1d0410cef5e3386604051808373ffffffffffffffffffffffffffffffffffffffff1673ffffffffffffffffffffffffffffffffffffffff1681526020018281526020019250505060405180910390a25050505050565b6125ae614d81565b612620576040517f08c379a00000000000000000000000000000000000000000000000000000000081526004018080602001828103825260208152602001807f4f776e61626c653a2063616c6c6572206973206e6f7420746865206f776e657281525060200191505060405180910390fd5b6001601060008373ffffffffffffffffffffffffffffffffffffffff1673ffffffffffffffffffffffffffffffffffffffff16815260200190815260200160002060006101000a81548160ff02191690831515021790555050565b612683614d81565b6126f5576040517f08c379a00000000000000000000000000000000000000000000000000000000081526004018080602001828103825260208152602001807f4f776e61626c653a2063616c6c6572206973206e6f7420746865206f776e657281525060200191505060405180910390fd5b600180600083815260200190815260200160002060006101000a81548160ff02191690831515021790555050565b61272c33614dd8565b612781576040517f08c379a00000000000000000000000000000000000000000000000000000000081526004018080602001828103825260238152602001806163146023913960400191505060405180910390fd5b806006819055503373ffffffffffffffffffffffffffffffffffffffff167f5c5a35dc0829d2f6a31d1d6da57c4315ba7b562ee447c87b75c732cfd96abde9826040518082815260200191505060405180910390a250565b6127e1614d81565b612853576040517f08c379a00000000000000000000000000000000000000000000000000000000081526004018080602001828103825260208152602001807f4f776e61626c653a2063616c6c6572206973206e6f7420746865206f776e657281525060200191505060405180910390fd5b6000601060008373ffffffffffffffffffffffffffffffffffffffff1673ffffffffffffffffffffffffffffffffffffffff16815260200190815260200160002060006101000a81548160ff02191690831515021790555050565b60008060009054906101000a900473ffffffffffffffffffffffffffffffffffffffff16905090565b6128e033614dd8565b612935576040517f08c379a00000000000000000000000000000000000000000000000000000000081526004018080602001828103825260238152602001806163146023913960400191505060405180910390fd5b8560138190555084601481905550838360159190612954929190615fad565b5081816016919061296692919061604d565b50505050505050565b61297833614dd8565b6129cd576040517f08c379a00000000000000000000000000000000000000000000000000000000081526004018080602001828103825260238152602001806163146023913960400191505060405180910390fd5b6005600083815260200190815260200160002060405180604001604052804281526020018381525090806001815401808255809150509060018203906000526020600020906002020160009091929091909150906002612a2e929190615f6d565b50503373ffffffffffffffffffffffffffffffffffffffff167f4bd9446604f43017ac3918d8db419b59a3b6f2a6cdd456eed5de99621bb627658383604051808381526020018281526020019250505060405180910390a25050565b8173ffffffffffffffffffffffffffffffffffffffff163373ffffffffffffffffffffffffffffffffffffffff161415612b0f576040517f08c379a000000000000000000000000000000000000000000000000000000000815260040180806020018281038252602c81526020018061628b602c913960400191505060405180910390fd5b80600d60003373ffffffffffffffffffffffffffffffffffffffff1673ffffffffffffffffffffffffffffffffffffffff16815260200190815260200160002060008473ffffffffffffffffffffffffffffffffffffffff1673ffffffffffffffffffffffffffffffffffffffff16815260200190815260200160002060006101000a81548160ff0219169083151502179055508173ffffffffffffffffffffffffffffffffffffffff163373ffffffffffffffffffffffffffffffffffffffff167f17307eab39ab6107e8899845ad3d59bd9653f200f220920489ca2b5937696c3183604051808215151515815260200191505060405180910390a35050565b612c18614d81565b612c8a576040517f08c379a00000000000000000000000000000000000000000000000000000000081526004018080602001828103825260208152602001807f4f776e61626c653a2063616c6c6572206973206e6f7420746865206f776e657281525060200191505060405180910390fd5b60006012600084815260200190815260200160002060008373ffffffffffffffffffffffffffffffffffffffff1673ffffffffffffffffffffffffffffffffffffffff168152602001908152602001600020600060028110612ce857fe5b0154905060006012600085815260200190815260200160002060008473ffffffffffffffffffffffffffffffffffffffff1673ffffffffffffffffffffffffffffffffffffffff168152602001908152602001600020600160028110612d4a57fe5b0154905060008211612da7576040517f08c379a000000000000000000000000000000000000000000000000000000000815260040180806020018281038252602a8152602001806164b1602a913960400191505060405180910390fd5b6000612de5612710612dd7601154600f60008a81526020019081526020016000205461545490919063ffffffff16565b6154da90919063ffffffff16565b9050806003600087815260200190815260200160002060003373ffffffffffffffffffffffffffffffffffffffff1673ffffffffffffffffffffffffffffffffffffffff168152602001908152602001600020541015612e90576040517f08c379a00000000000000000000000000000000000000000000000000000000081526004018080602001828103825260388152602001806161da6038913960400191505060405180910390fd5b6000612f086003600088815260200190815260200160002060003373ffffffffffffffffffffffffffffffffffffffff1673ffffffffffffffffffffffffffffffffffffffff16815260200190815260200160002054600f60008981526020019081526020016000205461552490919063ffffffff16565b90506000612f1f858361545490919063ffffffff16565b905080841015612f7a576040517f08c379a000000000000000000000000000000000000000000000000000000000815260040180806020018281038252603f81526020018061655a603f913960400191505060405180910390fd5b60008090505b600b600089815260200190815260200160002080549050811015613112576000600b60008a81526020019081526020016000208281548110612fbe57fe5b9060005260206000200160009054906101000a900473ffffffffffffffffffffffffffffffffffffffff1690506000600360008b815260200190815260200160002060008373ffffffffffffffffffffffffffffffffffffffff1673ffffffffffffffffffffffffffffffffffffffff168152602001908152602001600020549050600081111561310557600061305e828a61545490919063ffffffff16565b905080600960008573ffffffffffffffffffffffffffffffffffffffff1673ffffffffffffffffffffffffffffffffffffffff168152602001908152602001600020600082825401925050819055506000600360008d815260200190815260200160002060008573ffffffffffffffffffffffffffffffffffffffff1673ffffffffffffffffffffffffffffffffffffffff16815260200190815260200160002081905550505b5050806001019050612f80565b50600f6000888152602001908152602001600020546003600089815260200190815260200160002060008873ffffffffffffffffffffffffffffffffffffffff1673ffffffffffffffffffffffffffffffffffffffff16815260200190815260200160002081905550808411156131d357808403600960008873ffffffffffffffffffffffffffffffffffffffff1673ffffffffffffffffffffffffffffffffffffffff168152602001908152602001600020600082825401925050819055505b6040518060400160405280600060ff168152602001600060ff168152506012600089815260200190815260200160002060008873ffffffffffffffffffffffffffffffffffffffff1673ffffffffffffffffffffffffffffffffffffffff16815260200190815260200160002090600261324e929190615f28565b50867f1a28571d07f35a57e1ed755a57928ae32539f444bbcef661637165f04fb5083f8787604051808373ffffffffffffffffffffffffffffffffffffffff1673ffffffffffffffffffffffffffffffffffffffff1681526020018281526020019250505060405180910390a250505050505050565b606060008090505b600b60008481526020019081526020016000208054905081101561343b576000600b6000858152602001908152602001600020828154811061330a57fe5b9060005260206000200160009054906101000a900473ffffffffffffffffffffffffffffffffffffffff16905060006003600086815260200190815260200160002060008373ffffffffffffffffffffffffffffffffffffffff1673ffffffffffffffffffffffffffffffffffffffff16815260200190815260200160002054111561342d5760008351111561340a576133d9836040518060400160405280600181526020017f200000000000000000000000000000000000000000000000000000000000000081525061423b565b9250613403836133fe8373ffffffffffffffffffffffffffffffffffffffff1661414c565b61423b565b925061342c565b6134298173ffffffffffffffffffffffffffffffffffffffff1661414c565b92505b5b5080806001019150506132cc565b50809050919050565b61344c614d81565b6134be576040517f08c379a00000000000000000000000000000000000000000000000000000000081526004018080602001828103825260208152602001807f4f776e61626c653a2063616c6c6572206973206e6f7420746865206f776e657281525060200191505060405180910390fd5b6000600260008373ffffffffffffffffffffffffffffffffffffffff1673ffffffffffffffffffffffffffffffffffffffff16815260200190815260200160002060006101000a81548160ff02191690831515021790555050565b60006135248261556e565b9050919050565b6000600f6000838152602001908152602001600020549050919050565b600061355382614dd8565b9050919050565b6000613567848484615598565b90509392505050565b600061357b826157ff565b9050919050565b6060600073ffffffffffffffffffffffffffffffffffffffff168273ffffffffffffffffffffffffffffffffffffffff16141561360a576040517f08c379a000000000000000000000000000000000000000000000000000000000815260040180806020018281038252602b815260200180616212602b913960400191505060405180910390fd5b60008090505b600a60008473ffffffffffffffffffffffffffffffffffffffff1673ffffffffffffffffffffffffffffffffffffffff1681526020019081526020016000208054905081101561378b576000600a60008573ffffffffffffffffffffffffffffffffffffffff1673ffffffffffffffffffffffffffffffffffffffff16815260200190815260200160002082815481106136a657fe5b9060005260206000200154905060006003600083815260200190815260200160002060008673ffffffffffffffffffffffffffffffffffffffff1673ffffffffffffffffffffffffffffffffffffffff16815260200190815260200160002054111561377d5760008351111561377057613755836040518060400160405280600181526020017f200000000000000000000000000000000000000000000000000000000000000081525061423b565b9250613769836137648361414c565b61423b565b925061377c565b6137798161414c565b92505b5b508080600101915050613610565b50809050919050565b6040518060400160405280601d81526020017f68747470733a2f2f7374617368626c6f782e636f6d2f746f6b656e732f00000081525081565b6137d5614d81565b613847576040517f08c379a00000000000000000000000000000000000000000000000000000000081526004018080602001828103825260208152602001807f4f776e61626c653a2063616c6c6572206973206e6f7420746865206f776e657281525060200191505060405180910390fd5b60006001600083815260200190815260200160002060006101000a81548160ff02191690831515021790555050565b60008073ffffffffffffffffffffffffffffffffffffffff168373ffffffffffffffffffffffffffffffffffffffff1614156138fd576040517f08c379a000000000000000000000000000000000000000000000000000000000815260040180806020018281038252602b815260200180616212602b913960400191505060405180910390fd5b60006003600084815260200190815260200160002060008573ffffffffffffffffffffffffffffffffffffffff1673ffffffffffffffffffffffffffffffffffffffff16815260200190815260200160002054146139ab576004600083815260200190815260200160002060008473ffffffffffffffffffffffffffffffffffffffff1673ffffffffffffffffffffffffffffffffffffffff168152602001908152602001600020546139ae565b60005b905092915050565b6000600d60008473ffffffffffffffffffffffffffffffffffffffff1673ffffffffffffffffffffffffffffffffffffffff16815260200190815260200160002060008373ffffffffffffffffffffffffffffffffffffffff1673ffffffffffffffffffffffffffffffffffffffff16815260200190815260200160002060009054906101000a900460ff16905092915050565b600073ffffffffffffffffffffffffffffffffffffffff168573ffffffffffffffffffffffffffffffffffffffff161415613ad0576040517f08c379a00000000000000000000000000000000000000000000000000000000081526004018080602001828103825260288152602001806162636028913960400191505060405180910390fd5b3373ffffffffffffffffffffffffffffffffffffffff168673ffffffffffffffffffffffffffffffffffffffff161480613b17575060011515613b1387336139b6565b1515145b613b6c576040517f08c379a00000000000000000000000000000000000000000000000000000000081526004018080602001828103825260378152602001806165996037913960400191505060405180910390fd5b6000349050613b7e8787878785614386565b810390508573ffffffffffffffffffffffffffffffffffffffff168773ffffffffffffffffffffffffffffffffffffffff163373ffffffffffffffffffffffffffffffffffffffff167fc3d58168c5ae7397731d063d5bbf3d657854427343f4c083240f7aacaa2d0f628888604051808381526020018281526020019250505060405180910390a4613c58338888888888888080601f016020809104026020016040519081016040528093929190818152602001838380828437600081840152601f19601f82011690508083019250505050505050615855565b6000811115613d3f5760003373ffffffffffffffffffffffffffffffffffffffff168260405180600001905060006040518083038185875af1925050503d8060008114613cc1576040519150601f19603f3d011682016040523d82523d6000602084013e613cc6565b606091505b5050905080613d3d576040517f08c379a00000000000000000000000000000000000000000000000000000000081526004018080602001828103825260108152602001807f5472616e73666572206661696c65642e0000000000000000000000000000000081525060200191505060405180910390fd5b505b50505050505050565b613d50614d81565b613dc2576040517f08c379a00000000000000000000000000000000000000000000000000000000081526004018080602001828103825260208152602001807f4f776e61626c653a2063616c6c6572206973206e6f7420746865206f776e657281525060200191505060405180910390fd5b613dcb81615aa2565b50565b613dd733614dd8565b613e2c576040517f08c379a00000000000000000000000000000000000000000000000000000000081526004018080602001828103825260238152602001806163146023913960400191505060405180910390fd5b60008090505b84849050811015613f5557613f4a86868684818110613e4d57fe5b90506020020135601354868686818110613e6357fe5b905060200201356014546015805480602002602001604051908101604052809291908181526020018280548015613eef57602002820191906000526020600020905b8160009054906101000a900473ffffffffffffffffffffffffffffffffffffffff1673ffffffffffffffffffffffffffffffffffffffff1681526020019060010190808311613ea5575b50505050506016805480602002602001604051908101604052809291908181526020018280548015613f4057602002820191906000526020600020905b815481526020019060010190808311613f2c575b5050505050614e3d565b806001019050613e32565b505050505050565b613f65614d81565b613fd7576040517f08c379a00000000000000000000000000000000000000000000000000000000081526004018080602001828103825260208152602001807f4f776e61626c653a2063616c6c6572206973206e6f7420746865206f776e657281525060200191505060405180910390fd5b80600960008473ffffffffffffffffffffffffffffffffffffffff1673ffffffffffffffffffffffffffffffffffffffff16815260200190815260200160002054106141485760008273ffffffffffffffffffffffffffffffffffffffff168260405180600001905060006040518083038185875af1925050503d806000811461407d576040519150601f19603f3d011682016040523d82523d6000602084013e614082565b606091505b50509050806140f9576040517f08c379a000000000000000000000000000000000000000000000000000000000815260040180806020018281038252601d8152602001807f5374617368426c6f783a205769746864726177616c206661696c65642e00000081525060200191505060405180910390fd5b81600960008573ffffffffffffffffffffffffffffffffffffffff1673ffffffffffffffffffffffffffffffffffffffff16815260200190815260200160002060008282540392505081905550505b5050565b6060600080905060008390505b6000811461417b5781806001019250506010818161417357fe5b049050614159565b6060826040519080825280601f01601f1916602001820160405280156141b05781602001600182028038833980820191505090505b50905060008090505b8381101561422f57601086816141cb57fe5b0692506141d783615be6565b82600183870303815181106141e857fe5b60200101907effffffffffffffffffffffffffffffffffffffffffffffffffffffffffffff1916908160001a9053506010868161422157fe5b0495508060010190506141b9565b50809350505050919050565b6060808390506060839050606081518351016040519080825280601f01601f19166020018201604052801561427f5781602001600182028038833980820191505090505b509050606081905060008090506000809050600090505b8551811015614304578581815181106142ab57fe5b602001015160f81c60f81b8383806001019450815181106142c857fe5b60200101907effffffffffffffffffffffffffffffffffffffffffffffffffffffffffffff1916908160001a9053508080600101915050614296565b600090505b84518110156143775784818151811061431e57fe5b602001015160f81c60f81b83838060010194508151811061433b57fe5b60200101907effffffffffffffffffffffffffffffffffffffffffffffffffffffffffffff1916908160001a9053508080600101915050614309565b82965050505050505092915050565b600061439486868686615c8f565b15614407576040517f08c379a00000000000000000000000000000000000000000000000000000000081526004018080602001828103825260068152602001807f4c6f636b6564000000000000000000000000000000000000000000000000000081525060200191505060405180910390fd5b614412868585615598565b90508082101561446d576040517f08c379a000000000000000000000000000000000000000000000000000000000815260040180806020018281038252602b81526020018061668c602b913960400191505060405180910390fd5b6144ea836040518060600160405280602a8152602001616431602a91396003600088815260200190815260200160002060008a73ffffffffffffffffffffffffffffffffffffffff1673ffffffffffffffffffffffffffffffffffffffff16815260200190815260200160002054615ccf9092919063ffffffff16565b6003600086815260200190815260200160002060008873ffffffffffffffffffffffffffffffffffffffff1673ffffffffffffffffffffffffffffffffffffffff1681526020019081526020016000208190555060006145a3846003600088815260200190815260200160002060008973ffffffffffffffffffffffffffffffffffffffff1673ffffffffffffffffffffffffffffffffffffffff16815260200190815260200160002054615d8f90919063ffffffff16565b905060006003600087815260200190815260200160002060008873ffffffffffffffffffffffffffffffffffffffff1673ffffffffffffffffffffffffffffffffffffffff1681526020019081526020016000205414156147f757600c600086815260200190815260200160002060008773ffffffffffffffffffffffffffffffffffffffff1673ffffffffffffffffffffffffffffffffffffffff16815260200190815260200160002060009054906101000a900460ff1661479d57600a60008773ffffffffffffffffffffffffffffffffffffffff1673ffffffffffffffffffffffffffffffffffffffff168152602001908152602001600020859080600181540180825580915050906001820390600052602060002001600090919290919091505550600b60008681526020019081526020016000208690806001815401808255809150509060018203906000526020600020016000909192909190916101000a81548173ffffffffffffffffffffffffffffffffffffffff021916908373ffffffffffffffffffffffffffffffffffffffff16021790555050600c600086815260200190815260200160002060008773ffffffffffffffffffffffffffffffffffffffff1673ffffffffffffffffffffffffffffffffffffffff16815260200190815260200160002060009054906101000a9050505b426004600087815260200190815260200160002060008873ffffffffffffffffffffffffffffffffffffffff1673ffffffffffffffffffffffffffffffffffffffff16815260200190815260200160002081905550614931565b600061485c6004600088815260200190815260200160002060008973ffffffffffffffffffffffffffffffffffffffff1673ffffffffffffffffffffffffffffffffffffffff168152602001908152602001600020544261552490919063ffffffff16565b905060006148d5836148c784600360008c815260200190815260200160002060008d73ffffffffffffffffffffffffffffffffffffffff1673ffffffffffffffffffffffffffffffffffffffff1681526020019081526020016000205461545490919063ffffffff16565b6154da90919063ffffffff16565b90508042036004600089815260200190815260200160002060008a73ffffffffffffffffffffffffffffffffffffffff1673ffffffffffffffffffffffffffffffffffffffff1681526020019081526020016000208190555050505b806003600087815260200190815260200160002060008873ffffffffffffffffffffffffffffffffffffffff1673ffffffffffffffffffffffffffffffffffffffff1681526020019081526020016000208190555060008090505b6007600087815260200190815260200160002080549050811015614aa45760006007600088815260200190815260200160002082815481106149ca57fe5b9060005260206000200160009054906101000a900473ffffffffffffffffffffffffffffffffffffffff1690506000600860008981526020019081526020016000208381548110614a1757fe5b90600052602060002001549050614a4b612710614a3d838861545490919063ffffffff16565b6154da90919063ffffffff16565b600960008473ffffffffffffffffffffffffffffffffffffffff1673ffffffffffffffffffffffffffffffffffffffff16815260200190815260200160002060008282540192505081905550505080600101905061498c565b508191505095945050505050565b614ad18473ffffffffffffffffffffffffffffffffffffffff16615e17565b15614d79578373ffffffffffffffffffffffffffffffffffffffff1663bc197c81905060e01b7bffffffffffffffffffffffffffffffffffffffffffffffffffffffff19168473ffffffffffffffffffffffffffffffffffffffff1663bc197c8188888787876040518663ffffffff1660e01b8152600401808673ffffffffffffffffffffffffffffffffffffffff1673ffffffffffffffffffffffffffffffffffffffff1681526020018573ffffffffffffffffffffffffffffffffffffffff1673ffffffffffffffffffffffffffffffffffffffff168152602001806020018060200180602001848103845287818151815260200191508051906020019060200280838360005b83811015614bf5578082015181840152602081019050614bda565b50505050905001848103835286818151815260200191508051906020019060200280838360005b83811015614c37578082015181840152602081019050614c1c565b50505050905001848103825285818151815260200191508051906020019080838360005b83811015614c76578082015181840152602081019050614c5b565b50505050905090810190601f168015614ca35780820380516001836020036101000a031916815260200191505b5098505050505050505050602060405180830381600087803b158015614cc857600080fd5b505af1158015614cdc573d6000803e3d6000fd5b505050506040513d6020811015614cf257600080fd5b81019080805190602001909291905050507bffffffffffffffffffffffffffffffffffffffffffffffffffffffff191614614d78576040517f08c379a00000000000000000000000000000000000000000000000000000000081526004018080602001828103825260368152602001806163c76036913960400191505060405180910390fd5b5b505050505050565b60008060009054906101000a900473ffffffffffffffffffffffffffffffffffffffff1673ffffffffffffffffffffffffffffffffffffffff163373ffffffffffffffffffffffffffffffffffffffff1614905090565b6000601060008373ffffffffffffffffffffffffffffffffffffffff1673ffffffffffffffffffffffffffffffffffffffff16815260200190815260200160002060009054906101000a900460ff1680614e365750614e35614d81565b5b9050919050565b6000600f60008881526020019081526020016000205414614ec6576040517f08c379a000000000000000000000000000000000000000000000000000000000815260040180806020018281038252601f8152602001807f5374617368426c6f783a20546f6b656e20616c7265616479206d696e7465640081525060200191505060405180910390fd5b60008511614f1f576040517f08c379a000000000000000000000000000000000000000000000000000000000815260040180806020018281038252602a81526020018061639d602a913960400191505060405180910390fd5b60008311614f78576040517f08c379a00000000000000000000000000000000000000000000000000000000081526004018080602001828103825260358152602001806162df6035913960400191505060405180910390fd5b6000825111614fd2576040517f08c379a000000000000000000000000000000000000000000000000000000000815260040180806020018281038252602b815260200180616630602b913960400191505060405180910390fd5b805182511461502c576040517f08c379a00000000000000000000000000000000000000000000000000000000081526004018080602001828103825260328152602001806165fe6032913960400191505060405180910390fd5b600080905060008090505b82518110156150cf5782818151811061504c57fe5b602002602001015182019150600083828151811061506657fe5b6020026020010151116150c4576040517f08c379a000000000000000000000000000000000000000000000000000000000815260040180806020018281038252603c8152602001806164db603c913960400191505060405180910390fd5b806001019050615037565b50612710811461512a576040517f08c379a00000000000000000000000000000000000000000000000000000000081526004018080602001828103825260438152602001806165176043913960600191505060405180910390fd5b6001600c600089815260200190815260200160002060008a73ffffffffffffffffffffffffffffffffffffffff1673ffffffffffffffffffffffffffffffffffffffff16815260200190815260200160002060006101000a81548160ff021916908315150217905550600a60008973ffffffffffffffffffffffffffffffffffffffff1673ffffffffffffffffffffffffffffffffffffffff16815260200190815260200160002087908060018154018082558091505090600182039060005260206000200160009091929091909150555085600f600089815260200190815260200160002081905550856003600089815260200190815260200160002060008a73ffffffffffffffffffffffffffffffffffffffff1673ffffffffffffffffffffffffffffffffffffffff16815260200190815260200160002081905550615273878661540a565b426004600089815260200190815260200160002060008a73ffffffffffffffffffffffffffffffffffffffff1673ffffffffffffffffffffffffffffffffffffffff168152602001908152602001600020819055506005600088815260200190815260200160002060405180604001604052804281526020018681525090806001815401808255809150509060018203906000526020600020906002020160009091929091909150906002615329929190615f6d565b50508260076000898152602001908152602001600020908051906020019061535292919061609a565b508160086000898152602001908152602001600020908051906020019061537a929190616124565b508773ffffffffffffffffffffffffffffffffffffffff16600073ffffffffffffffffffffffffffffffffffffffff163373ffffffffffffffffffffffffffffffffffffffff167fc3d58168c5ae7397731d063d5bbf3d657854427343f4c083240f7aacaa2d0f628a8a604051808381526020018281526020019250505060405180910390a45050505050505050565b80600e60008481526020019081526020016000208190555080827f9cd9c60390fc75c213fd8d644749f61388dd30ed6c6eb4647b793b5b580fb43060405160405180910390a35050565b60008083141561546757600090506154d4565b600082840290508284828161547857fe5b04146154cf576040517f08c379a000000000000000000000000000000000000000000000000000000000815260040180806020018281038252602181526020018061645b6021913960400191505060405180910390fd5b809150505b92915050565b600061551c83836040518060400160405280601a81526020017f536166654d6174683a206469766973696f6e206279207a65726f000000000000815250615e62565b905092915050565b600061556683836040518060400160405280601e81526020017f536166654d6174683a207375627472616374696f6e206f766572666c6f770000815250615ccf565b905092915050565b60006001600083815260200190815260200160002060009054906101000a900460ff169050919050565b60008073ffffffffffffffffffffffffffffffffffffffff168473ffffffffffffffffffffffffffffffffffffffff16141561561f576040517f08c379a000000000000000000000000000000000000000000000000000000000815260040180806020018281038252602b815260200180616212602b913960400191505060405180910390fd5b600080905060004290506000600160056000888152602001908152602001600020805490500390505b600081106157f257600060056000888152602001908152602001600020828154811061567057fe5b906000526020600020906002020160006002811061568a57fe5b0154905060006305f5e100600654600560008b815260200190815260200160002085815481106156b657fe5b90600052602060002090600202016001600281106156d057fe5b015402816156da57fe5b049050600082600460008b815260200190815260200160002060008c73ffffffffffffffffffffffffffffffffffffffff1673ffffffffffffffffffffffffffffffffffffffff16815260200190815260200160002054106157b65762015180600460008b815260200190815260200160002060008c73ffffffffffffffffffffffffffffffffffffffff1673ffffffffffffffffffffffffffffffffffffffff1681526020019081526020016000205486038161579457fe5b04905060008114156157a557600190505b8782820202860195505050506157f2565b62015180838603816157c457fe5b04905060008114156157d557600190505b829450878282020286019550505050808060019003915050615648565b5081925050509392505050565b6000600260008373ffffffffffffffffffffffffffffffffffffffff1673ffffffffffffffffffffffffffffffffffffffff16815260200190815260200160002060009054906101000a900460ff169050919050565b6158748473ffffffffffffffffffffffffffffffffffffffff16615e17565b15615a9a578373ffffffffffffffffffffffffffffffffffffffff1663f23a6e61905060e01b7bffffffffffffffffffffffffffffffffffffffffffffffffffffffff19168473ffffffffffffffffffffffffffffffffffffffff1663f23a6e6188888787876040518663ffffffff1660e01b8152600401808673ffffffffffffffffffffffffffffffffffffffff1673ffffffffffffffffffffffffffffffffffffffff1681526020018573ffffffffffffffffffffffffffffffffffffffff1673ffffffffffffffffffffffffffffffffffffffff16815260200184815260200183815260200180602001828103825283818151815260200191508051906020019080838360005b8381101561599957808201518184015260208101905061597e565b50505050905090810190601f1680156159c65780820380516001836020036101000a031916815260200191505b509650505050505050602060405180830381600087803b1580156159e957600080fd5b505af11580156159fd573d6000803e3d6000fd5b505050506040513d6020811015615a1357600080fd5b81019080805190602001909291905050507bffffffffffffffffffffffffffffffffffffffffffffffffffffffff191614615a99576040517f08c379a000000000000000000000000000000000000000000000000000000000815260040180806020018281038252603181526020018061665b6031913960400191505060405180910390fd5b5b505050505050565b600073ffffffffffffffffffffffffffffffffffffffff168173ffffffffffffffffffffffffffffffffffffffff161415615b28576040517f08c379a000000000000000000000000000000000000000000000000000000000815260040180806020018281038252602681526020018061623d6026913960400191505060405180910390fd5b8073ffffffffffffffffffffffffffffffffffffffff166000809054906101000a900473ffffffffffffffffffffffffffffffffffffffff1673ffffffffffffffffffffffffffffffffffffffff167f8be0079c531659141344cd1fd0a4f28419497f9722a3daafe3b4186f6b6457e060405160405180910390a3806000806101000a81548173ffffffffffffffffffffffffffffffffffffffff021916908373ffffffffffffffffffffffffffffffffffffffff16021790555050565b60008160ff16600011158015615c00575060098260ff1611155b15615c3557817f300000000000000000000000000000000000000000000000000000000000000060f81c0160f81b9050615c8a565b8160ff16600a11158015615c4d5750600f8260ff1611155b15615c8557600a827f610000000000000000000000000000000000000000000000000000000000000060f81c010360f81b9050615c8a565b600080fd5b919050565b6000615c9a8361556e565b80615caa5750615ca9856157ff565b5b80615cba5750615cb9846157ff565b5b80615cc55750600082145b9050949350505050565b6000838311158290615d7c576040517f08c379a00000000000000000000000000000000000000000000000000000000081526004018080602001828103825283818151815260200191508051906020019080838360005b83811015615d41578082015181840152602081019050615d26565b50505050905090810190601f168015615d6e5780820380516001836020036101000a031916815260200191505b509250505060405180910390fd5b5060008385039050809150509392505050565b600080828401905083811015615e0d576040517f08c379a000000000000000000000000000000000000000000000000000000000815260040180806020018281038252601b8152602001807f536166654d6174683a206164646974696f6e206f766572666c6f77000000000081525060200191505060405180910390fd5b8091505092915050565b60008060007fc5d2460186f7233c927e7db2dcc703c0e500b653ca82273b7bfad8045d85a47060001b9050833f91506000801b8214158015615e595750808214155b92505050919050565b60008083118290615f0e576040517f08c379a00000000000000000000000000000000000000000000000000000000081526004018080602001828103825283818151815260200191508051906020019080838360005b83811015615ed3578082015181840152602081019050615eb8565b50505050905090810190601f168015615f005780820380516001836020036101000a031916815260200191505b509250505060405180910390fd5b506000838581615f1a57fe5b049050809150509392505050565b8260028101928215615f5c579160200282015b82811115615f5b578251829060ff16905591602001919060010190615f3b565b5b509050615f699190616171565b5090565b8260028101928215615f9c579160200282015b82811115615f9b578251825591602001919060010190615f80565b5b509050615fa99190616171565b5090565b82805482825590600052602060002090810192821561603c579160200282015b8281111561603b57823573ffffffffffffffffffffffffffffffffffffffff168260006101000a81548173ffffffffffffffffffffffffffffffffffffffff021916908373ffffffffffffffffffffffffffffffffffffffff16021790555091602001919060010190615fcd565b5b5090506160499190616196565b5090565b828054828255906000526020600020908101928215616089579160200282015b8281111561608857823582559160200191906001019061606d565b5b5090506160969190616171565b5090565b828054828255906000526020600020908101928215616113579160200282015b828111156161125782518260006101000a81548173ffffffffffffffffffffffffffffffffffffffff021916908373ffffffffffffffffffffffffffffffffffffffff160217905550916020019190600101906160ba565b5b5090506161209190616196565b5090565b828054828255906000526020600020908101928215616160579160200282015b8281111561615f578251825591602001919060010190616144565b5b50905061616d9190616171565b5090565b61619391905b8082111561618f576000816000905550600101616177565b5090565b90565b6161d691905b808211156161d257600081816101000a81549073ffffffffffffffffffffffffffffffffffffffff02191690555060010161619c565b5090565b9056fe5374617368426c6f783a20696e73756666696369656e742062616c616e636520746f2065786563757465207468652063616c6c6261636b2e455243313135353a2062616c616e636520717565727920666f7220746865207a65726f20616464726573734f776e61626c653a206e6577206f776e657220697320746865207a65726f2061646472657373455243313135353a207461726765742061646472657373206d757374206265206e6f6e2d7a65726f455243313135353a2063616e6e6f742073657420617070726f76616c2073746174757320666f722073656c665374617368426c6f783a205072696365206d7573742062652067726561746572207468616e20302e5374617368426c6f783a2073746f72616765437265646974436f73742073686f756c642062652067726561746572207468616e20304d696e7461626c653a2063616c6c6572206973206e6f74206120746f6b656e697a65725374617368426c6f783a20696e73756666696369656e742062616c616e636520746f2070726f706f736520612063616c6c6261636b2e455243313135353a206163636f756e747320616e6420494473206d75737420686176652073616d65206c656e677468735374617368426c6f783a20737570706c792073686f756c642062652067726561746572207468616e2030455243313135353a20676f7420756e6b6e6f776e2076616c75652066726f6d206f6e4552433131353542617463685265636569766564455243313135353a20736f6d65206164647265737320696e2062617463682062616c616e6365207175657279206973207a65726f455243313135353a20696e73756666696369656e742062616c616e636520666f72207472616e73666572536166654d6174683a206d756c7469706c69636174696f6e206f766572666c6f775374617368426c6f783a20696e73756666696369656e742076616c756520666f72207468652070726f706f7365642070726963652e5374617368426c6f783a2063616c6c6261636b2070726f706f736974696f6e206e6f7420666f756e642e5374617368426c6f783a2066656573526563697069656e747350657263656e746167652073686f756c642062652067726561746572207468616e20305374617368426c6f783a20546f74616c206f662066656573526563697069656e747350657263656e74616765206d75737420626520657175616c20746f2031303030305374617368426c6f783a20696e73756666696369656e7420657363726f7765642076616c756520746f2065786563757465207468652063616c6c6261636b2e455243313135353a206e656564206f70657261746f7220617070726f76616c20666f7220337264207061727479207472616e7366657273455243313135353a2049447320616e642076616c756573206d75737420686176652073616d65206c656e677468735374617368426c6f783a20696e76616c69642066656573526563697069656e747350657263656e74616765206c656e6774685374617368426c6f783a206e656564206174206c65617374206f6e652066656573526563697069656e7473455243313135353a20676f7420756e6b6e6f776e2076616c75652066726f6d206f6e455243313135355265636569766564455243313135353a20696e73756666696369656e742045544820666f72207472616e736665722066656573a265627a7a723158202da94983106a1ba0cdf2d390498fc4a2a08c0b744a9762eff2ea08ccbbeb437464736f6c634300050c00324f776e61626c653a206e6577206f776e657220697320746865207a65726f2061646472657373",
  "source": "pragma solidity ^0.5.12;\n// pragma experimental ABIEncoderV2;\n\nimport './ERC1155.sol';\nimport './ERC1155Metadata.sol';\nimport '../ERC173/ERC173.sol';\nimport '../utils/StringUtils.sol';\n\ncontract ERC1155Mintable is ERC1155, ERC1155Metadata {\n\n    // Mapping from token ID to Supply\n    mapping (uint256 => uint256) internal _supplies;\n    mapping (address => bool) private _authorizedTokenizers;\n\n    // Minimum holding to propose a callback\n    uint256 minHoldingForCallback = 8000; // 80%\n    // list of callback propositions\n    // _callbackPropositions[tokenID][proposer] = [priceForEachToken, ETHAmountEscrowed]\n    mapping (uint256 => mapping(address => uint256[2])) _callbackPropositions;\n\n    // default values for token batch creation\n    uint256 defaultSupply;\n    uint256 defaultStorageCreditCost;\n    address[] defaultFeesRecipients;\n    uint256[] defaultFeesRecipientsPercentage;\n\n    event UpdateStorageCost(address indexed _tokenizer, uint256 _id, uint256 _cost);\n    event UpdateStorageCreditPrice(address indexed _owner, uint256 _price);\n    event CallbackProposed(uint256 indexed _id, address _proposer, uint256 _price);\n    event CallbackRefused(uint256 indexed _id, address _proposer, uint256 _price);\n    event CallbackAccepted(uint256 indexed _id, address _proposer, uint256 _price);\n    event CallbackCanceled(uint256 indexed _id, address _proposer, uint256 _price);\n\n    function authorizeTokenizer(address tokenizer) external onlyOwner {\n        _authorizedTokenizers[tokenizer] = true;\n    }\n\n    function revokeTokenizer(address tokenizer) external onlyOwner {\n        _authorizedTokenizers[tokenizer] = false;\n    }\n\n    function _isTokenizer(address tokenizer) internal view returns (bool) {\n        return _authorizedTokenizers[tokenizer] || _isOwner();\n    }\n\n    function isTokenizer(address tokenizer) external view returns (bool) {\n        return _isTokenizer(tokenizer);\n    }\n\n    modifier onlyTokenizer() {\n        require(_isTokenizer(msg.sender), \"Mintable: caller is not a tokenizer\");\n        _;\n    }\n\n    function _createToken(address recipient,\n                         uint256 id,\n                         uint256 supply,\n                         uint256 metadataHash,\n                         uint256 storageCreditCost,\n                         address[] memory feesRecipients,\n                         uint256[] memory feesRecipientsPercentage)\n    internal {\n\n        require(_supplies[id] == 0, \"StashBlox: Token already minted\");\n        require(supply > 0, \"StashBlox: supply should be greater than 0\");\n        require(storageCreditCost > 0, \"StashBlox: storageCreditCost should be greater than 0\");\n        require(feesRecipients.length > 0, \"StashBlox: need at least one feesRecipients\");\n        require(feesRecipients.length == feesRecipientsPercentage.length, \"StashBlox: invalid feesRecipientsPercentage length\");\n\n        uint256 totalPercentage = 0;\n        for (uint256 i = 0; i < feesRecipientsPercentage.length; ++i) {\n            totalPercentage += feesRecipientsPercentage[i];\n            require(feesRecipientsPercentage[i] > 0, \"StashBlox: feesRecipientsPercentage should be greater than 0\");\n        }\n        require(totalPercentage == 10000, \"StashBlox: Total of feesRecipientsPercentage must be equal to 10000\");\n\n        _isHolder[id][recipient] = true;\n        _tokensByAddress[recipient].push(id);\n        _supplies[id] = supply;\n        _balances[id][recipient] = supply;\n        _updateMetadataHash(id, metadataHash);\n        _birthdays[id][recipient] = block.timestamp;\n        _storageCostHistory[id].push([block.timestamp, storageCreditCost]);\n        _feesRecipients[id] = feesRecipients;\n        _feesRecipientsPercentage[id] = feesRecipientsPercentage;\n\n        emit TransferSingle(msg.sender, address(0), recipient, id, supply);\n        // emit URI(uri, id);\n    }\n\n    /**\n     * @dev Function to mint an amount of a token with the given ID.\n     * @param recipient The address that will own the minted tokens\n     * @param id ID of the token to be minted\n     * @param supply Amount of the token to be minted\n     * @param metadataHash Metadata file hash\n     * @param storageCreditCost cost for 24h storage in storageCredit (x 10 ^ 8 for the precision)\n     * @param feesRecipients list of addresses receiving transfer fees\n     * @param feesRecipientsPercentage list of percentage, each one for the corresponding feesRecipients\n     */\n    function createToken(address recipient,\n                         uint256 id,\n                         uint256 supply,\n                         uint256 metadataHash,\n                         uint256 storageCreditCost,\n                         address[] calldata feesRecipients,\n                         uint256[] calldata feesRecipientsPercentage)\n    external onlyTokenizer {\n        _createToken(recipient,\n                     id,\n                     supply,\n                     metadataHash,\n                     storageCreditCost,\n                     feesRecipients,\n                     feesRecipientsPercentage);\n    }\n\n    /**\n     * @dev Set default values for batch token creation.\n     * @param supply Amount of the token to be minted\n     * @param storageCreditCost cost for 24h storage in storageCredit (x 10 ^ 8 for the precision)\n     * @param feesRecipients list of addresses receiving transfer fees\n     * @param feesRecipientsPercentage list of percentage, each one for the corresponding feesRecipients\n     */\n    function setCreateTokensDefaultValues(uint256 supply,\n                                          uint256 storageCreditCost,\n                                          address[] calldata feesRecipients,\n                                          uint256[] calldata feesRecipientsPercentage)\n    external onlyTokenizer {\n\n        defaultSupply = supply;\n        defaultStorageCreditCost = storageCreditCost;\n        defaultFeesRecipients = feesRecipients;\n        defaultFeesRecipientsPercentage = feesRecipientsPercentage;\n    }\n\n    /**\n     * @dev Function to mint token in batch. Default value must be set with setCreateTokensDefaultValues.\n     * @param recipient The address that will own the minted tokens\n     * @param ids list of IDs of the tokens to be minted\n     * @param metadataHashes list of Metadata file hash\n     */\n    function createTokens(address recipient,\n                          uint256[] calldata ids,\n                          uint256[] calldata metadataHashes)\n    external onlyTokenizer {\n\n        for (uint256 i = 0; i < ids.length; ++i) {\n            _createToken(recipient,\n                         ids[i],\n                         defaultSupply,\n                         metadataHashes[i],\n                         defaultStorageCreditCost,\n                         defaultFeesRecipients,\n                         defaultFeesRecipientsPercentage);\n        }\n    }\n\n    function updateMetadataHash(uint256 id, uint256 metadataHash) external onlyTokenizer {\n      _updateMetadataHash(id, metadataHash);\n    }\n\n    function updateStorageCreditPrice(uint256 newPrice) external onlyTokenizer {\n      storageCreditPrice = newPrice;\n      emit UpdateStorageCreditPrice(msg.sender, newPrice);\n    }\n\n    function updateStorageCost(uint256 id, uint256 newCost) external onlyTokenizer {\n      _storageCostHistory[id].push([block.timestamp, newCost]);\n      emit UpdateStorageCost(msg.sender, id, newCost);\n    }\n\n    function withdraw(address to, uint256 amount) external onlyOwner {\n      if (_ETHBalances[to] >= amount) {\n        (bool success, ) = to.call.value(amount)(\"\");\n        require(success, \"StashBlox: Withdrawal failed.\");\n        _ETHBalances[to] -= amount;\n      }\n    }\n\n    /**\n     * @dev Propose to buy the whole supply of a token.\n     * The proposer must hold minHoldingForCallback% of the total supply.\n     * StashBlox must approve the price with acceptCallback();\n     * @param id Token ID\n     * @param price proposed price\n     */\n    function proposeCallback(uint256 id, uint256 price) external payable {\n      require(_supplies[id] > 0, \"StashBlox: Unknown token.\");\n      require(price > 0, \"StashBlox: Price must be greater than 0.\");\n\n      uint256 minHolding = (_supplies[id].mul(minHoldingForCallback)).div(10000);\n      require(_balances[id][msg.sender] >= minHolding, \"StashBlox: insufficient balance to propose a callback.\");\n\n      uint256 callbackAmount = _supplies[id].sub(_balances[id][msg.sender]);\n      uint256 callbackPrice = callbackAmount.mul(price);\n      require(msg.value >= callbackPrice, \"StashBlox: insufficient value for the proposed price.\");\n\n      _callbackPropositions[id][msg.sender] = [price, msg.value];\n      emit CallbackProposed(id, msg.sender, price);\n    }\n\n    /**\n     * @dev Refuse a callback if the price is not enough.\n     * @param id Token ID\n     * @param proposer address of the proposer\n     */\n    function refuseCallback(uint256 id, address proposer) external onlyOwner {\n      uint256 price = _callbackPropositions[id][proposer][0];\n      uint256 escrowedAmount = _callbackPropositions[id][proposer][1];\n\n      require(price > 0, \"StashBlox: callback proposition not found.\");\n\n      // return escrowed amount. Proposer must use withdraw() function to get\n      // escrowed amount.\n      _ETHBalances[proposer] += escrowedAmount;\n\n      _callbackPropositions[id][proposer] = [0, 0];\n      emit CallbackRefused(id, proposer, price);\n    }\n\n    /**\n     * @dev Accept a callback\n     * @param id Token ID\n     * @param proposer address of the proposer\n     */\n    function acceptCallback(uint256 id, address proposer) external onlyOwner {\n      uint256 price = _callbackPropositions[id][proposer][0];\n      uint256 escrowedAmount = _callbackPropositions[id][proposer][1];\n\n      require(price > 0, \"StashBlox: callback proposition not found.\");\n\n      uint256 minHolding = (_supplies[id].mul(minHoldingForCallback)).div(10000);\n      require(_balances[id][msg.sender] >= minHolding, \"StashBlox: insufficient balance to execute the callback.\");\n\n      uint256 callbackAmount = _supplies[id].sub(_balances[id][msg.sender]);\n      uint256 callbackPrice = callbackAmount.mul(price);\n      require(escrowedAmount >= callbackPrice, \"StashBlox: insufficient escrowed value to execute the callback.\");\n\n      // move tokens to the proposer address and escrowed ETH to the holders addresses\n      // Holders must use withdraw() function to get paiement amount.\n      for (uint256 i = 0; i < _addressesByToken[id].length; ++i) {\n        address holderAddress = _addressesByToken[id][i];\n        uint256 holderBalance = _balances[id][holderAddress];\n        if (holderBalance > 0) {\n          uint256 holderPrice = price.mul(holderBalance);\n          _ETHBalances[holderAddress] += holderPrice;\n          _balances[id][holderAddress] = 0;\n        }\n      }\n      _balances[id][proposer] = _supplies[id];\n      if (escrowedAmount > callbackPrice) {\n        _ETHBalances[proposer] += escrowedAmount - callbackPrice;\n      }\n\n      _callbackPropositions[id][proposer] = [0, 0];\n      emit CallbackAccepted(id, proposer, price);\n    }\n\n\n    /**\n     * @param id Token ID\n     * @return Token supply\n     */\n    function totalSupply(uint256 id) external view returns (uint256) {\n        return _supplies[id];\n    }\n}\n",
  "sourcePath": "/home/ouziel/Work/StashBloxContracts/contracts/lib/ERC1155/ERC1155Mintable.sol",
  "compiler": {
    "name": "solc",
    "version": "0.5.12+commit.7709ece9.Emscripten.clang"
  },
  "schemaVersion": "3.2.3",
  "updatedAt": "2020-09-25T18:41:58.330Z",
  "devdoc": {
    "methods": {
      "acceptCallback(uint256,address)": {
        "details": "Accept a callback",
        "params": {
          "id": "Token ID",
          "proposer": "address of the proposer"
        }
      },
      "balanceOf(address,uint256)": {
        "details": "Get the specified address' balance for token with specified ID. Attempting to query the zero account for a balance will result in a revert.",
        "params": {
          "account": "The address of the token holder",
          "id": "ID of the token"
        },
        "return": "The account's balance of the token type requested"
      },
      "balanceOfBatch(address[],uint256[])": {
        "details": "Get the balance of multiple account/token pairs. If any of the query accounts is the zero account, this query will revert.",
        "params": {
          "accounts": "The addresses of the token holders",
          "ids": "IDs of the tokens"
        },
        "return": "Balances for each account and token id pair"
      },
      "createToken(address,uint256,uint256,uint256,uint256,address[],uint256[])": {
        "details": "Function to mint an amount of a token with the given ID.",
        "params": {
          "feesRecipients": "list of addresses receiving transfer fees",
          "feesRecipientsPercentage": "list of percentage, each one for the corresponding feesRecipients",
          "id": "ID of the token to be minted",
          "metadataHash": "Metadata file hash",
          "recipient": "The address that will own the minted tokens",
          "storageCreditCost": "cost for 24h storage in storageCredit (x 10 ^ 8 for the precision)",
          "supply": "Amount of the token to be minted"
        }
      },
      "createTokens(address,uint256[],uint256[])": {
        "details": "Function to mint token in batch. Default value must be set with setCreateTokensDefaultValues.",
        "params": {
          "ids": "list of IDs of the tokens to be minted",
          "metadataHashes": "list of Metadata file hash",
          "recipient": "The address that will own the minted tokens"
        }
      },
      "isApprovedForAll(address,address)": {
        "params": {
          "account": "The account of the Tokens",
          "operator": "Address of authorized operator"
        },
        "return": "True if the operator is approved, false if not"
      },
      "owner()": {
        "details": "Returns the address of the current owner."
      },
      "proposeCallback(uint256,uint256)": {
        "details": "Propose to buy the whole supply of a token. The proposer must hold minHoldingForCallback% of the total supply. StashBlox must approve the price with acceptCallback();",
        "params": {
          "id": "Token ID",
          "price": "proposed price"
        }
      },
      "refuseCallback(uint256,address)": {
        "details": "Refuse a callback if the price is not enough.",
        "params": {
          "id": "Token ID",
          "proposer": "address of the proposer"
        }
      },
      "safeBatchTransferFrom(address,address,uint256[],uint256[],bytes)": {
        "details": "Transfers `values` amount(s) of `ids` from the `from` address to the `to` address specified. Caller must be approved to manage the tokens being transferred out of the `from` account. If `to` is a smart contract, will call `onERC1155BatchReceived` on `to` and act appropriately.",
        "params": {
          "data": "Data forwarded to `onERC1155Received` if `to` is a contract receiver",
          "from": "Source address",
          "ids": "IDs of each token type",
          "to": "Target address",
          "values": "Transfer amounts per token type"
        }
      },
      "safeTransferFrom(address,address,uint256,uint256,bytes)": {
        "details": "Transfers `value` amount of an `id` from the `from` address to the `to` address specified. Caller must be approved to manage the tokens being transferred out of the `from` account. If `to` is a smart contract, will call `onERC1155Received` on `to` and act appropriately.",
        "params": {
          "data": "Data forwarded to `onERC1155Received` if `to` is a contract receiver",
          "from": "Source address",
          "id": "ID of the token type",
          "to": "Target address",
          "value": "Transfer amount"
        }
      },
      "setApprovalForAll(address,bool)": {
        "details": "Sets or unsets the approval of a given operator.     * An operator is allowed to transfer all tokens of the sender on their behalf.     * Because an account already has operator privileges for itself, this function will revert if the account attempts to set the approval status for itself.",
        "params": {
          "approved": "representing the status of the approval to be set",
          "operator": "address to set the approval"
        }
      },
      "setCreateTokensDefaultValues(uint256,uint256,address[],uint256[])": {
        "details": "Set default values for batch token creation.",
        "params": {
          "feesRecipients": "list of addresses receiving transfer fees",
          "feesRecipientsPercentage": "list of percentage, each one for the corresponding feesRecipients",
          "storageCreditCost": "cost for 24h storage in storageCredit (x 10 ^ 8 for the precision)",
          "supply": "Amount of the token to be minted"
        }
      },
      "supportsInterface(bytes4)": {
        "params": {
          "_interfaceID": "The interface identifier, as specified in ERC-165"
        },
        "return": "`true` if the contract implements `_interfaceID` and"
      },
      "totalSupply(uint256)": {
        "params": {
          "id": "Token ID"
        },
        "return": "Token supply"
      },
      "transferOwnership(address)": {
        "details": "Transfers ownership of the contract to a new account (`newOwner`). Can only be called by the current owner."
      },
      "uri(uint256)": {
        "params": {
          "id": "Token ID"
        },
        "return": "URI string"
      }
    }
  },
  "userdoc": {
    "methods": {
      "isApprovedForAll(address,address)": {
        "notice": "Queries the approval status of an operator for a given account."
      },
      "supportsInterface(bytes4)": {
        "notice": "Query if a contract implements an interface"
      }
    }
  }
}