{
  "contractName": "ERC1155Lockable",
  "abi": [
    {
      "anonymous": false,
      "inputs": [
        {
          "indexed": true,
          "internalType": "address",
          "name": "_owner",
          "type": "address"
        },
        {
          "indexed": true,
          "internalType": "address",
          "name": "_operator",
          "type": "address"
        },
        {
          "indexed": false,
          "internalType": "bool",
          "name": "_approved",
          "type": "bool"
        }
      ],
      "name": "ApprovalForAll",
      "type": "event"
    },
    {
      "anonymous": false,
      "inputs": [
        {
          "indexed": true,
          "internalType": "address",
          "name": "previousOwner",
          "type": "address"
        },
        {
          "indexed": true,
          "internalType": "address",
          "name": "newOwner",
          "type": "address"
        }
      ],
      "name": "OwnershipTransferred",
      "type": "event"
    },
    {
      "anonymous": false,
      "inputs": [
        {
          "indexed": true,
          "internalType": "address",
          "name": "_operator",
          "type": "address"
        },
        {
          "indexed": true,
          "internalType": "address",
          "name": "_from",
          "type": "address"
        },
        {
          "indexed": true,
          "internalType": "address",
          "name": "_to",
          "type": "address"
        },
        {
          "indexed": false,
          "internalType": "uint256[]",
          "name": "_ids",
          "type": "uint256[]"
        },
        {
          "indexed": false,
          "internalType": "uint256[]",
          "name": "_values",
          "type": "uint256[]"
        }
      ],
      "name": "TransferBatch",
      "type": "event"
    },
    {
      "anonymous": false,
      "inputs": [
        {
          "indexed": true,
          "internalType": "address",
          "name": "_operator",
          "type": "address"
        },
        {
          "indexed": true,
          "internalType": "address",
          "name": "_from",
          "type": "address"
        },
        {
          "indexed": true,
          "internalType": "address",
          "name": "_to",
          "type": "address"
        },
        {
          "indexed": false,
          "internalType": "uint256",
          "name": "_id",
          "type": "uint256"
        },
        {
          "indexed": false,
          "internalType": "uint256",
          "name": "_value",
          "type": "uint256"
        }
      ],
      "name": "TransferSingle",
      "type": "event"
    },
    {
      "anonymous": false,
      "inputs": [
        {
          "indexed": false,
          "internalType": "string",
          "name": "_value",
          "type": "string"
        },
        {
          "indexed": true,
          "internalType": "uint256",
          "name": "_id",
          "type": "uint256"
        }
      ],
      "name": "URI",
      "type": "event"
    },
    {
      "constant": true,
      "inputs": [
        {
          "internalType": "address",
          "name": "account",
          "type": "address"
        },
        {
          "internalType": "uint256",
          "name": "id",
          "type": "uint256"
        }
      ],
      "name": "balanceOf",
      "outputs": [
        {
          "internalType": "uint256",
          "name": "",
          "type": "uint256"
        }
      ],
      "payable": false,
      "stateMutability": "view",
      "type": "function"
    },
    {
      "constant": true,
      "inputs": [
        {
          "internalType": "address[]",
          "name": "accounts",
          "type": "address[]"
        },
        {
          "internalType": "uint256[]",
          "name": "ids",
          "type": "uint256[]"
        }
      ],
      "name": "balanceOfBatch",
      "outputs": [
        {
          "internalType": "uint256[]",
          "name": "",
          "type": "uint256[]"
        }
      ],
      "payable": false,
      "stateMutability": "view",
      "type": "function"
    },
    {
      "constant": true,
      "inputs": [
        {
          "internalType": "address",
          "name": "account",
          "type": "address"
        },
        {
          "internalType": "address",
          "name": "operator",
          "type": "address"
        }
      ],
      "name": "isApprovedForAll",
      "outputs": [
        {
          "internalType": "bool",
          "name": "",
          "type": "bool"
        }
      ],
      "payable": false,
      "stateMutability": "view",
      "type": "function"
    },
    {
      "constant": true,
      "inputs": [],
      "name": "owner",
      "outputs": [
        {
          "internalType": "address",
          "name": "",
          "type": "address"
        }
      ],
      "payable": false,
      "stateMutability": "view",
      "type": "function"
    },
    {
      "constant": false,
      "inputs": [
        {
          "internalType": "address",
          "name": "from",
          "type": "address"
        },
        {
          "internalType": "address",
          "name": "to",
          "type": "address"
        },
        {
          "internalType": "uint256[]",
          "name": "ids",
          "type": "uint256[]"
        },
        {
          "internalType": "uint256[]",
          "name": "values",
          "type": "uint256[]"
        },
        {
          "internalType": "bytes",
          "name": "data",
          "type": "bytes"
        }
      ],
      "name": "safeBatchTransferFrom",
      "outputs": [],
      "payable": false,
      "stateMutability": "nonpayable",
      "type": "function"
    },
    {
      "constant": false,
      "inputs": [
        {
          "internalType": "address",
          "name": "from",
          "type": "address"
        },
        {
          "internalType": "address",
          "name": "to",
          "type": "address"
        },
        {
          "internalType": "uint256",
          "name": "id",
          "type": "uint256"
        },
        {
          "internalType": "uint256",
          "name": "value",
          "type": "uint256"
        },
        {
          "internalType": "bytes",
          "name": "data",
          "type": "bytes"
        }
      ],
      "name": "safeTransferFrom",
      "outputs": [],
      "payable": false,
      "stateMutability": "nonpayable",
      "type": "function"
    },
    {
      "constant": false,
      "inputs": [
        {
          "internalType": "address",
          "name": "operator",
          "type": "address"
        },
        {
          "internalType": "bool",
          "name": "approved",
          "type": "bool"
        }
      ],
      "name": "setApprovalForAll",
      "outputs": [],
      "payable": false,
      "stateMutability": "nonpayable",
      "type": "function"
    },
    {
      "constant": true,
      "inputs": [
        {
          "internalType": "bytes4",
          "name": "_interfaceID",
          "type": "bytes4"
        }
      ],
      "name": "supportsInterface",
      "outputs": [
        {
          "internalType": "bool",
          "name": "",
          "type": "bool"
        }
      ],
      "payable": false,
      "stateMutability": "view",
      "type": "function"
    },
    {
      "constant": false,
      "inputs": [
        {
          "internalType": "address",
          "name": "newOwner",
          "type": "address"
        }
      ],
      "name": "transferOwnership",
      "outputs": [],
      "payable": false,
      "stateMutability": "nonpayable",
      "type": "function"
    },
    {
      "constant": false,
      "inputs": [
        {
          "internalType": "uint256",
          "name": "id",
          "type": "uint256"
        }
      ],
      "name": "lockToken",
      "outputs": [],
      "payable": false,
      "stateMutability": "nonpayable",
      "type": "function"
    },
    {
      "constant": false,
      "inputs": [
        {
          "internalType": "uint256",
          "name": "id",
          "type": "uint256"
        }
      ],
      "name": "unlockToken",
      "outputs": [],
      "payable": false,
      "stateMutability": "nonpayable",
      "type": "function"
    },
    {
      "constant": true,
      "inputs": [
        {
          "internalType": "uint256",
          "name": "id",
          "type": "uint256"
        }
      ],
      "name": "isLockedToken",
      "outputs": [
        {
          "internalType": "bool",
          "name": "",
          "type": "bool"
        }
      ],
      "payable": false,
      "stateMutability": "view",
      "type": "function"
    },
    {
      "constant": false,
      "inputs": [
        {
          "internalType": "address",
          "name": "addr",
          "type": "address"
        }
      ],
      "name": "lockAddress",
      "outputs": [],
      "payable": false,
      "stateMutability": "nonpayable",
      "type": "function"
    },
    {
      "constant": false,
      "inputs": [
        {
          "internalType": "address",
          "name": "addr",
          "type": "address"
        }
      ],
      "name": "unlockAddress",
      "outputs": [],
      "payable": false,
      "stateMutability": "nonpayable",
      "type": "function"
    },
    {
      "constant": true,
      "inputs": [
        {
          "internalType": "address",
          "name": "addr",
          "type": "address"
        }
      ],
      "name": "isLockedAddress",
      "outputs": [
        {
          "internalType": "bool",
          "name": "",
          "type": "bool"
        }
      ],
      "payable": false,
      "stateMutability": "view",
      "type": "function"
    }
  ],
  "bytecode": "0x60806040526100133361001860201b60201c565b61015e565b600073ffffffffffffffffffffffffffffffffffffffff168173ffffffffffffffffffffffffffffffffffffffff16141561009e576040517f08c379a000000000000000000000000000000000000000000000000000000000815260040180806020018281038252602681526020018061260b6026913960400191505060405180910390fd5b8073ffffffffffffffffffffffffffffffffffffffff16600260009054906101000a900473ffffffffffffffffffffffffffffffffffffffff1673ffffffffffffffffffffffffffffffffffffffff167f8be0079c531659141344cd1fd0a4f28419497f9722a3daafe3b4186f6b6457e060405160405180910390a380600260006101000a81548173ffffffffffffffffffffffffffffffffffffffff021916908373ffffffffffffffffffffffffffffffffffffffff16021790555050565b61249e8061016d6000396000f3fe608060405234801561001057600080fd5b50600436106100f45760003560e01c8063a22cb46511610097578063dd2e0ac011610066578063dd2e0ac0146106b6578063e985e9c5146106e4578063f242432a14610760578063f2fde38b1461082d576100f4565b8063a22cb46514610580578063b7eb5e0a146105d0578063bba75c8314610614578063cba54e601461065a576100f4565b806334a90d02116100d357806334a90d02146103235780634e1273f41461036757806380f20363146105085780638da5cb5b14610536576100f4565b8062fdd58e146100f957806301ffc9a71461015b5780632eb2c2d6146101c0575b600080fd5b6101456004803603604081101561010f57600080fd5b81019080803573ffffffffffffffffffffffffffffffffffffffff16906020019092919080359060200190929190505050610871565b6040518082815260200191505060405180910390f35b6101a66004803603602081101561017157600080fd5b8101908080357bffffffffffffffffffffffffffffffffffffffffffffffffffffffff19169060200190929190505050610950565b604051808215151515815260200191505060405180910390f35b610321600480360360a08110156101d657600080fd5b81019080803573ffffffffffffffffffffffffffffffffffffffff169060200190929190803573ffffffffffffffffffffffffffffffffffffffff1690602001909291908035906020019064010000000081111561023357600080fd5b82018360208201111561024557600080fd5b8035906020019184602083028401116401000000008311171561026757600080fd5b90919293919293908035906020019064010000000081111561028857600080fd5b82018360208201111561029a57600080fd5b803590602001918460208302840111640100000000831117156102bc57600080fd5b9091929391929390803590602001906401000000008111156102dd57600080fd5b8201836020820111156102ef57600080fd5b8035906020019184600183028401116401000000008311171561031157600080fd5b9091929391929390505050610a01565b005b6103656004803603602081101561033957600080fd5b81019080803573ffffffffffffffffffffffffffffffffffffffff169060200190929190505050610d8e565b005b6104b16004803603604081101561037d57600080fd5b810190808035906020019064010000000081111561039a57600080fd5b8201836020820111156103ac57600080fd5b803590602001918460208302840111640100000000831117156103ce57600080fd5b919080806020026020016040519081016040528093929190818152602001838360200280828437600081840152601f19601f8201169050808301925050505050505091929192908035906020019064010000000081111561042e57600080fd5b82018360208201111561044057600080fd5b8035906020019184602083028401116401000000008311171561046257600080fd5b919080806020026020016040519081016040528093929190818152602001838360200280828437600081840152601f19601f820116905080830192505050505050509192919290505050610e63565b6040518080602001828103825283818151815260200191508051906020019060200280838360005b838110156104f45780820151818401526020810190506104d9565b505050509050019250505060405180910390f35b6105346004803603602081101561051e57600080fd5b8101908080359060200190929190505050611040565b005b61053e6110e9565b604051808273ffffffffffffffffffffffffffffffffffffffff1673ffffffffffffffffffffffffffffffffffffffff16815260200191505060405180910390f35b6105ce6004803603604081101561059657600080fd5b81019080803573ffffffffffffffffffffffffffffffffffffffff169060200190929190803515159060200190929190505050611113565b005b610612600480360360208110156105e657600080fd5b81019080803573ffffffffffffffffffffffffffffffffffffffff169060200190929190505050611299565b005b6106406004803603602081101561062a57600080fd5b810190808035906020019092919050505061136e565b604051808215151515815260200191505060405180910390f35b61069c6004803603602081101561067057600080fd5b81019080803573ffffffffffffffffffffffffffffffffffffffff169060200190929190505050611380565b604051808215151515815260200191505060405180910390f35b6106e2600480360360208110156106cc57600080fd5b8101908080359060200190929190505050611392565b005b610746600480360360408110156106fa57600080fd5b81019080803573ffffffffffffffffffffffffffffffffffffffff169060200190929190803573ffffffffffffffffffffffffffffffffffffffff16906020019092919050505061143b565b604051808215151515815260200191505060405180910390f35b61082b600480360360a081101561077657600080fd5b81019080803573ffffffffffffffffffffffffffffffffffffffff169060200190929190803573ffffffffffffffffffffffffffffffffffffffff1690602001909291908035906020019092919080359060200190929190803590602001906401000000008111156107e757600080fd5b8201836020820111156107f957600080fd5b8035906020019184600183028401116401000000008311171561081b57600080fd5b90919293919293905050506114cf565b005b61086f6004803603602081101561084357600080fd5b81019080803573ffffffffffffffffffffffffffffffffffffffff1690602001909291905050506116db565b005b60008073ffffffffffffffffffffffffffffffffffffffff168373ffffffffffffffffffffffffffffffffffffffff1614156108f8576040517f08c379a000000000000000000000000000000000000000000000000000000000815260040180806020018281038252602b81526020018061226b602b913960400191505060405180910390fd5b60008083815260200190815260200160002060008473ffffffffffffffffffffffffffffffffffffffff1673ffffffffffffffffffffffffffffffffffffffff16815260200190815260200160002054905092915050565b60006301ffc9a760e01b7bffffffffffffffffffffffffffffffffffffffffffffffffffffffff1916827bffffffffffffffffffffffffffffffffffffffffffffffffffffffff191614806109e9575063d9b67a2660e01b7bffffffffffffffffffffffffffffffffffffffffffffffffffffffff1916827bffffffffffffffffffffffffffffffffffffffffffffffffffffffff1916145b156109f757600190506109fc565b600090505b919050565b838390508686905014610a5f576040517f08c379a000000000000000000000000000000000000000000000000000000000815260040180806020018281038252602e81526020018061240b602e913960400191505060405180910390fd5b600073ffffffffffffffffffffffffffffffffffffffff168773ffffffffffffffffffffffffffffffffffffffff161415610ae5576040517f08c379a00000000000000000000000000000000000000000000000000000000081526004018080602001828103825260288152602001806122bc6028913960400191505060405180910390fd5b3373ffffffffffffffffffffffffffffffffffffffff168873ffffffffffffffffffffffffffffffffffffffff161480610b2c575060011515610b28893361143b565b1515145b610b81576040517f08c379a00000000000000000000000000000000000000000000000000000000081526004018080602001828103825260378152602001806123d46037913960400191505060405180910390fd5b60008090505b86869050811015610bcd57610bc28989898985818110610ba357fe5b90506020020135888886818110610bb657fe5b90506020020135611761565b806001019050610b87565b508673ffffffffffffffffffffffffffffffffffffffff168873ffffffffffffffffffffffffffffffffffffffff163373ffffffffffffffffffffffffffffffffffffffff167f4a39dc06d4c0dbc64b70af90fd698a233a518aa5d07e595d983b8c0526c8f7fb898989896040518080602001806020018381038352878782818152602001925060200280828437600081840152601f19601f8201169050808301925050508381038252858582818152602001925060200280828437600081840152601f19601f820116905080830192505050965050505050505060405180910390a4610d84338989898980806020026020016040519081016040528093929190818152602001838360200280828437600081840152601f19601f82011690508083019250505050505050888880806020026020016040519081016040528093929190818152602001838360200280828437600081840152601f19601f8201169050808301925050505050505087878080601f016020809104026020016040519081016040528093929190818152602001838380828437600081840152601f19601f82011690508083019250505050505050611813565b5050505050505050565b610d96611ae2565b610e08576040517f08c379a00000000000000000000000000000000000000000000000000000000081526004018080602001828103825260208152602001807f4f776e61626c653a2063616c6c6572206973206e6f7420746865206f776e657281525060200191505060405180910390fd5b6001600460008373ffffffffffffffffffffffffffffffffffffffff1673ffffffffffffffffffffffffffffffffffffffff16815260200190815260200160002060006101000a81548160ff02191690831515021790555050565b60608151835114610ebf576040517f08c379a00000000000000000000000000000000000000000000000000000000081526004018080602001828103825260308152602001806123106030913960400191505060405180910390fd5b60608351604051908082528060200260200182016040528015610ef15781602001602082028038833980820191505090505b50905060008090505b845181101561103557600073ffffffffffffffffffffffffffffffffffffffff16858281518110610f2757fe5b602002602001015173ffffffffffffffffffffffffffffffffffffffff161415610f9c576040517f08c379a00000000000000000000000000000000000000000000000000000000081526004018080602001828103825260348152602001806123766034913960400191505060405180910390fd5b600080858381518110610fab57fe5b602002602001015181526020019081526020016000206000868381518110610fcf57fe5b602002602001015173ffffffffffffffffffffffffffffffffffffffff1673ffffffffffffffffffffffffffffffffffffffff1681526020019081526020016000205482828151811061101e57fe5b602002602001018181525050806001019050610efa565b508091505092915050565b611048611ae2565b6110ba576040517f08c379a00000000000000000000000000000000000000000000000000000000081526004018080602001828103825260208152602001807f4f776e61626c653a2063616c6c6572206973206e6f7420746865206f776e657281525060200191505060405180910390fd5b60016003600083815260200190815260200160002060006101000a81548160ff02191690831515021790555050565b6000600260009054906101000a900473ffffffffffffffffffffffffffffffffffffffff16905090565b8173ffffffffffffffffffffffffffffffffffffffff163373ffffffffffffffffffffffffffffffffffffffff161415611198576040517f08c379a000000000000000000000000000000000000000000000000000000000815260040180806020018281038252602c8152602001806122e4602c913960400191505060405180910390fd5b80600160003373ffffffffffffffffffffffffffffffffffffffff1673ffffffffffffffffffffffffffffffffffffffff16815260200190815260200160002060008473ffffffffffffffffffffffffffffffffffffffff1673ffffffffffffffffffffffffffffffffffffffff16815260200190815260200160002060006101000a81548160ff0219169083151502179055508173ffffffffffffffffffffffffffffffffffffffff163373ffffffffffffffffffffffffffffffffffffffff167f17307eab39ab6107e8899845ad3d59bd9653f200f220920489ca2b5937696c3183604051808215151515815260200191505060405180910390a35050565b6112a1611ae2565b611313576040517f08c379a00000000000000000000000000000000000000000000000000000000081526004018080602001828103825260208152602001807f4f776e61626c653a2063616c6c6572206973206e6f7420746865206f776e657281525060200191505060405180910390fd5b6000600460008373ffffffffffffffffffffffffffffffffffffffff1673ffffffffffffffffffffffffffffffffffffffff16815260200190815260200160002060006101000a81548160ff02191690831515021790555050565b600061137982611b3a565b9050919050565b600061138b82611b64565b9050919050565b61139a611ae2565b61140c576040517f08c379a00000000000000000000000000000000000000000000000000000000081526004018080602001828103825260208152602001807f4f776e61626c653a2063616c6c6572206973206e6f7420746865206f776e657281525060200191505060405180910390fd5b60006003600083815260200190815260200160002060006101000a81548160ff02191690831515021790555050565b6000600160008473ffffffffffffffffffffffffffffffffffffffff1673ffffffffffffffffffffffffffffffffffffffff16815260200190815260200160002060008373ffffffffffffffffffffffffffffffffffffffff1673ffffffffffffffffffffffffffffffffffffffff16815260200190815260200160002060009054906101000a900460ff16905092915050565b600073ffffffffffffffffffffffffffffffffffffffff168573ffffffffffffffffffffffffffffffffffffffff161415611555576040517f08c379a00000000000000000000000000000000000000000000000000000000081526004018080602001828103825260288152602001806122bc6028913960400191505060405180910390fd5b3373ffffffffffffffffffffffffffffffffffffffff168673ffffffffffffffffffffffffffffffffffffffff16148061159c575060011515611598873361143b565b1515145b6115f1576040517f08c379a00000000000000000000000000000000000000000000000000000000081526004018080602001828103825260378152602001806123d46037913960400191505060405180910390fd5b6115fd86868686611761565b8473ffffffffffffffffffffffffffffffffffffffff168673ffffffffffffffffffffffffffffffffffffffff163373ffffffffffffffffffffffffffffffffffffffff167fc3d58168c5ae7397731d063d5bbf3d657854427343f4c083240f7aacaa2d0f628787604051808381526020018281526020019250505060405180910390a46116d3338787878787878080601f016020809104026020016040519081016040528093929190818152602001838380828437600081840152601f19601f82011690508083019250505050505050611bba565b505050505050565b6116e3611ae2565b611755576040517f08c379a00000000000000000000000000000000000000000000000000000000081526004018080602001828103825260208152602001807f4f776e61626c653a2063616c6c6572206973206e6f7420746865206f776e657281525060200191505060405180910390fd5b61175e81611e07565b50565b61176a82611b3a565b15801561177d575061177b84611b64565b155b801561178f575061178d83611b64565b155b611801576040517f08c379a00000000000000000000000000000000000000000000000000000000081526004018080602001828103825260178152602001807f455243313135354c6f636b61626c653a204c6f636b656400000000000000000081525060200191505060405180910390fd5b61180d84848484611f4d565b50505050565b6118328473ffffffffffffffffffffffffffffffffffffffff166120d7565b15611ada578373ffffffffffffffffffffffffffffffffffffffff1663bc197c81905060e01b7bffffffffffffffffffffffffffffffffffffffffffffffffffffffff19168473ffffffffffffffffffffffffffffffffffffffff1663bc197c8188888787876040518663ffffffff1660e01b8152600401808673ffffffffffffffffffffffffffffffffffffffff1673ffffffffffffffffffffffffffffffffffffffff1681526020018573ffffffffffffffffffffffffffffffffffffffff1673ffffffffffffffffffffffffffffffffffffffff168152602001806020018060200180602001848103845287818151815260200191508051906020019060200280838360005b8381101561195657808201518184015260208101905061193b565b50505050905001848103835286818151815260200191508051906020019060200280838360005b8381101561199857808201518184015260208101905061197d565b50505050905001848103825285818151815260200191508051906020019080838360005b838110156119d75780820151818401526020810190506119bc565b50505050905090810190601f168015611a045780820380516001836020036101000a031916815260200191505b5098505050505050505050602060405180830381600087803b158015611a2957600080fd5b505af1158015611a3d573d6000803e3d6000fd5b505050506040513d6020811015611a5357600080fd5b81019080805190602001909291905050507bffffffffffffffffffffffffffffffffffffffffffffffffffffffff191614611ad9576040517f08c379a00000000000000000000000000000000000000000000000000000000081526004018080602001828103825260368152602001806123406036913960400191505060405180910390fd5b5b505050505050565b6000600260009054906101000a900473ffffffffffffffffffffffffffffffffffffffff1673ffffffffffffffffffffffffffffffffffffffff163373ffffffffffffffffffffffffffffffffffffffff1614905090565b60006003600083815260200190815260200160002060009054906101000a900460ff169050919050565b6000600460008373ffffffffffffffffffffffffffffffffffffffff1673ffffffffffffffffffffffffffffffffffffffff16815260200190815260200160002060009054906101000a900460ff169050919050565b611bd98473ffffffffffffffffffffffffffffffffffffffff166120d7565b15611dff578373ffffffffffffffffffffffffffffffffffffffff1663f23a6e61905060e01b7bffffffffffffffffffffffffffffffffffffffffffffffffffffffff19168473ffffffffffffffffffffffffffffffffffffffff1663f23a6e6188888787876040518663ffffffff1660e01b8152600401808673ffffffffffffffffffffffffffffffffffffffff1673ffffffffffffffffffffffffffffffffffffffff1681526020018573ffffffffffffffffffffffffffffffffffffffff1673ffffffffffffffffffffffffffffffffffffffff16815260200184815260200183815260200180602001828103825283818151815260200191508051906020019080838360005b83811015611cfe578082015181840152602081019050611ce3565b50505050905090810190601f168015611d2b5780820380516001836020036101000a031916815260200191505b509650505050505050602060405180830381600087803b158015611d4e57600080fd5b505af1158015611d62573d6000803e3d6000fd5b505050506040513d6020811015611d7857600080fd5b81019080805190602001909291905050507bffffffffffffffffffffffffffffffffffffffffffffffffffffffff191614611dfe576040517f08c379a00000000000000000000000000000000000000000000000000000000081526004018080602001828103825260318152602001806124396031913960400191505060405180910390fd5b5b505050505050565b600073ffffffffffffffffffffffffffffffffffffffff168173ffffffffffffffffffffffffffffffffffffffff161415611e8d576040517f08c379a00000000000000000000000000000000000000000000000000000000081526004018080602001828103825260268152602001806122966026913960400191505060405180910390fd5b8073ffffffffffffffffffffffffffffffffffffffff16600260009054906101000a900473ffffffffffffffffffffffffffffffffffffffff1673ffffffffffffffffffffffffffffffffffffffff167f8be0079c531659141344cd1fd0a4f28419497f9722a3daafe3b4186f6b6457e060405160405180910390a380600260006101000a81548173ffffffffffffffffffffffffffffffffffffffff021916908373ffffffffffffffffffffffffffffffffffffffff16021790555050565b611fc9816040518060600160405280602a81526020016123aa602a913960008086815260200190815260200160002060008873ffffffffffffffffffffffffffffffffffffffff1673ffffffffffffffffffffffffffffffffffffffff168152602001908152602001600020546121229092919063ffffffff16565b60008084815260200190815260200160002060008673ffffffffffffffffffffffffffffffffffffffff1673ffffffffffffffffffffffffffffffffffffffff1681526020019081526020016000208190555061207e8160008085815260200190815260200160002060008673ffffffffffffffffffffffffffffffffffffffff1673ffffffffffffffffffffffffffffffffffffffff168152602001908152602001600020546121e290919063ffffffff16565b60008084815260200190815260200160002060008573ffffffffffffffffffffffffffffffffffffffff1673ffffffffffffffffffffffffffffffffffffffff1681526020019081526020016000208190555050505050565b60008060007fc5d2460186f7233c927e7db2dcc703c0e500b653ca82273b7bfad8045d85a47060001b9050833f91506000801b82141580156121195750808214155b92505050919050565b60008383111582906121cf576040517f08c379a00000000000000000000000000000000000000000000000000000000081526004018080602001828103825283818151815260200191508051906020019080838360005b83811015612194578082015181840152602081019050612179565b50505050905090810190601f1680156121c15780820380516001836020036101000a031916815260200191505b509250505060405180910390fd5b5060008385039050809150509392505050565b600080828401905083811015612260576040517f08c379a000000000000000000000000000000000000000000000000000000000815260040180806020018281038252601b8152602001807f536166654d6174683a206164646974696f6e206f766572666c6f77000000000081525060200191505060405180910390fd5b809150509291505056fe455243313135353a2062616c616e636520717565727920666f7220746865207a65726f20616464726573734f776e61626c653a206e6577206f776e657220697320746865207a65726f2061646472657373455243313135353a207461726765742061646472657373206d757374206265206e6f6e2d7a65726f455243313135353a2063616e6e6f742073657420617070726f76616c2073746174757320666f722073656c66455243313135353a206163636f756e747320616e6420494473206d75737420686176652073616d65206c656e67746873455243313135353a20676f7420756e6b6e6f776e2076616c75652066726f6d206f6e4552433131353542617463685265636569766564455243313135353a20736f6d65206164647265737320696e2062617463682062616c616e6365207175657279206973207a65726f455243313135353a20696e73756666696369656e742062616c616e636520666f72207472616e73666572455243313135353a206e656564206f70657261746f7220617070726f76616c20666f7220337264207061727479207472616e7366657273455243313135353a2049447320616e642076616c756573206d75737420686176652073616d65206c656e67746873455243313135353a20676f7420756e6b6e6f776e2076616c75652066726f6d206f6e455243313135355265636569766564a265627a7a7231582075ad7b4867e40a2a3540a2c21c2e8faa39c6eefa54848ee0c79ab2c5c48dbf2f64736f6c634300050c00324f776e61626c653a206e6577206f776e657220697320746865207a65726f2061646472657373",
  "source": "pragma solidity ^0.5.12;\n\nimport './ERC1155.sol';\nimport \"../ERC173/ERC173.sol\";\n\ncontract ERC1155Lockable is ERC1155, ERC173 {\n\n    // Mapping for locked tokens\n    mapping (uint256 => bool) private _tokenLocks;\n    mapping (address => bool) private _addressLocks;\n\n    function lockToken(uint256 id) external onlyOwner {\n        _tokenLocks[id] = true;\n    }\n\n    function unlockToken(uint256 id) external onlyOwner {\n        _tokenLocks[id] = false;\n    }\n\n    function isLockedToken(uint256 id) external view returns (bool){\n        return _isLockedToken(id);\n    }\n\n    function _isLockedToken(uint256 id) internal view returns (bool) {\n        return _tokenLocks[id];\n    }\n\n    function lockAddress(address addr) external onlyOwner {\n        _addressLocks[addr] = true;\n    }\n\n    function unlockAddress(address addr) external onlyOwner {\n        _addressLocks[addr] = false;\n    }\n\n    function isLockedAddress(address addr) external view returns (bool){\n        return _isLockedAddress(addr);\n    }\n\n    function _isLockedAddress(address addr) internal view returns (bool) {\n        return _addressLocks[addr];\n    }\n\n    function _moveTokens(address from, address to, uint256 id, uint256 value) internal {\n        require(!_isLockedToken(id) &&\n                !_isLockedAddress(from) &&\n                !_isLockedAddress(to), \"ERC1155Lockable: Locked\");\n        super._moveTokens(from, to, id, value);\n    }\n\n}\n",
  "sourcePath": "/home/ouziel/Work/StashBloxContracts/contracts/lib/ERC1155/ERC1155Lockable.sol",
  "compiler": {
    "name": "solc",
    "version": "0.5.12+commit.7709ece9.Emscripten.clang"
  },
  "schemaVersion": "3.0.16",
  "updatedAt": "2019-11-16T15:50:06.980Z",
  "devdoc": {
    "methods": {
      "balanceOf(address,uint256)": {
        "details": "Get the specified address' balance for token with specified ID. Attempting to query the zero account for a balance will result in a revert.",
        "params": {
          "account": "The address of the token holder",
          "id": "ID of the token"
        },
        "return": "The account's balance of the token type requested"
      },
      "balanceOfBatch(address[],uint256[])": {
        "details": "Get the balance of multiple account/token pairs. If any of the query accounts is the zero account, this query will revert.",
        "params": {
          "accounts": "The addresses of the token holders",
          "ids": "IDs of the tokens"
        },
        "return": "Balances for each account and token id pair"
      },
      "isApprovedForAll(address,address)": {
        "params": {
          "account": "The account of the Tokens",
          "operator": "Address of authorized operator"
        },
        "return": "True if the operator is approved, false if not"
      },
      "owner()": {
        "details": "Returns the address of the current owner."
      },
      "safeBatchTransferFrom(address,address,uint256[],uint256[],bytes)": {
        "details": "Transfers `values` amount(s) of `ids` from the `from` address to the `to` address specified. Caller must be approved to manage the tokens being transferred out of the `from` account. If `to` is a smart contract, will call `onERC1155BatchReceived` on `to` and act appropriately.",
        "params": {
          "data": "Data forwarded to `onERC1155Received` if `to` is a contract receiver",
          "from": "Source address",
          "ids": "IDs of each token type",
          "to": "Target address",
          "values": "Transfer amounts per token type"
        }
      },
      "safeTransferFrom(address,address,uint256,uint256,bytes)": {
        "details": "Transfers `value` amount of an `id` from the `from` address to the `to` address specified. Caller must be approved to manage the tokens being transferred out of the `from` account. If `to` is a smart contract, will call `onERC1155Received` on `to` and act appropriately.",
        "params": {
          "data": "Data forwarded to `onERC1155Received` if `to` is a contract receiver",
          "from": "Source address",
          "id": "ID of the token type",
          "to": "Target address",
          "value": "Transfer amount"
        }
      },
      "setApprovalForAll(address,bool)": {
        "details": "Sets or unsets the approval of a given operator.     * An operator is allowed to transfer all tokens of the sender on their behalf.     * Because an account already has operator privileges for itself, this function will revert if the account attempts to set the approval status for itself.",
        "params": {
          "approved": "representing the status of the approval to be set",
          "operator": "address to set the approval"
        }
      },
      "supportsInterface(bytes4)": {
        "params": {
          "_interfaceID": "The interface identifier, as specified in ERC-165"
        },
        "return": "`true` if the contract implements `_interfaceID` and"
      },
      "transferOwnership(address)": {
        "details": "Transfers ownership of the contract to a new account (`newOwner`). Can only be called by the current owner."
      }
    }
  },
  "userdoc": {
    "methods": {
      "isApprovedForAll(address,address)": {
        "notice": "Queries the approval status of an operator for a given account."
      },
      "supportsInterface(bytes4)": {
        "notice": "Query if a contract implements an interface"
      }
    }
  }
}