{
  "contractName": "ERC1155",
  "abi": [
    {
      "anonymous": false,
      "inputs": [
        {
          "indexed": true,
          "internalType": "address",
          "name": "_owner",
          "type": "address"
        },
        {
          "indexed": true,
          "internalType": "address",
          "name": "_operator",
          "type": "address"
        },
        {
          "indexed": false,
          "internalType": "bool",
          "name": "_approved",
          "type": "bool"
        }
      ],
      "name": "ApprovalForAll",
      "type": "event"
    },
    {
      "anonymous": false,
      "inputs": [
        {
          "indexed": true,
          "internalType": "address",
          "name": "previousOwner",
          "type": "address"
        },
        {
          "indexed": true,
          "internalType": "address",
          "name": "newOwner",
          "type": "address"
        }
      ],
      "name": "OwnershipTransferred",
      "type": "event"
    },
    {
      "anonymous": false,
      "inputs": [
        {
          "indexed": true,
          "internalType": "address",
          "name": "_operator",
          "type": "address"
        },
        {
          "indexed": true,
          "internalType": "address",
          "name": "_from",
          "type": "address"
        },
        {
          "indexed": true,
          "internalType": "address",
          "name": "_to",
          "type": "address"
        },
        {
          "indexed": false,
          "internalType": "uint256[]",
          "name": "_ids",
          "type": "uint256[]"
        },
        {
          "indexed": false,
          "internalType": "uint256[]",
          "name": "_values",
          "type": "uint256[]"
        }
      ],
      "name": "TransferBatch",
      "type": "event"
    },
    {
      "anonymous": false,
      "inputs": [
        {
          "indexed": true,
          "internalType": "address",
          "name": "_operator",
          "type": "address"
        },
        {
          "indexed": true,
          "internalType": "address",
          "name": "_from",
          "type": "address"
        },
        {
          "indexed": true,
          "internalType": "address",
          "name": "_to",
          "type": "address"
        },
        {
          "indexed": false,
          "internalType": "uint256",
          "name": "_id",
          "type": "uint256"
        },
        {
          "indexed": false,
          "internalType": "uint256",
          "name": "_value",
          "type": "uint256"
        }
      ],
      "name": "TransferSingle",
      "type": "event"
    },
    {
      "anonymous": false,
      "inputs": [
        {
          "indexed": false,
          "internalType": "string",
          "name": "_value",
          "type": "string"
        },
        {
          "indexed": true,
          "internalType": "uint256",
          "name": "_id",
          "type": "uint256"
        }
      ],
      "name": "URI",
      "type": "event"
    },
    {
      "constant": true,
      "inputs": [
        {
          "internalType": "address",
          "name": "addr",
          "type": "address"
        }
      ],
      "name": "isLockedAddress",
      "outputs": [
        {
          "internalType": "bool",
          "name": "",
          "type": "bool"
        }
      ],
      "payable": false,
      "stateMutability": "view",
      "type": "function"
    },
    {
      "constant": true,
      "inputs": [
        {
          "internalType": "uint256",
          "name": "id",
          "type": "uint256"
        }
      ],
      "name": "isLockedToken",
      "outputs": [
        {
          "internalType": "bool",
          "name": "",
          "type": "bool"
        }
      ],
      "payable": false,
      "stateMutability": "view",
      "type": "function"
    },
    {
      "constant": false,
      "inputs": [
        {
          "internalType": "address",
          "name": "addr",
          "type": "address"
        }
      ],
      "name": "lockAddress",
      "outputs": [],
      "payable": false,
      "stateMutability": "nonpayable",
      "type": "function"
    },
    {
      "constant": false,
      "inputs": [
        {
          "internalType": "uint256",
          "name": "id",
          "type": "uint256"
        }
      ],
      "name": "lockToken",
      "outputs": [],
      "payable": false,
      "stateMutability": "nonpayable",
      "type": "function"
    },
    {
      "constant": true,
      "inputs": [],
      "name": "owner",
      "outputs": [
        {
          "internalType": "address",
          "name": "",
          "type": "address"
        }
      ],
      "payable": false,
      "stateMutability": "view",
      "type": "function"
    },
    {
      "constant": false,
      "inputs": [
        {
          "internalType": "address",
          "name": "newOwner",
          "type": "address"
        }
      ],
      "name": "transferOwnership",
      "outputs": [],
      "payable": false,
      "stateMutability": "nonpayable",
      "type": "function"
    },
    {
      "constant": false,
      "inputs": [
        {
          "internalType": "address",
          "name": "addr",
          "type": "address"
        }
      ],
      "name": "unlockAddress",
      "outputs": [],
      "payable": false,
      "stateMutability": "nonpayable",
      "type": "function"
    },
    {
      "constant": false,
      "inputs": [
        {
          "internalType": "uint256",
          "name": "id",
          "type": "uint256"
        }
      ],
      "name": "unlockToken",
      "outputs": [],
      "payable": false,
      "stateMutability": "nonpayable",
      "type": "function"
    },
    {
      "constant": true,
      "inputs": [
        {
          "internalType": "bytes4",
          "name": "_interfaceID",
          "type": "bytes4"
        }
      ],
      "name": "supportsInterface",
      "outputs": [
        {
          "internalType": "bool",
          "name": "",
          "type": "bool"
        }
      ],
      "payable": false,
      "stateMutability": "view",
      "type": "function"
    },
    {
      "constant": true,
      "inputs": [
        {
          "internalType": "address",
          "name": "account",
          "type": "address"
        },
        {
          "internalType": "uint256",
          "name": "id",
          "type": "uint256"
        }
      ],
      "name": "balanceOf",
      "outputs": [
        {
          "internalType": "uint256",
          "name": "",
          "type": "uint256"
        }
      ],
      "payable": false,
      "stateMutability": "view",
      "type": "function"
    },
    {
      "constant": true,
      "inputs": [
        {
          "internalType": "address",
          "name": "account",
          "type": "address"
        }
      ],
      "name": "ethBalanceOf",
      "outputs": [
        {
          "internalType": "uint256",
          "name": "",
          "type": "uint256"
        }
      ],
      "payable": false,
      "stateMutability": "view",
      "type": "function"
    },
    {
      "constant": true,
      "inputs": [
        {
          "internalType": "address[]",
          "name": "accounts",
          "type": "address[]"
        },
        {
          "internalType": "uint256[]",
          "name": "ids",
          "type": "uint256[]"
        }
      ],
      "name": "balanceOfBatch",
      "outputs": [
        {
          "internalType": "uint256[]",
          "name": "",
          "type": "uint256[]"
        }
      ],
      "payable": false,
      "stateMutability": "view",
      "type": "function"
    },
    {
      "constant": false,
      "inputs": [
        {
          "internalType": "address",
          "name": "operator",
          "type": "address"
        },
        {
          "internalType": "bool",
          "name": "approved",
          "type": "bool"
        }
      ],
      "name": "setApprovalForAll",
      "outputs": [],
      "payable": false,
      "stateMutability": "nonpayable",
      "type": "function"
    },
    {
      "constant": true,
      "inputs": [
        {
          "internalType": "address",
          "name": "account",
          "type": "address"
        },
        {
          "internalType": "address",
          "name": "operator",
          "type": "address"
        }
      ],
      "name": "isApprovedForAll",
      "outputs": [
        {
          "internalType": "bool",
          "name": "",
          "type": "bool"
        }
      ],
      "payable": false,
      "stateMutability": "view",
      "type": "function"
    },
    {
      "constant": false,
      "inputs": [
        {
          "internalType": "address",
          "name": "from",
          "type": "address"
        },
        {
          "internalType": "address",
          "name": "to",
          "type": "address"
        },
        {
          "internalType": "uint256",
          "name": "id",
          "type": "uint256"
        },
        {
          "internalType": "uint256",
          "name": "value",
          "type": "uint256"
        },
        {
          "internalType": "bytes",
          "name": "data",
          "type": "bytes"
        }
      ],
      "name": "safeTransferFrom",
      "outputs": [],
      "payable": true,
      "stateMutability": "payable",
      "type": "function"
    },
    {
      "constant": false,
      "inputs": [
        {
          "internalType": "address",
          "name": "from",
          "type": "address"
        },
        {
          "internalType": "address",
          "name": "to",
          "type": "address"
        },
        {
          "internalType": "uint256[]",
          "name": "ids",
          "type": "uint256[]"
        },
        {
          "internalType": "uint256[]",
          "name": "values",
          "type": "uint256[]"
        },
        {
          "internalType": "bytes",
          "name": "data",
          "type": "bytes"
        }
      ],
      "name": "safeBatchTransferFrom",
      "outputs": [],
      "payable": true,
      "stateMutability": "payable",
      "type": "function"
    },
    {
      "constant": true,
      "inputs": [
        {
          "internalType": "address",
          "name": "account",
          "type": "address"
        },
        {
          "internalType": "uint256",
          "name": "id",
          "type": "uint256"
        }
      ],
      "name": "birthdayOf",
      "outputs": [
        {
          "internalType": "uint256",
          "name": "",
          "type": "uint256"
        }
      ],
      "payable": false,
      "stateMutability": "view",
      "type": "function"
    },
    {
      "constant": true,
      "inputs": [
        {
          "internalType": "address",
          "name": "account",
          "type": "address"
        },
        {
          "internalType": "uint256",
          "name": "id",
          "type": "uint256"
        },
        {
          "internalType": "uint256",
          "name": "value",
          "type": "uint256"
        }
      ],
      "name": "storageFees",
      "outputs": [
        {
          "internalType": "uint256",
          "name": "",
          "type": "uint256"
        }
      ],
      "payable": false,
      "stateMutability": "view",
      "type": "function"
    },
    {
      "constant": true,
      "inputs": [
        {
          "internalType": "address",
          "name": "account",
          "type": "address"
        }
      ],
      "name": "tokensByAddress",
      "outputs": [
        {
          "internalType": "string",
          "name": "result",
          "type": "string"
        }
      ],
      "payable": false,
      "stateMutability": "view",
      "type": "function"
    },
    {
      "constant": true,
      "inputs": [
        {
          "internalType": "uint256",
          "name": "id",
          "type": "uint256"
        }
      ],
      "name": "addressesByToken",
      "outputs": [
        {
          "internalType": "string",
          "name": "result",
          "type": "string"
        }
      ],
      "payable": false,
      "stateMutability": "view",
      "type": "function"
    }
  ],
  "bytecode": "0x60806040526103e86006556200001b336200002160201b60201c565b62000167565b600073ffffffffffffffffffffffffffffffffffffffff168173ffffffffffffffffffffffffffffffffffffffff161415620000a9576040517f08c379a000000000000000000000000000000000000000000000000000000000815260040180806020018281038252602681526020018062003d6b6026913960400191505060405180910390fd5b8073ffffffffffffffffffffffffffffffffffffffff166000809054906101000a900473ffffffffffffffffffffffffffffffffffffffff1673ffffffffffffffffffffffffffffffffffffffff167f8be0079c531659141344cd1fd0a4f28419497f9722a3daafe3b4186f6b6457e060405160405180910390a3806000806101000a81548173ffffffffffffffffffffffffffffffffffffffff021916908373ffffffffffffffffffffffffffffffffffffffff16021790555050565b613bf480620001776000396000f3fe60806040526004361061011e5760003560e01c8063b7eb5e0a116100a0578063dd2e0ac011610064578063dd2e0ac0146109be578063e1c95f8a146109f9578063e985e9c514610a68578063f242432a14610af1578063f2fde38b14610bbe5761011e565b8063b7eb5e0a1461076e578063bba75c83146107bf578063c4be3c3c14610812578063cba54e601461088b578063d6bc5942146108f45761011e565b80637252bbf2116100e75780637252bbf21461056657806380f20363146105cb5780638da5cb5b14610606578063a22cb4651461065d578063b5690ac1146106ba5761011e565b8062fdd58e1461012357806301ffc9a7146101925780632eb2c2d61461020457806334a90d02146103675780634e1273f4146103b8575b600080fd5b34801561012f57600080fd5b5061017c6004803603604081101561014657600080fd5b81019080803573ffffffffffffffffffffffffffffffffffffffff16906020019092919080359060200190929190505050610c0f565b6040518082815260200191505060405180910390f35b34801561019e57600080fd5b506101ea600480360360208110156101b557600080fd5b8101908080357bffffffffffffffffffffffffffffffffffffffffffffffffffffffff19169060200190929190505050610cef565b604051808215151515815260200191505060405180910390f35b610365600480360360a081101561021a57600080fd5b81019080803573ffffffffffffffffffffffffffffffffffffffff169060200190929190803573ffffffffffffffffffffffffffffffffffffffff1690602001909291908035906020019064010000000081111561027757600080fd5b82018360208201111561028957600080fd5b803590602001918460208302840111640100000000831117156102ab57600080fd5b9091929391929390803590602001906401000000008111156102cc57600080fd5b8201836020820111156102de57600080fd5b8035906020019184602083028401116401000000008311171561030057600080fd5b90919293919293908035906020019064010000000081111561032157600080fd5b82018360208201111561033357600080fd5b8035906020019184600183028401116401000000008311171561035557600080fd5b9091929391929390505050610da0565b005b34801561037357600080fd5b506103b66004803603602081101561038a57600080fd5b81019080803573ffffffffffffffffffffffffffffffffffffffff16906020019092919050505061121f565b005b3480156103c457600080fd5b5061050f600480360360408110156103db57600080fd5b81019080803590602001906401000000008111156103f857600080fd5b82018360208201111561040a57600080fd5b8035906020019184602083028401116401000000008311171561042c57600080fd5b919080806020026020016040519081016040528093929190818152602001838360200280828437600081840152601f19601f8201169050808301925050505050505091929192908035906020019064010000000081111561048c57600080fd5b82018360208201111561049e57600080fd5b803590602001918460208302840111640100000000831117156104c057600080fd5b919080806020026020016040519081016040528093929190818152602001838360200280828437600081840152601f19601f8201169050808301925050505050505091929192905050506112f4565b6040518080602001828103825283818151815260200191508051906020019060200280838360005b83811015610552578082015181840152602081019050610537565b505050509050019250505060405180910390f35b34801561057257600080fd5b506105b56004803603602081101561058957600080fd5b81019080803573ffffffffffffffffffffffffffffffffffffffff1690602001909291905050506114d2565b6040518082815260200191505060405180910390f35b3480156105d757600080fd5b50610604600480360360208110156105ee57600080fd5b810190808035906020019092919050505061151b565b005b34801561061257600080fd5b5061061b6115c3565b604051808273ffffffffffffffffffffffffffffffffffffffff1673ffffffffffffffffffffffffffffffffffffffff16815260200191505060405180910390f35b34801561066957600080fd5b506106b86004803603604081101561068057600080fd5b81019080803573ffffffffffffffffffffffffffffffffffffffff1690602001909291908035151590602001909291905050506115ec565b005b3480156106c657600080fd5b506106f3600480360360208110156106dd57600080fd5b8101908080359060200190929190505050611772565b6040518080602001828103825283818151815260200191508051906020019080838360005b83811015610733578082015181840152602081019050610718565b50505050905090810190601f1680156107605780820380516001836020036101000a031916815260200191505b509250505060405180910390f35b34801561077a57600080fd5b506107bd6004803603602081101561079157600080fd5b81019080803573ffffffffffffffffffffffffffffffffffffffff1690602001909291905050506118f2565b005b3480156107cb57600080fd5b506107f8600480360360208110156107e257600080fd5b81019080803590602001909291905050506119c7565b604051808215151515815260200191505060405180910390f35b34801561081e57600080fd5b506108756004803603606081101561083557600080fd5b81019080803573ffffffffffffffffffffffffffffffffffffffff16906020019092919080359060200190929190803590602001909291905050506119d9565b6040518082815260200191505060405180910390f35b34801561089757600080fd5b506108da600480360360208110156108ae57600080fd5b81019080803573ffffffffffffffffffffffffffffffffffffffff1690602001909291905050506119ef565b604051808215151515815260200191505060405180910390f35b34801561090057600080fd5b506109436004803603602081101561091757600080fd5b81019080803573ffffffffffffffffffffffffffffffffffffffff169060200190929190505050611a01565b6040518080602001828103825283818151815260200191508051906020019080838360005b83811015610983578082015181840152602081019050610968565b50505050905090810190601f1680156109b05780820380516001836020036101000a031916815260200191505b509250505060405180910390f35b3480156109ca57600080fd5b506109f7600480360360208110156109e157600080fd5b8101908080359060200190929190505050611c13565b005b348015610a0557600080fd5b50610a5260048036036040811015610a1c57600080fd5b81019080803573ffffffffffffffffffffffffffffffffffffffff16906020019092919080359060200190929190505050611cbc565b6040518082815260200191505060405180910390f35b348015610a7457600080fd5b50610ad760048036036040811015610a8b57600080fd5b81019080803573ffffffffffffffffffffffffffffffffffffffff169060200190929190803573ffffffffffffffffffffffffffffffffffffffff169060200190929190505050611dfc565b604051808215151515815260200191505060405180910390f35b610bbc600480360360a0811015610b0757600080fd5b81019080803573ffffffffffffffffffffffffffffffffffffffff169060200190929190803573ffffffffffffffffffffffffffffffffffffffff169060200190929190803590602001909291908035906020019092919080359060200190640100000000811115610b7857600080fd5b820183602082011115610b8a57600080fd5b80359060200191846001830284011164010000000083111715610bac57600080fd5b9091929391929390505050611e90565b005b348015610bca57600080fd5b50610c0d60048036036020811015610be157600080fd5b81019080803573ffffffffffffffffffffffffffffffffffffffff16906020019092919050505061218e565b005b60008073ffffffffffffffffffffffffffffffffffffffff168373ffffffffffffffffffffffffffffffffffffffff161415610c96576040517f08c379a000000000000000000000000000000000000000000000000000000000815260040180806020018281038252602b815260200180613975602b913960400191505060405180910390fd5b6003600083815260200190815260200160002060008473ffffffffffffffffffffffffffffffffffffffff1673ffffffffffffffffffffffffffffffffffffffff16815260200190815260200160002054905092915050565b60006301ffc9a760e01b7bffffffffffffffffffffffffffffffffffffffffffffffffffffffff1916827bffffffffffffffffffffffffffffffffffffffffffffffffffffffff19161480610d88575063d9b67a2660e01b7bffffffffffffffffffffffffffffffffffffffffffffffffffffffff1916827bffffffffffffffffffffffffffffffffffffffffffffffffffffffff1916145b15610d965760019050610d9b565b600090505b919050565b838390508686905014610dfe576040517f08c379a000000000000000000000000000000000000000000000000000000000815260040180806020018281038252602e815260200180613b36602e913960400191505060405180910390fd5b600073ffffffffffffffffffffffffffffffffffffffff168773ffffffffffffffffffffffffffffffffffffffff161415610e84576040517f08c379a00000000000000000000000000000000000000000000000000000000081526004018080602001828103825260288152602001806139c66028913960400191505060405180910390fd5b3373ffffffffffffffffffffffffffffffffffffffff168873ffffffffffffffffffffffffffffffffffffffff161480610ecb575060011515610ec78933611dfc565b1515145b610f20576040517f08c379a0000000000000000000000000000000000000000000000000000000008152600401808060200182810382526037815260200180613aff6037913960400191505060405180910390fd5b600034905060008090505b87879050811015610f7657610f678a8a8a8a85818110610f4757fe5b90506020020135898986818110610f5a57fe5b9050602002013586612214565b82039150806001019050610f2b565b508773ffffffffffffffffffffffffffffffffffffffff168973ffffffffffffffffffffffffffffffffffffffff163373ffffffffffffffffffffffffffffffffffffffff167f4a39dc06d4c0dbc64b70af90fd698a233a518aa5d07e595d983b8c0526c8f7fb8a8a8a8a6040518080602001806020018381038352878782818152602001925060200280828437600081840152601f19601f8201169050808301925050508381038252858582818152602001925060200280828437600081840152601f19601f820116905080830192505050965050505050505060405180910390a461112d338a8a8a8a80806020026020016040519081016040528093929190818152602001838360200280828437600081840152601f19601f82011690508083019250505050505050898980806020026020016040519081016040528093929190818152602001838360200280828437600081840152601f19601f8201169050808301925050505050505088888080601f016020809104026020016040519081016040528093929190818152602001838380828437600081840152601f19601f82011690508083019250505050505050612940565b60008111156112145760003373ffffffffffffffffffffffffffffffffffffffff168260405180600001905060006040518083038185875af1925050503d8060008114611196576040519150601f19603f3d011682016040523d82523d6000602084013e61119b565b606091505b5050905080611212576040517f08c379a00000000000000000000000000000000000000000000000000000000081526004018080602001828103825260108152602001807f5472616e73666572206661696c65642e0000000000000000000000000000000081525060200191505060405180910390fd5b505b505050505050505050565b611227612c0f565b611299576040517f08c379a00000000000000000000000000000000000000000000000000000000081526004018080602001828103825260208152602001807f4f776e61626c653a2063616c6c6572206973206e6f7420746865206f776e657281525060200191505060405180910390fd5b6001600260008373ffffffffffffffffffffffffffffffffffffffff1673ffffffffffffffffffffffffffffffffffffffff16815260200190815260200160002060006101000a81548160ff02191690831515021790555050565b60608151835114611350576040517f08c379a0000000000000000000000000000000000000000000000000000000008152600401808060200182810382526030815260200180613a1a6030913960400191505060405180910390fd5b606083516040519080825280602002602001820160405280156113825781602001602082028038833980820191505090505b50905060008090505b84518110156114c757600073ffffffffffffffffffffffffffffffffffffffff168582815181106113b857fe5b602002602001015173ffffffffffffffffffffffffffffffffffffffff16141561142d576040517f08c379a0000000000000000000000000000000000000000000000000000000008152600401808060200182810382526034815260200180613a806034913960400191505060405180910390fd5b6003600085838151811061143d57fe5b60200260200101518152602001908152602001600020600086838151811061146157fe5b602002602001015173ffffffffffffffffffffffffffffffffffffffff1673ffffffffffffffffffffffffffffffffffffffff168152602001908152602001600020548282815181106114b057fe5b60200260200101818152505080600101905061138b565b508091505092915050565b6000600960008373ffffffffffffffffffffffffffffffffffffffff1673ffffffffffffffffffffffffffffffffffffffff168152602001908152602001600020549050919050565b611523612c0f565b611595576040517f08c379a00000000000000000000000000000000000000000000000000000000081526004018080602001828103825260208152602001807f4f776e61626c653a2063616c6c6572206973206e6f7420746865206f776e657281525060200191505060405180910390fd5b600180600083815260200190815260200160002060006101000a81548160ff02191690831515021790555050565b60008060009054906101000a900473ffffffffffffffffffffffffffffffffffffffff16905090565b8173ffffffffffffffffffffffffffffffffffffffff163373ffffffffffffffffffffffffffffffffffffffff161415611671576040517f08c379a000000000000000000000000000000000000000000000000000000000815260040180806020018281038252602c8152602001806139ee602c913960400191505060405180910390fd5b80600d60003373ffffffffffffffffffffffffffffffffffffffff1673ffffffffffffffffffffffffffffffffffffffff16815260200190815260200160002060008473ffffffffffffffffffffffffffffffffffffffff1673ffffffffffffffffffffffffffffffffffffffff16815260200190815260200160002060006101000a81548160ff0219169083151502179055508173ffffffffffffffffffffffffffffffffffffffff163373ffffffffffffffffffffffffffffffffffffffff167f17307eab39ab6107e8899845ad3d59bd9653f200f220920489ca2b5937696c3183604051808215151515815260200191505060405180910390a35050565b606060008090505b600b6000848152602001908152602001600020805490508110156118e9576000600b600085815260200190815260200160002082815481106117b857fe5b9060005260206000200160009054906101000a900473ffffffffffffffffffffffffffffffffffffffff16905060006003600086815260200190815260200160002060008373ffffffffffffffffffffffffffffffffffffffff1673ffffffffffffffffffffffffffffffffffffffff1681526020019081526020016000205411156118db576000835111156118b857611887836040518060400160405280600181526020017f2000000000000000000000000000000000000000000000000000000000000000815250612c66565b92506118b1836118ac8373ffffffffffffffffffffffffffffffffffffffff16612db1565b612c66565b92506118da565b6118d78173ffffffffffffffffffffffffffffffffffffffff16612db1565b92505b5b50808060010191505061177a565b50809050919050565b6118fa612c0f565b61196c576040517f08c379a00000000000000000000000000000000000000000000000000000000081526004018080602001828103825260208152602001807f4f776e61626c653a2063616c6c6572206973206e6f7420746865206f776e657281525060200191505060405180910390fd5b6000600260008373ffffffffffffffffffffffffffffffffffffffff1673ffffffffffffffffffffffffffffffffffffffff16815260200190815260200160002060006101000a81548160ff02191690831515021790555050565b60006119d282612ea0565b9050919050565b60006119e6848484612eca565b90509392505050565b60006119fa82613131565b9050919050565b6060600073ffffffffffffffffffffffffffffffffffffffff168273ffffffffffffffffffffffffffffffffffffffff161415611a89576040517f08c379a000000000000000000000000000000000000000000000000000000000815260040180806020018281038252602b815260200180613975602b913960400191505060405180910390fd5b60008090505b600a60008473ffffffffffffffffffffffffffffffffffffffff1673ffffffffffffffffffffffffffffffffffffffff16815260200190815260200160002080549050811015611c0a576000600a60008573ffffffffffffffffffffffffffffffffffffffff1673ffffffffffffffffffffffffffffffffffffffff1681526020019081526020016000208281548110611b2557fe5b9060005260206000200154905060006003600083815260200190815260200160002060008673ffffffffffffffffffffffffffffffffffffffff1673ffffffffffffffffffffffffffffffffffffffff168152602001908152602001600020541115611bfc57600083511115611bef57611bd4836040518060400160405280600181526020017f2000000000000000000000000000000000000000000000000000000000000000815250612c66565b9250611be883611be383612db1565b612c66565b9250611bfb565b611bf881612db1565b92505b5b508080600101915050611a8f565b50809050919050565b611c1b612c0f565b611c8d576040517f08c379a00000000000000000000000000000000000000000000000000000000081526004018080602001828103825260208152602001807f4f776e61626c653a2063616c6c6572206973206e6f7420746865206f776e657281525060200191505060405180910390fd5b60006001600083815260200190815260200160002060006101000a81548160ff02191690831515021790555050565b60008073ffffffffffffffffffffffffffffffffffffffff168373ffffffffffffffffffffffffffffffffffffffff161415611d43576040517f08c379a000000000000000000000000000000000000000000000000000000000815260040180806020018281038252602b815260200180613975602b913960400191505060405180910390fd5b60006003600084815260200190815260200160002060008573ffffffffffffffffffffffffffffffffffffffff1673ffffffffffffffffffffffffffffffffffffffff1681526020019081526020016000205414611df1576004600083815260200190815260200160002060008473ffffffffffffffffffffffffffffffffffffffff1673ffffffffffffffffffffffffffffffffffffffff16815260200190815260200160002054611df4565b60005b905092915050565b6000600d60008473ffffffffffffffffffffffffffffffffffffffff1673ffffffffffffffffffffffffffffffffffffffff16815260200190815260200160002060008373ffffffffffffffffffffffffffffffffffffffff1673ffffffffffffffffffffffffffffffffffffffff16815260200190815260200160002060009054906101000a900460ff16905092915050565b600073ffffffffffffffffffffffffffffffffffffffff168573ffffffffffffffffffffffffffffffffffffffff161415611f16576040517f08c379a00000000000000000000000000000000000000000000000000000000081526004018080602001828103825260288152602001806139c66028913960400191505060405180910390fd5b3373ffffffffffffffffffffffffffffffffffffffff168673ffffffffffffffffffffffffffffffffffffffff161480611f5d575060011515611f598733611dfc565b1515145b611fb2576040517f08c379a0000000000000000000000000000000000000000000000000000000008152600401808060200182810382526037815260200180613aff6037913960400191505060405180910390fd5b6000349050611fc48787878785612214565b810390508573ffffffffffffffffffffffffffffffffffffffff168773ffffffffffffffffffffffffffffffffffffffff163373ffffffffffffffffffffffffffffffffffffffff167fc3d58168c5ae7397731d063d5bbf3d657854427343f4c083240f7aacaa2d0f628888604051808381526020018281526020019250505060405180910390a461209e338888888888888080601f016020809104026020016040519081016040528093929190818152602001838380828437600081840152601f19601f82011690508083019250505050505050613187565b60008111156121855760003373ffffffffffffffffffffffffffffffffffffffff168260405180600001905060006040518083038185875af1925050503d8060008114612107576040519150601f19603f3d011682016040523d82523d6000602084013e61210c565b606091505b5050905080612183576040517f08c379a00000000000000000000000000000000000000000000000000000000081526004018080602001828103825260108152602001807f5472616e73666572206661696c65642e0000000000000000000000000000000081525060200191505060405180910390fd5b505b50505050505050565b612196612c0f565b612208576040517f08c379a00000000000000000000000000000000000000000000000000000000081526004018080602001828103825260208152602001807f4f776e61626c653a2063616c6c6572206973206e6f7420746865206f776e657281525060200191505060405180910390fd5b612211816133d4565b50565b600061222286868686613518565b15612295576040517f08c379a00000000000000000000000000000000000000000000000000000000081526004018080602001828103825260068152602001807f4c6f636b6564000000000000000000000000000000000000000000000000000081525060200191505060405180910390fd5b6122a0868585612eca565b9050808210156122fb576040517f08c379a000000000000000000000000000000000000000000000000000000000815260040180806020018281038252602b815260200180613b95602b913960400191505060405180910390fd5b612378836040518060600160405280602a8152602001613ab4602a91396003600088815260200190815260200160002060008a73ffffffffffffffffffffffffffffffffffffffff1673ffffffffffffffffffffffffffffffffffffffff168152602001908152602001600020546135589092919063ffffffff16565b6003600086815260200190815260200160002060008873ffffffffffffffffffffffffffffffffffffffff1673ffffffffffffffffffffffffffffffffffffffff168152602001908152602001600020819055506000612431846003600088815260200190815260200160002060008973ffffffffffffffffffffffffffffffffffffffff1673ffffffffffffffffffffffffffffffffffffffff1681526020019081526020016000205461361890919063ffffffff16565b905060006003600087815260200190815260200160002060008873ffffffffffffffffffffffffffffffffffffffff1673ffffffffffffffffffffffffffffffffffffffff16815260200190815260200160002054141561268557600c600086815260200190815260200160002060008773ffffffffffffffffffffffffffffffffffffffff1673ffffffffffffffffffffffffffffffffffffffff16815260200190815260200160002060009054906101000a900460ff1661262b57600a60008773ffffffffffffffffffffffffffffffffffffffff1673ffffffffffffffffffffffffffffffffffffffff168152602001908152602001600020859080600181540180825580915050906001820390600052602060002001600090919290919091505550600b60008681526020019081526020016000208690806001815401808255809150509060018203906000526020600020016000909192909190916101000a81548173ffffffffffffffffffffffffffffffffffffffff021916908373ffffffffffffffffffffffffffffffffffffffff16021790555050600c600086815260200190815260200160002060008773ffffffffffffffffffffffffffffffffffffffff1673ffffffffffffffffffffffffffffffffffffffff16815260200190815260200160002060009054906101000a9050505b426004600087815260200190815260200160002060008873ffffffffffffffffffffffffffffffffffffffff1673ffffffffffffffffffffffffffffffffffffffff168152602001908152602001600020819055506127bf565b60006126ea6004600088815260200190815260200160002060008973ffffffffffffffffffffffffffffffffffffffff1673ffffffffffffffffffffffffffffffffffffffff16815260200190815260200160002054426136a090919063ffffffff16565b905060006127638361275584600360008c815260200190815260200160002060008d73ffffffffffffffffffffffffffffffffffffffff1673ffffffffffffffffffffffffffffffffffffffff168152602001908152602001600020546136ea90919063ffffffff16565b61377090919063ffffffff16565b90508042036004600089815260200190815260200160002060008a73ffffffffffffffffffffffffffffffffffffffff1673ffffffffffffffffffffffffffffffffffffffff1681526020019081526020016000208190555050505b806003600087815260200190815260200160002060008873ffffffffffffffffffffffffffffffffffffffff1673ffffffffffffffffffffffffffffffffffffffff1681526020019081526020016000208190555060008090505b600760008781526020019081526020016000208054905081101561293257600060076000888152602001908152602001600020828154811061285857fe5b9060005260206000200160009054906101000a900473ffffffffffffffffffffffffffffffffffffffff16905060006008600089815260200190815260200160002083815481106128a557fe5b906000526020600020015490506128d96127106128cb83886136ea90919063ffffffff16565b61377090919063ffffffff16565b600960008473ffffffffffffffffffffffffffffffffffffffff1673ffffffffffffffffffffffffffffffffffffffff16815260200190815260200160002060008282540192505081905550505080600101905061281a565b508191505095945050505050565b61295f8473ffffffffffffffffffffffffffffffffffffffff166137ba565b15612c07578373ffffffffffffffffffffffffffffffffffffffff1663bc197c81905060e01b7bffffffffffffffffffffffffffffffffffffffffffffffffffffffff19168473ffffffffffffffffffffffffffffffffffffffff1663bc197c8188888787876040518663ffffffff1660e01b8152600401808673ffffffffffffffffffffffffffffffffffffffff1673ffffffffffffffffffffffffffffffffffffffff1681526020018573ffffffffffffffffffffffffffffffffffffffff1673ffffffffffffffffffffffffffffffffffffffff168152602001806020018060200180602001848103845287818151815260200191508051906020019060200280838360005b83811015612a83578082015181840152602081019050612a68565b50505050905001848103835286818151815260200191508051906020019060200280838360005b83811015612ac5578082015181840152602081019050612aaa565b50505050905001848103825285818151815260200191508051906020019080838360005b83811015612b04578082015181840152602081019050612ae9565b50505050905090810190601f168015612b315780820380516001836020036101000a031916815260200191505b5098505050505050505050602060405180830381600087803b158015612b5657600080fd5b505af1158015612b6a573d6000803e3d6000fd5b505050506040513d6020811015612b8057600080fd5b81019080805190602001909291905050507bffffffffffffffffffffffffffffffffffffffffffffffffffffffff191614612c06576040517f08c379a0000000000000000000000000000000000000000000000000000000008152600401808060200182810382526036815260200180613a4a6036913960400191505060405180910390fd5b5b505050505050565b60008060009054906101000a900473ffffffffffffffffffffffffffffffffffffffff1673ffffffffffffffffffffffffffffffffffffffff163373ffffffffffffffffffffffffffffffffffffffff1614905090565b6060808390506060839050606081518351016040519080825280601f01601f191660200182016040528015612caa5781602001600182028038833980820191505090505b509050606081905060008090506000809050600090505b8551811015612d2f57858181518110612cd657fe5b602001015160f81c60f81b838380600101945081518110612cf357fe5b60200101907effffffffffffffffffffffffffffffffffffffffffffffffffffffffffffff1916908160001a9053508080600101915050612cc1565b600090505b8451811015612da257848181518110612d4957fe5b602001015160f81c60f81b838380600101945081518110612d6657fe5b60200101907effffffffffffffffffffffffffffffffffffffffffffffffffffffffffffff1916908160001a9053508080600101915050612d34565b82965050505050505092915050565b6060600080905060008390505b60008114612de057818060010192505060108181612dd857fe5b049050612dbe565b6060826040519080825280601f01601f191660200182016040528015612e155781602001600182028038833980820191505090505b50905060008090505b83811015612e945760108681612e3057fe5b069250612e3c83613805565b8260018387030381518110612e4d57fe5b60200101907effffffffffffffffffffffffffffffffffffffffffffffffffffffffffffff1916908160001a90535060108681612e8657fe5b049550806001019050612e1e565b50809350505050919050565b60006001600083815260200190815260200160002060009054906101000a900460ff169050919050565b60008073ffffffffffffffffffffffffffffffffffffffff168473ffffffffffffffffffffffffffffffffffffffff161415612f51576040517f08c379a000000000000000000000000000000000000000000000000000000000815260040180806020018281038252602b815260200180613975602b913960400191505060405180910390fd5b600080905060004290506000600160056000888152602001908152602001600020805490500390505b60008110613124576000600560008881526020019081526020016000208281548110612fa257fe5b9060005260206000209060020201600060028110612fbc57fe5b0154905060006305f5e100600654600560008b81526020019081526020016000208581548110612fe857fe5b906000526020600020906002020160016002811061300257fe5b0154028161300c57fe5b049050600082600460008b815260200190815260200160002060008c73ffffffffffffffffffffffffffffffffffffffff1673ffffffffffffffffffffffffffffffffffffffff16815260200190815260200160002054106130e85762015180600460008b815260200190815260200160002060008c73ffffffffffffffffffffffffffffffffffffffff1673ffffffffffffffffffffffffffffffffffffffff168152602001908152602001600020548603816130c657fe5b04905060008114156130d757600190505b878282020286019550505050613124565b62015180838603816130f657fe5b049050600081141561310757600190505b829450878282020286019550505050808060019003915050612f7a565b5081925050509392505050565b6000600260008373ffffffffffffffffffffffffffffffffffffffff1673ffffffffffffffffffffffffffffffffffffffff16815260200190815260200160002060009054906101000a900460ff169050919050565b6131a68473ffffffffffffffffffffffffffffffffffffffff166137ba565b156133cc578373ffffffffffffffffffffffffffffffffffffffff1663f23a6e61905060e01b7bffffffffffffffffffffffffffffffffffffffffffffffffffffffff19168473ffffffffffffffffffffffffffffffffffffffff1663f23a6e6188888787876040518663ffffffff1660e01b8152600401808673ffffffffffffffffffffffffffffffffffffffff1673ffffffffffffffffffffffffffffffffffffffff1681526020018573ffffffffffffffffffffffffffffffffffffffff1673ffffffffffffffffffffffffffffffffffffffff16815260200184815260200183815260200180602001828103825283818151815260200191508051906020019080838360005b838110156132cb5780820151818401526020810190506132b0565b50505050905090810190601f1680156132f85780820380516001836020036101000a031916815260200191505b509650505050505050602060405180830381600087803b15801561331b57600080fd5b505af115801561332f573d6000803e3d6000fd5b505050506040513d602081101561334557600080fd5b81019080805190602001909291905050507bffffffffffffffffffffffffffffffffffffffffffffffffffffffff1916146133cb576040517f08c379a0000000000000000000000000000000000000000000000000000000008152600401808060200182810382526031815260200180613b646031913960400191505060405180910390fd5b5b505050505050565b600073ffffffffffffffffffffffffffffffffffffffff168173ffffffffffffffffffffffffffffffffffffffff16141561345a576040517f08c379a00000000000000000000000000000000000000000000000000000000081526004018080602001828103825260268152602001806139a06026913960400191505060405180910390fd5b8073ffffffffffffffffffffffffffffffffffffffff166000809054906101000a900473ffffffffffffffffffffffffffffffffffffffff1673ffffffffffffffffffffffffffffffffffffffff167f8be0079c531659141344cd1fd0a4f28419497f9722a3daafe3b4186f6b6457e060405160405180910390a3806000806101000a81548173ffffffffffffffffffffffffffffffffffffffff021916908373ffffffffffffffffffffffffffffffffffffffff16021790555050565b600061352383612ea0565b80613533575061353285613131565b5b80613543575061354284613131565b5b8061354e5750600082145b9050949350505050565b6000838311158290613605576040517f08c379a00000000000000000000000000000000000000000000000000000000081526004018080602001828103825283818151815260200191508051906020019080838360005b838110156135ca5780820151818401526020810190506135af565b50505050905090810190601f1680156135f75780820380516001836020036101000a031916815260200191505b509250505060405180910390fd5b5060008385039050809150509392505050565b600080828401905083811015613696576040517f08c379a000000000000000000000000000000000000000000000000000000000815260040180806020018281038252601b8152602001807f536166654d6174683a206164646974696f6e206f766572666c6f77000000000081525060200191505060405180910390fd5b8091505092915050565b60006136e283836040518060400160405280601e81526020017f536166654d6174683a207375627472616374696f6e206f766572666c6f770000815250613558565b905092915050565b6000808314156136fd576000905061376a565b600082840290508284828161370e57fe5b0414613765576040517f08c379a0000000000000000000000000000000000000000000000000000000008152600401808060200182810382526021815260200180613ade6021913960400191505060405180910390fd5b809150505b92915050565b60006137b283836040518060400160405280601a81526020017f536166654d6174683a206469766973696f6e206279207a65726f0000000000008152506138ae565b905092915050565b60008060007fc5d2460186f7233c927e7db2dcc703c0e500b653ca82273b7bfad8045d85a47060001b9050833f91506000801b82141580156137fc5750808214155b92505050919050565b60008160ff1660001115801561381f575060098260ff1611155b1561385457817f300000000000000000000000000000000000000000000000000000000000000060f81c0160f81b90506138a9565b8160ff16600a1115801561386c5750600f8260ff1611155b156138a457600a827f610000000000000000000000000000000000000000000000000000000000000060f81c010360f81b90506138a9565b600080fd5b919050565b6000808311829061395a576040517f08c379a00000000000000000000000000000000000000000000000000000000081526004018080602001828103825283818151815260200191508051906020019080838360005b8381101561391f578082015181840152602081019050613904565b50505050905090810190601f16801561394c5780820380516001836020036101000a031916815260200191505b509250505060405180910390fd5b50600083858161396657fe5b04905080915050939250505056fe455243313135353a2062616c616e636520717565727920666f7220746865207a65726f20616464726573734f776e61626c653a206e6577206f776e657220697320746865207a65726f2061646472657373455243313135353a207461726765742061646472657373206d757374206265206e6f6e2d7a65726f455243313135353a2063616e6e6f742073657420617070726f76616c2073746174757320666f722073656c66455243313135353a206163636f756e747320616e6420494473206d75737420686176652073616d65206c656e67746873455243313135353a20676f7420756e6b6e6f776e2076616c75652066726f6d206f6e4552433131353542617463685265636569766564455243313135353a20736f6d65206164647265737320696e2062617463682062616c616e6365207175657279206973207a65726f455243313135353a20696e73756666696369656e742062616c616e636520666f72207472616e73666572536166654d6174683a206d756c7469706c69636174696f6e206f766572666c6f77455243313135353a206e656564206f70657261746f7220617070726f76616c20666f7220337264207061727479207472616e7366657273455243313135353a2049447320616e642076616c756573206d75737420686176652073616d65206c656e67746873455243313135353a20676f7420756e6b6e6f776e2076616c75652066726f6d206f6e455243313135355265636569766564455243313135353a20696e73756666696369656e742045544820666f72207472616e736665722066656573a265627a7a723158202cc1f30507db79f30a166541ae52836977c7ad519c9f6bc01f6b27c77adab7ca64736f6c634300050c00324f776e61626c653a206e6577206f776e657220697320746865207a65726f2061646472657373",
  "source": "pragma solidity ^0.5.12;\n\nimport \"./IERC1155.sol\";\nimport \"./IERC1155Receiver.sol\";\nimport \"../ERC165/IERC165.sol\";\nimport \"../utils/SafeMath.sol\";\nimport \"../utils/StringUtils.sol\";\nimport \"../utils/Address.sol\";\nimport './ERC1155Lockable.sol';\n\n/**\n * @title Standard ERC1155 token\n *\n * @dev Implementation of the basic standard multi-token.\n * See https://eips.ethereum.org/EIPS/eip-1155\n * Originally based on code by Enjin: https://github.com/enjin/erc-1155\n */\ncontract ERC1155 is IERC165, IERC1155, ERC1155Lockable, StringUtils\n{\n    bytes4 constant private INTERFACE_SIGNATURE_ERC165 = 0x01ffc9a7;\n    bytes4 constant private INTERFACE_SIGNATURE_ERC1155 = 0xd9b67a26;\n\n    using SafeMath for uint256;\n    using Address for address;\n\n    // Mapping from token ID to account balances\n    mapping (uint256 => mapping(address => uint256)) _balances;\n\n    // Mapping from token ID to account age\n    mapping (uint256 => mapping(address => uint256)) _birthdays;\n\n    // Mapping from token ID to list of tuple [timestamp, price]\n    mapping (uint256 => uint256[2][]) internal _storageCostHistory;\n\n    // price on one storage credit in wei\n    uint256 storageCreditPrice = 1000;\n\n    // For each token a list of addresses receiving transfer fees\n    mapping (uint256 => address[]) internal _feesRecipients;\n    // For each token a list of percentage, each one for the corresponding _feesRecipients index\n    mapping (uint256 => uint256[]) internal _feesRecipientsPercentage;\n    // Balances ETH for fees recipients and callbacks\n    mapping (address => uint256) internal _ETHBalances;\n\n    // For each address a list of token IDs. Can contains zero balance.\n    mapping (address => uint256[]) internal _tokensByAddress;\n    // For each token a list of addresses. Can contains zero balance.\n    mapping (uint256 => address[]) internal _addressesByToken;\n    // Initialize to true on the first token received, never come back to false.\n    mapping (uint256 => mapping(address => bool)) internal _isHolder;\n\n    // Mapping from account to operator approvals\n    mapping (address => mapping(address => bool)) private _operatorApprovals;\n\n    /**\n     * @notice Query if a contract implements an interface\n     * @param _interfaceID  The interface identifier, as specified in ERC-165\n     * @return `true` if the contract implements `_interfaceID` and\n     */\n    function supportsInterface(bytes4 _interfaceID) external view returns (bool) {\n      if (_interfaceID == INTERFACE_SIGNATURE_ERC165 ||\n          _interfaceID == INTERFACE_SIGNATURE_ERC1155) {\n        return true;\n      }\n      return false;\n    }\n\n    /**\n        @dev Get the specified address' balance for token with specified ID.\n\n        Attempting to query the zero account for a balance will result in a revert.\n\n        @param account The address of the token holder\n        @param id ID of the token\n        @return The account's balance of the token type requested\n     */\n    function balanceOf(address account, uint256 id) public view returns (uint256) {\n        require(account != address(0), \"ERC1155: balance query for the zero address\");\n        return _balances[id][account];\n    }\n\n    function ethBalanceOf(address account) public view returns (uint256) {\n        return _ETHBalances[account];\n    }\n\n    /**\n        @dev Get the balance of multiple account/token pairs.\n\n        If any of the query accounts is the zero account, this query will revert.\n\n        @param accounts The addresses of the token holders\n        @param ids IDs of the tokens\n        @return Balances for each account and token id pair\n     */\n    function balanceOfBatch(\n        address[] memory accounts,\n        uint256[] memory ids\n    )\n        public\n        view\n        returns (uint256[] memory)\n    {\n        require(accounts.length == ids.length, \"ERC1155: accounts and IDs must have same lengths\");\n\n        uint256[] memory batchBalances = new uint256[](accounts.length);\n\n        for (uint256 i = 0; i < accounts.length; ++i) {\n            require(accounts[i] != address(0), \"ERC1155: some address in batch balance query is zero\");\n            batchBalances[i] = _balances[ids[i]][accounts[i]];\n        }\n\n        return batchBalances;\n    }\n\n    /**\n     * @dev Sets or unsets the approval of a given operator.\n     *\n     * An operator is allowed to transfer all tokens of the sender on their behalf.\n     *\n     * Because an account already has operator privileges for itself, this function will revert\n     * if the account attempts to set the approval status for itself.\n     *\n     * @param operator address to set the approval\n     * @param approved representing the status of the approval to be set\n     */\n    function setApprovalForAll(address operator, bool approved) external {\n        require(msg.sender != operator, \"ERC1155: cannot set approval status for self\");\n        _operatorApprovals[msg.sender][operator] = approved;\n        emit ApprovalForAll(msg.sender, operator, approved);\n    }\n\n    /**\n        @notice Queries the approval status of an operator for a given account.\n        @param account   The account of the Tokens\n        @param operator  Address of authorized operator\n        @return           True if the operator is approved, false if not\n    */\n    function isApprovedForAll(address account, address operator) public view returns (bool) {\n        return _operatorApprovals[account][operator];\n    }\n\n    /**\n        @dev Transfers `value` amount of an `id` from the `from` address to the `to` address specified.\n        Caller must be approved to manage the tokens being transferred out of the `from` account.\n        If `to` is a smart contract, will call `onERC1155Received` on `to` and act appropriately.\n        @param from Source address\n        @param to Target address\n        @param id ID of the token type\n        @param value Transfer amount\n        @param data Data forwarded to `onERC1155Received` if `to` is a contract receiver\n    */\n    function safeTransferFrom(\n        address from,\n        address to,\n        uint256 id,\n        uint256 value,\n        bytes calldata data\n    )\n        external payable\n    {\n        require(to != address(0), \"ERC1155: target address must be non-zero\");\n        require(\n            from == msg.sender || isApprovedForAll(from, msg.sender) == true,\n            \"ERC1155: need operator approval for 3rd party transfers\"\n        );\n\n        uint256 feesBalance = msg.value;\n        feesBalance = feesBalance - _moveTokens(from, to, id, value, feesBalance);\n\n        emit TransferSingle(msg.sender, from, to, id, value);\n\n        _doSafeTransferAcceptanceCheck(msg.sender, from, to, id, value, data);\n\n        if (feesBalance > 0) {\n          (bool success, ) = msg.sender.call.value(feesBalance)(\"\");\n          require(success, \"Transfer failed.\");\n        }\n    }\n\n    /**\n        @dev Transfers `values` amount(s) of `ids` from the `from` address to the\n        `to` address specified. Caller must be approved to manage the tokens being\n        transferred out of the `from` account. If `to` is a smart contract, will\n        call `onERC1155BatchReceived` on `to` and act appropriately.\n        @param from Source address\n        @param to Target address\n        @param ids IDs of each token type\n        @param values Transfer amounts per token type\n        @param data Data forwarded to `onERC1155Received` if `to` is a contract receiver\n    */\n    function safeBatchTransferFrom(\n        address from,\n        address to,\n        uint256[] calldata ids,\n        uint256[] calldata values,\n        bytes calldata data\n    )\n        external payable\n    {\n        require(ids.length == values.length, \"ERC1155: IDs and values must have same lengths\");\n        require(to != address(0), \"ERC1155: target address must be non-zero\");\n        require(\n          from == msg.sender || isApprovedForAll(from, msg.sender) == true,\n          \"ERC1155: need operator approval for 3rd party transfers\"\n        );\n\n        uint256 feesBalance = msg.value;\n        for (uint256 i = 0; i < ids.length; ++i) {\n          feesBalance = feesBalance - _moveTokens(from, to, ids[i], values[i], feesBalance);\n        }\n\n        emit TransferBatch(msg.sender, from, to, ids, values);\n\n        _doSafeBatchTransferAcceptanceCheck(msg.sender, from, to, ids, values, data);\n\n        if (feesBalance > 0) {\n          (bool success, ) = msg.sender.call.value(feesBalance)(\"\");\n          require(success, \"Transfer failed.\");\n        }\n    }\n\n    function _moveTokens(address from, address to, uint256 id, uint256 value, uint256 feesBalance) internal returns (uint256 fees) {\n        require(!_isLockedMove(from, to, id, value), \"Locked\");\n\n        fees = _storageFees(from, id, value);\n        require(feesBalance >= fees, \"ERC1155: insufficient ETH for transfer fees\");\n\n        _balances[id][from] = _balances[id][from].sub(value, \"ERC1155: insufficient balance for transfer\");\n\n        uint256 newBalanceTo = _balances[id][to].add(value);\n\n        if (_balances[id][to] == 0) {\n\n          if (!_isHolder[id][to]) {\n            _tokensByAddress[to].push(id);\n            _addressesByToken[id].push(to);\n            _isHolder[id][to];\n          }\n\n          _birthdays[id][to] = block.timestamp;\n\n        } else {\n          // calculate the average birthday of the received and hold tokens\n          uint256 oldTokensAge = block.timestamp.sub(_birthdays[id][to]);\n          uint256 newTokenAge = (_balances[id][to].mul(oldTokensAge)).div(newBalanceTo);\n\n          _birthdays[id][to] = block.timestamp - newTokenAge;\n        }\n\n        _balances[id][to] = newBalanceTo;\n\n        for (uint256 i = 0; i < _feesRecipients[id].length; ++i) {\n          address feesRecipient = _feesRecipients[id][i];\n          uint256 feesRecipientsPercentage = _feesRecipientsPercentage[id][i];\n          _ETHBalances[feesRecipient] += (fees.mul(feesRecipientsPercentage)).div(10000);\n        }\n\n        return fees;\n    }\n\n    function birthdayOf(address account, uint256 id) public view returns (uint256) {\n        require(account != address(0), \"ERC1155: balance query for the zero address\");\n        return _balances[id][account] == 0 ? 0 : _birthdays[id][account];\n    }\n\n    function _storageFees(address account, uint256 id, uint256 value) internal view returns (uint256) {\n        require(account != address(0), \"ERC1155: balance query for the zero address\");\n\n        uint256 totalCost = 0;\n        uint256 timeCursor = block.timestamp;\n\n        for (uint i = _storageCostHistory[id].length - 1; i >= 0; i--) {\n\n          uint256 costStartAt = _storageCostHistory[id][i][0];\n          uint256 cost = (_storageCostHistory[id][i][1] * storageCreditPrice) / 10**8;\n          uint256 storageDays;\n\n          if (_birthdays[id][account] >= costStartAt) {\n            storageDays = (timeCursor - _birthdays[id][account]) / 86400;\n            if (storageDays == 0) storageDays = 1;\n            totalCost += storageDays * cost * value;\n            break;\n          } else {\n            storageDays = (timeCursor - costStartAt) / 86400;\n            if (storageDays == 0) storageDays = 1;\n            timeCursor = costStartAt;\n            totalCost += storageDays * cost * value;\n          }\n        }\n\n        return totalCost;\n    }\n\n    function storageFees(address account, uint256 id, uint256 value) public view returns (uint256) {\n        return _storageFees(account, id, value);\n    }\n\n    function tokensByAddress(address account) public view returns (string memory result) {\n        require(account != address(0), \"ERC1155: balance query for the zero address\");\n\n        for (uint i = 0; i < _tokensByAddress[account].length; i++) {\n            uint256 id = _tokensByAddress[account][i];\n            if (_balances[id][account] > 0) {\n              if (bytes(result).length > 0) {\n                result = _strConcat(result, \" \");\n                result = _strConcat(result, _toHexString(id));\n              } else {\n                result = _toHexString(id);\n              }\n            }\n        }\n        return result;\n    }\n\n    function addressesByToken(uint256 id) public view returns (string memory result) {\n\n        for (uint i = 0; i < _addressesByToken[id].length; i++) {\n            address account = _addressesByToken[id][i];\n            if (_balances[id][account] > 0) {\n              if (bytes(result).length > 0) {\n                result = _strConcat(result, \" \");\n                result = _strConcat(result, _toHexString(uint256(account)));\n              } else {\n                result = _toHexString(uint256(account));\n              }\n            }\n        }\n        return result;\n    }\n\n\n\n    function _doSafeTransferAcceptanceCheck(\n        address operator,\n        address from,\n        address to,\n        uint256 id,\n        uint256 value,\n        bytes memory data\n    )\n        internal\n    {\n        if(to.isContract()) {\n            require(\n                IERC1155Receiver(to).onERC1155Received(operator, from, id, value, data) ==\n                    IERC1155Receiver(to).onERC1155Received.selector,\n                \"ERC1155: got unknown value from onERC1155Received\"\n            );\n        }\n    }\n\n    function _doSafeBatchTransferAcceptanceCheck(\n        address operator,\n        address from,\n        address to,\n        uint256[] memory ids,\n        uint256[] memory values,\n        bytes memory data\n    )\n        internal\n    {\n        if(to.isContract()) {\n            require(\n                IERC1155Receiver(to).onERC1155BatchReceived(operator, from, ids, values, data) ==\n                    IERC1155Receiver(to).onERC1155BatchReceived.selector,\n                \"ERC1155: got unknown value from onERC1155BatchReceived\"\n            );\n        }\n    }\n}\n",
  "sourcePath": "/home/ouziel/Work/StashBloxContracts/contracts/lib/ERC1155/ERC1155.sol",
  "compiler": {
    "name": "solc",
    "version": "0.5.12+commit.7709ece9.Emscripten.clang"
  },
  "schemaVersion": "3.2.3",
  "updatedAt": "2020-09-27T14:48:35.445Z",
  "devdoc": {
    "details": "Implementation of the basic standard multi-token. See https://eips.ethereum.org/EIPS/eip-1155 Originally based on code by Enjin: https://github.com/enjin/erc-1155",
    "methods": {
      "balanceOf(address,uint256)": {
        "details": "Get the specified address' balance for token with specified ID. Attempting to query the zero account for a balance will result in a revert.",
        "params": {
          "account": "The address of the token holder",
          "id": "ID of the token"
        },
        "return": "The account's balance of the token type requested"
      },
      "balanceOfBatch(address[],uint256[])": {
        "details": "Get the balance of multiple account/token pairs. If any of the query accounts is the zero account, this query will revert.",
        "params": {
          "accounts": "The addresses of the token holders",
          "ids": "IDs of the tokens"
        },
        "return": "Balances for each account and token id pair"
      },
      "isApprovedForAll(address,address)": {
        "params": {
          "account": "The account of the Tokens",
          "operator": "Address of authorized operator"
        },
        "return": "True if the operator is approved, false if not"
      },
      "owner()": {
        "details": "Returns the address of the current owner."
      },
      "safeBatchTransferFrom(address,address,uint256[],uint256[],bytes)": {
        "details": "Transfers `values` amount(s) of `ids` from the `from` address to the `to` address specified. Caller must be approved to manage the tokens being transferred out of the `from` account. If `to` is a smart contract, will call `onERC1155BatchReceived` on `to` and act appropriately.",
        "params": {
          "data": "Data forwarded to `onERC1155Received` if `to` is a contract receiver",
          "from": "Source address",
          "ids": "IDs of each token type",
          "to": "Target address",
          "values": "Transfer amounts per token type"
        }
      },
      "safeTransferFrom(address,address,uint256,uint256,bytes)": {
        "details": "Transfers `value` amount of an `id` from the `from` address to the `to` address specified. Caller must be approved to manage the tokens being transferred out of the `from` account. If `to` is a smart contract, will call `onERC1155Received` on `to` and act appropriately.",
        "params": {
          "data": "Data forwarded to `onERC1155Received` if `to` is a contract receiver",
          "from": "Source address",
          "id": "ID of the token type",
          "to": "Target address",
          "value": "Transfer amount"
        }
      },
      "setApprovalForAll(address,bool)": {
        "details": "Sets or unsets the approval of a given operator.     * An operator is allowed to transfer all tokens of the sender on their behalf.     * Because an account already has operator privileges for itself, this function will revert if the account attempts to set the approval status for itself.",
        "params": {
          "approved": "representing the status of the approval to be set",
          "operator": "address to set the approval"
        }
      },
      "supportsInterface(bytes4)": {
        "params": {
          "_interfaceID": "The interface identifier, as specified in ERC-165"
        },
        "return": "`true` if the contract implements `_interfaceID` and"
      },
      "transferOwnership(address)": {
        "details": "Transfers ownership of the contract to a new account (`newOwner`). Can only be called by the current owner."
      }
    },
    "title": "Standard ERC1155 token"
  },
  "userdoc": {
    "methods": {
      "isApprovedForAll(address,address)": {
        "notice": "Queries the approval status of an operator for a given account."
      },
      "supportsInterface(bytes4)": {
        "notice": "Query if a contract implements an interface"
      }
    }
  }
}