{
  "contractName": "ERC1155Lockable",
  "abi": [
    {
      "anonymous": false,
      "inputs": [
        {
          "indexed": true,
          "internalType": "address",
          "name": "previousOwner",
          "type": "address"
        },
        {
          "indexed": true,
          "internalType": "address",
          "name": "newOwner",
          "type": "address"
        }
      ],
      "name": "OwnershipTransferred",
      "type": "event"
    },
    {
      "inputs": [],
      "name": "owner",
      "outputs": [
        {
          "internalType": "address",
          "name": "",
          "type": "address"
        }
      ],
      "stateMutability": "view",
      "type": "function"
    },
    {
      "inputs": [
        {
          "internalType": "address",
          "name": "newOwner",
          "type": "address"
        }
      ],
      "name": "transferOwnership",
      "outputs": [],
      "stateMutability": "nonpayable",
      "type": "function"
    },
    {
      "inputs": [
        {
          "internalType": "uint256",
          "name": "id",
          "type": "uint256"
        }
      ],
      "name": "lockToken",
      "outputs": [],
      "stateMutability": "nonpayable",
      "type": "function"
    },
    {
      "inputs": [
        {
          "internalType": "uint256",
          "name": "id",
          "type": "uint256"
        }
      ],
      "name": "unlockToken",
      "outputs": [],
      "stateMutability": "nonpayable",
      "type": "function"
    },
    {
      "inputs": [
        {
          "internalType": "uint256",
          "name": "id",
          "type": "uint256"
        }
      ],
      "name": "isLockedToken",
      "outputs": [
        {
          "internalType": "bool",
          "name": "",
          "type": "bool"
        }
      ],
      "stateMutability": "view",
      "type": "function"
    },
    {
      "inputs": [
        {
          "internalType": "address",
          "name": "addr",
          "type": "address"
        }
      ],
      "name": "lockAddress",
      "outputs": [],
      "stateMutability": "nonpayable",
      "type": "function"
    },
    {
      "inputs": [
        {
          "internalType": "address",
          "name": "addr",
          "type": "address"
        }
      ],
      "name": "unlockAddress",
      "outputs": [],
      "stateMutability": "nonpayable",
      "type": "function"
    },
    {
      "inputs": [
        {
          "internalType": "address",
          "name": "addr",
          "type": "address"
        }
      ],
      "name": "isLockedAddress",
      "outputs": [
        {
          "internalType": "bool",
          "name": "",
          "type": "bool"
        }
      ],
      "stateMutability": "view",
      "type": "function"
    }
  ],
  "bytecode": "0x608060405234801561001057600080fd5b5061001a3361001f565b6100d9565b6001600160a01b03811661007e576040517f08c379a00000000000000000000000000000000000000000000000000000000081526004018080602001828103825260268152602001806106136026913960400191505060405180910390fd5b600080546040516001600160a01b03808516939216917f8be0079c531659141344cd1fd0a4f28419497f9722a3daafe3b4186f6b6457e091a3600080546001600160a01b0319166001600160a01b0392909216919091179055565b61052b806100e86000396000f3fe608060405234801561001057600080fd5b50600436106100885760003560e01c8063bba75c831161005b578063bba75c831461011c578063cba54e601461014d578063dd2e0ac014610173578063f2fde38b1461019057610088565b806334a90d021461008d57806380f20363146100b55780638da5cb5b146100d2578063b7eb5e0a146100f6575b600080fd5b6100b3600480360360208110156100a357600080fd5b50356001600160a01b03166101b6565b005b6100b3600480360360208110156100cb57600080fd5b5035610221565b6100da610286565b604080516001600160a01b039092168252519081900360200190f35b6100b36004803603602081101561010c57600080fd5b50356001600160a01b0316610295565b6101396004803603602081101561013257600080fd5b50356102fd565b604080519115158252519081900360200190f35b6101396004803603602081101561016357600080fd5b50356001600160a01b031661030e565b6100b36004803603602081101561018957600080fd5b5035610319565b6100b3600480360360208110156101a657600080fd5b50356001600160a01b0316610378565b6101be6103cb565b6101fd576040805162461bcd60e51b815260206004820181905260248201526000805160206104d6833981519152604482015290519081900360640190fd5b6001600160a01b03166000908152600260205260409020805460ff19166001179055565b6102296103cb565b610268576040805162461bcd60e51b815260206004820181905260248201526000805160206104d6833981519152604482015290519081900360640190fd5b6000908152600160208190526040909120805460ff19169091179055565b6000546001600160a01b031690565b61029d6103cb565b6102dc576040805162461bcd60e51b815260206004820181905260248201526000805160206104d6833981519152604482015290519081900360640190fd5b6001600160a01b03166000908152600260205260409020805460ff19169055565b6000610308826103dc565b92915050565b6000610308826103f1565b6103216103cb565b610360576040805162461bcd60e51b815260206004820181905260248201526000805160206104d6833981519152604482015290519081900360640190fd5b6000908152600160205260409020805460ff19169055565b6103806103cb565b6103bf576040805162461bcd60e51b815260206004820181905260248201526000805160206104d6833981519152604482015290519081900360640190fd5b6103c88161040f565b50565b6000546001600160a01b0316331490565b60009081526001602052604090205460ff1690565b6001600160a01b031660009081526002602052604090205460ff1690565b6001600160a01b0381166104545760405162461bcd60e51b81526004018080602001828103825260268152602001806104b06026913960400191505060405180910390fd5b600080546040516001600160a01b03808516939216917f8be0079c531659141344cd1fd0a4f28419497f9722a3daafe3b4186f6b6457e091a3600080546001600160a01b0319166001600160a01b039290921691909117905556fe4f776e61626c653a206e6577206f776e657220697320746865207a65726f20616464726573734f776e61626c653a2063616c6c6572206973206e6f7420746865206f776e6572a2646970667358221220fc572a0bd9fc11abb7c8f37b31e34f72443d77e6d6903d4942a78cd432e1488464736f6c634300070100334f776e61626c653a206e6577206f776e657220697320746865207a65726f2061646472657373",
  "immutableReferences": {},
  "source": "pragma solidity ^0.7.1;\n\nimport \"../ERC173/ERC173.sol\";\n\ncontract ERC1155Lockable is ERC173 {\n\n    // Mapping for locked tokens\n    mapping (uint256 => bool) private _tokenLocks;\n    mapping (address => bool) private _addressLocks;\n\n    function lockToken(uint256 id) external onlyOwner {\n        _tokenLocks[id] = true;\n    }\n\n    function unlockToken(uint256 id) external onlyOwner {\n        _tokenLocks[id] = false;\n    }\n\n    function isLockedToken(uint256 id) external view returns (bool){\n        return _isLockedToken(id);\n    }\n\n    function _isLockedToken(uint256 id) internal view returns (bool) {\n        return _tokenLocks[id];\n    }\n\n    function lockAddress(address addr) external onlyOwner {\n        _addressLocks[addr] = true;\n    }\n\n    function unlockAddress(address addr) external onlyOwner {\n        _addressLocks[addr] = false;\n    }\n\n    function isLockedAddress(address addr) external view returns (bool){\n        return _isLockedAddress(addr);\n    }\n\n    function _isLockedAddress(address addr) internal view returns (bool) {\n        return _addressLocks[addr];\n    }\n\n    function _isLockedMove(address from, address to, uint256 id, uint256 value) internal view returns (bool) {\n        return _isLockedToken(id) || _isLockedAddress(from) || _isLockedAddress(to) || (value == 0);\n    }\n}\n",
  "sourcePath": "/home/ouziel/Work/StashBloxContracts/contracts/lib/ERC1155/ERC1155Lockable.sol",
  "compiler": {
    "name": "solc",
    "version": "0.7.1+commit.f4a555be.Emscripten.clang"
  },
  "schemaVersion": "3.2.3",
  "updatedAt": "2020-10-01T11:36:01.028Z",
  "devdoc": {
    "kind": "dev",
    "methods": {
      "owner()": {
        "details": "Returns the address of the current owner."
      },
      "transferOwnership(address)": {
        "details": "Transfers ownership of the contract to a new account (`newOwner`). Can only be called by the current owner."
      }
    },
    "version": 1
  },
  "userdoc": {
    "kind": "user",
    "methods": {},
    "version": 1
  }
}