{
  "contractName": "ERC1155",
  "abi": [
    {
      "anonymous": false,
      "inputs": [
        {
          "indexed": true,
          "internalType": "address",
          "name": "_owner",
          "type": "address"
        },
        {
          "indexed": true,
          "internalType": "address",
          "name": "_operator",
          "type": "address"
        },
        {
          "indexed": false,
          "internalType": "bool",
          "name": "_approved",
          "type": "bool"
        }
      ],
      "name": "ApprovalForAll",
      "type": "event"
    },
    {
      "anonymous": false,
      "inputs": [
        {
          "indexed": true,
          "internalType": "address",
          "name": "previousOwner",
          "type": "address"
        },
        {
          "indexed": true,
          "internalType": "address",
          "name": "newOwner",
          "type": "address"
        }
      ],
      "name": "OwnershipTransferred",
      "type": "event"
    },
    {
      "anonymous": false,
      "inputs": [
        {
          "indexed": true,
          "internalType": "address",
          "name": "_operator",
          "type": "address"
        },
        {
          "indexed": true,
          "internalType": "address",
          "name": "_from",
          "type": "address"
        },
        {
          "indexed": true,
          "internalType": "address",
          "name": "_to",
          "type": "address"
        },
        {
          "indexed": false,
          "internalType": "uint256[]",
          "name": "_ids",
          "type": "uint256[]"
        },
        {
          "indexed": false,
          "internalType": "uint256[]",
          "name": "_values",
          "type": "uint256[]"
        }
      ],
      "name": "TransferBatch",
      "type": "event"
    },
    {
      "anonymous": false,
      "inputs": [
        {
          "indexed": true,
          "internalType": "address",
          "name": "_operator",
          "type": "address"
        },
        {
          "indexed": true,
          "internalType": "address",
          "name": "_from",
          "type": "address"
        },
        {
          "indexed": true,
          "internalType": "address",
          "name": "_to",
          "type": "address"
        },
        {
          "indexed": false,
          "internalType": "uint256",
          "name": "_id",
          "type": "uint256"
        },
        {
          "indexed": false,
          "internalType": "uint256",
          "name": "_value",
          "type": "uint256"
        }
      ],
      "name": "TransferSingle",
      "type": "event"
    },
    {
      "anonymous": false,
      "inputs": [
        {
          "indexed": false,
          "internalType": "string",
          "name": "_value",
          "type": "string"
        },
        {
          "indexed": true,
          "internalType": "uint256",
          "name": "_id",
          "type": "uint256"
        }
      ],
      "name": "URI",
      "type": "event"
    },
    {
      "inputs": [
        {
          "internalType": "address",
          "name": "",
          "type": "address"
        }
      ],
      "name": "_ETHBalances",
      "outputs": [
        {
          "internalType": "uint256",
          "name": "",
          "type": "uint256"
        }
      ],
      "stateMutability": "view",
      "type": "function"
    },
    {
      "inputs": [
        {
          "internalType": "uint256",
          "name": "",
          "type": "uint256"
        },
        {
          "internalType": "uint256",
          "name": "",
          "type": "uint256"
        }
      ],
      "name": "_addressesByToken",
      "outputs": [
        {
          "internalType": "address",
          "name": "",
          "type": "address"
        }
      ],
      "stateMutability": "view",
      "type": "function"
    },
    {
      "inputs": [
        {
          "internalType": "uint256",
          "name": "",
          "type": "uint256"
        },
        {
          "internalType": "address",
          "name": "",
          "type": "address"
        }
      ],
      "name": "_birthdays",
      "outputs": [
        {
          "internalType": "uint256",
          "name": "",
          "type": "uint256"
        }
      ],
      "stateMutability": "view",
      "type": "function"
    },
    {
      "inputs": [
        {
          "internalType": "address",
          "name": "",
          "type": "address"
        },
        {
          "internalType": "uint256",
          "name": "",
          "type": "uint256"
        }
      ],
      "name": "_tokensByAddress",
      "outputs": [
        {
          "internalType": "uint256",
          "name": "",
          "type": "uint256"
        }
      ],
      "stateMutability": "view",
      "type": "function"
    },
    {
      "inputs": [
        {
          "internalType": "address",
          "name": "addr",
          "type": "address"
        }
      ],
      "name": "isLockedAddress",
      "outputs": [
        {
          "internalType": "bool",
          "name": "",
          "type": "bool"
        }
      ],
      "stateMutability": "view",
      "type": "function"
    },
    {
      "inputs": [
        {
          "internalType": "uint256",
          "name": "id",
          "type": "uint256"
        }
      ],
      "name": "isLockedToken",
      "outputs": [
        {
          "internalType": "bool",
          "name": "",
          "type": "bool"
        }
      ],
      "stateMutability": "view",
      "type": "function"
    },
    {
      "inputs": [
        {
          "internalType": "address",
          "name": "addr",
          "type": "address"
        }
      ],
      "name": "lockAddress",
      "outputs": [],
      "stateMutability": "nonpayable",
      "type": "function"
    },
    {
      "inputs": [
        {
          "internalType": "uint256",
          "name": "id",
          "type": "uint256"
        }
      ],
      "name": "lockToken",
      "outputs": [],
      "stateMutability": "nonpayable",
      "type": "function"
    },
    {
      "inputs": [],
      "name": "owner",
      "outputs": [
        {
          "internalType": "address",
          "name": "",
          "type": "address"
        }
      ],
      "stateMutability": "view",
      "type": "function"
    },
    {
      "inputs": [
        {
          "internalType": "address",
          "name": "newOwner",
          "type": "address"
        }
      ],
      "name": "transferOwnership",
      "outputs": [],
      "stateMutability": "nonpayable",
      "type": "function"
    },
    {
      "inputs": [
        {
          "internalType": "address",
          "name": "addr",
          "type": "address"
        }
      ],
      "name": "unlockAddress",
      "outputs": [],
      "stateMutability": "nonpayable",
      "type": "function"
    },
    {
      "inputs": [
        {
          "internalType": "uint256",
          "name": "id",
          "type": "uint256"
        }
      ],
      "name": "unlockToken",
      "outputs": [],
      "stateMutability": "nonpayable",
      "type": "function"
    },
    {
      "inputs": [
        {
          "internalType": "bytes4",
          "name": "_interfaceID",
          "type": "bytes4"
        }
      ],
      "name": "supportsInterface",
      "outputs": [
        {
          "internalType": "bool",
          "name": "",
          "type": "bool"
        }
      ],
      "stateMutability": "pure",
      "type": "function"
    },
    {
      "inputs": [
        {
          "internalType": "address",
          "name": "account",
          "type": "address"
        },
        {
          "internalType": "uint256",
          "name": "id",
          "type": "uint256"
        }
      ],
      "name": "balanceOf",
      "outputs": [
        {
          "internalType": "uint256",
          "name": "",
          "type": "uint256"
        }
      ],
      "stateMutability": "view",
      "type": "function"
    },
    {
      "inputs": [
        {
          "internalType": "address[]",
          "name": "accounts",
          "type": "address[]"
        },
        {
          "internalType": "uint256[]",
          "name": "ids",
          "type": "uint256[]"
        }
      ],
      "name": "balanceOfBatch",
      "outputs": [
        {
          "internalType": "uint256[]",
          "name": "",
          "type": "uint256[]"
        }
      ],
      "stateMutability": "view",
      "type": "function"
    },
    {
      "inputs": [
        {
          "internalType": "address",
          "name": "operator",
          "type": "address"
        },
        {
          "internalType": "bool",
          "name": "approved",
          "type": "bool"
        }
      ],
      "name": "setApprovalForAll",
      "outputs": [],
      "stateMutability": "nonpayable",
      "type": "function"
    },
    {
      "inputs": [
        {
          "internalType": "address",
          "name": "account",
          "type": "address"
        },
        {
          "internalType": "address",
          "name": "operator",
          "type": "address"
        }
      ],
      "name": "isApprovedForAll",
      "outputs": [
        {
          "internalType": "bool",
          "name": "",
          "type": "bool"
        }
      ],
      "stateMutability": "view",
      "type": "function"
    },
    {
      "inputs": [
        {
          "internalType": "address",
          "name": "from",
          "type": "address"
        },
        {
          "internalType": "address",
          "name": "to",
          "type": "address"
        },
        {
          "internalType": "uint256",
          "name": "id",
          "type": "uint256"
        },
        {
          "internalType": "uint256",
          "name": "value",
          "type": "uint256"
        },
        {
          "internalType": "bytes",
          "name": "data",
          "type": "bytes"
        }
      ],
      "name": "safeTransferFrom",
      "outputs": [],
      "stateMutability": "payable",
      "type": "function"
    },
    {
      "inputs": [
        {
          "internalType": "address",
          "name": "from",
          "type": "address"
        },
        {
          "internalType": "address",
          "name": "to",
          "type": "address"
        },
        {
          "internalType": "uint256[]",
          "name": "ids",
          "type": "uint256[]"
        },
        {
          "internalType": "uint256[]",
          "name": "values",
          "type": "uint256[]"
        },
        {
          "internalType": "bytes",
          "name": "data",
          "type": "bytes"
        }
      ],
      "name": "safeBatchTransferFrom",
      "outputs": [],
      "stateMutability": "payable",
      "type": "function"
    },
    {
      "inputs": [
        {
          "internalType": "address",
          "name": "account",
          "type": "address"
        },
        {
          "internalType": "uint256",
          "name": "id",
          "type": "uint256"
        },
        {
          "internalType": "uint256",
          "name": "value",
          "type": "uint256"
        }
      ],
      "name": "storageFees",
      "outputs": [
        {
          "internalType": "uint256",
          "name": "",
          "type": "uint256"
        }
      ],
      "stateMutability": "view",
      "type": "function"
    }
  ],
  "bytecode": "0x60806040526103e860065534801561001657600080fd5b5061002033610025565b6100df565b6001600160a01b038116610084576040517f08c379a00000000000000000000000000000000000000000000000000000000081526004018080602001828103825260268152602001806122516026913960400191505060405180910390fd5b600080546040516001600160a01b03808516939216917f8be0079c531659141344cd1fd0a4f28419497f9722a3daafe3b4186f6b6457e091a3600080546001600160a01b0319166001600160a01b0392909216919091179055565b612163806100ee6000396000f3fe60806040526004361061011e5760003560e01c8063b7eb5e0a116100a0578063dd2e0ac011610064578063dd2e0ac014610693578063e985e9c5146106bd578063ea2bd64d146106f8578063f242432a14610731578063f2fde38b146107c45761011e565b8063b7eb5e0a14610591578063bba75c83146105c4578063c4be3c3c146105ee578063cba54e601461062d578063d7b80ebc146106605761011e565b80634e1273f4116100e75780634e1273f41461035e5780636eb987c7146104de57806380f20363146105175780638da5cb5b14610541578063a22cb465146105565761011e565b8062fdd58e1461012357806301ffc9a71461016e578063119c0737146101b65780632eb2c2d61461020257806334a90d021461032b575b600080fd5b34801561012f57600080fd5b5061015c6004803603604081101561014657600080fd5b506001600160a01b0381351690602001356107f7565b60408051918252519081900360200190f35b34801561017a57600080fd5b506101a26004803603602081101561019157600080fd5b50356001600160e01b031916610869565b604080519115158252519081900360200190f35b3480156101c257600080fd5b506101e6600480360360408110156101d957600080fd5b50803590602001356108b0565b604080516001600160a01b039092168252519081900360200190f35b610329600480360360a081101561021857600080fd5b6001600160a01b038235811692602081013590911691810190606081016040820135600160201b81111561024b57600080fd5b82018360208201111561025d57600080fd5b803590602001918460208302840111600160201b8311171561027e57600080fd5b919390929091602081019035600160201b81111561029b57600080fd5b8201836020820111156102ad57600080fd5b803590602001918460208302840111600160201b831117156102ce57600080fd5b919390929091602081019035600160201b8111156102eb57600080fd5b8201836020820111156102fd57600080fd5b803590602001918460018302840111600160201b8311171561031e57600080fd5b5090925090506108e5565b005b34801561033757600080fd5b506103296004803603602081101561034e57600080fd5b50356001600160a01b0316610c07565b34801561036a57600080fd5b5061048e6004803603604081101561038157600080fd5b810190602081018135600160201b81111561039b57600080fd5b8201836020820111156103ad57600080fd5b803590602001918460208302840111600160201b831117156103ce57600080fd5b9190808060200260200160405190810160405280939291908181526020018383602002808284376000920191909152509295949360208101935035915050600160201b81111561041d57600080fd5b82018360208201111561042f57600080fd5b803590602001918460208302840111600160201b8311171561045057600080fd5b919080806020026020016040519081016040528093929190818152602001838360200280828437600092019190915250929550610c72945050505050565b60408051602080825283518183015283519192839290830191858101910280838360005b838110156104ca5781810151838201526020016104b2565b505050509050019250505060405180910390f35b3480156104ea57600080fd5b5061015c6004803603604081101561050157600080fd5b506001600160a01b038135169060200135610df0565b34801561052357600080fd5b506103296004803603602081101561053a57600080fd5b5035610e1e565b34801561054d57600080fd5b506101e6610e83565b34801561056257600080fd5b506103296004803603604081101561057957600080fd5b506001600160a01b0381351690602001351515610e92565b34801561059d57600080fd5b50610329600480360360208110156105b457600080fd5b50356001600160a01b0316610f48565b3480156105d057600080fd5b506101a2600480360360208110156105e757600080fd5b5035610fb0565b3480156105fa57600080fd5b5061015c6004803603606081101561061157600080fd5b506001600160a01b038135169060208101359060400135610fbb565b34801561063957600080fd5b506101a26004803603602081101561065057600080fd5b50356001600160a01b0316610fd0565b34801561066c57600080fd5b5061015c6004803603602081101561068357600080fd5b50356001600160a01b0316610fdb565b34801561069f57600080fd5b50610329600480360360208110156106b657600080fd5b5035610fed565b3480156106c957600080fd5b506101a2600480360360408110156106e057600080fd5b506001600160a01b038135811691602001351661104c565b34801561070457600080fd5b5061015c6004803603604081101561071b57600080fd5b50803590602001356001600160a01b031661107a565b610329600480360360a081101561074757600080fd5b6001600160a01b03823581169260208101359091169160408201359160608101359181019060a081016080820135600160201b81111561078657600080fd5b82018360208201111561079857600080fd5b803590602001918460018302840111600160201b831117156107b957600080fd5b509092509050611097565b3480156107d057600080fd5b50610329600480360360208110156107e757600080fd5b50356001600160a01b031661128d565b60006001600160a01b03831661083e5760405162461bcd60e51b815260040180806020018281038252602b815260200180611ec3602b913960400191505060405180910390fd5b5060008181526003602090815260408083206001600160a01b03861684529091529020545b92915050565b60006001600160e01b031982166301ffc9a760e01b148061089a57506001600160e01b03198216636cdb3d1360e11b145b156108a7575060016108ab565b5060005b919050565b600b60205281600052604060002081815481106108c957fe5b6000918252602090912001546001600160a01b03169150829050565b8483146109235760405162461bcd60e51b815260040180806020018281038252602e8152602001806120a4602e913960400191505060405180910390fd5b6001600160a01b0387166109685760405162461bcd60e51b8152600401808060200182810382526028815260200180611f146028913960400191505060405180910390fd5b6001600160a01b03881633148061098a5750610984883361104c565b15156001145b6109c55760405162461bcd60e51b815260040180806020018281038252603781526020018061206d6037913960400191505060405180910390fd5b3460005b86811015610a0e57610a028a8a8a8a858181106109e257fe5b905060200201358989868181106109f557fe5b90506020020135866112e0565b909103906001016109c9565b50876001600160a01b0316896001600160a01b0316336001600160a01b03167f4a39dc06d4c0dbc64b70af90fd698a233a518aa5d07e595d983b8c0526c8f7fb8a8a8a8a6040518080602001806020018381038352878782818152602001925060200280828437600083820152601f01601f19169091018481038352858152602090810191508690860280828437600083820152604051601f909101601f19169092018290039850909650505050505050a4610b64338a8a8a8a8080602002602001604051908101604052809392919081815260200183836020028082843760009201919091525050604080516020808e0282810182019093528d82529093508d92508c91829185019084908082843760009201919091525050604080516020601f8d018190048102820181019092528b815292508b91508a908190840183828082843760009201919091525061164b92505050565b8015610bfc57604051600090339083908381818185875af1925050503d8060008114610bac576040519150601f19603f3d011682016040523d82523d6000602084013e610bb1565b606091505b5050905080610bfa576040805162461bcd60e51b815260206004820152601060248201526f2a3930b739b332b9103330b4b632b21760811b604482015290519081900360640190fd5b505b505050505050505050565b610c0f611844565b610c4e576040805162461bcd60e51b8152602060048201819052602482015260008051602061204d833981519152604482015290519081900360640190fd5b6001600160a01b03166000908152600260205260409020805460ff19166001179055565b60608151835114610cb45760405162461bcd60e51b8152600401808060200182810382526030815260200180611f686030913960400191505060405180910390fd5b6060835167ffffffffffffffff81118015610cce57600080fd5b50604051908082528060200260200182016040528015610cf8578160200160208202803683370190505b50905060005b8451811015610de85760006001600160a01b0316858281518110610d1e57fe5b60200260200101516001600160a01b03161415610d6c5760405162461bcd60e51b8152600401808060200182810382526034815260200180611fce6034913960400191505060405180910390fd5b60036000858381518110610d7c57fe5b602002602001015181526020019081526020016000206000868381518110610da057fe5b60200260200101516001600160a01b03166001600160a01b0316815260200190815260200160002054828281518110610dd557fe5b6020908102919091010152600101610cfe565b509392505050565b600a6020528160005260406000208181548110610e0957fe5b90600052602060002001600091509150505481565b610e26611844565b610e65576040805162461bcd60e51b8152602060048201819052602482015260008051602061204d833981519152604482015290519081900360640190fd5b6000908152600160208190526040909120805460ff19169091179055565b6000546001600160a01b031690565b336001600160a01b0383161415610eda5760405162461bcd60e51b815260040180806020018281038252602c815260200180611f3c602c913960400191505060405180910390fd5b336000818152600d602090815260408083206001600160a01b03871680855290835292819020805460ff1916861515908117909155815190815290519293927f17307eab39ab6107e8899845ad3d59bd9653f200f220920489ca2b5937696c31929181900390910190a35050565b610f50611844565b610f8f576040805162461bcd60e51b8152602060048201819052602482015260008051602061204d833981519152604482015290519081900360640190fd5b6001600160a01b03166000908152600260205260409020805460ff19169055565b600061086382611855565b6000610fc884848461186a565b949350505050565b6000610863826119e3565b60096020526000908152604090205481565b610ff5611844565b611034576040805162461bcd60e51b8152602060048201819052602482015260008051602061204d833981519152604482015290519081900360640190fd5b6000908152600160205260409020805460ff19169055565b6001600160a01b039182166000908152600d6020908152604080832093909416825291909152205460ff1690565b600460209081526000928352604080842090915290825290205481565b6001600160a01b0385166110dc5760405162461bcd60e51b8152600401808060200182810382526028815260200180611f146028913960400191505060405180910390fd5b6001600160a01b0386163314806110fe57506110f8863361104c565b15156001145b6111395760405162461bcd60e51b815260040180806020018281038252603781526020018061206d6037913960400191505060405180910390fd5b3461114787878787856112e0565b81039050856001600160a01b0316876001600160a01b0316336001600160a01b03167fc3d58168c5ae7397731d063d5bbf3d657854427343f4c083240f7aacaa2d0f628888604051808381526020018281526020019250505060405180910390a46111ec338888888888888080601f016020809104026020016040519081016040528093929190818152602001838380828437600092019190915250611a0192505050565b801561128457604051600090339083908381818185875af1925050503d8060008114611234576040519150601f19603f3d011682016040523d82523d6000602084013e611239565b606091505b5050905080611282576040805162461bcd60e51b815260206004820152601060248201526f2a3930b739b332b9103330b4b632b21760811b604482015290519081900360640190fd5b505b50505050505050565b611295611844565b6112d4576040805162461bcd60e51b8152602060048201819052602482015260008051602061204d833981519152604482015290519081900360640190fd5b6112dd81611b76565b50565b60006112ee86868686611c16565b15611329576040805162461bcd60e51b8152602060048201526006602482015265131bd8dad95960d21b604482015290519081900360640190fd5b61133486858561186a565b9050808210156113755760405162461bcd60e51b815260040180806020018281038252602b815260200180612103602b913960400191505060405180910390fd5b6113bc836040518060600160405280602a8152602001612002602a913960008781526003602090815260408083206001600160a01b038d1684529091529020549190611c51565b60008581526003602090815260408083206001600160a01b038b8116855292528083209390935587168152908120546113f59085611ce8565b60008681526003602090815260408083206001600160a01b038b1684529091529020549091506114d7576000858152600c602090815260408083206001600160a01b038a16845290915290205460ff166114ad576001600160a01b0386166000818152600a60209081526040808320805460018181018355918552838520018a9055898452600b83528184208054918201815584528284200180546001600160a01b03191685179055888352600c8252822092909152525b60008581526004602090815260408083206001600160a01b038a168452909152902042905561156e565b60008581526004602090815260408083206001600160a01b038a168452909152812054611505904290611d49565b60008781526003602090815260408083206001600160a01b038c1684529091528120549192509061154290849061153c9085611d8b565b90611de4565b60008881526004602090815260408083206001600160a01b038d16845290915290204291909103905550505b60008581526003602090815260408083206001600160a01b038a16845290915281208290555b6000868152600760205260409020548110156116405760008681526007602052604081208054839081106115c457fe5b600091825260208083209091015489835260089091526040822080546001600160a01b03909216935090849081106115f857fe5b600091825260209091200154905061161661271061153c8784611d8b565b6001600160a01b039092166000908152600960205260409020805490920190915550600101611594565b505095945050505050565b61165d846001600160a01b0316611e26565b1561183c5763bc197c8160e01b6001600160e01b031916846001600160a01b031663bc197c8188888787876040518663ffffffff1660e01b815260040180866001600160a01b03168152602001856001600160a01b03168152602001806020018060200180602001848103845287818151815260200191508051906020019060200280838360005b838110156116fd5781810151838201526020016116e5565b50505050905001848103835286818151815260200191508051906020019060200280838360005b8381101561173c578181015183820152602001611724565b50505050905001848103825285818151815260200191508051906020019080838360005b83811015611778578181015183820152602001611760565b50505050905090810190601f1680156117a55780820380516001836020036101000a031916815260200191505b5098505050505050505050602060405180830381600087803b1580156117ca57600080fd5b505af11580156117de573d6000803e3d6000fd5b505050506040513d60208110156117f457600080fd5b50516001600160e01b0319161461183c5760405162461bcd60e51b8152600401808060200182810382526036815260200180611f986036913960400191505060405180910390fd5b505050505050565b6000546001600160a01b0316331490565b60009081526001602052604090205460ff1690565b60006001600160a01b0384166118b15760405162461bcd60e51b815260040180806020018281038252602b815260200180611ec3602b913960400191505060405180910390fd5b6000838152600560205260408120544290600019015b60008681526005602052604081208054839081106118e157fe5b6000918252602082206002909102010154905060006305f5e100600654600560008b8152602001908152602001600020858154811061191c57fe5b906000526020600020906002020160016002811061193657fe5b0154028161194057fe5b60008a81526004602090815260408083206001600160a01b038f1684529091528120549290910492509083116119b3575060008881526004602090815260408083206001600160a01b038d1684529091529020546201518090850304806119a5575060015b0286029390930192506119d8565b506201518082850304806119c5575060015b02860293909301929150600019016118c7565b509095945050505050565b6001600160a01b031660009081526002602052604090205460ff1690565b611a13846001600160a01b0316611e26565b1561183c5763f23a6e6160e01b6001600160e01b031916846001600160a01b031663f23a6e6188888787876040518663ffffffff1660e01b815260040180866001600160a01b03168152602001856001600160a01b0316815260200184815260200183815260200180602001828103825283818151815260200191508051906020019080838360005b83811015611ab4578181015183820152602001611a9c565b50505050905090810190601f168015611ae15780820380516001836020036101000a031916815260200191505b509650505050505050602060405180830381600087803b158015611b0457600080fd5b505af1158015611b18573d6000803e3d6000fd5b505050506040513d6020811015611b2e57600080fd5b50516001600160e01b0319161461183c5760405162461bcd60e51b81526004018080602001828103825260318152602001806120d26031913960400191505060405180910390fd5b6001600160a01b038116611bbb5760405162461bcd60e51b8152600401808060200182810382526026815260200180611eee6026913960400191505060405180910390fd5b600080546040516001600160a01b03808516939216917f8be0079c531659141344cd1fd0a4f28419497f9722a3daafe3b4186f6b6457e091a3600080546001600160a01b0319166001600160a01b0392909216919091179055565b6000611c2183611855565b80611c305750611c30856119e3565b80611c3f5750611c3f846119e3565b80611c48575081155b95945050505050565b60008184841115611ce05760405162461bcd60e51b81526004018080602001828103825283818151815260200191508051906020019080838360005b83811015611ca5578181015183820152602001611c8d565b50505050905090810190601f168015611cd25780820380516001836020036101000a031916815260200191505b509250505060405180910390fd5b505050900390565b600082820183811015611d42576040805162461bcd60e51b815260206004820152601b60248201527f536166654d6174683a206164646974696f6e206f766572666c6f770000000000604482015290519081900360640190fd5b9392505050565b6000611d4283836040518060400160405280601e81526020017f536166654d6174683a207375627472616374696f6e206f766572666c6f770000815250611c51565b600082611d9a57506000610863565b82820282848281611da757fe5b0414611d425760405162461bcd60e51b815260040180806020018281038252602181526020018061202c6021913960400191505060405180910390fd5b6000611d4283836040518060400160405280601a81526020017f536166654d6174683a206469766973696f6e206279207a65726f000000000000815250611e5d565b6000813f7fc5d2460186f7233c927e7db2dcc703c0e500b653ca82273b7bfad8045d85a4708115801590610fc85750141592915050565b60008183611eac5760405162461bcd60e51b8152602060048201818152835160248401528351909283926044909101919085019080838360008315611ca5578181015183820152602001611c8d565b506000838581611eb857fe5b049594505050505056fe455243313135353a2062616c616e636520717565727920666f7220746865207a65726f20616464726573734f776e61626c653a206e6577206f776e657220697320746865207a65726f2061646472657373455243313135353a207461726765742061646472657373206d757374206265206e6f6e2d7a65726f455243313135353a2063616e6e6f742073657420617070726f76616c2073746174757320666f722073656c66455243313135353a206163636f756e747320616e6420494473206d75737420686176652073616d65206c656e67746873455243313135353a20676f7420756e6b6e6f776e2076616c75652066726f6d206f6e4552433131353542617463685265636569766564455243313135353a20736f6d65206164647265737320696e2062617463682062616c616e6365207175657279206973207a65726f455243313135353a20696e73756666696369656e742062616c616e636520666f72207472616e73666572536166654d6174683a206d756c7469706c69636174696f6e206f766572666c6f774f776e61626c653a2063616c6c6572206973206e6f7420746865206f776e6572455243313135353a206e656564206f70657261746f7220617070726f76616c20666f7220337264207061727479207472616e7366657273455243313135353a2049447320616e642076616c756573206d75737420686176652073616d65206c656e67746873455243313135353a20676f7420756e6b6e6f776e2076616c75652066726f6d206f6e455243313135355265636569766564455243313135353a20696e73756666696369656e742045544820666f72207472616e736665722066656573a264697066735822122088a4f5639b7bac9c0e98fbb2e92c745f8b9993d6281e6131e830e1019cb4805b64736f6c634300070100334f776e61626c653a206e6577206f776e657220697320746865207a65726f2061646472657373",
  "immutableReferences": {},
  "source": "pragma solidity ^0.7.1;\n\nimport \"./IERC1155.sol\";\nimport \"./IERC1155Receiver.sol\";\nimport \"../ERC165/IERC165.sol\";\nimport \"../utils/SafeMath.sol\";\nimport \"../utils/StringUtils.sol\";\nimport \"../utils/Address.sol\";\nimport './ERC1155Lockable.sol';\n//import \"../ERC173/ERC173.sol\";\n\n/**\n * @title Standard ERC1155 token\n *\n * @dev Implementation of the basic standard multi-token.\n * See https://eips.ethereum.org/EIPS/eip-1155\n * Originally based on code by Enjin: https://github.com/enjin/erc-1155\n */\ncontract ERC1155 is IERC165, IERC1155, ERC1155Lockable, StringUtils\n{\n    bytes4 constant private INTERFACE_SIGNATURE_ERC165 = 0x01ffc9a7;\n    bytes4 constant private INTERFACE_SIGNATURE_ERC1155 = 0xd9b67a26;\n\n    using SafeMath for uint256;\n    using Address for address;\n\n    // Mapping from token ID to account balances\n    mapping (uint256 => mapping(address => uint256)) _balances;\n\n    // Mapping from token ID to account age\n    mapping (uint256 => mapping(address => uint256)) public _birthdays;\n\n    // Mapping from token ID to list of tuple [timestamp, price]\n    mapping (uint256 => uint256[2][]) internal _storageCostHistory;\n\n    // price on one storage credit in wei\n    uint256 storageCreditPrice = 1000;\n\n    // For each token a list of addresses receiving transfer fees\n    mapping (uint256 => address[]) internal _feesRecipients;\n    // For each token a list of percentage, each one for the corresponding _feesRecipients index\n    mapping (uint256 => uint256[]) internal _feesRecipientsPercentage;\n    // Balances ETH for fees recipients and callbacks\n    mapping (address => uint256) public _ETHBalances;\n\n    // For each address a list of token IDs. Can contains zero balance.\n    mapping (address => uint256[]) public _tokensByAddress;\n    // For each token a list of addresses. Can contains zero balance.\n    mapping (uint256 => address[]) public _addressesByToken;\n    // Initialize to true on the first token received, never come back to false.\n    mapping (uint256 => mapping(address => bool)) internal _isHolder;\n\n    // Mapping from account to operator approvals\n    mapping (address => mapping(address => bool)) private _operatorApprovals;\n\n    /**\n     * @notice Query if a contract implements an interface\n     * @param _interfaceID  The interface identifier, as specified in ERC-165\n     * @return `true` if the contract implements `_interfaceID` and\n     */\n    function supportsInterface(bytes4 _interfaceID) external pure override returns (bool) {\n      if (_interfaceID == INTERFACE_SIGNATURE_ERC165 ||\n          _interfaceID == INTERFACE_SIGNATURE_ERC1155) {\n        return true;\n      }\n      return false;\n    }\n\n    /**\n        @dev Get the specified address' balance for token with specified ID.\n\n        Attempting to query the zero account for a balance will result in a revert.\n\n        @param account The address of the token holder\n        @param id ID of the token\n        @return The account's balance of the token type requested\n     */\n    function balanceOf(address account, uint256 id) public view override returns (uint256) {\n        require(account != address(0), \"ERC1155: balance query for the zero address\");\n        return _balances[id][account];\n    }\n\n    // function ethBalanceOf(address account) public view returns (uint256) {\n    //     return _ETHBalances[account];\n    // }\n\n    /**\n        @dev Get the balance of multiple account/token pairs.\n\n        If any of the query accounts is the zero account, this query will revert.\n\n        @param accounts The addresses of the token holders\n        @param ids IDs of the tokens\n        @return Balances for each account and token id pair\n     */\n    function balanceOfBatch(\n        address[] memory accounts,\n        uint256[] memory ids\n    )\n        public\n        view\n        override returns (uint256[] memory)\n    {\n        require(accounts.length == ids.length, \"ERC1155: accounts and IDs must have same lengths\");\n\n        uint256[] memory batchBalances = new uint256[](accounts.length);\n\n        for (uint256 i = 0; i < accounts.length; ++i) {\n            require(accounts[i] != address(0), \"ERC1155: some address in batch balance query is zero\");\n            batchBalances[i] = _balances[ids[i]][accounts[i]];\n        }\n\n        return batchBalances;\n    }\n\n    /**\n     * @dev Sets or unsets the approval of a given operator.\n     *\n     * An operator is allowed to transfer all tokens of the sender on their behalf.\n     *\n     * Because an account already has operator privileges for itself, this function will revert\n     * if the account attempts to set the approval status for itself.\n     *\n     * @param operator address to set the approval\n     * @param approved representing the status of the approval to be set\n     */\n    function setApprovalForAll(address operator, bool approved) external override {\n        require(msg.sender != operator, \"ERC1155: cannot set approval status for self\");\n        _operatorApprovals[msg.sender][operator] = approved;\n        emit ApprovalForAll(msg.sender, operator, approved);\n    }\n\n    /**\n        @notice Queries the approval status of an operator for a given account.\n        @param account   The account of the Tokens\n        @param operator  Address of authorized operator\n        @return           True if the operator is approved, false if not\n    */\n    function isApprovedForAll(address account, address operator) public view override returns (bool) {\n        return _operatorApprovals[account][operator];\n    }\n\n    /**\n        @dev Transfers `value` amount of an `id` from the `from` address to the `to` address specified.\n        Caller must be approved to manage the tokens being transferred out of the `from` account.\n        If `to` is a smart contract, will call `onERC1155Received` on `to` and act appropriately.\n        @param from Source address\n        @param to Target address\n        @param id ID of the token type\n        @param value Transfer amount\n        @param data Data forwarded to `onERC1155Received` if `to` is a contract receiver\n    */\n    function safeTransferFrom(\n        address from,\n        address to,\n        uint256 id,\n        uint256 value,\n        bytes calldata data\n    )\n        external payable override\n    {\n        require(to != address(0), \"ERC1155: target address must be non-zero\");\n        require(\n            from == msg.sender || isApprovedForAll(from, msg.sender) == true,\n            \"ERC1155: need operator approval for 3rd party transfers\"\n        );\n\n        uint256 feesBalance = msg.value;\n        feesBalance = feesBalance - _moveTokens(from, to, id, value, feesBalance);\n\n        emit TransferSingle(msg.sender, from, to, id, value);\n\n        _doSafeTransferAcceptanceCheck(msg.sender, from, to, id, value, data);\n\n        if (feesBalance > 0) {\n          (bool success, ) = msg.sender.call{value: feesBalance}(\"\");\n          require(success, \"Transfer failed.\");\n        }\n    }\n\n    /**\n        @dev Transfers `values` amount(s) of `ids` from the `from` address to the\n        `to` address specified. Caller must be approved to manage the tokens being\n        transferred out of the `from` account. If `to` is a smart contract, will\n        call `onERC1155BatchReceived` on `to` and act appropriately.\n        @param from Source address\n        @param to Target address\n        @param ids IDs of each token type\n        @param values Transfer amounts per token type\n        @param data Data forwarded to `onERC1155Received` if `to` is a contract receiver\n    */\n    function safeBatchTransferFrom(\n        address from,\n        address to,\n        uint256[] calldata ids,\n        uint256[] calldata values,\n        bytes calldata data\n    )\n        external payable override\n    {\n        require(ids.length == values.length, \"ERC1155: IDs and values must have same lengths\");\n        require(to != address(0), \"ERC1155: target address must be non-zero\");\n        require(\n          from == msg.sender || isApprovedForAll(from, msg.sender) == true,\n          \"ERC1155: need operator approval for 3rd party transfers\"\n        );\n\n        uint256 feesBalance = msg.value;\n        for (uint256 i = 0; i < ids.length; ++i) {\n          feesBalance = feesBalance - _moveTokens(from, to, ids[i], values[i], feesBalance);\n        }\n\n        emit TransferBatch(msg.sender, from, to, ids, values);\n\n        _doSafeBatchTransferAcceptanceCheck(msg.sender, from, to, ids, values, data);\n\n        if (feesBalance > 0) {\n          (bool success, ) = msg.sender.call{value: feesBalance}(\"\");\n          require(success, \"Transfer failed.\");\n        }\n    }\n\n    function _moveTokens(address from, address to, uint256 id, uint256 value, uint256 feesBalance) internal returns (uint256 fees) {\n        //require(!_locked[id], \"Locked\");\n        require(!_isLockedMove(from, to, id, value), \"Locked\");\n\n        fees = _storageFees(from, id, value);\n        require(feesBalance >= fees, \"ERC1155: insufficient ETH for transfer fees\");\n\n        _balances[id][from] = _balances[id][from].sub(value, \"ERC1155: insufficient balance for transfer\");\n\n        uint256 newBalanceTo = _balances[id][to].add(value);\n\n        if (_balances[id][to] == 0) {\n\n          if (!_isHolder[id][to]) {\n            _tokensByAddress[to].push(id);\n            _addressesByToken[id].push(to);\n            _isHolder[id][to];\n          }\n\n          _birthdays[id][to] = block.timestamp;\n\n        } else {\n          // calculate the average birthday of the received and hold tokens\n          uint256 oldTokensAge = block.timestamp.sub(_birthdays[id][to]);\n          uint256 newTokenAge = (_balances[id][to].mul(oldTokensAge)).div(newBalanceTo);\n\n          _birthdays[id][to] = block.timestamp - newTokenAge;\n        }\n\n        _balances[id][to] = newBalanceTo;\n\n        for (uint256 i = 0; i < _feesRecipients[id].length; ++i) {\n          address feesRecipient = _feesRecipients[id][i];\n          uint256 feesRecipientsPercentage = _feesRecipientsPercentage[id][i];\n          _ETHBalances[feesRecipient] += (fees.mul(feesRecipientsPercentage)).div(10000);\n        }\n\n        return fees;\n    }\n\n    // function birthdayOf(address account, uint256 id) public view returns (uint256) {\n    //     require(account != address(0), \"ERC1155: balance query for the zero address\");\n    //     return _balances[id][account] == 0 ? 0 : _birthdays[id][account];\n    // }\n\n    function _storageFees(address account, uint256 id, uint256 value) internal view returns (uint256) {\n        require(account != address(0), \"ERC1155: balance query for the zero address\");\n\n        uint256 totalCost = 0;\n        uint256 timeCursor = block.timestamp;\n\n        for (uint i = _storageCostHistory[id].length - 1; i >= 0; i--) {\n\n          uint256 costStartAt = _storageCostHistory[id][i][0];\n          uint256 cost = (_storageCostHistory[id][i][1] * storageCreditPrice) / 10**8;\n          uint256 storageDays;\n\n          if (_birthdays[id][account] >= costStartAt) {\n            storageDays = (timeCursor - _birthdays[id][account]) / 86400;\n            if (storageDays == 0) storageDays = 1;\n            totalCost += storageDays * cost * value;\n            break;\n          } else {\n            storageDays = (timeCursor - costStartAt) / 86400;\n            if (storageDays == 0) storageDays = 1;\n            timeCursor = costStartAt;\n            totalCost += storageDays * cost * value;\n          }\n        }\n\n        return totalCost;\n    }\n\n    function storageFees(address account, uint256 id, uint256 value) public view returns (uint256) {\n        return _storageFees(account, id, value);\n    }\n\n    // function tokensByAddress(address account) public view returns (string memory result) {\n    //     require(account != address(0), \"ERC1155: balance query for the zero address\");\n    //\n    //     for (uint i = 0; i < _tokensByAddress[account].length; i++) {\n    //         uint256 id = _tokensByAddress[account][i];\n    //         if (_balances[id][account] > 0) {\n    //           if (bytes(result).length > 0) {\n    //             result = _strConcat(result, \" \");\n    //             result = _strConcat(result, _toHexString(id));\n    //           } else {\n    //             result = _toHexString(id);\n    //           }\n    //         }\n    //     }\n    //     return result;\n    // }\n    //\n    // function addressesByToken(uint256 id) public view returns (string memory result) {\n    //\n    //     for (uint i = 0; i < _addressesByToken[id].length; i++) {\n    //         address account = _addressesByToken[id][i];\n    //         if (_balances[id][account] > 0) {\n    //           if (bytes(result).length > 0) {\n    //             result = _strConcat(result, \" \");\n    //             result = _strConcat(result, _toHexString(uint256(account)));\n    //           } else {\n    //             result = _toHexString(uint256(account));\n    //           }\n    //         }\n    //     }\n    //     return result;\n    // }\n\n\n\n    function _doSafeTransferAcceptanceCheck(\n        address operator,\n        address from,\n        address to,\n        uint256 id,\n        uint256 value,\n        bytes memory data\n    )\n        internal\n    {\n        if(to.isContract()) {\n            require(\n                IERC1155Receiver(to).onERC1155Received(operator, from, id, value, data) ==\n                    IERC1155Receiver(to).onERC1155Received.selector,\n                \"ERC1155: got unknown value from onERC1155Received\"\n            );\n        }\n    }\n\n    function _doSafeBatchTransferAcceptanceCheck(\n        address operator,\n        address from,\n        address to,\n        uint256[] memory ids,\n        uint256[] memory values,\n        bytes memory data\n    )\n        internal\n    {\n        if(to.isContract()) {\n            require(\n                IERC1155Receiver(to).onERC1155BatchReceived(operator, from, ids, values, data) ==\n                    IERC1155Receiver(to).onERC1155BatchReceived.selector,\n                \"ERC1155: got unknown value from onERC1155BatchReceived\"\n            );\n        }\n    }\n}\n",
  "sourcePath": "/home/ouziel/Work/StashBloxContracts/contracts/lib/ERC1155/ERC1155.sol",
  "compiler": {
    "name": "solc",
    "version": "0.7.1+commit.f4a555be.Emscripten.clang"
  },
  "schemaVersion": "3.2.3",
  "updatedAt": "2020-10-01T11:53:08.340Z",
  "devdoc": {
    "details": "Implementation of the basic standard multi-token. See https://eips.ethereum.org/EIPS/eip-1155 Originally based on code by Enjin: https://github.com/enjin/erc-1155",
    "kind": "dev",
    "methods": {
      "balanceOf(address,uint256)": {
        "details": "Get the specified address' balance for token with specified ID. Attempting to query the zero account for a balance will result in a revert.",
        "params": {
          "account": "The address of the token holder",
          "id": "ID of the token"
        },
        "returns": {
          "_0": "The account's balance of the token type requested"
        }
      },
      "balanceOfBatch(address[],uint256[])": {
        "details": "Get the balance of multiple account/token pairs. If any of the query accounts is the zero account, this query will revert.",
        "params": {
          "accounts": "The addresses of the token holders",
          "ids": "IDs of the tokens"
        },
        "returns": {
          "_0": "Balances for each account and token id pair"
        }
      },
      "isApprovedForAll(address,address)": {
        "params": {
          "account": "The account of the Tokens",
          "operator": "Address of authorized operator"
        },
        "returns": {
          "_0": "True if the operator is approved, false if not"
        }
      },
      "owner()": {
        "details": "Returns the address of the current owner."
      },
      "safeBatchTransferFrom(address,address,uint256[],uint256[],bytes)": {
        "details": "Transfers `values` amount(s) of `ids` from the `from` address to the `to` address specified. Caller must be approved to manage the tokens being transferred out of the `from` account. If `to` is a smart contract, will call `onERC1155BatchReceived` on `to` and act appropriately.",
        "params": {
          "data": "Data forwarded to `onERC1155Received` if `to` is a contract receiver",
          "from": "Source address",
          "ids": "IDs of each token type",
          "to": "Target address",
          "values": "Transfer amounts per token type"
        }
      },
      "safeTransferFrom(address,address,uint256,uint256,bytes)": {
        "details": "Transfers `value` amount of an `id` from the `from` address to the `to` address specified. Caller must be approved to manage the tokens being transferred out of the `from` account. If `to` is a smart contract, will call `onERC1155Received` on `to` and act appropriately.",
        "params": {
          "data": "Data forwarded to `onERC1155Received` if `to` is a contract receiver",
          "from": "Source address",
          "id": "ID of the token type",
          "to": "Target address",
          "value": "Transfer amount"
        }
      },
      "setApprovalForAll(address,bool)": {
        "details": "Sets or unsets the approval of a given operator. An operator is allowed to transfer all tokens of the sender on their behalf. Because an account already has operator privileges for itself, this function will revert if the account attempts to set the approval status for itself.",
        "params": {
          "approved": "representing the status of the approval to be set",
          "operator": "address to set the approval"
        }
      },
      "supportsInterface(bytes4)": {
        "params": {
          "_interfaceID": "The interface identifier, as specified in ERC-165"
        },
        "returns": {
          "_0": "`true` if the contract implements `_interfaceID` and"
        }
      },
      "transferOwnership(address)": {
        "details": "Transfers ownership of the contract to a new account (`newOwner`). Can only be called by the current owner."
      }
    },
    "title": "Standard ERC1155 token",
    "version": 1
  },
  "userdoc": {
    "kind": "user",
    "methods": {
      "isApprovedForAll(address,address)": {
        "notice": "Queries the approval status of an operator for a given account."
      },
      "supportsInterface(bytes4)": {
        "notice": "Query if a contract implements an interface"
      }
    },
    "version": 1
  }
}