{
  "contractName": "Lockable",
  "abi": [
    {
      "anonymous": false,
      "inputs": [
        {
          "indexed": true,
          "internalType": "address",
          "name": "_owner",
          "type": "address"
        },
        {
          "indexed": true,
          "internalType": "address",
          "name": "_operator",
          "type": "address"
        },
        {
          "indexed": false,
          "internalType": "bool",
          "name": "_approved",
          "type": "bool"
        }
      ],
      "name": "ApprovalForAll",
      "type": "event"
    },
    {
      "anonymous": false,
      "inputs": [
        {
          "indexed": true,
          "internalType": "address",
          "name": "previousOwner",
          "type": "address"
        },
        {
          "indexed": true,
          "internalType": "address",
          "name": "newOwner",
          "type": "address"
        }
      ],
      "name": "OwnershipTransferred",
      "type": "event"
    },
    {
      "anonymous": false,
      "inputs": [
        {
          "indexed": true,
          "internalType": "uint256",
          "name": "_id",
          "type": "uint256"
        },
        {
          "indexed": false,
          "internalType": "uint256",
          "name": "_documentHash",
          "type": "uint256"
        }
      ],
      "name": "TokenUpdated",
      "type": "event"
    },
    {
      "anonymous": false,
      "inputs": [
        {
          "indexed": true,
          "internalType": "address",
          "name": "_operator",
          "type": "address"
        },
        {
          "indexed": true,
          "internalType": "address",
          "name": "_from",
          "type": "address"
        },
        {
          "indexed": true,
          "internalType": "address",
          "name": "_to",
          "type": "address"
        },
        {
          "indexed": false,
          "internalType": "uint256[]",
          "name": "_ids",
          "type": "uint256[]"
        },
        {
          "indexed": false,
          "internalType": "uint256[]",
          "name": "_values",
          "type": "uint256[]"
        }
      ],
      "name": "TransferBatch",
      "type": "event"
    },
    {
      "anonymous": false,
      "inputs": [
        {
          "indexed": true,
          "internalType": "address",
          "name": "_operator",
          "type": "address"
        },
        {
          "indexed": true,
          "internalType": "address",
          "name": "_from",
          "type": "address"
        },
        {
          "indexed": true,
          "internalType": "address",
          "name": "_to",
          "type": "address"
        },
        {
          "indexed": false,
          "internalType": "uint256",
          "name": "_id",
          "type": "uint256"
        },
        {
          "indexed": false,
          "internalType": "uint256",
          "name": "_value",
          "type": "uint256"
        }
      ],
      "name": "TransferSingle",
      "type": "event"
    },
    {
      "anonymous": false,
      "inputs": [
        {
          "indexed": false,
          "internalType": "string",
          "name": "_value",
          "type": "string"
        },
        {
          "indexed": true,
          "internalType": "uint256",
          "name": "_id",
          "type": "uint256"
        }
      ],
      "name": "URI",
      "type": "event"
    },
    {
      "inputs": [
        {
          "internalType": "uint256",
          "name": "",
          "type": "uint256"
        }
      ],
      "name": "_callbacks",
      "outputs": [
        {
          "internalType": "uint256",
          "name": "tokenId",
          "type": "uint256"
        },
        {
          "internalType": "uint256",
          "name": "price",
          "type": "uint256"
        },
        {
          "internalType": "uint256",
          "name": "escrowedAmount",
          "type": "uint256"
        },
        {
          "internalType": "uint256",
          "name": "callCounter",
          "type": "uint256"
        },
        {
          "internalType": "uint256",
          "name": "documentHash",
          "type": "uint256"
        },
        {
          "internalType": "address",
          "name": "caller",
          "type": "address"
        },
        {
          "internalType": "bool",
          "name": "needLegalApproval",
          "type": "bool"
        },
        {
          "internalType": "bool",
          "name": "approvedByLegal",
          "type": "bool"
        },
        {
          "internalType": "bool",
          "name": "refused",
          "type": "bool"
        },
        {
          "internalType": "bool",
          "name": "accepted",
          "type": "bool"
        },
        {
          "internalType": "bool",
          "name": "completed",
          "type": "bool"
        }
      ],
      "stateMutability": "view",
      "type": "function"
    },
    {
      "inputs": [],
      "name": "_config",
      "outputs": [
        {
          "internalType": "uint256",
          "name": "callbackAutoExecuteMaxAddresses",
          "type": "uint256"
        },
        {
          "internalType": "string",
          "name": "baseURI",
          "type": "string"
        }
      ],
      "stateMutability": "view",
      "type": "function"
    },
    {
      "inputs": [
        {
          "internalType": "uint256",
          "name": "",
          "type": "uint256"
        }
      ],
      "name": "_tokens",
      "outputs": [
        {
          "internalType": "uint256",
          "name": "supply",
          "type": "uint256"
        },
        {
          "internalType": "uint256",
          "name": "decimals",
          "type": "uint256"
        },
        {
          "internalType": "uint256",
          "name": "lumpSumTransactionFees",
          "type": "uint256"
        },
        {
          "internalType": "uint256",
          "name": "valueTransactionFees",
          "type": "uint256"
        },
        {
          "internalType": "uint256",
          "name": "minHoldingForCallback",
          "type": "uint256"
        },
        {
          "internalType": "uint256",
          "name": "metadataHash",
          "type": "uint256"
        },
        {
          "internalType": "address",
          "name": "legalAuthority",
          "type": "address"
        },
        {
          "internalType": "bool",
          "name": "isPrivate",
          "type": "bool"
        },
        {
          "internalType": "bool",
          "name": "locked",
          "type": "bool"
        }
      ],
      "stateMutability": "view",
      "type": "function"
    },
    {
      "inputs": [
        {
          "internalType": "address",
          "name": "",
          "type": "address"
        }
      ],
      "name": "_users",
      "outputs": [
        {
          "internalType": "bool",
          "name": "isTokenizer",
          "type": "bool"
        },
        {
          "internalType": "bool",
          "name": "isLocked",
          "type": "bool"
        },
        {
          "internalType": "uint256",
          "name": "ETHBalance",
          "type": "uint256"
        }
      ],
      "stateMutability": "view",
      "type": "function"
    },
    {
      "inputs": [
        {
          "internalType": "uint256",
          "name": "id",
          "type": "uint256"
        },
        {
          "internalType": "address",
          "name": "holder",
          "type": "address"
        }
      ],
      "name": "approveHolder",
      "outputs": [],
      "stateMutability": "nonpayable",
      "type": "function"
    },
    {
      "inputs": [
        {
          "internalType": "uint256",
          "name": "id",
          "type": "uint256"
        },
        {
          "internalType": "address",
          "name": "maintener",
          "type": "address"
        }
      ],
      "name": "authorizeMaintener",
      "outputs": [],
      "stateMutability": "nonpayable",
      "type": "function"
    },
    {
      "inputs": [
        {
          "internalType": "address",
          "name": "tokenizer",
          "type": "address"
        }
      ],
      "name": "authorizeTokenizer",
      "outputs": [],
      "stateMutability": "nonpayable",
      "type": "function"
    },
    {
      "inputs": [
        {
          "internalType": "address",
          "name": "account",
          "type": "address"
        },
        {
          "internalType": "uint256",
          "name": "id",
          "type": "uint256"
        }
      ],
      "name": "averageAge",
      "outputs": [
        {
          "internalType": "uint256",
          "name": "",
          "type": "uint256"
        }
      ],
      "stateMutability": "view",
      "type": "function"
    },
    {
      "inputs": [
        {
          "internalType": "address",
          "name": "account",
          "type": "address"
        },
        {
          "internalType": "uint256",
          "name": "id",
          "type": "uint256"
        }
      ],
      "name": "balanceOf",
      "outputs": [
        {
          "internalType": "uint256",
          "name": "",
          "type": "uint256"
        }
      ],
      "stateMutability": "view",
      "type": "function"
    },
    {
      "inputs": [
        {
          "internalType": "address[]",
          "name": "accounts",
          "type": "address[]"
        },
        {
          "internalType": "uint256[]",
          "name": "ids",
          "type": "uint256[]"
        }
      ],
      "name": "balanceOfBatch",
      "outputs": [
        {
          "internalType": "uint256[]",
          "name": "",
          "type": "uint256[]"
        }
      ],
      "stateMutability": "view",
      "type": "function"
    },
    {
      "inputs": [
        {
          "internalType": "uint256",
          "name": "id",
          "type": "uint256"
        },
        {
          "internalType": "uint256[]",
          "name": "ids",
          "type": "uint256[]"
        },
        {
          "internalType": "uint256[]",
          "name": "metadataHashes",
          "type": "uint256[]"
        }
      ],
      "name": "cloneToken",
      "outputs": [],
      "stateMutability": "nonpayable",
      "type": "function"
    },
    {
      "inputs": [
        {
          "internalType": "address",
          "name": "recipient",
          "type": "address"
        },
        {
          "internalType": "uint256",
          "name": "id",
          "type": "uint256"
        },
        {
          "internalType": "uint256",
          "name": "supply",
          "type": "uint256"
        },
        {
          "internalType": "uint256",
          "name": "decimals",
          "type": "uint256"
        },
        {
          "internalType": "uint256",
          "name": "metadataHash",
          "type": "uint256"
        },
        {
          "internalType": "uint256[3]",
          "name": "transactionFees",
          "type": "uint256[3]"
        },
        {
          "internalType": "address[]",
          "name": "feesRecipients",
          "type": "address[]"
        },
        {
          "internalType": "uint256[]",
          "name": "feesRecipientsPercentage",
          "type": "uint256[]"
        },
        {
          "internalType": "uint256",
          "name": "minHoldingForCallback",
          "type": "uint256"
        },
        {
          "internalType": "bool",
          "name": "isPrivate",
          "type": "bool"
        },
        {
          "internalType": "address",
          "name": "legalAuthority",
          "type": "address"
        }
      ],
      "name": "createToken",
      "outputs": [],
      "stateMutability": "nonpayable",
      "type": "function"
    },
    {
      "inputs": [
        {
          "internalType": "address",
          "name": "account",
          "type": "address"
        },
        {
          "internalType": "address",
          "name": "operator",
          "type": "address"
        }
      ],
      "name": "isApprovedForAll",
      "outputs": [
        {
          "internalType": "bool",
          "name": "",
          "type": "bool"
        }
      ],
      "stateMutability": "view",
      "type": "function"
    },
    {
      "inputs": [
        {
          "internalType": "uint256",
          "name": "id",
          "type": "uint256"
        },
        {
          "internalType": "address",
          "name": "maintener",
          "type": "address"
        }
      ],
      "name": "isMaintener",
      "outputs": [
        {
          "internalType": "bool",
          "name": "",
          "type": "bool"
        }
      ],
      "stateMutability": "view",
      "type": "function"
    },
    {
      "inputs": [
        {
          "internalType": "address",
          "name": "tokenizer",
          "type": "address"
        }
      ],
      "name": "isTokenizer",
      "outputs": [
        {
          "internalType": "bool",
          "name": "",
          "type": "bool"
        }
      ],
      "stateMutability": "view",
      "type": "function"
    },
    {
      "inputs": [],
      "name": "owner",
      "outputs": [
        {
          "internalType": "address",
          "name": "",
          "type": "address"
        }
      ],
      "stateMutability": "view",
      "type": "function"
    },
    {
      "inputs": [
        {
          "internalType": "uint256",
          "name": "id",
          "type": "uint256"
        },
        {
          "internalType": "address",
          "name": "holder",
          "type": "address"
        }
      ],
      "name": "revokeHolder",
      "outputs": [],
      "stateMutability": "nonpayable",
      "type": "function"
    },
    {
      "inputs": [
        {
          "internalType": "uint256",
          "name": "id",
          "type": "uint256"
        },
        {
          "internalType": "address",
          "name": "maintener",
          "type": "address"
        }
      ],
      "name": "revokeMaintener",
      "outputs": [],
      "stateMutability": "nonpayable",
      "type": "function"
    },
    {
      "inputs": [
        {
          "internalType": "address",
          "name": "tokenizer",
          "type": "address"
        }
      ],
      "name": "revokeTokenizer",
      "outputs": [],
      "stateMutability": "nonpayable",
      "type": "function"
    },
    {
      "inputs": [
        {
          "internalType": "address",
          "name": "from",
          "type": "address"
        },
        {
          "internalType": "address",
          "name": "to",
          "type": "address"
        },
        {
          "internalType": "uint256[]",
          "name": "ids",
          "type": "uint256[]"
        },
        {
          "internalType": "uint256[]",
          "name": "values",
          "type": "uint256[]"
        },
        {
          "internalType": "bytes",
          "name": "data",
          "type": "bytes"
        }
      ],
      "name": "safeBatchTransferFrom",
      "outputs": [],
      "stateMutability": "payable",
      "type": "function"
    },
    {
      "inputs": [
        {
          "internalType": "address",
          "name": "from",
          "type": "address"
        },
        {
          "internalType": "address",
          "name": "to",
          "type": "address"
        },
        {
          "internalType": "uint256",
          "name": "id",
          "type": "uint256"
        },
        {
          "internalType": "uint256",
          "name": "value",
          "type": "uint256"
        },
        {
          "internalType": "bytes",
          "name": "data",
          "type": "bytes"
        }
      ],
      "name": "safeTransferFrom",
      "outputs": [],
      "stateMutability": "payable",
      "type": "function"
    },
    {
      "inputs": [
        {
          "internalType": "address",
          "name": "operator",
          "type": "address"
        },
        {
          "internalType": "bool",
          "name": "approved",
          "type": "bool"
        }
      ],
      "name": "setApprovalForAll",
      "outputs": [],
      "stateMutability": "nonpayable",
      "type": "function"
    },
    {
      "inputs": [
        {
          "internalType": "address[10]",
          "name": "proxyAddresses",
          "type": "address[10]"
        }
      ],
      "name": "setProxyRegistryAddress",
      "outputs": [],
      "stateMutability": "nonpayable",
      "type": "function"
    },
    {
      "inputs": [
        {
          "internalType": "bytes4",
          "name": "_interfaceID",
          "type": "bytes4"
        }
      ],
      "name": "supportsInterface",
      "outputs": [
        {
          "internalType": "bool",
          "name": "",
          "type": "bool"
        }
      ],
      "stateMutability": "pure",
      "type": "function"
    },
    {
      "inputs": [
        {
          "internalType": "address",
          "name": "account",
          "type": "address"
        },
        {
          "internalType": "uint256",
          "name": "id",
          "type": "uint256"
        },
        {
          "internalType": "uint256",
          "name": "value",
          "type": "uint256"
        }
      ],
      "name": "transactionFees",
      "outputs": [
        {
          "internalType": "uint256",
          "name": "",
          "type": "uint256"
        }
      ],
      "stateMutability": "view",
      "type": "function"
    },
    {
      "inputs": [
        {
          "internalType": "address",
          "name": "newOwner",
          "type": "address"
        }
      ],
      "name": "transferOwnership",
      "outputs": [],
      "stateMutability": "nonpayable",
      "type": "function"
    },
    {
      "inputs": [
        {
          "internalType": "uint256",
          "name": "id",
          "type": "uint256"
        },
        {
          "internalType": "uint256",
          "name": "metadataHash",
          "type": "uint256"
        },
        {
          "internalType": "uint256[3]",
          "name": "transactionFees",
          "type": "uint256[3]"
        },
        {
          "internalType": "address[]",
          "name": "feesRecipients",
          "type": "address[]"
        },
        {
          "internalType": "uint256[]",
          "name": "feesRecipientsPercentage",
          "type": "uint256[]"
        },
        {
          "internalType": "uint256",
          "name": "minHoldingForCallback",
          "type": "uint256"
        },
        {
          "internalType": "bool",
          "name": "isPrivate",
          "type": "bool"
        },
        {
          "internalType": "address",
          "name": "legalAuthority",
          "type": "address"
        }
      ],
      "name": "updateToken",
      "outputs": [],
      "stateMutability": "nonpayable",
      "type": "function"
    },
    {
      "inputs": [
        {
          "internalType": "uint256",
          "name": "id",
          "type": "uint256"
        },
        {
          "internalType": "uint256",
          "name": "documentHash",
          "type": "uint256"
        }
      ],
      "name": "lockToken",
      "outputs": [],
      "stateMutability": "nonpayable",
      "type": "function"
    },
    {
      "inputs": [
        {
          "internalType": "uint256",
          "name": "id",
          "type": "uint256"
        },
        {
          "internalType": "uint256",
          "name": "documentHash",
          "type": "uint256"
        }
      ],
      "name": "unlockToken",
      "outputs": [],
      "stateMutability": "nonpayable",
      "type": "function"
    },
    {
      "inputs": [
        {
          "internalType": "uint256",
          "name": "id",
          "type": "uint256"
        }
      ],
      "name": "isLockedToken",
      "outputs": [
        {
          "internalType": "bool",
          "name": "",
          "type": "bool"
        }
      ],
      "stateMutability": "view",
      "type": "function"
    },
    {
      "inputs": [
        {
          "internalType": "address",
          "name": "addr",
          "type": "address"
        }
      ],
      "name": "lockAddress",
      "outputs": [],
      "stateMutability": "nonpayable",
      "type": "function"
    },
    {
      "inputs": [
        {
          "internalType": "address",
          "name": "addr",
          "type": "address"
        }
      ],
      "name": "unlockAddress",
      "outputs": [],
      "stateMutability": "nonpayable",
      "type": "function"
    },
    {
      "inputs": [
        {
          "internalType": "address",
          "name": "addr",
          "type": "address"
        }
      ],
      "name": "isLockedAddress",
      "outputs": [
        {
          "internalType": "bool",
          "name": "",
          "type": "bool"
        }
      ],
      "stateMutability": "view",
      "type": "function"
    }
  ],
  "bytecode": "0x60806040523480156200001157600080fd5b506200001d3362000023565b620000e0565b6001600160a01b03811662000084576040517f08c379a000000000000000000000000000000000000000000000000000000000815260040180806020018281038252602681526020018062003c736026913960400191505060405180910390fd5b600f546040516001600160a01b038084169216907f8be0079c531659141344cd1fd0a4f28419497f9722a3daafe3b4186f6b6457e090600090a3600f80546001600160a01b0319166001600160a01b0392909216919091179055565b613b8380620000f06000396000f3fe6080604052600436106101ed5760003560e01c80638aeba37e1161010d578063c40b87ae116100a0578063e985e9c51161006f578063e985e9c514610de4578063ed70554d14610e1f578063f242432a14610e9d578063f2fde38b14610f30578063f8a5a07c14610f63576101ed565b8063c40b87ae14610b9c578063cba54e6014610d39578063d1660e1814610d6c578063d41d0aa314610dab576101ed565b8063b7eb5e0a116100dc578063b7eb5e0a14610adc578063baa3411014610b0f578063bba75c8314610b3f578063c02f303c14610b69576101ed565b80638aeba37e14610a075780638da5cb5b14610a40578063a22cb46514610a71578063aba7fe8a14610aac576101ed565b80634ab0d253116101855780635dd2b9a6116101545780635dd2b9a61461092f578063759c5214146109685780637627b732146109a15780638870147b146109d4576101ed565b80634ab0d253146105bb5780634e1273f41461073d578063585941d5146108bd5780635dafec1b146108f6576101ed565b806334a90d02116101c157806334a90d02146104425780633cacd7d614610475578063414ed0ce146104c85780634392e5771461055a576101ed565b8062fdd58e146101f257806301ffc9a71461023d5780632eb2c2d6146102855780632ed42bf7146103ae575b600080fd5b3480156101fe57600080fd5b5061022b6004803603604081101561021557600080fd5b506001600160a01b03813516906020013561109a565b60408051918252519081900360200190f35b34801561024957600080fd5b506102716004803603602081101561026057600080fd5b50356001600160e01b03191661110f565b604080519115158252519081900360200190f35b6103ac600480360360a081101561029b57600080fd5b6001600160a01b038235811692602081013590911691810190606081016040820135600160201b8111156102ce57600080fd5b8201836020820111156102e057600080fd5b803590602001918460208302840111600160201b8311171561030157600080fd5b919390929091602081019035600160201b81111561031e57600080fd5b82018360208201111561033057600080fd5b803590602001918460208302840111600160201b8311171561035157600080fd5b919390929091602081019035600160201b81111561036e57600080fd5b82018360208201111561038057600080fd5b803590602001918460018302840111600160201b831117156103a157600080fd5b509092509050611156565b005b3480156103ba57600080fd5b506103c3611404565b6040518083815260200180602001828103825283818151815260200191508051906020019080838360005b838110156104065781810151838201526020016103ee565b50505050905090810190601f1680156104335780820380516001836020036101000a031916815260200191505b50935050505060405180910390f35b34801561044e57600080fd5b506103ac6004803603602081101561046557600080fd5b50356001600160a01b031661149a565b34801561048157600080fd5b506104a86004803603602081101561049857600080fd5b50356001600160a01b0316611507565b604080519315158452911515602084015282820152519081900360600190f35b3480156104d457600080fd5b506104f2600480360360208110156104eb57600080fd5b503561152d565b604080519b8c5260208c019a909a528a8a019890985260608a019690965260808901949094526001600160a01b0390921660a0880152151560c0870152151560e086015215156101008501521515610120840152151561014083015251908190036101600190f35b34801561056657600080fd5b506103ac600480360361014081101561057e57600080fd5b81019080806101400190600a806020026040519081016040528092919082600a602002808284376000920191909152509194506115a09350505050565b3480156105c757600080fd5b506103ac60048036036101408110156105df57600080fd5b6040805160608181018352843594602081013594810193909260a08401929091840190600390839083908082843760009201919091525091949392602081019250359050600160201b81111561063457600080fd5b82018360208201111561064657600080fd5b803590602001918460208302840111600160201b8311171561066757600080fd5b9190808060200260200160405190810160405280939291908181526020018383602002808284376000920191909152509295949360208101935035915050600160201b8111156106b657600080fd5b8201836020820111156106c857600080fd5b803590602001918460208302840111600160201b831117156106e957600080fd5b919080806020026020016040519081016040528093929190818152602001838360200280828437600092019190915250929550508235935050506020810135151590604001356001600160a01b03166115f8565b34801561074957600080fd5b5061086d6004803603604081101561076057600080fd5b810190602081018135600160201b81111561077a57600080fd5b82018360208201111561078c57600080fd5b803590602001918460208302840111600160201b831117156107ad57600080fd5b9190808060200260200160405190810160405280939291908181526020018383602002808284376000920191909152509295949360208101935035915050600160201b8111156107fc57600080fd5b82018360208201111561080e57600080fd5b803590602001918460208302840111600160201b8311171561082f57600080fd5b9190808060200260200160405190810160405280939291908181526020018383602002808284376000920191909152509295506116e3945050505050565b60408051602080825283518183015283519192839290830191858101910280838360005b838110156108a9578181015183820152602001610891565b505050509050019250505060405180910390f35b3480156108c957600080fd5b5061022b600480360360408110156108e057600080fd5b506001600160a01b038135169060200135611867565b34801561090257600080fd5b506102716004803603604081101561091957600080fd5b50803590602001356001600160a01b03166118a2565b34801561093b57600080fd5b506103ac6004803603604081101561095257600080fd5b50803590602001356001600160a01b03166118ae565b34801561097457600080fd5b506103ac6004803603604081101561098b57600080fd5b50803590602001356001600160a01b0316611934565b3480156109ad57600080fd5b506103ac600480360360208110156109c457600080fd5b50356001600160a01b03166119b5565b3480156109e057600080fd5b506103ac600480360360208110156109f757600080fd5b50356001600160a01b0316611a20565b348015610a1357600080fd5b506103ac60048036036040811015610a2a57600080fd5b50803590602001356001600160a01b0316611a88565b348015610a4c57600080fd5b50610a55611b06565b604080516001600160a01b039092168252519081900360200190f35b348015610a7d57600080fd5b506103ac60048036036040811015610a9457600080fd5b506001600160a01b0381351690602001351515611b15565b348015610ab857600080fd5b506103ac60048036036040811015610acf57600080fd5b5080359060200135611bcb565b348015610ae857600080fd5b506103ac60048036036020811015610aff57600080fd5b50356001600160a01b0316611c24565b348015610b1b57600080fd5b506103ac60048036036040811015610b3257600080fd5b5080359060200135611c8d565b348015610b4b57600080fd5b5061027160048036036020811015610b6257600080fd5b5035611ce1565b348015610b7557600080fd5b5061027160048036036020811015610b8c57600080fd5b50356001600160a01b0316611cec565b348015610ba857600080fd5b506103ac60048036036101a0811015610bc057600080fd5b60408051606081810183526001600160a01b03853516946020810135949381013593828201359360808301359391830192916101008301919060a0840190600390839083908082843760009201919091525091949392602081019250359050600160201b811115610c3057600080fd5b820183602082011115610c4257600080fd5b803590602001918460208302840111600160201b83111715610c6357600080fd5b9190808060200260200160405190810160405280939291908181526020018383602002808284376000920191909152509295949360208101935035915050600160201b811115610cb257600080fd5b820183602082011115610cc457600080fd5b803590602001918460208302840111600160201b83111715610ce557600080fd5b919080806020026020016040519081016040528093929190818152602001838360200280828437600092019190915250929550508235935050506020810135151590604001356001600160a01b0316611cf7565b348015610d4557600080fd5b5061027160048036036020811015610d5c57600080fd5b50356001600160a01b0316611daa565b348015610d7857600080fd5b5061022b60048036036060811015610d8f57600080fd5b506001600160a01b038135169060208101359060400135611db5565b348015610db757600080fd5b506103ac60048036036040811015610dce57600080fd5b50803590602001356001600160a01b0316611dca565b348015610df057600080fd5b5061027160048036036040811015610e0757600080fd5b506001600160a01b0381358116916020013516611e45565b348015610e2b57600080fd5b50610e4960048036036020811015610e4257600080fd5b5035611e86565b60408051998a5260208a0198909852888801969096526060880194909452608087019290925260a08601526001600160a01b031660c0850152151560e0840152151561010083015251908190036101200190f35b6103ac600480360360a0811015610eb357600080fd5b6001600160a01b03823581169260208101359091169160408201359160608101359181019060a081016080820135600160201b811115610ef257600080fd5b820183602082011115610f0457600080fd5b803590602001918460018302840111600160201b83111715610f2557600080fd5b509092509050611ee2565b348015610f3c57600080fd5b506103ac60048036036020811015610f5357600080fd5b50356001600160a01b0316612039565b348015610f6f57600080fd5b506103ac60048036036060811015610f8657600080fd5b81359190810190604081016020820135600160201b811115610fa757600080fd5b820183602082011115610fb957600080fd5b803590602001918460208302840111600160201b83111715610fda57600080fd5b9190808060200260200160405190810160405280939291908181526020018383602002808284376000920191909152509295949360208101935035915050600160201b81111561102957600080fd5b82018360208201111561103b57600080fd5b803590602001918460208302840111600160201b8311171561105c57600080fd5b91908080602002602001604051908101604052809392919081815260200183836020028082843760009201919091525092955061208c945050505050565b60006001600160a01b0383166110e15760405162461bcd60e51b815260040180806020018281038252602b815260200180613918602b913960400191505060405180910390fd5b506000818152600d602090815260408083206001600160a01b03861684526007019091529020545b92915050565b60006001600160e01b031982166301ffc9a760e01b148061114057506001600160e01b03198216636cdb3d1360e11b145b1561114d57506001611151565b5060005b919050565b8483146111945760405162461bcd60e51b815260040180806020018281038252602e815260200180613aef602e913960400191505060405180910390fd5b6001600160a01b0387166111d95760405162461bcd60e51b81526004018080602001828103825260288152602001806139896028913960400191505060405180910390fd5b6001600160a01b0388163314806111fb57506111f58833611e45565b15156001145b6112365760405162461bcd60e51b8152600401808060200182810382526037815260200180613ab86037913960400191505060405180910390fd5b6112a5888888888080602002602001604051908101604052809392919081815260200183836020028082843760009201919091525050604080516020808c0282810182019093528b82529093508b92508a91829185019084908082843760009201919091525061222392505050565b866001600160a01b0316886001600160a01b0316336001600160a01b03167f4a39dc06d4c0dbc64b70af90fd698a233a518aa5d07e595d983b8c0526c8f7fb898989896040518080602001806020018381038352878782818152602001925060200280828437600083820152601f01601f19169091018481038352858152602090810191508690860280828437600083820152604051601f909101601f19169092018290039850909650505050505050a46113fa33898989898080602002602001604051908101604052809392919081815260200183836020028082843760009201919091525050604080516020808d0282810182019093528c82529093508c92508b91829185019084908082843760009201919091525050604080516020601f8c018190048102820181019092528a815292508a91508990819084018382808284376000920191909152506122dd92505050565b5050505050505050565b6000805460018054604080516020600284861615610100026000190190941693909304601f810184900484028201840190925281815293949392918301828280156114905780601f1061146557610100808354040283529160200191611490565b820191906000526020600020905b81548152906001019060200180831161147357829003601f168201915b5050505050905082565b6114a26124ce565b6114e1576040805162461bcd60e51b81526020600482018190526024820152600080516020613a98833981519152604482015290519081900360640190fd5b6001600160a01b03166000908152600c60205260409020805461ff001916610100179055565b600c602052600090815260409020805460019091015460ff808316926101009004169083565b600e6020526000908152604090208054600182015460028301546003840154600485015460059095015493949293919290916001600160a01b0381169060ff600160a01b8204811691600160a81b8104821691600160b01b8204811691600160b81b8104821691600160c01b909104168b565b6115a86124ce565b6115e7576040805162461bcd60e51b81526020600482018190526024820152600080516020613a98833981519152604482015290519081900360640190fd5b6115f4600282600a6137c3565b5050565b8761160381336124df565b611642576040805162461bcd60e51b81526020600482015260176024820152600080516020613943833981519152604482015290519081900360640190fd5b6000898152600d6020526040902054611692576040805162461bcd60e51b815260206004820152600d60248201526c2ab735b737bbb7103a37b5b2b760991b604482015290519081900360640190fd5b6116a28989898989898989612519565b6040805189815290518a917f199acc06cd2556bbc146fa3cb578799037dffcbf256eca32aaf2ef656925d2fd919081900360200190a2505050505050505050565b606081518351146117255760405162461bcd60e51b81526004018080602001828103825260308152602001806139dd6030913960400191505060405180910390fd5b6060835167ffffffffffffffff8111801561173f57600080fd5b50604051908082528060200260200182016040528015611769578160200160208202803683370190505b50905060005b845181101561185f5760006001600160a01b031685828151811061178f57fe5b60200260200101516001600160a01b031614156117dd5760405162461bcd60e51b8152600401808060200182810382526034815260200180613a436034913960400191505060405180910390fd5b600d60008583815181106117ed57fe5b60200260200101518152602001908152602001600020600701600086838151811061181457fe5b60200260200101516001600160a01b03166001600160a01b031681526020019081526020016000206000015482828151811061184c57fe5b602090810291909101015260010161176f565b509392505050565b6000818152600d602090815260408083206001600160a01b038616845260070190915281206001015461189b9042906126bd565b9392505050565b600061189b83836124df565b816118b981336124df565b6118f8576040805162461bcd60e51b81526020600482015260176024820152600080516020613943833981519152604482015290519081900360640190fd5b506000918252600d602090815260408084206001600160a01b039093168452600790920190529020600201805462ff0000191662010000179055565b8161193f81336124df565b61197e576040805162461bcd60e51b81526020600482015260176024820152600080516020613943833981519152604482015290519081900360640190fd5b506000918252600d602090815260408084206001600160a01b039093168452600790920190529020600201805462ff000019169055565b6119bd6124ce565b6119fc576040805162461bcd60e51b81526020600482018190526024820152600080516020613a98833981519152604482015290519081900360640190fd5b6001600160a01b03166000908152600c60205260409020805460ff19166001179055565b611a286124ce565b611a67576040805162461bcd60e51b81526020600482018190526024820152600080516020613a98833981519152604482015290519081900360640190fd5b6001600160a01b03166000908152600c60205260409020805460ff19169055565b611a906124ce565b611acf576040805162461bcd60e51b81526020600482018190526024820152600080516020613a98833981519152604482015290519081900360640190fd5b6000918252600d602090815260408084206001600160a01b039093168452600790920190529020600201805460ff19166001179055565b600f546001600160a01b031690565b336001600160a01b0383161415611b5d5760405162461bcd60e51b815260040180806020018281038252602c8152602001806139b1602c913960400191505060405180910390fd5b3360008181526010602090815260408083206001600160a01b03871680855290835292819020805460ff1916861515908117909155815190815290519293927f17307eab39ab6107e8899845ad3d59bd9653f200f220920489ca2b5937696c31929181900390910190a35050565b81611bd681336124df565b611c15576040805162461bcd60e51b81526020600482015260176024820152600080516020613943833981519152604482015290519081900360640190fd5b611c1f83836126ff565b505050565b611c2c6124ce565b611c6b576040805162461bcd60e51b81526020600482018190526024820152600080516020613a98833981519152604482015290519081900360640190fd5b6001600160a01b03166000908152600c60205260409020805461ff0019169055565b81611c9881336124df565b611cd7576040805162461bcd60e51b81526020600482015260176024820152600080516020613943833981519152604482015290519081900360640190fd5b611c1f8383612755565b6000611109826127b1565b6000611109826127d0565b611d00336127d0565b611d3f576040805162461bcd60e51b81526020600482015260176024820152600080516020613943833981519152604482015290519081900360640190fd5b611d528b8b8b8b8b8b8b8b8b8b8b6127fa565b604080518b8152602081018b905281516001600160a01b038e169260009233927fc3d58168c5ae7397731d063d5bbf3d657854427343f4c083240f7aacaa2d0f62929181900390910190a45050505050505050505050565b600061110982612963565b6000611dc2848484612986565b949350505050565b611dd26124ce565b611e11576040805162461bcd60e51b81526020600482018190526024820152600080516020613a98833981519152604482015290519081900360640190fd5b6000918252600d602090815260408084206001600160a01b039093168452600790920190529020600201805460ff19169055565b6000611e518383612b6e565b8061189b5750506001600160a01b03918216600090815260106020908152604080832093909416825291909152205460ff1690565b600d60205260009081526040902080546001820154600283015460038401546004850154600586015460069096015494959394929391929091906001600160a01b0381169060ff600160a01b8204811691600160a81b90041689565b6001600160a01b038516611f275760405162461bcd60e51b81526004018080602001828103825260288152602001806139896028913960400191505060405180910390fd5b6001600160a01b038616331480611f495750611f438633611e45565b15156001145b611f845760405162461bcd60e51b8152600401808060200182810382526037815260200180613ab86037913960400191505060405180910390fd5b611f9086868686612c55565b846001600160a01b0316866001600160a01b0316336001600160a01b03167fc3d58168c5ae7397731d063d5bbf3d657854427343f4c083240f7aacaa2d0f628787604051808381526020018281526020019250505060405180910390a4612031338787878787878080601f016020809104026020016040519081016040528093929190818152602001838380828437600092019190915250612ccd92505050565b505050505050565b6120416124ce565b612080576040805162461bcd60e51b81526020600482018190526024820152600080516020613a98833981519152604482015290519081900360640190fd5b61208981612e42565b50565b612095336127d0565b6120d4576040805162461bcd60e51b81526020600482015260176024820152600080516020613943833981519152604482015290519081900360640190fd5b6000838152600d6020526040902054158015906120f2575080518251145b612137576040805162461bcd60e51b8152602060048201526011602482015270496e76616c696420617267756d656e747360781b604482015290519081900360640190fd5b60005b825181101561221d576121748484838151811061215357fe5b602002602001015184848151811061216757fe5b6020026020010151612ee3565b6000848152600d60205260408120600801805490919061219057fe5b600091825260208220015484516001600160a01b03909116919033907fc3d58168c5ae7397731d063d5bbf3d657854427343f4c083240f7aacaa2d0f62908790869081106121da57fe5b6020026020010151600d60008a815260200190815260200160002060000154604051808381526020018281526020019250505060405180910390a460010161213a565b50505050565b600080341161224d576001600160a01b0385166000908152600c602052604090206001015461224f565b345b905060005b83518110156122cb576122c1612292878787858151811061227157fe5b602002602001015187868151811061228557fe5b6020026020010151613080565b60408051808201909152601081526f092dce6eaccccd2c6d2cadce8408aa8960831b60208201528491906130de565b9150600101612254565b506122d68582613175565b5050505050565b6122ef846001600160a01b03166131f6565b156120315763bc197c8160e01b6001600160e01b031916846001600160a01b031663bc197c8188888787876040518663ffffffff1660e01b815260040180866001600160a01b03168152602001856001600160a01b03168152602001806020018060200180602001848103845287818151815260200191508051906020019060200280838360005b8381101561238f578181015183820152602001612377565b50505050905001848103835286818151815260200191508051906020019060200280838360005b838110156123ce5781810151838201526020016123b6565b50505050905001848103825285818151815260200191508051906020019080838360005b8381101561240a5781810151838201526020016123f2565b50505050905090810190601f1680156124375780820380516001836020036101000a031916815260200191505b5098505050505050505050602060405180830381600087803b15801561245c57600080fd5b505af1158015612470573d6000803e3d6000fd5b505050506040513d602081101561248657600080fd5b50516001600160e01b031916146120315760405162461bcd60e51b8152600401808060200182810382526036815260200180613a0d6036913960400191505060405180910390fd5b600f546001600160a01b0316331490565b6000828152600d602090815260408083206001600160a01b038516845260070190915281206002015460ff168061189b575061189b6124ce565b6000805b85518110156125495785818151811061253257fe5b60200260200101518201915080600101905061251d565b5060008651118015612559575060015b8015612566575080612710145b8015612573575061271084105b6125b8576040805162461bcd60e51b8152602060048201526011602482015270496e76616c696420617267756d656e747360781b604482015290519081900360640190fd5b6000898152600d60209081526040808320600581018c90558a516002808301919091558b840151600383015582518084018452428152928c015183850152600b90910180546001810182559085529290932061261893928302019161381b565b506000898152600d60209081526040909120875161263e92600990920191890190613855565b506000898152600d60209081526040909120865161266492600a909201918801906138a9565b50506000978852600d602052604090972060048101929092556006909101805460ff60a01b1916600160a01b92151592909202919091176001600160a01b0319166001600160a01b039096169590951790945550505050565b600061189b83836040518060400160405280601e81526020017f536166654d6174683a207375627472616374696f6e206f766572666c6f7700008152506130de565b6000828152600d6020908152604091829020600601805460ff60a81b191690558151838152915184927f199acc06cd2556bbc146fa3cb578799037dffcbf256eca32aaf2ef656925d2fd92908290030190a25050565b6000828152600d6020908152604091829020600601805460ff60a81b1916600160a81b1790558151838152915184927f199acc06cd2556bbc146fa3cb578799037dffcbf256eca32aaf2ef656925d2fd92908290030190a25050565b6000908152600d6020526040902060060154600160a81b900460ff1690565b6001600160a01b0381166000908152600c602052604081205460ff168061110957506111096124ce565b60008a8152600d60205260409020541580156128165750600089115b61285b576040805162461bcd60e51b8152602060048201526011602482015270496e76616c696420617267756d656e747360781b604482015290519081900360640190fd5b88600d60008c81526020019081526020016000206000018190555087600d60008c8152602001908152602001600020600101819055506001600d60008c81526020019081526020016000206007016000336001600160a01b03166001600160a01b0316815260200190815260200160002060020160006101000a81548160ff0219169083151502179055506001600d60008c815260200190815260200160002060070160008d6001600160a01b03166001600160a01b0316815260200190815260200160002060020160026101000a81548160ff02191690831515021790555061294b8a88888888888888612519565b6129568b8b8b61322d565b5050505050505050505050565b6001600160a01b03166000908152600c6020526040902054610100900460ff1690565b6000828152600d60205260408120600b015481904290600019015b6000868152600d60205260408120600b018054839081106129be57fe5b60009182526020822060029091020101546000888152600d60205260408120600b0180549293509091849081106129f157fe5b9060005260206000209060020201600160028110612a0b57fe5b01546000898152600d602090815260408083206001600160a01b038e168452600701909152812060010154919250908311612aae576000898152600d602090815260408083206001600160a01b038e168452600701909152902060010154612a83906201518090612a7d9088906126bd565b906132d6565b905080612a8e575060015b612aa288612a9c8385613318565b90613318565b86019550505050612aed565b612abf62015180612a7d87866126bd565b905080612aca575060015b9193508391612add88612a9c8385613318565b90950194505050600019016129a1565b506000858152600d6020526040902060010154612b0e908390600a0a6132d6565b6000868152600d602052604081206003015491935090612b39906305f5e10090612a7d908890613318565b6000878152600d6020526040902060020154909150612b6390612b5c9083613371565b8490613371565b979650505050505050565b6000805b600a811015612c4b576000600282600a8110612b8a57fe5b01546001600160a01b031614612c43576000600282600a8110612ba957fe5b01546040805163c455279160e01b81526001600160a01b0388811660048301529151928216935090861691839163c4552791916024808301926020929190829003018186803b158015612bfb57600080fd5b505afa158015612c0f573d6000803e3d6000fd5b505050506040513d6020811015612c2557600080fd5b50516001600160a01b03161415612c4157600192505050611109565b505b600101612b72565b5060009392505050565b6000803411612c7f576001600160a01b0385166000908152600c6020526040902060010154612c81565b345b9050612cc1612c9286868686613080565b60408051808201909152601081526f092dce6eaccccd2c6d2cadce8408aa8960831b60208201528391906130de565b90506122d68582613175565b612cdf846001600160a01b03166131f6565b156120315763f23a6e6160e01b6001600160e01b031916846001600160a01b031663f23a6e6188888787876040518663ffffffff1660e01b815260040180866001600160a01b03168152602001856001600160a01b0316815260200184815260200183815260200180602001828103825283818151815260200191508051906020019080838360005b83811015612d80578181015183820152602001612d68565b50505050905090810190601f168015612dad5780820380516001836020036101000a031916815260200191505b509650505050505050602060405180830381600087803b158015612dd057600080fd5b505af1158015612de4573d6000803e3d6000fd5b505050506040513d6020811015612dfa57600080fd5b50516001600160e01b031916146120315760405162461bcd60e51b8152600401808060200182810382526031815260200180613b1d6031913960400191505060405180910390fd5b6001600160a01b038116612e875760405162461bcd60e51b81526004018080602001828103825260268152602001806139636026913960400191505060405180910390fd5b600f546040516001600160a01b038084169216907f8be0079c531659141344cd1fd0a4f28419497f9722a3daafe3b4186f6b6457e090600090a3600f80546001600160a01b0319166001600160a01b0392909216919091179055565b6000838152600d602052604081206008018054611c1f9290612f0157fe5b6000918252602080832090910154868352600d8083526040808520805460018201548351606081018552600284015481526003840154818901528c895294909652600b90910180546001600160a01b03909516968a96929592948a949093908401929190612f6b57fe5b9060005260206000209060020201600160028110612f8557fe5b0154905260008a8152600d602090815260409182902060090180548351818402810184019094528084529091830182828015612fea57602002820191906000526020600020905b81546001600160a01b03168152600190910190602001808311612fcc575b50505060008d8152600d6020908152604091829020600a018054835181840281018401909452808452929450925083018282801561304757602002820191906000526020600020905b815481526020019060010190808311613033575b50505060008e8152600d60205260409020600481015460069091015490925060ff600160a01b82041691506001600160a01b03166127fa565b600061308e858585856133cb565b156130c9576040805162461bcd60e51b8152602060048201526006602482015265131bd8dad95960d21b604482015290519081900360640190fd5b6130d585858585613403565b95945050505050565b6000818484111561316d5760405162461bcd60e51b81526004018080602001828103825283818151815260200191508051906020019080838360005b8381101561313257818101518382015260200161311a565b50505050905090810190601f16801561315f5780820380516001836020036101000a031916815260200191505b509250505060405180910390fd5b505050900390565b6000341180156131855750600081115b156131d1576001600160a01b0382166000908152600c60205260409020600101546131b09082613371565b6001600160a01b0383166000908152600c60205260409020600101556115f4565b346115f4576001600160a01b03919091166000908152600c6020526040902060010155565b6000813f7fc5d2460186f7233c927e7db2dcc703c0e500b653ca82273b7bfad8045d85a4708115801590611dc25750141592915050565b6000828152600d6020526040902060060154600160a01b900460ff16158061328357506000828152600d602090815260408083206001600160a01b038716845260070190915290206002015462010000900460ff165b6132cb576040805162461bcd60e51b81526020600482015260146024820152731059191c995cdcc81b9bdd08185c1c1c9bdd995960621b604482015290519081900360640190fd5b611c1f838383613560565b600061189b83836040518060400160405280601a81526020017f536166654d6174683a206469766973696f6e206279207a65726f00000000000081525061375e565b60008261332757506000611109565b8282028284828161333457fe5b041461189b5760405162461bcd60e51b8152600401808060200182810382526021815260200180613a776021913960400191505060405180910390fd5b60008282018381101561189b576040805162461bcd60e51b815260206004820152601b60248201527f536166654d6174683a206164646974696f6e206f766572666c6f770000000000604482015290519081900360640190fd5b60006133d6836127b1565b806133e557506133e585612963565b806133f457506133f484612963565b806130d5575050159392505050565b6040805180820182526014815273496e73756666696369656e742062616c616e636560601b6020808301919091526000858152600d82528381206001600160a01b03891682526007019091529182205461345e9184906130de565b6000848152600d602090815260408083206001600160a01b038a16845260070190915290205561348f84848461322d565b61349a858484612986565b905060005b6000848152600d6020526040902060090154811015613557576000848152600d602052604081206009018054839081106134d557fe5b6000918252602080832090910154878352600d90915260408220600a0180546001600160a01b039092169350908490811061350c57fe5b600091825260209091200154905061352a612710612a7d8684613318565b6001600160a01b039092166000908152600c6020526040902060019081018054909301909255500161349f565b50949350505050565b6000828152600d602090815260408083206001600160a01b03871684526007019091528120546135909083613371565b6000848152600d602090815260408083206001600160a01b038916845260070190915290205490915061368d576000838152600d602090815260408083206001600160a01b0388168452600701909152902060020154610100900460ff1661365c576001600160a01b0384166000818152600c6020908152604080832060020180546001818101835591855283852001889055878452600d83529083206008810180549283018155845282842090910180546001600160a01b0319168517905592909152600790910190525b6000838152600d602090815260408083206001600160a01b038816845260070190915290204260019091015561372e565b6000838152600d602090815260408083206001600160a01b03881684526007019091528120600101546136c19042906126bd565b6000858152600d602090815260408083206001600160a01b038a168452600701909152812054919250906136fb908490612a7d9085613318565b6000868152600d602090815260408083206001600160a01b038b1684526007019091529020429190910360019091015550505b6000928352600d602090815260408085206001600160a01b03909616855260079095019052929091209190915550565b600081836137ad5760405162461bcd60e51b815260206004820181815283516024840152835190928392604490910191908501908083836000831561313257818101518382015260200161311a565b5060008385816137b957fe5b0495945050505050565b82600a810192821561380b579160200282015b8281111561380b57825182546001600160a01b0319166001600160a01b039091161782556020909201916001909101906137d6565b506138179291506138e3565b5090565b8260028101928215613849579160200282015b8281111561384957825182559160200191906001019061382e565b50613817929150613902565b82805482825590600052602060002090810192821561380b579160200282018281111561380b57825182546001600160a01b0319166001600160a01b039091161782556020909201916001909101906137d6565b828054828255906000526020600020908101928215613849579160200282018281111561384957825182559160200191906001019061382e565b5b808211156138175780546001600160a01b03191681556001016138e4565b5b80821115613817576000815560010161390356fe455243313135353a2062616c616e636520717565727920666f7220746865207a65726f2061646472657373496e73756666696369656e74207065726d697373696f6e0000000000000000004f776e61626c653a206e6577206f776e657220697320746865207a65726f2061646472657373455243313135353a207461726765742061646472657373206d757374206265206e6f6e2d7a65726f455243313135353a2063616e6e6f742073657420617070726f76616c2073746174757320666f722073656c66455243313135353a206163636f756e747320616e6420494473206d75737420686176652073616d65206c656e67746873455243313135353a20676f7420756e6b6e6f776e2076616c75652066726f6d206f6e4552433131353542617463685265636569766564455243313135353a20736f6d65206164647265737320696e2062617463682062616c616e6365207175657279206973207a65726f536166654d6174683a206d756c7469706c69636174696f6e206f766572666c6f774f776e61626c653a2063616c6c6572206973206e6f7420746865206f776e6572455243313135353a206e656564206f70657261746f7220617070726f76616c20666f7220337264207061727479207472616e7366657273455243313135353a2049447320616e642076616c756573206d75737420686176652073616d65206c656e67746873455243313135353a20676f7420756e6b6e6f776e2076616c75652066726f6d206f6e455243313135355265636569766564a2646970667358221220622f0f05d8ec825fdca515244bf31fc447121d8b938ef247e91715dd5227296964736f6c634300070100334f776e61626c653a206e6577206f776e657220697320746865207a65726f2061646472657373",
  "immutableReferences": {},
  "source": "// SPDX-License-Identifier: GPL-3.0-or-later\npragma solidity ^0.7.1;\n\nimport './Privatizable.sol';\n\ncontract Lockable is Privatizable {\n\n\n    /****************************\n    EXTERNAL FUNCTIONS\n    *****************************/\n\n\n    /**\n     * @dev Function to lock a token.\n     * @param id The token ID\n     */\n    function lockToken(uint256 id, uint256 documentHash) external onlyMaintener(id) {\n        _lockToken(id, documentHash);\n    }\n\n    /**\n     * @dev Function to unlock a token.\n     * @param id The token ID\n     */\n    function unlockToken(uint256 id, uint256 documentHash) external onlyMaintener(id) {\n        _unlockToken(id, documentHash);\n    }\n\n    /**\n     * @dev Function to check if a token is locked.\n     * @param id The token ID\n     */\n    function isLockedToken(uint256 id) external view returns (bool){\n        return _isLockedToken(id);\n    }\n\n    /**\n     * @dev Function to lock an address.\n     * @param addr The address to lock\n     */\n    function lockAddress(address addr) external onlyOwner {\n        _users[addr].isLocked = true;\n    }\n\n    /**\n     * @dev Function to unlock an address.\n     * @param addr The address to unlock\n     */\n    function unlockAddress(address addr) external onlyOwner {\n        _users[addr].isLocked = false;\n    }\n\n    /**\n     * @dev Function to check if an address is lockec.\n     * @param addr The address to check\n     */\n    function isLockedAddress(address addr) external view returns (bool){\n        return _isLockedAddress(addr);\n    }\n\n\n    /****************************\n    INTERNAL FUNCTIONS\n    *****************************/\n\n\n    function _lockToken(uint256 id, uint256 documentHash) internal {\n        _tokens[id].locked = true;\n        emit TokenUpdated(id, documentHash);\n    }\n\n    function _unlockToken(uint256 id, uint256 documentHash) internal {\n        _tokens[id].locked = false;\n        emit TokenUpdated(id, documentHash);\n    }\n\n    function _isLockedToken(uint256 id) internal view returns (bool) {\n        return _tokens[id].locked;\n    }\n\n    function _isLockedAddress(address addr) internal view returns (bool) {\n        return _users[addr].isLocked;\n    }\n\n    function _isLockedMove(address from, address to, uint256 id, uint256 value) internal view returns (bool) {\n        return _isLockedToken(id) || _isLockedAddress(from) || _isLockedAddress(to) || (value == 0);\n    }\n\n    // override ChargeableTransfer._moveTokens\n    function _moveTokens(address from, address to, uint256 id, uint256 value) internal override returns (uint256 fees) {\n        require(!_isLockedMove(from, to, id, value), \"Locked\");\n        return super._moveTokens(from, to, id, value);\n    }\n}\n",
  "sourcePath": "/home/ouziel/Work/StashBloxContracts/contracts/lib/Lockable.sol",
  "compiler": {
    "name": "solc",
    "version": "0.7.1+commit.f4a555be.Emscripten.clang"
  },
  "schemaVersion": "3.2.3",
  "updatedAt": "2020-10-21T13:10:21.880Z",
  "devdoc": {
    "kind": "dev",
    "methods": {
      "approveHolder(uint256,address)": {
        "details": "Function to approve holder for a private token.",
        "params": {
          "holder": "The authorized address",
          "id": "the token id"
        }
      },
      "authorizeMaintener(uint256,address)": {
        "details": "Function to authorize an address to maintain a token.",
        "params": {
          "maintener": "The authorized address"
        }
      },
      "authorizeTokenizer(address)": {
        "details": "Function to authorize an address to create a token.",
        "params": {
          "tokenizer": "The authorized address"
        }
      },
      "averageAge(address,uint256)": {
        "details": "Function to get the average age of the token for the given address.",
        "params": {
          "account": "the address from where to transfer the tokens",
          "id": "The token ID"
        },
        "returns": {
          "_0": "average age in seconds"
        }
      },
      "balanceOf(address,uint256)": {
        "details": "Get the specified address' balance for token with specified ID. Attempting to query the zero account for a balance will result in a revert.",
        "params": {
          "account": "The address of the token holder",
          "id": "ID of the token"
        },
        "returns": {
          "_0": "The account's balance of the token type requested"
        }
      },
      "balanceOfBatch(address[],uint256[])": {
        "details": "Get the balance of multiple account/token pairs. If any of the query accounts is the zero account, this query will revert.",
        "params": {
          "accounts": "The addresses of the token holders",
          "ids": "IDs of the tokens"
        },
        "returns": {
          "_0": "Balances for each account and token id pair"
        }
      },
      "cloneToken(uint256,uint256[],uint256[])": {
        "details": "Function to mint tokens in batch.",
        "params": {
          "id": "Identifier of the template",
          "ids": "list of IDs of the tokens to be minted",
          "metadataHashes": "list of metadata file hashes"
        }
      },
      "createToken(address,uint256,uint256,uint256,uint256,uint256[3],address[],uint256[],uint256,bool,address)": {
        "details": "Function to mint an amount of a token with the given ID.",
        "params": {
          "feesRecipients": "list of addresses receiving transfer fees",
          "feesRecipientsPercentage": "list of percentage, each one for the corresponding feesRecipients",
          "id": "ID of the token to be minted",
          "isPrivate": "true if holder need approval",
          "legalAuthority": "address of the legal authority",
          "metadataHash": "Metadata file hash",
          "minHoldingForCallback": "minimum holding to propose a callback",
          "recipient": "The address that will own the minted tokens",
          "supply": "Amount of the token to be minted",
          "transactionFees": "transaction fees: [lumpSumFees (in WEI), valueProportionalFees (ratio of transfered amount * 10**8), storageFees (in storageCredit * 10**8)]"
        }
      },
      "isApprovedForAll(address,address)": {
        "params": {
          "account": "The account of the Tokens",
          "operator": "Address of authorized operator"
        },
        "returns": {
          "_0": "True if the operator is approved, false if not"
        }
      },
      "isLockedAddress(address)": {
        "details": "Function to check if an address is lockec.",
        "params": {
          "addr": "The address to check"
        }
      },
      "isLockedToken(uint256)": {
        "details": "Function to check if a token is locked.",
        "params": {
          "id": "The token ID"
        }
      },
      "isMaintener(uint256,address)": {
        "details": "Function to check if an address is authorized to maintain a token.",
        "params": {
          "id": "the token id",
          "maintener": "The authorized address"
        },
        "returns": {
          "_0": "true if it's a maintener address"
        }
      },
      "isTokenizer(address)": {
        "details": "Function to check if an address is authorized to create a token.",
        "params": {
          "tokenizer": "The authorized address"
        }
      },
      "lockAddress(address)": {
        "details": "Function to lock an address.",
        "params": {
          "addr": "The address to lock"
        }
      },
      "lockToken(uint256,uint256)": {
        "details": "Function to lock a token.",
        "params": {
          "id": "The token ID"
        }
      },
      "owner()": {
        "details": "Returns the address of the current owner."
      },
      "revokeHolder(uint256,address)": {
        "details": "Function to revoke holder for a private token.",
        "params": {
          "holder": "The authorized address",
          "id": "the token id"
        }
      },
      "revokeMaintener(uint256,address)": {
        "details": "Function to revoke the authorization to maintain a token.",
        "params": {
          "id": "the token id",
          "maintener": "The authorized address"
        }
      },
      "revokeTokenizer(address)": {
        "details": "Function to revoke the authorization to create a token.",
        "params": {
          "tokenizer": "The authorized address"
        }
      },
      "safeBatchTransferFrom(address,address,uint256[],uint256[],bytes)": {
        "details": "Transfers `values` amount(s) of `ids` from the `from` address to the `to` address specified. Caller must be approved to manage the tokens being transferred out of the `from` account. If `to` is a smart contract, will call `onERC1155BatchReceived` on `to` and act appropriately.",
        "params": {
          "data": "Data forwarded to `onERC1155Received` if `to` is a contract receiver",
          "from": "Source address",
          "ids": "IDs of each token type",
          "to": "Target address",
          "values": "Transfer amounts per token type"
        }
      },
      "safeTransferFrom(address,address,uint256,uint256,bytes)": {
        "details": "Transfers `value` amount of an `id` from the `from` address to the `to` address specified. Caller must be approved to manage the tokens being transferred out of the `from` account. If `to` is a smart contract, will call `onERC1155Received` on `to` and act appropriately.",
        "params": {
          "data": "Data forwarded to `onERC1155Received` if `to` is a contract receiver",
          "from": "Source address",
          "id": "ID of the token type",
          "to": "Target address",
          "value": "Transfer amount"
        }
      },
      "setApprovalForAll(address,bool)": {
        "details": "Sets or unsets the approval of a given operator. An operator is allowed to transfer all tokens of the sender on their behalf. Because an account already has operator privileges for itself, this function will revert if the account attempts to set the approval status for itself.",
        "params": {
          "approved": "representing the status of the approval to be set",
          "operator": "address to set the approval"
        }
      },
      "setProxyRegistryAddress(address[10])": {
        "details": "Function to update the operator whitelist",
        "params": {
          "proxyAddresses": "List of addresses"
        }
      },
      "supportsInterface(bytes4)": {
        "params": {
          "_interfaceID": "The interface identifier, as specified in ERC-165"
        },
        "returns": {
          "_0": "`true` if the contract implements `_interfaceID` and"
        }
      },
      "transactionFees(address,uint256,uint256)": {
        "details": "Function to get the transaction price to transfer tokens.",
        "params": {
          "account": "the address from where to transfer the tokens",
          "id": "The token ID",
          "value": "The amount to transfer"
        },
        "returns": {
          "_0": "transfer price"
        }
      },
      "transferOwnership(address)": {
        "details": "Transfers ownership of the contract to a new account (`newOwner`). Can only be called by the current owner."
      },
      "unlockAddress(address)": {
        "details": "Function to unlock an address.",
        "params": {
          "addr": "The address to unlock"
        }
      },
      "unlockToken(uint256,uint256)": {
        "details": "Function to unlock a token.",
        "params": {
          "id": "The token ID"
        }
      },
      "updateToken(uint256,uint256,uint256[3],address[],uint256[],uint256,bool,address)": {
        "details": "Function to update a token with the given ID.",
        "params": {
          "feesRecipients": "list of addresses receiving transfer fees",
          "feesRecipientsPercentage": "list of percentage, each one for the corresponding feesRecipients",
          "id": "ID of the token to be updated",
          "isPrivate": "true if holder need approval",
          "legalAuthority": "address of the legal authority",
          "metadataHash": "Metadata file hash",
          "minHoldingForCallback": "minimum holding to propose a callback",
          "transactionFees": "transaction fees: [lumpSumFees (in WEI), valueProportionalFees (ratio of transfered amount * 10**8), storageFees (in storageCredit * 10**8)]"
        }
      }
    },
    "version": 1
  },
  "userdoc": {
    "kind": "user",
    "methods": {
      "isApprovedForAll(address,address)": {
        "notice": "Queries the approval status of an operator for a given account."
      },
      "supportsInterface(bytes4)": {
        "notice": "Query if a contract implements an interface"
      }
    },
    "version": 1
  }
}