{
  "contractName": "Lockable",
  "abi": [
    {
      "anonymous": false,
      "inputs": [
        {
          "indexed": true,
          "internalType": "address",
          "name": "_owner",
          "type": "address"
        },
        {
          "indexed": true,
          "internalType": "address",
          "name": "_operator",
          "type": "address"
        },
        {
          "indexed": false,
          "internalType": "bool",
          "name": "_approved",
          "type": "bool"
        }
      ],
      "name": "ApprovalForAll",
      "type": "event"
    },
    {
      "anonymous": false,
      "inputs": [
        {
          "indexed": true,
          "internalType": "address",
          "name": "previousOwner",
          "type": "address"
        },
        {
          "indexed": true,
          "internalType": "address",
          "name": "newOwner",
          "type": "address"
        }
      ],
      "name": "OwnershipTransferred",
      "type": "event"
    },
    {
      "anonymous": false,
      "inputs": [
        {
          "indexed": true,
          "internalType": "uint256",
          "name": "_id",
          "type": "uint256"
        },
        {
          "indexed": false,
          "internalType": "uint256",
          "name": "_documentHash",
          "type": "uint256"
        }
      ],
      "name": "TokenUpdated",
      "type": "event"
    },
    {
      "anonymous": false,
      "inputs": [
        {
          "indexed": true,
          "internalType": "address",
          "name": "_operator",
          "type": "address"
        },
        {
          "indexed": true,
          "internalType": "address",
          "name": "_from",
          "type": "address"
        },
        {
          "indexed": true,
          "internalType": "address",
          "name": "_to",
          "type": "address"
        },
        {
          "indexed": false,
          "internalType": "uint256[]",
          "name": "_ids",
          "type": "uint256[]"
        },
        {
          "indexed": false,
          "internalType": "uint256[]",
          "name": "_values",
          "type": "uint256[]"
        }
      ],
      "name": "TransferBatch",
      "type": "event"
    },
    {
      "anonymous": false,
      "inputs": [
        {
          "indexed": true,
          "internalType": "address",
          "name": "_operator",
          "type": "address"
        },
        {
          "indexed": true,
          "internalType": "address",
          "name": "_from",
          "type": "address"
        },
        {
          "indexed": true,
          "internalType": "address",
          "name": "_to",
          "type": "address"
        },
        {
          "indexed": false,
          "internalType": "uint256",
          "name": "_id",
          "type": "uint256"
        },
        {
          "indexed": false,
          "internalType": "uint256",
          "name": "_value",
          "type": "uint256"
        }
      ],
      "name": "TransferSingle",
      "type": "event"
    },
    {
      "anonymous": false,
      "inputs": [
        {
          "indexed": false,
          "internalType": "string",
          "name": "_value",
          "type": "string"
        },
        {
          "indexed": true,
          "internalType": "uint256",
          "name": "_id",
          "type": "uint256"
        }
      ],
      "name": "URI",
      "type": "event"
    },
    {
      "inputs": [
        {
          "internalType": "uint256",
          "name": "",
          "type": "uint256"
        }
      ],
      "name": "_callbacks",
      "outputs": [
        {
          "internalType": "uint256",
          "name": "tokenId",
          "type": "uint256"
        },
        {
          "internalType": "uint256",
          "name": "price",
          "type": "uint256"
        },
        {
          "internalType": "uint256",
          "name": "escrowedAmount",
          "type": "uint256"
        },
        {
          "internalType": "uint256",
          "name": "callCounter",
          "type": "uint256"
        },
        {
          "internalType": "uint256",
          "name": "documentHash",
          "type": "uint256"
        },
        {
          "internalType": "address",
          "name": "caller",
          "type": "address"
        },
        {
          "internalType": "bool",
          "name": "needLegalApproval",
          "type": "bool"
        },
        {
          "internalType": "bool",
          "name": "approvedByLegal",
          "type": "bool"
        },
        {
          "internalType": "bool",
          "name": "refused",
          "type": "bool"
        },
        {
          "internalType": "bool",
          "name": "accepted",
          "type": "bool"
        },
        {
          "internalType": "bool",
          "name": "completed",
          "type": "bool"
        }
      ],
      "stateMutability": "view",
      "type": "function"
    },
    {
      "inputs": [],
      "name": "_config",
      "outputs": [
        {
          "internalType": "uint256",
          "name": "callbackAutoExecuteMaxAddresses",
          "type": "uint256"
        },
        {
          "internalType": "string",
          "name": "baseURI",
          "type": "string"
        },
        {
          "internalType": "address",
          "name": "owner",
          "type": "address"
        }
      ],
      "stateMutability": "view",
      "type": "function"
    },
    {
      "inputs": [
        {
          "internalType": "uint256",
          "name": "",
          "type": "uint256"
        }
      ],
      "name": "_tokens",
      "outputs": [
        {
          "internalType": "uint256",
          "name": "supply",
          "type": "uint256"
        },
        {
          "internalType": "uint256",
          "name": "decimals",
          "type": "uint256"
        },
        {
          "internalType": "uint256",
          "name": "lumpSumTransactionFees",
          "type": "uint256"
        },
        {
          "internalType": "uint256",
          "name": "valueTransactionFees",
          "type": "uint256"
        },
        {
          "internalType": "uint256",
          "name": "minHoldingForCallback",
          "type": "uint256"
        },
        {
          "internalType": "uint256",
          "name": "metadataHash",
          "type": "uint256"
        },
        {
          "internalType": "address",
          "name": "legalAuthority",
          "type": "address"
        },
        {
          "internalType": "bool",
          "name": "isPrivate",
          "type": "bool"
        },
        {
          "internalType": "bool",
          "name": "locked",
          "type": "bool"
        }
      ],
      "stateMutability": "view",
      "type": "function"
    },
    {
      "inputs": [
        {
          "internalType": "address",
          "name": "",
          "type": "address"
        }
      ],
      "name": "_users",
      "outputs": [
        {
          "internalType": "bool",
          "name": "isTokenizer",
          "type": "bool"
        },
        {
          "internalType": "bool",
          "name": "isLocked",
          "type": "bool"
        },
        {
          "internalType": "uint256",
          "name": "ETHBalance",
          "type": "uint256"
        }
      ],
      "stateMutability": "view",
      "type": "function"
    },
    {
      "inputs": [
        {
          "internalType": "uint256",
          "name": "id",
          "type": "uint256"
        },
        {
          "internalType": "address",
          "name": "holder",
          "type": "address"
        }
      ],
      "name": "approveHolder",
      "outputs": [],
      "stateMutability": "nonpayable",
      "type": "function"
    },
    {
      "inputs": [
        {
          "internalType": "uint256",
          "name": "id",
          "type": "uint256"
        },
        {
          "internalType": "address",
          "name": "maintener",
          "type": "address"
        }
      ],
      "name": "authorizeMaintener",
      "outputs": [],
      "stateMutability": "nonpayable",
      "type": "function"
    },
    {
      "inputs": [
        {
          "internalType": "address",
          "name": "tokenizer",
          "type": "address"
        }
      ],
      "name": "authorizeTokenizer",
      "outputs": [],
      "stateMutability": "nonpayable",
      "type": "function"
    },
    {
      "inputs": [
        {
          "internalType": "address",
          "name": "account",
          "type": "address"
        },
        {
          "internalType": "uint256",
          "name": "id",
          "type": "uint256"
        }
      ],
      "name": "averageAge",
      "outputs": [
        {
          "internalType": "uint256",
          "name": "",
          "type": "uint256"
        }
      ],
      "stateMutability": "view",
      "type": "function"
    },
    {
      "inputs": [
        {
          "internalType": "address",
          "name": "account",
          "type": "address"
        },
        {
          "internalType": "uint256",
          "name": "id",
          "type": "uint256"
        }
      ],
      "name": "balanceOf",
      "outputs": [
        {
          "internalType": "uint256",
          "name": "",
          "type": "uint256"
        }
      ],
      "stateMutability": "view",
      "type": "function"
    },
    {
      "inputs": [
        {
          "internalType": "address[]",
          "name": "accounts",
          "type": "address[]"
        },
        {
          "internalType": "uint256[]",
          "name": "ids",
          "type": "uint256[]"
        }
      ],
      "name": "balanceOfBatch",
      "outputs": [
        {
          "internalType": "uint256[]",
          "name": "",
          "type": "uint256[]"
        }
      ],
      "stateMutability": "view",
      "type": "function"
    },
    {
      "inputs": [
        {
          "internalType": "uint256",
          "name": "id",
          "type": "uint256"
        },
        {
          "internalType": "uint256[]",
          "name": "ids",
          "type": "uint256[]"
        },
        {
          "internalType": "uint256[]",
          "name": "metadataHashes",
          "type": "uint256[]"
        }
      ],
      "name": "cloneToken",
      "outputs": [],
      "stateMutability": "nonpayable",
      "type": "function"
    },
    {
      "inputs": [
        {
          "internalType": "address",
          "name": "recipient",
          "type": "address"
        },
        {
          "internalType": "uint256",
          "name": "id",
          "type": "uint256"
        },
        {
          "internalType": "uint256",
          "name": "supply",
          "type": "uint256"
        },
        {
          "internalType": "uint256",
          "name": "decimals",
          "type": "uint256"
        },
        {
          "internalType": "uint256",
          "name": "metadataHash",
          "type": "uint256"
        },
        {
          "internalType": "uint256[3]",
          "name": "transactionFees",
          "type": "uint256[3]"
        },
        {
          "internalType": "address[]",
          "name": "feesRecipients",
          "type": "address[]"
        },
        {
          "internalType": "uint256[]",
          "name": "feesRecipientsPercentage",
          "type": "uint256[]"
        },
        {
          "internalType": "uint256",
          "name": "minHoldingForCallback",
          "type": "uint256"
        },
        {
          "internalType": "bool",
          "name": "isPrivate",
          "type": "bool"
        },
        {
          "internalType": "address",
          "name": "legalAuthority",
          "type": "address"
        }
      ],
      "name": "createToken",
      "outputs": [],
      "stateMutability": "nonpayable",
      "type": "function"
    },
    {
      "inputs": [
        {
          "internalType": "address",
          "name": "account",
          "type": "address"
        },
        {
          "internalType": "address",
          "name": "operator",
          "type": "address"
        }
      ],
      "name": "isApprovedForAll",
      "outputs": [
        {
          "internalType": "bool",
          "name": "",
          "type": "bool"
        }
      ],
      "stateMutability": "view",
      "type": "function"
    },
    {
      "inputs": [
        {
          "internalType": "uint256",
          "name": "id",
          "type": "uint256"
        },
        {
          "internalType": "address",
          "name": "maintener",
          "type": "address"
        }
      ],
      "name": "isMaintener",
      "outputs": [
        {
          "internalType": "bool",
          "name": "",
          "type": "bool"
        }
      ],
      "stateMutability": "view",
      "type": "function"
    },
    {
      "inputs": [
        {
          "internalType": "address",
          "name": "tokenizer",
          "type": "address"
        }
      ],
      "name": "isTokenizer",
      "outputs": [
        {
          "internalType": "bool",
          "name": "",
          "type": "bool"
        }
      ],
      "stateMutability": "view",
      "type": "function"
    },
    {
      "inputs": [],
      "name": "owner",
      "outputs": [
        {
          "internalType": "address",
          "name": "",
          "type": "address"
        }
      ],
      "stateMutability": "view",
      "type": "function"
    },
    {
      "inputs": [
        {
          "internalType": "uint256",
          "name": "id",
          "type": "uint256"
        },
        {
          "internalType": "address",
          "name": "holder",
          "type": "address"
        }
      ],
      "name": "revokeHolder",
      "outputs": [],
      "stateMutability": "nonpayable",
      "type": "function"
    },
    {
      "inputs": [
        {
          "internalType": "uint256",
          "name": "id",
          "type": "uint256"
        },
        {
          "internalType": "address",
          "name": "maintener",
          "type": "address"
        }
      ],
      "name": "revokeMaintener",
      "outputs": [],
      "stateMutability": "nonpayable",
      "type": "function"
    },
    {
      "inputs": [
        {
          "internalType": "address",
          "name": "tokenizer",
          "type": "address"
        }
      ],
      "name": "revokeTokenizer",
      "outputs": [],
      "stateMutability": "nonpayable",
      "type": "function"
    },
    {
      "inputs": [
        {
          "internalType": "address",
          "name": "from",
          "type": "address"
        },
        {
          "internalType": "address",
          "name": "to",
          "type": "address"
        },
        {
          "internalType": "uint256[]",
          "name": "ids",
          "type": "uint256[]"
        },
        {
          "internalType": "uint256[]",
          "name": "values",
          "type": "uint256[]"
        },
        {
          "internalType": "bytes",
          "name": "data",
          "type": "bytes"
        }
      ],
      "name": "safeBatchTransferFrom",
      "outputs": [],
      "stateMutability": "payable",
      "type": "function"
    },
    {
      "inputs": [
        {
          "internalType": "address",
          "name": "from",
          "type": "address"
        },
        {
          "internalType": "address",
          "name": "to",
          "type": "address"
        },
        {
          "internalType": "uint256",
          "name": "id",
          "type": "uint256"
        },
        {
          "internalType": "uint256",
          "name": "value",
          "type": "uint256"
        },
        {
          "internalType": "bytes",
          "name": "data",
          "type": "bytes"
        }
      ],
      "name": "safeTransferFrom",
      "outputs": [],
      "stateMutability": "payable",
      "type": "function"
    },
    {
      "inputs": [
        {
          "internalType": "address",
          "name": "operator",
          "type": "address"
        },
        {
          "internalType": "bool",
          "name": "approved",
          "type": "bool"
        }
      ],
      "name": "setApprovalForAll",
      "outputs": [],
      "stateMutability": "nonpayable",
      "type": "function"
    },
    {
      "inputs": [
        {
          "internalType": "address[10]",
          "name": "proxyAddresses",
          "type": "address[10]"
        }
      ],
      "name": "setProxyRegistryAddress",
      "outputs": [],
      "stateMutability": "nonpayable",
      "type": "function"
    },
    {
      "inputs": [
        {
          "internalType": "bytes4",
          "name": "_interfaceID",
          "type": "bytes4"
        }
      ],
      "name": "supportsInterface",
      "outputs": [
        {
          "internalType": "bool",
          "name": "",
          "type": "bool"
        }
      ],
      "stateMutability": "pure",
      "type": "function"
    },
    {
      "inputs": [
        {
          "internalType": "address",
          "name": "account",
          "type": "address"
        },
        {
          "internalType": "uint256",
          "name": "id",
          "type": "uint256"
        },
        {
          "internalType": "uint256",
          "name": "value",
          "type": "uint256"
        }
      ],
      "name": "transactionFees",
      "outputs": [
        {
          "internalType": "uint256",
          "name": "",
          "type": "uint256"
        }
      ],
      "stateMutability": "view",
      "type": "function"
    },
    {
      "inputs": [
        {
          "internalType": "address",
          "name": "newOwner",
          "type": "address"
        }
      ],
      "name": "transferOwnership",
      "outputs": [],
      "stateMutability": "nonpayable",
      "type": "function"
    },
    {
      "inputs": [
        {
          "internalType": "uint256",
          "name": "id",
          "type": "uint256"
        },
        {
          "internalType": "uint256",
          "name": "metadataHash",
          "type": "uint256"
        },
        {
          "internalType": "uint256[3]",
          "name": "transactionFees",
          "type": "uint256[3]"
        },
        {
          "internalType": "address[]",
          "name": "feesRecipients",
          "type": "address[]"
        },
        {
          "internalType": "uint256[]",
          "name": "feesRecipientsPercentage",
          "type": "uint256[]"
        },
        {
          "internalType": "uint256",
          "name": "minHoldingForCallback",
          "type": "uint256"
        },
        {
          "internalType": "bool",
          "name": "isPrivate",
          "type": "bool"
        },
        {
          "internalType": "address",
          "name": "legalAuthority",
          "type": "address"
        }
      ],
      "name": "updateToken",
      "outputs": [],
      "stateMutability": "nonpayable",
      "type": "function"
    },
    {
      "inputs": [
        {
          "internalType": "uint256",
          "name": "id",
          "type": "uint256"
        }
      ],
      "name": "uri",
      "outputs": [
        {
          "internalType": "string",
          "name": "",
          "type": "string"
        }
      ],
      "stateMutability": "view",
      "type": "function"
    },
    {
      "inputs": [
        {
          "internalType": "uint256",
          "name": "id",
          "type": "uint256"
        },
        {
          "internalType": "uint256",
          "name": "documentHash",
          "type": "uint256"
        }
      ],
      "name": "lockToken",
      "outputs": [],
      "stateMutability": "nonpayable",
      "type": "function"
    },
    {
      "inputs": [
        {
          "internalType": "uint256",
          "name": "id",
          "type": "uint256"
        },
        {
          "internalType": "uint256",
          "name": "documentHash",
          "type": "uint256"
        }
      ],
      "name": "unlockToken",
      "outputs": [],
      "stateMutability": "nonpayable",
      "type": "function"
    },
    {
      "inputs": [
        {
          "internalType": "uint256",
          "name": "id",
          "type": "uint256"
        }
      ],
      "name": "isLockedToken",
      "outputs": [
        {
          "internalType": "bool",
          "name": "",
          "type": "bool"
        }
      ],
      "stateMutability": "view",
      "type": "function"
    },
    {
      "inputs": [
        {
          "internalType": "address",
          "name": "addr",
          "type": "address"
        }
      ],
      "name": "lockAddress",
      "outputs": [],
      "stateMutability": "nonpayable",
      "type": "function"
    },
    {
      "inputs": [
        {
          "internalType": "address",
          "name": "addr",
          "type": "address"
        }
      ],
      "name": "unlockAddress",
      "outputs": [],
      "stateMutability": "nonpayable",
      "type": "function"
    },
    {
      "inputs": [
        {
          "internalType": "address",
          "name": "addr",
          "type": "address"
        }
      ],
      "name": "isLockedAddress",
      "outputs": [
        {
          "internalType": "bool",
          "name": "",
          "type": "bool"
        }
      ],
      "stateMutability": "view",
      "type": "function"
    }
  ],
  "bytecode": "0x60806040523480156200001157600080fd5b506200001d3362000023565b620000e0565b6001600160a01b03811662000084576040517f08c379a000000000000000000000000000000000000000000000000000000000815260040180806020018281038252602681526020018062003ff26026913960400191505060405180910390fd5b600c546040516001600160a01b038084169216907f8be0079c531659141344cd1fd0a4f28419497f9722a3daafe3b4186f6b6457e090600090a3600c80546001600160a01b0319166001600160a01b0392909216919091179055565b613f0280620000f06000396000f3fe6080604052600436106101f85760003560e01c80638aeba37e1161010d578063c40b87ae116100a0578063e985e9c51161006f578063e985e9c514610e9e578063ed70554d14610ed9578063f242432a14610f57578063f2fde38b14610fea578063f8a5a07c1461101d576101f8565b8063c40b87ae14610c56578063cba54e6014610df3578063d1660e1814610e26578063d41d0aa314610e65576101f8565b8063b7eb5e0a116100dc578063b7eb5e0a14610b96578063baa3411014610bc9578063bba75c8314610bf9578063c02f303c14610c23576101f8565b80638aeba37e14610ac15780638da5cb5b14610afa578063a22cb46514610b2b578063aba7fe8a14610b66576101f8565b80634392e577116101905780635dafec1b1161015f5780635dafec1b146109b05780635dd2b9a6146109e9578063759c521414610a225780637627b73214610a5b5780638870147b14610a8e576101f8565b80634392e577146106145780634ab0d253146106755780634e1273f4146107f7578063585941d514610977576101f8565b80632ed42bf7116101cc5780632ed42bf71461045857806334a90d02146104fc5780633cacd7d61461052f578063414ed0ce14610582576101f8565b8062fdd58e146101fd57806301ffc9a7146102485780630e89341c146102905780632eb2c2d61461032f575b600080fd5b34801561020957600080fd5b506102366004803603604081101561022057600080fd5b506001600160a01b038135169060200135611154565b60408051918252519081900360200190f35b34801561025457600080fd5b5061027c6004803603602081101561026b57600080fd5b50356001600160e01b0319166111c9565b604080519115158252519081900360200190f35b34801561029c57600080fd5b506102ba600480360360208110156102b357600080fd5b5035611210565b6040805160208082528351818301528351919283929083019185019080838360005b838110156102f45781810151838201526020016102dc565b50505050905090810190601f1680156103215780820380516001836020036101000a031916815260200191505b509250505060405180910390f35b610456600480360360a081101561034557600080fd5b6001600160a01b038235811692602081013590911691810190606081016040820135600160201b81111561037857600080fd5b82018360208201111561038a57600080fd5b803590602001918460208302840111600160201b831117156103ab57600080fd5b919390929091602081019035600160201b8111156103c857600080fd5b8201836020820111156103da57600080fd5b803590602001918460208302840111600160201b831117156103fb57600080fd5b919390929091602081019035600160201b81111561041857600080fd5b82018360208201111561042a57600080fd5b803590602001918460018302840111600160201b8311171561044b57600080fd5b5090925090506112b1565b005b34801561046457600080fd5b5061046d61155f565b6040518084815260200180602001836001600160a01b03168152602001828103825284818151815260200191508051906020019080838360005b838110156104bf5781810151838201526020016104a7565b50505050905090810190601f1680156104ec5780820380516001836020036101000a031916815260200191505b5094505050505060405180910390f35b34801561050857600080fd5b506104566004803603602081101561051f57600080fd5b50356001600160a01b0316611604565b34801561053b57600080fd5b506105626004803603602081101561055257600080fd5b50356001600160a01b0316611671565b604080519315158452911515602084015282820152519081900360600190f35b34801561058e57600080fd5b506105ac600480360360208110156105a557600080fd5b5035611697565b604080519b8c5260208c019a909a528a8a019890985260608a019690965260808901949094526001600160a01b0390921660a0880152151560c0870152151560e086015215156101008501521515610120840152151561014083015251908190036101600190f35b34801561062057600080fd5b50610456600480360361014081101561063857600080fd5b81019080806101400190600a806020026040519081016040528092919082600a6020028082843760009201919091525091945061170a9350505050565b34801561068157600080fd5b50610456600480360361014081101561069957600080fd5b6040805160608181018352843594602081013594810193909260a08401929091840190600390839083908082843760009201919091525091949392602081019250359050600160201b8111156106ee57600080fd5b82018360208201111561070057600080fd5b803590602001918460208302840111600160201b8311171561072157600080fd5b9190808060200260200160405190810160405280939291908181526020018383602002808284376000920191909152509295949360208101935035915050600160201b81111561077057600080fd5b82018360208201111561078257600080fd5b803590602001918460208302840111600160201b831117156107a357600080fd5b919080806020026020016040519081016040528093929190818152602001838360200280828437600092019190915250929550508235935050506020810135151590604001356001600160a01b0316611762565b34801561080357600080fd5b506109276004803603604081101561081a57600080fd5b810190602081018135600160201b81111561083457600080fd5b82018360208201111561084657600080fd5b803590602001918460208302840111600160201b8311171561086757600080fd5b9190808060200260200160405190810160405280939291908181526020018383602002808284376000920191909152509295949360208101935035915050600160201b8111156108b657600080fd5b8201836020820111156108c857600080fd5b803590602001918460208302840111600160201b831117156108e957600080fd5b91908080602002602001604051908101604052809392919081815260200183836020028082843760009201919091525092955061184d945050505050565b60408051602080825283518183015283519192839290830191858101910280838360005b8381101561096357818101518382015260200161094b565b505050509050019250505060405180910390f35b34801561098357600080fd5b506102366004803603604081101561099a57600080fd5b506001600160a01b0381351690602001356119d1565b3480156109bc57600080fd5b5061027c600480360360408110156109d357600080fd5b50803590602001356001600160a01b0316611a0c565b3480156109f557600080fd5b5061045660048036036040811015610a0c57600080fd5b50803590602001356001600160a01b0316611a18565b348015610a2e57600080fd5b5061045660048036036040811015610a4557600080fd5b50803590602001356001600160a01b0316611a9e565b348015610a6757600080fd5b5061045660048036036020811015610a7e57600080fd5b50356001600160a01b0316611b1f565b348015610a9a57600080fd5b5061045660048036036020811015610ab157600080fd5b50356001600160a01b0316611b8a565b348015610acd57600080fd5b5061045660048036036040811015610ae457600080fd5b50803590602001356001600160a01b0316611bf2565b348015610b0657600080fd5b50610b0f611c70565b604080516001600160a01b039092168252519081900360200190f35b348015610b3757600080fd5b5061045660048036036040811015610b4e57600080fd5b506001600160a01b0381351690602001351515611c7f565b348015610b7257600080fd5b5061045660048036036040811015610b8957600080fd5b5080359060200135611d39565b348015610ba257600080fd5b5061045660048036036020811015610bb957600080fd5b50356001600160a01b0316611d92565b348015610bd557600080fd5b5061045660048036036040811015610bec57600080fd5b5080359060200135611dfb565b348015610c0557600080fd5b5061027c60048036036020811015610c1c57600080fd5b5035611e4f565b348015610c2f57600080fd5b5061027c60048036036020811015610c4657600080fd5b50356001600160a01b0316611e5a565b348015610c6257600080fd5b5061045660048036036101a0811015610c7a57600080fd5b60408051606081810183526001600160a01b03853516946020810135949381013593828201359360808301359391830192916101008301919060a0840190600390839083908082843760009201919091525091949392602081019250359050600160201b811115610cea57600080fd5b820183602082011115610cfc57600080fd5b803590602001918460208302840111600160201b83111715610d1d57600080fd5b9190808060200260200160405190810160405280939291908181526020018383602002808284376000920191909152509295949360208101935035915050600160201b811115610d6c57600080fd5b820183602082011115610d7e57600080fd5b803590602001918460208302840111600160201b83111715610d9f57600080fd5b919080806020026020016040519081016040528093929190818152602001838360200280828437600092019190915250929550508235935050506020810135151590604001356001600160a01b0316611e65565b348015610dff57600080fd5b5061027c60048036036020811015610e1657600080fd5b50356001600160a01b0316611f18565b348015610e3257600080fd5b5061023660048036036060811015610e4957600080fd5b506001600160a01b038135169060208101359060400135611f23565b348015610e7157600080fd5b5061045660048036036040811015610e8857600080fd5b50803590602001356001600160a01b0316611f38565b348015610eaa57600080fd5b5061027c60048036036040811015610ec157600080fd5b506001600160a01b0381358116916020013516611fb3565b348015610ee557600080fd5b50610f0360048036036020811015610efc57600080fd5b5035611fbf565b60408051998a5260208a0198909852888801969096526060880194909452608087019290925260a08601526001600160a01b031660c0850152151560e0840152151561010083015251908190036101200190f35b610456600480360360a0811015610f6d57600080fd5b6001600160a01b03823581169260208101359091169160408201359160608101359181019060a081016080820135600160201b811115610fac57600080fd5b820183602082011115610fbe57600080fd5b803590602001918460018302840111600160201b83111715610fdf57600080fd5b50909250905061201b565b348015610ff657600080fd5b506104566004803603602081101561100d57600080fd5b50356001600160a01b0316612172565b34801561102957600080fd5b506104566004803603606081101561104057600080fd5b81359190810190604081016020820135600160201b81111561106157600080fd5b82018360208201111561107357600080fd5b803590602001918460208302840111600160201b8311171561109457600080fd5b9190808060200260200160405190810160405280939291908181526020018383602002808284376000920191909152509295949360208101935035915050600160201b8111156110e357600080fd5b8201836020820111156110f557600080fd5b803590602001918460208302840111600160201b8311171561111657600080fd5b9190808060200260200160405190810160405280939291908181526020018383602002808284376000920191909152509295506121c5945050505050565b60006001600160a01b03831661119b5760405162461bcd60e51b815260040180806020018281038252602b815260200180613c97602b913960400191505060405180910390fd5b506000818152600e602090815260408083206001600160a01b03861684526007019091529020545b92915050565b60006001600160e01b031982166301ffc9a760e01b14806111fa57506001600160e01b03198216636cdb3d1360e11b145b156112075750600161120b565b5060005b919050565b60018054604080516020600284861615610100026000190190941693909304601f81018490048402820184019092528181526060936111c3939192909183018282801561129e5780601f106112735761010080835404028352916020019161129e565b820191906000526020600020905b81548152906001019060200180831161128157829003601f168201915b50505050506112ac8461235c565b612418565b8483146112ef5760405162461bcd60e51b815260040180806020018281038252602e815260200180613e6e602e913960400191505060405180910390fd5b6001600160a01b0387166113345760405162461bcd60e51b8152600401808060200182810382526028815260200180613d086028913960400191505060405180910390fd5b6001600160a01b03881633148061135657506113508833611fb3565b15156001145b6113915760405162461bcd60e51b8152600401808060200182810382526037815260200180613e376037913960400191505060405180910390fd5b611400888888888080602002602001604051908101604052809392919081815260200183836020028082843760009201919091525050604080516020808c0282810182019093528b82529093508b92508a91829185019084908082843760009201919091525061252292505050565b866001600160a01b0316886001600160a01b0316336001600160a01b03167f4a39dc06d4c0dbc64b70af90fd698a233a518aa5d07e595d983b8c0526c8f7fb898989896040518080602001806020018381038352878782818152602001925060200280828437600083820152601f01601f19169091018481038352858152602090810191508690860280828437600083820152604051601f909101601f19169092018290039850909650505050505050a461155533898989898080602002602001604051908101604052809392919081815260200183836020028082843760009201919091525050604080516020808d0282810182019093528c82529093508c92508b91829185019084908082843760009201919091525050604080516020601f8c018190048102820181019092528a815292508a91508990819084018382808284376000920191909152506125dc92505050565b5050505050505050565b6000805460018054604080516020600284861615610100026000190190941693909304601f810184900484028201840190925281815293949392918301828280156115eb5780601f106115c0576101008083540402835291602001916115eb565b820191906000526020600020905b8154815290600101906020018083116115ce57829003601f168201915b505050600c90930154919250506001600160a01b031683565b61160c6127cd565b61164b576040805162461bcd60e51b81526020600482018190526024820152600080516020613e17833981519152604482015290519081900360640190fd5b6001600160a01b03166000908152600d60205260409020805461ff001916610100179055565b600d602052600090815260409020805460019091015460ff808316926101009004169083565b600f6020526000908152604090208054600182015460028301546003840154600485015460059095015493949293919290916001600160a01b0381169060ff600160a01b8204811691600160a81b8104821691600160b01b8204811691600160b81b8104821691600160c01b909104168b565b6117126127cd565b611751576040805162461bcd60e51b81526020600482018190526024820152600080516020613e17833981519152604482015290519081900360640190fd5b61175e600282600a613b42565b5050565b8761176d81336127de565b6117ac576040805162461bcd60e51b81526020600482015260176024820152600080516020613cc2833981519152604482015290519081900360640190fd5b6000898152600e60205260409020546117fc576040805162461bcd60e51b815260206004820152600d60248201526c2ab735b737bbb7103a37b5b2b760991b604482015290519081900360640190fd5b61180c8989898989898989612818565b6040805189815290518a917f199acc06cd2556bbc146fa3cb578799037dffcbf256eca32aaf2ef656925d2fd919081900360200190a2505050505050505050565b6060815183511461188f5760405162461bcd60e51b8152600401808060200182810382526030815260200180613d5c6030913960400191505060405180910390fd5b6060835167ffffffffffffffff811180156118a957600080fd5b506040519080825280602002602001820160405280156118d3578160200160208202803683370190505b50905060005b84518110156119c95760006001600160a01b03168582815181106118f957fe5b60200260200101516001600160a01b031614156119475760405162461bcd60e51b8152600401808060200182810382526034815260200180613dc26034913960400191505060405180910390fd5b600e600085838151811061195757fe5b60200260200101518152602001908152602001600020600701600086838151811061197e57fe5b60200260200101516001600160a01b03166001600160a01b03168152602001908152602001600020600001548282815181106119b657fe5b60209081029190910101526001016118d9565b509392505050565b6000818152600e602090815260408083206001600160a01b0386168452600701909152812060010154611a059042906129bc565b9392505050565b6000611a0583836127de565b81611a2381336127de565b611a62576040805162461bcd60e51b81526020600482015260176024820152600080516020613cc2833981519152604482015290519081900360640190fd5b506000918252600e602090815260408084206001600160a01b039093168452600790920190529020600201805462ff0000191662010000179055565b81611aa981336127de565b611ae8576040805162461bcd60e51b81526020600482015260176024820152600080516020613cc2833981519152604482015290519081900360640190fd5b506000918252600e602090815260408084206001600160a01b039093168452600790920190529020600201805462ff000019169055565b611b276127cd565b611b66576040805162461bcd60e51b81526020600482018190526024820152600080516020613e17833981519152604482015290519081900360640190fd5b6001600160a01b03166000908152600d60205260409020805460ff19166001179055565b611b926127cd565b611bd1576040805162461bcd60e51b81526020600482018190526024820152600080516020613e17833981519152604482015290519081900360640190fd5b6001600160a01b03166000908152600d60205260409020805460ff19169055565b611bfa6127cd565b611c39576040805162461bcd60e51b81526020600482018190526024820152600080516020613e17833981519152604482015290519081900360640190fd5b6000918252600e602090815260408084206001600160a01b039093168452600790920190529020600201805460ff19166001179055565b600c546001600160a01b031690565b336001600160a01b0383161415611cc75760405162461bcd60e51b815260040180806020018281038252602c815260200180613d30602c913960400191505060405180910390fd5b336000818152600d602090815260408083206001600160a01b0387168085526003909101835292819020805460ff1916861515908117909155815190815290519293927f17307eab39ab6107e8899845ad3d59bd9653f200f220920489ca2b5937696c31929181900390910190a35050565b81611d4481336127de565b611d83576040805162461bcd60e51b81526020600482015260176024820152600080516020613cc2833981519152604482015290519081900360640190fd5b611d8d83836129fe565b505050565b611d9a6127cd565b611dd9576040805162461bcd60e51b81526020600482018190526024820152600080516020613e17833981519152604482015290519081900360640190fd5b6001600160a01b03166000908152600d60205260409020805461ff0019169055565b81611e0681336127de565b611e45576040805162461bcd60e51b81526020600482015260176024820152600080516020613cc2833981519152604482015290519081900360640190fd5b611d8d8383612a54565b60006111c382612ab0565b60006111c382612acf565b611e6e33612acf565b611ead576040805162461bcd60e51b81526020600482015260176024820152600080516020613cc2833981519152604482015290519081900360640190fd5b611ec08b8b8b8b8b8b8b8b8b8b8b612af9565b604080518b8152602081018b905281516001600160a01b038e169260009233927fc3d58168c5ae7397731d063d5bbf3d657854427343f4c083240f7aacaa2d0f62929181900390910190a45050505050505050505050565b60006111c382612c62565b6000611f30848484612c85565b949350505050565b611f406127cd565b611f7f576040805162461bcd60e51b81526020600482018190526024820152600080516020613e17833981519152604482015290519081900360640190fd5b6000918252600e602090815260408084206001600160a01b039093168452600790920190529020600201805460ff19169055565b6000611a058383612e6d565b600e60205260009081526040902080546001820154600283015460038401546004850154600586015460069096015494959394929391929091906001600160a01b0381169060ff600160a01b8204811691600160a81b90041689565b6001600160a01b0385166120605760405162461bcd60e51b8152600401808060200182810382526028815260200180613d086028913960400191505060405180910390fd5b6001600160a01b038616331480612082575061207c8633611fb3565b15156001145b6120bd5760405162461bcd60e51b8152600401808060200182810382526037815260200180613e376037913960400191505060405180910390fd5b6120c986868686612eb2565b846001600160a01b0316866001600160a01b0316336001600160a01b03167fc3d58168c5ae7397731d063d5bbf3d657854427343f4c083240f7aacaa2d0f628787604051808381526020018281526020019250505060405180910390a461216a338787878787878080601f016020809104026020016040519081016040528093929190818152602001838380828437600092019190915250612f2a92505050565b505050505050565b61217a6127cd565b6121b9576040805162461bcd60e51b81526020600482018190526024820152600080516020613e17833981519152604482015290519081900360640190fd5b6121c28161309f565b50565b6121ce33612acf565b61220d576040805162461bcd60e51b81526020600482015260176024820152600080516020613cc2833981519152604482015290519081900360640190fd5b6000838152600e60205260409020541580159061222b575080518251145b612270576040805162461bcd60e51b8152602060048201526011602482015270496e76616c696420617267756d656e747360781b604482015290519081900360640190fd5b60005b8251811015612356576122ad8484838151811061228c57fe5b60200260200101518484815181106122a057fe5b6020026020010151613140565b6000848152600e6020526040812060080180549091906122c957fe5b600091825260208220015484516001600160a01b03909116919033907fc3d58168c5ae7397731d063d5bbf3d657854427343f4c083240f7aacaa2d0f629087908690811061231357fe5b6020026020010151600e60008a815260200190815260200160002060000154604051808381526020018281526020019250505060405180910390a4600101612273565b50505050565b60606000825b8015612378576001919091019060109004612362565b60608267ffffffffffffffff8111801561239157600080fd5b506040519080825280601f01601f1916602001820160405280156123bc576020820181803683370190505b50905060005b8381101561240f576010860692506123d9836132dd565b82600183870303815181106123ea57fe5b60200101906001600160f81b031916908160001a9053506010860495506001016123c2565b50949350505050565b805182516060918491849184910167ffffffffffffffff8111801561243c57600080fd5b506040519080825280601f01601f191660200182016040528015612467576020820181803683370190505b509050806000805b85518110156124c05785818151811061248457fe5b602001015160f81c60f81b8383806001019450815181106124a157fe5b60200101906001600160f81b031916908160001a90535060010161246f565b5060005b8451811015612515578481815181106124d957fe5b602001015160f81c60f81b8383806001019450815181106124f657fe5b60200101906001600160f81b031916908160001a9053506001016124c4565b5090979650505050505050565b600080341161254c576001600160a01b0385166000908152600d602052604090206001015461254e565b345b905060005b83518110156125ca576125c0612591878787858151811061257057fe5b602002602001015187868151811061258457fe5b6020026020010151613321565b60408051808201909152601081526f092dce6eaccccd2c6d2cadce8408aa8960831b602082015284919061337f565b9150600101612553565b506125d58582613416565b5050505050565b6125ee846001600160a01b0316613497565b1561216a5763bc197c8160e01b6001600160e01b031916846001600160a01b031663bc197c8188888787876040518663ffffffff1660e01b815260040180866001600160a01b03168152602001856001600160a01b03168152602001806020018060200180602001848103845287818151815260200191508051906020019060200280838360005b8381101561268e578181015183820152602001612676565b50505050905001848103835286818151815260200191508051906020019060200280838360005b838110156126cd5781810151838201526020016126b5565b50505050905001848103825285818151815260200191508051906020019080838360005b838110156127095781810151838201526020016126f1565b50505050905090810190601f1680156127365780820380516001836020036101000a031916815260200191505b5098505050505050505050602060405180830381600087803b15801561275b57600080fd5b505af115801561276f573d6000803e3d6000fd5b505050506040513d602081101561278557600080fd5b50516001600160e01b0319161461216a5760405162461bcd60e51b8152600401808060200182810382526036815260200180613d8c6036913960400191505060405180910390fd5b600c546001600160a01b0316331490565b6000828152600e602090815260408083206001600160a01b038516845260070190915281206002015460ff1680611a055750611a056127cd565b6000805b85518110156128485785818151811061283157fe5b60200260200101518201915080600101905061281c565b5060008651118015612858575060015b8015612865575080612710145b8015612872575061271084105b6128b7576040805162461bcd60e51b8152602060048201526011602482015270496e76616c696420617267756d656e747360781b604482015290519081900360640190fd5b6000898152600e60209081526040808320600581018c90558a516002808301919091558b840151600383015582518084018452428152928c015183850152600b909101805460018101825590855292909320612917939283020191613b9a565b506000898152600e60209081526040909120875161293d92600990920191890190613bd4565b506000898152600e60209081526040909120865161296392600a90920191880190613c28565b50506000978852600e602052604090972060048101929092556006909101805460ff60a01b1916600160a01b92151592909202919091176001600160a01b0319166001600160a01b039096169590951790945550505050565b6000611a0583836040518060400160405280601e81526020017f536166654d6174683a207375627472616374696f6e206f766572666c6f77000081525061337f565b6000828152600e6020908152604091829020600601805460ff60a81b191690558151838152915184927f199acc06cd2556bbc146fa3cb578799037dffcbf256eca32aaf2ef656925d2fd92908290030190a25050565b6000828152600e6020908152604091829020600601805460ff60a81b1916600160a81b1790558151838152915184927f199acc06cd2556bbc146fa3cb578799037dffcbf256eca32aaf2ef656925d2fd92908290030190a25050565b6000908152600e6020526040902060060154600160a81b900460ff1690565b6001600160a01b0381166000908152600d602052604081205460ff16806111c357506111c36127cd565b60008a8152600e6020526040902054158015612b155750600089115b612b5a576040805162461bcd60e51b8152602060048201526011602482015270496e76616c696420617267756d656e747360781b604482015290519081900360640190fd5b88600e60008c81526020019081526020016000206000018190555087600e60008c8152602001908152602001600020600101819055506001600e60008c81526020019081526020016000206007016000336001600160a01b03166001600160a01b0316815260200190815260200160002060020160006101000a81548160ff0219169083151502179055506001600e60008c815260200190815260200160002060070160008d6001600160a01b03166001600160a01b0316815260200190815260200160002060020160026101000a81548160ff021916908315150217905550612c4a8a88888888888888612818565b612c558b8b8b6134ce565b5050505050505050505050565b6001600160a01b03166000908152600d6020526040902054610100900460ff1690565b6000828152600e60205260408120600b015481904290600019015b6000868152600e60205260408120600b01805483908110612cbd57fe5b60009182526020822060029091020101546000888152600e60205260408120600b018054929350909184908110612cf057fe5b9060005260206000209060020201600160028110612d0a57fe5b01546000898152600e602090815260408083206001600160a01b038e168452600701909152812060010154919250908311612dad576000898152600e602090815260408083206001600160a01b038e168452600701909152902060010154612d82906201518090612d7c9088906129bc565b90613577565b905080612d8d575060015b612da188612d9b83856135b9565b906135b9565b86019550505050612dec565b612dbe62015180612d7c87866129bc565b905080612dc9575060015b9193508391612ddc88612d9b83856135b9565b9095019450505060001901612ca0565b506000858152600e6020526040902060010154612e0d908390600a0a613577565b6000868152600e602052604081206003015491935090612e38906305f5e10090612d7c9088906135b9565b6000878152600e6020526040902060020154909150612e6290612e5b9083613612565b8490613612565b979650505050505050565b6000612e79838361366c565b80611a055750506001600160a01b039182166000908152600d602090815260408083209390941682526003909201909152205460ff1690565b6000803411612edc576001600160a01b0385166000908152600d6020526040902060010154612ede565b345b9050612f1e612eef86868686613321565b60408051808201909152601081526f092dce6eaccccd2c6d2cadce8408aa8960831b602082015283919061337f565b90506125d58582613416565b612f3c846001600160a01b0316613497565b1561216a5763f23a6e6160e01b6001600160e01b031916846001600160a01b031663f23a6e6188888787876040518663ffffffff1660e01b815260040180866001600160a01b03168152602001856001600160a01b0316815260200184815260200183815260200180602001828103825283818151815260200191508051906020019080838360005b83811015612fdd578181015183820152602001612fc5565b50505050905090810190601f16801561300a5780820380516001836020036101000a031916815260200191505b509650505050505050602060405180830381600087803b15801561302d57600080fd5b505af1158015613041573d6000803e3d6000fd5b505050506040513d602081101561305757600080fd5b50516001600160e01b0319161461216a5760405162461bcd60e51b8152600401808060200182810382526031815260200180613e9c6031913960400191505060405180910390fd5b6001600160a01b0381166130e45760405162461bcd60e51b8152600401808060200182810382526026815260200180613ce26026913960400191505060405180910390fd5b600c546040516001600160a01b038084169216907f8be0079c531659141344cd1fd0a4f28419497f9722a3daafe3b4186f6b6457e090600090a3600c80546001600160a01b0319166001600160a01b0392909216919091179055565b6000838152600e602052604081206008018054611d8d929061315e57fe5b6000918252602080832090910154868352600e8083526040808520805460018201548351606081018552600284015481526003840154818901528c895294909652600b90910180546001600160a01b03909516968a96929592948a9490939084019291906131c857fe5b90600052602060002090600202016001600281106131e257fe5b0154905260008a8152600e60209081526040918290206009018054835181840281018401909452808452909183018282801561324757602002820191906000526020600020905b81546001600160a01b03168152600190910190602001808311613229575b50505060008d8152600e6020908152604091829020600a01805483518184028101840190945280845292945092508301828280156132a457602002820191906000526020600020905b815481526020019060010190808311613290575b50505060008e8152600e60205260409020600481015460069091015490925060ff600160a01b82041691506001600160a01b0316612af9565b600060098260ff16116132f757506030810160f81b61120b565b8160ff16600a1115801561330f5750600f8260ff1611155b156101f857506057810160f81b61120b565b600061332f85858585613753565b1561336a576040805162461bcd60e51b8152602060048201526006602482015265131bd8dad95960d21b604482015290519081900360640190fd5b6133768585858561378b565b95945050505050565b6000818484111561340e5760405162461bcd60e51b81526004018080602001828103825283818151815260200191508051906020019080838360005b838110156133d35781810151838201526020016133bb565b50505050905090810190601f1680156134005780820380516001836020036101000a031916815260200191505b509250505060405180910390fd5b505050900390565b6000341180156134265750600081115b15613472576001600160a01b0382166000908152600d60205260409020600101546134519082613612565b6001600160a01b0383166000908152600d602052604090206001015561175e565b3461175e576001600160a01b03919091166000908152600d6020526040902060010155565b6000813f7fc5d2460186f7233c927e7db2dcc703c0e500b653ca82273b7bfad8045d85a4708115801590611f305750141592915050565b6000828152600e6020526040902060060154600160a01b900460ff16158061352457506000828152600e602090815260408083206001600160a01b038716845260070190915290206002015462010000900460ff165b61356c576040805162461bcd60e51b81526020600482015260146024820152731059191c995cdcc81b9bdd08185c1c1c9bdd995960621b604482015290519081900360640190fd5b611d8d8383836138df565b6000611a0583836040518060400160405280601a81526020017f536166654d6174683a206469766973696f6e206279207a65726f000000000000815250613add565b6000826135c8575060006111c3565b828202828482816135d557fe5b0414611a055760405162461bcd60e51b8152600401808060200182810382526021815260200180613df66021913960400191505060405180910390fd5b600082820183811015611a05576040805162461bcd60e51b815260206004820152601b60248201527f536166654d6174683a206164646974696f6e206f766572666c6f770000000000604482015290519081900360640190fd5b6000805b600a811015613749576000600282600a811061368857fe5b01546001600160a01b031614613741576000600282600a81106136a757fe5b01546040805163c455279160e01b81526001600160a01b0388811660048301529151928216935090861691839163c4552791916024808301926020929190829003018186803b1580156136f957600080fd5b505afa15801561370d573d6000803e3d6000fd5b505050506040513d602081101561372357600080fd5b50516001600160a01b0316141561373f576001925050506111c3565b505b600101613670565b5060009392505050565b600061375e83612ab0565b8061376d575061376d85612c62565b8061377c575061377c84612c62565b80613376575050159392505050565b6040805180820182526014815273496e73756666696369656e742062616c616e636560601b6020808301919091526000858152600e82528381206001600160a01b0389168252600701909152918220546137e691849061337f565b6000848152600e602090815260408083206001600160a01b038a1684526007019091529020556138178484846134ce565b613822858484612c85565b905060005b6000848152600e602052604090206009015481101561240f576000848152600e6020526040812060090180548390811061385d57fe5b6000918252602080832090910154878352600e90915260408220600a0180546001600160a01b039092169350908490811061389457fe5b60009182526020909120015490506138b2612710612d7c86846135b9565b6001600160a01b039092166000908152600d60205260409020600190810180549093019092555001613827565b6000828152600e602090815260408083206001600160a01b038716845260070190915281205461390f9083613612565b6000848152600e602090815260408083206001600160a01b0389168452600701909152902054909150613a0c576000838152600e602090815260408083206001600160a01b0388168452600701909152902060020154610100900460ff166139db576001600160a01b0384166000818152600d6020908152604080832060020180546001818101835591855283852001889055878452600e83529083206008810180549283018155845282842090910180546001600160a01b0319168517905592909152600790910190525b6000838152600e602090815260408083206001600160a01b0388168452600701909152902042600190910155613aad565b6000838152600e602090815260408083206001600160a01b0388168452600701909152812060010154613a409042906129bc565b6000858152600e602090815260408083206001600160a01b038a16845260070190915281205491925090613a7a908490612d7c90856135b9565b6000868152600e602090815260408083206001600160a01b038b1684526007019091529020429190910360019091015550505b6000928352600e602090815260408085206001600160a01b03909616855260079095019052929091209190915550565b60008183613b2c5760405162461bcd60e51b81526020600482018181528351602484015283519092839260449091019190850190808383600083156133d35781810151838201526020016133bb565b506000838581613b3857fe5b0495945050505050565b82600a8101928215613b8a579160200282015b82811115613b8a57825182546001600160a01b0319166001600160a01b03909116178255602090920191600190910190613b55565b50613b96929150613c62565b5090565b8260028101928215613bc8579160200282015b82811115613bc8578251825591602001919060010190613bad565b50613b96929150613c81565b828054828255906000526020600020908101928215613b8a5791602002820182811115613b8a57825182546001600160a01b0319166001600160a01b03909116178255602090920191600190910190613b55565b828054828255906000526020600020908101928215613bc85791602002820182811115613bc8578251825591602001919060010190613bad565b5b80821115613b965780546001600160a01b0319168155600101613c63565b5b80821115613b965760008155600101613c8256fe455243313135353a2062616c616e636520717565727920666f7220746865207a65726f2061646472657373496e73756666696369656e74207065726d697373696f6e0000000000000000004f776e61626c653a206e6577206f776e657220697320746865207a65726f2061646472657373455243313135353a207461726765742061646472657373206d757374206265206e6f6e2d7a65726f455243313135353a2063616e6e6f742073657420617070726f76616c2073746174757320666f722073656c66455243313135353a206163636f756e747320616e6420494473206d75737420686176652073616d65206c656e67746873455243313135353a20676f7420756e6b6e6f776e2076616c75652066726f6d206f6e4552433131353542617463685265636569766564455243313135353a20736f6d65206164647265737320696e2062617463682062616c616e6365207175657279206973207a65726f536166654d6174683a206d756c7469706c69636174696f6e206f766572666c6f774f776e61626c653a2063616c6c6572206973206e6f7420746865206f776e6572455243313135353a206e656564206f70657261746f7220617070726f76616c20666f7220337264207061727479207472616e7366657273455243313135353a2049447320616e642076616c756573206d75737420686176652073616d65206c656e67746873455243313135353a20676f7420756e6b6e6f776e2076616c75652066726f6d206f6e455243313135355265636569766564a2646970667358221220f9fb839754f10ee60465d074ca41eae6184c8f2b4783991dddb97b6055f2290464736f6c634300070100334f776e61626c653a206e6577206f776e657220697320746865207a65726f2061646472657373",
  "immutableReferences": {},
  "source": "// SPDX-License-Identifier: GPL-3.0-or-later\npragma solidity ^0.7.1;\n\nimport './Privatizable.sol';\n\ncontract Lockable is Privatizable {\n\n\n    /****************************\n    EXTERNAL FUNCTIONS\n    *****************************/\n\n\n    /**\n     * @dev Function to lock a token.\n     * @param id The token ID\n     */\n    function lockToken(uint256 id, uint256 documentHash) external onlyMaintener(id) {\n        _lockToken(id, documentHash);\n    }\n\n    /**\n     * @dev Function to unlock a token.\n     * @param id The token ID\n     */\n    function unlockToken(uint256 id, uint256 documentHash) external onlyMaintener(id) {\n        _unlockToken(id, documentHash);\n    }\n\n    /**\n     * @dev Function to check if a token is locked.\n     * @param id The token ID\n     */\n    function isLockedToken(uint256 id) external view returns (bool){\n        return _isLockedToken(id);\n    }\n\n    /**\n     * @dev Function to lock an address.\n     * @param addr The address to lock\n     */\n    function lockAddress(address addr) external onlyOwner {\n        _users[addr].isLocked = true;\n    }\n\n    /**\n     * @dev Function to unlock an address.\n     * @param addr The address to unlock\n     */\n    function unlockAddress(address addr) external onlyOwner {\n        _users[addr].isLocked = false;\n    }\n\n    /**\n     * @dev Function to check if an address is lockec.\n     * @param addr The address to check\n     */\n    function isLockedAddress(address addr) external view returns (bool){\n        return _isLockedAddress(addr);\n    }\n\n\n    /****************************\n    INTERNAL FUNCTIONS\n    *****************************/\n\n\n    function _lockToken(uint256 id, uint256 documentHash) internal {\n        _tokens[id].locked = true;\n        emit TokenUpdated(id, documentHash);\n    }\n\n    function _unlockToken(uint256 id, uint256 documentHash) internal {\n        _tokens[id].locked = false;\n        emit TokenUpdated(id, documentHash);\n    }\n\n    function _isLockedToken(uint256 id) internal view returns (bool) {\n        return _tokens[id].locked;\n    }\n\n    function _isLockedAddress(address addr) internal view returns (bool) {\n        return _users[addr].isLocked;\n    }\n\n    function _isLockedMove(address from, address to, uint256 id, uint256 value) internal view returns (bool) {\n        return _isLockedToken(id) || _isLockedAddress(from) || _isLockedAddress(to) || (value == 0);\n    }\n\n    // override ChargeableTransfer._moveTokens\n    function _moveTokens(address from, address to, uint256 id, uint256 value) internal override returns (uint256 fees) {\n        require(!_isLockedMove(from, to, id, value), \"Locked\");\n        return super._moveTokens(from, to, id, value);\n    }\n}\n",
  "sourcePath": "/home/ouziel/Work/StashBloxContracts/contracts/lib/Lockable.sol",
  "compiler": {
    "name": "solc",
    "version": "0.7.1+commit.f4a555be.Emscripten.clang"
  },
  "schemaVersion": "3.2.3",
  "updatedAt": "2020-10-21T20:10:49.908Z",
  "devdoc": {
    "kind": "dev",
    "methods": {
      "approveHolder(uint256,address)": {
        "details": "Function to approve holder for a private token.",
        "params": {
          "holder": "The authorized address",
          "id": "the token id"
        }
      },
      "authorizeMaintener(uint256,address)": {
        "details": "Function to authorize an address to maintain a token.",
        "params": {
          "maintener": "The authorized address"
        }
      },
      "authorizeTokenizer(address)": {
        "details": "Function to authorize an address to create a token.",
        "params": {
          "tokenizer": "The authorized address"
        }
      },
      "averageAge(address,uint256)": {
        "details": "Function to get the average age of the token for the given address.",
        "params": {
          "account": "the address from where to transfer the tokens",
          "id": "The token ID"
        },
        "returns": {
          "_0": "average age in seconds"
        }
      },
      "balanceOf(address,uint256)": {
        "details": "Get the specified address' balance for token with specified ID. Attempting to query the zero account for a balance will result in a revert.",
        "params": {
          "account": "The address of the token holder",
          "id": "ID of the token"
        },
        "returns": {
          "_0": "The account's balance of the token type requested"
        }
      },
      "balanceOfBatch(address[],uint256[])": {
        "details": "Get the balance of multiple account/token pairs. If any of the query accounts is the zero account, this query will revert.",
        "params": {
          "accounts": "The addresses of the token holders",
          "ids": "IDs of the tokens"
        },
        "returns": {
          "_0": "Balances for each account and token id pair"
        }
      },
      "cloneToken(uint256,uint256[],uint256[])": {
        "details": "Function to mint tokens in batch.",
        "params": {
          "id": "Identifier of the template",
          "ids": "list of IDs of the tokens to be minted",
          "metadataHashes": "list of metadata file hashes"
        }
      },
      "createToken(address,uint256,uint256,uint256,uint256,uint256[3],address[],uint256[],uint256,bool,address)": {
        "details": "Function to mint an amount of a token with the given ID.",
        "params": {
          "feesRecipients": "list of addresses receiving transfer fees",
          "feesRecipientsPercentage": "list of percentage, each one for the corresponding feesRecipients",
          "id": "ID of the token to be minted",
          "isPrivate": "true if holder need approval",
          "legalAuthority": "address of the legal authority",
          "metadataHash": "Metadata file hash",
          "minHoldingForCallback": "minimum holding to propose a callback",
          "recipient": "The address that will own the minted tokens",
          "supply": "Amount of the token to be minted",
          "transactionFees": "transaction fees: [lumpSumFees (in WEI), valueProportionalFees (ratio of transfered amount * 10**8), storageFees (in storageCredit * 10**8)]"
        }
      },
      "isApprovedForAll(address,address)": {
        "params": {
          "account": "The account of the Tokens",
          "operator": "Address of authorized operator"
        },
        "returns": {
          "_0": "True if the operator is approved, false if not"
        }
      },
      "isLockedAddress(address)": {
        "details": "Function to check if an address is lockec.",
        "params": {
          "addr": "The address to check"
        }
      },
      "isLockedToken(uint256)": {
        "details": "Function to check if a token is locked.",
        "params": {
          "id": "The token ID"
        }
      },
      "isMaintener(uint256,address)": {
        "details": "Function to check if an address is authorized to maintain a token.",
        "params": {
          "id": "the token id",
          "maintener": "The authorized address"
        },
        "returns": {
          "_0": "true if it's a maintener address"
        }
      },
      "isTokenizer(address)": {
        "details": "Function to check if an address is authorized to create a token.",
        "params": {
          "tokenizer": "The authorized address"
        }
      },
      "lockAddress(address)": {
        "details": "Function to lock an address.",
        "params": {
          "addr": "The address to lock"
        }
      },
      "lockToken(uint256,uint256)": {
        "details": "Function to lock a token.",
        "params": {
          "id": "The token ID"
        }
      },
      "owner()": {
        "details": "Returns the address of the current owner."
      },
      "revokeHolder(uint256,address)": {
        "details": "Function to revoke holder for a private token.",
        "params": {
          "holder": "The authorized address",
          "id": "the token id"
        }
      },
      "revokeMaintener(uint256,address)": {
        "details": "Function to revoke the authorization to maintain a token.",
        "params": {
          "id": "the token id",
          "maintener": "The authorized address"
        }
      },
      "revokeTokenizer(address)": {
        "details": "Function to revoke the authorization to create a token.",
        "params": {
          "tokenizer": "The authorized address"
        }
      },
      "safeBatchTransferFrom(address,address,uint256[],uint256[],bytes)": {
        "details": "Transfers `values` amount(s) of `ids` from the `from` address to the `to` address specified. Caller must be approved to manage the tokens being transferred out of the `from` account. If `to` is a smart contract, will call `onERC1155BatchReceived` on `to` and act appropriately.",
        "params": {
          "data": "Data forwarded to `onERC1155Received` if `to` is a contract receiver",
          "from": "Source address",
          "ids": "IDs of each token type",
          "to": "Target address",
          "values": "Transfer amounts per token type"
        }
      },
      "safeTransferFrom(address,address,uint256,uint256,bytes)": {
        "details": "Transfers `value` amount of an `id` from the `from` address to the `to` address specified. Caller must be approved to manage the tokens being transferred out of the `from` account. If `to` is a smart contract, will call `onERC1155Received` on `to` and act appropriately.",
        "params": {
          "data": "Data forwarded to `onERC1155Received` if `to` is a contract receiver",
          "from": "Source address",
          "id": "ID of the token type",
          "to": "Target address",
          "value": "Transfer amount"
        }
      },
      "setApprovalForAll(address,bool)": {
        "details": "Sets or unsets the approval of a given operator. An operator is allowed to transfer all tokens of the sender on their behalf. Because an account already has operator privileges for itself, this function will revert if the account attempts to set the approval status for itself.",
        "params": {
          "approved": "representing the status of the approval to be set",
          "operator": "address to set the approval"
        }
      },
      "setProxyRegistryAddress(address[10])": {
        "details": "Function to update the operator whitelist",
        "params": {
          "proxyAddresses": "List of addresses"
        }
      },
      "supportsInterface(bytes4)": {
        "params": {
          "_interfaceID": "The interface identifier, as specified in ERC-165"
        },
        "returns": {
          "_0": "`true` if the contract implements `_interfaceID` and"
        }
      },
      "transactionFees(address,uint256,uint256)": {
        "details": "Function to get the transaction price to transfer tokens.",
        "params": {
          "account": "the address from where to transfer the tokens",
          "id": "The token ID",
          "value": "The amount to transfer"
        },
        "returns": {
          "_0": "transfer price"
        }
      },
      "transferOwnership(address)": {
        "details": "Transfers ownership of the contract to a new account (`newOwner`). Can only be called by the current owner."
      },
      "unlockAddress(address)": {
        "details": "Function to unlock an address.",
        "params": {
          "addr": "The address to unlock"
        }
      },
      "unlockToken(uint256,uint256)": {
        "details": "Function to unlock a token.",
        "params": {
          "id": "The token ID"
        }
      },
      "updateToken(uint256,uint256,uint256[3],address[],uint256[],uint256,bool,address)": {
        "details": "Function to update a token with the given ID.",
        "params": {
          "feesRecipients": "list of addresses receiving transfer fees",
          "feesRecipientsPercentage": "list of percentage, each one for the corresponding feesRecipients",
          "id": "ID of the token to be updated",
          "isPrivate": "true if holder need approval",
          "legalAuthority": "address of the legal authority",
          "metadataHash": "Metadata file hash",
          "minHoldingForCallback": "minimum holding to propose a callback",
          "transactionFees": "transaction fees: [lumpSumFees (in WEI), valueProportionalFees (ratio of transfered amount * 10**8), storageFees (in storageCredit * 10**8)]"
        }
      },
      "uri(uint256)": {
        "params": {
          "id": "Token ID"
        },
        "returns": {
          "_0": "URI string"
        }
      }
    },
    "version": 1
  },
  "userdoc": {
    "kind": "user",
    "methods": {
      "isApprovedForAll(address,address)": {
        "notice": "Queries the approval status of an operator for a given account."
      },
      "supportsInterface(bytes4)": {
        "notice": "Query if a contract implements an interface"
      }
    },
    "version": 1
  }
}