{
  "contractName": "Lockable",
  "abi": [
    {
      "anonymous": false,
      "inputs": [
        {
          "indexed": true,
          "internalType": "address",
          "name": "_owner",
          "type": "address"
        },
        {
          "indexed": true,
          "internalType": "address",
          "name": "_operator",
          "type": "address"
        },
        {
          "indexed": false,
          "internalType": "bool",
          "name": "_approved",
          "type": "bool"
        }
      ],
      "name": "ApprovalForAll",
      "type": "event"
    },
    {
      "anonymous": false,
      "inputs": [
        {
          "indexed": true,
          "internalType": "address",
          "name": "previousOwner",
          "type": "address"
        },
        {
          "indexed": true,
          "internalType": "address",
          "name": "newOwner",
          "type": "address"
        }
      ],
      "name": "OwnershipTransferred",
      "type": "event"
    },
    {
      "anonymous": false,
      "inputs": [
        {
          "indexed": true,
          "internalType": "uint256",
          "name": "_id",
          "type": "uint256"
        },
        {
          "indexed": false,
          "internalType": "uint256",
          "name": "_documentHash",
          "type": "uint256"
        }
      ],
      "name": "TokenUpdated",
      "type": "event"
    },
    {
      "anonymous": false,
      "inputs": [
        {
          "indexed": true,
          "internalType": "address",
          "name": "_operator",
          "type": "address"
        },
        {
          "indexed": true,
          "internalType": "address",
          "name": "_from",
          "type": "address"
        },
        {
          "indexed": true,
          "internalType": "address",
          "name": "_to",
          "type": "address"
        },
        {
          "indexed": false,
          "internalType": "uint256[]",
          "name": "_ids",
          "type": "uint256[]"
        },
        {
          "indexed": false,
          "internalType": "uint256[]",
          "name": "_values",
          "type": "uint256[]"
        }
      ],
      "name": "TransferBatch",
      "type": "event"
    },
    {
      "anonymous": false,
      "inputs": [
        {
          "indexed": true,
          "internalType": "address",
          "name": "_operator",
          "type": "address"
        },
        {
          "indexed": true,
          "internalType": "address",
          "name": "_from",
          "type": "address"
        },
        {
          "indexed": true,
          "internalType": "address",
          "name": "_to",
          "type": "address"
        },
        {
          "indexed": false,
          "internalType": "uint256",
          "name": "_id",
          "type": "uint256"
        },
        {
          "indexed": false,
          "internalType": "uint256",
          "name": "_value",
          "type": "uint256"
        }
      ],
      "name": "TransferSingle",
      "type": "event"
    },
    {
      "anonymous": false,
      "inputs": [
        {
          "indexed": false,
          "internalType": "string",
          "name": "_value",
          "type": "string"
        },
        {
          "indexed": true,
          "internalType": "uint256",
          "name": "_id",
          "type": "uint256"
        }
      ],
      "name": "URI",
      "type": "event"
    },
    {
      "inputs": [
        {
          "internalType": "uint256",
          "name": "",
          "type": "uint256"
        }
      ],
      "name": "_callbacks",
      "outputs": [
        {
          "internalType": "uint256",
          "name": "tokenId",
          "type": "uint256"
        },
        {
          "internalType": "uint256",
          "name": "price",
          "type": "uint256"
        },
        {
          "internalType": "uint256",
          "name": "escrowedAmount",
          "type": "uint256"
        },
        {
          "internalType": "uint256",
          "name": "callCounter",
          "type": "uint256"
        },
        {
          "internalType": "uint256",
          "name": "documentHash",
          "type": "uint256"
        },
        {
          "internalType": "address",
          "name": "caller",
          "type": "address"
        },
        {
          "internalType": "bool",
          "name": "needLegalApproval",
          "type": "bool"
        },
        {
          "internalType": "bool",
          "name": "approvedByLegal",
          "type": "bool"
        },
        {
          "internalType": "bool",
          "name": "refused",
          "type": "bool"
        },
        {
          "internalType": "bool",
          "name": "accepted",
          "type": "bool"
        },
        {
          "internalType": "bool",
          "name": "completed",
          "type": "bool"
        }
      ],
      "stateMutability": "view",
      "type": "function"
    },
    {
      "inputs": [],
      "name": "_config",
      "outputs": [
        {
          "internalType": "uint256",
          "name": "callbackAutoExecuteMaxAddresses",
          "type": "uint256"
        },
        {
          "internalType": "string",
          "name": "baseURI",
          "type": "string"
        },
        {
          "internalType": "address",
          "name": "owner",
          "type": "address"
        }
      ],
      "stateMutability": "view",
      "type": "function"
    },
    {
      "inputs": [
        {
          "internalType": "uint256",
          "name": "",
          "type": "uint256"
        }
      ],
      "name": "_tokens",
      "outputs": [
        {
          "internalType": "uint256",
          "name": "supply",
          "type": "uint256"
        },
        {
          "internalType": "uint256",
          "name": "decimals",
          "type": "uint256"
        },
        {
          "internalType": "uint256",
          "name": "lumpSumTransactionFees",
          "type": "uint256"
        },
        {
          "internalType": "uint256",
          "name": "valueTransactionFees",
          "type": "uint256"
        },
        {
          "internalType": "uint256",
          "name": "minHoldingForCallback",
          "type": "uint256"
        },
        {
          "internalType": "uint256",
          "name": "metadataHash",
          "type": "uint256"
        },
        {
          "internalType": "address",
          "name": "legalAuthority",
          "type": "address"
        },
        {
          "internalType": "bool",
          "name": "isPrivate",
          "type": "bool"
        },
        {
          "internalType": "bool",
          "name": "locked",
          "type": "bool"
        }
      ],
      "stateMutability": "view",
      "type": "function"
    },
    {
      "inputs": [
        {
          "internalType": "address",
          "name": "",
          "type": "address"
        }
      ],
      "name": "_users",
      "outputs": [
        {
          "internalType": "bool",
          "name": "isTokenizer",
          "type": "bool"
        },
        {
          "internalType": "bool",
          "name": "isLocked",
          "type": "bool"
        },
        {
          "internalType": "uint256",
          "name": "ETHBalance",
          "type": "uint256"
        }
      ],
      "stateMutability": "view",
      "type": "function"
    },
    {
      "inputs": [
        {
          "internalType": "uint256",
          "name": "id",
          "type": "uint256"
        },
        {
          "internalType": "address",
          "name": "holder",
          "type": "address"
        }
      ],
      "name": "approveHolder",
      "outputs": [],
      "stateMutability": "nonpayable",
      "type": "function"
    },
    {
      "inputs": [
        {
          "internalType": "uint256",
          "name": "id",
          "type": "uint256"
        },
        {
          "internalType": "address",
          "name": "maintener",
          "type": "address"
        }
      ],
      "name": "authorizeMaintener",
      "outputs": [],
      "stateMutability": "nonpayable",
      "type": "function"
    },
    {
      "inputs": [
        {
          "internalType": "address",
          "name": "tokenizer",
          "type": "address"
        }
      ],
      "name": "authorizeTokenizer",
      "outputs": [],
      "stateMutability": "nonpayable",
      "type": "function"
    },
    {
      "inputs": [
        {
          "internalType": "address",
          "name": "account",
          "type": "address"
        },
        {
          "internalType": "uint256",
          "name": "id",
          "type": "uint256"
        }
      ],
      "name": "averageAge",
      "outputs": [
        {
          "internalType": "uint256",
          "name": "",
          "type": "uint256"
        }
      ],
      "stateMutability": "view",
      "type": "function"
    },
    {
      "inputs": [
        {
          "internalType": "address",
          "name": "account",
          "type": "address"
        },
        {
          "internalType": "uint256",
          "name": "id",
          "type": "uint256"
        }
      ],
      "name": "balanceOf",
      "outputs": [
        {
          "internalType": "uint256",
          "name": "",
          "type": "uint256"
        }
      ],
      "stateMutability": "view",
      "type": "function"
    },
    {
      "inputs": [
        {
          "internalType": "address[]",
          "name": "accounts",
          "type": "address[]"
        },
        {
          "internalType": "uint256[]",
          "name": "ids",
          "type": "uint256[]"
        }
      ],
      "name": "balanceOfBatch",
      "outputs": [
        {
          "internalType": "uint256[]",
          "name": "",
          "type": "uint256[]"
        }
      ],
      "stateMutability": "view",
      "type": "function"
    },
    {
      "inputs": [
        {
          "internalType": "uint256",
          "name": "id",
          "type": "uint256"
        },
        {
          "internalType": "uint256[]",
          "name": "ids",
          "type": "uint256[]"
        },
        {
          "internalType": "uint256[]",
          "name": "metadataHashes",
          "type": "uint256[]"
        }
      ],
      "name": "cloneToken",
      "outputs": [],
      "stateMutability": "nonpayable",
      "type": "function"
    },
    {
      "inputs": [
        {
          "internalType": "address",
          "name": "recipient",
          "type": "address"
        },
        {
          "internalType": "uint256",
          "name": "id",
          "type": "uint256"
        },
        {
          "internalType": "uint256",
          "name": "supply",
          "type": "uint256"
        },
        {
          "internalType": "uint256",
          "name": "decimals",
          "type": "uint256"
        },
        {
          "internalType": "uint256",
          "name": "metadataHash",
          "type": "uint256"
        },
        {
          "internalType": "uint256[3]",
          "name": "transactionFees",
          "type": "uint256[3]"
        },
        {
          "internalType": "address[]",
          "name": "feesRecipients",
          "type": "address[]"
        },
        {
          "internalType": "uint256[]",
          "name": "feesRecipientsPercentage",
          "type": "uint256[]"
        },
        {
          "internalType": "uint256",
          "name": "minHoldingForCallback",
          "type": "uint256"
        },
        {
          "internalType": "bool",
          "name": "isPrivate",
          "type": "bool"
        },
        {
          "internalType": "address",
          "name": "legalAuthority",
          "type": "address"
        }
      ],
      "name": "createToken",
      "outputs": [],
      "stateMutability": "nonpayable",
      "type": "function"
    },
    {
      "inputs": [
        {
          "internalType": "address",
          "name": "account",
          "type": "address"
        },
        {
          "internalType": "address",
          "name": "operator",
          "type": "address"
        }
      ],
      "name": "isApprovedForAll",
      "outputs": [
        {
          "internalType": "bool",
          "name": "",
          "type": "bool"
        }
      ],
      "stateMutability": "view",
      "type": "function"
    },
    {
      "inputs": [
        {
          "internalType": "uint256",
          "name": "id",
          "type": "uint256"
        },
        {
          "internalType": "address",
          "name": "maintener",
          "type": "address"
        }
      ],
      "name": "isMaintener",
      "outputs": [
        {
          "internalType": "bool",
          "name": "",
          "type": "bool"
        }
      ],
      "stateMutability": "view",
      "type": "function"
    },
    {
      "inputs": [
        {
          "internalType": "address",
          "name": "tokenizer",
          "type": "address"
        }
      ],
      "name": "isTokenizer",
      "outputs": [
        {
          "internalType": "bool",
          "name": "",
          "type": "bool"
        }
      ],
      "stateMutability": "view",
      "type": "function"
    },
    {
      "inputs": [
        {
          "internalType": "address",
          "name": "forwarder",
          "type": "address"
        }
      ],
      "name": "isTrustedForwarder",
      "outputs": [
        {
          "internalType": "bool",
          "name": "",
          "type": "bool"
        }
      ],
      "stateMutability": "view",
      "type": "function"
    },
    {
      "inputs": [],
      "name": "owner",
      "outputs": [
        {
          "internalType": "address",
          "name": "",
          "type": "address"
        }
      ],
      "stateMutability": "view",
      "type": "function"
    },
    {
      "inputs": [
        {
          "internalType": "uint256",
          "name": "id",
          "type": "uint256"
        },
        {
          "internalType": "address",
          "name": "holder",
          "type": "address"
        }
      ],
      "name": "revokeHolder",
      "outputs": [],
      "stateMutability": "nonpayable",
      "type": "function"
    },
    {
      "inputs": [
        {
          "internalType": "uint256",
          "name": "id",
          "type": "uint256"
        },
        {
          "internalType": "address",
          "name": "maintener",
          "type": "address"
        }
      ],
      "name": "revokeMaintener",
      "outputs": [],
      "stateMutability": "nonpayable",
      "type": "function"
    },
    {
      "inputs": [
        {
          "internalType": "address",
          "name": "tokenizer",
          "type": "address"
        }
      ],
      "name": "revokeTokenizer",
      "outputs": [],
      "stateMutability": "nonpayable",
      "type": "function"
    },
    {
      "inputs": [
        {
          "internalType": "address",
          "name": "from",
          "type": "address"
        },
        {
          "internalType": "address",
          "name": "to",
          "type": "address"
        },
        {
          "internalType": "uint256[]",
          "name": "ids",
          "type": "uint256[]"
        },
        {
          "internalType": "uint256[]",
          "name": "values",
          "type": "uint256[]"
        },
        {
          "internalType": "bytes",
          "name": "data",
          "type": "bytes"
        }
      ],
      "name": "safeBatchTransferFrom",
      "outputs": [],
      "stateMutability": "payable",
      "type": "function"
    },
    {
      "inputs": [
        {
          "internalType": "address",
          "name": "from",
          "type": "address"
        },
        {
          "internalType": "address",
          "name": "to",
          "type": "address"
        },
        {
          "internalType": "uint256",
          "name": "id",
          "type": "uint256"
        },
        {
          "internalType": "uint256",
          "name": "value",
          "type": "uint256"
        },
        {
          "internalType": "bytes",
          "name": "data",
          "type": "bytes"
        }
      ],
      "name": "safeTransferFrom",
      "outputs": [],
      "stateMutability": "payable",
      "type": "function"
    },
    {
      "inputs": [
        {
          "internalType": "address",
          "name": "operator",
          "type": "address"
        },
        {
          "internalType": "bool",
          "name": "approved",
          "type": "bool"
        }
      ],
      "name": "setApprovalForAll",
      "outputs": [],
      "stateMutability": "nonpayable",
      "type": "function"
    },
    {
      "inputs": [
        {
          "internalType": "address[10]",
          "name": "proxyAddresses",
          "type": "address[10]"
        }
      ],
      "name": "setProxyRegistryAddress",
      "outputs": [],
      "stateMutability": "nonpayable",
      "type": "function"
    },
    {
      "inputs": [
        {
          "internalType": "bytes4",
          "name": "_interfaceID",
          "type": "bytes4"
        }
      ],
      "name": "supportsInterface",
      "outputs": [
        {
          "internalType": "bool",
          "name": "",
          "type": "bool"
        }
      ],
      "stateMutability": "pure",
      "type": "function"
    },
    {
      "inputs": [
        {
          "internalType": "address",
          "name": "account",
          "type": "address"
        },
        {
          "internalType": "uint256",
          "name": "id",
          "type": "uint256"
        },
        {
          "internalType": "uint256",
          "name": "value",
          "type": "uint256"
        }
      ],
      "name": "transactionFees",
      "outputs": [
        {
          "internalType": "uint256",
          "name": "",
          "type": "uint256"
        }
      ],
      "stateMutability": "view",
      "type": "function"
    },
    {
      "inputs": [
        {
          "internalType": "address",
          "name": "newOwner",
          "type": "address"
        }
      ],
      "name": "transferOwnership",
      "outputs": [],
      "stateMutability": "nonpayable",
      "type": "function"
    },
    {
      "inputs": [],
      "name": "trustedForwarder",
      "outputs": [
        {
          "internalType": "address",
          "name": "",
          "type": "address"
        }
      ],
      "stateMutability": "view",
      "type": "function"
    },
    {
      "inputs": [
        {
          "internalType": "uint256",
          "name": "id",
          "type": "uint256"
        },
        {
          "internalType": "uint256",
          "name": "metadataHash",
          "type": "uint256"
        },
        {
          "internalType": "uint256[3]",
          "name": "transactionFees",
          "type": "uint256[3]"
        },
        {
          "internalType": "address[]",
          "name": "feesRecipients",
          "type": "address[]"
        },
        {
          "internalType": "uint256[]",
          "name": "feesRecipientsPercentage",
          "type": "uint256[]"
        },
        {
          "internalType": "uint256",
          "name": "minHoldingForCallback",
          "type": "uint256"
        },
        {
          "internalType": "bool",
          "name": "isPrivate",
          "type": "bool"
        },
        {
          "internalType": "address",
          "name": "legalAuthority",
          "type": "address"
        }
      ],
      "name": "updateToken",
      "outputs": [],
      "stateMutability": "nonpayable",
      "type": "function"
    },
    {
      "inputs": [
        {
          "internalType": "uint256",
          "name": "id",
          "type": "uint256"
        }
      ],
      "name": "uri",
      "outputs": [
        {
          "internalType": "string",
          "name": "",
          "type": "string"
        }
      ],
      "stateMutability": "view",
      "type": "function"
    },
    {
      "inputs": [],
      "name": "versionRecipient",
      "outputs": [
        {
          "internalType": "string",
          "name": "",
          "type": "string"
        }
      ],
      "stateMutability": "view",
      "type": "function"
    },
    {
      "inputs": [
        {
          "internalType": "uint256",
          "name": "id",
          "type": "uint256"
        },
        {
          "internalType": "uint256",
          "name": "documentHash",
          "type": "uint256"
        }
      ],
      "name": "lockToken",
      "outputs": [],
      "stateMutability": "nonpayable",
      "type": "function"
    },
    {
      "inputs": [
        {
          "internalType": "uint256",
          "name": "id",
          "type": "uint256"
        },
        {
          "internalType": "uint256",
          "name": "documentHash",
          "type": "uint256"
        }
      ],
      "name": "unlockToken",
      "outputs": [],
      "stateMutability": "nonpayable",
      "type": "function"
    },
    {
      "inputs": [
        {
          "internalType": "uint256",
          "name": "id",
          "type": "uint256"
        }
      ],
      "name": "isLockedToken",
      "outputs": [
        {
          "internalType": "bool",
          "name": "",
          "type": "bool"
        }
      ],
      "stateMutability": "view",
      "type": "function"
    },
    {
      "inputs": [
        {
          "internalType": "address",
          "name": "addr",
          "type": "address"
        }
      ],
      "name": "lockAddress",
      "outputs": [],
      "stateMutability": "nonpayable",
      "type": "function"
    },
    {
      "inputs": [
        {
          "internalType": "address",
          "name": "addr",
          "type": "address"
        }
      ],
      "name": "unlockAddress",
      "outputs": [],
      "stateMutability": "nonpayable",
      "type": "function"
    },
    {
      "inputs": [
        {
          "internalType": "address",
          "name": "addr",
          "type": "address"
        }
      ],
      "name": "isLockedAddress",
      "outputs": [
        {
          "internalType": "bool",
          "name": "",
          "type": "bool"
        }
      ],
      "stateMutability": "view",
      "type": "function"
    }
  ],
  "bytecode": "0x60c0604052601760808190527f312e302e302b6f70656e67736e2e7374617368626c6f7800000000000000000060a090815262000040916001919062000170565b503480156200004e57600080fd5b50620000636200005d62000069565b6200009f565b6200020c565b60006018361080159062000083575062000083336200015c565b1562000099575060131936013560601c6200009c565b50335b90565b6001600160a01b03811662000100576040517f08c379a00000000000000000000000000000000000000000000000000000000081526004018080602001828103825260268152602001806200432c6026913960400191505060405180910390fd5b600e546040516001600160a01b038084169216907f8be0079c531659141344cd1fd0a4f28419497f9722a3daafe3b4186f6b6457e090600090a3600e80546001600160a01b0319166001600160a01b0392909216919091179055565b6000546001600160a01b0390811691161490565b828054600181600116156101000203166002900490600052602060002090601f016020900481019282601f10620001b357805160ff1916838001178555620001e3565b82800160010185558215620001e3579182015b82811115620001e3578251825591602001919060010190620001c6565b50620001f1929150620001f5565b5090565b5b80821115620001f15760008155600101620001f6565b614110806200021c6000396000f3fe6080604052600436106102195760003560e01c80637da0a87711610123578063c02f303c116100ab578063e985e9c51161006f578063e985e9c514610f1c578063ed70554d14610f57578063f242432a14610fd5578063f2fde38b14611068578063f8a5a07c1461109b57610219565b8063c02f303c14610ca1578063c40b87ae14610cd4578063cba54e6014610e71578063d1660e1814610ea4578063d41d0aa314610ee357610219565b8063a22cb465116100f2578063a22cb46514610ba9578063aba7fe8a14610be4578063b7eb5e0a14610c14578063baa3411014610c47578063bba75c8314610c7757610219565b80637da0a87714610af75780638870147b14610b285780638aeba37e14610b5b5780638da5cb5b14610b9457610219565b8063486ff0cd116101a6578063585941d511610175578063585941d5146109e05780635dafec1b14610a195780635dd2b9a614610a52578063759c521414610a8b5780637627b73214610ac457610219565b8063486ff0cd146106965780634ab0d253146106ab5780634e1273f41461082d578063572b6c05146109ad57610219565b80632ed42bf7116101ed5780632ed42bf71461047957806334a90d021461051d5780633cacd7d614610550578063414ed0ce146105a35780634392e5771461063557610219565b8062fdd58e1461021e57806301ffc9a7146102695780630e89341c146102b15780632eb2c2d614610350575b600080fd5b34801561022a57600080fd5b506102576004803603604081101561024157600080fd5b506001600160a01b0381351690602001356111d2565b60408051918252519081900360200190f35b34801561027557600080fd5b5061029d6004803603602081101561028c57600080fd5b50356001600160e01b031916611247565b604080519115158252519081900360200190f35b3480156102bd57600080fd5b506102db600480360360208110156102d457600080fd5b503561128e565b6040805160208082528351818301528351919283929083019185019080838360005b838110156103155781810151838201526020016102fd565b50505050905090810190601f1680156103425780820380516001836020036101000a031916815260200191505b509250505060405180910390f35b610477600480360360a081101561036657600080fd5b6001600160a01b038235811692602081013590911691810190606081016040820135600160201b81111561039957600080fd5b8201836020820111156103ab57600080fd5b803590602001918460208302840111600160201b831117156103cc57600080fd5b919390929091602081019035600160201b8111156103e957600080fd5b8201836020820111156103fb57600080fd5b803590602001918460208302840111600160201b8311171561041c57600080fd5b919390929091602081019035600160201b81111561043957600080fd5b82018360208201111561044b57600080fd5b803590602001918460018302840111600160201b8311171561046c57600080fd5b509092509050611330565b005b34801561048557600080fd5b5061048e611603565b6040518084815260200180602001836001600160a01b03168152602001828103825284818151815260200191508051906020019080838360005b838110156104e05781810151838201526020016104c8565b50505050905090810190601f16801561050d5780820380516001836020036101000a031916815260200191505b5094505050505060405180910390f35b34801561052957600080fd5b506104776004803603602081101561054057600080fd5b50356001600160a01b03166116a6565b34801561055c57600080fd5b506105836004803603602081101561057357600080fd5b50356001600160a01b0316611713565b604080519315158452911515602084015282820152519081900360600190f35b3480156105af57600080fd5b506105cd600480360360208110156105c657600080fd5b5035611739565b604080519b8c5260208c019a909a528a8a019890985260608a019690965260808901949094526001600160a01b0390921660a0880152151560c0870152151560e086015215156101008501521515610120840152151561014083015251908190036101600190f35b34801561064157600080fd5b50610477600480360361014081101561065957600080fd5b81019080806101400190600a806020026040519081016040528092919082600a602002808284376000920191909152509194506117ac9350505050565b3480156106a257600080fd5b506102db611804565b3480156106b757600080fd5b5061047760048036036101408110156106cf57600080fd5b6040805160608181018352843594602081013594810193909260a08401929091840190600390839083908082843760009201919091525091949392602081019250359050600160201b81111561072457600080fd5b82018360208201111561073657600080fd5b803590602001918460208302840111600160201b8311171561075757600080fd5b9190808060200260200160405190810160405280939291908181526020018383602002808284376000920191909152509295949360208101935035915050600160201b8111156107a657600080fd5b8201836020820111156107b857600080fd5b803590602001918460208302840111600160201b831117156107d957600080fd5b919080806020026020016040519081016040528093929190818152602001838360200280828437600092019190915250929550508235935050506020810135151590604001356001600160a01b0316611891565b34801561083957600080fd5b5061095d6004803603604081101561085057600080fd5b810190602081018135600160201b81111561086a57600080fd5b82018360208201111561087c57600080fd5b803590602001918460208302840111600160201b8311171561089d57600080fd5b9190808060200260200160405190810160405280939291908181526020018383602002808284376000920191909152509295949360208101935035915050600160201b8111156108ec57600080fd5b8201836020820111156108fe57600080fd5b803590602001918460208302840111600160201b8311171561091f57600080fd5b919080806020026020016040519081016040528093929190818152602001838360200280828437600092019190915250929550611983945050505050565b60408051602080825283518183015283519192839290830191858101910280838360005b83811015610999578181015183820152602001610981565b505050509050019250505060405180910390f35b3480156109b957600080fd5b5061029d600480360360208110156109d057600080fd5b50356001600160a01b0316611b07565b3480156109ec57600080fd5b5061025760048036036040811015610a0357600080fd5b506001600160a01b038135169060200135611b1b565b348015610a2557600080fd5b5061029d60048036036040811015610a3c57600080fd5b50803590602001356001600160a01b0316611b56565b348015610a5e57600080fd5b5061047760048036036040811015610a7557600080fd5b50803590602001356001600160a01b0316611b62565b348015610a9757600080fd5b5061047760048036036040811015610aae57600080fd5b50803590602001356001600160a01b0316611bea565b348015610ad057600080fd5b5061047760048036036020811015610ae757600080fd5b50356001600160a01b0316611c6d565b348015610b0357600080fd5b50610b0c611cd8565b604080516001600160a01b039092168252519081900360200190f35b348015610b3457600080fd5b5061047760048036036020811015610b4b57600080fd5b50356001600160a01b0316611ce7565b348015610b6757600080fd5b5061047760048036036040811015610b7e57600080fd5b50803590602001356001600160a01b0316611d4f565b348015610ba057600080fd5b50610b0c611dcd565b348015610bb557600080fd5b5061047760048036036040811015610bcc57600080fd5b506001600160a01b0381351690602001351515611ddd565b348015610bf057600080fd5b5061047760048036036040811015610c0757600080fd5b5080359060200135611ed0565b348015610c2057600080fd5b5061047760048036036020811015610c3757600080fd5b50356001600160a01b0316611f2b565b348015610c5357600080fd5b5061047760048036036040811015610c6a57600080fd5b5080359060200135611f94565b348015610c8357600080fd5b5061029d60048036036020811015610c9a57600080fd5b5035611fea565b348015610cad57600080fd5b5061029d60048036036020811015610cc457600080fd5b50356001600160a01b0316611ff5565b348015610ce057600080fd5b5061047760048036036101a0811015610cf857600080fd5b60408051606081810183526001600160a01b03853516946020810135949381013593828201359360808301359391830192916101008301919060a0840190600390839083908082843760009201919091525091949392602081019250359050600160201b811115610d6857600080fd5b820183602082011115610d7a57600080fd5b803590602001918460208302840111600160201b83111715610d9b57600080fd5b9190808060200260200160405190810160405280939291908181526020018383602002808284376000920191909152509295949360208101935035915050600160201b811115610dea57600080fd5b820183602082011115610dfc57600080fd5b803590602001918460208302840111600160201b83111715610e1d57600080fd5b919080806020026020016040519081016040528093929190818152602001838360200280828437600092019190915250929550508235935050506020810135151590604001356001600160a01b0316612000565b348015610e7d57600080fd5b5061029d60048036036020811015610e9457600080fd5b50356001600160a01b03166120cb565b348015610eb057600080fd5b5061025760048036036060811015610ec757600080fd5b506001600160a01b0381351690602081013590604001356120d6565b348015610eef57600080fd5b5061047760048036036040811015610f0657600080fd5b50803590602001356001600160a01b03166120eb565b348015610f2857600080fd5b5061029d60048036036040811015610f3f57600080fd5b506001600160a01b0381358116916020013516612166565b348015610f6357600080fd5b50610f8160048036036020811015610f7a57600080fd5b5035612172565b60408051998a5260208a0198909852888801969096526060880194909452608087019290925260a08601526001600160a01b031660c0850152151560e0840152151561010083015251908190036101200190f35b610477600480360360a0811015610feb57600080fd5b6001600160a01b03823581169260208101359091169160408201359160608101359181019060a081016080820135600160201b81111561102a57600080fd5b82018360208201111561103c57600080fd5b803590602001918460018302840111600160201b8311171561105d57600080fd5b5090925090506121ce565b34801561107457600080fd5b506104776004803603602081101561108b57600080fd5b50356001600160a01b0316612345565b3480156110a757600080fd5b50610477600480360360608110156110be57600080fd5b81359190810190604081016020820135600160201b8111156110df57600080fd5b8201836020820111156110f157600080fd5b803590602001918460208302840111600160201b8311171561111257600080fd5b9190808060200260200160405190810160405280939291908181526020018383602002808284376000920191909152509295949360208101935035915050600160201b81111561116157600080fd5b82018360208201111561117357600080fd5b803590602001918460208302840111600160201b8311171561119457600080fd5b919080806020026020016040519081016040528093929190818152602001838360200280828437600092019190915250929550612398945050505050565b60006001600160a01b0383166112195760405162461bcd60e51b815260040180806020018281038252602b815260200180613ea5602b913960400191505060405180910390fd5b5060008181526010602090815260408083206001600160a01b03861684526007019091529020545b92915050565b60006001600160e01b031982166301ffc9a760e01b148061127857506001600160e01b03198216636cdb3d1360e11b145b1561128557506001611289565b5060005b919050565b6003805460408051602060026001851615610100026000190190941693909304601f8101849004840282018401909252818152606093611241939192909183018282801561131d5780601f106112f25761010080835404028352916020019161131d565b820191906000526020600020905b81548152906001019060200180831161130057829003601f168201915b505050505061132b8461253a565b6125f6565b84831461136e5760405162461bcd60e51b815260040180806020018281038252602e81526020018061407c602e913960400191505060405180910390fd5b6001600160a01b0387166113b35760405162461bcd60e51b8152600401808060200182810382526028815260200180613f166028913960400191505060405180910390fd5b6113bb612700565b6001600160a01b0316886001600160a01b031614806113ec57506113e6886113e1612700565b612166565b15156001145b6114275760405162461bcd60e51b81526004018080602001828103825260378152602001806140456037913960400191505060405180910390fd5b611496888888888080602002602001604051908101604052809392919081815260200183836020028082843760009201919091525050604080516020808c0282810182019093528b82529093508b92508a91829185019084908082843760009201919091525061273292505050565b866001600160a01b0316886001600160a01b03166114b2612700565b6001600160a01b03167f4a39dc06d4c0dbc64b70af90fd698a233a518aa5d07e595d983b8c0526c8f7fb898989896040518080602001806020018381038352878782818152602001925060200280828437600083820152601f01601f19169091018481038352858152602090810191508690860280828437600083820152604051601f909101601f19169092018290039850909650505050505050a46115f9611559612700565b898989898080602002602001604051908101604052809392919081815260200183836020028082843760009201919091525050604080516020808d0282810182019093528c82529093508c92508b91829185019084908082843760009201919091525050604080516020601f8c018190048102820181019092528a815292508a91508990819084018382808284376000920191909152506127ec92505050565b5050505050505050565b600280546003805460408051602060018416156101000260001901909316869004601f8101849004840282018401909252818152939493929183018282801561168d5780601f106116625761010080835404028352916020019161168d565b820191906000526020600020905b81548152906001019060200180831161167057829003601f168201915b505050600c90930154919250506001600160a01b031683565b6116ae6129dd565b6116ed576040805162461bcd60e51b81526020600482018190526024820152600080516020614025833981519152604482015290519081900360640190fd5b6001600160a01b03166000908152600f60205260409020805461ff001916610100179055565b600f602052600090815260409020805460019091015460ff808316926101009004169083565b60116020526000908152604090208054600182015460028301546003840154600485015460059095015493949293919290916001600160a01b0381169060ff600160a01b8204811691600160a81b8104821691600160b01b8204811691600160b81b8104821691600160c01b909104168b565b6117b46129dd565b6117f3576040805162461bcd60e51b81526020600482018190526024820152600080516020614025833981519152604482015290519081900360640190fd5b611800600482600a613d50565b5050565b60018054604080516020600284861615610100026000190190941693909304601f810184900484028201840190925281815292918301828280156118895780601f1061185e57610100808354040283529160200191611889565b820191906000526020600020905b81548152906001019060200180831161186c57829003601f168201915b505050505081565b876118a38161189e612700565b612a03565b6118e2576040805162461bcd60e51b81526020600482015260176024820152600080516020613ed0833981519152604482015290519081900360640190fd5b600089815260106020526040902054611932576040805162461bcd60e51b815260206004820152600d60248201526c2ab735b737bbb7103a37b5b2b760991b604482015290519081900360640190fd5b6119428989898989898989612a3d565b6040805189815290518a917f199acc06cd2556bbc146fa3cb578799037dffcbf256eca32aaf2ef656925d2fd919081900360200190a2505050505050505050565b606081518351146119c55760405162461bcd60e51b8152600401808060200182810382526030815260200180613f6a6030913960400191505060405180910390fd5b6060835167ffffffffffffffff811180156119df57600080fd5b50604051908082528060200260200182016040528015611a09578160200160208202803683370190505b50905060005b8451811015611aff5760006001600160a01b0316858281518110611a2f57fe5b60200260200101516001600160a01b03161415611a7d5760405162461bcd60e51b8152600401808060200182810382526034815260200180613fd06034913960400191505060405180910390fd5b60106000858381518110611a8d57fe5b602002602001015181526020019081526020016000206007016000868381518110611ab457fe5b60200260200101516001600160a01b03166001600160a01b0316815260200190815260200160002060000154828281518110611aec57fe5b6020908102919091010152600101611a0f565b509392505050565b6000546001600160a01b0390811691161490565b60008181526010602090815260408083206001600160a01b0386168452600701909152812060010154611b4f904290612be1565b9392505050565b6000611b4f8383612a03565b81611b6f8161189e612700565b611bae576040805162461bcd60e51b81526020600482015260176024820152600080516020613ed0833981519152604482015290519081900360640190fd5b5060009182526010602090815260408084206001600160a01b039093168452600790920190529020600201805462ff0000191662010000179055565b81611bf78161189e612700565b611c36576040805162461bcd60e51b81526020600482015260176024820152600080516020613ed0833981519152604482015290519081900360640190fd5b5060009182526010602090815260408084206001600160a01b039093168452600790920190529020600201805462ff000019169055565b611c756129dd565b611cb4576040805162461bcd60e51b81526020600482018190526024820152600080516020614025833981519152604482015290519081900360640190fd5b6001600160a01b03166000908152600f60205260409020805460ff19166001179055565b6000546001600160a01b031681565b611cef6129dd565b611d2e576040805162461bcd60e51b81526020600482018190526024820152600080516020614025833981519152604482015290519081900360640190fd5b6001600160a01b03166000908152600f60205260409020805460ff19169055565b611d576129dd565b611d96576040805162461bcd60e51b81526020600482018190526024820152600080516020614025833981519152604482015290519081900360640190fd5b60009182526010602090815260408084206001600160a01b039093168452600790920190529020600201805460ff19166001179055565b600e546001600160a01b03165b90565b816001600160a01b0316611def612700565b6001600160a01b03161415611e355760405162461bcd60e51b815260040180806020018281038252602c815260200180613f3e602c913960400191505060405180910390fd5b80600f6000611e42612700565b6001600160a01b0390811682526020808301939093526040918201600090812091871680825260039092019093529120805460ff191692151592909217909155611e8a612700565b6001600160a01b03167f17307eab39ab6107e8899845ad3d59bd9653f200f220920489ca2b5937696c318360405180821515815260200191505060405180910390a35050565b81611edd8161189e612700565b611f1c576040805162461bcd60e51b81526020600482015260176024820152600080516020613ed0833981519152604482015290519081900360640190fd5b611f268383612c23565b505050565b611f336129dd565b611f72576040805162461bcd60e51b81526020600482018190526024820152600080516020614025833981519152604482015290519081900360640190fd5b6001600160a01b03166000908152600f60205260409020805461ff0019169055565b81611fa18161189e612700565b611fe0576040805162461bcd60e51b81526020600482015260176024820152600080516020613ed0833981519152604482015290519081900360640190fd5b611f268383612c79565b600061124182612cd5565b600061124182612cf4565b61201061200b612700565b612cf4565b61204f576040805162461bcd60e51b81526020600482015260176024820152600080516020613ed0833981519152604482015290519081900360640190fd5b6120628b8b8b8b8b8b8b8b8b8b8b612d1e565b6001600160a01b038b166000612076612700565b6001600160a01b03167fc3d58168c5ae7397731d063d5bbf3d657854427343f4c083240f7aacaa2d0f628d8d604051808381526020018281526020019250505060405180910390a45050505050505050505050565b600061124182612e5e565b60006120e3848484612e81565b949350505050565b6120f36129dd565b612132576040805162461bcd60e51b81526020600482018190526024820152600080516020614025833981519152604482015290519081900360640190fd5b60009182526010602090815260408084206001600160a01b039093168452600790920190529020600201805460ff19169055565b6000611b4f8383613069565b601060205260009081526040902080546001820154600283015460038401546004850154600586015460069096015494959394929391929091906001600160a01b0381169060ff600160a01b8204811691600160a81b90041689565b6001600160a01b0385166122135760405162461bcd60e51b8152600401808060200182810382526028815260200180613f166028913960400191505060405180910390fd5b61221b612700565b6001600160a01b0316866001600160a01b031614806122475750612241866113e1612700565b15156001145b6122825760405162461bcd60e51b81526004018080602001828103825260378152602001806140456037913960400191505060405180910390fd5b61228e868686866130ae565b846001600160a01b0316866001600160a01b03166122aa612700565b6001600160a01b03167fc3d58168c5ae7397731d063d5bbf3d657854427343f4c083240f7aacaa2d0f628787604051808381526020018281526020019250505060405180910390a461233d6122fd612700565b8787878787878080601f01602080910402602001604051908101604052809392919081815260200183838082843760009201919091525061312692505050565b505050505050565b61234d6129dd565b61238c576040805162461bcd60e51b81526020600482018190526024820152600080516020614025833981519152604482015290519081900360640190fd5b6123958161329b565b50565b6123a361200b612700565b6123e2576040805162461bcd60e51b81526020600482015260176024820152600080516020613ed0833981519152604482015290519081900360640190fd5b60008381526010602052604090205415801590612400575080518251145b612445576040805162461bcd60e51b8152602060048201526011602482015270496e76616c696420617267756d656e747360781b604482015290519081900360640190fd5b60005b8251811015612534576124828484838151811061246157fe5b602002602001015184848151811061247557fe5b602002602001015161333c565b6000848152601060205260408120600801805490919061249e57fe5b60009182526020822001546001600160a01b0316906124bb612700565b6001600160a01b03167fc3d58168c5ae7397731d063d5bbf3d657854427343f4c083240f7aacaa2d0f628685815181106124f157fe5b6020026020010151601060008a815260200190815260200160002060000154604051808381526020018281526020019250505060405180910390a4600101612448565b50505050565b60606000825b8015612556576001919091019060109004612540565b60608267ffffffffffffffff8111801561256f57600080fd5b506040519080825280601f01601f19166020018201604052801561259a576020820181803683370190505b50905060005b838110156125ed576010860692506125b7836134d9565b82600183870303815181106125c857fe5b60200101906001600160f81b031916908160001a9053506010860495506001016125a0565b50949350505050565b805182516060918491849184910167ffffffffffffffff8111801561261a57600080fd5b506040519080825280601f01601f191660200182016040528015612645576020820181803683370190505b509050806000805b855181101561269e5785818151811061266257fe5b602001015160f81c60f81b83838060010194508151811061267f57fe5b60200101906001600160f81b031916908160001a90535060010161264d565b5060005b84518110156126f3578481815181106126b757fe5b602001015160f81c60f81b8383806001019450815181106126d457fe5b60200101906001600160f81b031916908160001a9053506001016126a2565b5090979650505050505050565b600060183610801590612717575061271733611b07565b1561272b575060131936013560601c611dda565b5033611dda565b600080341161275c576001600160a01b0385166000908152600f602052604090206001015461275e565b345b905060005b83518110156127da576127d06127a1878787858151811061278057fe5b602002602001015187868151811061279457fe5b602002602001015161351d565b60408051808201909152601081526f092dce6eaccccd2c6d2cadce8408aa8960831b602082015284919061357b565b9150600101612763565b506127e58582613612565b5050505050565b6127fe846001600160a01b0316613693565b1561233d5763bc197c8160e01b6001600160e01b031916846001600160a01b031663bc197c8188888787876040518663ffffffff1660e01b815260040180866001600160a01b03168152602001856001600160a01b03168152602001806020018060200180602001848103845287818151815260200191508051906020019060200280838360005b8381101561289e578181015183820152602001612886565b50505050905001848103835286818151815260200191508051906020019060200280838360005b838110156128dd5781810151838201526020016128c5565b50505050905001848103825285818151815260200191508051906020019080838360005b83811015612919578181015183820152602001612901565b50505050905090810190601f1680156129465780820380516001836020036101000a031916815260200191505b5098505050505050505050602060405180830381600087803b15801561296b57600080fd5b505af115801561297f573d6000803e3d6000fd5b505050506040513d602081101561299557600080fd5b50516001600160e01b0319161461233d5760405162461bcd60e51b8152600401808060200182810382526036815260200180613f9a6036913960400191505060405180910390fd5b600e546000906001600160a01b03166129f4612700565b6001600160a01b031614905090565b60008281526010602090815260408083206001600160a01b038516845260070190915281206002015460ff1680611b4f5750611b4f6129dd565b6000805b8551811015612a6d57858181518110612a5657fe5b602002602001015182019150806001019050612a41565b5060008651118015612a7d575060015b8015612a8a575080612710145b8015612a97575061271084105b612adc576040805162461bcd60e51b8152602060048201526011602482015270496e76616c696420617267756d656e747360781b604482015290519081900360640190fd5b6000898152601060209081526040808320600581018c90558a516002808301919091558b840151600383015582518084018452428152928c015183850152600b909101805460018101825590855292909320612b3c939283020191613da8565b5060008981526010602090815260409091208751612b6292600990920191890190613de2565b5060008981526010602090815260409091208651612b8892600a90920191880190613e36565b505060009788526010602052604090972060048101929092556006909101805460ff60a01b1916600160a01b92151592909202919091176001600160a01b0319166001600160a01b039096169590951790945550505050565b6000611b4f83836040518060400160405280601e81526020017f536166654d6174683a207375627472616374696f6e206f766572666c6f77000081525061357b565b600082815260106020908152604091829020600601805460ff60a81b191690558151838152915184927f199acc06cd2556bbc146fa3cb578799037dffcbf256eca32aaf2ef656925d2fd92908290030190a25050565b600082815260106020908152604091829020600601805460ff60a81b1916600160a81b1790558151838152915184927f199acc06cd2556bbc146fa3cb578799037dffcbf256eca32aaf2ef656925d2fd92908290030190a25050565b600090815260106020526040902060060154600160a81b900460ff1690565b6001600160a01b0381166000908152600f602052604081205460ff168061124157506112416129dd565b60008a815260106020526040902054158015612d3a5750600089115b612d7f576040805162461bcd60e51b8152602060048201526011602482015270496e76616c696420617267756d656e747360781b604482015290519081900360640190fd5b60008a81526010602052604081208a815560018082018b905591600790910190612da7612700565b6001600160a01b03166001600160a01b0316815260200190815260200160002060020160006101000a81548160ff0219169083151502179055506001601060008c815260200190815260200160002060070160008d6001600160a01b03166001600160a01b0316815260200190815260200160002060020160026101000a81548160ff021916908315150217905550612e468a88888888888888612a3d565b612e518b8b8b6136ca565b5050505050505050505050565b6001600160a01b03166000908152600f6020526040902054610100900460ff1690565b6000828152601060205260408120600b015481904290600019015b6000868152601060205260408120600b01805483908110612eb957fe5b60009182526020822060029091020101546000888152601060205260408120600b018054929350909184908110612eec57fe5b9060005260206000209060020201600160028110612f0657fe5b015460008981526010602090815260408083206001600160a01b038e168452600701909152812060010154919250908311612fa95760008981526010602090815260408083206001600160a01b038e168452600701909152902060010154612f7e906201518090612f78908890612be1565b90613773565b905080612f89575060015b612f9d88612f9783856137b5565b906137b5565b86019550505050612fe8565b612fba62015180612f788786612be1565b905080612fc5575060015b9193508391612fd888612f9783856137b5565b9095019450505060001901612e9c565b50600085815260106020526040902060010154613009908390600a0a613773565b60008681526010602052604081206003015491935090613034906305f5e10090612f789088906137b5565b60008781526010602052604090206002015490915061305e90613057908361380e565b849061380e565b979650505050505050565b60006130758383613868565b80611b4f5750506001600160a01b039182166000908152600f602090815260408083209390941682526003909201909152205460ff1690565b60008034116130d8576001600160a01b0385166000908152600f60205260409020600101546130da565b345b905061311a6130eb8686868661351d565b60408051808201909152601081526f092dce6eaccccd2c6d2cadce8408aa8960831b602082015283919061357b565b90506127e58582613612565b613138846001600160a01b0316613693565b1561233d5763f23a6e6160e01b6001600160e01b031916846001600160a01b031663f23a6e6188888787876040518663ffffffff1660e01b815260040180866001600160a01b03168152602001856001600160a01b0316815260200184815260200183815260200180602001828103825283818151815260200191508051906020019080838360005b838110156131d95781810151838201526020016131c1565b50505050905090810190601f1680156132065780820380516001836020036101000a031916815260200191505b509650505050505050602060405180830381600087803b15801561322957600080fd5b505af115801561323d573d6000803e3d6000fd5b505050506040513d602081101561325357600080fd5b50516001600160e01b0319161461233d5760405162461bcd60e51b81526004018080602001828103825260318152602001806140aa6031913960400191505060405180910390fd5b6001600160a01b0381166132e05760405162461bcd60e51b8152600401808060200182810382526026815260200180613ef06026913960400191505060405180910390fd5b600e546040516001600160a01b038084169216907f8be0079c531659141344cd1fd0a4f28419497f9722a3daafe3b4186f6b6457e090600090a3600e80546001600160a01b0319166001600160a01b0392909216919091179055565b60008381526010602052604081206008018054611f26929061335a57fe5b600091825260208083209091015486835260108083526040808520805460018201548351606081018552600284015481526003840154818901528c895294909652600b90910180546001600160a01b03909516968a96929592948a9490939084019291906133c457fe5b90600052602060002090600202016001600281106133de57fe5b0154905260008a8152601060209081526040918290206009018054835181840281018401909452808452909183018282801561344357602002820191906000526020600020905b81546001600160a01b03168152600190910190602001808311613425575b50505060008d815260106020908152604091829020600a01805483518184028101840190945280845292945092508301828280156134a057602002820191906000526020600020905b81548152602001906001019080831161348c575b50505060008e8152601060205260409020600481015460069091015490925060ff600160a01b82041691506001600160a01b0316612d1e565b600060098260ff16116134f357506030810160f81b611289565b8160ff16600a1115801561350b5750600f8260ff1611155b1561021957506057810160f81b611289565b600061352b8585858561394f565b15613566576040805162461bcd60e51b8152602060048201526006602482015265131bd8dad95960d21b604482015290519081900360640190fd5b61357285858585613987565b95945050505050565b6000818484111561360a5760405162461bcd60e51b81526004018080602001828103825283818151815260200191508051906020019080838360005b838110156135cf5781810151838201526020016135b7565b50505050905090810190601f1680156135fc5780820380516001836020036101000a031916815260200191505b509250505060405180910390fd5b505050900390565b6000341180156136225750600081115b1561366e576001600160a01b0382166000908152600f602052604090206001015461364d908261380e565b6001600160a01b0383166000908152600f6020526040902060010155611800565b34611800576001600160a01b03919091166000908152600f6020526040902060010155565b6000813f7fc5d2460186f7233c927e7db2dcc703c0e500b653ca82273b7bfad8045d85a47081158015906120e35750141592915050565b600082815260106020526040902060060154600160a01b900460ff161580613720575060008281526010602090815260408083206001600160a01b038716845260070190915290206002015462010000900460ff165b613768576040805162461bcd60e51b81526020600482015260146024820152731059191c995cdcc81b9bdd08185c1c1c9bdd995960621b604482015290519081900360640190fd5b611f26838383613adb565b6000611b4f83836040518060400160405280601a81526020017f536166654d6174683a206469766973696f6e206279207a65726f000000000000815250613ceb565b6000826137c457506000611241565b828202828482816137d157fe5b0414611b4f5760405162461bcd60e51b81526004018080602001828103825260218152602001806140046021913960400191505060405180910390fd5b600082820183811015611b4f576040805162461bcd60e51b815260206004820152601b60248201527f536166654d6174683a206164646974696f6e206f766572666c6f770000000000604482015290519081900360640190fd5b6000805b600a811015613945576000600482600a811061388457fe5b01546001600160a01b03161461393d576000600482600a81106138a357fe5b01546040805163c455279160e01b81526001600160a01b0388811660048301529151928216935090861691839163c4552791916024808301926020929190829003018186803b1580156138f557600080fd5b505afa158015613909573d6000803e3d6000fd5b505050506040513d602081101561391f57600080fd5b50516001600160a01b0316141561393b57600192505050611241565b505b60010161386c565b5060009392505050565b600061395a83612cd5565b80613969575061396985612e5e565b80613978575061397884612e5e565b80613572575050159392505050565b6040805180820182526014815273496e73756666696369656e742062616c616e636560601b6020808301919091526000858152601082528381206001600160a01b0389168252600701909152918220546139e291849061357b565b60008481526010602090815260408083206001600160a01b038a168452600701909152902055613a138484846136ca565b613a1e858484612e81565b905060005b6000848152601060205260409020600901548110156125ed576000848152601060205260408120600901805483908110613a5957fe5b6000918252602080832090910154878352601090915260408220600a0180546001600160a01b0390921693509084908110613a9057fe5b6000918252602090912001549050613aae612710612f7886846137b5565b6001600160a01b039092166000908152600f60205260409020600190810180549093019092555001613a23565b60008281526010602090815260408083206001600160a01b0387168452600701909152812054613b0b908361380e565b60008481526010602090815260408083206001600160a01b0389168452600701909152902054909150613c1a5760008381526010602090815260408083206001600160a01b0388168452600701909152902060020154610100900460ff16613be9576001600160a01b0384166000818152600f60209081526040808320600290810180546001818101835591865284862001899055888552601084528285206008810180549283018155865284862090910180546001600160a01b031916871790559484526007909401909152902001805461ff0019166101001790555b60008381526010602090815260408083206001600160a01b0388168452600701909152902042600190910155613cbb565b60008381526010602090815260408083206001600160a01b0388168452600701909152812060010154613c4e904290612be1565b60008581526010602090815260408083206001600160a01b038a16845260070190915281205491925090613c88908490612f7890856137b5565b60008681526010602090815260408083206001600160a01b038b1684526007019091529020429190910360019091015550505b60009283526010602090815260408085206001600160a01b03909616855260079095019052929091209190915550565b60008183613d3a5760405162461bcd60e51b81526020600482018181528351602484015283519092839260449091019190850190808383600083156135cf5781810151838201526020016135b7565b506000838581613d4657fe5b0495945050505050565b82600a8101928215613d98579160200282015b82811115613d9857825182546001600160a01b0319166001600160a01b03909116178255602090920191600190910190613d63565b50613da4929150613e70565b5090565b8260028101928215613dd6579160200282015b82811115613dd6578251825591602001919060010190613dbb565b50613da4929150613e8f565b828054828255906000526020600020908101928215613d985791602002820182811115613d9857825182546001600160a01b0319166001600160a01b03909116178255602090920191600190910190613d63565b828054828255906000526020600020908101928215613dd65791602002820182811115613dd6578251825591602001919060010190613dbb565b5b80821115613da45780546001600160a01b0319168155600101613e71565b5b80821115613da45760008155600101613e9056fe455243313135353a2062616c616e636520717565727920666f7220746865207a65726f2061646472657373496e73756666696369656e74207065726d697373696f6e0000000000000000004f776e61626c653a206e6577206f776e657220697320746865207a65726f2061646472657373455243313135353a207461726765742061646472657373206d757374206265206e6f6e2d7a65726f455243313135353a2063616e6e6f742073657420617070726f76616c2073746174757320666f722073656c66455243313135353a206163636f756e747320616e6420494473206d75737420686176652073616d65206c656e67746873455243313135353a20676f7420756e6b6e6f776e2076616c75652066726f6d206f6e4552433131353542617463685265636569766564455243313135353a20736f6d65206164647265737320696e2062617463682062616c616e6365207175657279206973207a65726f536166654d6174683a206d756c7469706c69636174696f6e206f766572666c6f774f776e61626c653a2063616c6c6572206973206e6f7420746865206f776e6572455243313135353a206e656564206f70657261746f7220617070726f76616c20666f7220337264207061727479207472616e7366657273455243313135353a2049447320616e642076616c756573206d75737420686176652073616d65206c656e67746873455243313135353a20676f7420756e6b6e6f776e2076616c75652066726f6d206f6e455243313135355265636569766564a26469706673582212202f6abcfcad872fd0d95693a2c21cb9dec719e5f6f18cd5ff9fbce0757008249364736f6c634300070100334f776e61626c653a206e6577206f776e657220697320746865207a65726f2061646472657373",
  "immutableReferences": {},
  "source": "// SPDX-License-Identifier: GPL-3.0-or-later\npragma solidity ^0.7.1;\n\nimport './Privatizable.sol';\n\ncontract Lockable is Privatizable {\n\n\n    /****************************\n    EXTERNAL FUNCTIONS\n    *****************************/\n\n\n    /**\n     * @dev Function to lock a token.\n     * @param id The token ID\n     */\n    function lockToken(uint256 id, uint256 documentHash) external onlyMaintener(id) {\n        _lockToken(id, documentHash);\n    }\n\n    /**\n     * @dev Function to unlock a token.\n     * @param id The token ID\n     */\n    function unlockToken(uint256 id, uint256 documentHash) external onlyMaintener(id) {\n        _unlockToken(id, documentHash);\n    }\n\n    /**\n     * @dev Function to check if a token is locked.\n     * @param id The token ID\n     */\n    function isLockedToken(uint256 id) external view returns (bool){\n        return _isLockedToken(id);\n    }\n\n    /**\n     * @dev Function to lock an address.\n     * @param addr The address to lock\n     */\n    function lockAddress(address addr) external onlyOwner {\n        _users[addr].isLocked = true;\n    }\n\n    /**\n     * @dev Function to unlock an address.\n     * @param addr The address to unlock\n     */\n    function unlockAddress(address addr) external onlyOwner {\n        _users[addr].isLocked = false;\n    }\n\n    /**\n     * @dev Function to check if an address is lockec.\n     * @param addr The address to check\n     */\n    function isLockedAddress(address addr) external view returns (bool){\n        return _isLockedAddress(addr);\n    }\n\n\n    /****************************\n    INTERNAL FUNCTIONS\n    *****************************/\n\n\n    function _lockToken(uint256 id, uint256 documentHash) internal {\n        _tokens[id].locked = true;\n        emit TokenUpdated(id, documentHash);\n    }\n\n    function _unlockToken(uint256 id, uint256 documentHash) internal {\n        _tokens[id].locked = false;\n        emit TokenUpdated(id, documentHash);\n    }\n\n    function _isLockedToken(uint256 id) internal view returns (bool) {\n        return _tokens[id].locked;\n    }\n\n    function _isLockedAddress(address addr) internal view returns (bool) {\n        return _users[addr].isLocked;\n    }\n\n    function _isLockedMove(address from, address to, uint256 id, uint256 value) internal view returns (bool) {\n        return _isLockedToken(id) || _isLockedAddress(from) || _isLockedAddress(to) || (value == 0);\n    }\n\n    // override ChargeableTransfer._moveTokens\n    function _moveTokens(address from, address to, uint256 id, uint256 value) internal override returns (uint256 fees) {\n        require(!_isLockedMove(from, to, id, value), \"Locked\");\n        return super._moveTokens(from, to, id, value);\n    }\n}\n",
  "sourcePath": "/home/ouziel/Work/StashBloxContracts/contracts/lib/Lockable.sol",
  "compiler": {
    "name": "solc",
    "version": "0.7.1+commit.f4a555be.Emscripten.clang"
  },
  "schemaVersion": "3.2.3",
  "updatedAt": "2020-10-22T09:28:25.247Z",
  "devdoc": {
    "kind": "dev",
    "methods": {
      "approveHolder(uint256,address)": {
        "details": "Function to approve holder for a private token.",
        "params": {
          "holder": "The authorized address",
          "id": "the token id"
        }
      },
      "authorizeMaintener(uint256,address)": {
        "details": "Function to authorize an address to maintain a token.",
        "params": {
          "maintener": "The authorized address"
        }
      },
      "authorizeTokenizer(address)": {
        "details": "Function to authorize an address to create a token.",
        "params": {
          "tokenizer": "The authorized address"
        }
      },
      "averageAge(address,uint256)": {
        "details": "Function to get the average age of the token for the given address.",
        "params": {
          "account": "the address from where to transfer the tokens",
          "id": "The token ID"
        },
        "returns": {
          "_0": "average age in seconds"
        }
      },
      "balanceOf(address,uint256)": {
        "details": "Get the specified address' balance for token with specified ID. Attempting to query the zero account for a balance will result in a revert.",
        "params": {
          "account": "The address of the token holder",
          "id": "ID of the token"
        },
        "returns": {
          "_0": "The account's balance of the token type requested"
        }
      },
      "balanceOfBatch(address[],uint256[])": {
        "details": "Get the balance of multiple account/token pairs. If any of the query accounts is the zero account, this query will revert.",
        "params": {
          "accounts": "The addresses of the token holders",
          "ids": "IDs of the tokens"
        },
        "returns": {
          "_0": "Balances for each account and token id pair"
        }
      },
      "cloneToken(uint256,uint256[],uint256[])": {
        "details": "Function to mint tokens in batch.",
        "params": {
          "id": "Identifier of the template",
          "ids": "list of IDs of the tokens to be minted",
          "metadataHashes": "list of metadata file hashes"
        }
      },
      "createToken(address,uint256,uint256,uint256,uint256,uint256[3],address[],uint256[],uint256,bool,address)": {
        "details": "Function to mint an amount of a token with the given ID.",
        "params": {
          "feesRecipients": "list of addresses receiving transfer fees",
          "feesRecipientsPercentage": "list of percentage, each one for the corresponding feesRecipients",
          "id": "ID of the token to be minted",
          "isPrivate": "true if holder need approval",
          "legalAuthority": "address of the legal authority",
          "metadataHash": "Metadata file hash",
          "minHoldingForCallback": "minimum holding to propose a callback",
          "recipient": "The address that will own the minted tokens",
          "supply": "Amount of the token to be minted",
          "transactionFees": "transaction fees: [lumpSumFees (in WEI), valueProportionalFees (ratio of transfered amount * 10**8), storageFees (in storageCredit * 10**8)]"
        }
      },
      "isApprovedForAll(address,address)": {
        "params": {
          "account": "The account of the Tokens",
          "operator": "Address of authorized operator"
        },
        "returns": {
          "_0": "True if the operator is approved, false if not"
        }
      },
      "isLockedAddress(address)": {
        "details": "Function to check if an address is lockec.",
        "params": {
          "addr": "The address to check"
        }
      },
      "isLockedToken(uint256)": {
        "details": "Function to check if a token is locked.",
        "params": {
          "id": "The token ID"
        }
      },
      "isMaintener(uint256,address)": {
        "details": "Function to check if an address is authorized to maintain a token.",
        "params": {
          "id": "the token id",
          "maintener": "The authorized address"
        },
        "returns": {
          "_0": "true if it's a maintener address"
        }
      },
      "isTokenizer(address)": {
        "details": "Function to check if an address is authorized to create a token.",
        "params": {
          "tokenizer": "The authorized address"
        }
      },
      "lockAddress(address)": {
        "details": "Function to lock an address.",
        "params": {
          "addr": "The address to lock"
        }
      },
      "lockToken(uint256,uint256)": {
        "details": "Function to lock a token.",
        "params": {
          "id": "The token ID"
        }
      },
      "owner()": {
        "details": "Returns the address of the current owner."
      },
      "revokeHolder(uint256,address)": {
        "details": "Function to revoke holder for a private token.",
        "params": {
          "holder": "The authorized address",
          "id": "the token id"
        }
      },
      "revokeMaintener(uint256,address)": {
        "details": "Function to revoke the authorization to maintain a token.",
        "params": {
          "id": "the token id",
          "maintener": "The authorized address"
        }
      },
      "revokeTokenizer(address)": {
        "details": "Function to revoke the authorization to create a token.",
        "params": {
          "tokenizer": "The authorized address"
        }
      },
      "safeBatchTransferFrom(address,address,uint256[],uint256[],bytes)": {
        "details": "Transfers `values` amount(s) of `ids` from the `from` address to the `to` address specified. Caller must be approved to manage the tokens being transferred out of the `from` account. If `to` is a smart contract, will call `onERC1155BatchReceived` on `to` and act appropriately.",
        "params": {
          "data": "Data forwarded to `onERC1155Received` if `to` is a contract receiver",
          "from": "Source address",
          "ids": "IDs of each token type",
          "to": "Target address",
          "values": "Transfer amounts per token type"
        }
      },
      "safeTransferFrom(address,address,uint256,uint256,bytes)": {
        "details": "Transfers `value` amount of an `id` from the `from` address to the `to` address specified. Caller must be approved to manage the tokens being transferred out of the `from` account. If `to` is a smart contract, will call `onERC1155Received` on `to` and act appropriately.",
        "params": {
          "data": "Data forwarded to `onERC1155Received` if `to` is a contract receiver",
          "from": "Source address",
          "id": "ID of the token type",
          "to": "Target address",
          "value": "Transfer amount"
        }
      },
      "setApprovalForAll(address,bool)": {
        "details": "Sets or unsets the approval of a given operator. An operator is allowed to transfer all tokens of the sender on their behalf. Because an account already has operator privileges for itself, this function will revert if the account attempts to set the approval status for itself.",
        "params": {
          "approved": "representing the status of the approval to be set",
          "operator": "address to set the approval"
        }
      },
      "setProxyRegistryAddress(address[10])": {
        "details": "Function to update the operator whitelist",
        "params": {
          "proxyAddresses": "List of addresses"
        }
      },
      "supportsInterface(bytes4)": {
        "params": {
          "_interfaceID": "The interface identifier, as specified in ERC-165"
        },
        "returns": {
          "_0": "`true` if the contract implements `_interfaceID` and"
        }
      },
      "transactionFees(address,uint256,uint256)": {
        "details": "Function to get the transaction price to transfer tokens.",
        "params": {
          "account": "the address from where to transfer the tokens",
          "id": "The token ID",
          "value": "The amount to transfer"
        },
        "returns": {
          "_0": "transfer price"
        }
      },
      "transferOwnership(address)": {
        "details": "Transfers ownership of the contract to a new account (`newOwner`). Can only be called by the current owner."
      },
      "unlockAddress(address)": {
        "details": "Function to unlock an address.",
        "params": {
          "addr": "The address to unlock"
        }
      },
      "unlockToken(uint256,uint256)": {
        "details": "Function to unlock a token.",
        "params": {
          "id": "The token ID"
        }
      },
      "updateToken(uint256,uint256,uint256[3],address[],uint256[],uint256,bool,address)": {
        "details": "Function to update a token with the given ID.",
        "params": {
          "feesRecipients": "list of addresses receiving transfer fees",
          "feesRecipientsPercentage": "list of percentage, each one for the corresponding feesRecipients",
          "id": "ID of the token to be updated",
          "isPrivate": "true if holder need approval",
          "legalAuthority": "address of the legal authority",
          "metadataHash": "Metadata file hash",
          "minHoldingForCallback": "minimum holding to propose a callback",
          "transactionFees": "transaction fees: [lumpSumFees (in WEI), valueProportionalFees (ratio of transfered amount * 10**8), storageFees (in storageCredit * 10**8)]"
        }
      },
      "uri(uint256)": {
        "params": {
          "id": "Token ID"
        },
        "returns": {
          "_0": "URI string"
        }
      }
    },
    "version": 1
  },
  "userdoc": {
    "kind": "user",
    "methods": {
      "isApprovedForAll(address,address)": {
        "notice": "Queries the approval status of an operator for a given account."
      },
      "isTrustedForwarder(address)": {
        "notice": "return if the forwarder is trusted to forward relayed transactions to us. the forwarder is required to verify the sender's signature, and verify the call is not a replay."
      },
      "supportsInterface(bytes4)": {
        "notice": "Query if a contract implements an interface"
      }
    },
    "version": 1
  }
}