{
  "contractName": "Lockable",
  "abi": [
    {
      "anonymous": false,
      "inputs": [
        {
          "indexed": true,
          "internalType": "address",
          "name": "_owner",
          "type": "address"
        },
        {
          "indexed": true,
          "internalType": "address",
          "name": "_operator",
          "type": "address"
        },
        {
          "indexed": false,
          "internalType": "bool",
          "name": "_approved",
          "type": "bool"
        }
      ],
      "name": "ApprovalForAll",
      "type": "event"
    },
    {
      "anonymous": false,
      "inputs": [
        {
          "indexed": true,
          "internalType": "address",
          "name": "previousOwner",
          "type": "address"
        },
        {
          "indexed": true,
          "internalType": "address",
          "name": "newOwner",
          "type": "address"
        }
      ],
      "name": "OwnershipTransferred",
      "type": "event"
    },
    {
      "anonymous": false,
      "inputs": [
        {
          "indexed": true,
          "internalType": "uint256",
          "name": "_id",
          "type": "uint256"
        },
        {
          "indexed": false,
          "internalType": "uint256",
          "name": "_documentHash",
          "type": "uint256"
        }
      ],
      "name": "TokenUpdated",
      "type": "event"
    },
    {
      "anonymous": false,
      "inputs": [
        {
          "indexed": true,
          "internalType": "address",
          "name": "_operator",
          "type": "address"
        },
        {
          "indexed": true,
          "internalType": "address",
          "name": "_from",
          "type": "address"
        },
        {
          "indexed": true,
          "internalType": "address",
          "name": "_to",
          "type": "address"
        },
        {
          "indexed": false,
          "internalType": "uint256[]",
          "name": "_ids",
          "type": "uint256[]"
        },
        {
          "indexed": false,
          "internalType": "uint256[]",
          "name": "_values",
          "type": "uint256[]"
        }
      ],
      "name": "TransferBatch",
      "type": "event"
    },
    {
      "anonymous": false,
      "inputs": [
        {
          "indexed": true,
          "internalType": "address",
          "name": "_operator",
          "type": "address"
        },
        {
          "indexed": true,
          "internalType": "address",
          "name": "_from",
          "type": "address"
        },
        {
          "indexed": true,
          "internalType": "address",
          "name": "_to",
          "type": "address"
        },
        {
          "indexed": false,
          "internalType": "uint256",
          "name": "_id",
          "type": "uint256"
        },
        {
          "indexed": false,
          "internalType": "uint256",
          "name": "_value",
          "type": "uint256"
        }
      ],
      "name": "TransferSingle",
      "type": "event"
    },
    {
      "anonymous": false,
      "inputs": [
        {
          "indexed": false,
          "internalType": "string",
          "name": "_value",
          "type": "string"
        },
        {
          "indexed": true,
          "internalType": "uint256",
          "name": "_id",
          "type": "uint256"
        }
      ],
      "name": "URI",
      "type": "event"
    },
    {
      "inputs": [
        {
          "internalType": "uint256",
          "name": "",
          "type": "uint256"
        }
      ],
      "name": "_callbacks",
      "outputs": [
        {
          "internalType": "uint256",
          "name": "tokenId",
          "type": "uint256"
        },
        {
          "internalType": "uint256",
          "name": "price",
          "type": "uint256"
        },
        {
          "internalType": "uint256",
          "name": "escrowedAmount",
          "type": "uint256"
        },
        {
          "internalType": "uint256",
          "name": "callCounter",
          "type": "uint256"
        },
        {
          "internalType": "uint256",
          "name": "documentHash",
          "type": "uint256"
        },
        {
          "internalType": "address",
          "name": "caller",
          "type": "address"
        },
        {
          "internalType": "bool",
          "name": "needLegalApproval",
          "type": "bool"
        },
        {
          "internalType": "bool",
          "name": "approvedByLegal",
          "type": "bool"
        },
        {
          "internalType": "bool",
          "name": "refused",
          "type": "bool"
        },
        {
          "internalType": "bool",
          "name": "accepted",
          "type": "bool"
        },
        {
          "internalType": "bool",
          "name": "completed",
          "type": "bool"
        }
      ],
      "stateMutability": "view",
      "type": "function"
    },
    {
      "inputs": [],
      "name": "_config",
      "outputs": [
        {
          "internalType": "uint256",
          "name": "callbackAutoExecuteMaxAddresses",
          "type": "uint256"
        },
        {
          "internalType": "string",
          "name": "baseURI",
          "type": "string"
        },
        {
          "internalType": "address",
          "name": "owner",
          "type": "address"
        }
      ],
      "stateMutability": "view",
      "type": "function"
    },
    {
      "inputs": [
        {
          "internalType": "uint256",
          "name": "",
          "type": "uint256"
        }
      ],
      "name": "_tokens",
      "outputs": [
        {
          "internalType": "uint256",
          "name": "supply",
          "type": "uint256"
        },
        {
          "internalType": "uint256",
          "name": "decimals",
          "type": "uint256"
        },
        {
          "internalType": "uint256",
          "name": "lumpSumTransactionFees",
          "type": "uint256"
        },
        {
          "internalType": "uint256",
          "name": "valueTransactionFees",
          "type": "uint256"
        },
        {
          "internalType": "uint256",
          "name": "minHoldingForCallback",
          "type": "uint256"
        },
        {
          "internalType": "uint256",
          "name": "metadataHash",
          "type": "uint256"
        },
        {
          "internalType": "address",
          "name": "legalAuthority",
          "type": "address"
        },
        {
          "internalType": "bool",
          "name": "isPrivate",
          "type": "bool"
        },
        {
          "internalType": "bool",
          "name": "locked",
          "type": "bool"
        }
      ],
      "stateMutability": "view",
      "type": "function"
    },
    {
      "inputs": [
        {
          "internalType": "address",
          "name": "",
          "type": "address"
        }
      ],
      "name": "_users",
      "outputs": [
        {
          "internalType": "bool",
          "name": "isTokenizer",
          "type": "bool"
        },
        {
          "internalType": "bool",
          "name": "isLocked",
          "type": "bool"
        },
        {
          "internalType": "uint256",
          "name": "ETHBalance",
          "type": "uint256"
        }
      ],
      "stateMutability": "view",
      "type": "function"
    },
    {
      "inputs": [
        {
          "internalType": "uint256",
          "name": "id",
          "type": "uint256"
        },
        {
          "internalType": "address",
          "name": "holder",
          "type": "address"
        }
      ],
      "name": "approveHolder",
      "outputs": [],
      "stateMutability": "nonpayable",
      "type": "function"
    },
    {
      "inputs": [
        {
          "internalType": "uint256",
          "name": "id",
          "type": "uint256"
        },
        {
          "internalType": "address",
          "name": "maintener",
          "type": "address"
        }
      ],
      "name": "authorizeMaintener",
      "outputs": [],
      "stateMutability": "nonpayable",
      "type": "function"
    },
    {
      "inputs": [
        {
          "internalType": "address",
          "name": "tokenizer",
          "type": "address"
        }
      ],
      "name": "authorizeTokenizer",
      "outputs": [],
      "stateMutability": "nonpayable",
      "type": "function"
    },
    {
      "inputs": [
        {
          "internalType": "address",
          "name": "account",
          "type": "address"
        },
        {
          "internalType": "uint256",
          "name": "id",
          "type": "uint256"
        }
      ],
      "name": "averageAge",
      "outputs": [
        {
          "internalType": "uint256",
          "name": "",
          "type": "uint256"
        }
      ],
      "stateMutability": "view",
      "type": "function"
    },
    {
      "inputs": [
        {
          "internalType": "address",
          "name": "account",
          "type": "address"
        },
        {
          "internalType": "uint256",
          "name": "id",
          "type": "uint256"
        }
      ],
      "name": "balanceOf",
      "outputs": [
        {
          "internalType": "uint256",
          "name": "",
          "type": "uint256"
        }
      ],
      "stateMutability": "view",
      "type": "function"
    },
    {
      "inputs": [
        {
          "internalType": "address[]",
          "name": "accounts",
          "type": "address[]"
        },
        {
          "internalType": "uint256[]",
          "name": "ids",
          "type": "uint256[]"
        }
      ],
      "name": "balanceOfBatch",
      "outputs": [
        {
          "internalType": "uint256[]",
          "name": "",
          "type": "uint256[]"
        }
      ],
      "stateMutability": "view",
      "type": "function"
    },
    {
      "inputs": [
        {
          "internalType": "uint256",
          "name": "id",
          "type": "uint256"
        },
        {
          "internalType": "uint256[]",
          "name": "ids",
          "type": "uint256[]"
        },
        {
          "internalType": "uint256[]",
          "name": "metadataHashes",
          "type": "uint256[]"
        }
      ],
      "name": "cloneToken",
      "outputs": [],
      "stateMutability": "nonpayable",
      "type": "function"
    },
    {
      "inputs": [
        {
          "internalType": "address",
          "name": "recipient",
          "type": "address"
        },
        {
          "internalType": "uint256",
          "name": "id",
          "type": "uint256"
        },
        {
          "internalType": "uint256",
          "name": "supply",
          "type": "uint256"
        },
        {
          "internalType": "uint256",
          "name": "decimals",
          "type": "uint256"
        },
        {
          "internalType": "uint256",
          "name": "metadataHash",
          "type": "uint256"
        },
        {
          "internalType": "uint256[3]",
          "name": "transactionFees",
          "type": "uint256[3]"
        },
        {
          "internalType": "address[]",
          "name": "feesRecipients",
          "type": "address[]"
        },
        {
          "internalType": "uint256[]",
          "name": "feesRecipientsPercentage",
          "type": "uint256[]"
        },
        {
          "internalType": "uint256",
          "name": "minHoldingForCallback",
          "type": "uint256"
        },
        {
          "internalType": "bool",
          "name": "isPrivate",
          "type": "bool"
        },
        {
          "internalType": "address",
          "name": "legalAuthority",
          "type": "address"
        }
      ],
      "name": "createToken",
      "outputs": [],
      "stateMutability": "nonpayable",
      "type": "function"
    },
    {
      "inputs": [
        {
          "internalType": "address",
          "name": "account",
          "type": "address"
        },
        {
          "internalType": "address",
          "name": "operator",
          "type": "address"
        }
      ],
      "name": "isApprovedForAll",
      "outputs": [
        {
          "internalType": "bool",
          "name": "",
          "type": "bool"
        }
      ],
      "stateMutability": "view",
      "type": "function"
    },
    {
      "inputs": [
        {
          "internalType": "uint256",
          "name": "id",
          "type": "uint256"
        },
        {
          "internalType": "address",
          "name": "maintener",
          "type": "address"
        }
      ],
      "name": "isMaintener",
      "outputs": [
        {
          "internalType": "bool",
          "name": "",
          "type": "bool"
        }
      ],
      "stateMutability": "view",
      "type": "function"
    },
    {
      "inputs": [
        {
          "internalType": "address",
          "name": "tokenizer",
          "type": "address"
        }
      ],
      "name": "isTokenizer",
      "outputs": [
        {
          "internalType": "bool",
          "name": "",
          "type": "bool"
        }
      ],
      "stateMutability": "view",
      "type": "function"
    },
    {
      "inputs": [],
      "name": "owner",
      "outputs": [
        {
          "internalType": "address",
          "name": "",
          "type": "address"
        }
      ],
      "stateMutability": "view",
      "type": "function"
    },
    {
      "inputs": [
        {
          "internalType": "uint256",
          "name": "id",
          "type": "uint256"
        },
        {
          "internalType": "address",
          "name": "holder",
          "type": "address"
        }
      ],
      "name": "revokeHolder",
      "outputs": [],
      "stateMutability": "nonpayable",
      "type": "function"
    },
    {
      "inputs": [
        {
          "internalType": "uint256",
          "name": "id",
          "type": "uint256"
        },
        {
          "internalType": "address",
          "name": "maintener",
          "type": "address"
        }
      ],
      "name": "revokeMaintener",
      "outputs": [],
      "stateMutability": "nonpayable",
      "type": "function"
    },
    {
      "inputs": [
        {
          "internalType": "address",
          "name": "tokenizer",
          "type": "address"
        }
      ],
      "name": "revokeTokenizer",
      "outputs": [],
      "stateMutability": "nonpayable",
      "type": "function"
    },
    {
      "inputs": [
        {
          "internalType": "address",
          "name": "from",
          "type": "address"
        },
        {
          "internalType": "address",
          "name": "to",
          "type": "address"
        },
        {
          "internalType": "uint256[]",
          "name": "ids",
          "type": "uint256[]"
        },
        {
          "internalType": "uint256[]",
          "name": "values",
          "type": "uint256[]"
        },
        {
          "internalType": "bytes",
          "name": "data",
          "type": "bytes"
        }
      ],
      "name": "safeBatchTransferFrom",
      "outputs": [],
      "stateMutability": "payable",
      "type": "function"
    },
    {
      "inputs": [
        {
          "internalType": "address",
          "name": "from",
          "type": "address"
        },
        {
          "internalType": "address",
          "name": "to",
          "type": "address"
        },
        {
          "internalType": "uint256",
          "name": "id",
          "type": "uint256"
        },
        {
          "internalType": "uint256",
          "name": "value",
          "type": "uint256"
        },
        {
          "internalType": "bytes",
          "name": "data",
          "type": "bytes"
        }
      ],
      "name": "safeTransferFrom",
      "outputs": [],
      "stateMutability": "payable",
      "type": "function"
    },
    {
      "inputs": [
        {
          "internalType": "address",
          "name": "operator",
          "type": "address"
        },
        {
          "internalType": "bool",
          "name": "approved",
          "type": "bool"
        }
      ],
      "name": "setApprovalForAll",
      "outputs": [],
      "stateMutability": "nonpayable",
      "type": "function"
    },
    {
      "inputs": [
        {
          "internalType": "address[10]",
          "name": "proxyAddresses",
          "type": "address[10]"
        }
      ],
      "name": "setProxyRegistryAddress",
      "outputs": [],
      "stateMutability": "nonpayable",
      "type": "function"
    },
    {
      "inputs": [
        {
          "internalType": "bytes4",
          "name": "_interfaceID",
          "type": "bytes4"
        }
      ],
      "name": "supportsInterface",
      "outputs": [
        {
          "internalType": "bool",
          "name": "",
          "type": "bool"
        }
      ],
      "stateMutability": "pure",
      "type": "function"
    },
    {
      "inputs": [
        {
          "internalType": "address",
          "name": "account",
          "type": "address"
        },
        {
          "internalType": "uint256",
          "name": "id",
          "type": "uint256"
        },
        {
          "internalType": "uint256",
          "name": "value",
          "type": "uint256"
        }
      ],
      "name": "transactionFees",
      "outputs": [
        {
          "internalType": "uint256",
          "name": "",
          "type": "uint256"
        }
      ],
      "stateMutability": "view",
      "type": "function"
    },
    {
      "inputs": [
        {
          "internalType": "address",
          "name": "newOwner",
          "type": "address"
        }
      ],
      "name": "transferOwnership",
      "outputs": [],
      "stateMutability": "nonpayable",
      "type": "function"
    },
    {
      "inputs": [
        {
          "internalType": "uint256",
          "name": "id",
          "type": "uint256"
        },
        {
          "internalType": "uint256",
          "name": "metadataHash",
          "type": "uint256"
        },
        {
          "internalType": "uint256[3]",
          "name": "transactionFees",
          "type": "uint256[3]"
        },
        {
          "internalType": "address[]",
          "name": "feesRecipients",
          "type": "address[]"
        },
        {
          "internalType": "uint256[]",
          "name": "feesRecipientsPercentage",
          "type": "uint256[]"
        },
        {
          "internalType": "uint256",
          "name": "minHoldingForCallback",
          "type": "uint256"
        },
        {
          "internalType": "bool",
          "name": "isPrivate",
          "type": "bool"
        },
        {
          "internalType": "address",
          "name": "legalAuthority",
          "type": "address"
        }
      ],
      "name": "updateToken",
      "outputs": [],
      "stateMutability": "nonpayable",
      "type": "function"
    },
    {
      "inputs": [
        {
          "internalType": "uint256",
          "name": "id",
          "type": "uint256"
        },
        {
          "internalType": "uint256",
          "name": "documentHash",
          "type": "uint256"
        }
      ],
      "name": "lockToken",
      "outputs": [],
      "stateMutability": "nonpayable",
      "type": "function"
    },
    {
      "inputs": [
        {
          "internalType": "uint256",
          "name": "id",
          "type": "uint256"
        },
        {
          "internalType": "uint256",
          "name": "documentHash",
          "type": "uint256"
        }
      ],
      "name": "unlockToken",
      "outputs": [],
      "stateMutability": "nonpayable",
      "type": "function"
    },
    {
      "inputs": [
        {
          "internalType": "uint256",
          "name": "id",
          "type": "uint256"
        }
      ],
      "name": "isLockedToken",
      "outputs": [
        {
          "internalType": "bool",
          "name": "",
          "type": "bool"
        }
      ],
      "stateMutability": "view",
      "type": "function"
    },
    {
      "inputs": [
        {
          "internalType": "address",
          "name": "addr",
          "type": "address"
        }
      ],
      "name": "lockAddress",
      "outputs": [],
      "stateMutability": "nonpayable",
      "type": "function"
    },
    {
      "inputs": [
        {
          "internalType": "address",
          "name": "addr",
          "type": "address"
        }
      ],
      "name": "unlockAddress",
      "outputs": [],
      "stateMutability": "nonpayable",
      "type": "function"
    },
    {
      "inputs": [
        {
          "internalType": "address",
          "name": "addr",
          "type": "address"
        }
      ],
      "name": "isLockedAddress",
      "outputs": [
        {
          "internalType": "bool",
          "name": "",
          "type": "bool"
        }
      ],
      "stateMutability": "view",
      "type": "function"
    }
  ],
  "bytecode": "0x60806040523480156200001157600080fd5b506200001d3362000023565b620000e0565b6001600160a01b03811662000084576040517f08c379a000000000000000000000000000000000000000000000000000000000815260040180806020018281038252602681526020018062003ca66026913960400191505060405180910390fd5b600c546040516001600160a01b038084169216907f8be0079c531659141344cd1fd0a4f28419497f9722a3daafe3b4186f6b6457e090600090a3600c80546001600160a01b0319166001600160a01b0392909216919091179055565b613bb680620000f06000396000f3fe6080604052600436106101ed5760003560e01c80638aeba37e1161010d578063c40b87ae116100a0578063e985e9c51161006f578063e985e9c514610df4578063ed70554d14610e2f578063f242432a14610ead578063f2fde38b14610f40578063f8a5a07c14610f73576101ed565b8063c40b87ae14610bac578063cba54e6014610d49578063d1660e1814610d7c578063d41d0aa314610dbb576101ed565b8063b7eb5e0a116100dc578063b7eb5e0a14610aec578063baa3411014610b1f578063bba75c8314610b4f578063c02f303c14610b79576101ed565b80638aeba37e14610a175780638da5cb5b14610a50578063a22cb46514610a81578063aba7fe8a14610abc576101ed565b80634ab0d253116101855780635dd2b9a6116101545780635dd2b9a61461093f578063759c5214146109785780637627b732146109b15780638870147b146109e4576101ed565b80634ab0d253146105cb5780634e1273f41461074d578063585941d5146108cd5780635dafec1b14610906576101ed565b806334a90d02116101c157806334a90d02146104525780633cacd7d614610485578063414ed0ce146104d85780634392e5771461056a576101ed565b8062fdd58e146101f257806301ffc9a71461023d5780632eb2c2d6146102855780632ed42bf7146103ae575b600080fd5b3480156101fe57600080fd5b5061022b6004803603604081101561021557600080fd5b506001600160a01b0381351690602001356110aa565b60408051918252519081900360200190f35b34801561024957600080fd5b506102716004803603602081101561026057600080fd5b50356001600160e01b03191661111f565b604080519115158252519081900360200190f35b6103ac600480360360a081101561029b57600080fd5b6001600160a01b038235811692602081013590911691810190606081016040820135600160201b8111156102ce57600080fd5b8201836020820111156102e057600080fd5b803590602001918460208302840111600160201b8311171561030157600080fd5b919390929091602081019035600160201b81111561031e57600080fd5b82018360208201111561033057600080fd5b803590602001918460208302840111600160201b8311171561035157600080fd5b919390929091602081019035600160201b81111561036e57600080fd5b82018360208201111561038057600080fd5b803590602001918460018302840111600160201b831117156103a157600080fd5b509092509050611166565b005b3480156103ba57600080fd5b506103c3611414565b6040518084815260200180602001836001600160a01b03168152602001828103825284818151815260200191508051906020019080838360005b838110156104155781810151838201526020016103fd565b50505050905090810190601f1680156104425780820380516001836020036101000a031916815260200191505b5094505050505060405180910390f35b34801561045e57600080fd5b506103ac6004803603602081101561047557600080fd5b50356001600160a01b03166114b9565b34801561049157600080fd5b506104b8600480360360208110156104a857600080fd5b50356001600160a01b0316611526565b604080519315158452911515602084015282820152519081900360600190f35b3480156104e457600080fd5b50610502600480360360208110156104fb57600080fd5b503561154c565b604080519b8c5260208c019a909a528a8a019890985260608a019690965260808901949094526001600160a01b0390921660a0880152151560c0870152151560e086015215156101008501521515610120840152151561014083015251908190036101600190f35b34801561057657600080fd5b506103ac600480360361014081101561058e57600080fd5b81019080806101400190600a806020026040519081016040528092919082600a602002808284376000920191909152509194506115bf9350505050565b3480156105d757600080fd5b506103ac60048036036101408110156105ef57600080fd5b6040805160608181018352843594602081013594810193909260a08401929091840190600390839083908082843760009201919091525091949392602081019250359050600160201b81111561064457600080fd5b82018360208201111561065657600080fd5b803590602001918460208302840111600160201b8311171561067757600080fd5b9190808060200260200160405190810160405280939291908181526020018383602002808284376000920191909152509295949360208101935035915050600160201b8111156106c657600080fd5b8201836020820111156106d857600080fd5b803590602001918460208302840111600160201b831117156106f957600080fd5b919080806020026020016040519081016040528093929190818152602001838360200280828437600092019190915250929550508235935050506020810135151590604001356001600160a01b0316611617565b34801561075957600080fd5b5061087d6004803603604081101561077057600080fd5b810190602081018135600160201b81111561078a57600080fd5b82018360208201111561079c57600080fd5b803590602001918460208302840111600160201b831117156107bd57600080fd5b9190808060200260200160405190810160405280939291908181526020018383602002808284376000920191909152509295949360208101935035915050600160201b81111561080c57600080fd5b82018360208201111561081e57600080fd5b803590602001918460208302840111600160201b8311171561083f57600080fd5b919080806020026020016040519081016040528093929190818152602001838360200280828437600092019190915250929550611702945050505050565b60408051602080825283518183015283519192839290830191858101910280838360005b838110156108b95781810151838201526020016108a1565b505050509050019250505060405180910390f35b3480156108d957600080fd5b5061022b600480360360408110156108f057600080fd5b506001600160a01b038135169060200135611886565b34801561091257600080fd5b506102716004803603604081101561092957600080fd5b50803590602001356001600160a01b03166118c1565b34801561094b57600080fd5b506103ac6004803603604081101561096257600080fd5b50803590602001356001600160a01b03166118cd565b34801561098457600080fd5b506103ac6004803603604081101561099b57600080fd5b50803590602001356001600160a01b0316611953565b3480156109bd57600080fd5b506103ac600480360360208110156109d457600080fd5b50356001600160a01b03166119d4565b3480156109f057600080fd5b506103ac60048036036020811015610a0757600080fd5b50356001600160a01b0316611a3f565b348015610a2357600080fd5b506103ac60048036036040811015610a3a57600080fd5b50803590602001356001600160a01b0316611aa7565b348015610a5c57600080fd5b50610a65611b25565b604080516001600160a01b039092168252519081900360200190f35b348015610a8d57600080fd5b506103ac60048036036040811015610aa457600080fd5b506001600160a01b0381351690602001351515611b34565b348015610ac857600080fd5b506103ac60048036036040811015610adf57600080fd5b5080359060200135611bee565b348015610af857600080fd5b506103ac60048036036020811015610b0f57600080fd5b50356001600160a01b0316611c47565b348015610b2b57600080fd5b506103ac60048036036040811015610b4257600080fd5b5080359060200135611cb0565b348015610b5b57600080fd5b5061027160048036036020811015610b7257600080fd5b5035611d04565b348015610b8557600080fd5b5061027160048036036020811015610b9c57600080fd5b50356001600160a01b0316611d0f565b348015610bb857600080fd5b506103ac60048036036101a0811015610bd057600080fd5b60408051606081810183526001600160a01b03853516946020810135949381013593828201359360808301359391830192916101008301919060a0840190600390839083908082843760009201919091525091949392602081019250359050600160201b811115610c4057600080fd5b820183602082011115610c5257600080fd5b803590602001918460208302840111600160201b83111715610c7357600080fd5b9190808060200260200160405190810160405280939291908181526020018383602002808284376000920191909152509295949360208101935035915050600160201b811115610cc257600080fd5b820183602082011115610cd457600080fd5b803590602001918460208302840111600160201b83111715610cf557600080fd5b919080806020026020016040519081016040528093929190818152602001838360200280828437600092019190915250929550508235935050506020810135151590604001356001600160a01b0316611d1a565b348015610d5557600080fd5b5061027160048036036020811015610d6c57600080fd5b50356001600160a01b0316611dcd565b348015610d8857600080fd5b5061022b60048036036060811015610d9f57600080fd5b506001600160a01b038135169060208101359060400135611dd8565b348015610dc757600080fd5b506103ac60048036036040811015610dde57600080fd5b50803590602001356001600160a01b0316611ded565b348015610e0057600080fd5b5061027160048036036040811015610e1757600080fd5b506001600160a01b0381358116916020013516611e68565b348015610e3b57600080fd5b50610e5960048036036020811015610e5257600080fd5b5035611e74565b60408051998a5260208a0198909852888801969096526060880194909452608087019290925260a08601526001600160a01b031660c0850152151560e0840152151561010083015251908190036101200190f35b6103ac600480360360a0811015610ec357600080fd5b6001600160a01b03823581169260208101359091169160408201359160608101359181019060a081016080820135600160201b811115610f0257600080fd5b820183602082011115610f1457600080fd5b803590602001918460018302840111600160201b83111715610f3557600080fd5b509092509050611ed0565b348015610f4c57600080fd5b506103ac60048036036020811015610f6357600080fd5b50356001600160a01b0316612027565b348015610f7f57600080fd5b506103ac60048036036060811015610f9657600080fd5b81359190810190604081016020820135600160201b811115610fb757600080fd5b820183602082011115610fc957600080fd5b803590602001918460208302840111600160201b83111715610fea57600080fd5b9190808060200260200160405190810160405280939291908181526020018383602002808284376000920191909152509295949360208101935035915050600160201b81111561103957600080fd5b82018360208201111561104b57600080fd5b803590602001918460208302840111600160201b8311171561106c57600080fd5b91908080602002602001604051908101604052809392919081815260200183836020028082843760009201919091525092955061207a945050505050565b60006001600160a01b0383166110f15760405162461bcd60e51b815260040180806020018281038252602b81526020018061394b602b913960400191505060405180910390fd5b506000818152600e602090815260408083206001600160a01b03861684526007019091529020545b92915050565b60006001600160e01b031982166301ffc9a760e01b148061115057506001600160e01b03198216636cdb3d1360e11b145b1561115d57506001611161565b5060005b919050565b8483146111a45760405162461bcd60e51b815260040180806020018281038252602e815260200180613b22602e913960400191505060405180910390fd5b6001600160a01b0387166111e95760405162461bcd60e51b81526004018080602001828103825260288152602001806139bc6028913960400191505060405180910390fd5b6001600160a01b03881633148061120b57506112058833611e68565b15156001145b6112465760405162461bcd60e51b8152600401808060200182810382526037815260200180613aeb6037913960400191505060405180910390fd5b6112b5888888888080602002602001604051908101604052809392919081815260200183836020028082843760009201919091525050604080516020808c0282810182019093528b82529093508b92508a91829185019084908082843760009201919091525061221192505050565b866001600160a01b0316886001600160a01b0316336001600160a01b03167f4a39dc06d4c0dbc64b70af90fd698a233a518aa5d07e595d983b8c0526c8f7fb898989896040518080602001806020018381038352878782818152602001925060200280828437600083820152601f01601f19169091018481038352858152602090810191508690860280828437600083820152604051601f909101601f19169092018290039850909650505050505050a461140a33898989898080602002602001604051908101604052809392919081815260200183836020028082843760009201919091525050604080516020808d0282810182019093528c82529093508c92508b91829185019084908082843760009201919091525050604080516020601f8c018190048102820181019092528a815292508a91508990819084018382808284376000920191909152506122cb92505050565b5050505050505050565b6000805460018054604080516020600284861615610100026000190190941693909304601f810184900484028201840190925281815293949392918301828280156114a05780601f10611475576101008083540402835291602001916114a0565b820191906000526020600020905b81548152906001019060200180831161148357829003601f168201915b505050600c90930154919250506001600160a01b031683565b6114c16124bc565b611500576040805162461bcd60e51b81526020600482018190526024820152600080516020613acb833981519152604482015290519081900360640190fd5b6001600160a01b03166000908152600d60205260409020805461ff001916610100179055565b600d602052600090815260409020805460019091015460ff808316926101009004169083565b600f6020526000908152604090208054600182015460028301546003840154600485015460059095015493949293919290916001600160a01b0381169060ff600160a01b8204811691600160a81b8104821691600160b01b8204811691600160b81b8104821691600160c01b909104168b565b6115c76124bc565b611606576040805162461bcd60e51b81526020600482018190526024820152600080516020613acb833981519152604482015290519081900360640190fd5b611613600282600a6137f6565b5050565b8761162281336124cd565b611661576040805162461bcd60e51b81526020600482015260176024820152600080516020613976833981519152604482015290519081900360640190fd5b6000898152600e60205260409020546116b1576040805162461bcd60e51b815260206004820152600d60248201526c2ab735b737bbb7103a37b5b2b760991b604482015290519081900360640190fd5b6116c18989898989898989612507565b6040805189815290518a917f199acc06cd2556bbc146fa3cb578799037dffcbf256eca32aaf2ef656925d2fd919081900360200190a2505050505050505050565b606081518351146117445760405162461bcd60e51b8152600401808060200182810382526030815260200180613a106030913960400191505060405180910390fd5b6060835167ffffffffffffffff8111801561175e57600080fd5b50604051908082528060200260200182016040528015611788578160200160208202803683370190505b50905060005b845181101561187e5760006001600160a01b03168582815181106117ae57fe5b60200260200101516001600160a01b031614156117fc5760405162461bcd60e51b8152600401808060200182810382526034815260200180613a766034913960400191505060405180910390fd5b600e600085838151811061180c57fe5b60200260200101518152602001908152602001600020600701600086838151811061183357fe5b60200260200101516001600160a01b03166001600160a01b031681526020019081526020016000206000015482828151811061186b57fe5b602090810291909101015260010161178e565b509392505050565b6000818152600e602090815260408083206001600160a01b03861684526007019091528120600101546118ba9042906126ab565b9392505050565b60006118ba83836124cd565b816118d881336124cd565b611917576040805162461bcd60e51b81526020600482015260176024820152600080516020613976833981519152604482015290519081900360640190fd5b506000918252600e602090815260408084206001600160a01b039093168452600790920190529020600201805462ff0000191662010000179055565b8161195e81336124cd565b61199d576040805162461bcd60e51b81526020600482015260176024820152600080516020613976833981519152604482015290519081900360640190fd5b506000918252600e602090815260408084206001600160a01b039093168452600790920190529020600201805462ff000019169055565b6119dc6124bc565b611a1b576040805162461bcd60e51b81526020600482018190526024820152600080516020613acb833981519152604482015290519081900360640190fd5b6001600160a01b03166000908152600d60205260409020805460ff19166001179055565b611a476124bc565b611a86576040805162461bcd60e51b81526020600482018190526024820152600080516020613acb833981519152604482015290519081900360640190fd5b6001600160a01b03166000908152600d60205260409020805460ff19169055565b611aaf6124bc565b611aee576040805162461bcd60e51b81526020600482018190526024820152600080516020613acb833981519152604482015290519081900360640190fd5b6000918252600e602090815260408084206001600160a01b039093168452600790920190529020600201805460ff19166001179055565b600c546001600160a01b031690565b336001600160a01b0383161415611b7c5760405162461bcd60e51b815260040180806020018281038252602c8152602001806139e4602c913960400191505060405180910390fd5b336000818152600d602090815260408083206001600160a01b0387168085526003909101835292819020805460ff1916861515908117909155815190815290519293927f17307eab39ab6107e8899845ad3d59bd9653f200f220920489ca2b5937696c31929181900390910190a35050565b81611bf981336124cd565b611c38576040805162461bcd60e51b81526020600482015260176024820152600080516020613976833981519152604482015290519081900360640190fd5b611c4283836126ed565b505050565b611c4f6124bc565b611c8e576040805162461bcd60e51b81526020600482018190526024820152600080516020613acb833981519152604482015290519081900360640190fd5b6001600160a01b03166000908152600d60205260409020805461ff0019169055565b81611cbb81336124cd565b611cfa576040805162461bcd60e51b81526020600482015260176024820152600080516020613976833981519152604482015290519081900360640190fd5b611c428383612743565b60006111198261279f565b6000611119826127be565b611d23336127be565b611d62576040805162461bcd60e51b81526020600482015260176024820152600080516020613976833981519152604482015290519081900360640190fd5b611d758b8b8b8b8b8b8b8b8b8b8b6127e8565b604080518b8152602081018b905281516001600160a01b038e169260009233927fc3d58168c5ae7397731d063d5bbf3d657854427343f4c083240f7aacaa2d0f62929181900390910190a45050505050505050505050565b600061111982612951565b6000611de5848484612974565b949350505050565b611df56124bc565b611e34576040805162461bcd60e51b81526020600482018190526024820152600080516020613acb833981519152604482015290519081900360640190fd5b6000918252600e602090815260408084206001600160a01b039093168452600790920190529020600201805460ff19169055565b60006118ba8383612b5c565b600e60205260009081526040902080546001820154600283015460038401546004850154600586015460069096015494959394929391929091906001600160a01b0381169060ff600160a01b8204811691600160a81b90041689565b6001600160a01b038516611f155760405162461bcd60e51b81526004018080602001828103825260288152602001806139bc6028913960400191505060405180910390fd5b6001600160a01b038616331480611f375750611f318633611e68565b15156001145b611f725760405162461bcd60e51b8152600401808060200182810382526037815260200180613aeb6037913960400191505060405180910390fd5b611f7e86868686612ba1565b846001600160a01b0316866001600160a01b0316336001600160a01b03167fc3d58168c5ae7397731d063d5bbf3d657854427343f4c083240f7aacaa2d0f628787604051808381526020018281526020019250505060405180910390a461201f338787878787878080601f016020809104026020016040519081016040528093929190818152602001838380828437600092019190915250612c1992505050565b505050505050565b61202f6124bc565b61206e576040805162461bcd60e51b81526020600482018190526024820152600080516020613acb833981519152604482015290519081900360640190fd5b61207781612d8e565b50565b612083336127be565b6120c2576040805162461bcd60e51b81526020600482015260176024820152600080516020613976833981519152604482015290519081900360640190fd5b6000838152600e6020526040902054158015906120e0575080518251145b612125576040805162461bcd60e51b8152602060048201526011602482015270496e76616c696420617267756d656e747360781b604482015290519081900360640190fd5b60005b825181101561220b576121628484838151811061214157fe5b602002602001015184848151811061215557fe5b6020026020010151612e2f565b6000848152600e60205260408120600801805490919061217e57fe5b600091825260208220015484516001600160a01b03909116919033907fc3d58168c5ae7397731d063d5bbf3d657854427343f4c083240f7aacaa2d0f62908790869081106121c857fe5b6020026020010151600e60008a815260200190815260200160002060000154604051808381526020018281526020019250505060405180910390a4600101612128565b50505050565b600080341161223b576001600160a01b0385166000908152600d602052604090206001015461223d565b345b905060005b83518110156122b9576122af612280878787858151811061225f57fe5b602002602001015187868151811061227357fe5b6020026020010151612fcc565b60408051808201909152601081526f092dce6eaccccd2c6d2cadce8408aa8960831b602082015284919061302a565b9150600101612242565b506122c485826130c1565b5050505050565b6122dd846001600160a01b0316613142565b1561201f5763bc197c8160e01b6001600160e01b031916846001600160a01b031663bc197c8188888787876040518663ffffffff1660e01b815260040180866001600160a01b03168152602001856001600160a01b03168152602001806020018060200180602001848103845287818151815260200191508051906020019060200280838360005b8381101561237d578181015183820152602001612365565b50505050905001848103835286818151815260200191508051906020019060200280838360005b838110156123bc5781810151838201526020016123a4565b50505050905001848103825285818151815260200191508051906020019080838360005b838110156123f85781810151838201526020016123e0565b50505050905090810190601f1680156124255780820380516001836020036101000a031916815260200191505b5098505050505050505050602060405180830381600087803b15801561244a57600080fd5b505af115801561245e573d6000803e3d6000fd5b505050506040513d602081101561247457600080fd5b50516001600160e01b0319161461201f5760405162461bcd60e51b8152600401808060200182810382526036815260200180613a406036913960400191505060405180910390fd5b600c546001600160a01b0316331490565b6000828152600e602090815260408083206001600160a01b038516845260070190915281206002015460ff16806118ba57506118ba6124bc565b6000805b85518110156125375785818151811061252057fe5b60200260200101518201915080600101905061250b565b5060008651118015612547575060015b8015612554575080612710145b8015612561575061271084105b6125a6576040805162461bcd60e51b8152602060048201526011602482015270496e76616c696420617267756d656e747360781b604482015290519081900360640190fd5b6000898152600e60209081526040808320600581018c90558a516002808301919091558b840151600383015582518084018452428152928c015183850152600b90910180546001810182559085529290932061260693928302019161384e565b506000898152600e60209081526040909120875161262c92600990920191890190613888565b506000898152600e60209081526040909120865161265292600a909201918801906138dc565b50506000978852600e602052604090972060048101929092556006909101805460ff60a01b1916600160a01b92151592909202919091176001600160a01b0319166001600160a01b039096169590951790945550505050565b60006118ba83836040518060400160405280601e81526020017f536166654d6174683a207375627472616374696f6e206f766572666c6f77000081525061302a565b6000828152600e6020908152604091829020600601805460ff60a81b191690558151838152915184927f199acc06cd2556bbc146fa3cb578799037dffcbf256eca32aaf2ef656925d2fd92908290030190a25050565b6000828152600e6020908152604091829020600601805460ff60a81b1916600160a81b1790558151838152915184927f199acc06cd2556bbc146fa3cb578799037dffcbf256eca32aaf2ef656925d2fd92908290030190a25050565b6000908152600e6020526040902060060154600160a81b900460ff1690565b6001600160a01b0381166000908152600d602052604081205460ff168061111957506111196124bc565b60008a8152600e60205260409020541580156128045750600089115b612849576040805162461bcd60e51b8152602060048201526011602482015270496e76616c696420617267756d656e747360781b604482015290519081900360640190fd5b88600e60008c81526020019081526020016000206000018190555087600e60008c8152602001908152602001600020600101819055506001600e60008c81526020019081526020016000206007016000336001600160a01b03166001600160a01b0316815260200190815260200160002060020160006101000a81548160ff0219169083151502179055506001600e60008c815260200190815260200160002060070160008d6001600160a01b03166001600160a01b0316815260200190815260200160002060020160026101000a81548160ff0219169083151502179055506129398a88888888888888612507565b6129448b8b8b613179565b5050505050505050505050565b6001600160a01b03166000908152600d6020526040902054610100900460ff1690565b6000828152600e60205260408120600b015481904290600019015b6000868152600e60205260408120600b018054839081106129ac57fe5b60009182526020822060029091020101546000888152600e60205260408120600b0180549293509091849081106129df57fe5b90600052602060002090600202016001600281106129f957fe5b01546000898152600e602090815260408083206001600160a01b038e168452600701909152812060010154919250908311612a9c576000898152600e602090815260408083206001600160a01b038e168452600701909152902060010154612a71906201518090612a6b9088906126ab565b90613222565b905080612a7c575060015b612a9088612a8a8385613264565b90613264565b86019550505050612adb565b612aad62015180612a6b87866126ab565b905080612ab8575060015b9193508391612acb88612a8a8385613264565b909501945050506000190161298f565b506000858152600e6020526040902060010154612afc908390600a0a613222565b6000868152600e602052604081206003015491935090612b27906305f5e10090612a6b908890613264565b6000878152600e6020526040902060020154909150612b5190612b4a90836132bd565b84906132bd565b979650505050505050565b6000612b688383613317565b806118ba5750506001600160a01b039182166000908152600d602090815260408083209390941682526003909201909152205460ff1690565b6000803411612bcb576001600160a01b0385166000908152600d6020526040902060010154612bcd565b345b9050612c0d612bde86868686612fcc565b60408051808201909152601081526f092dce6eaccccd2c6d2cadce8408aa8960831b602082015283919061302a565b90506122c485826130c1565b612c2b846001600160a01b0316613142565b1561201f5763f23a6e6160e01b6001600160e01b031916846001600160a01b031663f23a6e6188888787876040518663ffffffff1660e01b815260040180866001600160a01b03168152602001856001600160a01b0316815260200184815260200183815260200180602001828103825283818151815260200191508051906020019080838360005b83811015612ccc578181015183820152602001612cb4565b50505050905090810190601f168015612cf95780820380516001836020036101000a031916815260200191505b509650505050505050602060405180830381600087803b158015612d1c57600080fd5b505af1158015612d30573d6000803e3d6000fd5b505050506040513d6020811015612d4657600080fd5b50516001600160e01b0319161461201f5760405162461bcd60e51b8152600401808060200182810382526031815260200180613b506031913960400191505060405180910390fd5b6001600160a01b038116612dd35760405162461bcd60e51b81526004018080602001828103825260268152602001806139966026913960400191505060405180910390fd5b600c546040516001600160a01b038084169216907f8be0079c531659141344cd1fd0a4f28419497f9722a3daafe3b4186f6b6457e090600090a3600c80546001600160a01b0319166001600160a01b0392909216919091179055565b6000838152600e602052604081206008018054611c429290612e4d57fe5b6000918252602080832090910154868352600e8083526040808520805460018201548351606081018552600284015481526003840154818901528c895294909652600b90910180546001600160a01b03909516968a96929592948a949093908401929190612eb757fe5b9060005260206000209060020201600160028110612ed157fe5b0154905260008a8152600e602090815260409182902060090180548351818402810184019094528084529091830182828015612f3657602002820191906000526020600020905b81546001600160a01b03168152600190910190602001808311612f18575b50505060008d8152600e6020908152604091829020600a0180548351818402810184019094528084529294509250830182828015612f9357602002820191906000526020600020905b815481526020019060010190808311612f7f575b50505060008e8152600e60205260409020600481015460069091015490925060ff600160a01b82041691506001600160a01b03166127e8565b6000612fda858585856133fe565b15613015576040805162461bcd60e51b8152602060048201526006602482015265131bd8dad95960d21b604482015290519081900360640190fd5b61302185858585613436565b95945050505050565b600081848411156130b95760405162461bcd60e51b81526004018080602001828103825283818151815260200191508051906020019080838360005b8381101561307e578181015183820152602001613066565b50505050905090810190601f1680156130ab5780820380516001836020036101000a031916815260200191505b509250505060405180910390fd5b505050900390565b6000341180156130d15750600081115b1561311d576001600160a01b0382166000908152600d60205260409020600101546130fc90826132bd565b6001600160a01b0383166000908152600d6020526040902060010155611613565b34611613576001600160a01b03919091166000908152600d6020526040902060010155565b6000813f7fc5d2460186f7233c927e7db2dcc703c0e500b653ca82273b7bfad8045d85a4708115801590611de55750141592915050565b6000828152600e6020526040902060060154600160a01b900460ff1615806131cf57506000828152600e602090815260408083206001600160a01b038716845260070190915290206002015462010000900460ff165b613217576040805162461bcd60e51b81526020600482015260146024820152731059191c995cdcc81b9bdd08185c1c1c9bdd995960621b604482015290519081900360640190fd5b611c42838383613593565b60006118ba83836040518060400160405280601a81526020017f536166654d6174683a206469766973696f6e206279207a65726f000000000000815250613791565b60008261327357506000611119565b8282028284828161328057fe5b04146118ba5760405162461bcd60e51b8152600401808060200182810382526021815260200180613aaa6021913960400191505060405180910390fd5b6000828201838110156118ba576040805162461bcd60e51b815260206004820152601b60248201527f536166654d6174683a206164646974696f6e206f766572666c6f770000000000604482015290519081900360640190fd5b6000805b600a8110156133f4576000600282600a811061333357fe5b01546001600160a01b0316146133ec576000600282600a811061335257fe5b01546040805163c455279160e01b81526001600160a01b0388811660048301529151928216935090861691839163c4552791916024808301926020929190829003018186803b1580156133a457600080fd5b505afa1580156133b8573d6000803e3d6000fd5b505050506040513d60208110156133ce57600080fd5b50516001600160a01b031614156133ea57600192505050611119565b505b60010161331b565b5060009392505050565b60006134098361279f565b80613418575061341885612951565b80613427575061342784612951565b80613021575050159392505050565b6040805180820182526014815273496e73756666696369656e742062616c616e636560601b6020808301919091526000858152600e82528381206001600160a01b03891682526007019091529182205461349191849061302a565b6000848152600e602090815260408083206001600160a01b038a1684526007019091529020556134c2848484613179565b6134cd858484612974565b905060005b6000848152600e602052604090206009015481101561358a576000848152600e6020526040812060090180548390811061350857fe5b6000918252602080832090910154878352600e90915260408220600a0180546001600160a01b039092169350908490811061353f57fe5b600091825260209091200154905061355d612710612a6b8684613264565b6001600160a01b039092166000908152600d602052604090206001908101805490930190925550016134d2565b50949350505050565b6000828152600e602090815260408083206001600160a01b03871684526007019091528120546135c390836132bd565b6000848152600e602090815260408083206001600160a01b03891684526007019091529020549091506136c0576000838152600e602090815260408083206001600160a01b0388168452600701909152902060020154610100900460ff1661368f576001600160a01b0384166000818152600d6020908152604080832060020180546001818101835591855283852001889055878452600e83529083206008810180549283018155845282842090910180546001600160a01b0319168517905592909152600790910190525b6000838152600e602090815260408083206001600160a01b0388168452600701909152902042600190910155613761565b6000838152600e602090815260408083206001600160a01b03881684526007019091528120600101546136f49042906126ab565b6000858152600e602090815260408083206001600160a01b038a1684526007019091528120549192509061372e908490612a6b9085613264565b6000868152600e602090815260408083206001600160a01b038b1684526007019091529020429190910360019091015550505b6000928352600e602090815260408085206001600160a01b03909616855260079095019052929091209190915550565b600081836137e05760405162461bcd60e51b815260206004820181815283516024840152835190928392604490910191908501908083836000831561307e578181015183820152602001613066565b5060008385816137ec57fe5b0495945050505050565b82600a810192821561383e579160200282015b8281111561383e57825182546001600160a01b0319166001600160a01b03909116178255602090920191600190910190613809565b5061384a929150613916565b5090565b826002810192821561387c579160200282015b8281111561387c578251825591602001919060010190613861565b5061384a929150613935565b82805482825590600052602060002090810192821561383e579160200282018281111561383e57825182546001600160a01b0319166001600160a01b03909116178255602090920191600190910190613809565b82805482825590600052602060002090810192821561387c579160200282018281111561387c578251825591602001919060010190613861565b5b8082111561384a5780546001600160a01b0319168155600101613917565b5b8082111561384a576000815560010161393656fe455243313135353a2062616c616e636520717565727920666f7220746865207a65726f2061646472657373496e73756666696369656e74207065726d697373696f6e0000000000000000004f776e61626c653a206e6577206f776e657220697320746865207a65726f2061646472657373455243313135353a207461726765742061646472657373206d757374206265206e6f6e2d7a65726f455243313135353a2063616e6e6f742073657420617070726f76616c2073746174757320666f722073656c66455243313135353a206163636f756e747320616e6420494473206d75737420686176652073616d65206c656e67746873455243313135353a20676f7420756e6b6e6f776e2076616c75652066726f6d206f6e4552433131353542617463685265636569766564455243313135353a20736f6d65206164647265737320696e2062617463682062616c616e6365207175657279206973207a65726f536166654d6174683a206d756c7469706c69636174696f6e206f766572666c6f774f776e61626c653a2063616c6c6572206973206e6f7420746865206f776e6572455243313135353a206e656564206f70657261746f7220617070726f76616c20666f7220337264207061727479207472616e7366657273455243313135353a2049447320616e642076616c756573206d75737420686176652073616d65206c656e67746873455243313135353a20676f7420756e6b6e6f776e2076616c75652066726f6d206f6e455243313135355265636569766564a2646970667358221220b789c705decba19f4f6cb5335a34eb970ec3e0b9b31a26e93809cebd0c30d58064736f6c634300070100334f776e61626c653a206e6577206f776e657220697320746865207a65726f2061646472657373",
  "immutableReferences": {},
  "source": "// SPDX-License-Identifier: GPL-3.0-or-later\npragma solidity ^0.7.1;\n\nimport './Privatizable.sol';\n\ncontract Lockable is Privatizable {\n\n\n    /****************************\n    EXTERNAL FUNCTIONS\n    *****************************/\n\n\n    /**\n     * @dev Function to lock a token.\n     * @param id The token ID\n     */\n    function lockToken(uint256 id, uint256 documentHash) external onlyMaintener(id) {\n        _lockToken(id, documentHash);\n    }\n\n    /**\n     * @dev Function to unlock a token.\n     * @param id The token ID\n     */\n    function unlockToken(uint256 id, uint256 documentHash) external onlyMaintener(id) {\n        _unlockToken(id, documentHash);\n    }\n\n    /**\n     * @dev Function to check if a token is locked.\n     * @param id The token ID\n     */\n    function isLockedToken(uint256 id) external view returns (bool){\n        return _isLockedToken(id);\n    }\n\n    /**\n     * @dev Function to lock an address.\n     * @param addr The address to lock\n     */\n    function lockAddress(address addr) external onlyOwner {\n        _users[addr].isLocked = true;\n    }\n\n    /**\n     * @dev Function to unlock an address.\n     * @param addr The address to unlock\n     */\n    function unlockAddress(address addr) external onlyOwner {\n        _users[addr].isLocked = false;\n    }\n\n    /**\n     * @dev Function to check if an address is lockec.\n     * @param addr The address to check\n     */\n    function isLockedAddress(address addr) external view returns (bool){\n        return _isLockedAddress(addr);\n    }\n\n\n    /****************************\n    INTERNAL FUNCTIONS\n    *****************************/\n\n\n    function _lockToken(uint256 id, uint256 documentHash) internal {\n        _tokens[id].locked = true;\n        emit TokenUpdated(id, documentHash);\n    }\n\n    function _unlockToken(uint256 id, uint256 documentHash) internal {\n        _tokens[id].locked = false;\n        emit TokenUpdated(id, documentHash);\n    }\n\n    function _isLockedToken(uint256 id) internal view returns (bool) {\n        return _tokens[id].locked;\n    }\n\n    function _isLockedAddress(address addr) internal view returns (bool) {\n        return _users[addr].isLocked;\n    }\n\n    function _isLockedMove(address from, address to, uint256 id, uint256 value) internal view returns (bool) {\n        return _isLockedToken(id) || _isLockedAddress(from) || _isLockedAddress(to) || (value == 0);\n    }\n\n    // override ChargeableTransfer._moveTokens\n    function _moveTokens(address from, address to, uint256 id, uint256 value) internal override returns (uint256 fees) {\n        require(!_isLockedMove(from, to, id, value), \"Locked\");\n        return super._moveTokens(from, to, id, value);\n    }\n}\n",
  "sourcePath": "/home/ouziel/Work/StashBloxContracts/contracts/lib/Lockable.sol",
  "compiler": {
    "name": "solc",
    "version": "0.7.1+commit.f4a555be.Emscripten.clang"
  },
  "schemaVersion": "3.2.3",
  "updatedAt": "2020-10-21T17:19:14.587Z",
  "devdoc": {
    "kind": "dev",
    "methods": {
      "approveHolder(uint256,address)": {
        "details": "Function to approve holder for a private token.",
        "params": {
          "holder": "The authorized address",
          "id": "the token id"
        }
      },
      "authorizeMaintener(uint256,address)": {
        "details": "Function to authorize an address to maintain a token.",
        "params": {
          "maintener": "The authorized address"
        }
      },
      "authorizeTokenizer(address)": {
        "details": "Function to authorize an address to create a token.",
        "params": {
          "tokenizer": "The authorized address"
        }
      },
      "averageAge(address,uint256)": {
        "details": "Function to get the average age of the token for the given address.",
        "params": {
          "account": "the address from where to transfer the tokens",
          "id": "The token ID"
        },
        "returns": {
          "_0": "average age in seconds"
        }
      },
      "balanceOf(address,uint256)": {
        "details": "Get the specified address' balance for token with specified ID. Attempting to query the zero account for a balance will result in a revert.",
        "params": {
          "account": "The address of the token holder",
          "id": "ID of the token"
        },
        "returns": {
          "_0": "The account's balance of the token type requested"
        }
      },
      "balanceOfBatch(address[],uint256[])": {
        "details": "Get the balance of multiple account/token pairs. If any of the query accounts is the zero account, this query will revert.",
        "params": {
          "accounts": "The addresses of the token holders",
          "ids": "IDs of the tokens"
        },
        "returns": {
          "_0": "Balances for each account and token id pair"
        }
      },
      "cloneToken(uint256,uint256[],uint256[])": {
        "details": "Function to mint tokens in batch.",
        "params": {
          "id": "Identifier of the template",
          "ids": "list of IDs of the tokens to be minted",
          "metadataHashes": "list of metadata file hashes"
        }
      },
      "createToken(address,uint256,uint256,uint256,uint256,uint256[3],address[],uint256[],uint256,bool,address)": {
        "details": "Function to mint an amount of a token with the given ID.",
        "params": {
          "feesRecipients": "list of addresses receiving transfer fees",
          "feesRecipientsPercentage": "list of percentage, each one for the corresponding feesRecipients",
          "id": "ID of the token to be minted",
          "isPrivate": "true if holder need approval",
          "legalAuthority": "address of the legal authority",
          "metadataHash": "Metadata file hash",
          "minHoldingForCallback": "minimum holding to propose a callback",
          "recipient": "The address that will own the minted tokens",
          "supply": "Amount of the token to be minted",
          "transactionFees": "transaction fees: [lumpSumFees (in WEI), valueProportionalFees (ratio of transfered amount * 10**8), storageFees (in storageCredit * 10**8)]"
        }
      },
      "isApprovedForAll(address,address)": {
        "params": {
          "account": "The account of the Tokens",
          "operator": "Address of authorized operator"
        },
        "returns": {
          "_0": "True if the operator is approved, false if not"
        }
      },
      "isLockedAddress(address)": {
        "details": "Function to check if an address is lockec.",
        "params": {
          "addr": "The address to check"
        }
      },
      "isLockedToken(uint256)": {
        "details": "Function to check if a token is locked.",
        "params": {
          "id": "The token ID"
        }
      },
      "isMaintener(uint256,address)": {
        "details": "Function to check if an address is authorized to maintain a token.",
        "params": {
          "id": "the token id",
          "maintener": "The authorized address"
        },
        "returns": {
          "_0": "true if it's a maintener address"
        }
      },
      "isTokenizer(address)": {
        "details": "Function to check if an address is authorized to create a token.",
        "params": {
          "tokenizer": "The authorized address"
        }
      },
      "lockAddress(address)": {
        "details": "Function to lock an address.",
        "params": {
          "addr": "The address to lock"
        }
      },
      "lockToken(uint256,uint256)": {
        "details": "Function to lock a token.",
        "params": {
          "id": "The token ID"
        }
      },
      "owner()": {
        "details": "Returns the address of the current owner."
      },
      "revokeHolder(uint256,address)": {
        "details": "Function to revoke holder for a private token.",
        "params": {
          "holder": "The authorized address",
          "id": "the token id"
        }
      },
      "revokeMaintener(uint256,address)": {
        "details": "Function to revoke the authorization to maintain a token.",
        "params": {
          "id": "the token id",
          "maintener": "The authorized address"
        }
      },
      "revokeTokenizer(address)": {
        "details": "Function to revoke the authorization to create a token.",
        "params": {
          "tokenizer": "The authorized address"
        }
      },
      "safeBatchTransferFrom(address,address,uint256[],uint256[],bytes)": {
        "details": "Transfers `values` amount(s) of `ids` from the `from` address to the `to` address specified. Caller must be approved to manage the tokens being transferred out of the `from` account. If `to` is a smart contract, will call `onERC1155BatchReceived` on `to` and act appropriately.",
        "params": {
          "data": "Data forwarded to `onERC1155Received` if `to` is a contract receiver",
          "from": "Source address",
          "ids": "IDs of each token type",
          "to": "Target address",
          "values": "Transfer amounts per token type"
        }
      },
      "safeTransferFrom(address,address,uint256,uint256,bytes)": {
        "details": "Transfers `value` amount of an `id` from the `from` address to the `to` address specified. Caller must be approved to manage the tokens being transferred out of the `from` account. If `to` is a smart contract, will call `onERC1155Received` on `to` and act appropriately.",
        "params": {
          "data": "Data forwarded to `onERC1155Received` if `to` is a contract receiver",
          "from": "Source address",
          "id": "ID of the token type",
          "to": "Target address",
          "value": "Transfer amount"
        }
      },
      "setApprovalForAll(address,bool)": {
        "details": "Sets or unsets the approval of a given operator. An operator is allowed to transfer all tokens of the sender on their behalf. Because an account already has operator privileges for itself, this function will revert if the account attempts to set the approval status for itself.",
        "params": {
          "approved": "representing the status of the approval to be set",
          "operator": "address to set the approval"
        }
      },
      "setProxyRegistryAddress(address[10])": {
        "details": "Function to update the operator whitelist",
        "params": {
          "proxyAddresses": "List of addresses"
        }
      },
      "supportsInterface(bytes4)": {
        "params": {
          "_interfaceID": "The interface identifier, as specified in ERC-165"
        },
        "returns": {
          "_0": "`true` if the contract implements `_interfaceID` and"
        }
      },
      "transactionFees(address,uint256,uint256)": {
        "details": "Function to get the transaction price to transfer tokens.",
        "params": {
          "account": "the address from where to transfer the tokens",
          "id": "The token ID",
          "value": "The amount to transfer"
        },
        "returns": {
          "_0": "transfer price"
        }
      },
      "transferOwnership(address)": {
        "details": "Transfers ownership of the contract to a new account (`newOwner`). Can only be called by the current owner."
      },
      "unlockAddress(address)": {
        "details": "Function to unlock an address.",
        "params": {
          "addr": "The address to unlock"
        }
      },
      "unlockToken(uint256,uint256)": {
        "details": "Function to unlock a token.",
        "params": {
          "id": "The token ID"
        }
      },
      "updateToken(uint256,uint256,uint256[3],address[],uint256[],uint256,bool,address)": {
        "details": "Function to update a token with the given ID.",
        "params": {
          "feesRecipients": "list of addresses receiving transfer fees",
          "feesRecipientsPercentage": "list of percentage, each one for the corresponding feesRecipients",
          "id": "ID of the token to be updated",
          "isPrivate": "true if holder need approval",
          "legalAuthority": "address of the legal authority",
          "metadataHash": "Metadata file hash",
          "minHoldingForCallback": "minimum holding to propose a callback",
          "transactionFees": "transaction fees: [lumpSumFees (in WEI), valueProportionalFees (ratio of transfered amount * 10**8), storageFees (in storageCredit * 10**8)]"
        }
      }
    },
    "version": 1
  },
  "userdoc": {
    "kind": "user",
    "methods": {
      "isApprovedForAll(address,address)": {
        "notice": "Queries the approval status of an operator for a given account."
      },
      "supportsInterface(bytes4)": {
        "notice": "Query if a contract implements an interface"
      }
    },
    "version": 1
  }
}