{
  "contractName": "Lockable",
  "abi": [
    {
      "anonymous": false,
      "inputs": [
        {
          "indexed": true,
          "internalType": "address",
          "name": "_owner",
          "type": "address"
        },
        {
          "indexed": true,
          "internalType": "address",
          "name": "_operator",
          "type": "address"
        },
        {
          "indexed": false,
          "internalType": "bool",
          "name": "_approved",
          "type": "bool"
        }
      ],
      "name": "ApprovalForAll",
      "type": "event"
    },
    {
      "anonymous": false,
      "inputs": [
        {
          "indexed": true,
          "internalType": "address",
          "name": "previousOwner",
          "type": "address"
        },
        {
          "indexed": true,
          "internalType": "address",
          "name": "newOwner",
          "type": "address"
        }
      ],
      "name": "OwnershipTransferred",
      "type": "event"
    },
    {
      "anonymous": false,
      "inputs": [
        {
          "indexed": true,
          "internalType": "uint256",
          "name": "_id",
          "type": "uint256"
        },
        {
          "indexed": false,
          "internalType": "uint256",
          "name": "_documentHash",
          "type": "uint256"
        }
      ],
      "name": "TokenUpdated",
      "type": "event"
    },
    {
      "anonymous": false,
      "inputs": [
        {
          "indexed": true,
          "internalType": "address",
          "name": "_operator",
          "type": "address"
        },
        {
          "indexed": true,
          "internalType": "address",
          "name": "_from",
          "type": "address"
        },
        {
          "indexed": true,
          "internalType": "address",
          "name": "_to",
          "type": "address"
        },
        {
          "indexed": false,
          "internalType": "uint256[]",
          "name": "_ids",
          "type": "uint256[]"
        },
        {
          "indexed": false,
          "internalType": "uint256[]",
          "name": "_values",
          "type": "uint256[]"
        }
      ],
      "name": "TransferBatch",
      "type": "event"
    },
    {
      "anonymous": false,
      "inputs": [
        {
          "indexed": true,
          "internalType": "address",
          "name": "_operator",
          "type": "address"
        },
        {
          "indexed": true,
          "internalType": "address",
          "name": "_from",
          "type": "address"
        },
        {
          "indexed": true,
          "internalType": "address",
          "name": "_to",
          "type": "address"
        },
        {
          "indexed": false,
          "internalType": "uint256",
          "name": "_id",
          "type": "uint256"
        },
        {
          "indexed": false,
          "internalType": "uint256",
          "name": "_value",
          "type": "uint256"
        }
      ],
      "name": "TransferSingle",
      "type": "event"
    },
    {
      "anonymous": false,
      "inputs": [
        {
          "indexed": false,
          "internalType": "string",
          "name": "_value",
          "type": "string"
        },
        {
          "indexed": true,
          "internalType": "uint256",
          "name": "_id",
          "type": "uint256"
        }
      ],
      "name": "URI",
      "type": "event"
    },
    {
      "inputs": [
        {
          "internalType": "uint256",
          "name": "",
          "type": "uint256"
        }
      ],
      "name": "_callbacks",
      "outputs": [
        {
          "internalType": "uint256",
          "name": "tokenId",
          "type": "uint256"
        },
        {
          "internalType": "uint256",
          "name": "price",
          "type": "uint256"
        },
        {
          "internalType": "uint256",
          "name": "escrowedAmount",
          "type": "uint256"
        },
        {
          "internalType": "uint256",
          "name": "callCounter",
          "type": "uint256"
        },
        {
          "internalType": "uint256",
          "name": "documentHash",
          "type": "uint256"
        },
        {
          "internalType": "address",
          "name": "caller",
          "type": "address"
        },
        {
          "internalType": "bool",
          "name": "needLegalApproval",
          "type": "bool"
        },
        {
          "internalType": "bool",
          "name": "approvedByLegal",
          "type": "bool"
        },
        {
          "internalType": "bool",
          "name": "refused",
          "type": "bool"
        },
        {
          "internalType": "bool",
          "name": "accepted",
          "type": "bool"
        },
        {
          "internalType": "bool",
          "name": "completed",
          "type": "bool"
        }
      ],
      "stateMutability": "view",
      "type": "function"
    },
    {
      "inputs": [],
      "name": "_config",
      "outputs": [
        {
          "internalType": "uint256",
          "name": "callbackAutoExecuteMaxAddresses",
          "type": "uint256"
        },
        {
          "internalType": "string",
          "name": "baseURI",
          "type": "string"
        },
        {
          "internalType": "string",
          "name": "versionRecipient",
          "type": "string"
        },
        {
          "internalType": "address",
          "name": "owner",
          "type": "address"
        },
        {
          "internalType": "address",
          "name": "GSNTrustedForwarder",
          "type": "address"
        }
      ],
      "stateMutability": "view",
      "type": "function"
    },
    {
      "inputs": [
        {
          "internalType": "uint256",
          "name": "",
          "type": "uint256"
        }
      ],
      "name": "_tokens",
      "outputs": [
        {
          "internalType": "uint256",
          "name": "supply",
          "type": "uint256"
        },
        {
          "internalType": "uint256",
          "name": "decimals",
          "type": "uint256"
        },
        {
          "internalType": "uint256",
          "name": "lumpSumTransactionFees",
          "type": "uint256"
        },
        {
          "internalType": "uint256",
          "name": "valueTransactionFees",
          "type": "uint256"
        },
        {
          "internalType": "uint256",
          "name": "minHoldingForCallback",
          "type": "uint256"
        },
        {
          "internalType": "uint256",
          "name": "metadataHash",
          "type": "uint256"
        },
        {
          "internalType": "address",
          "name": "legalAuthority",
          "type": "address"
        },
        {
          "internalType": "bool",
          "name": "isPrivate",
          "type": "bool"
        },
        {
          "internalType": "bool",
          "name": "locked",
          "type": "bool"
        }
      ],
      "stateMutability": "view",
      "type": "function"
    },
    {
      "inputs": [
        {
          "internalType": "address",
          "name": "",
          "type": "address"
        }
      ],
      "name": "_users",
      "outputs": [
        {
          "internalType": "bool",
          "name": "isTokenizer",
          "type": "bool"
        },
        {
          "internalType": "bool",
          "name": "isLocked",
          "type": "bool"
        },
        {
          "internalType": "uint256",
          "name": "ETHBalance",
          "type": "uint256"
        }
      ],
      "stateMutability": "view",
      "type": "function"
    },
    {
      "inputs": [
        {
          "internalType": "uint256",
          "name": "id",
          "type": "uint256"
        },
        {
          "internalType": "address",
          "name": "holder",
          "type": "address"
        }
      ],
      "name": "approveHolder",
      "outputs": [],
      "stateMutability": "nonpayable",
      "type": "function"
    },
    {
      "inputs": [
        {
          "internalType": "uint256",
          "name": "id",
          "type": "uint256"
        },
        {
          "internalType": "address",
          "name": "maintener",
          "type": "address"
        }
      ],
      "name": "authorizeMaintener",
      "outputs": [],
      "stateMutability": "nonpayable",
      "type": "function"
    },
    {
      "inputs": [
        {
          "internalType": "address",
          "name": "tokenizer",
          "type": "address"
        }
      ],
      "name": "authorizeTokenizer",
      "outputs": [],
      "stateMutability": "nonpayable",
      "type": "function"
    },
    {
      "inputs": [
        {
          "internalType": "address",
          "name": "account",
          "type": "address"
        },
        {
          "internalType": "uint256",
          "name": "id",
          "type": "uint256"
        }
      ],
      "name": "averageAge",
      "outputs": [
        {
          "internalType": "uint256",
          "name": "",
          "type": "uint256"
        }
      ],
      "stateMutability": "view",
      "type": "function"
    },
    {
      "inputs": [
        {
          "internalType": "address",
          "name": "account",
          "type": "address"
        },
        {
          "internalType": "uint256",
          "name": "id",
          "type": "uint256"
        }
      ],
      "name": "balanceOf",
      "outputs": [
        {
          "internalType": "uint256",
          "name": "",
          "type": "uint256"
        }
      ],
      "stateMutability": "view",
      "type": "function"
    },
    {
      "inputs": [
        {
          "internalType": "address[]",
          "name": "accounts",
          "type": "address[]"
        },
        {
          "internalType": "uint256[]",
          "name": "ids",
          "type": "uint256[]"
        }
      ],
      "name": "balanceOfBatch",
      "outputs": [
        {
          "internalType": "uint256[]",
          "name": "",
          "type": "uint256[]"
        }
      ],
      "stateMutability": "view",
      "type": "function"
    },
    {
      "inputs": [
        {
          "internalType": "uint256",
          "name": "id",
          "type": "uint256"
        },
        {
          "internalType": "uint256[]",
          "name": "ids",
          "type": "uint256[]"
        },
        {
          "internalType": "uint256[]",
          "name": "metadataHashes",
          "type": "uint256[]"
        }
      ],
      "name": "cloneToken",
      "outputs": [],
      "stateMutability": "nonpayable",
      "type": "function"
    },
    {
      "inputs": [
        {
          "internalType": "address",
          "name": "recipient",
          "type": "address"
        },
        {
          "internalType": "uint256",
          "name": "id",
          "type": "uint256"
        },
        {
          "internalType": "uint256",
          "name": "supply",
          "type": "uint256"
        },
        {
          "internalType": "uint256",
          "name": "decimals",
          "type": "uint256"
        },
        {
          "internalType": "uint256",
          "name": "metadataHash",
          "type": "uint256"
        },
        {
          "internalType": "uint256[3]",
          "name": "transactionFees",
          "type": "uint256[3]"
        },
        {
          "internalType": "address[]",
          "name": "feesRecipients",
          "type": "address[]"
        },
        {
          "internalType": "uint256[]",
          "name": "feesRecipientsPercentage",
          "type": "uint256[]"
        },
        {
          "internalType": "uint256",
          "name": "minHoldingForCallback",
          "type": "uint256"
        },
        {
          "internalType": "bool",
          "name": "isPrivate",
          "type": "bool"
        },
        {
          "internalType": "address",
          "name": "legalAuthority",
          "type": "address"
        }
      ],
      "name": "createToken",
      "outputs": [],
      "stateMutability": "nonpayable",
      "type": "function"
    },
    {
      "inputs": [
        {
          "internalType": "address",
          "name": "account",
          "type": "address"
        },
        {
          "internalType": "address",
          "name": "operator",
          "type": "address"
        }
      ],
      "name": "isApprovedForAll",
      "outputs": [
        {
          "internalType": "bool",
          "name": "",
          "type": "bool"
        }
      ],
      "stateMutability": "view",
      "type": "function"
    },
    {
      "inputs": [
        {
          "internalType": "uint256",
          "name": "id",
          "type": "uint256"
        },
        {
          "internalType": "address",
          "name": "maintener",
          "type": "address"
        }
      ],
      "name": "isMaintener",
      "outputs": [
        {
          "internalType": "bool",
          "name": "",
          "type": "bool"
        }
      ],
      "stateMutability": "view",
      "type": "function"
    },
    {
      "inputs": [
        {
          "internalType": "address",
          "name": "tokenizer",
          "type": "address"
        }
      ],
      "name": "isTokenizer",
      "outputs": [
        {
          "internalType": "bool",
          "name": "",
          "type": "bool"
        }
      ],
      "stateMutability": "view",
      "type": "function"
    },
    {
      "inputs": [
        {
          "internalType": "address",
          "name": "forwarder",
          "type": "address"
        }
      ],
      "name": "isTrustedForwarder",
      "outputs": [
        {
          "internalType": "bool",
          "name": "",
          "type": "bool"
        }
      ],
      "stateMutability": "view",
      "type": "function"
    },
    {
      "inputs": [],
      "name": "owner",
      "outputs": [
        {
          "internalType": "address",
          "name": "",
          "type": "address"
        }
      ],
      "stateMutability": "view",
      "type": "function"
    },
    {
      "inputs": [
        {
          "internalType": "uint256",
          "name": "id",
          "type": "uint256"
        },
        {
          "internalType": "address",
          "name": "holder",
          "type": "address"
        }
      ],
      "name": "revokeHolder",
      "outputs": [],
      "stateMutability": "nonpayable",
      "type": "function"
    },
    {
      "inputs": [
        {
          "internalType": "uint256",
          "name": "id",
          "type": "uint256"
        },
        {
          "internalType": "address",
          "name": "maintener",
          "type": "address"
        }
      ],
      "name": "revokeMaintener",
      "outputs": [],
      "stateMutability": "nonpayable",
      "type": "function"
    },
    {
      "inputs": [
        {
          "internalType": "address",
          "name": "tokenizer",
          "type": "address"
        }
      ],
      "name": "revokeTokenizer",
      "outputs": [],
      "stateMutability": "nonpayable",
      "type": "function"
    },
    {
      "inputs": [
        {
          "internalType": "address",
          "name": "from",
          "type": "address"
        },
        {
          "internalType": "address",
          "name": "to",
          "type": "address"
        },
        {
          "internalType": "uint256[]",
          "name": "ids",
          "type": "uint256[]"
        },
        {
          "internalType": "uint256[]",
          "name": "values",
          "type": "uint256[]"
        },
        {
          "internalType": "bytes",
          "name": "data",
          "type": "bytes"
        }
      ],
      "name": "safeBatchTransferFrom",
      "outputs": [],
      "stateMutability": "payable",
      "type": "function"
    },
    {
      "inputs": [
        {
          "internalType": "address",
          "name": "from",
          "type": "address"
        },
        {
          "internalType": "address",
          "name": "to",
          "type": "address"
        },
        {
          "internalType": "uint256",
          "name": "id",
          "type": "uint256"
        },
        {
          "internalType": "uint256",
          "name": "value",
          "type": "uint256"
        },
        {
          "internalType": "bytes",
          "name": "data",
          "type": "bytes"
        }
      ],
      "name": "safeTransferFrom",
      "outputs": [],
      "stateMutability": "payable",
      "type": "function"
    },
    {
      "inputs": [
        {
          "internalType": "address",
          "name": "operator",
          "type": "address"
        },
        {
          "internalType": "bool",
          "name": "approved",
          "type": "bool"
        }
      ],
      "name": "setApprovalForAll",
      "outputs": [],
      "stateMutability": "nonpayable",
      "type": "function"
    },
    {
      "inputs": [
        {
          "internalType": "address[10]",
          "name": "proxyAddresses",
          "type": "address[10]"
        }
      ],
      "name": "setProxyRegistryAddress",
      "outputs": [],
      "stateMutability": "nonpayable",
      "type": "function"
    },
    {
      "inputs": [
        {
          "internalType": "bytes4",
          "name": "_interfaceID",
          "type": "bytes4"
        }
      ],
      "name": "supportsInterface",
      "outputs": [
        {
          "internalType": "bool",
          "name": "",
          "type": "bool"
        }
      ],
      "stateMutability": "pure",
      "type": "function"
    },
    {
      "inputs": [
        {
          "internalType": "address",
          "name": "account",
          "type": "address"
        },
        {
          "internalType": "uint256",
          "name": "id",
          "type": "uint256"
        },
        {
          "internalType": "uint256",
          "name": "value",
          "type": "uint256"
        }
      ],
      "name": "transactionFees",
      "outputs": [
        {
          "internalType": "uint256",
          "name": "",
          "type": "uint256"
        }
      ],
      "stateMutability": "view",
      "type": "function"
    },
    {
      "inputs": [
        {
          "internalType": "address",
          "name": "newOwner",
          "type": "address"
        }
      ],
      "name": "transferOwnership",
      "outputs": [],
      "stateMutability": "nonpayable",
      "type": "function"
    },
    {
      "inputs": [
        {
          "internalType": "uint256",
          "name": "id",
          "type": "uint256"
        },
        {
          "internalType": "uint256",
          "name": "metadataHash",
          "type": "uint256"
        },
        {
          "internalType": "uint256[3]",
          "name": "transactionFees",
          "type": "uint256[3]"
        },
        {
          "internalType": "address[]",
          "name": "feesRecipients",
          "type": "address[]"
        },
        {
          "internalType": "uint256[]",
          "name": "feesRecipientsPercentage",
          "type": "uint256[]"
        },
        {
          "internalType": "uint256",
          "name": "minHoldingForCallback",
          "type": "uint256"
        },
        {
          "internalType": "bool",
          "name": "isPrivate",
          "type": "bool"
        },
        {
          "internalType": "address",
          "name": "legalAuthority",
          "type": "address"
        }
      ],
      "name": "updateToken",
      "outputs": [],
      "stateMutability": "nonpayable",
      "type": "function"
    },
    {
      "inputs": [
        {
          "internalType": "uint256",
          "name": "id",
          "type": "uint256"
        }
      ],
      "name": "uri",
      "outputs": [
        {
          "internalType": "string",
          "name": "",
          "type": "string"
        }
      ],
      "stateMutability": "view",
      "type": "function"
    },
    {
      "inputs": [],
      "name": "versionRecipient",
      "outputs": [
        {
          "internalType": "string",
          "name": "",
          "type": "string"
        }
      ],
      "stateMutability": "view",
      "type": "function"
    },
    {
      "inputs": [
        {
          "internalType": "uint256",
          "name": "id",
          "type": "uint256"
        },
        {
          "internalType": "uint256",
          "name": "documentHash",
          "type": "uint256"
        }
      ],
      "name": "lockToken",
      "outputs": [],
      "stateMutability": "nonpayable",
      "type": "function"
    },
    {
      "inputs": [
        {
          "internalType": "uint256",
          "name": "id",
          "type": "uint256"
        },
        {
          "internalType": "uint256",
          "name": "documentHash",
          "type": "uint256"
        }
      ],
      "name": "unlockToken",
      "outputs": [],
      "stateMutability": "nonpayable",
      "type": "function"
    },
    {
      "inputs": [
        {
          "internalType": "uint256",
          "name": "id",
          "type": "uint256"
        }
      ],
      "name": "isLockedToken",
      "outputs": [
        {
          "internalType": "bool",
          "name": "",
          "type": "bool"
        }
      ],
      "stateMutability": "view",
      "type": "function"
    },
    {
      "inputs": [
        {
          "internalType": "address",
          "name": "addr",
          "type": "address"
        }
      ],
      "name": "lockAddress",
      "outputs": [],
      "stateMutability": "nonpayable",
      "type": "function"
    },
    {
      "inputs": [
        {
          "internalType": "address",
          "name": "addr",
          "type": "address"
        }
      ],
      "name": "unlockAddress",
      "outputs": [],
      "stateMutability": "nonpayable",
      "type": "function"
    },
    {
      "inputs": [
        {
          "internalType": "address",
          "name": "addr",
          "type": "address"
        }
      ],
      "name": "isLockedAddress",
      "outputs": [
        {
          "internalType": "bool",
          "name": "",
          "type": "bool"
        }
      ],
      "stateMutability": "view",
      "type": "function"
    }
  ],
  "bytecode": "0x60806040523480156200001157600080fd5b5062000026620000206200002c565b62000062565b62000133565b60006018361080159062000046575062000046336200011f565b156200005c575060131936013560601c6200005f565b50335b90565b6001600160a01b038116620000c3576040517f08c379a00000000000000000000000000000000000000000000000000000000081526004018080602001828103825260268152602001806200433d6026913960400191505060405180910390fd5b6003546040516001600160a01b038084169216907f8be0079c531659141344cd1fd0a4f28419497f9722a3daafe3b4186f6b6457e090600090a3600380546001600160a01b0319166001600160a01b0392909216919091179055565b6004546001600160a01b0390811691161490565b6141fa80620001436000396000f3fe60806040526004361061020e5760003560e01c80638870147b11610118578063c40b87ae116100a0578063e985e9c51161006f578063e985e9c514610f72578063ed70554d14610fad578063f242432a1461102b578063f2fde38b146110be578063f8a5a07c146110f15761020e565b8063c40b87ae14610d2a578063cba54e6014610ec7578063d1660e1814610efa578063d41d0aa314610f395761020e565b8063aba7fe8a116100e7578063aba7fe8a14610c3a578063b7eb5e0a14610c6a578063baa3411014610c9d578063bba75c8314610ccd578063c02f303c14610cf75761020e565b80638870147b14610b625780638aeba37e14610b955780638da5cb5b14610bce578063a22cb46514610bff5761020e565b8063486ff0cd1161019b578063585941d51161016a578063585941d514610a4b5780635dafec1b14610a845780635dd2b9a614610abd578063759c521414610af65780637627b73214610b2f5761020e565b8063486ff0cd146107015780634ab0d253146107165780634e1273f414610898578063572b6c0514610a185761020e565b80632ed42bf7116101e25780632ed42bf71461046e57806334a90d02146105885780633cacd7d6146105bb578063414ed0ce1461060e5780634392e577146106a05761020e565b8062fdd58e1461021357806301ffc9a71461025e5780630e89341c146102a65780632eb2c2d614610345575b600080fd5b34801561021f57600080fd5b5061024c6004803603604081101561023657600080fd5b506001600160a01b038135169060200135611228565b60408051918252519081900360200190f35b34801561026a57600080fd5b506102926004803603602081101561028157600080fd5b50356001600160e01b03191661129d565b604080519115158252519081900360200190f35b3480156102b257600080fd5b506102d0600480360360208110156102c957600080fd5b50356112e4565b6040805160208082528351818301528351919283929083019185019080838360005b8381101561030a5781810151838201526020016102f2565b50505050905090810190601f1680156103375780820380516001836020036101000a031916815260200191505b509250505060405180910390f35b61046c600480360360a081101561035b57600080fd5b6001600160a01b038235811692602081013590911691810190606081016040820135600160201b81111561038e57600080fd5b8201836020820111156103a057600080fd5b803590602001918460208302840111600160201b831117156103c157600080fd5b919390929091602081019035600160201b8111156103de57600080fd5b8201836020820111156103f057600080fd5b803590602001918460208302840111600160201b8311171561041157600080fd5b919390929091602081019035600160201b81111561042e57600080fd5b82018360208201111561044057600080fd5b803590602001918460018302840111600160201b8311171561046157600080fd5b509092509050611385565b005b34801561047a57600080fd5b50610483611658565b604051808681526020018060200180602001856001600160a01b03168152602001846001600160a01b03168152602001838103835287818151815260200191508051906020019080838360005b838110156104e85781810151838201526020016104d0565b50505050905090810190601f1680156105155780820380516001836020036101000a031916815260200191505b50838103825286518152865160209182019188019080838360005b83811015610548578181015183820152602001610530565b50505050905090810190601f1680156105755780820380516001836020036101000a031916815260200191505b5097505050505050505060405180910390f35b34801561059457600080fd5b5061046c600480360360208110156105ab57600080fd5b50356001600160a01b0316611799565b3480156105c757600080fd5b506105ee600480360360208110156105de57600080fd5b50356001600160a01b0316611806565b604080519315158452911515602084015282820152519081900360600190f35b34801561061a57600080fd5b506106386004803603602081101561063157600080fd5b503561182c565b604080519b8c5260208c019a909a528a8a019890985260608a019690965260808901949094526001600160a01b0390921660a0880152151560c0870152151560e086015215156101008501521515610120840152151561014083015251908190036101600190f35b3480156106ac57600080fd5b5061046c60048036036101408110156106c457600080fd5b81019080806101400190600a806020026040519081016040528092919082600a6020028082843760009201919091525091945061189f9350505050565b34801561070d57600080fd5b506102d06118f7565b34801561072257600080fd5b5061046c600480360361014081101561073a57600080fd5b6040805160608181018352843594602081013594810193909260a08401929091840190600390839083908082843760009201919091525091949392602081019250359050600160201b81111561078f57600080fd5b8201836020820111156107a157600080fd5b803590602001918460208302840111600160201b831117156107c257600080fd5b9190808060200260200160405190810160405280939291908181526020018383602002808284376000920191909152509295949360208101935035915050600160201b81111561081157600080fd5b82018360208201111561082357600080fd5b803590602001918460208302840111600160201b8311171561084457600080fd5b919080806020026020016040519081016040528093929190818152602001838360200280828437600092019190915250929550508235935050506020810135151590604001356001600160a01b031661198b565b3480156108a457600080fd5b506109c8600480360360408110156108bb57600080fd5b810190602081018135600160201b8111156108d557600080fd5b8201836020820111156108e757600080fd5b803590602001918460208302840111600160201b8311171561090857600080fd5b9190808060200260200160405190810160405280939291908181526020018383602002808284376000920191909152509295949360208101935035915050600160201b81111561095757600080fd5b82018360208201111561096957600080fd5b803590602001918460208302840111600160201b8311171561098a57600080fd5b919080806020026020016040519081016040528093929190818152602001838360200280828437600092019190915250929550611a7d945050505050565b60408051602080825283518183015283519192839290830191858101910280838360005b83811015610a045781810151838201526020016109ec565b505050509050019250505060405180910390f35b348015610a2457600080fd5b5061029260048036036020811015610a3b57600080fd5b50356001600160a01b0316611c01565b348015610a5757600080fd5b5061024c60048036036040811015610a6e57600080fd5b506001600160a01b038135169060200135611c15565b348015610a9057600080fd5b5061029260048036036040811015610aa757600080fd5b50803590602001356001600160a01b0316611c50565b348015610ac957600080fd5b5061046c60048036036040811015610ae057600080fd5b50803590602001356001600160a01b0316611c5c565b348015610b0257600080fd5b5061046c60048036036040811015610b1957600080fd5b50803590602001356001600160a01b0316611ce4565b348015610b3b57600080fd5b5061046c60048036036020811015610b5257600080fd5b50356001600160a01b0316611d67565b348015610b6e57600080fd5b5061046c60048036036020811015610b8557600080fd5b50356001600160a01b0316611dd2565b348015610ba157600080fd5b5061046c60048036036040811015610bb857600080fd5b50803590602001356001600160a01b0316611e3a565b348015610bda57600080fd5b50610be3611eb8565b604080516001600160a01b039092168252519081900360200190f35b348015610c0b57600080fd5b5061046c60048036036040811015610c2257600080fd5b506001600160a01b0381351690602001351515611ec7565b348015610c4657600080fd5b5061046c60048036036040811015610c5d57600080fd5b5080359060200135611fba565b348015610c7657600080fd5b5061046c60048036036020811015610c8d57600080fd5b50356001600160a01b0316612015565b348015610ca957600080fd5b5061046c60048036036040811015610cc057600080fd5b508035906020013561207e565b348015610cd957600080fd5b5061029260048036036020811015610cf057600080fd5b50356120d4565b348015610d0357600080fd5b5061029260048036036020811015610d1a57600080fd5b50356001600160a01b03166120df565b348015610d3657600080fd5b5061046c60048036036101a0811015610d4e57600080fd5b60408051606081810183526001600160a01b03853516946020810135949381013593828201359360808301359391830192916101008301919060a0840190600390839083908082843760009201919091525091949392602081019250359050600160201b811115610dbe57600080fd5b820183602082011115610dd057600080fd5b803590602001918460208302840111600160201b83111715610df157600080fd5b9190808060200260200160405190810160405280939291908181526020018383602002808284376000920191909152509295949360208101935035915050600160201b811115610e4057600080fd5b820183602082011115610e5257600080fd5b803590602001918460208302840111600160201b83111715610e7357600080fd5b919080806020026020016040519081016040528093929190818152602001838360200280828437600092019190915250929550508235935050506020810135151590604001356001600160a01b03166120ea565b348015610ed357600080fd5b5061029260048036036020811015610eea57600080fd5b50356001600160a01b03166121b5565b348015610f0657600080fd5b5061024c60048036036060811015610f1d57600080fd5b506001600160a01b0381351690602081013590604001356121c0565b348015610f4557600080fd5b5061046c60048036036040811015610f5c57600080fd5b50803590602001356001600160a01b03166121d5565b348015610f7e57600080fd5b5061029260048036036040811015610f9557600080fd5b506001600160a01b0381358116916020013516612250565b348015610fb957600080fd5b50610fd760048036036020811015610fd057600080fd5b503561225c565b60408051998a5260208a0198909852888801969096526060880194909452608087019290925260a08601526001600160a01b031660c0850152151560e0840152151561010083015251908190036101200190f35b61046c600480360360a081101561104157600080fd5b6001600160a01b03823581169260208101359091169160408201359160608101359181019060a081016080820135600160201b81111561108057600080fd5b82018360208201111561109257600080fd5b803590602001918460018302840111600160201b831117156110b357600080fd5b5090925090506122b8565b3480156110ca57600080fd5b5061046c600480360360208110156110e157600080fd5b50356001600160a01b031661242f565b3480156110fd57600080fd5b5061046c6004803603606081101561111457600080fd5b81359190810190604081016020820135600160201b81111561113557600080fd5b82018360208201111561114757600080fd5b803590602001918460208302840111600160201b8311171561116857600080fd5b9190808060200260200160405190810160405280939291908181526020018383602002808284376000920191909152509295949360208101935035915050600160201b8111156111b757600080fd5b8201836020820111156111c957600080fd5b803590602001918460208302840111600160201b831117156111ea57600080fd5b919080806020026020016040519081016040528093929190818152602001838360200280828437600092019190915250929550612482945050505050565b60006001600160a01b03831661126f5760405162461bcd60e51b815260040180806020018281038252602b815260200180613f8f602b913960400191505060405180910390fd5b5060008181526010602090815260408083206001600160a01b03861684526007019091529020545b92915050565b60006001600160e01b031982166301ffc9a760e01b14806112ce57506001600160e01b03198216636cdb3d1360e11b145b156112db575060016112df565b5060005b919050565b60018054604080516020600284861615610100026000190190941693909304601f810184900484028201840190925281815260609361129793919290918301828280156113725780601f1061134757610100808354040283529160200191611372565b820191906000526020600020905b81548152906001019060200180831161135557829003601f168201915b505050505061138084612624565b6126e0565b8483146113c35760405162461bcd60e51b815260040180806020018281038252602e815260200180614166602e913960400191505060405180910390fd5b6001600160a01b0387166114085760405162461bcd60e51b81526004018080602001828103825260288152602001806140006028913960400191505060405180910390fd5b6114106127ea565b6001600160a01b0316886001600160a01b03161480611441575061143b886114366127ea565b612250565b15156001145b61147c5760405162461bcd60e51b815260040180806020018281038252603781526020018061412f6037913960400191505060405180910390fd5b6114eb888888888080602002602001604051908101604052809392919081815260200183836020028082843760009201919091525050604080516020808c0282810182019093528b82529093508b92508a91829185019084908082843760009201919091525061281c92505050565b866001600160a01b0316886001600160a01b03166115076127ea565b6001600160a01b03167f4a39dc06d4c0dbc64b70af90fd698a233a518aa5d07e595d983b8c0526c8f7fb898989896040518080602001806020018381038352878782818152602001925060200280828437600083820152601f01601f19169091018481038352858152602090810191508690860280828437600083820152604051601f909101601f19169092018290039850909650505050505050a461164e6115ae6127ea565b898989898080602002602001604051908101604052809392919081815260200183836020028082843760009201919091525050604080516020808d0282810182019093528c82529093508c92508b91829185019084908082843760009201919091525050604080516020601f8c018190048102820181019092528a815292508a91508990819084018382808284376000920191909152506128d692505050565b5050505050505050565b6000805460018054604080516020600284861615610100026000190190941693909304601f810184900484028201840190925281815293949392918301828280156116e45780601f106116b9576101008083540402835291602001916116e4565b820191906000526020600020905b8154815290600101906020018083116116c757829003601f168201915b50505060028085018054604080516020601f60001961010060018716150201909416959095049283018590048502810185019091528181529596959450909250908301828280156117765780601f1061174b57610100808354040283529160200191611776565b820191906000526020600020905b81548152906001019060200180831161175957829003601f168201915b50505050600383015460049093015491926001600160a01b039081169216905085565b6117a1612ac7565b6117e0576040805162461bcd60e51b8152602060048201819052602482015260008051602061410f833981519152604482015290519081900360640190fd5b6001600160a01b03166000908152600f60205260409020805461ff001916610100179055565b600f602052600090815260409020805460019091015460ff808316926101009004169083565b60116020526000908152604090208054600182015460028301546003840154600485015460059095015493949293919290916001600160a01b0381169060ff600160a01b8204811691600160a81b8104821691600160b01b8204811691600160b81b8104821691600160c01b909104168b565b6118a7612ac7565b6118e6576040805162461bcd60e51b8152602060048201819052602482015260008051602061410f833981519152604482015290519081900360640190fd5b6118f3600582600a613e3a565b5050565b60028054604080516020601f60001961010060018716150201909416859004938401819004810282018101909252828152606093909290918301828280156119805780601f1061195557610100808354040283529160200191611980565b820191906000526020600020905b81548152906001019060200180831161196357829003601f168201915b505050505090505b90565b8761199d816119986127ea565b612aed565b6119dc576040805162461bcd60e51b81526020600482015260176024820152600080516020613fba833981519152604482015290519081900360640190fd5b600089815260106020526040902054611a2c576040805162461bcd60e51b815260206004820152600d60248201526c2ab735b737bbb7103a37b5b2b760991b604482015290519081900360640190fd5b611a3c8989898989898989612b27565b6040805189815290518a917f199acc06cd2556bbc146fa3cb578799037dffcbf256eca32aaf2ef656925d2fd919081900360200190a2505050505050505050565b60608151835114611abf5760405162461bcd60e51b81526004018080602001828103825260308152602001806140546030913960400191505060405180910390fd5b6060835167ffffffffffffffff81118015611ad957600080fd5b50604051908082528060200260200182016040528015611b03578160200160208202803683370190505b50905060005b8451811015611bf95760006001600160a01b0316858281518110611b2957fe5b60200260200101516001600160a01b03161415611b775760405162461bcd60e51b81526004018080602001828103825260348152602001806140ba6034913960400191505060405180910390fd5b60106000858381518110611b8757fe5b602002602001015181526020019081526020016000206007016000868381518110611bae57fe5b60200260200101516001600160a01b03166001600160a01b0316815260200190815260200160002060000154828281518110611be657fe5b6020908102919091010152600101611b09565b509392505050565b6004546001600160a01b0390811691161490565b60008181526010602090815260408083206001600160a01b0386168452600701909152812060010154611c49904290612ccb565b9392505050565b6000611c498383612aed565b81611c69816119986127ea565b611ca8576040805162461bcd60e51b81526020600482015260176024820152600080516020613fba833981519152604482015290519081900360640190fd5b5060009182526010602090815260408084206001600160a01b039093168452600790920190529020600201805462ff0000191662010000179055565b81611cf1816119986127ea565b611d30576040805162461bcd60e51b81526020600482015260176024820152600080516020613fba833981519152604482015290519081900360640190fd5b5060009182526010602090815260408084206001600160a01b039093168452600790920190529020600201805462ff000019169055565b611d6f612ac7565b611dae576040805162461bcd60e51b8152602060048201819052602482015260008051602061410f833981519152604482015290519081900360640190fd5b6001600160a01b03166000908152600f60205260409020805460ff19166001179055565b611dda612ac7565b611e19576040805162461bcd60e51b8152602060048201819052602482015260008051602061410f833981519152604482015290519081900360640190fd5b6001600160a01b03166000908152600f60205260409020805460ff19169055565b611e42612ac7565b611e81576040805162461bcd60e51b8152602060048201819052602482015260008051602061410f833981519152604482015290519081900360640190fd5b60009182526010602090815260408084206001600160a01b039093168452600790920190529020600201805460ff19166001179055565b6003546001600160a01b031690565b816001600160a01b0316611ed96127ea565b6001600160a01b03161415611f1f5760405162461bcd60e51b815260040180806020018281038252602c815260200180614028602c913960400191505060405180910390fd5b80600f6000611f2c6127ea565b6001600160a01b0390811682526020808301939093526040918201600090812091871680825260039092019093529120805460ff191692151592909217909155611f746127ea565b6001600160a01b03167f17307eab39ab6107e8899845ad3d59bd9653f200f220920489ca2b5937696c318360405180821515815260200191505060405180910390a35050565b81611fc7816119986127ea565b612006576040805162461bcd60e51b81526020600482015260176024820152600080516020613fba833981519152604482015290519081900360640190fd5b6120108383612d0d565b505050565b61201d612ac7565b61205c576040805162461bcd60e51b8152602060048201819052602482015260008051602061410f833981519152604482015290519081900360640190fd5b6001600160a01b03166000908152600f60205260409020805461ff0019169055565b8161208b816119986127ea565b6120ca576040805162461bcd60e51b81526020600482015260176024820152600080516020613fba833981519152604482015290519081900360640190fd5b6120108383612d63565b600061129782612dbf565b600061129782612dde565b6120fa6120f56127ea565b612dde565b612139576040805162461bcd60e51b81526020600482015260176024820152600080516020613fba833981519152604482015290519081900360640190fd5b61214c8b8b8b8b8b8b8b8b8b8b8b612e08565b6001600160a01b038b1660006121606127ea565b6001600160a01b03167fc3d58168c5ae7397731d063d5bbf3d657854427343f4c083240f7aacaa2d0f628d8d604051808381526020018281526020019250505060405180910390a45050505050505050505050565b600061129782612f48565b60006121cd848484612f6b565b949350505050565b6121dd612ac7565b61221c576040805162461bcd60e51b8152602060048201819052602482015260008051602061410f833981519152604482015290519081900360640190fd5b60009182526010602090815260408084206001600160a01b039093168452600790920190529020600201805460ff19169055565b6000611c498383613153565b601060205260009081526040902080546001820154600283015460038401546004850154600586015460069096015494959394929391929091906001600160a01b0381169060ff600160a01b8204811691600160a81b90041689565b6001600160a01b0385166122fd5760405162461bcd60e51b81526004018080602001828103825260288152602001806140006028913960400191505060405180910390fd5b6123056127ea565b6001600160a01b0316866001600160a01b03161480612331575061232b866114366127ea565b15156001145b61236c5760405162461bcd60e51b815260040180806020018281038252603781526020018061412f6037913960400191505060405180910390fd5b61237886868686613198565b846001600160a01b0316866001600160a01b03166123946127ea565b6001600160a01b03167fc3d58168c5ae7397731d063d5bbf3d657854427343f4c083240f7aacaa2d0f628787604051808381526020018281526020019250505060405180910390a46124276123e76127ea565b8787878787878080601f01602080910402602001604051908101604052809392919081815260200183838082843760009201919091525061321092505050565b505050505050565b612437612ac7565b612476576040805162461bcd60e51b8152602060048201819052602482015260008051602061410f833981519152604482015290519081900360640190fd5b61247f81613385565b50565b61248d6120f56127ea565b6124cc576040805162461bcd60e51b81526020600482015260176024820152600080516020613fba833981519152604482015290519081900360640190fd5b600083815260106020526040902054158015906124ea575080518251145b61252f576040805162461bcd60e51b8152602060048201526011602482015270496e76616c696420617267756d656e747360781b604482015290519081900360640190fd5b60005b825181101561261e5761256c8484838151811061254b57fe5b602002602001015184848151811061255f57fe5b6020026020010151613426565b6000848152601060205260408120600801805490919061258857fe5b60009182526020822001546001600160a01b0316906125a56127ea565b6001600160a01b03167fc3d58168c5ae7397731d063d5bbf3d657854427343f4c083240f7aacaa2d0f628685815181106125db57fe5b6020026020010151601060008a815260200190815260200160002060000154604051808381526020018281526020019250505060405180910390a4600101612532565b50505050565b60606000825b801561264057600191909101906010900461262a565b60608267ffffffffffffffff8111801561265957600080fd5b506040519080825280601f01601f191660200182016040528015612684576020820181803683370190505b50905060005b838110156126d7576010860692506126a1836135c3565b82600183870303815181106126b257fe5b60200101906001600160f81b031916908160001a90535060108604955060010161268a565b50949350505050565b805182516060918491849184910167ffffffffffffffff8111801561270457600080fd5b506040519080825280601f01601f19166020018201604052801561272f576020820181803683370190505b509050806000805b85518110156127885785818151811061274c57fe5b602001015160f81c60f81b83838060010194508151811061276957fe5b60200101906001600160f81b031916908160001a905350600101612737565b5060005b84518110156127dd578481815181106127a157fe5b602001015160f81c60f81b8383806001019450815181106127be57fe5b60200101906001600160f81b031916908160001a90535060010161278c565b5090979650505050505050565b600060183610801590612801575061280133611c01565b15612815575060131936013560601c611988565b5033611988565b6000803411612846576001600160a01b0385166000908152600f6020526040902060010154612848565b345b905060005b83518110156128c4576128ba61288b878787858151811061286a57fe5b602002602001015187868151811061287e57fe5b6020026020010151613607565b60408051808201909152601081526f092dce6eaccccd2c6d2cadce8408aa8960831b6020820152849190613665565b915060010161284d565b506128cf85826136fc565b5050505050565b6128e8846001600160a01b031661377d565b156124275763bc197c8160e01b6001600160e01b031916846001600160a01b031663bc197c8188888787876040518663ffffffff1660e01b815260040180866001600160a01b03168152602001856001600160a01b03168152602001806020018060200180602001848103845287818151815260200191508051906020019060200280838360005b83811015612988578181015183820152602001612970565b50505050905001848103835286818151815260200191508051906020019060200280838360005b838110156129c75781810151838201526020016129af565b50505050905001848103825285818151815260200191508051906020019080838360005b83811015612a035781810151838201526020016129eb565b50505050905090810190601f168015612a305780820380516001836020036101000a031916815260200191505b5098505050505050505050602060405180830381600087803b158015612a5557600080fd5b505af1158015612a69573d6000803e3d6000fd5b505050506040513d6020811015612a7f57600080fd5b50516001600160e01b031916146124275760405162461bcd60e51b81526004018080602001828103825260368152602001806140846036913960400191505060405180910390fd5b6003546000906001600160a01b0316612ade6127ea565b6001600160a01b031614905090565b60008281526010602090815260408083206001600160a01b038516845260070190915281206002015460ff1680611c495750611c49612ac7565b6000805b8551811015612b5757858181518110612b4057fe5b602002602001015182019150806001019050612b2b565b5060008651118015612b67575060015b8015612b74575080612710145b8015612b81575061271084105b612bc6576040805162461bcd60e51b8152602060048201526011602482015270496e76616c696420617267756d656e747360781b604482015290519081900360640190fd5b6000898152601060209081526040808320600581018c90558a516002808301919091558b840151600383015582518084018452428152928c015183850152600b909101805460018101825590855292909320612c26939283020191613e92565b5060008981526010602090815260409091208751612c4c92600990920191890190613ecc565b5060008981526010602090815260409091208651612c7292600a90920191880190613f20565b505060009788526010602052604090972060048101929092556006909101805460ff60a01b1916600160a01b92151592909202919091176001600160a01b0319166001600160a01b039096169590951790945550505050565b6000611c4983836040518060400160405280601e81526020017f536166654d6174683a207375627472616374696f6e206f766572666c6f770000815250613665565b600082815260106020908152604091829020600601805460ff60a81b191690558151838152915184927f199acc06cd2556bbc146fa3cb578799037dffcbf256eca32aaf2ef656925d2fd92908290030190a25050565b600082815260106020908152604091829020600601805460ff60a81b1916600160a81b1790558151838152915184927f199acc06cd2556bbc146fa3cb578799037dffcbf256eca32aaf2ef656925d2fd92908290030190a25050565b600090815260106020526040902060060154600160a81b900460ff1690565b6001600160a01b0381166000908152600f602052604081205460ff16806112975750611297612ac7565b60008a815260106020526040902054158015612e245750600089115b612e69576040805162461bcd60e51b8152602060048201526011602482015270496e76616c696420617267756d656e747360781b604482015290519081900360640190fd5b60008a81526010602052604081208a815560018082018b905591600790910190612e916127ea565b6001600160a01b03166001600160a01b0316815260200190815260200160002060020160006101000a81548160ff0219169083151502179055506001601060008c815260200190815260200160002060070160008d6001600160a01b03166001600160a01b0316815260200190815260200160002060020160026101000a81548160ff021916908315150217905550612f308a88888888888888612b27565b612f3b8b8b8b6137b4565b5050505050505050505050565b6001600160a01b03166000908152600f6020526040902054610100900460ff1690565b6000828152601060205260408120600b015481904290600019015b6000868152601060205260408120600b01805483908110612fa357fe5b60009182526020822060029091020101546000888152601060205260408120600b018054929350909184908110612fd657fe5b9060005260206000209060020201600160028110612ff057fe5b015460008981526010602090815260408083206001600160a01b038e1684526007019091528120600101549192509083116130935760008981526010602090815260408083206001600160a01b038e168452600701909152902060010154613068906201518090613062908890612ccb565b9061385d565b905080613073575060015b61308788613081838561389f565b9061389f565b860195505050506130d2565b6130a4620151806130628786612ccb565b9050806130af575060015b91935083916130c288613081838561389f565b9095019450505060001901612f86565b506000858152601060205260409020600101546130f3908390600a0a61385d565b6000868152601060205260408120600301549193509061311e906305f5e1009061306290889061389f565b6000878152601060205260409020600201549091506131489061314190836138f8565b84906138f8565b979650505050505050565b600061315f8383613952565b80611c495750506001600160a01b039182166000908152600f602090815260408083209390941682526003909201909152205460ff1690565b60008034116131c2576001600160a01b0385166000908152600f60205260409020600101546131c4565b345b90506132046131d586868686613607565b60408051808201909152601081526f092dce6eaccccd2c6d2cadce8408aa8960831b6020820152839190613665565b90506128cf85826136fc565b613222846001600160a01b031661377d565b156124275763f23a6e6160e01b6001600160e01b031916846001600160a01b031663f23a6e6188888787876040518663ffffffff1660e01b815260040180866001600160a01b03168152602001856001600160a01b0316815260200184815260200183815260200180602001828103825283818151815260200191508051906020019080838360005b838110156132c35781810151838201526020016132ab565b50505050905090810190601f1680156132f05780820380516001836020036101000a031916815260200191505b509650505050505050602060405180830381600087803b15801561331357600080fd5b505af1158015613327573d6000803e3d6000fd5b505050506040513d602081101561333d57600080fd5b50516001600160e01b031916146124275760405162461bcd60e51b81526004018080602001828103825260318152602001806141946031913960400191505060405180910390fd5b6001600160a01b0381166133ca5760405162461bcd60e51b8152600401808060200182810382526026815260200180613fda6026913960400191505060405180910390fd5b6003546040516001600160a01b038084169216907f8be0079c531659141344cd1fd0a4f28419497f9722a3daafe3b4186f6b6457e090600090a3600380546001600160a01b0319166001600160a01b0392909216919091179055565b60008381526010602052604081206008018054612010929061344457fe5b600091825260208083209091015486835260108083526040808520805460018201548351606081018552600284015481526003840154818901528c895294909652600b90910180546001600160a01b03909516968a96929592948a9490939084019291906134ae57fe5b90600052602060002090600202016001600281106134c857fe5b0154905260008a8152601060209081526040918290206009018054835181840281018401909452808452909183018282801561352d57602002820191906000526020600020905b81546001600160a01b0316815260019091019060200180831161350f575b50505060008d815260106020908152604091829020600a018054835181840281018401909452808452929450925083018282801561358a57602002820191906000526020600020905b815481526020019060010190808311613576575b50505060008e8152601060205260409020600481015460069091015490925060ff600160a01b82041691506001600160a01b0316612e08565b600060098260ff16116135dd57506030810160f81b6112df565b8160ff16600a111580156135f55750600f8260ff1611155b1561020e57506057810160f81b6112df565b600061361585858585613a39565b15613650576040805162461bcd60e51b8152602060048201526006602482015265131bd8dad95960d21b604482015290519081900360640190fd5b61365c85858585613a71565b95945050505050565b600081848411156136f45760405162461bcd60e51b81526004018080602001828103825283818151815260200191508051906020019080838360005b838110156136b95781810151838201526020016136a1565b50505050905090810190601f1680156136e65780820380516001836020036101000a031916815260200191505b509250505060405180910390fd5b505050900390565b60003411801561370c5750600081115b15613758576001600160a01b0382166000908152600f602052604090206001015461373790826138f8565b6001600160a01b0383166000908152600f60205260409020600101556118f3565b346118f3576001600160a01b03919091166000908152600f6020526040902060010155565b6000813f7fc5d2460186f7233c927e7db2dcc703c0e500b653ca82273b7bfad8045d85a47081158015906121cd5750141592915050565b600082815260106020526040902060060154600160a01b900460ff16158061380a575060008281526010602090815260408083206001600160a01b038716845260070190915290206002015462010000900460ff165b613852576040805162461bcd60e51b81526020600482015260146024820152731059191c995cdcc81b9bdd08185c1c1c9bdd995960621b604482015290519081900360640190fd5b612010838383613bc5565b6000611c4983836040518060400160405280601a81526020017f536166654d6174683a206469766973696f6e206279207a65726f000000000000815250613dd5565b6000826138ae57506000611297565b828202828482816138bb57fe5b0414611c495760405162461bcd60e51b81526004018080602001828103825260218152602001806140ee6021913960400191505060405180910390fd5b600082820183811015611c49576040805162461bcd60e51b815260206004820152601b60248201527f536166654d6174683a206164646974696f6e206f766572666c6f770000000000604482015290519081900360640190fd5b6000805b600a811015613a2f576000600582600a811061396e57fe5b01546001600160a01b031614613a27576000600582600a811061398d57fe5b01546040805163c455279160e01b81526001600160a01b0388811660048301529151928216935090861691839163c4552791916024808301926020929190829003018186803b1580156139df57600080fd5b505afa1580156139f3573d6000803e3d6000fd5b505050506040513d6020811015613a0957600080fd5b50516001600160a01b03161415613a2557600192505050611297565b505b600101613956565b5060009392505050565b6000613a4483612dbf565b80613a535750613a5385612f48565b80613a625750613a6284612f48565b8061365c575050159392505050565b6040805180820182526014815273496e73756666696369656e742062616c616e636560601b6020808301919091526000858152601082528381206001600160a01b038916825260070190915291822054613acc918490613665565b60008481526010602090815260408083206001600160a01b038a168452600701909152902055613afd8484846137b4565b613b08858484612f6b565b905060005b6000848152601060205260409020600901548110156126d7576000848152601060205260408120600901805483908110613b4357fe5b6000918252602080832090910154878352601090915260408220600a0180546001600160a01b0390921693509084908110613b7a57fe5b6000918252602090912001549050613b98612710613062868461389f565b6001600160a01b039092166000908152600f60205260409020600190810180549093019092555001613b0d565b60008281526010602090815260408083206001600160a01b0387168452600701909152812054613bf590836138f8565b60008481526010602090815260408083206001600160a01b0389168452600701909152902054909150613d045760008381526010602090815260408083206001600160a01b0388168452600701909152902060020154610100900460ff16613cd3576001600160a01b0384166000818152600f60209081526040808320600290810180546001818101835591865284862001899055888552601084528285206008810180549283018155865284862090910180546001600160a01b031916871790559484526007909401909152902001805461ff0019166101001790555b60008381526010602090815260408083206001600160a01b0388168452600701909152902042600190910155613da5565b60008381526010602090815260408083206001600160a01b0388168452600701909152812060010154613d38904290612ccb565b60008581526010602090815260408083206001600160a01b038a16845260070190915281205491925090613d72908490613062908561389f565b60008681526010602090815260408083206001600160a01b038b1684526007019091529020429190910360019091015550505b60009283526010602090815260408085206001600160a01b03909616855260079095019052929091209190915550565b60008183613e245760405162461bcd60e51b81526020600482018181528351602484015283519092839260449091019190850190808383600083156136b95781810151838201526020016136a1565b506000838581613e3057fe5b0495945050505050565b82600a8101928215613e82579160200282015b82811115613e8257825182546001600160a01b0319166001600160a01b03909116178255602090920191600190910190613e4d565b50613e8e929150613f5a565b5090565b8260028101928215613ec0579160200282015b82811115613ec0578251825591602001919060010190613ea5565b50613e8e929150613f79565b828054828255906000526020600020908101928215613e825791602002820182811115613e8257825182546001600160a01b0319166001600160a01b03909116178255602090920191600190910190613e4d565b828054828255906000526020600020908101928215613ec05791602002820182811115613ec0578251825591602001919060010190613ea5565b5b80821115613e8e5780546001600160a01b0319168155600101613f5b565b5b80821115613e8e5760008155600101613f7a56fe455243313135353a2062616c616e636520717565727920666f7220746865207a65726f2061646472657373496e73756666696369656e74207065726d697373696f6e0000000000000000004f776e61626c653a206e6577206f776e657220697320746865207a65726f2061646472657373455243313135353a207461726765742061646472657373206d757374206265206e6f6e2d7a65726f455243313135353a2063616e6e6f742073657420617070726f76616c2073746174757320666f722073656c66455243313135353a206163636f756e747320616e6420494473206d75737420686176652073616d65206c656e67746873455243313135353a20676f7420756e6b6e6f776e2076616c75652066726f6d206f6e4552433131353542617463685265636569766564455243313135353a20736f6d65206164647265737320696e2062617463682062616c616e6365207175657279206973207a65726f536166654d6174683a206d756c7469706c69636174696f6e206f766572666c6f774f776e61626c653a2063616c6c6572206973206e6f7420746865206f776e6572455243313135353a206e656564206f70657261746f7220617070726f76616c20666f7220337264207061727479207472616e7366657273455243313135353a2049447320616e642076616c756573206d75737420686176652073616d65206c656e67746873455243313135353a20676f7420756e6b6e6f776e2076616c75652066726f6d206f6e455243313135355265636569766564a2646970667358221220d7eda4276f4e814b5628ba2e44daac36b57d255c7e76ce85da1f3badff6d87bb64736f6c634300070100334f776e61626c653a206e6577206f776e657220697320746865207a65726f2061646472657373",
  "immutableReferences": {},
  "source": "// SPDX-License-Identifier: GPL-3.0-or-later\npragma solidity ^0.7.1;\n\nimport './Privatizable.sol';\n\ncontract Lockable is Privatizable {\n\n\n    /****************************\n    EXTERNAL FUNCTIONS\n    *****************************/\n\n\n    /**\n     * @dev Function to lock a token.\n     * @param id The token ID\n     */\n    function lockToken(uint256 id, uint256 documentHash) external onlyMaintener(id) {\n        _lockToken(id, documentHash);\n    }\n\n    /**\n     * @dev Function to unlock a token.\n     * @param id The token ID\n     */\n    function unlockToken(uint256 id, uint256 documentHash) external onlyMaintener(id) {\n        _unlockToken(id, documentHash);\n    }\n\n    /**\n     * @dev Function to check if a token is locked.\n     * @param id The token ID\n     */\n    function isLockedToken(uint256 id) external view returns (bool){\n        return _isLockedToken(id);\n    }\n\n    /**\n     * @dev Function to lock an address.\n     * @param addr The address to lock\n     */\n    function lockAddress(address addr) external onlyOwner {\n        _users[addr].isLocked = true;\n    }\n\n    /**\n     * @dev Function to unlock an address.\n     * @param addr The address to unlock\n     */\n    function unlockAddress(address addr) external onlyOwner {\n        _users[addr].isLocked = false;\n    }\n\n    /**\n     * @dev Function to check if an address is lockec.\n     * @param addr The address to check\n     */\n    function isLockedAddress(address addr) external view returns (bool){\n        return _isLockedAddress(addr);\n    }\n\n\n    /****************************\n    INTERNAL FUNCTIONS\n    *****************************/\n\n\n    function _lockToken(uint256 id, uint256 documentHash) internal {\n        _tokens[id].locked = true;\n        emit TokenUpdated(id, documentHash);\n    }\n\n    function _unlockToken(uint256 id, uint256 documentHash) internal {\n        _tokens[id].locked = false;\n        emit TokenUpdated(id, documentHash);\n    }\n\n    function _isLockedToken(uint256 id) internal view returns (bool) {\n        return _tokens[id].locked;\n    }\n\n    function _isLockedAddress(address addr) internal view returns (bool) {\n        return _users[addr].isLocked;\n    }\n\n    function _isLockedMove(address from, address to, uint256 id, uint256 value) internal view returns (bool) {\n        return _isLockedToken(id) || _isLockedAddress(from) || _isLockedAddress(to) || (value == 0);\n    }\n\n    // override ChargeableTransfer._moveTokens\n    function _moveTokens(address from, address to, uint256 id, uint256 value) internal override returns (uint256 fees) {\n        require(!_isLockedMove(from, to, id, value), \"Locked\");\n        return super._moveTokens(from, to, id, value);\n    }\n}\n",
  "sourcePath": "/home/ouziel/Work/StashBloxContracts/contracts/lib/Lockable.sol",
  "compiler": {
    "name": "solc",
    "version": "0.7.1+commit.f4a555be.Emscripten.clang"
  },
  "schemaVersion": "3.2.3",
  "updatedAt": "2020-10-22T09:44:00.929Z",
  "devdoc": {
    "kind": "dev",
    "methods": {
      "approveHolder(uint256,address)": {
        "details": "Function to approve holder for a private token.",
        "params": {
          "holder": "The authorized address",
          "id": "the token id"
        }
      },
      "authorizeMaintener(uint256,address)": {
        "details": "Function to authorize an address to maintain a token.",
        "params": {
          "maintener": "The authorized address"
        }
      },
      "authorizeTokenizer(address)": {
        "details": "Function to authorize an address to create a token.",
        "params": {
          "tokenizer": "The authorized address"
        }
      },
      "averageAge(address,uint256)": {
        "details": "Function to get the average age of the token for the given address.",
        "params": {
          "account": "the address from where to transfer the tokens",
          "id": "The token ID"
        },
        "returns": {
          "_0": "average age in seconds"
        }
      },
      "balanceOf(address,uint256)": {
        "details": "Get the specified address' balance for token with specified ID. Attempting to query the zero account for a balance will result in a revert.",
        "params": {
          "account": "The address of the token holder",
          "id": "ID of the token"
        },
        "returns": {
          "_0": "The account's balance of the token type requested"
        }
      },
      "balanceOfBatch(address[],uint256[])": {
        "details": "Get the balance of multiple account/token pairs. If any of the query accounts is the zero account, this query will revert.",
        "params": {
          "accounts": "The addresses of the token holders",
          "ids": "IDs of the tokens"
        },
        "returns": {
          "_0": "Balances for each account and token id pair"
        }
      },
      "cloneToken(uint256,uint256[],uint256[])": {
        "details": "Function to mint tokens in batch.",
        "params": {
          "id": "Identifier of the template",
          "ids": "list of IDs of the tokens to be minted",
          "metadataHashes": "list of metadata file hashes"
        }
      },
      "createToken(address,uint256,uint256,uint256,uint256,uint256[3],address[],uint256[],uint256,bool,address)": {
        "details": "Function to mint an amount of a token with the given ID.",
        "params": {
          "feesRecipients": "list of addresses receiving transfer fees",
          "feesRecipientsPercentage": "list of percentage, each one for the corresponding feesRecipients",
          "id": "ID of the token to be minted",
          "isPrivate": "true if holder need approval",
          "legalAuthority": "address of the legal authority",
          "metadataHash": "Metadata file hash",
          "minHoldingForCallback": "minimum holding to propose a callback",
          "recipient": "The address that will own the minted tokens",
          "supply": "Amount of the token to be minted",
          "transactionFees": "transaction fees: [lumpSumFees (in WEI), valueProportionalFees (ratio of transfered amount * 10**8), storageFees (in storageCredit * 10**8)]"
        }
      },
      "isApprovedForAll(address,address)": {
        "params": {
          "account": "The account of the Tokens",
          "operator": "Address of authorized operator"
        },
        "returns": {
          "_0": "True if the operator is approved, false if not"
        }
      },
      "isLockedAddress(address)": {
        "details": "Function to check if an address is lockec.",
        "params": {
          "addr": "The address to check"
        }
      },
      "isLockedToken(uint256)": {
        "details": "Function to check if a token is locked.",
        "params": {
          "id": "The token ID"
        }
      },
      "isMaintener(uint256,address)": {
        "details": "Function to check if an address is authorized to maintain a token.",
        "params": {
          "id": "the token id",
          "maintener": "The authorized address"
        },
        "returns": {
          "_0": "true if it's a maintener address"
        }
      },
      "isTokenizer(address)": {
        "details": "Function to check if an address is authorized to create a token.",
        "params": {
          "tokenizer": "The authorized address"
        }
      },
      "lockAddress(address)": {
        "details": "Function to lock an address.",
        "params": {
          "addr": "The address to lock"
        }
      },
      "lockToken(uint256,uint256)": {
        "details": "Function to lock a token.",
        "params": {
          "id": "The token ID"
        }
      },
      "owner()": {
        "details": "Returns the address of the current owner."
      },
      "revokeHolder(uint256,address)": {
        "details": "Function to revoke holder for a private token.",
        "params": {
          "holder": "The authorized address",
          "id": "the token id"
        }
      },
      "revokeMaintener(uint256,address)": {
        "details": "Function to revoke the authorization to maintain a token.",
        "params": {
          "id": "the token id",
          "maintener": "The authorized address"
        }
      },
      "revokeTokenizer(address)": {
        "details": "Function to revoke the authorization to create a token.",
        "params": {
          "tokenizer": "The authorized address"
        }
      },
      "safeBatchTransferFrom(address,address,uint256[],uint256[],bytes)": {
        "details": "Transfers `values` amount(s) of `ids` from the `from` address to the `to` address specified. Caller must be approved to manage the tokens being transferred out of the `from` account. If `to` is a smart contract, will call `onERC1155BatchReceived` on `to` and act appropriately.",
        "params": {
          "data": "Data forwarded to `onERC1155Received` if `to` is a contract receiver",
          "from": "Source address",
          "ids": "IDs of each token type",
          "to": "Target address",
          "values": "Transfer amounts per token type"
        }
      },
      "safeTransferFrom(address,address,uint256,uint256,bytes)": {
        "details": "Transfers `value` amount of an `id` from the `from` address to the `to` address specified. Caller must be approved to manage the tokens being transferred out of the `from` account. If `to` is a smart contract, will call `onERC1155Received` on `to` and act appropriately.",
        "params": {
          "data": "Data forwarded to `onERC1155Received` if `to` is a contract receiver",
          "from": "Source address",
          "id": "ID of the token type",
          "to": "Target address",
          "value": "Transfer amount"
        }
      },
      "setApprovalForAll(address,bool)": {
        "details": "Sets or unsets the approval of a given operator. An operator is allowed to transfer all tokens of the sender on their behalf. Because an account already has operator privileges for itself, this function will revert if the account attempts to set the approval status for itself.",
        "params": {
          "approved": "representing the status of the approval to be set",
          "operator": "address to set the approval"
        }
      },
      "setProxyRegistryAddress(address[10])": {
        "details": "Function to update the operator whitelist",
        "params": {
          "proxyAddresses": "List of addresses"
        }
      },
      "supportsInterface(bytes4)": {
        "params": {
          "_interfaceID": "The interface identifier, as specified in ERC-165"
        },
        "returns": {
          "_0": "`true` if the contract implements `_interfaceID` and"
        }
      },
      "transactionFees(address,uint256,uint256)": {
        "details": "Function to get the transaction price to transfer tokens.",
        "params": {
          "account": "the address from where to transfer the tokens",
          "id": "The token ID",
          "value": "The amount to transfer"
        },
        "returns": {
          "_0": "transfer price"
        }
      },
      "transferOwnership(address)": {
        "details": "Transfers ownership of the contract to a new account (`newOwner`). Can only be called by the current owner."
      },
      "unlockAddress(address)": {
        "details": "Function to unlock an address.",
        "params": {
          "addr": "The address to unlock"
        }
      },
      "unlockToken(uint256,uint256)": {
        "details": "Function to unlock a token.",
        "params": {
          "id": "The token ID"
        }
      },
      "updateToken(uint256,uint256,uint256[3],address[],uint256[],uint256,bool,address)": {
        "details": "Function to update a token with the given ID.",
        "params": {
          "feesRecipients": "list of addresses receiving transfer fees",
          "feesRecipientsPercentage": "list of percentage, each one for the corresponding feesRecipients",
          "id": "ID of the token to be updated",
          "isPrivate": "true if holder need approval",
          "legalAuthority": "address of the legal authority",
          "metadataHash": "Metadata file hash",
          "minHoldingForCallback": "minimum holding to propose a callback",
          "transactionFees": "transaction fees: [lumpSumFees (in WEI), valueProportionalFees (ratio of transfered amount * 10**8), storageFees (in storageCredit * 10**8)]"
        }
      },
      "uri(uint256)": {
        "params": {
          "id": "Token ID"
        },
        "returns": {
          "_0": "URI string"
        }
      }
    },
    "version": 1
  },
  "userdoc": {
    "kind": "user",
    "methods": {
      "isApprovedForAll(address,address)": {
        "notice": "Queries the approval status of an operator for a given account."
      },
      "isTrustedForwarder(address)": {
        "notice": "return if the forwarder is trusted to forward relayed transactions to us. the forwarder is required to verify the sender's signature, and verify the call is not a replay."
      },
      "supportsInterface(bytes4)": {
        "notice": "Query if a contract implements an interface"
      }
    },
    "version": 1
  }
}