{
  "contractName": "LockableToken",
  "abi": [
    {
      "anonymous": false,
      "inputs": [
        {
          "indexed": true,
          "internalType": "address",
          "name": "_owner",
          "type": "address"
        },
        {
          "indexed": true,
          "internalType": "address",
          "name": "_operator",
          "type": "address"
        },
        {
          "indexed": false,
          "internalType": "bool",
          "name": "_approved",
          "type": "bool"
        }
      ],
      "name": "ApprovalForAll",
      "type": "event"
    },
    {
      "anonymous": false,
      "inputs": [
        {
          "indexed": true,
          "internalType": "uint256",
          "name": "_CallbackId",
          "type": "uint256"
        }
      ],
      "name": "CallbackUpdated",
      "type": "event"
    },
    {
      "anonymous": false,
      "inputs": [
        {
          "indexed": true,
          "internalType": "address",
          "name": "previousOwner",
          "type": "address"
        },
        {
          "indexed": true,
          "internalType": "address",
          "name": "newOwner",
          "type": "address"
        }
      ],
      "name": "OwnershipTransferred",
      "type": "event"
    },
    {
      "anonymous": false,
      "inputs": [
        {
          "indexed": true,
          "internalType": "uint256",
          "name": "_id",
          "type": "uint256"
        },
        {
          "indexed": false,
          "internalType": "uint256",
          "name": "_documentHash",
          "type": "uint256"
        }
      ],
      "name": "TokenUpdated",
      "type": "event"
    },
    {
      "anonymous": false,
      "inputs": [
        {
          "indexed": true,
          "internalType": "address",
          "name": "_operator",
          "type": "address"
        },
        {
          "indexed": true,
          "internalType": "address",
          "name": "_from",
          "type": "address"
        },
        {
          "indexed": true,
          "internalType": "address",
          "name": "_to",
          "type": "address"
        },
        {
          "indexed": false,
          "internalType": "uint256[]",
          "name": "_ids",
          "type": "uint256[]"
        },
        {
          "indexed": false,
          "internalType": "uint256[]",
          "name": "_values",
          "type": "uint256[]"
        }
      ],
      "name": "TransferBatch",
      "type": "event"
    },
    {
      "anonymous": false,
      "inputs": [
        {
          "indexed": true,
          "internalType": "address",
          "name": "_operator",
          "type": "address"
        },
        {
          "indexed": true,
          "internalType": "address",
          "name": "_from",
          "type": "address"
        },
        {
          "indexed": true,
          "internalType": "address",
          "name": "_to",
          "type": "address"
        },
        {
          "indexed": false,
          "internalType": "uint256",
          "name": "_id",
          "type": "uint256"
        },
        {
          "indexed": false,
          "internalType": "uint256",
          "name": "_value",
          "type": "uint256"
        }
      ],
      "name": "TransferSingle",
      "type": "event"
    },
    {
      "anonymous": false,
      "inputs": [
        {
          "indexed": false,
          "internalType": "string",
          "name": "_value",
          "type": "string"
        },
        {
          "indexed": true,
          "internalType": "uint256",
          "name": "_id",
          "type": "uint256"
        }
      ],
      "name": "URI",
      "type": "event"
    },
    {
      "inputs": [
        {
          "internalType": "uint256",
          "name": "",
          "type": "uint256"
        }
      ],
      "name": "_callbacks",
      "outputs": [
        {
          "internalType": "uint256",
          "name": "tokenId",
          "type": "uint256"
        },
        {
          "internalType": "uint256",
          "name": "price",
          "type": "uint256"
        },
        {
          "internalType": "uint256",
          "name": "escrowedAmount",
          "type": "uint256"
        },
        {
          "internalType": "uint256",
          "name": "callCounter",
          "type": "uint256"
        },
        {
          "internalType": "uint256",
          "name": "documentHash",
          "type": "uint256"
        },
        {
          "internalType": "address",
          "name": "caller",
          "type": "address"
        },
        {
          "internalType": "bool",
          "name": "needLegalApproval",
          "type": "bool"
        },
        {
          "internalType": "bool",
          "name": "approvedByLegal",
          "type": "bool"
        },
        {
          "internalType": "bool",
          "name": "refused",
          "type": "bool"
        },
        {
          "internalType": "bool",
          "name": "accepted",
          "type": "bool"
        },
        {
          "internalType": "bool",
          "name": "completed",
          "type": "bool"
        }
      ],
      "stateMutability": "view",
      "type": "function"
    },
    {
      "inputs": [],
      "name": "_config",
      "outputs": [
        {
          "internalType": "uint256",
          "name": "callbackAutoExecuteMaxAddresses",
          "type": "uint256"
        },
        {
          "internalType": "string",
          "name": "baseURI",
          "type": "string"
        }
      ],
      "stateMutability": "view",
      "type": "function"
    },
    {
      "inputs": [
        {
          "internalType": "uint256",
          "name": "",
          "type": "uint256"
        }
      ],
      "name": "_tokens",
      "outputs": [
        {
          "internalType": "uint256",
          "name": "supply",
          "type": "uint256"
        },
        {
          "internalType": "uint256",
          "name": "decimals",
          "type": "uint256"
        },
        {
          "internalType": "uint256",
          "name": "lumpSumTransactionFees",
          "type": "uint256"
        },
        {
          "internalType": "uint256",
          "name": "valueTransactionFees",
          "type": "uint256"
        },
        {
          "internalType": "uint256",
          "name": "minHoldingForCallback",
          "type": "uint256"
        },
        {
          "internalType": "uint256",
          "name": "metadataHash",
          "type": "uint256"
        },
        {
          "internalType": "address",
          "name": "legalAuthority",
          "type": "address"
        },
        {
          "internalType": "bool",
          "name": "isPrivate",
          "type": "bool"
        },
        {
          "internalType": "bool",
          "name": "locked",
          "type": "bool"
        }
      ],
      "stateMutability": "view",
      "type": "function"
    },
    {
      "inputs": [
        {
          "internalType": "address",
          "name": "",
          "type": "address"
        }
      ],
      "name": "_users",
      "outputs": [
        {
          "internalType": "bool",
          "name": "isTokenizer",
          "type": "bool"
        },
        {
          "internalType": "bool",
          "name": "isLocked",
          "type": "bool"
        },
        {
          "internalType": "uint256",
          "name": "ETHBalance",
          "type": "uint256"
        }
      ],
      "stateMutability": "view",
      "type": "function"
    },
    {
      "inputs": [
        {
          "internalType": "uint256",
          "name": "id",
          "type": "uint256"
        },
        {
          "internalType": "address",
          "name": "maintener",
          "type": "address"
        }
      ],
      "name": "authorizeMaintener",
      "outputs": [],
      "stateMutability": "nonpayable",
      "type": "function"
    },
    {
      "inputs": [
        {
          "internalType": "address",
          "name": "tokenizer",
          "type": "address"
        }
      ],
      "name": "authorizeTokenizer",
      "outputs": [],
      "stateMutability": "nonpayable",
      "type": "function"
    },
    {
      "inputs": [
        {
          "internalType": "address",
          "name": "account",
          "type": "address"
        },
        {
          "internalType": "uint256",
          "name": "id",
          "type": "uint256"
        }
      ],
      "name": "balanceOf",
      "outputs": [
        {
          "internalType": "uint256",
          "name": "",
          "type": "uint256"
        }
      ],
      "stateMutability": "view",
      "type": "function"
    },
    {
      "inputs": [
        {
          "internalType": "address[]",
          "name": "accounts",
          "type": "address[]"
        },
        {
          "internalType": "uint256[]",
          "name": "ids",
          "type": "uint256[]"
        }
      ],
      "name": "balanceOfBatch",
      "outputs": [
        {
          "internalType": "uint256[]",
          "name": "",
          "type": "uint256[]"
        }
      ],
      "stateMutability": "view",
      "type": "function"
    },
    {
      "inputs": [
        {
          "internalType": "uint256",
          "name": "id",
          "type": "uint256"
        },
        {
          "internalType": "uint256[]",
          "name": "ids",
          "type": "uint256[]"
        },
        {
          "internalType": "uint256[]",
          "name": "metadataHashes",
          "type": "uint256[]"
        }
      ],
      "name": "cloneToken",
      "outputs": [],
      "stateMutability": "nonpayable",
      "type": "function"
    },
    {
      "inputs": [
        {
          "internalType": "address",
          "name": "recipient",
          "type": "address"
        },
        {
          "internalType": "uint256",
          "name": "id",
          "type": "uint256"
        },
        {
          "internalType": "uint256",
          "name": "supply",
          "type": "uint256"
        },
        {
          "internalType": "uint256",
          "name": "decimals",
          "type": "uint256"
        },
        {
          "internalType": "uint256",
          "name": "metadataHash",
          "type": "uint256"
        },
        {
          "internalType": "uint256[3]",
          "name": "transactionFees",
          "type": "uint256[3]"
        },
        {
          "internalType": "address[]",
          "name": "feesRecipients",
          "type": "address[]"
        },
        {
          "internalType": "uint256[]",
          "name": "feesRecipientsPercentage",
          "type": "uint256[]"
        },
        {
          "internalType": "uint256",
          "name": "minHoldingForCallback",
          "type": "uint256"
        },
        {
          "internalType": "bool",
          "name": "isPrivate",
          "type": "bool"
        },
        {
          "internalType": "address",
          "name": "legalAuthority",
          "type": "address"
        }
      ],
      "name": "createToken",
      "outputs": [],
      "stateMutability": "nonpayable",
      "type": "function"
    },
    {
      "inputs": [
        {
          "internalType": "address",
          "name": "account",
          "type": "address"
        },
        {
          "internalType": "address",
          "name": "operator",
          "type": "address"
        }
      ],
      "name": "isApprovedForAll",
      "outputs": [
        {
          "internalType": "bool",
          "name": "",
          "type": "bool"
        }
      ],
      "stateMutability": "view",
      "type": "function"
    },
    {
      "inputs": [
        {
          "internalType": "uint256",
          "name": "id",
          "type": "uint256"
        },
        {
          "internalType": "address",
          "name": "maintener",
          "type": "address"
        }
      ],
      "name": "isMaintener",
      "outputs": [
        {
          "internalType": "bool",
          "name": "",
          "type": "bool"
        }
      ],
      "stateMutability": "view",
      "type": "function"
    },
    {
      "inputs": [
        {
          "internalType": "address",
          "name": "tokenizer",
          "type": "address"
        }
      ],
      "name": "isTokenizer",
      "outputs": [
        {
          "internalType": "bool",
          "name": "",
          "type": "bool"
        }
      ],
      "stateMutability": "view",
      "type": "function"
    },
    {
      "inputs": [],
      "name": "owner",
      "outputs": [
        {
          "internalType": "address",
          "name": "",
          "type": "address"
        }
      ],
      "stateMutability": "view",
      "type": "function"
    },
    {
      "inputs": [
        {
          "internalType": "uint256",
          "name": "id",
          "type": "uint256"
        },
        {
          "internalType": "address",
          "name": "maintener",
          "type": "address"
        }
      ],
      "name": "revokeMaintener",
      "outputs": [],
      "stateMutability": "nonpayable",
      "type": "function"
    },
    {
      "inputs": [
        {
          "internalType": "address",
          "name": "tokenizer",
          "type": "address"
        }
      ],
      "name": "revokeTokenizer",
      "outputs": [],
      "stateMutability": "nonpayable",
      "type": "function"
    },
    {
      "inputs": [
        {
          "internalType": "address",
          "name": "from",
          "type": "address"
        },
        {
          "internalType": "address",
          "name": "to",
          "type": "address"
        },
        {
          "internalType": "uint256[]",
          "name": "ids",
          "type": "uint256[]"
        },
        {
          "internalType": "uint256[]",
          "name": "values",
          "type": "uint256[]"
        },
        {
          "internalType": "bytes",
          "name": "data",
          "type": "bytes"
        }
      ],
      "name": "safeBatchTransferFrom",
      "outputs": [],
      "stateMutability": "payable",
      "type": "function"
    },
    {
      "inputs": [
        {
          "internalType": "address",
          "name": "from",
          "type": "address"
        },
        {
          "internalType": "address",
          "name": "to",
          "type": "address"
        },
        {
          "internalType": "uint256",
          "name": "id",
          "type": "uint256"
        },
        {
          "internalType": "uint256",
          "name": "value",
          "type": "uint256"
        },
        {
          "internalType": "bytes",
          "name": "data",
          "type": "bytes"
        }
      ],
      "name": "safeTransferFrom",
      "outputs": [],
      "stateMutability": "payable",
      "type": "function"
    },
    {
      "inputs": [
        {
          "internalType": "address",
          "name": "operator",
          "type": "address"
        },
        {
          "internalType": "bool",
          "name": "approved",
          "type": "bool"
        }
      ],
      "name": "setApprovalForAll",
      "outputs": [],
      "stateMutability": "nonpayable",
      "type": "function"
    },
    {
      "inputs": [
        {
          "internalType": "address[10]",
          "name": "proxyAddresses",
          "type": "address[10]"
        }
      ],
      "name": "setProxyRegistryAddress",
      "outputs": [],
      "stateMutability": "nonpayable",
      "type": "function"
    },
    {
      "inputs": [
        {
          "internalType": "bytes4",
          "name": "_interfaceID",
          "type": "bytes4"
        }
      ],
      "name": "supportsInterface",
      "outputs": [
        {
          "internalType": "bool",
          "name": "",
          "type": "bool"
        }
      ],
      "stateMutability": "pure",
      "type": "function"
    },
    {
      "inputs": [
        {
          "internalType": "address",
          "name": "account",
          "type": "address"
        },
        {
          "internalType": "uint256",
          "name": "id",
          "type": "uint256"
        },
        {
          "internalType": "uint256",
          "name": "value",
          "type": "uint256"
        }
      ],
      "name": "transactionFees",
      "outputs": [
        {
          "internalType": "uint256",
          "name": "",
          "type": "uint256"
        }
      ],
      "stateMutability": "view",
      "type": "function"
    },
    {
      "inputs": [
        {
          "internalType": "address",
          "name": "newOwner",
          "type": "address"
        }
      ],
      "name": "transferOwnership",
      "outputs": [],
      "stateMutability": "nonpayable",
      "type": "function"
    },
    {
      "inputs": [
        {
          "internalType": "uint256",
          "name": "id",
          "type": "uint256"
        },
        {
          "internalType": "uint256",
          "name": "metadataHash",
          "type": "uint256"
        },
        {
          "internalType": "uint256[3]",
          "name": "transactionFees",
          "type": "uint256[3]"
        },
        {
          "internalType": "address[]",
          "name": "feesRecipients",
          "type": "address[]"
        },
        {
          "internalType": "uint256[]",
          "name": "feesRecipientsPercentage",
          "type": "uint256[]"
        },
        {
          "internalType": "uint256",
          "name": "minHoldingForCallback",
          "type": "uint256"
        },
        {
          "internalType": "bool",
          "name": "isPrivate",
          "type": "bool"
        },
        {
          "internalType": "address",
          "name": "legalAuthority",
          "type": "address"
        }
      ],
      "name": "updateToken",
      "outputs": [],
      "stateMutability": "nonpayable",
      "type": "function"
    },
    {
      "inputs": [
        {
          "internalType": "uint256",
          "name": "id",
          "type": "uint256"
        },
        {
          "internalType": "uint256",
          "name": "documentHash",
          "type": "uint256"
        }
      ],
      "name": "lockToken",
      "outputs": [],
      "stateMutability": "nonpayable",
      "type": "function"
    },
    {
      "inputs": [
        {
          "internalType": "uint256",
          "name": "id",
          "type": "uint256"
        },
        {
          "internalType": "uint256",
          "name": "documentHash",
          "type": "uint256"
        }
      ],
      "name": "unlockToken",
      "outputs": [],
      "stateMutability": "nonpayable",
      "type": "function"
    },
    {
      "inputs": [
        {
          "internalType": "uint256",
          "name": "id",
          "type": "uint256"
        }
      ],
      "name": "isLockedToken",
      "outputs": [
        {
          "internalType": "bool",
          "name": "",
          "type": "bool"
        }
      ],
      "stateMutability": "view",
      "type": "function"
    },
    {
      "inputs": [
        {
          "internalType": "address",
          "name": "addr",
          "type": "address"
        }
      ],
      "name": "lockAddress",
      "outputs": [],
      "stateMutability": "nonpayable",
      "type": "function"
    },
    {
      "inputs": [
        {
          "internalType": "address",
          "name": "addr",
          "type": "address"
        }
      ],
      "name": "unlockAddress",
      "outputs": [],
      "stateMutability": "nonpayable",
      "type": "function"
    },
    {
      "inputs": [
        {
          "internalType": "address",
          "name": "addr",
          "type": "address"
        }
      ],
      "name": "isLockedAddress",
      "outputs": [
        {
          "internalType": "bool",
          "name": "",
          "type": "bool"
        }
      ],
      "stateMutability": "view",
      "type": "function"
    }
  ],
  "bytecode": "0x60806040523480156200001157600080fd5b506200001d3362000023565b620000e0565b6001600160a01b03811662000084576040517f08c379a000000000000000000000000000000000000000000000000000000000815260040180806020018281038252602681526020018062003a706026913960400191505060405180910390fd5b600f546040516001600160a01b038084169216907f8be0079c531659141344cd1fd0a4f28419497f9722a3daafe3b4186f6b6457e090600090a3600f80546001600160a01b0319166001600160a01b0392909216919091179055565b61398080620000f06000396000f3fe6080604052600436106101cc5760003560e01c8063a22cb465116100f7578063cba54e6011610095578063ed70554d11610064578063ed70554d14610d53578063f242432a14610dd1578063f2fde38b14610e64578063f8a5a07c14610e97576101cc565b8063cba54e6014610c6d578063d1660e1814610ca0578063d41d0aa314610cdf578063e985e9c514610d18576101cc565b8063baa34110116100d1578063baa3411014610a43578063bba75c8314610a73578063c02f303c14610a9d578063c40b87ae14610ad0576101cc565b8063a22cb465146109a5578063aba7fe8a146109e0578063b7eb5e0a14610a10576101cc565b80634392e5771161016f5780637627b7321161013e5780637627b732146108d55780638870147b146109085780638aeba37e1461093b5780638da5cb5b14610974576101cc565b80634392e577146105395780634ab0d2531461059a5780634e1273f41461071c5780635dafec1b1461089c576101cc565b80632ed42bf7116101ab5780632ed42bf71461038d57806334a90d02146104215780633cacd7d614610454578063414ed0ce146104a7576101cc565b8062fdd58e146101d157806301ffc9a71461021c5780632eb2c2d614610264575b600080fd5b3480156101dd57600080fd5b5061020a600480360360408110156101f457600080fd5b506001600160a01b038135169060200135610fce565b60408051918252519081900360200190f35b34801561022857600080fd5b506102506004803603602081101561023f57600080fd5b50356001600160e01b031916611043565b604080519115158252519081900360200190f35b61038b600480360360a081101561027a57600080fd5b6001600160a01b038235811692602081013590911691810190606081016040820135600160201b8111156102ad57600080fd5b8201836020820111156102bf57600080fd5b803590602001918460208302840111600160201b831117156102e057600080fd5b919390929091602081019035600160201b8111156102fd57600080fd5b82018360208201111561030f57600080fd5b803590602001918460208302840111600160201b8311171561033057600080fd5b919390929091602081019035600160201b81111561034d57600080fd5b82018360208201111561035f57600080fd5b803590602001918460018302840111600160201b8311171561038057600080fd5b50909250905061108a565b005b34801561039957600080fd5b506103a2611410565b6040518083815260200180602001828103825283818151815260200191508051906020019080838360005b838110156103e55781810151838201526020016103cd565b50505050905090810190601f1680156104125780820380516001836020036101000a031916815260200191505b50935050505060405180910390f35b34801561042d57600080fd5b5061038b6004803603602081101561044457600080fd5b50356001600160a01b03166114a6565b34801561046057600080fd5b506104876004803603602081101561047757600080fd5b50356001600160a01b0316611513565b604080519315158452911515602084015282820152519081900360600190f35b3480156104b357600080fd5b506104d1600480360360208110156104ca57600080fd5b5035611539565b604080519b8c5260208c019a909a528a8a019890985260608a019690965260808901949094526001600160a01b0390921660a0880152151560c0870152151560e086015215156101008501521515610120840152151561014083015251908190036101600190f35b34801561054557600080fd5b5061038b600480360361014081101561055d57600080fd5b81019080806101400190600a806020026040519081016040528092919082600a602002808284376000920191909152509194506115ac9350505050565b3480156105a657600080fd5b5061038b60048036036101408110156105be57600080fd5b6040805160608181018352843594602081013594810193909260a08401929091840190600390839083908082843760009201919091525091949392602081019250359050600160201b81111561061357600080fd5b82018360208201111561062557600080fd5b803590602001918460208302840111600160201b8311171561064657600080fd5b9190808060200260200160405190810160405280939291908181526020018383602002808284376000920191909152509295949360208101935035915050600160201b81111561069557600080fd5b8201836020820111156106a757600080fd5b803590602001918460208302840111600160201b831117156106c857600080fd5b919080806020026020016040519081016040528093929190818152602001838360200280828437600092019190915250929550508235935050506020810135151590604001356001600160a01b0316611604565b34801561072857600080fd5b5061084c6004803603604081101561073f57600080fd5b810190602081018135600160201b81111561075957600080fd5b82018360208201111561076b57600080fd5b803590602001918460208302840111600160201b8311171561078c57600080fd5b9190808060200260200160405190810160405280939291908181526020018383602002808284376000920191909152509295949360208101935035915050600160201b8111156107db57600080fd5b8201836020820111156107ed57600080fd5b803590602001918460208302840111600160201b8311171561080e57600080fd5b9190808060200260200160405190810160405280939291908181526020018383602002808284376000920191909152509295506116fb945050505050565b60408051602080825283518183015283519192839290830191858101910280838360005b83811015610888578181015183820152602001610870565b505050509050019250505060405180910390f35b3480156108a857600080fd5b50610250600480360360408110156108bf57600080fd5b50803590602001356001600160a01b031661187f565b3480156108e157600080fd5b5061038b600480360360208110156108f857600080fd5b50356001600160a01b0316611892565b34801561091457600080fd5b5061038b6004803603602081101561092b57600080fd5b50356001600160a01b03166118fd565b34801561094757600080fd5b5061038b6004803603604081101561095e57600080fd5b50803590602001356001600160a01b0316611965565b34801561098057600080fd5b506109896119e3565b604080516001600160a01b039092168252519081900360200190f35b3480156109b157600080fd5b5061038b600480360360408110156109c857600080fd5b506001600160a01b03813516906020013515156119f2565b3480156109ec57600080fd5b5061038b60048036036040811015610a0357600080fd5b5080359060200135611aa8565b348015610a1c57600080fd5b5061038b60048036036020811015610a3357600080fd5b50356001600160a01b0316611b0d565b348015610a4f57600080fd5b5061038b60048036036040811015610a6657600080fd5b5080359060200135611b76565b348015610a7f57600080fd5b5061025060048036036020811015610a9657600080fd5b5035611bd6565b348015610aa957600080fd5b5061025060048036036020811015610ac057600080fd5b50356001600160a01b0316611be1565b348015610adc57600080fd5b5061038b60048036036101a0811015610af457600080fd5b60408051606081810183526001600160a01b03853516946020810135949381013593828201359360808301359391830192916101008301919060a0840190600390839083908082843760009201919091525091949392602081019250359050600160201b811115610b6457600080fd5b820183602082011115610b7657600080fd5b803590602001918460208302840111600160201b83111715610b9757600080fd5b9190808060200260200160405190810160405280939291908181526020018383602002808284376000920191909152509295949360208101935035915050600160201b811115610be657600080fd5b820183602082011115610bf857600080fd5b803590602001918460208302840111600160201b83111715610c1957600080fd5b919080806020026020016040519081016040528093929190818152602001838360200280828437600092019190915250929550508235935050506020810135151590604001356001600160a01b0316611bec565b348015610c7957600080fd5b5061025060048036036020811015610c9057600080fd5b50356001600160a01b0316611cab565b348015610cac57600080fd5b5061020a60048036036060811015610cc357600080fd5b506001600160a01b038135169060208101359060400135611cb6565b348015610ceb57600080fd5b5061038b60048036036040811015610d0257600080fd5b50803590602001356001600160a01b0316611ccb565b348015610d2457600080fd5b5061025060048036036040811015610d3b57600080fd5b506001600160a01b0381358116916020013516611d46565b348015610d5f57600080fd5b50610d7d60048036036020811015610d7657600080fd5b5035611d87565b60408051998a5260208a0198909852888801969096526060880194909452608087019290925260a08601526001600160a01b031660c0850152151560e0840152151561010083015251908190036101200190f35b61038b600480360360a0811015610de757600080fd5b6001600160a01b03823581169260208101359091169160408201359160608101359181019060a081016080820135600160201b811115610e2657600080fd5b820183602082011115610e3857600080fd5b803590602001918460018302840111600160201b83111715610e5957600080fd5b509092509050611de3565b348015610e7057600080fd5b5061038b60048036036020811015610e8757600080fd5b50356001600160a01b031661203d565b348015610ea357600080fd5b5061038b60048036036060811015610eba57600080fd5b81359190810190604081016020820135600160201b811115610edb57600080fd5b820183602082011115610eed57600080fd5b803590602001918460208302840111600160201b83111715610f0e57600080fd5b9190808060200260200160405190810160405280939291908181526020018383602002808284376000920191909152509295949360208101935035915050600160201b811115610f5d57600080fd5b820183602082011115610f6f57600080fd5b803590602001918460208302840111600160201b83111715610f9057600080fd5b919080806020026020016040519081016040528093929190818152602001838360200280828437600092019190915250929550612090945050505050565b60006001600160a01b0383166110155760405162461bcd60e51b815260040180806020018281038252602b815260200180613735602b913960400191505060405180910390fd5b506000818152600d602090815260408083206001600160a01b03861684526007019091529020545b92915050565b60006001600160e01b031982166301ffc9a760e01b148061107457506001600160e01b03198216636cdb3d1360e11b145b1561108157506001611085565b5060005b919050565b8483146110c85760405162461bcd60e51b815260040180806020018281038252602e8152602001806138ec602e913960400191505060405180910390fd5b6001600160a01b03871661110d5760405162461bcd60e51b81526004018080602001828103825260288152602001806137866028913960400191505060405180910390fd5b6001600160a01b03881633148061112f57506111298833611d46565b15156001145b61116a5760405162461bcd60e51b81526004018080602001828103825260378152602001806138b56037913960400191505060405180910390fd5b6000803411611194576001600160a01b0389166000908152600c6020526040902060010154611196565b345b905060005b868110156111e0576111d48a8a8a8a858181106111b457fe5b905060200201358989868181106111c757fe5b9050602002013586612233565b9091039060010161119b565b50876001600160a01b0316896001600160a01b0316336001600160a01b03167f4a39dc06d4c0dbc64b70af90fd698a233a518aa5d07e595d983b8c0526c8f7fb8a8a8a8a6040518080602001806020018381038352878782818152602001925060200280828437600083820152601f01601f19169091018481038352858152602090810191508690860280828437600083820152604051601f909101601f19169092018290039850909650505050505050a4611336338a8a8a8a8080602002602001604051908101604052809392919081815260200183836020028082843760009201919091525050604080516020808e0282810182019093528d82529093508d92508c91829185019084908082843760009201919091525050604080516020601f8d018190048102820181019092528b815292508b91508a90819084018382808284376000920191909152506123ef92505050565b6000341180156113465750600081115b156113e157604051600090339083908381818185875af1925050503d806000811461138d576040519150601f19603f3d011682016040523d82523d6000602084013e611392565b606091505b50509050806113db576040805162461bcd60e51b815260206004820152601060248201526f2a3930b739b332b9103330b4b632b21760811b604482015290519081900360640190fd5b50611405565b34611405576001600160a01b0389166000908152600c602052604090206001018190555b505050505050505050565b6000805460018054604080516020600284861615610100026000190190941693909304601f8101849004840282018401909252818152939493929183018282801561149c5780601f106114715761010080835404028352916020019161149c565b820191906000526020600020905b81548152906001019060200180831161147f57829003601f168201915b5050505050905082565b6114ae6125e8565b6114ed576040805162461bcd60e51b81526020600482018190526024820152600080516020613895833981519152604482015290519081900360640190fd5b6001600160a01b03166000908152600c60205260409020805461ff001916610100179055565b600c602052600090815260409020805460019091015460ff808316926101009004169083565b600e6020526000908152604090208054600182015460028301546003840154600485015460059095015493949293919290916001600160a01b0381169060ff600160a01b8204811691600160a81b8104821691600160b01b8204811691600160b81b8104821691600160c01b909104168b565b6115b46125e8565b6115f3576040805162461bcd60e51b81526020600482018190526024820152600080516020613895833981519152604482015290519081900360640190fd5b611600600282600a6135e0565b5050565b8761160f81336125f9565b61165a576040805162461bcd60e51b815260206004820152601760248201527624b739bab33334b1b4b2b73a103832b936b4b9b9b4b7b760491b604482015290519081900360640190fd5b6000898152600d60205260409020546116aa576040805162461bcd60e51b815260206004820152600d60248201526c2ab735b737bbb7103a37b5b2b760991b604482015290519081900360640190fd5b6116ba8989898989898989612633565b6040805189815290518a917f199acc06cd2556bbc146fa3cb578799037dffcbf256eca32aaf2ef656925d2fd919081900360200190a2505050505050505050565b6060815183511461173d5760405162461bcd60e51b81526004018080602001828103825260308152602001806137da6030913960400191505060405180910390fd5b6060835167ffffffffffffffff8111801561175757600080fd5b50604051908082528060200260200182016040528015611781578160200160208202803683370190505b50905060005b84518110156118775760006001600160a01b03168582815181106117a757fe5b60200260200101516001600160a01b031614156117f55760405162461bcd60e51b81526004018080602001828103825260348152602001806138406034913960400191505060405180910390fd5b600d600085838151811061180557fe5b60200260200101518152602001908152602001600020600701600086838151811061182c57fe5b60200260200101516001600160a01b03166001600160a01b031681526020019081526020016000206000015482828151811061186457fe5b6020908102919091010152600101611787565b509392505050565b600061188b83836125f9565b9392505050565b61189a6125e8565b6118d9576040805162461bcd60e51b81526020600482018190526024820152600080516020613895833981519152604482015290519081900360640190fd5b6001600160a01b03166000908152600c60205260409020805460ff19166001179055565b6119056125e8565b611944576040805162461bcd60e51b81526020600482018190526024820152600080516020613895833981519152604482015290519081900360640190fd5b6001600160a01b03166000908152600c60205260409020805460ff19169055565b61196d6125e8565b6119ac576040805162461bcd60e51b81526020600482018190526024820152600080516020613895833981519152604482015290519081900360640190fd5b6000918252600d602090815260408084206001600160a01b039093168452600790920190529020600201805460ff19166001179055565b600f546001600160a01b031690565b336001600160a01b0383161415611a3a5760405162461bcd60e51b815260040180806020018281038252602c8152602001806137ae602c913960400191505060405180910390fd5b3360008181526010602090815260408083206001600160a01b03871680855290835292819020805460ff1916861515908117909155815190815290519293927f17307eab39ab6107e8899845ad3d59bd9653f200f220920489ca2b5937696c31929181900390910190a35050565b81611ab381336125f9565b611afe576040805162461bcd60e51b815260206004820152601760248201527624b739bab33334b1b4b2b73a103832b936b4b9b9b4b7b760491b604482015290519081900360640190fd5b611b0883836127d7565b505050565b611b156125e8565b611b54576040805162461bcd60e51b81526020600482018190526024820152600080516020613895833981519152604482015290519081900360640190fd5b6001600160a01b03166000908152600c60205260409020805461ff0019169055565b81611b8181336125f9565b611bcc576040805162461bcd60e51b815260206004820152601760248201527624b739bab33334b1b4b2b73a103832b936b4b9b9b4b7b760491b604482015290519081900360640190fd5b611b08838361282d565b600061103d82612889565b600061103d826128a8565b611bf5336128a8565b611c40576040805162461bcd60e51b815260206004820152601760248201527624b739bab33334b1b4b2b73a103832b936b4b9b9b4b7b760491b604482015290519081900360640190fd5b611c538b8b8b8b8b8b8b8b8b8b8b6128d2565b604080518b8152602081018b905281516001600160a01b038e169260009233927fc3d58168c5ae7397731d063d5bbf3d657854427343f4c083240f7aacaa2d0f62929181900390910190a45050505050505050505050565b600061103d82612a3b565b6000611cc3848484612a5e565b949350505050565b611cd36125e8565b611d12576040805162461bcd60e51b81526020600482018190526024820152600080516020613895833981519152604482015290519081900360640190fd5b6000918252600d602090815260408084206001600160a01b039093168452600790920190529020600201805460ff19169055565b6000611d528383612c40565b8061188b5750506001600160a01b03918216600090815260106020908152604080832093909416825291909152205460ff1690565b600d60205260009081526040902080546001820154600283015460038401546004850154600586015460069096015494959394929391929091906001600160a01b0381169060ff600160a01b8204811691600160a81b90041689565b6001600160a01b038516611e285760405162461bcd60e51b81526004018080602001828103825260288152602001806137866028913960400191505060405180910390fd5b6001600160a01b038616331480611e4a5750611e448633611d46565b15156001145b611e855760405162461bcd60e51b81526004018080602001828103825260378152602001806138b56037913960400191505060405180910390fd5b6000803411611eaf576001600160a01b0387166000908152600c6020526040902060010154611eb1565b345b9050611ec08787878785612233565b81039050856001600160a01b0316876001600160a01b0316336001600160a01b03167fc3d58168c5ae7397731d063d5bbf3d657854427343f4c083240f7aacaa2d0f628888604051808381526020018281526020019250505060405180910390a4611f65338888888888888080601f016020809104026020016040519081016040528093929190818152602001838380828437600092019190915250612d2792505050565b600034118015611f755750600081115b1561201057604051600090339083908381818185875af1925050503d8060008114611fbc576040519150601f19603f3d011682016040523d82523d6000602084013e611fc1565b606091505b505090508061200a576040805162461bcd60e51b815260206004820152601060248201526f2a3930b739b332b9103330b4b632b21760811b604482015290519081900360640190fd5b50612034565b34612034576001600160a01b0387166000908152600c602052604090206001018190555b50505050505050565b6120456125e8565b612084576040805162461bcd60e51b81526020600482018190526024820152600080516020613895833981519152604482015290519081900360640190fd5b61208d81612e9c565b50565b612099336128a8565b6120e4576040805162461bcd60e51b815260206004820152601760248201527624b739bab33334b1b4b2b73a103832b936b4b9b9b4b7b760491b604482015290519081900360640190fd5b6000838152600d602052604090205415801590612102575080518251145b612147576040805162461bcd60e51b8152602060048201526011602482015270496e76616c696420617267756d656e747360781b604482015290519081900360640190fd5b60005b825181101561222d576121848484838151811061216357fe5b602002602001015184848151811061217757fe5b6020026020010151612f3d565b6000848152600d6020526040812060080180549091906121a057fe5b600091825260208220015484516001600160a01b03909116919033907fc3d58168c5ae7397731d063d5bbf3d657854427343f4c083240f7aacaa2d0f62908790869081106121ea57fe5b6020026020010151600d60008a815260200190815260200160002060000154604051808381526020018281526020019250505060405180910390a460010161214a565b50505050565b6000612240868585612a5e565b905080821015612297576040805162461bcd60e51b815260206004820152601960248201527f496e73756666696369656e742045544820666f72206665657300000000000000604482015290519081900360640190fd5b6040805180820182526014815273496e73756666696369656e742062616c616e636560601b6020808301919091526000878152600d82528381206001600160a01b038b16825260070190915291909120546122f39185906130da565b6000858152600d602090815260408083206001600160a01b038b168452600701909152902055612324858585613171565b60005b6000858152600d60205260409020600901548110156123e5576000858152600d6020526040812060090180548390811061235d57fe5b6000918252602080832090910154888352600d90915260408220600a0180546001600160a01b039092169350908490811061239457fe5b60009182526020909120015490506123b86127106123b2868461340d565b90613466565b6001600160a01b039092166000908152600c60205260409020600190810180549093019092555001612327565b5095945050505050565b612401846001600160a01b03166134a8565b156125e05763bc197c8160e01b6001600160e01b031916846001600160a01b031663bc197c8188888787876040518663ffffffff1660e01b815260040180866001600160a01b03168152602001856001600160a01b03168152602001806020018060200180602001848103845287818151815260200191508051906020019060200280838360005b838110156124a1578181015183820152602001612489565b50505050905001848103835286818151815260200191508051906020019060200280838360005b838110156124e05781810151838201526020016124c8565b50505050905001848103825285818151815260200191508051906020019080838360005b8381101561251c578181015183820152602001612504565b50505050905090810190601f1680156125495780820380516001836020036101000a031916815260200191505b5098505050505050505050602060405180830381600087803b15801561256e57600080fd5b505af1158015612582573d6000803e3d6000fd5b505050506040513d602081101561259857600080fd5b50516001600160e01b031916146125e05760405162461bcd60e51b815260040180806020018281038252603681526020018061380a6036913960400191505060405180910390fd5b505050505050565b600f546001600160a01b0316331490565b6000828152600d602090815260408083206001600160a01b038516845260070190915281206002015460ff168061188b575061188b6125e8565b6000805b85518110156126635785818151811061264c57fe5b602002602001015182019150806001019050612637565b5060008651118015612673575060015b8015612680575080612710145b801561268d575061271084105b6126d2576040805162461bcd60e51b8152602060048201526011602482015270496e76616c696420617267756d656e747360781b604482015290519081900360640190fd5b6000898152600d60209081526040808320600581018c90558a516002808301919091558b840151600383015582518084018452428152928c015183850152600b909101805460018101825590855292909320612732939283020191613638565b506000898152600d60209081526040909120875161275892600990920191890190613672565b506000898152600d60209081526040909120865161277e92600a909201918801906136c6565b50506000978852600d602052604090972060048101929092556006909101805460ff60a01b1916600160a01b92151592909202919091176001600160a01b0319166001600160a01b039096169590951790945550505050565b6000828152600d6020908152604091829020600601805460ff60a81b191690558151838152915184927f199acc06cd2556bbc146fa3cb578799037dffcbf256eca32aaf2ef656925d2fd92908290030190a25050565b6000828152600d6020908152604091829020600601805460ff60a81b1916600160a81b1790558151838152915184927f199acc06cd2556bbc146fa3cb578799037dffcbf256eca32aaf2ef656925d2fd92908290030190a25050565b6000908152600d6020526040902060060154600160a81b900460ff1690565b6001600160a01b0381166000908152600c602052604081205460ff168061103d575061103d6125e8565b60008a8152600d60205260409020541580156128ee5750600089115b612933576040805162461bcd60e51b8152602060048201526011602482015270496e76616c696420617267756d656e747360781b604482015290519081900360640190fd5b88600d60008c81526020019081526020016000206000018190555087600d60008c8152602001908152602001600020600101819055506001600d60008c81526020019081526020016000206007016000336001600160a01b03166001600160a01b0316815260200190815260200160002060020160006101000a81548160ff0219169083151502179055506001600d60008c815260200190815260200160002060070160008d6001600160a01b03166001600160a01b0316815260200190815260200160002060020160026101000a81548160ff021916908315150217905550612a238a88888888888888612633565b612a2e8b8b8b613171565b5050505050505050505050565b6001600160a01b03166000908152600c6020526040902054610100900460ff1690565b6000828152600d60205260408120600b015481904290600019015b6000868152600d60205260408120600b01805483908110612a9657fe5b60009182526020822060029091020101546000888152600d60205260408120600b018054929350909184908110612ac957fe5b9060005260206000209060020201600160028110612ae357fe5b01546000898152600d602090815260408083206001600160a01b038e168452600701909152812060010154919250908311612b80576000898152600d602090815260408083206001600160a01b038e168452600701909152902060010154612b559062015180906123b29088906134df565b905080612b60575060015b612b7488612b6e838561340d565b9061340d565b86019550505050612bbf565b612b91620151806123b287866134df565b905080612b9c575060015b9193508391612baf88612b6e838561340d565b9095019450505060001901612a79565b506000858152600d6020526040902060010154612be0908390600a0a613466565b6000868152600d602052604081206003015491935090612c0b906305f5e100906123b290889061340d565b6000878152600d6020526040902060020154909150612c3590612c2e9083613521565b8490613521565b979650505050505050565b6000805b600a811015612d1d576000600282600a8110612c5c57fe5b01546001600160a01b031614612d15576000600282600a8110612c7b57fe5b01546040805163c455279160e01b81526001600160a01b0388811660048301529151928216935090861691839163c4552791916024808301926020929190829003018186803b158015612ccd57600080fd5b505afa158015612ce1573d6000803e3d6000fd5b505050506040513d6020811015612cf757600080fd5b50516001600160a01b03161415612d135760019250505061103d565b505b600101612c44565b5060009392505050565b612d39846001600160a01b03166134a8565b156125e05763f23a6e6160e01b6001600160e01b031916846001600160a01b031663f23a6e6188888787876040518663ffffffff1660e01b815260040180866001600160a01b03168152602001856001600160a01b0316815260200184815260200183815260200180602001828103825283818151815260200191508051906020019080838360005b83811015612dda578181015183820152602001612dc2565b50505050905090810190601f168015612e075780820380516001836020036101000a031916815260200191505b509650505050505050602060405180830381600087803b158015612e2a57600080fd5b505af1158015612e3e573d6000803e3d6000fd5b505050506040513d6020811015612e5457600080fd5b50516001600160e01b031916146125e05760405162461bcd60e51b815260040180806020018281038252603181526020018061391a6031913960400191505060405180910390fd5b6001600160a01b038116612ee15760405162461bcd60e51b81526004018080602001828103825260268152602001806137606026913960400191505060405180910390fd5b600f546040516001600160a01b038084169216907f8be0079c531659141344cd1fd0a4f28419497f9722a3daafe3b4186f6b6457e090600090a3600f80546001600160a01b0319166001600160a01b0392909216919091179055565b6000838152600d602052604081206008018054611b089290612f5b57fe5b6000918252602080832090910154868352600d8083526040808520805460018201548351606081018552600284015481526003840154818901528c895294909652600b90910180546001600160a01b03909516968a96929592948a949093908401929190612fc557fe5b9060005260206000209060020201600160028110612fdf57fe5b0154905260008a8152600d60209081526040918290206009018054835181840281018401909452808452909183018282801561304457602002820191906000526020600020905b81546001600160a01b03168152600190910190602001808311613026575b50505060008d8152600d6020908152604091829020600a01805483518184028101840190945280845292945092508301828280156130a157602002820191906000526020600020905b81548152602001906001019080831161308d575b50505060008e8152600d60205260409020600481015460069091015490925060ff600160a01b82041691506001600160a01b03166128d2565b600081848411156131695760405162461bcd60e51b81526004018080602001828103825283818151815260200191508051906020019080838360005b8381101561312e578181015183820152602001613116565b50505050905090810190601f16801561315b5780820380516001836020036101000a031916815260200191505b509250505060405180910390fd5b505050900390565b6000828152600d6020526040902060060154600160a01b900460ff1615806131c757506000828152600d602090815260408083206001600160a01b038716845260070190915290206002015462010000900460ff165b61320f576040805162461bcd60e51b81526020600482015260146024820152731059191c995cdcc81b9bdd08185c1c1c9bdd995960621b604482015290519081900360640190fd5b6000828152600d602090815260408083206001600160a01b038716845260070190915281205461323f9083613521565b6000848152600d602090815260408083206001600160a01b038916845260070190915290205490915061333c576000838152600d602090815260408083206001600160a01b0388168452600701909152902060020154610100900460ff1661330b576001600160a01b0384166000818152600c6020908152604080832060020180546001818101835591855283852001889055878452600d83529083206008810180549283018155845282842090910180546001600160a01b0319168517905592909152600790910190525b6000838152600d602090815260408083206001600160a01b03881684526007019091529020426001909101556133dd565b6000838152600d602090815260408083206001600160a01b03881684526007019091528120600101546133709042906134df565b6000858152600d602090815260408083206001600160a01b038a168452600701909152812054919250906133aa9084906123b2908561340d565b6000868152600d602090815260408083206001600160a01b038b1684526007019091529020429190910360019091015550505b6000928352600d602090815260408085206001600160a01b03909616855260079095019052929091209190915550565b60008261341c5750600061103d565b8282028284828161342957fe5b041461188b5760405162461bcd60e51b81526004018080602001828103825260218152602001806138746021913960400191505060405180910390fd5b600061188b83836040518060400160405280601a81526020017f536166654d6174683a206469766973696f6e206279207a65726f00000000000081525061357b565b6000813f7fc5d2460186f7233c927e7db2dcc703c0e500b653ca82273b7bfad8045d85a4708115801590611cc35750141592915050565b600061188b83836040518060400160405280601e81526020017f536166654d6174683a207375627472616374696f6e206f766572666c6f7700008152506130da565b60008282018381101561188b576040805162461bcd60e51b815260206004820152601b60248201527f536166654d6174683a206164646974696f6e206f766572666c6f770000000000604482015290519081900360640190fd5b600081836135ca5760405162461bcd60e51b815260206004820181815283516024840152835190928392604490910191908501908083836000831561312e578181015183820152602001613116565b5060008385816135d657fe5b0495945050505050565b82600a8101928215613628579160200282015b8281111561362857825182546001600160a01b0319166001600160a01b039091161782556020909201916001909101906135f3565b50613634929150613700565b5090565b8260028101928215613666579160200282015b8281111561366657825182559160200191906001019061364b565b5061363492915061371f565b828054828255906000526020600020908101928215613628579160200282018281111561362857825182546001600160a01b0319166001600160a01b039091161782556020909201916001909101906135f3565b828054828255906000526020600020908101928215613666579160200282018281111561366657825182559160200191906001019061364b565b5b808211156136345780546001600160a01b0319168155600101613701565b5b80821115613634576000815560010161372056fe455243313135353a2062616c616e636520717565727920666f7220746865207a65726f20616464726573734f776e61626c653a206e6577206f776e657220697320746865207a65726f2061646472657373455243313135353a207461726765742061646472657373206d757374206265206e6f6e2d7a65726f455243313135353a2063616e6e6f742073657420617070726f76616c2073746174757320666f722073656c66455243313135353a206163636f756e747320616e6420494473206d75737420686176652073616d65206c656e67746873455243313135353a20676f7420756e6b6e6f776e2076616c75652066726f6d206f6e4552433131353542617463685265636569766564455243313135353a20736f6d65206164647265737320696e2062617463682062616c616e6365207175657279206973207a65726f536166654d6174683a206d756c7469706c69636174696f6e206f766572666c6f774f776e61626c653a2063616c6c6572206973206e6f7420746865206f776e6572455243313135353a206e656564206f70657261746f7220617070726f76616c20666f7220337264207061727479207472616e7366657273455243313135353a2049447320616e642076616c756573206d75737420686176652073616d65206c656e67746873455243313135353a20676f7420756e6b6e6f776e2076616c75652066726f6d206f6e455243313135355265636569766564a264697066735822122061456a873446af48bb13071cf2c1b03eb6fc80033bfec5f62197cc3f018d72d964736f6c634300070100334f776e61626c653a206e6577206f776e657220697320746865207a65726f2061646472657373",
  "immutableReferences": {},
  "source": "// SPDX-License-Identifier: GPL-3.0-or-later\n\npragma solidity ^0.7.1;\n\nimport './MaintenableToken.sol';\n\ncontract LockableToken is MaintenableToken {\n\n    function _lockToken(uint256 id, uint256 documentHash) internal {\n        _tokens[id].locked = true;\n        emit TokenUpdated(id, documentHash);\n    }\n\n    function _unlockToken(uint256 id, uint256 documentHash) internal {\n        _tokens[id].locked = false;\n        emit TokenUpdated(id, documentHash);\n    }\n\n    function _isLockedToken(uint256 id) internal view returns (bool) {\n        return _tokens[id].locked;\n    }\n\n    function _isLockedAddress(address addr) internal view returns (bool) {\n        return _users[addr].isLocked;\n    }\n\n    function _isLockedMove(address from, address to, uint256 id, uint256 value) internal view returns (bool) {\n        return _isLockedToken(id) || _isLockedAddress(from) || _isLockedAddress(to) || (value == 0);\n    }\n\n\n    /**\n     * @dev Function to lock a token.\n     * @param id The token ID\n     */\n    function lockToken(uint256 id, uint256 documentHash) external onlyMaintener(id) {\n        _lockToken(id, documentHash);\n    }\n\n    /**\n     * @dev Function to unlock a token.\n     * @param id The token ID\n     */\n    function unlockToken(uint256 id, uint256 documentHash) external onlyMaintener(id) {\n        _unlockToken(id, documentHash);\n    }\n\n    /**\n     * @dev Function to check if a token is locked.\n     * @param id The token ID\n     */\n    function isLockedToken(uint256 id) external view returns (bool){\n        return _isLockedToken(id);\n    }\n\n    /**\n     * @dev Function to lock an address.\n     * @param addr The address to lock\n     */\n    function lockAddress(address addr) external onlyOwner {\n        _users[addr].isLocked = true;\n    }\n\n    /**\n     * @dev Function to unlock an address.\n     * @param addr The address to unlock\n     */\n    function unlockAddress(address addr) external onlyOwner {\n        _users[addr].isLocked = false;\n    }\n\n    /**\n     * @dev Function to check if an address is lockec.\n     * @param addr The address to check\n     */\n    function isLockedAddress(address addr) external view returns (bool){\n        return _isLockedAddress(addr);\n    }\n\n}\n",
  "sourcePath": "/home/ouziel/Work/StashBloxContracts/contracts/LockableToken.sol",
  "compiler": {
    "name": "solc",
    "version": "0.7.1+commit.f4a555be.Emscripten.clang"
  },
  "schemaVersion": "3.2.3",
  "updatedAt": "2020-10-20T14:32:33.167Z",
  "devdoc": {
    "kind": "dev",
    "methods": {
      "authorizeMaintener(uint256,address)": {
        "details": "Function to authorize an address to maintain a token.",
        "params": {
          "maintener": "The authorized address"
        }
      },
      "authorizeTokenizer(address)": {
        "details": "Function to authorize an address to create a token.",
        "params": {
          "tokenizer": "The authorized address"
        }
      },
      "balanceOf(address,uint256)": {
        "details": "Get the specified address' balance for token with specified ID. Attempting to query the zero account for a balance will result in a revert.",
        "params": {
          "account": "The address of the token holder",
          "id": "ID of the token"
        },
        "returns": {
          "_0": "The account's balance of the token type requested"
        }
      },
      "balanceOfBatch(address[],uint256[])": {
        "details": "Get the balance of multiple account/token pairs. If any of the query accounts is the zero account, this query will revert.",
        "params": {
          "accounts": "The addresses of the token holders",
          "ids": "IDs of the tokens"
        },
        "returns": {
          "_0": "Balances for each account and token id pair"
        }
      },
      "cloneToken(uint256,uint256[],uint256[])": {
        "details": "Function to mint tokens in batch.",
        "params": {
          "id": "Identifier of the template",
          "ids": "list of IDs of the tokens to be minted",
          "metadataHashes": "list of metadata file hashes"
        }
      },
      "createToken(address,uint256,uint256,uint256,uint256,uint256[3],address[],uint256[],uint256,bool,address)": {
        "details": "Function to mint an amount of a token with the given ID.",
        "params": {
          "feesRecipients": "list of addresses receiving transfer fees",
          "feesRecipientsPercentage": "list of percentage, each one for the corresponding feesRecipients",
          "id": "ID of the token to be minted",
          "metadataHash": "Metadata file hash",
          "minHoldingForCallback": "minimum holding to propose a callback",
          "recipient": "The address that will own the minted tokens",
          "supply": "Amount of the token to be minted",
          "transactionFees": "transaction fees: [lumpSumFees (in WEI), valueProportionalFees (ratio of transfered amount * 10**8), storageFees (in storageCredit * 10**8)]"
        }
      },
      "isApprovedForAll(address,address)": {
        "params": {
          "account": "The account of the Tokens",
          "operator": "Address of authorized operator"
        },
        "returns": {
          "_0": "True if the operator is approved, false if not"
        }
      },
      "isLockedAddress(address)": {
        "details": "Function to check if an address is lockec.",
        "params": {
          "addr": "The address to check"
        }
      },
      "isLockedToken(uint256)": {
        "details": "Function to check if a token is locked.",
        "params": {
          "id": "The token ID"
        }
      },
      "isMaintener(uint256,address)": {
        "details": "Function to check if an address is authorized to maintain a token.",
        "params": {
          "id": "the token id",
          "maintener": "The authorized address"
        },
        "returns": {
          "_0": "true if it's a maintener address"
        }
      },
      "isTokenizer(address)": {
        "details": "Function to check if an address is authorized to create a token.",
        "params": {
          "tokenizer": "The authorized address"
        }
      },
      "lockAddress(address)": {
        "details": "Function to lock an address.",
        "params": {
          "addr": "The address to lock"
        }
      },
      "lockToken(uint256,uint256)": {
        "details": "Function to lock a token.",
        "params": {
          "id": "The token ID"
        }
      },
      "owner()": {
        "details": "Returns the address of the current owner."
      },
      "revokeMaintener(uint256,address)": {
        "details": "Function to revoke the authorization to maintain a token.",
        "params": {
          "id": "the token id",
          "maintener": "The authorized address"
        }
      },
      "revokeTokenizer(address)": {
        "details": "Function to revoke the authorization to create a token.",
        "params": {
          "tokenizer": "The authorized address"
        }
      },
      "safeBatchTransferFrom(address,address,uint256[],uint256[],bytes)": {
        "details": "Transfers `values` amount(s) of `ids` from the `from` address to the `to` address specified. Caller must be approved to manage the tokens being transferred out of the `from` account. If `to` is a smart contract, will call `onERC1155BatchReceived` on `to` and act appropriately.",
        "params": {
          "data": "Data forwarded to `onERC1155Received` if `to` is a contract receiver",
          "from": "Source address",
          "ids": "IDs of each token type",
          "to": "Target address",
          "values": "Transfer amounts per token type"
        }
      },
      "safeTransferFrom(address,address,uint256,uint256,bytes)": {
        "details": "Transfers `value` amount of an `id` from the `from` address to the `to` address specified. Caller must be approved to manage the tokens being transferred out of the `from` account. If `to` is a smart contract, will call `onERC1155Received` on `to` and act appropriately.",
        "params": {
          "data": "Data forwarded to `onERC1155Received` if `to` is a contract receiver",
          "from": "Source address",
          "id": "ID of the token type",
          "to": "Target address",
          "value": "Transfer amount"
        }
      },
      "setApprovalForAll(address,bool)": {
        "details": "Sets or unsets the approval of a given operator. An operator is allowed to transfer all tokens of the sender on their behalf. Because an account already has operator privileges for itself, this function will revert if the account attempts to set the approval status for itself.",
        "params": {
          "approved": "representing the status of the approval to be set",
          "operator": "address to set the approval"
        }
      },
      "setProxyRegistryAddress(address[10])": {
        "details": "Function to update the operator whitelist",
        "params": {
          "proxyAddresses": "List of addresses"
        }
      },
      "supportsInterface(bytes4)": {
        "params": {
          "_interfaceID": "The interface identifier, as specified in ERC-165"
        },
        "returns": {
          "_0": "`true` if the contract implements `_interfaceID` and"
        }
      },
      "transactionFees(address,uint256,uint256)": {
        "details": "Function to get the transaction price to transfer tokens.",
        "params": {
          "account": "the address from where to transfer the tokens",
          "id": "The token ID",
          "value": "The amount to transfer"
        }
      },
      "transferOwnership(address)": {
        "details": "Transfers ownership of the contract to a new account (`newOwner`). Can only be called by the current owner."
      },
      "unlockAddress(address)": {
        "details": "Function to unlock an address.",
        "params": {
          "addr": "The address to unlock"
        }
      },
      "unlockToken(uint256,uint256)": {
        "details": "Function to unlock a token.",
        "params": {
          "id": "The token ID"
        }
      }
    },
    "version": 1
  },
  "userdoc": {
    "kind": "user",
    "methods": {
      "isApprovedForAll(address,address)": {
        "notice": "Queries the approval status of an operator for a given account."
      },
      "supportsInterface(bytes4)": {
        "notice": "Query if a contract implements an interface"
      }
    },
    "version": 1
  }
}