{
  "contractName": "Lockable",
  "abi": [
    {
      "anonymous": false,
      "inputs": [
        {
          "indexed": true,
          "internalType": "address",
          "name": "_owner",
          "type": "address"
        },
        {
          "indexed": true,
          "internalType": "address",
          "name": "_operator",
          "type": "address"
        },
        {
          "indexed": false,
          "internalType": "bool",
          "name": "_approved",
          "type": "bool"
        }
      ],
      "name": "ApprovalForAll",
      "type": "event"
    },
    {
      "anonymous": false,
      "inputs": [
        {
          "indexed": true,
          "internalType": "address",
          "name": "previousOwner",
          "type": "address"
        },
        {
          "indexed": true,
          "internalType": "address",
          "name": "newOwner",
          "type": "address"
        }
      ],
      "name": "OwnershipTransferred",
      "type": "event"
    },
    {
      "anonymous": false,
      "inputs": [
        {
          "indexed": true,
          "internalType": "uint256",
          "name": "_id",
          "type": "uint256"
        },
        {
          "indexed": false,
          "internalType": "uint256",
          "name": "_documentHash",
          "type": "uint256"
        }
      ],
      "name": "TokenUpdated",
      "type": "event"
    },
    {
      "anonymous": false,
      "inputs": [
        {
          "indexed": true,
          "internalType": "address",
          "name": "_operator",
          "type": "address"
        },
        {
          "indexed": true,
          "internalType": "address",
          "name": "_from",
          "type": "address"
        },
        {
          "indexed": true,
          "internalType": "address",
          "name": "_to",
          "type": "address"
        },
        {
          "indexed": false,
          "internalType": "uint256[]",
          "name": "_ids",
          "type": "uint256[]"
        },
        {
          "indexed": false,
          "internalType": "uint256[]",
          "name": "_values",
          "type": "uint256[]"
        }
      ],
      "name": "TransferBatch",
      "type": "event"
    },
    {
      "anonymous": false,
      "inputs": [
        {
          "indexed": true,
          "internalType": "address",
          "name": "_operator",
          "type": "address"
        },
        {
          "indexed": true,
          "internalType": "address",
          "name": "_from",
          "type": "address"
        },
        {
          "indexed": true,
          "internalType": "address",
          "name": "_to",
          "type": "address"
        },
        {
          "indexed": false,
          "internalType": "uint256",
          "name": "_id",
          "type": "uint256"
        },
        {
          "indexed": false,
          "internalType": "uint256",
          "name": "_value",
          "type": "uint256"
        }
      ],
      "name": "TransferSingle",
      "type": "event"
    },
    {
      "anonymous": false,
      "inputs": [
        {
          "indexed": false,
          "internalType": "string",
          "name": "_value",
          "type": "string"
        },
        {
          "indexed": true,
          "internalType": "uint256",
          "name": "_id",
          "type": "uint256"
        }
      ],
      "name": "URI",
      "type": "event"
    },
    {
      "inputs": [
        {
          "internalType": "uint256",
          "name": "",
          "type": "uint256"
        }
      ],
      "name": "_callbacks",
      "outputs": [
        {
          "internalType": "uint256",
          "name": "tokenId",
          "type": "uint256"
        },
        {
          "internalType": "uint256",
          "name": "price",
          "type": "uint256"
        },
        {
          "internalType": "uint256",
          "name": "escrowedAmount",
          "type": "uint256"
        },
        {
          "internalType": "uint256",
          "name": "callCounter",
          "type": "uint256"
        },
        {
          "internalType": "uint256",
          "name": "documentHash",
          "type": "uint256"
        },
        {
          "internalType": "address",
          "name": "caller",
          "type": "address"
        },
        {
          "internalType": "bool",
          "name": "needLegalApproval",
          "type": "bool"
        },
        {
          "internalType": "bool",
          "name": "approvedByLegal",
          "type": "bool"
        },
        {
          "internalType": "bool",
          "name": "refused",
          "type": "bool"
        },
        {
          "internalType": "bool",
          "name": "accepted",
          "type": "bool"
        },
        {
          "internalType": "bool",
          "name": "completed",
          "type": "bool"
        }
      ],
      "stateMutability": "view",
      "type": "function"
    },
    {
      "inputs": [],
      "name": "_config",
      "outputs": [
        {
          "internalType": "uint256",
          "name": "callbackAutoExecuteMaxAddresses",
          "type": "uint256"
        },
        {
          "internalType": "string",
          "name": "baseURI",
          "type": "string"
        }
      ],
      "stateMutability": "view",
      "type": "function"
    },
    {
      "inputs": [
        {
          "internalType": "uint256",
          "name": "",
          "type": "uint256"
        }
      ],
      "name": "_tokens",
      "outputs": [
        {
          "internalType": "uint256",
          "name": "supply",
          "type": "uint256"
        },
        {
          "internalType": "uint256",
          "name": "decimals",
          "type": "uint256"
        },
        {
          "internalType": "uint256",
          "name": "lumpSumTransactionFees",
          "type": "uint256"
        },
        {
          "internalType": "uint256",
          "name": "valueTransactionFees",
          "type": "uint256"
        },
        {
          "internalType": "uint256",
          "name": "minHoldingForCallback",
          "type": "uint256"
        },
        {
          "internalType": "uint256",
          "name": "metadataHash",
          "type": "uint256"
        },
        {
          "internalType": "address",
          "name": "legalAuthority",
          "type": "address"
        },
        {
          "internalType": "bool",
          "name": "isPrivate",
          "type": "bool"
        },
        {
          "internalType": "bool",
          "name": "locked",
          "type": "bool"
        }
      ],
      "stateMutability": "view",
      "type": "function"
    },
    {
      "inputs": [
        {
          "internalType": "address",
          "name": "",
          "type": "address"
        }
      ],
      "name": "_users",
      "outputs": [
        {
          "internalType": "bool",
          "name": "isTokenizer",
          "type": "bool"
        },
        {
          "internalType": "bool",
          "name": "isLocked",
          "type": "bool"
        },
        {
          "internalType": "uint256",
          "name": "ETHBalance",
          "type": "uint256"
        }
      ],
      "stateMutability": "view",
      "type": "function"
    },
    {
      "inputs": [
        {
          "internalType": "uint256",
          "name": "id",
          "type": "uint256"
        },
        {
          "internalType": "address",
          "name": "holder",
          "type": "address"
        }
      ],
      "name": "approveHolder",
      "outputs": [],
      "stateMutability": "nonpayable",
      "type": "function"
    },
    {
      "inputs": [
        {
          "internalType": "uint256",
          "name": "id",
          "type": "uint256"
        },
        {
          "internalType": "address",
          "name": "maintener",
          "type": "address"
        }
      ],
      "name": "authorizeMaintener",
      "outputs": [],
      "stateMutability": "nonpayable",
      "type": "function"
    },
    {
      "inputs": [
        {
          "internalType": "address",
          "name": "tokenizer",
          "type": "address"
        }
      ],
      "name": "authorizeTokenizer",
      "outputs": [],
      "stateMutability": "nonpayable",
      "type": "function"
    },
    {
      "inputs": [
        {
          "internalType": "address",
          "name": "account",
          "type": "address"
        },
        {
          "internalType": "uint256",
          "name": "id",
          "type": "uint256"
        }
      ],
      "name": "balanceOf",
      "outputs": [
        {
          "internalType": "uint256",
          "name": "",
          "type": "uint256"
        }
      ],
      "stateMutability": "view",
      "type": "function"
    },
    {
      "inputs": [
        {
          "internalType": "address[]",
          "name": "accounts",
          "type": "address[]"
        },
        {
          "internalType": "uint256[]",
          "name": "ids",
          "type": "uint256[]"
        }
      ],
      "name": "balanceOfBatch",
      "outputs": [
        {
          "internalType": "uint256[]",
          "name": "",
          "type": "uint256[]"
        }
      ],
      "stateMutability": "view",
      "type": "function"
    },
    {
      "inputs": [
        {
          "internalType": "uint256",
          "name": "id",
          "type": "uint256"
        },
        {
          "internalType": "uint256[]",
          "name": "ids",
          "type": "uint256[]"
        },
        {
          "internalType": "uint256[]",
          "name": "metadataHashes",
          "type": "uint256[]"
        }
      ],
      "name": "cloneToken",
      "outputs": [],
      "stateMutability": "nonpayable",
      "type": "function"
    },
    {
      "inputs": [
        {
          "internalType": "address",
          "name": "recipient",
          "type": "address"
        },
        {
          "internalType": "uint256",
          "name": "id",
          "type": "uint256"
        },
        {
          "internalType": "uint256",
          "name": "supply",
          "type": "uint256"
        },
        {
          "internalType": "uint256",
          "name": "decimals",
          "type": "uint256"
        },
        {
          "internalType": "uint256",
          "name": "metadataHash",
          "type": "uint256"
        },
        {
          "internalType": "uint256[3]",
          "name": "transactionFees",
          "type": "uint256[3]"
        },
        {
          "internalType": "address[]",
          "name": "feesRecipients",
          "type": "address[]"
        },
        {
          "internalType": "uint256[]",
          "name": "feesRecipientsPercentage",
          "type": "uint256[]"
        },
        {
          "internalType": "uint256",
          "name": "minHoldingForCallback",
          "type": "uint256"
        },
        {
          "internalType": "bool",
          "name": "isPrivate",
          "type": "bool"
        },
        {
          "internalType": "address",
          "name": "legalAuthority",
          "type": "address"
        }
      ],
      "name": "createToken",
      "outputs": [],
      "stateMutability": "nonpayable",
      "type": "function"
    },
    {
      "inputs": [
        {
          "internalType": "address",
          "name": "account",
          "type": "address"
        },
        {
          "internalType": "address",
          "name": "operator",
          "type": "address"
        }
      ],
      "name": "isApprovedForAll",
      "outputs": [
        {
          "internalType": "bool",
          "name": "",
          "type": "bool"
        }
      ],
      "stateMutability": "view",
      "type": "function"
    },
    {
      "inputs": [
        {
          "internalType": "uint256",
          "name": "id",
          "type": "uint256"
        },
        {
          "internalType": "address",
          "name": "maintener",
          "type": "address"
        }
      ],
      "name": "isMaintener",
      "outputs": [
        {
          "internalType": "bool",
          "name": "",
          "type": "bool"
        }
      ],
      "stateMutability": "view",
      "type": "function"
    },
    {
      "inputs": [
        {
          "internalType": "address",
          "name": "tokenizer",
          "type": "address"
        }
      ],
      "name": "isTokenizer",
      "outputs": [
        {
          "internalType": "bool",
          "name": "",
          "type": "bool"
        }
      ],
      "stateMutability": "view",
      "type": "function"
    },
    {
      "inputs": [],
      "name": "owner",
      "outputs": [
        {
          "internalType": "address",
          "name": "",
          "type": "address"
        }
      ],
      "stateMutability": "view",
      "type": "function"
    },
    {
      "inputs": [
        {
          "internalType": "uint256",
          "name": "id",
          "type": "uint256"
        },
        {
          "internalType": "address",
          "name": "holder",
          "type": "address"
        }
      ],
      "name": "revokeHolder",
      "outputs": [],
      "stateMutability": "nonpayable",
      "type": "function"
    },
    {
      "inputs": [
        {
          "internalType": "uint256",
          "name": "id",
          "type": "uint256"
        },
        {
          "internalType": "address",
          "name": "maintener",
          "type": "address"
        }
      ],
      "name": "revokeMaintener",
      "outputs": [],
      "stateMutability": "nonpayable",
      "type": "function"
    },
    {
      "inputs": [
        {
          "internalType": "address",
          "name": "tokenizer",
          "type": "address"
        }
      ],
      "name": "revokeTokenizer",
      "outputs": [],
      "stateMutability": "nonpayable",
      "type": "function"
    },
    {
      "inputs": [
        {
          "internalType": "address",
          "name": "from",
          "type": "address"
        },
        {
          "internalType": "address",
          "name": "to",
          "type": "address"
        },
        {
          "internalType": "uint256[]",
          "name": "ids",
          "type": "uint256[]"
        },
        {
          "internalType": "uint256[]",
          "name": "values",
          "type": "uint256[]"
        },
        {
          "internalType": "bytes",
          "name": "data",
          "type": "bytes"
        }
      ],
      "name": "safeBatchTransferFrom",
      "outputs": [],
      "stateMutability": "payable",
      "type": "function"
    },
    {
      "inputs": [
        {
          "internalType": "address",
          "name": "from",
          "type": "address"
        },
        {
          "internalType": "address",
          "name": "to",
          "type": "address"
        },
        {
          "internalType": "uint256",
          "name": "id",
          "type": "uint256"
        },
        {
          "internalType": "uint256",
          "name": "value",
          "type": "uint256"
        },
        {
          "internalType": "bytes",
          "name": "data",
          "type": "bytes"
        }
      ],
      "name": "safeTransferFrom",
      "outputs": [],
      "stateMutability": "payable",
      "type": "function"
    },
    {
      "inputs": [
        {
          "internalType": "address",
          "name": "operator",
          "type": "address"
        },
        {
          "internalType": "bool",
          "name": "approved",
          "type": "bool"
        }
      ],
      "name": "setApprovalForAll",
      "outputs": [],
      "stateMutability": "nonpayable",
      "type": "function"
    },
    {
      "inputs": [
        {
          "internalType": "address[10]",
          "name": "proxyAddresses",
          "type": "address[10]"
        }
      ],
      "name": "setProxyRegistryAddress",
      "outputs": [],
      "stateMutability": "nonpayable",
      "type": "function"
    },
    {
      "inputs": [
        {
          "internalType": "bytes4",
          "name": "_interfaceID",
          "type": "bytes4"
        }
      ],
      "name": "supportsInterface",
      "outputs": [
        {
          "internalType": "bool",
          "name": "",
          "type": "bool"
        }
      ],
      "stateMutability": "pure",
      "type": "function"
    },
    {
      "inputs": [
        {
          "internalType": "address",
          "name": "account",
          "type": "address"
        },
        {
          "internalType": "uint256",
          "name": "id",
          "type": "uint256"
        },
        {
          "internalType": "uint256",
          "name": "value",
          "type": "uint256"
        }
      ],
      "name": "transactionFees",
      "outputs": [
        {
          "internalType": "uint256",
          "name": "",
          "type": "uint256"
        }
      ],
      "stateMutability": "view",
      "type": "function"
    },
    {
      "inputs": [
        {
          "internalType": "address",
          "name": "newOwner",
          "type": "address"
        }
      ],
      "name": "transferOwnership",
      "outputs": [],
      "stateMutability": "nonpayable",
      "type": "function"
    },
    {
      "inputs": [
        {
          "internalType": "uint256",
          "name": "id",
          "type": "uint256"
        },
        {
          "internalType": "uint256",
          "name": "metadataHash",
          "type": "uint256"
        },
        {
          "internalType": "uint256[3]",
          "name": "transactionFees",
          "type": "uint256[3]"
        },
        {
          "internalType": "address[]",
          "name": "feesRecipients",
          "type": "address[]"
        },
        {
          "internalType": "uint256[]",
          "name": "feesRecipientsPercentage",
          "type": "uint256[]"
        },
        {
          "internalType": "uint256",
          "name": "minHoldingForCallback",
          "type": "uint256"
        },
        {
          "internalType": "bool",
          "name": "isPrivate",
          "type": "bool"
        },
        {
          "internalType": "address",
          "name": "legalAuthority",
          "type": "address"
        }
      ],
      "name": "updateToken",
      "outputs": [],
      "stateMutability": "nonpayable",
      "type": "function"
    },
    {
      "inputs": [
        {
          "internalType": "uint256",
          "name": "id",
          "type": "uint256"
        },
        {
          "internalType": "uint256",
          "name": "documentHash",
          "type": "uint256"
        }
      ],
      "name": "lockToken",
      "outputs": [],
      "stateMutability": "nonpayable",
      "type": "function"
    },
    {
      "inputs": [
        {
          "internalType": "uint256",
          "name": "id",
          "type": "uint256"
        },
        {
          "internalType": "uint256",
          "name": "documentHash",
          "type": "uint256"
        }
      ],
      "name": "unlockToken",
      "outputs": [],
      "stateMutability": "nonpayable",
      "type": "function"
    },
    {
      "inputs": [
        {
          "internalType": "uint256",
          "name": "id",
          "type": "uint256"
        }
      ],
      "name": "isLockedToken",
      "outputs": [
        {
          "internalType": "bool",
          "name": "",
          "type": "bool"
        }
      ],
      "stateMutability": "view",
      "type": "function"
    },
    {
      "inputs": [
        {
          "internalType": "address",
          "name": "addr",
          "type": "address"
        }
      ],
      "name": "lockAddress",
      "outputs": [],
      "stateMutability": "nonpayable",
      "type": "function"
    },
    {
      "inputs": [
        {
          "internalType": "address",
          "name": "addr",
          "type": "address"
        }
      ],
      "name": "unlockAddress",
      "outputs": [],
      "stateMutability": "nonpayable",
      "type": "function"
    },
    {
      "inputs": [
        {
          "internalType": "address",
          "name": "addr",
          "type": "address"
        }
      ],
      "name": "isLockedAddress",
      "outputs": [
        {
          "internalType": "bool",
          "name": "",
          "type": "bool"
        }
      ],
      "stateMutability": "view",
      "type": "function"
    }
  ],
  "bytecode": "0x60806040523480156200001157600080fd5b506200001d3362000023565b620000e0565b6001600160a01b03811662000084576040517f08c379a000000000000000000000000000000000000000000000000000000000815260040180806020018281038252602681526020018062003bfb6026913960400191505060405180910390fd5b600f546040516001600160a01b038084169216907f8be0079c531659141344cd1fd0a4f28419497f9722a3daafe3b4186f6b6457e090600090a3600f80546001600160a01b0319166001600160a01b0392909216919091179055565b613b0b80620000f06000396000f3fe6080604052600436106101e25760003560e01c80638da5cb5b11610102578063cba54e6011610095578063ed70554d11610064578063ed70554d14610ddb578063f242432a14610e59578063f2fde38b14610eec578063f8a5a07c14610f1f576101e2565b8063cba54e6014610cf5578063d1660e1814610d28578063d41d0aa314610d67578063e985e9c514610da0576101e2565b8063baa34110116100d1578063baa3411014610acb578063bba75c8314610afb578063c02f303c14610b25578063c40b87ae14610b58576101e2565b80638da5cb5b146109fc578063a22cb46514610a2d578063aba7fe8a14610a68578063b7eb5e0a14610a98576101e2565b80634ab0d2531161017a578063759c521411610149578063759c5214146109245780637627b7321461095d5780638870147b146109905780638aeba37e146109c3576101e2565b80634ab0d253146105b05780634e1273f4146107325780635dafec1b146108b25780635dd2b9a6146108eb576101e2565b806334a90d02116101b657806334a90d02146104375780633cacd7d61461046a578063414ed0ce146104bd5780634392e5771461054f576101e2565b8062fdd58e146101e757806301ffc9a7146102325780632eb2c2d61461027a5780632ed42bf7146103a3575b600080fd5b3480156101f357600080fd5b506102206004803603604081101561020a57600080fd5b506001600160a01b038135169060200135611056565b60408051918252519081900360200190f35b34801561023e57600080fd5b506102666004803603602081101561025557600080fd5b50356001600160e01b0319166110cb565b604080519115158252519081900360200190f35b6103a1600480360360a081101561029057600080fd5b6001600160a01b038235811692602081013590911691810190606081016040820135600160201b8111156102c357600080fd5b8201836020820111156102d557600080fd5b803590602001918460208302840111600160201b831117156102f657600080fd5b919390929091602081019035600160201b81111561031357600080fd5b82018360208201111561032557600080fd5b803590602001918460208302840111600160201b8311171561034657600080fd5b919390929091602081019035600160201b81111561036357600080fd5b82018360208201111561037557600080fd5b803590602001918460018302840111600160201b8311171561039657600080fd5b509092509050611112565b005b3480156103af57600080fd5b506103b86113c0565b6040518083815260200180602001828103825283818151815260200191508051906020019080838360005b838110156103fb5781810151838201526020016103e3565b50505050905090810190601f1680156104285780820380516001836020036101000a031916815260200191505b50935050505060405180910390f35b34801561044357600080fd5b506103a16004803603602081101561045a57600080fd5b50356001600160a01b0316611456565b34801561047657600080fd5b5061049d6004803603602081101561048d57600080fd5b50356001600160a01b03166114c3565b604080519315158452911515602084015282820152519081900360600190f35b3480156104c957600080fd5b506104e7600480360360208110156104e057600080fd5b50356114e9565b604080519b8c5260208c019a909a528a8a019890985260608a019690965260808901949094526001600160a01b0390921660a0880152151560c0870152151560e086015215156101008501521515610120840152151561014083015251908190036101600190f35b34801561055b57600080fd5b506103a1600480360361014081101561057357600080fd5b81019080806101400190600a806020026040519081016040528092919082600a6020028082843760009201919091525091945061155c9350505050565b3480156105bc57600080fd5b506103a160048036036101408110156105d457600080fd5b6040805160608181018352843594602081013594810193909260a08401929091840190600390839083908082843760009201919091525091949392602081019250359050600160201b81111561062957600080fd5b82018360208201111561063b57600080fd5b803590602001918460208302840111600160201b8311171561065c57600080fd5b9190808060200260200160405190810160405280939291908181526020018383602002808284376000920191909152509295949360208101935035915050600160201b8111156106ab57600080fd5b8201836020820111156106bd57600080fd5b803590602001918460208302840111600160201b831117156106de57600080fd5b919080806020026020016040519081016040528093929190818152602001838360200280828437600092019190915250929550508235935050506020810135151590604001356001600160a01b03166115b4565b34801561073e57600080fd5b506108626004803603604081101561075557600080fd5b810190602081018135600160201b81111561076f57600080fd5b82018360208201111561078157600080fd5b803590602001918460208302840111600160201b831117156107a257600080fd5b9190808060200260200160405190810160405280939291908181526020018383602002808284376000920191909152509295949360208101935035915050600160201b8111156107f157600080fd5b82018360208201111561080357600080fd5b803590602001918460208302840111600160201b8311171561082457600080fd5b91908080602002602001604051908101604052809392919081815260200183836020028082843760009201919091525092955061169f945050505050565b60408051602080825283518183015283519192839290830191858101910280838360005b8381101561089e578181015183820152602001610886565b505050509050019250505060405180910390f35b3480156108be57600080fd5b50610266600480360360408110156108d557600080fd5b50803590602001356001600160a01b0316611823565b3480156108f757600080fd5b506103a16004803603604081101561090e57600080fd5b50803590602001356001600160a01b0316611836565b34801561093057600080fd5b506103a16004803603604081101561094757600080fd5b50803590602001356001600160a01b03166118bc565b34801561096957600080fd5b506103a16004803603602081101561098057600080fd5b50356001600160a01b031661193d565b34801561099c57600080fd5b506103a1600480360360208110156109b357600080fd5b50356001600160a01b03166119a8565b3480156109cf57600080fd5b506103a1600480360360408110156109e657600080fd5b50803590602001356001600160a01b0316611a10565b348015610a0857600080fd5b50610a11611a8e565b604080516001600160a01b039092168252519081900360200190f35b348015610a3957600080fd5b506103a160048036036040811015610a5057600080fd5b506001600160a01b0381351690602001351515611a9d565b348015610a7457600080fd5b506103a160048036036040811015610a8b57600080fd5b5080359060200135611b53565b348015610aa457600080fd5b506103a160048036036020811015610abb57600080fd5b50356001600160a01b0316611bac565b348015610ad757600080fd5b506103a160048036036040811015610aee57600080fd5b5080359060200135611c15565b348015610b0757600080fd5b5061026660048036036020811015610b1e57600080fd5b5035611c69565b348015610b3157600080fd5b5061026660048036036020811015610b4857600080fd5b50356001600160a01b0316611c74565b348015610b6457600080fd5b506103a160048036036101a0811015610b7c57600080fd5b60408051606081810183526001600160a01b03853516946020810135949381013593828201359360808301359391830192916101008301919060a0840190600390839083908082843760009201919091525091949392602081019250359050600160201b811115610bec57600080fd5b820183602082011115610bfe57600080fd5b803590602001918460208302840111600160201b83111715610c1f57600080fd5b9190808060200260200160405190810160405280939291908181526020018383602002808284376000920191909152509295949360208101935035915050600160201b811115610c6e57600080fd5b820183602082011115610c8057600080fd5b803590602001918460208302840111600160201b83111715610ca157600080fd5b919080806020026020016040519081016040528093929190818152602001838360200280828437600092019190915250929550508235935050506020810135151590604001356001600160a01b0316611c7f565b348015610d0157600080fd5b5061026660048036036020811015610d1857600080fd5b50356001600160a01b0316611d32565b348015610d3457600080fd5b5061022060048036036060811015610d4b57600080fd5b506001600160a01b038135169060208101359060400135611d3d565b348015610d7357600080fd5b506103a160048036036040811015610d8a57600080fd5b50803590602001356001600160a01b0316611d52565b348015610dac57600080fd5b5061026660048036036040811015610dc357600080fd5b506001600160a01b0381358116916020013516611dcd565b348015610de757600080fd5b50610e0560048036036020811015610dfe57600080fd5b5035611e0e565b60408051998a5260208a0198909852888801969096526060880194909452608087019290925260a08601526001600160a01b031660c0850152151560e0840152151561010083015251908190036101200190f35b6103a1600480360360a0811015610e6f57600080fd5b6001600160a01b03823581169260208101359091169160408201359160608101359181019060a081016080820135600160201b811115610eae57600080fd5b820183602082011115610ec057600080fd5b803590602001918460018302840111600160201b83111715610ee157600080fd5b509092509050611e6a565b348015610ef857600080fd5b506103a160048036036020811015610f0f57600080fd5b50356001600160a01b0316611fc1565b348015610f2b57600080fd5b506103a160048036036060811015610f4257600080fd5b81359190810190604081016020820135600160201b811115610f6357600080fd5b820183602082011115610f7557600080fd5b803590602001918460208302840111600160201b83111715610f9657600080fd5b9190808060200260200160405190810160405280939291908181526020018383602002808284376000920191909152509295949360208101935035915050600160201b811115610fe557600080fd5b820183602082011115610ff757600080fd5b803590602001918460208302840111600160201b8311171561101857600080fd5b919080806020026020016040519081016040528093929190818152602001838360200280828437600092019190915250929550612014945050505050565b60006001600160a01b03831661109d5760405162461bcd60e51b815260040180806020018281038252602b8152602001806138a0602b913960400191505060405180910390fd5b506000818152600d602090815260408083206001600160a01b03861684526007019091529020545b92915050565b60006001600160e01b031982166301ffc9a760e01b14806110fc57506001600160e01b03198216636cdb3d1360e11b145b156111095750600161110d565b5060005b919050565b8483146111505760405162461bcd60e51b815260040180806020018281038252602e815260200180613a77602e913960400191505060405180910390fd5b6001600160a01b0387166111955760405162461bcd60e51b81526004018080602001828103825260288152602001806139116028913960400191505060405180910390fd5b6001600160a01b0388163314806111b757506111b18833611dcd565b15156001145b6111f25760405162461bcd60e51b8152600401808060200182810382526037815260200180613a406037913960400191505060405180910390fd5b611261888888888080602002602001604051908101604052809392919081815260200183836020028082843760009201919091525050604080516020808c0282810182019093528b82529093508b92508a9182918501908490808284376000920191909152506121ab92505050565b866001600160a01b0316886001600160a01b0316336001600160a01b03167f4a39dc06d4c0dbc64b70af90fd698a233a518aa5d07e595d983b8c0526c8f7fb898989896040518080602001806020018381038352878782818152602001925060200280828437600083820152601f01601f19169091018481038352858152602090810191508690860280828437600083820152604051601f909101601f19169092018290039850909650505050505050a46113b633898989898080602002602001604051908101604052809392919081815260200183836020028082843760009201919091525050604080516020808d0282810182019093528c82529093508c92508b91829185019084908082843760009201919091525050604080516020601f8c018190048102820181019092528a815292508a915089908190840183828082843760009201919091525061226592505050565b5050505050505050565b6000805460018054604080516020600284861615610100026000190190941693909304601f8101849004840282018401909252818152939493929183018282801561144c5780601f106114215761010080835404028352916020019161144c565b820191906000526020600020905b81548152906001019060200180831161142f57829003601f168201915b5050505050905082565b61145e612456565b61149d576040805162461bcd60e51b81526020600482018190526024820152600080516020613a20833981519152604482015290519081900360640190fd5b6001600160a01b03166000908152600c60205260409020805461ff001916610100179055565b600c602052600090815260409020805460019091015460ff808316926101009004169083565b600e6020526000908152604090208054600182015460028301546003840154600485015460059095015493949293919290916001600160a01b0381169060ff600160a01b8204811691600160a81b8104821691600160b01b8204811691600160b81b8104821691600160c01b909104168b565b611564612456565b6115a3576040805162461bcd60e51b81526020600482018190526024820152600080516020613a20833981519152604482015290519081900360640190fd5b6115b0600282600a61374b565b5050565b876115bf8133612467565b6115fe576040805162461bcd60e51b815260206004820152601760248201526000805160206138cb833981519152604482015290519081900360640190fd5b6000898152600d602052604090205461164e576040805162461bcd60e51b815260206004820152600d60248201526c2ab735b737bbb7103a37b5b2b760991b604482015290519081900360640190fd5b61165e89898989898989896124a1565b6040805189815290518a917f199acc06cd2556bbc146fa3cb578799037dffcbf256eca32aaf2ef656925d2fd919081900360200190a2505050505050505050565b606081518351146116e15760405162461bcd60e51b81526004018080602001828103825260308152602001806139656030913960400191505060405180910390fd5b6060835167ffffffffffffffff811180156116fb57600080fd5b50604051908082528060200260200182016040528015611725578160200160208202803683370190505b50905060005b845181101561181b5760006001600160a01b031685828151811061174b57fe5b60200260200101516001600160a01b031614156117995760405162461bcd60e51b81526004018080602001828103825260348152602001806139cb6034913960400191505060405180910390fd5b600d60008583815181106117a957fe5b6020026020010151815260200190815260200160002060070160008683815181106117d057fe5b60200260200101516001600160a01b03166001600160a01b031681526020019081526020016000206000015482828151811061180857fe5b602090810291909101015260010161172b565b509392505050565b600061182f8383612467565b9392505050565b816118418133612467565b611880576040805162461bcd60e51b815260206004820152601760248201526000805160206138cb833981519152604482015290519081900360640190fd5b506000918252600d602090815260408084206001600160a01b039093168452600790920190529020600201805462ff0000191662010000179055565b816118c78133612467565b611906576040805162461bcd60e51b815260206004820152601760248201526000805160206138cb833981519152604482015290519081900360640190fd5b506000918252600d602090815260408084206001600160a01b039093168452600790920190529020600201805462ff000019169055565b611945612456565b611984576040805162461bcd60e51b81526020600482018190526024820152600080516020613a20833981519152604482015290519081900360640190fd5b6001600160a01b03166000908152600c60205260409020805460ff19166001179055565b6119b0612456565b6119ef576040805162461bcd60e51b81526020600482018190526024820152600080516020613a20833981519152604482015290519081900360640190fd5b6001600160a01b03166000908152600c60205260409020805460ff19169055565b611a18612456565b611a57576040805162461bcd60e51b81526020600482018190526024820152600080516020613a20833981519152604482015290519081900360640190fd5b6000918252600d602090815260408084206001600160a01b039093168452600790920190529020600201805460ff19166001179055565b600f546001600160a01b031690565b336001600160a01b0383161415611ae55760405162461bcd60e51b815260040180806020018281038252602c815260200180613939602c913960400191505060405180910390fd5b3360008181526010602090815260408083206001600160a01b03871680855290835292819020805460ff1916861515908117909155815190815290519293927f17307eab39ab6107e8899845ad3d59bd9653f200f220920489ca2b5937696c31929181900390910190a35050565b81611b5e8133612467565b611b9d576040805162461bcd60e51b815260206004820152601760248201526000805160206138cb833981519152604482015290519081900360640190fd5b611ba78383612645565b505050565b611bb4612456565b611bf3576040805162461bcd60e51b81526020600482018190526024820152600080516020613a20833981519152604482015290519081900360640190fd5b6001600160a01b03166000908152600c60205260409020805461ff0019169055565b81611c208133612467565b611c5f576040805162461bcd60e51b815260206004820152601760248201526000805160206138cb833981519152604482015290519081900360640190fd5b611ba7838361269b565b60006110c5826126f7565b60006110c582612716565b611c8833612716565b611cc7576040805162461bcd60e51b815260206004820152601760248201526000805160206138cb833981519152604482015290519081900360640190fd5b611cda8b8b8b8b8b8b8b8b8b8b8b612740565b604080518b8152602081018b905281516001600160a01b038e169260009233927fc3d58168c5ae7397731d063d5bbf3d657854427343f4c083240f7aacaa2d0f62929181900390910190a45050505050505050505050565b60006110c5826128a9565b6000611d4a8484846128cc565b949350505050565b611d5a612456565b611d99576040805162461bcd60e51b81526020600482018190526024820152600080516020613a20833981519152604482015290519081900360640190fd5b6000918252600d602090815260408084206001600160a01b039093168452600790920190529020600201805460ff19169055565b6000611dd98383612ab4565b8061182f5750506001600160a01b03918216600090815260106020908152604080832093909416825291909152205460ff1690565b600d60205260009081526040902080546001820154600283015460038401546004850154600586015460069096015494959394929391929091906001600160a01b0381169060ff600160a01b8204811691600160a81b90041689565b6001600160a01b038516611eaf5760405162461bcd60e51b81526004018080602001828103825260288152602001806139116028913960400191505060405180910390fd5b6001600160a01b038616331480611ed15750611ecb8633611dcd565b15156001145b611f0c5760405162461bcd60e51b8152600401808060200182810382526037815260200180613a406037913960400191505060405180910390fd5b611f1886868686612b9b565b846001600160a01b0316866001600160a01b0316336001600160a01b03167fc3d58168c5ae7397731d063d5bbf3d657854427343f4c083240f7aacaa2d0f628787604051808381526020018281526020019250505060405180910390a4611fb9338787878787878080601f016020809104026020016040519081016040528093929190818152602001838380828437600092019190915250612c1392505050565b505050505050565b611fc9612456565b612008576040805162461bcd60e51b81526020600482018190526024820152600080516020613a20833981519152604482015290519081900360640190fd5b61201181612d88565b50565b61201d33612716565b61205c576040805162461bcd60e51b815260206004820152601760248201526000805160206138cb833981519152604482015290519081900360640190fd5b6000838152600d60205260409020541580159061207a575080518251145b6120bf576040805162461bcd60e51b8152602060048201526011602482015270496e76616c696420617267756d656e747360781b604482015290519081900360640190fd5b60005b82518110156121a5576120fc848483815181106120db57fe5b60200260200101518484815181106120ef57fe5b6020026020010151612e29565b6000848152600d60205260408120600801805490919061211857fe5b600091825260208220015484516001600160a01b03909116919033907fc3d58168c5ae7397731d063d5bbf3d657854427343f4c083240f7aacaa2d0f629087908690811061216257fe5b6020026020010151600d60008a815260200190815260200160002060000154604051808381526020018281526020019250505060405180910390a46001016120c2565b50505050565b60008034116121d5576001600160a01b0385166000908152600c60205260409020600101546121d7565b345b905060005b83518110156122535761224961221a87878785815181106121f957fe5b602002602001015187868151811061220d57fe5b6020026020010151612fc6565b60408051808201909152601081526f092dce6eaccccd2c6d2cadce8408aa8960831b6020820152849190613024565b91506001016121dc565b5061225e85826130bb565b5050505050565b612277846001600160a01b031661313c565b15611fb95763bc197c8160e01b6001600160e01b031916846001600160a01b031663bc197c8188888787876040518663ffffffff1660e01b815260040180866001600160a01b03168152602001856001600160a01b03168152602001806020018060200180602001848103845287818151815260200191508051906020019060200280838360005b838110156123175781810151838201526020016122ff565b50505050905001848103835286818151815260200191508051906020019060200280838360005b8381101561235657818101518382015260200161233e565b50505050905001848103825285818151815260200191508051906020019080838360005b8381101561239257818101518382015260200161237a565b50505050905090810190601f1680156123bf5780820380516001836020036101000a031916815260200191505b5098505050505050505050602060405180830381600087803b1580156123e457600080fd5b505af11580156123f8573d6000803e3d6000fd5b505050506040513d602081101561240e57600080fd5b50516001600160e01b03191614611fb95760405162461bcd60e51b81526004018080602001828103825260368152602001806139956036913960400191505060405180910390fd5b600f546001600160a01b0316331490565b6000828152600d602090815260408083206001600160a01b038516845260070190915281206002015460ff168061182f575061182f612456565b6000805b85518110156124d1578581815181106124ba57fe5b6020026020010151820191508060010190506124a5565b50600086511180156124e1575060015b80156124ee575080612710145b80156124fb575061271084105b612540576040805162461bcd60e51b8152602060048201526011602482015270496e76616c696420617267756d656e747360781b604482015290519081900360640190fd5b6000898152600d60209081526040808320600581018c90558a516002808301919091558b840151600383015582518084018452428152928c015183850152600b9091018054600181018255908552929093206125a09392830201916137a3565b506000898152600d6020908152604090912087516125c6926009909201918901906137dd565b506000898152600d6020908152604090912086516125ec92600a90920191880190613831565b50506000978852600d602052604090972060048101929092556006909101805460ff60a01b1916600160a01b92151592909202919091176001600160a01b0319166001600160a01b039096169590951790945550505050565b6000828152600d6020908152604091829020600601805460ff60a81b191690558151838152915184927f199acc06cd2556bbc146fa3cb578799037dffcbf256eca32aaf2ef656925d2fd92908290030190a25050565b6000828152600d6020908152604091829020600601805460ff60a81b1916600160a81b1790558151838152915184927f199acc06cd2556bbc146fa3cb578799037dffcbf256eca32aaf2ef656925d2fd92908290030190a25050565b6000908152600d6020526040902060060154600160a81b900460ff1690565b6001600160a01b0381166000908152600c602052604081205460ff16806110c557506110c5612456565b60008a8152600d602052604090205415801561275c5750600089115b6127a1576040805162461bcd60e51b8152602060048201526011602482015270496e76616c696420617267756d656e747360781b604482015290519081900360640190fd5b88600d60008c81526020019081526020016000206000018190555087600d60008c8152602001908152602001600020600101819055506001600d60008c81526020019081526020016000206007016000336001600160a01b03166001600160a01b0316815260200190815260200160002060020160006101000a81548160ff0219169083151502179055506001600d60008c815260200190815260200160002060070160008d6001600160a01b03166001600160a01b0316815260200190815260200160002060020160026101000a81548160ff0219169083151502179055506128918a888888888888886124a1565b61289c8b8b8b613173565b5050505050505050505050565b6001600160a01b03166000908152600c6020526040902054610100900460ff1690565b6000828152600d60205260408120600b015481904290600019015b6000868152600d60205260408120600b0180548390811061290457fe5b60009182526020822060029091020101546000888152600d60205260408120600b01805492935090918490811061293757fe5b906000526020600020906002020160016002811061295157fe5b01546000898152600d602090815260408083206001600160a01b038e1684526007019091528120600101549192509083116129f4576000898152600d602090815260408083206001600160a01b038e1684526007019091529020600101546129c99062015180906129c390889061321c565b9061325e565b9050806129d4575060015b6129e8886129e283856132a0565b906132a0565b86019550505050612a33565b612a05620151806129c3878661321c565b905080612a10575060015b9193508391612a23886129e283856132a0565b90950194505050600019016128e7565b506000858152600d6020526040902060010154612a54908390600a0a61325e565b6000868152600d602052604081206003015491935090612a7f906305f5e100906129c39088906132a0565b6000878152600d6020526040902060020154909150612aa990612aa290836132f9565b84906132f9565b979650505050505050565b6000805b600a811015612b91576000600282600a8110612ad057fe5b01546001600160a01b031614612b89576000600282600a8110612aef57fe5b01546040805163c455279160e01b81526001600160a01b0388811660048301529151928216935090861691839163c4552791916024808301926020929190829003018186803b158015612b4157600080fd5b505afa158015612b55573d6000803e3d6000fd5b505050506040513d6020811015612b6b57600080fd5b50516001600160a01b03161415612b87576001925050506110c5565b505b600101612ab8565b5060009392505050565b6000803411612bc5576001600160a01b0385166000908152600c6020526040902060010154612bc7565b345b9050612c07612bd886868686612fc6565b60408051808201909152601081526f092dce6eaccccd2c6d2cadce8408aa8960831b6020820152839190613024565b905061225e85826130bb565b612c25846001600160a01b031661313c565b15611fb95763f23a6e6160e01b6001600160e01b031916846001600160a01b031663f23a6e6188888787876040518663ffffffff1660e01b815260040180866001600160a01b03168152602001856001600160a01b0316815260200184815260200183815260200180602001828103825283818151815260200191508051906020019080838360005b83811015612cc6578181015183820152602001612cae565b50505050905090810190601f168015612cf35780820380516001836020036101000a031916815260200191505b509650505050505050602060405180830381600087803b158015612d1657600080fd5b505af1158015612d2a573d6000803e3d6000fd5b505050506040513d6020811015612d4057600080fd5b50516001600160e01b03191614611fb95760405162461bcd60e51b8152600401808060200182810382526031815260200180613aa56031913960400191505060405180910390fd5b6001600160a01b038116612dcd5760405162461bcd60e51b81526004018080602001828103825260268152602001806138eb6026913960400191505060405180910390fd5b600f546040516001600160a01b038084169216907f8be0079c531659141344cd1fd0a4f28419497f9722a3daafe3b4186f6b6457e090600090a3600f80546001600160a01b0319166001600160a01b0392909216919091179055565b6000838152600d602052604081206008018054611ba79290612e4757fe5b6000918252602080832090910154868352600d8083526040808520805460018201548351606081018552600284015481526003840154818901528c895294909652600b90910180546001600160a01b03909516968a96929592948a949093908401929190612eb157fe5b9060005260206000209060020201600160028110612ecb57fe5b0154905260008a8152600d602090815260409182902060090180548351818402810184019094528084529091830182828015612f3057602002820191906000526020600020905b81546001600160a01b03168152600190910190602001808311612f12575b50505060008d8152600d6020908152604091829020600a0180548351818402810184019094528084529294509250830182828015612f8d57602002820191906000526020600020905b815481526020019060010190808311612f79575b50505060008e8152600d60205260409020600481015460069091015490925060ff600160a01b82041691506001600160a01b0316612740565b6000612fd485858585613353565b1561300f576040805162461bcd60e51b8152602060048201526006602482015265131bd8dad95960d21b604482015290519081900360640190fd5b61301b8585858561338b565b95945050505050565b600081848411156130b35760405162461bcd60e51b81526004018080602001828103825283818151815260200191508051906020019080838360005b83811015613078578181015183820152602001613060565b50505050905090810190601f1680156130a55780820380516001836020036101000a031916815260200191505b509250505060405180910390fd5b505050900390565b6000341180156130cb5750600081115b15613117576001600160a01b0382166000908152600c60205260409020600101546130f690826132f9565b6001600160a01b0383166000908152600c60205260409020600101556115b0565b346115b0576001600160a01b03919091166000908152600c6020526040902060010155565b6000813f7fc5d2460186f7233c927e7db2dcc703c0e500b653ca82273b7bfad8045d85a4708115801590611d4a5750141592915050565b6000828152600d6020526040902060060154600160a01b900460ff1615806131c957506000828152600d602090815260408083206001600160a01b038716845260070190915290206002015462010000900460ff165b613211576040805162461bcd60e51b81526020600482015260146024820152731059191c995cdcc81b9bdd08185c1c1c9bdd995960621b604482015290519081900360640190fd5b611ba78383836134e8565b600061182f83836040518060400160405280601e81526020017f536166654d6174683a207375627472616374696f6e206f766572666c6f770000815250613024565b600061182f83836040518060400160405280601a81526020017f536166654d6174683a206469766973696f6e206279207a65726f0000000000008152506136e6565b6000826132af575060006110c5565b828202828482816132bc57fe5b041461182f5760405162461bcd60e51b81526004018080602001828103825260218152602001806139ff6021913960400191505060405180910390fd5b60008282018381101561182f576040805162461bcd60e51b815260206004820152601b60248201527f536166654d6174683a206164646974696f6e206f766572666c6f770000000000604482015290519081900360640190fd5b600061335e836126f7565b8061336d575061336d856128a9565b8061337c575061337c846128a9565b8061301b575050159392505050565b6040805180820182526014815273496e73756666696369656e742062616c616e636560601b6020808301919091526000858152600d82528381206001600160a01b0389168252600701909152918220546133e6918490613024565b6000848152600d602090815260408083206001600160a01b038a168452600701909152902055613417848484613173565b6134228584846128cc565b905060005b6000848152600d60205260409020600901548110156134df576000848152600d6020526040812060090180548390811061345d57fe5b6000918252602080832090910154878352600d90915260408220600a0180546001600160a01b039092169350908490811061349457fe5b60009182526020909120015490506134b26127106129c386846132a0565b6001600160a01b039092166000908152600c60205260409020600190810180549093019092555001613427565b50949350505050565b6000828152600d602090815260408083206001600160a01b038716845260070190915281205461351890836132f9565b6000848152600d602090815260408083206001600160a01b0389168452600701909152902054909150613615576000838152600d602090815260408083206001600160a01b0388168452600701909152902060020154610100900460ff166135e4576001600160a01b0384166000818152600c6020908152604080832060020180546001818101835591855283852001889055878452600d83529083206008810180549283018155845282842090910180546001600160a01b0319168517905592909152600790910190525b6000838152600d602090815260408083206001600160a01b03881684526007019091529020426001909101556136b6565b6000838152600d602090815260408083206001600160a01b038816845260070190915281206001015461364990429061321c565b6000858152600d602090815260408083206001600160a01b038a168452600701909152812054919250906136839084906129c390856132a0565b6000868152600d602090815260408083206001600160a01b038b1684526007019091529020429190910360019091015550505b6000928352600d602090815260408085206001600160a01b03909616855260079095019052929091209190915550565b600081836137355760405162461bcd60e51b8152602060048201818152835160248401528351909283926044909101919085019080838360008315613078578181015183820152602001613060565b50600083858161374157fe5b0495945050505050565b82600a8101928215613793579160200282015b8281111561379357825182546001600160a01b0319166001600160a01b0390911617825560209092019160019091019061375e565b5061379f92915061386b565b5090565b82600281019282156137d1579160200282015b828111156137d15782518255916020019190600101906137b6565b5061379f92915061388a565b828054828255906000526020600020908101928215613793579160200282018281111561379357825182546001600160a01b0319166001600160a01b0390911617825560209092019160019091019061375e565b8280548282559060005260206000209081019282156137d157916020028201828111156137d15782518255916020019190600101906137b6565b5b8082111561379f5780546001600160a01b031916815560010161386c565b5b8082111561379f576000815560010161388b56fe455243313135353a2062616c616e636520717565727920666f7220746865207a65726f2061646472657373496e73756666696369656e74207065726d697373696f6e0000000000000000004f776e61626c653a206e6577206f776e657220697320746865207a65726f2061646472657373455243313135353a207461726765742061646472657373206d757374206265206e6f6e2d7a65726f455243313135353a2063616e6e6f742073657420617070726f76616c2073746174757320666f722073656c66455243313135353a206163636f756e747320616e6420494473206d75737420686176652073616d65206c656e67746873455243313135353a20676f7420756e6b6e6f776e2076616c75652066726f6d206f6e4552433131353542617463685265636569766564455243313135353a20736f6d65206164647265737320696e2062617463682062616c616e6365207175657279206973207a65726f536166654d6174683a206d756c7469706c69636174696f6e206f766572666c6f774f776e61626c653a2063616c6c6572206973206e6f7420746865206f776e6572455243313135353a206e656564206f70657261746f7220617070726f76616c20666f7220337264207061727479207472616e7366657273455243313135353a2049447320616e642076616c756573206d75737420686176652073616d65206c656e67746873455243313135353a20676f7420756e6b6e6f776e2076616c75652066726f6d206f6e455243313135355265636569766564a2646970667358221220e03d0ec9390d0fa4fdd845155a27d90ba294d3923210a92ab5c8ffe8a2330a7a64736f6c634300070100334f776e61626c653a206e6577206f776e657220697320746865207a65726f2061646472657373",
  "immutableReferences": {},
  "source": "// SPDX-License-Identifier: GPL-3.0-or-later\npragma solidity ^0.7.1;\n\nimport './Privatizable.sol';\n\ncontract Lockable is Privatizable {\n\n\n    /****************************\n    EXTERNAL FUNCTIONS\n    *****************************/\n\n\n    /**\n     * @dev Function to lock a token.\n     * @param id The token ID\n     */\n    function lockToken(uint256 id, uint256 documentHash) external onlyMaintener(id) {\n        _lockToken(id, documentHash);\n    }\n\n    /**\n     * @dev Function to unlock a token.\n     * @param id The token ID\n     */\n    function unlockToken(uint256 id, uint256 documentHash) external onlyMaintener(id) {\n        _unlockToken(id, documentHash);\n    }\n\n    /**\n     * @dev Function to check if a token is locked.\n     * @param id The token ID\n     */\n    function isLockedToken(uint256 id) external view returns (bool){\n        return _isLockedToken(id);\n    }\n\n    /**\n     * @dev Function to lock an address.\n     * @param addr The address to lock\n     */\n    function lockAddress(address addr) external onlyOwner {\n        _users[addr].isLocked = true;\n    }\n\n    /**\n     * @dev Function to unlock an address.\n     * @param addr The address to unlock\n     */\n    function unlockAddress(address addr) external onlyOwner {\n        _users[addr].isLocked = false;\n    }\n\n    /**\n     * @dev Function to check if an address is lockec.\n     * @param addr The address to check\n     */\n    function isLockedAddress(address addr) external view returns (bool){\n        return _isLockedAddress(addr);\n    }\n\n\n    /****************************\n    INTERNAL FUNCTIONS\n    *****************************/\n\n\n    function _lockToken(uint256 id, uint256 documentHash) internal {\n        _tokens[id].locked = true;\n        emit TokenUpdated(id, documentHash);\n    }\n\n    function _unlockToken(uint256 id, uint256 documentHash) internal {\n        _tokens[id].locked = false;\n        emit TokenUpdated(id, documentHash);\n    }\n\n    function _isLockedToken(uint256 id) internal view returns (bool) {\n        return _tokens[id].locked;\n    }\n\n    function _isLockedAddress(address addr) internal view returns (bool) {\n        return _users[addr].isLocked;\n    }\n\n    function _isLockedMove(address from, address to, uint256 id, uint256 value) internal view returns (bool) {\n        return _isLockedToken(id) || _isLockedAddress(from) || _isLockedAddress(to) || (value == 0);\n    }\n\n    // override ChargeableTransfer._moveTokens\n    function _moveTokens(address from, address to, uint256 id, uint256 value) internal override returns (uint256 fees) {\n        require(!_isLockedMove(from, to, id, value), \"Locked\");\n        return super._moveTokens(from, to, id, value);\n    }\n}\n",
  "sourcePath": "/home/ouziel/Work/StashBloxContracts/contracts/lib/Lockable.sol",
  "compiler": {
    "name": "solc",
    "version": "0.7.1+commit.f4a555be.Emscripten.clang"
  },
  "schemaVersion": "3.2.3",
  "updatedAt": "2020-10-20T21:56:14.885Z",
  "devdoc": {
    "kind": "dev",
    "methods": {
      "approveHolder(uint256,address)": {
        "details": "Function to approve holder for a private token.",
        "params": {
          "holder": "The authorized address",
          "id": "the token id"
        }
      },
      "authorizeMaintener(uint256,address)": {
        "details": "Function to authorize an address to maintain a token.",
        "params": {
          "maintener": "The authorized address"
        }
      },
      "authorizeTokenizer(address)": {
        "details": "Function to authorize an address to create a token.",
        "params": {
          "tokenizer": "The authorized address"
        }
      },
      "balanceOf(address,uint256)": {
        "details": "Get the specified address' balance for token with specified ID. Attempting to query the zero account for a balance will result in a revert.",
        "params": {
          "account": "The address of the token holder",
          "id": "ID of the token"
        },
        "returns": {
          "_0": "The account's balance of the token type requested"
        }
      },
      "balanceOfBatch(address[],uint256[])": {
        "details": "Get the balance of multiple account/token pairs. If any of the query accounts is the zero account, this query will revert.",
        "params": {
          "accounts": "The addresses of the token holders",
          "ids": "IDs of the tokens"
        },
        "returns": {
          "_0": "Balances for each account and token id pair"
        }
      },
      "cloneToken(uint256,uint256[],uint256[])": {
        "details": "Function to mint tokens in batch.",
        "params": {
          "id": "Identifier of the template",
          "ids": "list of IDs of the tokens to be minted",
          "metadataHashes": "list of metadata file hashes"
        }
      },
      "createToken(address,uint256,uint256,uint256,uint256,uint256[3],address[],uint256[],uint256,bool,address)": {
        "details": "Function to mint an amount of a token with the given ID.",
        "params": {
          "feesRecipients": "list of addresses receiving transfer fees",
          "feesRecipientsPercentage": "list of percentage, each one for the corresponding feesRecipients",
          "id": "ID of the token to be minted",
          "isPrivate": "true if holder need approval",
          "legalAuthority": "address of the legal authority",
          "metadataHash": "Metadata file hash",
          "minHoldingForCallback": "minimum holding to propose a callback",
          "recipient": "The address that will own the minted tokens",
          "supply": "Amount of the token to be minted",
          "transactionFees": "transaction fees: [lumpSumFees (in WEI), valueProportionalFees (ratio of transfered amount * 10**8), storageFees (in storageCredit * 10**8)]"
        }
      },
      "isApprovedForAll(address,address)": {
        "params": {
          "account": "The account of the Tokens",
          "operator": "Address of authorized operator"
        },
        "returns": {
          "_0": "True if the operator is approved, false if not"
        }
      },
      "isLockedAddress(address)": {
        "details": "Function to check if an address is lockec.",
        "params": {
          "addr": "The address to check"
        }
      },
      "isLockedToken(uint256)": {
        "details": "Function to check if a token is locked.",
        "params": {
          "id": "The token ID"
        }
      },
      "isMaintener(uint256,address)": {
        "details": "Function to check if an address is authorized to maintain a token.",
        "params": {
          "id": "the token id",
          "maintener": "The authorized address"
        },
        "returns": {
          "_0": "true if it's a maintener address"
        }
      },
      "isTokenizer(address)": {
        "details": "Function to check if an address is authorized to create a token.",
        "params": {
          "tokenizer": "The authorized address"
        }
      },
      "lockAddress(address)": {
        "details": "Function to lock an address.",
        "params": {
          "addr": "The address to lock"
        }
      },
      "lockToken(uint256,uint256)": {
        "details": "Function to lock a token.",
        "params": {
          "id": "The token ID"
        }
      },
      "owner()": {
        "details": "Returns the address of the current owner."
      },
      "revokeHolder(uint256,address)": {
        "details": "Function to revoke holder for a private token.",
        "params": {
          "holder": "The authorized address",
          "id": "the token id"
        }
      },
      "revokeMaintener(uint256,address)": {
        "details": "Function to revoke the authorization to maintain a token.",
        "params": {
          "id": "the token id",
          "maintener": "The authorized address"
        }
      },
      "revokeTokenizer(address)": {
        "details": "Function to revoke the authorization to create a token.",
        "params": {
          "tokenizer": "The authorized address"
        }
      },
      "safeBatchTransferFrom(address,address,uint256[],uint256[],bytes)": {
        "details": "Transfers `values` amount(s) of `ids` from the `from` address to the `to` address specified. Caller must be approved to manage the tokens being transferred out of the `from` account. If `to` is a smart contract, will call `onERC1155BatchReceived` on `to` and act appropriately.",
        "params": {
          "data": "Data forwarded to `onERC1155Received` if `to` is a contract receiver",
          "from": "Source address",
          "ids": "IDs of each token type",
          "to": "Target address",
          "values": "Transfer amounts per token type"
        }
      },
      "safeTransferFrom(address,address,uint256,uint256,bytes)": {
        "details": "Transfers `value` amount of an `id` from the `from` address to the `to` address specified. Caller must be approved to manage the tokens being transferred out of the `from` account. If `to` is a smart contract, will call `onERC1155Received` on `to` and act appropriately.",
        "params": {
          "data": "Data forwarded to `onERC1155Received` if `to` is a contract receiver",
          "from": "Source address",
          "id": "ID of the token type",
          "to": "Target address",
          "value": "Transfer amount"
        }
      },
      "setApprovalForAll(address,bool)": {
        "details": "Sets or unsets the approval of a given operator. An operator is allowed to transfer all tokens of the sender on their behalf. Because an account already has operator privileges for itself, this function will revert if the account attempts to set the approval status for itself.",
        "params": {
          "approved": "representing the status of the approval to be set",
          "operator": "address to set the approval"
        }
      },
      "setProxyRegistryAddress(address[10])": {
        "details": "Function to update the operator whitelist",
        "params": {
          "proxyAddresses": "List of addresses"
        }
      },
      "supportsInterface(bytes4)": {
        "params": {
          "_interfaceID": "The interface identifier, as specified in ERC-165"
        },
        "returns": {
          "_0": "`true` if the contract implements `_interfaceID` and"
        }
      },
      "transactionFees(address,uint256,uint256)": {
        "details": "Function to get the transaction price to transfer tokens.",
        "params": {
          "account": "the address from where to transfer the tokens",
          "id": "The token ID",
          "value": "The amount to transfer"
        }
      },
      "transferOwnership(address)": {
        "details": "Transfers ownership of the contract to a new account (`newOwner`). Can only be called by the current owner."
      },
      "unlockAddress(address)": {
        "details": "Function to unlock an address.",
        "params": {
          "addr": "The address to unlock"
        }
      },
      "unlockToken(uint256,uint256)": {
        "details": "Function to unlock a token.",
        "params": {
          "id": "The token ID"
        }
      },
      "updateToken(uint256,uint256,uint256[3],address[],uint256[],uint256,bool,address)": {
        "details": "Function to update a token with the given ID.",
        "params": {
          "feesRecipients": "list of addresses receiving transfer fees",
          "feesRecipientsPercentage": "list of percentage, each one for the corresponding feesRecipients",
          "id": "ID of the token to be updated",
          "isPrivate": "true if holder need approval",
          "legalAuthority": "address of the legal authority",
          "metadataHash": "Metadata file hash",
          "minHoldingForCallback": "minimum holding to propose a callback",
          "transactionFees": "transaction fees: [lumpSumFees (in WEI), valueProportionalFees (ratio of transfered amount * 10**8), storageFees (in storageCredit * 10**8)]"
        }
      }
    },
    "version": 1
  },
  "userdoc": {
    "kind": "user",
    "methods": {
      "isApprovedForAll(address,address)": {
        "notice": "Queries the approval status of an operator for a given account."
      },
      "supportsInterface(bytes4)": {
        "notice": "Query if a contract implements an interface"
      }
    },
    "version": 1
  }
}