{
  "contractName": "Maintenable",
  "abi": [
    {
      "anonymous": false,
      "inputs": [
        {
          "indexed": true,
          "internalType": "address",
          "name": "_owner",
          "type": "address"
        },
        {
          "indexed": true,
          "internalType": "address",
          "name": "_operator",
          "type": "address"
        },
        {
          "indexed": false,
          "internalType": "bool",
          "name": "_approved",
          "type": "bool"
        }
      ],
      "name": "ApprovalForAll",
      "type": "event"
    },
    {
      "anonymous": false,
      "inputs": [
        {
          "indexed": true,
          "internalType": "address",
          "name": "previousOwner",
          "type": "address"
        },
        {
          "indexed": true,
          "internalType": "address",
          "name": "newOwner",
          "type": "address"
        }
      ],
      "name": "OwnershipTransferred",
      "type": "event"
    },
    {
      "anonymous": false,
      "inputs": [
        {
          "indexed": true,
          "internalType": "uint256",
          "name": "_id",
          "type": "uint256"
        },
        {
          "indexed": false,
          "internalType": "uint256",
          "name": "_documentHash",
          "type": "uint256"
        }
      ],
      "name": "TokenUpdated",
      "type": "event"
    },
    {
      "anonymous": false,
      "inputs": [
        {
          "indexed": true,
          "internalType": "address",
          "name": "_operator",
          "type": "address"
        },
        {
          "indexed": true,
          "internalType": "address",
          "name": "_from",
          "type": "address"
        },
        {
          "indexed": true,
          "internalType": "address",
          "name": "_to",
          "type": "address"
        },
        {
          "indexed": false,
          "internalType": "uint256[]",
          "name": "_ids",
          "type": "uint256[]"
        },
        {
          "indexed": false,
          "internalType": "uint256[]",
          "name": "_values",
          "type": "uint256[]"
        }
      ],
      "name": "TransferBatch",
      "type": "event"
    },
    {
      "anonymous": false,
      "inputs": [
        {
          "indexed": true,
          "internalType": "address",
          "name": "_operator",
          "type": "address"
        },
        {
          "indexed": true,
          "internalType": "address",
          "name": "_from",
          "type": "address"
        },
        {
          "indexed": true,
          "internalType": "address",
          "name": "_to",
          "type": "address"
        },
        {
          "indexed": false,
          "internalType": "uint256",
          "name": "_id",
          "type": "uint256"
        },
        {
          "indexed": false,
          "internalType": "uint256",
          "name": "_value",
          "type": "uint256"
        }
      ],
      "name": "TransferSingle",
      "type": "event"
    },
    {
      "anonymous": false,
      "inputs": [
        {
          "indexed": false,
          "internalType": "string",
          "name": "_value",
          "type": "string"
        },
        {
          "indexed": true,
          "internalType": "uint256",
          "name": "_id",
          "type": "uint256"
        }
      ],
      "name": "URI",
      "type": "event"
    },
    {
      "inputs": [
        {
          "internalType": "uint256",
          "name": "",
          "type": "uint256"
        }
      ],
      "name": "_callbacks",
      "outputs": [
        {
          "internalType": "uint256",
          "name": "tokenId",
          "type": "uint256"
        },
        {
          "internalType": "uint256",
          "name": "price",
          "type": "uint256"
        },
        {
          "internalType": "uint256",
          "name": "escrowedAmount",
          "type": "uint256"
        },
        {
          "internalType": "uint256",
          "name": "callCounter",
          "type": "uint256"
        },
        {
          "internalType": "uint256",
          "name": "documentHash",
          "type": "uint256"
        },
        {
          "internalType": "address",
          "name": "caller",
          "type": "address"
        },
        {
          "internalType": "bool",
          "name": "needLegalApproval",
          "type": "bool"
        },
        {
          "internalType": "bool",
          "name": "approvedByLegal",
          "type": "bool"
        },
        {
          "internalType": "bool",
          "name": "refused",
          "type": "bool"
        },
        {
          "internalType": "bool",
          "name": "accepted",
          "type": "bool"
        },
        {
          "internalType": "bool",
          "name": "completed",
          "type": "bool"
        }
      ],
      "stateMutability": "view",
      "type": "function"
    },
    {
      "inputs": [],
      "name": "_config",
      "outputs": [
        {
          "internalType": "uint256",
          "name": "callbackAutoExecuteMaxAddresses",
          "type": "uint256"
        },
        {
          "internalType": "string",
          "name": "baseURI",
          "type": "string"
        },
        {
          "internalType": "address",
          "name": "owner",
          "type": "address"
        }
      ],
      "stateMutability": "view",
      "type": "function"
    },
    {
      "inputs": [
        {
          "internalType": "uint256",
          "name": "",
          "type": "uint256"
        }
      ],
      "name": "_tokens",
      "outputs": [
        {
          "internalType": "uint256",
          "name": "supply",
          "type": "uint256"
        },
        {
          "internalType": "uint256",
          "name": "decimals",
          "type": "uint256"
        },
        {
          "internalType": "uint256",
          "name": "lumpSumTransactionFees",
          "type": "uint256"
        },
        {
          "internalType": "uint256",
          "name": "valueTransactionFees",
          "type": "uint256"
        },
        {
          "internalType": "uint256",
          "name": "minHoldingForCallback",
          "type": "uint256"
        },
        {
          "internalType": "uint256",
          "name": "metadataHash",
          "type": "uint256"
        },
        {
          "internalType": "address",
          "name": "legalAuthority",
          "type": "address"
        },
        {
          "internalType": "bool",
          "name": "isPrivate",
          "type": "bool"
        },
        {
          "internalType": "bool",
          "name": "locked",
          "type": "bool"
        }
      ],
      "stateMutability": "view",
      "type": "function"
    },
    {
      "inputs": [
        {
          "internalType": "address",
          "name": "",
          "type": "address"
        }
      ],
      "name": "_users",
      "outputs": [
        {
          "internalType": "bool",
          "name": "isTokenizer",
          "type": "bool"
        },
        {
          "internalType": "bool",
          "name": "isLocked",
          "type": "bool"
        },
        {
          "internalType": "uint256",
          "name": "ETHBalance",
          "type": "uint256"
        }
      ],
      "stateMutability": "view",
      "type": "function"
    },
    {
      "inputs": [
        {
          "internalType": "address",
          "name": "tokenizer",
          "type": "address"
        }
      ],
      "name": "authorizeTokenizer",
      "outputs": [],
      "stateMutability": "nonpayable",
      "type": "function"
    },
    {
      "inputs": [
        {
          "internalType": "address",
          "name": "account",
          "type": "address"
        },
        {
          "internalType": "uint256",
          "name": "id",
          "type": "uint256"
        }
      ],
      "name": "averageAge",
      "outputs": [
        {
          "internalType": "uint256",
          "name": "",
          "type": "uint256"
        }
      ],
      "stateMutability": "view",
      "type": "function"
    },
    {
      "inputs": [
        {
          "internalType": "address",
          "name": "account",
          "type": "address"
        },
        {
          "internalType": "uint256",
          "name": "id",
          "type": "uint256"
        }
      ],
      "name": "balanceOf",
      "outputs": [
        {
          "internalType": "uint256",
          "name": "",
          "type": "uint256"
        }
      ],
      "stateMutability": "view",
      "type": "function"
    },
    {
      "inputs": [
        {
          "internalType": "address[]",
          "name": "accounts",
          "type": "address[]"
        },
        {
          "internalType": "uint256[]",
          "name": "ids",
          "type": "uint256[]"
        }
      ],
      "name": "balanceOfBatch",
      "outputs": [
        {
          "internalType": "uint256[]",
          "name": "",
          "type": "uint256[]"
        }
      ],
      "stateMutability": "view",
      "type": "function"
    },
    {
      "inputs": [
        {
          "internalType": "uint256",
          "name": "id",
          "type": "uint256"
        },
        {
          "internalType": "uint256[]",
          "name": "ids",
          "type": "uint256[]"
        },
        {
          "internalType": "uint256[]",
          "name": "metadataHashes",
          "type": "uint256[]"
        }
      ],
      "name": "cloneToken",
      "outputs": [],
      "stateMutability": "nonpayable",
      "type": "function"
    },
    {
      "inputs": [
        {
          "internalType": "address",
          "name": "recipient",
          "type": "address"
        },
        {
          "internalType": "uint256",
          "name": "id",
          "type": "uint256"
        },
        {
          "internalType": "uint256",
          "name": "supply",
          "type": "uint256"
        },
        {
          "internalType": "uint256",
          "name": "decimals",
          "type": "uint256"
        },
        {
          "internalType": "uint256",
          "name": "metadataHash",
          "type": "uint256"
        },
        {
          "internalType": "uint256[3]",
          "name": "transactionFees",
          "type": "uint256[3]"
        },
        {
          "internalType": "address[]",
          "name": "feesRecipients",
          "type": "address[]"
        },
        {
          "internalType": "uint256[]",
          "name": "feesRecipientsPercentage",
          "type": "uint256[]"
        },
        {
          "internalType": "uint256",
          "name": "minHoldingForCallback",
          "type": "uint256"
        },
        {
          "internalType": "bool",
          "name": "isPrivate",
          "type": "bool"
        },
        {
          "internalType": "address",
          "name": "legalAuthority",
          "type": "address"
        }
      ],
      "name": "createToken",
      "outputs": [],
      "stateMutability": "nonpayable",
      "type": "function"
    },
    {
      "inputs": [
        {
          "internalType": "address",
          "name": "account",
          "type": "address"
        },
        {
          "internalType": "address",
          "name": "operator",
          "type": "address"
        }
      ],
      "name": "isApprovedForAll",
      "outputs": [
        {
          "internalType": "bool",
          "name": "",
          "type": "bool"
        }
      ],
      "stateMutability": "view",
      "type": "function"
    },
    {
      "inputs": [
        {
          "internalType": "address",
          "name": "tokenizer",
          "type": "address"
        }
      ],
      "name": "isTokenizer",
      "outputs": [
        {
          "internalType": "bool",
          "name": "",
          "type": "bool"
        }
      ],
      "stateMutability": "view",
      "type": "function"
    },
    {
      "inputs": [
        {
          "internalType": "address",
          "name": "forwarder",
          "type": "address"
        }
      ],
      "name": "isTrustedForwarder",
      "outputs": [
        {
          "internalType": "bool",
          "name": "",
          "type": "bool"
        }
      ],
      "stateMutability": "view",
      "type": "function"
    },
    {
      "inputs": [],
      "name": "owner",
      "outputs": [
        {
          "internalType": "address",
          "name": "",
          "type": "address"
        }
      ],
      "stateMutability": "view",
      "type": "function"
    },
    {
      "inputs": [
        {
          "internalType": "address",
          "name": "tokenizer",
          "type": "address"
        }
      ],
      "name": "revokeTokenizer",
      "outputs": [],
      "stateMutability": "nonpayable",
      "type": "function"
    },
    {
      "inputs": [
        {
          "internalType": "address",
          "name": "from",
          "type": "address"
        },
        {
          "internalType": "address",
          "name": "to",
          "type": "address"
        },
        {
          "internalType": "uint256[]",
          "name": "ids",
          "type": "uint256[]"
        },
        {
          "internalType": "uint256[]",
          "name": "values",
          "type": "uint256[]"
        },
        {
          "internalType": "bytes",
          "name": "data",
          "type": "bytes"
        }
      ],
      "name": "safeBatchTransferFrom",
      "outputs": [],
      "stateMutability": "payable",
      "type": "function"
    },
    {
      "inputs": [
        {
          "internalType": "address",
          "name": "from",
          "type": "address"
        },
        {
          "internalType": "address",
          "name": "to",
          "type": "address"
        },
        {
          "internalType": "uint256",
          "name": "id",
          "type": "uint256"
        },
        {
          "internalType": "uint256",
          "name": "value",
          "type": "uint256"
        },
        {
          "internalType": "bytes",
          "name": "data",
          "type": "bytes"
        }
      ],
      "name": "safeTransferFrom",
      "outputs": [],
      "stateMutability": "payable",
      "type": "function"
    },
    {
      "inputs": [
        {
          "internalType": "address",
          "name": "operator",
          "type": "address"
        },
        {
          "internalType": "bool",
          "name": "approved",
          "type": "bool"
        }
      ],
      "name": "setApprovalForAll",
      "outputs": [],
      "stateMutability": "nonpayable",
      "type": "function"
    },
    {
      "inputs": [
        {
          "internalType": "address[10]",
          "name": "proxyAddresses",
          "type": "address[10]"
        }
      ],
      "name": "setProxyRegistryAddress",
      "outputs": [],
      "stateMutability": "nonpayable",
      "type": "function"
    },
    {
      "inputs": [
        {
          "internalType": "bytes4",
          "name": "_interfaceID",
          "type": "bytes4"
        }
      ],
      "name": "supportsInterface",
      "outputs": [
        {
          "internalType": "bool",
          "name": "",
          "type": "bool"
        }
      ],
      "stateMutability": "pure",
      "type": "function"
    },
    {
      "inputs": [
        {
          "internalType": "address",
          "name": "account",
          "type": "address"
        },
        {
          "internalType": "uint256",
          "name": "id",
          "type": "uint256"
        },
        {
          "internalType": "uint256",
          "name": "value",
          "type": "uint256"
        }
      ],
      "name": "transactionFees",
      "outputs": [
        {
          "internalType": "uint256",
          "name": "",
          "type": "uint256"
        }
      ],
      "stateMutability": "view",
      "type": "function"
    },
    {
      "inputs": [
        {
          "internalType": "address",
          "name": "newOwner",
          "type": "address"
        }
      ],
      "name": "transferOwnership",
      "outputs": [],
      "stateMutability": "nonpayable",
      "type": "function"
    },
    {
      "inputs": [],
      "name": "trustedForwarder",
      "outputs": [
        {
          "internalType": "address",
          "name": "",
          "type": "address"
        }
      ],
      "stateMutability": "view",
      "type": "function"
    },
    {
      "inputs": [
        {
          "internalType": "uint256",
          "name": "id",
          "type": "uint256"
        }
      ],
      "name": "uri",
      "outputs": [
        {
          "internalType": "string",
          "name": "",
          "type": "string"
        }
      ],
      "stateMutability": "view",
      "type": "function"
    },
    {
      "inputs": [],
      "name": "versionRecipient",
      "outputs": [
        {
          "internalType": "string",
          "name": "",
          "type": "string"
        }
      ],
      "stateMutability": "view",
      "type": "function"
    },
    {
      "inputs": [
        {
          "internalType": "uint256",
          "name": "id",
          "type": "uint256"
        },
        {
          "internalType": "address",
          "name": "maintener",
          "type": "address"
        }
      ],
      "name": "authorizeMaintener",
      "outputs": [],
      "stateMutability": "nonpayable",
      "type": "function"
    },
    {
      "inputs": [
        {
          "internalType": "uint256",
          "name": "id",
          "type": "uint256"
        },
        {
          "internalType": "address",
          "name": "maintener",
          "type": "address"
        }
      ],
      "name": "revokeMaintener",
      "outputs": [],
      "stateMutability": "nonpayable",
      "type": "function"
    },
    {
      "inputs": [
        {
          "internalType": "uint256",
          "name": "id",
          "type": "uint256"
        },
        {
          "internalType": "address",
          "name": "maintener",
          "type": "address"
        }
      ],
      "name": "isMaintener",
      "outputs": [
        {
          "internalType": "bool",
          "name": "",
          "type": "bool"
        }
      ],
      "stateMutability": "view",
      "type": "function"
    },
    {
      "inputs": [
        {
          "internalType": "uint256",
          "name": "id",
          "type": "uint256"
        },
        {
          "internalType": "uint256",
          "name": "metadataHash",
          "type": "uint256"
        },
        {
          "internalType": "uint256[3]",
          "name": "transactionFees",
          "type": "uint256[3]"
        },
        {
          "internalType": "address[]",
          "name": "feesRecipients",
          "type": "address[]"
        },
        {
          "internalType": "uint256[]",
          "name": "feesRecipientsPercentage",
          "type": "uint256[]"
        },
        {
          "internalType": "uint256",
          "name": "minHoldingForCallback",
          "type": "uint256"
        },
        {
          "internalType": "bool",
          "name": "isPrivate",
          "type": "bool"
        },
        {
          "internalType": "address",
          "name": "legalAuthority",
          "type": "address"
        }
      ],
      "name": "updateToken",
      "outputs": [],
      "stateMutability": "nonpayable",
      "type": "function"
    }
  ],
  "bytecode": "0x60c0604052601760808190527f312e302e302b6f70656e67736e2e7374617368626c6f7800000000000000000060a090815262000040916001919062000170565b503480156200004e57600080fd5b50620000636200005d62000069565b6200009f565b6200020c565b60006018361080159062000083575062000083336200015c565b1562000099575060131936013560601c6200009c565b50335b90565b6001600160a01b03811662000100576040517f08c379a000000000000000000000000000000000000000000000000000000000815260040180806020018281038252602681526020018062003c6d6026913960400191505060405180910390fd5b600e546040516001600160a01b038084169216907f8be0079c531659141344cd1fd0a4f28419497f9722a3daafe3b4186f6b6457e090600090a3600e80546001600160a01b0319166001600160a01b0392909216919091179055565b6000546001600160a01b0390811691161490565b828054600181600116156101000203166002900490600052602060002090601f016020900481019282601f10620001b357805160ff1916838001178555620001e3565b82800160010185558215620001e3579182015b82811115620001e3578251825591602001919060010190620001c6565b50620001f1929150620001f5565b5090565b5b80821115620001f15760008155600101620001f6565b613a51806200021c6000396000f3fe6080604052600436106101c15760003560e01c80637627b732116100f7578063c40b87ae11610095578063ed70554d11610064578063ed70554d14610d6a578063f242432a14610de8578063f2fde38b14610e7b578063f8a5a07c14610eae576101c1565b8063c40b87ae14610b1a578063d1660e1814610cb7578063d41d0aa314610cf6578063e985e9c514610d2f576101c1565b80638aeba37e116100d15780638aeba37e14610a5e5780638da5cb5b14610a97578063a22cb46514610aac578063c02f303c14610ae7576101c1565b80637627b732146109c75780637da0a877146109fa5780638870147b14610a2b576101c1565b80634392e577116101645780634e1273f41161013e5780634e1273f4146107a2578063572b6c0514610922578063585941d5146109555780635dafec1b1461098e576101c1565b80634392e577146105aa578063486ff0cd1461060b5780634ab0d25314610620576101c1565b80632eb2c2d6116101a05780632eb2c2d6146102f85780632ed42bf7146104215780633cacd7d6146104c5578063414ed0ce14610518576101c1565b8062fdd58e146101c657806301ffc9a7146102115780630e89341c14610259575b600080fd5b3480156101d257600080fd5b506101ff600480360360408110156101e957600080fd5b506001600160a01b038135169060200135610fe5565b60408051918252519081900360200190f35b34801561021d57600080fd5b506102456004803603602081101561023457600080fd5b50356001600160e01b03191661105a565b604080519115158252519081900360200190f35b34801561026557600080fd5b506102836004803603602081101561027c57600080fd5b50356110a1565b6040805160208082528351818301528351919283929083019185019080838360005b838110156102bd5781810151838201526020016102a5565b50505050905090810190601f1680156102ea5780820380516001836020036101000a031916815260200191505b509250505060405180910390f35b61041f600480360360a081101561030e57600080fd5b6001600160a01b038235811692602081013590911691810190606081016040820135600160201b81111561034157600080fd5b82018360208201111561035357600080fd5b803590602001918460208302840111600160201b8311171561037457600080fd5b919390929091602081019035600160201b81111561039157600080fd5b8201836020820111156103a357600080fd5b803590602001918460208302840111600160201b831117156103c457600080fd5b919390929091602081019035600160201b8111156103e157600080fd5b8201836020820111156103f357600080fd5b803590602001918460018302840111600160201b8311171561041457600080fd5b509092509050611143565b005b34801561042d57600080fd5b50610436611416565b6040518084815260200180602001836001600160a01b03168152602001828103825284818151815260200191508051906020019080838360005b83811015610488578181015183820152602001610470565b50505050905090810190601f1680156104b55780820380516001836020036101000a031916815260200191505b5094505050505060405180910390f35b3480156104d157600080fd5b506104f8600480360360208110156104e857600080fd5b50356001600160a01b03166114b9565b604080519315158452911515602084015282820152519081900360600190f35b34801561052457600080fd5b506105426004803603602081101561053b57600080fd5b50356114df565b604080519b8c5260208c019a909a528a8a019890985260608a019690965260808901949094526001600160a01b0390921660a0880152151560c0870152151560e086015215156101008501521515610120840152151561014083015251908190036101600190f35b3480156105b657600080fd5b5061041f60048036036101408110156105ce57600080fd5b81019080806101400190600a806020026040519081016040528092919082600a602002808284376000920191909152509194506115529350505050565b34801561061757600080fd5b506102836115aa565b34801561062c57600080fd5b5061041f600480360361014081101561064457600080fd5b6040805160608181018352843594602081013594810193909260a08401929091840190600390839083908082843760009201919091525091949392602081019250359050600160201b81111561069957600080fd5b8201836020820111156106ab57600080fd5b803590602001918460208302840111600160201b831117156106cc57600080fd5b9190808060200260200160405190810160405280939291908181526020018383602002808284376000920191909152509295949360208101935035915050600160201b81111561071b57600080fd5b82018360208201111561072d57600080fd5b803590602001918460208302840111600160201b8311171561074e57600080fd5b919080806020026020016040519081016040528093929190818152602001838360200280828437600092019190915250929550508235935050506020810135151590604001356001600160a01b0316611637565b3480156107ae57600080fd5b506108d2600480360360408110156107c557600080fd5b810190602081018135600160201b8111156107df57600080fd5b8201836020820111156107f157600080fd5b803590602001918460208302840111600160201b8311171561081257600080fd5b9190808060200260200160405190810160405280939291908181526020018383602002808284376000920191909152509295949360208101935035915050600160201b81111561086157600080fd5b82018360208201111561087357600080fd5b803590602001918460208302840111600160201b8311171561089457600080fd5b919080806020026020016040519081016040528093929190818152602001838360200280828437600092019190915250929550611735945050505050565b60408051602080825283518183015283519192839290830191858101910280838360005b8381101561090e5781810151838201526020016108f6565b505050509050019250505060405180910390f35b34801561092e57600080fd5b506102456004803603602081101561094557600080fd5b50356001600160a01b03166118b9565b34801561096157600080fd5b506101ff6004803603604081101561097857600080fd5b506001600160a01b0381351690602001356118cd565b34801561099a57600080fd5b50610245600480360360408110156109b157600080fd5b50803590602001356001600160a01b0316611908565b3480156109d357600080fd5b5061041f600480360360208110156109ea57600080fd5b50356001600160a01b0316611914565b348015610a0657600080fd5b50610a0f61197f565b604080516001600160a01b039092168252519081900360200190f35b348015610a3757600080fd5b5061041f60048036036020811015610a4e57600080fd5b50356001600160a01b031661198e565b348015610a6a57600080fd5b5061041f60048036036040811015610a8157600080fd5b50803590602001356001600160a01b03166119f6565b348015610aa357600080fd5b50610a0f611a74565b348015610ab857600080fd5b5061041f60048036036040811015610acf57600080fd5b506001600160a01b0381351690602001351515611a84565b348015610af357600080fd5b5061024560048036036020811015610b0a57600080fd5b50356001600160a01b0316611b77565b348015610b2657600080fd5b5061041f60048036036101a0811015610b3e57600080fd5b60408051606081810183526001600160a01b03853516946020810135949381013593828201359360808301359391830192916101008301919060a0840190600390839083908082843760009201919091525091949392602081019250359050600160201b811115610bae57600080fd5b820183602082011115610bc057600080fd5b803590602001918460208302840111600160201b83111715610be157600080fd5b9190808060200260200160405190810160405280939291908181526020018383602002808284376000920191909152509295949360208101935035915050600160201b811115610c3057600080fd5b820183602082011115610c4257600080fd5b803590602001918460208302840111600160201b83111715610c6357600080fd5b919080806020026020016040519081016040528093929190818152602001838360200280828437600092019190915250929550508235935050506020810135151590604001356001600160a01b0316611b82565b348015610cc357600080fd5b506101ff60048036036060811015610cda57600080fd5b506001600160a01b038135169060208101359060400135611c59565b348015610d0257600080fd5b5061041f60048036036040811015610d1957600080fd5b50803590602001356001600160a01b0316611c6e565b348015610d3b57600080fd5b5061024560048036036040811015610d5257600080fd5b506001600160a01b0381358116916020013516611ce9565b348015610d7657600080fd5b50610d9460048036036020811015610d8d57600080fd5b5035611cf5565b60408051998a5260208a0198909852888801969096526060880194909452608087019290925260a08601526001600160a01b031660c0850152151560e0840152151561010083015251908190036101200190f35b61041f600480360360a0811015610dfe57600080fd5b6001600160a01b03823581169260208101359091169160408201359160608101359181019060a081016080820135600160201b811115610e3d57600080fd5b820183602082011115610e4f57600080fd5b803590602001918460018302840111600160201b83111715610e7057600080fd5b509092509050611d51565b348015610e8757600080fd5b5061041f60048036036020811015610e9e57600080fd5b50356001600160a01b0316611ec8565b348015610eba57600080fd5b5061041f60048036036060811015610ed157600080fd5b81359190810190604081016020820135600160201b811115610ef257600080fd5b820183602082011115610f0457600080fd5b803590602001918460208302840111600160201b83111715610f2557600080fd5b9190808060200260200160405190810160405280939291908181526020018383602002808284376000920191909152509295949360208101935035915050600160201b811115610f7457600080fd5b820183602082011115610f8657600080fd5b803590602001918460208302840111600160201b83111715610fa757600080fd5b919080806020026020016040519081016040528093929190818152602001838360200280828437600092019190915250929550611f1b945050505050565b60006001600160a01b03831661102c5760405162461bcd60e51b815260040180806020018281038252602b815260200180613806602b913960400191505060405180910390fd5b5060008181526010602090815260408083206001600160a01b03861684526007019091529020545b92915050565b60006001600160e01b031982166301ffc9a760e01b148061108b57506001600160e01b03198216636cdb3d1360e11b145b156110985750600161109c565b5060005b919050565b6003805460408051602060026001851615610100026000190190941693909304601f810184900484028201840190925281815260609361105493919290918301828280156111305780601f1061110557610100808354040283529160200191611130565b820191906000526020600020905b81548152906001019060200180831161111357829003601f168201915b505050505061113e846120c9565b612185565b8483146111815760405162461bcd60e51b815260040180806020018281038252602e8152602001806139bd602e913960400191505060405180910390fd5b6001600160a01b0387166111c65760405162461bcd60e51b81526004018080602001828103825260288152602001806138576028913960400191505060405180910390fd5b6111ce61228f565b6001600160a01b0316886001600160a01b031614806111ff57506111f9886111f461228f565b611ce9565b15156001145b61123a5760405162461bcd60e51b81526004018080602001828103825260378152602001806139866037913960400191505060405180910390fd5b6112a9888888888080602002602001604051908101604052809392919081815260200183836020028082843760009201919091525050604080516020808c0282810182019093528b82529093508b92508a9182918501908490808284376000920191909152506122c192505050565b866001600160a01b0316886001600160a01b03166112c561228f565b6001600160a01b03167f4a39dc06d4c0dbc64b70af90fd698a233a518aa5d07e595d983b8c0526c8f7fb898989896040518080602001806020018381038352878782818152602001925060200280828437600083820152601f01601f19169091018481038352858152602090810191508690860280828437600083820152604051601f909101601f19169092018290039850909650505050505050a461140c61136c61228f565b898989898080602002602001604051908101604052809392919081815260200183836020028082843760009201919091525050604080516020808d0282810182019093528c82529093508c92508b91829185019084908082843760009201919091525050604080516020601f8c018190048102820181019092528a815292508a915089908190840183828082843760009201919091525061237b92505050565b5050505050505050565b600280546003805460408051602060018416156101000260001901909316869004601f810184900484028201840190925281815293949392918301828280156114a05780601f10611475576101008083540402835291602001916114a0565b820191906000526020600020905b81548152906001019060200180831161148357829003601f168201915b505050600c90930154919250506001600160a01b031683565b600f602052600090815260409020805460019091015460ff808316926101009004169083565b60116020526000908152604090208054600182015460028301546003840154600485015460059095015493949293919290916001600160a01b0381169060ff600160a01b8204811691600160a81b8104821691600160b01b8204811691600160b81b8104821691600160c01b909104168b565b61155a61256c565b611599576040805162461bcd60e51b81526020600482018190526024820152600080516020613966833981519152604482015290519081900360640190fd5b6115a6600482600a6136b1565b5050565b60018054604080516020600284861615610100026000190190941693909304601f8101849004840282018401909252818152929183018282801561162f5780601f106116045761010080835404028352916020019161162f565b820191906000526020600020905b81548152906001019060200180831161161257829003601f168201915b505050505081565b876116498161164461228f565b612592565b611694576040805162461bcd60e51b815260206004820152601760248201527624b739bab33334b1b4b2b73a103832b936b4b9b9b4b7b760491b604482015290519081900360640190fd5b6000898152601060205260409020546116e4576040805162461bcd60e51b815260206004820152600d60248201526c2ab735b737bbb7103a37b5b2b760991b604482015290519081900360640190fd5b6116f489898989898989896125cc565b6040805189815290518a917f199acc06cd2556bbc146fa3cb578799037dffcbf256eca32aaf2ef656925d2fd919081900360200190a2505050505050505050565b606081518351146117775760405162461bcd60e51b81526004018080602001828103825260308152602001806138ab6030913960400191505060405180910390fd5b6060835167ffffffffffffffff8111801561179157600080fd5b506040519080825280602002602001820160405280156117bb578160200160208202803683370190505b50905060005b84518110156118b15760006001600160a01b03168582815181106117e157fe5b60200260200101516001600160a01b0316141561182f5760405162461bcd60e51b81526004018080602001828103825260348152602001806139116034913960400191505060405180910390fd5b6010600085838151811061183f57fe5b60200260200101518152602001908152602001600020600701600086838151811061186657fe5b60200260200101516001600160a01b03166001600160a01b031681526020019081526020016000206000015482828151811061189e57fe5b60209081029190910101526001016117c1565b509392505050565b6000546001600160a01b0390811691161490565b60008181526010602090815260408083206001600160a01b0386168452600701909152812060010154611901904290612770565b9392505050565b60006119018383612592565b61191c61256c565b61195b576040805162461bcd60e51b81526020600482018190526024820152600080516020613966833981519152604482015290519081900360640190fd5b6001600160a01b03166000908152600f60205260409020805460ff19166001179055565b6000546001600160a01b031681565b61199661256c565b6119d5576040805162461bcd60e51b81526020600482018190526024820152600080516020613966833981519152604482015290519081900360640190fd5b6001600160a01b03166000908152600f60205260409020805460ff19169055565b6119fe61256c565b611a3d576040805162461bcd60e51b81526020600482018190526024820152600080516020613966833981519152604482015290519081900360640190fd5b60009182526010602090815260408084206001600160a01b039093168452600790920190529020600201805460ff19166001179055565b600e546001600160a01b03165b90565b816001600160a01b0316611a9661228f565b6001600160a01b03161415611adc5760405162461bcd60e51b815260040180806020018281038252602c81526020018061387f602c913960400191505060405180910390fd5b80600f6000611ae961228f565b6001600160a01b0390811682526020808301939093526040918201600090812091871680825260039092019093529120805460ff191692151592909217909155611b3161228f565b6001600160a01b03167f17307eab39ab6107e8899845ad3d59bd9653f200f220920489ca2b5937696c318360405180821515815260200191505060405180910390a35050565b6000611054826127b2565b611b92611b8d61228f565b6127b2565b611bdd576040805162461bcd60e51b815260206004820152601760248201527624b739bab33334b1b4b2b73a103832b936b4b9b9b4b7b760491b604482015290519081900360640190fd5b611bf08b8b8b8b8b8b8b8b8b8b8b6127dc565b6001600160a01b038b166000611c0461228f565b6001600160a01b03167fc3d58168c5ae7397731d063d5bbf3d657854427343f4c083240f7aacaa2d0f628d8d604051808381526020018281526020019250505060405180910390a45050505050505050505050565b6000611c6684848461291c565b949350505050565b611c7661256c565b611cb5576040805162461bcd60e51b81526020600482018190526024820152600080516020613966833981519152604482015290519081900360640190fd5b60009182526010602090815260408084206001600160a01b039093168452600790920190529020600201805460ff19169055565b60006119018383612b04565b601060205260009081526040902080546001820154600283015460038401546004850154600586015460069096015494959394929391929091906001600160a01b0381169060ff600160a01b8204811691600160a81b90041689565b6001600160a01b038516611d965760405162461bcd60e51b81526004018080602001828103825260288152602001806138576028913960400191505060405180910390fd5b611d9e61228f565b6001600160a01b0316866001600160a01b03161480611dca5750611dc4866111f461228f565b15156001145b611e055760405162461bcd60e51b81526004018080602001828103825260378152602001806139866037913960400191505060405180910390fd5b611e1186868686612b49565b846001600160a01b0316866001600160a01b0316611e2d61228f565b6001600160a01b03167fc3d58168c5ae7397731d063d5bbf3d657854427343f4c083240f7aacaa2d0f628787604051808381526020018281526020019250505060405180910390a4611ec0611e8061228f565b8787878787878080601f016020809104026020016040519081016040528093929190818152602001838380828437600092019190915250612bc192505050565b505050505050565b611ed061256c565b611f0f576040805162461bcd60e51b81526020600482018190526024820152600080516020613966833981519152604482015290519081900360640190fd5b611f1881612d36565b50565b611f26611b8d61228f565b611f71576040805162461bcd60e51b815260206004820152601760248201527624b739bab33334b1b4b2b73a103832b936b4b9b9b4b7b760491b604482015290519081900360640190fd5b60008381526010602052604090205415801590611f8f575080518251145b611fd4576040805162461bcd60e51b8152602060048201526011602482015270496e76616c696420617267756d656e747360781b604482015290519081900360640190fd5b60005b82518110156120c35761201184848381518110611ff057fe5b602002602001015184848151811061200457fe5b6020026020010151612dd7565b6000848152601060205260408120600801805490919061202d57fe5b60009182526020822001546001600160a01b03169061204a61228f565b6001600160a01b03167fc3d58168c5ae7397731d063d5bbf3d657854427343f4c083240f7aacaa2d0f6286858151811061208057fe5b6020026020010151601060008a815260200190815260200160002060000154604051808381526020018281526020019250505060405180910390a4600101611fd7565b50505050565b60606000825b80156120e55760019190910190601090046120cf565b60608267ffffffffffffffff811180156120fe57600080fd5b506040519080825280601f01601f191660200182016040528015612129576020820181803683370190505b50905060005b8381101561217c5760108606925061214683612f79565b826001838703038151811061215757fe5b60200101906001600160f81b031916908160001a90535060108604955060010161212f565b50949350505050565b805182516060918491849184910167ffffffffffffffff811180156121a957600080fd5b506040519080825280601f01601f1916602001820160405280156121d4576020820181803683370190505b509050806000805b855181101561222d578581815181106121f157fe5b602001015160f81c60f81b83838060010194508151811061220e57fe5b60200101906001600160f81b031916908160001a9053506001016121dc565b5060005b84518110156122825784818151811061224657fe5b602001015160f81c60f81b83838060010194508151811061226357fe5b60200101906001600160f81b031916908160001a905350600101612231565b5090979650505050505050565b6000601836108015906122a657506122a6336118b9565b156122ba575060131936013560601c611a81565b5033611a81565b60008034116122eb576001600160a01b0385166000908152600f60205260409020600101546122ed565b345b905060005b83518110156123695761235f612330878787858151811061230f57fe5b602002602001015187868151811061232357fe5b6020026020010151612fbd565b60408051808201909152601081526f092dce6eaccccd2c6d2cadce8408aa8960831b6020820152849190613111565b91506001016122f2565b5061237485826131a8565b5050505050565b61238d846001600160a01b0316613229565b15611ec05763bc197c8160e01b6001600160e01b031916846001600160a01b031663bc197c8188888787876040518663ffffffff1660e01b815260040180866001600160a01b03168152602001856001600160a01b03168152602001806020018060200180602001848103845287818151815260200191508051906020019060200280838360005b8381101561242d578181015183820152602001612415565b50505050905001848103835286818151815260200191508051906020019060200280838360005b8381101561246c578181015183820152602001612454565b50505050905001848103825285818151815260200191508051906020019080838360005b838110156124a8578181015183820152602001612490565b50505050905090810190601f1680156124d55780820380516001836020036101000a031916815260200191505b5098505050505050505050602060405180830381600087803b1580156124fa57600080fd5b505af115801561250e573d6000803e3d6000fd5b505050506040513d602081101561252457600080fd5b50516001600160e01b03191614611ec05760405162461bcd60e51b81526004018080602001828103825260368152602001806138db6036913960400191505060405180910390fd5b600e546000906001600160a01b031661258361228f565b6001600160a01b031614905090565b60008281526010602090815260408083206001600160a01b038516845260070190915281206002015460ff1680611901575061190161256c565b6000805b85518110156125fc578581815181106125e557fe5b6020026020010151820191508060010190506125d0565b506000865111801561260c575060015b8015612619575080612710145b8015612626575061271084105b61266b576040805162461bcd60e51b8152602060048201526011602482015270496e76616c696420617267756d656e747360781b604482015290519081900360640190fd5b6000898152601060209081526040808320600581018c90558a516002808301919091558b840151600383015582518084018452428152928c015183850152600b9091018054600181018255908552929093206126cb939283020191613709565b50600089815260106020908152604090912087516126f192600990920191890190613743565b506000898152601060209081526040909120865161271792600a90920191880190613797565b505060009788526010602052604090972060048101929092556006909101805460ff60a01b1916600160a01b92151592909202919091176001600160a01b0319166001600160a01b039096169590951790945550505050565b600061190183836040518060400160405280601e81526020017f536166654d6174683a207375627472616374696f6e206f766572666c6f770000815250613111565b6001600160a01b0381166000908152600f602052604081205460ff1680611054575061105461256c565b60008a8152601060205260409020541580156127f85750600089115b61283d576040805162461bcd60e51b8152602060048201526011602482015270496e76616c696420617267756d656e747360781b604482015290519081900360640190fd5b60008a81526010602052604081208a815560018082018b90559160079091019061286561228f565b6001600160a01b03166001600160a01b0316815260200190815260200160002060020160006101000a81548160ff0219169083151502179055506001601060008c815260200190815260200160002060070160008d6001600160a01b03166001600160a01b0316815260200190815260200160002060020160026101000a81548160ff0219169083151502179055506129048a888888888888886125cc565b61290f8b8b8b613260565b5050505050505050505050565b6000828152601060205260408120600b015481904290600019015b6000868152601060205260408120600b0180548390811061295457fe5b60009182526020822060029091020101546000888152601060205260408120600b01805492935090918490811061298757fe5b90600052602060002090600202016001600281106129a157fe5b015460008981526010602090815260408083206001600160a01b038e168452600701909152812060010154919250908311612a445760008981526010602090815260408083206001600160a01b038e168452600701909152902060010154612a19906201518090612a13908890612770565b90613470565b905080612a24575060015b612a3888612a3283856134b2565b906134b2565b86019550505050612a83565b612a5562015180612a138786612770565b905080612a60575060015b9193508391612a7388612a3283856134b2565b9095019450505060001901612937565b50600085815260106020526040902060010154612aa4908390600a0a613470565b60008681526010602052604081206003015491935090612acf906305f5e10090612a139088906134b2565b600087815260106020526040902060020154909150612af990612af2908361350b565b849061350b565b979650505050505050565b6000612b108383613565565b806119015750506001600160a01b039182166000908152600f602090815260408083209390941682526003909201909152205460ff1690565b6000803411612b73576001600160a01b0385166000908152600f6020526040902060010154612b75565b345b9050612bb5612b8686868686612fbd565b60408051808201909152601081526f092dce6eaccccd2c6d2cadce8408aa8960831b6020820152839190613111565b905061237485826131a8565b612bd3846001600160a01b0316613229565b15611ec05763f23a6e6160e01b6001600160e01b031916846001600160a01b031663f23a6e6188888787876040518663ffffffff1660e01b815260040180866001600160a01b03168152602001856001600160a01b0316815260200184815260200183815260200180602001828103825283818151815260200191508051906020019080838360005b83811015612c74578181015183820152602001612c5c565b50505050905090810190601f168015612ca15780820380516001836020036101000a031916815260200191505b509650505050505050602060405180830381600087803b158015612cc457600080fd5b505af1158015612cd8573d6000803e3d6000fd5b505050506040513d6020811015612cee57600080fd5b50516001600160e01b03191614611ec05760405162461bcd60e51b81526004018080602001828103825260318152602001806139eb6031913960400191505060405180910390fd5b6001600160a01b038116612d7b5760405162461bcd60e51b81526004018080602001828103825260268152602001806138316026913960400191505060405180910390fd5b600e546040516001600160a01b038084169216907f8be0079c531659141344cd1fd0a4f28419497f9722a3daafe3b4186f6b6457e090600090a3600e80546001600160a01b0319166001600160a01b0392909216919091179055565b60008381526010602052604081206008018054612f749290612df557fe5b600091825260208083209091015486835260108083526040808520805460018201548351606081018552600284015481526003840154818901528c895294909652600b90910180546001600160a01b03909516968a96929592948a949093908401929190612e5f57fe5b9060005260206000209060020201600160028110612e7957fe5b0154905260008a81526010602090815260409182902060090180548351818402810184019094528084529091830182828015612ede57602002820191906000526020600020905b81546001600160a01b03168152600190910190602001808311612ec0575b50505060008d815260106020908152604091829020600a0180548351818402810184019094528084529294509250830182828015612f3b57602002820191906000526020600020905b815481526020019060010190808311612f27575b50505060008e8152601060205260409020600481015460069091015490925060ff600160a01b82041691506001600160a01b03166127dc565b505050565b600060098260ff1611612f9357506030810160f81b61109c565b8160ff16600a11158015612fab5750600f8260ff1611155b156101c157506057810160f81b61109c565b6040805180820182526014815273496e73756666696369656e742062616c616e636560601b6020808301919091526000858152601082528381206001600160a01b038916825260070190915291822054613018918490613111565b60008481526010602090815260408083206001600160a01b038a168452600701909152902055613049848484613260565b61305485848461291c565b905060005b60008481526010602052604090206009015481101561217c57600084815260106020526040812060090180548390811061308f57fe5b6000918252602080832090910154878352601090915260408220600a0180546001600160a01b03909216935090849081106130c657fe5b60009182526020909120015490506130e4612710612a1386846134b2565b6001600160a01b039092166000908152600f60205260409020600190810180549093019092555001613059565b600081848411156131a05760405162461bcd60e51b81526004018080602001828103825283818151815260200191508051906020019080838360005b8381101561316557818101518382015260200161314d565b50505050905090810190601f1680156131925780820380516001836020036101000a031916815260200191505b509250505060405180910390fd5b505050900390565b6000341180156131b85750600081115b15613204576001600160a01b0382166000908152600f60205260409020600101546131e3908261350b565b6001600160a01b0383166000908152600f60205260409020600101556115a6565b346115a6576001600160a01b03919091166000908152600f6020526040902060010155565b6000813f7fc5d2460186f7233c927e7db2dcc703c0e500b653ca82273b7bfad8045d85a4708115801590611c665750141592915050565b60008281526010602090815260408083206001600160a01b0387168452600701909152812054613290908361350b565b60008481526010602090815260408083206001600160a01b038916845260070190915290205490915061339f5760008381526010602090815260408083206001600160a01b0388168452600701909152902060020154610100900460ff1661336e576001600160a01b0384166000818152600f60209081526040808320600290810180546001818101835591865284862001899055888552601084528285206008810180549283018155865284862090910180546001600160a01b031916871790559484526007909401909152902001805461ff0019166101001790555b60008381526010602090815260408083206001600160a01b0388168452600701909152902042600190910155613440565b60008381526010602090815260408083206001600160a01b03881684526007019091528120600101546133d3904290612770565b60008581526010602090815260408083206001600160a01b038a1684526007019091528120549192509061340d908490612a1390856134b2565b60008681526010602090815260408083206001600160a01b038b1684526007019091529020429190910360019091015550505b60009283526010602090815260408085206001600160a01b03909616855260079095019052929091209190915550565b600061190183836040518060400160405280601a81526020017f536166654d6174683a206469766973696f6e206279207a65726f00000000000081525061364c565b6000826134c157506000611054565b828202828482816134ce57fe5b04146119015760405162461bcd60e51b81526004018080602001828103825260218152602001806139456021913960400191505060405180910390fd5b600082820183811015611901576040805162461bcd60e51b815260206004820152601b60248201527f536166654d6174683a206164646974696f6e206f766572666c6f770000000000604482015290519081900360640190fd5b6000805b600a811015613642576000600482600a811061358157fe5b01546001600160a01b03161461363a576000600482600a81106135a057fe5b01546040805163c455279160e01b81526001600160a01b0388811660048301529151928216935090861691839163c4552791916024808301926020929190829003018186803b1580156135f257600080fd5b505afa158015613606573d6000803e3d6000fd5b505050506040513d602081101561361c57600080fd5b50516001600160a01b0316141561363857600192505050611054565b505b600101613569565b5060009392505050565b6000818361369b5760405162461bcd60e51b815260206004820181815283516024840152835190928392604490910191908501908083836000831561316557818101518382015260200161314d565b5060008385816136a757fe5b0495945050505050565b82600a81019282156136f9579160200282015b828111156136f957825182546001600160a01b0319166001600160a01b039091161782556020909201916001909101906136c4565b506137059291506137d1565b5090565b8260028101928215613737579160200282015b8281111561373757825182559160200191906001019061371c565b506137059291506137f0565b8280548282559060005260206000209081019282156136f957916020028201828111156136f957825182546001600160a01b0319166001600160a01b039091161782556020909201916001909101906136c4565b828054828255906000526020600020908101928215613737579160200282018281111561373757825182559160200191906001019061371c565b5b808211156137055780546001600160a01b03191681556001016137d2565b5b8082111561370557600081556001016137f156fe455243313135353a2062616c616e636520717565727920666f7220746865207a65726f20616464726573734f776e61626c653a206e6577206f776e657220697320746865207a65726f2061646472657373455243313135353a207461726765742061646472657373206d757374206265206e6f6e2d7a65726f455243313135353a2063616e6e6f742073657420617070726f76616c2073746174757320666f722073656c66455243313135353a206163636f756e747320616e6420494473206d75737420686176652073616d65206c656e67746873455243313135353a20676f7420756e6b6e6f776e2076616c75652066726f6d206f6e4552433131353542617463685265636569766564455243313135353a20736f6d65206164647265737320696e2062617463682062616c616e6365207175657279206973207a65726f536166654d6174683a206d756c7469706c69636174696f6e206f766572666c6f774f776e61626c653a2063616c6c6572206973206e6f7420746865206f776e6572455243313135353a206e656564206f70657261746f7220617070726f76616c20666f7220337264207061727479207472616e7366657273455243313135353a2049447320616e642076616c756573206d75737420686176652073616d65206c656e67746873455243313135353a20676f7420756e6b6e6f776e2076616c75652066726f6d206f6e455243313135355265636569766564a26469706673582212200372b861fac18b675654c3571e7bbfe5dd21c51fe342acb3bffc724688ba2feb64736f6c634300070100334f776e61626c653a206e6577206f776e657220697320746865207a65726f2061646472657373",
  "immutableReferences": {},
  "source": "// SPDX-License-Identifier: GPL-3.0-or-later\npragma solidity ^0.7.1;\n\nimport './Mintable.sol';\n\ncontract Maintenable is Mintable {\n\n\n    /****************************\n    EVENTS\n    *****************************/\n\n\n    event TokenUpdated(uint256 indexed _id, uint256 _documentHash);\n\n\n    /****************************\n    MODIFIERS\n    *****************************/\n\n\n    modifier onlyMaintener(uint256 id) {\n        require(_isMaintener(id, _msgSender()), \"Insufficient permission\");\n        _;\n    }\n\n\n    /****************************\n    EXTERNAL FUNCTIONS\n    *****************************/\n\n\n    /**\n     * @dev Function to authorize an address to maintain a token.\n     * @param maintener The authorized address\n     */\n    function authorizeMaintener(uint256 id, address maintener) external onlyOwner {\n        _tokens[id].holders[maintener].isMaintener = true;\n    }\n\n    /**\n     * @dev Function to revoke the authorization to maintain a token.\n     * @param id the token id\n     * @param maintener The authorized address\n     */\n    function revokeMaintener(uint256 id, address maintener) external onlyOwner {\n        _tokens[id].holders[maintener].isMaintener = false;\n    }\n\n    /**\n     * @dev Function to check if an address is authorized to maintain a token.\n     * @param id the token id\n     * @param maintener The authorized address\n     * @return true if it's a maintener address\n     */\n    function isMaintener(uint256 id, address maintener) external view returns (bool) {\n        return _isMaintener(id, maintener);\n    }\n\n    /**\n     * @dev Function to update a token with the given ID.\n     * @param id ID of the token to be updated\n     * @param metadataHash Metadata file hash\n     * @param transactionFees transaction fees: [lumpSumFees (in WEI), valueProportionalFees (ratio of transfered amount * 10**8), storageFees (in storageCredit * 10**8)]\n     * @param feesRecipients list of addresses receiving transfer fees\n     * @param feesRecipientsPercentage list of percentage, each one for the corresponding feesRecipients\n     * @param minHoldingForCallback minimum holding to propose a callback\n     * @param isPrivate true if holder need approval\n     * @param legalAuthority address of the legal authority\n     */\n    function updateToken(uint256 id,\n                         uint256 metadataHash,\n                         uint256[3] memory transactionFees,\n                         address[] memory feesRecipients,\n                         uint256[] memory feesRecipientsPercentage,\n                         uint256 minHoldingForCallback,\n                         bool isPrivate,\n                         address legalAuthority) external onlyMaintener(id) {\n        require(_tokens[id].supply > 0, \"Unknown token\");\n\n        _setToken(id,\n                  metadataHash,\n                  transactionFees,\n                  feesRecipients,\n                  feesRecipientsPercentage,\n                  minHoldingForCallback,\n                  isPrivate,\n                  legalAuthority);\n\n        emit TokenUpdated(id, metadataHash);\n    }\n\n\n    /****************************\n    INTERNAL FUNCTIONS\n    *****************************/\n\n\n    function _isMaintener(uint256 id, address maintener) internal view returns (bool) {\n        return _tokens[id].holders[maintener].isMaintener || _isOwner();\n    }\n\n}\n",
  "sourcePath": "/home/ouziel/Work/StashBloxContracts/contracts/lib/Maintenable.sol",
  "compiler": {
    "name": "solc",
    "version": "0.7.1+commit.f4a555be.Emscripten.clang"
  },
  "schemaVersion": "3.2.3",
  "updatedAt": "2020-10-22T09:28:25.253Z",
  "devdoc": {
    "kind": "dev",
    "methods": {
      "authorizeMaintener(uint256,address)": {
        "details": "Function to authorize an address to maintain a token.",
        "params": {
          "maintener": "The authorized address"
        }
      },
      "authorizeTokenizer(address)": {
        "details": "Function to authorize an address to create a token.",
        "params": {
          "tokenizer": "The authorized address"
        }
      },
      "averageAge(address,uint256)": {
        "details": "Function to get the average age of the token for the given address.",
        "params": {
          "account": "the address from where to transfer the tokens",
          "id": "The token ID"
        },
        "returns": {
          "_0": "average age in seconds"
        }
      },
      "balanceOf(address,uint256)": {
        "details": "Get the specified address' balance for token with specified ID. Attempting to query the zero account for a balance will result in a revert.",
        "params": {
          "account": "The address of the token holder",
          "id": "ID of the token"
        },
        "returns": {
          "_0": "The account's balance of the token type requested"
        }
      },
      "balanceOfBatch(address[],uint256[])": {
        "details": "Get the balance of multiple account/token pairs. If any of the query accounts is the zero account, this query will revert.",
        "params": {
          "accounts": "The addresses of the token holders",
          "ids": "IDs of the tokens"
        },
        "returns": {
          "_0": "Balances for each account and token id pair"
        }
      },
      "cloneToken(uint256,uint256[],uint256[])": {
        "details": "Function to mint tokens in batch.",
        "params": {
          "id": "Identifier of the template",
          "ids": "list of IDs of the tokens to be minted",
          "metadataHashes": "list of metadata file hashes"
        }
      },
      "createToken(address,uint256,uint256,uint256,uint256,uint256[3],address[],uint256[],uint256,bool,address)": {
        "details": "Function to mint an amount of a token with the given ID.",
        "params": {
          "feesRecipients": "list of addresses receiving transfer fees",
          "feesRecipientsPercentage": "list of percentage, each one for the corresponding feesRecipients",
          "id": "ID of the token to be minted",
          "isPrivate": "true if holder need approval",
          "legalAuthority": "address of the legal authority",
          "metadataHash": "Metadata file hash",
          "minHoldingForCallback": "minimum holding to propose a callback",
          "recipient": "The address that will own the minted tokens",
          "supply": "Amount of the token to be minted",
          "transactionFees": "transaction fees: [lumpSumFees (in WEI), valueProportionalFees (ratio of transfered amount * 10**8), storageFees (in storageCredit * 10**8)]"
        }
      },
      "isApprovedForAll(address,address)": {
        "params": {
          "account": "The account of the Tokens",
          "operator": "Address of authorized operator"
        },
        "returns": {
          "_0": "True if the operator is approved, false if not"
        }
      },
      "isMaintener(uint256,address)": {
        "details": "Function to check if an address is authorized to maintain a token.",
        "params": {
          "id": "the token id",
          "maintener": "The authorized address"
        },
        "returns": {
          "_0": "true if it's a maintener address"
        }
      },
      "isTokenizer(address)": {
        "details": "Function to check if an address is authorized to create a token.",
        "params": {
          "tokenizer": "The authorized address"
        }
      },
      "owner()": {
        "details": "Returns the address of the current owner."
      },
      "revokeMaintener(uint256,address)": {
        "details": "Function to revoke the authorization to maintain a token.",
        "params": {
          "id": "the token id",
          "maintener": "The authorized address"
        }
      },
      "revokeTokenizer(address)": {
        "details": "Function to revoke the authorization to create a token.",
        "params": {
          "tokenizer": "The authorized address"
        }
      },
      "safeBatchTransferFrom(address,address,uint256[],uint256[],bytes)": {
        "details": "Transfers `values` amount(s) of `ids` from the `from` address to the `to` address specified. Caller must be approved to manage the tokens being transferred out of the `from` account. If `to` is a smart contract, will call `onERC1155BatchReceived` on `to` and act appropriately.",
        "params": {
          "data": "Data forwarded to `onERC1155Received` if `to` is a contract receiver",
          "from": "Source address",
          "ids": "IDs of each token type",
          "to": "Target address",
          "values": "Transfer amounts per token type"
        }
      },
      "safeTransferFrom(address,address,uint256,uint256,bytes)": {
        "details": "Transfers `value` amount of an `id` from the `from` address to the `to` address specified. Caller must be approved to manage the tokens being transferred out of the `from` account. If `to` is a smart contract, will call `onERC1155Received` on `to` and act appropriately.",
        "params": {
          "data": "Data forwarded to `onERC1155Received` if `to` is a contract receiver",
          "from": "Source address",
          "id": "ID of the token type",
          "to": "Target address",
          "value": "Transfer amount"
        }
      },
      "setApprovalForAll(address,bool)": {
        "details": "Sets or unsets the approval of a given operator. An operator is allowed to transfer all tokens of the sender on their behalf. Because an account already has operator privileges for itself, this function will revert if the account attempts to set the approval status for itself.",
        "params": {
          "approved": "representing the status of the approval to be set",
          "operator": "address to set the approval"
        }
      },
      "setProxyRegistryAddress(address[10])": {
        "details": "Function to update the operator whitelist",
        "params": {
          "proxyAddresses": "List of addresses"
        }
      },
      "supportsInterface(bytes4)": {
        "params": {
          "_interfaceID": "The interface identifier, as specified in ERC-165"
        },
        "returns": {
          "_0": "`true` if the contract implements `_interfaceID` and"
        }
      },
      "transactionFees(address,uint256,uint256)": {
        "details": "Function to get the transaction price to transfer tokens.",
        "params": {
          "account": "the address from where to transfer the tokens",
          "id": "The token ID",
          "value": "The amount to transfer"
        },
        "returns": {
          "_0": "transfer price"
        }
      },
      "transferOwnership(address)": {
        "details": "Transfers ownership of the contract to a new account (`newOwner`). Can only be called by the current owner."
      },
      "updateToken(uint256,uint256,uint256[3],address[],uint256[],uint256,bool,address)": {
        "details": "Function to update a token with the given ID.",
        "params": {
          "feesRecipients": "list of addresses receiving transfer fees",
          "feesRecipientsPercentage": "list of percentage, each one for the corresponding feesRecipients",
          "id": "ID of the token to be updated",
          "isPrivate": "true if holder need approval",
          "legalAuthority": "address of the legal authority",
          "metadataHash": "Metadata file hash",
          "minHoldingForCallback": "minimum holding to propose a callback",
          "transactionFees": "transaction fees: [lumpSumFees (in WEI), valueProportionalFees (ratio of transfered amount * 10**8), storageFees (in storageCredit * 10**8)]"
        }
      },
      "uri(uint256)": {
        "params": {
          "id": "Token ID"
        },
        "returns": {
          "_0": "URI string"
        }
      }
    },
    "version": 1
  },
  "userdoc": {
    "kind": "user",
    "methods": {
      "isApprovedForAll(address,address)": {
        "notice": "Queries the approval status of an operator for a given account."
      },
      "isTrustedForwarder(address)": {
        "notice": "return if the forwarder is trusted to forward relayed transactions to us. the forwarder is required to verify the sender's signature, and verify the call is not a replay."
      },
      "supportsInterface(bytes4)": {
        "notice": "Query if a contract implements an interface"
      }
    },
    "version": 1
  }
}