{
  "contractName": "Maintenable",
  "abi": [
    {
      "anonymous": false,
      "inputs": [
        {
          "indexed": true,
          "internalType": "address",
          "name": "_owner",
          "type": "address"
        },
        {
          "indexed": true,
          "internalType": "address",
          "name": "_operator",
          "type": "address"
        },
        {
          "indexed": false,
          "internalType": "bool",
          "name": "_approved",
          "type": "bool"
        }
      ],
      "name": "ApprovalForAll",
      "type": "event"
    },
    {
      "anonymous": false,
      "inputs": [
        {
          "indexed": true,
          "internalType": "address",
          "name": "previousOwner",
          "type": "address"
        },
        {
          "indexed": true,
          "internalType": "address",
          "name": "newOwner",
          "type": "address"
        }
      ],
      "name": "OwnershipTransferred",
      "type": "event"
    },
    {
      "anonymous": false,
      "inputs": [
        {
          "indexed": true,
          "internalType": "uint256",
          "name": "_id",
          "type": "uint256"
        },
        {
          "indexed": false,
          "internalType": "uint256",
          "name": "_documentHash",
          "type": "uint256"
        }
      ],
      "name": "TokenUpdated",
      "type": "event"
    },
    {
      "anonymous": false,
      "inputs": [
        {
          "indexed": true,
          "internalType": "address",
          "name": "_operator",
          "type": "address"
        },
        {
          "indexed": true,
          "internalType": "address",
          "name": "_from",
          "type": "address"
        },
        {
          "indexed": true,
          "internalType": "address",
          "name": "_to",
          "type": "address"
        },
        {
          "indexed": false,
          "internalType": "uint256[]",
          "name": "_ids",
          "type": "uint256[]"
        },
        {
          "indexed": false,
          "internalType": "uint256[]",
          "name": "_values",
          "type": "uint256[]"
        }
      ],
      "name": "TransferBatch",
      "type": "event"
    },
    {
      "anonymous": false,
      "inputs": [
        {
          "indexed": true,
          "internalType": "address",
          "name": "_operator",
          "type": "address"
        },
        {
          "indexed": true,
          "internalType": "address",
          "name": "_from",
          "type": "address"
        },
        {
          "indexed": true,
          "internalType": "address",
          "name": "_to",
          "type": "address"
        },
        {
          "indexed": false,
          "internalType": "uint256",
          "name": "_id",
          "type": "uint256"
        },
        {
          "indexed": false,
          "internalType": "uint256",
          "name": "_value",
          "type": "uint256"
        }
      ],
      "name": "TransferSingle",
      "type": "event"
    },
    {
      "anonymous": false,
      "inputs": [
        {
          "indexed": false,
          "internalType": "string",
          "name": "_value",
          "type": "string"
        },
        {
          "indexed": true,
          "internalType": "uint256",
          "name": "_id",
          "type": "uint256"
        }
      ],
      "name": "URI",
      "type": "event"
    },
    {
      "inputs": [
        {
          "internalType": "uint256",
          "name": "",
          "type": "uint256"
        }
      ],
      "name": "_callbacks",
      "outputs": [
        {
          "internalType": "uint256",
          "name": "tokenId",
          "type": "uint256"
        },
        {
          "internalType": "uint256",
          "name": "price",
          "type": "uint256"
        },
        {
          "internalType": "uint256",
          "name": "escrowedAmount",
          "type": "uint256"
        },
        {
          "internalType": "uint256",
          "name": "callCounter",
          "type": "uint256"
        },
        {
          "internalType": "uint256",
          "name": "documentHash",
          "type": "uint256"
        },
        {
          "internalType": "address",
          "name": "caller",
          "type": "address"
        },
        {
          "internalType": "bool",
          "name": "needLegalApproval",
          "type": "bool"
        },
        {
          "internalType": "bool",
          "name": "approvedByLegal",
          "type": "bool"
        },
        {
          "internalType": "bool",
          "name": "refused",
          "type": "bool"
        },
        {
          "internalType": "bool",
          "name": "accepted",
          "type": "bool"
        },
        {
          "internalType": "bool",
          "name": "completed",
          "type": "bool"
        }
      ],
      "stateMutability": "view",
      "type": "function"
    },
    {
      "inputs": [],
      "name": "_config",
      "outputs": [
        {
          "internalType": "uint256",
          "name": "callbackAutoExecuteMaxAddresses",
          "type": "uint256"
        },
        {
          "internalType": "string",
          "name": "baseURI",
          "type": "string"
        },
        {
          "internalType": "string",
          "name": "versionRecipient",
          "type": "string"
        },
        {
          "internalType": "address",
          "name": "owner",
          "type": "address"
        },
        {
          "internalType": "address",
          "name": "GSNTrustedForwarder",
          "type": "address"
        }
      ],
      "stateMutability": "view",
      "type": "function"
    },
    {
      "inputs": [
        {
          "internalType": "uint256",
          "name": "",
          "type": "uint256"
        }
      ],
      "name": "_tokens",
      "outputs": [
        {
          "internalType": "uint256",
          "name": "supply",
          "type": "uint256"
        },
        {
          "internalType": "uint256",
          "name": "decimals",
          "type": "uint256"
        },
        {
          "internalType": "uint256",
          "name": "lumpSumTransactionFees",
          "type": "uint256"
        },
        {
          "internalType": "uint256",
          "name": "valueTransactionFees",
          "type": "uint256"
        },
        {
          "internalType": "uint256",
          "name": "minHoldingForCallback",
          "type": "uint256"
        },
        {
          "internalType": "uint256",
          "name": "metadataHash",
          "type": "uint256"
        },
        {
          "internalType": "address",
          "name": "legalAuthority",
          "type": "address"
        },
        {
          "internalType": "bool",
          "name": "isPrivate",
          "type": "bool"
        },
        {
          "internalType": "bool",
          "name": "locked",
          "type": "bool"
        }
      ],
      "stateMutability": "view",
      "type": "function"
    },
    {
      "inputs": [
        {
          "internalType": "address",
          "name": "",
          "type": "address"
        }
      ],
      "name": "_users",
      "outputs": [
        {
          "internalType": "bool",
          "name": "isTokenizer",
          "type": "bool"
        },
        {
          "internalType": "bool",
          "name": "isLocked",
          "type": "bool"
        },
        {
          "internalType": "uint256",
          "name": "ETHBalance",
          "type": "uint256"
        }
      ],
      "stateMutability": "view",
      "type": "function"
    },
    {
      "inputs": [
        {
          "internalType": "address",
          "name": "tokenizer",
          "type": "address"
        }
      ],
      "name": "authorizeTokenizer",
      "outputs": [],
      "stateMutability": "nonpayable",
      "type": "function"
    },
    {
      "inputs": [
        {
          "internalType": "address",
          "name": "account",
          "type": "address"
        },
        {
          "internalType": "uint256",
          "name": "id",
          "type": "uint256"
        }
      ],
      "name": "averageAge",
      "outputs": [
        {
          "internalType": "uint256",
          "name": "",
          "type": "uint256"
        }
      ],
      "stateMutability": "view",
      "type": "function"
    },
    {
      "inputs": [
        {
          "internalType": "address",
          "name": "account",
          "type": "address"
        },
        {
          "internalType": "uint256",
          "name": "id",
          "type": "uint256"
        }
      ],
      "name": "balanceOf",
      "outputs": [
        {
          "internalType": "uint256",
          "name": "",
          "type": "uint256"
        }
      ],
      "stateMutability": "view",
      "type": "function"
    },
    {
      "inputs": [
        {
          "internalType": "address[]",
          "name": "accounts",
          "type": "address[]"
        },
        {
          "internalType": "uint256[]",
          "name": "ids",
          "type": "uint256[]"
        }
      ],
      "name": "balanceOfBatch",
      "outputs": [
        {
          "internalType": "uint256[]",
          "name": "",
          "type": "uint256[]"
        }
      ],
      "stateMutability": "view",
      "type": "function"
    },
    {
      "inputs": [
        {
          "internalType": "uint256",
          "name": "id",
          "type": "uint256"
        },
        {
          "internalType": "uint256[]",
          "name": "ids",
          "type": "uint256[]"
        },
        {
          "internalType": "uint256[]",
          "name": "metadataHashes",
          "type": "uint256[]"
        }
      ],
      "name": "cloneToken",
      "outputs": [],
      "stateMutability": "nonpayable",
      "type": "function"
    },
    {
      "inputs": [
        {
          "internalType": "address",
          "name": "recipient",
          "type": "address"
        },
        {
          "internalType": "uint256",
          "name": "id",
          "type": "uint256"
        },
        {
          "internalType": "uint256",
          "name": "supply",
          "type": "uint256"
        },
        {
          "internalType": "uint256",
          "name": "decimals",
          "type": "uint256"
        },
        {
          "internalType": "uint256",
          "name": "metadataHash",
          "type": "uint256"
        },
        {
          "internalType": "uint256[3]",
          "name": "transactionFees",
          "type": "uint256[3]"
        },
        {
          "internalType": "address[]",
          "name": "feesRecipients",
          "type": "address[]"
        },
        {
          "internalType": "uint256[]",
          "name": "feesRecipientsPercentage",
          "type": "uint256[]"
        },
        {
          "internalType": "uint256",
          "name": "minHoldingForCallback",
          "type": "uint256"
        },
        {
          "internalType": "bool",
          "name": "isPrivate",
          "type": "bool"
        },
        {
          "internalType": "address",
          "name": "legalAuthority",
          "type": "address"
        }
      ],
      "name": "createToken",
      "outputs": [],
      "stateMutability": "nonpayable",
      "type": "function"
    },
    {
      "inputs": [
        {
          "internalType": "address",
          "name": "account",
          "type": "address"
        },
        {
          "internalType": "address",
          "name": "operator",
          "type": "address"
        }
      ],
      "name": "isApprovedForAll",
      "outputs": [
        {
          "internalType": "bool",
          "name": "",
          "type": "bool"
        }
      ],
      "stateMutability": "view",
      "type": "function"
    },
    {
      "inputs": [
        {
          "internalType": "address",
          "name": "tokenizer",
          "type": "address"
        }
      ],
      "name": "isTokenizer",
      "outputs": [
        {
          "internalType": "bool",
          "name": "",
          "type": "bool"
        }
      ],
      "stateMutability": "view",
      "type": "function"
    },
    {
      "inputs": [
        {
          "internalType": "address",
          "name": "forwarder",
          "type": "address"
        }
      ],
      "name": "isTrustedForwarder",
      "outputs": [
        {
          "internalType": "bool",
          "name": "",
          "type": "bool"
        }
      ],
      "stateMutability": "view",
      "type": "function"
    },
    {
      "inputs": [],
      "name": "owner",
      "outputs": [
        {
          "internalType": "address",
          "name": "",
          "type": "address"
        }
      ],
      "stateMutability": "view",
      "type": "function"
    },
    {
      "inputs": [
        {
          "internalType": "address",
          "name": "tokenizer",
          "type": "address"
        }
      ],
      "name": "revokeTokenizer",
      "outputs": [],
      "stateMutability": "nonpayable",
      "type": "function"
    },
    {
      "inputs": [
        {
          "internalType": "address",
          "name": "from",
          "type": "address"
        },
        {
          "internalType": "address",
          "name": "to",
          "type": "address"
        },
        {
          "internalType": "uint256[]",
          "name": "ids",
          "type": "uint256[]"
        },
        {
          "internalType": "uint256[]",
          "name": "values",
          "type": "uint256[]"
        },
        {
          "internalType": "bytes",
          "name": "data",
          "type": "bytes"
        }
      ],
      "name": "safeBatchTransferFrom",
      "outputs": [],
      "stateMutability": "payable",
      "type": "function"
    },
    {
      "inputs": [
        {
          "internalType": "address",
          "name": "from",
          "type": "address"
        },
        {
          "internalType": "address",
          "name": "to",
          "type": "address"
        },
        {
          "internalType": "uint256",
          "name": "id",
          "type": "uint256"
        },
        {
          "internalType": "uint256",
          "name": "value",
          "type": "uint256"
        },
        {
          "internalType": "bytes",
          "name": "data",
          "type": "bytes"
        }
      ],
      "name": "safeTransferFrom",
      "outputs": [],
      "stateMutability": "payable",
      "type": "function"
    },
    {
      "inputs": [
        {
          "internalType": "address",
          "name": "operator",
          "type": "address"
        },
        {
          "internalType": "bool",
          "name": "approved",
          "type": "bool"
        }
      ],
      "name": "setApprovalForAll",
      "outputs": [],
      "stateMutability": "nonpayable",
      "type": "function"
    },
    {
      "inputs": [
        {
          "internalType": "address[10]",
          "name": "proxyAddresses",
          "type": "address[10]"
        }
      ],
      "name": "setProxyRegistryAddress",
      "outputs": [],
      "stateMutability": "nonpayable",
      "type": "function"
    },
    {
      "inputs": [
        {
          "internalType": "bytes4",
          "name": "_interfaceID",
          "type": "bytes4"
        }
      ],
      "name": "supportsInterface",
      "outputs": [
        {
          "internalType": "bool",
          "name": "",
          "type": "bool"
        }
      ],
      "stateMutability": "pure",
      "type": "function"
    },
    {
      "inputs": [
        {
          "internalType": "address",
          "name": "account",
          "type": "address"
        },
        {
          "internalType": "uint256",
          "name": "id",
          "type": "uint256"
        },
        {
          "internalType": "uint256",
          "name": "value",
          "type": "uint256"
        }
      ],
      "name": "transactionFees",
      "outputs": [
        {
          "internalType": "uint256",
          "name": "",
          "type": "uint256"
        }
      ],
      "stateMutability": "view",
      "type": "function"
    },
    {
      "inputs": [
        {
          "internalType": "address",
          "name": "newOwner",
          "type": "address"
        }
      ],
      "name": "transferOwnership",
      "outputs": [],
      "stateMutability": "nonpayable",
      "type": "function"
    },
    {
      "inputs": [
        {
          "internalType": "uint256",
          "name": "id",
          "type": "uint256"
        }
      ],
      "name": "uri",
      "outputs": [
        {
          "internalType": "string",
          "name": "",
          "type": "string"
        }
      ],
      "stateMutability": "view",
      "type": "function"
    },
    {
      "inputs": [],
      "name": "versionRecipient",
      "outputs": [
        {
          "internalType": "string",
          "name": "",
          "type": "string"
        }
      ],
      "stateMutability": "view",
      "type": "function"
    },
    {
      "inputs": [
        {
          "internalType": "uint256",
          "name": "id",
          "type": "uint256"
        },
        {
          "internalType": "address",
          "name": "maintener",
          "type": "address"
        }
      ],
      "name": "authorizeMaintener",
      "outputs": [],
      "stateMutability": "nonpayable",
      "type": "function"
    },
    {
      "inputs": [
        {
          "internalType": "uint256",
          "name": "id",
          "type": "uint256"
        },
        {
          "internalType": "address",
          "name": "maintener",
          "type": "address"
        }
      ],
      "name": "revokeMaintener",
      "outputs": [],
      "stateMutability": "nonpayable",
      "type": "function"
    },
    {
      "inputs": [
        {
          "internalType": "uint256",
          "name": "id",
          "type": "uint256"
        },
        {
          "internalType": "address",
          "name": "maintener",
          "type": "address"
        }
      ],
      "name": "isMaintener",
      "outputs": [
        {
          "internalType": "bool",
          "name": "",
          "type": "bool"
        }
      ],
      "stateMutability": "view",
      "type": "function"
    },
    {
      "inputs": [
        {
          "internalType": "uint256",
          "name": "id",
          "type": "uint256"
        },
        {
          "internalType": "uint256",
          "name": "metadataHash",
          "type": "uint256"
        },
        {
          "internalType": "uint256[3]",
          "name": "transactionFees",
          "type": "uint256[3]"
        },
        {
          "internalType": "address[]",
          "name": "feesRecipients",
          "type": "address[]"
        },
        {
          "internalType": "uint256[]",
          "name": "feesRecipientsPercentage",
          "type": "uint256[]"
        },
        {
          "internalType": "uint256",
          "name": "minHoldingForCallback",
          "type": "uint256"
        },
        {
          "internalType": "bool",
          "name": "isPrivate",
          "type": "bool"
        },
        {
          "internalType": "address",
          "name": "legalAuthority",
          "type": "address"
        }
      ],
      "name": "updateToken",
      "outputs": [],
      "stateMutability": "nonpayable",
      "type": "function"
    }
  ],
  "bytecode": "0x60806040523480156200001157600080fd5b5062000026620000206200002c565b62000062565b62000133565b60006018361080159062000046575062000046336200011f565b156200005c575060131936013560601c6200005f565b50335b90565b6001600160a01b038116620000c3576040517f08c379a000000000000000000000000000000000000000000000000000000000815260040180806020018281038252602681526020018062003c7e6026913960400191505060405180910390fd5b6003546040516001600160a01b038084169216907f8be0079c531659141344cd1fd0a4f28419497f9722a3daafe3b4186f6b6457e090600090a3600380546001600160a01b0319166001600160a01b0392909216919091179055565b6004546001600160a01b0390811691161490565b613b3b80620001436000396000f3fe6080604052600436106101b65760003560e01c80637627b732116100ec578063d1660e181161008a578063ed70554d11610064578063ed70554d14610dc0578063f242432a14610e3e578063f2fde38b14610ed1578063f8a5a07c14610f04576101b6565b8063d1660e1814610d0d578063d41d0aa314610d4c578063e985e9c514610d85576101b6565b80638da5cb5b116100c65780638da5cb5b14610ad1578063a22cb46514610b02578063c02f303c14610b3d578063c40b87ae14610b70576101b6565b80637627b73214610a325780638870147b14610a655780638aeba37e14610a98576101b6565b80634392e577116101595780634e1273f4116101335780634e1273f41461080d578063572b6c051461098d578063585941d5146109c05780635dafec1b146109f9576101b6565b80634392e57714610615578063486ff0cd146106765780634ab0d2531461068b576101b6565b80632eb2c2d6116101955780632eb2c2d6146102ed5780632ed42bf7146104165780633cacd7d614610530578063414ed0ce14610583576101b6565b8062fdd58e146101bb57806301ffc9a7146102065780630e89341c1461024e575b600080fd5b3480156101c757600080fd5b506101f4600480360360408110156101de57600080fd5b506001600160a01b03813516906020013561103b565b60408051918252519081900360200190f35b34801561021257600080fd5b5061023a6004803603602081101561022957600080fd5b50356001600160e01b0319166110b0565b604080519115158252519081900360200190f35b34801561025a57600080fd5b506102786004803603602081101561027157600080fd5b50356110f7565b6040805160208082528351818301528351919283929083019185019080838360005b838110156102b257818101518382015260200161029a565b50505050905090810190601f1680156102df5780820380516001836020036101000a031916815260200191505b509250505060405180910390f35b610414600480360360a081101561030357600080fd5b6001600160a01b038235811692602081013590911691810190606081016040820135600160201b81111561033657600080fd5b82018360208201111561034857600080fd5b803590602001918460208302840111600160201b8311171561036957600080fd5b919390929091602081019035600160201b81111561038657600080fd5b82018360208201111561039857600080fd5b803590602001918460208302840111600160201b831117156103b957600080fd5b919390929091602081019035600160201b8111156103d657600080fd5b8201836020820111156103e857600080fd5b803590602001918460018302840111600160201b8311171561040957600080fd5b509092509050611198565b005b34801561042257600080fd5b5061042b61146b565b604051808681526020018060200180602001856001600160a01b03168152602001846001600160a01b03168152602001838103835287818151815260200191508051906020019080838360005b83811015610490578181015183820152602001610478565b50505050905090810190601f1680156104bd5780820380516001836020036101000a031916815260200191505b50838103825286518152865160209182019188019080838360005b838110156104f05781810151838201526020016104d8565b50505050905090810190601f16801561051d5780820380516001836020036101000a031916815260200191505b5097505050505050505060405180910390f35b34801561053c57600080fd5b506105636004803603602081101561055357600080fd5b50356001600160a01b03166115ac565b604080519315158452911515602084015282820152519081900360600190f35b34801561058f57600080fd5b506105ad600480360360208110156105a657600080fd5b50356115d2565b604080519b8c5260208c019a909a528a8a019890985260608a019690965260808901949094526001600160a01b0390921660a0880152151560c0870152151560e086015215156101008501521515610120840152151561014083015251908190036101600190f35b34801561062157600080fd5b50610414600480360361014081101561063957600080fd5b81019080806101400190600a806020026040519081016040528092919082600a602002808284376000920191909152509194506116459350505050565b34801561068257600080fd5b5061027861169d565b34801561069757600080fd5b5061041460048036036101408110156106af57600080fd5b6040805160608181018352843594602081013594810193909260a08401929091840190600390839083908082843760009201919091525091949392602081019250359050600160201b81111561070457600080fd5b82018360208201111561071657600080fd5b803590602001918460208302840111600160201b8311171561073757600080fd5b9190808060200260200160405190810160405280939291908181526020018383602002808284376000920191909152509295949360208101935035915050600160201b81111561078657600080fd5b82018360208201111561079857600080fd5b803590602001918460208302840111600160201b831117156107b957600080fd5b919080806020026020016040519081016040528093929190818152602001838360200280828437600092019190915250929550508235935050506020810135151590604001356001600160a01b0316611731565b34801561081957600080fd5b5061093d6004803603604081101561083057600080fd5b810190602081018135600160201b81111561084a57600080fd5b82018360208201111561085c57600080fd5b803590602001918460208302840111600160201b8311171561087d57600080fd5b9190808060200260200160405190810160405280939291908181526020018383602002808284376000920191909152509295949360208101935035915050600160201b8111156108cc57600080fd5b8201836020820111156108de57600080fd5b803590602001918460208302840111600160201b831117156108ff57600080fd5b91908080602002602001604051908101604052809392919081815260200183836020028082843760009201919091525092955061182f945050505050565b60408051602080825283518183015283519192839290830191858101910280838360005b83811015610979578181015183820152602001610961565b505050509050019250505060405180910390f35b34801561099957600080fd5b5061023a600480360360208110156109b057600080fd5b50356001600160a01b03166119b3565b3480156109cc57600080fd5b506101f4600480360360408110156109e357600080fd5b506001600160a01b0381351690602001356119c7565b348015610a0557600080fd5b5061023a60048036036040811015610a1c57600080fd5b50803590602001356001600160a01b0316611a02565b348015610a3e57600080fd5b5061041460048036036020811015610a5557600080fd5b50356001600160a01b0316611a0e565b348015610a7157600080fd5b5061041460048036036020811015610a8857600080fd5b50356001600160a01b0316611a79565b348015610aa457600080fd5b5061041460048036036040811015610abb57600080fd5b50803590602001356001600160a01b0316611ae1565b348015610add57600080fd5b50610ae6611b5f565b604080516001600160a01b039092168252519081900360200190f35b348015610b0e57600080fd5b5061041460048036036040811015610b2557600080fd5b506001600160a01b0381351690602001351515611b6e565b348015610b4957600080fd5b5061023a60048036036020811015610b6057600080fd5b50356001600160a01b0316611c61565b348015610b7c57600080fd5b5061041460048036036101a0811015610b9457600080fd5b60408051606081810183526001600160a01b03853516946020810135949381013593828201359360808301359391830192916101008301919060a0840190600390839083908082843760009201919091525091949392602081019250359050600160201b811115610c0457600080fd5b820183602082011115610c1657600080fd5b803590602001918460208302840111600160201b83111715610c3757600080fd5b9190808060200260200160405190810160405280939291908181526020018383602002808284376000920191909152509295949360208101935035915050600160201b811115610c8657600080fd5b820183602082011115610c9857600080fd5b803590602001918460208302840111600160201b83111715610cb957600080fd5b919080806020026020016040519081016040528093929190818152602001838360200280828437600092019190915250929550508235935050506020810135151590604001356001600160a01b0316611c6c565b348015610d1957600080fd5b506101f460048036036060811015610d3057600080fd5b506001600160a01b038135169060208101359060400135611d43565b348015610d5857600080fd5b5061041460048036036040811015610d6f57600080fd5b50803590602001356001600160a01b0316611d58565b348015610d9157600080fd5b5061023a60048036036040811015610da857600080fd5b506001600160a01b0381358116916020013516611dd3565b348015610dcc57600080fd5b50610dea60048036036020811015610de357600080fd5b5035611ddf565b60408051998a5260208a0198909852888801969096526060880194909452608087019290925260a08601526001600160a01b031660c0850152151560e0840152151561010083015251908190036101200190f35b610414600480360360a0811015610e5457600080fd5b6001600160a01b03823581169260208101359091169160408201359160608101359181019060a081016080820135600160201b811115610e9357600080fd5b820183602082011115610ea557600080fd5b803590602001918460018302840111600160201b83111715610ec657600080fd5b509092509050611e3b565b348015610edd57600080fd5b5061041460048036036020811015610ef457600080fd5b50356001600160a01b0316611fb2565b348015610f1057600080fd5b5061041460048036036060811015610f2757600080fd5b81359190810190604081016020820135600160201b811115610f4857600080fd5b820183602082011115610f5a57600080fd5b803590602001918460208302840111600160201b83111715610f7b57600080fd5b9190808060200260200160405190810160405280939291908181526020018383602002808284376000920191909152509295949360208101935035915050600160201b811115610fca57600080fd5b820183602082011115610fdc57600080fd5b803590602001918460208302840111600160201b83111715610ffd57600080fd5b919080806020026020016040519081016040528093929190818152602001838360200280828437600092019190915250929550612005945050505050565b60006001600160a01b0383166110825760405162461bcd60e51b815260040180806020018281038252602b8152602001806138f0602b913960400191505060405180910390fd5b5060008181526010602090815260408083206001600160a01b03861684526007019091529020545b92915050565b60006001600160e01b031982166301ffc9a760e01b14806110e157506001600160e01b03198216636cdb3d1360e11b145b156110ee575060016110f2565b5060005b919050565b60018054604080516020600284861615610100026000190190941693909304601f81018490048402820184019092528181526060936110aa93919290918301828280156111855780601f1061115a57610100808354040283529160200191611185565b820191906000526020600020905b81548152906001019060200180831161116857829003601f168201915b5050505050611193846121b3565b61226f565b8483146111d65760405162461bcd60e51b815260040180806020018281038252602e815260200180613aa7602e913960400191505060405180910390fd5b6001600160a01b03871661121b5760405162461bcd60e51b81526004018080602001828103825260288152602001806139416028913960400191505060405180910390fd5b611223612379565b6001600160a01b0316886001600160a01b03161480611254575061124e88611249612379565b611dd3565b15156001145b61128f5760405162461bcd60e51b8152600401808060200182810382526037815260200180613a706037913960400191505060405180910390fd5b6112fe888888888080602002602001604051908101604052809392919081815260200183836020028082843760009201919091525050604080516020808c0282810182019093528b82529093508b92508a9182918501908490808284376000920191909152506123ab92505050565b866001600160a01b0316886001600160a01b031661131a612379565b6001600160a01b03167f4a39dc06d4c0dbc64b70af90fd698a233a518aa5d07e595d983b8c0526c8f7fb898989896040518080602001806020018381038352878782818152602001925060200280828437600083820152601f01601f19169091018481038352858152602090810191508690860280828437600083820152604051601f909101601f19169092018290039850909650505050505050a46114616113c1612379565b898989898080602002602001604051908101604052809392919081815260200183836020028082843760009201919091525050604080516020808d0282810182019093528c82529093508c92508b91829185019084908082843760009201919091525050604080516020601f8c018190048102820181019092528a815292508a915089908190840183828082843760009201919091525061246592505050565b5050505050505050565b6000805460018054604080516020600284861615610100026000190190941693909304601f810184900484028201840190925281815293949392918301828280156114f75780601f106114cc576101008083540402835291602001916114f7565b820191906000526020600020905b8154815290600101906020018083116114da57829003601f168201915b50505060028085018054604080516020601f60001961010060018716150201909416959095049283018590048502810185019091528181529596959450909250908301828280156115895780601f1061155e57610100808354040283529160200191611589565b820191906000526020600020905b81548152906001019060200180831161156c57829003601f168201915b50505050600383015460049093015491926001600160a01b039081169216905085565b600f602052600090815260409020805460019091015460ff808316926101009004169083565b60116020526000908152604090208054600182015460028301546003840154600485015460059095015493949293919290916001600160a01b0381169060ff600160a01b8204811691600160a81b8104821691600160b01b8204811691600160b81b8104821691600160c01b909104168b565b61164d612656565b61168c576040805162461bcd60e51b81526020600482018190526024820152600080516020613a50833981519152604482015290519081900360640190fd5b611699600582600a61379b565b5050565b60028054604080516020601f60001961010060018716150201909416859004938401819004810282018101909252828152606093909290918301828280156117265780601f106116fb57610100808354040283529160200191611726565b820191906000526020600020905b81548152906001019060200180831161170957829003601f168201915b505050505090505b90565b876117438161173e612379565b61267c565b61178e576040805162461bcd60e51b815260206004820152601760248201527624b739bab33334b1b4b2b73a103832b936b4b9b9b4b7b760491b604482015290519081900360640190fd5b6000898152601060205260409020546117de576040805162461bcd60e51b815260206004820152600d60248201526c2ab735b737bbb7103a37b5b2b760991b604482015290519081900360640190fd5b6117ee89898989898989896126b6565b6040805189815290518a917f199acc06cd2556bbc146fa3cb578799037dffcbf256eca32aaf2ef656925d2fd919081900360200190a2505050505050505050565b606081518351146118715760405162461bcd60e51b81526004018080602001828103825260308152602001806139956030913960400191505060405180910390fd5b6060835167ffffffffffffffff8111801561188b57600080fd5b506040519080825280602002602001820160405280156118b5578160200160208202803683370190505b50905060005b84518110156119ab5760006001600160a01b03168582815181106118db57fe5b60200260200101516001600160a01b031614156119295760405162461bcd60e51b81526004018080602001828103825260348152602001806139fb6034913960400191505060405180910390fd5b6010600085838151811061193957fe5b60200260200101518152602001908152602001600020600701600086838151811061196057fe5b60200260200101516001600160a01b03166001600160a01b031681526020019081526020016000206000015482828151811061199857fe5b60209081029190910101526001016118bb565b509392505050565b6004546001600160a01b0390811691161490565b60008181526010602090815260408083206001600160a01b03861684526007019091528120600101546119fb90429061285a565b9392505050565b60006119fb838361267c565b611a16612656565b611a55576040805162461bcd60e51b81526020600482018190526024820152600080516020613a50833981519152604482015290519081900360640190fd5b6001600160a01b03166000908152600f60205260409020805460ff19166001179055565b611a81612656565b611ac0576040805162461bcd60e51b81526020600482018190526024820152600080516020613a50833981519152604482015290519081900360640190fd5b6001600160a01b03166000908152600f60205260409020805460ff19169055565b611ae9612656565b611b28576040805162461bcd60e51b81526020600482018190526024820152600080516020613a50833981519152604482015290519081900360640190fd5b60009182526010602090815260408084206001600160a01b039093168452600790920190529020600201805460ff19166001179055565b6003546001600160a01b031690565b816001600160a01b0316611b80612379565b6001600160a01b03161415611bc65760405162461bcd60e51b815260040180806020018281038252602c815260200180613969602c913960400191505060405180910390fd5b80600f6000611bd3612379565b6001600160a01b0390811682526020808301939093526040918201600090812091871680825260039092019093529120805460ff191692151592909217909155611c1b612379565b6001600160a01b03167f17307eab39ab6107e8899845ad3d59bd9653f200f220920489ca2b5937696c318360405180821515815260200191505060405180910390a35050565b60006110aa8261289c565b611c7c611c77612379565b61289c565b611cc7576040805162461bcd60e51b815260206004820152601760248201527624b739bab33334b1b4b2b73a103832b936b4b9b9b4b7b760491b604482015290519081900360640190fd5b611cda8b8b8b8b8b8b8b8b8b8b8b6128c6565b6001600160a01b038b166000611cee612379565b6001600160a01b03167fc3d58168c5ae7397731d063d5bbf3d657854427343f4c083240f7aacaa2d0f628d8d604051808381526020018281526020019250505060405180910390a45050505050505050505050565b6000611d50848484612a06565b949350505050565b611d60612656565b611d9f576040805162461bcd60e51b81526020600482018190526024820152600080516020613a50833981519152604482015290519081900360640190fd5b60009182526010602090815260408084206001600160a01b039093168452600790920190529020600201805460ff19169055565b60006119fb8383612bee565b601060205260009081526040902080546001820154600283015460038401546004850154600586015460069096015494959394929391929091906001600160a01b0381169060ff600160a01b8204811691600160a81b90041689565b6001600160a01b038516611e805760405162461bcd60e51b81526004018080602001828103825260288152602001806139416028913960400191505060405180910390fd5b611e88612379565b6001600160a01b0316866001600160a01b03161480611eb45750611eae86611249612379565b15156001145b611eef5760405162461bcd60e51b8152600401808060200182810382526037815260200180613a706037913960400191505060405180910390fd5b611efb86868686612c33565b846001600160a01b0316866001600160a01b0316611f17612379565b6001600160a01b03167fc3d58168c5ae7397731d063d5bbf3d657854427343f4c083240f7aacaa2d0f628787604051808381526020018281526020019250505060405180910390a4611faa611f6a612379565b8787878787878080601f016020809104026020016040519081016040528093929190818152602001838380828437600092019190915250612cab92505050565b505050505050565b611fba612656565b611ff9576040805162461bcd60e51b81526020600482018190526024820152600080516020613a50833981519152604482015290519081900360640190fd5b61200281612e20565b50565b612010611c77612379565b61205b576040805162461bcd60e51b815260206004820152601760248201527624b739bab33334b1b4b2b73a103832b936b4b9b9b4b7b760491b604482015290519081900360640190fd5b60008381526010602052604090205415801590612079575080518251145b6120be576040805162461bcd60e51b8152602060048201526011602482015270496e76616c696420617267756d656e747360781b604482015290519081900360640190fd5b60005b82518110156121ad576120fb848483815181106120da57fe5b60200260200101518484815181106120ee57fe5b6020026020010151612ec1565b6000848152601060205260408120600801805490919061211757fe5b60009182526020822001546001600160a01b031690612134612379565b6001600160a01b03167fc3d58168c5ae7397731d063d5bbf3d657854427343f4c083240f7aacaa2d0f6286858151811061216a57fe5b6020026020010151601060008a815260200190815260200160002060000154604051808381526020018281526020019250505060405180910390a46001016120c1565b50505050565b60606000825b80156121cf5760019190910190601090046121b9565b60608267ffffffffffffffff811180156121e857600080fd5b506040519080825280601f01601f191660200182016040528015612213576020820181803683370190505b50905060005b838110156122665760108606925061223083613063565b826001838703038151811061224157fe5b60200101906001600160f81b031916908160001a905350601086049550600101612219565b50949350505050565b805182516060918491849184910167ffffffffffffffff8111801561229357600080fd5b506040519080825280601f01601f1916602001820160405280156122be576020820181803683370190505b509050806000805b8551811015612317578581815181106122db57fe5b602001015160f81c60f81b8383806001019450815181106122f857fe5b60200101906001600160f81b031916908160001a9053506001016122c6565b5060005b845181101561236c5784818151811061233057fe5b602001015160f81c60f81b83838060010194508151811061234d57fe5b60200101906001600160f81b031916908160001a90535060010161231b565b5090979650505050505050565b6000601836108015906123905750612390336119b3565b156123a4575060131936013560601c61172e565b503361172e565b60008034116123d5576001600160a01b0385166000908152600f60205260409020600101546123d7565b345b905060005b83518110156124535761244961241a87878785815181106123f957fe5b602002602001015187868151811061240d57fe5b60200260200101516130a7565b60408051808201909152601081526f092dce6eaccccd2c6d2cadce8408aa8960831b60208201528491906131fb565b91506001016123dc565b5061245e8582613292565b5050505050565b612477846001600160a01b0316613313565b15611faa5763bc197c8160e01b6001600160e01b031916846001600160a01b031663bc197c8188888787876040518663ffffffff1660e01b815260040180866001600160a01b03168152602001856001600160a01b03168152602001806020018060200180602001848103845287818151815260200191508051906020019060200280838360005b838110156125175781810151838201526020016124ff565b50505050905001848103835286818151815260200191508051906020019060200280838360005b8381101561255657818101518382015260200161253e565b50505050905001848103825285818151815260200191508051906020019080838360005b8381101561259257818101518382015260200161257a565b50505050905090810190601f1680156125bf5780820380516001836020036101000a031916815260200191505b5098505050505050505050602060405180830381600087803b1580156125e457600080fd5b505af11580156125f8573d6000803e3d6000fd5b505050506040513d602081101561260e57600080fd5b50516001600160e01b03191614611faa5760405162461bcd60e51b81526004018080602001828103825260368152602001806139c56036913960400191505060405180910390fd5b6003546000906001600160a01b031661266d612379565b6001600160a01b031614905090565b60008281526010602090815260408083206001600160a01b038516845260070190915281206002015460ff16806119fb57506119fb612656565b6000805b85518110156126e6578581815181106126cf57fe5b6020026020010151820191508060010190506126ba565b50600086511180156126f6575060015b8015612703575080612710145b8015612710575061271084105b612755576040805162461bcd60e51b8152602060048201526011602482015270496e76616c696420617267756d656e747360781b604482015290519081900360640190fd5b6000898152601060209081526040808320600581018c90558a516002808301919091558b840151600383015582518084018452428152928c015183850152600b9091018054600181018255908552929093206127b59392830201916137f3565b50600089815260106020908152604090912087516127db9260099092019189019061382d565b506000898152601060209081526040909120865161280192600a90920191880190613881565b505060009788526010602052604090972060048101929092556006909101805460ff60a01b1916600160a01b92151592909202919091176001600160a01b0319166001600160a01b039096169590951790945550505050565b60006119fb83836040518060400160405280601e81526020017f536166654d6174683a207375627472616374696f6e206f766572666c6f7700008152506131fb565b6001600160a01b0381166000908152600f602052604081205460ff16806110aa57506110aa612656565b60008a8152601060205260409020541580156128e25750600089115b612927576040805162461bcd60e51b8152602060048201526011602482015270496e76616c696420617267756d656e747360781b604482015290519081900360640190fd5b60008a81526010602052604081208a815560018082018b90559160079091019061294f612379565b6001600160a01b03166001600160a01b0316815260200190815260200160002060020160006101000a81548160ff0219169083151502179055506001601060008c815260200190815260200160002060070160008d6001600160a01b03166001600160a01b0316815260200190815260200160002060020160026101000a81548160ff0219169083151502179055506129ee8a888888888888886126b6565b6129f98b8b8b61334a565b5050505050505050505050565b6000828152601060205260408120600b015481904290600019015b6000868152601060205260408120600b01805483908110612a3e57fe5b60009182526020822060029091020101546000888152601060205260408120600b018054929350909184908110612a7157fe5b9060005260206000209060020201600160028110612a8b57fe5b015460008981526010602090815260408083206001600160a01b038e168452600701909152812060010154919250908311612b2e5760008981526010602090815260408083206001600160a01b038e168452600701909152902060010154612b03906201518090612afd90889061285a565b9061355a565b905080612b0e575060015b612b2288612b1c838561359c565b9061359c565b86019550505050612b6d565b612b3f62015180612afd878661285a565b905080612b4a575060015b9193508391612b5d88612b1c838561359c565b9095019450505060001901612a21565b50600085815260106020526040902060010154612b8e908390600a0a61355a565b60008681526010602052604081206003015491935090612bb9906305f5e10090612afd90889061359c565b600087815260106020526040902060020154909150612be390612bdc90836135f5565b84906135f5565b979650505050505050565b6000612bfa838361364f565b806119fb5750506001600160a01b039182166000908152600f602090815260408083209390941682526003909201909152205460ff1690565b6000803411612c5d576001600160a01b0385166000908152600f6020526040902060010154612c5f565b345b9050612c9f612c70868686866130a7565b60408051808201909152601081526f092dce6eaccccd2c6d2cadce8408aa8960831b60208201528391906131fb565b905061245e8582613292565b612cbd846001600160a01b0316613313565b15611faa5763f23a6e6160e01b6001600160e01b031916846001600160a01b031663f23a6e6188888787876040518663ffffffff1660e01b815260040180866001600160a01b03168152602001856001600160a01b0316815260200184815260200183815260200180602001828103825283818151815260200191508051906020019080838360005b83811015612d5e578181015183820152602001612d46565b50505050905090810190601f168015612d8b5780820380516001836020036101000a031916815260200191505b509650505050505050602060405180830381600087803b158015612dae57600080fd5b505af1158015612dc2573d6000803e3d6000fd5b505050506040513d6020811015612dd857600080fd5b50516001600160e01b03191614611faa5760405162461bcd60e51b8152600401808060200182810382526031815260200180613ad56031913960400191505060405180910390fd5b6001600160a01b038116612e655760405162461bcd60e51b815260040180806020018281038252602681526020018061391b6026913960400191505060405180910390fd5b6003546040516001600160a01b038084169216907f8be0079c531659141344cd1fd0a4f28419497f9722a3daafe3b4186f6b6457e090600090a3600380546001600160a01b0319166001600160a01b0392909216919091179055565b6000838152601060205260408120600801805461305e9290612edf57fe5b600091825260208083209091015486835260108083526040808520805460018201548351606081018552600284015481526003840154818901528c895294909652600b90910180546001600160a01b03909516968a96929592948a949093908401929190612f4957fe5b9060005260206000209060020201600160028110612f6357fe5b0154905260008a81526010602090815260409182902060090180548351818402810184019094528084529091830182828015612fc857602002820191906000526020600020905b81546001600160a01b03168152600190910190602001808311612faa575b50505060008d815260106020908152604091829020600a018054835181840281018401909452808452929450925083018282801561302557602002820191906000526020600020905b815481526020019060010190808311613011575b50505060008e8152601060205260409020600481015460069091015490925060ff600160a01b82041691506001600160a01b03166128c6565b505050565b600060098260ff161161307d57506030810160f81b6110f2565b8160ff16600a111580156130955750600f8260ff1611155b156101b657506057810160f81b6110f2565b6040805180820182526014815273496e73756666696369656e742062616c616e636560601b6020808301919091526000858152601082528381206001600160a01b0389168252600701909152918220546131029184906131fb565b60008481526010602090815260408083206001600160a01b038a16845260070190915290205561313384848461334a565b61313e858484612a06565b905060005b60008481526010602052604090206009015481101561226657600084815260106020526040812060090180548390811061317957fe5b6000918252602080832090910154878352601090915260408220600a0180546001600160a01b03909216935090849081106131b057fe5b60009182526020909120015490506131ce612710612afd868461359c565b6001600160a01b039092166000908152600f60205260409020600190810180549093019092555001613143565b6000818484111561328a5760405162461bcd60e51b81526004018080602001828103825283818151815260200191508051906020019080838360005b8381101561324f578181015183820152602001613237565b50505050905090810190601f16801561327c5780820380516001836020036101000a031916815260200191505b509250505060405180910390fd5b505050900390565b6000341180156132a25750600081115b156132ee576001600160a01b0382166000908152600f60205260409020600101546132cd90826135f5565b6001600160a01b0383166000908152600f6020526040902060010155611699565b34611699576001600160a01b03919091166000908152600f6020526040902060010155565b6000813f7fc5d2460186f7233c927e7db2dcc703c0e500b653ca82273b7bfad8045d85a4708115801590611d505750141592915050565b60008281526010602090815260408083206001600160a01b038716845260070190915281205461337a90836135f5565b60008481526010602090815260408083206001600160a01b03891684526007019091529020549091506134895760008381526010602090815260408083206001600160a01b0388168452600701909152902060020154610100900460ff16613458576001600160a01b0384166000818152600f60209081526040808320600290810180546001818101835591865284862001899055888552601084528285206008810180549283018155865284862090910180546001600160a01b031916871790559484526007909401909152902001805461ff0019166101001790555b60008381526010602090815260408083206001600160a01b038816845260070190915290204260019091015561352a565b60008381526010602090815260408083206001600160a01b03881684526007019091528120600101546134bd90429061285a565b60008581526010602090815260408083206001600160a01b038a168452600701909152812054919250906134f7908490612afd908561359c565b60008681526010602090815260408083206001600160a01b038b1684526007019091529020429190910360019091015550505b60009283526010602090815260408085206001600160a01b03909616855260079095019052929091209190915550565b60006119fb83836040518060400160405280601a81526020017f536166654d6174683a206469766973696f6e206279207a65726f000000000000815250613736565b6000826135ab575060006110aa565b828202828482816135b857fe5b04146119fb5760405162461bcd60e51b8152600401808060200182810382526021815260200180613a2f6021913960400191505060405180910390fd5b6000828201838110156119fb576040805162461bcd60e51b815260206004820152601b60248201527f536166654d6174683a206164646974696f6e206f766572666c6f770000000000604482015290519081900360640190fd5b6000805b600a81101561372c576000600582600a811061366b57fe5b01546001600160a01b031614613724576000600582600a811061368a57fe5b01546040805163c455279160e01b81526001600160a01b0388811660048301529151928216935090861691839163c4552791916024808301926020929190829003018186803b1580156136dc57600080fd5b505afa1580156136f0573d6000803e3d6000fd5b505050506040513d602081101561370657600080fd5b50516001600160a01b03161415613722576001925050506110aa565b505b600101613653565b5060009392505050565b600081836137855760405162461bcd60e51b815260206004820181815283516024840152835190928392604490910191908501908083836000831561324f578181015183820152602001613237565b50600083858161379157fe5b0495945050505050565b82600a81019282156137e3579160200282015b828111156137e357825182546001600160a01b0319166001600160a01b039091161782556020909201916001909101906137ae565b506137ef9291506138bb565b5090565b8260028101928215613821579160200282015b82811115613821578251825591602001919060010190613806565b506137ef9291506138da565b8280548282559060005260206000209081019282156137e357916020028201828111156137e357825182546001600160a01b0319166001600160a01b039091161782556020909201916001909101906137ae565b8280548282559060005260206000209081019282156138215791602002820182811115613821578251825591602001919060010190613806565b5b808211156137ef5780546001600160a01b03191681556001016138bc565b5b808211156137ef57600081556001016138db56fe455243313135353a2062616c616e636520717565727920666f7220746865207a65726f20616464726573734f776e61626c653a206e6577206f776e657220697320746865207a65726f2061646472657373455243313135353a207461726765742061646472657373206d757374206265206e6f6e2d7a65726f455243313135353a2063616e6e6f742073657420617070726f76616c2073746174757320666f722073656c66455243313135353a206163636f756e747320616e6420494473206d75737420686176652073616d65206c656e67746873455243313135353a20676f7420756e6b6e6f776e2076616c75652066726f6d206f6e4552433131353542617463685265636569766564455243313135353a20736f6d65206164647265737320696e2062617463682062616c616e6365207175657279206973207a65726f536166654d6174683a206d756c7469706c69636174696f6e206f766572666c6f774f776e61626c653a2063616c6c6572206973206e6f7420746865206f776e6572455243313135353a206e656564206f70657261746f7220617070726f76616c20666f7220337264207061727479207472616e7366657273455243313135353a2049447320616e642076616c756573206d75737420686176652073616d65206c656e67746873455243313135353a20676f7420756e6b6e6f776e2076616c75652066726f6d206f6e455243313135355265636569766564a2646970667358221220fb7a6975d5ea8f0457bb8e6c7c2798526e0b0d6a62a19c9099a040201977f06864736f6c634300070100334f776e61626c653a206e6577206f776e657220697320746865207a65726f2061646472657373",
  "immutableReferences": {},
  "source": "// SPDX-License-Identifier: GPL-3.0-or-later\npragma solidity ^0.7.1;\n\nimport './Mintable.sol';\n\ncontract Maintenable is Mintable {\n\n\n    /****************************\n    EVENTS\n    *****************************/\n\n\n    event TokenUpdated(uint256 indexed _id, uint256 _documentHash);\n\n\n    /****************************\n    MODIFIERS\n    *****************************/\n\n\n    modifier onlyMaintener(uint256 id) {\n        require(_isMaintener(id, _msgSender()), \"Insufficient permission\");\n        _;\n    }\n\n\n    /****************************\n    EXTERNAL FUNCTIONS\n    *****************************/\n\n\n    /**\n     * @dev Function to authorize an address to maintain a token.\n     * @param maintener The authorized address\n     */\n    function authorizeMaintener(uint256 id, address maintener) external onlyOwner {\n        _tokens[id].holders[maintener].isMaintener = true;\n    }\n\n    /**\n     * @dev Function to revoke the authorization to maintain a token.\n     * @param id the token id\n     * @param maintener The authorized address\n     */\n    function revokeMaintener(uint256 id, address maintener) external onlyOwner {\n        _tokens[id].holders[maintener].isMaintener = false;\n    }\n\n    /**\n     * @dev Function to check if an address is authorized to maintain a token.\n     * @param id the token id\n     * @param maintener The authorized address\n     * @return true if it's a maintener address\n     */\n    function isMaintener(uint256 id, address maintener) external view returns (bool) {\n        return _isMaintener(id, maintener);\n    }\n\n    /**\n     * @dev Function to update a token with the given ID.\n     * @param id ID of the token to be updated\n     * @param metadataHash Metadata file hash\n     * @param transactionFees transaction fees: [lumpSumFees (in WEI), valueProportionalFees (ratio of transfered amount * 10**8), storageFees (in storageCredit * 10**8)]\n     * @param feesRecipients list of addresses receiving transfer fees\n     * @param feesRecipientsPercentage list of percentage, each one for the corresponding feesRecipients\n     * @param minHoldingForCallback minimum holding to propose a callback\n     * @param isPrivate true if holder need approval\n     * @param legalAuthority address of the legal authority\n     */\n    function updateToken(uint256 id,\n                         uint256 metadataHash,\n                         uint256[3] memory transactionFees,\n                         address[] memory feesRecipients,\n                         uint256[] memory feesRecipientsPercentage,\n                         uint256 minHoldingForCallback,\n                         bool isPrivate,\n                         address legalAuthority) external onlyMaintener(id) {\n        require(_tokens[id].supply > 0, \"Unknown token\");\n\n        _setToken(id,\n                  metadataHash,\n                  transactionFees,\n                  feesRecipients,\n                  feesRecipientsPercentage,\n                  minHoldingForCallback,\n                  isPrivate,\n                  legalAuthority);\n\n        emit TokenUpdated(id, metadataHash);\n    }\n\n\n    /****************************\n    INTERNAL FUNCTIONS\n    *****************************/\n\n\n    function _isMaintener(uint256 id, address maintener) internal view returns (bool) {\n        return _tokens[id].holders[maintener].isMaintener || _isOwner();\n    }\n\n}\n",
  "sourcePath": "/home/ouziel/Work/StashBloxContracts/contracts/lib/Maintenable.sol",
  "compiler": {
    "name": "solc",
    "version": "0.7.1+commit.f4a555be.Emscripten.clang"
  },
  "schemaVersion": "3.2.3",
  "updatedAt": "2020-10-22T09:44:00.935Z",
  "devdoc": {
    "kind": "dev",
    "methods": {
      "authorizeMaintener(uint256,address)": {
        "details": "Function to authorize an address to maintain a token.",
        "params": {
          "maintener": "The authorized address"
        }
      },
      "authorizeTokenizer(address)": {
        "details": "Function to authorize an address to create a token.",
        "params": {
          "tokenizer": "The authorized address"
        }
      },
      "averageAge(address,uint256)": {
        "details": "Function to get the average age of the token for the given address.",
        "params": {
          "account": "the address from where to transfer the tokens",
          "id": "The token ID"
        },
        "returns": {
          "_0": "average age in seconds"
        }
      },
      "balanceOf(address,uint256)": {
        "details": "Get the specified address' balance for token with specified ID. Attempting to query the zero account for a balance will result in a revert.",
        "params": {
          "account": "The address of the token holder",
          "id": "ID of the token"
        },
        "returns": {
          "_0": "The account's balance of the token type requested"
        }
      },
      "balanceOfBatch(address[],uint256[])": {
        "details": "Get the balance of multiple account/token pairs. If any of the query accounts is the zero account, this query will revert.",
        "params": {
          "accounts": "The addresses of the token holders",
          "ids": "IDs of the tokens"
        },
        "returns": {
          "_0": "Balances for each account and token id pair"
        }
      },
      "cloneToken(uint256,uint256[],uint256[])": {
        "details": "Function to mint tokens in batch.",
        "params": {
          "id": "Identifier of the template",
          "ids": "list of IDs of the tokens to be minted",
          "metadataHashes": "list of metadata file hashes"
        }
      },
      "createToken(address,uint256,uint256,uint256,uint256,uint256[3],address[],uint256[],uint256,bool,address)": {
        "details": "Function to mint an amount of a token with the given ID.",
        "params": {
          "feesRecipients": "list of addresses receiving transfer fees",
          "feesRecipientsPercentage": "list of percentage, each one for the corresponding feesRecipients",
          "id": "ID of the token to be minted",
          "isPrivate": "true if holder need approval",
          "legalAuthority": "address of the legal authority",
          "metadataHash": "Metadata file hash",
          "minHoldingForCallback": "minimum holding to propose a callback",
          "recipient": "The address that will own the minted tokens",
          "supply": "Amount of the token to be minted",
          "transactionFees": "transaction fees: [lumpSumFees (in WEI), valueProportionalFees (ratio of transfered amount * 10**8), storageFees (in storageCredit * 10**8)]"
        }
      },
      "isApprovedForAll(address,address)": {
        "params": {
          "account": "The account of the Tokens",
          "operator": "Address of authorized operator"
        },
        "returns": {
          "_0": "True if the operator is approved, false if not"
        }
      },
      "isMaintener(uint256,address)": {
        "details": "Function to check if an address is authorized to maintain a token.",
        "params": {
          "id": "the token id",
          "maintener": "The authorized address"
        },
        "returns": {
          "_0": "true if it's a maintener address"
        }
      },
      "isTokenizer(address)": {
        "details": "Function to check if an address is authorized to create a token.",
        "params": {
          "tokenizer": "The authorized address"
        }
      },
      "owner()": {
        "details": "Returns the address of the current owner."
      },
      "revokeMaintener(uint256,address)": {
        "details": "Function to revoke the authorization to maintain a token.",
        "params": {
          "id": "the token id",
          "maintener": "The authorized address"
        }
      },
      "revokeTokenizer(address)": {
        "details": "Function to revoke the authorization to create a token.",
        "params": {
          "tokenizer": "The authorized address"
        }
      },
      "safeBatchTransferFrom(address,address,uint256[],uint256[],bytes)": {
        "details": "Transfers `values` amount(s) of `ids` from the `from` address to the `to` address specified. Caller must be approved to manage the tokens being transferred out of the `from` account. If `to` is a smart contract, will call `onERC1155BatchReceived` on `to` and act appropriately.",
        "params": {
          "data": "Data forwarded to `onERC1155Received` if `to` is a contract receiver",
          "from": "Source address",
          "ids": "IDs of each token type",
          "to": "Target address",
          "values": "Transfer amounts per token type"
        }
      },
      "safeTransferFrom(address,address,uint256,uint256,bytes)": {
        "details": "Transfers `value` amount of an `id` from the `from` address to the `to` address specified. Caller must be approved to manage the tokens being transferred out of the `from` account. If `to` is a smart contract, will call `onERC1155Received` on `to` and act appropriately.",
        "params": {
          "data": "Data forwarded to `onERC1155Received` if `to` is a contract receiver",
          "from": "Source address",
          "id": "ID of the token type",
          "to": "Target address",
          "value": "Transfer amount"
        }
      },
      "setApprovalForAll(address,bool)": {
        "details": "Sets or unsets the approval of a given operator. An operator is allowed to transfer all tokens of the sender on their behalf. Because an account already has operator privileges for itself, this function will revert if the account attempts to set the approval status for itself.",
        "params": {
          "approved": "representing the status of the approval to be set",
          "operator": "address to set the approval"
        }
      },
      "setProxyRegistryAddress(address[10])": {
        "details": "Function to update the operator whitelist",
        "params": {
          "proxyAddresses": "List of addresses"
        }
      },
      "supportsInterface(bytes4)": {
        "params": {
          "_interfaceID": "The interface identifier, as specified in ERC-165"
        },
        "returns": {
          "_0": "`true` if the contract implements `_interfaceID` and"
        }
      },
      "transactionFees(address,uint256,uint256)": {
        "details": "Function to get the transaction price to transfer tokens.",
        "params": {
          "account": "the address from where to transfer the tokens",
          "id": "The token ID",
          "value": "The amount to transfer"
        },
        "returns": {
          "_0": "transfer price"
        }
      },
      "transferOwnership(address)": {
        "details": "Transfers ownership of the contract to a new account (`newOwner`). Can only be called by the current owner."
      },
      "updateToken(uint256,uint256,uint256[3],address[],uint256[],uint256,bool,address)": {
        "details": "Function to update a token with the given ID.",
        "params": {
          "feesRecipients": "list of addresses receiving transfer fees",
          "feesRecipientsPercentage": "list of percentage, each one for the corresponding feesRecipients",
          "id": "ID of the token to be updated",
          "isPrivate": "true if holder need approval",
          "legalAuthority": "address of the legal authority",
          "metadataHash": "Metadata file hash",
          "minHoldingForCallback": "minimum holding to propose a callback",
          "transactionFees": "transaction fees: [lumpSumFees (in WEI), valueProportionalFees (ratio of transfered amount * 10**8), storageFees (in storageCredit * 10**8)]"
        }
      },
      "uri(uint256)": {
        "params": {
          "id": "Token ID"
        },
        "returns": {
          "_0": "URI string"
        }
      }
    },
    "version": 1
  },
  "userdoc": {
    "kind": "user",
    "methods": {
      "isApprovedForAll(address,address)": {
        "notice": "Queries the approval status of an operator for a given account."
      },
      "isTrustedForwarder(address)": {
        "notice": "return if the forwarder is trusted to forward relayed transactions to us. the forwarder is required to verify the sender's signature, and verify the call is not a replay."
      },
      "supportsInterface(bytes4)": {
        "notice": "Query if a contract implements an interface"
      }
    },
    "version": 1
  }
}