{
  "contractName": "Maintenable",
  "abi": [
    {
      "anonymous": false,
      "inputs": [
        {
          "indexed": true,
          "internalType": "address",
          "name": "_owner",
          "type": "address"
        },
        {
          "indexed": true,
          "internalType": "address",
          "name": "_operator",
          "type": "address"
        },
        {
          "indexed": false,
          "internalType": "bool",
          "name": "_approved",
          "type": "bool"
        }
      ],
      "name": "ApprovalForAll",
      "type": "event"
    },
    {
      "anonymous": false,
      "inputs": [
        {
          "indexed": true,
          "internalType": "address",
          "name": "previousOwner",
          "type": "address"
        },
        {
          "indexed": true,
          "internalType": "address",
          "name": "newOwner",
          "type": "address"
        }
      ],
      "name": "OwnershipTransferred",
      "type": "event"
    },
    {
      "anonymous": false,
      "inputs": [
        {
          "indexed": true,
          "internalType": "uint256",
          "name": "_id",
          "type": "uint256"
        },
        {
          "indexed": false,
          "internalType": "uint256",
          "name": "_documentHash",
          "type": "uint256"
        }
      ],
      "name": "TokenUpdated",
      "type": "event"
    },
    {
      "anonymous": false,
      "inputs": [
        {
          "indexed": true,
          "internalType": "address",
          "name": "_operator",
          "type": "address"
        },
        {
          "indexed": true,
          "internalType": "address",
          "name": "_from",
          "type": "address"
        },
        {
          "indexed": true,
          "internalType": "address",
          "name": "_to",
          "type": "address"
        },
        {
          "indexed": false,
          "internalType": "uint256[]",
          "name": "_ids",
          "type": "uint256[]"
        },
        {
          "indexed": false,
          "internalType": "uint256[]",
          "name": "_values",
          "type": "uint256[]"
        }
      ],
      "name": "TransferBatch",
      "type": "event"
    },
    {
      "anonymous": false,
      "inputs": [
        {
          "indexed": true,
          "internalType": "address",
          "name": "_operator",
          "type": "address"
        },
        {
          "indexed": true,
          "internalType": "address",
          "name": "_from",
          "type": "address"
        },
        {
          "indexed": true,
          "internalType": "address",
          "name": "_to",
          "type": "address"
        },
        {
          "indexed": false,
          "internalType": "uint256",
          "name": "_id",
          "type": "uint256"
        },
        {
          "indexed": false,
          "internalType": "uint256",
          "name": "_value",
          "type": "uint256"
        }
      ],
      "name": "TransferSingle",
      "type": "event"
    },
    {
      "anonymous": false,
      "inputs": [
        {
          "indexed": false,
          "internalType": "string",
          "name": "_value",
          "type": "string"
        },
        {
          "indexed": true,
          "internalType": "uint256",
          "name": "_id",
          "type": "uint256"
        }
      ],
      "name": "URI",
      "type": "event"
    },
    {
      "inputs": [
        {
          "internalType": "uint256",
          "name": "",
          "type": "uint256"
        }
      ],
      "name": "_callbacks",
      "outputs": [
        {
          "internalType": "uint256",
          "name": "tokenId",
          "type": "uint256"
        },
        {
          "internalType": "uint256",
          "name": "price",
          "type": "uint256"
        },
        {
          "internalType": "uint256",
          "name": "escrowedAmount",
          "type": "uint256"
        },
        {
          "internalType": "uint256",
          "name": "callCounter",
          "type": "uint256"
        },
        {
          "internalType": "uint256",
          "name": "documentHash",
          "type": "uint256"
        },
        {
          "internalType": "address",
          "name": "caller",
          "type": "address"
        },
        {
          "internalType": "bool",
          "name": "needLegalApproval",
          "type": "bool"
        },
        {
          "internalType": "bool",
          "name": "approvedByLegal",
          "type": "bool"
        },
        {
          "internalType": "bool",
          "name": "refused",
          "type": "bool"
        },
        {
          "internalType": "bool",
          "name": "accepted",
          "type": "bool"
        },
        {
          "internalType": "bool",
          "name": "completed",
          "type": "bool"
        }
      ],
      "stateMutability": "view",
      "type": "function"
    },
    {
      "inputs": [],
      "name": "_config",
      "outputs": [
        {
          "internalType": "uint256",
          "name": "callbackAutoExecuteMaxAddresses",
          "type": "uint256"
        },
        {
          "internalType": "string",
          "name": "baseURI",
          "type": "string"
        },
        {
          "internalType": "address",
          "name": "owner",
          "type": "address"
        }
      ],
      "stateMutability": "view",
      "type": "function"
    },
    {
      "inputs": [
        {
          "internalType": "uint256",
          "name": "",
          "type": "uint256"
        }
      ],
      "name": "_tokens",
      "outputs": [
        {
          "internalType": "uint256",
          "name": "supply",
          "type": "uint256"
        },
        {
          "internalType": "uint256",
          "name": "decimals",
          "type": "uint256"
        },
        {
          "internalType": "uint256",
          "name": "lumpSumTransactionFees",
          "type": "uint256"
        },
        {
          "internalType": "uint256",
          "name": "valueTransactionFees",
          "type": "uint256"
        },
        {
          "internalType": "uint256",
          "name": "minHoldingForCallback",
          "type": "uint256"
        },
        {
          "internalType": "uint256",
          "name": "metadataHash",
          "type": "uint256"
        },
        {
          "internalType": "address",
          "name": "legalAuthority",
          "type": "address"
        },
        {
          "internalType": "bool",
          "name": "isPrivate",
          "type": "bool"
        },
        {
          "internalType": "bool",
          "name": "locked",
          "type": "bool"
        }
      ],
      "stateMutability": "view",
      "type": "function"
    },
    {
      "inputs": [
        {
          "internalType": "address",
          "name": "",
          "type": "address"
        }
      ],
      "name": "_users",
      "outputs": [
        {
          "internalType": "bool",
          "name": "isTokenizer",
          "type": "bool"
        },
        {
          "internalType": "bool",
          "name": "isLocked",
          "type": "bool"
        },
        {
          "internalType": "uint256",
          "name": "ETHBalance",
          "type": "uint256"
        }
      ],
      "stateMutability": "view",
      "type": "function"
    },
    {
      "inputs": [
        {
          "internalType": "address",
          "name": "tokenizer",
          "type": "address"
        }
      ],
      "name": "authorizeTokenizer",
      "outputs": [],
      "stateMutability": "nonpayable",
      "type": "function"
    },
    {
      "inputs": [
        {
          "internalType": "address",
          "name": "account",
          "type": "address"
        },
        {
          "internalType": "uint256",
          "name": "id",
          "type": "uint256"
        }
      ],
      "name": "averageAge",
      "outputs": [
        {
          "internalType": "uint256",
          "name": "",
          "type": "uint256"
        }
      ],
      "stateMutability": "view",
      "type": "function"
    },
    {
      "inputs": [
        {
          "internalType": "address",
          "name": "account",
          "type": "address"
        },
        {
          "internalType": "uint256",
          "name": "id",
          "type": "uint256"
        }
      ],
      "name": "balanceOf",
      "outputs": [
        {
          "internalType": "uint256",
          "name": "",
          "type": "uint256"
        }
      ],
      "stateMutability": "view",
      "type": "function"
    },
    {
      "inputs": [
        {
          "internalType": "address[]",
          "name": "accounts",
          "type": "address[]"
        },
        {
          "internalType": "uint256[]",
          "name": "ids",
          "type": "uint256[]"
        }
      ],
      "name": "balanceOfBatch",
      "outputs": [
        {
          "internalType": "uint256[]",
          "name": "",
          "type": "uint256[]"
        }
      ],
      "stateMutability": "view",
      "type": "function"
    },
    {
      "inputs": [
        {
          "internalType": "uint256",
          "name": "id",
          "type": "uint256"
        },
        {
          "internalType": "uint256[]",
          "name": "ids",
          "type": "uint256[]"
        },
        {
          "internalType": "uint256[]",
          "name": "metadataHashes",
          "type": "uint256[]"
        }
      ],
      "name": "cloneToken",
      "outputs": [],
      "stateMutability": "nonpayable",
      "type": "function"
    },
    {
      "inputs": [
        {
          "internalType": "address",
          "name": "recipient",
          "type": "address"
        },
        {
          "internalType": "uint256",
          "name": "id",
          "type": "uint256"
        },
        {
          "internalType": "uint256",
          "name": "supply",
          "type": "uint256"
        },
        {
          "internalType": "uint256",
          "name": "decimals",
          "type": "uint256"
        },
        {
          "internalType": "uint256",
          "name": "metadataHash",
          "type": "uint256"
        },
        {
          "internalType": "uint256[3]",
          "name": "transactionFees",
          "type": "uint256[3]"
        },
        {
          "internalType": "address[]",
          "name": "feesRecipients",
          "type": "address[]"
        },
        {
          "internalType": "uint256[]",
          "name": "feesRecipientsPercentage",
          "type": "uint256[]"
        },
        {
          "internalType": "uint256",
          "name": "minHoldingForCallback",
          "type": "uint256"
        },
        {
          "internalType": "bool",
          "name": "isPrivate",
          "type": "bool"
        },
        {
          "internalType": "address",
          "name": "legalAuthority",
          "type": "address"
        }
      ],
      "name": "createToken",
      "outputs": [],
      "stateMutability": "nonpayable",
      "type": "function"
    },
    {
      "inputs": [
        {
          "internalType": "address",
          "name": "account",
          "type": "address"
        },
        {
          "internalType": "address",
          "name": "operator",
          "type": "address"
        }
      ],
      "name": "isApprovedForAll",
      "outputs": [
        {
          "internalType": "bool",
          "name": "",
          "type": "bool"
        }
      ],
      "stateMutability": "view",
      "type": "function"
    },
    {
      "inputs": [
        {
          "internalType": "address",
          "name": "tokenizer",
          "type": "address"
        }
      ],
      "name": "isTokenizer",
      "outputs": [
        {
          "internalType": "bool",
          "name": "",
          "type": "bool"
        }
      ],
      "stateMutability": "view",
      "type": "function"
    },
    {
      "inputs": [],
      "name": "owner",
      "outputs": [
        {
          "internalType": "address",
          "name": "",
          "type": "address"
        }
      ],
      "stateMutability": "view",
      "type": "function"
    },
    {
      "inputs": [
        {
          "internalType": "address",
          "name": "tokenizer",
          "type": "address"
        }
      ],
      "name": "revokeTokenizer",
      "outputs": [],
      "stateMutability": "nonpayable",
      "type": "function"
    },
    {
      "inputs": [
        {
          "internalType": "address",
          "name": "from",
          "type": "address"
        },
        {
          "internalType": "address",
          "name": "to",
          "type": "address"
        },
        {
          "internalType": "uint256[]",
          "name": "ids",
          "type": "uint256[]"
        },
        {
          "internalType": "uint256[]",
          "name": "values",
          "type": "uint256[]"
        },
        {
          "internalType": "bytes",
          "name": "data",
          "type": "bytes"
        }
      ],
      "name": "safeBatchTransferFrom",
      "outputs": [],
      "stateMutability": "payable",
      "type": "function"
    },
    {
      "inputs": [
        {
          "internalType": "address",
          "name": "from",
          "type": "address"
        },
        {
          "internalType": "address",
          "name": "to",
          "type": "address"
        },
        {
          "internalType": "uint256",
          "name": "id",
          "type": "uint256"
        },
        {
          "internalType": "uint256",
          "name": "value",
          "type": "uint256"
        },
        {
          "internalType": "bytes",
          "name": "data",
          "type": "bytes"
        }
      ],
      "name": "safeTransferFrom",
      "outputs": [],
      "stateMutability": "payable",
      "type": "function"
    },
    {
      "inputs": [
        {
          "internalType": "address",
          "name": "operator",
          "type": "address"
        },
        {
          "internalType": "bool",
          "name": "approved",
          "type": "bool"
        }
      ],
      "name": "setApprovalForAll",
      "outputs": [],
      "stateMutability": "nonpayable",
      "type": "function"
    },
    {
      "inputs": [
        {
          "internalType": "address[10]",
          "name": "proxyAddresses",
          "type": "address[10]"
        }
      ],
      "name": "setProxyRegistryAddress",
      "outputs": [],
      "stateMutability": "nonpayable",
      "type": "function"
    },
    {
      "inputs": [
        {
          "internalType": "bytes4",
          "name": "_interfaceID",
          "type": "bytes4"
        }
      ],
      "name": "supportsInterface",
      "outputs": [
        {
          "internalType": "bool",
          "name": "",
          "type": "bool"
        }
      ],
      "stateMutability": "pure",
      "type": "function"
    },
    {
      "inputs": [
        {
          "internalType": "address",
          "name": "account",
          "type": "address"
        },
        {
          "internalType": "uint256",
          "name": "id",
          "type": "uint256"
        },
        {
          "internalType": "uint256",
          "name": "value",
          "type": "uint256"
        }
      ],
      "name": "transactionFees",
      "outputs": [
        {
          "internalType": "uint256",
          "name": "",
          "type": "uint256"
        }
      ],
      "stateMutability": "view",
      "type": "function"
    },
    {
      "inputs": [
        {
          "internalType": "address",
          "name": "newOwner",
          "type": "address"
        }
      ],
      "name": "transferOwnership",
      "outputs": [],
      "stateMutability": "nonpayable",
      "type": "function"
    },
    {
      "inputs": [
        {
          "internalType": "uint256",
          "name": "id",
          "type": "uint256"
        }
      ],
      "name": "uri",
      "outputs": [
        {
          "internalType": "string",
          "name": "",
          "type": "string"
        }
      ],
      "stateMutability": "view",
      "type": "function"
    },
    {
      "inputs": [
        {
          "internalType": "uint256",
          "name": "id",
          "type": "uint256"
        },
        {
          "internalType": "address",
          "name": "maintener",
          "type": "address"
        }
      ],
      "name": "authorizeMaintener",
      "outputs": [],
      "stateMutability": "nonpayable",
      "type": "function"
    },
    {
      "inputs": [
        {
          "internalType": "uint256",
          "name": "id",
          "type": "uint256"
        },
        {
          "internalType": "address",
          "name": "maintener",
          "type": "address"
        }
      ],
      "name": "revokeMaintener",
      "outputs": [],
      "stateMutability": "nonpayable",
      "type": "function"
    },
    {
      "inputs": [
        {
          "internalType": "uint256",
          "name": "id",
          "type": "uint256"
        },
        {
          "internalType": "address",
          "name": "maintener",
          "type": "address"
        }
      ],
      "name": "isMaintener",
      "outputs": [
        {
          "internalType": "bool",
          "name": "",
          "type": "bool"
        }
      ],
      "stateMutability": "view",
      "type": "function"
    },
    {
      "inputs": [
        {
          "internalType": "uint256",
          "name": "id",
          "type": "uint256"
        },
        {
          "internalType": "uint256",
          "name": "metadataHash",
          "type": "uint256"
        },
        {
          "internalType": "uint256[3]",
          "name": "transactionFees",
          "type": "uint256[3]"
        },
        {
          "internalType": "address[]",
          "name": "feesRecipients",
          "type": "address[]"
        },
        {
          "internalType": "uint256[]",
          "name": "feesRecipientsPercentage",
          "type": "uint256[]"
        },
        {
          "internalType": "uint256",
          "name": "minHoldingForCallback",
          "type": "uint256"
        },
        {
          "internalType": "bool",
          "name": "isPrivate",
          "type": "bool"
        },
        {
          "internalType": "address",
          "name": "legalAuthority",
          "type": "address"
        }
      ],
      "name": "updateToken",
      "outputs": [],
      "stateMutability": "nonpayable",
      "type": "function"
    }
  ],
  "bytecode": "0x60806040523480156200001157600080fd5b506200001d3362000023565b620000e0565b6001600160a01b03811662000084576040517f08c379a00000000000000000000000000000000000000000000000000000000081526004018080602001828103825260268152602001806200391b6026913960400191505060405180910390fd5b600c546040516001600160a01b038084169216907f8be0079c531659141344cd1fd0a4f28419497f9722a3daafe3b4186f6b6457e090600090a3600c80546001600160a01b0319166001600160a01b0392909216919091179055565b61382b80620000f06000396000f3fe6080604052600436106101805760003560e01c80638870147b116100d1578063d1660e181161008a578063ed70554d11610064578063ed70554d14610ccc578063f242432a14610d4a578063f2fde38b14610ddd578063f8a5a07c14610e1057610180565b8063d1660e1814610c19578063d41d0aa314610c58578063e985e9c514610c9157610180565b80638870147b146109715780638aeba37e146109a45780638da5cb5b146109dd578063a22cb46514610a0e578063c02f303c14610a49578063c40b87ae14610a7c57610180565b8063414ed0ce1161013e5780634e1273f4116101185780634e1273f41461074c578063585941d5146108cc5780635dafec1b146109055780637627b7321461093e57610180565b8063414ed0ce146104d75780634392e577146105695780634ab0d253146105ca57610180565b8062fdd58e1461018557806301ffc9a7146101d05780630e89341c146102185780632eb2c2d6146102b75780632ed42bf7146103e05780633cacd7d614610484575b600080fd5b34801561019157600080fd5b506101be600480360360408110156101a857600080fd5b506001600160a01b038135169060200135610f47565b60408051918252519081900360200190f35b3480156101dc57600080fd5b50610204600480360360208110156101f357600080fd5b50356001600160e01b031916610fbc565b604080519115158252519081900360200190f35b34801561022457600080fd5b506102426004803603602081101561023b57600080fd5b5035611003565b6040805160208082528351818301528351919283929083019185019080838360005b8381101561027c578181015183820152602001610264565b50505050905090810190601f1680156102a95780820380516001836020036101000a031916815260200191505b509250505060405180910390f35b6103de600480360360a08110156102cd57600080fd5b6001600160a01b038235811692602081013590911691810190606081016040820135600160201b81111561030057600080fd5b82018360208201111561031257600080fd5b803590602001918460208302840111600160201b8311171561033357600080fd5b919390929091602081019035600160201b81111561035057600080fd5b82018360208201111561036257600080fd5b803590602001918460208302840111600160201b8311171561038357600080fd5b919390929091602081019035600160201b8111156103a057600080fd5b8201836020820111156103b257600080fd5b803590602001918460018302840111600160201b831117156103d357600080fd5b5090925090506110a4565b005b3480156103ec57600080fd5b506103f5611352565b6040518084815260200180602001836001600160a01b03168152602001828103825284818151815260200191508051906020019080838360005b8381101561044757818101518382015260200161042f565b50505050905090810190601f1680156104745780820380516001836020036101000a031916815260200191505b5094505050505060405180910390f35b34801561049057600080fd5b506104b7600480360360208110156104a757600080fd5b50356001600160a01b03166113f7565b604080519315158452911515602084015282820152519081900360600190f35b3480156104e357600080fd5b50610501600480360360208110156104fa57600080fd5b503561141d565b604080519b8c5260208c019a909a528a8a019890985260608a019690965260808901949094526001600160a01b0390921660a0880152151560c0870152151560e086015215156101008501521515610120840152151561014083015251908190036101600190f35b34801561057557600080fd5b506103de600480360361014081101561058d57600080fd5b81019080806101400190600a806020026040519081016040528092919082600a602002808284376000920191909152509194506114909350505050565b3480156105d657600080fd5b506103de60048036036101408110156105ee57600080fd5b6040805160608181018352843594602081013594810193909260a08401929091840190600390839083908082843760009201919091525091949392602081019250359050600160201b81111561064357600080fd5b82018360208201111561065557600080fd5b803590602001918460208302840111600160201b8311171561067657600080fd5b9190808060200260200160405190810160405280939291908181526020018383602002808284376000920191909152509295949360208101935035915050600160201b8111156106c557600080fd5b8201836020820111156106d757600080fd5b803590602001918460208302840111600160201b831117156106f857600080fd5b919080806020026020016040519081016040528093929190818152602001838360200280828437600092019190915250929550508235935050506020810135151590604001356001600160a01b03166114e8565b34801561075857600080fd5b5061087c6004803603604081101561076f57600080fd5b810190602081018135600160201b81111561078957600080fd5b82018360208201111561079b57600080fd5b803590602001918460208302840111600160201b831117156107bc57600080fd5b9190808060200260200160405190810160405280939291908181526020018383602002808284376000920191909152509295949360208101935035915050600160201b81111561080b57600080fd5b82018360208201111561081d57600080fd5b803590602001918460208302840111600160201b8311171561083e57600080fd5b9190808060200260200160405190810160405280939291908181526020018383602002808284376000920191909152509295506115df945050505050565b60408051602080825283518183015283519192839290830191858101910280838360005b838110156108b85781810151838201526020016108a0565b505050509050019250505060405180910390f35b3480156108d857600080fd5b506101be600480360360408110156108ef57600080fd5b506001600160a01b038135169060200135611763565b34801561091157600080fd5b506102046004803603604081101561092857600080fd5b50803590602001356001600160a01b031661179e565b34801561094a57600080fd5b506103de6004803603602081101561096157600080fd5b50356001600160a01b03166117aa565b34801561097d57600080fd5b506103de6004803603602081101561099457600080fd5b50356001600160a01b0316611815565b3480156109b057600080fd5b506103de600480360360408110156109c757600080fd5b50803590602001356001600160a01b031661187d565b3480156109e957600080fd5b506109f26118fb565b604080516001600160a01b039092168252519081900360200190f35b348015610a1a57600080fd5b506103de60048036036040811015610a3157600080fd5b506001600160a01b038135169060200135151561190a565b348015610a5557600080fd5b5061020460048036036020811015610a6c57600080fd5b50356001600160a01b03166119c4565b348015610a8857600080fd5b506103de60048036036101a0811015610aa057600080fd5b60408051606081810183526001600160a01b03853516946020810135949381013593828201359360808301359391830192916101008301919060a0840190600390839083908082843760009201919091525091949392602081019250359050600160201b811115610b1057600080fd5b820183602082011115610b2257600080fd5b803590602001918460208302840111600160201b83111715610b4357600080fd5b9190808060200260200160405190810160405280939291908181526020018383602002808284376000920191909152509295949360208101935035915050600160201b811115610b9257600080fd5b820183602082011115610ba457600080fd5b803590602001918460208302840111600160201b83111715610bc557600080fd5b919080806020026020016040519081016040528093929190818152602001838360200280828437600092019190915250929550508235935050506020810135151590604001356001600160a01b03166119cf565b348015610c2557600080fd5b506101be60048036036060811015610c3c57600080fd5b506001600160a01b038135169060208101359060400135611a8e565b348015610c6457600080fd5b506103de60048036036040811015610c7b57600080fd5b50803590602001356001600160a01b0316611aa3565b348015610c9d57600080fd5b5061020460048036036040811015610cb457600080fd5b506001600160a01b0381358116916020013516611b1e565b348015610cd857600080fd5b50610cf660048036036020811015610cef57600080fd5b5035611b2a565b60408051998a5260208a0198909852888801969096526060880194909452608087019290925260a08601526001600160a01b031660c0850152151560e0840152151561010083015251908190036101200190f35b6103de600480360360a0811015610d6057600080fd5b6001600160a01b03823581169260208101359091169160408201359160608101359181019060a081016080820135600160201b811115610d9f57600080fd5b820183602082011115610db157600080fd5b803590602001918460018302840111600160201b83111715610dd257600080fd5b509092509050611b86565b348015610de957600080fd5b506103de60048036036020811015610e0057600080fd5b50356001600160a01b0316611cdd565b348015610e1c57600080fd5b506103de60048036036060811015610e3357600080fd5b81359190810190604081016020820135600160201b811115610e5457600080fd5b820183602082011115610e6657600080fd5b803590602001918460208302840111600160201b83111715610e8757600080fd5b9190808060200260200160405190810160405280939291908181526020018383602002808284376000920191909152509295949360208101935035915050600160201b811115610ed657600080fd5b820183602082011115610ee857600080fd5b803590602001918460208302840111600160201b83111715610f0957600080fd5b919080806020026020016040519081016040528093929190818152602001838360200280828437600092019190915250929550611d30945050505050565b60006001600160a01b038316610f8e5760405162461bcd60e51b815260040180806020018281038252602b8152602001806135e0602b913960400191505060405180910390fd5b506000818152600e602090815260408083206001600160a01b03861684526007019091529020545b92915050565b60006001600160e01b031982166301ffc9a760e01b1480610fed57506001600160e01b03198216636cdb3d1360e11b145b15610ffa57506001610ffe565b5060005b919050565b60018054604080516020600284861615610100026000190190941693909304601f8101849004840282018401909252818152606093610fb693919290918301828280156110915780601f1061106657610100808354040283529160200191611091565b820191906000526020600020905b81548152906001019060200180831161107457829003601f168201915b505050505061109f84611ed3565b611f8f565b8483146110e25760405162461bcd60e51b815260040180806020018281038252602e815260200180613797602e913960400191505060405180910390fd5b6001600160a01b0387166111275760405162461bcd60e51b81526004018080602001828103825260288152602001806136316028913960400191505060405180910390fd5b6001600160a01b03881633148061114957506111438833611b1e565b15156001145b6111845760405162461bcd60e51b81526004018080602001828103825260378152602001806137606037913960400191505060405180910390fd5b6111f3888888888080602002602001604051908101604052809392919081815260200183836020028082843760009201919091525050604080516020808c0282810182019093528b82529093508b92508a91829185019084908082843760009201919091525061209992505050565b866001600160a01b0316886001600160a01b0316336001600160a01b03167f4a39dc06d4c0dbc64b70af90fd698a233a518aa5d07e595d983b8c0526c8f7fb898989896040518080602001806020018381038352878782818152602001925060200280828437600083820152601f01601f19169091018481038352858152602090810191508690860280828437600083820152604051601f909101601f19169092018290039850909650505050505050a461134833898989898080602002602001604051908101604052809392919081815260200183836020028082843760009201919091525050604080516020808d0282810182019093528c82529093508c92508b91829185019084908082843760009201919091525050604080516020601f8c018190048102820181019092528a815292508a915089908190840183828082843760009201919091525061215392505050565b5050505050505050565b6000805460018054604080516020600284861615610100026000190190941693909304601f810184900484028201840190925281815293949392918301828280156113de5780601f106113b3576101008083540402835291602001916113de565b820191906000526020600020905b8154815290600101906020018083116113c157829003601f168201915b505050600c90930154919250506001600160a01b031683565b600d602052600090815260409020805460019091015460ff808316926101009004169083565b600f6020526000908152604090208054600182015460028301546003840154600485015460059095015493949293919290916001600160a01b0381169060ff600160a01b8204811691600160a81b8104821691600160b01b8204811691600160b81b8104821691600160c01b909104168b565b611498612344565b6114d7576040805162461bcd60e51b81526020600482018190526024820152600080516020613740833981519152604482015290519081900360640190fd5b6114e4600282600a61348b565b5050565b876114f38133612355565b61153e576040805162461bcd60e51b815260206004820152601760248201527624b739bab33334b1b4b2b73a103832b936b4b9b9b4b7b760491b604482015290519081900360640190fd5b6000898152600e602052604090205461158e576040805162461bcd60e51b815260206004820152600d60248201526c2ab735b737bbb7103a37b5b2b760991b604482015290519081900360640190fd5b61159e898989898989898961238f565b6040805189815290518a917f199acc06cd2556bbc146fa3cb578799037dffcbf256eca32aaf2ef656925d2fd919081900360200190a2505050505050505050565b606081518351146116215760405162461bcd60e51b81526004018080602001828103825260308152602001806136856030913960400191505060405180910390fd5b6060835167ffffffffffffffff8111801561163b57600080fd5b50604051908082528060200260200182016040528015611665578160200160208202803683370190505b50905060005b845181101561175b5760006001600160a01b031685828151811061168b57fe5b60200260200101516001600160a01b031614156116d95760405162461bcd60e51b81526004018080602001828103825260348152602001806136eb6034913960400191505060405180910390fd5b600e60008583815181106116e957fe5b60200260200101518152602001908152602001600020600701600086838151811061171057fe5b60200260200101516001600160a01b03166001600160a01b031681526020019081526020016000206000015482828151811061174857fe5b602090810291909101015260010161166b565b509392505050565b6000818152600e602090815260408083206001600160a01b0386168452600701909152812060010154611797904290612533565b9392505050565b60006117978383612355565b6117b2612344565b6117f1576040805162461bcd60e51b81526020600482018190526024820152600080516020613740833981519152604482015290519081900360640190fd5b6001600160a01b03166000908152600d60205260409020805460ff19166001179055565b61181d612344565b61185c576040805162461bcd60e51b81526020600482018190526024820152600080516020613740833981519152604482015290519081900360640190fd5b6001600160a01b03166000908152600d60205260409020805460ff19169055565b611885612344565b6118c4576040805162461bcd60e51b81526020600482018190526024820152600080516020613740833981519152604482015290519081900360640190fd5b6000918252600e602090815260408084206001600160a01b039093168452600790920190529020600201805460ff19166001179055565b600c546001600160a01b031690565b336001600160a01b03831614156119525760405162461bcd60e51b815260040180806020018281038252602c815260200180613659602c913960400191505060405180910390fd5b336000818152600d602090815260408083206001600160a01b0387168085526003909101835292819020805460ff1916861515908117909155815190815290519293927f17307eab39ab6107e8899845ad3d59bd9653f200f220920489ca2b5937696c31929181900390910190a35050565b6000610fb682612575565b6119d833612575565b611a23576040805162461bcd60e51b815260206004820152601760248201527624b739bab33334b1b4b2b73a103832b936b4b9b9b4b7b760491b604482015290519081900360640190fd5b611a368b8b8b8b8b8b8b8b8b8b8b61259f565b604080518b8152602081018b905281516001600160a01b038e169260009233927fc3d58168c5ae7397731d063d5bbf3d657854427343f4c083240f7aacaa2d0f62929181900390910190a45050505050505050505050565b6000611a9b848484612708565b949350505050565b611aab612344565b611aea576040805162461bcd60e51b81526020600482018190526024820152600080516020613740833981519152604482015290519081900360640190fd5b6000918252600e602090815260408084206001600160a01b039093168452600790920190529020600201805460ff19169055565b600061179783836128f0565b600e60205260009081526040902080546001820154600283015460038401546004850154600586015460069096015494959394929391929091906001600160a01b0381169060ff600160a01b8204811691600160a81b90041689565b6001600160a01b038516611bcb5760405162461bcd60e51b81526004018080602001828103825260288152602001806136316028913960400191505060405180910390fd5b6001600160a01b038616331480611bed5750611be78633611b1e565b15156001145b611c285760405162461bcd60e51b81526004018080602001828103825260378152602001806137606037913960400191505060405180910390fd5b611c3486868686612935565b846001600160a01b0316866001600160a01b0316336001600160a01b03167fc3d58168c5ae7397731d063d5bbf3d657854427343f4c083240f7aacaa2d0f628787604051808381526020018281526020019250505060405180910390a4611cd5338787878787878080601f0160208091040260200160405190810160405280939291908181526020018383808284376000920191909152506129ad92505050565b505050505050565b611ce5612344565b611d24576040805162461bcd60e51b81526020600482018190526024820152600080516020613740833981519152604482015290519081900360640190fd5b611d2d81612b22565b50565b611d3933612575565b611d84576040805162461bcd60e51b815260206004820152601760248201527624b739bab33334b1b4b2b73a103832b936b4b9b9b4b7b760491b604482015290519081900360640190fd5b6000838152600e602052604090205415801590611da2575080518251145b611de7576040805162461bcd60e51b8152602060048201526011602482015270496e76616c696420617267756d656e747360781b604482015290519081900360640190fd5b60005b8251811015611ecd57611e2484848381518110611e0357fe5b6020026020010151848481518110611e1757fe5b6020026020010151612bc3565b6000848152600e602052604081206008018054909190611e4057fe5b600091825260208220015484516001600160a01b03909116919033907fc3d58168c5ae7397731d063d5bbf3d657854427343f4c083240f7aacaa2d0f6290879086908110611e8a57fe5b6020026020010151600e60008a815260200190815260200160002060000154604051808381526020018281526020019250505060405180910390a4600101611dea565b50505050565b60606000825b8015611eef576001919091019060109004611ed9565b60608267ffffffffffffffff81118015611f0857600080fd5b506040519080825280601f01601f191660200182016040528015611f33576020820181803683370190505b50905060005b83811015611f8657601086069250611f5083612d65565b8260018387030381518110611f6157fe5b60200101906001600160f81b031916908160001a905350601086049550600101611f39565b50949350505050565b805182516060918491849184910167ffffffffffffffff81118015611fb357600080fd5b506040519080825280601f01601f191660200182016040528015611fde576020820181803683370190505b509050806000805b855181101561203757858181518110611ffb57fe5b602001015160f81c60f81b83838060010194508151811061201857fe5b60200101906001600160f81b031916908160001a905350600101611fe6565b5060005b845181101561208c5784818151811061205057fe5b602001015160f81c60f81b83838060010194508151811061206d57fe5b60200101906001600160f81b031916908160001a90535060010161203b565b5090979650505050505050565b60008034116120c3576001600160a01b0385166000908152600d60205260409020600101546120c5565b345b905060005b83518110156121415761213761210887878785815181106120e757fe5b60200260200101518786815181106120fb57fe5b6020026020010151612da9565b60408051808201909152601081526f092dce6eaccccd2c6d2cadce8408aa8960831b6020820152849190612efd565b91506001016120ca565b5061214c8582612f94565b5050505050565b612165846001600160a01b0316613015565b15611cd55763bc197c8160e01b6001600160e01b031916846001600160a01b031663bc197c8188888787876040518663ffffffff1660e01b815260040180866001600160a01b03168152602001856001600160a01b03168152602001806020018060200180602001848103845287818151815260200191508051906020019060200280838360005b838110156122055781810151838201526020016121ed565b50505050905001848103835286818151815260200191508051906020019060200280838360005b8381101561224457818101518382015260200161222c565b50505050905001848103825285818151815260200191508051906020019080838360005b83811015612280578181015183820152602001612268565b50505050905090810190601f1680156122ad5780820380516001836020036101000a031916815260200191505b5098505050505050505050602060405180830381600087803b1580156122d257600080fd5b505af11580156122e6573d6000803e3d6000fd5b505050506040513d60208110156122fc57600080fd5b50516001600160e01b03191614611cd55760405162461bcd60e51b81526004018080602001828103825260368152602001806136b56036913960400191505060405180910390fd5b600c546001600160a01b0316331490565b6000828152600e602090815260408083206001600160a01b038516845260070190915281206002015460ff16806117975750611797612344565b6000805b85518110156123bf578581815181106123a857fe5b602002602001015182019150806001019050612393565b50600086511180156123cf575060015b80156123dc575080612710145b80156123e9575061271084105b61242e576040805162461bcd60e51b8152602060048201526011602482015270496e76616c696420617267756d656e747360781b604482015290519081900360640190fd5b6000898152600e60209081526040808320600581018c90558a516002808301919091558b840151600383015582518084018452428152928c015183850152600b90910180546001810182559085529290932061248e9392830201916134e3565b506000898152600e6020908152604090912087516124b49260099092019189019061351d565b506000898152600e6020908152604090912086516124da92600a90920191880190613571565b50506000978852600e602052604090972060048101929092556006909101805460ff60a01b1916600160a01b92151592909202919091176001600160a01b0319166001600160a01b039096169590951790945550505050565b600061179783836040518060400160405280601e81526020017f536166654d6174683a207375627472616374696f6e206f766572666c6f770000815250612efd565b6001600160a01b0381166000908152600d602052604081205460ff1680610fb65750610fb6612344565b60008a8152600e60205260409020541580156125bb5750600089115b612600576040805162461bcd60e51b8152602060048201526011602482015270496e76616c696420617267756d656e747360781b604482015290519081900360640190fd5b88600e60008c81526020019081526020016000206000018190555087600e60008c8152602001908152602001600020600101819055506001600e60008c81526020019081526020016000206007016000336001600160a01b03166001600160a01b0316815260200190815260200160002060020160006101000a81548160ff0219169083151502179055506001600e60008c815260200190815260200160002060070160008d6001600160a01b03166001600160a01b0316815260200190815260200160002060020160026101000a81548160ff0219169083151502179055506126f08a8888888888888861238f565b6126fb8b8b8b61304c565b5050505050505050505050565b6000828152600e60205260408120600b015481904290600019015b6000868152600e60205260408120600b0180548390811061274057fe5b60009182526020822060029091020101546000888152600e60205260408120600b01805492935090918490811061277357fe5b906000526020600020906002020160016002811061278d57fe5b01546000898152600e602090815260408083206001600160a01b038e168452600701909152812060010154919250908311612830576000898152600e602090815260408083206001600160a01b038e1684526007019091529020600101546128059062015180906127ff908890612533565b9061324a565b905080612810575060015b6128248861281e838561328c565b9061328c565b8601955050505061286f565b612841620151806127ff8786612533565b90508061284c575060015b919350839161285f8861281e838561328c565b9095019450505060001901612723565b506000858152600e6020526040902060010154612890908390600a0a61324a565b6000868152600e6020526040812060030154919350906128bb906305f5e100906127ff90889061328c565b6000878152600e60205260409020600201549091506128e5906128de90836132e5565b84906132e5565b979650505050505050565b60006128fc838361333f565b806117975750506001600160a01b039182166000908152600d602090815260408083209390941682526003909201909152205460ff1690565b600080341161295f576001600160a01b0385166000908152600d6020526040902060010154612961565b345b90506129a161297286868686612da9565b60408051808201909152601081526f092dce6eaccccd2c6d2cadce8408aa8960831b6020820152839190612efd565b905061214c8582612f94565b6129bf846001600160a01b0316613015565b15611cd55763f23a6e6160e01b6001600160e01b031916846001600160a01b031663f23a6e6188888787876040518663ffffffff1660e01b815260040180866001600160a01b03168152602001856001600160a01b0316815260200184815260200183815260200180602001828103825283818151815260200191508051906020019080838360005b83811015612a60578181015183820152602001612a48565b50505050905090810190601f168015612a8d5780820380516001836020036101000a031916815260200191505b509650505050505050602060405180830381600087803b158015612ab057600080fd5b505af1158015612ac4573d6000803e3d6000fd5b505050506040513d6020811015612ada57600080fd5b50516001600160e01b03191614611cd55760405162461bcd60e51b81526004018080602001828103825260318152602001806137c56031913960400191505060405180910390fd5b6001600160a01b038116612b675760405162461bcd60e51b815260040180806020018281038252602681526020018061360b6026913960400191505060405180910390fd5b600c546040516001600160a01b038084169216907f8be0079c531659141344cd1fd0a4f28419497f9722a3daafe3b4186f6b6457e090600090a3600c80546001600160a01b0319166001600160a01b0392909216919091179055565b6000838152600e602052604081206008018054612d609290612be157fe5b6000918252602080832090910154868352600e8083526040808520805460018201548351606081018552600284015481526003840154818901528c895294909652600b90910180546001600160a01b03909516968a96929592948a949093908401929190612c4b57fe5b9060005260206000209060020201600160028110612c6557fe5b0154905260008a8152600e602090815260409182902060090180548351818402810184019094528084529091830182828015612cca57602002820191906000526020600020905b81546001600160a01b03168152600190910190602001808311612cac575b50505060008d8152600e6020908152604091829020600a0180548351818402810184019094528084529294509250830182828015612d2757602002820191906000526020600020905b815481526020019060010190808311612d13575b50505060008e8152600e60205260409020600481015460069091015490925060ff600160a01b82041691506001600160a01b031661259f565b505050565b600060098260ff1611612d7f57506030810160f81b610ffe565b8160ff16600a11158015612d975750600f8260ff1611155b1561018057506057810160f81b610ffe565b6040805180820182526014815273496e73756666696369656e742062616c616e636560601b6020808301919091526000858152600e82528381206001600160a01b038916825260070190915291822054612e04918490612efd565b6000848152600e602090815260408083206001600160a01b038a168452600701909152902055612e3584848461304c565b612e40858484612708565b905060005b6000848152600e6020526040902060090154811015611f86576000848152600e60205260408120600901805483908110612e7b57fe5b6000918252602080832090910154878352600e90915260408220600a0180546001600160a01b0390921693509084908110612eb257fe5b6000918252602090912001549050612ed06127106127ff868461328c565b6001600160a01b039092166000908152600d60205260409020600190810180549093019092555001612e45565b60008184841115612f8c5760405162461bcd60e51b81526004018080602001828103825283818151815260200191508051906020019080838360005b83811015612f51578181015183820152602001612f39565b50505050905090810190601f168015612f7e5780820380516001836020036101000a031916815260200191505b509250505060405180910390fd5b505050900390565b600034118015612fa45750600081115b15612ff0576001600160a01b0382166000908152600d6020526040902060010154612fcf90826132e5565b6001600160a01b0383166000908152600d60205260409020600101556114e4565b346114e4576001600160a01b03919091166000908152600d6020526040902060010155565b6000813f7fc5d2460186f7233c927e7db2dcc703c0e500b653ca82273b7bfad8045d85a4708115801590611a9b5750141592915050565b6000828152600e602090815260408083206001600160a01b038716845260070190915281205461307c90836132e5565b6000848152600e602090815260408083206001600160a01b0389168452600701909152902054909150613179576000838152600e602090815260408083206001600160a01b0388168452600701909152902060020154610100900460ff16613148576001600160a01b0384166000818152600d6020908152604080832060020180546001818101835591855283852001889055878452600e83529083206008810180549283018155845282842090910180546001600160a01b0319168517905592909152600790910190525b6000838152600e602090815260408083206001600160a01b038816845260070190915290204260019091015561321a565b6000838152600e602090815260408083206001600160a01b03881684526007019091528120600101546131ad904290612533565b6000858152600e602090815260408083206001600160a01b038a168452600701909152812054919250906131e79084906127ff908561328c565b6000868152600e602090815260408083206001600160a01b038b1684526007019091529020429190910360019091015550505b6000928352600e602090815260408085206001600160a01b03909616855260079095019052929091209190915550565b600061179783836040518060400160405280601a81526020017f536166654d6174683a206469766973696f6e206279207a65726f000000000000815250613426565b60008261329b57506000610fb6565b828202828482816132a857fe5b04146117975760405162461bcd60e51b815260040180806020018281038252602181526020018061371f6021913960400191505060405180910390fd5b600082820183811015611797576040805162461bcd60e51b815260206004820152601b60248201527f536166654d6174683a206164646974696f6e206f766572666c6f770000000000604482015290519081900360640190fd5b6000805b600a81101561341c576000600282600a811061335b57fe5b01546001600160a01b031614613414576000600282600a811061337a57fe5b01546040805163c455279160e01b81526001600160a01b0388811660048301529151928216935090861691839163c4552791916024808301926020929190829003018186803b1580156133cc57600080fd5b505afa1580156133e0573d6000803e3d6000fd5b505050506040513d60208110156133f657600080fd5b50516001600160a01b0316141561341257600192505050610fb6565b505b600101613343565b5060009392505050565b600081836134755760405162461bcd60e51b8152602060048201818152835160248401528351909283926044909101919085019080838360008315612f51578181015183820152602001612f39565b50600083858161348157fe5b0495945050505050565b82600a81019282156134d3579160200282015b828111156134d357825182546001600160a01b0319166001600160a01b0390911617825560209092019160019091019061349e565b506134df9291506135ab565b5090565b8260028101928215613511579160200282015b828111156135115782518255916020019190600101906134f6565b506134df9291506135ca565b8280548282559060005260206000209081019282156134d357916020028201828111156134d357825182546001600160a01b0319166001600160a01b0390911617825560209092019160019091019061349e565b82805482825590600052602060002090810192821561351157916020028201828111156135115782518255916020019190600101906134f6565b5b808211156134df5780546001600160a01b03191681556001016135ac565b5b808211156134df57600081556001016135cb56fe455243313135353a2062616c616e636520717565727920666f7220746865207a65726f20616464726573734f776e61626c653a206e6577206f776e657220697320746865207a65726f2061646472657373455243313135353a207461726765742061646472657373206d757374206265206e6f6e2d7a65726f455243313135353a2063616e6e6f742073657420617070726f76616c2073746174757320666f722073656c66455243313135353a206163636f756e747320616e6420494473206d75737420686176652073616d65206c656e67746873455243313135353a20676f7420756e6b6e6f776e2076616c75652066726f6d206f6e4552433131353542617463685265636569766564455243313135353a20736f6d65206164647265737320696e2062617463682062616c616e6365207175657279206973207a65726f536166654d6174683a206d756c7469706c69636174696f6e206f766572666c6f774f776e61626c653a2063616c6c6572206973206e6f7420746865206f776e6572455243313135353a206e656564206f70657261746f7220617070726f76616c20666f7220337264207061727479207472616e7366657273455243313135353a2049447320616e642076616c756573206d75737420686176652073616d65206c656e67746873455243313135353a20676f7420756e6b6e6f776e2076616c75652066726f6d206f6e455243313135355265636569766564a26469706673582212201825e6c181cdc6e16f2d1a0a01225e93aea6f82ced91dbd53e399c06423abf0164736f6c634300070100334f776e61626c653a206e6577206f776e657220697320746865207a65726f2061646472657373",
  "immutableReferences": {},
  "source": "// SPDX-License-Identifier: GPL-3.0-or-later\npragma solidity ^0.7.1;\n\nimport './Mintable.sol';\n\ncontract Maintenable is Mintable {\n\n\n    /****************************\n    EVENTS\n    *****************************/\n\n\n    event TokenUpdated(uint256 indexed _id, uint256 _documentHash);\n\n\n    /****************************\n    MODIFIERS\n    *****************************/\n\n\n    modifier onlyMaintener(uint256 id) {\n        require(_isMaintener(id, msg.sender), \"Insufficient permission\");\n        _;\n    }\n\n\n    /****************************\n    EXTERNAL FUNCTIONS\n    *****************************/\n\n\n    /**\n     * @dev Function to authorize an address to maintain a token.\n     * @param maintener The authorized address\n     */\n    function authorizeMaintener(uint256 id, address maintener) external onlyOwner {\n        _tokens[id].holders[maintener].isMaintener = true;\n    }\n\n    /**\n     * @dev Function to revoke the authorization to maintain a token.\n     * @param id the token id\n     * @param maintener The authorized address\n     */\n    function revokeMaintener(uint256 id, address maintener) external onlyOwner {\n        _tokens[id].holders[maintener].isMaintener = false;\n    }\n\n    /**\n     * @dev Function to check if an address is authorized to maintain a token.\n     * @param id the token id\n     * @param maintener The authorized address\n     * @return true if it's a maintener address\n     */\n    function isMaintener(uint256 id, address maintener) external view returns (bool) {\n        return _isMaintener(id, maintener);\n    }\n\n    /**\n     * @dev Function to update a token with the given ID.\n     * @param id ID of the token to be updated\n     * @param metadataHash Metadata file hash\n     * @param transactionFees transaction fees: [lumpSumFees (in WEI), valueProportionalFees (ratio of transfered amount * 10**8), storageFees (in storageCredit * 10**8)]\n     * @param feesRecipients list of addresses receiving transfer fees\n     * @param feesRecipientsPercentage list of percentage, each one for the corresponding feesRecipients\n     * @param minHoldingForCallback minimum holding to propose a callback\n     * @param isPrivate true if holder need approval\n     * @param legalAuthority address of the legal authority\n     */\n    function updateToken(uint256 id,\n                         uint256 metadataHash,\n                         uint256[3] memory transactionFees,\n                         address[] memory feesRecipients,\n                         uint256[] memory feesRecipientsPercentage,\n                         uint256 minHoldingForCallback,\n                         bool isPrivate,\n                         address legalAuthority) external onlyMaintener(id) {\n        require(_tokens[id].supply > 0, \"Unknown token\");\n\n        _setToken(id,\n                  metadataHash,\n                  transactionFees,\n                  feesRecipients,\n                  feesRecipientsPercentage,\n                  minHoldingForCallback,\n                  isPrivate,\n                  legalAuthority);\n\n        emit TokenUpdated(id, metadataHash);\n    }\n\n\n    /****************************\n    INTERNAL FUNCTIONS\n    *****************************/\n\n\n    function _isMaintener(uint256 id, address maintener) internal view returns (bool) {\n        return _tokens[id].holders[maintener].isMaintener || _isOwner();\n    }\n\n}\n",
  "sourcePath": "/home/ouziel/Work/StashBloxContracts/contracts/lib/Maintenable.sol",
  "compiler": {
    "name": "solc",
    "version": "0.7.1+commit.f4a555be.Emscripten.clang"
  },
  "schemaVersion": "3.2.3",
  "updatedAt": "2020-10-21T20:10:49.932Z",
  "devdoc": {
    "kind": "dev",
    "methods": {
      "authorizeMaintener(uint256,address)": {
        "details": "Function to authorize an address to maintain a token.",
        "params": {
          "maintener": "The authorized address"
        }
      },
      "authorizeTokenizer(address)": {
        "details": "Function to authorize an address to create a token.",
        "params": {
          "tokenizer": "The authorized address"
        }
      },
      "averageAge(address,uint256)": {
        "details": "Function to get the average age of the token for the given address.",
        "params": {
          "account": "the address from where to transfer the tokens",
          "id": "The token ID"
        },
        "returns": {
          "_0": "average age in seconds"
        }
      },
      "balanceOf(address,uint256)": {
        "details": "Get the specified address' balance for token with specified ID. Attempting to query the zero account for a balance will result in a revert.",
        "params": {
          "account": "The address of the token holder",
          "id": "ID of the token"
        },
        "returns": {
          "_0": "The account's balance of the token type requested"
        }
      },
      "balanceOfBatch(address[],uint256[])": {
        "details": "Get the balance of multiple account/token pairs. If any of the query accounts is the zero account, this query will revert.",
        "params": {
          "accounts": "The addresses of the token holders",
          "ids": "IDs of the tokens"
        },
        "returns": {
          "_0": "Balances for each account and token id pair"
        }
      },
      "cloneToken(uint256,uint256[],uint256[])": {
        "details": "Function to mint tokens in batch.",
        "params": {
          "id": "Identifier of the template",
          "ids": "list of IDs of the tokens to be minted",
          "metadataHashes": "list of metadata file hashes"
        }
      },
      "createToken(address,uint256,uint256,uint256,uint256,uint256[3],address[],uint256[],uint256,bool,address)": {
        "details": "Function to mint an amount of a token with the given ID.",
        "params": {
          "feesRecipients": "list of addresses receiving transfer fees",
          "feesRecipientsPercentage": "list of percentage, each one for the corresponding feesRecipients",
          "id": "ID of the token to be minted",
          "isPrivate": "true if holder need approval",
          "legalAuthority": "address of the legal authority",
          "metadataHash": "Metadata file hash",
          "minHoldingForCallback": "minimum holding to propose a callback",
          "recipient": "The address that will own the minted tokens",
          "supply": "Amount of the token to be minted",
          "transactionFees": "transaction fees: [lumpSumFees (in WEI), valueProportionalFees (ratio of transfered amount * 10**8), storageFees (in storageCredit * 10**8)]"
        }
      },
      "isApprovedForAll(address,address)": {
        "params": {
          "account": "The account of the Tokens",
          "operator": "Address of authorized operator"
        },
        "returns": {
          "_0": "True if the operator is approved, false if not"
        }
      },
      "isMaintener(uint256,address)": {
        "details": "Function to check if an address is authorized to maintain a token.",
        "params": {
          "id": "the token id",
          "maintener": "The authorized address"
        },
        "returns": {
          "_0": "true if it's a maintener address"
        }
      },
      "isTokenizer(address)": {
        "details": "Function to check if an address is authorized to create a token.",
        "params": {
          "tokenizer": "The authorized address"
        }
      },
      "owner()": {
        "details": "Returns the address of the current owner."
      },
      "revokeMaintener(uint256,address)": {
        "details": "Function to revoke the authorization to maintain a token.",
        "params": {
          "id": "the token id",
          "maintener": "The authorized address"
        }
      },
      "revokeTokenizer(address)": {
        "details": "Function to revoke the authorization to create a token.",
        "params": {
          "tokenizer": "The authorized address"
        }
      },
      "safeBatchTransferFrom(address,address,uint256[],uint256[],bytes)": {
        "details": "Transfers `values` amount(s) of `ids` from the `from` address to the `to` address specified. Caller must be approved to manage the tokens being transferred out of the `from` account. If `to` is a smart contract, will call `onERC1155BatchReceived` on `to` and act appropriately.",
        "params": {
          "data": "Data forwarded to `onERC1155Received` if `to` is a contract receiver",
          "from": "Source address",
          "ids": "IDs of each token type",
          "to": "Target address",
          "values": "Transfer amounts per token type"
        }
      },
      "safeTransferFrom(address,address,uint256,uint256,bytes)": {
        "details": "Transfers `value` amount of an `id` from the `from` address to the `to` address specified. Caller must be approved to manage the tokens being transferred out of the `from` account. If `to` is a smart contract, will call `onERC1155Received` on `to` and act appropriately.",
        "params": {
          "data": "Data forwarded to `onERC1155Received` if `to` is a contract receiver",
          "from": "Source address",
          "id": "ID of the token type",
          "to": "Target address",
          "value": "Transfer amount"
        }
      },
      "setApprovalForAll(address,bool)": {
        "details": "Sets or unsets the approval of a given operator. An operator is allowed to transfer all tokens of the sender on their behalf. Because an account already has operator privileges for itself, this function will revert if the account attempts to set the approval status for itself.",
        "params": {
          "approved": "representing the status of the approval to be set",
          "operator": "address to set the approval"
        }
      },
      "setProxyRegistryAddress(address[10])": {
        "details": "Function to update the operator whitelist",
        "params": {
          "proxyAddresses": "List of addresses"
        }
      },
      "supportsInterface(bytes4)": {
        "params": {
          "_interfaceID": "The interface identifier, as specified in ERC-165"
        },
        "returns": {
          "_0": "`true` if the contract implements `_interfaceID` and"
        }
      },
      "transactionFees(address,uint256,uint256)": {
        "details": "Function to get the transaction price to transfer tokens.",
        "params": {
          "account": "the address from where to transfer the tokens",
          "id": "The token ID",
          "value": "The amount to transfer"
        },
        "returns": {
          "_0": "transfer price"
        }
      },
      "transferOwnership(address)": {
        "details": "Transfers ownership of the contract to a new account (`newOwner`). Can only be called by the current owner."
      },
      "updateToken(uint256,uint256,uint256[3],address[],uint256[],uint256,bool,address)": {
        "details": "Function to update a token with the given ID.",
        "params": {
          "feesRecipients": "list of addresses receiving transfer fees",
          "feesRecipientsPercentage": "list of percentage, each one for the corresponding feesRecipients",
          "id": "ID of the token to be updated",
          "isPrivate": "true if holder need approval",
          "legalAuthority": "address of the legal authority",
          "metadataHash": "Metadata file hash",
          "minHoldingForCallback": "minimum holding to propose a callback",
          "transactionFees": "transaction fees: [lumpSumFees (in WEI), valueProportionalFees (ratio of transfered amount * 10**8), storageFees (in storageCredit * 10**8)]"
        }
      },
      "uri(uint256)": {
        "params": {
          "id": "Token ID"
        },
        "returns": {
          "_0": "URI string"
        }
      }
    },
    "version": 1
  },
  "userdoc": {
    "kind": "user",
    "methods": {
      "isApprovedForAll(address,address)": {
        "notice": "Queries the approval status of an operator for a given account."
      },
      "supportsInterface(bytes4)": {
        "notice": "Query if a contract implements an interface"
      }
    },
    "version": 1
  }
}