{
  "contractName": "Maintenable",
  "abi": [
    {
      "anonymous": false,
      "inputs": [
        {
          "indexed": true,
          "internalType": "address",
          "name": "_owner",
          "type": "address"
        },
        {
          "indexed": true,
          "internalType": "address",
          "name": "_operator",
          "type": "address"
        },
        {
          "indexed": false,
          "internalType": "bool",
          "name": "_approved",
          "type": "bool"
        }
      ],
      "name": "ApprovalForAll",
      "type": "event"
    },
    {
      "anonymous": false,
      "inputs": [
        {
          "indexed": true,
          "internalType": "address",
          "name": "previousOwner",
          "type": "address"
        },
        {
          "indexed": true,
          "internalType": "address",
          "name": "newOwner",
          "type": "address"
        }
      ],
      "name": "OwnershipTransferred",
      "type": "event"
    },
    {
      "anonymous": false,
      "inputs": [
        {
          "indexed": true,
          "internalType": "uint256",
          "name": "_id",
          "type": "uint256"
        },
        {
          "indexed": false,
          "internalType": "uint256",
          "name": "_documentHash",
          "type": "uint256"
        }
      ],
      "name": "TokenUpdated",
      "type": "event"
    },
    {
      "anonymous": false,
      "inputs": [
        {
          "indexed": true,
          "internalType": "address",
          "name": "_operator",
          "type": "address"
        },
        {
          "indexed": true,
          "internalType": "address",
          "name": "_from",
          "type": "address"
        },
        {
          "indexed": true,
          "internalType": "address",
          "name": "_to",
          "type": "address"
        },
        {
          "indexed": false,
          "internalType": "uint256[]",
          "name": "_ids",
          "type": "uint256[]"
        },
        {
          "indexed": false,
          "internalType": "uint256[]",
          "name": "_values",
          "type": "uint256[]"
        }
      ],
      "name": "TransferBatch",
      "type": "event"
    },
    {
      "anonymous": false,
      "inputs": [
        {
          "indexed": true,
          "internalType": "address",
          "name": "_operator",
          "type": "address"
        },
        {
          "indexed": true,
          "internalType": "address",
          "name": "_from",
          "type": "address"
        },
        {
          "indexed": true,
          "internalType": "address",
          "name": "_to",
          "type": "address"
        },
        {
          "indexed": false,
          "internalType": "uint256",
          "name": "_id",
          "type": "uint256"
        },
        {
          "indexed": false,
          "internalType": "uint256",
          "name": "_value",
          "type": "uint256"
        }
      ],
      "name": "TransferSingle",
      "type": "event"
    },
    {
      "anonymous": false,
      "inputs": [
        {
          "indexed": false,
          "internalType": "string",
          "name": "_value",
          "type": "string"
        },
        {
          "indexed": true,
          "internalType": "uint256",
          "name": "_id",
          "type": "uint256"
        }
      ],
      "name": "URI",
      "type": "event"
    },
    {
      "inputs": [
        {
          "internalType": "uint256",
          "name": "",
          "type": "uint256"
        }
      ],
      "name": "_callbacks",
      "outputs": [
        {
          "internalType": "uint256",
          "name": "tokenId",
          "type": "uint256"
        },
        {
          "internalType": "uint256",
          "name": "price",
          "type": "uint256"
        },
        {
          "internalType": "uint256",
          "name": "escrowedAmount",
          "type": "uint256"
        },
        {
          "internalType": "uint256",
          "name": "callCounter",
          "type": "uint256"
        },
        {
          "internalType": "uint256",
          "name": "documentHash",
          "type": "uint256"
        },
        {
          "internalType": "address",
          "name": "caller",
          "type": "address"
        },
        {
          "internalType": "bool",
          "name": "needLegalApproval",
          "type": "bool"
        },
        {
          "internalType": "bool",
          "name": "approvedByLegal",
          "type": "bool"
        },
        {
          "internalType": "bool",
          "name": "refused",
          "type": "bool"
        },
        {
          "internalType": "bool",
          "name": "accepted",
          "type": "bool"
        },
        {
          "internalType": "bool",
          "name": "completed",
          "type": "bool"
        }
      ],
      "stateMutability": "view",
      "type": "function"
    },
    {
      "inputs": [],
      "name": "_config",
      "outputs": [
        {
          "internalType": "uint256",
          "name": "callbackAutoExecuteMaxAddresses",
          "type": "uint256"
        },
        {
          "internalType": "string",
          "name": "baseURI",
          "type": "string"
        },
        {
          "internalType": "string",
          "name": "versionRecipient",
          "type": "string"
        },
        {
          "internalType": "address",
          "name": "owner",
          "type": "address"
        },
        {
          "internalType": "address",
          "name": "GSNTrustedForwarder",
          "type": "address"
        },
        {
          "internalType": "address",
          "name": "proxyRegistryAddress",
          "type": "address"
        }
      ],
      "stateMutability": "view",
      "type": "function"
    },
    {
      "inputs": [
        {
          "internalType": "uint256",
          "name": "",
          "type": "uint256"
        }
      ],
      "name": "_tokens",
      "outputs": [
        {
          "internalType": "uint256",
          "name": "supply",
          "type": "uint256"
        },
        {
          "internalType": "uint256",
          "name": "decimals",
          "type": "uint256"
        },
        {
          "internalType": "uint256",
          "name": "lumpSumTransactionFees",
          "type": "uint256"
        },
        {
          "internalType": "uint256",
          "name": "valueTransactionFees",
          "type": "uint256"
        },
        {
          "internalType": "uint256",
          "name": "minHoldingForCallback",
          "type": "uint256"
        },
        {
          "internalType": "uint256",
          "name": "metadataHash",
          "type": "uint256"
        },
        {
          "internalType": "address",
          "name": "legalAuthority",
          "type": "address"
        },
        {
          "internalType": "bool",
          "name": "isPrivate",
          "type": "bool"
        },
        {
          "internalType": "bool",
          "name": "locked",
          "type": "bool"
        }
      ],
      "stateMutability": "view",
      "type": "function"
    },
    {
      "inputs": [
        {
          "internalType": "address",
          "name": "",
          "type": "address"
        }
      ],
      "name": "_users",
      "outputs": [
        {
          "internalType": "bool",
          "name": "isTokenizer",
          "type": "bool"
        },
        {
          "internalType": "bool",
          "name": "isLocked",
          "type": "bool"
        },
        {
          "internalType": "uint256",
          "name": "ETHBalance",
          "type": "uint256"
        }
      ],
      "stateMutability": "view",
      "type": "function"
    },
    {
      "inputs": [
        {
          "internalType": "address",
          "name": "tokenizer",
          "type": "address"
        }
      ],
      "name": "authorizeTokenizer",
      "outputs": [],
      "stateMutability": "nonpayable",
      "type": "function"
    },
    {
      "inputs": [
        {
          "internalType": "address",
          "name": "account",
          "type": "address"
        },
        {
          "internalType": "uint256",
          "name": "id",
          "type": "uint256"
        }
      ],
      "name": "averageAge",
      "outputs": [
        {
          "internalType": "uint256",
          "name": "",
          "type": "uint256"
        }
      ],
      "stateMutability": "view",
      "type": "function"
    },
    {
      "inputs": [
        {
          "internalType": "address",
          "name": "account",
          "type": "address"
        },
        {
          "internalType": "uint256",
          "name": "id",
          "type": "uint256"
        }
      ],
      "name": "balanceOf",
      "outputs": [
        {
          "internalType": "uint256",
          "name": "",
          "type": "uint256"
        }
      ],
      "stateMutability": "view",
      "type": "function"
    },
    {
      "inputs": [
        {
          "internalType": "address[]",
          "name": "accounts",
          "type": "address[]"
        },
        {
          "internalType": "uint256[]",
          "name": "ids",
          "type": "uint256[]"
        }
      ],
      "name": "balanceOfBatch",
      "outputs": [
        {
          "internalType": "uint256[]",
          "name": "",
          "type": "uint256[]"
        }
      ],
      "stateMutability": "view",
      "type": "function"
    },
    {
      "inputs": [
        {
          "internalType": "uint256",
          "name": "id",
          "type": "uint256"
        },
        {
          "internalType": "uint256[]",
          "name": "ids",
          "type": "uint256[]"
        },
        {
          "internalType": "uint256[]",
          "name": "metadataHashes",
          "type": "uint256[]"
        }
      ],
      "name": "cloneToken",
      "outputs": [],
      "stateMutability": "nonpayable",
      "type": "function"
    },
    {
      "inputs": [
        {
          "internalType": "address",
          "name": "recipient",
          "type": "address"
        },
        {
          "internalType": "uint256",
          "name": "id",
          "type": "uint256"
        },
        {
          "internalType": "uint256",
          "name": "supply",
          "type": "uint256"
        },
        {
          "internalType": "uint256",
          "name": "decimals",
          "type": "uint256"
        },
        {
          "internalType": "uint256",
          "name": "metadataHash",
          "type": "uint256"
        },
        {
          "internalType": "uint256[3]",
          "name": "transactionFees",
          "type": "uint256[3]"
        },
        {
          "internalType": "address[]",
          "name": "feesRecipients",
          "type": "address[]"
        },
        {
          "internalType": "uint256[]",
          "name": "feesRecipientsPercentage",
          "type": "uint256[]"
        },
        {
          "internalType": "uint256",
          "name": "minHoldingForCallback",
          "type": "uint256"
        },
        {
          "internalType": "bool",
          "name": "isPrivate",
          "type": "bool"
        },
        {
          "internalType": "address",
          "name": "legalAuthority",
          "type": "address"
        }
      ],
      "name": "createToken",
      "outputs": [],
      "stateMutability": "nonpayable",
      "type": "function"
    },
    {
      "inputs": [
        {
          "internalType": "address",
          "name": "account",
          "type": "address"
        },
        {
          "internalType": "address",
          "name": "operator",
          "type": "address"
        }
      ],
      "name": "isApprovedForAll",
      "outputs": [
        {
          "internalType": "bool",
          "name": "",
          "type": "bool"
        }
      ],
      "stateMutability": "view",
      "type": "function"
    },
    {
      "inputs": [
        {
          "internalType": "address",
          "name": "tokenizer",
          "type": "address"
        }
      ],
      "name": "isTokenizer",
      "outputs": [
        {
          "internalType": "bool",
          "name": "",
          "type": "bool"
        }
      ],
      "stateMutability": "view",
      "type": "function"
    },
    {
      "inputs": [
        {
          "internalType": "address",
          "name": "forwarder",
          "type": "address"
        }
      ],
      "name": "isTrustedForwarder",
      "outputs": [
        {
          "internalType": "bool",
          "name": "",
          "type": "bool"
        }
      ],
      "stateMutability": "view",
      "type": "function"
    },
    {
      "inputs": [],
      "name": "owner",
      "outputs": [
        {
          "internalType": "address",
          "name": "",
          "type": "address"
        }
      ],
      "stateMutability": "view",
      "type": "function"
    },
    {
      "inputs": [
        {
          "internalType": "address",
          "name": "tokenizer",
          "type": "address"
        }
      ],
      "name": "revokeTokenizer",
      "outputs": [],
      "stateMutability": "nonpayable",
      "type": "function"
    },
    {
      "inputs": [
        {
          "internalType": "address",
          "name": "from",
          "type": "address"
        },
        {
          "internalType": "address",
          "name": "to",
          "type": "address"
        },
        {
          "internalType": "uint256[]",
          "name": "ids",
          "type": "uint256[]"
        },
        {
          "internalType": "uint256[]",
          "name": "values",
          "type": "uint256[]"
        },
        {
          "internalType": "bytes",
          "name": "data",
          "type": "bytes"
        }
      ],
      "name": "safeBatchTransferFrom",
      "outputs": [],
      "stateMutability": "payable",
      "type": "function"
    },
    {
      "inputs": [
        {
          "internalType": "address",
          "name": "from",
          "type": "address"
        },
        {
          "internalType": "address",
          "name": "to",
          "type": "address"
        },
        {
          "internalType": "uint256",
          "name": "id",
          "type": "uint256"
        },
        {
          "internalType": "uint256",
          "name": "value",
          "type": "uint256"
        },
        {
          "internalType": "bytes",
          "name": "data",
          "type": "bytes"
        }
      ],
      "name": "safeTransferFrom",
      "outputs": [],
      "stateMutability": "payable",
      "type": "function"
    },
    {
      "inputs": [
        {
          "internalType": "address",
          "name": "operator",
          "type": "address"
        },
        {
          "internalType": "bool",
          "name": "approved",
          "type": "bool"
        }
      ],
      "name": "setApprovalForAll",
      "outputs": [],
      "stateMutability": "nonpayable",
      "type": "function"
    },
    {
      "inputs": [
        {
          "internalType": "address",
          "name": "proxyAddress",
          "type": "address"
        }
      ],
      "name": "setProxyRegistryAddress",
      "outputs": [],
      "stateMutability": "nonpayable",
      "type": "function"
    },
    {
      "inputs": [
        {
          "internalType": "bytes4",
          "name": "_interfaceID",
          "type": "bytes4"
        }
      ],
      "name": "supportsInterface",
      "outputs": [
        {
          "internalType": "bool",
          "name": "",
          "type": "bool"
        }
      ],
      "stateMutability": "pure",
      "type": "function"
    },
    {
      "inputs": [
        {
          "internalType": "address",
          "name": "account",
          "type": "address"
        },
        {
          "internalType": "uint256",
          "name": "id",
          "type": "uint256"
        },
        {
          "internalType": "uint256",
          "name": "value",
          "type": "uint256"
        }
      ],
      "name": "transactionFees",
      "outputs": [
        {
          "internalType": "uint256",
          "name": "",
          "type": "uint256"
        }
      ],
      "stateMutability": "view",
      "type": "function"
    },
    {
      "inputs": [
        {
          "internalType": "address",
          "name": "newOwner",
          "type": "address"
        }
      ],
      "name": "transferOwnership",
      "outputs": [],
      "stateMutability": "nonpayable",
      "type": "function"
    },
    {
      "inputs": [
        {
          "internalType": "uint256",
          "name": "id",
          "type": "uint256"
        }
      ],
      "name": "uri",
      "outputs": [
        {
          "internalType": "string",
          "name": "",
          "type": "string"
        }
      ],
      "stateMutability": "view",
      "type": "function"
    },
    {
      "inputs": [],
      "name": "versionRecipient",
      "outputs": [
        {
          "internalType": "string",
          "name": "",
          "type": "string"
        }
      ],
      "stateMutability": "view",
      "type": "function"
    },
    {
      "inputs": [
        {
          "internalType": "uint256",
          "name": "id",
          "type": "uint256"
        },
        {
          "internalType": "address",
          "name": "maintener",
          "type": "address"
        }
      ],
      "name": "authorizeMaintener",
      "outputs": [],
      "stateMutability": "nonpayable",
      "type": "function"
    },
    {
      "inputs": [
        {
          "internalType": "uint256",
          "name": "id",
          "type": "uint256"
        },
        {
          "internalType": "address",
          "name": "maintener",
          "type": "address"
        }
      ],
      "name": "revokeMaintener",
      "outputs": [],
      "stateMutability": "nonpayable",
      "type": "function"
    },
    {
      "inputs": [
        {
          "internalType": "uint256",
          "name": "id",
          "type": "uint256"
        },
        {
          "internalType": "address",
          "name": "maintener",
          "type": "address"
        }
      ],
      "name": "isMaintener",
      "outputs": [
        {
          "internalType": "bool",
          "name": "",
          "type": "bool"
        }
      ],
      "stateMutability": "view",
      "type": "function"
    },
    {
      "inputs": [
        {
          "internalType": "uint256",
          "name": "id",
          "type": "uint256"
        },
        {
          "internalType": "uint256",
          "name": "metadataHash",
          "type": "uint256"
        },
        {
          "internalType": "uint256[3]",
          "name": "transactionFees",
          "type": "uint256[3]"
        },
        {
          "internalType": "address[]",
          "name": "feesRecipients",
          "type": "address[]"
        },
        {
          "internalType": "uint256[]",
          "name": "feesRecipientsPercentage",
          "type": "uint256[]"
        },
        {
          "internalType": "uint256",
          "name": "minHoldingForCallback",
          "type": "uint256"
        },
        {
          "internalType": "bool",
          "name": "isPrivate",
          "type": "bool"
        },
        {
          "internalType": "address",
          "name": "legalAuthority",
          "type": "address"
        }
      ],
      "name": "updateToken",
      "outputs": [],
      "stateMutability": "nonpayable",
      "type": "function"
    }
  ],
  "bytecode": "0x60806040523480156200001157600080fd5b5062000026620000206200002c565b62000062565b62000133565b60006018361080159062000046575062000046336200011f565b156200005c575060131936013560601c6200005f565b50335b90565b6001600160a01b038116620000c3576040517f08c379a000000000000000000000000000000000000000000000000000000000815260040180806020018281038252602681526020018062003bf16026913960400191505060405180910390fd5b6003546040516001600160a01b038084169216907f8be0079c531659141344cd1fd0a4f28419497f9722a3daafe3b4186f6b6457e090600090a3600380546001600160a01b0319166001600160a01b0392909216919091179055565b6004546001600160a01b0390811691161490565b613aae80620001436000396000f3fe6080604052600436106101b65760003560e01c80638870147b116100ec578063d26ea6c01161008a578063ed70554d11610064578063ed70554d14610da2578063f242432a14610e20578063f2fde38b14610eb3578063f8a5a07c14610ee6576101b6565b8063d26ea6c014610cfb578063d41d0aa314610d2e578063e985e9c514610d67576101b6565b8063a22cb465116100c6578063a22cb46514610ab1578063c02f303c14610aec578063c40b87ae14610b1f578063d1660e1814610cbc576101b6565b80638870147b14610a145780638aeba37e14610a475780638da5cb5b14610a80576101b6565b8063486ff0cd11610159578063572b6c0511610133578063572b6c051461093c578063585941d51461096f5780635dafec1b146109a85780637627b732146109e1576101b6565b8063486ff0cd146106255780634ab0d2531461063a5780634e1273f4146107bc576101b6565b80632eb2c2d6116101955780632eb2c2d6146102ed5780632ed42bf7146104165780633cacd7d614610540578063414ed0ce14610593576101b6565b8062fdd58e146101bb57806301ffc9a7146102065780630e89341c1461024e575b600080fd5b3480156101c757600080fd5b506101f4600480360360408110156101de57600080fd5b506001600160a01b03813516906020013561101d565b60408051918252519081900360200190f35b34801561021257600080fd5b5061023a6004803603602081101561022957600080fd5b50356001600160e01b031916611091565b604080519115158252519081900360200190f35b34801561025a57600080fd5b506102786004803603602081101561027157600080fd5b50356110d8565b6040805160208082528351818301528351919283929083019185019080838360005b838110156102b257818101518382015260200161029a565b50505050905090810190601f1680156102df5780820380516001836020036101000a031916815260200191505b509250505060405180910390f35b610414600480360360a081101561030357600080fd5b6001600160a01b038235811692602081013590911691810190606081016040820135600160201b81111561033657600080fd5b82018360208201111561034857600080fd5b803590602001918460208302840111600160201b8311171561036957600080fd5b919390929091602081019035600160201b81111561038657600080fd5b82018360208201111561039857600080fd5b803590602001918460208302840111600160201b831117156103b957600080fd5b919390929091602081019035600160201b8111156103d657600080fd5b8201836020820111156103e857600080fd5b803590602001918460018302840111600160201b8311171561040957600080fd5b509092509050611179565b005b34801561042257600080fd5b5061042b61144c565b604051808781526020018060200180602001866001600160a01b03168152602001856001600160a01b03168152602001846001600160a01b03168152602001838103835288818151815260200191508051906020019080838360005b8381101561049f578181015183820152602001610487565b50505050905090810190601f1680156104cc5780820380516001836020036101000a031916815260200191505b50838103825287518152875160209182019189019080838360005b838110156104ff5781810151838201526020016104e7565b50505050905090810190601f16801561052c5780820380516001836020036101000a031916815260200191505b509850505050505050505060405180910390f35b34801561054c57600080fd5b506105736004803603602081101561056357600080fd5b50356001600160a01b0316611595565b604080519315158452911515602084015282820152519081900360600190f35b34801561059f57600080fd5b506105bd600480360360208110156105b657600080fd5b50356115bb565b604080519b8c5260208c019a909a528a8a019890985260608a019690965260808901949094526001600160a01b0390921660a0880152151560c0870152151560e086015215156101008501521515610120840152151561014083015251908190036101600190f35b34801561063157600080fd5b5061027861162e565b34801561064657600080fd5b50610414600480360361014081101561065e57600080fd5b6040805160608181018352843594602081013594810193909260a08401929091840190600390839083908082843760009201919091525091949392602081019250359050600160201b8111156106b357600080fd5b8201836020820111156106c557600080fd5b803590602001918460208302840111600160201b831117156106e657600080fd5b9190808060200260200160405190810160405280939291908181526020018383602002808284376000920191909152509295949360208101935035915050600160201b81111561073557600080fd5b82018360208201111561074757600080fd5b803590602001918460208302840111600160201b8311171561076857600080fd5b919080806020026020016040519081016040528093929190818152602001838360200280828437600092019190915250929550508235935050506020810135151590604001356001600160a01b03166116c2565b3480156107c857600080fd5b506108ec600480360360408110156107df57600080fd5b810190602081018135600160201b8111156107f957600080fd5b82018360208201111561080b57600080fd5b803590602001918460208302840111600160201b8311171561082c57600080fd5b9190808060200260200160405190810160405280939291908181526020018383602002808284376000920191909152509295949360208101935035915050600160201b81111561087b57600080fd5b82018360208201111561088d57600080fd5b803590602001918460208302840111600160201b831117156108ae57600080fd5b9190808060200260200160405190810160405280939291908181526020018383602002808284376000920191909152509295506117c0945050505050565b60408051602080825283518183015283519192839290830191858101910280838360005b83811015610928578181015183820152602001610910565b505050509050019250505060405180910390f35b34801561094857600080fd5b5061023a6004803603602081101561095f57600080fd5b50356001600160a01b0316611944565b34801561097b57600080fd5b506101f46004803603604081101561099257600080fd5b506001600160a01b038135169060200135611958565b3480156109b457600080fd5b5061023a600480360360408110156109cb57600080fd5b50803590602001356001600160a01b0316611992565b3480156109ed57600080fd5b5061041460048036036020811015610a0457600080fd5b50356001600160a01b031661199e565b348015610a2057600080fd5b5061041460048036036020811015610a3757600080fd5b50356001600160a01b0316611a09565b348015610a5357600080fd5b5061041460048036036040811015610a6a57600080fd5b50803590602001356001600160a01b0316611a71565b348015610a8c57600080fd5b50610a95611aee565b604080516001600160a01b039092168252519081900360200190f35b348015610abd57600080fd5b5061041460048036036040811015610ad457600080fd5b506001600160a01b0381351690602001351515611afd565b348015610af857600080fd5b5061023a60048036036020811015610b0f57600080fd5b50356001600160a01b0316611bf0565b348015610b2b57600080fd5b5061041460048036036101a0811015610b4357600080fd5b60408051606081810183526001600160a01b03853516946020810135949381013593828201359360808301359391830192916101008301919060a0840190600390839083908082843760009201919091525091949392602081019250359050600160201b811115610bb357600080fd5b820183602082011115610bc557600080fd5b803590602001918460208302840111600160201b83111715610be657600080fd5b9190808060200260200160405190810160405280939291908181526020018383602002808284376000920191909152509295949360208101935035915050600160201b811115610c3557600080fd5b820183602082011115610c4757600080fd5b803590602001918460208302840111600160201b83111715610c6857600080fd5b919080806020026020016040519081016040528093929190818152602001838360200280828437600092019190915250929550508235935050506020810135151590604001356001600160a01b0316611bfb565b348015610cc857600080fd5b506101f460048036036060811015610cdf57600080fd5b506001600160a01b038135169060208101359060400135611cd2565b348015610d0757600080fd5b5061041460048036036020811015610d1e57600080fd5b50356001600160a01b0316611ce7565b348015610d3a57600080fd5b5061041460048036036040811015610d5157600080fd5b50803590602001356001600160a01b0316611d50565b348015610d7357600080fd5b5061023a60048036036040811015610d8a57600080fd5b506001600160a01b0381358116916020013516611dca565b348015610dae57600080fd5b50610dcc60048036036020811015610dc557600080fd5b5035611dd6565b60408051998a5260208a0198909852888801969096526060880194909452608087019290925260a08601526001600160a01b031660c0850152151560e0840152151561010083015251908190036101200190f35b610414600480360360a0811015610e3657600080fd5b6001600160a01b03823581169260208101359091169160408201359160608101359181019060a081016080820135600160201b811115610e7557600080fd5b820183602082011115610e8757600080fd5b803590602001918460018302840111600160201b83111715610ea857600080fd5b509092509050611e32565b348015610ebf57600080fd5b5061041460048036036020811015610ed657600080fd5b50356001600160a01b0316611fa9565b348015610ef257600080fd5b5061041460048036036060811015610f0957600080fd5b81359190810190604081016020820135600160201b811115610f2a57600080fd5b820183602082011115610f3c57600080fd5b803590602001918460208302840111600160201b83111715610f5d57600080fd5b9190808060200260200160405190810160405280939291908181526020018383602002808284376000920191909152509295949360208101935035915050600160201b811115610fac57600080fd5b820183602082011115610fbe57600080fd5b803590602001918460208302840111600160201b83111715610fdf57600080fd5b919080806020026020016040519081016040528093929190818152602001838360200280828437600092019190915250929550611ffc945050505050565b60006001600160a01b0383166110645760405162461bcd60e51b815260040180806020018281038252602b815260200180613863602b913960400191505060405180910390fd5b5060008181526007602081815260408084206001600160a01b038716855290920190529020545b92915050565b60006001600160e01b031982166301ffc9a760e01b14806110c257506001600160e01b03198216636cdb3d1360e11b145b156110cf575060016110d3565b5060005b919050565b60018054604080516020600284861615610100026000190190941693909304601f810184900484028201840190925281815260609361108b93919290918301828280156111665780601f1061113b57610100808354040283529160200191611166565b820191906000526020600020905b81548152906001019060200180831161114957829003601f168201915b5050505050611174846121aa565b612266565b8483146111b75760405162461bcd60e51b815260040180806020018281038252602e815260200180613a1a602e913960400191505060405180910390fd5b6001600160a01b0387166111fc5760405162461bcd60e51b81526004018080602001828103825260288152602001806138b46028913960400191505060405180910390fd5b611204612370565b6001600160a01b0316886001600160a01b03161480611235575061122f8861122a612370565b611dca565b15156001145b6112705760405162461bcd60e51b81526004018080602001828103825260378152602001806139e36037913960400191505060405180910390fd5b6112df888888888080602002602001604051908101604052809392919081815260200183836020028082843760009201919091525050604080516020808c0282810182019093528b82529093508b92508a9182918501908490808284376000920191909152506123a292505050565b866001600160a01b0316886001600160a01b03166112fb612370565b6001600160a01b03167f4a39dc06d4c0dbc64b70af90fd698a233a518aa5d07e595d983b8c0526c8f7fb898989896040518080602001806020018381038352878782818152602001925060200280828437600083820152601f01601f19169091018481038352858152602090810191508690860280828437600083820152604051601f909101601f19169092018290039850909650505050505050a46114426113a2612370565b898989898080602002602001604051908101604052809392919081815260200183836020028082843760009201919091525050604080516020808d0282810182019093528c82529093508c92508b91829185019084908082843760009201919091525050604080516020601f8c018190048102820181019092528a815292508a915089908190840183828082843760009201919091525061245c92505050565b5050505050505050565b6000805460018054604080516020600284861615610100026000190190941693909304601f810184900484028201840190925281815293949392918301828280156114d85780601f106114ad576101008083540402835291602001916114d8565b820191906000526020600020905b8154815290600101906020018083116114bb57829003601f168201915b50505060028085018054604080516020601f600019610100600187161502019094169590950492830185900485028101850190915281815295969594509092509083018282801561156a5780601f1061153f5761010080835404028352916020019161156a565b820191906000526020600020905b81548152906001019060200180831161154d57829003601f168201915b505050506003830154600484015460059094015492936001600160a01b039182169390821692501686565b6006602052600090815260409020805460019091015460ff808316926101009004169083565b60086020526000908152604090208054600182015460028301546003840154600485015460059095015493949293919290916001600160a01b0381169060ff600160a01b8204811691600160a81b8104821691600160b01b8204811691600160b81b8104821691600160c01b909104168b565b60028054604080516020601f60001961010060018716150201909416859004938401819004810282018101909252828152606093909290918301828280156116b75780601f1061168c576101008083540402835291602001916116b7565b820191906000526020600020905b81548152906001019060200180831161169a57829003601f168201915b505050505090505b90565b876116d4816116cf612370565b61264d565b61171f576040805162461bcd60e51b815260206004820152601760248201527624b739bab33334b1b4b2b73a103832b936b4b9b9b4b7b760491b604482015290519081900360640190fd5b60008981526007602052604090205461176f576040805162461bcd60e51b815260206004820152600d60248201526c2ab735b737bbb7103a37b5b2b760991b604482015290519081900360640190fd5b61177f8989898989898989612686565b6040805189815290518a917f199acc06cd2556bbc146fa3cb578799037dffcbf256eca32aaf2ef656925d2fd919081900360200190a2505050505050505050565b606081518351146118025760405162461bcd60e51b81526004018080602001828103825260308152602001806139086030913960400191505060405180910390fd5b6060835167ffffffffffffffff8111801561181c57600080fd5b50604051908082528060200260200182016040528015611846578160200160208202803683370190505b50905060005b845181101561193c5760006001600160a01b031685828151811061186c57fe5b60200260200101516001600160a01b031614156118ba5760405162461bcd60e51b815260040180806020018281038252603481526020018061396e6034913960400191505060405180910390fd5b600760008583815181106118ca57fe5b6020026020010151815260200190815260200160002060070160008683815181106118f157fe5b60200260200101516001600160a01b03166001600160a01b031681526020019081526020016000206000015482828151811061192957fe5b602090810291909101015260010161184c565b509392505050565b6004546001600160a01b0390811691161490565b60008181526007602081815260408084206001600160a01b0387168552909201905281206001015461198b90429061282a565b9392505050565b600061198b838361264d565b6119a661286c565b6119e5576040805162461bcd60e51b815260206004820181905260248201526000805160206139c3833981519152604482015290519081900360640190fd5b6001600160a01b03166000908152600660205260409020805460ff19166001179055565b611a1161286c565b611a50576040805162461bcd60e51b815260206004820181905260248201526000805160206139c3833981519152604482015290519081900360640190fd5b6001600160a01b03166000908152600660205260409020805460ff19169055565b611a7961286c565b611ab8576040805162461bcd60e51b815260206004820181905260248201526000805160206139c3833981519152604482015290519081900360640190fd5b60009182526007602081815260408085206001600160a01b0390941685529290910190529020600201805460ff19166001179055565b6003546001600160a01b031690565b816001600160a01b0316611b0f612370565b6001600160a01b03161415611b555760405162461bcd60e51b815260040180806020018281038252602c8152602001806138dc602c913960400191505060405180910390fd5b8060066000611b62612370565b6001600160a01b0390811682526020808301939093526040918201600090812091871680825260039092019093529120805460ff191692151592909217909155611baa612370565b6001600160a01b03167f17307eab39ab6107e8899845ad3d59bd9653f200f220920489ca2b5937696c318360405180821515815260200191505060405180910390a35050565b600061108b82612892565b611c0b611c06612370565b612892565b611c56576040805162461bcd60e51b815260206004820152601760248201527624b739bab33334b1b4b2b73a103832b936b4b9b9b4b7b760491b604482015290519081900360640190fd5b611c698b8b8b8b8b8b8b8b8b8b8b6128bc565b6001600160a01b038b166000611c7d612370565b6001600160a01b03167fc3d58168c5ae7397731d063d5bbf3d657854427343f4c083240f7aacaa2d0f628d8d604051808381526020018281526020019250505060405180910390a45050505050505050505050565b6000611cdf8484846129fb565b949350505050565b611cef61286c565b611d2e576040805162461bcd60e51b815260206004820181905260248201526000805160206139c3833981519152604482015290519081900360640190fd5b600580546001600160a01b0319166001600160a01b0392909216919091179055565b611d5861286c565b611d97576040805162461bcd60e51b815260206004820181905260248201526000805160206139c3833981519152604482015290519081900360640190fd5b60009182526007602081815260408085206001600160a01b0390941685529290910190529020600201805460ff19169055565b600061198b8383612be1565b600760205260009081526040902080546001820154600283015460038401546004850154600586015460069096015494959394929391929091906001600160a01b0381169060ff600160a01b8204811691600160a81b90041689565b6001600160a01b038516611e775760405162461bcd60e51b81526004018080602001828103825260288152602001806138b46028913960400191505060405180910390fd5b611e7f612370565b6001600160a01b0316866001600160a01b03161480611eab5750611ea58661122a612370565b15156001145b611ee65760405162461bcd60e51b81526004018080602001828103825260378152602001806139e36037913960400191505060405180910390fd5b611ef286868686612c26565b846001600160a01b0316866001600160a01b0316611f0e612370565b6001600160a01b03167fc3d58168c5ae7397731d063d5bbf3d657854427343f4c083240f7aacaa2d0f628787604051808381526020018281526020019250505060405180910390a4611fa1611f61612370565b8787878787878080601f016020809104026020016040519081016040528093929190818152602001838380828437600092019190915250612c9e92505050565b505050505050565b611fb161286c565b611ff0576040805162461bcd60e51b815260206004820181905260248201526000805160206139c3833981519152604482015290519081900360640190fd5b611ff981612e13565b50565b612007611c06612370565b612052576040805162461bcd60e51b815260206004820152601760248201527624b739bab33334b1b4b2b73a103832b936b4b9b9b4b7b760491b604482015290519081900360640190fd5b60008381526007602052604090205415801590612070575080518251145b6120b5576040805162461bcd60e51b8152602060048201526011602482015270496e76616c696420617267756d656e747360781b604482015290519081900360640190fd5b60005b82518110156121a4576120f2848483815181106120d157fe5b60200260200101518484815181106120e557fe5b6020026020010151612eb4565b6000848152600760205260408120600801805490919061210e57fe5b60009182526020822001546001600160a01b03169061212b612370565b6001600160a01b03167fc3d58168c5ae7397731d063d5bbf3d657854427343f4c083240f7aacaa2d0f6286858151811061216157fe5b6020026020010151600760008a815260200190815260200160002060000154604051808381526020018281526020019250505060405180910390a46001016120b8565b50505050565b60606000825b80156121c65760019190910190601090046121b0565b60608267ffffffffffffffff811180156121df57600080fd5b506040519080825280601f01601f19166020018201604052801561220a576020820181803683370190505b50905060005b8381101561225d5760108606925061222783613056565b826001838703038151811061223857fe5b60200101906001600160f81b031916908160001a905350601086049550600101612210565b50949350505050565b805182516060918491849184910167ffffffffffffffff8111801561228a57600080fd5b506040519080825280601f01601f1916602001820160405280156122b5576020820181803683370190505b509050806000805b855181101561230e578581815181106122d257fe5b602001015160f81c60f81b8383806001019450815181106122ef57fe5b60200101906001600160f81b031916908160001a9053506001016122bd565b5060005b84518110156123635784818151811061232757fe5b602001015160f81c60f81b83838060010194508151811061234457fe5b60200101906001600160f81b031916908160001a905350600101612312565b5090979650505050505050565b600060183610801590612387575061238733611944565b1561239b575060131936013560601c6116bf565b50336116bf565b60008034116123cc576001600160a01b0385166000908152600660205260409020600101546123ce565b345b905060005b835181101561244a5761244061241187878785815181106123f057fe5b602002602001015187868151811061240457fe5b602002602001015161309a565b60408051808201909152601081526f092dce6eaccccd2c6d2cadce8408aa8960831b60208201528491906131ec565b91506001016123d3565b506124558582613283565b5050505050565b61246e846001600160a01b0316613307565b15611fa15763bc197c8160e01b6001600160e01b031916846001600160a01b031663bc197c8188888787876040518663ffffffff1660e01b815260040180866001600160a01b03168152602001856001600160a01b03168152602001806020018060200180602001848103845287818151815260200191508051906020019060200280838360005b8381101561250e5781810151838201526020016124f6565b50505050905001848103835286818151815260200191508051906020019060200280838360005b8381101561254d578181015183820152602001612535565b50505050905001848103825285818151815260200191508051906020019080838360005b83811015612589578181015183820152602001612571565b50505050905090810190601f1680156125b65780820380516001836020036101000a031916815260200191505b5098505050505050505050602060405180830381600087803b1580156125db57600080fd5b505af11580156125ef573d6000803e3d6000fd5b505050506040513d602081101561260557600080fd5b50516001600160e01b03191614611fa15760405162461bcd60e51b81526004018080602001828103825260368152602001806139386036913960400191505060405180910390fd5b60008281526007602081815260408084206001600160a01b0386168552909201905281206002015460ff168061198b575061198b61286c565b6000805b85518110156126b65785818151811061269f57fe5b60200260200101518201915080600101905061268a565b50600086511180156126c6575060015b80156126d3575080612710145b80156126e0575061271084105b612725576040805162461bcd60e51b8152602060048201526011602482015270496e76616c696420617267756d656e747360781b604482015290519081900360640190fd5b6000898152600760209081526040808320600581018c90558a516002808301919091558b840151600383015582518084018452428152928c015183850152600b909101805460018101825590855292909320612785939283020191613755565b50600089815260076020908152604090912087516127ab92600990920191890190613793565b50600089815260076020908152604090912086516127d192600a909201918801906137f4565b505060009788526007602052604090972060048101929092556006909101805460ff60a01b1916600160a01b92151592909202919091176001600160a01b0319166001600160a01b039096169590951790945550505050565b600061198b83836040518060400160405280601e81526020017f536166654d6174683a207375627472616374696f6e206f766572666c6f7700008152506131ec565b6003546000906001600160a01b0316612883612370565b6001600160a01b031614905090565b6001600160a01b03811660009081526006602052604081205460ff168061108b575061108b61286c565b60008a8152600760205260409020541580156128d85750600089115b61291d576040805162461bcd60e51b8152602060048201526011602482015270496e76616c696420617267756d656e747360781b604482015290519081900360640190fd5b60008a815260076020819052604082208b815560018082018c905592910190612944612370565b6001600160a01b03166001600160a01b0316815260200190815260200160002060020160006101000a81548160ff0219169083151502179055506001600760008c815260200190815260200160002060070160008d6001600160a01b03166001600160a01b0316815260200190815260200160002060020160026101000a81548160ff0219169083151502179055506129e38a88888888888888612686565b6129ee8b8b8b61333e565b5050505050505050505050565b6000828152600760205260408120600b015481904290600019015b6000868152600760205260408120600b01805483908110612a3357fe5b60009182526020822060029091020101546000888152600760205260408120600b018054929350909184908110612a6657fe5b9060005260206000209060020201600160028110612a8057fe5b015460008981526007602081815260408084206001600160a01b038f1685529092019052812060010154919250908311612b215760008981526007602081815260408084206001600160a01b038f1685529092019052902060010154612af6906201518090612af090889061282a565b90613545565b905080612b01575060015b612b1588612b0f8385613587565b90613587565b86019550505050612b60565b612b3262015180612af0878661282a565b905080612b3d575060015b9193508391612b5088612b0f8385613587565b9095019450505060001901612a16565b50600085815260076020526040902060010154612b81908390600a0a613545565b60008681526007602052604081206003015491935090612bac906305f5e10090612af0908890613587565b600087815260076020526040902060020154909150612bd690612bcf90836135e0565b84906135e0565b979650505050505050565b6000612bed838361363a565b8061198b5750506001600160a01b0391821660009081526006602090815260408083209390941682526003909201909152205460ff1690565b6000803411612c50576001600160a01b038516600090815260066020526040902060010154612c52565b345b9050612c92612c638686868661309a565b60408051808201909152601081526f092dce6eaccccd2c6d2cadce8408aa8960831b60208201528391906131ec565b90506124558582613283565b612cb0846001600160a01b0316613307565b15611fa15763f23a6e6160e01b6001600160e01b031916846001600160a01b031663f23a6e6188888787876040518663ffffffff1660e01b815260040180866001600160a01b03168152602001856001600160a01b0316815260200184815260200183815260200180602001828103825283818151815260200191508051906020019080838360005b83811015612d51578181015183820152602001612d39565b50505050905090810190601f168015612d7e5780820380516001836020036101000a031916815260200191505b509650505050505050602060405180830381600087803b158015612da157600080fd5b505af1158015612db5573d6000803e3d6000fd5b505050506040513d6020811015612dcb57600080fd5b50516001600160e01b03191614611fa15760405162461bcd60e51b8152600401808060200182810382526031815260200180613a486031913960400191505060405180910390fd5b6001600160a01b038116612e585760405162461bcd60e51b815260040180806020018281038252602681526020018061388e6026913960400191505060405180910390fd5b6003546040516001600160a01b038084169216907f8be0079c531659141344cd1fd0a4f28419497f9722a3daafe3b4186f6b6457e090600090a3600380546001600160a01b0319166001600160a01b0392909216919091179055565b600083815260076020526040812060080180546130519290612ed257fe5b600091825260208083209091015486835260078083526040808520805460018201548351606081018552600284015481526003840154818901528c895294909652600b90910180546001600160a01b03909516968a96929592948a949093908401929190612f3c57fe5b9060005260206000209060020201600160028110612f5657fe5b0154905260008a81526007602090815260409182902060090180548351818402810184019094528084529091830182828015612fbb57602002820191906000526020600020905b81546001600160a01b03168152600190910190602001808311612f9d575b50505060008d815260076020908152604091829020600a018054835181840281018401909452808452929450925083018282801561301857602002820191906000526020600020905b815481526020019060010190808311613004575b50505060008e8152600760205260409020600481015460069091015490925060ff600160a01b82041691506001600160a01b03166128bc565b505050565b600060098260ff161161307057506030810160f81b6110d3565b8160ff16600a111580156130885750600f8260ff1611155b156101b657506057810160f81b6110d3565b6040805180820182526014815273496e73756666696369656e742062616c616e636560601b602080830191909152600085815260078083528482206001600160a01b038a16835201909152918220546130f49184906131ec565b60008481526007602081815260408084206001600160a01b038b168552909201905290205561312484848461333e565b61312f8584846129fb565b905060005b60008481526007602052604090206009015481101561225d57600084815260076020526040812060090180548390811061316a57fe5b6000918252602080832090910154878352600790915260408220600a0180546001600160a01b03909216935090849081106131a157fe5b60009182526020909120015490506131bf612710612af08684613587565b6001600160a01b039092166000908152600660205260409020600190810180549093019092555001613134565b6000818484111561327b5760405162461bcd60e51b81526004018080602001828103825283818151815260200191508051906020019080838360005b83811015613240578181015183820152602001613228565b50505050905090810190601f16801561326d5780820380516001836020036101000a031916815260200191505b509250505060405180910390fd5b505050900390565b6000341180156132935750600081115b156132df576001600160a01b0382166000908152600660205260409020600101546132be90826135e0565b6001600160a01b038316600090815260066020526040902060010155613303565b34613303576001600160a01b03821660009081526006602052604090206001018190555b5050565b6000813f7fc5d2460186f7233c927e7db2dcc703c0e500b653ca82273b7bfad8045d85a4708115801590611cdf5750141592915050565b60008281526007602081815260408084206001600160a01b0388168552909201905281205461336d90836135e0565b60008481526007602081815260408084206001600160a01b038a16855290920190529020549091506134785760008381526007602081815260408084206001600160a01b03891685529092019052902060020154610100900460ff16613448576001600160a01b038416600081815260066020908152604080832060029081018054600181810183559186528486200189905588855260078085528386206008810180549384018155875285872090920180546001600160a01b03191688179055958552909401909152902001805461ff0019166101001790555b60008381526007602081815260408084206001600160a01b03891685529092019052902042600190910155613516565b60008381526007602081815260408084206001600160a01b038916855290920190528120600101546134ab90429061282a565b60008581526007602081815260408084206001600160a01b038b1685529092019052812054919250906134e4908490612af09085613587565b60008681526007602081815260408084206001600160a01b038c16855290920190529020429190910360019091015550505b60009283526007602081815260408086206001600160a01b039097168652959091019052929091209190915550565b600061198b83836040518060400160405280601a81526020017f536166654d6174683a206469766973696f6e206279207a65726f0000000000008152506136f0565b6000826135965750600061108b565b828202828482816135a357fe5b041461198b5760405162461bcd60e51b81526004018080602001828103825260218152602001806139a26021913960400191505060405180910390fd5b60008282018381101561198b576040805162461bcd60e51b815260206004820152601b60248201527f536166654d6174683a206164646974696f6e206f766572666c6f770000000000604482015290519081900360640190fd5b6005546000906001600160a01b0316156136e7576005546040805163c455279160e01b81526001600160a01b03868116600483015291519282169291851691839163c4552791916024808301926020929190829003018186803b1580156136a057600080fd5b505afa1580156136b4573d6000803e3d6000fd5b505050506040513d60208110156136ca57600080fd5b50516001600160a01b031614156136e557600191505061108b565b505b50600092915050565b6000818361373f5760405162461bcd60e51b8152602060048201818152835160248401528351909283926044909101919085019080838360008315613240578181015183820152602001613228565b50600083858161374b57fe5b0495945050505050565b8260028101928215613783579160200282015b82811115613783578251825591602001919060010190613768565b5061378f92915061382e565b5090565b8280548282559060005260206000209081019282156137e8579160200282015b828111156137e857825182546001600160a01b0319166001600160a01b039091161782556020909201916001909101906137b3565b5061378f929150613843565b8280548282559060005260206000209081019282156137835791602002820182811115613783578251825591602001919060010190613768565b5b8082111561378f576000815560010161382f565b5b8082111561378f5780546001600160a01b031916815560010161384456fe455243313135353a2062616c616e636520717565727920666f7220746865207a65726f20616464726573734f776e61626c653a206e6577206f776e657220697320746865207a65726f2061646472657373455243313135353a207461726765742061646472657373206d757374206265206e6f6e2d7a65726f455243313135353a2063616e6e6f742073657420617070726f76616c2073746174757320666f722073656c66455243313135353a206163636f756e747320616e6420494473206d75737420686176652073616d65206c656e67746873455243313135353a20676f7420756e6b6e6f776e2076616c75652066726f6d206f6e4552433131353542617463685265636569766564455243313135353a20736f6d65206164647265737320696e2062617463682062616c616e6365207175657279206973207a65726f536166654d6174683a206d756c7469706c69636174696f6e206f766572666c6f774f776e61626c653a2063616c6c6572206973206e6f7420746865206f776e6572455243313135353a206e656564206f70657261746f7220617070726f76616c20666f7220337264207061727479207472616e7366657273455243313135353a2049447320616e642076616c756573206d75737420686176652073616d65206c656e67746873455243313135353a20676f7420756e6b6e6f776e2076616c75652066726f6d206f6e455243313135355265636569766564a26469706673582212204d21a749386be4656b14a2b38aa4ee946459d679e0fa238b1a1a2b8598eba6be64736f6c634300070100334f776e61626c653a206e6577206f776e657220697320746865207a65726f2061646472657373",
  "immutableReferences": {},
  "source": "// SPDX-License-Identifier: GPL-3.0-or-later\npragma solidity ^0.7.1;\n\nimport './Mintable.sol';\n\ncontract Maintenable is Mintable {\n\n\n    /****************************\n    EVENTS\n    *****************************/\n\n\n    event TokenUpdated(uint256 indexed _id, uint256 _documentHash);\n\n\n    /****************************\n    MODIFIERS\n    *****************************/\n\n\n    modifier onlyMaintener(uint256 id) {\n        require(_isMaintener(id, _msgSender()), \"Insufficient permission\");\n        _;\n    }\n\n\n    /****************************\n    EXTERNAL FUNCTIONS\n    *****************************/\n\n\n    /**\n     * @dev Function to authorize an address to maintain a token.\n     * @param maintener The authorized address\n     */\n    function authorizeMaintener(uint256 id, address maintener) external onlyOwner {\n        _tokens[id].holders[maintener].isMaintener = true;\n    }\n\n    /**\n     * @dev Function to revoke the authorization to maintain a token.\n     * @param id the token id\n     * @param maintener The authorized address\n     */\n    function revokeMaintener(uint256 id, address maintener) external onlyOwner {\n        _tokens[id].holders[maintener].isMaintener = false;\n    }\n\n    /**\n     * @dev Function to check if an address is authorized to maintain a token.\n     * @param id the token id\n     * @param maintener The authorized address\n     * @return true if it's a maintener address\n     */\n    function isMaintener(uint256 id, address maintener) external view returns (bool) {\n        return _isMaintener(id, maintener);\n    }\n\n    /**\n     * @dev Function to update a token with the given ID.\n     * @param id ID of the token to be updated\n     * @param metadataHash Metadata file hash\n     * @param transactionFees transaction fees: [lumpSumFees (in WEI), valueProportionalFees (ratio of transfered amount * 10**8), storageFees (in storageCredit * 10**8)]\n     * @param feesRecipients list of addresses receiving transfer fees\n     * @param feesRecipientsPercentage list of percentage, each one for the corresponding feesRecipients\n     * @param minHoldingForCallback minimum holding to propose a callback\n     * @param isPrivate true if holder need approval\n     * @param legalAuthority address of the legal authority\n     */\n    function updateToken(uint256 id,\n                         uint256 metadataHash,\n                         uint256[3] memory transactionFees,\n                         address[] memory feesRecipients,\n                         uint256[] memory feesRecipientsPercentage,\n                         uint256 minHoldingForCallback,\n                         bool isPrivate,\n                         address legalAuthority) external onlyMaintener(id) {\n        require(_tokens[id].supply > 0, \"Unknown token\");\n\n        _setToken(id,\n                  metadataHash,\n                  transactionFees,\n                  feesRecipients,\n                  feesRecipientsPercentage,\n                  minHoldingForCallback,\n                  isPrivate,\n                  legalAuthority);\n\n        emit TokenUpdated(id, metadataHash);\n    }\n\n\n    /****************************\n    INTERNAL FUNCTIONS\n    *****************************/\n\n\n    function _isMaintener(uint256 id, address maintener) internal view returns (bool) {\n        return _tokens[id].holders[maintener].isMaintener || _isOwner();\n    }\n\n}\n",
  "sourcePath": "/home/ouziel/Work/StashBloxContracts/contracts/lib/Maintenable.sol",
  "compiler": {
    "name": "solc",
    "version": "0.7.1+commit.f4a555be.Emscripten.clang"
  },
  "schemaVersion": "3.2.3",
  "updatedAt": "2020-10-22T10:26:15.566Z",
  "devdoc": {
    "kind": "dev",
    "methods": {
      "authorizeMaintener(uint256,address)": {
        "details": "Function to authorize an address to maintain a token.",
        "params": {
          "maintener": "The authorized address"
        }
      },
      "authorizeTokenizer(address)": {
        "details": "Function to authorize an address to create a token.",
        "params": {
          "tokenizer": "The authorized address"
        }
      },
      "averageAge(address,uint256)": {
        "details": "Function to get the average age of the token for the given address.",
        "params": {
          "account": "the address from where to transfer the tokens",
          "id": "The token ID"
        },
        "returns": {
          "_0": "average age in seconds"
        }
      },
      "balanceOf(address,uint256)": {
        "details": "Get the specified address' balance for token with specified ID. Attempting to query the zero account for a balance will result in a revert.",
        "params": {
          "account": "The address of the token holder",
          "id": "ID of the token"
        },
        "returns": {
          "_0": "The account's balance of the token type requested"
        }
      },
      "balanceOfBatch(address[],uint256[])": {
        "details": "Get the balance of multiple account/token pairs. If any of the query accounts is the zero account, this query will revert.",
        "params": {
          "accounts": "The addresses of the token holders",
          "ids": "IDs of the tokens"
        },
        "returns": {
          "_0": "Balances for each account and token id pair"
        }
      },
      "cloneToken(uint256,uint256[],uint256[])": {
        "details": "Function to mint tokens in batch.",
        "params": {
          "id": "Identifier of the template",
          "ids": "list of IDs of the tokens to be minted",
          "metadataHashes": "list of metadata file hashes"
        }
      },
      "createToken(address,uint256,uint256,uint256,uint256,uint256[3],address[],uint256[],uint256,bool,address)": {
        "details": "Function to mint an amount of a token with the given ID.",
        "params": {
          "feesRecipients": "list of addresses receiving transfer fees",
          "feesRecipientsPercentage": "list of percentage, each one for the corresponding feesRecipients",
          "id": "ID of the token to be minted",
          "isPrivate": "true if holder need approval",
          "legalAuthority": "address of the legal authority",
          "metadataHash": "Metadata file hash",
          "minHoldingForCallback": "minimum holding to propose a callback",
          "recipient": "The address that will own the minted tokens",
          "supply": "Amount of the token to be minted",
          "transactionFees": "transaction fees: [lumpSumFees (in WEI), valueProportionalFees (ratio of transfered amount * 10**8), storageFees (in storageCredit * 10**8)]"
        }
      },
      "isApprovedForAll(address,address)": {
        "params": {
          "account": "The account of the Tokens",
          "operator": "Address of authorized operator"
        },
        "returns": {
          "_0": "True if the operator is approved, false if not"
        }
      },
      "isMaintener(uint256,address)": {
        "details": "Function to check if an address is authorized to maintain a token.",
        "params": {
          "id": "the token id",
          "maintener": "The authorized address"
        },
        "returns": {
          "_0": "true if it's a maintener address"
        }
      },
      "isTokenizer(address)": {
        "details": "Function to check if an address is authorized to create a token.",
        "params": {
          "tokenizer": "The authorized address"
        }
      },
      "owner()": {
        "details": "Returns the address of the current owner."
      },
      "revokeMaintener(uint256,address)": {
        "details": "Function to revoke the authorization to maintain a token.",
        "params": {
          "id": "the token id",
          "maintener": "The authorized address"
        }
      },
      "revokeTokenizer(address)": {
        "details": "Function to revoke the authorization to create a token.",
        "params": {
          "tokenizer": "The authorized address"
        }
      },
      "safeBatchTransferFrom(address,address,uint256[],uint256[],bytes)": {
        "details": "Transfers `values` amount(s) of `ids` from the `from` address to the `to` address specified. Caller must be approved to manage the tokens being transferred out of the `from` account. If `to` is a smart contract, will call `onERC1155BatchReceived` on `to` and act appropriately.",
        "params": {
          "data": "Data forwarded to `onERC1155Received` if `to` is a contract receiver",
          "from": "Source address",
          "ids": "IDs of each token type",
          "to": "Target address",
          "values": "Transfer amounts per token type"
        }
      },
      "safeTransferFrom(address,address,uint256,uint256,bytes)": {
        "details": "Transfers `value` amount of an `id` from the `from` address to the `to` address specified. Caller must be approved to manage the tokens being transferred out of the `from` account. If `to` is a smart contract, will call `onERC1155Received` on `to` and act appropriately.",
        "params": {
          "data": "Data forwarded to `onERC1155Received` if `to` is a contract receiver",
          "from": "Source address",
          "id": "ID of the token type",
          "to": "Target address",
          "value": "Transfer amount"
        }
      },
      "setApprovalForAll(address,bool)": {
        "details": "Sets or unsets the approval of a given operator. An operator is allowed to transfer all tokens of the sender on their behalf. Because an account already has operator privileges for itself, this function will revert if the account attempts to set the approval status for itself.",
        "params": {
          "approved": "representing the status of the approval to be set",
          "operator": "address to set the approval"
        }
      },
      "setProxyRegistryAddress(address)": {
        "details": "Function to update the operator whitelist",
        "params": {
          "proxyAddress": "Proxy address"
        }
      },
      "supportsInterface(bytes4)": {
        "params": {
          "_interfaceID": "The interface identifier, as specified in ERC-165"
        },
        "returns": {
          "_0": "`true` if the contract implements `_interfaceID` and"
        }
      },
      "transactionFees(address,uint256,uint256)": {
        "details": "Function to get the transaction price to transfer tokens.",
        "params": {
          "account": "the address from where to transfer the tokens",
          "id": "The token ID",
          "value": "The amount to transfer"
        },
        "returns": {
          "_0": "transfer price"
        }
      },
      "transferOwnership(address)": {
        "details": "Transfers ownership of the contract to a new account (`newOwner`). Can only be called by the current owner."
      },
      "updateToken(uint256,uint256,uint256[3],address[],uint256[],uint256,bool,address)": {
        "details": "Function to update a token with the given ID.",
        "params": {
          "feesRecipients": "list of addresses receiving transfer fees",
          "feesRecipientsPercentage": "list of percentage, each one for the corresponding feesRecipients",
          "id": "ID of the token to be updated",
          "isPrivate": "true if holder need approval",
          "legalAuthority": "address of the legal authority",
          "metadataHash": "Metadata file hash",
          "minHoldingForCallback": "minimum holding to propose a callback",
          "transactionFees": "transaction fees: [lumpSumFees (in WEI), valueProportionalFees (ratio of transfered amount * 10**8), storageFees (in storageCredit * 10**8)]"
        }
      },
      "uri(uint256)": {
        "params": {
          "id": "Token ID"
        },
        "returns": {
          "_0": "URI string"
        }
      }
    },
    "version": 1
  },
  "userdoc": {
    "kind": "user",
    "methods": {
      "isApprovedForAll(address,address)": {
        "notice": "Queries the approval status of an operator for a given account."
      },
      "isTrustedForwarder(address)": {
        "notice": "return if the forwarder is trusted to forward relayed transactions to us. the forwarder is required to verify the sender's signature, and verify the call is not a replay."
      },
      "supportsInterface(bytes4)": {
        "notice": "Query if a contract implements an interface"
      }
    },
    "version": 1
  }
}