{
  "contractName": "Maintenable",
  "abi": [
    {
      "anonymous": false,
      "inputs": [
        {
          "indexed": true,
          "internalType": "address",
          "name": "_owner",
          "type": "address"
        },
        {
          "indexed": true,
          "internalType": "address",
          "name": "_operator",
          "type": "address"
        },
        {
          "indexed": false,
          "internalType": "bool",
          "name": "_approved",
          "type": "bool"
        }
      ],
      "name": "ApprovalForAll",
      "type": "event"
    },
    {
      "anonymous": false,
      "inputs": [
        {
          "indexed": true,
          "internalType": "address",
          "name": "previousOwner",
          "type": "address"
        },
        {
          "indexed": true,
          "internalType": "address",
          "name": "newOwner",
          "type": "address"
        }
      ],
      "name": "OwnershipTransferred",
      "type": "event"
    },
    {
      "anonymous": false,
      "inputs": [
        {
          "indexed": true,
          "internalType": "uint256",
          "name": "_id",
          "type": "uint256"
        },
        {
          "indexed": false,
          "internalType": "uint256",
          "name": "_documentHash",
          "type": "uint256"
        }
      ],
      "name": "TokenUpdated",
      "type": "event"
    },
    {
      "anonymous": false,
      "inputs": [
        {
          "indexed": true,
          "internalType": "address",
          "name": "_operator",
          "type": "address"
        },
        {
          "indexed": true,
          "internalType": "address",
          "name": "_from",
          "type": "address"
        },
        {
          "indexed": true,
          "internalType": "address",
          "name": "_to",
          "type": "address"
        },
        {
          "indexed": false,
          "internalType": "uint256[]",
          "name": "_ids",
          "type": "uint256[]"
        },
        {
          "indexed": false,
          "internalType": "uint256[]",
          "name": "_values",
          "type": "uint256[]"
        }
      ],
      "name": "TransferBatch",
      "type": "event"
    },
    {
      "anonymous": false,
      "inputs": [
        {
          "indexed": true,
          "internalType": "address",
          "name": "_operator",
          "type": "address"
        },
        {
          "indexed": true,
          "internalType": "address",
          "name": "_from",
          "type": "address"
        },
        {
          "indexed": true,
          "internalType": "address",
          "name": "_to",
          "type": "address"
        },
        {
          "indexed": false,
          "internalType": "uint256",
          "name": "_id",
          "type": "uint256"
        },
        {
          "indexed": false,
          "internalType": "uint256",
          "name": "_value",
          "type": "uint256"
        }
      ],
      "name": "TransferSingle",
      "type": "event"
    },
    {
      "anonymous": false,
      "inputs": [
        {
          "indexed": false,
          "internalType": "string",
          "name": "_value",
          "type": "string"
        },
        {
          "indexed": true,
          "internalType": "uint256",
          "name": "_id",
          "type": "uint256"
        }
      ],
      "name": "URI",
      "type": "event"
    },
    {
      "inputs": [
        {
          "internalType": "uint256",
          "name": "",
          "type": "uint256"
        }
      ],
      "name": "_callbacks",
      "outputs": [
        {
          "internalType": "uint256",
          "name": "tokenId",
          "type": "uint256"
        },
        {
          "internalType": "uint256",
          "name": "price",
          "type": "uint256"
        },
        {
          "internalType": "uint256",
          "name": "escrowedAmount",
          "type": "uint256"
        },
        {
          "internalType": "uint256",
          "name": "callCounter",
          "type": "uint256"
        },
        {
          "internalType": "uint256",
          "name": "documentHash",
          "type": "uint256"
        },
        {
          "internalType": "address",
          "name": "caller",
          "type": "address"
        },
        {
          "internalType": "bool",
          "name": "needLegalApproval",
          "type": "bool"
        },
        {
          "internalType": "bool",
          "name": "approvedByLegal",
          "type": "bool"
        },
        {
          "internalType": "bool",
          "name": "refused",
          "type": "bool"
        },
        {
          "internalType": "bool",
          "name": "accepted",
          "type": "bool"
        },
        {
          "internalType": "bool",
          "name": "completed",
          "type": "bool"
        }
      ],
      "stateMutability": "view",
      "type": "function"
    },
    {
      "inputs": [],
      "name": "_config",
      "outputs": [
        {
          "internalType": "uint256",
          "name": "callbackAutoExecuteMaxAddresses",
          "type": "uint256"
        },
        {
          "internalType": "string",
          "name": "baseURI",
          "type": "string"
        }
      ],
      "stateMutability": "view",
      "type": "function"
    },
    {
      "inputs": [
        {
          "internalType": "uint256",
          "name": "",
          "type": "uint256"
        }
      ],
      "name": "_tokens",
      "outputs": [
        {
          "internalType": "uint256",
          "name": "supply",
          "type": "uint256"
        },
        {
          "internalType": "uint256",
          "name": "decimals",
          "type": "uint256"
        },
        {
          "internalType": "uint256",
          "name": "lumpSumTransactionFees",
          "type": "uint256"
        },
        {
          "internalType": "uint256",
          "name": "valueTransactionFees",
          "type": "uint256"
        },
        {
          "internalType": "uint256",
          "name": "minHoldingForCallback",
          "type": "uint256"
        },
        {
          "internalType": "uint256",
          "name": "metadataHash",
          "type": "uint256"
        },
        {
          "internalType": "address",
          "name": "legalAuthority",
          "type": "address"
        },
        {
          "internalType": "bool",
          "name": "isPrivate",
          "type": "bool"
        },
        {
          "internalType": "bool",
          "name": "locked",
          "type": "bool"
        }
      ],
      "stateMutability": "view",
      "type": "function"
    },
    {
      "inputs": [
        {
          "internalType": "address",
          "name": "",
          "type": "address"
        }
      ],
      "name": "_users",
      "outputs": [
        {
          "internalType": "bool",
          "name": "isTokenizer",
          "type": "bool"
        },
        {
          "internalType": "bool",
          "name": "isLocked",
          "type": "bool"
        },
        {
          "internalType": "uint256",
          "name": "ETHBalance",
          "type": "uint256"
        }
      ],
      "stateMutability": "view",
      "type": "function"
    },
    {
      "inputs": [
        {
          "internalType": "address",
          "name": "tokenizer",
          "type": "address"
        }
      ],
      "name": "authorizeTokenizer",
      "outputs": [],
      "stateMutability": "nonpayable",
      "type": "function"
    },
    {
      "inputs": [
        {
          "internalType": "address",
          "name": "account",
          "type": "address"
        },
        {
          "internalType": "uint256",
          "name": "id",
          "type": "uint256"
        }
      ],
      "name": "balanceOf",
      "outputs": [
        {
          "internalType": "uint256",
          "name": "",
          "type": "uint256"
        }
      ],
      "stateMutability": "view",
      "type": "function"
    },
    {
      "inputs": [
        {
          "internalType": "address[]",
          "name": "accounts",
          "type": "address[]"
        },
        {
          "internalType": "uint256[]",
          "name": "ids",
          "type": "uint256[]"
        }
      ],
      "name": "balanceOfBatch",
      "outputs": [
        {
          "internalType": "uint256[]",
          "name": "",
          "type": "uint256[]"
        }
      ],
      "stateMutability": "view",
      "type": "function"
    },
    {
      "inputs": [
        {
          "internalType": "uint256",
          "name": "id",
          "type": "uint256"
        },
        {
          "internalType": "uint256[]",
          "name": "ids",
          "type": "uint256[]"
        },
        {
          "internalType": "uint256[]",
          "name": "metadataHashes",
          "type": "uint256[]"
        }
      ],
      "name": "cloneToken",
      "outputs": [],
      "stateMutability": "nonpayable",
      "type": "function"
    },
    {
      "inputs": [
        {
          "internalType": "address",
          "name": "recipient",
          "type": "address"
        },
        {
          "internalType": "uint256",
          "name": "id",
          "type": "uint256"
        },
        {
          "internalType": "uint256",
          "name": "supply",
          "type": "uint256"
        },
        {
          "internalType": "uint256",
          "name": "decimals",
          "type": "uint256"
        },
        {
          "internalType": "uint256",
          "name": "metadataHash",
          "type": "uint256"
        },
        {
          "internalType": "uint256[3]",
          "name": "transactionFees",
          "type": "uint256[3]"
        },
        {
          "internalType": "address[]",
          "name": "feesRecipients",
          "type": "address[]"
        },
        {
          "internalType": "uint256[]",
          "name": "feesRecipientsPercentage",
          "type": "uint256[]"
        },
        {
          "internalType": "uint256",
          "name": "minHoldingForCallback",
          "type": "uint256"
        },
        {
          "internalType": "bool",
          "name": "isPrivate",
          "type": "bool"
        },
        {
          "internalType": "address",
          "name": "legalAuthority",
          "type": "address"
        }
      ],
      "name": "createToken",
      "outputs": [],
      "stateMutability": "nonpayable",
      "type": "function"
    },
    {
      "inputs": [
        {
          "internalType": "address",
          "name": "account",
          "type": "address"
        },
        {
          "internalType": "address",
          "name": "operator",
          "type": "address"
        }
      ],
      "name": "isApprovedForAll",
      "outputs": [
        {
          "internalType": "bool",
          "name": "",
          "type": "bool"
        }
      ],
      "stateMutability": "view",
      "type": "function"
    },
    {
      "inputs": [
        {
          "internalType": "address",
          "name": "tokenizer",
          "type": "address"
        }
      ],
      "name": "isTokenizer",
      "outputs": [
        {
          "internalType": "bool",
          "name": "",
          "type": "bool"
        }
      ],
      "stateMutability": "view",
      "type": "function"
    },
    {
      "inputs": [],
      "name": "owner",
      "outputs": [
        {
          "internalType": "address",
          "name": "",
          "type": "address"
        }
      ],
      "stateMutability": "view",
      "type": "function"
    },
    {
      "inputs": [
        {
          "internalType": "address",
          "name": "tokenizer",
          "type": "address"
        }
      ],
      "name": "revokeTokenizer",
      "outputs": [],
      "stateMutability": "nonpayable",
      "type": "function"
    },
    {
      "inputs": [
        {
          "internalType": "address",
          "name": "from",
          "type": "address"
        },
        {
          "internalType": "address",
          "name": "to",
          "type": "address"
        },
        {
          "internalType": "uint256[]",
          "name": "ids",
          "type": "uint256[]"
        },
        {
          "internalType": "uint256[]",
          "name": "values",
          "type": "uint256[]"
        },
        {
          "internalType": "bytes",
          "name": "data",
          "type": "bytes"
        }
      ],
      "name": "safeBatchTransferFrom",
      "outputs": [],
      "stateMutability": "payable",
      "type": "function"
    },
    {
      "inputs": [
        {
          "internalType": "address",
          "name": "from",
          "type": "address"
        },
        {
          "internalType": "address",
          "name": "to",
          "type": "address"
        },
        {
          "internalType": "uint256",
          "name": "id",
          "type": "uint256"
        },
        {
          "internalType": "uint256",
          "name": "value",
          "type": "uint256"
        },
        {
          "internalType": "bytes",
          "name": "data",
          "type": "bytes"
        }
      ],
      "name": "safeTransferFrom",
      "outputs": [],
      "stateMutability": "payable",
      "type": "function"
    },
    {
      "inputs": [
        {
          "internalType": "address",
          "name": "operator",
          "type": "address"
        },
        {
          "internalType": "bool",
          "name": "approved",
          "type": "bool"
        }
      ],
      "name": "setApprovalForAll",
      "outputs": [],
      "stateMutability": "nonpayable",
      "type": "function"
    },
    {
      "inputs": [
        {
          "internalType": "address[10]",
          "name": "proxyAddresses",
          "type": "address[10]"
        }
      ],
      "name": "setProxyRegistryAddress",
      "outputs": [],
      "stateMutability": "nonpayable",
      "type": "function"
    },
    {
      "inputs": [
        {
          "internalType": "bytes4",
          "name": "_interfaceID",
          "type": "bytes4"
        }
      ],
      "name": "supportsInterface",
      "outputs": [
        {
          "internalType": "bool",
          "name": "",
          "type": "bool"
        }
      ],
      "stateMutability": "pure",
      "type": "function"
    },
    {
      "inputs": [
        {
          "internalType": "address",
          "name": "account",
          "type": "address"
        },
        {
          "internalType": "uint256",
          "name": "id",
          "type": "uint256"
        },
        {
          "internalType": "uint256",
          "name": "value",
          "type": "uint256"
        }
      ],
      "name": "transactionFees",
      "outputs": [
        {
          "internalType": "uint256",
          "name": "",
          "type": "uint256"
        }
      ],
      "stateMutability": "view",
      "type": "function"
    },
    {
      "inputs": [
        {
          "internalType": "address",
          "name": "newOwner",
          "type": "address"
        }
      ],
      "name": "transferOwnership",
      "outputs": [],
      "stateMutability": "nonpayable",
      "type": "function"
    },
    {
      "inputs": [
        {
          "internalType": "uint256",
          "name": "id",
          "type": "uint256"
        },
        {
          "internalType": "address",
          "name": "maintener",
          "type": "address"
        }
      ],
      "name": "authorizeMaintener",
      "outputs": [],
      "stateMutability": "nonpayable",
      "type": "function"
    },
    {
      "inputs": [
        {
          "internalType": "uint256",
          "name": "id",
          "type": "uint256"
        },
        {
          "internalType": "address",
          "name": "maintener",
          "type": "address"
        }
      ],
      "name": "revokeMaintener",
      "outputs": [],
      "stateMutability": "nonpayable",
      "type": "function"
    },
    {
      "inputs": [
        {
          "internalType": "uint256",
          "name": "id",
          "type": "uint256"
        },
        {
          "internalType": "address",
          "name": "maintener",
          "type": "address"
        }
      ],
      "name": "isMaintener",
      "outputs": [
        {
          "internalType": "bool",
          "name": "",
          "type": "bool"
        }
      ],
      "stateMutability": "view",
      "type": "function"
    },
    {
      "inputs": [
        {
          "internalType": "uint256",
          "name": "id",
          "type": "uint256"
        },
        {
          "internalType": "uint256",
          "name": "metadataHash",
          "type": "uint256"
        },
        {
          "internalType": "uint256[3]",
          "name": "transactionFees",
          "type": "uint256[3]"
        },
        {
          "internalType": "address[]",
          "name": "feesRecipients",
          "type": "address[]"
        },
        {
          "internalType": "uint256[]",
          "name": "feesRecipientsPercentage",
          "type": "uint256[]"
        },
        {
          "internalType": "uint256",
          "name": "minHoldingForCallback",
          "type": "uint256"
        },
        {
          "internalType": "bool",
          "name": "isPrivate",
          "type": "bool"
        },
        {
          "internalType": "address",
          "name": "legalAuthority",
          "type": "address"
        }
      ],
      "name": "updateToken",
      "outputs": [],
      "stateMutability": "nonpayable",
      "type": "function"
    }
  ],
  "bytecode": "0x60806040523480156200001157600080fd5b506200001d3362000023565b620000e0565b6001600160a01b03811662000084576040517f08c379a0000000000000000000000000000000000000000000000000000000008152600401808060200182810382526026815260200180620035046026913960400191505060405180910390fd5b600f546040516001600160a01b038084169216907f8be0079c531659141344cd1fd0a4f28419497f9722a3daafe3b4186f6b6457e090600090a3600f80546001600160a01b0319166001600160a01b0392909216919091179055565b61341480620000f06000396000f3fe60806040526004361061014a5760003560e01c80638aeba37e116100b6578063d41d0aa31161006f578063d41d0aa314610b3a578063e985e9c514610b73578063ed70554d14610bae578063f242432a14610c2c578063f2fde38b14610cbf578063f8a5a07c14610cf25761014a565b80638aeba37e146108865780638da5cb5b146108bf578063a22cb465146108f0578063c02f303c1461092b578063c40b87ae1461095e578063d1660e1814610afb5761014a565b80634392e577116101085780634392e577146104845780634ab0d253146104e55780634e1273f4146106675780635dafec1b146107e75780637627b732146108205780638870147b146108535761014a565b8062fdd58e1461014f57806301ffc9a71461019a5780632eb2c2d6146101e25780632ed42bf71461030b5780633cacd7d61461039f578063414ed0ce146103f2575b600080fd5b34801561015b57600080fd5b506101886004803603604081101561017257600080fd5b506001600160a01b038135169060200135610e29565b60408051918252519081900360200190f35b3480156101a657600080fd5b506101ce600480360360208110156101bd57600080fd5b50356001600160e01b031916610e9e565b604080519115158252519081900360200190f35b610309600480360360a08110156101f857600080fd5b6001600160a01b038235811692602081013590911691810190606081016040820135600160201b81111561022b57600080fd5b82018360208201111561023d57600080fd5b803590602001918460208302840111600160201b8311171561025e57600080fd5b919390929091602081019035600160201b81111561027b57600080fd5b82018360208201111561028d57600080fd5b803590602001918460208302840111600160201b831117156102ae57600080fd5b919390929091602081019035600160201b8111156102cb57600080fd5b8201836020820111156102dd57600080fd5b803590602001918460018302840111600160201b831117156102fe57600080fd5b509092509050610ee5565b005b34801561031757600080fd5b50610320611193565b6040518083815260200180602001828103825283818151815260200191508051906020019080838360005b8381101561036357818101518382015260200161034b565b50505050905090810190601f1680156103905780820380516001836020036101000a031916815260200191505b50935050505060405180910390f35b3480156103ab57600080fd5b506103d2600480360360208110156103c257600080fd5b50356001600160a01b0316611229565b604080519315158452911515602084015282820152519081900360600190f35b3480156103fe57600080fd5b5061041c6004803603602081101561041557600080fd5b503561124f565b604080519b8c5260208c019a909a528a8a019890985260608a019690965260808901949094526001600160a01b0390921660a0880152151560c0870152151560e086015215156101008501521515610120840152151561014083015251908190036101600190f35b34801561049057600080fd5b5061030960048036036101408110156104a857600080fd5b81019080806101400190600a806020026040519081016040528092919082600a602002808284376000920191909152509194506112c29350505050565b3480156104f157600080fd5b50610309600480360361014081101561050957600080fd5b6040805160608181018352843594602081013594810193909260a08401929091840190600390839083908082843760009201919091525091949392602081019250359050600160201b81111561055e57600080fd5b82018360208201111561057057600080fd5b803590602001918460208302840111600160201b8311171561059157600080fd5b9190808060200260200160405190810160405280939291908181526020018383602002808284376000920191909152509295949360208101935035915050600160201b8111156105e057600080fd5b8201836020820111156105f257600080fd5b803590602001918460208302840111600160201b8311171561061357600080fd5b919080806020026020016040519081016040528093929190818152602001838360200280828437600092019190915250929550508235935050506020810135151590604001356001600160a01b031661131a565b34801561067357600080fd5b506107976004803603604081101561068a57600080fd5b810190602081018135600160201b8111156106a457600080fd5b8201836020820111156106b657600080fd5b803590602001918460208302840111600160201b831117156106d757600080fd5b9190808060200260200160405190810160405280939291908181526020018383602002808284376000920191909152509295949360208101935035915050600160201b81111561072657600080fd5b82018360208201111561073857600080fd5b803590602001918460208302840111600160201b8311171561075957600080fd5b919080806020026020016040519081016040528093929190818152602001838360200280828437600092019190915250929550611411945050505050565b60408051602080825283518183015283519192839290830191858101910280838360005b838110156107d35781810151838201526020016107bb565b505050509050019250505060405180910390f35b3480156107f357600080fd5b506101ce6004803603604081101561080a57600080fd5b50803590602001356001600160a01b0316611595565b34801561082c57600080fd5b506103096004803603602081101561084357600080fd5b50356001600160a01b03166115a8565b34801561085f57600080fd5b506103096004803603602081101561087657600080fd5b50356001600160a01b0316611613565b34801561089257600080fd5b50610309600480360360408110156108a957600080fd5b50803590602001356001600160a01b031661167b565b3480156108cb57600080fd5b506108d46116f9565b604080516001600160a01b039092168252519081900360200190f35b3480156108fc57600080fd5b506103096004803603604081101561091357600080fd5b506001600160a01b0381351690602001351515611708565b34801561093757600080fd5b506101ce6004803603602081101561094e57600080fd5b50356001600160a01b03166117be565b34801561096a57600080fd5b5061030960048036036101a081101561098257600080fd5b60408051606081810183526001600160a01b03853516946020810135949381013593828201359360808301359391830192916101008301919060a0840190600390839083908082843760009201919091525091949392602081019250359050600160201b8111156109f257600080fd5b820183602082011115610a0457600080fd5b803590602001918460208302840111600160201b83111715610a2557600080fd5b9190808060200260200160405190810160405280939291908181526020018383602002808284376000920191909152509295949360208101935035915050600160201b811115610a7457600080fd5b820183602082011115610a8657600080fd5b803590602001918460208302840111600160201b83111715610aa757600080fd5b919080806020026020016040519081016040528093929190818152602001838360200280828437600092019190915250929550508235935050506020810135151590604001356001600160a01b03166117c9565b348015610b0757600080fd5b5061018860048036036060811015610b1e57600080fd5b506001600160a01b038135169060208101359060400135611888565b348015610b4657600080fd5b5061030960048036036040811015610b5d57600080fd5b50803590602001356001600160a01b031661189d565b348015610b7f57600080fd5b506101ce60048036036040811015610b9657600080fd5b506001600160a01b0381358116916020013516611918565b348015610bba57600080fd5b50610bd860048036036020811015610bd157600080fd5b5035611959565b60408051998a5260208a0198909852888801969096526060880194909452608087019290925260a08601526001600160a01b031660c0850152151560e0840152151561010083015251908190036101200190f35b610309600480360360a0811015610c4257600080fd5b6001600160a01b03823581169260208101359091169160408201359160608101359181019060a081016080820135600160201b811115610c8157600080fd5b820183602082011115610c9357600080fd5b803590602001918460018302840111600160201b83111715610cb457600080fd5b5090925090506119b5565b348015610ccb57600080fd5b5061030960048036036020811015610ce257600080fd5b50356001600160a01b0316611b0c565b348015610cfe57600080fd5b5061030960048036036060811015610d1557600080fd5b81359190810190604081016020820135600160201b811115610d3657600080fd5b820183602082011115610d4857600080fd5b803590602001918460208302840111600160201b83111715610d6957600080fd5b9190808060200260200160405190810160405280939291908181526020018383602002808284376000920191909152509295949360208101935035915050600160201b811115610db857600080fd5b820183602082011115610dca57600080fd5b803590602001918460208302840111600160201b83111715610deb57600080fd5b919080806020026020016040519081016040528093929190818152602001838360200280828437600092019190915250929550611b5f945050505050565b60006001600160a01b038316610e705760405162461bcd60e51b815260040180806020018281038252602b8152602001806131c9602b913960400191505060405180910390fd5b506000818152600d602090815260408083206001600160a01b03861684526007019091529020545b92915050565b60006001600160e01b031982166301ffc9a760e01b1480610ecf57506001600160e01b03198216636cdb3d1360e11b145b15610edc57506001610ee0565b5060005b919050565b848314610f235760405162461bcd60e51b815260040180806020018281038252602e815260200180613380602e913960400191505060405180910390fd5b6001600160a01b038716610f685760405162461bcd60e51b815260040180806020018281038252602881526020018061321a6028913960400191505060405180910390fd5b6001600160a01b038816331480610f8a5750610f848833611918565b15156001145b610fc55760405162461bcd60e51b81526004018080602001828103825260378152602001806133496037913960400191505060405180910390fd5b611034888888888080602002602001604051908101604052809392919081815260200183836020028082843760009201919091525050604080516020808c0282810182019093528b82529093508b92508a918291850190849080828437600092019190915250611d0292505050565b866001600160a01b0316886001600160a01b0316336001600160a01b03167f4a39dc06d4c0dbc64b70af90fd698a233a518aa5d07e595d983b8c0526c8f7fb898989896040518080602001806020018381038352878782818152602001925060200280828437600083820152601f01601f19169091018481038352858152602090810191508690860280828437600083820152604051601f909101601f19169092018290039850909650505050505050a461118933898989898080602002602001604051908101604052809392919081815260200183836020028082843760009201919091525050604080516020808d0282810182019093528c82529093508c92508b91829185019084908082843760009201919091525050604080516020601f8c018190048102820181019092528a815292508a9150899081908401838280828437600092019190915250611dbc92505050565b5050505050505050565b6000805460018054604080516020600284861615610100026000190190941693909304601f8101849004840282018401909252818152939493929183018282801561121f5780601f106111f45761010080835404028352916020019161121f565b820191906000526020600020905b81548152906001019060200180831161120257829003601f168201915b5050505050905082565b600c602052600090815260409020805460019091015460ff808316926101009004169083565b600e6020526000908152604090208054600182015460028301546003840154600485015460059095015493949293919290916001600160a01b0381169060ff600160a01b8204811691600160a81b8104821691600160b01b8204811691600160b81b8104821691600160c01b909104168b565b6112ca611fad565b611309576040805162461bcd60e51b81526020600482018190526024820152600080516020613329833981519152604482015290519081900360640190fd5b611316600282600a613074565b5050565b876113258133611fbe565b611370576040805162461bcd60e51b815260206004820152601760248201527624b739bab33334b1b4b2b73a103832b936b4b9b9b4b7b760491b604482015290519081900360640190fd5b6000898152600d60205260409020546113c0576040805162461bcd60e51b815260206004820152600d60248201526c2ab735b737bbb7103a37b5b2b760991b604482015290519081900360640190fd5b6113d08989898989898989611ff8565b6040805189815290518a917f199acc06cd2556bbc146fa3cb578799037dffcbf256eca32aaf2ef656925d2fd919081900360200190a2505050505050505050565b606081518351146114535760405162461bcd60e51b815260040180806020018281038252603081526020018061326e6030913960400191505060405180910390fd5b6060835167ffffffffffffffff8111801561146d57600080fd5b50604051908082528060200260200182016040528015611497578160200160208202803683370190505b50905060005b845181101561158d5760006001600160a01b03168582815181106114bd57fe5b60200260200101516001600160a01b0316141561150b5760405162461bcd60e51b81526004018080602001828103825260348152602001806132d46034913960400191505060405180910390fd5b600d600085838151811061151b57fe5b60200260200101518152602001908152602001600020600701600086838151811061154257fe5b60200260200101516001600160a01b03166001600160a01b031681526020019081526020016000206000015482828151811061157a57fe5b602090810291909101015260010161149d565b509392505050565b60006115a18383611fbe565b9392505050565b6115b0611fad565b6115ef576040805162461bcd60e51b81526020600482018190526024820152600080516020613329833981519152604482015290519081900360640190fd5b6001600160a01b03166000908152600c60205260409020805460ff19166001179055565b61161b611fad565b61165a576040805162461bcd60e51b81526020600482018190526024820152600080516020613329833981519152604482015290519081900360640190fd5b6001600160a01b03166000908152600c60205260409020805460ff19169055565b611683611fad565b6116c2576040805162461bcd60e51b81526020600482018190526024820152600080516020613329833981519152604482015290519081900360640190fd5b6000918252600d602090815260408084206001600160a01b039093168452600790920190529020600201805460ff19166001179055565b600f546001600160a01b031690565b336001600160a01b03831614156117505760405162461bcd60e51b815260040180806020018281038252602c815260200180613242602c913960400191505060405180910390fd5b3360008181526010602090815260408083206001600160a01b03871680855290835292819020805460ff1916861515908117909155815190815290519293927f17307eab39ab6107e8899845ad3d59bd9653f200f220920489ca2b5937696c31929181900390910190a35050565b6000610e988261219c565b6117d23361219c565b61181d576040805162461bcd60e51b815260206004820152601760248201527624b739bab33334b1b4b2b73a103832b936b4b9b9b4b7b760491b604482015290519081900360640190fd5b6118308b8b8b8b8b8b8b8b8b8b8b6121c6565b604080518b8152602081018b905281516001600160a01b038e169260009233927fc3d58168c5ae7397731d063d5bbf3d657854427343f4c083240f7aacaa2d0f62929181900390910190a45050505050505050505050565b600061189584848461232f565b949350505050565b6118a5611fad565b6118e4576040805162461bcd60e51b81526020600482018190526024820152600080516020613329833981519152604482015290519081900360640190fd5b6000918252600d602090815260408084206001600160a01b039093168452600790920190529020600201805460ff19169055565b60006119248383612517565b806115a15750506001600160a01b03918216600090815260106020908152604080832093909416825291909152205460ff1690565b600d60205260009081526040902080546001820154600283015460038401546004850154600586015460069096015494959394929391929091906001600160a01b0381169060ff600160a01b8204811691600160a81b90041689565b6001600160a01b0385166119fa5760405162461bcd60e51b815260040180806020018281038252602881526020018061321a6028913960400191505060405180910390fd5b6001600160a01b038616331480611a1c5750611a168633611918565b15156001145b611a575760405162461bcd60e51b81526004018080602001828103825260378152602001806133496037913960400191505060405180910390fd5b611a63868686866125fe565b846001600160a01b0316866001600160a01b0316336001600160a01b03167fc3d58168c5ae7397731d063d5bbf3d657854427343f4c083240f7aacaa2d0f628787604051808381526020018281526020019250505060405180910390a4611b04338787878787878080601f01602080910402602001604051908101604052809392919081815260200183838082843760009201919091525061267692505050565b505050505050565b611b14611fad565b611b53576040805162461bcd60e51b81526020600482018190526024820152600080516020613329833981519152604482015290519081900360640190fd5b611b5c816127eb565b50565b611b683361219c565b611bb3576040805162461bcd60e51b815260206004820152601760248201527624b739bab33334b1b4b2b73a103832b936b4b9b9b4b7b760491b604482015290519081900360640190fd5b6000838152600d602052604090205415801590611bd1575080518251145b611c16576040805162461bcd60e51b8152602060048201526011602482015270496e76616c696420617267756d656e747360781b604482015290519081900360640190fd5b60005b8251811015611cfc57611c5384848381518110611c3257fe5b6020026020010151848481518110611c4657fe5b602002602001015161288c565b6000848152600d602052604081206008018054909190611c6f57fe5b600091825260208220015484516001600160a01b03909116919033907fc3d58168c5ae7397731d063d5bbf3d657854427343f4c083240f7aacaa2d0f6290879086908110611cb957fe5b6020026020010151600d60008a815260200190815260200160002060000154604051808381526020018281526020019250505060405180910390a4600101611c19565b50505050565b6000803411611d2c576001600160a01b0385166000908152600c6020526040902060010154611d2e565b345b905060005b8351811015611daa57611da0611d718787878581518110611d5057fe5b6020026020010151878681518110611d6457fe5b6020026020010151612a2e565b60408051808201909152601081526f092dce6eaccccd2c6d2cadce8408aa8960831b6020820152849190612b8b565b9150600101611d33565b50611db58582612c22565b5050505050565b611dce846001600160a01b0316612ca3565b15611b045763bc197c8160e01b6001600160e01b031916846001600160a01b031663bc197c8188888787876040518663ffffffff1660e01b815260040180866001600160a01b03168152602001856001600160a01b03168152602001806020018060200180602001848103845287818151815260200191508051906020019060200280838360005b83811015611e6e578181015183820152602001611e56565b50505050905001848103835286818151815260200191508051906020019060200280838360005b83811015611ead578181015183820152602001611e95565b50505050905001848103825285818151815260200191508051906020019080838360005b83811015611ee9578181015183820152602001611ed1565b50505050905090810190601f168015611f165780820380516001836020036101000a031916815260200191505b5098505050505050505050602060405180830381600087803b158015611f3b57600080fd5b505af1158015611f4f573d6000803e3d6000fd5b505050506040513d6020811015611f6557600080fd5b50516001600160e01b03191614611b045760405162461bcd60e51b815260040180806020018281038252603681526020018061329e6036913960400191505060405180910390fd5b600f546001600160a01b0316331490565b6000828152600d602090815260408083206001600160a01b038516845260070190915281206002015460ff16806115a157506115a1611fad565b6000805b85518110156120285785818151811061201157fe5b602002602001015182019150806001019050611ffc565b5060008651118015612038575060015b8015612045575080612710145b8015612052575061271084105b612097576040805162461bcd60e51b8152602060048201526011602482015270496e76616c696420617267756d656e747360781b604482015290519081900360640190fd5b6000898152600d60209081526040808320600581018c90558a516002808301919091558b840151600383015582518084018452428152928c015183850152600b9091018054600181018255908552929093206120f79392830201916130cc565b506000898152600d60209081526040909120875161211d92600990920191890190613106565b506000898152600d60209081526040909120865161214392600a9092019188019061315a565b50506000978852600d602052604090972060048101929092556006909101805460ff60a01b1916600160a01b92151592909202919091176001600160a01b0319166001600160a01b039096169590951790945550505050565b6001600160a01b0381166000908152600c602052604081205460ff1680610e985750610e98611fad565b60008a8152600d60205260409020541580156121e25750600089115b612227576040805162461bcd60e51b8152602060048201526011602482015270496e76616c696420617267756d656e747360781b604482015290519081900360640190fd5b88600d60008c81526020019081526020016000206000018190555087600d60008c8152602001908152602001600020600101819055506001600d60008c81526020019081526020016000206007016000336001600160a01b03166001600160a01b0316815260200190815260200160002060020160006101000a81548160ff0219169083151502179055506001600d60008c815260200190815260200160002060070160008d6001600160a01b03166001600160a01b0316815260200190815260200160002060020160026101000a81548160ff0219169083151502179055506123178a88888888888888611ff8565b6123228b8b8b612cda565b5050505050505050505050565b6000828152600d60205260408120600b015481904290600019015b6000868152600d60205260408120600b0180548390811061236757fe5b60009182526020822060029091020101546000888152600d60205260408120600b01805492935090918490811061239a57fe5b90600052602060002090600202016001600281106123b457fe5b01546000898152600d602090815260408083206001600160a01b038e168452600701909152812060010154919250908311612457576000898152600d602090815260408083206001600160a01b038e16845260070190915290206001015461242c906201518090612426908890612ed8565b90612f1a565b905080612437575060015b61244b886124458385612f5c565b90612f5c565b86019550505050612496565b612468620151806124268786612ed8565b905080612473575060015b9193508391612486886124458385612f5c565b909501945050506000190161234a565b506000858152600d60205260409020600101546124b7908390600a0a612f1a565b6000868152600d6020526040812060030154919350906124e2906305f5e10090612426908890612f5c565b6000878152600d602052604090206002015490915061250c906125059083612fb5565b8490612fb5565b979650505050505050565b6000805b600a8110156125f4576000600282600a811061253357fe5b01546001600160a01b0316146125ec576000600282600a811061255257fe5b01546040805163c455279160e01b81526001600160a01b0388811660048301529151928216935090861691839163c4552791916024808301926020929190829003018186803b1580156125a457600080fd5b505afa1580156125b8573d6000803e3d6000fd5b505050506040513d60208110156125ce57600080fd5b50516001600160a01b031614156125ea57600192505050610e98565b505b60010161251b565b5060009392505050565b6000803411612628576001600160a01b0385166000908152600c602052604090206001015461262a565b345b905061266a61263b86868686612a2e565b60408051808201909152601081526f092dce6eaccccd2c6d2cadce8408aa8960831b6020820152839190612b8b565b9050611db58582612c22565b612688846001600160a01b0316612ca3565b15611b045763f23a6e6160e01b6001600160e01b031916846001600160a01b031663f23a6e6188888787876040518663ffffffff1660e01b815260040180866001600160a01b03168152602001856001600160a01b0316815260200184815260200183815260200180602001828103825283818151815260200191508051906020019080838360005b83811015612729578181015183820152602001612711565b50505050905090810190601f1680156127565780820380516001836020036101000a031916815260200191505b509650505050505050602060405180830381600087803b15801561277957600080fd5b505af115801561278d573d6000803e3d6000fd5b505050506040513d60208110156127a357600080fd5b50516001600160e01b03191614611b045760405162461bcd60e51b81526004018080602001828103825260318152602001806133ae6031913960400191505060405180910390fd5b6001600160a01b0381166128305760405162461bcd60e51b81526004018080602001828103825260268152602001806131f46026913960400191505060405180910390fd5b600f546040516001600160a01b038084169216907f8be0079c531659141344cd1fd0a4f28419497f9722a3daafe3b4186f6b6457e090600090a3600f80546001600160a01b0319166001600160a01b0392909216919091179055565b6000838152600d602052604081206008018054612a2992906128aa57fe5b6000918252602080832090910154868352600d8083526040808520805460018201548351606081018552600284015481526003840154818901528c895294909652600b90910180546001600160a01b03909516968a96929592948a94909390840192919061291457fe5b906000526020600020906002020160016002811061292e57fe5b0154905260008a8152600d60209081526040918290206009018054835181840281018401909452808452909183018282801561299357602002820191906000526020600020905b81546001600160a01b03168152600190910190602001808311612975575b50505060008d8152600d6020908152604091829020600a01805483518184028101840190945280845292945092508301828280156129f057602002820191906000526020600020905b8154815260200190600101908083116129dc575b50505060008e8152600d60205260409020600481015460069091015490925060ff600160a01b82041691506001600160a01b03166121c6565b505050565b6040805180820182526014815273496e73756666696369656e742062616c616e636560601b6020808301919091526000858152600d82528381206001600160a01b038916825260070190915291822054612a89918490612b8b565b6000848152600d602090815260408083206001600160a01b038a168452600701909152902055612aba848484612cda565b612ac585848461232f565b905060005b6000848152600d6020526040902060090154811015612b82576000848152600d60205260408120600901805483908110612b0057fe5b6000918252602080832090910154878352600d90915260408220600a0180546001600160a01b0390921693509084908110612b3757fe5b6000918252602090912001549050612b556127106124268684612f5c565b6001600160a01b039092166000908152600c60205260409020600190810180549093019092555001612aca565b50949350505050565b60008184841115612c1a5760405162461bcd60e51b81526004018080602001828103825283818151815260200191508051906020019080838360005b83811015612bdf578181015183820152602001612bc7565b50505050905090810190601f168015612c0c5780820380516001836020036101000a031916815260200191505b509250505060405180910390fd5b505050900390565b600034118015612c325750600081115b15612c7e576001600160a01b0382166000908152600c6020526040902060010154612c5d9082612fb5565b6001600160a01b0383166000908152600c6020526040902060010155611316565b34611316576001600160a01b03919091166000908152600c6020526040902060010155565b6000813f7fc5d2460186f7233c927e7db2dcc703c0e500b653ca82273b7bfad8045d85a47081158015906118955750141592915050565b6000828152600d602090815260408083206001600160a01b0387168452600701909152812054612d0a9083612fb5565b6000848152600d602090815260408083206001600160a01b0389168452600701909152902054909150612e07576000838152600d602090815260408083206001600160a01b0388168452600701909152902060020154610100900460ff16612dd6576001600160a01b0384166000818152600c6020908152604080832060020180546001818101835591855283852001889055878452600d83529083206008810180549283018155845282842090910180546001600160a01b0319168517905592909152600790910190525b6000838152600d602090815260408083206001600160a01b0388168452600701909152902042600190910155612ea8565b6000838152600d602090815260408083206001600160a01b0388168452600701909152812060010154612e3b904290612ed8565b6000858152600d602090815260408083206001600160a01b038a16845260070190915281205491925090612e759084906124269085612f5c565b6000868152600d602090815260408083206001600160a01b038b1684526007019091529020429190910360019091015550505b6000928352600d602090815260408085206001600160a01b03909616855260079095019052929091209190915550565b60006115a183836040518060400160405280601e81526020017f536166654d6174683a207375627472616374696f6e206f766572666c6f770000815250612b8b565b60006115a183836040518060400160405280601a81526020017f536166654d6174683a206469766973696f6e206279207a65726f00000000000081525061300f565b600082612f6b57506000610e98565b82820282848281612f7857fe5b04146115a15760405162461bcd60e51b81526004018080602001828103825260218152602001806133086021913960400191505060405180910390fd5b6000828201838110156115a1576040805162461bcd60e51b815260206004820152601b60248201527f536166654d6174683a206164646974696f6e206f766572666c6f770000000000604482015290519081900360640190fd5b6000818361305e5760405162461bcd60e51b8152602060048201818152835160248401528351909283926044909101919085019080838360008315612bdf578181015183820152602001612bc7565b50600083858161306a57fe5b0495945050505050565b82600a81019282156130bc579160200282015b828111156130bc57825182546001600160a01b0319166001600160a01b03909116178255602090920191600190910190613087565b506130c8929150613194565b5090565b82600281019282156130fa579160200282015b828111156130fa5782518255916020019190600101906130df565b506130c89291506131b3565b8280548282559060005260206000209081019282156130bc57916020028201828111156130bc57825182546001600160a01b0319166001600160a01b03909116178255602090920191600190910190613087565b8280548282559060005260206000209081019282156130fa57916020028201828111156130fa5782518255916020019190600101906130df565b5b808211156130c85780546001600160a01b0319168155600101613195565b5b808211156130c857600081556001016131b456fe455243313135353a2062616c616e636520717565727920666f7220746865207a65726f20616464726573734f776e61626c653a206e6577206f776e657220697320746865207a65726f2061646472657373455243313135353a207461726765742061646472657373206d757374206265206e6f6e2d7a65726f455243313135353a2063616e6e6f742073657420617070726f76616c2073746174757320666f722073656c66455243313135353a206163636f756e747320616e6420494473206d75737420686176652073616d65206c656e67746873455243313135353a20676f7420756e6b6e6f776e2076616c75652066726f6d206f6e4552433131353542617463685265636569766564455243313135353a20736f6d65206164647265737320696e2062617463682062616c616e6365207175657279206973207a65726f536166654d6174683a206d756c7469706c69636174696f6e206f766572666c6f774f776e61626c653a2063616c6c6572206973206e6f7420746865206f776e6572455243313135353a206e656564206f70657261746f7220617070726f76616c20666f7220337264207061727479207472616e7366657273455243313135353a2049447320616e642076616c756573206d75737420686176652073616d65206c656e67746873455243313135353a20676f7420756e6b6e6f776e2076616c75652066726f6d206f6e455243313135355265636569766564a264697066735822122051e878d8b307a0b868040fb9379088703de08ecca8e9860d278283045994a95264736f6c634300070100334f776e61626c653a206e6577206f776e657220697320746865207a65726f2061646472657373",
  "immutableReferences": {},
  "source": "// SPDX-License-Identifier: GPL-3.0-or-later\npragma solidity ^0.7.1;\n\nimport './Mintable.sol';\n\ncontract Maintenable is Mintable {\n\n\n    /****************************\n    EVENTS\n    *****************************/\n\n\n    event TokenUpdated(uint256 indexed _id, uint256 _documentHash);\n\n\n    /****************************\n    MODIFIERS\n    *****************************/\n\n\n    modifier onlyMaintener(uint256 id) {\n        require(_isMaintener(id, msg.sender), \"Insufficient permission\");\n        _;\n    }\n\n\n    /****************************\n    EXTERNAL FUNCTIONS\n    *****************************/\n\n\n    /**\n     * @dev Function to authorize an address to maintain a token.\n     * @param maintener The authorized address\n     */\n    function authorizeMaintener(uint256 id, address maintener) external onlyOwner {\n        _tokens[id].holders[maintener].isMaintener = true;\n    }\n\n    /**\n     * @dev Function to revoke the authorization to maintain a token.\n     * @param id the token id\n     * @param maintener The authorized address\n     */\n    function revokeMaintener(uint256 id, address maintener) external onlyOwner {\n        _tokens[id].holders[maintener].isMaintener = false;\n    }\n\n    /**\n     * @dev Function to check if an address is authorized to maintain a token.\n     * @param id the token id\n     * @param maintener The authorized address\n     * @return true if it's a maintener address\n     */\n    function isMaintener(uint256 id, address maintener) external view returns (bool) {\n        return _isMaintener(id, maintener);\n    }\n\n    /**\n     * @dev Function to update a token with the given ID.\n     * @param id ID of the token to be updated\n     * @param metadataHash Metadata file hash\n     * @param transactionFees transaction fees: [lumpSumFees (in WEI), valueProportionalFees (ratio of transfered amount * 10**8), storageFees (in storageCredit * 10**8)]\n     * @param feesRecipients list of addresses receiving transfer fees\n     * @param feesRecipientsPercentage list of percentage, each one for the corresponding feesRecipients\n     * @param minHoldingForCallback minimum holding to propose a callback\n     * @param isPrivate true if holder need approval\n     * @param legalAuthority address of the legal authority\n     */\n    function updateToken(uint256 id,\n                         uint256 metadataHash,\n                         uint256[3] memory transactionFees,\n                         address[] memory feesRecipients,\n                         uint256[] memory feesRecipientsPercentage,\n                         uint256 minHoldingForCallback,\n                         bool isPrivate,\n                         address legalAuthority) external onlyMaintener(id) {\n        require(_tokens[id].supply > 0, \"Unknown token\");\n\n        _setToken(id,\n                  metadataHash,\n                  transactionFees,\n                  feesRecipients,\n                  feesRecipientsPercentage,\n                  minHoldingForCallback,\n                  isPrivate,\n                  legalAuthority);\n\n        emit TokenUpdated(id, metadataHash);\n    }\n\n\n    /****************************\n    INTERNAL FUNCTIONS\n    *****************************/\n\n\n    function _isMaintener(uint256 id, address maintener) internal view returns (bool) {\n        return _tokens[id].holders[maintener].isMaintener || _isOwner();\n    }\n\n}\n",
  "sourcePath": "/home/ouziel/Work/StashBloxContracts/contracts/lib/Maintenable.sol",
  "compiler": {
    "name": "solc",
    "version": "0.7.1+commit.f4a555be.Emscripten.clang"
  },
  "schemaVersion": "3.2.3",
  "updatedAt": "2020-10-20T21:56:14.890Z",
  "devdoc": {
    "kind": "dev",
    "methods": {
      "authorizeMaintener(uint256,address)": {
        "details": "Function to authorize an address to maintain a token.",
        "params": {
          "maintener": "The authorized address"
        }
      },
      "authorizeTokenizer(address)": {
        "details": "Function to authorize an address to create a token.",
        "params": {
          "tokenizer": "The authorized address"
        }
      },
      "balanceOf(address,uint256)": {
        "details": "Get the specified address' balance for token with specified ID. Attempting to query the zero account for a balance will result in a revert.",
        "params": {
          "account": "The address of the token holder",
          "id": "ID of the token"
        },
        "returns": {
          "_0": "The account's balance of the token type requested"
        }
      },
      "balanceOfBatch(address[],uint256[])": {
        "details": "Get the balance of multiple account/token pairs. If any of the query accounts is the zero account, this query will revert.",
        "params": {
          "accounts": "The addresses of the token holders",
          "ids": "IDs of the tokens"
        },
        "returns": {
          "_0": "Balances for each account and token id pair"
        }
      },
      "cloneToken(uint256,uint256[],uint256[])": {
        "details": "Function to mint tokens in batch.",
        "params": {
          "id": "Identifier of the template",
          "ids": "list of IDs of the tokens to be minted",
          "metadataHashes": "list of metadata file hashes"
        }
      },
      "createToken(address,uint256,uint256,uint256,uint256,uint256[3],address[],uint256[],uint256,bool,address)": {
        "details": "Function to mint an amount of a token with the given ID.",
        "params": {
          "feesRecipients": "list of addresses receiving transfer fees",
          "feesRecipientsPercentage": "list of percentage, each one for the corresponding feesRecipients",
          "id": "ID of the token to be minted",
          "isPrivate": "true if holder need approval",
          "legalAuthority": "address of the legal authority",
          "metadataHash": "Metadata file hash",
          "minHoldingForCallback": "minimum holding to propose a callback",
          "recipient": "The address that will own the minted tokens",
          "supply": "Amount of the token to be minted",
          "transactionFees": "transaction fees: [lumpSumFees (in WEI), valueProportionalFees (ratio of transfered amount * 10**8), storageFees (in storageCredit * 10**8)]"
        }
      },
      "isApprovedForAll(address,address)": {
        "params": {
          "account": "The account of the Tokens",
          "operator": "Address of authorized operator"
        },
        "returns": {
          "_0": "True if the operator is approved, false if not"
        }
      },
      "isMaintener(uint256,address)": {
        "details": "Function to check if an address is authorized to maintain a token.",
        "params": {
          "id": "the token id",
          "maintener": "The authorized address"
        },
        "returns": {
          "_0": "true if it's a maintener address"
        }
      },
      "isTokenizer(address)": {
        "details": "Function to check if an address is authorized to create a token.",
        "params": {
          "tokenizer": "The authorized address"
        }
      },
      "owner()": {
        "details": "Returns the address of the current owner."
      },
      "revokeMaintener(uint256,address)": {
        "details": "Function to revoke the authorization to maintain a token.",
        "params": {
          "id": "the token id",
          "maintener": "The authorized address"
        }
      },
      "revokeTokenizer(address)": {
        "details": "Function to revoke the authorization to create a token.",
        "params": {
          "tokenizer": "The authorized address"
        }
      },
      "safeBatchTransferFrom(address,address,uint256[],uint256[],bytes)": {
        "details": "Transfers `values` amount(s) of `ids` from the `from` address to the `to` address specified. Caller must be approved to manage the tokens being transferred out of the `from` account. If `to` is a smart contract, will call `onERC1155BatchReceived` on `to` and act appropriately.",
        "params": {
          "data": "Data forwarded to `onERC1155Received` if `to` is a contract receiver",
          "from": "Source address",
          "ids": "IDs of each token type",
          "to": "Target address",
          "values": "Transfer amounts per token type"
        }
      },
      "safeTransferFrom(address,address,uint256,uint256,bytes)": {
        "details": "Transfers `value` amount of an `id` from the `from` address to the `to` address specified. Caller must be approved to manage the tokens being transferred out of the `from` account. If `to` is a smart contract, will call `onERC1155Received` on `to` and act appropriately.",
        "params": {
          "data": "Data forwarded to `onERC1155Received` if `to` is a contract receiver",
          "from": "Source address",
          "id": "ID of the token type",
          "to": "Target address",
          "value": "Transfer amount"
        }
      },
      "setApprovalForAll(address,bool)": {
        "details": "Sets or unsets the approval of a given operator. An operator is allowed to transfer all tokens of the sender on their behalf. Because an account already has operator privileges for itself, this function will revert if the account attempts to set the approval status for itself.",
        "params": {
          "approved": "representing the status of the approval to be set",
          "operator": "address to set the approval"
        }
      },
      "setProxyRegistryAddress(address[10])": {
        "details": "Function to update the operator whitelist",
        "params": {
          "proxyAddresses": "List of addresses"
        }
      },
      "supportsInterface(bytes4)": {
        "params": {
          "_interfaceID": "The interface identifier, as specified in ERC-165"
        },
        "returns": {
          "_0": "`true` if the contract implements `_interfaceID` and"
        }
      },
      "transactionFees(address,uint256,uint256)": {
        "details": "Function to get the transaction price to transfer tokens.",
        "params": {
          "account": "the address from where to transfer the tokens",
          "id": "The token ID",
          "value": "The amount to transfer"
        }
      },
      "transferOwnership(address)": {
        "details": "Transfers ownership of the contract to a new account (`newOwner`). Can only be called by the current owner."
      },
      "updateToken(uint256,uint256,uint256[3],address[],uint256[],uint256,bool,address)": {
        "details": "Function to update a token with the given ID.",
        "params": {
          "feesRecipients": "list of addresses receiving transfer fees",
          "feesRecipientsPercentage": "list of percentage, each one for the corresponding feesRecipients",
          "id": "ID of the token to be updated",
          "isPrivate": "true if holder need approval",
          "legalAuthority": "address of the legal authority",
          "metadataHash": "Metadata file hash",
          "minHoldingForCallback": "minimum holding to propose a callback",
          "transactionFees": "transaction fees: [lumpSumFees (in WEI), valueProportionalFees (ratio of transfered amount * 10**8), storageFees (in storageCredit * 10**8)]"
        }
      }
    },
    "version": 1
  },
  "userdoc": {
    "kind": "user",
    "methods": {
      "isApprovedForAll(address,address)": {
        "notice": "Queries the approval status of an operator for a given account."
      },
      "supportsInterface(bytes4)": {
        "notice": "Query if a contract implements an interface"
      }
    },
    "version": 1
  }
}