{
  "contractName": "Maintenable",
  "abi": [
    {
      "anonymous": false,
      "inputs": [
        {
          "indexed": true,
          "internalType": "address",
          "name": "_owner",
          "type": "address"
        },
        {
          "indexed": true,
          "internalType": "address",
          "name": "_operator",
          "type": "address"
        },
        {
          "indexed": false,
          "internalType": "bool",
          "name": "_approved",
          "type": "bool"
        }
      ],
      "name": "ApprovalForAll",
      "type": "event"
    },
    {
      "anonymous": false,
      "inputs": [
        {
          "indexed": true,
          "internalType": "address",
          "name": "previousOwner",
          "type": "address"
        },
        {
          "indexed": true,
          "internalType": "address",
          "name": "newOwner",
          "type": "address"
        }
      ],
      "name": "OwnershipTransferred",
      "type": "event"
    },
    {
      "anonymous": false,
      "inputs": [
        {
          "indexed": true,
          "internalType": "uint256",
          "name": "_id",
          "type": "uint256"
        },
        {
          "indexed": false,
          "internalType": "uint256",
          "name": "_documentHash",
          "type": "uint256"
        }
      ],
      "name": "TokenUpdated",
      "type": "event"
    },
    {
      "anonymous": false,
      "inputs": [
        {
          "indexed": true,
          "internalType": "address",
          "name": "_operator",
          "type": "address"
        },
        {
          "indexed": true,
          "internalType": "address",
          "name": "_from",
          "type": "address"
        },
        {
          "indexed": true,
          "internalType": "address",
          "name": "_to",
          "type": "address"
        },
        {
          "indexed": false,
          "internalType": "uint256[]",
          "name": "_ids",
          "type": "uint256[]"
        },
        {
          "indexed": false,
          "internalType": "uint256[]",
          "name": "_values",
          "type": "uint256[]"
        }
      ],
      "name": "TransferBatch",
      "type": "event"
    },
    {
      "anonymous": false,
      "inputs": [
        {
          "indexed": true,
          "internalType": "address",
          "name": "_operator",
          "type": "address"
        },
        {
          "indexed": true,
          "internalType": "address",
          "name": "_from",
          "type": "address"
        },
        {
          "indexed": true,
          "internalType": "address",
          "name": "_to",
          "type": "address"
        },
        {
          "indexed": false,
          "internalType": "uint256",
          "name": "_id",
          "type": "uint256"
        },
        {
          "indexed": false,
          "internalType": "uint256",
          "name": "_value",
          "type": "uint256"
        }
      ],
      "name": "TransferSingle",
      "type": "event"
    },
    {
      "anonymous": false,
      "inputs": [
        {
          "indexed": false,
          "internalType": "string",
          "name": "_value",
          "type": "string"
        },
        {
          "indexed": true,
          "internalType": "uint256",
          "name": "_id",
          "type": "uint256"
        }
      ],
      "name": "URI",
      "type": "event"
    },
    {
      "inputs": [
        {
          "internalType": "uint256",
          "name": "",
          "type": "uint256"
        }
      ],
      "name": "_callbacks",
      "outputs": [
        {
          "internalType": "uint256",
          "name": "tokenId",
          "type": "uint256"
        },
        {
          "internalType": "uint256",
          "name": "price",
          "type": "uint256"
        },
        {
          "internalType": "uint256",
          "name": "escrowedAmount",
          "type": "uint256"
        },
        {
          "internalType": "uint256",
          "name": "callCounter",
          "type": "uint256"
        },
        {
          "internalType": "uint256",
          "name": "documentHash",
          "type": "uint256"
        },
        {
          "internalType": "address",
          "name": "caller",
          "type": "address"
        },
        {
          "internalType": "bool",
          "name": "needLegalApproval",
          "type": "bool"
        },
        {
          "internalType": "bool",
          "name": "approvedByLegal",
          "type": "bool"
        },
        {
          "internalType": "bool",
          "name": "refused",
          "type": "bool"
        },
        {
          "internalType": "bool",
          "name": "accepted",
          "type": "bool"
        },
        {
          "internalType": "bool",
          "name": "completed",
          "type": "bool"
        }
      ],
      "stateMutability": "view",
      "type": "function"
    },
    {
      "inputs": [],
      "name": "_config",
      "outputs": [
        {
          "internalType": "uint256",
          "name": "callbackAutoExecuteMaxAddresses",
          "type": "uint256"
        },
        {
          "internalType": "string",
          "name": "baseURI",
          "type": "string"
        },
        {
          "internalType": "address",
          "name": "owner",
          "type": "address"
        }
      ],
      "stateMutability": "view",
      "type": "function"
    },
    {
      "inputs": [
        {
          "internalType": "uint256",
          "name": "",
          "type": "uint256"
        }
      ],
      "name": "_tokens",
      "outputs": [
        {
          "internalType": "uint256",
          "name": "supply",
          "type": "uint256"
        },
        {
          "internalType": "uint256",
          "name": "decimals",
          "type": "uint256"
        },
        {
          "internalType": "uint256",
          "name": "lumpSumTransactionFees",
          "type": "uint256"
        },
        {
          "internalType": "uint256",
          "name": "valueTransactionFees",
          "type": "uint256"
        },
        {
          "internalType": "uint256",
          "name": "minHoldingForCallback",
          "type": "uint256"
        },
        {
          "internalType": "uint256",
          "name": "metadataHash",
          "type": "uint256"
        },
        {
          "internalType": "address",
          "name": "legalAuthority",
          "type": "address"
        },
        {
          "internalType": "bool",
          "name": "isPrivate",
          "type": "bool"
        },
        {
          "internalType": "bool",
          "name": "locked",
          "type": "bool"
        }
      ],
      "stateMutability": "view",
      "type": "function"
    },
    {
      "inputs": [
        {
          "internalType": "address",
          "name": "",
          "type": "address"
        }
      ],
      "name": "_users",
      "outputs": [
        {
          "internalType": "bool",
          "name": "isTokenizer",
          "type": "bool"
        },
        {
          "internalType": "bool",
          "name": "isLocked",
          "type": "bool"
        },
        {
          "internalType": "uint256",
          "name": "ETHBalance",
          "type": "uint256"
        }
      ],
      "stateMutability": "view",
      "type": "function"
    },
    {
      "inputs": [
        {
          "internalType": "address",
          "name": "tokenizer",
          "type": "address"
        }
      ],
      "name": "authorizeTokenizer",
      "outputs": [],
      "stateMutability": "nonpayable",
      "type": "function"
    },
    {
      "inputs": [
        {
          "internalType": "address",
          "name": "account",
          "type": "address"
        },
        {
          "internalType": "uint256",
          "name": "id",
          "type": "uint256"
        }
      ],
      "name": "averageAge",
      "outputs": [
        {
          "internalType": "uint256",
          "name": "",
          "type": "uint256"
        }
      ],
      "stateMutability": "view",
      "type": "function"
    },
    {
      "inputs": [
        {
          "internalType": "address",
          "name": "account",
          "type": "address"
        },
        {
          "internalType": "uint256",
          "name": "id",
          "type": "uint256"
        }
      ],
      "name": "balanceOf",
      "outputs": [
        {
          "internalType": "uint256",
          "name": "",
          "type": "uint256"
        }
      ],
      "stateMutability": "view",
      "type": "function"
    },
    {
      "inputs": [
        {
          "internalType": "address[]",
          "name": "accounts",
          "type": "address[]"
        },
        {
          "internalType": "uint256[]",
          "name": "ids",
          "type": "uint256[]"
        }
      ],
      "name": "balanceOfBatch",
      "outputs": [
        {
          "internalType": "uint256[]",
          "name": "",
          "type": "uint256[]"
        }
      ],
      "stateMutability": "view",
      "type": "function"
    },
    {
      "inputs": [
        {
          "internalType": "uint256",
          "name": "id",
          "type": "uint256"
        },
        {
          "internalType": "uint256[]",
          "name": "ids",
          "type": "uint256[]"
        },
        {
          "internalType": "uint256[]",
          "name": "metadataHashes",
          "type": "uint256[]"
        }
      ],
      "name": "cloneToken",
      "outputs": [],
      "stateMutability": "nonpayable",
      "type": "function"
    },
    {
      "inputs": [
        {
          "internalType": "address",
          "name": "recipient",
          "type": "address"
        },
        {
          "internalType": "uint256",
          "name": "id",
          "type": "uint256"
        },
        {
          "internalType": "uint256",
          "name": "supply",
          "type": "uint256"
        },
        {
          "internalType": "uint256",
          "name": "decimals",
          "type": "uint256"
        },
        {
          "internalType": "uint256",
          "name": "metadataHash",
          "type": "uint256"
        },
        {
          "internalType": "uint256[3]",
          "name": "transactionFees",
          "type": "uint256[3]"
        },
        {
          "internalType": "address[]",
          "name": "feesRecipients",
          "type": "address[]"
        },
        {
          "internalType": "uint256[]",
          "name": "feesRecipientsPercentage",
          "type": "uint256[]"
        },
        {
          "internalType": "uint256",
          "name": "minHoldingForCallback",
          "type": "uint256"
        },
        {
          "internalType": "bool",
          "name": "isPrivate",
          "type": "bool"
        },
        {
          "internalType": "address",
          "name": "legalAuthority",
          "type": "address"
        }
      ],
      "name": "createToken",
      "outputs": [],
      "stateMutability": "nonpayable",
      "type": "function"
    },
    {
      "inputs": [
        {
          "internalType": "address",
          "name": "account",
          "type": "address"
        },
        {
          "internalType": "address",
          "name": "operator",
          "type": "address"
        }
      ],
      "name": "isApprovedForAll",
      "outputs": [
        {
          "internalType": "bool",
          "name": "",
          "type": "bool"
        }
      ],
      "stateMutability": "view",
      "type": "function"
    },
    {
      "inputs": [
        {
          "internalType": "address",
          "name": "tokenizer",
          "type": "address"
        }
      ],
      "name": "isTokenizer",
      "outputs": [
        {
          "internalType": "bool",
          "name": "",
          "type": "bool"
        }
      ],
      "stateMutability": "view",
      "type": "function"
    },
    {
      "inputs": [],
      "name": "owner",
      "outputs": [
        {
          "internalType": "address",
          "name": "",
          "type": "address"
        }
      ],
      "stateMutability": "view",
      "type": "function"
    },
    {
      "inputs": [
        {
          "internalType": "address",
          "name": "tokenizer",
          "type": "address"
        }
      ],
      "name": "revokeTokenizer",
      "outputs": [],
      "stateMutability": "nonpayable",
      "type": "function"
    },
    {
      "inputs": [
        {
          "internalType": "address",
          "name": "from",
          "type": "address"
        },
        {
          "internalType": "address",
          "name": "to",
          "type": "address"
        },
        {
          "internalType": "uint256[]",
          "name": "ids",
          "type": "uint256[]"
        },
        {
          "internalType": "uint256[]",
          "name": "values",
          "type": "uint256[]"
        },
        {
          "internalType": "bytes",
          "name": "data",
          "type": "bytes"
        }
      ],
      "name": "safeBatchTransferFrom",
      "outputs": [],
      "stateMutability": "payable",
      "type": "function"
    },
    {
      "inputs": [
        {
          "internalType": "address",
          "name": "from",
          "type": "address"
        },
        {
          "internalType": "address",
          "name": "to",
          "type": "address"
        },
        {
          "internalType": "uint256",
          "name": "id",
          "type": "uint256"
        },
        {
          "internalType": "uint256",
          "name": "value",
          "type": "uint256"
        },
        {
          "internalType": "bytes",
          "name": "data",
          "type": "bytes"
        }
      ],
      "name": "safeTransferFrom",
      "outputs": [],
      "stateMutability": "payable",
      "type": "function"
    },
    {
      "inputs": [
        {
          "internalType": "address",
          "name": "operator",
          "type": "address"
        },
        {
          "internalType": "bool",
          "name": "approved",
          "type": "bool"
        }
      ],
      "name": "setApprovalForAll",
      "outputs": [],
      "stateMutability": "nonpayable",
      "type": "function"
    },
    {
      "inputs": [
        {
          "internalType": "address[10]",
          "name": "proxyAddresses",
          "type": "address[10]"
        }
      ],
      "name": "setProxyRegistryAddress",
      "outputs": [],
      "stateMutability": "nonpayable",
      "type": "function"
    },
    {
      "inputs": [
        {
          "internalType": "bytes4",
          "name": "_interfaceID",
          "type": "bytes4"
        }
      ],
      "name": "supportsInterface",
      "outputs": [
        {
          "internalType": "bool",
          "name": "",
          "type": "bool"
        }
      ],
      "stateMutability": "pure",
      "type": "function"
    },
    {
      "inputs": [
        {
          "internalType": "address",
          "name": "account",
          "type": "address"
        },
        {
          "internalType": "uint256",
          "name": "id",
          "type": "uint256"
        },
        {
          "internalType": "uint256",
          "name": "value",
          "type": "uint256"
        }
      ],
      "name": "transactionFees",
      "outputs": [
        {
          "internalType": "uint256",
          "name": "",
          "type": "uint256"
        }
      ],
      "stateMutability": "view",
      "type": "function"
    },
    {
      "inputs": [
        {
          "internalType": "address",
          "name": "newOwner",
          "type": "address"
        }
      ],
      "name": "transferOwnership",
      "outputs": [],
      "stateMutability": "nonpayable",
      "type": "function"
    },
    {
      "inputs": [
        {
          "internalType": "uint256",
          "name": "id",
          "type": "uint256"
        },
        {
          "internalType": "address",
          "name": "maintener",
          "type": "address"
        }
      ],
      "name": "authorizeMaintener",
      "outputs": [],
      "stateMutability": "nonpayable",
      "type": "function"
    },
    {
      "inputs": [
        {
          "internalType": "uint256",
          "name": "id",
          "type": "uint256"
        },
        {
          "internalType": "address",
          "name": "maintener",
          "type": "address"
        }
      ],
      "name": "revokeMaintener",
      "outputs": [],
      "stateMutability": "nonpayable",
      "type": "function"
    },
    {
      "inputs": [
        {
          "internalType": "uint256",
          "name": "id",
          "type": "uint256"
        },
        {
          "internalType": "address",
          "name": "maintener",
          "type": "address"
        }
      ],
      "name": "isMaintener",
      "outputs": [
        {
          "internalType": "bool",
          "name": "",
          "type": "bool"
        }
      ],
      "stateMutability": "view",
      "type": "function"
    },
    {
      "inputs": [
        {
          "internalType": "uint256",
          "name": "id",
          "type": "uint256"
        },
        {
          "internalType": "uint256",
          "name": "metadataHash",
          "type": "uint256"
        },
        {
          "internalType": "uint256[3]",
          "name": "transactionFees",
          "type": "uint256[3]"
        },
        {
          "internalType": "address[]",
          "name": "feesRecipients",
          "type": "address[]"
        },
        {
          "internalType": "uint256[]",
          "name": "feesRecipientsPercentage",
          "type": "uint256[]"
        },
        {
          "internalType": "uint256",
          "name": "minHoldingForCallback",
          "type": "uint256"
        },
        {
          "internalType": "bool",
          "name": "isPrivate",
          "type": "bool"
        },
        {
          "internalType": "address",
          "name": "legalAuthority",
          "type": "address"
        }
      ],
      "name": "updateToken",
      "outputs": [],
      "stateMutability": "nonpayable",
      "type": "function"
    }
  ],
  "bytecode": "0x60806040523480156200001157600080fd5b506200001d3362000023565b620000e0565b6001600160a01b03811662000084576040517f08c379a0000000000000000000000000000000000000000000000000000000008152600401808060200182810382526026815260200180620035bf6026913960400191505060405180910390fd5b600c546040516001600160a01b038084169216907f8be0079c531659141344cd1fd0a4f28419497f9722a3daafe3b4186f6b6457e090600090a3600c80546001600160a01b0319166001600160a01b0392909216919091179055565b6134cf80620000f06000396000f3fe6080604052600436106101655760003560e01c80638870147b116100d1578063d1660e181161008a578063ed70554d11610064578063ed70554d14610c12578063f242432a14610c90578063f2fde38b14610d23578063f8a5a07c14610d5657610165565b8063d1660e1814610b5f578063d41d0aa314610b9e578063e985e9c514610bd757610165565b80638870147b146108b75780638aeba37e146108ea5780638da5cb5b14610923578063a22cb46514610954578063c02f303c1461098f578063c40b87ae146109c257610165565b80634392e577116101235780634392e577146104af5780634ab0d253146105105780634e1273f414610692578063585941d5146108125780635dafec1b1461084b5780637627b7321461088457610165565b8062fdd58e1461016a57806301ffc9a7146101b55780632eb2c2d6146101fd5780632ed42bf7146103265780633cacd7d6146103ca578063414ed0ce1461041d575b600080fd5b34801561017657600080fd5b506101a36004803603604081101561018d57600080fd5b506001600160a01b038135169060200135610e8d565b60408051918252519081900360200190f35b3480156101c157600080fd5b506101e9600480360360208110156101d857600080fd5b50356001600160e01b031916610f02565b604080519115158252519081900360200190f35b610324600480360360a081101561021357600080fd5b6001600160a01b038235811692602081013590911691810190606081016040820135600160201b81111561024657600080fd5b82018360208201111561025857600080fd5b803590602001918460208302840111600160201b8311171561027957600080fd5b919390929091602081019035600160201b81111561029657600080fd5b8201836020820111156102a857600080fd5b803590602001918460208302840111600160201b831117156102c957600080fd5b919390929091602081019035600160201b8111156102e657600080fd5b8201836020820111156102f857600080fd5b803590602001918460018302840111600160201b8311171561031957600080fd5b509092509050610f49565b005b34801561033257600080fd5b5061033b6111f7565b6040518084815260200180602001836001600160a01b03168152602001828103825284818151815260200191508051906020019080838360005b8381101561038d578181015183820152602001610375565b50505050905090810190601f1680156103ba5780820380516001836020036101000a031916815260200191505b5094505050505060405180910390f35b3480156103d657600080fd5b506103fd600480360360208110156103ed57600080fd5b50356001600160a01b031661129c565b604080519315158452911515602084015282820152519081900360600190f35b34801561042957600080fd5b506104476004803603602081101561044057600080fd5b50356112c2565b604080519b8c5260208c019a909a528a8a019890985260608a019690965260808901949094526001600160a01b0390921660a0880152151560c0870152151560e086015215156101008501521515610120840152151561014083015251908190036101600190f35b3480156104bb57600080fd5b5061032460048036036101408110156104d357600080fd5b81019080806101400190600a806020026040519081016040528092919082600a602002808284376000920191909152509194506113359350505050565b34801561051c57600080fd5b50610324600480360361014081101561053457600080fd5b6040805160608181018352843594602081013594810193909260a08401929091840190600390839083908082843760009201919091525091949392602081019250359050600160201b81111561058957600080fd5b82018360208201111561059b57600080fd5b803590602001918460208302840111600160201b831117156105bc57600080fd5b9190808060200260200160405190810160405280939291908181526020018383602002808284376000920191909152509295949360208101935035915050600160201b81111561060b57600080fd5b82018360208201111561061d57600080fd5b803590602001918460208302840111600160201b8311171561063e57600080fd5b919080806020026020016040519081016040528093929190818152602001838360200280828437600092019190915250929550508235935050506020810135151590604001356001600160a01b031661138d565b34801561069e57600080fd5b506107c2600480360360408110156106b557600080fd5b810190602081018135600160201b8111156106cf57600080fd5b8201836020820111156106e157600080fd5b803590602001918460208302840111600160201b8311171561070257600080fd5b9190808060200260200160405190810160405280939291908181526020018383602002808284376000920191909152509295949360208101935035915050600160201b81111561075157600080fd5b82018360208201111561076357600080fd5b803590602001918460208302840111600160201b8311171561078457600080fd5b919080806020026020016040519081016040528093929190818152602001838360200280828437600092019190915250929550611484945050505050565b60408051602080825283518183015283519192839290830191858101910280838360005b838110156107fe5781810151838201526020016107e6565b505050509050019250505060405180910390f35b34801561081e57600080fd5b506101a36004803603604081101561083557600080fd5b506001600160a01b038135169060200135611608565b34801561085757600080fd5b506101e96004803603604081101561086e57600080fd5b50803590602001356001600160a01b0316611643565b34801561089057600080fd5b50610324600480360360208110156108a757600080fd5b50356001600160a01b031661164f565b3480156108c357600080fd5b50610324600480360360208110156108da57600080fd5b50356001600160a01b03166116ba565b3480156108f657600080fd5b506103246004803603604081101561090d57600080fd5b50803590602001356001600160a01b0316611722565b34801561092f57600080fd5b506109386117a0565b604080516001600160a01b039092168252519081900360200190f35b34801561096057600080fd5b506103246004803603604081101561097757600080fd5b506001600160a01b03813516906020013515156117af565b34801561099b57600080fd5b506101e9600480360360208110156109b257600080fd5b50356001600160a01b0316611869565b3480156109ce57600080fd5b5061032460048036036101a08110156109e657600080fd5b60408051606081810183526001600160a01b03853516946020810135949381013593828201359360808301359391830192916101008301919060a0840190600390839083908082843760009201919091525091949392602081019250359050600160201b811115610a5657600080fd5b820183602082011115610a6857600080fd5b803590602001918460208302840111600160201b83111715610a8957600080fd5b9190808060200260200160405190810160405280939291908181526020018383602002808284376000920191909152509295949360208101935035915050600160201b811115610ad857600080fd5b820183602082011115610aea57600080fd5b803590602001918460208302840111600160201b83111715610b0b57600080fd5b919080806020026020016040519081016040528093929190818152602001838360200280828437600092019190915250929550508235935050506020810135151590604001356001600160a01b0316611874565b348015610b6b57600080fd5b506101a360048036036060811015610b8257600080fd5b506001600160a01b038135169060208101359060400135611933565b348015610baa57600080fd5b5061032460048036036040811015610bc157600080fd5b50803590602001356001600160a01b0316611948565b348015610be357600080fd5b506101e960048036036040811015610bfa57600080fd5b506001600160a01b03813581169160200135166119c3565b348015610c1e57600080fd5b50610c3c60048036036020811015610c3557600080fd5b50356119cf565b60408051998a5260208a0198909852888801969096526060880194909452608087019290925260a08601526001600160a01b031660c0850152151560e0840152151561010083015251908190036101200190f35b610324600480360360a0811015610ca657600080fd5b6001600160a01b03823581169260208101359091169160408201359160608101359181019060a081016080820135600160201b811115610ce557600080fd5b820183602082011115610cf757600080fd5b803590602001918460018302840111600160201b83111715610d1857600080fd5b509092509050611a2b565b348015610d2f57600080fd5b5061032460048036036020811015610d4657600080fd5b50356001600160a01b0316611b82565b348015610d6257600080fd5b5061032460048036036060811015610d7957600080fd5b81359190810190604081016020820135600160201b811115610d9a57600080fd5b820183602082011115610dac57600080fd5b803590602001918460208302840111600160201b83111715610dcd57600080fd5b9190808060200260200160405190810160405280939291908181526020018383602002808284376000920191909152509295949360208101935035915050600160201b811115610e1c57600080fd5b820183602082011115610e2e57600080fd5b803590602001918460208302840111600160201b83111715610e4f57600080fd5b919080806020026020016040519081016040528093929190818152602001838360200280828437600092019190915250929550611bd5945050505050565b60006001600160a01b038316610ed45760405162461bcd60e51b815260040180806020018281038252602b815260200180613284602b913960400191505060405180910390fd5b506000818152600e602090815260408083206001600160a01b03861684526007019091529020545b92915050565b60006001600160e01b031982166301ffc9a760e01b1480610f3357506001600160e01b03198216636cdb3d1360e11b145b15610f4057506001610f44565b5060005b919050565b848314610f875760405162461bcd60e51b815260040180806020018281038252602e81526020018061343b602e913960400191505060405180910390fd5b6001600160a01b038716610fcc5760405162461bcd60e51b81526004018080602001828103825260288152602001806132d56028913960400191505060405180910390fd5b6001600160a01b038816331480610fee5750610fe888336119c3565b15156001145b6110295760405162461bcd60e51b81526004018080602001828103825260378152602001806134046037913960400191505060405180910390fd5b611098888888888080602002602001604051908101604052809392919081815260200183836020028082843760009201919091525050604080516020808c0282810182019093528b82529093508b92508a918291850190849080828437600092019190915250611d7892505050565b866001600160a01b0316886001600160a01b0316336001600160a01b03167f4a39dc06d4c0dbc64b70af90fd698a233a518aa5d07e595d983b8c0526c8f7fb898989896040518080602001806020018381038352878782818152602001925060200280828437600083820152601f01601f19169091018481038352858152602090810191508690860280828437600083820152604051601f909101601f19169092018290039850909650505050505050a46111ed33898989898080602002602001604051908101604052809392919081815260200183836020028082843760009201919091525050604080516020808d0282810182019093528c82529093508c92508b91829185019084908082843760009201919091525050604080516020601f8c018190048102820181019092528a815292508a9150899081908401838280828437600092019190915250611e3292505050565b5050505050505050565b6000805460018054604080516020600284861615610100026000190190941693909304601f810184900484028201840190925281815293949392918301828280156112835780601f1061125857610100808354040283529160200191611283565b820191906000526020600020905b81548152906001019060200180831161126657829003601f168201915b505050600c90930154919250506001600160a01b031683565b600d602052600090815260409020805460019091015460ff808316926101009004169083565b600f6020526000908152604090208054600182015460028301546003840154600485015460059095015493949293919290916001600160a01b0381169060ff600160a01b8204811691600160a81b8104821691600160b01b8204811691600160b81b8104821691600160c01b909104168b565b61133d612023565b61137c576040805162461bcd60e51b815260206004820181905260248201526000805160206133e4833981519152604482015290519081900360640190fd5b611389600282600a61312f565b5050565b876113988133612034565b6113e3576040805162461bcd60e51b815260206004820152601760248201527624b739bab33334b1b4b2b73a103832b936b4b9b9b4b7b760491b604482015290519081900360640190fd5b6000898152600e6020526040902054611433576040805162461bcd60e51b815260206004820152600d60248201526c2ab735b737bbb7103a37b5b2b760991b604482015290519081900360640190fd5b611443898989898989898961206e565b6040805189815290518a917f199acc06cd2556bbc146fa3cb578799037dffcbf256eca32aaf2ef656925d2fd919081900360200190a2505050505050505050565b606081518351146114c65760405162461bcd60e51b81526004018080602001828103825260308152602001806133296030913960400191505060405180910390fd5b6060835167ffffffffffffffff811180156114e057600080fd5b5060405190808252806020026020018201604052801561150a578160200160208202803683370190505b50905060005b84518110156116005760006001600160a01b031685828151811061153057fe5b60200260200101516001600160a01b0316141561157e5760405162461bcd60e51b815260040180806020018281038252603481526020018061338f6034913960400191505060405180910390fd5b600e600085838151811061158e57fe5b6020026020010151815260200190815260200160002060070160008683815181106115b557fe5b60200260200101516001600160a01b03166001600160a01b03168152602001908152602001600020600001548282815181106115ed57fe5b6020908102919091010152600101611510565b509392505050565b6000818152600e602090815260408083206001600160a01b038616845260070190915281206001015461163c904290612212565b9392505050565b600061163c8383612034565b611657612023565b611696576040805162461bcd60e51b815260206004820181905260248201526000805160206133e4833981519152604482015290519081900360640190fd5b6001600160a01b03166000908152600d60205260409020805460ff19166001179055565b6116c2612023565b611701576040805162461bcd60e51b815260206004820181905260248201526000805160206133e4833981519152604482015290519081900360640190fd5b6001600160a01b03166000908152600d60205260409020805460ff19169055565b61172a612023565b611769576040805162461bcd60e51b815260206004820181905260248201526000805160206133e4833981519152604482015290519081900360640190fd5b6000918252600e602090815260408084206001600160a01b039093168452600790920190529020600201805460ff19166001179055565b600c546001600160a01b031690565b336001600160a01b03831614156117f75760405162461bcd60e51b815260040180806020018281038252602c8152602001806132fd602c913960400191505060405180910390fd5b336000818152600d602090815260408083206001600160a01b0387168085526003909101835292819020805460ff1916861515908117909155815190815290519293927f17307eab39ab6107e8899845ad3d59bd9653f200f220920489ca2b5937696c31929181900390910190a35050565b6000610efc82612254565b61187d33612254565b6118c8576040805162461bcd60e51b815260206004820152601760248201527624b739bab33334b1b4b2b73a103832b936b4b9b9b4b7b760491b604482015290519081900360640190fd5b6118db8b8b8b8b8b8b8b8b8b8b8b61227e565b604080518b8152602081018b905281516001600160a01b038e169260009233927fc3d58168c5ae7397731d063d5bbf3d657854427343f4c083240f7aacaa2d0f62929181900390910190a45050505050505050505050565b60006119408484846123e7565b949350505050565b611950612023565b61198f576040805162461bcd60e51b815260206004820181905260248201526000805160206133e4833981519152604482015290519081900360640190fd5b6000918252600e602090815260408084206001600160a01b039093168452600790920190529020600201805460ff19169055565b600061163c83836125cf565b600e60205260009081526040902080546001820154600283015460038401546004850154600586015460069096015494959394929391929091906001600160a01b0381169060ff600160a01b8204811691600160a81b90041689565b6001600160a01b038516611a705760405162461bcd60e51b81526004018080602001828103825260288152602001806132d56028913960400191505060405180910390fd5b6001600160a01b038616331480611a925750611a8c86336119c3565b15156001145b611acd5760405162461bcd60e51b81526004018080602001828103825260378152602001806134046037913960400191505060405180910390fd5b611ad986868686612614565b846001600160a01b0316866001600160a01b0316336001600160a01b03167fc3d58168c5ae7397731d063d5bbf3d657854427343f4c083240f7aacaa2d0f628787604051808381526020018281526020019250505060405180910390a4611b7a338787878787878080601f01602080910402602001604051908101604052809392919081815260200183838082843760009201919091525061268c92505050565b505050505050565b611b8a612023565b611bc9576040805162461bcd60e51b815260206004820181905260248201526000805160206133e4833981519152604482015290519081900360640190fd5b611bd281612801565b50565b611bde33612254565b611c29576040805162461bcd60e51b815260206004820152601760248201527624b739bab33334b1b4b2b73a103832b936b4b9b9b4b7b760491b604482015290519081900360640190fd5b6000838152600e602052604090205415801590611c47575080518251145b611c8c576040805162461bcd60e51b8152602060048201526011602482015270496e76616c696420617267756d656e747360781b604482015290519081900360640190fd5b60005b8251811015611d7257611cc984848381518110611ca857fe5b6020026020010151848481518110611cbc57fe5b60200260200101516128a2565b6000848152600e602052604081206008018054909190611ce557fe5b600091825260208220015484516001600160a01b03909116919033907fc3d58168c5ae7397731d063d5bbf3d657854427343f4c083240f7aacaa2d0f6290879086908110611d2f57fe5b6020026020010151600e60008a815260200190815260200160002060000154604051808381526020018281526020019250505060405180910390a4600101611c8f565b50505050565b6000803411611da2576001600160a01b0385166000908152600d6020526040902060010154611da4565b345b905060005b8351811015611e2057611e16611de78787878581518110611dc657fe5b6020026020010151878681518110611dda57fe5b6020026020010151612a44565b60408051808201909152601081526f092dce6eaccccd2c6d2cadce8408aa8960831b6020820152849190612ba1565b9150600101611da9565b50611e2b8582612c38565b5050505050565b611e44846001600160a01b0316612cb9565b15611b7a5763bc197c8160e01b6001600160e01b031916846001600160a01b031663bc197c8188888787876040518663ffffffff1660e01b815260040180866001600160a01b03168152602001856001600160a01b03168152602001806020018060200180602001848103845287818151815260200191508051906020019060200280838360005b83811015611ee4578181015183820152602001611ecc565b50505050905001848103835286818151815260200191508051906020019060200280838360005b83811015611f23578181015183820152602001611f0b565b50505050905001848103825285818151815260200191508051906020019080838360005b83811015611f5f578181015183820152602001611f47565b50505050905090810190601f168015611f8c5780820380516001836020036101000a031916815260200191505b5098505050505050505050602060405180830381600087803b158015611fb157600080fd5b505af1158015611fc5573d6000803e3d6000fd5b505050506040513d6020811015611fdb57600080fd5b50516001600160e01b03191614611b7a5760405162461bcd60e51b81526004018080602001828103825260368152602001806133596036913960400191505060405180910390fd5b600c546001600160a01b0316331490565b6000828152600e602090815260408083206001600160a01b038516845260070190915281206002015460ff168061163c575061163c612023565b6000805b855181101561209e5785818151811061208757fe5b602002602001015182019150806001019050612072565b50600086511180156120ae575060015b80156120bb575080612710145b80156120c8575061271084105b61210d576040805162461bcd60e51b8152602060048201526011602482015270496e76616c696420617267756d656e747360781b604482015290519081900360640190fd5b6000898152600e60209081526040808320600581018c90558a516002808301919091558b840151600383015582518084018452428152928c015183850152600b90910180546001810182559085529290932061216d939283020191613187565b506000898152600e602090815260409091208751612193926009909201918901906131c1565b506000898152600e6020908152604090912086516121b992600a90920191880190613215565b50506000978852600e602052604090972060048101929092556006909101805460ff60a01b1916600160a01b92151592909202919091176001600160a01b0319166001600160a01b039096169590951790945550505050565b600061163c83836040518060400160405280601e81526020017f536166654d6174683a207375627472616374696f6e206f766572666c6f770000815250612ba1565b6001600160a01b0381166000908152600d602052604081205460ff1680610efc5750610efc612023565b60008a8152600e602052604090205415801561229a5750600089115b6122df576040805162461bcd60e51b8152602060048201526011602482015270496e76616c696420617267756d656e747360781b604482015290519081900360640190fd5b88600e60008c81526020019081526020016000206000018190555087600e60008c8152602001908152602001600020600101819055506001600e60008c81526020019081526020016000206007016000336001600160a01b03166001600160a01b0316815260200190815260200160002060020160006101000a81548160ff0219169083151502179055506001600e60008c815260200190815260200160002060070160008d6001600160a01b03166001600160a01b0316815260200190815260200160002060020160026101000a81548160ff0219169083151502179055506123cf8a8888888888888861206e565b6123da8b8b8b612cf0565b5050505050505050505050565b6000828152600e60205260408120600b015481904290600019015b6000868152600e60205260408120600b0180548390811061241f57fe5b60009182526020822060029091020101546000888152600e60205260408120600b01805492935090918490811061245257fe5b906000526020600020906002020160016002811061246c57fe5b01546000898152600e602090815260408083206001600160a01b038e16845260070190915281206001015491925090831161250f576000898152600e602090815260408083206001600160a01b038e1684526007019091529020600101546124e49062015180906124de908890612212565b90612eee565b9050806124ef575060015b612503886124fd8385612f30565b90612f30565b8601955050505061254e565b612520620151806124de8786612212565b90508061252b575060015b919350839161253e886124fd8385612f30565b9095019450505060001901612402565b506000858152600e602052604090206001015461256f908390600a0a612eee565b6000868152600e60205260408120600301549193509061259a906305f5e100906124de908890612f30565b6000878152600e60205260409020600201549091506125c4906125bd9083612f89565b8490612f89565b979650505050505050565b60006125db8383612fe3565b8061163c5750506001600160a01b039182166000908152600d602090815260408083209390941682526003909201909152205460ff1690565b600080341161263e576001600160a01b0385166000908152600d6020526040902060010154612640565b345b905061268061265186868686612a44565b60408051808201909152601081526f092dce6eaccccd2c6d2cadce8408aa8960831b6020820152839190612ba1565b9050611e2b8582612c38565b61269e846001600160a01b0316612cb9565b15611b7a5763f23a6e6160e01b6001600160e01b031916846001600160a01b031663f23a6e6188888787876040518663ffffffff1660e01b815260040180866001600160a01b03168152602001856001600160a01b0316815260200184815260200183815260200180602001828103825283818151815260200191508051906020019080838360005b8381101561273f578181015183820152602001612727565b50505050905090810190601f16801561276c5780820380516001836020036101000a031916815260200191505b509650505050505050602060405180830381600087803b15801561278f57600080fd5b505af11580156127a3573d6000803e3d6000fd5b505050506040513d60208110156127b957600080fd5b50516001600160e01b03191614611b7a5760405162461bcd60e51b81526004018080602001828103825260318152602001806134696031913960400191505060405180910390fd5b6001600160a01b0381166128465760405162461bcd60e51b81526004018080602001828103825260268152602001806132af6026913960400191505060405180910390fd5b600c546040516001600160a01b038084169216907f8be0079c531659141344cd1fd0a4f28419497f9722a3daafe3b4186f6b6457e090600090a3600c80546001600160a01b0319166001600160a01b0392909216919091179055565b6000838152600e602052604081206008018054612a3f92906128c057fe5b6000918252602080832090910154868352600e8083526040808520805460018201548351606081018552600284015481526003840154818901528c895294909652600b90910180546001600160a01b03909516968a96929592948a94909390840192919061292a57fe5b906000526020600020906002020160016002811061294457fe5b0154905260008a8152600e6020908152604091829020600901805483518184028101840190945280845290918301828280156129a957602002820191906000526020600020905b81546001600160a01b0316815260019091019060200180831161298b575b50505060008d8152600e6020908152604091829020600a0180548351818402810184019094528084529294509250830182828015612a0657602002820191906000526020600020905b8154815260200190600101908083116129f2575b50505060008e8152600e60205260409020600481015460069091015490925060ff600160a01b82041691506001600160a01b031661227e565b505050565b6040805180820182526014815273496e73756666696369656e742062616c616e636560601b6020808301919091526000858152600e82528381206001600160a01b038916825260070190915291822054612a9f918490612ba1565b6000848152600e602090815260408083206001600160a01b038a168452600701909152902055612ad0848484612cf0565b612adb8584846123e7565b905060005b6000848152600e6020526040902060090154811015612b98576000848152600e60205260408120600901805483908110612b1657fe5b6000918252602080832090910154878352600e90915260408220600a0180546001600160a01b0390921693509084908110612b4d57fe5b6000918252602090912001549050612b6b6127106124de8684612f30565b6001600160a01b039092166000908152600d60205260409020600190810180549093019092555001612ae0565b50949350505050565b60008184841115612c305760405162461bcd60e51b81526004018080602001828103825283818151815260200191508051906020019080838360005b83811015612bf5578181015183820152602001612bdd565b50505050905090810190601f168015612c225780820380516001836020036101000a031916815260200191505b509250505060405180910390fd5b505050900390565b600034118015612c485750600081115b15612c94576001600160a01b0382166000908152600d6020526040902060010154612c739082612f89565b6001600160a01b0383166000908152600d6020526040902060010155611389565b34611389576001600160a01b03919091166000908152600d6020526040902060010155565b6000813f7fc5d2460186f7233c927e7db2dcc703c0e500b653ca82273b7bfad8045d85a47081158015906119405750141592915050565b6000828152600e602090815260408083206001600160a01b0387168452600701909152812054612d209083612f89565b6000848152600e602090815260408083206001600160a01b0389168452600701909152902054909150612e1d576000838152600e602090815260408083206001600160a01b0388168452600701909152902060020154610100900460ff16612dec576001600160a01b0384166000818152600d6020908152604080832060020180546001818101835591855283852001889055878452600e83529083206008810180549283018155845282842090910180546001600160a01b0319168517905592909152600790910190525b6000838152600e602090815260408083206001600160a01b0388168452600701909152902042600190910155612ebe565b6000838152600e602090815260408083206001600160a01b0388168452600701909152812060010154612e51904290612212565b6000858152600e602090815260408083206001600160a01b038a16845260070190915281205491925090612e8b9084906124de9085612f30565b6000868152600e602090815260408083206001600160a01b038b1684526007019091529020429190910360019091015550505b6000928352600e602090815260408085206001600160a01b03909616855260079095019052929091209190915550565b600061163c83836040518060400160405280601a81526020017f536166654d6174683a206469766973696f6e206279207a65726f0000000000008152506130ca565b600082612f3f57506000610efc565b82820282848281612f4c57fe5b041461163c5760405162461bcd60e51b81526004018080602001828103825260218152602001806133c36021913960400191505060405180910390fd5b60008282018381101561163c576040805162461bcd60e51b815260206004820152601b60248201527f536166654d6174683a206164646974696f6e206f766572666c6f770000000000604482015290519081900360640190fd5b6000805b600a8110156130c0576000600282600a8110612fff57fe5b01546001600160a01b0316146130b8576000600282600a811061301e57fe5b01546040805163c455279160e01b81526001600160a01b0388811660048301529151928216935090861691839163c4552791916024808301926020929190829003018186803b15801561307057600080fd5b505afa158015613084573d6000803e3d6000fd5b505050506040513d602081101561309a57600080fd5b50516001600160a01b031614156130b657600192505050610efc565b505b600101612fe7565b5060009392505050565b600081836131195760405162461bcd60e51b8152602060048201818152835160248401528351909283926044909101919085019080838360008315612bf5578181015183820152602001612bdd565b50600083858161312557fe5b0495945050505050565b82600a8101928215613177579160200282015b8281111561317757825182546001600160a01b0319166001600160a01b03909116178255602090920191600190910190613142565b5061318392915061324f565b5090565b82600281019282156131b5579160200282015b828111156131b557825182559160200191906001019061319a565b5061318392915061326e565b828054828255906000526020600020908101928215613177579160200282018281111561317757825182546001600160a01b0319166001600160a01b03909116178255602090920191600190910190613142565b8280548282559060005260206000209081019282156131b557916020028201828111156131b557825182559160200191906001019061319a565b5b808211156131835780546001600160a01b0319168155600101613250565b5b80821115613183576000815560010161326f56fe455243313135353a2062616c616e636520717565727920666f7220746865207a65726f20616464726573734f776e61626c653a206e6577206f776e657220697320746865207a65726f2061646472657373455243313135353a207461726765742061646472657373206d757374206265206e6f6e2d7a65726f455243313135353a2063616e6e6f742073657420617070726f76616c2073746174757320666f722073656c66455243313135353a206163636f756e747320616e6420494473206d75737420686176652073616d65206c656e67746873455243313135353a20676f7420756e6b6e6f776e2076616c75652066726f6d206f6e4552433131353542617463685265636569766564455243313135353a20736f6d65206164647265737320696e2062617463682062616c616e6365207175657279206973207a65726f536166654d6174683a206d756c7469706c69636174696f6e206f766572666c6f774f776e61626c653a2063616c6c6572206973206e6f7420746865206f776e6572455243313135353a206e656564206f70657261746f7220617070726f76616c20666f7220337264207061727479207472616e7366657273455243313135353a2049447320616e642076616c756573206d75737420686176652073616d65206c656e67746873455243313135353a20676f7420756e6b6e6f776e2076616c75652066726f6d206f6e455243313135355265636569766564a26469706673582212205fe05727a3484b6c14e9e221b7eaaace018e6f9e15974f735c67009a1c9106cb64736f6c634300070100334f776e61626c653a206e6577206f776e657220697320746865207a65726f2061646472657373",
  "immutableReferences": {},
  "source": "// SPDX-License-Identifier: GPL-3.0-or-later\npragma solidity ^0.7.1;\n\nimport './Mintable.sol';\n\ncontract Maintenable is Mintable {\n\n\n    /****************************\n    EVENTS\n    *****************************/\n\n\n    event TokenUpdated(uint256 indexed _id, uint256 _documentHash);\n\n\n    /****************************\n    MODIFIERS\n    *****************************/\n\n\n    modifier onlyMaintener(uint256 id) {\n        require(_isMaintener(id, msg.sender), \"Insufficient permission\");\n        _;\n    }\n\n\n    /****************************\n    EXTERNAL FUNCTIONS\n    *****************************/\n\n\n    /**\n     * @dev Function to authorize an address to maintain a token.\n     * @param maintener The authorized address\n     */\n    function authorizeMaintener(uint256 id, address maintener) external onlyOwner {\n        _tokens[id].holders[maintener].isMaintener = true;\n    }\n\n    /**\n     * @dev Function to revoke the authorization to maintain a token.\n     * @param id the token id\n     * @param maintener The authorized address\n     */\n    function revokeMaintener(uint256 id, address maintener) external onlyOwner {\n        _tokens[id].holders[maintener].isMaintener = false;\n    }\n\n    /**\n     * @dev Function to check if an address is authorized to maintain a token.\n     * @param id the token id\n     * @param maintener The authorized address\n     * @return true if it's a maintener address\n     */\n    function isMaintener(uint256 id, address maintener) external view returns (bool) {\n        return _isMaintener(id, maintener);\n    }\n\n    /**\n     * @dev Function to update a token with the given ID.\n     * @param id ID of the token to be updated\n     * @param metadataHash Metadata file hash\n     * @param transactionFees transaction fees: [lumpSumFees (in WEI), valueProportionalFees (ratio of transfered amount * 10**8), storageFees (in storageCredit * 10**8)]\n     * @param feesRecipients list of addresses receiving transfer fees\n     * @param feesRecipientsPercentage list of percentage, each one for the corresponding feesRecipients\n     * @param minHoldingForCallback minimum holding to propose a callback\n     * @param isPrivate true if holder need approval\n     * @param legalAuthority address of the legal authority\n     */\n    function updateToken(uint256 id,\n                         uint256 metadataHash,\n                         uint256[3] memory transactionFees,\n                         address[] memory feesRecipients,\n                         uint256[] memory feesRecipientsPercentage,\n                         uint256 minHoldingForCallback,\n                         bool isPrivate,\n                         address legalAuthority) external onlyMaintener(id) {\n        require(_tokens[id].supply > 0, \"Unknown token\");\n\n        _setToken(id,\n                  metadataHash,\n                  transactionFees,\n                  feesRecipients,\n                  feesRecipientsPercentage,\n                  minHoldingForCallback,\n                  isPrivate,\n                  legalAuthority);\n\n        emit TokenUpdated(id, metadataHash);\n    }\n\n\n    /****************************\n    INTERNAL FUNCTIONS\n    *****************************/\n\n\n    function _isMaintener(uint256 id, address maintener) internal view returns (bool) {\n        return _tokens[id].holders[maintener].isMaintener || _isOwner();\n    }\n\n}\n",
  "sourcePath": "/home/ouziel/Work/StashBloxContracts/contracts/lib/Maintenable.sol",
  "compiler": {
    "name": "solc",
    "version": "0.7.1+commit.f4a555be.Emscripten.clang"
  },
  "schemaVersion": "3.2.3",
  "updatedAt": "2020-10-21T17:19:14.593Z",
  "devdoc": {
    "kind": "dev",
    "methods": {
      "authorizeMaintener(uint256,address)": {
        "details": "Function to authorize an address to maintain a token.",
        "params": {
          "maintener": "The authorized address"
        }
      },
      "authorizeTokenizer(address)": {
        "details": "Function to authorize an address to create a token.",
        "params": {
          "tokenizer": "The authorized address"
        }
      },
      "averageAge(address,uint256)": {
        "details": "Function to get the average age of the token for the given address.",
        "params": {
          "account": "the address from where to transfer the tokens",
          "id": "The token ID"
        },
        "returns": {
          "_0": "average age in seconds"
        }
      },
      "balanceOf(address,uint256)": {
        "details": "Get the specified address' balance for token with specified ID. Attempting to query the zero account for a balance will result in a revert.",
        "params": {
          "account": "The address of the token holder",
          "id": "ID of the token"
        },
        "returns": {
          "_0": "The account's balance of the token type requested"
        }
      },
      "balanceOfBatch(address[],uint256[])": {
        "details": "Get the balance of multiple account/token pairs. If any of the query accounts is the zero account, this query will revert.",
        "params": {
          "accounts": "The addresses of the token holders",
          "ids": "IDs of the tokens"
        },
        "returns": {
          "_0": "Balances for each account and token id pair"
        }
      },
      "cloneToken(uint256,uint256[],uint256[])": {
        "details": "Function to mint tokens in batch.",
        "params": {
          "id": "Identifier of the template",
          "ids": "list of IDs of the tokens to be minted",
          "metadataHashes": "list of metadata file hashes"
        }
      },
      "createToken(address,uint256,uint256,uint256,uint256,uint256[3],address[],uint256[],uint256,bool,address)": {
        "details": "Function to mint an amount of a token with the given ID.",
        "params": {
          "feesRecipients": "list of addresses receiving transfer fees",
          "feesRecipientsPercentage": "list of percentage, each one for the corresponding feesRecipients",
          "id": "ID of the token to be minted",
          "isPrivate": "true if holder need approval",
          "legalAuthority": "address of the legal authority",
          "metadataHash": "Metadata file hash",
          "minHoldingForCallback": "minimum holding to propose a callback",
          "recipient": "The address that will own the minted tokens",
          "supply": "Amount of the token to be minted",
          "transactionFees": "transaction fees: [lumpSumFees (in WEI), valueProportionalFees (ratio of transfered amount * 10**8), storageFees (in storageCredit * 10**8)]"
        }
      },
      "isApprovedForAll(address,address)": {
        "params": {
          "account": "The account of the Tokens",
          "operator": "Address of authorized operator"
        },
        "returns": {
          "_0": "True if the operator is approved, false if not"
        }
      },
      "isMaintener(uint256,address)": {
        "details": "Function to check if an address is authorized to maintain a token.",
        "params": {
          "id": "the token id",
          "maintener": "The authorized address"
        },
        "returns": {
          "_0": "true if it's a maintener address"
        }
      },
      "isTokenizer(address)": {
        "details": "Function to check if an address is authorized to create a token.",
        "params": {
          "tokenizer": "The authorized address"
        }
      },
      "owner()": {
        "details": "Returns the address of the current owner."
      },
      "revokeMaintener(uint256,address)": {
        "details": "Function to revoke the authorization to maintain a token.",
        "params": {
          "id": "the token id",
          "maintener": "The authorized address"
        }
      },
      "revokeTokenizer(address)": {
        "details": "Function to revoke the authorization to create a token.",
        "params": {
          "tokenizer": "The authorized address"
        }
      },
      "safeBatchTransferFrom(address,address,uint256[],uint256[],bytes)": {
        "details": "Transfers `values` amount(s) of `ids` from the `from` address to the `to` address specified. Caller must be approved to manage the tokens being transferred out of the `from` account. If `to` is a smart contract, will call `onERC1155BatchReceived` on `to` and act appropriately.",
        "params": {
          "data": "Data forwarded to `onERC1155Received` if `to` is a contract receiver",
          "from": "Source address",
          "ids": "IDs of each token type",
          "to": "Target address",
          "values": "Transfer amounts per token type"
        }
      },
      "safeTransferFrom(address,address,uint256,uint256,bytes)": {
        "details": "Transfers `value` amount of an `id` from the `from` address to the `to` address specified. Caller must be approved to manage the tokens being transferred out of the `from` account. If `to` is a smart contract, will call `onERC1155Received` on `to` and act appropriately.",
        "params": {
          "data": "Data forwarded to `onERC1155Received` if `to` is a contract receiver",
          "from": "Source address",
          "id": "ID of the token type",
          "to": "Target address",
          "value": "Transfer amount"
        }
      },
      "setApprovalForAll(address,bool)": {
        "details": "Sets or unsets the approval of a given operator. An operator is allowed to transfer all tokens of the sender on their behalf. Because an account already has operator privileges for itself, this function will revert if the account attempts to set the approval status for itself.",
        "params": {
          "approved": "representing the status of the approval to be set",
          "operator": "address to set the approval"
        }
      },
      "setProxyRegistryAddress(address[10])": {
        "details": "Function to update the operator whitelist",
        "params": {
          "proxyAddresses": "List of addresses"
        }
      },
      "supportsInterface(bytes4)": {
        "params": {
          "_interfaceID": "The interface identifier, as specified in ERC-165"
        },
        "returns": {
          "_0": "`true` if the contract implements `_interfaceID` and"
        }
      },
      "transactionFees(address,uint256,uint256)": {
        "details": "Function to get the transaction price to transfer tokens.",
        "params": {
          "account": "the address from where to transfer the tokens",
          "id": "The token ID",
          "value": "The amount to transfer"
        },
        "returns": {
          "_0": "transfer price"
        }
      },
      "transferOwnership(address)": {
        "details": "Transfers ownership of the contract to a new account (`newOwner`). Can only be called by the current owner."
      },
      "updateToken(uint256,uint256,uint256[3],address[],uint256[],uint256,bool,address)": {
        "details": "Function to update a token with the given ID.",
        "params": {
          "feesRecipients": "list of addresses receiving transfer fees",
          "feesRecipientsPercentage": "list of percentage, each one for the corresponding feesRecipients",
          "id": "ID of the token to be updated",
          "isPrivate": "true if holder need approval",
          "legalAuthority": "address of the legal authority",
          "metadataHash": "Metadata file hash",
          "minHoldingForCallback": "minimum holding to propose a callback",
          "transactionFees": "transaction fees: [lumpSumFees (in WEI), valueProportionalFees (ratio of transfered amount * 10**8), storageFees (in storageCredit * 10**8)]"
        }
      }
    },
    "version": 1
  },
  "userdoc": {
    "kind": "user",
    "methods": {
      "isApprovedForAll(address,address)": {
        "notice": "Queries the approval status of an operator for a given account."
      },
      "supportsInterface(bytes4)": {
        "notice": "Query if a contract implements an interface"
      }
    },
    "version": 1
  }
}