{
  "contractName": "Mintable",
  "abi": [
    {
      "anonymous": false,
      "inputs": [
        {
          "indexed": true,
          "internalType": "address",
          "name": "_owner",
          "type": "address"
        },
        {
          "indexed": true,
          "internalType": "address",
          "name": "_operator",
          "type": "address"
        },
        {
          "indexed": false,
          "internalType": "bool",
          "name": "_approved",
          "type": "bool"
        }
      ],
      "name": "ApprovalForAll",
      "type": "event"
    },
    {
      "anonymous": false,
      "inputs": [
        {
          "indexed": true,
          "internalType": "address",
          "name": "previousOwner",
          "type": "address"
        },
        {
          "indexed": true,
          "internalType": "address",
          "name": "newOwner",
          "type": "address"
        }
      ],
      "name": "OwnershipTransferred",
      "type": "event"
    },
    {
      "anonymous": false,
      "inputs": [
        {
          "indexed": true,
          "internalType": "address",
          "name": "_operator",
          "type": "address"
        },
        {
          "indexed": true,
          "internalType": "address",
          "name": "_from",
          "type": "address"
        },
        {
          "indexed": true,
          "internalType": "address",
          "name": "_to",
          "type": "address"
        },
        {
          "indexed": false,
          "internalType": "uint256[]",
          "name": "_ids",
          "type": "uint256[]"
        },
        {
          "indexed": false,
          "internalType": "uint256[]",
          "name": "_values",
          "type": "uint256[]"
        }
      ],
      "name": "TransferBatch",
      "type": "event"
    },
    {
      "anonymous": false,
      "inputs": [
        {
          "indexed": true,
          "internalType": "address",
          "name": "_operator",
          "type": "address"
        },
        {
          "indexed": true,
          "internalType": "address",
          "name": "_from",
          "type": "address"
        },
        {
          "indexed": true,
          "internalType": "address",
          "name": "_to",
          "type": "address"
        },
        {
          "indexed": false,
          "internalType": "uint256",
          "name": "_id",
          "type": "uint256"
        },
        {
          "indexed": false,
          "internalType": "uint256",
          "name": "_value",
          "type": "uint256"
        }
      ],
      "name": "TransferSingle",
      "type": "event"
    },
    {
      "anonymous": false,
      "inputs": [
        {
          "indexed": false,
          "internalType": "string",
          "name": "_value",
          "type": "string"
        },
        {
          "indexed": true,
          "internalType": "uint256",
          "name": "_id",
          "type": "uint256"
        }
      ],
      "name": "URI",
      "type": "event"
    },
    {
      "inputs": [
        {
          "internalType": "uint256",
          "name": "",
          "type": "uint256"
        }
      ],
      "name": "_callbacks",
      "outputs": [
        {
          "internalType": "uint256",
          "name": "tokenId",
          "type": "uint256"
        },
        {
          "internalType": "uint256",
          "name": "price",
          "type": "uint256"
        },
        {
          "internalType": "uint256",
          "name": "escrowedAmount",
          "type": "uint256"
        },
        {
          "internalType": "uint256",
          "name": "callCounter",
          "type": "uint256"
        },
        {
          "internalType": "uint256",
          "name": "documentHash",
          "type": "uint256"
        },
        {
          "internalType": "address",
          "name": "caller",
          "type": "address"
        },
        {
          "internalType": "bool",
          "name": "needLegalApproval",
          "type": "bool"
        },
        {
          "internalType": "bool",
          "name": "approvedByLegal",
          "type": "bool"
        },
        {
          "internalType": "bool",
          "name": "refused",
          "type": "bool"
        },
        {
          "internalType": "bool",
          "name": "accepted",
          "type": "bool"
        },
        {
          "internalType": "bool",
          "name": "completed",
          "type": "bool"
        }
      ],
      "stateMutability": "view",
      "type": "function"
    },
    {
      "inputs": [],
      "name": "_config",
      "outputs": [
        {
          "internalType": "uint256",
          "name": "callbackAutoExecuteMaxAddresses",
          "type": "uint256"
        },
        {
          "internalType": "string",
          "name": "baseURI",
          "type": "string"
        },
        {
          "internalType": "address",
          "name": "owner",
          "type": "address"
        }
      ],
      "stateMutability": "view",
      "type": "function"
    },
    {
      "inputs": [
        {
          "internalType": "uint256",
          "name": "",
          "type": "uint256"
        }
      ],
      "name": "_tokens",
      "outputs": [
        {
          "internalType": "uint256",
          "name": "supply",
          "type": "uint256"
        },
        {
          "internalType": "uint256",
          "name": "decimals",
          "type": "uint256"
        },
        {
          "internalType": "uint256",
          "name": "lumpSumTransactionFees",
          "type": "uint256"
        },
        {
          "internalType": "uint256",
          "name": "valueTransactionFees",
          "type": "uint256"
        },
        {
          "internalType": "uint256",
          "name": "minHoldingForCallback",
          "type": "uint256"
        },
        {
          "internalType": "uint256",
          "name": "metadataHash",
          "type": "uint256"
        },
        {
          "internalType": "address",
          "name": "legalAuthority",
          "type": "address"
        },
        {
          "internalType": "bool",
          "name": "isPrivate",
          "type": "bool"
        },
        {
          "internalType": "bool",
          "name": "locked",
          "type": "bool"
        }
      ],
      "stateMutability": "view",
      "type": "function"
    },
    {
      "inputs": [
        {
          "internalType": "address",
          "name": "",
          "type": "address"
        }
      ],
      "name": "_users",
      "outputs": [
        {
          "internalType": "bool",
          "name": "isTokenizer",
          "type": "bool"
        },
        {
          "internalType": "bool",
          "name": "isLocked",
          "type": "bool"
        },
        {
          "internalType": "uint256",
          "name": "ETHBalance",
          "type": "uint256"
        }
      ],
      "stateMutability": "view",
      "type": "function"
    },
    {
      "inputs": [
        {
          "internalType": "address",
          "name": "account",
          "type": "address"
        },
        {
          "internalType": "uint256",
          "name": "id",
          "type": "uint256"
        }
      ],
      "name": "averageAge",
      "outputs": [
        {
          "internalType": "uint256",
          "name": "",
          "type": "uint256"
        }
      ],
      "stateMutability": "view",
      "type": "function"
    },
    {
      "inputs": [
        {
          "internalType": "address",
          "name": "account",
          "type": "address"
        },
        {
          "internalType": "uint256",
          "name": "id",
          "type": "uint256"
        }
      ],
      "name": "balanceOf",
      "outputs": [
        {
          "internalType": "uint256",
          "name": "",
          "type": "uint256"
        }
      ],
      "stateMutability": "view",
      "type": "function"
    },
    {
      "inputs": [
        {
          "internalType": "address[]",
          "name": "accounts",
          "type": "address[]"
        },
        {
          "internalType": "uint256[]",
          "name": "ids",
          "type": "uint256[]"
        }
      ],
      "name": "balanceOfBatch",
      "outputs": [
        {
          "internalType": "uint256[]",
          "name": "",
          "type": "uint256[]"
        }
      ],
      "stateMutability": "view",
      "type": "function"
    },
    {
      "inputs": [
        {
          "internalType": "address",
          "name": "account",
          "type": "address"
        },
        {
          "internalType": "address",
          "name": "operator",
          "type": "address"
        }
      ],
      "name": "isApprovedForAll",
      "outputs": [
        {
          "internalType": "bool",
          "name": "",
          "type": "bool"
        }
      ],
      "stateMutability": "view",
      "type": "function"
    },
    {
      "inputs": [
        {
          "internalType": "address",
          "name": "forwarder",
          "type": "address"
        }
      ],
      "name": "isTrustedForwarder",
      "outputs": [
        {
          "internalType": "bool",
          "name": "",
          "type": "bool"
        }
      ],
      "stateMutability": "view",
      "type": "function"
    },
    {
      "inputs": [],
      "name": "owner",
      "outputs": [
        {
          "internalType": "address",
          "name": "",
          "type": "address"
        }
      ],
      "stateMutability": "view",
      "type": "function"
    },
    {
      "inputs": [
        {
          "internalType": "address",
          "name": "from",
          "type": "address"
        },
        {
          "internalType": "address",
          "name": "to",
          "type": "address"
        },
        {
          "internalType": "uint256[]",
          "name": "ids",
          "type": "uint256[]"
        },
        {
          "internalType": "uint256[]",
          "name": "values",
          "type": "uint256[]"
        },
        {
          "internalType": "bytes",
          "name": "data",
          "type": "bytes"
        }
      ],
      "name": "safeBatchTransferFrom",
      "outputs": [],
      "stateMutability": "payable",
      "type": "function"
    },
    {
      "inputs": [
        {
          "internalType": "address",
          "name": "from",
          "type": "address"
        },
        {
          "internalType": "address",
          "name": "to",
          "type": "address"
        },
        {
          "internalType": "uint256",
          "name": "id",
          "type": "uint256"
        },
        {
          "internalType": "uint256",
          "name": "value",
          "type": "uint256"
        },
        {
          "internalType": "bytes",
          "name": "data",
          "type": "bytes"
        }
      ],
      "name": "safeTransferFrom",
      "outputs": [],
      "stateMutability": "payable",
      "type": "function"
    },
    {
      "inputs": [
        {
          "internalType": "address",
          "name": "operator",
          "type": "address"
        },
        {
          "internalType": "bool",
          "name": "approved",
          "type": "bool"
        }
      ],
      "name": "setApprovalForAll",
      "outputs": [],
      "stateMutability": "nonpayable",
      "type": "function"
    },
    {
      "inputs": [
        {
          "internalType": "address[10]",
          "name": "proxyAddresses",
          "type": "address[10]"
        }
      ],
      "name": "setProxyRegistryAddress",
      "outputs": [],
      "stateMutability": "nonpayable",
      "type": "function"
    },
    {
      "inputs": [
        {
          "internalType": "bytes4",
          "name": "_interfaceID",
          "type": "bytes4"
        }
      ],
      "name": "supportsInterface",
      "outputs": [
        {
          "internalType": "bool",
          "name": "",
          "type": "bool"
        }
      ],
      "stateMutability": "pure",
      "type": "function"
    },
    {
      "inputs": [
        {
          "internalType": "address",
          "name": "account",
          "type": "address"
        },
        {
          "internalType": "uint256",
          "name": "id",
          "type": "uint256"
        },
        {
          "internalType": "uint256",
          "name": "value",
          "type": "uint256"
        }
      ],
      "name": "transactionFees",
      "outputs": [
        {
          "internalType": "uint256",
          "name": "",
          "type": "uint256"
        }
      ],
      "stateMutability": "view",
      "type": "function"
    },
    {
      "inputs": [
        {
          "internalType": "address",
          "name": "newOwner",
          "type": "address"
        }
      ],
      "name": "transferOwnership",
      "outputs": [],
      "stateMutability": "nonpayable",
      "type": "function"
    },
    {
      "inputs": [],
      "name": "trustedForwarder",
      "outputs": [
        {
          "internalType": "address",
          "name": "",
          "type": "address"
        }
      ],
      "stateMutability": "view",
      "type": "function"
    },
    {
      "inputs": [
        {
          "internalType": "uint256",
          "name": "id",
          "type": "uint256"
        }
      ],
      "name": "uri",
      "outputs": [
        {
          "internalType": "string",
          "name": "",
          "type": "string"
        }
      ],
      "stateMutability": "view",
      "type": "function"
    },
    {
      "inputs": [],
      "name": "versionRecipient",
      "outputs": [
        {
          "internalType": "string",
          "name": "",
          "type": "string"
        }
      ],
      "stateMutability": "view",
      "type": "function"
    },
    {
      "inputs": [
        {
          "internalType": "address",
          "name": "tokenizer",
          "type": "address"
        }
      ],
      "name": "authorizeTokenizer",
      "outputs": [],
      "stateMutability": "nonpayable",
      "type": "function"
    },
    {
      "inputs": [
        {
          "internalType": "address",
          "name": "tokenizer",
          "type": "address"
        }
      ],
      "name": "revokeTokenizer",
      "outputs": [],
      "stateMutability": "nonpayable",
      "type": "function"
    },
    {
      "inputs": [
        {
          "internalType": "address",
          "name": "tokenizer",
          "type": "address"
        }
      ],
      "name": "isTokenizer",
      "outputs": [
        {
          "internalType": "bool",
          "name": "",
          "type": "bool"
        }
      ],
      "stateMutability": "view",
      "type": "function"
    },
    {
      "inputs": [
        {
          "internalType": "address",
          "name": "recipient",
          "type": "address"
        },
        {
          "internalType": "uint256",
          "name": "id",
          "type": "uint256"
        },
        {
          "internalType": "uint256",
          "name": "supply",
          "type": "uint256"
        },
        {
          "internalType": "uint256",
          "name": "decimals",
          "type": "uint256"
        },
        {
          "internalType": "uint256",
          "name": "metadataHash",
          "type": "uint256"
        },
        {
          "internalType": "uint256[3]",
          "name": "transactionFees",
          "type": "uint256[3]"
        },
        {
          "internalType": "address[]",
          "name": "feesRecipients",
          "type": "address[]"
        },
        {
          "internalType": "uint256[]",
          "name": "feesRecipientsPercentage",
          "type": "uint256[]"
        },
        {
          "internalType": "uint256",
          "name": "minHoldingForCallback",
          "type": "uint256"
        },
        {
          "internalType": "bool",
          "name": "isPrivate",
          "type": "bool"
        },
        {
          "internalType": "address",
          "name": "legalAuthority",
          "type": "address"
        }
      ],
      "name": "createToken",
      "outputs": [],
      "stateMutability": "nonpayable",
      "type": "function"
    },
    {
      "inputs": [
        {
          "internalType": "uint256",
          "name": "id",
          "type": "uint256"
        },
        {
          "internalType": "uint256[]",
          "name": "ids",
          "type": "uint256[]"
        },
        {
          "internalType": "uint256[]",
          "name": "metadataHashes",
          "type": "uint256[]"
        }
      ],
      "name": "cloneToken",
      "outputs": [],
      "stateMutability": "nonpayable",
      "type": "function"
    }
  ],
  "bytecode": "0x60c0604052601760808190527f312e302e302b6f70656e67736e2e7374617368626c6f7800000000000000000060a090815262000040916001919062000170565b503480156200004e57600080fd5b50620000636200005d62000069565b6200009f565b6200020c565b60006018361080159062000083575062000083336200015c565b1562000099575060131936013560601c6200009c565b50335b90565b6001600160a01b03811662000100576040517f08c379a0000000000000000000000000000000000000000000000000000000008152600401808060200182810382526026815260200180620037a76026913960400191505060405180910390fd5b600e546040516001600160a01b038084169216907f8be0079c531659141344cd1fd0a4f28419497f9722a3daafe3b4186f6b6457e090600090a3600e80546001600160a01b0319166001600160a01b0392909216919091179055565b6000546001600160a01b0390811691161490565b828054600181600116156101000203166002900490600052602060002090601f016020900481019282601f10620001b357805160ff1916838001178555620001e3565b82800160010185558215620001e3579182015b82811115620001e3578251825591602001919060010190620001c6565b50620001f1929150620001f5565b5090565b5b80821115620001f15760008155600101620001f6565b61358b806200021c6000396000f3fe6080604052600436106101655760003560e01c80637627b732116100d1578063c40b87ae1161008a578063ed70554d11610064578063ed70554d14610ae1578063f242432a14610b5f578063f2fde38b14610bf2578063f8a5a07c14610c2557610165565b8063c40b87ae146108ca578063d1660e1814610a67578063e985e9c514610aa657610165565b80637627b732146107b05780637da0a877146107e35780638870147b146108145780638da5cb5b14610847578063a22cb4651461085c578063c02f303c1461089757610165565b8063414ed0ce11610123578063414ed0ce146104bc5780634392e5771461054e578063486ff0cd146105af5780634e1273f4146105c4578063572b6c0514610744578063585941d51461077757610165565b8062fdd58e1461016a57806301ffc9a7146101b55780630e89341c146101fd5780632eb2c2d61461029c5780632ed42bf7146103c55780633cacd7d614610469575b600080fd5b34801561017657600080fd5b506101a36004803603604081101561018d57600080fd5b506001600160a01b038135169060200135610d5c565b60408051918252519081900360200190f35b3480156101c157600080fd5b506101e9600480360360208110156101d857600080fd5b50356001600160e01b031916610dd1565b604080519115158252519081900360200190f35b34801561020957600080fd5b506102276004803603602081101561022057600080fd5b5035610e18565b6040805160208082528351818301528351919283929083019185019080838360005b83811015610261578181015183820152602001610249565b50505050905090810190601f16801561028e5780820380516001836020036101000a031916815260200191505b509250505060405180910390f35b6103c3600480360360a08110156102b257600080fd5b6001600160a01b038235811692602081013590911691810190606081016040820135600160201b8111156102e557600080fd5b8201836020820111156102f757600080fd5b803590602001918460208302840111600160201b8311171561031857600080fd5b919390929091602081019035600160201b81111561033557600080fd5b82018360208201111561034757600080fd5b803590602001918460208302840111600160201b8311171561036857600080fd5b919390929091602081019035600160201b81111561038557600080fd5b82018360208201111561039757600080fd5b803590602001918460018302840111600160201b831117156103b857600080fd5b509092509050610eba565b005b3480156103d157600080fd5b506103da61118d565b6040518084815260200180602001836001600160a01b03168152602001828103825284818151815260200191508051906020019080838360005b8381101561042c578181015183820152602001610414565b50505050905090810190601f1680156104595780820380516001836020036101000a031916815260200191505b5094505050505060405180910390f35b34801561047557600080fd5b5061049c6004803603602081101561048c57600080fd5b50356001600160a01b0316611230565b604080519315158452911515602084015282820152519081900360600190f35b3480156104c857600080fd5b506104e6600480360360208110156104df57600080fd5b5035611256565b604080519b8c5260208c019a909a528a8a019890985260608a019690965260808901949094526001600160a01b0390921660a0880152151560c0870152151560e086015215156101008501521515610120840152151561014083015251908190036101600190f35b34801561055a57600080fd5b506103c3600480360361014081101561057257600080fd5b81019080806101400190600a806020026040519081016040528092919082600a602002808284376000920191909152509194506112c99350505050565b3480156105bb57600080fd5b50610227611321565b3480156105d057600080fd5b506106f4600480360360408110156105e757600080fd5b810190602081018135600160201b81111561060157600080fd5b82018360208201111561061357600080fd5b803590602001918460208302840111600160201b8311171561063457600080fd5b9190808060200260200160405190810160405280939291908181526020018383602002808284376000920191909152509295949360208101935035915050600160201b81111561068357600080fd5b82018360208201111561069557600080fd5b803590602001918460208302840111600160201b831117156106b657600080fd5b9190808060200260200160405190810160405280939291908181526020018383602002808284376000920191909152509295506113ae945050505050565b60408051602080825283518183015283519192839290830191858101910280838360005b83811015610730578181015183820152602001610718565b505050509050019250505060405180910390f35b34801561075057600080fd5b506101e96004803603602081101561076757600080fd5b50356001600160a01b0316611532565b34801561078357600080fd5b506101a36004803603604081101561079a57600080fd5b506001600160a01b038135169060200135611546565b3480156107bc57600080fd5b506103c3600480360360208110156107d357600080fd5b50356001600160a01b0316611581565b3480156107ef57600080fd5b506107f86115ec565b604080516001600160a01b039092168252519081900360200190f35b34801561082057600080fd5b506103c36004803603602081101561083757600080fd5b50356001600160a01b03166115fb565b34801561085357600080fd5b506107f8611663565b34801561086857600080fd5b506103c36004803603604081101561087f57600080fd5b506001600160a01b0381351690602001351515611673565b3480156108a357600080fd5b506101e9600480360360208110156108ba57600080fd5b50356001600160a01b0316611766565b3480156108d657600080fd5b506103c360048036036101a08110156108ee57600080fd5b60408051606081810183526001600160a01b03853516946020810135949381013593828201359360808301359391830192916101008301919060a0840190600390839083908082843760009201919091525091949392602081019250359050600160201b81111561095e57600080fd5b82018360208201111561097057600080fd5b803590602001918460208302840111600160201b8311171561099157600080fd5b9190808060200260200160405190810160405280939291908181526020018383602002808284376000920191909152509295949360208101935035915050600160201b8111156109e057600080fd5b8201836020820111156109f257600080fd5b803590602001918460208302840111600160201b83111715610a1357600080fd5b919080806020026020016040519081016040528093929190818152602001838360200280828437600092019190915250929550508235935050506020810135151590604001356001600160a01b0316611771565b348015610a7357600080fd5b506101a360048036036060811015610a8a57600080fd5b506001600160a01b038135169060208101359060400135611848565b348015610ab257600080fd5b506101e960048036036040811015610ac957600080fd5b506001600160a01b038135811691602001351661185d565b348015610aed57600080fd5b50610b0b60048036036020811015610b0457600080fd5b5035611869565b60408051998a5260208a0198909852888801969096526060880194909452608087019290925260a08601526001600160a01b031660c0850152151560e0840152151561010083015251908190036101200190f35b6103c3600480360360a0811015610b7557600080fd5b6001600160a01b03823581169260208101359091169160408201359160608101359181019060a081016080820135600160201b811115610bb457600080fd5b820183602082011115610bc657600080fd5b803590602001918460018302840111600160201b83111715610be757600080fd5b5090925090506118c5565b348015610bfe57600080fd5b506103c360048036036020811015610c1557600080fd5b50356001600160a01b0316611a3c565b348015610c3157600080fd5b506103c360048036036060811015610c4857600080fd5b81359190810190604081016020820135600160201b811115610c6957600080fd5b820183602082011115610c7b57600080fd5b803590602001918460208302840111600160201b83111715610c9c57600080fd5b9190808060200260200160405190810160405280939291908181526020018383602002808284376000920191909152509295949360208101935035915050600160201b811115610ceb57600080fd5b820183602082011115610cfd57600080fd5b803590602001918460208302840111600160201b83111715610d1e57600080fd5b919080806020026020016040519081016040528093929190818152602001838360200280828437600092019190915250929550611a8f945050505050565b60006001600160a01b038316610da35760405162461bcd60e51b815260040180806020018281038252602b815260200180613340602b913960400191505060405180910390fd5b5060008181526010602090815260408083206001600160a01b03861684526007019091529020545b92915050565b60006001600160e01b031982166301ffc9a760e01b1480610e0257506001600160e01b03198216636cdb3d1360e11b145b15610e0f57506001610e13565b5060005b919050565b6003805460408051602060026001851615610100026000190190941693909304601f8101849004840282018401909252818152606093610dcb9391929091830182828015610ea75780601f10610e7c57610100808354040283529160200191610ea7565b820191906000526020600020905b815481529060010190602001808311610e8a57829003601f168201915b5050505050610eb584611c3d565b611cf9565b848314610ef85760405162461bcd60e51b815260040180806020018281038252602e8152602001806134f7602e913960400191505060405180910390fd5b6001600160a01b038716610f3d5760405162461bcd60e51b81526004018080602001828103825260288152602001806133916028913960400191505060405180910390fd5b610f45611e03565b6001600160a01b0316886001600160a01b03161480610f765750610f7088610f6b611e03565b61185d565b15156001145b610fb15760405162461bcd60e51b81526004018080602001828103825260378152602001806134c06037913960400191505060405180910390fd5b611020888888888080602002602001604051908101604052809392919081815260200183836020028082843760009201919091525050604080516020808c0282810182019093528b82529093508b92508a918291850190849080828437600092019190915250611e3592505050565b866001600160a01b0316886001600160a01b031661103c611e03565b6001600160a01b03167f4a39dc06d4c0dbc64b70af90fd698a233a518aa5d07e595d983b8c0526c8f7fb898989896040518080602001806020018381038352878782818152602001925060200280828437600083820152601f01601f19169091018481038352858152602090810191508690860280828437600083820152604051601f909101601f19169092018290039850909650505050505050a46111836110e3611e03565b898989898080602002602001604051908101604052809392919081815260200183836020028082843760009201919091525050604080516020808d0282810182019093528c82529093508c92508b91829185019084908082843760009201919091525050604080516020601f8c018190048102820181019092528a815292508a9150899081908401838280828437600092019190915250611eef92505050565b5050505050505050565b600280546003805460408051602060018416156101000260001901909316869004601f810184900484028201840190925281815293949392918301828280156112175780601f106111ec57610100808354040283529160200191611217565b820191906000526020600020905b8154815290600101906020018083116111fa57829003601f168201915b505050600c90930154919250506001600160a01b031683565b600f602052600090815260409020805460019091015460ff808316926101009004169083565b60116020526000908152604090208054600182015460028301546003840154600485015460059095015493949293919290916001600160a01b0381169060ff600160a01b8204811691600160a81b8104821691600160b01b8204811691600160b81b8104821691600160c01b909104168b565b6112d16120e0565b611310576040805162461bcd60e51b815260206004820181905260248201526000805160206134a0833981519152604482015290519081900360640190fd5b61131d600482600a6131eb565b5050565b60018054604080516020600284861615610100026000190190941693909304601f810184900484028201840190925281815292918301828280156113a65780601f1061137b576101008083540402835291602001916113a6565b820191906000526020600020905b81548152906001019060200180831161138957829003601f168201915b505050505081565b606081518351146113f05760405162461bcd60e51b81526004018080602001828103825260308152602001806133e56030913960400191505060405180910390fd5b6060835167ffffffffffffffff8111801561140a57600080fd5b50604051908082528060200260200182016040528015611434578160200160208202803683370190505b50905060005b845181101561152a5760006001600160a01b031685828151811061145a57fe5b60200260200101516001600160a01b031614156114a85760405162461bcd60e51b815260040180806020018281038252603481526020018061344b6034913960400191505060405180910390fd5b601060008583815181106114b857fe5b6020026020010151815260200190815260200160002060070160008683815181106114df57fe5b60200260200101516001600160a01b03166001600160a01b031681526020019081526020016000206000015482828151811061151757fe5b602090810291909101015260010161143a565b509392505050565b6000546001600160a01b0390811691161490565b60008181526010602090815260408083206001600160a01b038616845260070190915281206001015461157a904290612106565b9392505050565b6115896120e0565b6115c8576040805162461bcd60e51b815260206004820181905260248201526000805160206134a0833981519152604482015290519081900360640190fd5b6001600160a01b03166000908152600f60205260409020805460ff19166001179055565b6000546001600160a01b031681565b6116036120e0565b611642576040805162461bcd60e51b815260206004820181905260248201526000805160206134a0833981519152604482015290519081900360640190fd5b6001600160a01b03166000908152600f60205260409020805460ff19169055565b600e546001600160a01b03165b90565b816001600160a01b0316611685611e03565b6001600160a01b031614156116cb5760405162461bcd60e51b815260040180806020018281038252602c8152602001806133b9602c913960400191505060405180910390fd5b80600f60006116d8611e03565b6001600160a01b0390811682526020808301939093526040918201600090812091871680825260039092019093529120805460ff191692151592909217909155611720611e03565b6001600160a01b03167f17307eab39ab6107e8899845ad3d59bd9653f200f220920489ca2b5937696c318360405180821515815260200191505060405180910390a35050565b6000610dcb82612148565b61178161177c611e03565b612148565b6117cc576040805162461bcd60e51b815260206004820152601760248201527624b739bab33334b1b4b2b73a103832b936b4b9b9b4b7b760491b604482015290519081900360640190fd5b6117df8b8b8b8b8b8b8b8b8b8b8b612172565b6001600160a01b038b1660006117f3611e03565b6001600160a01b03167fc3d58168c5ae7397731d063d5bbf3d657854427343f4c083240f7aacaa2d0f628d8d604051808381526020018281526020019250505060405180910390a45050505050505050505050565b60006118558484846122b2565b949350505050565b600061157a838361249a565b601060205260009081526040902080546001820154600283015460038401546004850154600586015460069096015494959394929391929091906001600160a01b0381169060ff600160a01b8204811691600160a81b90041689565b6001600160a01b03851661190a5760405162461bcd60e51b81526004018080602001828103825260288152602001806133916028913960400191505060405180910390fd5b611912611e03565b6001600160a01b0316866001600160a01b0316148061193e575061193886610f6b611e03565b15156001145b6119795760405162461bcd60e51b81526004018080602001828103825260378152602001806134c06037913960400191505060405180910390fd5b611985868686866124df565b846001600160a01b0316866001600160a01b03166119a1611e03565b6001600160a01b03167fc3d58168c5ae7397731d063d5bbf3d657854427343f4c083240f7aacaa2d0f628787604051808381526020018281526020019250505060405180910390a4611a346119f4611e03565b8787878787878080601f01602080910402602001604051908101604052809392919081815260200183838082843760009201919091525061255792505050565b505050505050565b611a446120e0565b611a83576040805162461bcd60e51b815260206004820181905260248201526000805160206134a0833981519152604482015290519081900360640190fd5b611a8c816126cc565b50565b611a9a61177c611e03565b611ae5576040805162461bcd60e51b815260206004820152601760248201527624b739bab33334b1b4b2b73a103832b936b4b9b9b4b7b760491b604482015290519081900360640190fd5b60008381526010602052604090205415801590611b03575080518251145b611b48576040805162461bcd60e51b8152602060048201526011602482015270496e76616c696420617267756d656e747360781b604482015290519081900360640190fd5b60005b8251811015611c3757611b8584848381518110611b6457fe5b6020026020010151848481518110611b7857fe5b602002602001015161276d565b60008481526010602052604081206008018054909190611ba157fe5b60009182526020822001546001600160a01b031690611bbe611e03565b6001600160a01b03167fc3d58168c5ae7397731d063d5bbf3d657854427343f4c083240f7aacaa2d0f62868581518110611bf457fe5b6020026020010151601060008a815260200190815260200160002060000154604051808381526020018281526020019250505060405180910390a4600101611b4b565b50505050565b60606000825b8015611c59576001919091019060109004611c43565b60608267ffffffffffffffff81118015611c7257600080fd5b506040519080825280601f01601f191660200182016040528015611c9d576020820181803683370190505b50905060005b83811015611cf057601086069250611cba8361290f565b8260018387030381518110611ccb57fe5b60200101906001600160f81b031916908160001a905350601086049550600101611ca3565b50949350505050565b805182516060918491849184910167ffffffffffffffff81118015611d1d57600080fd5b506040519080825280601f01601f191660200182016040528015611d48576020820181803683370190505b509050806000805b8551811015611da157858181518110611d6557fe5b602001015160f81c60f81b838380600101945081518110611d8257fe5b60200101906001600160f81b031916908160001a905350600101611d50565b5060005b8451811015611df657848181518110611dba57fe5b602001015160f81c60f81b838380600101945081518110611dd757fe5b60200101906001600160f81b031916908160001a905350600101611da5565b5090979650505050505050565b600060183610801590611e1a5750611e1a33611532565b15611e2e575060131936013560601c611670565b5033611670565b6000803411611e5f576001600160a01b0385166000908152600f6020526040902060010154611e61565b345b905060005b8351811015611edd57611ed3611ea48787878581518110611e8357fe5b6020026020010151878681518110611e9757fe5b6020026020010151612953565b60408051808201909152601081526f092dce6eaccccd2c6d2cadce8408aa8960831b6020820152849190612aa7565b9150600101611e66565b50611ee88582612b3e565b5050505050565b611f01846001600160a01b0316612bbf565b15611a345763bc197c8160e01b6001600160e01b031916846001600160a01b031663bc197c8188888787876040518663ffffffff1660e01b815260040180866001600160a01b03168152602001856001600160a01b03168152602001806020018060200180602001848103845287818151815260200191508051906020019060200280838360005b83811015611fa1578181015183820152602001611f89565b50505050905001848103835286818151815260200191508051906020019060200280838360005b83811015611fe0578181015183820152602001611fc8565b50505050905001848103825285818151815260200191508051906020019080838360005b8381101561201c578181015183820152602001612004565b50505050905090810190601f1680156120495780820380516001836020036101000a031916815260200191505b5098505050505050505050602060405180830381600087803b15801561206e57600080fd5b505af1158015612082573d6000803e3d6000fd5b505050506040513d602081101561209857600080fd5b50516001600160e01b03191614611a345760405162461bcd60e51b81526004018080602001828103825260368152602001806134156036913960400191505060405180910390fd5b600e546000906001600160a01b03166120f7611e03565b6001600160a01b031614905090565b600061157a83836040518060400160405280601e81526020017f536166654d6174683a207375627472616374696f6e206f766572666c6f770000815250612aa7565b6001600160a01b0381166000908152600f602052604081205460ff1680610dcb5750610dcb6120e0565b60008a81526010602052604090205415801561218e5750600089115b6121d3576040805162461bcd60e51b8152602060048201526011602482015270496e76616c696420617267756d656e747360781b604482015290519081900360640190fd5b60008a81526010602052604081208a815560018082018b9055916007909101906121fb611e03565b6001600160a01b03166001600160a01b0316815260200190815260200160002060020160006101000a81548160ff0219169083151502179055506001601060008c815260200190815260200160002060070160008d6001600160a01b03166001600160a01b0316815260200190815260200160002060020160026101000a81548160ff02191690831515021790555061229a8a88888888888888612bf6565b6122a58b8b8b612d9a565b5050505050505050505050565b6000828152601060205260408120600b015481904290600019015b6000868152601060205260408120600b018054839081106122ea57fe5b60009182526020822060029091020101546000888152601060205260408120600b01805492935090918490811061231d57fe5b906000526020600020906002020160016002811061233757fe5b015460008981526010602090815260408083206001600160a01b038e1684526007019091528120600101549192509083116123da5760008981526010602090815260408083206001600160a01b038e1684526007019091529020600101546123af9062015180906123a9908890612106565b90612faa565b9050806123ba575060015b6123ce886123c88385612fec565b90612fec565b86019550505050612419565b6123eb620151806123a98786612106565b9050806123f6575060015b9193508391612409886123c88385612fec565b90950194505050600019016122cd565b5060008581526010602052604090206001015461243a908390600a0a612faa565b60008681526010602052604081206003015491935090612465906305f5e100906123a9908890612fec565b60008781526010602052604090206002015490915061248f906124889083613045565b8490613045565b979650505050505050565b60006124a6838361309f565b8061157a5750506001600160a01b039182166000908152600f602090815260408083209390941682526003909201909152205460ff1690565b6000803411612509576001600160a01b0385166000908152600f602052604090206001015461250b565b345b905061254b61251c86868686612953565b60408051808201909152601081526f092dce6eaccccd2c6d2cadce8408aa8960831b6020820152839190612aa7565b9050611ee88582612b3e565b612569846001600160a01b0316612bbf565b15611a345763f23a6e6160e01b6001600160e01b031916846001600160a01b031663f23a6e6188888787876040518663ffffffff1660e01b815260040180866001600160a01b03168152602001856001600160a01b0316815260200184815260200183815260200180602001828103825283818151815260200191508051906020019080838360005b8381101561260a5781810151838201526020016125f2565b50505050905090810190601f1680156126375780820380516001836020036101000a031916815260200191505b509650505050505050602060405180830381600087803b15801561265a57600080fd5b505af115801561266e573d6000803e3d6000fd5b505050506040513d602081101561268457600080fd5b50516001600160e01b03191614611a345760405162461bcd60e51b81526004018080602001828103825260318152602001806135256031913960400191505060405180910390fd5b6001600160a01b0381166127115760405162461bcd60e51b815260040180806020018281038252602681526020018061336b6026913960400191505060405180910390fd5b600e546040516001600160a01b038084169216907f8be0079c531659141344cd1fd0a4f28419497f9722a3daafe3b4186f6b6457e090600090a3600e80546001600160a01b0319166001600160a01b0392909216919091179055565b6000838152601060205260408120600801805461290a929061278b57fe5b600091825260208083209091015486835260108083526040808520805460018201548351606081018552600284015481526003840154818901528c895294909652600b90910180546001600160a01b03909516968a96929592948a9490939084019291906127f557fe5b906000526020600020906002020160016002811061280f57fe5b0154905260008a8152601060209081526040918290206009018054835181840281018401909452808452909183018282801561287457602002820191906000526020600020905b81546001600160a01b03168152600190910190602001808311612856575b50505060008d815260106020908152604091829020600a01805483518184028101840190945280845292945092508301828280156128d157602002820191906000526020600020905b8154815260200190600101908083116128bd575b50505060008e8152601060205260409020600481015460069091015490925060ff600160a01b82041691506001600160a01b0316612172565b505050565b600060098260ff161161292957506030810160f81b610e13565b8160ff16600a111580156129415750600f8260ff1611155b1561016557506057810160f81b610e13565b6040805180820182526014815273496e73756666696369656e742062616c616e636560601b6020808301919091526000858152601082528381206001600160a01b0389168252600701909152918220546129ae918490612aa7565b60008481526010602090815260408083206001600160a01b038a1684526007019091529020556129df848484612d9a565b6129ea8584846122b2565b905060005b600084815260106020526040902060090154811015611cf0576000848152601060205260408120600901805483908110612a2557fe5b6000918252602080832090910154878352601090915260408220600a0180546001600160a01b0390921693509084908110612a5c57fe5b6000918252602090912001549050612a7a6127106123a98684612fec565b6001600160a01b039092166000908152600f602052604090206001908101805490930190925550016129ef565b60008184841115612b365760405162461bcd60e51b81526004018080602001828103825283818151815260200191508051906020019080838360005b83811015612afb578181015183820152602001612ae3565b50505050905090810190601f168015612b285780820380516001836020036101000a031916815260200191505b509250505060405180910390fd5b505050900390565b600034118015612b4e5750600081115b15612b9a576001600160a01b0382166000908152600f6020526040902060010154612b799082613045565b6001600160a01b0383166000908152600f602052604090206001015561131d565b3461131d576001600160a01b03919091166000908152600f6020526040902060010155565b6000813f7fc5d2460186f7233c927e7db2dcc703c0e500b653ca82273b7bfad8045d85a47081158015906118555750141592915050565b6000805b8551811015612c2657858181518110612c0f57fe5b602002602001015182019150806001019050612bfa565b5060008651118015612c36575060015b8015612c43575080612710145b8015612c50575061271084105b612c95576040805162461bcd60e51b8152602060048201526011602482015270496e76616c696420617267756d656e747360781b604482015290519081900360640190fd5b6000898152601060209081526040808320600581018c90558a516002808301919091558b840151600383015582518084018452428152928c015183850152600b909101805460018101825590855292909320612cf5939283020191613243565b5060008981526010602090815260409091208751612d1b9260099092019189019061327d565b5060008981526010602090815260409091208651612d4192600a909201918801906132d1565b505060009788526010602052604090972060048101929092556006909101805460ff60a01b1916600160a01b92151592909202919091176001600160a01b0319166001600160a01b039096169590951790945550505050565b60008281526010602090815260408083206001600160a01b0387168452600701909152812054612dca9083613045565b60008481526010602090815260408083206001600160a01b0389168452600701909152902054909150612ed95760008381526010602090815260408083206001600160a01b0388168452600701909152902060020154610100900460ff16612ea8576001600160a01b0384166000818152600f60209081526040808320600290810180546001818101835591865284862001899055888552601084528285206008810180549283018155865284862090910180546001600160a01b031916871790559484526007909401909152902001805461ff0019166101001790555b60008381526010602090815260408083206001600160a01b0388168452600701909152902042600190910155612f7a565b60008381526010602090815260408083206001600160a01b0388168452600701909152812060010154612f0d904290612106565b60008581526010602090815260408083206001600160a01b038a16845260070190915281205491925090612f479084906123a99085612fec565b60008681526010602090815260408083206001600160a01b038b1684526007019091529020429190910360019091015550505b60009283526010602090815260408085206001600160a01b03909616855260079095019052929091209190915550565b600061157a83836040518060400160405280601a81526020017f536166654d6174683a206469766973696f6e206279207a65726f000000000000815250613186565b600082612ffb57506000610dcb565b8282028284828161300857fe5b041461157a5760405162461bcd60e51b815260040180806020018281038252602181526020018061347f6021913960400191505060405180910390fd5b60008282018381101561157a576040805162461bcd60e51b815260206004820152601b60248201527f536166654d6174683a206164646974696f6e206f766572666c6f770000000000604482015290519081900360640190fd5b6000805b600a81101561317c576000600482600a81106130bb57fe5b01546001600160a01b031614613174576000600482600a81106130da57fe5b01546040805163c455279160e01b81526001600160a01b0388811660048301529151928216935090861691839163c4552791916024808301926020929190829003018186803b15801561312c57600080fd5b505afa158015613140573d6000803e3d6000fd5b505050506040513d602081101561315657600080fd5b50516001600160a01b0316141561317257600192505050610dcb565b505b6001016130a3565b5060009392505050565b600081836131d55760405162461bcd60e51b8152602060048201818152835160248401528351909283926044909101919085019080838360008315612afb578181015183820152602001612ae3565b5060008385816131e157fe5b0495945050505050565b82600a8101928215613233579160200282015b8281111561323357825182546001600160a01b0319166001600160a01b039091161782556020909201916001909101906131fe565b5061323f92915061330b565b5090565b8260028101928215613271579160200282015b82811115613271578251825591602001919060010190613256565b5061323f92915061332a565b828054828255906000526020600020908101928215613233579160200282018281111561323357825182546001600160a01b0319166001600160a01b039091161782556020909201916001909101906131fe565b8280548282559060005260206000209081019282156132715791602002820182811115613271578251825591602001919060010190613256565b5b8082111561323f5780546001600160a01b031916815560010161330c565b5b8082111561323f576000815560010161332b56fe455243313135353a2062616c616e636520717565727920666f7220746865207a65726f20616464726573734f776e61626c653a206e6577206f776e657220697320746865207a65726f2061646472657373455243313135353a207461726765742061646472657373206d757374206265206e6f6e2d7a65726f455243313135353a2063616e6e6f742073657420617070726f76616c2073746174757320666f722073656c66455243313135353a206163636f756e747320616e6420494473206d75737420686176652073616d65206c656e67746873455243313135353a20676f7420756e6b6e6f776e2076616c75652066726f6d206f6e4552433131353542617463685265636569766564455243313135353a20736f6d65206164647265737320696e2062617463682062616c616e6365207175657279206973207a65726f536166654d6174683a206d756c7469706c69636174696f6e206f766572666c6f774f776e61626c653a2063616c6c6572206973206e6f7420746865206f776e6572455243313135353a206e656564206f70657261746f7220617070726f76616c20666f7220337264207061727479207472616e7366657273455243313135353a2049447320616e642076616c756573206d75737420686176652073616d65206c656e67746873455243313135353a20676f7420756e6b6e6f776e2076616c75652066726f6d206f6e455243313135355265636569766564a26469706673582212208eeea8a5b42ace236cadfae4b37f65fa90171ad360016c93654149adf5d21c5b64736f6c634300070100334f776e61626c653a206e6577206f776e657220697320746865207a65726f2061646472657373",
  "immutableReferences": {},
  "source": "// SPDX-License-Identifier: GPL-3.0-or-later\npragma solidity ^0.7.1;\n\nimport \"../utils/SafeMath.sol\";\nimport \"./MultiToken.sol\";\n\ncontract Mintable is MultiToken {\n\n    using SafeMath for uint256;\n\n\n    /****************************\n    MODIFIERS\n    *****************************/\n\n\n    modifier onlyTokenizer() {\n        require(_isTokenizer(_msgSender()), \"Insufficient permission\");\n        _;\n    }\n\n\n    /****************************\n    EXTERNAL FUNCTIONS\n    *****************************/\n\n\n    /**\n     * @dev Function to authorize an address to create a token.\n     * @param tokenizer The authorized address\n     */\n    function authorizeTokenizer(address tokenizer) external onlyOwner {\n        _users[tokenizer].isTokenizer = true;\n    }\n\n    /**\n     * @dev Function to revoke the authorization to create a token.\n     * @param tokenizer The authorized address\n     */\n    function revokeTokenizer(address tokenizer) external onlyOwner {\n        _users[tokenizer].isTokenizer = false;\n    }\n\n    /**\n     * @dev Function to check if an address is authorized to create a token.\n     * @param tokenizer The authorized address\n     */\n    function isTokenizer(address tokenizer) external view returns (bool) {\n        return _isTokenizer(tokenizer);\n    }\n\n    /**\n     * @dev Function to mint an amount of a token with the given ID.\n     * @param recipient The address that will own the minted tokens\n     * @param id ID of the token to be minted\n     * @param supply Amount of the token to be minted\n     * @param metadataHash Metadata file hash\n     * @param transactionFees transaction fees: [lumpSumFees (in WEI), valueProportionalFees (ratio of transfered amount * 10**8), storageFees (in storageCredit * 10**8)]\n     * @param feesRecipients list of addresses receiving transfer fees\n     * @param feesRecipientsPercentage list of percentage, each one for the corresponding feesRecipients\n     * @param minHoldingForCallback minimum holding to propose a callback\n     * @param isPrivate true if holder need approval\n     * @param legalAuthority address of the legal authority\n     */\n    function createToken(address recipient,\n                         uint256 id,\n                         uint256 supply,\n                         uint256 decimals,\n                         uint256 metadataHash,\n                         uint256[3] memory transactionFees,\n                         address[] memory feesRecipients,\n                         uint256[] memory feesRecipientsPercentage,\n                         uint256 minHoldingForCallback,\n                         bool isPrivate,\n                         address legalAuthority)\n    external onlyTokenizer {\n        _createToken(recipient,\n                     id,\n                     supply,\n                     decimals,\n                     metadataHash,\n                     transactionFees,\n                     feesRecipients,\n                     feesRecipientsPercentage,\n                     minHoldingForCallback,\n                     isPrivate,\n                     legalAuthority);\n        emit TransferSingle(_msgSender(), address(0), recipient, id, supply);\n    }\n\n    /**\n     * @dev Function to mint tokens in batch.\n     * @param id Identifier of the template\n     * @param ids list of IDs of the tokens to be minted\n     * @param metadataHashes list of metadata file hashes\n     */\n    function cloneToken(uint256 id,\n                        uint256[] memory ids,\n                        uint256[] memory metadataHashes)\n    external onlyTokenizer {\n        require(_tokens[id].supply > 0 &&\n                ids.length == metadataHashes.length, \"Invalid arguments\");\n\n        for (uint256 i = 0; i < ids.length; ++i) {\n            _cloneToken(id, ids[i], metadataHashes[i]);\n\n            emit TransferSingle(_msgSender(),\n                                address(0),\n                                _tokens[id].holderList[0],\n                                ids[i],\n                                _tokens[id].supply);\n        }\n    }\n\n\n    /****************************\n    INTERNAL FUNCTIONS\n    *****************************/\n\n\n    function _isTokenizer(address tokenizer) internal view returns (bool) {\n        return _users[tokenizer].isTokenizer || _isOwner();\n    }\n\n    function _setToken(uint256 id,\n                       uint256 metadataHash,\n                       uint256[3] memory transactionFees,\n                       address[] memory feesRecipients,\n                       uint256[] memory feesRecipientsPercentage,\n                       uint256 minHoldingForCallback,\n                       bool isPrivate,\n                       address legalAuthority)\n    internal {\n        uint256 totalPercentage = 0;\n        for (uint256 i = 0; i < feesRecipientsPercentage.length; ++i)\n            totalPercentage += feesRecipientsPercentage[i];\n\n        require(feesRecipients.length > 0 && feesRecipients.length == feesRecipients.length &&\n                totalPercentage == 10000 &&\n                minHoldingForCallback < 10000,\n                \"Invalid arguments\");\n\n        _tokens[id].metadataHash = metadataHash;\n        _tokens[id].lumpSumTransactionFees = transactionFees[0];\n        _tokens[id].valueTransactionFees = transactionFees[1];\n        _tokens[id].storageCostHistory.push([block.timestamp, transactionFees[2]]);\n        _tokens[id].feesRecipients = feesRecipients;\n        _tokens[id].feesRecipientsPercentage = feesRecipientsPercentage;\n        _tokens[id].minHoldingForCallback = minHoldingForCallback;\n        _tokens[id].isPrivate = isPrivate;\n        _tokens[id].legalAuthority = legalAuthority;\n    }\n\n\n    function _createToken(address recipient,\n                          uint256 id,\n                          uint256 supply,\n                          uint256 decimals,\n                          uint256 metadataHash,\n                          uint256[3] memory transactionFees,\n                          address[] memory feesRecipients,\n                          uint256[] memory feesRecipientsPercentage,\n                          uint256 minHoldingForCallback,\n                          bool isPrivate,\n                          address legalAuthority)\n    internal {\n        require(_tokens[id].supply == 0 && supply > 0, \"Invalid arguments\");\n\n        _tokens[id].supply = supply;\n        _tokens[id].decimals = decimals;\n        _tokens[id].holders[_msgSender()].isMaintener = true;\n        _tokens[id].holders[recipient].isApproved = true;\n\n        _setToken(id,\n                  metadataHash,\n                  transactionFees,\n                  feesRecipients,\n                  feesRecipientsPercentage,\n                  minHoldingForCallback,\n                  isPrivate,\n                  legalAuthority);\n\n        _addToBalance(recipient, id, supply);\n    }\n\n    function _cloneToken(uint256 id, uint256 cloneId, uint256 metadataHash) internal {\n        _createToken(_tokens[id].holderList[0],\n                     cloneId,\n                     _tokens[id].supply,\n                     _tokens[id].decimals,\n                     metadataHash,\n                     [\n                       _tokens[id].lumpSumTransactionFees,\n                       _tokens[id].valueTransactionFees,\n                       _tokens[id].storageCostHistory[0][1]\n                     ],\n                     _tokens[id].feesRecipients,\n                     _tokens[id].feesRecipientsPercentage,\n                     _tokens[id].minHoldingForCallback,\n                     _tokens[id].isPrivate,\n                     _tokens[id].legalAuthority);\n    }\n\n}\n",
  "sourcePath": "/home/ouziel/Work/StashBloxContracts/contracts/lib/Mintable.sol",
  "compiler": {
    "name": "solc",
    "version": "0.7.1+commit.f4a555be.Emscripten.clang"
  },
  "schemaVersion": "3.2.3",
  "updatedAt": "2020-10-22T09:28:25.261Z",
  "devdoc": {
    "kind": "dev",
    "methods": {
      "authorizeTokenizer(address)": {
        "details": "Function to authorize an address to create a token.",
        "params": {
          "tokenizer": "The authorized address"
        }
      },
      "averageAge(address,uint256)": {
        "details": "Function to get the average age of the token for the given address.",
        "params": {
          "account": "the address from where to transfer the tokens",
          "id": "The token ID"
        },
        "returns": {
          "_0": "average age in seconds"
        }
      },
      "balanceOf(address,uint256)": {
        "details": "Get the specified address' balance for token with specified ID. Attempting to query the zero account for a balance will result in a revert.",
        "params": {
          "account": "The address of the token holder",
          "id": "ID of the token"
        },
        "returns": {
          "_0": "The account's balance of the token type requested"
        }
      },
      "balanceOfBatch(address[],uint256[])": {
        "details": "Get the balance of multiple account/token pairs. If any of the query accounts is the zero account, this query will revert.",
        "params": {
          "accounts": "The addresses of the token holders",
          "ids": "IDs of the tokens"
        },
        "returns": {
          "_0": "Balances for each account and token id pair"
        }
      },
      "cloneToken(uint256,uint256[],uint256[])": {
        "details": "Function to mint tokens in batch.",
        "params": {
          "id": "Identifier of the template",
          "ids": "list of IDs of the tokens to be minted",
          "metadataHashes": "list of metadata file hashes"
        }
      },
      "createToken(address,uint256,uint256,uint256,uint256,uint256[3],address[],uint256[],uint256,bool,address)": {
        "details": "Function to mint an amount of a token with the given ID.",
        "params": {
          "feesRecipients": "list of addresses receiving transfer fees",
          "feesRecipientsPercentage": "list of percentage, each one for the corresponding feesRecipients",
          "id": "ID of the token to be minted",
          "isPrivate": "true if holder need approval",
          "legalAuthority": "address of the legal authority",
          "metadataHash": "Metadata file hash",
          "minHoldingForCallback": "minimum holding to propose a callback",
          "recipient": "The address that will own the minted tokens",
          "supply": "Amount of the token to be minted",
          "transactionFees": "transaction fees: [lumpSumFees (in WEI), valueProportionalFees (ratio of transfered amount * 10**8), storageFees (in storageCredit * 10**8)]"
        }
      },
      "isApprovedForAll(address,address)": {
        "params": {
          "account": "The account of the Tokens",
          "operator": "Address of authorized operator"
        },
        "returns": {
          "_0": "True if the operator is approved, false if not"
        }
      },
      "isTokenizer(address)": {
        "details": "Function to check if an address is authorized to create a token.",
        "params": {
          "tokenizer": "The authorized address"
        }
      },
      "owner()": {
        "details": "Returns the address of the current owner."
      },
      "revokeTokenizer(address)": {
        "details": "Function to revoke the authorization to create a token.",
        "params": {
          "tokenizer": "The authorized address"
        }
      },
      "safeBatchTransferFrom(address,address,uint256[],uint256[],bytes)": {
        "details": "Transfers `values` amount(s) of `ids` from the `from` address to the `to` address specified. Caller must be approved to manage the tokens being transferred out of the `from` account. If `to` is a smart contract, will call `onERC1155BatchReceived` on `to` and act appropriately.",
        "params": {
          "data": "Data forwarded to `onERC1155Received` if `to` is a contract receiver",
          "from": "Source address",
          "ids": "IDs of each token type",
          "to": "Target address",
          "values": "Transfer amounts per token type"
        }
      },
      "safeTransferFrom(address,address,uint256,uint256,bytes)": {
        "details": "Transfers `value` amount of an `id` from the `from` address to the `to` address specified. Caller must be approved to manage the tokens being transferred out of the `from` account. If `to` is a smart contract, will call `onERC1155Received` on `to` and act appropriately.",
        "params": {
          "data": "Data forwarded to `onERC1155Received` if `to` is a contract receiver",
          "from": "Source address",
          "id": "ID of the token type",
          "to": "Target address",
          "value": "Transfer amount"
        }
      },
      "setApprovalForAll(address,bool)": {
        "details": "Sets or unsets the approval of a given operator. An operator is allowed to transfer all tokens of the sender on their behalf. Because an account already has operator privileges for itself, this function will revert if the account attempts to set the approval status for itself.",
        "params": {
          "approved": "representing the status of the approval to be set",
          "operator": "address to set the approval"
        }
      },
      "setProxyRegistryAddress(address[10])": {
        "details": "Function to update the operator whitelist",
        "params": {
          "proxyAddresses": "List of addresses"
        }
      },
      "supportsInterface(bytes4)": {
        "params": {
          "_interfaceID": "The interface identifier, as specified in ERC-165"
        },
        "returns": {
          "_0": "`true` if the contract implements `_interfaceID` and"
        }
      },
      "transactionFees(address,uint256,uint256)": {
        "details": "Function to get the transaction price to transfer tokens.",
        "params": {
          "account": "the address from where to transfer the tokens",
          "id": "The token ID",
          "value": "The amount to transfer"
        },
        "returns": {
          "_0": "transfer price"
        }
      },
      "transferOwnership(address)": {
        "details": "Transfers ownership of the contract to a new account (`newOwner`). Can only be called by the current owner."
      },
      "uri(uint256)": {
        "params": {
          "id": "Token ID"
        },
        "returns": {
          "_0": "URI string"
        }
      }
    },
    "version": 1
  },
  "userdoc": {
    "kind": "user",
    "methods": {
      "isApprovedForAll(address,address)": {
        "notice": "Queries the approval status of an operator for a given account."
      },
      "isTrustedForwarder(address)": {
        "notice": "return if the forwarder is trusted to forward relayed transactions to us. the forwarder is required to verify the sender's signature, and verify the call is not a replay."
      },
      "supportsInterface(bytes4)": {
        "notice": "Query if a contract implements an interface"
      }
    },
    "version": 1
  }
}