{
  "contractName": "Mintable",
  "abi": [
    {
      "anonymous": false,
      "inputs": [
        {
          "indexed": true,
          "internalType": "address",
          "name": "_owner",
          "type": "address"
        },
        {
          "indexed": true,
          "internalType": "address",
          "name": "_operator",
          "type": "address"
        },
        {
          "indexed": false,
          "internalType": "bool",
          "name": "_approved",
          "type": "bool"
        }
      ],
      "name": "ApprovalForAll",
      "type": "event"
    },
    {
      "anonymous": false,
      "inputs": [
        {
          "indexed": true,
          "internalType": "address",
          "name": "previousOwner",
          "type": "address"
        },
        {
          "indexed": true,
          "internalType": "address",
          "name": "newOwner",
          "type": "address"
        }
      ],
      "name": "OwnershipTransferred",
      "type": "event"
    },
    {
      "anonymous": false,
      "inputs": [
        {
          "indexed": true,
          "internalType": "address",
          "name": "_operator",
          "type": "address"
        },
        {
          "indexed": true,
          "internalType": "address",
          "name": "_from",
          "type": "address"
        },
        {
          "indexed": true,
          "internalType": "address",
          "name": "_to",
          "type": "address"
        },
        {
          "indexed": false,
          "internalType": "uint256[]",
          "name": "_ids",
          "type": "uint256[]"
        },
        {
          "indexed": false,
          "internalType": "uint256[]",
          "name": "_values",
          "type": "uint256[]"
        }
      ],
      "name": "TransferBatch",
      "type": "event"
    },
    {
      "anonymous": false,
      "inputs": [
        {
          "indexed": true,
          "internalType": "address",
          "name": "_operator",
          "type": "address"
        },
        {
          "indexed": true,
          "internalType": "address",
          "name": "_from",
          "type": "address"
        },
        {
          "indexed": true,
          "internalType": "address",
          "name": "_to",
          "type": "address"
        },
        {
          "indexed": false,
          "internalType": "uint256",
          "name": "_id",
          "type": "uint256"
        },
        {
          "indexed": false,
          "internalType": "uint256",
          "name": "_value",
          "type": "uint256"
        }
      ],
      "name": "TransferSingle",
      "type": "event"
    },
    {
      "anonymous": false,
      "inputs": [
        {
          "indexed": false,
          "internalType": "string",
          "name": "_value",
          "type": "string"
        },
        {
          "indexed": true,
          "internalType": "uint256",
          "name": "_id",
          "type": "uint256"
        }
      ],
      "name": "URI",
      "type": "event"
    },
    {
      "inputs": [
        {
          "internalType": "uint256",
          "name": "",
          "type": "uint256"
        }
      ],
      "name": "_callbacks",
      "outputs": [
        {
          "internalType": "uint256",
          "name": "tokenId",
          "type": "uint256"
        },
        {
          "internalType": "uint256",
          "name": "price",
          "type": "uint256"
        },
        {
          "internalType": "uint256",
          "name": "escrowedAmount",
          "type": "uint256"
        },
        {
          "internalType": "uint256",
          "name": "callCounter",
          "type": "uint256"
        },
        {
          "internalType": "uint256",
          "name": "documentHash",
          "type": "uint256"
        },
        {
          "internalType": "address",
          "name": "caller",
          "type": "address"
        },
        {
          "internalType": "bool",
          "name": "needLegalApproval",
          "type": "bool"
        },
        {
          "internalType": "bool",
          "name": "approvedByLegal",
          "type": "bool"
        },
        {
          "internalType": "bool",
          "name": "refused",
          "type": "bool"
        },
        {
          "internalType": "bool",
          "name": "accepted",
          "type": "bool"
        },
        {
          "internalType": "bool",
          "name": "completed",
          "type": "bool"
        }
      ],
      "stateMutability": "view",
      "type": "function"
    },
    {
      "inputs": [],
      "name": "_config",
      "outputs": [
        {
          "internalType": "uint256",
          "name": "callbackAutoExecuteMaxAddresses",
          "type": "uint256"
        },
        {
          "internalType": "string",
          "name": "baseURI",
          "type": "string"
        },
        {
          "internalType": "address",
          "name": "owner",
          "type": "address"
        }
      ],
      "stateMutability": "view",
      "type": "function"
    },
    {
      "inputs": [
        {
          "internalType": "uint256",
          "name": "",
          "type": "uint256"
        }
      ],
      "name": "_tokens",
      "outputs": [
        {
          "internalType": "uint256",
          "name": "supply",
          "type": "uint256"
        },
        {
          "internalType": "uint256",
          "name": "decimals",
          "type": "uint256"
        },
        {
          "internalType": "uint256",
          "name": "lumpSumTransactionFees",
          "type": "uint256"
        },
        {
          "internalType": "uint256",
          "name": "valueTransactionFees",
          "type": "uint256"
        },
        {
          "internalType": "uint256",
          "name": "minHoldingForCallback",
          "type": "uint256"
        },
        {
          "internalType": "uint256",
          "name": "metadataHash",
          "type": "uint256"
        },
        {
          "internalType": "address",
          "name": "legalAuthority",
          "type": "address"
        },
        {
          "internalType": "bool",
          "name": "isPrivate",
          "type": "bool"
        },
        {
          "internalType": "bool",
          "name": "locked",
          "type": "bool"
        }
      ],
      "stateMutability": "view",
      "type": "function"
    },
    {
      "inputs": [
        {
          "internalType": "address",
          "name": "",
          "type": "address"
        }
      ],
      "name": "_users",
      "outputs": [
        {
          "internalType": "bool",
          "name": "isTokenizer",
          "type": "bool"
        },
        {
          "internalType": "bool",
          "name": "isLocked",
          "type": "bool"
        },
        {
          "internalType": "uint256",
          "name": "ETHBalance",
          "type": "uint256"
        }
      ],
      "stateMutability": "view",
      "type": "function"
    },
    {
      "inputs": [
        {
          "internalType": "address",
          "name": "account",
          "type": "address"
        },
        {
          "internalType": "uint256",
          "name": "id",
          "type": "uint256"
        }
      ],
      "name": "averageAge",
      "outputs": [
        {
          "internalType": "uint256",
          "name": "",
          "type": "uint256"
        }
      ],
      "stateMutability": "view",
      "type": "function"
    },
    {
      "inputs": [
        {
          "internalType": "address",
          "name": "account",
          "type": "address"
        },
        {
          "internalType": "uint256",
          "name": "id",
          "type": "uint256"
        }
      ],
      "name": "balanceOf",
      "outputs": [
        {
          "internalType": "uint256",
          "name": "",
          "type": "uint256"
        }
      ],
      "stateMutability": "view",
      "type": "function"
    },
    {
      "inputs": [
        {
          "internalType": "address[]",
          "name": "accounts",
          "type": "address[]"
        },
        {
          "internalType": "uint256[]",
          "name": "ids",
          "type": "uint256[]"
        }
      ],
      "name": "balanceOfBatch",
      "outputs": [
        {
          "internalType": "uint256[]",
          "name": "",
          "type": "uint256[]"
        }
      ],
      "stateMutability": "view",
      "type": "function"
    },
    {
      "inputs": [
        {
          "internalType": "address",
          "name": "account",
          "type": "address"
        },
        {
          "internalType": "address",
          "name": "operator",
          "type": "address"
        }
      ],
      "name": "isApprovedForAll",
      "outputs": [
        {
          "internalType": "bool",
          "name": "",
          "type": "bool"
        }
      ],
      "stateMutability": "view",
      "type": "function"
    },
    {
      "inputs": [],
      "name": "owner",
      "outputs": [
        {
          "internalType": "address",
          "name": "",
          "type": "address"
        }
      ],
      "stateMutability": "view",
      "type": "function"
    },
    {
      "inputs": [
        {
          "internalType": "address",
          "name": "from",
          "type": "address"
        },
        {
          "internalType": "address",
          "name": "to",
          "type": "address"
        },
        {
          "internalType": "uint256[]",
          "name": "ids",
          "type": "uint256[]"
        },
        {
          "internalType": "uint256[]",
          "name": "values",
          "type": "uint256[]"
        },
        {
          "internalType": "bytes",
          "name": "data",
          "type": "bytes"
        }
      ],
      "name": "safeBatchTransferFrom",
      "outputs": [],
      "stateMutability": "payable",
      "type": "function"
    },
    {
      "inputs": [
        {
          "internalType": "address",
          "name": "from",
          "type": "address"
        },
        {
          "internalType": "address",
          "name": "to",
          "type": "address"
        },
        {
          "internalType": "uint256",
          "name": "id",
          "type": "uint256"
        },
        {
          "internalType": "uint256",
          "name": "value",
          "type": "uint256"
        },
        {
          "internalType": "bytes",
          "name": "data",
          "type": "bytes"
        }
      ],
      "name": "safeTransferFrom",
      "outputs": [],
      "stateMutability": "payable",
      "type": "function"
    },
    {
      "inputs": [
        {
          "internalType": "address",
          "name": "operator",
          "type": "address"
        },
        {
          "internalType": "bool",
          "name": "approved",
          "type": "bool"
        }
      ],
      "name": "setApprovalForAll",
      "outputs": [],
      "stateMutability": "nonpayable",
      "type": "function"
    },
    {
      "inputs": [
        {
          "internalType": "address[10]",
          "name": "proxyAddresses",
          "type": "address[10]"
        }
      ],
      "name": "setProxyRegistryAddress",
      "outputs": [],
      "stateMutability": "nonpayable",
      "type": "function"
    },
    {
      "inputs": [
        {
          "internalType": "bytes4",
          "name": "_interfaceID",
          "type": "bytes4"
        }
      ],
      "name": "supportsInterface",
      "outputs": [
        {
          "internalType": "bool",
          "name": "",
          "type": "bool"
        }
      ],
      "stateMutability": "pure",
      "type": "function"
    },
    {
      "inputs": [
        {
          "internalType": "address",
          "name": "account",
          "type": "address"
        },
        {
          "internalType": "uint256",
          "name": "id",
          "type": "uint256"
        },
        {
          "internalType": "uint256",
          "name": "value",
          "type": "uint256"
        }
      ],
      "name": "transactionFees",
      "outputs": [
        {
          "internalType": "uint256",
          "name": "",
          "type": "uint256"
        }
      ],
      "stateMutability": "view",
      "type": "function"
    },
    {
      "inputs": [
        {
          "internalType": "address",
          "name": "newOwner",
          "type": "address"
        }
      ],
      "name": "transferOwnership",
      "outputs": [],
      "stateMutability": "nonpayable",
      "type": "function"
    },
    {
      "inputs": [
        {
          "internalType": "uint256",
          "name": "id",
          "type": "uint256"
        }
      ],
      "name": "uri",
      "outputs": [
        {
          "internalType": "string",
          "name": "",
          "type": "string"
        }
      ],
      "stateMutability": "view",
      "type": "function"
    },
    {
      "inputs": [
        {
          "internalType": "address",
          "name": "tokenizer",
          "type": "address"
        }
      ],
      "name": "authorizeTokenizer",
      "outputs": [],
      "stateMutability": "nonpayable",
      "type": "function"
    },
    {
      "inputs": [
        {
          "internalType": "address",
          "name": "tokenizer",
          "type": "address"
        }
      ],
      "name": "revokeTokenizer",
      "outputs": [],
      "stateMutability": "nonpayable",
      "type": "function"
    },
    {
      "inputs": [
        {
          "internalType": "address",
          "name": "tokenizer",
          "type": "address"
        }
      ],
      "name": "isTokenizer",
      "outputs": [
        {
          "internalType": "bool",
          "name": "",
          "type": "bool"
        }
      ],
      "stateMutability": "view",
      "type": "function"
    },
    {
      "inputs": [
        {
          "internalType": "address",
          "name": "recipient",
          "type": "address"
        },
        {
          "internalType": "uint256",
          "name": "id",
          "type": "uint256"
        },
        {
          "internalType": "uint256",
          "name": "supply",
          "type": "uint256"
        },
        {
          "internalType": "uint256",
          "name": "decimals",
          "type": "uint256"
        },
        {
          "internalType": "uint256",
          "name": "metadataHash",
          "type": "uint256"
        },
        {
          "internalType": "uint256[3]",
          "name": "transactionFees",
          "type": "uint256[3]"
        },
        {
          "internalType": "address[]",
          "name": "feesRecipients",
          "type": "address[]"
        },
        {
          "internalType": "uint256[]",
          "name": "feesRecipientsPercentage",
          "type": "uint256[]"
        },
        {
          "internalType": "uint256",
          "name": "minHoldingForCallback",
          "type": "uint256"
        },
        {
          "internalType": "bool",
          "name": "isPrivate",
          "type": "bool"
        },
        {
          "internalType": "address",
          "name": "legalAuthority",
          "type": "address"
        }
      ],
      "name": "createToken",
      "outputs": [],
      "stateMutability": "nonpayable",
      "type": "function"
    },
    {
      "inputs": [
        {
          "internalType": "uint256",
          "name": "id",
          "type": "uint256"
        },
        {
          "internalType": "uint256[]",
          "name": "ids",
          "type": "uint256[]"
        },
        {
          "internalType": "uint256[]",
          "name": "metadataHashes",
          "type": "uint256[]"
        }
      ],
      "name": "cloneToken",
      "outputs": [],
      "stateMutability": "nonpayable",
      "type": "function"
    }
  ],
  "bytecode": "0x60806040523480156200001157600080fd5b506200001d3362000023565b620000e0565b6001600160a01b03811662000084576040517f08c379a00000000000000000000000000000000000000000000000000000000081526004018080602001828103825260268152602001806200346c6026913960400191505060405180910390fd5b600c546040516001600160a01b038084169216907f8be0079c531659141344cd1fd0a4f28419497f9722a3daafe3b4186f6b6457e090600090a3600c80546001600160a01b0319166001600160a01b0392909216919091179055565b61337c80620000f06000396000f3fe6080604052600436106101345760003560e01c80638870147b116100ab578063d1660e181161006f578063d1660e18146109d9578063e985e9c514610a18578063ed70554d14610a53578063f242432a14610ad1578063f2fde38b14610b64578063f8a5a07c14610b9757610134565b80638870147b1461076a5780638da5cb5b1461079d578063a22cb465146107ce578063c02f303c14610809578063c40b87ae1461083c57610134565b80633cacd7d6116100fd5780633cacd7d614610438578063414ed0ce1461048b5780634392e5771461051d5780634e1273f41461057e578063585941d5146106fe5780637627b7321461073757610134565b8062fdd58e1461013957806301ffc9a7146101845780630e89341c146101cc5780632eb2c2d61461026b5780632ed42bf714610394575b600080fd5b34801561014557600080fd5b506101726004803603604081101561015c57600080fd5b506001600160a01b038135169060200135610cce565b60408051918252519081900360200190f35b34801561019057600080fd5b506101b8600480360360208110156101a757600080fd5b50356001600160e01b031916610d43565b604080519115158252519081900360200190f35b3480156101d857600080fd5b506101f6600480360360208110156101ef57600080fd5b5035610d8a565b6040805160208082528351818301528351919283929083019185019080838360005b83811015610230578181015183820152602001610218565b50505050905090810190601f16801561025d5780820380516001836020036101000a031916815260200191505b509250505060405180910390f35b610392600480360360a081101561028157600080fd5b6001600160a01b038235811692602081013590911691810190606081016040820135600160201b8111156102b457600080fd5b8201836020820111156102c657600080fd5b803590602001918460208302840111600160201b831117156102e757600080fd5b919390929091602081019035600160201b81111561030457600080fd5b82018360208201111561031657600080fd5b803590602001918460208302840111600160201b8311171561033757600080fd5b919390929091602081019035600160201b81111561035457600080fd5b82018360208201111561036657600080fd5b803590602001918460018302840111600160201b8311171561038757600080fd5b509092509050610e2b565b005b3480156103a057600080fd5b506103a96110d9565b6040518084815260200180602001836001600160a01b03168152602001828103825284818151815260200191508051906020019080838360005b838110156103fb5781810151838201526020016103e3565b50505050905090810190601f1680156104285780820380516001836020036101000a031916815260200191505b5094505050505060405180910390f35b34801561044457600080fd5b5061046b6004803603602081101561045b57600080fd5b50356001600160a01b031661117e565b604080519315158452911515602084015282820152519081900360600190f35b34801561049757600080fd5b506104b5600480360360208110156104ae57600080fd5b50356111a4565b604080519b8c5260208c019a909a528a8a019890985260608a019690965260808901949094526001600160a01b0390921660a0880152151560c0870152151560e086015215156101008501521515610120840152151561014083015251908190036101600190f35b34801561052957600080fd5b50610392600480360361014081101561054157600080fd5b81019080806101400190600a806020026040519081016040528092919082600a602002808284376000920191909152509194506112179350505050565b34801561058a57600080fd5b506106ae600480360360408110156105a157600080fd5b810190602081018135600160201b8111156105bb57600080fd5b8201836020820111156105cd57600080fd5b803590602001918460208302840111600160201b831117156105ee57600080fd5b9190808060200260200160405190810160405280939291908181526020018383602002808284376000920191909152509295949360208101935035915050600160201b81111561063d57600080fd5b82018360208201111561064f57600080fd5b803590602001918460208302840111600160201b8311171561067057600080fd5b91908080602002602001604051908101604052809392919081815260200183836020028082843760009201919091525092955061126f945050505050565b60408051602080825283518183015283519192839290830191858101910280838360005b838110156106ea5781810151838201526020016106d2565b505050509050019250505060405180910390f35b34801561070a57600080fd5b506101726004803603604081101561072157600080fd5b506001600160a01b0381351690602001356113f3565b34801561074357600080fd5b506103926004803603602081101561075a57600080fd5b50356001600160a01b031661142e565b34801561077657600080fd5b506103926004803603602081101561078d57600080fd5b50356001600160a01b0316611499565b3480156107a957600080fd5b506107b2611501565b604080516001600160a01b039092168252519081900360200190f35b3480156107da57600080fd5b50610392600480360360408110156107f157600080fd5b506001600160a01b0381351690602001351515611510565b34801561081557600080fd5b506101b86004803603602081101561082c57600080fd5b50356001600160a01b03166115ca565b34801561084857600080fd5b5061039260048036036101a081101561086057600080fd5b60408051606081810183526001600160a01b03853516946020810135949381013593828201359360808301359391830192916101008301919060a0840190600390839083908082843760009201919091525091949392602081019250359050600160201b8111156108d057600080fd5b8201836020820111156108e257600080fd5b803590602001918460208302840111600160201b8311171561090357600080fd5b9190808060200260200160405190810160405280939291908181526020018383602002808284376000920191909152509295949360208101935035915050600160201b81111561095257600080fd5b82018360208201111561096457600080fd5b803590602001918460208302840111600160201b8311171561098557600080fd5b919080806020026020016040519081016040528093929190818152602001838360200280828437600092019190915250929550508235935050506020810135151590604001356001600160a01b03166115d5565b3480156109e557600080fd5b50610172600480360360608110156109fc57600080fd5b506001600160a01b038135169060208101359060400135611694565b348015610a2457600080fd5b506101b860048036036040811015610a3b57600080fd5b506001600160a01b03813581169160200135166116a9565b348015610a5f57600080fd5b50610a7d60048036036020811015610a7657600080fd5b50356116b5565b60408051998a5260208a0198909852888801969096526060880194909452608087019290925260a08601526001600160a01b031660c0850152151560e0840152151561010083015251908190036101200190f35b610392600480360360a0811015610ae757600080fd5b6001600160a01b03823581169260208101359091169160408201359160608101359181019060a081016080820135600160201b811115610b2657600080fd5b820183602082011115610b3857600080fd5b803590602001918460018302840111600160201b83111715610b5957600080fd5b509092509050611711565b348015610b7057600080fd5b5061039260048036036020811015610b8757600080fd5b50356001600160a01b0316611868565b348015610ba357600080fd5b5061039260048036036060811015610bba57600080fd5b81359190810190604081016020820135600160201b811115610bdb57600080fd5b820183602082011115610bed57600080fd5b803590602001918460208302840111600160201b83111715610c0e57600080fd5b9190808060200260200160405190810160405280939291908181526020018383602002808284376000920191909152509295949360208101935035915050600160201b811115610c5d57600080fd5b820183602082011115610c6f57600080fd5b803590602001918460208302840111600160201b83111715610c9057600080fd5b9190808060200260200160405190810160405280939291908181526020018383602002808284376000920191909152509295506118bb945050505050565b60006001600160a01b038316610d155760405162461bcd60e51b815260040180806020018281038252602b815260200180613131602b913960400191505060405180910390fd5b506000818152600e602090815260408083206001600160a01b03861684526007019091529020545b92915050565b60006001600160e01b031982166301ffc9a760e01b1480610d7457506001600160e01b03198216636cdb3d1360e11b145b15610d8157506001610d85565b5060005b919050565b60018054604080516020600284861615610100026000190190941693909304601f8101849004840282018401909252818152606093610d3d9391929091830182828015610e185780601f10610ded57610100808354040283529160200191610e18565b820191906000526020600020905b815481529060010190602001808311610dfb57829003601f168201915b5050505050610e2684611a5e565b611b1a565b848314610e695760405162461bcd60e51b815260040180806020018281038252602e8152602001806132e8602e913960400191505060405180910390fd5b6001600160a01b038716610eae5760405162461bcd60e51b81526004018080602001828103825260288152602001806131826028913960400191505060405180910390fd5b6001600160a01b038816331480610ed05750610eca88336116a9565b15156001145b610f0b5760405162461bcd60e51b81526004018080602001828103825260378152602001806132b16037913960400191505060405180910390fd5b610f7a888888888080602002602001604051908101604052809392919081815260200183836020028082843760009201919091525050604080516020808c0282810182019093528b82529093508b92508a918291850190849080828437600092019190915250611c2492505050565b866001600160a01b0316886001600160a01b0316336001600160a01b03167f4a39dc06d4c0dbc64b70af90fd698a233a518aa5d07e595d983b8c0526c8f7fb898989896040518080602001806020018381038352878782818152602001925060200280828437600083820152601f01601f19169091018481038352858152602090810191508690860280828437600083820152604051601f909101601f19169092018290039850909650505050505050a46110cf33898989898080602002602001604051908101604052809392919081815260200183836020028082843760009201919091525050604080516020808d0282810182019093528c82529093508c92508b91829185019084908082843760009201919091525050604080516020601f8c018190048102820181019092528a815292508a9150899081908401838280828437600092019190915250611cde92505050565b5050505050505050565b6000805460018054604080516020600284861615610100026000190190941693909304601f810184900484028201840190925281815293949392918301828280156111655780601f1061113a57610100808354040283529160200191611165565b820191906000526020600020905b81548152906001019060200180831161114857829003601f168201915b505050600c90930154919250506001600160a01b031683565b600d602052600090815260409020805460019091015460ff808316926101009004169083565b600f6020526000908152604090208054600182015460028301546003840154600485015460059095015493949293919290916001600160a01b0381169060ff600160a01b8204811691600160a81b8104821691600160b01b8204811691600160b81b8104821691600160c01b909104168b565b61121f611ecf565b61125e576040805162461bcd60e51b81526020600482018190526024820152600080516020613291833981519152604482015290519081900360640190fd5b61126b600282600a612fdc565b5050565b606081518351146112b15760405162461bcd60e51b81526004018080602001828103825260308152602001806131d66030913960400191505060405180910390fd5b6060835167ffffffffffffffff811180156112cb57600080fd5b506040519080825280602002602001820160405280156112f5578160200160208202803683370190505b50905060005b84518110156113eb5760006001600160a01b031685828151811061131b57fe5b60200260200101516001600160a01b031614156113695760405162461bcd60e51b815260040180806020018281038252603481526020018061323c6034913960400191505060405180910390fd5b600e600085838151811061137957fe5b6020026020010151815260200190815260200160002060070160008683815181106113a057fe5b60200260200101516001600160a01b03166001600160a01b03168152602001908152602001600020600001548282815181106113d857fe5b60209081029190910101526001016112fb565b509392505050565b6000818152600e602090815260408083206001600160a01b0386168452600701909152812060010154611427904290611ee0565b9392505050565b611436611ecf565b611475576040805162461bcd60e51b81526020600482018190526024820152600080516020613291833981519152604482015290519081900360640190fd5b6001600160a01b03166000908152600d60205260409020805460ff19166001179055565b6114a1611ecf565b6114e0576040805162461bcd60e51b81526020600482018190526024820152600080516020613291833981519152604482015290519081900360640190fd5b6001600160a01b03166000908152600d60205260409020805460ff19169055565b600c546001600160a01b031690565b336001600160a01b03831614156115585760405162461bcd60e51b815260040180806020018281038252602c8152602001806131aa602c913960400191505060405180910390fd5b336000818152600d602090815260408083206001600160a01b0387168085526003909101835292819020805460ff1916861515908117909155815190815290519293927f17307eab39ab6107e8899845ad3d59bd9653f200f220920489ca2b5937696c31929181900390910190a35050565b6000610d3d82611f22565b6115de33611f22565b611629576040805162461bcd60e51b815260206004820152601760248201527624b739bab33334b1b4b2b73a103832b936b4b9b9b4b7b760491b604482015290519081900360640190fd5b61163c8b8b8b8b8b8b8b8b8b8b8b611f4c565b604080518b8152602081018b905281516001600160a01b038e169260009233927fc3d58168c5ae7397731d063d5bbf3d657854427343f4c083240f7aacaa2d0f62929181900390910190a45050505050505050505050565b60006116a18484846120b5565b949350505050565b6000611427838361229d565b600e60205260009081526040902080546001820154600283015460038401546004850154600586015460069096015494959394929391929091906001600160a01b0381169060ff600160a01b8204811691600160a81b90041689565b6001600160a01b0385166117565760405162461bcd60e51b81526004018080602001828103825260288152602001806131826028913960400191505060405180910390fd5b6001600160a01b038616331480611778575061177286336116a9565b15156001145b6117b35760405162461bcd60e51b81526004018080602001828103825260378152602001806132b16037913960400191505060405180910390fd5b6117bf868686866122e2565b846001600160a01b0316866001600160a01b0316336001600160a01b03167fc3d58168c5ae7397731d063d5bbf3d657854427343f4c083240f7aacaa2d0f628787604051808381526020018281526020019250505060405180910390a4611860338787878787878080601f01602080910402602001604051908101604052809392919081815260200183838082843760009201919091525061235a92505050565b505050505050565b611870611ecf565b6118af576040805162461bcd60e51b81526020600482018190526024820152600080516020613291833981519152604482015290519081900360640190fd5b6118b8816124cf565b50565b6118c433611f22565b61190f576040805162461bcd60e51b815260206004820152601760248201527624b739bab33334b1b4b2b73a103832b936b4b9b9b4b7b760491b604482015290519081900360640190fd5b6000838152600e60205260409020541580159061192d575080518251145b611972576040805162461bcd60e51b8152602060048201526011602482015270496e76616c696420617267756d656e747360781b604482015290519081900360640190fd5b60005b8251811015611a58576119af8484838151811061198e57fe5b60200260200101518484815181106119a257fe5b6020026020010151612570565b6000848152600e6020526040812060080180549091906119cb57fe5b600091825260208220015484516001600160a01b03909116919033907fc3d58168c5ae7397731d063d5bbf3d657854427343f4c083240f7aacaa2d0f6290879086908110611a1557fe5b6020026020010151600e60008a815260200190815260200160002060000154604051808381526020018281526020019250505060405180910390a4600101611975565b50505050565b60606000825b8015611a7a576001919091019060109004611a64565b60608267ffffffffffffffff81118015611a9357600080fd5b506040519080825280601f01601f191660200182016040528015611abe576020820181803683370190505b50905060005b83811015611b1157601086069250611adb83612712565b8260018387030381518110611aec57fe5b60200101906001600160f81b031916908160001a905350601086049550600101611ac4565b50949350505050565b805182516060918491849184910167ffffffffffffffff81118015611b3e57600080fd5b506040519080825280601f01601f191660200182016040528015611b69576020820181803683370190505b509050806000805b8551811015611bc257858181518110611b8657fe5b602001015160f81c60f81b838380600101945081518110611ba357fe5b60200101906001600160f81b031916908160001a905350600101611b71565b5060005b8451811015611c1757848181518110611bdb57fe5b602001015160f81c60f81b838380600101945081518110611bf857fe5b60200101906001600160f81b031916908160001a905350600101611bc6565b5090979650505050505050565b6000803411611c4e576001600160a01b0385166000908152600d6020526040902060010154611c50565b345b905060005b8351811015611ccc57611cc2611c938787878581518110611c7257fe5b6020026020010151878681518110611c8657fe5b6020026020010151612756565b60408051808201909152601081526f092dce6eaccccd2c6d2cadce8408aa8960831b60208201528491906128aa565b9150600101611c55565b50611cd78582612941565b5050505050565b611cf0846001600160a01b03166129c2565b156118605763bc197c8160e01b6001600160e01b031916846001600160a01b031663bc197c8188888787876040518663ffffffff1660e01b815260040180866001600160a01b03168152602001856001600160a01b03168152602001806020018060200180602001848103845287818151815260200191508051906020019060200280838360005b83811015611d90578181015183820152602001611d78565b50505050905001848103835286818151815260200191508051906020019060200280838360005b83811015611dcf578181015183820152602001611db7565b50505050905001848103825285818151815260200191508051906020019080838360005b83811015611e0b578181015183820152602001611df3565b50505050905090810190601f168015611e385780820380516001836020036101000a031916815260200191505b5098505050505050505050602060405180830381600087803b158015611e5d57600080fd5b505af1158015611e71573d6000803e3d6000fd5b505050506040513d6020811015611e8757600080fd5b50516001600160e01b031916146118605760405162461bcd60e51b81526004018080602001828103825260368152602001806132066036913960400191505060405180910390fd5b600c546001600160a01b0316331490565b600061142783836040518060400160405280601e81526020017f536166654d6174683a207375627472616374696f6e206f766572666c6f7700008152506128aa565b6001600160a01b0381166000908152600d602052604081205460ff1680610d3d5750610d3d611ecf565b60008a8152600e6020526040902054158015611f685750600089115b611fad576040805162461bcd60e51b8152602060048201526011602482015270496e76616c696420617267756d656e747360781b604482015290519081900360640190fd5b88600e60008c81526020019081526020016000206000018190555087600e60008c8152602001908152602001600020600101819055506001600e60008c81526020019081526020016000206007016000336001600160a01b03166001600160a01b0316815260200190815260200160002060020160006101000a81548160ff0219169083151502179055506001600e60008c815260200190815260200160002060070160008d6001600160a01b03166001600160a01b0316815260200190815260200160002060020160026101000a81548160ff02191690831515021790555061209d8a888888888888886129f9565b6120a88b8b8b612b9d565b5050505050505050505050565b6000828152600e60205260408120600b015481904290600019015b6000868152600e60205260408120600b018054839081106120ed57fe5b60009182526020822060029091020101546000888152600e60205260408120600b01805492935090918490811061212057fe5b906000526020600020906002020160016002811061213a57fe5b01546000898152600e602090815260408083206001600160a01b038e1684526007019091528120600101549192509083116121dd576000898152600e602090815260408083206001600160a01b038e1684526007019091529020600101546121b29062015180906121ac908890611ee0565b90612d9b565b9050806121bd575060015b6121d1886121cb8385612ddd565b90612ddd565b8601955050505061221c565b6121ee620151806121ac8786611ee0565b9050806121f9575060015b919350839161220c886121cb8385612ddd565b90950194505050600019016120d0565b506000858152600e602052604090206001015461223d908390600a0a612d9b565b6000868152600e602052604081206003015491935090612268906305f5e100906121ac908890612ddd565b6000878152600e60205260409020600201549091506122929061228b9083612e36565b8490612e36565b979650505050505050565b60006122a98383612e90565b806114275750506001600160a01b039182166000908152600d602090815260408083209390941682526003909201909152205460ff1690565b600080341161230c576001600160a01b0385166000908152600d602052604090206001015461230e565b345b905061234e61231f86868686612756565b60408051808201909152601081526f092dce6eaccccd2c6d2cadce8408aa8960831b60208201528391906128aa565b9050611cd78582612941565b61236c846001600160a01b03166129c2565b156118605763f23a6e6160e01b6001600160e01b031916846001600160a01b031663f23a6e6188888787876040518663ffffffff1660e01b815260040180866001600160a01b03168152602001856001600160a01b0316815260200184815260200183815260200180602001828103825283818151815260200191508051906020019080838360005b8381101561240d5781810151838201526020016123f5565b50505050905090810190601f16801561243a5780820380516001836020036101000a031916815260200191505b509650505050505050602060405180830381600087803b15801561245d57600080fd5b505af1158015612471573d6000803e3d6000fd5b505050506040513d602081101561248757600080fd5b50516001600160e01b031916146118605760405162461bcd60e51b81526004018080602001828103825260318152602001806133166031913960400191505060405180910390fd5b6001600160a01b0381166125145760405162461bcd60e51b815260040180806020018281038252602681526020018061315c6026913960400191505060405180910390fd5b600c546040516001600160a01b038084169216907f8be0079c531659141344cd1fd0a4f28419497f9722a3daafe3b4186f6b6457e090600090a3600c80546001600160a01b0319166001600160a01b0392909216919091179055565b6000838152600e60205260408120600801805461270d929061258e57fe5b6000918252602080832090910154868352600e8083526040808520805460018201548351606081018552600284015481526003840154818901528c895294909652600b90910180546001600160a01b03909516968a96929592948a9490939084019291906125f857fe5b906000526020600020906002020160016002811061261257fe5b0154905260008a8152600e60209081526040918290206009018054835181840281018401909452808452909183018282801561267757602002820191906000526020600020905b81546001600160a01b03168152600190910190602001808311612659575b50505060008d8152600e6020908152604091829020600a01805483518184028101840190945280845292945092508301828280156126d457602002820191906000526020600020905b8154815260200190600101908083116126c0575b50505060008e8152600e60205260409020600481015460069091015490925060ff600160a01b82041691506001600160a01b0316611f4c565b505050565b600060098260ff161161272c57506030810160f81b610d85565b8160ff16600a111580156127445750600f8260ff1611155b1561013457506057810160f81b610d85565b6040805180820182526014815273496e73756666696369656e742062616c616e636560601b6020808301919091526000858152600e82528381206001600160a01b0389168252600701909152918220546127b19184906128aa565b6000848152600e602090815260408083206001600160a01b038a1684526007019091529020556127e2848484612b9d565b6127ed8584846120b5565b905060005b6000848152600e6020526040902060090154811015611b11576000848152600e6020526040812060090180548390811061282857fe5b6000918252602080832090910154878352600e90915260408220600a0180546001600160a01b039092169350908490811061285f57fe5b600091825260209091200154905061287d6127106121ac8684612ddd565b6001600160a01b039092166000908152600d602052604090206001908101805490930190925550016127f2565b600081848411156129395760405162461bcd60e51b81526004018080602001828103825283818151815260200191508051906020019080838360005b838110156128fe5781810151838201526020016128e6565b50505050905090810190601f16801561292b5780820380516001836020036101000a031916815260200191505b509250505060405180910390fd5b505050900390565b6000341180156129515750600081115b1561299d576001600160a01b0382166000908152600d602052604090206001015461297c9082612e36565b6001600160a01b0383166000908152600d602052604090206001015561126b565b3461126b576001600160a01b03919091166000908152600d6020526040902060010155565b6000813f7fc5d2460186f7233c927e7db2dcc703c0e500b653ca82273b7bfad8045d85a47081158015906116a15750141592915050565b6000805b8551811015612a2957858181518110612a1257fe5b6020026020010151820191508060010190506129fd565b5060008651118015612a39575060015b8015612a46575080612710145b8015612a53575061271084105b612a98576040805162461bcd60e51b8152602060048201526011602482015270496e76616c696420617267756d656e747360781b604482015290519081900360640190fd5b6000898152600e60209081526040808320600581018c90558a516002808301919091558b840151600383015582518084018452428152928c015183850152600b909101805460018101825590855292909320612af8939283020191613034565b506000898152600e602090815260409091208751612b1e9260099092019189019061306e565b506000898152600e602090815260409091208651612b4492600a909201918801906130c2565b50506000978852600e602052604090972060048101929092556006909101805460ff60a01b1916600160a01b92151592909202919091176001600160a01b0319166001600160a01b039096169590951790945550505050565b6000828152600e602090815260408083206001600160a01b0387168452600701909152812054612bcd9083612e36565b6000848152600e602090815260408083206001600160a01b0389168452600701909152902054909150612cca576000838152600e602090815260408083206001600160a01b0388168452600701909152902060020154610100900460ff16612c99576001600160a01b0384166000818152600d6020908152604080832060020180546001818101835591855283852001889055878452600e83529083206008810180549283018155845282842090910180546001600160a01b0319168517905592909152600790910190525b6000838152600e602090815260408083206001600160a01b0388168452600701909152902042600190910155612d6b565b6000838152600e602090815260408083206001600160a01b0388168452600701909152812060010154612cfe904290611ee0565b6000858152600e602090815260408083206001600160a01b038a16845260070190915281205491925090612d389084906121ac9085612ddd565b6000868152600e602090815260408083206001600160a01b038b1684526007019091529020429190910360019091015550505b6000928352600e602090815260408085206001600160a01b03909616855260079095019052929091209190915550565b600061142783836040518060400160405280601a81526020017f536166654d6174683a206469766973696f6e206279207a65726f000000000000815250612f77565b600082612dec57506000610d3d565b82820282848281612df957fe5b04146114275760405162461bcd60e51b81526004018080602001828103825260218152602001806132706021913960400191505060405180910390fd5b600082820183811015611427576040805162461bcd60e51b815260206004820152601b60248201527f536166654d6174683a206164646974696f6e206f766572666c6f770000000000604482015290519081900360640190fd5b6000805b600a811015612f6d576000600282600a8110612eac57fe5b01546001600160a01b031614612f65576000600282600a8110612ecb57fe5b01546040805163c455279160e01b81526001600160a01b0388811660048301529151928216935090861691839163c4552791916024808301926020929190829003018186803b158015612f1d57600080fd5b505afa158015612f31573d6000803e3d6000fd5b505050506040513d6020811015612f4757600080fd5b50516001600160a01b03161415612f6357600192505050610d3d565b505b600101612e94565b5060009392505050565b60008183612fc65760405162461bcd60e51b81526020600482018181528351602484015283519092839260449091019190850190808383600083156128fe5781810151838201526020016128e6565b506000838581612fd257fe5b0495945050505050565b82600a8101928215613024579160200282015b8281111561302457825182546001600160a01b0319166001600160a01b03909116178255602090920191600190910190612fef565b506130309291506130fc565b5090565b8260028101928215613062579160200282015b82811115613062578251825591602001919060010190613047565b5061303092915061311b565b828054828255906000526020600020908101928215613024579160200282018281111561302457825182546001600160a01b0319166001600160a01b03909116178255602090920191600190910190612fef565b8280548282559060005260206000209081019282156130625791602002820182811115613062578251825591602001919060010190613047565b5b808211156130305780546001600160a01b03191681556001016130fd565b5b80821115613030576000815560010161311c56fe455243313135353a2062616c616e636520717565727920666f7220746865207a65726f20616464726573734f776e61626c653a206e6577206f776e657220697320746865207a65726f2061646472657373455243313135353a207461726765742061646472657373206d757374206265206e6f6e2d7a65726f455243313135353a2063616e6e6f742073657420617070726f76616c2073746174757320666f722073656c66455243313135353a206163636f756e747320616e6420494473206d75737420686176652073616d65206c656e67746873455243313135353a20676f7420756e6b6e6f776e2076616c75652066726f6d206f6e4552433131353542617463685265636569766564455243313135353a20736f6d65206164647265737320696e2062617463682062616c616e6365207175657279206973207a65726f536166654d6174683a206d756c7469706c69636174696f6e206f766572666c6f774f776e61626c653a2063616c6c6572206973206e6f7420746865206f776e6572455243313135353a206e656564206f70657261746f7220617070726f76616c20666f7220337264207061727479207472616e7366657273455243313135353a2049447320616e642076616c756573206d75737420686176652073616d65206c656e67746873455243313135353a20676f7420756e6b6e6f776e2076616c75652066726f6d206f6e455243313135355265636569766564a26469706673582212209db662401bc4d598347da2d4f16c947852d0bfa17e96bf6fbb253a2f00c671d064736f6c634300070100334f776e61626c653a206e6577206f776e657220697320746865207a65726f2061646472657373",
  "immutableReferences": {},
  "source": "// SPDX-License-Identifier: GPL-3.0-or-later\npragma solidity ^0.7.1;\n\nimport \"../utils/SafeMath.sol\";\nimport \"./MultiToken.sol\";\n\ncontract Mintable is MultiToken {\n\n    using SafeMath for uint256;\n\n\n    /****************************\n    MODIFIERS\n    *****************************/\n\n\n    modifier onlyTokenizer() {\n        require(_isTokenizer(msg.sender), \"Insufficient permission\");\n        _;\n    }\n\n\n    /****************************\n    EXTERNAL FUNCTIONS\n    *****************************/\n\n\n    /**\n     * @dev Function to authorize an address to create a token.\n     * @param tokenizer The authorized address\n     */\n    function authorizeTokenizer(address tokenizer) external onlyOwner {\n        _users[tokenizer].isTokenizer = true;\n    }\n\n    /**\n     * @dev Function to revoke the authorization to create a token.\n     * @param tokenizer The authorized address\n     */\n    function revokeTokenizer(address tokenizer) external onlyOwner {\n        _users[tokenizer].isTokenizer = false;\n    }\n\n    /**\n     * @dev Function to check if an address is authorized to create a token.\n     * @param tokenizer The authorized address\n     */\n    function isTokenizer(address tokenizer) external view returns (bool) {\n        return _isTokenizer(tokenizer);\n    }\n\n    /**\n     * @dev Function to mint an amount of a token with the given ID.\n     * @param recipient The address that will own the minted tokens\n     * @param id ID of the token to be minted\n     * @param supply Amount of the token to be minted\n     * @param metadataHash Metadata file hash\n     * @param transactionFees transaction fees: [lumpSumFees (in WEI), valueProportionalFees (ratio of transfered amount * 10**8), storageFees (in storageCredit * 10**8)]\n     * @param feesRecipients list of addresses receiving transfer fees\n     * @param feesRecipientsPercentage list of percentage, each one for the corresponding feesRecipients\n     * @param minHoldingForCallback minimum holding to propose a callback\n     * @param isPrivate true if holder need approval\n     * @param legalAuthority address of the legal authority\n     */\n    function createToken(address recipient,\n                         uint256 id,\n                         uint256 supply,\n                         uint256 decimals,\n                         uint256 metadataHash,\n                         uint256[3] memory transactionFees,\n                         address[] memory feesRecipients,\n                         uint256[] memory feesRecipientsPercentage,\n                         uint256 minHoldingForCallback,\n                         bool isPrivate,\n                         address legalAuthority)\n    external onlyTokenizer {\n        _createToken(recipient,\n                     id,\n                     supply,\n                     decimals,\n                     metadataHash,\n                     transactionFees,\n                     feesRecipients,\n                     feesRecipientsPercentage,\n                     minHoldingForCallback,\n                     isPrivate,\n                     legalAuthority);\n        emit TransferSingle(msg.sender, address(0), recipient, id, supply);\n    }\n\n    /**\n     * @dev Function to mint tokens in batch.\n     * @param id Identifier of the template\n     * @param ids list of IDs of the tokens to be minted\n     * @param metadataHashes list of metadata file hashes\n     */\n    function cloneToken(uint256 id,\n                        uint256[] memory ids,\n                        uint256[] memory metadataHashes)\n    external onlyTokenizer {\n        require(_tokens[id].supply > 0 &&\n                ids.length == metadataHashes.length, \"Invalid arguments\");\n\n        for (uint256 i = 0; i < ids.length; ++i) {\n            _cloneToken(id, ids[i], metadataHashes[i]);\n\n            emit TransferSingle(msg.sender,\n                                address(0),\n                                _tokens[id].holderList[0],\n                                ids[i],\n                                _tokens[id].supply);\n        }\n    }\n\n\n    /****************************\n    INTERNAL FUNCTIONS\n    *****************************/\n\n\n    function _isTokenizer(address tokenizer) internal view returns (bool) {\n        return _users[tokenizer].isTokenizer || _isOwner();\n    }\n\n    function _setToken(uint256 id,\n                       uint256 metadataHash,\n                       uint256[3] memory transactionFees,\n                       address[] memory feesRecipients,\n                       uint256[] memory feesRecipientsPercentage,\n                       uint256 minHoldingForCallback,\n                       bool isPrivate,\n                       address legalAuthority)\n    internal {\n        uint256 totalPercentage = 0;\n        for (uint256 i = 0; i < feesRecipientsPercentage.length; ++i)\n            totalPercentage += feesRecipientsPercentage[i];\n\n        require(feesRecipients.length > 0 && feesRecipients.length == feesRecipients.length &&\n                totalPercentage == 10000 &&\n                minHoldingForCallback < 10000,\n                \"Invalid arguments\");\n\n        _tokens[id].metadataHash = metadataHash;\n        _tokens[id].lumpSumTransactionFees = transactionFees[0];\n        _tokens[id].valueTransactionFees = transactionFees[1];\n        _tokens[id].storageCostHistory.push([block.timestamp, transactionFees[2]]);\n        _tokens[id].feesRecipients = feesRecipients;\n        _tokens[id].feesRecipientsPercentage = feesRecipientsPercentage;\n        _tokens[id].minHoldingForCallback = minHoldingForCallback;\n        _tokens[id].isPrivate = isPrivate;\n        _tokens[id].legalAuthority = legalAuthority;\n    }\n\n\n    function _createToken(address recipient,\n                          uint256 id,\n                          uint256 supply,\n                          uint256 decimals,\n                          uint256 metadataHash,\n                          uint256[3] memory transactionFees,\n                          address[] memory feesRecipients,\n                          uint256[] memory feesRecipientsPercentage,\n                          uint256 minHoldingForCallback,\n                          bool isPrivate,\n                          address legalAuthority)\n    internal {\n        require(_tokens[id].supply == 0 && supply > 0, \"Invalid arguments\");\n\n        _tokens[id].supply = supply;\n        _tokens[id].decimals = decimals;\n        _tokens[id].holders[msg.sender].isMaintener = true;\n        _tokens[id].holders[recipient].isApproved = true;\n\n        _setToken(id,\n                  metadataHash,\n                  transactionFees,\n                  feesRecipients,\n                  feesRecipientsPercentage,\n                  minHoldingForCallback,\n                  isPrivate,\n                  legalAuthority);\n\n        _addToBalance(recipient, id, supply);\n    }\n\n    function _cloneToken(uint256 id, uint256 cloneId, uint256 metadataHash) internal {\n        _createToken(_tokens[id].holderList[0],\n                     cloneId,\n                     _tokens[id].supply,\n                     _tokens[id].decimals,\n                     metadataHash,\n                     [\n                       _tokens[id].lumpSumTransactionFees,\n                       _tokens[id].valueTransactionFees,\n                       _tokens[id].storageCostHistory[0][1]\n                     ],\n                     _tokens[id].feesRecipients,\n                     _tokens[id].feesRecipientsPercentage,\n                     _tokens[id].minHoldingForCallback,\n                     _tokens[id].isPrivate,\n                     _tokens[id].legalAuthority);\n    }\n\n}\n",
  "sourcePath": "/home/ouziel/Work/StashBloxContracts/contracts/lib/Mintable.sol",
  "compiler": {
    "name": "solc",
    "version": "0.7.1+commit.f4a555be.Emscripten.clang"
  },
  "schemaVersion": "3.2.3",
  "updatedAt": "2020-10-21T20:10:49.939Z",
  "devdoc": {
    "kind": "dev",
    "methods": {
      "authorizeTokenizer(address)": {
        "details": "Function to authorize an address to create a token.",
        "params": {
          "tokenizer": "The authorized address"
        }
      },
      "averageAge(address,uint256)": {
        "details": "Function to get the average age of the token for the given address.",
        "params": {
          "account": "the address from where to transfer the tokens",
          "id": "The token ID"
        },
        "returns": {
          "_0": "average age in seconds"
        }
      },
      "balanceOf(address,uint256)": {
        "details": "Get the specified address' balance for token with specified ID. Attempting to query the zero account for a balance will result in a revert.",
        "params": {
          "account": "The address of the token holder",
          "id": "ID of the token"
        },
        "returns": {
          "_0": "The account's balance of the token type requested"
        }
      },
      "balanceOfBatch(address[],uint256[])": {
        "details": "Get the balance of multiple account/token pairs. If any of the query accounts is the zero account, this query will revert.",
        "params": {
          "accounts": "The addresses of the token holders",
          "ids": "IDs of the tokens"
        },
        "returns": {
          "_0": "Balances for each account and token id pair"
        }
      },
      "cloneToken(uint256,uint256[],uint256[])": {
        "details": "Function to mint tokens in batch.",
        "params": {
          "id": "Identifier of the template",
          "ids": "list of IDs of the tokens to be minted",
          "metadataHashes": "list of metadata file hashes"
        }
      },
      "createToken(address,uint256,uint256,uint256,uint256,uint256[3],address[],uint256[],uint256,bool,address)": {
        "details": "Function to mint an amount of a token with the given ID.",
        "params": {
          "feesRecipients": "list of addresses receiving transfer fees",
          "feesRecipientsPercentage": "list of percentage, each one for the corresponding feesRecipients",
          "id": "ID of the token to be minted",
          "isPrivate": "true if holder need approval",
          "legalAuthority": "address of the legal authority",
          "metadataHash": "Metadata file hash",
          "minHoldingForCallback": "minimum holding to propose a callback",
          "recipient": "The address that will own the minted tokens",
          "supply": "Amount of the token to be minted",
          "transactionFees": "transaction fees: [lumpSumFees (in WEI), valueProportionalFees (ratio of transfered amount * 10**8), storageFees (in storageCredit * 10**8)]"
        }
      },
      "isApprovedForAll(address,address)": {
        "params": {
          "account": "The account of the Tokens",
          "operator": "Address of authorized operator"
        },
        "returns": {
          "_0": "True if the operator is approved, false if not"
        }
      },
      "isTokenizer(address)": {
        "details": "Function to check if an address is authorized to create a token.",
        "params": {
          "tokenizer": "The authorized address"
        }
      },
      "owner()": {
        "details": "Returns the address of the current owner."
      },
      "revokeTokenizer(address)": {
        "details": "Function to revoke the authorization to create a token.",
        "params": {
          "tokenizer": "The authorized address"
        }
      },
      "safeBatchTransferFrom(address,address,uint256[],uint256[],bytes)": {
        "details": "Transfers `values` amount(s) of `ids` from the `from` address to the `to` address specified. Caller must be approved to manage the tokens being transferred out of the `from` account. If `to` is a smart contract, will call `onERC1155BatchReceived` on `to` and act appropriately.",
        "params": {
          "data": "Data forwarded to `onERC1155Received` if `to` is a contract receiver",
          "from": "Source address",
          "ids": "IDs of each token type",
          "to": "Target address",
          "values": "Transfer amounts per token type"
        }
      },
      "safeTransferFrom(address,address,uint256,uint256,bytes)": {
        "details": "Transfers `value` amount of an `id` from the `from` address to the `to` address specified. Caller must be approved to manage the tokens being transferred out of the `from` account. If `to` is a smart contract, will call `onERC1155Received` on `to` and act appropriately.",
        "params": {
          "data": "Data forwarded to `onERC1155Received` if `to` is a contract receiver",
          "from": "Source address",
          "id": "ID of the token type",
          "to": "Target address",
          "value": "Transfer amount"
        }
      },
      "setApprovalForAll(address,bool)": {
        "details": "Sets or unsets the approval of a given operator. An operator is allowed to transfer all tokens of the sender on their behalf. Because an account already has operator privileges for itself, this function will revert if the account attempts to set the approval status for itself.",
        "params": {
          "approved": "representing the status of the approval to be set",
          "operator": "address to set the approval"
        }
      },
      "setProxyRegistryAddress(address[10])": {
        "details": "Function to update the operator whitelist",
        "params": {
          "proxyAddresses": "List of addresses"
        }
      },
      "supportsInterface(bytes4)": {
        "params": {
          "_interfaceID": "The interface identifier, as specified in ERC-165"
        },
        "returns": {
          "_0": "`true` if the contract implements `_interfaceID` and"
        }
      },
      "transactionFees(address,uint256,uint256)": {
        "details": "Function to get the transaction price to transfer tokens.",
        "params": {
          "account": "the address from where to transfer the tokens",
          "id": "The token ID",
          "value": "The amount to transfer"
        },
        "returns": {
          "_0": "transfer price"
        }
      },
      "transferOwnership(address)": {
        "details": "Transfers ownership of the contract to a new account (`newOwner`). Can only be called by the current owner."
      },
      "uri(uint256)": {
        "params": {
          "id": "Token ID"
        },
        "returns": {
          "_0": "URI string"
        }
      }
    },
    "version": 1
  },
  "userdoc": {
    "kind": "user",
    "methods": {
      "isApprovedForAll(address,address)": {
        "notice": "Queries the approval status of an operator for a given account."
      },
      "supportsInterface(bytes4)": {
        "notice": "Query if a contract implements an interface"
      }
    },
    "version": 1
  }
}