{
  "contractName": "Mintable",
  "abi": [
    {
      "anonymous": false,
      "inputs": [
        {
          "indexed": true,
          "internalType": "address",
          "name": "_owner",
          "type": "address"
        },
        {
          "indexed": true,
          "internalType": "address",
          "name": "_operator",
          "type": "address"
        },
        {
          "indexed": false,
          "internalType": "bool",
          "name": "_approved",
          "type": "bool"
        }
      ],
      "name": "ApprovalForAll",
      "type": "event"
    },
    {
      "anonymous": false,
      "inputs": [
        {
          "indexed": true,
          "internalType": "address",
          "name": "previousOwner",
          "type": "address"
        },
        {
          "indexed": true,
          "internalType": "address",
          "name": "newOwner",
          "type": "address"
        }
      ],
      "name": "OwnershipTransferred",
      "type": "event"
    },
    {
      "anonymous": false,
      "inputs": [
        {
          "indexed": true,
          "internalType": "address",
          "name": "_operator",
          "type": "address"
        },
        {
          "indexed": true,
          "internalType": "address",
          "name": "_from",
          "type": "address"
        },
        {
          "indexed": true,
          "internalType": "address",
          "name": "_to",
          "type": "address"
        },
        {
          "indexed": false,
          "internalType": "uint256[]",
          "name": "_ids",
          "type": "uint256[]"
        },
        {
          "indexed": false,
          "internalType": "uint256[]",
          "name": "_values",
          "type": "uint256[]"
        }
      ],
      "name": "TransferBatch",
      "type": "event"
    },
    {
      "anonymous": false,
      "inputs": [
        {
          "indexed": true,
          "internalType": "address",
          "name": "_operator",
          "type": "address"
        },
        {
          "indexed": true,
          "internalType": "address",
          "name": "_from",
          "type": "address"
        },
        {
          "indexed": true,
          "internalType": "address",
          "name": "_to",
          "type": "address"
        },
        {
          "indexed": false,
          "internalType": "uint256",
          "name": "_id",
          "type": "uint256"
        },
        {
          "indexed": false,
          "internalType": "uint256",
          "name": "_value",
          "type": "uint256"
        }
      ],
      "name": "TransferSingle",
      "type": "event"
    },
    {
      "anonymous": false,
      "inputs": [
        {
          "indexed": false,
          "internalType": "string",
          "name": "_value",
          "type": "string"
        },
        {
          "indexed": true,
          "internalType": "uint256",
          "name": "_id",
          "type": "uint256"
        }
      ],
      "name": "URI",
      "type": "event"
    },
    {
      "inputs": [
        {
          "internalType": "uint256",
          "name": "",
          "type": "uint256"
        }
      ],
      "name": "_callbacks",
      "outputs": [
        {
          "internalType": "uint256",
          "name": "tokenId",
          "type": "uint256"
        },
        {
          "internalType": "uint256",
          "name": "price",
          "type": "uint256"
        },
        {
          "internalType": "uint256",
          "name": "escrowedAmount",
          "type": "uint256"
        },
        {
          "internalType": "uint256",
          "name": "callCounter",
          "type": "uint256"
        },
        {
          "internalType": "uint256",
          "name": "documentHash",
          "type": "uint256"
        },
        {
          "internalType": "address",
          "name": "caller",
          "type": "address"
        },
        {
          "internalType": "bool",
          "name": "needLegalApproval",
          "type": "bool"
        },
        {
          "internalType": "bool",
          "name": "approvedByLegal",
          "type": "bool"
        },
        {
          "internalType": "bool",
          "name": "refused",
          "type": "bool"
        },
        {
          "internalType": "bool",
          "name": "accepted",
          "type": "bool"
        },
        {
          "internalType": "bool",
          "name": "completed",
          "type": "bool"
        }
      ],
      "stateMutability": "view",
      "type": "function"
    },
    {
      "inputs": [],
      "name": "_config",
      "outputs": [
        {
          "internalType": "uint256",
          "name": "callbackAutoExecuteMaxAddresses",
          "type": "uint256"
        },
        {
          "internalType": "string",
          "name": "baseURI",
          "type": "string"
        },
        {
          "internalType": "address",
          "name": "owner",
          "type": "address"
        }
      ],
      "stateMutability": "view",
      "type": "function"
    },
    {
      "inputs": [
        {
          "internalType": "uint256",
          "name": "",
          "type": "uint256"
        }
      ],
      "name": "_tokens",
      "outputs": [
        {
          "internalType": "uint256",
          "name": "supply",
          "type": "uint256"
        },
        {
          "internalType": "uint256",
          "name": "decimals",
          "type": "uint256"
        },
        {
          "internalType": "uint256",
          "name": "lumpSumTransactionFees",
          "type": "uint256"
        },
        {
          "internalType": "uint256",
          "name": "valueTransactionFees",
          "type": "uint256"
        },
        {
          "internalType": "uint256",
          "name": "minHoldingForCallback",
          "type": "uint256"
        },
        {
          "internalType": "uint256",
          "name": "metadataHash",
          "type": "uint256"
        },
        {
          "internalType": "address",
          "name": "legalAuthority",
          "type": "address"
        },
        {
          "internalType": "bool",
          "name": "isPrivate",
          "type": "bool"
        },
        {
          "internalType": "bool",
          "name": "locked",
          "type": "bool"
        }
      ],
      "stateMutability": "view",
      "type": "function"
    },
    {
      "inputs": [
        {
          "internalType": "address",
          "name": "",
          "type": "address"
        }
      ],
      "name": "_users",
      "outputs": [
        {
          "internalType": "bool",
          "name": "isTokenizer",
          "type": "bool"
        },
        {
          "internalType": "bool",
          "name": "isLocked",
          "type": "bool"
        },
        {
          "internalType": "uint256",
          "name": "ETHBalance",
          "type": "uint256"
        }
      ],
      "stateMutability": "view",
      "type": "function"
    },
    {
      "inputs": [
        {
          "internalType": "address",
          "name": "account",
          "type": "address"
        },
        {
          "internalType": "uint256",
          "name": "id",
          "type": "uint256"
        }
      ],
      "name": "averageAge",
      "outputs": [
        {
          "internalType": "uint256",
          "name": "",
          "type": "uint256"
        }
      ],
      "stateMutability": "view",
      "type": "function"
    },
    {
      "inputs": [
        {
          "internalType": "address",
          "name": "account",
          "type": "address"
        },
        {
          "internalType": "uint256",
          "name": "id",
          "type": "uint256"
        }
      ],
      "name": "balanceOf",
      "outputs": [
        {
          "internalType": "uint256",
          "name": "",
          "type": "uint256"
        }
      ],
      "stateMutability": "view",
      "type": "function"
    },
    {
      "inputs": [
        {
          "internalType": "address[]",
          "name": "accounts",
          "type": "address[]"
        },
        {
          "internalType": "uint256[]",
          "name": "ids",
          "type": "uint256[]"
        }
      ],
      "name": "balanceOfBatch",
      "outputs": [
        {
          "internalType": "uint256[]",
          "name": "",
          "type": "uint256[]"
        }
      ],
      "stateMutability": "view",
      "type": "function"
    },
    {
      "inputs": [
        {
          "internalType": "address",
          "name": "account",
          "type": "address"
        },
        {
          "internalType": "address",
          "name": "operator",
          "type": "address"
        }
      ],
      "name": "isApprovedForAll",
      "outputs": [
        {
          "internalType": "bool",
          "name": "",
          "type": "bool"
        }
      ],
      "stateMutability": "view",
      "type": "function"
    },
    {
      "inputs": [],
      "name": "owner",
      "outputs": [
        {
          "internalType": "address",
          "name": "",
          "type": "address"
        }
      ],
      "stateMutability": "view",
      "type": "function"
    },
    {
      "inputs": [
        {
          "internalType": "address",
          "name": "from",
          "type": "address"
        },
        {
          "internalType": "address",
          "name": "to",
          "type": "address"
        },
        {
          "internalType": "uint256[]",
          "name": "ids",
          "type": "uint256[]"
        },
        {
          "internalType": "uint256[]",
          "name": "values",
          "type": "uint256[]"
        },
        {
          "internalType": "bytes",
          "name": "data",
          "type": "bytes"
        }
      ],
      "name": "safeBatchTransferFrom",
      "outputs": [],
      "stateMutability": "payable",
      "type": "function"
    },
    {
      "inputs": [
        {
          "internalType": "address",
          "name": "from",
          "type": "address"
        },
        {
          "internalType": "address",
          "name": "to",
          "type": "address"
        },
        {
          "internalType": "uint256",
          "name": "id",
          "type": "uint256"
        },
        {
          "internalType": "uint256",
          "name": "value",
          "type": "uint256"
        },
        {
          "internalType": "bytes",
          "name": "data",
          "type": "bytes"
        }
      ],
      "name": "safeTransferFrom",
      "outputs": [],
      "stateMutability": "payable",
      "type": "function"
    },
    {
      "inputs": [
        {
          "internalType": "address",
          "name": "operator",
          "type": "address"
        },
        {
          "internalType": "bool",
          "name": "approved",
          "type": "bool"
        }
      ],
      "name": "setApprovalForAll",
      "outputs": [],
      "stateMutability": "nonpayable",
      "type": "function"
    },
    {
      "inputs": [
        {
          "internalType": "address[10]",
          "name": "proxyAddresses",
          "type": "address[10]"
        }
      ],
      "name": "setProxyRegistryAddress",
      "outputs": [],
      "stateMutability": "nonpayable",
      "type": "function"
    },
    {
      "inputs": [
        {
          "internalType": "bytes4",
          "name": "_interfaceID",
          "type": "bytes4"
        }
      ],
      "name": "supportsInterface",
      "outputs": [
        {
          "internalType": "bool",
          "name": "",
          "type": "bool"
        }
      ],
      "stateMutability": "pure",
      "type": "function"
    },
    {
      "inputs": [
        {
          "internalType": "address",
          "name": "account",
          "type": "address"
        },
        {
          "internalType": "uint256",
          "name": "id",
          "type": "uint256"
        },
        {
          "internalType": "uint256",
          "name": "value",
          "type": "uint256"
        }
      ],
      "name": "transactionFees",
      "outputs": [
        {
          "internalType": "uint256",
          "name": "",
          "type": "uint256"
        }
      ],
      "stateMutability": "view",
      "type": "function"
    },
    {
      "inputs": [
        {
          "internalType": "address",
          "name": "newOwner",
          "type": "address"
        }
      ],
      "name": "transferOwnership",
      "outputs": [],
      "stateMutability": "nonpayable",
      "type": "function"
    },
    {
      "inputs": [
        {
          "internalType": "address",
          "name": "tokenizer",
          "type": "address"
        }
      ],
      "name": "authorizeTokenizer",
      "outputs": [],
      "stateMutability": "nonpayable",
      "type": "function"
    },
    {
      "inputs": [
        {
          "internalType": "address",
          "name": "tokenizer",
          "type": "address"
        }
      ],
      "name": "revokeTokenizer",
      "outputs": [],
      "stateMutability": "nonpayable",
      "type": "function"
    },
    {
      "inputs": [
        {
          "internalType": "address",
          "name": "tokenizer",
          "type": "address"
        }
      ],
      "name": "isTokenizer",
      "outputs": [
        {
          "internalType": "bool",
          "name": "",
          "type": "bool"
        }
      ],
      "stateMutability": "view",
      "type": "function"
    },
    {
      "inputs": [
        {
          "internalType": "address",
          "name": "recipient",
          "type": "address"
        },
        {
          "internalType": "uint256",
          "name": "id",
          "type": "uint256"
        },
        {
          "internalType": "uint256",
          "name": "supply",
          "type": "uint256"
        },
        {
          "internalType": "uint256",
          "name": "decimals",
          "type": "uint256"
        },
        {
          "internalType": "uint256",
          "name": "metadataHash",
          "type": "uint256"
        },
        {
          "internalType": "uint256[3]",
          "name": "transactionFees",
          "type": "uint256[3]"
        },
        {
          "internalType": "address[]",
          "name": "feesRecipients",
          "type": "address[]"
        },
        {
          "internalType": "uint256[]",
          "name": "feesRecipientsPercentage",
          "type": "uint256[]"
        },
        {
          "internalType": "uint256",
          "name": "minHoldingForCallback",
          "type": "uint256"
        },
        {
          "internalType": "bool",
          "name": "isPrivate",
          "type": "bool"
        },
        {
          "internalType": "address",
          "name": "legalAuthority",
          "type": "address"
        }
      ],
      "name": "createToken",
      "outputs": [],
      "stateMutability": "nonpayable",
      "type": "function"
    },
    {
      "inputs": [
        {
          "internalType": "uint256",
          "name": "id",
          "type": "uint256"
        },
        {
          "internalType": "uint256[]",
          "name": "ids",
          "type": "uint256[]"
        },
        {
          "internalType": "uint256[]",
          "name": "metadataHashes",
          "type": "uint256[]"
        }
      ],
      "name": "cloneToken",
      "outputs": [],
      "stateMutability": "nonpayable",
      "type": "function"
    }
  ],
  "bytecode": "0x60806040523480156200001157600080fd5b506200001d3362000023565b620000e0565b6001600160a01b03811662000084576040517f08c379a0000000000000000000000000000000000000000000000000000000008152600401808060200182810382526026815260200180620031206026913960400191505060405180910390fd5b600c546040516001600160a01b038084169216907f8be0079c531659141344cd1fd0a4f28419497f9722a3daafe3b4186f6b6457e090600090a3600c80546001600160a01b0319166001600160a01b0392909216919091179055565b61303080620000f06000396000f3fe6080604052600436106101295760003560e01c80638870147b116100ab578063d1660e181161006f578063d1660e181461092f578063e985e9c51461096e578063ed70554d146109a9578063f242432a14610a27578063f2fde38b14610aba578063f8a5a07c14610aed57610129565b80638870147b146106c05780638da5cb5b146106f3578063a22cb46514610724578063c02f303c1461075f578063c40b87ae1461079257610129565b8063414ed0ce116100f2578063414ed0ce146103e15780634392e577146104735780634e1273f4146104d4578063585941d5146106545780637627b7321461068d57610129565b8062fdd58e1461012e57806301ffc9a7146101795780632eb2c2d6146101c15780632ed42bf7146102ea5780633cacd7d61461038e575b600080fd5b34801561013a57600080fd5b506101676004803603604081101561015157600080fd5b506001600160a01b038135169060200135610c24565b60408051918252519081900360200190f35b34801561018557600080fd5b506101ad6004803603602081101561019c57600080fd5b50356001600160e01b031916610c99565b604080519115158252519081900360200190f35b6102e8600480360360a08110156101d757600080fd5b6001600160a01b038235811692602081013590911691810190606081016040820135600160201b81111561020a57600080fd5b82018360208201111561021c57600080fd5b803590602001918460208302840111600160201b8311171561023d57600080fd5b919390929091602081019035600160201b81111561025a57600080fd5b82018360208201111561026c57600080fd5b803590602001918460208302840111600160201b8311171561028d57600080fd5b919390929091602081019035600160201b8111156102aa57600080fd5b8201836020820111156102bc57600080fd5b803590602001918460018302840111600160201b831117156102dd57600080fd5b509092509050610ce0565b005b3480156102f657600080fd5b506102ff610f8e565b6040518084815260200180602001836001600160a01b03168152602001828103825284818151815260200191508051906020019080838360005b83811015610351578181015183820152602001610339565b50505050905090810190601f16801561037e5780820380516001836020036101000a031916815260200191505b5094505050505060405180910390f35b34801561039a57600080fd5b506103c1600480360360208110156103b157600080fd5b50356001600160a01b0316611033565b604080519315158452911515602084015282820152519081900360600190f35b3480156103ed57600080fd5b5061040b6004803603602081101561040457600080fd5b5035611059565b604080519b8c5260208c019a909a528a8a019890985260608a019690965260808901949094526001600160a01b0390921660a0880152151560c0870152151560e086015215156101008501521515610120840152151561014083015251908190036101600190f35b34801561047f57600080fd5b506102e8600480360361014081101561049757600080fd5b81019080806101400190600a806020026040519081016040528092919082600a602002808284376000920191909152509194506110cc9350505050565b3480156104e057600080fd5b50610604600480360360408110156104f757600080fd5b810190602081018135600160201b81111561051157600080fd5b82018360208201111561052357600080fd5b803590602001918460208302840111600160201b8311171561054457600080fd5b9190808060200260200160405190810160405280939291908181526020018383602002808284376000920191909152509295949360208101935035915050600160201b81111561059357600080fd5b8201836020820111156105a557600080fd5b803590602001918460208302840111600160201b831117156105c657600080fd5b919080806020026020016040519081016040528093929190818152602001838360200280828437600092019190915250929550611124945050505050565b60408051602080825283518183015283519192839290830191858101910280838360005b83811015610640578181015183820152602001610628565b505050509050019250505060405180910390f35b34801561066057600080fd5b506101676004803603604081101561067757600080fd5b506001600160a01b0381351690602001356112a8565b34801561069957600080fd5b506102e8600480360360208110156106b057600080fd5b50356001600160a01b03166112e3565b3480156106cc57600080fd5b506102e8600480360360208110156106e357600080fd5b50356001600160a01b031661134e565b3480156106ff57600080fd5b506107086113b6565b604080516001600160a01b039092168252519081900360200190f35b34801561073057600080fd5b506102e86004803603604081101561074757600080fd5b506001600160a01b03813516906020013515156113c5565b34801561076b57600080fd5b506101ad6004803603602081101561078257600080fd5b50356001600160a01b031661147f565b34801561079e57600080fd5b506102e860048036036101a08110156107b657600080fd5b60408051606081810183526001600160a01b03853516946020810135949381013593828201359360808301359391830192916101008301919060a0840190600390839083908082843760009201919091525091949392602081019250359050600160201b81111561082657600080fd5b82018360208201111561083857600080fd5b803590602001918460208302840111600160201b8311171561085957600080fd5b9190808060200260200160405190810160405280939291908181526020018383602002808284376000920191909152509295949360208101935035915050600160201b8111156108a857600080fd5b8201836020820111156108ba57600080fd5b803590602001918460208302840111600160201b831117156108db57600080fd5b919080806020026020016040519081016040528093929190818152602001838360200280828437600092019190915250929550508235935050506020810135151590604001356001600160a01b031661148a565b34801561093b57600080fd5b506101676004803603606081101561095257600080fd5b506001600160a01b038135169060208101359060400135611549565b34801561097a57600080fd5b506101ad6004803603604081101561099157600080fd5b506001600160a01b038135811691602001351661155e565b3480156109b557600080fd5b506109d3600480360360208110156109cc57600080fd5b503561156a565b60408051998a5260208a0198909852888801969096526060880194909452608087019290925260a08601526001600160a01b031660c0850152151560e0840152151561010083015251908190036101200190f35b6102e8600480360360a0811015610a3d57600080fd5b6001600160a01b03823581169260208101359091169160408201359160608101359181019060a081016080820135600160201b811115610a7c57600080fd5b820183602082011115610a8e57600080fd5b803590602001918460018302840111600160201b83111715610aaf57600080fd5b5090925090506115c6565b348015610ac657600080fd5b506102e860048036036020811015610add57600080fd5b50356001600160a01b031661171d565b348015610af957600080fd5b506102e860048036036060811015610b1057600080fd5b81359190810190604081016020820135600160201b811115610b3157600080fd5b820183602082011115610b4357600080fd5b803590602001918460208302840111600160201b83111715610b6457600080fd5b9190808060200260200160405190810160405280939291908181526020018383602002808284376000920191909152509295949360208101935035915050600160201b811115610bb357600080fd5b820183602082011115610bc557600080fd5b803590602001918460208302840111600160201b83111715610be657600080fd5b919080806020026020016040519081016040528093929190818152602001838360200280828437600092019190915250929550611770945050505050565b60006001600160a01b038316610c6b5760405162461bcd60e51b815260040180806020018281038252602b815260200180612de5602b913960400191505060405180910390fd5b506000818152600e602090815260408083206001600160a01b03861684526007019091529020545b92915050565b60006001600160e01b031982166301ffc9a760e01b1480610cca57506001600160e01b03198216636cdb3d1360e11b145b15610cd757506001610cdb565b5060005b919050565b848314610d1e5760405162461bcd60e51b815260040180806020018281038252602e815260200180612f9c602e913960400191505060405180910390fd5b6001600160a01b038716610d635760405162461bcd60e51b8152600401808060200182810382526028815260200180612e366028913960400191505060405180910390fd5b6001600160a01b038816331480610d855750610d7f883361155e565b15156001145b610dc05760405162461bcd60e51b8152600401808060200182810382526037815260200180612f656037913960400191505060405180910390fd5b610e2f888888888080602002602001604051908101604052809392919081815260200183836020028082843760009201919091525050604080516020808c0282810182019093528b82529093508b92508a91829185019084908082843760009201919091525061191392505050565b866001600160a01b0316886001600160a01b0316336001600160a01b03167f4a39dc06d4c0dbc64b70af90fd698a233a518aa5d07e595d983b8c0526c8f7fb898989896040518080602001806020018381038352878782818152602001925060200280828437600083820152601f01601f19169091018481038352858152602090810191508690860280828437600083820152604051601f909101601f19169092018290039850909650505050505050a4610f8433898989898080602002602001604051908101604052809392919081815260200183836020028082843760009201919091525050604080516020808d0282810182019093528c82529093508c92508b91829185019084908082843760009201919091525050604080516020601f8c018190048102820181019092528a815292508a91508990819084018382808284376000920191909152506119cd92505050565b5050505050505050565b6000805460018054604080516020600284861615610100026000190190941693909304601f8101849004840282018401909252818152939493929183018282801561101a5780601f10610fef5761010080835404028352916020019161101a565b820191906000526020600020905b815481529060010190602001808311610ffd57829003601f168201915b505050600c90930154919250506001600160a01b031683565b600d602052600090815260409020805460019091015460ff808316926101009004169083565b600f6020526000908152604090208054600182015460028301546003840154600485015460059095015493949293919290916001600160a01b0381169060ff600160a01b8204811691600160a81b8104821691600160b01b8204811691600160b81b8104821691600160c01b909104168b565b6110d4611bbe565b611113576040805162461bcd60e51b81526020600482018190526024820152600080516020612f45833981519152604482015290519081900360640190fd5b611120600282600a612c90565b5050565b606081518351146111665760405162461bcd60e51b8152600401808060200182810382526030815260200180612e8a6030913960400191505060405180910390fd5b6060835167ffffffffffffffff8111801561118057600080fd5b506040519080825280602002602001820160405280156111aa578160200160208202803683370190505b50905060005b84518110156112a05760006001600160a01b03168582815181106111d057fe5b60200260200101516001600160a01b0316141561121e5760405162461bcd60e51b8152600401808060200182810382526034815260200180612ef06034913960400191505060405180910390fd5b600e600085838151811061122e57fe5b60200260200101518152602001908152602001600020600701600086838151811061125557fe5b60200260200101516001600160a01b03166001600160a01b031681526020019081526020016000206000015482828151811061128d57fe5b60209081029190910101526001016111b0565b509392505050565b6000818152600e602090815260408083206001600160a01b03861684526007019091528120600101546112dc904290611bcf565b9392505050565b6112eb611bbe565b61132a576040805162461bcd60e51b81526020600482018190526024820152600080516020612f45833981519152604482015290519081900360640190fd5b6001600160a01b03166000908152600d60205260409020805460ff19166001179055565b611356611bbe565b611395576040805162461bcd60e51b81526020600482018190526024820152600080516020612f45833981519152604482015290519081900360640190fd5b6001600160a01b03166000908152600d60205260409020805460ff19169055565b600c546001600160a01b031690565b336001600160a01b038316141561140d5760405162461bcd60e51b815260040180806020018281038252602c815260200180612e5e602c913960400191505060405180910390fd5b336000818152600d602090815260408083206001600160a01b0387168085526003909101835292819020805460ff1916861515908117909155815190815290519293927f17307eab39ab6107e8899845ad3d59bd9653f200f220920489ca2b5937696c31929181900390910190a35050565b6000610c9382611c11565b61149333611c11565b6114de576040805162461bcd60e51b815260206004820152601760248201527624b739bab33334b1b4b2b73a103832b936b4b9b9b4b7b760491b604482015290519081900360640190fd5b6114f18b8b8b8b8b8b8b8b8b8b8b611c3b565b604080518b8152602081018b905281516001600160a01b038e169260009233927fc3d58168c5ae7397731d063d5bbf3d657854427343f4c083240f7aacaa2d0f62929181900390910190a45050505050505050505050565b6000611556848484611da4565b949350505050565b60006112dc8383611f8c565b600e60205260009081526040902080546001820154600283015460038401546004850154600586015460069096015494959394929391929091906001600160a01b0381169060ff600160a01b8204811691600160a81b90041689565b6001600160a01b03851661160b5760405162461bcd60e51b8152600401808060200182810382526028815260200180612e366028913960400191505060405180910390fd5b6001600160a01b03861633148061162d5750611627863361155e565b15156001145b6116685760405162461bcd60e51b8152600401808060200182810382526037815260200180612f656037913960400191505060405180910390fd5b61167486868686611fd1565b846001600160a01b0316866001600160a01b0316336001600160a01b03167fc3d58168c5ae7397731d063d5bbf3d657854427343f4c083240f7aacaa2d0f628787604051808381526020018281526020019250505060405180910390a4611715338787878787878080601f01602080910402602001604051908101604052809392919081815260200183838082843760009201919091525061204992505050565b505050505050565b611725611bbe565b611764576040805162461bcd60e51b81526020600482018190526024820152600080516020612f45833981519152604482015290519081900360640190fd5b61176d816121be565b50565b61177933611c11565b6117c4576040805162461bcd60e51b815260206004820152601760248201527624b739bab33334b1b4b2b73a103832b936b4b9b9b4b7b760491b604482015290519081900360640190fd5b6000838152600e6020526040902054158015906117e2575080518251145b611827576040805162461bcd60e51b8152602060048201526011602482015270496e76616c696420617267756d656e747360781b604482015290519081900360640190fd5b60005b825181101561190d576118648484838151811061184357fe5b602002602001015184848151811061185757fe5b602002602001015161225f565b6000848152600e60205260408120600801805490919061188057fe5b600091825260208220015484516001600160a01b03909116919033907fc3d58168c5ae7397731d063d5bbf3d657854427343f4c083240f7aacaa2d0f62908790869081106118ca57fe5b6020026020010151600e60008a815260200190815260200160002060000154604051808381526020018281526020019250505060405180910390a460010161182a565b50505050565b600080341161193d576001600160a01b0385166000908152600d602052604090206001015461193f565b345b905060005b83518110156119bb576119b1611982878787858151811061196157fe5b602002602001015187868151811061197557fe5b6020026020010151612401565b60408051808201909152601081526f092dce6eaccccd2c6d2cadce8408aa8960831b602082015284919061255e565b9150600101611944565b506119c685826125f5565b5050505050565b6119df846001600160a01b0316612676565b156117155763bc197c8160e01b6001600160e01b031916846001600160a01b031663bc197c8188888787876040518663ffffffff1660e01b815260040180866001600160a01b03168152602001856001600160a01b03168152602001806020018060200180602001848103845287818151815260200191508051906020019060200280838360005b83811015611a7f578181015183820152602001611a67565b50505050905001848103835286818151815260200191508051906020019060200280838360005b83811015611abe578181015183820152602001611aa6565b50505050905001848103825285818151815260200191508051906020019080838360005b83811015611afa578181015183820152602001611ae2565b50505050905090810190601f168015611b275780820380516001836020036101000a031916815260200191505b5098505050505050505050602060405180830381600087803b158015611b4c57600080fd5b505af1158015611b60573d6000803e3d6000fd5b505050506040513d6020811015611b7657600080fd5b50516001600160e01b031916146117155760405162461bcd60e51b8152600401808060200182810382526036815260200180612eba6036913960400191505060405180910390fd5b600c546001600160a01b0316331490565b60006112dc83836040518060400160405280601e81526020017f536166654d6174683a207375627472616374696f6e206f766572666c6f77000081525061255e565b6001600160a01b0381166000908152600d602052604081205460ff1680610c935750610c93611bbe565b60008a8152600e6020526040902054158015611c575750600089115b611c9c576040805162461bcd60e51b8152602060048201526011602482015270496e76616c696420617267756d656e747360781b604482015290519081900360640190fd5b88600e60008c81526020019081526020016000206000018190555087600e60008c8152602001908152602001600020600101819055506001600e60008c81526020019081526020016000206007016000336001600160a01b03166001600160a01b0316815260200190815260200160002060020160006101000a81548160ff0219169083151502179055506001600e60008c815260200190815260200160002060070160008d6001600160a01b03166001600160a01b0316815260200190815260200160002060020160026101000a81548160ff021916908315150217905550611d8c8a888888888888886126ad565b611d978b8b8b612851565b5050505050505050505050565b6000828152600e60205260408120600b015481904290600019015b6000868152600e60205260408120600b01805483908110611ddc57fe5b60009182526020822060029091020101546000888152600e60205260408120600b018054929350909184908110611e0f57fe5b9060005260206000209060020201600160028110611e2957fe5b01546000898152600e602090815260408083206001600160a01b038e168452600701909152812060010154919250908311611ecc576000898152600e602090815260408083206001600160a01b038e168452600701909152902060010154611ea1906201518090611e9b908890611bcf565b90612a4f565b905080611eac575060015b611ec088611eba8385612a91565b90612a91565b86019550505050611f0b565b611edd62015180611e9b8786611bcf565b905080611ee8575060015b9193508391611efb88611eba8385612a91565b9095019450505060001901611dbf565b506000858152600e6020526040902060010154611f2c908390600a0a612a4f565b6000868152600e602052604081206003015491935090611f57906305f5e10090611e9b908890612a91565b6000878152600e6020526040902060020154909150611f8190611f7a9083612aea565b8490612aea565b979650505050505050565b6000611f988383612b44565b806112dc5750506001600160a01b039182166000908152600d602090815260408083209390941682526003909201909152205460ff1690565b6000803411611ffb576001600160a01b0385166000908152600d6020526040902060010154611ffd565b345b905061203d61200e86868686612401565b60408051808201909152601081526f092dce6eaccccd2c6d2cadce8408aa8960831b602082015283919061255e565b90506119c685826125f5565b61205b846001600160a01b0316612676565b156117155763f23a6e6160e01b6001600160e01b031916846001600160a01b031663f23a6e6188888787876040518663ffffffff1660e01b815260040180866001600160a01b03168152602001856001600160a01b0316815260200184815260200183815260200180602001828103825283818151815260200191508051906020019080838360005b838110156120fc5781810151838201526020016120e4565b50505050905090810190601f1680156121295780820380516001836020036101000a031916815260200191505b509650505050505050602060405180830381600087803b15801561214c57600080fd5b505af1158015612160573d6000803e3d6000fd5b505050506040513d602081101561217657600080fd5b50516001600160e01b031916146117155760405162461bcd60e51b8152600401808060200182810382526031815260200180612fca6031913960400191505060405180910390fd5b6001600160a01b0381166122035760405162461bcd60e51b8152600401808060200182810382526026815260200180612e106026913960400191505060405180910390fd5b600c546040516001600160a01b038084169216907f8be0079c531659141344cd1fd0a4f28419497f9722a3daafe3b4186f6b6457e090600090a3600c80546001600160a01b0319166001600160a01b0392909216919091179055565b6000838152600e6020526040812060080180546123fc929061227d57fe5b6000918252602080832090910154868352600e8083526040808520805460018201548351606081018552600284015481526003840154818901528c895294909652600b90910180546001600160a01b03909516968a96929592948a9490939084019291906122e757fe5b906000526020600020906002020160016002811061230157fe5b0154905260008a8152600e60209081526040918290206009018054835181840281018401909452808452909183018282801561236657602002820191906000526020600020905b81546001600160a01b03168152600190910190602001808311612348575b50505060008d8152600e6020908152604091829020600a01805483518184028101840190945280845292945092508301828280156123c357602002820191906000526020600020905b8154815260200190600101908083116123af575b50505060008e8152600e60205260409020600481015460069091015490925060ff600160a01b82041691506001600160a01b0316611c3b565b505050565b6040805180820182526014815273496e73756666696369656e742062616c616e636560601b6020808301919091526000858152600e82528381206001600160a01b03891682526007019091529182205461245c91849061255e565b6000848152600e602090815260408083206001600160a01b038a16845260070190915290205561248d848484612851565b612498858484611da4565b905060005b6000848152600e6020526040902060090154811015612555576000848152600e602052604081206009018054839081106124d357fe5b6000918252602080832090910154878352600e90915260408220600a0180546001600160a01b039092169350908490811061250a57fe5b6000918252602090912001549050612528612710611e9b8684612a91565b6001600160a01b039092166000908152600d6020526040902060019081018054909301909255500161249d565b50949350505050565b600081848411156125ed5760405162461bcd60e51b81526004018080602001828103825283818151815260200191508051906020019080838360005b838110156125b257818101518382015260200161259a565b50505050905090810190601f1680156125df5780820380516001836020036101000a031916815260200191505b509250505060405180910390fd5b505050900390565b6000341180156126055750600081115b15612651576001600160a01b0382166000908152600d60205260409020600101546126309082612aea565b6001600160a01b0383166000908152600d6020526040902060010155611120565b34611120576001600160a01b03919091166000908152600d6020526040902060010155565b6000813f7fc5d2460186f7233c927e7db2dcc703c0e500b653ca82273b7bfad8045d85a47081158015906115565750141592915050565b6000805b85518110156126dd578581815181106126c657fe5b6020026020010151820191508060010190506126b1565b50600086511180156126ed575060015b80156126fa575080612710145b8015612707575061271084105b61274c576040805162461bcd60e51b8152602060048201526011602482015270496e76616c696420617267756d656e747360781b604482015290519081900360640190fd5b6000898152600e60209081526040808320600581018c90558a516002808301919091558b840151600383015582518084018452428152928c015183850152600b9091018054600181018255908552929093206127ac939283020191612ce8565b506000898152600e6020908152604090912087516127d292600990920191890190612d22565b506000898152600e6020908152604090912086516127f892600a90920191880190612d76565b50506000978852600e602052604090972060048101929092556006909101805460ff60a01b1916600160a01b92151592909202919091176001600160a01b0319166001600160a01b039096169590951790945550505050565b6000828152600e602090815260408083206001600160a01b03871684526007019091528120546128819083612aea565b6000848152600e602090815260408083206001600160a01b038916845260070190915290205490915061297e576000838152600e602090815260408083206001600160a01b0388168452600701909152902060020154610100900460ff1661294d576001600160a01b0384166000818152600d6020908152604080832060020180546001818101835591855283852001889055878452600e83529083206008810180549283018155845282842090910180546001600160a01b0319168517905592909152600790910190525b6000838152600e602090815260408083206001600160a01b0388168452600701909152902042600190910155612a1f565b6000838152600e602090815260408083206001600160a01b03881684526007019091528120600101546129b2904290611bcf565b6000858152600e602090815260408083206001600160a01b038a168452600701909152812054919250906129ec908490611e9b9085612a91565b6000868152600e602090815260408083206001600160a01b038b1684526007019091529020429190910360019091015550505b6000928352600e602090815260408085206001600160a01b03909616855260079095019052929091209190915550565b60006112dc83836040518060400160405280601a81526020017f536166654d6174683a206469766973696f6e206279207a65726f000000000000815250612c2b565b600082612aa057506000610c93565b82820282848281612aad57fe5b04146112dc5760405162461bcd60e51b8152600401808060200182810382526021815260200180612f246021913960400191505060405180910390fd5b6000828201838110156112dc576040805162461bcd60e51b815260206004820152601b60248201527f536166654d6174683a206164646974696f6e206f766572666c6f770000000000604482015290519081900360640190fd5b6000805b600a811015612c21576000600282600a8110612b6057fe5b01546001600160a01b031614612c19576000600282600a8110612b7f57fe5b01546040805163c455279160e01b81526001600160a01b0388811660048301529151928216935090861691839163c4552791916024808301926020929190829003018186803b158015612bd157600080fd5b505afa158015612be5573d6000803e3d6000fd5b505050506040513d6020811015612bfb57600080fd5b50516001600160a01b03161415612c1757600192505050610c93565b505b600101612b48565b5060009392505050565b60008183612c7a5760405162461bcd60e51b81526020600482018181528351602484015283519092839260449091019190850190808383600083156125b257818101518382015260200161259a565b506000838581612c8657fe5b0495945050505050565b82600a8101928215612cd8579160200282015b82811115612cd857825182546001600160a01b0319166001600160a01b03909116178255602090920191600190910190612ca3565b50612ce4929150612db0565b5090565b8260028101928215612d16579160200282015b82811115612d16578251825591602001919060010190612cfb565b50612ce4929150612dcf565b828054828255906000526020600020908101928215612cd85791602002820182811115612cd857825182546001600160a01b0319166001600160a01b03909116178255602090920191600190910190612ca3565b828054828255906000526020600020908101928215612d165791602002820182811115612d16578251825591602001919060010190612cfb565b5b80821115612ce45780546001600160a01b0319168155600101612db1565b5b80821115612ce45760008155600101612dd056fe455243313135353a2062616c616e636520717565727920666f7220746865207a65726f20616464726573734f776e61626c653a206e6577206f776e657220697320746865207a65726f2061646472657373455243313135353a207461726765742061646472657373206d757374206265206e6f6e2d7a65726f455243313135353a2063616e6e6f742073657420617070726f76616c2073746174757320666f722073656c66455243313135353a206163636f756e747320616e6420494473206d75737420686176652073616d65206c656e67746873455243313135353a20676f7420756e6b6e6f776e2076616c75652066726f6d206f6e4552433131353542617463685265636569766564455243313135353a20736f6d65206164647265737320696e2062617463682062616c616e6365207175657279206973207a65726f536166654d6174683a206d756c7469706c69636174696f6e206f766572666c6f774f776e61626c653a2063616c6c6572206973206e6f7420746865206f776e6572455243313135353a206e656564206f70657261746f7220617070726f76616c20666f7220337264207061727479207472616e7366657273455243313135353a2049447320616e642076616c756573206d75737420686176652073616d65206c656e67746873455243313135353a20676f7420756e6b6e6f776e2076616c75652066726f6d206f6e455243313135355265636569766564a26469706673582212209a6a02e9da20cef19349960750e7740ee15f71b25c017e48d4d90367b9c83c9d64736f6c634300070100334f776e61626c653a206e6577206f776e657220697320746865207a65726f2061646472657373",
  "immutableReferences": {},
  "source": "// SPDX-License-Identifier: GPL-3.0-or-later\npragma solidity ^0.7.1;\n\nimport \"../utils/SafeMath.sol\";\nimport \"./MultiToken.sol\";\n\ncontract Mintable is MultiToken {\n\n    using SafeMath for uint256;\n\n\n    /****************************\n    MODIFIERS\n    *****************************/\n\n\n    modifier onlyTokenizer() {\n        require(_isTokenizer(msg.sender), \"Insufficient permission\");\n        _;\n    }\n\n\n    /****************************\n    EXTERNAL FUNCTIONS\n    *****************************/\n\n\n    /**\n     * @dev Function to authorize an address to create a token.\n     * @param tokenizer The authorized address\n     */\n    function authorizeTokenizer(address tokenizer) external onlyOwner {\n        _users[tokenizer].isTokenizer = true;\n    }\n\n    /**\n     * @dev Function to revoke the authorization to create a token.\n     * @param tokenizer The authorized address\n     */\n    function revokeTokenizer(address tokenizer) external onlyOwner {\n        _users[tokenizer].isTokenizer = false;\n    }\n\n    /**\n     * @dev Function to check if an address is authorized to create a token.\n     * @param tokenizer The authorized address\n     */\n    function isTokenizer(address tokenizer) external view returns (bool) {\n        return _isTokenizer(tokenizer);\n    }\n\n    /**\n     * @dev Function to mint an amount of a token with the given ID.\n     * @param recipient The address that will own the minted tokens\n     * @param id ID of the token to be minted\n     * @param supply Amount of the token to be minted\n     * @param metadataHash Metadata file hash\n     * @param transactionFees transaction fees: [lumpSumFees (in WEI), valueProportionalFees (ratio of transfered amount * 10**8), storageFees (in storageCredit * 10**8)]\n     * @param feesRecipients list of addresses receiving transfer fees\n     * @param feesRecipientsPercentage list of percentage, each one for the corresponding feesRecipients\n     * @param minHoldingForCallback minimum holding to propose a callback\n     * @param isPrivate true if holder need approval\n     * @param legalAuthority address of the legal authority\n     */\n    function createToken(address recipient,\n                         uint256 id,\n                         uint256 supply,\n                         uint256 decimals,\n                         uint256 metadataHash,\n                         uint256[3] memory transactionFees,\n                         address[] memory feesRecipients,\n                         uint256[] memory feesRecipientsPercentage,\n                         uint256 minHoldingForCallback,\n                         bool isPrivate,\n                         address legalAuthority)\n    external onlyTokenizer {\n        _createToken(recipient,\n                     id,\n                     supply,\n                     decimals,\n                     metadataHash,\n                     transactionFees,\n                     feesRecipients,\n                     feesRecipientsPercentage,\n                     minHoldingForCallback,\n                     isPrivate,\n                     legalAuthority);\n        emit TransferSingle(msg.sender, address(0), recipient, id, supply);\n    }\n\n    /**\n     * @dev Function to mint tokens in batch.\n     * @param id Identifier of the template\n     * @param ids list of IDs of the tokens to be minted\n     * @param metadataHashes list of metadata file hashes\n     */\n    function cloneToken(uint256 id,\n                        uint256[] memory ids,\n                        uint256[] memory metadataHashes)\n    external onlyTokenizer {\n        require(_tokens[id].supply > 0 &&\n                ids.length == metadataHashes.length, \"Invalid arguments\");\n\n        for (uint256 i = 0; i < ids.length; ++i) {\n            _cloneToken(id, ids[i], metadataHashes[i]);\n\n            emit TransferSingle(msg.sender,\n                                address(0),\n                                _tokens[id].holderList[0],\n                                ids[i],\n                                _tokens[id].supply);\n        }\n    }\n\n\n    /****************************\n    INTERNAL FUNCTIONS\n    *****************************/\n\n\n    function _isTokenizer(address tokenizer) internal view returns (bool) {\n        return _users[tokenizer].isTokenizer || _isOwner();\n    }\n\n    function _setToken(uint256 id,\n                       uint256 metadataHash,\n                       uint256[3] memory transactionFees,\n                       address[] memory feesRecipients,\n                       uint256[] memory feesRecipientsPercentage,\n                       uint256 minHoldingForCallback,\n                       bool isPrivate,\n                       address legalAuthority)\n    internal {\n        uint256 totalPercentage = 0;\n        for (uint256 i = 0; i < feesRecipientsPercentage.length; ++i)\n            totalPercentage += feesRecipientsPercentage[i];\n\n        require(feesRecipients.length > 0 && feesRecipients.length == feesRecipients.length &&\n                totalPercentage == 10000 &&\n                minHoldingForCallback < 10000,\n                \"Invalid arguments\");\n\n        _tokens[id].metadataHash = metadataHash;\n        _tokens[id].lumpSumTransactionFees = transactionFees[0];\n        _tokens[id].valueTransactionFees = transactionFees[1];\n        _tokens[id].storageCostHistory.push([block.timestamp, transactionFees[2]]);\n        _tokens[id].feesRecipients = feesRecipients;\n        _tokens[id].feesRecipientsPercentage = feesRecipientsPercentage;\n        _tokens[id].minHoldingForCallback = minHoldingForCallback;\n        _tokens[id].isPrivate = isPrivate;\n        _tokens[id].legalAuthority = legalAuthority;\n    }\n\n\n    function _createToken(address recipient,\n                          uint256 id,\n                          uint256 supply,\n                          uint256 decimals,\n                          uint256 metadataHash,\n                          uint256[3] memory transactionFees,\n                          address[] memory feesRecipients,\n                          uint256[] memory feesRecipientsPercentage,\n                          uint256 minHoldingForCallback,\n                          bool isPrivate,\n                          address legalAuthority)\n    internal {\n        require(_tokens[id].supply == 0 && supply > 0, \"Invalid arguments\");\n\n        _tokens[id].supply = supply;\n        _tokens[id].decimals = decimals;\n        _tokens[id].holders[msg.sender].isMaintener = true;\n        _tokens[id].holders[recipient].isApproved = true;\n\n        _setToken(id,\n                  metadataHash,\n                  transactionFees,\n                  feesRecipients,\n                  feesRecipientsPercentage,\n                  minHoldingForCallback,\n                  isPrivate,\n                  legalAuthority);\n\n        _addToBalance(recipient, id, supply);\n    }\n\n    function _cloneToken(uint256 id, uint256 cloneId, uint256 metadataHash) internal {\n        _createToken(_tokens[id].holderList[0],\n                     cloneId,\n                     _tokens[id].supply,\n                     _tokens[id].decimals,\n                     metadataHash,\n                     [\n                       _tokens[id].lumpSumTransactionFees,\n                       _tokens[id].valueTransactionFees,\n                       _tokens[id].storageCostHistory[0][1]\n                     ],\n                     _tokens[id].feesRecipients,\n                     _tokens[id].feesRecipientsPercentage,\n                     _tokens[id].minHoldingForCallback,\n                     _tokens[id].isPrivate,\n                     _tokens[id].legalAuthority);\n    }\n\n}\n",
  "sourcePath": "/home/ouziel/Work/StashBloxContracts/contracts/lib/Mintable.sol",
  "compiler": {
    "name": "solc",
    "version": "0.7.1+commit.f4a555be.Emscripten.clang"
  },
  "schemaVersion": "3.2.3",
  "updatedAt": "2020-10-21T17:28:33.518Z",
  "devdoc": {
    "kind": "dev",
    "methods": {
      "authorizeTokenizer(address)": {
        "details": "Function to authorize an address to create a token.",
        "params": {
          "tokenizer": "The authorized address"
        }
      },
      "averageAge(address,uint256)": {
        "details": "Function to get the average age of the token for the given address.",
        "params": {
          "account": "the address from where to transfer the tokens",
          "id": "The token ID"
        },
        "returns": {
          "_0": "average age in seconds"
        }
      },
      "balanceOf(address,uint256)": {
        "details": "Get the specified address' balance for token with specified ID. Attempting to query the zero account for a balance will result in a revert.",
        "params": {
          "account": "The address of the token holder",
          "id": "ID of the token"
        },
        "returns": {
          "_0": "The account's balance of the token type requested"
        }
      },
      "balanceOfBatch(address[],uint256[])": {
        "details": "Get the balance of multiple account/token pairs. If any of the query accounts is the zero account, this query will revert.",
        "params": {
          "accounts": "The addresses of the token holders",
          "ids": "IDs of the tokens"
        },
        "returns": {
          "_0": "Balances for each account and token id pair"
        }
      },
      "cloneToken(uint256,uint256[],uint256[])": {
        "details": "Function to mint tokens in batch.",
        "params": {
          "id": "Identifier of the template",
          "ids": "list of IDs of the tokens to be minted",
          "metadataHashes": "list of metadata file hashes"
        }
      },
      "createToken(address,uint256,uint256,uint256,uint256,uint256[3],address[],uint256[],uint256,bool,address)": {
        "details": "Function to mint an amount of a token with the given ID.",
        "params": {
          "feesRecipients": "list of addresses receiving transfer fees",
          "feesRecipientsPercentage": "list of percentage, each one for the corresponding feesRecipients",
          "id": "ID of the token to be minted",
          "isPrivate": "true if holder need approval",
          "legalAuthority": "address of the legal authority",
          "metadataHash": "Metadata file hash",
          "minHoldingForCallback": "minimum holding to propose a callback",
          "recipient": "The address that will own the minted tokens",
          "supply": "Amount of the token to be minted",
          "transactionFees": "transaction fees: [lumpSumFees (in WEI), valueProportionalFees (ratio of transfered amount * 10**8), storageFees (in storageCredit * 10**8)]"
        }
      },
      "isApprovedForAll(address,address)": {
        "params": {
          "account": "The account of the Tokens",
          "operator": "Address of authorized operator"
        },
        "returns": {
          "_0": "True if the operator is approved, false if not"
        }
      },
      "isTokenizer(address)": {
        "details": "Function to check if an address is authorized to create a token.",
        "params": {
          "tokenizer": "The authorized address"
        }
      },
      "owner()": {
        "details": "Returns the address of the current owner."
      },
      "revokeTokenizer(address)": {
        "details": "Function to revoke the authorization to create a token.",
        "params": {
          "tokenizer": "The authorized address"
        }
      },
      "safeBatchTransferFrom(address,address,uint256[],uint256[],bytes)": {
        "details": "Transfers `values` amount(s) of `ids` from the `from` address to the `to` address specified. Caller must be approved to manage the tokens being transferred out of the `from` account. If `to` is a smart contract, will call `onERC1155BatchReceived` on `to` and act appropriately.",
        "params": {
          "data": "Data forwarded to `onERC1155Received` if `to` is a contract receiver",
          "from": "Source address",
          "ids": "IDs of each token type",
          "to": "Target address",
          "values": "Transfer amounts per token type"
        }
      },
      "safeTransferFrom(address,address,uint256,uint256,bytes)": {
        "details": "Transfers `value` amount of an `id` from the `from` address to the `to` address specified. Caller must be approved to manage the tokens being transferred out of the `from` account. If `to` is a smart contract, will call `onERC1155Received` on `to` and act appropriately.",
        "params": {
          "data": "Data forwarded to `onERC1155Received` if `to` is a contract receiver",
          "from": "Source address",
          "id": "ID of the token type",
          "to": "Target address",
          "value": "Transfer amount"
        }
      },
      "setApprovalForAll(address,bool)": {
        "details": "Sets or unsets the approval of a given operator. An operator is allowed to transfer all tokens of the sender on their behalf. Because an account already has operator privileges for itself, this function will revert if the account attempts to set the approval status for itself.",
        "params": {
          "approved": "representing the status of the approval to be set",
          "operator": "address to set the approval"
        }
      },
      "setProxyRegistryAddress(address[10])": {
        "details": "Function to update the operator whitelist",
        "params": {
          "proxyAddresses": "List of addresses"
        }
      },
      "supportsInterface(bytes4)": {
        "params": {
          "_interfaceID": "The interface identifier, as specified in ERC-165"
        },
        "returns": {
          "_0": "`true` if the contract implements `_interfaceID` and"
        }
      },
      "transactionFees(address,uint256,uint256)": {
        "details": "Function to get the transaction price to transfer tokens.",
        "params": {
          "account": "the address from where to transfer the tokens",
          "id": "The token ID",
          "value": "The amount to transfer"
        },
        "returns": {
          "_0": "transfer price"
        }
      },
      "transferOwnership(address)": {
        "details": "Transfers ownership of the contract to a new account (`newOwner`). Can only be called by the current owner."
      }
    },
    "version": 1
  },
  "userdoc": {
    "kind": "user",
    "methods": {
      "isApprovedForAll(address,address)": {
        "notice": "Queries the approval status of an operator for a given account."
      },
      "supportsInterface(bytes4)": {
        "notice": "Query if a contract implements an interface"
      }
    },
    "version": 1
  }
}