{
  "contractName": "Mintable",
  "abi": [
    {
      "anonymous": false,
      "inputs": [
        {
          "indexed": true,
          "internalType": "address",
          "name": "_owner",
          "type": "address"
        },
        {
          "indexed": true,
          "internalType": "address",
          "name": "_operator",
          "type": "address"
        },
        {
          "indexed": false,
          "internalType": "bool",
          "name": "_approved",
          "type": "bool"
        }
      ],
      "name": "ApprovalForAll",
      "type": "event"
    },
    {
      "anonymous": false,
      "inputs": [
        {
          "indexed": true,
          "internalType": "address",
          "name": "previousOwner",
          "type": "address"
        },
        {
          "indexed": true,
          "internalType": "address",
          "name": "newOwner",
          "type": "address"
        }
      ],
      "name": "OwnershipTransferred",
      "type": "event"
    },
    {
      "anonymous": false,
      "inputs": [
        {
          "indexed": true,
          "internalType": "address",
          "name": "_operator",
          "type": "address"
        },
        {
          "indexed": true,
          "internalType": "address",
          "name": "_from",
          "type": "address"
        },
        {
          "indexed": true,
          "internalType": "address",
          "name": "_to",
          "type": "address"
        },
        {
          "indexed": false,
          "internalType": "uint256[]",
          "name": "_ids",
          "type": "uint256[]"
        },
        {
          "indexed": false,
          "internalType": "uint256[]",
          "name": "_values",
          "type": "uint256[]"
        }
      ],
      "name": "TransferBatch",
      "type": "event"
    },
    {
      "anonymous": false,
      "inputs": [
        {
          "indexed": true,
          "internalType": "address",
          "name": "_operator",
          "type": "address"
        },
        {
          "indexed": true,
          "internalType": "address",
          "name": "_from",
          "type": "address"
        },
        {
          "indexed": true,
          "internalType": "address",
          "name": "_to",
          "type": "address"
        },
        {
          "indexed": false,
          "internalType": "uint256",
          "name": "_id",
          "type": "uint256"
        },
        {
          "indexed": false,
          "internalType": "uint256",
          "name": "_value",
          "type": "uint256"
        }
      ],
      "name": "TransferSingle",
      "type": "event"
    },
    {
      "anonymous": false,
      "inputs": [
        {
          "indexed": false,
          "internalType": "string",
          "name": "_value",
          "type": "string"
        },
        {
          "indexed": true,
          "internalType": "uint256",
          "name": "_id",
          "type": "uint256"
        }
      ],
      "name": "URI",
      "type": "event"
    },
    {
      "inputs": [
        {
          "internalType": "uint256",
          "name": "",
          "type": "uint256"
        }
      ],
      "name": "_callbacks",
      "outputs": [
        {
          "internalType": "uint256",
          "name": "tokenId",
          "type": "uint256"
        },
        {
          "internalType": "uint256",
          "name": "price",
          "type": "uint256"
        },
        {
          "internalType": "uint256",
          "name": "escrowedAmount",
          "type": "uint256"
        },
        {
          "internalType": "uint256",
          "name": "callCounter",
          "type": "uint256"
        },
        {
          "internalType": "uint256",
          "name": "documentHash",
          "type": "uint256"
        },
        {
          "internalType": "address",
          "name": "caller",
          "type": "address"
        },
        {
          "internalType": "bool",
          "name": "needLegalApproval",
          "type": "bool"
        },
        {
          "internalType": "bool",
          "name": "approvedByLegal",
          "type": "bool"
        },
        {
          "internalType": "bool",
          "name": "refused",
          "type": "bool"
        },
        {
          "internalType": "bool",
          "name": "accepted",
          "type": "bool"
        },
        {
          "internalType": "bool",
          "name": "completed",
          "type": "bool"
        }
      ],
      "stateMutability": "view",
      "type": "function"
    },
    {
      "inputs": [],
      "name": "_config",
      "outputs": [
        {
          "internalType": "uint256",
          "name": "callbackAutoExecuteMaxAddresses",
          "type": "uint256"
        },
        {
          "internalType": "string",
          "name": "baseURI",
          "type": "string"
        },
        {
          "internalType": "string",
          "name": "versionRecipient",
          "type": "string"
        },
        {
          "internalType": "address",
          "name": "owner",
          "type": "address"
        },
        {
          "internalType": "address",
          "name": "GSNTrustedForwarder",
          "type": "address"
        }
      ],
      "stateMutability": "view",
      "type": "function"
    },
    {
      "inputs": [
        {
          "internalType": "uint256",
          "name": "",
          "type": "uint256"
        }
      ],
      "name": "_tokens",
      "outputs": [
        {
          "internalType": "uint256",
          "name": "supply",
          "type": "uint256"
        },
        {
          "internalType": "uint256",
          "name": "decimals",
          "type": "uint256"
        },
        {
          "internalType": "uint256",
          "name": "lumpSumTransactionFees",
          "type": "uint256"
        },
        {
          "internalType": "uint256",
          "name": "valueTransactionFees",
          "type": "uint256"
        },
        {
          "internalType": "uint256",
          "name": "minHoldingForCallback",
          "type": "uint256"
        },
        {
          "internalType": "uint256",
          "name": "metadataHash",
          "type": "uint256"
        },
        {
          "internalType": "address",
          "name": "legalAuthority",
          "type": "address"
        },
        {
          "internalType": "bool",
          "name": "isPrivate",
          "type": "bool"
        },
        {
          "internalType": "bool",
          "name": "locked",
          "type": "bool"
        }
      ],
      "stateMutability": "view",
      "type": "function"
    },
    {
      "inputs": [
        {
          "internalType": "address",
          "name": "",
          "type": "address"
        }
      ],
      "name": "_users",
      "outputs": [
        {
          "internalType": "bool",
          "name": "isTokenizer",
          "type": "bool"
        },
        {
          "internalType": "bool",
          "name": "isLocked",
          "type": "bool"
        },
        {
          "internalType": "uint256",
          "name": "ETHBalance",
          "type": "uint256"
        }
      ],
      "stateMutability": "view",
      "type": "function"
    },
    {
      "inputs": [
        {
          "internalType": "address",
          "name": "account",
          "type": "address"
        },
        {
          "internalType": "uint256",
          "name": "id",
          "type": "uint256"
        }
      ],
      "name": "averageAge",
      "outputs": [
        {
          "internalType": "uint256",
          "name": "",
          "type": "uint256"
        }
      ],
      "stateMutability": "view",
      "type": "function"
    },
    {
      "inputs": [
        {
          "internalType": "address",
          "name": "account",
          "type": "address"
        },
        {
          "internalType": "uint256",
          "name": "id",
          "type": "uint256"
        }
      ],
      "name": "balanceOf",
      "outputs": [
        {
          "internalType": "uint256",
          "name": "",
          "type": "uint256"
        }
      ],
      "stateMutability": "view",
      "type": "function"
    },
    {
      "inputs": [
        {
          "internalType": "address[]",
          "name": "accounts",
          "type": "address[]"
        },
        {
          "internalType": "uint256[]",
          "name": "ids",
          "type": "uint256[]"
        }
      ],
      "name": "balanceOfBatch",
      "outputs": [
        {
          "internalType": "uint256[]",
          "name": "",
          "type": "uint256[]"
        }
      ],
      "stateMutability": "view",
      "type": "function"
    },
    {
      "inputs": [
        {
          "internalType": "address",
          "name": "account",
          "type": "address"
        },
        {
          "internalType": "address",
          "name": "operator",
          "type": "address"
        }
      ],
      "name": "isApprovedForAll",
      "outputs": [
        {
          "internalType": "bool",
          "name": "",
          "type": "bool"
        }
      ],
      "stateMutability": "view",
      "type": "function"
    },
    {
      "inputs": [
        {
          "internalType": "address",
          "name": "forwarder",
          "type": "address"
        }
      ],
      "name": "isTrustedForwarder",
      "outputs": [
        {
          "internalType": "bool",
          "name": "",
          "type": "bool"
        }
      ],
      "stateMutability": "view",
      "type": "function"
    },
    {
      "inputs": [],
      "name": "owner",
      "outputs": [
        {
          "internalType": "address",
          "name": "",
          "type": "address"
        }
      ],
      "stateMutability": "view",
      "type": "function"
    },
    {
      "inputs": [
        {
          "internalType": "address",
          "name": "from",
          "type": "address"
        },
        {
          "internalType": "address",
          "name": "to",
          "type": "address"
        },
        {
          "internalType": "uint256[]",
          "name": "ids",
          "type": "uint256[]"
        },
        {
          "internalType": "uint256[]",
          "name": "values",
          "type": "uint256[]"
        },
        {
          "internalType": "bytes",
          "name": "data",
          "type": "bytes"
        }
      ],
      "name": "safeBatchTransferFrom",
      "outputs": [],
      "stateMutability": "payable",
      "type": "function"
    },
    {
      "inputs": [
        {
          "internalType": "address",
          "name": "from",
          "type": "address"
        },
        {
          "internalType": "address",
          "name": "to",
          "type": "address"
        },
        {
          "internalType": "uint256",
          "name": "id",
          "type": "uint256"
        },
        {
          "internalType": "uint256",
          "name": "value",
          "type": "uint256"
        },
        {
          "internalType": "bytes",
          "name": "data",
          "type": "bytes"
        }
      ],
      "name": "safeTransferFrom",
      "outputs": [],
      "stateMutability": "payable",
      "type": "function"
    },
    {
      "inputs": [
        {
          "internalType": "address",
          "name": "operator",
          "type": "address"
        },
        {
          "internalType": "bool",
          "name": "approved",
          "type": "bool"
        }
      ],
      "name": "setApprovalForAll",
      "outputs": [],
      "stateMutability": "nonpayable",
      "type": "function"
    },
    {
      "inputs": [
        {
          "internalType": "address[10]",
          "name": "proxyAddresses",
          "type": "address[10]"
        }
      ],
      "name": "setProxyRegistryAddress",
      "outputs": [],
      "stateMutability": "nonpayable",
      "type": "function"
    },
    {
      "inputs": [
        {
          "internalType": "bytes4",
          "name": "_interfaceID",
          "type": "bytes4"
        }
      ],
      "name": "supportsInterface",
      "outputs": [
        {
          "internalType": "bool",
          "name": "",
          "type": "bool"
        }
      ],
      "stateMutability": "pure",
      "type": "function"
    },
    {
      "inputs": [
        {
          "internalType": "address",
          "name": "account",
          "type": "address"
        },
        {
          "internalType": "uint256",
          "name": "id",
          "type": "uint256"
        },
        {
          "internalType": "uint256",
          "name": "value",
          "type": "uint256"
        }
      ],
      "name": "transactionFees",
      "outputs": [
        {
          "internalType": "uint256",
          "name": "",
          "type": "uint256"
        }
      ],
      "stateMutability": "view",
      "type": "function"
    },
    {
      "inputs": [
        {
          "internalType": "address",
          "name": "newOwner",
          "type": "address"
        }
      ],
      "name": "transferOwnership",
      "outputs": [],
      "stateMutability": "nonpayable",
      "type": "function"
    },
    {
      "inputs": [
        {
          "internalType": "uint256",
          "name": "id",
          "type": "uint256"
        }
      ],
      "name": "uri",
      "outputs": [
        {
          "internalType": "string",
          "name": "",
          "type": "string"
        }
      ],
      "stateMutability": "view",
      "type": "function"
    },
    {
      "inputs": [],
      "name": "versionRecipient",
      "outputs": [
        {
          "internalType": "string",
          "name": "",
          "type": "string"
        }
      ],
      "stateMutability": "view",
      "type": "function"
    },
    {
      "inputs": [
        {
          "internalType": "address",
          "name": "tokenizer",
          "type": "address"
        }
      ],
      "name": "authorizeTokenizer",
      "outputs": [],
      "stateMutability": "nonpayable",
      "type": "function"
    },
    {
      "inputs": [
        {
          "internalType": "address",
          "name": "tokenizer",
          "type": "address"
        }
      ],
      "name": "revokeTokenizer",
      "outputs": [],
      "stateMutability": "nonpayable",
      "type": "function"
    },
    {
      "inputs": [
        {
          "internalType": "address",
          "name": "tokenizer",
          "type": "address"
        }
      ],
      "name": "isTokenizer",
      "outputs": [
        {
          "internalType": "bool",
          "name": "",
          "type": "bool"
        }
      ],
      "stateMutability": "view",
      "type": "function"
    },
    {
      "inputs": [
        {
          "internalType": "address",
          "name": "recipient",
          "type": "address"
        },
        {
          "internalType": "uint256",
          "name": "id",
          "type": "uint256"
        },
        {
          "internalType": "uint256",
          "name": "supply",
          "type": "uint256"
        },
        {
          "internalType": "uint256",
          "name": "decimals",
          "type": "uint256"
        },
        {
          "internalType": "uint256",
          "name": "metadataHash",
          "type": "uint256"
        },
        {
          "internalType": "uint256[3]",
          "name": "transactionFees",
          "type": "uint256[3]"
        },
        {
          "internalType": "address[]",
          "name": "feesRecipients",
          "type": "address[]"
        },
        {
          "internalType": "uint256[]",
          "name": "feesRecipientsPercentage",
          "type": "uint256[]"
        },
        {
          "internalType": "uint256",
          "name": "minHoldingForCallback",
          "type": "uint256"
        },
        {
          "internalType": "bool",
          "name": "isPrivate",
          "type": "bool"
        },
        {
          "internalType": "address",
          "name": "legalAuthority",
          "type": "address"
        }
      ],
      "name": "createToken",
      "outputs": [],
      "stateMutability": "nonpayable",
      "type": "function"
    },
    {
      "inputs": [
        {
          "internalType": "uint256",
          "name": "id",
          "type": "uint256"
        },
        {
          "internalType": "uint256[]",
          "name": "ids",
          "type": "uint256[]"
        },
        {
          "internalType": "uint256[]",
          "name": "metadataHashes",
          "type": "uint256[]"
        }
      ],
      "name": "cloneToken",
      "outputs": [],
      "stateMutability": "nonpayable",
      "type": "function"
    }
  ],
  "bytecode": "0x60806040523480156200001157600080fd5b5062000026620000206200002c565b62000062565b62000133565b60006018361080159062000046575062000046336200011f565b156200005c575060131936013560601c6200005f565b50335b90565b6001600160a01b038116620000c3576040517f08c379a0000000000000000000000000000000000000000000000000000000008152600401808060200182810382526026815260200180620037a86026913960400191505060405180910390fd5b6003546040516001600160a01b038084169216907f8be0079c531659141344cd1fd0a4f28419497f9722a3daafe3b4186f6b6457e090600090a3600380546001600160a01b0319166001600160a01b0392909216919091179055565b6004546001600160a01b0390811691161490565b61366580620001436000396000f3fe60806040526004361061014a5760003560e01c80637627b732116100b6578063d1660e181161006f578063d1660e1814610aad578063e985e9c514610aec578063ed70554d14610b27578063f242432a14610ba5578063f2fde38b14610c38578063f8a5a07c14610c6b5761014a565b80637627b7321461080b5780638870147b1461083e5780638da5cb5b14610871578063a22cb465146108a2578063c02f303c146108dd578063c40b87ae146109105761014a565b8063414ed0ce11610108578063414ed0ce146105175780634392e577146105a9578063486ff0cd1461060a5780634e1273f41461061f578063572b6c051461079f578063585941d5146107d25761014a565b8062fdd58e1461014f57806301ffc9a71461019a5780630e89341c146101e25780632eb2c2d6146102815780632ed42bf7146103aa5780633cacd7d6146104c4575b600080fd5b34801561015b57600080fd5b506101886004803603604081101561017257600080fd5b506001600160a01b038135169060200135610da2565b60408051918252519081900360200190f35b3480156101a657600080fd5b506101ce600480360360208110156101bd57600080fd5b50356001600160e01b031916610e17565b604080519115158252519081900360200190f35b3480156101ee57600080fd5b5061020c6004803603602081101561020557600080fd5b5035610e5e565b6040805160208082528351818301528351919283929083019185019080838360005b8381101561024657818101518382015260200161022e565b50505050905090810190601f1680156102735780820380516001836020036101000a031916815260200191505b509250505060405180910390f35b6103a8600480360360a081101561029757600080fd5b6001600160a01b038235811692602081013590911691810190606081016040820135600160201b8111156102ca57600080fd5b8201836020820111156102dc57600080fd5b803590602001918460208302840111600160201b831117156102fd57600080fd5b919390929091602081019035600160201b81111561031a57600080fd5b82018360208201111561032c57600080fd5b803590602001918460208302840111600160201b8311171561034d57600080fd5b919390929091602081019035600160201b81111561036a57600080fd5b82018360208201111561037c57600080fd5b803590602001918460018302840111600160201b8311171561039d57600080fd5b509092509050610eff565b005b3480156103b657600080fd5b506103bf6111d2565b604051808681526020018060200180602001856001600160a01b03168152602001846001600160a01b03168152602001838103835287818151815260200191508051906020019080838360005b8381101561042457818101518382015260200161040c565b50505050905090810190601f1680156104515780820380516001836020036101000a031916815260200191505b50838103825286518152865160209182019188019080838360005b8381101561048457818101518382015260200161046c565b50505050905090810190601f1680156104b15780820380516001836020036101000a031916815260200191505b5097505050505050505060405180910390f35b3480156104d057600080fd5b506104f7600480360360208110156104e757600080fd5b50356001600160a01b0316611313565b604080519315158452911515602084015282820152519081900360600190f35b34801561052357600080fd5b506105416004803603602081101561053a57600080fd5b5035611339565b604080519b8c5260208c019a909a528a8a019890985260608a019690965260808901949094526001600160a01b0390921660a0880152151560c0870152151560e086015215156101008501521515610120840152151561014083015251908190036101600190f35b3480156105b557600080fd5b506103a860048036036101408110156105cd57600080fd5b81019080806101400190600a806020026040519081016040528092919082600a602002808284376000920191909152509194506113ac9350505050565b34801561061657600080fd5b5061020c611404565b34801561062b57600080fd5b5061074f6004803603604081101561064257600080fd5b810190602081018135600160201b81111561065c57600080fd5b82018360208201111561066e57600080fd5b803590602001918460208302840111600160201b8311171561068f57600080fd5b9190808060200260200160405190810160405280939291908181526020018383602002808284376000920191909152509295949360208101935035915050600160201b8111156106de57600080fd5b8201836020820111156106f057600080fd5b803590602001918460208302840111600160201b8311171561071157600080fd5b919080806020026020016040519081016040528093929190818152602001838360200280828437600092019190915250929550611498945050505050565b60408051602080825283518183015283519192839290830191858101910280838360005b8381101561078b578181015183820152602001610773565b505050509050019250505060405180910390f35b3480156107ab57600080fd5b506101ce600480360360208110156107c257600080fd5b50356001600160a01b031661161c565b3480156107de57600080fd5b50610188600480360360408110156107f557600080fd5b506001600160a01b038135169060200135611630565b34801561081757600080fd5b506103a86004803603602081101561082e57600080fd5b50356001600160a01b031661166b565b34801561084a57600080fd5b506103a86004803603602081101561086157600080fd5b50356001600160a01b03166116d6565b34801561087d57600080fd5b5061088661173e565b604080516001600160a01b039092168252519081900360200190f35b3480156108ae57600080fd5b506103a8600480360360408110156108c557600080fd5b506001600160a01b038135169060200135151561174d565b3480156108e957600080fd5b506101ce6004803603602081101561090057600080fd5b50356001600160a01b0316611840565b34801561091c57600080fd5b506103a860048036036101a081101561093457600080fd5b60408051606081810183526001600160a01b03853516946020810135949381013593828201359360808301359391830192916101008301919060a0840190600390839083908082843760009201919091525091949392602081019250359050600160201b8111156109a457600080fd5b8201836020820111156109b657600080fd5b803590602001918460208302840111600160201b831117156109d757600080fd5b9190808060200260200160405190810160405280939291908181526020018383602002808284376000920191909152509295949360208101935035915050600160201b811115610a2657600080fd5b820183602082011115610a3857600080fd5b803590602001918460208302840111600160201b83111715610a5957600080fd5b919080806020026020016040519081016040528093929190818152602001838360200280828437600092019190915250929550508235935050506020810135151590604001356001600160a01b031661184b565b348015610ab957600080fd5b5061018860048036036060811015610ad057600080fd5b506001600160a01b038135169060208101359060400135611922565b348015610af857600080fd5b506101ce60048036036040811015610b0f57600080fd5b506001600160a01b0381358116916020013516611937565b348015610b3357600080fd5b50610b5160048036036020811015610b4a57600080fd5b5035611943565b60408051998a5260208a0198909852888801969096526060880194909452608087019290925260a08601526001600160a01b031660c0850152151560e0840152151561010083015251908190036101200190f35b6103a8600480360360a0811015610bbb57600080fd5b6001600160a01b03823581169260208101359091169160408201359160608101359181019060a081016080820135600160201b811115610bfa57600080fd5b820183602082011115610c0c57600080fd5b803590602001918460018302840111600160201b83111715610c2d57600080fd5b50909250905061199f565b348015610c4457600080fd5b506103a860048036036020811015610c5b57600080fd5b50356001600160a01b0316611b16565b348015610c7757600080fd5b506103a860048036036060811015610c8e57600080fd5b81359190810190604081016020820135600160201b811115610caf57600080fd5b820183602082011115610cc157600080fd5b803590602001918460208302840111600160201b83111715610ce257600080fd5b9190808060200260200160405190810160405280939291908181526020018383602002808284376000920191909152509295949360208101935035915050600160201b811115610d3157600080fd5b820183602082011115610d4357600080fd5b803590602001918460208302840111600160201b83111715610d6457600080fd5b919080806020026020016040519081016040528093929190818152602001838360200280828437600092019190915250929550611b69945050505050565b60006001600160a01b038316610de95760405162461bcd60e51b815260040180806020018281038252602b81526020018061341a602b913960400191505060405180910390fd5b5060008181526010602090815260408083206001600160a01b03861684526007019091529020545b92915050565b60006001600160e01b031982166301ffc9a760e01b1480610e4857506001600160e01b03198216636cdb3d1360e11b145b15610e5557506001610e59565b5060005b919050565b60018054604080516020600284861615610100026000190190941693909304601f8101849004840282018401909252818152606093610e119391929091830182828015610eec5780601f10610ec157610100808354040283529160200191610eec565b820191906000526020600020905b815481529060010190602001808311610ecf57829003601f168201915b5050505050610efa84611d17565b611dd3565b848314610f3d5760405162461bcd60e51b815260040180806020018281038252602e8152602001806135d1602e913960400191505060405180910390fd5b6001600160a01b038716610f825760405162461bcd60e51b815260040180806020018281038252602881526020018061346b6028913960400191505060405180910390fd5b610f8a611edd565b6001600160a01b0316886001600160a01b03161480610fbb5750610fb588610fb0611edd565b611937565b15156001145b610ff65760405162461bcd60e51b815260040180806020018281038252603781526020018061359a6037913960400191505060405180910390fd5b611065888888888080602002602001604051908101604052809392919081815260200183836020028082843760009201919091525050604080516020808c0282810182019093528b82529093508b92508a918291850190849080828437600092019190915250611f0f92505050565b866001600160a01b0316886001600160a01b0316611081611edd565b6001600160a01b03167f4a39dc06d4c0dbc64b70af90fd698a233a518aa5d07e595d983b8c0526c8f7fb898989896040518080602001806020018381038352878782818152602001925060200280828437600083820152601f01601f19169091018481038352858152602090810191508690860280828437600083820152604051601f909101601f19169092018290039850909650505050505050a46111c8611128611edd565b898989898080602002602001604051908101604052809392919081815260200183836020028082843760009201919091525050604080516020808d0282810182019093528c82529093508c92508b91829185019084908082843760009201919091525050604080516020601f8c018190048102820181019092528a815292508a9150899081908401838280828437600092019190915250611fc992505050565b5050505050505050565b6000805460018054604080516020600284861615610100026000190190941693909304601f8101849004840282018401909252818152939493929183018282801561125e5780601f106112335761010080835404028352916020019161125e565b820191906000526020600020905b81548152906001019060200180831161124157829003601f168201915b50505060028085018054604080516020601f60001961010060018716150201909416959095049283018590048502810185019091528181529596959450909250908301828280156112f05780601f106112c5576101008083540402835291602001916112f0565b820191906000526020600020905b8154815290600101906020018083116112d357829003601f168201915b50505050600383015460049093015491926001600160a01b039081169216905085565b600f602052600090815260409020805460019091015460ff808316926101009004169083565b60116020526000908152604090208054600182015460028301546003840154600485015460059095015493949293919290916001600160a01b0381169060ff600160a01b8204811691600160a81b8104821691600160b01b8204811691600160b81b8104821691600160c01b909104168b565b6113b46121ba565b6113f3576040805162461bcd60e51b8152602060048201819052602482015260008051602061357a833981519152604482015290519081900360640190fd5b611400600582600a6132c5565b5050565b60028054604080516020601f600019610100600187161502019094168590049384018190048102820181019092528281526060939092909183018282801561148d5780601f106114625761010080835404028352916020019161148d565b820191906000526020600020905b81548152906001019060200180831161147057829003601f168201915b505050505090505b90565b606081518351146114da5760405162461bcd60e51b81526004018080602001828103825260308152602001806134bf6030913960400191505060405180910390fd5b6060835167ffffffffffffffff811180156114f457600080fd5b5060405190808252806020026020018201604052801561151e578160200160208202803683370190505b50905060005b84518110156116145760006001600160a01b031685828151811061154457fe5b60200260200101516001600160a01b031614156115925760405162461bcd60e51b81526004018080602001828103825260348152602001806135256034913960400191505060405180910390fd5b601060008583815181106115a257fe5b6020026020010151815260200190815260200160002060070160008683815181106115c957fe5b60200260200101516001600160a01b03166001600160a01b031681526020019081526020016000206000015482828151811061160157fe5b6020908102919091010152600101611524565b509392505050565b6004546001600160a01b0390811691161490565b60008181526010602090815260408083206001600160a01b03861684526007019091528120600101546116649042906121e0565b9392505050565b6116736121ba565b6116b2576040805162461bcd60e51b8152602060048201819052602482015260008051602061357a833981519152604482015290519081900360640190fd5b6001600160a01b03166000908152600f60205260409020805460ff19166001179055565b6116de6121ba565b61171d576040805162461bcd60e51b8152602060048201819052602482015260008051602061357a833981519152604482015290519081900360640190fd5b6001600160a01b03166000908152600f60205260409020805460ff19169055565b6003546001600160a01b031690565b816001600160a01b031661175f611edd565b6001600160a01b031614156117a55760405162461bcd60e51b815260040180806020018281038252602c815260200180613493602c913960400191505060405180910390fd5b80600f60006117b2611edd565b6001600160a01b0390811682526020808301939093526040918201600090812091871680825260039092019093529120805460ff1916921515929092179091556117fa611edd565b6001600160a01b03167f17307eab39ab6107e8899845ad3d59bd9653f200f220920489ca2b5937696c318360405180821515815260200191505060405180910390a35050565b6000610e1182612222565b61185b611856611edd565b612222565b6118a6576040805162461bcd60e51b815260206004820152601760248201527624b739bab33334b1b4b2b73a103832b936b4b9b9b4b7b760491b604482015290519081900360640190fd5b6118b98b8b8b8b8b8b8b8b8b8b8b61224c565b6001600160a01b038b1660006118cd611edd565b6001600160a01b03167fc3d58168c5ae7397731d063d5bbf3d657854427343f4c083240f7aacaa2d0f628d8d604051808381526020018281526020019250505060405180910390a45050505050505050505050565b600061192f84848461238c565b949350505050565b60006116648383612574565b601060205260009081526040902080546001820154600283015460038401546004850154600586015460069096015494959394929391929091906001600160a01b0381169060ff600160a01b8204811691600160a81b90041689565b6001600160a01b0385166119e45760405162461bcd60e51b815260040180806020018281038252602881526020018061346b6028913960400191505060405180910390fd5b6119ec611edd565b6001600160a01b0316866001600160a01b03161480611a185750611a1286610fb0611edd565b15156001145b611a535760405162461bcd60e51b815260040180806020018281038252603781526020018061359a6037913960400191505060405180910390fd5b611a5f868686866125b9565b846001600160a01b0316866001600160a01b0316611a7b611edd565b6001600160a01b03167fc3d58168c5ae7397731d063d5bbf3d657854427343f4c083240f7aacaa2d0f628787604051808381526020018281526020019250505060405180910390a4611b0e611ace611edd565b8787878787878080601f01602080910402602001604051908101604052809392919081815260200183838082843760009201919091525061263192505050565b505050505050565b611b1e6121ba565b611b5d576040805162461bcd60e51b8152602060048201819052602482015260008051602061357a833981519152604482015290519081900360640190fd5b611b66816127a6565b50565b611b74611856611edd565b611bbf576040805162461bcd60e51b815260206004820152601760248201527624b739bab33334b1b4b2b73a103832b936b4b9b9b4b7b760491b604482015290519081900360640190fd5b60008381526010602052604090205415801590611bdd575080518251145b611c22576040805162461bcd60e51b8152602060048201526011602482015270496e76616c696420617267756d656e747360781b604482015290519081900360640190fd5b60005b8251811015611d1157611c5f84848381518110611c3e57fe5b6020026020010151848481518110611c5257fe5b6020026020010151612847565b60008481526010602052604081206008018054909190611c7b57fe5b60009182526020822001546001600160a01b031690611c98611edd565b6001600160a01b03167fc3d58168c5ae7397731d063d5bbf3d657854427343f4c083240f7aacaa2d0f62868581518110611cce57fe5b6020026020010151601060008a815260200190815260200160002060000154604051808381526020018281526020019250505060405180910390a4600101611c25565b50505050565b60606000825b8015611d33576001919091019060109004611d1d565b60608267ffffffffffffffff81118015611d4c57600080fd5b506040519080825280601f01601f191660200182016040528015611d77576020820181803683370190505b50905060005b83811015611dca57601086069250611d94836129e9565b8260018387030381518110611da557fe5b60200101906001600160f81b031916908160001a905350601086049550600101611d7d565b50949350505050565b805182516060918491849184910167ffffffffffffffff81118015611df757600080fd5b506040519080825280601f01601f191660200182016040528015611e22576020820181803683370190505b509050806000805b8551811015611e7b57858181518110611e3f57fe5b602001015160f81c60f81b838380600101945081518110611e5c57fe5b60200101906001600160f81b031916908160001a905350600101611e2a565b5060005b8451811015611ed057848181518110611e9457fe5b602001015160f81c60f81b838380600101945081518110611eb157fe5b60200101906001600160f81b031916908160001a905350600101611e7f565b5090979650505050505050565b600060183610801590611ef45750611ef43361161c565b15611f08575060131936013560601c611495565b5033611495565b6000803411611f39576001600160a01b0385166000908152600f6020526040902060010154611f3b565b345b905060005b8351811015611fb757611fad611f7e8787878581518110611f5d57fe5b6020026020010151878681518110611f7157fe5b6020026020010151612a2d565b60408051808201909152601081526f092dce6eaccccd2c6d2cadce8408aa8960831b6020820152849190612b81565b9150600101611f40565b50611fc28582612c18565b5050505050565b611fdb846001600160a01b0316612c99565b15611b0e5763bc197c8160e01b6001600160e01b031916846001600160a01b031663bc197c8188888787876040518663ffffffff1660e01b815260040180866001600160a01b03168152602001856001600160a01b03168152602001806020018060200180602001848103845287818151815260200191508051906020019060200280838360005b8381101561207b578181015183820152602001612063565b50505050905001848103835286818151815260200191508051906020019060200280838360005b838110156120ba5781810151838201526020016120a2565b50505050905001848103825285818151815260200191508051906020019080838360005b838110156120f65781810151838201526020016120de565b50505050905090810190601f1680156121235780820380516001836020036101000a031916815260200191505b5098505050505050505050602060405180830381600087803b15801561214857600080fd5b505af115801561215c573d6000803e3d6000fd5b505050506040513d602081101561217257600080fd5b50516001600160e01b03191614611b0e5760405162461bcd60e51b81526004018080602001828103825260368152602001806134ef6036913960400191505060405180910390fd5b6003546000906001600160a01b03166121d1611edd565b6001600160a01b031614905090565b600061166483836040518060400160405280601e81526020017f536166654d6174683a207375627472616374696f6e206f766572666c6f770000815250612b81565b6001600160a01b0381166000908152600f602052604081205460ff1680610e115750610e116121ba565b60008a8152601060205260409020541580156122685750600089115b6122ad576040805162461bcd60e51b8152602060048201526011602482015270496e76616c696420617267756d656e747360781b604482015290519081900360640190fd5b60008a81526010602052604081208a815560018082018b9055916007909101906122d5611edd565b6001600160a01b03166001600160a01b0316815260200190815260200160002060020160006101000a81548160ff0219169083151502179055506001601060008c815260200190815260200160002060070160008d6001600160a01b03166001600160a01b0316815260200190815260200160002060020160026101000a81548160ff0219169083151502179055506123748a88888888888888612cd0565b61237f8b8b8b612e74565b5050505050505050505050565b6000828152601060205260408120600b015481904290600019015b6000868152601060205260408120600b018054839081106123c457fe5b60009182526020822060029091020101546000888152601060205260408120600b0180549293509091849081106123f757fe5b906000526020600020906002020160016002811061241157fe5b015460008981526010602090815260408083206001600160a01b038e1684526007019091528120600101549192509083116124b45760008981526010602090815260408083206001600160a01b038e1684526007019091529020600101546124899062015180906124839088906121e0565b90613084565b905080612494575060015b6124a8886124a283856130c6565b906130c6565b860195505050506124f3565b6124c56201518061248387866121e0565b9050806124d0575060015b91935083916124e3886124a283856130c6565b90950194505050600019016123a7565b50600085815260106020526040902060010154612514908390600a0a613084565b6000868152601060205260408120600301549193509061253f906305f5e100906124839088906130c6565b60008781526010602052604090206002015490915061256990612562908361311f565b849061311f565b979650505050505050565b60006125808383613179565b806116645750506001600160a01b039182166000908152600f602090815260408083209390941682526003909201909152205460ff1690565b60008034116125e3576001600160a01b0385166000908152600f60205260409020600101546125e5565b345b90506126256125f686868686612a2d565b60408051808201909152601081526f092dce6eaccccd2c6d2cadce8408aa8960831b6020820152839190612b81565b9050611fc28582612c18565b612643846001600160a01b0316612c99565b15611b0e5763f23a6e6160e01b6001600160e01b031916846001600160a01b031663f23a6e6188888787876040518663ffffffff1660e01b815260040180866001600160a01b03168152602001856001600160a01b0316815260200184815260200183815260200180602001828103825283818151815260200191508051906020019080838360005b838110156126e45781810151838201526020016126cc565b50505050905090810190601f1680156127115780820380516001836020036101000a031916815260200191505b509650505050505050602060405180830381600087803b15801561273457600080fd5b505af1158015612748573d6000803e3d6000fd5b505050506040513d602081101561275e57600080fd5b50516001600160e01b03191614611b0e5760405162461bcd60e51b81526004018080602001828103825260318152602001806135ff6031913960400191505060405180910390fd5b6001600160a01b0381166127eb5760405162461bcd60e51b81526004018080602001828103825260268152602001806134456026913960400191505060405180910390fd5b6003546040516001600160a01b038084169216907f8be0079c531659141344cd1fd0a4f28419497f9722a3daafe3b4186f6b6457e090600090a3600380546001600160a01b0319166001600160a01b0392909216919091179055565b600083815260106020526040812060080180546129e4929061286557fe5b600091825260208083209091015486835260108083526040808520805460018201548351606081018552600284015481526003840154818901528c895294909652600b90910180546001600160a01b03909516968a96929592948a9490939084019291906128cf57fe5b90600052602060002090600202016001600281106128e957fe5b0154905260008a8152601060209081526040918290206009018054835181840281018401909452808452909183018282801561294e57602002820191906000526020600020905b81546001600160a01b03168152600190910190602001808311612930575b50505060008d815260106020908152604091829020600a01805483518184028101840190945280845292945092508301828280156129ab57602002820191906000526020600020905b815481526020019060010190808311612997575b50505060008e8152601060205260409020600481015460069091015490925060ff600160a01b82041691506001600160a01b031661224c565b505050565b600060098260ff1611612a0357506030810160f81b610e59565b8160ff16600a11158015612a1b5750600f8260ff1611155b1561014a57506057810160f81b610e59565b6040805180820182526014815273496e73756666696369656e742062616c616e636560601b6020808301919091526000858152601082528381206001600160a01b038916825260070190915291822054612a88918490612b81565b60008481526010602090815260408083206001600160a01b038a168452600701909152902055612ab9848484612e74565b612ac485848461238c565b905060005b600084815260106020526040902060090154811015611dca576000848152601060205260408120600901805483908110612aff57fe5b6000918252602080832090910154878352601090915260408220600a0180546001600160a01b0390921693509084908110612b3657fe5b6000918252602090912001549050612b5461271061248386846130c6565b6001600160a01b039092166000908152600f60205260409020600190810180549093019092555001612ac9565b60008184841115612c105760405162461bcd60e51b81526004018080602001828103825283818151815260200191508051906020019080838360005b83811015612bd5578181015183820152602001612bbd565b50505050905090810190601f168015612c025780820380516001836020036101000a031916815260200191505b509250505060405180910390fd5b505050900390565b600034118015612c285750600081115b15612c74576001600160a01b0382166000908152600f6020526040902060010154612c53908261311f565b6001600160a01b0383166000908152600f6020526040902060010155611400565b34611400576001600160a01b03919091166000908152600f6020526040902060010155565b6000813f7fc5d2460186f7233c927e7db2dcc703c0e500b653ca82273b7bfad8045d85a470811580159061192f5750141592915050565b6000805b8551811015612d0057858181518110612ce957fe5b602002602001015182019150806001019050612cd4565b5060008651118015612d10575060015b8015612d1d575080612710145b8015612d2a575061271084105b612d6f576040805162461bcd60e51b8152602060048201526011602482015270496e76616c696420617267756d656e747360781b604482015290519081900360640190fd5b6000898152601060209081526040808320600581018c90558a516002808301919091558b840151600383015582518084018452428152928c015183850152600b909101805460018101825590855292909320612dcf93928302019161331d565b5060008981526010602090815260409091208751612df592600990920191890190613357565b5060008981526010602090815260409091208651612e1b92600a909201918801906133ab565b505060009788526010602052604090972060048101929092556006909101805460ff60a01b1916600160a01b92151592909202919091176001600160a01b0319166001600160a01b039096169590951790945550505050565b60008281526010602090815260408083206001600160a01b0387168452600701909152812054612ea4908361311f565b60008481526010602090815260408083206001600160a01b0389168452600701909152902054909150612fb35760008381526010602090815260408083206001600160a01b0388168452600701909152902060020154610100900460ff16612f82576001600160a01b0384166000818152600f60209081526040808320600290810180546001818101835591865284862001899055888552601084528285206008810180549283018155865284862090910180546001600160a01b031916871790559484526007909401909152902001805461ff0019166101001790555b60008381526010602090815260408083206001600160a01b0388168452600701909152902042600190910155613054565b60008381526010602090815260408083206001600160a01b0388168452600701909152812060010154612fe79042906121e0565b60008581526010602090815260408083206001600160a01b038a1684526007019091528120549192509061302190849061248390856130c6565b60008681526010602090815260408083206001600160a01b038b1684526007019091529020429190910360019091015550505b60009283526010602090815260408085206001600160a01b03909616855260079095019052929091209190915550565b600061166483836040518060400160405280601a81526020017f536166654d6174683a206469766973696f6e206279207a65726f000000000000815250613260565b6000826130d557506000610e11565b828202828482816130e257fe5b04146116645760405162461bcd60e51b81526004018080602001828103825260218152602001806135596021913960400191505060405180910390fd5b600082820183811015611664576040805162461bcd60e51b815260206004820152601b60248201527f536166654d6174683a206164646974696f6e206f766572666c6f770000000000604482015290519081900360640190fd5b6000805b600a811015613256576000600582600a811061319557fe5b01546001600160a01b03161461324e576000600582600a81106131b457fe5b01546040805163c455279160e01b81526001600160a01b0388811660048301529151928216935090861691839163c4552791916024808301926020929190829003018186803b15801561320657600080fd5b505afa15801561321a573d6000803e3d6000fd5b505050506040513d602081101561323057600080fd5b50516001600160a01b0316141561324c57600192505050610e11565b505b60010161317d565b5060009392505050565b600081836132af5760405162461bcd60e51b8152602060048201818152835160248401528351909283926044909101919085019080838360008315612bd5578181015183820152602001612bbd565b5060008385816132bb57fe5b0495945050505050565b82600a810192821561330d579160200282015b8281111561330d57825182546001600160a01b0319166001600160a01b039091161782556020909201916001909101906132d8565b506133199291506133e5565b5090565b826002810192821561334b579160200282015b8281111561334b578251825591602001919060010190613330565b50613319929150613404565b82805482825590600052602060002090810192821561330d579160200282018281111561330d57825182546001600160a01b0319166001600160a01b039091161782556020909201916001909101906132d8565b82805482825590600052602060002090810192821561334b579160200282018281111561334b578251825591602001919060010190613330565b5b808211156133195780546001600160a01b03191681556001016133e6565b5b80821115613319576000815560010161340556fe455243313135353a2062616c616e636520717565727920666f7220746865207a65726f20616464726573734f776e61626c653a206e6577206f776e657220697320746865207a65726f2061646472657373455243313135353a207461726765742061646472657373206d757374206265206e6f6e2d7a65726f455243313135353a2063616e6e6f742073657420617070726f76616c2073746174757320666f722073656c66455243313135353a206163636f756e747320616e6420494473206d75737420686176652073616d65206c656e67746873455243313135353a20676f7420756e6b6e6f776e2076616c75652066726f6d206f6e4552433131353542617463685265636569766564455243313135353a20736f6d65206164647265737320696e2062617463682062616c616e6365207175657279206973207a65726f536166654d6174683a206d756c7469706c69636174696f6e206f766572666c6f774f776e61626c653a2063616c6c6572206973206e6f7420746865206f776e6572455243313135353a206e656564206f70657261746f7220617070726f76616c20666f7220337264207061727479207472616e7366657273455243313135353a2049447320616e642076616c756573206d75737420686176652073616d65206c656e67746873455243313135353a20676f7420756e6b6e6f776e2076616c75652066726f6d206f6e455243313135355265636569766564a2646970667358221220fdb96b082085ef945eb5e9bd5d19951bac77e2da7fda8866ddb0e3b17067757064736f6c634300070100334f776e61626c653a206e6577206f776e657220697320746865207a65726f2061646472657373",
  "immutableReferences": {},
  "source": "// SPDX-License-Identifier: GPL-3.0-or-later\npragma solidity ^0.7.1;\n\nimport \"../utils/SafeMath.sol\";\nimport \"./MultiToken.sol\";\n\ncontract Mintable is MultiToken {\n\n    using SafeMath for uint256;\n\n\n    /****************************\n    MODIFIERS\n    *****************************/\n\n\n    modifier onlyTokenizer() {\n        require(_isTokenizer(_msgSender()), \"Insufficient permission\");\n        _;\n    }\n\n\n    /****************************\n    EXTERNAL FUNCTIONS\n    *****************************/\n\n\n    /**\n     * @dev Function to authorize an address to create a token.\n     * @param tokenizer The authorized address\n     */\n    function authorizeTokenizer(address tokenizer) external onlyOwner {\n        _users[tokenizer].isTokenizer = true;\n    }\n\n    /**\n     * @dev Function to revoke the authorization to create a token.\n     * @param tokenizer The authorized address\n     */\n    function revokeTokenizer(address tokenizer) external onlyOwner {\n        _users[tokenizer].isTokenizer = false;\n    }\n\n    /**\n     * @dev Function to check if an address is authorized to create a token.\n     * @param tokenizer The authorized address\n     */\n    function isTokenizer(address tokenizer) external view returns (bool) {\n        return _isTokenizer(tokenizer);\n    }\n\n    /**\n     * @dev Function to mint an amount of a token with the given ID.\n     * @param recipient The address that will own the minted tokens\n     * @param id ID of the token to be minted\n     * @param supply Amount of the token to be minted\n     * @param metadataHash Metadata file hash\n     * @param transactionFees transaction fees: [lumpSumFees (in WEI), valueProportionalFees (ratio of transfered amount * 10**8), storageFees (in storageCredit * 10**8)]\n     * @param feesRecipients list of addresses receiving transfer fees\n     * @param feesRecipientsPercentage list of percentage, each one for the corresponding feesRecipients\n     * @param minHoldingForCallback minimum holding to propose a callback\n     * @param isPrivate true if holder need approval\n     * @param legalAuthority address of the legal authority\n     */\n    function createToken(address recipient,\n                         uint256 id,\n                         uint256 supply,\n                         uint256 decimals,\n                         uint256 metadataHash,\n                         uint256[3] memory transactionFees,\n                         address[] memory feesRecipients,\n                         uint256[] memory feesRecipientsPercentage,\n                         uint256 minHoldingForCallback,\n                         bool isPrivate,\n                         address legalAuthority)\n    external onlyTokenizer {\n        _createToken(recipient,\n                     id,\n                     supply,\n                     decimals,\n                     metadataHash,\n                     transactionFees,\n                     feesRecipients,\n                     feesRecipientsPercentage,\n                     minHoldingForCallback,\n                     isPrivate,\n                     legalAuthority);\n        emit TransferSingle(_msgSender(), address(0), recipient, id, supply);\n    }\n\n    /**\n     * @dev Function to mint tokens in batch.\n     * @param id Identifier of the template\n     * @param ids list of IDs of the tokens to be minted\n     * @param metadataHashes list of metadata file hashes\n     */\n    function cloneToken(uint256 id,\n                        uint256[] memory ids,\n                        uint256[] memory metadataHashes)\n    external onlyTokenizer {\n        require(_tokens[id].supply > 0 &&\n                ids.length == metadataHashes.length, \"Invalid arguments\");\n\n        for (uint256 i = 0; i < ids.length; ++i) {\n            _cloneToken(id, ids[i], metadataHashes[i]);\n\n            emit TransferSingle(_msgSender(),\n                                address(0),\n                                _tokens[id].holderList[0],\n                                ids[i],\n                                _tokens[id].supply);\n        }\n    }\n\n\n    /****************************\n    INTERNAL FUNCTIONS\n    *****************************/\n\n\n    function _isTokenizer(address tokenizer) internal view returns (bool) {\n        return _users[tokenizer].isTokenizer || _isOwner();\n    }\n\n    function _setToken(uint256 id,\n                       uint256 metadataHash,\n                       uint256[3] memory transactionFees,\n                       address[] memory feesRecipients,\n                       uint256[] memory feesRecipientsPercentage,\n                       uint256 minHoldingForCallback,\n                       bool isPrivate,\n                       address legalAuthority)\n    internal {\n        uint256 totalPercentage = 0;\n        for (uint256 i = 0; i < feesRecipientsPercentage.length; ++i)\n            totalPercentage += feesRecipientsPercentage[i];\n\n        require(feesRecipients.length > 0 && feesRecipients.length == feesRecipients.length &&\n                totalPercentage == 10000 &&\n                minHoldingForCallback < 10000,\n                \"Invalid arguments\");\n\n        _tokens[id].metadataHash = metadataHash;\n        _tokens[id].lumpSumTransactionFees = transactionFees[0];\n        _tokens[id].valueTransactionFees = transactionFees[1];\n        _tokens[id].storageCostHistory.push([block.timestamp, transactionFees[2]]);\n        _tokens[id].feesRecipients = feesRecipients;\n        _tokens[id].feesRecipientsPercentage = feesRecipientsPercentage;\n        _tokens[id].minHoldingForCallback = minHoldingForCallback;\n        _tokens[id].isPrivate = isPrivate;\n        _tokens[id].legalAuthority = legalAuthority;\n    }\n\n\n    function _createToken(address recipient,\n                          uint256 id,\n                          uint256 supply,\n                          uint256 decimals,\n                          uint256 metadataHash,\n                          uint256[3] memory transactionFees,\n                          address[] memory feesRecipients,\n                          uint256[] memory feesRecipientsPercentage,\n                          uint256 minHoldingForCallback,\n                          bool isPrivate,\n                          address legalAuthority)\n    internal {\n        require(_tokens[id].supply == 0 && supply > 0, \"Invalid arguments\");\n\n        _tokens[id].supply = supply;\n        _tokens[id].decimals = decimals;\n        _tokens[id].holders[_msgSender()].isMaintener = true;\n        _tokens[id].holders[recipient].isApproved = true;\n\n        _setToken(id,\n                  metadataHash,\n                  transactionFees,\n                  feesRecipients,\n                  feesRecipientsPercentage,\n                  minHoldingForCallback,\n                  isPrivate,\n                  legalAuthority);\n\n        _addToBalance(recipient, id, supply);\n    }\n\n    function _cloneToken(uint256 id, uint256 cloneId, uint256 metadataHash) internal {\n        _createToken(_tokens[id].holderList[0],\n                     cloneId,\n                     _tokens[id].supply,\n                     _tokens[id].decimals,\n                     metadataHash,\n                     [\n                       _tokens[id].lumpSumTransactionFees,\n                       _tokens[id].valueTransactionFees,\n                       _tokens[id].storageCostHistory[0][1]\n                     ],\n                     _tokens[id].feesRecipients,\n                     _tokens[id].feesRecipientsPercentage,\n                     _tokens[id].minHoldingForCallback,\n                     _tokens[id].isPrivate,\n                     _tokens[id].legalAuthority);\n    }\n\n}\n",
  "sourcePath": "/home/ouziel/Work/StashBloxContracts/contracts/lib/Mintable.sol",
  "compiler": {
    "name": "solc",
    "version": "0.7.1+commit.f4a555be.Emscripten.clang"
  },
  "schemaVersion": "3.2.3",
  "updatedAt": "2020-10-22T09:44:00.942Z",
  "devdoc": {
    "kind": "dev",
    "methods": {
      "authorizeTokenizer(address)": {
        "details": "Function to authorize an address to create a token.",
        "params": {
          "tokenizer": "The authorized address"
        }
      },
      "averageAge(address,uint256)": {
        "details": "Function to get the average age of the token for the given address.",
        "params": {
          "account": "the address from where to transfer the tokens",
          "id": "The token ID"
        },
        "returns": {
          "_0": "average age in seconds"
        }
      },
      "balanceOf(address,uint256)": {
        "details": "Get the specified address' balance for token with specified ID. Attempting to query the zero account for a balance will result in a revert.",
        "params": {
          "account": "The address of the token holder",
          "id": "ID of the token"
        },
        "returns": {
          "_0": "The account's balance of the token type requested"
        }
      },
      "balanceOfBatch(address[],uint256[])": {
        "details": "Get the balance of multiple account/token pairs. If any of the query accounts is the zero account, this query will revert.",
        "params": {
          "accounts": "The addresses of the token holders",
          "ids": "IDs of the tokens"
        },
        "returns": {
          "_0": "Balances for each account and token id pair"
        }
      },
      "cloneToken(uint256,uint256[],uint256[])": {
        "details": "Function to mint tokens in batch.",
        "params": {
          "id": "Identifier of the template",
          "ids": "list of IDs of the tokens to be minted",
          "metadataHashes": "list of metadata file hashes"
        }
      },
      "createToken(address,uint256,uint256,uint256,uint256,uint256[3],address[],uint256[],uint256,bool,address)": {
        "details": "Function to mint an amount of a token with the given ID.",
        "params": {
          "feesRecipients": "list of addresses receiving transfer fees",
          "feesRecipientsPercentage": "list of percentage, each one for the corresponding feesRecipients",
          "id": "ID of the token to be minted",
          "isPrivate": "true if holder need approval",
          "legalAuthority": "address of the legal authority",
          "metadataHash": "Metadata file hash",
          "minHoldingForCallback": "minimum holding to propose a callback",
          "recipient": "The address that will own the minted tokens",
          "supply": "Amount of the token to be minted",
          "transactionFees": "transaction fees: [lumpSumFees (in WEI), valueProportionalFees (ratio of transfered amount * 10**8), storageFees (in storageCredit * 10**8)]"
        }
      },
      "isApprovedForAll(address,address)": {
        "params": {
          "account": "The account of the Tokens",
          "operator": "Address of authorized operator"
        },
        "returns": {
          "_0": "True if the operator is approved, false if not"
        }
      },
      "isTokenizer(address)": {
        "details": "Function to check if an address is authorized to create a token.",
        "params": {
          "tokenizer": "The authorized address"
        }
      },
      "owner()": {
        "details": "Returns the address of the current owner."
      },
      "revokeTokenizer(address)": {
        "details": "Function to revoke the authorization to create a token.",
        "params": {
          "tokenizer": "The authorized address"
        }
      },
      "safeBatchTransferFrom(address,address,uint256[],uint256[],bytes)": {
        "details": "Transfers `values` amount(s) of `ids` from the `from` address to the `to` address specified. Caller must be approved to manage the tokens being transferred out of the `from` account. If `to` is a smart contract, will call `onERC1155BatchReceived` on `to` and act appropriately.",
        "params": {
          "data": "Data forwarded to `onERC1155Received` if `to` is a contract receiver",
          "from": "Source address",
          "ids": "IDs of each token type",
          "to": "Target address",
          "values": "Transfer amounts per token type"
        }
      },
      "safeTransferFrom(address,address,uint256,uint256,bytes)": {
        "details": "Transfers `value` amount of an `id` from the `from` address to the `to` address specified. Caller must be approved to manage the tokens being transferred out of the `from` account. If `to` is a smart contract, will call `onERC1155Received` on `to` and act appropriately.",
        "params": {
          "data": "Data forwarded to `onERC1155Received` if `to` is a contract receiver",
          "from": "Source address",
          "id": "ID of the token type",
          "to": "Target address",
          "value": "Transfer amount"
        }
      },
      "setApprovalForAll(address,bool)": {
        "details": "Sets or unsets the approval of a given operator. An operator is allowed to transfer all tokens of the sender on their behalf. Because an account already has operator privileges for itself, this function will revert if the account attempts to set the approval status for itself.",
        "params": {
          "approved": "representing the status of the approval to be set",
          "operator": "address to set the approval"
        }
      },
      "setProxyRegistryAddress(address[10])": {
        "details": "Function to update the operator whitelist",
        "params": {
          "proxyAddresses": "List of addresses"
        }
      },
      "supportsInterface(bytes4)": {
        "params": {
          "_interfaceID": "The interface identifier, as specified in ERC-165"
        },
        "returns": {
          "_0": "`true` if the contract implements `_interfaceID` and"
        }
      },
      "transactionFees(address,uint256,uint256)": {
        "details": "Function to get the transaction price to transfer tokens.",
        "params": {
          "account": "the address from where to transfer the tokens",
          "id": "The token ID",
          "value": "The amount to transfer"
        },
        "returns": {
          "_0": "transfer price"
        }
      },
      "transferOwnership(address)": {
        "details": "Transfers ownership of the contract to a new account (`newOwner`). Can only be called by the current owner."
      },
      "uri(uint256)": {
        "params": {
          "id": "Token ID"
        },
        "returns": {
          "_0": "URI string"
        }
      }
    },
    "version": 1
  },
  "userdoc": {
    "kind": "user",
    "methods": {
      "isApprovedForAll(address,address)": {
        "notice": "Queries the approval status of an operator for a given account."
      },
      "isTrustedForwarder(address)": {
        "notice": "return if the forwarder is trusted to forward relayed transactions to us. the forwarder is required to verify the sender's signature, and verify the call is not a replay."
      },
      "supportsInterface(bytes4)": {
        "notice": "Query if a contract implements an interface"
      }
    },
    "version": 1
  }
}