{
  "contractName": "Mintable",
  "abi": [
    {
      "anonymous": false,
      "inputs": [
        {
          "indexed": true,
          "internalType": "address",
          "name": "_owner",
          "type": "address"
        },
        {
          "indexed": true,
          "internalType": "address",
          "name": "_operator",
          "type": "address"
        },
        {
          "indexed": false,
          "internalType": "bool",
          "name": "_approved",
          "type": "bool"
        }
      ],
      "name": "ApprovalForAll",
      "type": "event"
    },
    {
      "anonymous": false,
      "inputs": [
        {
          "indexed": true,
          "internalType": "address",
          "name": "previousOwner",
          "type": "address"
        },
        {
          "indexed": true,
          "internalType": "address",
          "name": "newOwner",
          "type": "address"
        }
      ],
      "name": "OwnershipTransferred",
      "type": "event"
    },
    {
      "anonymous": false,
      "inputs": [
        {
          "indexed": true,
          "internalType": "address",
          "name": "_operator",
          "type": "address"
        },
        {
          "indexed": true,
          "internalType": "address",
          "name": "_from",
          "type": "address"
        },
        {
          "indexed": true,
          "internalType": "address",
          "name": "_to",
          "type": "address"
        },
        {
          "indexed": false,
          "internalType": "uint256[]",
          "name": "_ids",
          "type": "uint256[]"
        },
        {
          "indexed": false,
          "internalType": "uint256[]",
          "name": "_values",
          "type": "uint256[]"
        }
      ],
      "name": "TransferBatch",
      "type": "event"
    },
    {
      "anonymous": false,
      "inputs": [
        {
          "indexed": true,
          "internalType": "address",
          "name": "_operator",
          "type": "address"
        },
        {
          "indexed": true,
          "internalType": "address",
          "name": "_from",
          "type": "address"
        },
        {
          "indexed": true,
          "internalType": "address",
          "name": "_to",
          "type": "address"
        },
        {
          "indexed": false,
          "internalType": "uint256",
          "name": "_id",
          "type": "uint256"
        },
        {
          "indexed": false,
          "internalType": "uint256",
          "name": "_value",
          "type": "uint256"
        }
      ],
      "name": "TransferSingle",
      "type": "event"
    },
    {
      "anonymous": false,
      "inputs": [
        {
          "indexed": false,
          "internalType": "string",
          "name": "_value",
          "type": "string"
        },
        {
          "indexed": true,
          "internalType": "uint256",
          "name": "_id",
          "type": "uint256"
        }
      ],
      "name": "URI",
      "type": "event"
    },
    {
      "inputs": [
        {
          "internalType": "uint256",
          "name": "",
          "type": "uint256"
        }
      ],
      "name": "_callbacks",
      "outputs": [
        {
          "internalType": "uint256",
          "name": "tokenId",
          "type": "uint256"
        },
        {
          "internalType": "uint256",
          "name": "price",
          "type": "uint256"
        },
        {
          "internalType": "uint256",
          "name": "escrowedAmount",
          "type": "uint256"
        },
        {
          "internalType": "uint256",
          "name": "callCounter",
          "type": "uint256"
        },
        {
          "internalType": "uint256",
          "name": "documentHash",
          "type": "uint256"
        },
        {
          "internalType": "address",
          "name": "caller",
          "type": "address"
        },
        {
          "internalType": "bool",
          "name": "needLegalApproval",
          "type": "bool"
        },
        {
          "internalType": "bool",
          "name": "approvedByLegal",
          "type": "bool"
        },
        {
          "internalType": "bool",
          "name": "refused",
          "type": "bool"
        },
        {
          "internalType": "bool",
          "name": "accepted",
          "type": "bool"
        },
        {
          "internalType": "bool",
          "name": "completed",
          "type": "bool"
        }
      ],
      "stateMutability": "view",
      "type": "function"
    },
    {
      "inputs": [],
      "name": "_config",
      "outputs": [
        {
          "internalType": "uint256",
          "name": "callbackAutoExecuteMaxAddresses",
          "type": "uint256"
        },
        {
          "internalType": "string",
          "name": "baseURI",
          "type": "string"
        }
      ],
      "stateMutability": "view",
      "type": "function"
    },
    {
      "inputs": [
        {
          "internalType": "uint256",
          "name": "",
          "type": "uint256"
        }
      ],
      "name": "_tokens",
      "outputs": [
        {
          "internalType": "uint256",
          "name": "supply",
          "type": "uint256"
        },
        {
          "internalType": "uint256",
          "name": "decimals",
          "type": "uint256"
        },
        {
          "internalType": "uint256",
          "name": "lumpSumTransactionFees",
          "type": "uint256"
        },
        {
          "internalType": "uint256",
          "name": "valueTransactionFees",
          "type": "uint256"
        },
        {
          "internalType": "uint256",
          "name": "minHoldingForCallback",
          "type": "uint256"
        },
        {
          "internalType": "uint256",
          "name": "metadataHash",
          "type": "uint256"
        },
        {
          "internalType": "address",
          "name": "legalAuthority",
          "type": "address"
        },
        {
          "internalType": "bool",
          "name": "isPrivate",
          "type": "bool"
        },
        {
          "internalType": "bool",
          "name": "locked",
          "type": "bool"
        }
      ],
      "stateMutability": "view",
      "type": "function"
    },
    {
      "inputs": [
        {
          "internalType": "address",
          "name": "",
          "type": "address"
        }
      ],
      "name": "_users",
      "outputs": [
        {
          "internalType": "bool",
          "name": "isTokenizer",
          "type": "bool"
        },
        {
          "internalType": "bool",
          "name": "isLocked",
          "type": "bool"
        },
        {
          "internalType": "uint256",
          "name": "ETHBalance",
          "type": "uint256"
        }
      ],
      "stateMutability": "view",
      "type": "function"
    },
    {
      "inputs": [
        {
          "internalType": "address",
          "name": "account",
          "type": "address"
        },
        {
          "internalType": "uint256",
          "name": "id",
          "type": "uint256"
        }
      ],
      "name": "averageAge",
      "outputs": [
        {
          "internalType": "uint256",
          "name": "",
          "type": "uint256"
        }
      ],
      "stateMutability": "view",
      "type": "function"
    },
    {
      "inputs": [
        {
          "internalType": "address",
          "name": "account",
          "type": "address"
        },
        {
          "internalType": "uint256",
          "name": "id",
          "type": "uint256"
        }
      ],
      "name": "balanceOf",
      "outputs": [
        {
          "internalType": "uint256",
          "name": "",
          "type": "uint256"
        }
      ],
      "stateMutability": "view",
      "type": "function"
    },
    {
      "inputs": [
        {
          "internalType": "address[]",
          "name": "accounts",
          "type": "address[]"
        },
        {
          "internalType": "uint256[]",
          "name": "ids",
          "type": "uint256[]"
        }
      ],
      "name": "balanceOfBatch",
      "outputs": [
        {
          "internalType": "uint256[]",
          "name": "",
          "type": "uint256[]"
        }
      ],
      "stateMutability": "view",
      "type": "function"
    },
    {
      "inputs": [
        {
          "internalType": "address",
          "name": "account",
          "type": "address"
        },
        {
          "internalType": "address",
          "name": "operator",
          "type": "address"
        }
      ],
      "name": "isApprovedForAll",
      "outputs": [
        {
          "internalType": "bool",
          "name": "",
          "type": "bool"
        }
      ],
      "stateMutability": "view",
      "type": "function"
    },
    {
      "inputs": [],
      "name": "owner",
      "outputs": [
        {
          "internalType": "address",
          "name": "",
          "type": "address"
        }
      ],
      "stateMutability": "view",
      "type": "function"
    },
    {
      "inputs": [
        {
          "internalType": "address",
          "name": "from",
          "type": "address"
        },
        {
          "internalType": "address",
          "name": "to",
          "type": "address"
        },
        {
          "internalType": "uint256[]",
          "name": "ids",
          "type": "uint256[]"
        },
        {
          "internalType": "uint256[]",
          "name": "values",
          "type": "uint256[]"
        },
        {
          "internalType": "bytes",
          "name": "data",
          "type": "bytes"
        }
      ],
      "name": "safeBatchTransferFrom",
      "outputs": [],
      "stateMutability": "payable",
      "type": "function"
    },
    {
      "inputs": [
        {
          "internalType": "address",
          "name": "from",
          "type": "address"
        },
        {
          "internalType": "address",
          "name": "to",
          "type": "address"
        },
        {
          "internalType": "uint256",
          "name": "id",
          "type": "uint256"
        },
        {
          "internalType": "uint256",
          "name": "value",
          "type": "uint256"
        },
        {
          "internalType": "bytes",
          "name": "data",
          "type": "bytes"
        }
      ],
      "name": "safeTransferFrom",
      "outputs": [],
      "stateMutability": "payable",
      "type": "function"
    },
    {
      "inputs": [
        {
          "internalType": "address",
          "name": "operator",
          "type": "address"
        },
        {
          "internalType": "bool",
          "name": "approved",
          "type": "bool"
        }
      ],
      "name": "setApprovalForAll",
      "outputs": [],
      "stateMutability": "nonpayable",
      "type": "function"
    },
    {
      "inputs": [
        {
          "internalType": "address[10]",
          "name": "proxyAddresses",
          "type": "address[10]"
        }
      ],
      "name": "setProxyRegistryAddress",
      "outputs": [],
      "stateMutability": "nonpayable",
      "type": "function"
    },
    {
      "inputs": [
        {
          "internalType": "bytes4",
          "name": "_interfaceID",
          "type": "bytes4"
        }
      ],
      "name": "supportsInterface",
      "outputs": [
        {
          "internalType": "bool",
          "name": "",
          "type": "bool"
        }
      ],
      "stateMutability": "pure",
      "type": "function"
    },
    {
      "inputs": [
        {
          "internalType": "address",
          "name": "account",
          "type": "address"
        },
        {
          "internalType": "uint256",
          "name": "id",
          "type": "uint256"
        },
        {
          "internalType": "uint256",
          "name": "value",
          "type": "uint256"
        }
      ],
      "name": "transactionFees",
      "outputs": [
        {
          "internalType": "uint256",
          "name": "",
          "type": "uint256"
        }
      ],
      "stateMutability": "view",
      "type": "function"
    },
    {
      "inputs": [
        {
          "internalType": "address",
          "name": "newOwner",
          "type": "address"
        }
      ],
      "name": "transferOwnership",
      "outputs": [],
      "stateMutability": "nonpayable",
      "type": "function"
    },
    {
      "inputs": [
        {
          "internalType": "address",
          "name": "tokenizer",
          "type": "address"
        }
      ],
      "name": "authorizeTokenizer",
      "outputs": [],
      "stateMutability": "nonpayable",
      "type": "function"
    },
    {
      "inputs": [
        {
          "internalType": "address",
          "name": "tokenizer",
          "type": "address"
        }
      ],
      "name": "revokeTokenizer",
      "outputs": [],
      "stateMutability": "nonpayable",
      "type": "function"
    },
    {
      "inputs": [
        {
          "internalType": "address",
          "name": "tokenizer",
          "type": "address"
        }
      ],
      "name": "isTokenizer",
      "outputs": [
        {
          "internalType": "bool",
          "name": "",
          "type": "bool"
        }
      ],
      "stateMutability": "view",
      "type": "function"
    },
    {
      "inputs": [
        {
          "internalType": "address",
          "name": "recipient",
          "type": "address"
        },
        {
          "internalType": "uint256",
          "name": "id",
          "type": "uint256"
        },
        {
          "internalType": "uint256",
          "name": "supply",
          "type": "uint256"
        },
        {
          "internalType": "uint256",
          "name": "decimals",
          "type": "uint256"
        },
        {
          "internalType": "uint256",
          "name": "metadataHash",
          "type": "uint256"
        },
        {
          "internalType": "uint256[3]",
          "name": "transactionFees",
          "type": "uint256[3]"
        },
        {
          "internalType": "address[]",
          "name": "feesRecipients",
          "type": "address[]"
        },
        {
          "internalType": "uint256[]",
          "name": "feesRecipientsPercentage",
          "type": "uint256[]"
        },
        {
          "internalType": "uint256",
          "name": "minHoldingForCallback",
          "type": "uint256"
        },
        {
          "internalType": "bool",
          "name": "isPrivate",
          "type": "bool"
        },
        {
          "internalType": "address",
          "name": "legalAuthority",
          "type": "address"
        }
      ],
      "name": "createToken",
      "outputs": [],
      "stateMutability": "nonpayable",
      "type": "function"
    },
    {
      "inputs": [
        {
          "internalType": "uint256",
          "name": "id",
          "type": "uint256"
        },
        {
          "internalType": "uint256[]",
          "name": "ids",
          "type": "uint256[]"
        },
        {
          "internalType": "uint256[]",
          "name": "metadataHashes",
          "type": "uint256[]"
        }
      ],
      "name": "cloneToken",
      "outputs": [],
      "stateMutability": "nonpayable",
      "type": "function"
    }
  ],
  "bytecode": "0x60806040523480156200001157600080fd5b506200001d3362000023565b620000e0565b6001600160a01b03811662000084576040517f08c379a0000000000000000000000000000000000000000000000000000000008152600401808060200182810382526026815260200180620030ed6026913960400191505060405180910390fd5b600f546040516001600160a01b038084169216907f8be0079c531659141344cd1fd0a4f28419497f9722a3daafe3b4186f6b6457e090600090a3600f80546001600160a01b0319166001600160a01b0392909216919091179055565b612ffd80620000f06000396000f3fe6080604052600436106101295760003560e01c80638870147b116100ab578063d1660e181161006f578063d1660e181461091f578063e985e9c51461095e578063ed70554d14610999578063f242432a14610a17578063f2fde38b14610aaa578063f8a5a07c14610add57610129565b80638870147b146106b05780638da5cb5b146106e3578063a22cb46514610714578063c02f303c1461074f578063c40b87ae1461078257610129565b8063414ed0ce116100f2578063414ed0ce146103d15780634392e577146104635780634e1273f4146104c4578063585941d5146106445780637627b7321461067d57610129565b8062fdd58e1461012e57806301ffc9a7146101795780632eb2c2d6146101c15780632ed42bf7146102ea5780633cacd7d61461037e575b600080fd5b34801561013a57600080fd5b506101676004803603604081101561015157600080fd5b506001600160a01b038135169060200135610c14565b60408051918252519081900360200190f35b34801561018557600080fd5b506101ad6004803603602081101561019c57600080fd5b50356001600160e01b031916610c89565b604080519115158252519081900360200190f35b6102e8600480360360a08110156101d757600080fd5b6001600160a01b038235811692602081013590911691810190606081016040820135600160201b81111561020a57600080fd5b82018360208201111561021c57600080fd5b803590602001918460208302840111600160201b8311171561023d57600080fd5b919390929091602081019035600160201b81111561025a57600080fd5b82018360208201111561026c57600080fd5b803590602001918460208302840111600160201b8311171561028d57600080fd5b919390929091602081019035600160201b8111156102aa57600080fd5b8201836020820111156102bc57600080fd5b803590602001918460018302840111600160201b831117156102dd57600080fd5b509092509050610cd0565b005b3480156102f657600080fd5b506102ff610f7e565b6040518083815260200180602001828103825283818151815260200191508051906020019080838360005b8381101561034257818101518382015260200161032a565b50505050905090810190601f16801561036f5780820380516001836020036101000a031916815260200191505b50935050505060405180910390f35b34801561038a57600080fd5b506103b1600480360360208110156103a157600080fd5b50356001600160a01b0316611014565b604080519315158452911515602084015282820152519081900360600190f35b3480156103dd57600080fd5b506103fb600480360360208110156103f457600080fd5b503561103a565b604080519b8c5260208c019a909a528a8a019890985260608a019690965260808901949094526001600160a01b0390921660a0880152151560c0870152151560e086015215156101008501521515610120840152151561014083015251908190036101600190f35b34801561046f57600080fd5b506102e8600480360361014081101561048757600080fd5b81019080806101400190600a806020026040519081016040528092919082600a602002808284376000920191909152509194506110ad9350505050565b3480156104d057600080fd5b506105f4600480360360408110156104e757600080fd5b810190602081018135600160201b81111561050157600080fd5b82018360208201111561051357600080fd5b803590602001918460208302840111600160201b8311171561053457600080fd5b9190808060200260200160405190810160405280939291908181526020018383602002808284376000920191909152509295949360208101935035915050600160201b81111561058357600080fd5b82018360208201111561059557600080fd5b803590602001918460208302840111600160201b831117156105b657600080fd5b919080806020026020016040519081016040528093929190818152602001838360200280828437600092019190915250929550611105945050505050565b60408051602080825283518183015283519192839290830191858101910280838360005b83811015610630578181015183820152602001610618565b505050509050019250505060405180910390f35b34801561065057600080fd5b506101676004803603604081101561066757600080fd5b506001600160a01b038135169060200135611289565b34801561068957600080fd5b506102e8600480360360208110156106a057600080fd5b50356001600160a01b03166112c4565b3480156106bc57600080fd5b506102e8600480360360208110156106d357600080fd5b50356001600160a01b031661132f565b3480156106ef57600080fd5b506106f8611397565b604080516001600160a01b039092168252519081900360200190f35b34801561072057600080fd5b506102e86004803603604081101561073757600080fd5b506001600160a01b03813516906020013515156113a6565b34801561075b57600080fd5b506101ad6004803603602081101561077257600080fd5b50356001600160a01b031661145c565b34801561078e57600080fd5b506102e860048036036101a08110156107a657600080fd5b60408051606081810183526001600160a01b03853516946020810135949381013593828201359360808301359391830192916101008301919060a0840190600390839083908082843760009201919091525091949392602081019250359050600160201b81111561081657600080fd5b82018360208201111561082857600080fd5b803590602001918460208302840111600160201b8311171561084957600080fd5b9190808060200260200160405190810160405280939291908181526020018383602002808284376000920191909152509295949360208101935035915050600160201b81111561089857600080fd5b8201836020820111156108aa57600080fd5b803590602001918460208302840111600160201b831117156108cb57600080fd5b919080806020026020016040519081016040528093929190818152602001838360200280828437600092019190915250929550508235935050506020810135151590604001356001600160a01b0316611467565b34801561092b57600080fd5b506101676004803603606081101561094257600080fd5b506001600160a01b038135169060208101359060400135611526565b34801561096a57600080fd5b506101ad6004803603604081101561098157600080fd5b506001600160a01b038135811691602001351661153b565b3480156109a557600080fd5b506109c3600480360360208110156109bc57600080fd5b503561157c565b60408051998a5260208a0198909852888801969096526060880194909452608087019290925260a08601526001600160a01b031660c0850152151560e0840152151561010083015251908190036101200190f35b6102e8600480360360a0811015610a2d57600080fd5b6001600160a01b03823581169260208101359091169160408201359160608101359181019060a081016080820135600160201b811115610a6c57600080fd5b820183602082011115610a7e57600080fd5b803590602001918460018302840111600160201b83111715610a9f57600080fd5b5090925090506115d8565b348015610ab657600080fd5b506102e860048036036020811015610acd57600080fd5b50356001600160a01b031661172f565b348015610ae957600080fd5b506102e860048036036060811015610b0057600080fd5b81359190810190604081016020820135600160201b811115610b2157600080fd5b820183602082011115610b3357600080fd5b803590602001918460208302840111600160201b83111715610b5457600080fd5b9190808060200260200160405190810160405280939291908181526020018383602002808284376000920191909152509295949360208101935035915050600160201b811115610ba357600080fd5b820183602082011115610bb557600080fd5b803590602001918460208302840111600160201b83111715610bd657600080fd5b919080806020026020016040519081016040528093929190818152602001838360200280828437600092019190915250929550611782945050505050565b60006001600160a01b038316610c5b5760405162461bcd60e51b815260040180806020018281038252602b815260200180612db2602b913960400191505060405180910390fd5b506000818152600d602090815260408083206001600160a01b03861684526007019091529020545b92915050565b60006001600160e01b031982166301ffc9a760e01b1480610cba57506001600160e01b03198216636cdb3d1360e11b145b15610cc757506001610ccb565b5060005b919050565b848314610d0e5760405162461bcd60e51b815260040180806020018281038252602e815260200180612f69602e913960400191505060405180910390fd5b6001600160a01b038716610d535760405162461bcd60e51b8152600401808060200182810382526028815260200180612e036028913960400191505060405180910390fd5b6001600160a01b038816331480610d755750610d6f883361153b565b15156001145b610db05760405162461bcd60e51b8152600401808060200182810382526037815260200180612f326037913960400191505060405180910390fd5b610e1f888888888080602002602001604051908101604052809392919081815260200183836020028082843760009201919091525050604080516020808c0282810182019093528b82529093508b92508a91829185019084908082843760009201919091525061192592505050565b866001600160a01b0316886001600160a01b0316336001600160a01b03167f4a39dc06d4c0dbc64b70af90fd698a233a518aa5d07e595d983b8c0526c8f7fb898989896040518080602001806020018381038352878782818152602001925060200280828437600083820152601f01601f19169091018481038352858152602090810191508690860280828437600083820152604051601f909101601f19169092018290039850909650505050505050a4610f7433898989898080602002602001604051908101604052809392919081815260200183836020028082843760009201919091525050604080516020808d0282810182019093528c82529093508c92508b91829185019084908082843760009201919091525050604080516020601f8c018190048102820181019092528a815292508a91508990819084018382808284376000920191909152506119df92505050565b5050505050505050565b6000805460018054604080516020600284861615610100026000190190941693909304601f8101849004840282018401909252818152939493929183018282801561100a5780601f10610fdf5761010080835404028352916020019161100a565b820191906000526020600020905b815481529060010190602001808311610fed57829003601f168201915b5050505050905082565b600c602052600090815260409020805460019091015460ff808316926101009004169083565b600e6020526000908152604090208054600182015460028301546003840154600485015460059095015493949293919290916001600160a01b0381169060ff600160a01b8204811691600160a81b8104821691600160b01b8204811691600160b81b8104821691600160c01b909104168b565b6110b5611bd0565b6110f4576040805162461bcd60e51b81526020600482018190526024820152600080516020612f12833981519152604482015290519081900360640190fd5b611101600282600a612c5d565b5050565b606081518351146111475760405162461bcd60e51b8152600401808060200182810382526030815260200180612e576030913960400191505060405180910390fd5b6060835167ffffffffffffffff8111801561116157600080fd5b5060405190808252806020026020018201604052801561118b578160200160208202803683370190505b50905060005b84518110156112815760006001600160a01b03168582815181106111b157fe5b60200260200101516001600160a01b031614156111ff5760405162461bcd60e51b8152600401808060200182810382526034815260200180612ebd6034913960400191505060405180910390fd5b600d600085838151811061120f57fe5b60200260200101518152602001908152602001600020600701600086838151811061123657fe5b60200260200101516001600160a01b03166001600160a01b031681526020019081526020016000206000015482828151811061126e57fe5b6020908102919091010152600101611191565b509392505050565b6000818152600d602090815260408083206001600160a01b03861684526007019091528120600101546112bd904290611be1565b9392505050565b6112cc611bd0565b61130b576040805162461bcd60e51b81526020600482018190526024820152600080516020612f12833981519152604482015290519081900360640190fd5b6001600160a01b03166000908152600c60205260409020805460ff19166001179055565b611337611bd0565b611376576040805162461bcd60e51b81526020600482018190526024820152600080516020612f12833981519152604482015290519081900360640190fd5b6001600160a01b03166000908152600c60205260409020805460ff19169055565b600f546001600160a01b031690565b336001600160a01b03831614156113ee5760405162461bcd60e51b815260040180806020018281038252602c815260200180612e2b602c913960400191505060405180910390fd5b3360008181526010602090815260408083206001600160a01b03871680855290835292819020805460ff1916861515908117909155815190815290519293927f17307eab39ab6107e8899845ad3d59bd9653f200f220920489ca2b5937696c31929181900390910190a35050565b6000610c8382611c23565b61147033611c23565b6114bb576040805162461bcd60e51b815260206004820152601760248201527624b739bab33334b1b4b2b73a103832b936b4b9b9b4b7b760491b604482015290519081900360640190fd5b6114ce8b8b8b8b8b8b8b8b8b8b8b611c4d565b604080518b8152602081018b905281516001600160a01b038e169260009233927fc3d58168c5ae7397731d063d5bbf3d657854427343f4c083240f7aacaa2d0f62929181900390910190a45050505050505050505050565b6000611533848484611db6565b949350505050565b60006115478383611f9e565b806112bd5750506001600160a01b03918216600090815260106020908152604080832093909416825291909152205460ff1690565b600d60205260009081526040902080546001820154600283015460038401546004850154600586015460069096015494959394929391929091906001600160a01b0381169060ff600160a01b8204811691600160a81b90041689565b6001600160a01b03851661161d5760405162461bcd60e51b8152600401808060200182810382526028815260200180612e036028913960400191505060405180910390fd5b6001600160a01b03861633148061163f5750611639863361153b565b15156001145b61167a5760405162461bcd60e51b8152600401808060200182810382526037815260200180612f326037913960400191505060405180910390fd5b61168686868686612085565b846001600160a01b0316866001600160a01b0316336001600160a01b03167fc3d58168c5ae7397731d063d5bbf3d657854427343f4c083240f7aacaa2d0f628787604051808381526020018281526020019250505060405180910390a4611727338787878787878080601f0160208091040260200160405190810160405280939291908181526020018383808284376000920191909152506120fd92505050565b505050505050565b611737611bd0565b611776576040805162461bcd60e51b81526020600482018190526024820152600080516020612f12833981519152604482015290519081900360640190fd5b61177f81612272565b50565b61178b33611c23565b6117d6576040805162461bcd60e51b815260206004820152601760248201527624b739bab33334b1b4b2b73a103832b936b4b9b9b4b7b760491b604482015290519081900360640190fd5b6000838152600d6020526040902054158015906117f4575080518251145b611839576040805162461bcd60e51b8152602060048201526011602482015270496e76616c696420617267756d656e747360781b604482015290519081900360640190fd5b60005b825181101561191f576118768484838151811061185557fe5b602002602001015184848151811061186957fe5b6020026020010151612313565b6000848152600d60205260408120600801805490919061189257fe5b600091825260208220015484516001600160a01b03909116919033907fc3d58168c5ae7397731d063d5bbf3d657854427343f4c083240f7aacaa2d0f62908790869081106118dc57fe5b6020026020010151600d60008a815260200190815260200160002060000154604051808381526020018281526020019250505060405180910390a460010161183c565b50505050565b600080341161194f576001600160a01b0385166000908152600c6020526040902060010154611951565b345b905060005b83518110156119cd576119c3611994878787858151811061197357fe5b602002602001015187868151811061198757fe5b60200260200101516124b5565b60408051808201909152601081526f092dce6eaccccd2c6d2cadce8408aa8960831b6020820152849190612612565b9150600101611956565b506119d885826126a9565b5050505050565b6119f1846001600160a01b031661272a565b156117275763bc197c8160e01b6001600160e01b031916846001600160a01b031663bc197c8188888787876040518663ffffffff1660e01b815260040180866001600160a01b03168152602001856001600160a01b03168152602001806020018060200180602001848103845287818151815260200191508051906020019060200280838360005b83811015611a91578181015183820152602001611a79565b50505050905001848103835286818151815260200191508051906020019060200280838360005b83811015611ad0578181015183820152602001611ab8565b50505050905001848103825285818151815260200191508051906020019080838360005b83811015611b0c578181015183820152602001611af4565b50505050905090810190601f168015611b395780820380516001836020036101000a031916815260200191505b5098505050505050505050602060405180830381600087803b158015611b5e57600080fd5b505af1158015611b72573d6000803e3d6000fd5b505050506040513d6020811015611b8857600080fd5b50516001600160e01b031916146117275760405162461bcd60e51b8152600401808060200182810382526036815260200180612e876036913960400191505060405180910390fd5b600f546001600160a01b0316331490565b60006112bd83836040518060400160405280601e81526020017f536166654d6174683a207375627472616374696f6e206f766572666c6f770000815250612612565b6001600160a01b0381166000908152600c602052604081205460ff1680610c835750610c83611bd0565b60008a8152600d6020526040902054158015611c695750600089115b611cae576040805162461bcd60e51b8152602060048201526011602482015270496e76616c696420617267756d656e747360781b604482015290519081900360640190fd5b88600d60008c81526020019081526020016000206000018190555087600d60008c8152602001908152602001600020600101819055506001600d60008c81526020019081526020016000206007016000336001600160a01b03166001600160a01b0316815260200190815260200160002060020160006101000a81548160ff0219169083151502179055506001600d60008c815260200190815260200160002060070160008d6001600160a01b03166001600160a01b0316815260200190815260200160002060020160026101000a81548160ff021916908315150217905550611d9e8a88888888888888612761565b611da98b8b8b612905565b5050505050505050505050565b6000828152600d60205260408120600b015481904290600019015b6000868152600d60205260408120600b01805483908110611dee57fe5b60009182526020822060029091020101546000888152600d60205260408120600b018054929350909184908110611e2157fe5b9060005260206000209060020201600160028110611e3b57fe5b01546000898152600d602090815260408083206001600160a01b038e168452600701909152812060010154919250908311611ede576000898152600d602090815260408083206001600160a01b038e168452600701909152902060010154611eb3906201518090611ead908890611be1565b90612b03565b905080611ebe575060015b611ed288611ecc8385612b45565b90612b45565b86019550505050611f1d565b611eef62015180611ead8786611be1565b905080611efa575060015b9193508391611f0d88611ecc8385612b45565b9095019450505060001901611dd1565b506000858152600d6020526040902060010154611f3e908390600a0a612b03565b6000868152600d602052604081206003015491935090611f69906305f5e10090611ead908890612b45565b6000878152600d6020526040902060020154909150611f9390611f8c9083612b9e565b8490612b9e565b979650505050505050565b6000805b600a81101561207b576000600282600a8110611fba57fe5b01546001600160a01b031614612073576000600282600a8110611fd957fe5b01546040805163c455279160e01b81526001600160a01b0388811660048301529151928216935090861691839163c4552791916024808301926020929190829003018186803b15801561202b57600080fd5b505afa15801561203f573d6000803e3d6000fd5b505050506040513d602081101561205557600080fd5b50516001600160a01b0316141561207157600192505050610c83565b505b600101611fa2565b5060009392505050565b60008034116120af576001600160a01b0385166000908152600c60205260409020600101546120b1565b345b90506120f16120c2868686866124b5565b60408051808201909152601081526f092dce6eaccccd2c6d2cadce8408aa8960831b6020820152839190612612565b90506119d885826126a9565b61210f846001600160a01b031661272a565b156117275763f23a6e6160e01b6001600160e01b031916846001600160a01b031663f23a6e6188888787876040518663ffffffff1660e01b815260040180866001600160a01b03168152602001856001600160a01b0316815260200184815260200183815260200180602001828103825283818151815260200191508051906020019080838360005b838110156121b0578181015183820152602001612198565b50505050905090810190601f1680156121dd5780820380516001836020036101000a031916815260200191505b509650505050505050602060405180830381600087803b15801561220057600080fd5b505af1158015612214573d6000803e3d6000fd5b505050506040513d602081101561222a57600080fd5b50516001600160e01b031916146117275760405162461bcd60e51b8152600401808060200182810382526031815260200180612f976031913960400191505060405180910390fd5b6001600160a01b0381166122b75760405162461bcd60e51b8152600401808060200182810382526026815260200180612ddd6026913960400191505060405180910390fd5b600f546040516001600160a01b038084169216907f8be0079c531659141344cd1fd0a4f28419497f9722a3daafe3b4186f6b6457e090600090a3600f80546001600160a01b0319166001600160a01b0392909216919091179055565b6000838152600d6020526040812060080180546124b0929061233157fe5b6000918252602080832090910154868352600d8083526040808520805460018201548351606081018552600284015481526003840154818901528c895294909652600b90910180546001600160a01b03909516968a96929592948a94909390840192919061239b57fe5b90600052602060002090600202016001600281106123b557fe5b0154905260008a8152600d60209081526040918290206009018054835181840281018401909452808452909183018282801561241a57602002820191906000526020600020905b81546001600160a01b031681526001909101906020018083116123fc575b50505060008d8152600d6020908152604091829020600a018054835181840281018401909452808452929450925083018282801561247757602002820191906000526020600020905b815481526020019060010190808311612463575b50505060008e8152600d60205260409020600481015460069091015490925060ff600160a01b82041691506001600160a01b0316611c4d565b505050565b6040805180820182526014815273496e73756666696369656e742062616c616e636560601b6020808301919091526000858152600d82528381206001600160a01b038916825260070190915291822054612510918490612612565b6000848152600d602090815260408083206001600160a01b038a168452600701909152902055612541848484612905565b61254c858484611db6565b905060005b6000848152600d6020526040902060090154811015612609576000848152600d6020526040812060090180548390811061258757fe5b6000918252602080832090910154878352600d90915260408220600a0180546001600160a01b03909216935090849081106125be57fe5b60009182526020909120015490506125dc612710611ead8684612b45565b6001600160a01b039092166000908152600c60205260409020600190810180549093019092555001612551565b50949350505050565b600081848411156126a15760405162461bcd60e51b81526004018080602001828103825283818151815260200191508051906020019080838360005b8381101561266657818101518382015260200161264e565b50505050905090810190601f1680156126935780820380516001836020036101000a031916815260200191505b509250505060405180910390fd5b505050900390565b6000341180156126b95750600081115b15612705576001600160a01b0382166000908152600c60205260409020600101546126e49082612b9e565b6001600160a01b0383166000908152600c6020526040902060010155611101565b34611101576001600160a01b03919091166000908152600c6020526040902060010155565b6000813f7fc5d2460186f7233c927e7db2dcc703c0e500b653ca82273b7bfad8045d85a47081158015906115335750141592915050565b6000805b85518110156127915785818151811061277a57fe5b602002602001015182019150806001019050612765565b50600086511180156127a1575060015b80156127ae575080612710145b80156127bb575061271084105b612800576040805162461bcd60e51b8152602060048201526011602482015270496e76616c696420617267756d656e747360781b604482015290519081900360640190fd5b6000898152600d60209081526040808320600581018c90558a516002808301919091558b840151600383015582518084018452428152928c015183850152600b909101805460018101825590855292909320612860939283020191612cb5565b506000898152600d60209081526040909120875161288692600990920191890190612cef565b506000898152600d6020908152604090912086516128ac92600a90920191880190612d43565b50506000978852600d602052604090972060048101929092556006909101805460ff60a01b1916600160a01b92151592909202919091176001600160a01b0319166001600160a01b039096169590951790945550505050565b6000828152600d602090815260408083206001600160a01b03871684526007019091528120546129359083612b9e565b6000848152600d602090815260408083206001600160a01b0389168452600701909152902054909150612a32576000838152600d602090815260408083206001600160a01b0388168452600701909152902060020154610100900460ff16612a01576001600160a01b0384166000818152600c6020908152604080832060020180546001818101835591855283852001889055878452600d83529083206008810180549283018155845282842090910180546001600160a01b0319168517905592909152600790910190525b6000838152600d602090815260408083206001600160a01b0388168452600701909152902042600190910155612ad3565b6000838152600d602090815260408083206001600160a01b0388168452600701909152812060010154612a66904290611be1565b6000858152600d602090815260408083206001600160a01b038a16845260070190915281205491925090612aa0908490611ead9085612b45565b6000868152600d602090815260408083206001600160a01b038b1684526007019091529020429190910360019091015550505b6000928352600d602090815260408085206001600160a01b03909616855260079095019052929091209190915550565b60006112bd83836040518060400160405280601a81526020017f536166654d6174683a206469766973696f6e206279207a65726f000000000000815250612bf8565b600082612b5457506000610c83565b82820282848281612b6157fe5b04146112bd5760405162461bcd60e51b8152600401808060200182810382526021815260200180612ef16021913960400191505060405180910390fd5b6000828201838110156112bd576040805162461bcd60e51b815260206004820152601b60248201527f536166654d6174683a206164646974696f6e206f766572666c6f770000000000604482015290519081900360640190fd5b60008183612c475760405162461bcd60e51b815260206004820181815283516024840152835190928392604490910191908501908083836000831561266657818101518382015260200161264e565b506000838581612c5357fe5b0495945050505050565b82600a8101928215612ca5579160200282015b82811115612ca557825182546001600160a01b0319166001600160a01b03909116178255602090920191600190910190612c70565b50612cb1929150612d7d565b5090565b8260028101928215612ce3579160200282015b82811115612ce3578251825591602001919060010190612cc8565b50612cb1929150612d9c565b828054828255906000526020600020908101928215612ca55791602002820182811115612ca557825182546001600160a01b0319166001600160a01b03909116178255602090920191600190910190612c70565b828054828255906000526020600020908101928215612ce35791602002820182811115612ce3578251825591602001919060010190612cc8565b5b80821115612cb15780546001600160a01b0319168155600101612d7e565b5b80821115612cb15760008155600101612d9d56fe455243313135353a2062616c616e636520717565727920666f7220746865207a65726f20616464726573734f776e61626c653a206e6577206f776e657220697320746865207a65726f2061646472657373455243313135353a207461726765742061646472657373206d757374206265206e6f6e2d7a65726f455243313135353a2063616e6e6f742073657420617070726f76616c2073746174757320666f722073656c66455243313135353a206163636f756e747320616e6420494473206d75737420686176652073616d65206c656e67746873455243313135353a20676f7420756e6b6e6f776e2076616c75652066726f6d206f6e4552433131353542617463685265636569766564455243313135353a20736f6d65206164647265737320696e2062617463682062616c616e6365207175657279206973207a65726f536166654d6174683a206d756c7469706c69636174696f6e206f766572666c6f774f776e61626c653a2063616c6c6572206973206e6f7420746865206f776e6572455243313135353a206e656564206f70657261746f7220617070726f76616c20666f7220337264207061727479207472616e7366657273455243313135353a2049447320616e642076616c756573206d75737420686176652073616d65206c656e67746873455243313135353a20676f7420756e6b6e6f776e2076616c75652066726f6d206f6e455243313135355265636569766564a26469706673582212204c3de3cd8e972fc2686a980de2f39d0aa4767e2b69db0b7c288e873593f6d9ac64736f6c634300070100334f776e61626c653a206e6577206f776e657220697320746865207a65726f2061646472657373",
  "immutableReferences": {},
  "source": "// SPDX-License-Identifier: GPL-3.0-or-later\npragma solidity ^0.7.1;\n\nimport \"../utils/SafeMath.sol\";\nimport \"./ERC1155.sol\";\n\ncontract Mintable is ERC1155 {\n\n    using SafeMath for uint256;\n\n\n    /****************************\n    MODIFIERS\n    *****************************/\n\n\n    modifier onlyTokenizer() {\n        require(_isTokenizer(msg.sender), \"Insufficient permission\");\n        _;\n    }\n\n\n    /****************************\n    EXTERNAL FUNCTIONS\n    *****************************/\n\n\n    /**\n     * @dev Function to authorize an address to create a token.\n     * @param tokenizer The authorized address\n     */\n    function authorizeTokenizer(address tokenizer) external onlyOwner {\n        _users[tokenizer].isTokenizer = true;\n    }\n\n    /**\n     * @dev Function to revoke the authorization to create a token.\n     * @param tokenizer The authorized address\n     */\n    function revokeTokenizer(address tokenizer) external onlyOwner {\n        _users[tokenizer].isTokenizer = false;\n    }\n\n    /**\n     * @dev Function to check if an address is authorized to create a token.\n     * @param tokenizer The authorized address\n     */\n    function isTokenizer(address tokenizer) external view returns (bool) {\n        return _isTokenizer(tokenizer);\n    }\n\n    /**\n     * @dev Function to mint an amount of a token with the given ID.\n     * @param recipient The address that will own the minted tokens\n     * @param id ID of the token to be minted\n     * @param supply Amount of the token to be minted\n     * @param metadataHash Metadata file hash\n     * @param transactionFees transaction fees: [lumpSumFees (in WEI), valueProportionalFees (ratio of transfered amount * 10**8), storageFees (in storageCredit * 10**8)]\n     * @param feesRecipients list of addresses receiving transfer fees\n     * @param feesRecipientsPercentage list of percentage, each one for the corresponding feesRecipients\n     * @param minHoldingForCallback minimum holding to propose a callback\n     * @param isPrivate true if holder need approval\n     * @param legalAuthority address of the legal authority\n     */\n    function createToken(address recipient,\n                         uint256 id,\n                         uint256 supply,\n                         uint256 decimals,\n                         uint256 metadataHash,\n                         uint256[3] memory transactionFees,\n                         address[] memory feesRecipients,\n                         uint256[] memory feesRecipientsPercentage,\n                         uint256 minHoldingForCallback,\n                         bool isPrivate,\n                         address legalAuthority)\n    external onlyTokenizer {\n        _createToken(recipient,\n                     id,\n                     supply,\n                     decimals,\n                     metadataHash,\n                     transactionFees,\n                     feesRecipients,\n                     feesRecipientsPercentage,\n                     minHoldingForCallback,\n                     isPrivate,\n                     legalAuthority);\n        emit TransferSingle(msg.sender, address(0), recipient, id, supply);\n    }\n\n    /**\n     * @dev Function to mint tokens in batch.\n     * @param id Identifier of the template\n     * @param ids list of IDs of the tokens to be minted\n     * @param metadataHashes list of metadata file hashes\n     */\n    function cloneToken(uint256 id,\n                        uint256[] memory ids,\n                        uint256[] memory metadataHashes)\n    external onlyTokenizer {\n        require(_tokens[id].supply > 0 &&\n                ids.length == metadataHashes.length, \"Invalid arguments\");\n\n        for (uint256 i = 0; i < ids.length; ++i) {\n            _cloneToken(id, ids[i], metadataHashes[i]);\n\n            emit TransferSingle(msg.sender,\n                                address(0),\n                                _tokens[id].holderList[0],\n                                ids[i],\n                                _tokens[id].supply);\n        }\n    }\n\n\n    /****************************\n    INTERNAL FUNCTIONS\n    *****************************/\n\n\n    function _isTokenizer(address tokenizer) internal view returns (bool) {\n        return _users[tokenizer].isTokenizer || _isOwner();\n    }\n\n    function _setToken(uint256 id,\n                       uint256 metadataHash,\n                       uint256[3] memory transactionFees,\n                       address[] memory feesRecipients,\n                       uint256[] memory feesRecipientsPercentage,\n                       uint256 minHoldingForCallback,\n                       bool isPrivate,\n                       address legalAuthority)\n    internal {\n        uint256 totalPercentage = 0;\n        for (uint256 i = 0; i < feesRecipientsPercentage.length; ++i)\n            totalPercentage += feesRecipientsPercentage[i];\n\n        require(feesRecipients.length > 0 && feesRecipients.length == feesRecipients.length &&\n                totalPercentage == 10000 &&\n                minHoldingForCallback < 10000,\n                \"Invalid arguments\");\n\n        _tokens[id].metadataHash = metadataHash;\n        _tokens[id].lumpSumTransactionFees = transactionFees[0];\n        _tokens[id].valueTransactionFees = transactionFees[1];\n        _tokens[id].storageCostHistory.push([block.timestamp, transactionFees[2]]);\n        _tokens[id].feesRecipients = feesRecipients;\n        _tokens[id].feesRecipientsPercentage = feesRecipientsPercentage;\n        _tokens[id].minHoldingForCallback = minHoldingForCallback;\n        _tokens[id].isPrivate = isPrivate;\n        _tokens[id].legalAuthority = legalAuthority;\n    }\n\n\n    function _createToken(address recipient,\n                          uint256 id,\n                          uint256 supply,\n                          uint256 decimals,\n                          uint256 metadataHash,\n                          uint256[3] memory transactionFees,\n                          address[] memory feesRecipients,\n                          uint256[] memory feesRecipientsPercentage,\n                          uint256 minHoldingForCallback,\n                          bool isPrivate,\n                          address legalAuthority)\n    internal {\n        require(_tokens[id].supply == 0 && supply > 0, \"Invalid arguments\");\n\n        _tokens[id].supply = supply;\n        _tokens[id].decimals = decimals;\n        _tokens[id].holders[msg.sender].isMaintener = true;\n        _tokens[id].holders[recipient].isApproved = true;\n\n        _setToken(id,\n                  metadataHash,\n                  transactionFees,\n                  feesRecipients,\n                  feesRecipientsPercentage,\n                  minHoldingForCallback,\n                  isPrivate,\n                  legalAuthority);\n\n        _addToBalance(recipient, id, supply);\n    }\n\n    function _cloneToken(uint256 id, uint256 cloneId, uint256 metadataHash) internal {\n        _createToken(_tokens[id].holderList[0],\n                     cloneId,\n                     _tokens[id].supply,\n                     _tokens[id].decimals,\n                     metadataHash,\n                     [\n                       _tokens[id].lumpSumTransactionFees,\n                       _tokens[id].valueTransactionFees,\n                       _tokens[id].storageCostHistory[0][1]\n                     ],\n                     _tokens[id].feesRecipients,\n                     _tokens[id].feesRecipientsPercentage,\n                     _tokens[id].minHoldingForCallback,\n                     _tokens[id].isPrivate,\n                     _tokens[id].legalAuthority);\n    }\n\n}\n",
  "sourcePath": "/home/ouziel/Work/StashBloxContracts/contracts/lib/Mintable.sol",
  "compiler": {
    "name": "solc",
    "version": "0.7.1+commit.f4a555be.Emscripten.clang"
  },
  "schemaVersion": "3.2.3",
  "updatedAt": "2020-10-21T13:10:21.892Z",
  "devdoc": {
    "kind": "dev",
    "methods": {
      "authorizeTokenizer(address)": {
        "details": "Function to authorize an address to create a token.",
        "params": {
          "tokenizer": "The authorized address"
        }
      },
      "averageAge(address,uint256)": {
        "details": "Function to get the average age of the token for the given address.",
        "params": {
          "account": "the address from where to transfer the tokens",
          "id": "The token ID"
        },
        "returns": {
          "_0": "average age in seconds"
        }
      },
      "balanceOf(address,uint256)": {
        "details": "Get the specified address' balance for token with specified ID. Attempting to query the zero account for a balance will result in a revert.",
        "params": {
          "account": "The address of the token holder",
          "id": "ID of the token"
        },
        "returns": {
          "_0": "The account's balance of the token type requested"
        }
      },
      "balanceOfBatch(address[],uint256[])": {
        "details": "Get the balance of multiple account/token pairs. If any of the query accounts is the zero account, this query will revert.",
        "params": {
          "accounts": "The addresses of the token holders",
          "ids": "IDs of the tokens"
        },
        "returns": {
          "_0": "Balances for each account and token id pair"
        }
      },
      "cloneToken(uint256,uint256[],uint256[])": {
        "details": "Function to mint tokens in batch.",
        "params": {
          "id": "Identifier of the template",
          "ids": "list of IDs of the tokens to be minted",
          "metadataHashes": "list of metadata file hashes"
        }
      },
      "createToken(address,uint256,uint256,uint256,uint256,uint256[3],address[],uint256[],uint256,bool,address)": {
        "details": "Function to mint an amount of a token with the given ID.",
        "params": {
          "feesRecipients": "list of addresses receiving transfer fees",
          "feesRecipientsPercentage": "list of percentage, each one for the corresponding feesRecipients",
          "id": "ID of the token to be minted",
          "isPrivate": "true if holder need approval",
          "legalAuthority": "address of the legal authority",
          "metadataHash": "Metadata file hash",
          "minHoldingForCallback": "minimum holding to propose a callback",
          "recipient": "The address that will own the minted tokens",
          "supply": "Amount of the token to be minted",
          "transactionFees": "transaction fees: [lumpSumFees (in WEI), valueProportionalFees (ratio of transfered amount * 10**8), storageFees (in storageCredit * 10**8)]"
        }
      },
      "isApprovedForAll(address,address)": {
        "params": {
          "account": "The account of the Tokens",
          "operator": "Address of authorized operator"
        },
        "returns": {
          "_0": "True if the operator is approved, false if not"
        }
      },
      "isTokenizer(address)": {
        "details": "Function to check if an address is authorized to create a token.",
        "params": {
          "tokenizer": "The authorized address"
        }
      },
      "owner()": {
        "details": "Returns the address of the current owner."
      },
      "revokeTokenizer(address)": {
        "details": "Function to revoke the authorization to create a token.",
        "params": {
          "tokenizer": "The authorized address"
        }
      },
      "safeBatchTransferFrom(address,address,uint256[],uint256[],bytes)": {
        "details": "Transfers `values` amount(s) of `ids` from the `from` address to the `to` address specified. Caller must be approved to manage the tokens being transferred out of the `from` account. If `to` is a smart contract, will call `onERC1155BatchReceived` on `to` and act appropriately.",
        "params": {
          "data": "Data forwarded to `onERC1155Received` if `to` is a contract receiver",
          "from": "Source address",
          "ids": "IDs of each token type",
          "to": "Target address",
          "values": "Transfer amounts per token type"
        }
      },
      "safeTransferFrom(address,address,uint256,uint256,bytes)": {
        "details": "Transfers `value` amount of an `id` from the `from` address to the `to` address specified. Caller must be approved to manage the tokens being transferred out of the `from` account. If `to` is a smart contract, will call `onERC1155Received` on `to` and act appropriately.",
        "params": {
          "data": "Data forwarded to `onERC1155Received` if `to` is a contract receiver",
          "from": "Source address",
          "id": "ID of the token type",
          "to": "Target address",
          "value": "Transfer amount"
        }
      },
      "setApprovalForAll(address,bool)": {
        "details": "Sets or unsets the approval of a given operator. An operator is allowed to transfer all tokens of the sender on their behalf. Because an account already has operator privileges for itself, this function will revert if the account attempts to set the approval status for itself.",
        "params": {
          "approved": "representing the status of the approval to be set",
          "operator": "address to set the approval"
        }
      },
      "setProxyRegistryAddress(address[10])": {
        "details": "Function to update the operator whitelist",
        "params": {
          "proxyAddresses": "List of addresses"
        }
      },
      "supportsInterface(bytes4)": {
        "params": {
          "_interfaceID": "The interface identifier, as specified in ERC-165"
        },
        "returns": {
          "_0": "`true` if the contract implements `_interfaceID` and"
        }
      },
      "transactionFees(address,uint256,uint256)": {
        "details": "Function to get the transaction price to transfer tokens.",
        "params": {
          "account": "the address from where to transfer the tokens",
          "id": "The token ID",
          "value": "The amount to transfer"
        },
        "returns": {
          "_0": "transfer price"
        }
      },
      "transferOwnership(address)": {
        "details": "Transfers ownership of the contract to a new account (`newOwner`). Can only be called by the current owner."
      }
    },
    "version": 1
  },
  "userdoc": {
    "kind": "user",
    "methods": {
      "isApprovedForAll(address,address)": {
        "notice": "Queries the approval status of an operator for a given account."
      },
      "supportsInterface(bytes4)": {
        "notice": "Query if a contract implements an interface"
      }
    },
    "version": 1
  }
}