{
  "contractName": "Mintable",
  "abi": [
    {
      "anonymous": false,
      "inputs": [
        {
          "indexed": true,
          "internalType": "address",
          "name": "_owner",
          "type": "address"
        },
        {
          "indexed": true,
          "internalType": "address",
          "name": "_operator",
          "type": "address"
        },
        {
          "indexed": false,
          "internalType": "bool",
          "name": "_approved",
          "type": "bool"
        }
      ],
      "name": "ApprovalForAll",
      "type": "event"
    },
    {
      "anonymous": false,
      "inputs": [
        {
          "indexed": true,
          "internalType": "address",
          "name": "previousOwner",
          "type": "address"
        },
        {
          "indexed": true,
          "internalType": "address",
          "name": "newOwner",
          "type": "address"
        }
      ],
      "name": "OwnershipTransferred",
      "type": "event"
    },
    {
      "anonymous": false,
      "inputs": [
        {
          "indexed": true,
          "internalType": "address",
          "name": "_operator",
          "type": "address"
        },
        {
          "indexed": true,
          "internalType": "address",
          "name": "_from",
          "type": "address"
        },
        {
          "indexed": true,
          "internalType": "address",
          "name": "_to",
          "type": "address"
        },
        {
          "indexed": false,
          "internalType": "uint256[]",
          "name": "_ids",
          "type": "uint256[]"
        },
        {
          "indexed": false,
          "internalType": "uint256[]",
          "name": "_values",
          "type": "uint256[]"
        }
      ],
      "name": "TransferBatch",
      "type": "event"
    },
    {
      "anonymous": false,
      "inputs": [
        {
          "indexed": true,
          "internalType": "address",
          "name": "_operator",
          "type": "address"
        },
        {
          "indexed": true,
          "internalType": "address",
          "name": "_from",
          "type": "address"
        },
        {
          "indexed": true,
          "internalType": "address",
          "name": "_to",
          "type": "address"
        },
        {
          "indexed": false,
          "internalType": "uint256",
          "name": "_id",
          "type": "uint256"
        },
        {
          "indexed": false,
          "internalType": "uint256",
          "name": "_value",
          "type": "uint256"
        }
      ],
      "name": "TransferSingle",
      "type": "event"
    },
    {
      "anonymous": false,
      "inputs": [
        {
          "indexed": false,
          "internalType": "string",
          "name": "_value",
          "type": "string"
        },
        {
          "indexed": true,
          "internalType": "uint256",
          "name": "_id",
          "type": "uint256"
        }
      ],
      "name": "URI",
      "type": "event"
    },
    {
      "inputs": [
        {
          "internalType": "uint256",
          "name": "",
          "type": "uint256"
        }
      ],
      "name": "_callbacks",
      "outputs": [
        {
          "internalType": "uint256",
          "name": "tokenId",
          "type": "uint256"
        },
        {
          "internalType": "uint256",
          "name": "price",
          "type": "uint256"
        },
        {
          "internalType": "uint256",
          "name": "escrowedAmount",
          "type": "uint256"
        },
        {
          "internalType": "uint256",
          "name": "callCounter",
          "type": "uint256"
        },
        {
          "internalType": "uint256",
          "name": "documentHash",
          "type": "uint256"
        },
        {
          "internalType": "address",
          "name": "caller",
          "type": "address"
        },
        {
          "internalType": "bool",
          "name": "needLegalApproval",
          "type": "bool"
        },
        {
          "internalType": "bool",
          "name": "approvedByLegal",
          "type": "bool"
        },
        {
          "internalType": "bool",
          "name": "refused",
          "type": "bool"
        },
        {
          "internalType": "bool",
          "name": "accepted",
          "type": "bool"
        },
        {
          "internalType": "bool",
          "name": "completed",
          "type": "bool"
        }
      ],
      "stateMutability": "view",
      "type": "function"
    },
    {
      "inputs": [],
      "name": "_config",
      "outputs": [
        {
          "internalType": "uint256",
          "name": "callbackAutoExecuteMaxAddresses",
          "type": "uint256"
        },
        {
          "internalType": "string",
          "name": "baseURI",
          "type": "string"
        }
      ],
      "stateMutability": "view",
      "type": "function"
    },
    {
      "inputs": [
        {
          "internalType": "uint256",
          "name": "",
          "type": "uint256"
        }
      ],
      "name": "_tokens",
      "outputs": [
        {
          "internalType": "uint256",
          "name": "supply",
          "type": "uint256"
        },
        {
          "internalType": "uint256",
          "name": "decimals",
          "type": "uint256"
        },
        {
          "internalType": "uint256",
          "name": "lumpSumTransactionFees",
          "type": "uint256"
        },
        {
          "internalType": "uint256",
          "name": "valueTransactionFees",
          "type": "uint256"
        },
        {
          "internalType": "uint256",
          "name": "minHoldingForCallback",
          "type": "uint256"
        },
        {
          "internalType": "uint256",
          "name": "metadataHash",
          "type": "uint256"
        },
        {
          "internalType": "address",
          "name": "legalAuthority",
          "type": "address"
        },
        {
          "internalType": "bool",
          "name": "isPrivate",
          "type": "bool"
        },
        {
          "internalType": "bool",
          "name": "locked",
          "type": "bool"
        }
      ],
      "stateMutability": "view",
      "type": "function"
    },
    {
      "inputs": [
        {
          "internalType": "address",
          "name": "",
          "type": "address"
        }
      ],
      "name": "_users",
      "outputs": [
        {
          "internalType": "bool",
          "name": "isTokenizer",
          "type": "bool"
        },
        {
          "internalType": "bool",
          "name": "isLocked",
          "type": "bool"
        },
        {
          "internalType": "uint256",
          "name": "ETHBalance",
          "type": "uint256"
        }
      ],
      "stateMutability": "view",
      "type": "function"
    },
    {
      "inputs": [
        {
          "internalType": "address",
          "name": "account",
          "type": "address"
        },
        {
          "internalType": "uint256",
          "name": "id",
          "type": "uint256"
        }
      ],
      "name": "balanceOf",
      "outputs": [
        {
          "internalType": "uint256",
          "name": "",
          "type": "uint256"
        }
      ],
      "stateMutability": "view",
      "type": "function"
    },
    {
      "inputs": [
        {
          "internalType": "address[]",
          "name": "accounts",
          "type": "address[]"
        },
        {
          "internalType": "uint256[]",
          "name": "ids",
          "type": "uint256[]"
        }
      ],
      "name": "balanceOfBatch",
      "outputs": [
        {
          "internalType": "uint256[]",
          "name": "",
          "type": "uint256[]"
        }
      ],
      "stateMutability": "view",
      "type": "function"
    },
    {
      "inputs": [
        {
          "internalType": "address",
          "name": "account",
          "type": "address"
        },
        {
          "internalType": "address",
          "name": "operator",
          "type": "address"
        }
      ],
      "name": "isApprovedForAll",
      "outputs": [
        {
          "internalType": "bool",
          "name": "",
          "type": "bool"
        }
      ],
      "stateMutability": "view",
      "type": "function"
    },
    {
      "inputs": [],
      "name": "owner",
      "outputs": [
        {
          "internalType": "address",
          "name": "",
          "type": "address"
        }
      ],
      "stateMutability": "view",
      "type": "function"
    },
    {
      "inputs": [
        {
          "internalType": "address",
          "name": "from",
          "type": "address"
        },
        {
          "internalType": "address",
          "name": "to",
          "type": "address"
        },
        {
          "internalType": "uint256[]",
          "name": "ids",
          "type": "uint256[]"
        },
        {
          "internalType": "uint256[]",
          "name": "values",
          "type": "uint256[]"
        },
        {
          "internalType": "bytes",
          "name": "data",
          "type": "bytes"
        }
      ],
      "name": "safeBatchTransferFrom",
      "outputs": [],
      "stateMutability": "payable",
      "type": "function"
    },
    {
      "inputs": [
        {
          "internalType": "address",
          "name": "from",
          "type": "address"
        },
        {
          "internalType": "address",
          "name": "to",
          "type": "address"
        },
        {
          "internalType": "uint256",
          "name": "id",
          "type": "uint256"
        },
        {
          "internalType": "uint256",
          "name": "value",
          "type": "uint256"
        },
        {
          "internalType": "bytes",
          "name": "data",
          "type": "bytes"
        }
      ],
      "name": "safeTransferFrom",
      "outputs": [],
      "stateMutability": "payable",
      "type": "function"
    },
    {
      "inputs": [
        {
          "internalType": "address",
          "name": "operator",
          "type": "address"
        },
        {
          "internalType": "bool",
          "name": "approved",
          "type": "bool"
        }
      ],
      "name": "setApprovalForAll",
      "outputs": [],
      "stateMutability": "nonpayable",
      "type": "function"
    },
    {
      "inputs": [
        {
          "internalType": "address[10]",
          "name": "proxyAddresses",
          "type": "address[10]"
        }
      ],
      "name": "setProxyRegistryAddress",
      "outputs": [],
      "stateMutability": "nonpayable",
      "type": "function"
    },
    {
      "inputs": [
        {
          "internalType": "bytes4",
          "name": "_interfaceID",
          "type": "bytes4"
        }
      ],
      "name": "supportsInterface",
      "outputs": [
        {
          "internalType": "bool",
          "name": "",
          "type": "bool"
        }
      ],
      "stateMutability": "pure",
      "type": "function"
    },
    {
      "inputs": [
        {
          "internalType": "address",
          "name": "account",
          "type": "address"
        },
        {
          "internalType": "uint256",
          "name": "id",
          "type": "uint256"
        },
        {
          "internalType": "uint256",
          "name": "value",
          "type": "uint256"
        }
      ],
      "name": "transactionFees",
      "outputs": [
        {
          "internalType": "uint256",
          "name": "",
          "type": "uint256"
        }
      ],
      "stateMutability": "view",
      "type": "function"
    },
    {
      "inputs": [
        {
          "internalType": "address",
          "name": "newOwner",
          "type": "address"
        }
      ],
      "name": "transferOwnership",
      "outputs": [],
      "stateMutability": "nonpayable",
      "type": "function"
    },
    {
      "inputs": [
        {
          "internalType": "address",
          "name": "tokenizer",
          "type": "address"
        }
      ],
      "name": "authorizeTokenizer",
      "outputs": [],
      "stateMutability": "nonpayable",
      "type": "function"
    },
    {
      "inputs": [
        {
          "internalType": "address",
          "name": "tokenizer",
          "type": "address"
        }
      ],
      "name": "revokeTokenizer",
      "outputs": [],
      "stateMutability": "nonpayable",
      "type": "function"
    },
    {
      "inputs": [
        {
          "internalType": "address",
          "name": "tokenizer",
          "type": "address"
        }
      ],
      "name": "isTokenizer",
      "outputs": [
        {
          "internalType": "bool",
          "name": "",
          "type": "bool"
        }
      ],
      "stateMutability": "view",
      "type": "function"
    },
    {
      "inputs": [
        {
          "internalType": "address",
          "name": "recipient",
          "type": "address"
        },
        {
          "internalType": "uint256",
          "name": "id",
          "type": "uint256"
        },
        {
          "internalType": "uint256",
          "name": "supply",
          "type": "uint256"
        },
        {
          "internalType": "uint256",
          "name": "decimals",
          "type": "uint256"
        },
        {
          "internalType": "uint256",
          "name": "metadataHash",
          "type": "uint256"
        },
        {
          "internalType": "uint256[3]",
          "name": "transactionFees",
          "type": "uint256[3]"
        },
        {
          "internalType": "address[]",
          "name": "feesRecipients",
          "type": "address[]"
        },
        {
          "internalType": "uint256[]",
          "name": "feesRecipientsPercentage",
          "type": "uint256[]"
        },
        {
          "internalType": "uint256",
          "name": "minHoldingForCallback",
          "type": "uint256"
        },
        {
          "internalType": "bool",
          "name": "isPrivate",
          "type": "bool"
        },
        {
          "internalType": "address",
          "name": "legalAuthority",
          "type": "address"
        }
      ],
      "name": "createToken",
      "outputs": [],
      "stateMutability": "nonpayable",
      "type": "function"
    },
    {
      "inputs": [
        {
          "internalType": "uint256",
          "name": "id",
          "type": "uint256"
        },
        {
          "internalType": "uint256[]",
          "name": "ids",
          "type": "uint256[]"
        },
        {
          "internalType": "uint256[]",
          "name": "metadataHashes",
          "type": "uint256[]"
        }
      ],
      "name": "cloneToken",
      "outputs": [],
      "stateMutability": "nonpayable",
      "type": "function"
    }
  ],
  "bytecode": "0x60806040523480156200001157600080fd5b506200001d3362000023565b620000e0565b6001600160a01b03811662000084576040517f08c379a0000000000000000000000000000000000000000000000000000000008152600401808060200182810382526026815260200180620030706026913960400191505060405180910390fd5b600f546040516001600160a01b038084169216907f8be0079c531659141344cd1fd0a4f28419497f9722a3daafe3b4186f6b6457e090600090a3600f80546001600160a01b0319166001600160a01b0392909216919091179055565b612f8080620000f06000396000f3fe60806040526004361061011e5760003560e01c80638da5cb5b116100a0578063e985e9c511610064578063e985e9c51461091a578063ed70554d14610955578063f242432a146109d3578063f2fde38b14610a66578063f8a5a07c14610a995761011e565b80638da5cb5b1461069f578063a22cb465146106d0578063c02f303c1461070b578063c40b87ae1461073e578063d1660e18146108db5761011e565b8063414ed0ce116100e7578063414ed0ce146103c65780634392e577146104585780634e1273f4146104b95780637627b732146106395780638870147b1461066c5761011e565b8062fdd58e1461012357806301ffc9a71461016e5780632eb2c2d6146101b65780632ed42bf7146102df5780633cacd7d614610373575b600080fd5b34801561012f57600080fd5b5061015c6004803603604081101561014657600080fd5b506001600160a01b038135169060200135610bd0565b60408051918252519081900360200190f35b34801561017a57600080fd5b506101a26004803603602081101561019157600080fd5b50356001600160e01b031916610c45565b604080519115158252519081900360200190f35b6102dd600480360360a08110156101cc57600080fd5b6001600160a01b038235811692602081013590911691810190606081016040820135600160201b8111156101ff57600080fd5b82018360208201111561021157600080fd5b803590602001918460208302840111600160201b8311171561023257600080fd5b919390929091602081019035600160201b81111561024f57600080fd5b82018360208201111561026157600080fd5b803590602001918460208302840111600160201b8311171561028257600080fd5b919390929091602081019035600160201b81111561029f57600080fd5b8201836020820111156102b157600080fd5b803590602001918460018302840111600160201b831117156102d257600080fd5b509092509050610c8c565b005b3480156102eb57600080fd5b506102f4610f3a565b6040518083815260200180602001828103825283818151815260200191508051906020019080838360005b8381101561033757818101518382015260200161031f565b50505050905090810190601f1680156103645780820380516001836020036101000a031916815260200191505b50935050505060405180910390f35b34801561037f57600080fd5b506103a66004803603602081101561039657600080fd5b50356001600160a01b0316610fd0565b604080519315158452911515602084015282820152519081900360600190f35b3480156103d257600080fd5b506103f0600480360360208110156103e957600080fd5b5035610ff6565b604080519b8c5260208c019a909a528a8a019890985260608a019690965260808901949094526001600160a01b0390921660a0880152151560c0870152151560e086015215156101008501521515610120840152151561014083015251908190036101600190f35b34801561046457600080fd5b506102dd600480360361014081101561047c57600080fd5b81019080806101400190600a806020026040519081016040528092919082600a602002808284376000920191909152509194506110699350505050565b3480156104c557600080fd5b506105e9600480360360408110156104dc57600080fd5b810190602081018135600160201b8111156104f657600080fd5b82018360208201111561050857600080fd5b803590602001918460208302840111600160201b8311171561052957600080fd5b9190808060200260200160405190810160405280939291908181526020018383602002808284376000920191909152509295949360208101935035915050600160201b81111561057857600080fd5b82018360208201111561058a57600080fd5b803590602001918460208302840111600160201b831117156105ab57600080fd5b9190808060200260200160405190810160405280939291908181526020018383602002808284376000920191909152509295506110c1945050505050565b60408051602080825283518183015283519192839290830191858101910280838360005b8381101561062557818101518382015260200161060d565b505050509050019250505060405180910390f35b34801561064557600080fd5b506102dd6004803603602081101561065c57600080fd5b50356001600160a01b0316611245565b34801561067857600080fd5b506102dd6004803603602081101561068f57600080fd5b50356001600160a01b03166112b0565b3480156106ab57600080fd5b506106b4611318565b604080516001600160a01b039092168252519081900360200190f35b3480156106dc57600080fd5b506102dd600480360360408110156106f357600080fd5b506001600160a01b0381351690602001351515611327565b34801561071757600080fd5b506101a26004803603602081101561072e57600080fd5b50356001600160a01b03166113dd565b34801561074a57600080fd5b506102dd60048036036101a081101561076257600080fd5b60408051606081810183526001600160a01b03853516946020810135949381013593828201359360808301359391830192916101008301919060a0840190600390839083908082843760009201919091525091949392602081019250359050600160201b8111156107d257600080fd5b8201836020820111156107e457600080fd5b803590602001918460208302840111600160201b8311171561080557600080fd5b9190808060200260200160405190810160405280939291908181526020018383602002808284376000920191909152509295949360208101935035915050600160201b81111561085457600080fd5b82018360208201111561086657600080fd5b803590602001918460208302840111600160201b8311171561088757600080fd5b919080806020026020016040519081016040528093929190818152602001838360200280828437600092019190915250929550508235935050506020810135151590604001356001600160a01b03166113e8565b3480156108e757600080fd5b5061015c600480360360608110156108fe57600080fd5b506001600160a01b0381351690602081013590604001356114a7565b34801561092657600080fd5b506101a26004803603604081101561093d57600080fd5b506001600160a01b03813581169160200135166114bc565b34801561096157600080fd5b5061097f6004803603602081101561097857600080fd5b50356114ff565b60408051998a5260208a0198909852888801969096526060880194909452608087019290925260a08601526001600160a01b031660c0850152151560e0840152151561010083015251908190036101200190f35b6102dd600480360360a08110156109e957600080fd5b6001600160a01b03823581169260208101359091169160408201359160608101359181019060a081016080820135600160201b811115610a2857600080fd5b820183602082011115610a3a57600080fd5b803590602001918460018302840111600160201b83111715610a5b57600080fd5b50909250905061155b565b348015610a7257600080fd5b506102dd60048036036020811015610a8957600080fd5b50356001600160a01b03166116b2565b348015610aa557600080fd5b506102dd60048036036060811015610abc57600080fd5b81359190810190604081016020820135600160201b811115610add57600080fd5b820183602082011115610aef57600080fd5b803590602001918460208302840111600160201b83111715610b1057600080fd5b9190808060200260200160405190810160405280939291908181526020018383602002808284376000920191909152509295949360208101935035915050600160201b811115610b5f57600080fd5b820183602082011115610b7157600080fd5b803590602001918460208302840111600160201b83111715610b9257600080fd5b919080806020026020016040519081016040528093929190818152602001838360200280828437600092019190915250929550611705945050505050565b60006001600160a01b038316610c175760405162461bcd60e51b815260040180806020018281038252602b815260200180612d35602b913960400191505060405180910390fd5b506000818152600d602090815260408083206001600160a01b03861684526007019091529020545b92915050565b60006001600160e01b031982166301ffc9a760e01b1480610c7657506001600160e01b03198216636cdb3d1360e11b145b15610c8357506001610c87565b5060005b919050565b848314610cca5760405162461bcd60e51b815260040180806020018281038252602e815260200180612eec602e913960400191505060405180910390fd5b6001600160a01b038716610d0f5760405162461bcd60e51b8152600401808060200182810382526028815260200180612d866028913960400191505060405180910390fd5b6001600160a01b038816331480610d315750610d2b88336114bc565b15156001145b610d6c5760405162461bcd60e51b8152600401808060200182810382526037815260200180612eb56037913960400191505060405180910390fd5b610ddb888888888080602002602001604051908101604052809392919081815260200183836020028082843760009201919091525050604080516020808c0282810182019093528b82529093508b92508a9182918501908490808284376000920191909152506118a892505050565b866001600160a01b0316886001600160a01b0316336001600160a01b03167f4a39dc06d4c0dbc64b70af90fd698a233a518aa5d07e595d983b8c0526c8f7fb898989896040518080602001806020018381038352878782818152602001925060200280828437600083820152601f01601f19169091018481038352858152602090810191508690860280828437600083820152604051601f909101601f19169092018290039850909650505050505050a4610f3033898989898080602002602001604051908101604052809392919081815260200183836020028082843760009201919091525050604080516020808d0282810182019093528c82529093508c92508b91829185019084908082843760009201919091525050604080516020601f8c018190048102820181019092528a815292508a915089908190840183828082843760009201919091525061196292505050565b5050505050505050565b6000805460018054604080516020600284861615610100026000190190941693909304601f81018490048402820184019092528181529394939291830182828015610fc65780601f10610f9b57610100808354040283529160200191610fc6565b820191906000526020600020905b815481529060010190602001808311610fa957829003601f168201915b5050505050905082565b600c602052600090815260409020805460019091015460ff808316926101009004169083565b600e6020526000908152604090208054600182015460028301546003840154600485015460059095015493949293919290916001600160a01b0381169060ff600160a01b8204811691600160a81b8104821691600160b01b8204811691600160b81b8104821691600160c01b909104168b565b611071611b53565b6110b0576040805162461bcd60e51b81526020600482018190526024820152600080516020612e95833981519152604482015290519081900360640190fd5b6110bd600282600a612be0565b5050565b606081518351146111035760405162461bcd60e51b8152600401808060200182810382526030815260200180612dda6030913960400191505060405180910390fd5b6060835167ffffffffffffffff8111801561111d57600080fd5b50604051908082528060200260200182016040528015611147578160200160208202803683370190505b50905060005b845181101561123d5760006001600160a01b031685828151811061116d57fe5b60200260200101516001600160a01b031614156111bb5760405162461bcd60e51b8152600401808060200182810382526034815260200180612e406034913960400191505060405180910390fd5b600d60008583815181106111cb57fe5b6020026020010151815260200190815260200160002060070160008683815181106111f257fe5b60200260200101516001600160a01b03166001600160a01b031681526020019081526020016000206000015482828151811061122a57fe5b602090810291909101015260010161114d565b509392505050565b61124d611b53565b61128c576040805162461bcd60e51b81526020600482018190526024820152600080516020612e95833981519152604482015290519081900360640190fd5b6001600160a01b03166000908152600c60205260409020805460ff19166001179055565b6112b8611b53565b6112f7576040805162461bcd60e51b81526020600482018190526024820152600080516020612e95833981519152604482015290519081900360640190fd5b6001600160a01b03166000908152600c60205260409020805460ff19169055565b600f546001600160a01b031690565b336001600160a01b038316141561136f5760405162461bcd60e51b815260040180806020018281038252602c815260200180612dae602c913960400191505060405180910390fd5b3360008181526010602090815260408083206001600160a01b03871680855290835292819020805460ff1916861515908117909155815190815290519293927f17307eab39ab6107e8899845ad3d59bd9653f200f220920489ca2b5937696c31929181900390910190a35050565b6000610c3f82611b64565b6113f133611b64565b61143c576040805162461bcd60e51b815260206004820152601760248201527624b739bab33334b1b4b2b73a103832b936b4b9b9b4b7b760491b604482015290519081900360640190fd5b61144f8b8b8b8b8b8b8b8b8b8b8b611b8e565b604080518b8152602081018b905281516001600160a01b038e169260009233927fc3d58168c5ae7397731d063d5bbf3d657854427343f4c083240f7aacaa2d0f62929181900390910190a45050505050505050505050565b60006114b4848484611cf7565b949350505050565b60006114c88383611edf565b806114f857506001600160a01b0380841660009081526010602090815260408083209386168352929052205460ff165b9392505050565b600d60205260009081526040902080546001820154600283015460038401546004850154600586015460069096015494959394929391929091906001600160a01b0381169060ff600160a01b8204811691600160a81b90041689565b6001600160a01b0385166115a05760405162461bcd60e51b8152600401808060200182810382526028815260200180612d866028913960400191505060405180910390fd5b6001600160a01b0386163314806115c257506115bc86336114bc565b15156001145b6115fd5760405162461bcd60e51b8152600401808060200182810382526037815260200180612eb56037913960400191505060405180910390fd5b61160986868686611fc6565b846001600160a01b0316866001600160a01b0316336001600160a01b03167fc3d58168c5ae7397731d063d5bbf3d657854427343f4c083240f7aacaa2d0f628787604051808381526020018281526020019250505060405180910390a46116aa338787878787878080601f01602080910402602001604051908101604052809392919081815260200183838082843760009201919091525061203e92505050565b505050505050565b6116ba611b53565b6116f9576040805162461bcd60e51b81526020600482018190526024820152600080516020612e95833981519152604482015290519081900360640190fd5b611702816121b3565b50565b61170e33611b64565b611759576040805162461bcd60e51b815260206004820152601760248201527624b739bab33334b1b4b2b73a103832b936b4b9b9b4b7b760491b604482015290519081900360640190fd5b6000838152600d602052604090205415801590611777575080518251145b6117bc576040805162461bcd60e51b8152602060048201526011602482015270496e76616c696420617267756d656e747360781b604482015290519081900360640190fd5b60005b82518110156118a2576117f9848483815181106117d857fe5b60200260200101518484815181106117ec57fe5b6020026020010151612254565b6000848152600d60205260408120600801805490919061181557fe5b600091825260208220015484516001600160a01b03909116919033907fc3d58168c5ae7397731d063d5bbf3d657854427343f4c083240f7aacaa2d0f629087908690811061185f57fe5b6020026020010151600d60008a815260200190815260200160002060000154604051808381526020018281526020019250505060405180910390a46001016117bf565b50505050565b60008034116118d2576001600160a01b0385166000908152600c60205260409020600101546118d4565b345b905060005b83518110156119505761194661191787878785815181106118f657fe5b602002602001015187868151811061190a57fe5b60200260200101516123f6565b60408051808201909152601081526f092dce6eaccccd2c6d2cadce8408aa8960831b6020820152849190612553565b91506001016118d9565b5061195b85826125ea565b5050505050565b611974846001600160a01b031661266b565b156116aa5763bc197c8160e01b6001600160e01b031916846001600160a01b031663bc197c8188888787876040518663ffffffff1660e01b815260040180866001600160a01b03168152602001856001600160a01b03168152602001806020018060200180602001848103845287818151815260200191508051906020019060200280838360005b83811015611a145781810151838201526020016119fc565b50505050905001848103835286818151815260200191508051906020019060200280838360005b83811015611a53578181015183820152602001611a3b565b50505050905001848103825285818151815260200191508051906020019080838360005b83811015611a8f578181015183820152602001611a77565b50505050905090810190601f168015611abc5780820380516001836020036101000a031916815260200191505b5098505050505050505050602060405180830381600087803b158015611ae157600080fd5b505af1158015611af5573d6000803e3d6000fd5b505050506040513d6020811015611b0b57600080fd5b50516001600160e01b031916146116aa5760405162461bcd60e51b8152600401808060200182810382526036815260200180612e0a6036913960400191505060405180910390fd5b600f546001600160a01b0316331490565b6001600160a01b0381166000908152600c602052604081205460ff1680610c3f5750610c3f611b53565b60008a8152600d6020526040902054158015611baa5750600089115b611bef576040805162461bcd60e51b8152602060048201526011602482015270496e76616c696420617267756d656e747360781b604482015290519081900360640190fd5b88600d60008c81526020019081526020016000206000018190555087600d60008c8152602001908152602001600020600101819055506001600d60008c81526020019081526020016000206007016000336001600160a01b03166001600160a01b0316815260200190815260200160002060020160006101000a81548160ff0219169083151502179055506001600d60008c815260200190815260200160002060070160008d6001600160a01b03166001600160a01b0316815260200190815260200160002060020160026101000a81548160ff021916908315150217905550611cdf8a888888888888886126a2565b611cea8b8b8b612846565b5050505050505050505050565b6000828152600d60205260408120600b015481904290600019015b6000868152600d60205260408120600b01805483908110611d2f57fe5b60009182526020822060029091020101546000888152600d60205260408120600b018054929350909184908110611d6257fe5b9060005260206000209060020201600160028110611d7c57fe5b01546000898152600d602090815260408083206001600160a01b038e168452600701909152812060010154919250908311611e1f576000898152600d602090815260408083206001600160a01b038e168452600701909152902060010154611df4906201518090611dee908890612a44565b90612a86565b905080611dff575060015b611e1388611e0d8385612ac8565b90612ac8565b86019550505050611e5e565b611e3062015180611dee8786612a44565b905080611e3b575060015b9193508391611e4e88611e0d8385612ac8565b9095019450505060001901611d12565b506000858152600d6020526040902060010154611e7f908390600a0a612a86565b6000868152600d602052604081206003015491935090611eaa906305f5e10090611dee908890612ac8565b6000878152600d6020526040902060020154909150611ed490611ecd9083612b21565b8490612b21565b979650505050505050565b6000805b600a811015611fbc576000600282600a8110611efb57fe5b01546001600160a01b031614611fb4576000600282600a8110611f1a57fe5b01546040805163c455279160e01b81526001600160a01b0388811660048301529151928216935090861691839163c4552791916024808301926020929190829003018186803b158015611f6c57600080fd5b505afa158015611f80573d6000803e3d6000fd5b505050506040513d6020811015611f9657600080fd5b50516001600160a01b03161415611fb257600192505050610c3f565b505b600101611ee3565b5060009392505050565b6000803411611ff0576001600160a01b0385166000908152600c6020526040902060010154611ff2565b345b9050612032612003868686866123f6565b60408051808201909152601081526f092dce6eaccccd2c6d2cadce8408aa8960831b6020820152839190612553565b905061195b85826125ea565b612050846001600160a01b031661266b565b156116aa5763f23a6e6160e01b6001600160e01b031916846001600160a01b031663f23a6e6188888787876040518663ffffffff1660e01b815260040180866001600160a01b03168152602001856001600160a01b0316815260200184815260200183815260200180602001828103825283818151815260200191508051906020019080838360005b838110156120f15781810151838201526020016120d9565b50505050905090810190601f16801561211e5780820380516001836020036101000a031916815260200191505b509650505050505050602060405180830381600087803b15801561214157600080fd5b505af1158015612155573d6000803e3d6000fd5b505050506040513d602081101561216b57600080fd5b50516001600160e01b031916146116aa5760405162461bcd60e51b8152600401808060200182810382526031815260200180612f1a6031913960400191505060405180910390fd5b6001600160a01b0381166121f85760405162461bcd60e51b8152600401808060200182810382526026815260200180612d606026913960400191505060405180910390fd5b600f546040516001600160a01b038084169216907f8be0079c531659141344cd1fd0a4f28419497f9722a3daafe3b4186f6b6457e090600090a3600f80546001600160a01b0319166001600160a01b0392909216919091179055565b6000838152600d6020526040812060080180546123f1929061227257fe5b6000918252602080832090910154868352600d8083526040808520805460018201548351606081018552600284015481526003840154818901528c895294909652600b90910180546001600160a01b03909516968a96929592948a9490939084019291906122dc57fe5b90600052602060002090600202016001600281106122f657fe5b0154905260008a8152600d60209081526040918290206009018054835181840281018401909452808452909183018282801561235b57602002820191906000526020600020905b81546001600160a01b0316815260019091019060200180831161233d575b50505060008d8152600d6020908152604091829020600a01805483518184028101840190945280845292945092508301828280156123b857602002820191906000526020600020905b8154815260200190600101908083116123a4575b50505060008e8152600d60205260409020600481015460069091015490925060ff600160a01b82041691506001600160a01b0316611b8e565b505050565b6040805180820182526014815273496e73756666696369656e742062616c616e636560601b6020808301919091526000858152600d82528381206001600160a01b038916825260070190915291822054612451918490612553565b6000848152600d602090815260408083206001600160a01b038a168452600701909152902055612482848484612846565b61248d858484611cf7565b905060005b6000848152600d602052604090206009015481101561254a576000848152600d602052604081206009018054839081106124c857fe5b6000918252602080832090910154878352600d90915260408220600a0180546001600160a01b03909216935090849081106124ff57fe5b600091825260209091200154905061251d612710611dee8684612ac8565b6001600160a01b039092166000908152600c60205260409020600190810180549093019092555001612492565b50949350505050565b600081848411156125e25760405162461bcd60e51b81526004018080602001828103825283818151815260200191508051906020019080838360005b838110156125a757818101518382015260200161258f565b50505050905090810190601f1680156125d45780820380516001836020036101000a031916815260200191505b509250505060405180910390fd5b505050900390565b6000341180156125fa5750600081115b15612646576001600160a01b0382166000908152600c60205260409020600101546126259082612b21565b6001600160a01b0383166000908152600c60205260409020600101556110bd565b346110bd576001600160a01b03919091166000908152600c6020526040902060010155565b6000813f7fc5d2460186f7233c927e7db2dcc703c0e500b653ca82273b7bfad8045d85a47081158015906114b45750141592915050565b6000805b85518110156126d2578581815181106126bb57fe5b6020026020010151820191508060010190506126a6565b50600086511180156126e2575060015b80156126ef575080612710145b80156126fc575061271084105b612741576040805162461bcd60e51b8152602060048201526011602482015270496e76616c696420617267756d656e747360781b604482015290519081900360640190fd5b6000898152600d60209081526040808320600581018c90558a516002808301919091558b840151600383015582518084018452428152928c015183850152600b9091018054600181018255908552929093206127a1939283020191612c38565b506000898152600d6020908152604090912087516127c792600990920191890190612c72565b506000898152600d6020908152604090912086516127ed92600a90920191880190612cc6565b50506000978852600d602052604090972060048101929092556006909101805460ff60a01b1916600160a01b92151592909202919091176001600160a01b0319166001600160a01b039096169590951790945550505050565b6000828152600d602090815260408083206001600160a01b03871684526007019091528120546128769083612b21565b6000848152600d602090815260408083206001600160a01b0389168452600701909152902054909150612973576000838152600d602090815260408083206001600160a01b0388168452600701909152902060020154610100900460ff16612942576001600160a01b0384166000818152600c6020908152604080832060020180546001818101835591855283852001889055878452600d83529083206008810180549283018155845282842090910180546001600160a01b0319168517905592909152600790910190525b6000838152600d602090815260408083206001600160a01b0388168452600701909152902042600190910155612a14565b6000838152600d602090815260408083206001600160a01b03881684526007019091528120600101546129a7904290612a44565b6000858152600d602090815260408083206001600160a01b038a168452600701909152812054919250906129e1908490611dee9085612ac8565b6000868152600d602090815260408083206001600160a01b038b1684526007019091529020429190910360019091015550505b6000928352600d602090815260408085206001600160a01b03909616855260079095019052929091209190915550565b60006114f883836040518060400160405280601e81526020017f536166654d6174683a207375627472616374696f6e206f766572666c6f770000815250612553565b60006114f883836040518060400160405280601a81526020017f536166654d6174683a206469766973696f6e206279207a65726f000000000000815250612b7b565b600082612ad757506000610c3f565b82820282848281612ae457fe5b04146114f85760405162461bcd60e51b8152600401808060200182810382526021815260200180612e746021913960400191505060405180910390fd5b6000828201838110156114f8576040805162461bcd60e51b815260206004820152601b60248201527f536166654d6174683a206164646974696f6e206f766572666c6f770000000000604482015290519081900360640190fd5b60008183612bca5760405162461bcd60e51b81526020600482018181528351602484015283519092839260449091019190850190808383600083156125a757818101518382015260200161258f565b506000838581612bd657fe5b0495945050505050565b82600a8101928215612c28579160200282015b82811115612c2857825182546001600160a01b0319166001600160a01b03909116178255602090920191600190910190612bf3565b50612c34929150612d00565b5090565b8260028101928215612c66579160200282015b82811115612c66578251825591602001919060010190612c4b565b50612c34929150612d1f565b828054828255906000526020600020908101928215612c285791602002820182811115612c2857825182546001600160a01b0319166001600160a01b03909116178255602090920191600190910190612bf3565b828054828255906000526020600020908101928215612c665791602002820182811115612c66578251825591602001919060010190612c4b565b5b80821115612c345780546001600160a01b0319168155600101612d01565b5b80821115612c345760008155600101612d2056fe455243313135353a2062616c616e636520717565727920666f7220746865207a65726f20616464726573734f776e61626c653a206e6577206f776e657220697320746865207a65726f2061646472657373455243313135353a207461726765742061646472657373206d757374206265206e6f6e2d7a65726f455243313135353a2063616e6e6f742073657420617070726f76616c2073746174757320666f722073656c66455243313135353a206163636f756e747320616e6420494473206d75737420686176652073616d65206c656e67746873455243313135353a20676f7420756e6b6e6f776e2076616c75652066726f6d206f6e4552433131353542617463685265636569766564455243313135353a20736f6d65206164647265737320696e2062617463682062616c616e6365207175657279206973207a65726f536166654d6174683a206d756c7469706c69636174696f6e206f766572666c6f774f776e61626c653a2063616c6c6572206973206e6f7420746865206f776e6572455243313135353a206e656564206f70657261746f7220617070726f76616c20666f7220337264207061727479207472616e7366657273455243313135353a2049447320616e642076616c756573206d75737420686176652073616d65206c656e67746873455243313135353a20676f7420756e6b6e6f776e2076616c75652066726f6d206f6e455243313135355265636569766564a2646970667358221220a9c5a61aa3e0e787662743d9aa1761084d57cbd534a3a8fff8f78117dccb324664736f6c634300070100334f776e61626c653a206e6577206f776e657220697320746865207a65726f2061646472657373",
  "immutableReferences": {},
  "source": "// SPDX-License-Identifier: GPL-3.0-or-later\npragma solidity ^0.7.1;\n\nimport \"../utils/SafeMath.sol\";\nimport \"./ERC1155.sol\";\n\ncontract Mintable is ERC1155 {\n\n    using SafeMath for uint256;\n\n\n    /****************************\n    MODIFIERS\n    *****************************/\n\n\n    modifier onlyTokenizer() {\n        require(_isTokenizer(msg.sender), \"Insufficient permission\");\n        _;\n    }\n\n\n    /****************************\n    EXTERNAL FUNCTIONS\n    *****************************/\n\n\n    /**\n     * @dev Function to authorize an address to create a token.\n     * @param tokenizer The authorized address\n     */\n    function authorizeTokenizer(address tokenizer) external onlyOwner {\n        _users[tokenizer].isTokenizer = true;\n    }\n\n    /**\n     * @dev Function to revoke the authorization to create a token.\n     * @param tokenizer The authorized address\n     */\n    function revokeTokenizer(address tokenizer) external onlyOwner {\n        _users[tokenizer].isTokenizer = false;\n    }\n\n    /**\n     * @dev Function to check if an address is authorized to create a token.\n     * @param tokenizer The authorized address\n     */\n    function isTokenizer(address tokenizer) external view returns (bool) {\n        return _isTokenizer(tokenizer);\n    }\n\n    /**\n     * @dev Function to mint an amount of a token with the given ID.\n     * @param recipient The address that will own the minted tokens\n     * @param id ID of the token to be minted\n     * @param supply Amount of the token to be minted\n     * @param metadataHash Metadata file hash\n     * @param transactionFees transaction fees: [lumpSumFees (in WEI), valueProportionalFees (ratio of transfered amount * 10**8), storageFees (in storageCredit * 10**8)]\n     * @param feesRecipients list of addresses receiving transfer fees\n     * @param feesRecipientsPercentage list of percentage, each one for the corresponding feesRecipients\n     * @param minHoldingForCallback minimum holding to propose a callback\n     * @param isPrivate true if holder need approval\n     * @param legalAuthority address of the legal authority\n     */\n    function createToken(address recipient,\n                         uint256 id,\n                         uint256 supply,\n                         uint256 decimals,\n                         uint256 metadataHash,\n                         uint256[3] memory transactionFees,\n                         address[] memory feesRecipients,\n                         uint256[] memory feesRecipientsPercentage,\n                         uint256 minHoldingForCallback,\n                         bool isPrivate,\n                         address legalAuthority)\n    external onlyTokenizer {\n        _createToken(recipient,\n                     id,\n                     supply,\n                     decimals,\n                     metadataHash,\n                     transactionFees,\n                     feesRecipients,\n                     feesRecipientsPercentage,\n                     minHoldingForCallback,\n                     isPrivate,\n                     legalAuthority);\n        emit TransferSingle(msg.sender, address(0), recipient, id, supply);\n    }\n\n    /**\n     * @dev Function to mint tokens in batch.\n     * @param id Identifier of the template\n     * @param ids list of IDs of the tokens to be minted\n     * @param metadataHashes list of metadata file hashes\n     */\n    function cloneToken(uint256 id,\n                        uint256[] memory ids,\n                        uint256[] memory metadataHashes)\n    external onlyTokenizer {\n        require(_tokens[id].supply > 0 &&\n                ids.length == metadataHashes.length, \"Invalid arguments\");\n\n        for (uint256 i = 0; i < ids.length; ++i) {\n            _cloneToken(id, ids[i], metadataHashes[i]);\n\n            emit TransferSingle(msg.sender,\n                                address(0),\n                                _tokens[id].holderList[0],\n                                ids[i],\n                                _tokens[id].supply);\n        }\n    }\n\n\n    /****************************\n    INTERNAL FUNCTIONS\n    *****************************/\n\n\n    function _isTokenizer(address tokenizer) internal view returns (bool) {\n        return _users[tokenizer].isTokenizer || _isOwner();\n    }\n\n    function _setToken(uint256 id,\n                       uint256 metadataHash,\n                       uint256[3] memory transactionFees,\n                       address[] memory feesRecipients,\n                       uint256[] memory feesRecipientsPercentage,\n                       uint256 minHoldingForCallback,\n                       bool isPrivate,\n                       address legalAuthority)\n    internal {\n        uint256 totalPercentage = 0;\n        for (uint256 i = 0; i < feesRecipientsPercentage.length; ++i)\n            totalPercentage += feesRecipientsPercentage[i];\n\n        require(feesRecipients.length > 0 && feesRecipients.length == feesRecipients.length &&\n                totalPercentage == 10000 &&\n                minHoldingForCallback < 10000,\n                \"Invalid arguments\");\n\n        _tokens[id].metadataHash = metadataHash;\n        _tokens[id].lumpSumTransactionFees = transactionFees[0];\n        _tokens[id].valueTransactionFees = transactionFees[1];\n        _tokens[id].storageCostHistory.push([block.timestamp, transactionFees[2]]);\n        _tokens[id].feesRecipients = feesRecipients;\n        _tokens[id].feesRecipientsPercentage = feesRecipientsPercentage;\n        _tokens[id].minHoldingForCallback = minHoldingForCallback;\n        _tokens[id].isPrivate = isPrivate;\n        _tokens[id].legalAuthority = legalAuthority;\n    }\n\n\n    function _createToken(address recipient,\n                          uint256 id,\n                          uint256 supply,\n                          uint256 decimals,\n                          uint256 metadataHash,\n                          uint256[3] memory transactionFees,\n                          address[] memory feesRecipients,\n                          uint256[] memory feesRecipientsPercentage,\n                          uint256 minHoldingForCallback,\n                          bool isPrivate,\n                          address legalAuthority)\n    internal {\n        require(_tokens[id].supply == 0 && supply > 0, \"Invalid arguments\");\n\n        _tokens[id].supply = supply;\n        _tokens[id].decimals = decimals;\n        _tokens[id].holders[msg.sender].isMaintener = true;\n        _tokens[id].holders[recipient].isApproved = true;\n\n        _setToken(id,\n                  metadataHash,\n                  transactionFees,\n                  feesRecipients,\n                  feesRecipientsPercentage,\n                  minHoldingForCallback,\n                  isPrivate,\n                  legalAuthority);\n\n        _addToBalance(recipient, id, supply);\n    }\n\n    function _cloneToken(uint256 id, uint256 cloneId, uint256 metadataHash) internal {\n        _createToken(_tokens[id].holderList[0],\n                     cloneId,\n                     _tokens[id].supply,\n                     _tokens[id].decimals,\n                     metadataHash,\n                     [\n                       _tokens[id].lumpSumTransactionFees,\n                       _tokens[id].valueTransactionFees,\n                       _tokens[id].storageCostHistory[0][1]\n                     ],\n                     _tokens[id].feesRecipients,\n                     _tokens[id].feesRecipientsPercentage,\n                     _tokens[id].minHoldingForCallback,\n                     _tokens[id].isPrivate,\n                     _tokens[id].legalAuthority);\n    }\n\n}\n",
  "sourcePath": "/home/ouziel/Work/StashBloxContracts/contracts/lib/Mintable.sol",
  "compiler": {
    "name": "solc",
    "version": "0.7.1+commit.f4a555be.Emscripten.clang"
  },
  "schemaVersion": "3.2.3",
  "updatedAt": "2020-10-20T21:56:14.896Z",
  "devdoc": {
    "kind": "dev",
    "methods": {
      "authorizeTokenizer(address)": {
        "details": "Function to authorize an address to create a token.",
        "params": {
          "tokenizer": "The authorized address"
        }
      },
      "balanceOf(address,uint256)": {
        "details": "Get the specified address' balance for token with specified ID. Attempting to query the zero account for a balance will result in a revert.",
        "params": {
          "account": "The address of the token holder",
          "id": "ID of the token"
        },
        "returns": {
          "_0": "The account's balance of the token type requested"
        }
      },
      "balanceOfBatch(address[],uint256[])": {
        "details": "Get the balance of multiple account/token pairs. If any of the query accounts is the zero account, this query will revert.",
        "params": {
          "accounts": "The addresses of the token holders",
          "ids": "IDs of the tokens"
        },
        "returns": {
          "_0": "Balances for each account and token id pair"
        }
      },
      "cloneToken(uint256,uint256[],uint256[])": {
        "details": "Function to mint tokens in batch.",
        "params": {
          "id": "Identifier of the template",
          "ids": "list of IDs of the tokens to be minted",
          "metadataHashes": "list of metadata file hashes"
        }
      },
      "createToken(address,uint256,uint256,uint256,uint256,uint256[3],address[],uint256[],uint256,bool,address)": {
        "details": "Function to mint an amount of a token with the given ID.",
        "params": {
          "feesRecipients": "list of addresses receiving transfer fees",
          "feesRecipientsPercentage": "list of percentage, each one for the corresponding feesRecipients",
          "id": "ID of the token to be minted",
          "isPrivate": "true if holder need approval",
          "legalAuthority": "address of the legal authority",
          "metadataHash": "Metadata file hash",
          "minHoldingForCallback": "minimum holding to propose a callback",
          "recipient": "The address that will own the minted tokens",
          "supply": "Amount of the token to be minted",
          "transactionFees": "transaction fees: [lumpSumFees (in WEI), valueProportionalFees (ratio of transfered amount * 10**8), storageFees (in storageCredit * 10**8)]"
        }
      },
      "isApprovedForAll(address,address)": {
        "params": {
          "account": "The account of the Tokens",
          "operator": "Address of authorized operator"
        },
        "returns": {
          "_0": "True if the operator is approved, false if not"
        }
      },
      "isTokenizer(address)": {
        "details": "Function to check if an address is authorized to create a token.",
        "params": {
          "tokenizer": "The authorized address"
        }
      },
      "owner()": {
        "details": "Returns the address of the current owner."
      },
      "revokeTokenizer(address)": {
        "details": "Function to revoke the authorization to create a token.",
        "params": {
          "tokenizer": "The authorized address"
        }
      },
      "safeBatchTransferFrom(address,address,uint256[],uint256[],bytes)": {
        "details": "Transfers `values` amount(s) of `ids` from the `from` address to the `to` address specified. Caller must be approved to manage the tokens being transferred out of the `from` account. If `to` is a smart contract, will call `onERC1155BatchReceived` on `to` and act appropriately.",
        "params": {
          "data": "Data forwarded to `onERC1155Received` if `to` is a contract receiver",
          "from": "Source address",
          "ids": "IDs of each token type",
          "to": "Target address",
          "values": "Transfer amounts per token type"
        }
      },
      "safeTransferFrom(address,address,uint256,uint256,bytes)": {
        "details": "Transfers `value` amount of an `id` from the `from` address to the `to` address specified. Caller must be approved to manage the tokens being transferred out of the `from` account. If `to` is a smart contract, will call `onERC1155Received` on `to` and act appropriately.",
        "params": {
          "data": "Data forwarded to `onERC1155Received` if `to` is a contract receiver",
          "from": "Source address",
          "id": "ID of the token type",
          "to": "Target address",
          "value": "Transfer amount"
        }
      },
      "setApprovalForAll(address,bool)": {
        "details": "Sets or unsets the approval of a given operator. An operator is allowed to transfer all tokens of the sender on their behalf. Because an account already has operator privileges for itself, this function will revert if the account attempts to set the approval status for itself.",
        "params": {
          "approved": "representing the status of the approval to be set",
          "operator": "address to set the approval"
        }
      },
      "setProxyRegistryAddress(address[10])": {
        "details": "Function to update the operator whitelist",
        "params": {
          "proxyAddresses": "List of addresses"
        }
      },
      "supportsInterface(bytes4)": {
        "params": {
          "_interfaceID": "The interface identifier, as specified in ERC-165"
        },
        "returns": {
          "_0": "`true` if the contract implements `_interfaceID` and"
        }
      },
      "transactionFees(address,uint256,uint256)": {
        "details": "Function to get the transaction price to transfer tokens.",
        "params": {
          "account": "the address from where to transfer the tokens",
          "id": "The token ID",
          "value": "The amount to transfer"
        }
      },
      "transferOwnership(address)": {
        "details": "Transfers ownership of the contract to a new account (`newOwner`). Can only be called by the current owner."
      }
    },
    "version": 1
  },
  "userdoc": {
    "kind": "user",
    "methods": {
      "isApprovedForAll(address,address)": {
        "notice": "Queries the approval status of an operator for a given account."
      },
      "supportsInterface(bytes4)": {
        "notice": "Query if a contract implements an interface"
      }
    },
    "version": 1
  }
}