{
  "contractName": "Privatizable",
  "abi": [
    {
      "anonymous": false,
      "inputs": [
        {
          "indexed": true,
          "internalType": "address",
          "name": "_owner",
          "type": "address"
        },
        {
          "indexed": true,
          "internalType": "address",
          "name": "_operator",
          "type": "address"
        },
        {
          "indexed": false,
          "internalType": "bool",
          "name": "_approved",
          "type": "bool"
        }
      ],
      "name": "ApprovalForAll",
      "type": "event"
    },
    {
      "anonymous": false,
      "inputs": [
        {
          "indexed": true,
          "internalType": "address",
          "name": "previousOwner",
          "type": "address"
        },
        {
          "indexed": true,
          "internalType": "address",
          "name": "newOwner",
          "type": "address"
        }
      ],
      "name": "OwnershipTransferred",
      "type": "event"
    },
    {
      "anonymous": false,
      "inputs": [
        {
          "indexed": true,
          "internalType": "uint256",
          "name": "_id",
          "type": "uint256"
        },
        {
          "indexed": false,
          "internalType": "uint256",
          "name": "_documentHash",
          "type": "uint256"
        }
      ],
      "name": "TokenUpdated",
      "type": "event"
    },
    {
      "anonymous": false,
      "inputs": [
        {
          "indexed": true,
          "internalType": "address",
          "name": "_operator",
          "type": "address"
        },
        {
          "indexed": true,
          "internalType": "address",
          "name": "_from",
          "type": "address"
        },
        {
          "indexed": true,
          "internalType": "address",
          "name": "_to",
          "type": "address"
        },
        {
          "indexed": false,
          "internalType": "uint256[]",
          "name": "_ids",
          "type": "uint256[]"
        },
        {
          "indexed": false,
          "internalType": "uint256[]",
          "name": "_values",
          "type": "uint256[]"
        }
      ],
      "name": "TransferBatch",
      "type": "event"
    },
    {
      "anonymous": false,
      "inputs": [
        {
          "indexed": true,
          "internalType": "address",
          "name": "_operator",
          "type": "address"
        },
        {
          "indexed": true,
          "internalType": "address",
          "name": "_from",
          "type": "address"
        },
        {
          "indexed": true,
          "internalType": "address",
          "name": "_to",
          "type": "address"
        },
        {
          "indexed": false,
          "internalType": "uint256",
          "name": "_id",
          "type": "uint256"
        },
        {
          "indexed": false,
          "internalType": "uint256",
          "name": "_value",
          "type": "uint256"
        }
      ],
      "name": "TransferSingle",
      "type": "event"
    },
    {
      "anonymous": false,
      "inputs": [
        {
          "indexed": false,
          "internalType": "string",
          "name": "_value",
          "type": "string"
        },
        {
          "indexed": true,
          "internalType": "uint256",
          "name": "_id",
          "type": "uint256"
        }
      ],
      "name": "URI",
      "type": "event"
    },
    {
      "inputs": [
        {
          "internalType": "uint256",
          "name": "",
          "type": "uint256"
        }
      ],
      "name": "_callbacks",
      "outputs": [
        {
          "internalType": "uint256",
          "name": "tokenId",
          "type": "uint256"
        },
        {
          "internalType": "uint256",
          "name": "price",
          "type": "uint256"
        },
        {
          "internalType": "uint256",
          "name": "escrowedAmount",
          "type": "uint256"
        },
        {
          "internalType": "uint256",
          "name": "callCounter",
          "type": "uint256"
        },
        {
          "internalType": "uint256",
          "name": "documentHash",
          "type": "uint256"
        },
        {
          "internalType": "address",
          "name": "caller",
          "type": "address"
        },
        {
          "internalType": "bool",
          "name": "needLegalApproval",
          "type": "bool"
        },
        {
          "internalType": "bool",
          "name": "approvedByLegal",
          "type": "bool"
        },
        {
          "internalType": "bool",
          "name": "refused",
          "type": "bool"
        },
        {
          "internalType": "bool",
          "name": "accepted",
          "type": "bool"
        },
        {
          "internalType": "bool",
          "name": "completed",
          "type": "bool"
        }
      ],
      "stateMutability": "view",
      "type": "function"
    },
    {
      "inputs": [],
      "name": "_config",
      "outputs": [
        {
          "internalType": "uint256",
          "name": "callbackAutoExecuteMaxAddresses",
          "type": "uint256"
        },
        {
          "internalType": "string",
          "name": "baseURI",
          "type": "string"
        },
        {
          "internalType": "string",
          "name": "versionRecipient",
          "type": "string"
        },
        {
          "internalType": "address",
          "name": "owner",
          "type": "address"
        },
        {
          "internalType": "address",
          "name": "GSNTrustedForwarder",
          "type": "address"
        },
        {
          "internalType": "address",
          "name": "proxyRegistryAddress",
          "type": "address"
        }
      ],
      "stateMutability": "view",
      "type": "function"
    },
    {
      "inputs": [
        {
          "internalType": "uint256",
          "name": "",
          "type": "uint256"
        }
      ],
      "name": "_tokens",
      "outputs": [
        {
          "internalType": "uint256",
          "name": "supply",
          "type": "uint256"
        },
        {
          "internalType": "uint256",
          "name": "decimals",
          "type": "uint256"
        },
        {
          "internalType": "uint256",
          "name": "lumpSumTransactionFees",
          "type": "uint256"
        },
        {
          "internalType": "uint256",
          "name": "valueTransactionFees",
          "type": "uint256"
        },
        {
          "internalType": "uint256",
          "name": "minHoldingForCallback",
          "type": "uint256"
        },
        {
          "internalType": "uint256",
          "name": "metadataHash",
          "type": "uint256"
        },
        {
          "internalType": "address",
          "name": "legalAuthority",
          "type": "address"
        },
        {
          "internalType": "bool",
          "name": "isPrivate",
          "type": "bool"
        },
        {
          "internalType": "bool",
          "name": "locked",
          "type": "bool"
        }
      ],
      "stateMutability": "view",
      "type": "function"
    },
    {
      "inputs": [
        {
          "internalType": "address",
          "name": "",
          "type": "address"
        }
      ],
      "name": "_users",
      "outputs": [
        {
          "internalType": "bool",
          "name": "isTokenizer",
          "type": "bool"
        },
        {
          "internalType": "bool",
          "name": "isLocked",
          "type": "bool"
        },
        {
          "internalType": "uint256",
          "name": "ETHBalance",
          "type": "uint256"
        }
      ],
      "stateMutability": "view",
      "type": "function"
    },
    {
      "inputs": [
        {
          "internalType": "uint256",
          "name": "id",
          "type": "uint256"
        },
        {
          "internalType": "address",
          "name": "maintener",
          "type": "address"
        }
      ],
      "name": "authorizeMaintener",
      "outputs": [],
      "stateMutability": "nonpayable",
      "type": "function"
    },
    {
      "inputs": [
        {
          "internalType": "address",
          "name": "tokenizer",
          "type": "address"
        }
      ],
      "name": "authorizeTokenizer",
      "outputs": [],
      "stateMutability": "nonpayable",
      "type": "function"
    },
    {
      "inputs": [
        {
          "internalType": "address",
          "name": "account",
          "type": "address"
        },
        {
          "internalType": "uint256",
          "name": "id",
          "type": "uint256"
        }
      ],
      "name": "averageAge",
      "outputs": [
        {
          "internalType": "uint256",
          "name": "",
          "type": "uint256"
        }
      ],
      "stateMutability": "view",
      "type": "function"
    },
    {
      "inputs": [
        {
          "internalType": "address",
          "name": "account",
          "type": "address"
        },
        {
          "internalType": "uint256",
          "name": "id",
          "type": "uint256"
        }
      ],
      "name": "balanceOf",
      "outputs": [
        {
          "internalType": "uint256",
          "name": "",
          "type": "uint256"
        }
      ],
      "stateMutability": "view",
      "type": "function"
    },
    {
      "inputs": [
        {
          "internalType": "address[]",
          "name": "accounts",
          "type": "address[]"
        },
        {
          "internalType": "uint256[]",
          "name": "ids",
          "type": "uint256[]"
        }
      ],
      "name": "balanceOfBatch",
      "outputs": [
        {
          "internalType": "uint256[]",
          "name": "",
          "type": "uint256[]"
        }
      ],
      "stateMutability": "view",
      "type": "function"
    },
    {
      "inputs": [
        {
          "internalType": "uint256",
          "name": "id",
          "type": "uint256"
        },
        {
          "internalType": "uint256[]",
          "name": "ids",
          "type": "uint256[]"
        },
        {
          "internalType": "uint256[]",
          "name": "metadataHashes",
          "type": "uint256[]"
        }
      ],
      "name": "cloneToken",
      "outputs": [],
      "stateMutability": "nonpayable",
      "type": "function"
    },
    {
      "inputs": [
        {
          "internalType": "address",
          "name": "recipient",
          "type": "address"
        },
        {
          "internalType": "uint256",
          "name": "id",
          "type": "uint256"
        },
        {
          "internalType": "uint256",
          "name": "supply",
          "type": "uint256"
        },
        {
          "internalType": "uint256",
          "name": "decimals",
          "type": "uint256"
        },
        {
          "internalType": "uint256",
          "name": "metadataHash",
          "type": "uint256"
        },
        {
          "internalType": "uint256[3]",
          "name": "transactionFees",
          "type": "uint256[3]"
        },
        {
          "internalType": "address[]",
          "name": "feesRecipients",
          "type": "address[]"
        },
        {
          "internalType": "uint256[]",
          "name": "feesRecipientsPercentage",
          "type": "uint256[]"
        },
        {
          "internalType": "uint256",
          "name": "minHoldingForCallback",
          "type": "uint256"
        },
        {
          "internalType": "bool",
          "name": "isPrivate",
          "type": "bool"
        },
        {
          "internalType": "address",
          "name": "legalAuthority",
          "type": "address"
        }
      ],
      "name": "createToken",
      "outputs": [],
      "stateMutability": "nonpayable",
      "type": "function"
    },
    {
      "inputs": [
        {
          "internalType": "address",
          "name": "account",
          "type": "address"
        },
        {
          "internalType": "address",
          "name": "operator",
          "type": "address"
        }
      ],
      "name": "isApprovedForAll",
      "outputs": [
        {
          "internalType": "bool",
          "name": "",
          "type": "bool"
        }
      ],
      "stateMutability": "view",
      "type": "function"
    },
    {
      "inputs": [
        {
          "internalType": "uint256",
          "name": "id",
          "type": "uint256"
        },
        {
          "internalType": "address",
          "name": "maintener",
          "type": "address"
        }
      ],
      "name": "isMaintener",
      "outputs": [
        {
          "internalType": "bool",
          "name": "",
          "type": "bool"
        }
      ],
      "stateMutability": "view",
      "type": "function"
    },
    {
      "inputs": [
        {
          "internalType": "address",
          "name": "tokenizer",
          "type": "address"
        }
      ],
      "name": "isTokenizer",
      "outputs": [
        {
          "internalType": "bool",
          "name": "",
          "type": "bool"
        }
      ],
      "stateMutability": "view",
      "type": "function"
    },
    {
      "inputs": [
        {
          "internalType": "address",
          "name": "forwarder",
          "type": "address"
        }
      ],
      "name": "isTrustedForwarder",
      "outputs": [
        {
          "internalType": "bool",
          "name": "",
          "type": "bool"
        }
      ],
      "stateMutability": "view",
      "type": "function"
    },
    {
      "inputs": [],
      "name": "owner",
      "outputs": [
        {
          "internalType": "address",
          "name": "",
          "type": "address"
        }
      ],
      "stateMutability": "view",
      "type": "function"
    },
    {
      "inputs": [
        {
          "internalType": "uint256",
          "name": "id",
          "type": "uint256"
        },
        {
          "internalType": "address",
          "name": "maintener",
          "type": "address"
        }
      ],
      "name": "revokeMaintener",
      "outputs": [],
      "stateMutability": "nonpayable",
      "type": "function"
    },
    {
      "inputs": [
        {
          "internalType": "address",
          "name": "tokenizer",
          "type": "address"
        }
      ],
      "name": "revokeTokenizer",
      "outputs": [],
      "stateMutability": "nonpayable",
      "type": "function"
    },
    {
      "inputs": [
        {
          "internalType": "address",
          "name": "from",
          "type": "address"
        },
        {
          "internalType": "address",
          "name": "to",
          "type": "address"
        },
        {
          "internalType": "uint256[]",
          "name": "ids",
          "type": "uint256[]"
        },
        {
          "internalType": "uint256[]",
          "name": "values",
          "type": "uint256[]"
        },
        {
          "internalType": "bytes",
          "name": "data",
          "type": "bytes"
        }
      ],
      "name": "safeBatchTransferFrom",
      "outputs": [],
      "stateMutability": "payable",
      "type": "function"
    },
    {
      "inputs": [
        {
          "internalType": "address",
          "name": "from",
          "type": "address"
        },
        {
          "internalType": "address",
          "name": "to",
          "type": "address"
        },
        {
          "internalType": "uint256",
          "name": "id",
          "type": "uint256"
        },
        {
          "internalType": "uint256",
          "name": "value",
          "type": "uint256"
        },
        {
          "internalType": "bytes",
          "name": "data",
          "type": "bytes"
        }
      ],
      "name": "safeTransferFrom",
      "outputs": [],
      "stateMutability": "payable",
      "type": "function"
    },
    {
      "inputs": [
        {
          "internalType": "address",
          "name": "operator",
          "type": "address"
        },
        {
          "internalType": "bool",
          "name": "approved",
          "type": "bool"
        }
      ],
      "name": "setApprovalForAll",
      "outputs": [],
      "stateMutability": "nonpayable",
      "type": "function"
    },
    {
      "inputs": [
        {
          "internalType": "address",
          "name": "proxyAddress",
          "type": "address"
        }
      ],
      "name": "setProxyRegistryAddress",
      "outputs": [],
      "stateMutability": "nonpayable",
      "type": "function"
    },
    {
      "inputs": [
        {
          "internalType": "bytes4",
          "name": "_interfaceID",
          "type": "bytes4"
        }
      ],
      "name": "supportsInterface",
      "outputs": [
        {
          "internalType": "bool",
          "name": "",
          "type": "bool"
        }
      ],
      "stateMutability": "pure",
      "type": "function"
    },
    {
      "inputs": [
        {
          "internalType": "address",
          "name": "account",
          "type": "address"
        },
        {
          "internalType": "uint256",
          "name": "id",
          "type": "uint256"
        },
        {
          "internalType": "uint256",
          "name": "value",
          "type": "uint256"
        }
      ],
      "name": "transactionFees",
      "outputs": [
        {
          "internalType": "uint256",
          "name": "",
          "type": "uint256"
        }
      ],
      "stateMutability": "view",
      "type": "function"
    },
    {
      "inputs": [
        {
          "internalType": "address",
          "name": "newOwner",
          "type": "address"
        }
      ],
      "name": "transferOwnership",
      "outputs": [],
      "stateMutability": "nonpayable",
      "type": "function"
    },
    {
      "inputs": [
        {
          "internalType": "uint256",
          "name": "id",
          "type": "uint256"
        },
        {
          "internalType": "uint256",
          "name": "metadataHash",
          "type": "uint256"
        },
        {
          "internalType": "uint256[3]",
          "name": "transactionFees",
          "type": "uint256[3]"
        },
        {
          "internalType": "address[]",
          "name": "feesRecipients",
          "type": "address[]"
        },
        {
          "internalType": "uint256[]",
          "name": "feesRecipientsPercentage",
          "type": "uint256[]"
        },
        {
          "internalType": "uint256",
          "name": "minHoldingForCallback",
          "type": "uint256"
        },
        {
          "internalType": "bool",
          "name": "isPrivate",
          "type": "bool"
        },
        {
          "internalType": "address",
          "name": "legalAuthority",
          "type": "address"
        }
      ],
      "name": "updateToken",
      "outputs": [],
      "stateMutability": "nonpayable",
      "type": "function"
    },
    {
      "inputs": [
        {
          "internalType": "uint256",
          "name": "id",
          "type": "uint256"
        }
      ],
      "name": "uri",
      "outputs": [
        {
          "internalType": "string",
          "name": "",
          "type": "string"
        }
      ],
      "stateMutability": "view",
      "type": "function"
    },
    {
      "inputs": [],
      "name": "versionRecipient",
      "outputs": [
        {
          "internalType": "string",
          "name": "",
          "type": "string"
        }
      ],
      "stateMutability": "view",
      "type": "function"
    },
    {
      "inputs": [
        {
          "internalType": "uint256",
          "name": "id",
          "type": "uint256"
        },
        {
          "internalType": "address",
          "name": "holder",
          "type": "address"
        }
      ],
      "name": "approveHolder",
      "outputs": [],
      "stateMutability": "nonpayable",
      "type": "function"
    },
    {
      "inputs": [
        {
          "internalType": "uint256",
          "name": "id",
          "type": "uint256"
        },
        {
          "internalType": "address",
          "name": "holder",
          "type": "address"
        }
      ],
      "name": "revokeHolder",
      "outputs": [],
      "stateMutability": "nonpayable",
      "type": "function"
    }
  ],
  "bytecode": "0x60806040523480156200001157600080fd5b5062000026620000206200002c565b62000062565b62000133565b60006018361080159062000046575062000046336200011f565b156200005c575060131936013560601c6200005f565b50335b90565b6001600160a01b038116620000c3576040517f08c379a000000000000000000000000000000000000000000000000000000000815260040180806020018281038252602681526020018062003e426026913960400191505060405180910390fd5b6003546040516001600160a01b038084169216907f8be0079c531659141344cd1fd0a4f28419497f9722a3daafe3b4186f6b6457e090600090a3600380546001600160a01b0319166001600160a01b0392909216919091179055565b6004546001600160a01b0390811691161490565b613cff80620001436000396000f3fe6080604052600436106101cc5760003560e01c80637627b732116100f7578063d1660e1811610095578063ed70554d11610064578063ed70554d14610e2a578063f242432a14610ea8578063f2fde38b14610f3b578063f8a5a07c14610f6e576101cc565b8063d1660e1814610d44578063d26ea6c014610d83578063d41d0aa314610db6578063e985e9c514610def576101cc565b80638da5cb5b116100d15780638da5cb5b14610b08578063a22cb46514610b39578063c02f303c14610b74578063c40b87ae14610ba7576101cc565b80637627b73214610a695780638870147b14610a9c5780638aeba37e14610acf576101cc565b8063486ff0cd1161016f578063585941d51161013e578063585941d5146109855780635dafec1b146109be5780635dd2b9a6146109f7578063759c521414610a30576101cc565b8063486ff0cd1461063b5780634ab0d253146106505780634e1273f4146107d2578063572b6c0514610952576101cc565b80632eb2c2d6116101ab5780632eb2c2d6146103035780632ed42bf71461042c5780633cacd7d614610556578063414ed0ce146105a9576101cc565b8062fdd58e146101d157806301ffc9a71461021c5780630e89341c14610264575b600080fd5b3480156101dd57600080fd5b5061020a600480360360408110156101f457600080fd5b506001600160a01b0381351690602001356110a5565b60408051918252519081900360200190f35b34801561022857600080fd5b506102506004803603602081101561023f57600080fd5b50356001600160e01b031916611119565b604080519115158252519081900360200190f35b34801561027057600080fd5b5061028e6004803603602081101561028757600080fd5b5035611160565b6040805160208082528351818301528351919283929083019185019080838360005b838110156102c85781810151838201526020016102b0565b50505050905090810190601f1680156102f55780820380516001836020036101000a031916815260200191505b509250505060405180910390f35b61042a600480360360a081101561031957600080fd5b6001600160a01b038235811692602081013590911691810190606081016040820135600160201b81111561034c57600080fd5b82018360208201111561035e57600080fd5b803590602001918460208302840111600160201b8311171561037f57600080fd5b919390929091602081019035600160201b81111561039c57600080fd5b8201836020820111156103ae57600080fd5b803590602001918460208302840111600160201b831117156103cf57600080fd5b919390929091602081019035600160201b8111156103ec57600080fd5b8201836020820111156103fe57600080fd5b803590602001918460018302840111600160201b8311171561041f57600080fd5b509092509050611201565b005b34801561043857600080fd5b506104416114d4565b604051808781526020018060200180602001866001600160a01b03168152602001856001600160a01b03168152602001846001600160a01b03168152602001838103835288818151815260200191508051906020019080838360005b838110156104b557818101518382015260200161049d565b50505050905090810190601f1680156104e25780820380516001836020036101000a031916815260200191505b50838103825287518152875160209182019189019080838360005b838110156105155781810151838201526020016104fd565b50505050905090810190601f1680156105425780820380516001836020036101000a031916815260200191505b509850505050505050505060405180910390f35b34801561056257600080fd5b506105896004803603602081101561057957600080fd5b50356001600160a01b031661161d565b604080519315158452911515602084015282820152519081900360600190f35b3480156105b557600080fd5b506105d3600480360360208110156105cc57600080fd5b5035611643565b604080519b8c5260208c019a909a528a8a019890985260608a019690965260808901949094526001600160a01b0390921660a0880152151560c0870152151560e086015215156101008501521515610120840152151561014083015251908190036101600190f35b34801561064757600080fd5b5061028e6116b6565b34801561065c57600080fd5b5061042a600480360361014081101561067457600080fd5b6040805160608181018352843594602081013594810193909260a08401929091840190600390839083908082843760009201919091525091949392602081019250359050600160201b8111156106c957600080fd5b8201836020820111156106db57600080fd5b803590602001918460208302840111600160201b831117156106fc57600080fd5b9190808060200260200160405190810160405280939291908181526020018383602002808284376000920191909152509295949360208101935035915050600160201b81111561074b57600080fd5b82018360208201111561075d57600080fd5b803590602001918460208302840111600160201b8311171561077e57600080fd5b919080806020026020016040519081016040528093929190818152602001838360200280828437600092019190915250929550508235935050506020810135151590604001356001600160a01b031661174a565b3480156107de57600080fd5b50610902600480360360408110156107f557600080fd5b810190602081018135600160201b81111561080f57600080fd5b82018360208201111561082157600080fd5b803590602001918460208302840111600160201b8311171561084257600080fd5b9190808060200260200160405190810160405280939291908181526020018383602002808284376000920191909152509295949360208101935035915050600160201b81111561089157600080fd5b8201836020820111156108a357600080fd5b803590602001918460208302840111600160201b831117156108c457600080fd5b919080806020026020016040519081016040528093929190818152602001838360200280828437600092019190915250929550611848945050505050565b60408051602080825283518183015283519192839290830191858101910280838360005b8381101561093e578181015183820152602001610926565b505050509050019250505060405180910390f35b34801561095e57600080fd5b506102506004803603602081101561097557600080fd5b50356001600160a01b03166119cc565b34801561099157600080fd5b5061020a600480360360408110156109a857600080fd5b506001600160a01b0381351690602001356119e0565b3480156109ca57600080fd5b50610250600480360360408110156109e157600080fd5b50803590602001356001600160a01b0316611a1a565b348015610a0357600080fd5b5061042a60048036036040811015610a1a57600080fd5b50803590602001356001600160a01b0316611a26565b348015610a3c57600080fd5b5061042a60048036036040811015610a5357600080fd5b50803590602001356001600160a01b0316611ab9565b348015610a7557600080fd5b5061042a60048036036020811015610a8c57600080fd5b50356001600160a01b0316611b47565b348015610aa857600080fd5b5061042a60048036036020811015610abf57600080fd5b50356001600160a01b0316611bb2565b348015610adb57600080fd5b5061042a60048036036040811015610af257600080fd5b50803590602001356001600160a01b0316611c1a565b348015610b1457600080fd5b50610b1d611c97565b604080516001600160a01b039092168252519081900360200190f35b348015610b4557600080fd5b5061042a60048036036040811015610b5c57600080fd5b506001600160a01b0381351690602001351515611ca6565b348015610b8057600080fd5b5061025060048036036020811015610b9757600080fd5b50356001600160a01b0316611d99565b348015610bb357600080fd5b5061042a60048036036101a0811015610bcb57600080fd5b60408051606081810183526001600160a01b03853516946020810135949381013593828201359360808301359391830192916101008301919060a0840190600390839083908082843760009201919091525091949392602081019250359050600160201b811115610c3b57600080fd5b820183602082011115610c4d57600080fd5b803590602001918460208302840111600160201b83111715610c6e57600080fd5b9190808060200260200160405190810160405280939291908181526020018383602002808284376000920191909152509295949360208101935035915050600160201b811115610cbd57600080fd5b820183602082011115610ccf57600080fd5b803590602001918460208302840111600160201b83111715610cf057600080fd5b919080806020026020016040519081016040528093929190818152602001838360200280828437600092019190915250929550508235935050506020810135151590604001356001600160a01b0316611da4565b348015610d5057600080fd5b5061020a60048036036060811015610d6757600080fd5b506001600160a01b038135169060208101359060400135611e7b565b348015610d8f57600080fd5b5061042a60048036036020811015610da657600080fd5b50356001600160a01b0316611e90565b348015610dc257600080fd5b5061042a60048036036040811015610dd957600080fd5b50803590602001356001600160a01b0316611ef9565b348015610dfb57600080fd5b5061025060048036036040811015610e1257600080fd5b506001600160a01b0381358116916020013516611f73565b348015610e3657600080fd5b50610e5460048036036020811015610e4d57600080fd5b5035611f7f565b60408051998a5260208a0198909852888801969096526060880194909452608087019290925260a08601526001600160a01b031660c0850152151560e0840152151561010083015251908190036101200190f35b61042a600480360360a0811015610ebe57600080fd5b6001600160a01b03823581169260208101359091169160408201359160608101359181019060a081016080820135600160201b811115610efd57600080fd5b820183602082011115610f0f57600080fd5b803590602001918460018302840111600160201b83111715610f3057600080fd5b509092509050611fdb565b348015610f4757600080fd5b5061042a60048036036020811015610f5e57600080fd5b50356001600160a01b0316612152565b348015610f7a57600080fd5b5061042a60048036036060811015610f9157600080fd5b81359190810190604081016020820135600160201b811115610fb257600080fd5b820183602082011115610fc457600080fd5b803590602001918460208302840111600160201b83111715610fe557600080fd5b9190808060200260200160405190810160405280939291908181526020018383602002808284376000920191909152509295949360208101935035915050600160201b81111561103457600080fd5b82018360208201111561104657600080fd5b803590602001918460208302840111600160201b8311171561106757600080fd5b9190808060200260200160405190810160405280939291908181526020018383602002808284376000920191909152509295506121a5945050505050565b60006001600160a01b0383166110ec5760405162461bcd60e51b815260040180806020018281038252602b815260200180613ab4602b913960400191505060405180910390fd5b5060008181526007602081815260408084206001600160a01b038716855290920190529020545b92915050565b60006001600160e01b031982166301ffc9a760e01b148061114a57506001600160e01b03198216636cdb3d1360e11b145b156111575750600161115b565b5060005b919050565b60018054604080516020600284861615610100026000190190941693909304601f810184900484028201840190925281815260609361111393919290918301828280156111ee5780601f106111c3576101008083540402835291602001916111ee565b820191906000526020600020905b8154815290600101906020018083116111d157829003601f168201915b50505050506111fc84612353565b61240f565b84831461123f5760405162461bcd60e51b815260040180806020018281038252602e815260200180613c6b602e913960400191505060405180910390fd5b6001600160a01b0387166112845760405162461bcd60e51b8152600401808060200182810382526028815260200180613b056028913960400191505060405180910390fd5b61128c612519565b6001600160a01b0316886001600160a01b031614806112bd57506112b7886112b2612519565b611f73565b15156001145b6112f85760405162461bcd60e51b8152600401808060200182810382526037815260200180613c346037913960400191505060405180910390fd5b611367888888888080602002602001604051908101604052809392919081815260200183836020028082843760009201919091525050604080516020808c0282810182019093528b82529093508b92508a91829185019084908082843760009201919091525061254b92505050565b866001600160a01b0316886001600160a01b0316611383612519565b6001600160a01b03167f4a39dc06d4c0dbc64b70af90fd698a233a518aa5d07e595d983b8c0526c8f7fb898989896040518080602001806020018381038352878782818152602001925060200280828437600083820152601f01601f19169091018481038352858152602090810191508690860280828437600083820152604051601f909101601f19169092018290039850909650505050505050a46114ca61142a612519565b898989898080602002602001604051908101604052809392919081815260200183836020028082843760009201919091525050604080516020808d0282810182019093528c82529093508c92508b91829185019084908082843760009201919091525050604080516020601f8c018190048102820181019092528a815292508a915089908190840183828082843760009201919091525061260592505050565b5050505050505050565b6000805460018054604080516020600284861615610100026000190190941693909304601f810184900484028201840190925281815293949392918301828280156115605780601f1061153557610100808354040283529160200191611560565b820191906000526020600020905b81548152906001019060200180831161154357829003601f168201915b50505060028085018054604080516020601f60001961010060018716150201909416959095049283018590048502810185019091528181529596959450909250908301828280156115f25780601f106115c7576101008083540402835291602001916115f2565b820191906000526020600020905b8154815290600101906020018083116115d557829003601f168201915b505050506003830154600484015460059094015492936001600160a01b039182169390821692501686565b6006602052600090815260409020805460019091015460ff808316926101009004169083565b60086020526000908152604090208054600182015460028301546003840154600485015460059095015493949293919290916001600160a01b0381169060ff600160a01b8204811691600160a81b8104821691600160b01b8204811691600160b81b8104821691600160c01b909104168b565b60028054604080516020601f600019610100600187161502019094168590049384018190048102820181019092528281526060939092909183018282801561173f5780601f106117145761010080835404028352916020019161173f565b820191906000526020600020905b81548152906001019060200180831161172257829003601f168201915b505050505090505b90565b8761175c81611757612519565b6127f6565b6117a7576040805162461bcd60e51b815260206004820152601760248201527624b739bab33334b1b4b2b73a103832b936b4b9b9b4b7b760491b604482015290519081900360640190fd5b6000898152600760205260409020546117f7576040805162461bcd60e51b815260206004820152600d60248201526c2ab735b737bbb7103a37b5b2b760991b604482015290519081900360640190fd5b611807898989898989898961282f565b6040805189815290518a917f199acc06cd2556bbc146fa3cb578799037dffcbf256eca32aaf2ef656925d2fd919081900360200190a2505050505050505050565b6060815183511461188a5760405162461bcd60e51b8152600401808060200182810382526030815260200180613b596030913960400191505060405180910390fd5b6060835167ffffffffffffffff811180156118a457600080fd5b506040519080825280602002602001820160405280156118ce578160200160208202803683370190505b50905060005b84518110156119c45760006001600160a01b03168582815181106118f457fe5b60200260200101516001600160a01b031614156119425760405162461bcd60e51b8152600401808060200182810382526034815260200180613bbf6034913960400191505060405180910390fd5b6007600085838151811061195257fe5b60200260200101518152602001908152602001600020600701600086838151811061197957fe5b60200260200101516001600160a01b03166001600160a01b03168152602001908152602001600020600001548282815181106119b157fe5b60209081029190910101526001016118d4565b509392505050565b6004546001600160a01b0390811691161490565b60008181526007602081815260408084206001600160a01b03871685529092019052812060010154611a139042906129d3565b9392505050565b6000611a1383836127f6565b81611a3381611757612519565b611a7e576040805162461bcd60e51b815260206004820152601760248201527624b739bab33334b1b4b2b73a103832b936b4b9b9b4b7b760491b604482015290519081900360640190fd5b5060009182526007602081815260408085206001600160a01b0390941685529290910190529020600201805462ff0000191662010000179055565b81611ac681611757612519565b611b11576040805162461bcd60e51b815260206004820152601760248201527624b739bab33334b1b4b2b73a103832b936b4b9b9b4b7b760491b604482015290519081900360640190fd5b5060009182526007602081815260408085206001600160a01b0390941685529290910190529020600201805462ff000019169055565b611b4f612a15565b611b8e576040805162461bcd60e51b81526020600482018190526024820152600080516020613c14833981519152604482015290519081900360640190fd5b6001600160a01b03166000908152600660205260409020805460ff19166001179055565b611bba612a15565b611bf9576040805162461bcd60e51b81526020600482018190526024820152600080516020613c14833981519152604482015290519081900360640190fd5b6001600160a01b03166000908152600660205260409020805460ff19169055565b611c22612a15565b611c61576040805162461bcd60e51b81526020600482018190526024820152600080516020613c14833981519152604482015290519081900360640190fd5b60009182526007602081815260408085206001600160a01b0390941685529290910190529020600201805460ff19166001179055565b6003546001600160a01b031690565b816001600160a01b0316611cb8612519565b6001600160a01b03161415611cfe5760405162461bcd60e51b815260040180806020018281038252602c815260200180613b2d602c913960400191505060405180910390fd5b8060066000611d0b612519565b6001600160a01b0390811682526020808301939093526040918201600090812091871680825260039092019093529120805460ff191692151592909217909155611d53612519565b6001600160a01b03167f17307eab39ab6107e8899845ad3d59bd9653f200f220920489ca2b5937696c318360405180821515815260200191505060405180910390a35050565b600061111382612a3b565b611db4611daf612519565b612a3b565b611dff576040805162461bcd60e51b815260206004820152601760248201527624b739bab33334b1b4b2b73a103832b936b4b9b9b4b7b760491b604482015290519081900360640190fd5b611e128b8b8b8b8b8b8b8b8b8b8b612a65565b6001600160a01b038b166000611e26612519565b6001600160a01b03167fc3d58168c5ae7397731d063d5bbf3d657854427343f4c083240f7aacaa2d0f628d8d604051808381526020018281526020019250505060405180910390a45050505050505050505050565b6000611e88848484612ba4565b949350505050565b611e98612a15565b611ed7576040805162461bcd60e51b81526020600482018190526024820152600080516020613c14833981519152604482015290519081900360640190fd5b600580546001600160a01b0319166001600160a01b0392909216919091179055565b611f01612a15565b611f40576040805162461bcd60e51b81526020600482018190526024820152600080516020613c14833981519152604482015290519081900360640190fd5b60009182526007602081815260408085206001600160a01b0390941685529290910190529020600201805460ff19169055565b6000611a138383612d8a565b600760205260009081526040902080546001820154600283015460038401546004850154600586015460069096015494959394929391929091906001600160a01b0381169060ff600160a01b8204811691600160a81b90041689565b6001600160a01b0385166120205760405162461bcd60e51b8152600401808060200182810382526028815260200180613b056028913960400191505060405180910390fd5b612028612519565b6001600160a01b0316866001600160a01b03161480612054575061204e866112b2612519565b15156001145b61208f5760405162461bcd60e51b8152600401808060200182810382526037815260200180613c346037913960400191505060405180910390fd5b61209b86868686612dcf565b846001600160a01b0316866001600160a01b03166120b7612519565b6001600160a01b03167fc3d58168c5ae7397731d063d5bbf3d657854427343f4c083240f7aacaa2d0f628787604051808381526020018281526020019250505060405180910390a461214a61210a612519565b8787878787878080601f016020809104026020016040519081016040528093929190818152602001838380828437600092019190915250612e4792505050565b505050505050565b61215a612a15565b612199576040805162461bcd60e51b81526020600482018190526024820152600080516020613c14833981519152604482015290519081900360640190fd5b6121a281612fbc565b50565b6121b0611daf612519565b6121fb576040805162461bcd60e51b815260206004820152601760248201527624b739bab33334b1b4b2b73a103832b936b4b9b9b4b7b760491b604482015290519081900360640190fd5b60008381526007602052604090205415801590612219575080518251145b61225e576040805162461bcd60e51b8152602060048201526011602482015270496e76616c696420617267756d656e747360781b604482015290519081900360640190fd5b60005b825181101561234d5761229b8484838151811061227a57fe5b602002602001015184848151811061228e57fe5b602002602001015161305d565b600084815260076020526040812060080180549091906122b757fe5b60009182526020822001546001600160a01b0316906122d4612519565b6001600160a01b03167fc3d58168c5ae7397731d063d5bbf3d657854427343f4c083240f7aacaa2d0f6286858151811061230a57fe5b6020026020010151600760008a815260200190815260200160002060000154604051808381526020018281526020019250505060405180910390a4600101612261565b50505050565b60606000825b801561236f576001919091019060109004612359565b60608267ffffffffffffffff8111801561238857600080fd5b506040519080825280601f01601f1916602001820160405280156123b3576020820181803683370190505b50905060005b83811015612406576010860692506123d0836131ff565b82600183870303815181106123e157fe5b60200101906001600160f81b031916908160001a9053506010860495506001016123b9565b50949350505050565b805182516060918491849184910167ffffffffffffffff8111801561243357600080fd5b506040519080825280601f01601f19166020018201604052801561245e576020820181803683370190505b509050806000805b85518110156124b75785818151811061247b57fe5b602001015160f81c60f81b83838060010194508151811061249857fe5b60200101906001600160f81b031916908160001a905350600101612466565b5060005b845181101561250c578481815181106124d057fe5b602001015160f81c60f81b8383806001019450815181106124ed57fe5b60200101906001600160f81b031916908160001a9053506001016124bb565b5090979650505050505050565b6000601836108015906125305750612530336119cc565b15612544575060131936013560601c611747565b5033611747565b6000803411612575576001600160a01b038516600090815260066020526040902060010154612577565b345b905060005b83518110156125f3576125e96125ba878787858151811061259957fe5b60200260200101518786815181106125ad57fe5b6020026020010151613243565b60408051808201909152601081526f092dce6eaccccd2c6d2cadce8408aa8960831b6020820152849190613395565b915060010161257c565b506125fe858261342c565b5050505050565b612617846001600160a01b03166134b0565b1561214a5763bc197c8160e01b6001600160e01b031916846001600160a01b031663bc197c8188888787876040518663ffffffff1660e01b815260040180866001600160a01b03168152602001856001600160a01b03168152602001806020018060200180602001848103845287818151815260200191508051906020019060200280838360005b838110156126b757818101518382015260200161269f565b50505050905001848103835286818151815260200191508051906020019060200280838360005b838110156126f65781810151838201526020016126de565b50505050905001848103825285818151815260200191508051906020019080838360005b8381101561273257818101518382015260200161271a565b50505050905090810190601f16801561275f5780820380516001836020036101000a031916815260200191505b5098505050505050505050602060405180830381600087803b15801561278457600080fd5b505af1158015612798573d6000803e3d6000fd5b505050506040513d60208110156127ae57600080fd5b50516001600160e01b0319161461214a5760405162461bcd60e51b8152600401808060200182810382526036815260200180613b896036913960400191505060405180910390fd5b60008281526007602081815260408084206001600160a01b0386168552909201905281206002015460ff1680611a135750611a13612a15565b6000805b855181101561285f5785818151811061284857fe5b602002602001015182019150806001019050612833565b506000865111801561286f575060015b801561287c575080612710145b8015612889575061271084105b6128ce576040805162461bcd60e51b8152602060048201526011602482015270496e76616c696420617267756d656e747360781b604482015290519081900360640190fd5b6000898152600760209081526040808320600581018c90558a516002808301919091558b840151600383015582518084018452428152928c015183850152600b90910180546001810182559085529290932061292e9392830201916139a6565b5060008981526007602090815260409091208751612954926009909201918901906139e4565b506000898152600760209081526040909120865161297a92600a90920191880190613a45565b505060009788526007602052604090972060048101929092556006909101805460ff60a01b1916600160a01b92151592909202919091176001600160a01b0319166001600160a01b039096169590951790945550505050565b6000611a1383836040518060400160405280601e81526020017f536166654d6174683a207375627472616374696f6e206f766572666c6f770000815250613395565b6003546000906001600160a01b0316612a2c612519565b6001600160a01b031614905090565b6001600160a01b03811660009081526006602052604081205460ff16806111135750611113612a15565b60008a815260076020526040902054158015612a815750600089115b612ac6576040805162461bcd60e51b8152602060048201526011602482015270496e76616c696420617267756d656e747360781b604482015290519081900360640190fd5b60008a815260076020819052604082208b815560018082018c905592910190612aed612519565b6001600160a01b03166001600160a01b0316815260200190815260200160002060020160006101000a81548160ff0219169083151502179055506001600760008c815260200190815260200160002060070160008d6001600160a01b03166001600160a01b0316815260200190815260200160002060020160026101000a81548160ff021916908315150217905550612b8c8a8888888888888861282f565b612b978b8b8b6134e7565b5050505050505050505050565b6000828152600760205260408120600b015481904290600019015b6000868152600760205260408120600b01805483908110612bdc57fe5b60009182526020822060029091020101546000888152600760205260408120600b018054929350909184908110612c0f57fe5b9060005260206000209060020201600160028110612c2957fe5b015460008981526007602081815260408084206001600160a01b038f1685529092019052812060010154919250908311612cca5760008981526007602081815260408084206001600160a01b038f1685529092019052902060010154612c9f906201518090612c999088906129d3565b9061358f565b905080612caa575060015b612cbe88612cb883856135d1565b906135d1565b86019550505050612d09565b612cdb62015180612c9987866129d3565b905080612ce6575060015b9193508391612cf988612cb883856135d1565b9095019450505060001901612bbf565b50600085815260076020526040902060010154612d2a908390600a0a61358f565b60008681526007602052604081206003015491935090612d55906305f5e10090612c999088906135d1565b600087815260076020526040902060020154909150612d7f90612d78908361362a565b849061362a565b979650505050505050565b6000612d968383613684565b80611a135750506001600160a01b0391821660009081526006602090815260408083209390941682526003909201909152205460ff1690565b6000803411612df9576001600160a01b038516600090815260066020526040902060010154612dfb565b345b9050612e3b612e0c86868686613243565b60408051808201909152601081526f092dce6eaccccd2c6d2cadce8408aa8960831b6020820152839190613395565b90506125fe858261342c565b612e59846001600160a01b03166134b0565b1561214a5763f23a6e6160e01b6001600160e01b031916846001600160a01b031663f23a6e6188888787876040518663ffffffff1660e01b815260040180866001600160a01b03168152602001856001600160a01b0316815260200184815260200183815260200180602001828103825283818151815260200191508051906020019080838360005b83811015612efa578181015183820152602001612ee2565b50505050905090810190601f168015612f275780820380516001836020036101000a031916815260200191505b509650505050505050602060405180830381600087803b158015612f4a57600080fd5b505af1158015612f5e573d6000803e3d6000fd5b505050506040513d6020811015612f7457600080fd5b50516001600160e01b0319161461214a5760405162461bcd60e51b8152600401808060200182810382526031815260200180613c996031913960400191505060405180910390fd5b6001600160a01b0381166130015760405162461bcd60e51b8152600401808060200182810382526026815260200180613adf6026913960400191505060405180910390fd5b6003546040516001600160a01b038084169216907f8be0079c531659141344cd1fd0a4f28419497f9722a3daafe3b4186f6b6457e090600090a3600380546001600160a01b0319166001600160a01b0392909216919091179055565b600083815260076020526040812060080180546131fa929061307b57fe5b600091825260208083209091015486835260078083526040808520805460018201548351606081018552600284015481526003840154818901528c895294909652600b90910180546001600160a01b03909516968a96929592948a9490939084019291906130e557fe5b90600052602060002090600202016001600281106130ff57fe5b0154905260008a8152600760209081526040918290206009018054835181840281018401909452808452909183018282801561316457602002820191906000526020600020905b81546001600160a01b03168152600190910190602001808311613146575b50505060008d815260076020908152604091829020600a01805483518184028101840190945280845292945092508301828280156131c157602002820191906000526020600020905b8154815260200190600101908083116131ad575b50505060008e8152600760205260409020600481015460069091015490925060ff600160a01b82041691506001600160a01b0316612a65565b505050565b600060098260ff161161321957506030810160f81b61115b565b8160ff16600a111580156132315750600f8260ff1611155b156101cc57506057810160f81b61115b565b6040805180820182526014815273496e73756666696369656e742062616c616e636560601b602080830191909152600085815260078083528482206001600160a01b038a168352019091529182205461329d918490613395565b60008481526007602081815260408084206001600160a01b038b16855290920190529020556132cd8484846134e7565b6132d8858484612ba4565b905060005b60008481526007602052604090206009015481101561240657600084815260076020526040812060090180548390811061331357fe5b6000918252602080832090910154878352600790915260408220600a0180546001600160a01b039092169350908490811061334a57fe5b6000918252602090912001549050613368612710612c9986846135d1565b6001600160a01b0390921660009081526006602052604090206001908101805490930190925550016132dd565b600081848411156134245760405162461bcd60e51b81526004018080602001828103825283818151815260200191508051906020019080838360005b838110156133e95781810151838201526020016133d1565b50505050905090810190601f1680156134165780820380516001836020036101000a031916815260200191505b509250505060405180910390fd5b505050900390565b60003411801561343c5750600081115b15613488576001600160a01b038216600090815260066020526040902060010154613467908261362a565b6001600160a01b0383166000908152600660205260409020600101556134ac565b346134ac576001600160a01b03821660009081526006602052604090206001018190555b5050565b6000813f7fc5d2460186f7233c927e7db2dcc703c0e500b653ca82273b7bfad8045d85a4708115801590611e885750141592915050565b600082815260076020526040902060060154600160a01b900460ff16158061353c575060008281526007602081815260408084206001600160a01b0388168552909201905290206002015462010000900460ff165b613584576040805162461bcd60e51b81526020600482015260146024820152731059191c995cdcc81b9bdd08185c1c1c9bdd995960621b604482015290519081900360640190fd5b6131fa83838361373a565b6000611a1383836040518060400160405280601a81526020017f536166654d6174683a206469766973696f6e206279207a65726f000000000000815250613941565b6000826135e057506000611113565b828202828482816135ed57fe5b0414611a135760405162461bcd60e51b8152600401808060200182810382526021815260200180613bf36021913960400191505060405180910390fd5b600082820183811015611a13576040805162461bcd60e51b815260206004820152601b60248201527f536166654d6174683a206164646974696f6e206f766572666c6f770000000000604482015290519081900360640190fd5b6005546000906001600160a01b031615613731576005546040805163c455279160e01b81526001600160a01b03868116600483015291519282169291851691839163c4552791916024808301926020929190829003018186803b1580156136ea57600080fd5b505afa1580156136fe573d6000803e3d6000fd5b505050506040513d602081101561371457600080fd5b50516001600160a01b0316141561372f576001915050611113565b505b50600092915050565b60008281526007602081815260408084206001600160a01b03881685529092019052812054613769908361362a565b60008481526007602081815260408084206001600160a01b038a16855290920190529020549091506138745760008381526007602081815260408084206001600160a01b03891685529092019052902060020154610100900460ff16613844576001600160a01b038416600081815260066020908152604080832060029081018054600181810183559186528486200189905588855260078085528386206008810180549384018155875285872090920180546001600160a01b03191688179055958552909401909152902001805461ff0019166101001790555b60008381526007602081815260408084206001600160a01b03891685529092019052902042600190910155613912565b60008381526007602081815260408084206001600160a01b038916855290920190528120600101546138a79042906129d3565b60008581526007602081815260408084206001600160a01b038b1685529092019052812054919250906138e0908490612c9990856135d1565b60008681526007602081815260408084206001600160a01b038c16855290920190529020429190910360019091015550505b60009283526007602081815260408086206001600160a01b039097168652959091019052929091209190915550565b600081836139905760405162461bcd60e51b81526020600482018181528351602484015283519092839260449091019190850190808383600083156133e95781810151838201526020016133d1565b50600083858161399c57fe5b0495945050505050565b82600281019282156139d4579160200282015b828111156139d45782518255916020019190600101906139b9565b506139e0929150613a7f565b5090565b828054828255906000526020600020908101928215613a39579160200282015b82811115613a3957825182546001600160a01b0319166001600160a01b03909116178255602090920191600190910190613a04565b506139e0929150613a94565b8280548282559060005260206000209081019282156139d457916020028201828111156139d45782518255916020019190600101906139b9565b5b808211156139e05760008155600101613a80565b5b808211156139e05780546001600160a01b0319168155600101613a9556fe455243313135353a2062616c616e636520717565727920666f7220746865207a65726f20616464726573734f776e61626c653a206e6577206f776e657220697320746865207a65726f2061646472657373455243313135353a207461726765742061646472657373206d757374206265206e6f6e2d7a65726f455243313135353a2063616e6e6f742073657420617070726f76616c2073746174757320666f722073656c66455243313135353a206163636f756e747320616e6420494473206d75737420686176652073616d65206c656e67746873455243313135353a20676f7420756e6b6e6f776e2076616c75652066726f6d206f6e4552433131353542617463685265636569766564455243313135353a20736f6d65206164647265737320696e2062617463682062616c616e6365207175657279206973207a65726f536166654d6174683a206d756c7469706c69636174696f6e206f766572666c6f774f776e61626c653a2063616c6c6572206973206e6f7420746865206f776e6572455243313135353a206e656564206f70657261746f7220617070726f76616c20666f7220337264207061727479207472616e7366657273455243313135353a2049447320616e642076616c756573206d75737420686176652073616d65206c656e67746873455243313135353a20676f7420756e6b6e6f776e2076616c75652066726f6d206f6e455243313135355265636569766564a26469706673582212205e5e8257e48f5468e927c42cb90e4ad1d2e7227ab47bb75081c94019ca0c392b64736f6c634300070100334f776e61626c653a206e6577206f776e657220697320746865207a65726f2061646472657373",
  "immutableReferences": {},
  "source": "// SPDX-License-Identifier: GPL-3.0-or-later\npragma solidity ^0.7.1;\n\nimport './Maintenable.sol';\n\ncontract Privatizable is Maintenable {\n\n\n    /****************************\n    EXTERNAL FUNCTIONS\n    *****************************/\n\n\n    /**\n     * @dev Function to approve holder for a private token.\n     * @param id the token id\n     * @param holder The authorized address\n     */\n    function approveHolder(uint256 id, address holder) external onlyMaintener(id) {\n        _tokens[id].holders[holder].isApproved = true;\n    }\n\n\n    /**\n     * @dev Function to revoke holder for a private token.\n     * @param id the token id\n     * @param holder The authorized address\n     */\n    function revokeHolder(uint256 id, address holder) external onlyMaintener(id) {\n        _tokens[id].holders[holder].isApproved = false;\n    }\n\n\n    /****************************\n    INTERNAL FUNCTIONS\n    *****************************/\n\n\n    // override ChargeableTransfer._addToBalance()\n    function _addToBalance(address recipient, uint256 id, uint256 value) internal override {\n        require(!_tokens[id].isPrivate || _tokens[id].holders[recipient].isApproved, \"Address not approved\");\n        super._addToBalance(recipient, id, value);\n    }\n\n}\n",
  "sourcePath": "/home/ouziel/Work/StashBloxContracts/contracts/lib/Privatizable.sol",
  "compiler": {
    "name": "solc",
    "version": "0.7.1+commit.f4a555be.Emscripten.clang"
  },
  "schemaVersion": "3.2.3",
  "updatedAt": "2020-10-22T10:26:15.594Z",
  "devdoc": {
    "kind": "dev",
    "methods": {
      "approveHolder(uint256,address)": {
        "details": "Function to approve holder for a private token.",
        "params": {
          "holder": "The authorized address",
          "id": "the token id"
        }
      },
      "authorizeMaintener(uint256,address)": {
        "details": "Function to authorize an address to maintain a token.",
        "params": {
          "maintener": "The authorized address"
        }
      },
      "authorizeTokenizer(address)": {
        "details": "Function to authorize an address to create a token.",
        "params": {
          "tokenizer": "The authorized address"
        }
      },
      "averageAge(address,uint256)": {
        "details": "Function to get the average age of the token for the given address.",
        "params": {
          "account": "the address from where to transfer the tokens",
          "id": "The token ID"
        },
        "returns": {
          "_0": "average age in seconds"
        }
      },
      "balanceOf(address,uint256)": {
        "details": "Get the specified address' balance for token with specified ID. Attempting to query the zero account for a balance will result in a revert.",
        "params": {
          "account": "The address of the token holder",
          "id": "ID of the token"
        },
        "returns": {
          "_0": "The account's balance of the token type requested"
        }
      },
      "balanceOfBatch(address[],uint256[])": {
        "details": "Get the balance of multiple account/token pairs. If any of the query accounts is the zero account, this query will revert.",
        "params": {
          "accounts": "The addresses of the token holders",
          "ids": "IDs of the tokens"
        },
        "returns": {
          "_0": "Balances for each account and token id pair"
        }
      },
      "cloneToken(uint256,uint256[],uint256[])": {
        "details": "Function to mint tokens in batch.",
        "params": {
          "id": "Identifier of the template",
          "ids": "list of IDs of the tokens to be minted",
          "metadataHashes": "list of metadata file hashes"
        }
      },
      "createToken(address,uint256,uint256,uint256,uint256,uint256[3],address[],uint256[],uint256,bool,address)": {
        "details": "Function to mint an amount of a token with the given ID.",
        "params": {
          "feesRecipients": "list of addresses receiving transfer fees",
          "feesRecipientsPercentage": "list of percentage, each one for the corresponding feesRecipients",
          "id": "ID of the token to be minted",
          "isPrivate": "true if holder need approval",
          "legalAuthority": "address of the legal authority",
          "metadataHash": "Metadata file hash",
          "minHoldingForCallback": "minimum holding to propose a callback",
          "recipient": "The address that will own the minted tokens",
          "supply": "Amount of the token to be minted",
          "transactionFees": "transaction fees: [lumpSumFees (in WEI), valueProportionalFees (ratio of transfered amount * 10**8), storageFees (in storageCredit * 10**8)]"
        }
      },
      "isApprovedForAll(address,address)": {
        "params": {
          "account": "The account of the Tokens",
          "operator": "Address of authorized operator"
        },
        "returns": {
          "_0": "True if the operator is approved, false if not"
        }
      },
      "isMaintener(uint256,address)": {
        "details": "Function to check if an address is authorized to maintain a token.",
        "params": {
          "id": "the token id",
          "maintener": "The authorized address"
        },
        "returns": {
          "_0": "true if it's a maintener address"
        }
      },
      "isTokenizer(address)": {
        "details": "Function to check if an address is authorized to create a token.",
        "params": {
          "tokenizer": "The authorized address"
        }
      },
      "owner()": {
        "details": "Returns the address of the current owner."
      },
      "revokeHolder(uint256,address)": {
        "details": "Function to revoke holder for a private token.",
        "params": {
          "holder": "The authorized address",
          "id": "the token id"
        }
      },
      "revokeMaintener(uint256,address)": {
        "details": "Function to revoke the authorization to maintain a token.",
        "params": {
          "id": "the token id",
          "maintener": "The authorized address"
        }
      },
      "revokeTokenizer(address)": {
        "details": "Function to revoke the authorization to create a token.",
        "params": {
          "tokenizer": "The authorized address"
        }
      },
      "safeBatchTransferFrom(address,address,uint256[],uint256[],bytes)": {
        "details": "Transfers `values` amount(s) of `ids` from the `from` address to the `to` address specified. Caller must be approved to manage the tokens being transferred out of the `from` account. If `to` is a smart contract, will call `onERC1155BatchReceived` on `to` and act appropriately.",
        "params": {
          "data": "Data forwarded to `onERC1155Received` if `to` is a contract receiver",
          "from": "Source address",
          "ids": "IDs of each token type",
          "to": "Target address",
          "values": "Transfer amounts per token type"
        }
      },
      "safeTransferFrom(address,address,uint256,uint256,bytes)": {
        "details": "Transfers `value` amount of an `id` from the `from` address to the `to` address specified. Caller must be approved to manage the tokens being transferred out of the `from` account. If `to` is a smart contract, will call `onERC1155Received` on `to` and act appropriately.",
        "params": {
          "data": "Data forwarded to `onERC1155Received` if `to` is a contract receiver",
          "from": "Source address",
          "id": "ID of the token type",
          "to": "Target address",
          "value": "Transfer amount"
        }
      },
      "setApprovalForAll(address,bool)": {
        "details": "Sets or unsets the approval of a given operator. An operator is allowed to transfer all tokens of the sender on their behalf. Because an account already has operator privileges for itself, this function will revert if the account attempts to set the approval status for itself.",
        "params": {
          "approved": "representing the status of the approval to be set",
          "operator": "address to set the approval"
        }
      },
      "setProxyRegistryAddress(address)": {
        "details": "Function to update the operator whitelist",
        "params": {
          "proxyAddress": "Proxy address"
        }
      },
      "supportsInterface(bytes4)": {
        "params": {
          "_interfaceID": "The interface identifier, as specified in ERC-165"
        },
        "returns": {
          "_0": "`true` if the contract implements `_interfaceID` and"
        }
      },
      "transactionFees(address,uint256,uint256)": {
        "details": "Function to get the transaction price to transfer tokens.",
        "params": {
          "account": "the address from where to transfer the tokens",
          "id": "The token ID",
          "value": "The amount to transfer"
        },
        "returns": {
          "_0": "transfer price"
        }
      },
      "transferOwnership(address)": {
        "details": "Transfers ownership of the contract to a new account (`newOwner`). Can only be called by the current owner."
      },
      "updateToken(uint256,uint256,uint256[3],address[],uint256[],uint256,bool,address)": {
        "details": "Function to update a token with the given ID.",
        "params": {
          "feesRecipients": "list of addresses receiving transfer fees",
          "feesRecipientsPercentage": "list of percentage, each one for the corresponding feesRecipients",
          "id": "ID of the token to be updated",
          "isPrivate": "true if holder need approval",
          "legalAuthority": "address of the legal authority",
          "metadataHash": "Metadata file hash",
          "minHoldingForCallback": "minimum holding to propose a callback",
          "transactionFees": "transaction fees: [lumpSumFees (in WEI), valueProportionalFees (ratio of transfered amount * 10**8), storageFees (in storageCredit * 10**8)]"
        }
      },
      "uri(uint256)": {
        "params": {
          "id": "Token ID"
        },
        "returns": {
          "_0": "URI string"
        }
      }
    },
    "version": 1
  },
  "userdoc": {
    "kind": "user",
    "methods": {
      "isApprovedForAll(address,address)": {
        "notice": "Queries the approval status of an operator for a given account."
      },
      "isTrustedForwarder(address)": {
        "notice": "return if the forwarder is trusted to forward relayed transactions to us. the forwarder is required to verify the sender's signature, and verify the call is not a replay."
      },
      "supportsInterface(bytes4)": {
        "notice": "Query if a contract implements an interface"
      }
    },
    "version": 1
  }
}