{
  "contractName": "Privatizable",
  "abi": [
    {
      "anonymous": false,
      "inputs": [
        {
          "indexed": true,
          "internalType": "address",
          "name": "_owner",
          "type": "address"
        },
        {
          "indexed": true,
          "internalType": "address",
          "name": "_operator",
          "type": "address"
        },
        {
          "indexed": false,
          "internalType": "bool",
          "name": "_approved",
          "type": "bool"
        }
      ],
      "name": "ApprovalForAll",
      "type": "event"
    },
    {
      "anonymous": false,
      "inputs": [
        {
          "indexed": true,
          "internalType": "address",
          "name": "previousOwner",
          "type": "address"
        },
        {
          "indexed": true,
          "internalType": "address",
          "name": "newOwner",
          "type": "address"
        }
      ],
      "name": "OwnershipTransferred",
      "type": "event"
    },
    {
      "anonymous": false,
      "inputs": [
        {
          "indexed": true,
          "internalType": "uint256",
          "name": "_id",
          "type": "uint256"
        },
        {
          "indexed": false,
          "internalType": "uint256",
          "name": "_documentHash",
          "type": "uint256"
        }
      ],
      "name": "TokenUpdated",
      "type": "event"
    },
    {
      "anonymous": false,
      "inputs": [
        {
          "indexed": true,
          "internalType": "address",
          "name": "_operator",
          "type": "address"
        },
        {
          "indexed": true,
          "internalType": "address",
          "name": "_from",
          "type": "address"
        },
        {
          "indexed": true,
          "internalType": "address",
          "name": "_to",
          "type": "address"
        },
        {
          "indexed": false,
          "internalType": "uint256[]",
          "name": "_ids",
          "type": "uint256[]"
        },
        {
          "indexed": false,
          "internalType": "uint256[]",
          "name": "_values",
          "type": "uint256[]"
        }
      ],
      "name": "TransferBatch",
      "type": "event"
    },
    {
      "anonymous": false,
      "inputs": [
        {
          "indexed": true,
          "internalType": "address",
          "name": "_operator",
          "type": "address"
        },
        {
          "indexed": true,
          "internalType": "address",
          "name": "_from",
          "type": "address"
        },
        {
          "indexed": true,
          "internalType": "address",
          "name": "_to",
          "type": "address"
        },
        {
          "indexed": false,
          "internalType": "uint256",
          "name": "_id",
          "type": "uint256"
        },
        {
          "indexed": false,
          "internalType": "uint256",
          "name": "_value",
          "type": "uint256"
        }
      ],
      "name": "TransferSingle",
      "type": "event"
    },
    {
      "anonymous": false,
      "inputs": [
        {
          "indexed": false,
          "internalType": "string",
          "name": "_value",
          "type": "string"
        },
        {
          "indexed": true,
          "internalType": "uint256",
          "name": "_id",
          "type": "uint256"
        }
      ],
      "name": "URI",
      "type": "event"
    },
    {
      "inputs": [
        {
          "internalType": "uint256",
          "name": "",
          "type": "uint256"
        }
      ],
      "name": "_callbacks",
      "outputs": [
        {
          "internalType": "uint256",
          "name": "tokenId",
          "type": "uint256"
        },
        {
          "internalType": "uint256",
          "name": "price",
          "type": "uint256"
        },
        {
          "internalType": "uint256",
          "name": "escrowedAmount",
          "type": "uint256"
        },
        {
          "internalType": "uint256",
          "name": "callCounter",
          "type": "uint256"
        },
        {
          "internalType": "uint256",
          "name": "documentHash",
          "type": "uint256"
        },
        {
          "internalType": "address",
          "name": "caller",
          "type": "address"
        },
        {
          "internalType": "bool",
          "name": "needLegalApproval",
          "type": "bool"
        },
        {
          "internalType": "bool",
          "name": "approvedByLegal",
          "type": "bool"
        },
        {
          "internalType": "bool",
          "name": "refused",
          "type": "bool"
        },
        {
          "internalType": "bool",
          "name": "accepted",
          "type": "bool"
        },
        {
          "internalType": "bool",
          "name": "completed",
          "type": "bool"
        }
      ],
      "stateMutability": "view",
      "type": "function"
    },
    {
      "inputs": [],
      "name": "_config",
      "outputs": [
        {
          "internalType": "uint256",
          "name": "callbackAutoExecuteMaxAddresses",
          "type": "uint256"
        },
        {
          "internalType": "string",
          "name": "baseURI",
          "type": "string"
        }
      ],
      "stateMutability": "view",
      "type": "function"
    },
    {
      "inputs": [
        {
          "internalType": "uint256",
          "name": "",
          "type": "uint256"
        }
      ],
      "name": "_tokens",
      "outputs": [
        {
          "internalType": "uint256",
          "name": "supply",
          "type": "uint256"
        },
        {
          "internalType": "uint256",
          "name": "decimals",
          "type": "uint256"
        },
        {
          "internalType": "uint256",
          "name": "lumpSumTransactionFees",
          "type": "uint256"
        },
        {
          "internalType": "uint256",
          "name": "valueTransactionFees",
          "type": "uint256"
        },
        {
          "internalType": "uint256",
          "name": "minHoldingForCallback",
          "type": "uint256"
        },
        {
          "internalType": "uint256",
          "name": "metadataHash",
          "type": "uint256"
        },
        {
          "internalType": "address",
          "name": "legalAuthority",
          "type": "address"
        },
        {
          "internalType": "bool",
          "name": "isPrivate",
          "type": "bool"
        },
        {
          "internalType": "bool",
          "name": "locked",
          "type": "bool"
        }
      ],
      "stateMutability": "view",
      "type": "function"
    },
    {
      "inputs": [
        {
          "internalType": "address",
          "name": "",
          "type": "address"
        }
      ],
      "name": "_users",
      "outputs": [
        {
          "internalType": "bool",
          "name": "isTokenizer",
          "type": "bool"
        },
        {
          "internalType": "bool",
          "name": "isLocked",
          "type": "bool"
        },
        {
          "internalType": "uint256",
          "name": "ETHBalance",
          "type": "uint256"
        }
      ],
      "stateMutability": "view",
      "type": "function"
    },
    {
      "inputs": [
        {
          "internalType": "uint256",
          "name": "id",
          "type": "uint256"
        },
        {
          "internalType": "address",
          "name": "maintener",
          "type": "address"
        }
      ],
      "name": "authorizeMaintener",
      "outputs": [],
      "stateMutability": "nonpayable",
      "type": "function"
    },
    {
      "inputs": [
        {
          "internalType": "address",
          "name": "tokenizer",
          "type": "address"
        }
      ],
      "name": "authorizeTokenizer",
      "outputs": [],
      "stateMutability": "nonpayable",
      "type": "function"
    },
    {
      "inputs": [
        {
          "internalType": "address",
          "name": "account",
          "type": "address"
        },
        {
          "internalType": "uint256",
          "name": "id",
          "type": "uint256"
        }
      ],
      "name": "averageAge",
      "outputs": [
        {
          "internalType": "uint256",
          "name": "",
          "type": "uint256"
        }
      ],
      "stateMutability": "view",
      "type": "function"
    },
    {
      "inputs": [
        {
          "internalType": "address",
          "name": "account",
          "type": "address"
        },
        {
          "internalType": "uint256",
          "name": "id",
          "type": "uint256"
        }
      ],
      "name": "balanceOf",
      "outputs": [
        {
          "internalType": "uint256",
          "name": "",
          "type": "uint256"
        }
      ],
      "stateMutability": "view",
      "type": "function"
    },
    {
      "inputs": [
        {
          "internalType": "address[]",
          "name": "accounts",
          "type": "address[]"
        },
        {
          "internalType": "uint256[]",
          "name": "ids",
          "type": "uint256[]"
        }
      ],
      "name": "balanceOfBatch",
      "outputs": [
        {
          "internalType": "uint256[]",
          "name": "",
          "type": "uint256[]"
        }
      ],
      "stateMutability": "view",
      "type": "function"
    },
    {
      "inputs": [
        {
          "internalType": "uint256",
          "name": "id",
          "type": "uint256"
        },
        {
          "internalType": "uint256[]",
          "name": "ids",
          "type": "uint256[]"
        },
        {
          "internalType": "uint256[]",
          "name": "metadataHashes",
          "type": "uint256[]"
        }
      ],
      "name": "cloneToken",
      "outputs": [],
      "stateMutability": "nonpayable",
      "type": "function"
    },
    {
      "inputs": [
        {
          "internalType": "address",
          "name": "recipient",
          "type": "address"
        },
        {
          "internalType": "uint256",
          "name": "id",
          "type": "uint256"
        },
        {
          "internalType": "uint256",
          "name": "supply",
          "type": "uint256"
        },
        {
          "internalType": "uint256",
          "name": "decimals",
          "type": "uint256"
        },
        {
          "internalType": "uint256",
          "name": "metadataHash",
          "type": "uint256"
        },
        {
          "internalType": "uint256[3]",
          "name": "transactionFees",
          "type": "uint256[3]"
        },
        {
          "internalType": "address[]",
          "name": "feesRecipients",
          "type": "address[]"
        },
        {
          "internalType": "uint256[]",
          "name": "feesRecipientsPercentage",
          "type": "uint256[]"
        },
        {
          "internalType": "uint256",
          "name": "minHoldingForCallback",
          "type": "uint256"
        },
        {
          "internalType": "bool",
          "name": "isPrivate",
          "type": "bool"
        },
        {
          "internalType": "address",
          "name": "legalAuthority",
          "type": "address"
        }
      ],
      "name": "createToken",
      "outputs": [],
      "stateMutability": "nonpayable",
      "type": "function"
    },
    {
      "inputs": [
        {
          "internalType": "address",
          "name": "account",
          "type": "address"
        },
        {
          "internalType": "address",
          "name": "operator",
          "type": "address"
        }
      ],
      "name": "isApprovedForAll",
      "outputs": [
        {
          "internalType": "bool",
          "name": "",
          "type": "bool"
        }
      ],
      "stateMutability": "view",
      "type": "function"
    },
    {
      "inputs": [
        {
          "internalType": "uint256",
          "name": "id",
          "type": "uint256"
        },
        {
          "internalType": "address",
          "name": "maintener",
          "type": "address"
        }
      ],
      "name": "isMaintener",
      "outputs": [
        {
          "internalType": "bool",
          "name": "",
          "type": "bool"
        }
      ],
      "stateMutability": "view",
      "type": "function"
    },
    {
      "inputs": [
        {
          "internalType": "address",
          "name": "tokenizer",
          "type": "address"
        }
      ],
      "name": "isTokenizer",
      "outputs": [
        {
          "internalType": "bool",
          "name": "",
          "type": "bool"
        }
      ],
      "stateMutability": "view",
      "type": "function"
    },
    {
      "inputs": [],
      "name": "owner",
      "outputs": [
        {
          "internalType": "address",
          "name": "",
          "type": "address"
        }
      ],
      "stateMutability": "view",
      "type": "function"
    },
    {
      "inputs": [
        {
          "internalType": "uint256",
          "name": "id",
          "type": "uint256"
        },
        {
          "internalType": "address",
          "name": "maintener",
          "type": "address"
        }
      ],
      "name": "revokeMaintener",
      "outputs": [],
      "stateMutability": "nonpayable",
      "type": "function"
    },
    {
      "inputs": [
        {
          "internalType": "address",
          "name": "tokenizer",
          "type": "address"
        }
      ],
      "name": "revokeTokenizer",
      "outputs": [],
      "stateMutability": "nonpayable",
      "type": "function"
    },
    {
      "inputs": [
        {
          "internalType": "address",
          "name": "from",
          "type": "address"
        },
        {
          "internalType": "address",
          "name": "to",
          "type": "address"
        },
        {
          "internalType": "uint256[]",
          "name": "ids",
          "type": "uint256[]"
        },
        {
          "internalType": "uint256[]",
          "name": "values",
          "type": "uint256[]"
        },
        {
          "internalType": "bytes",
          "name": "data",
          "type": "bytes"
        }
      ],
      "name": "safeBatchTransferFrom",
      "outputs": [],
      "stateMutability": "payable",
      "type": "function"
    },
    {
      "inputs": [
        {
          "internalType": "address",
          "name": "from",
          "type": "address"
        },
        {
          "internalType": "address",
          "name": "to",
          "type": "address"
        },
        {
          "internalType": "uint256",
          "name": "id",
          "type": "uint256"
        },
        {
          "internalType": "uint256",
          "name": "value",
          "type": "uint256"
        },
        {
          "internalType": "bytes",
          "name": "data",
          "type": "bytes"
        }
      ],
      "name": "safeTransferFrom",
      "outputs": [],
      "stateMutability": "payable",
      "type": "function"
    },
    {
      "inputs": [
        {
          "internalType": "address",
          "name": "operator",
          "type": "address"
        },
        {
          "internalType": "bool",
          "name": "approved",
          "type": "bool"
        }
      ],
      "name": "setApprovalForAll",
      "outputs": [],
      "stateMutability": "nonpayable",
      "type": "function"
    },
    {
      "inputs": [
        {
          "internalType": "address[10]",
          "name": "proxyAddresses",
          "type": "address[10]"
        }
      ],
      "name": "setProxyRegistryAddress",
      "outputs": [],
      "stateMutability": "nonpayable",
      "type": "function"
    },
    {
      "inputs": [
        {
          "internalType": "bytes4",
          "name": "_interfaceID",
          "type": "bytes4"
        }
      ],
      "name": "supportsInterface",
      "outputs": [
        {
          "internalType": "bool",
          "name": "",
          "type": "bool"
        }
      ],
      "stateMutability": "pure",
      "type": "function"
    },
    {
      "inputs": [
        {
          "internalType": "address",
          "name": "account",
          "type": "address"
        },
        {
          "internalType": "uint256",
          "name": "id",
          "type": "uint256"
        },
        {
          "internalType": "uint256",
          "name": "value",
          "type": "uint256"
        }
      ],
      "name": "transactionFees",
      "outputs": [
        {
          "internalType": "uint256",
          "name": "",
          "type": "uint256"
        }
      ],
      "stateMutability": "view",
      "type": "function"
    },
    {
      "inputs": [
        {
          "internalType": "address",
          "name": "newOwner",
          "type": "address"
        }
      ],
      "name": "transferOwnership",
      "outputs": [],
      "stateMutability": "nonpayable",
      "type": "function"
    },
    {
      "inputs": [
        {
          "internalType": "uint256",
          "name": "id",
          "type": "uint256"
        },
        {
          "internalType": "uint256",
          "name": "metadataHash",
          "type": "uint256"
        },
        {
          "internalType": "uint256[3]",
          "name": "transactionFees",
          "type": "uint256[3]"
        },
        {
          "internalType": "address[]",
          "name": "feesRecipients",
          "type": "address[]"
        },
        {
          "internalType": "uint256[]",
          "name": "feesRecipientsPercentage",
          "type": "uint256[]"
        },
        {
          "internalType": "uint256",
          "name": "minHoldingForCallback",
          "type": "uint256"
        },
        {
          "internalType": "bool",
          "name": "isPrivate",
          "type": "bool"
        },
        {
          "internalType": "address",
          "name": "legalAuthority",
          "type": "address"
        }
      ],
      "name": "updateToken",
      "outputs": [],
      "stateMutability": "nonpayable",
      "type": "function"
    },
    {
      "inputs": [
        {
          "internalType": "uint256",
          "name": "id",
          "type": "uint256"
        },
        {
          "internalType": "address",
          "name": "holder",
          "type": "address"
        }
      ],
      "name": "approveHolder",
      "outputs": [],
      "stateMutability": "nonpayable",
      "type": "function"
    },
    {
      "inputs": [
        {
          "internalType": "uint256",
          "name": "id",
          "type": "uint256"
        },
        {
          "internalType": "address",
          "name": "holder",
          "type": "address"
        }
      ],
      "name": "revokeHolder",
      "outputs": [],
      "stateMutability": "nonpayable",
      "type": "function"
    }
  ],
  "bytecode": "0x60806040523480156200001157600080fd5b506200001d3362000023565b620000e0565b6001600160a01b03811662000084576040517f08c379a0000000000000000000000000000000000000000000000000000000008152600401808060200182810382526026815260200180620037fc6026913960400191505060405180910390fd5b600f546040516001600160a01b038084169216907f8be0079c531659141344cd1fd0a4f28419497f9722a3daafe3b4186f6b6457e090600090a3600f80546001600160a01b0319166001600160a01b0392909216919091179055565b61370c80620000f06000396000f3fe60806040526004361061019b5760003560e01c80637627b732116100ec578063d1660e181161008a578063ed70554d11610064578063ed70554d14610caa578063f242432a14610d28578063f2fde38b14610dbb578063f8a5a07c14610dee5761019b565b8063d1660e1814610bf7578063d41d0aa314610c36578063e985e9c514610c6f5761019b565b80638da5cb5b116100c65780638da5cb5b146109bb578063a22cb465146109ec578063c02f303c14610a27578063c40b87ae14610a5a5761019b565b80637627b7321461091c5780638870147b1461094f5780638aeba37e146109825761019b565b80634392e57711610159578063585941d511610133578063585941d5146108385780635dafec1b146108715780635dd2b9a6146108aa578063759c5214146108e35761019b565b80634392e577146104d55780634ab0d253146105365780634e1273f4146106b85761019b565b8062fdd58e146101a057806301ffc9a7146101eb5780632eb2c2d6146102335780632ed42bf71461035c5780633cacd7d6146103f0578063414ed0ce14610443575b600080fd5b3480156101ac57600080fd5b506101d9600480360360408110156101c357600080fd5b506001600160a01b038135169060200135610f25565b60408051918252519081900360200190f35b3480156101f757600080fd5b5061021f6004803603602081101561020e57600080fd5b50356001600160e01b031916610f9a565b604080519115158252519081900360200190f35b61035a600480360360a081101561024957600080fd5b6001600160a01b038235811692602081013590911691810190606081016040820135600160201b81111561027c57600080fd5b82018360208201111561028e57600080fd5b803590602001918460208302840111600160201b831117156102af57600080fd5b919390929091602081019035600160201b8111156102cc57600080fd5b8201836020820111156102de57600080fd5b803590602001918460208302840111600160201b831117156102ff57600080fd5b919390929091602081019035600160201b81111561031c57600080fd5b82018360208201111561032e57600080fd5b803590602001918460018302840111600160201b8311171561034f57600080fd5b509092509050610fe1565b005b34801561036857600080fd5b5061037161128f565b6040518083815260200180602001828103825283818151815260200191508051906020019080838360005b838110156103b457818101518382015260200161039c565b50505050905090810190601f1680156103e15780820380516001836020036101000a031916815260200191505b50935050505060405180910390f35b3480156103fc57600080fd5b506104236004803603602081101561041357600080fd5b50356001600160a01b0316611325565b604080519315158452911515602084015282820152519081900360600190f35b34801561044f57600080fd5b5061046d6004803603602081101561046657600080fd5b503561134b565b604080519b8c5260208c019a909a528a8a019890985260608a019690965260808901949094526001600160a01b0390921660a0880152151560c0870152151560e086015215156101008501521515610120840152151561014083015251908190036101600190f35b3480156104e157600080fd5b5061035a60048036036101408110156104f957600080fd5b81019080806101400190600a806020026040519081016040528092919082600a602002808284376000920191909152509194506113be9350505050565b34801561054257600080fd5b5061035a600480360361014081101561055a57600080fd5b6040805160608181018352843594602081013594810193909260a08401929091840190600390839083908082843760009201919091525091949392602081019250359050600160201b8111156105af57600080fd5b8201836020820111156105c157600080fd5b803590602001918460208302840111600160201b831117156105e257600080fd5b9190808060200260200160405190810160405280939291908181526020018383602002808284376000920191909152509295949360208101935035915050600160201b81111561063157600080fd5b82018360208201111561064357600080fd5b803590602001918460208302840111600160201b8311171561066457600080fd5b919080806020026020016040519081016040528093929190818152602001838360200280828437600092019190915250929550508235935050506020810135151590604001356001600160a01b0316611416565b3480156106c457600080fd5b506107e8600480360360408110156106db57600080fd5b810190602081018135600160201b8111156106f557600080fd5b82018360208201111561070757600080fd5b803590602001918460208302840111600160201b8311171561072857600080fd5b9190808060200260200160405190810160405280939291908181526020018383602002808284376000920191909152509295949360208101935035915050600160201b81111561077757600080fd5b82018360208201111561078957600080fd5b803590602001918460208302840111600160201b831117156107aa57600080fd5b91908080602002602001604051908101604052809392919081815260200183836020028082843760009201919091525092955061150d945050505050565b60408051602080825283518183015283519192839290830191858101910280838360005b8381101561082457818101518382015260200161080c565b505050509050019250505060405180910390f35b34801561084457600080fd5b506101d96004803603604081101561085b57600080fd5b506001600160a01b038135169060200135611691565b34801561087d57600080fd5b5061021f6004803603604081101561089457600080fd5b50803590602001356001600160a01b03166116cc565b3480156108b657600080fd5b5061035a600480360360408110156108cd57600080fd5b50803590602001356001600160a01b03166116d8565b3480156108ef57600080fd5b5061035a6004803603604081101561090657600080fd5b50803590602001356001600160a01b031661176a565b34801561092857600080fd5b5061035a6004803603602081101561093f57600080fd5b50356001600160a01b03166117f7565b34801561095b57600080fd5b5061035a6004803603602081101561097257600080fd5b50356001600160a01b0316611862565b34801561098e57600080fd5b5061035a600480360360408110156109a557600080fd5b50803590602001356001600160a01b03166118ca565b3480156109c757600080fd5b506109d0611948565b604080516001600160a01b039092168252519081900360200190f35b3480156109f857600080fd5b5061035a60048036036040811015610a0f57600080fd5b506001600160a01b0381351690602001351515611957565b348015610a3357600080fd5b5061021f60048036036020811015610a4a57600080fd5b50356001600160a01b0316611a0d565b348015610a6657600080fd5b5061035a60048036036101a0811015610a7e57600080fd5b60408051606081810183526001600160a01b03853516946020810135949381013593828201359360808301359391830192916101008301919060a0840190600390839083908082843760009201919091525091949392602081019250359050600160201b811115610aee57600080fd5b820183602082011115610b0057600080fd5b803590602001918460208302840111600160201b83111715610b2157600080fd5b9190808060200260200160405190810160405280939291908181526020018383602002808284376000920191909152509295949360208101935035915050600160201b811115610b7057600080fd5b820183602082011115610b8257600080fd5b803590602001918460208302840111600160201b83111715610ba357600080fd5b919080806020026020016040519081016040528093929190818152602001838360200280828437600092019190915250929550508235935050506020810135151590604001356001600160a01b0316611a18565b348015610c0357600080fd5b506101d960048036036060811015610c1a57600080fd5b506001600160a01b038135169060208101359060400135611ad7565b348015610c4257600080fd5b5061035a60048036036040811015610c5957600080fd5b50803590602001356001600160a01b0316611aec565b348015610c7b57600080fd5b5061021f60048036036040811015610c9257600080fd5b506001600160a01b0381358116916020013516611b67565b348015610cb657600080fd5b50610cd460048036036020811015610ccd57600080fd5b5035611ba8565b60408051998a5260208a0198909852888801969096526060880194909452608087019290925260a08601526001600160a01b031660c0850152151560e0840152151561010083015251908190036101200190f35b61035a600480360360a0811015610d3e57600080fd5b6001600160a01b03823581169260208101359091169160408201359160608101359181019060a081016080820135600160201b811115610d7d57600080fd5b820183602082011115610d8f57600080fd5b803590602001918460018302840111600160201b83111715610db057600080fd5b509092509050611c04565b348015610dc757600080fd5b5061035a60048036036020811015610dde57600080fd5b50356001600160a01b0316611d5b565b348015610dfa57600080fd5b5061035a60048036036060811015610e1157600080fd5b81359190810190604081016020820135600160201b811115610e3257600080fd5b820183602082011115610e4457600080fd5b803590602001918460208302840111600160201b83111715610e6557600080fd5b9190808060200260200160405190810160405280939291908181526020018383602002808284376000920191909152509295949360208101935035915050600160201b811115610eb457600080fd5b820183602082011115610ec657600080fd5b803590602001918460208302840111600160201b83111715610ee757600080fd5b919080806020026020016040519081016040528093929190818152602001838360200280828437600092019190915250929550611dae945050505050565b60006001600160a01b038316610f6c5760405162461bcd60e51b815260040180806020018281038252602b8152602001806134c1602b913960400191505060405180910390fd5b506000818152600d602090815260408083206001600160a01b03861684526007019091529020545b92915050565b60006001600160e01b031982166301ffc9a760e01b1480610fcb57506001600160e01b03198216636cdb3d1360e11b145b15610fd857506001610fdc565b5060005b919050565b84831461101f5760405162461bcd60e51b815260040180806020018281038252602e815260200180613678602e913960400191505060405180910390fd5b6001600160a01b0387166110645760405162461bcd60e51b81526004018080602001828103825260288152602001806135126028913960400191505060405180910390fd5b6001600160a01b03881633148061108657506110808833611b67565b15156001145b6110c15760405162461bcd60e51b81526004018080602001828103825260378152602001806136416037913960400191505060405180910390fd5b611130888888888080602002602001604051908101604052809392919081815260200183836020028082843760009201919091525050604080516020808c0282810182019093528b82529093508b92508a918291850190849080828437600092019190915250611f5192505050565b866001600160a01b0316886001600160a01b0316336001600160a01b03167f4a39dc06d4c0dbc64b70af90fd698a233a518aa5d07e595d983b8c0526c8f7fb898989896040518080602001806020018381038352878782818152602001925060200280828437600083820152601f01601f19169091018481038352858152602090810191508690860280828437600083820152604051601f909101601f19169092018290039850909650505050505050a461128533898989898080602002602001604051908101604052809392919081815260200183836020028082843760009201919091525050604080516020808d0282810182019093528c82529093508c92508b91829185019084908082843760009201919091525050604080516020601f8c018190048102820181019092528a815292508a915089908190840183828082843760009201919091525061200b92505050565b5050505050505050565b6000805460018054604080516020600284861615610100026000190190941693909304601f8101849004840282018401909252818152939493929183018282801561131b5780601f106112f05761010080835404028352916020019161131b565b820191906000526020600020905b8154815290600101906020018083116112fe57829003601f168201915b5050505050905082565b600c602052600090815260409020805460019091015460ff808316926101009004169083565b600e6020526000908152604090208054600182015460028301546003840154600485015460059095015493949293919290916001600160a01b0381169060ff600160a01b8204811691600160a81b8104821691600160b01b8204811691600160b81b8104821691600160c01b909104168b565b6113c66121fc565b611405576040805162461bcd60e51b81526020600482018190526024820152600080516020613621833981519152604482015290519081900360640190fd5b611412600282600a61336c565b5050565b87611421813361220d565b61146c576040805162461bcd60e51b815260206004820152601760248201527624b739bab33334b1b4b2b73a103832b936b4b9b9b4b7b760491b604482015290519081900360640190fd5b6000898152600d60205260409020546114bc576040805162461bcd60e51b815260206004820152600d60248201526c2ab735b737bbb7103a37b5b2b760991b604482015290519081900360640190fd5b6114cc8989898989898989612247565b6040805189815290518a917f199acc06cd2556bbc146fa3cb578799037dffcbf256eca32aaf2ef656925d2fd919081900360200190a2505050505050505050565b6060815183511461154f5760405162461bcd60e51b81526004018080602001828103825260308152602001806135666030913960400191505060405180910390fd5b6060835167ffffffffffffffff8111801561156957600080fd5b50604051908082528060200260200182016040528015611593578160200160208202803683370190505b50905060005b84518110156116895760006001600160a01b03168582815181106115b957fe5b60200260200101516001600160a01b031614156116075760405162461bcd60e51b81526004018080602001828103825260348152602001806135cc6034913960400191505060405180910390fd5b600d600085838151811061161757fe5b60200260200101518152602001908152602001600020600701600086838151811061163e57fe5b60200260200101516001600160a01b03166001600160a01b031681526020019081526020016000206000015482828151811061167657fe5b6020908102919091010152600101611599565b509392505050565b6000818152600d602090815260408083206001600160a01b03861684526007019091528120600101546116c59042906123eb565b9392505050565b60006116c5838361220d565b816116e3813361220d565b61172e576040805162461bcd60e51b815260206004820152601760248201527624b739bab33334b1b4b2b73a103832b936b4b9b9b4b7b760491b604482015290519081900360640190fd5b506000918252600d602090815260408084206001600160a01b039093168452600790920190529020600201805462ff0000191662010000179055565b81611775813361220d565b6117c0576040805162461bcd60e51b815260206004820152601760248201527624b739bab33334b1b4b2b73a103832b936b4b9b9b4b7b760491b604482015290519081900360640190fd5b506000918252600d602090815260408084206001600160a01b039093168452600790920190529020600201805462ff000019169055565b6117ff6121fc565b61183e576040805162461bcd60e51b81526020600482018190526024820152600080516020613621833981519152604482015290519081900360640190fd5b6001600160a01b03166000908152600c60205260409020805460ff19166001179055565b61186a6121fc565b6118a9576040805162461bcd60e51b81526020600482018190526024820152600080516020613621833981519152604482015290519081900360640190fd5b6001600160a01b03166000908152600c60205260409020805460ff19169055565b6118d26121fc565b611911576040805162461bcd60e51b81526020600482018190526024820152600080516020613621833981519152604482015290519081900360640190fd5b6000918252600d602090815260408084206001600160a01b039093168452600790920190529020600201805460ff19166001179055565b600f546001600160a01b031690565b336001600160a01b038316141561199f5760405162461bcd60e51b815260040180806020018281038252602c81526020018061353a602c913960400191505060405180910390fd5b3360008181526010602090815260408083206001600160a01b03871680855290835292819020805460ff1916861515908117909155815190815290519293927f17307eab39ab6107e8899845ad3d59bd9653f200f220920489ca2b5937696c31929181900390910190a35050565b6000610f948261242d565b611a213361242d565b611a6c576040805162461bcd60e51b815260206004820152601760248201527624b739bab33334b1b4b2b73a103832b936b4b9b9b4b7b760491b604482015290519081900360640190fd5b611a7f8b8b8b8b8b8b8b8b8b8b8b612457565b604080518b8152602081018b905281516001600160a01b038e169260009233927fc3d58168c5ae7397731d063d5bbf3d657854427343f4c083240f7aacaa2d0f62929181900390910190a45050505050505050505050565b6000611ae48484846125c0565b949350505050565b611af46121fc565b611b33576040805162461bcd60e51b81526020600482018190526024820152600080516020613621833981519152604482015290519081900360640190fd5b6000918252600d602090815260408084206001600160a01b039093168452600790920190529020600201805460ff19169055565b6000611b7383836127a8565b806116c55750506001600160a01b03918216600090815260106020908152604080832093909416825291909152205460ff1690565b600d60205260009081526040902080546001820154600283015460038401546004850154600586015460069096015494959394929391929091906001600160a01b0381169060ff600160a01b8204811691600160a81b90041689565b6001600160a01b038516611c495760405162461bcd60e51b81526004018080602001828103825260288152602001806135126028913960400191505060405180910390fd5b6001600160a01b038616331480611c6b5750611c658633611b67565b15156001145b611ca65760405162461bcd60e51b81526004018080602001828103825260378152602001806136416037913960400191505060405180910390fd5b611cb28686868661288f565b846001600160a01b0316866001600160a01b0316336001600160a01b03167fc3d58168c5ae7397731d063d5bbf3d657854427343f4c083240f7aacaa2d0f628787604051808381526020018281526020019250505060405180910390a4611d53338787878787878080601f01602080910402602001604051908101604052809392919081815260200183838082843760009201919091525061290792505050565b505050505050565b611d636121fc565b611da2576040805162461bcd60e51b81526020600482018190526024820152600080516020613621833981519152604482015290519081900360640190fd5b611dab81612a7c565b50565b611db73361242d565b611e02576040805162461bcd60e51b815260206004820152601760248201527624b739bab33334b1b4b2b73a103832b936b4b9b9b4b7b760491b604482015290519081900360640190fd5b6000838152600d602052604090205415801590611e20575080518251145b611e65576040805162461bcd60e51b8152602060048201526011602482015270496e76616c696420617267756d656e747360781b604482015290519081900360640190fd5b60005b8251811015611f4b57611ea284848381518110611e8157fe5b6020026020010151848481518110611e9557fe5b6020026020010151612b1d565b6000848152600d602052604081206008018054909190611ebe57fe5b600091825260208220015484516001600160a01b03909116919033907fc3d58168c5ae7397731d063d5bbf3d657854427343f4c083240f7aacaa2d0f6290879086908110611f0857fe5b6020026020010151600d60008a815260200190815260200160002060000154604051808381526020018281526020019250505060405180910390a4600101611e68565b50505050565b6000803411611f7b576001600160a01b0385166000908152600c6020526040902060010154611f7d565b345b905060005b8351811015611ff957611fef611fc08787878581518110611f9f57fe5b6020026020010151878681518110611fb357fe5b6020026020010151612cbf565b60408051808201909152601081526f092dce6eaccccd2c6d2cadce8408aa8960831b6020820152849190612e1c565b9150600101611f82565b506120048582612eb3565b5050505050565b61201d846001600160a01b0316612f34565b15611d535763bc197c8160e01b6001600160e01b031916846001600160a01b031663bc197c8188888787876040518663ffffffff1660e01b815260040180866001600160a01b03168152602001856001600160a01b03168152602001806020018060200180602001848103845287818151815260200191508051906020019060200280838360005b838110156120bd5781810151838201526020016120a5565b50505050905001848103835286818151815260200191508051906020019060200280838360005b838110156120fc5781810151838201526020016120e4565b50505050905001848103825285818151815260200191508051906020019080838360005b83811015612138578181015183820152602001612120565b50505050905090810190601f1680156121655780820380516001836020036101000a031916815260200191505b5098505050505050505050602060405180830381600087803b15801561218a57600080fd5b505af115801561219e573d6000803e3d6000fd5b505050506040513d60208110156121b457600080fd5b50516001600160e01b03191614611d535760405162461bcd60e51b81526004018080602001828103825260368152602001806135966036913960400191505060405180910390fd5b600f546001600160a01b0316331490565b6000828152600d602090815260408083206001600160a01b038516845260070190915281206002015460ff16806116c557506116c56121fc565b6000805b85518110156122775785818151811061226057fe5b60200260200101518201915080600101905061224b565b5060008651118015612287575060015b8015612294575080612710145b80156122a1575061271084105b6122e6576040805162461bcd60e51b8152602060048201526011602482015270496e76616c696420617267756d656e747360781b604482015290519081900360640190fd5b6000898152600d60209081526040808320600581018c90558a516002808301919091558b840151600383015582518084018452428152928c015183850152600b9091018054600181018255908552929093206123469392830201916133c4565b506000898152600d60209081526040909120875161236c926009909201918901906133fe565b506000898152600d60209081526040909120865161239292600a90920191880190613452565b50506000978852600d602052604090972060048101929092556006909101805460ff60a01b1916600160a01b92151592909202919091176001600160a01b0319166001600160a01b039096169590951790945550505050565b60006116c583836040518060400160405280601e81526020017f536166654d6174683a207375627472616374696f6e206f766572666c6f770000815250612e1c565b6001600160a01b0381166000908152600c602052604081205460ff1680610f945750610f946121fc565b60008a8152600d60205260409020541580156124735750600089115b6124b8576040805162461bcd60e51b8152602060048201526011602482015270496e76616c696420617267756d656e747360781b604482015290519081900360640190fd5b88600d60008c81526020019081526020016000206000018190555087600d60008c8152602001908152602001600020600101819055506001600d60008c81526020019081526020016000206007016000336001600160a01b03166001600160a01b0316815260200190815260200160002060020160006101000a81548160ff0219169083151502179055506001600d60008c815260200190815260200160002060070160008d6001600160a01b03166001600160a01b0316815260200190815260200160002060020160026101000a81548160ff0219169083151502179055506125a88a88888888888888612247565b6125b38b8b8b612f6b565b5050505050505050505050565b6000828152600d60205260408120600b015481904290600019015b6000868152600d60205260408120600b018054839081106125f857fe5b60009182526020822060029091020101546000888152600d60205260408120600b01805492935090918490811061262b57fe5b906000526020600020906002020160016002811061264557fe5b01546000898152600d602090815260408083206001600160a01b038e1684526007019091528120600101549192509083116126e8576000898152600d602090815260408083206001600160a01b038e1684526007019091529020600101546126bd9062015180906126b79088906123eb565b90613014565b9050806126c8575060015b6126dc886126d68385613056565b90613056565b86019550505050612727565b6126f9620151806126b787866123eb565b905080612704575060015b9193508391612717886126d68385613056565b90950194505050600019016125db565b506000858152600d6020526040902060010154612748908390600a0a613014565b6000868152600d602052604081206003015491935090612773906305f5e100906126b7908890613056565b6000878152600d602052604090206002015490915061279d9061279690836130af565b84906130af565b979650505050505050565b6000805b600a811015612885576000600282600a81106127c457fe5b01546001600160a01b03161461287d576000600282600a81106127e357fe5b01546040805163c455279160e01b81526001600160a01b0388811660048301529151928216935090861691839163c4552791916024808301926020929190829003018186803b15801561283557600080fd5b505afa158015612849573d6000803e3d6000fd5b505050506040513d602081101561285f57600080fd5b50516001600160a01b0316141561287b57600192505050610f94565b505b6001016127ac565b5060009392505050565b60008034116128b9576001600160a01b0385166000908152600c60205260409020600101546128bb565b345b90506128fb6128cc86868686612cbf565b60408051808201909152601081526f092dce6eaccccd2c6d2cadce8408aa8960831b6020820152839190612e1c565b90506120048582612eb3565b612919846001600160a01b0316612f34565b15611d535763f23a6e6160e01b6001600160e01b031916846001600160a01b031663f23a6e6188888787876040518663ffffffff1660e01b815260040180866001600160a01b03168152602001856001600160a01b0316815260200184815260200183815260200180602001828103825283818151815260200191508051906020019080838360005b838110156129ba5781810151838201526020016129a2565b50505050905090810190601f1680156129e75780820380516001836020036101000a031916815260200191505b509650505050505050602060405180830381600087803b158015612a0a57600080fd5b505af1158015612a1e573d6000803e3d6000fd5b505050506040513d6020811015612a3457600080fd5b50516001600160e01b03191614611d535760405162461bcd60e51b81526004018080602001828103825260318152602001806136a66031913960400191505060405180910390fd5b6001600160a01b038116612ac15760405162461bcd60e51b81526004018080602001828103825260268152602001806134ec6026913960400191505060405180910390fd5b600f546040516001600160a01b038084169216907f8be0079c531659141344cd1fd0a4f28419497f9722a3daafe3b4186f6b6457e090600090a3600f80546001600160a01b0319166001600160a01b0392909216919091179055565b6000838152600d602052604081206008018054612cba9290612b3b57fe5b6000918252602080832090910154868352600d8083526040808520805460018201548351606081018552600284015481526003840154818901528c895294909652600b90910180546001600160a01b03909516968a96929592948a949093908401929190612ba557fe5b9060005260206000209060020201600160028110612bbf57fe5b0154905260008a8152600d602090815260409182902060090180548351818402810184019094528084529091830182828015612c2457602002820191906000526020600020905b81546001600160a01b03168152600190910190602001808311612c06575b50505060008d8152600d6020908152604091829020600a0180548351818402810184019094528084529294509250830182828015612c8157602002820191906000526020600020905b815481526020019060010190808311612c6d575b50505060008e8152600d60205260409020600481015460069091015490925060ff600160a01b82041691506001600160a01b0316612457565b505050565b6040805180820182526014815273496e73756666696369656e742062616c616e636560601b6020808301919091526000858152600d82528381206001600160a01b038916825260070190915291822054612d1a918490612e1c565b6000848152600d602090815260408083206001600160a01b038a168452600701909152902055612d4b848484612f6b565b612d568584846125c0565b905060005b6000848152600d6020526040902060090154811015612e13576000848152600d60205260408120600901805483908110612d9157fe5b6000918252602080832090910154878352600d90915260408220600a0180546001600160a01b0390921693509084908110612dc857fe5b6000918252602090912001549050612de66127106126b78684613056565b6001600160a01b039092166000908152600c60205260409020600190810180549093019092555001612d5b565b50949350505050565b60008184841115612eab5760405162461bcd60e51b81526004018080602001828103825283818151815260200191508051906020019080838360005b83811015612e70578181015183820152602001612e58565b50505050905090810190601f168015612e9d5780820380516001836020036101000a031916815260200191505b509250505060405180910390fd5b505050900390565b600034118015612ec35750600081115b15612f0f576001600160a01b0382166000908152600c6020526040902060010154612eee90826130af565b6001600160a01b0383166000908152600c6020526040902060010155611412565b34611412576001600160a01b03919091166000908152600c6020526040902060010155565b6000813f7fc5d2460186f7233c927e7db2dcc703c0e500b653ca82273b7bfad8045d85a4708115801590611ae45750141592915050565b6000828152600d6020526040902060060154600160a01b900460ff161580612fc157506000828152600d602090815260408083206001600160a01b038716845260070190915290206002015462010000900460ff165b613009576040805162461bcd60e51b81526020600482015260146024820152731059191c995cdcc81b9bdd08185c1c1c9bdd995960621b604482015290519081900360640190fd5b612cba838383613109565b60006116c583836040518060400160405280601a81526020017f536166654d6174683a206469766973696f6e206279207a65726f000000000000815250613307565b60008261306557506000610f94565b8282028284828161307257fe5b04146116c55760405162461bcd60e51b81526004018080602001828103825260218152602001806136006021913960400191505060405180910390fd5b6000828201838110156116c5576040805162461bcd60e51b815260206004820152601b60248201527f536166654d6174683a206164646974696f6e206f766572666c6f770000000000604482015290519081900360640190fd5b6000828152600d602090815260408083206001600160a01b038716845260070190915281205461313990836130af565b6000848152600d602090815260408083206001600160a01b0389168452600701909152902054909150613236576000838152600d602090815260408083206001600160a01b0388168452600701909152902060020154610100900460ff16613205576001600160a01b0384166000818152600c6020908152604080832060020180546001818101835591855283852001889055878452600d83529083206008810180549283018155845282842090910180546001600160a01b0319168517905592909152600790910190525b6000838152600d602090815260408083206001600160a01b03881684526007019091529020426001909101556132d7565b6000838152600d602090815260408083206001600160a01b038816845260070190915281206001015461326a9042906123eb565b6000858152600d602090815260408083206001600160a01b038a168452600701909152812054919250906132a49084906126b79085613056565b6000868152600d602090815260408083206001600160a01b038b1684526007019091529020429190910360019091015550505b6000928352600d602090815260408085206001600160a01b03909616855260079095019052929091209190915550565b600081836133565760405162461bcd60e51b8152602060048201818152835160248401528351909283926044909101919085019080838360008315612e70578181015183820152602001612e58565b50600083858161336257fe5b0495945050505050565b82600a81019282156133b4579160200282015b828111156133b457825182546001600160a01b0319166001600160a01b0390911617825560209092019160019091019061337f565b506133c092915061348c565b5090565b82600281019282156133f2579160200282015b828111156133f25782518255916020019190600101906133d7565b506133c09291506134ab565b8280548282559060005260206000209081019282156133b457916020028201828111156133b457825182546001600160a01b0319166001600160a01b0390911617825560209092019160019091019061337f565b8280548282559060005260206000209081019282156133f257916020028201828111156133f25782518255916020019190600101906133d7565b5b808211156133c05780546001600160a01b031916815560010161348d565b5b808211156133c057600081556001016134ac56fe455243313135353a2062616c616e636520717565727920666f7220746865207a65726f20616464726573734f776e61626c653a206e6577206f776e657220697320746865207a65726f2061646472657373455243313135353a207461726765742061646472657373206d757374206265206e6f6e2d7a65726f455243313135353a2063616e6e6f742073657420617070726f76616c2073746174757320666f722073656c66455243313135353a206163636f756e747320616e6420494473206d75737420686176652073616d65206c656e67746873455243313135353a20676f7420756e6b6e6f776e2076616c75652066726f6d206f6e4552433131353542617463685265636569766564455243313135353a20736f6d65206164647265737320696e2062617463682062616c616e6365207175657279206973207a65726f536166654d6174683a206d756c7469706c69636174696f6e206f766572666c6f774f776e61626c653a2063616c6c6572206973206e6f7420746865206f776e6572455243313135353a206e656564206f70657261746f7220617070726f76616c20666f7220337264207061727479207472616e7366657273455243313135353a2049447320616e642076616c756573206d75737420686176652073616d65206c656e67746873455243313135353a20676f7420756e6b6e6f776e2076616c75652066726f6d206f6e455243313135355265636569766564a26469706673582212208136e2d9287c25f9d4c9ba1d6deab66b6f1058acedaac5471c7b64dd857baafe64736f6c634300070100334f776e61626c653a206e6577206f776e657220697320746865207a65726f2061646472657373",
  "immutableReferences": {},
  "source": "// SPDX-License-Identifier: GPL-3.0-or-later\npragma solidity ^0.7.1;\n\nimport './Maintenable.sol';\n\ncontract Privatizable is Maintenable {\n\n\n    /****************************\n    EXTERNAL FUNCTIONS\n    *****************************/\n\n\n    /**\n     * @dev Function to approve holder for a private token.\n     * @param id the token id\n     * @param holder The authorized address\n     */\n    function approveHolder(uint256 id, address holder) external onlyMaintener(id) {\n        _tokens[id].holders[holder].isApproved = true;\n    }\n\n\n    /**\n     * @dev Function to revoke holder for a private token.\n     * @param id the token id\n     * @param holder The authorized address\n     */\n    function revokeHolder(uint256 id, address holder) external onlyMaintener(id) {\n        _tokens[id].holders[holder].isApproved = false;\n    }\n\n\n    /****************************\n    INTERNAL FUNCTIONS\n    *****************************/\n\n\n    // override ChargeableTransfer._addToBalance()\n    function _addToBalance(address recipient, uint256 id, uint256 value) internal override {\n        require(!_tokens[id].isPrivate || _tokens[id].holders[recipient].isApproved, \"Address not approved\");\n        super._addToBalance(recipient, id, value);\n    }\n\n}\n",
  "sourcePath": "/home/ouziel/Work/StashBloxContracts/contracts/lib/Privatizable.sol",
  "compiler": {
    "name": "solc",
    "version": "0.7.1+commit.f4a555be.Emscripten.clang"
  },
  "schemaVersion": "3.2.3",
  "updatedAt": "2020-10-21T13:10:21.908Z",
  "devdoc": {
    "kind": "dev",
    "methods": {
      "approveHolder(uint256,address)": {
        "details": "Function to approve holder for a private token.",
        "params": {
          "holder": "The authorized address",
          "id": "the token id"
        }
      },
      "authorizeMaintener(uint256,address)": {
        "details": "Function to authorize an address to maintain a token.",
        "params": {
          "maintener": "The authorized address"
        }
      },
      "authorizeTokenizer(address)": {
        "details": "Function to authorize an address to create a token.",
        "params": {
          "tokenizer": "The authorized address"
        }
      },
      "averageAge(address,uint256)": {
        "details": "Function to get the average age of the token for the given address.",
        "params": {
          "account": "the address from where to transfer the tokens",
          "id": "The token ID"
        },
        "returns": {
          "_0": "average age in seconds"
        }
      },
      "balanceOf(address,uint256)": {
        "details": "Get the specified address' balance for token with specified ID. Attempting to query the zero account for a balance will result in a revert.",
        "params": {
          "account": "The address of the token holder",
          "id": "ID of the token"
        },
        "returns": {
          "_0": "The account's balance of the token type requested"
        }
      },
      "balanceOfBatch(address[],uint256[])": {
        "details": "Get the balance of multiple account/token pairs. If any of the query accounts is the zero account, this query will revert.",
        "params": {
          "accounts": "The addresses of the token holders",
          "ids": "IDs of the tokens"
        },
        "returns": {
          "_0": "Balances for each account and token id pair"
        }
      },
      "cloneToken(uint256,uint256[],uint256[])": {
        "details": "Function to mint tokens in batch.",
        "params": {
          "id": "Identifier of the template",
          "ids": "list of IDs of the tokens to be minted",
          "metadataHashes": "list of metadata file hashes"
        }
      },
      "createToken(address,uint256,uint256,uint256,uint256,uint256[3],address[],uint256[],uint256,bool,address)": {
        "details": "Function to mint an amount of a token with the given ID.",
        "params": {
          "feesRecipients": "list of addresses receiving transfer fees",
          "feesRecipientsPercentage": "list of percentage, each one for the corresponding feesRecipients",
          "id": "ID of the token to be minted",
          "isPrivate": "true if holder need approval",
          "legalAuthority": "address of the legal authority",
          "metadataHash": "Metadata file hash",
          "minHoldingForCallback": "minimum holding to propose a callback",
          "recipient": "The address that will own the minted tokens",
          "supply": "Amount of the token to be minted",
          "transactionFees": "transaction fees: [lumpSumFees (in WEI), valueProportionalFees (ratio of transfered amount * 10**8), storageFees (in storageCredit * 10**8)]"
        }
      },
      "isApprovedForAll(address,address)": {
        "params": {
          "account": "The account of the Tokens",
          "operator": "Address of authorized operator"
        },
        "returns": {
          "_0": "True if the operator is approved, false if not"
        }
      },
      "isMaintener(uint256,address)": {
        "details": "Function to check if an address is authorized to maintain a token.",
        "params": {
          "id": "the token id",
          "maintener": "The authorized address"
        },
        "returns": {
          "_0": "true if it's a maintener address"
        }
      },
      "isTokenizer(address)": {
        "details": "Function to check if an address is authorized to create a token.",
        "params": {
          "tokenizer": "The authorized address"
        }
      },
      "owner()": {
        "details": "Returns the address of the current owner."
      },
      "revokeHolder(uint256,address)": {
        "details": "Function to revoke holder for a private token.",
        "params": {
          "holder": "The authorized address",
          "id": "the token id"
        }
      },
      "revokeMaintener(uint256,address)": {
        "details": "Function to revoke the authorization to maintain a token.",
        "params": {
          "id": "the token id",
          "maintener": "The authorized address"
        }
      },
      "revokeTokenizer(address)": {
        "details": "Function to revoke the authorization to create a token.",
        "params": {
          "tokenizer": "The authorized address"
        }
      },
      "safeBatchTransferFrom(address,address,uint256[],uint256[],bytes)": {
        "details": "Transfers `values` amount(s) of `ids` from the `from` address to the `to` address specified. Caller must be approved to manage the tokens being transferred out of the `from` account. If `to` is a smart contract, will call `onERC1155BatchReceived` on `to` and act appropriately.",
        "params": {
          "data": "Data forwarded to `onERC1155Received` if `to` is a contract receiver",
          "from": "Source address",
          "ids": "IDs of each token type",
          "to": "Target address",
          "values": "Transfer amounts per token type"
        }
      },
      "safeTransferFrom(address,address,uint256,uint256,bytes)": {
        "details": "Transfers `value` amount of an `id` from the `from` address to the `to` address specified. Caller must be approved to manage the tokens being transferred out of the `from` account. If `to` is a smart contract, will call `onERC1155Received` on `to` and act appropriately.",
        "params": {
          "data": "Data forwarded to `onERC1155Received` if `to` is a contract receiver",
          "from": "Source address",
          "id": "ID of the token type",
          "to": "Target address",
          "value": "Transfer amount"
        }
      },
      "setApprovalForAll(address,bool)": {
        "details": "Sets or unsets the approval of a given operator. An operator is allowed to transfer all tokens of the sender on their behalf. Because an account already has operator privileges for itself, this function will revert if the account attempts to set the approval status for itself.",
        "params": {
          "approved": "representing the status of the approval to be set",
          "operator": "address to set the approval"
        }
      },
      "setProxyRegistryAddress(address[10])": {
        "details": "Function to update the operator whitelist",
        "params": {
          "proxyAddresses": "List of addresses"
        }
      },
      "supportsInterface(bytes4)": {
        "params": {
          "_interfaceID": "The interface identifier, as specified in ERC-165"
        },
        "returns": {
          "_0": "`true` if the contract implements `_interfaceID` and"
        }
      },
      "transactionFees(address,uint256,uint256)": {
        "details": "Function to get the transaction price to transfer tokens.",
        "params": {
          "account": "the address from where to transfer the tokens",
          "id": "The token ID",
          "value": "The amount to transfer"
        },
        "returns": {
          "_0": "transfer price"
        }
      },
      "transferOwnership(address)": {
        "details": "Transfers ownership of the contract to a new account (`newOwner`). Can only be called by the current owner."
      },
      "updateToken(uint256,uint256,uint256[3],address[],uint256[],uint256,bool,address)": {
        "details": "Function to update a token with the given ID.",
        "params": {
          "feesRecipients": "list of addresses receiving transfer fees",
          "feesRecipientsPercentage": "list of percentage, each one for the corresponding feesRecipients",
          "id": "ID of the token to be updated",
          "isPrivate": "true if holder need approval",
          "legalAuthority": "address of the legal authority",
          "metadataHash": "Metadata file hash",
          "minHoldingForCallback": "minimum holding to propose a callback",
          "transactionFees": "transaction fees: [lumpSumFees (in WEI), valueProportionalFees (ratio of transfered amount * 10**8), storageFees (in storageCredit * 10**8)]"
        }
      }
    },
    "version": 1
  },
  "userdoc": {
    "kind": "user",
    "methods": {
      "isApprovedForAll(address,address)": {
        "notice": "Queries the approval status of an operator for a given account."
      },
      "supportsInterface(bytes4)": {
        "notice": "Query if a contract implements an interface"
      }
    },
    "version": 1
  }
}