{
  "contractName": "Privatizable",
  "abi": [
    {
      "anonymous": false,
      "inputs": [
        {
          "indexed": true,
          "internalType": "address",
          "name": "_owner",
          "type": "address"
        },
        {
          "indexed": true,
          "internalType": "address",
          "name": "_operator",
          "type": "address"
        },
        {
          "indexed": false,
          "internalType": "bool",
          "name": "_approved",
          "type": "bool"
        }
      ],
      "name": "ApprovalForAll",
      "type": "event"
    },
    {
      "anonymous": false,
      "inputs": [
        {
          "indexed": true,
          "internalType": "address",
          "name": "previousOwner",
          "type": "address"
        },
        {
          "indexed": true,
          "internalType": "address",
          "name": "newOwner",
          "type": "address"
        }
      ],
      "name": "OwnershipTransferred",
      "type": "event"
    },
    {
      "anonymous": false,
      "inputs": [
        {
          "indexed": true,
          "internalType": "uint256",
          "name": "_id",
          "type": "uint256"
        },
        {
          "indexed": false,
          "internalType": "uint256",
          "name": "_documentHash",
          "type": "uint256"
        }
      ],
      "name": "TokenUpdated",
      "type": "event"
    },
    {
      "anonymous": false,
      "inputs": [
        {
          "indexed": true,
          "internalType": "address",
          "name": "_operator",
          "type": "address"
        },
        {
          "indexed": true,
          "internalType": "address",
          "name": "_from",
          "type": "address"
        },
        {
          "indexed": true,
          "internalType": "address",
          "name": "_to",
          "type": "address"
        },
        {
          "indexed": false,
          "internalType": "uint256[]",
          "name": "_ids",
          "type": "uint256[]"
        },
        {
          "indexed": false,
          "internalType": "uint256[]",
          "name": "_values",
          "type": "uint256[]"
        }
      ],
      "name": "TransferBatch",
      "type": "event"
    },
    {
      "anonymous": false,
      "inputs": [
        {
          "indexed": true,
          "internalType": "address",
          "name": "_operator",
          "type": "address"
        },
        {
          "indexed": true,
          "internalType": "address",
          "name": "_from",
          "type": "address"
        },
        {
          "indexed": true,
          "internalType": "address",
          "name": "_to",
          "type": "address"
        },
        {
          "indexed": false,
          "internalType": "uint256",
          "name": "_id",
          "type": "uint256"
        },
        {
          "indexed": false,
          "internalType": "uint256",
          "name": "_value",
          "type": "uint256"
        }
      ],
      "name": "TransferSingle",
      "type": "event"
    },
    {
      "anonymous": false,
      "inputs": [
        {
          "indexed": false,
          "internalType": "string",
          "name": "_value",
          "type": "string"
        },
        {
          "indexed": true,
          "internalType": "uint256",
          "name": "_id",
          "type": "uint256"
        }
      ],
      "name": "URI",
      "type": "event"
    },
    {
      "inputs": [
        {
          "internalType": "uint256",
          "name": "",
          "type": "uint256"
        }
      ],
      "name": "_callbacks",
      "outputs": [
        {
          "internalType": "uint256",
          "name": "tokenId",
          "type": "uint256"
        },
        {
          "internalType": "uint256",
          "name": "price",
          "type": "uint256"
        },
        {
          "internalType": "uint256",
          "name": "escrowedAmount",
          "type": "uint256"
        },
        {
          "internalType": "uint256",
          "name": "callCounter",
          "type": "uint256"
        },
        {
          "internalType": "uint256",
          "name": "documentHash",
          "type": "uint256"
        },
        {
          "internalType": "address",
          "name": "caller",
          "type": "address"
        },
        {
          "internalType": "bool",
          "name": "needLegalApproval",
          "type": "bool"
        },
        {
          "internalType": "bool",
          "name": "approvedByLegal",
          "type": "bool"
        },
        {
          "internalType": "bool",
          "name": "refused",
          "type": "bool"
        },
        {
          "internalType": "bool",
          "name": "accepted",
          "type": "bool"
        },
        {
          "internalType": "bool",
          "name": "completed",
          "type": "bool"
        }
      ],
      "stateMutability": "view",
      "type": "function"
    },
    {
      "inputs": [],
      "name": "_config",
      "outputs": [
        {
          "internalType": "uint256",
          "name": "callbackAutoExecuteMaxAddresses",
          "type": "uint256"
        },
        {
          "internalType": "string",
          "name": "baseURI",
          "type": "string"
        },
        {
          "internalType": "string",
          "name": "versionRecipient",
          "type": "string"
        },
        {
          "internalType": "address",
          "name": "owner",
          "type": "address"
        },
        {
          "internalType": "address",
          "name": "GSNTrustedForwarder",
          "type": "address"
        }
      ],
      "stateMutability": "view",
      "type": "function"
    },
    {
      "inputs": [
        {
          "internalType": "uint256",
          "name": "",
          "type": "uint256"
        }
      ],
      "name": "_tokens",
      "outputs": [
        {
          "internalType": "uint256",
          "name": "supply",
          "type": "uint256"
        },
        {
          "internalType": "uint256",
          "name": "decimals",
          "type": "uint256"
        },
        {
          "internalType": "uint256",
          "name": "lumpSumTransactionFees",
          "type": "uint256"
        },
        {
          "internalType": "uint256",
          "name": "valueTransactionFees",
          "type": "uint256"
        },
        {
          "internalType": "uint256",
          "name": "minHoldingForCallback",
          "type": "uint256"
        },
        {
          "internalType": "uint256",
          "name": "metadataHash",
          "type": "uint256"
        },
        {
          "internalType": "address",
          "name": "legalAuthority",
          "type": "address"
        },
        {
          "internalType": "bool",
          "name": "isPrivate",
          "type": "bool"
        },
        {
          "internalType": "bool",
          "name": "locked",
          "type": "bool"
        }
      ],
      "stateMutability": "view",
      "type": "function"
    },
    {
      "inputs": [
        {
          "internalType": "address",
          "name": "",
          "type": "address"
        }
      ],
      "name": "_users",
      "outputs": [
        {
          "internalType": "bool",
          "name": "isTokenizer",
          "type": "bool"
        },
        {
          "internalType": "bool",
          "name": "isLocked",
          "type": "bool"
        },
        {
          "internalType": "uint256",
          "name": "ETHBalance",
          "type": "uint256"
        }
      ],
      "stateMutability": "view",
      "type": "function"
    },
    {
      "inputs": [
        {
          "internalType": "uint256",
          "name": "id",
          "type": "uint256"
        },
        {
          "internalType": "address",
          "name": "maintener",
          "type": "address"
        }
      ],
      "name": "authorizeMaintener",
      "outputs": [],
      "stateMutability": "nonpayable",
      "type": "function"
    },
    {
      "inputs": [
        {
          "internalType": "address",
          "name": "tokenizer",
          "type": "address"
        }
      ],
      "name": "authorizeTokenizer",
      "outputs": [],
      "stateMutability": "nonpayable",
      "type": "function"
    },
    {
      "inputs": [
        {
          "internalType": "address",
          "name": "account",
          "type": "address"
        },
        {
          "internalType": "uint256",
          "name": "id",
          "type": "uint256"
        }
      ],
      "name": "averageAge",
      "outputs": [
        {
          "internalType": "uint256",
          "name": "",
          "type": "uint256"
        }
      ],
      "stateMutability": "view",
      "type": "function"
    },
    {
      "inputs": [
        {
          "internalType": "address",
          "name": "account",
          "type": "address"
        },
        {
          "internalType": "uint256",
          "name": "id",
          "type": "uint256"
        }
      ],
      "name": "balanceOf",
      "outputs": [
        {
          "internalType": "uint256",
          "name": "",
          "type": "uint256"
        }
      ],
      "stateMutability": "view",
      "type": "function"
    },
    {
      "inputs": [
        {
          "internalType": "address[]",
          "name": "accounts",
          "type": "address[]"
        },
        {
          "internalType": "uint256[]",
          "name": "ids",
          "type": "uint256[]"
        }
      ],
      "name": "balanceOfBatch",
      "outputs": [
        {
          "internalType": "uint256[]",
          "name": "",
          "type": "uint256[]"
        }
      ],
      "stateMutability": "view",
      "type": "function"
    },
    {
      "inputs": [
        {
          "internalType": "uint256",
          "name": "id",
          "type": "uint256"
        },
        {
          "internalType": "uint256[]",
          "name": "ids",
          "type": "uint256[]"
        },
        {
          "internalType": "uint256[]",
          "name": "metadataHashes",
          "type": "uint256[]"
        }
      ],
      "name": "cloneToken",
      "outputs": [],
      "stateMutability": "nonpayable",
      "type": "function"
    },
    {
      "inputs": [
        {
          "internalType": "address",
          "name": "recipient",
          "type": "address"
        },
        {
          "internalType": "uint256",
          "name": "id",
          "type": "uint256"
        },
        {
          "internalType": "uint256",
          "name": "supply",
          "type": "uint256"
        },
        {
          "internalType": "uint256",
          "name": "decimals",
          "type": "uint256"
        },
        {
          "internalType": "uint256",
          "name": "metadataHash",
          "type": "uint256"
        },
        {
          "internalType": "uint256[3]",
          "name": "transactionFees",
          "type": "uint256[3]"
        },
        {
          "internalType": "address[]",
          "name": "feesRecipients",
          "type": "address[]"
        },
        {
          "internalType": "uint256[]",
          "name": "feesRecipientsPercentage",
          "type": "uint256[]"
        },
        {
          "internalType": "uint256",
          "name": "minHoldingForCallback",
          "type": "uint256"
        },
        {
          "internalType": "bool",
          "name": "isPrivate",
          "type": "bool"
        },
        {
          "internalType": "address",
          "name": "legalAuthority",
          "type": "address"
        }
      ],
      "name": "createToken",
      "outputs": [],
      "stateMutability": "nonpayable",
      "type": "function"
    },
    {
      "inputs": [
        {
          "internalType": "address",
          "name": "account",
          "type": "address"
        },
        {
          "internalType": "address",
          "name": "operator",
          "type": "address"
        }
      ],
      "name": "isApprovedForAll",
      "outputs": [
        {
          "internalType": "bool",
          "name": "",
          "type": "bool"
        }
      ],
      "stateMutability": "view",
      "type": "function"
    },
    {
      "inputs": [
        {
          "internalType": "uint256",
          "name": "id",
          "type": "uint256"
        },
        {
          "internalType": "address",
          "name": "maintener",
          "type": "address"
        }
      ],
      "name": "isMaintener",
      "outputs": [
        {
          "internalType": "bool",
          "name": "",
          "type": "bool"
        }
      ],
      "stateMutability": "view",
      "type": "function"
    },
    {
      "inputs": [
        {
          "internalType": "address",
          "name": "tokenizer",
          "type": "address"
        }
      ],
      "name": "isTokenizer",
      "outputs": [
        {
          "internalType": "bool",
          "name": "",
          "type": "bool"
        }
      ],
      "stateMutability": "view",
      "type": "function"
    },
    {
      "inputs": [
        {
          "internalType": "address",
          "name": "forwarder",
          "type": "address"
        }
      ],
      "name": "isTrustedForwarder",
      "outputs": [
        {
          "internalType": "bool",
          "name": "",
          "type": "bool"
        }
      ],
      "stateMutability": "view",
      "type": "function"
    },
    {
      "inputs": [],
      "name": "owner",
      "outputs": [
        {
          "internalType": "address",
          "name": "",
          "type": "address"
        }
      ],
      "stateMutability": "view",
      "type": "function"
    },
    {
      "inputs": [
        {
          "internalType": "uint256",
          "name": "id",
          "type": "uint256"
        },
        {
          "internalType": "address",
          "name": "maintener",
          "type": "address"
        }
      ],
      "name": "revokeMaintener",
      "outputs": [],
      "stateMutability": "nonpayable",
      "type": "function"
    },
    {
      "inputs": [
        {
          "internalType": "address",
          "name": "tokenizer",
          "type": "address"
        }
      ],
      "name": "revokeTokenizer",
      "outputs": [],
      "stateMutability": "nonpayable",
      "type": "function"
    },
    {
      "inputs": [
        {
          "internalType": "address",
          "name": "from",
          "type": "address"
        },
        {
          "internalType": "address",
          "name": "to",
          "type": "address"
        },
        {
          "internalType": "uint256[]",
          "name": "ids",
          "type": "uint256[]"
        },
        {
          "internalType": "uint256[]",
          "name": "values",
          "type": "uint256[]"
        },
        {
          "internalType": "bytes",
          "name": "data",
          "type": "bytes"
        }
      ],
      "name": "safeBatchTransferFrom",
      "outputs": [],
      "stateMutability": "payable",
      "type": "function"
    },
    {
      "inputs": [
        {
          "internalType": "address",
          "name": "from",
          "type": "address"
        },
        {
          "internalType": "address",
          "name": "to",
          "type": "address"
        },
        {
          "internalType": "uint256",
          "name": "id",
          "type": "uint256"
        },
        {
          "internalType": "uint256",
          "name": "value",
          "type": "uint256"
        },
        {
          "internalType": "bytes",
          "name": "data",
          "type": "bytes"
        }
      ],
      "name": "safeTransferFrom",
      "outputs": [],
      "stateMutability": "payable",
      "type": "function"
    },
    {
      "inputs": [
        {
          "internalType": "address",
          "name": "operator",
          "type": "address"
        },
        {
          "internalType": "bool",
          "name": "approved",
          "type": "bool"
        }
      ],
      "name": "setApprovalForAll",
      "outputs": [],
      "stateMutability": "nonpayable",
      "type": "function"
    },
    {
      "inputs": [
        {
          "internalType": "address[10]",
          "name": "proxyAddresses",
          "type": "address[10]"
        }
      ],
      "name": "setProxyRegistryAddress",
      "outputs": [],
      "stateMutability": "nonpayable",
      "type": "function"
    },
    {
      "inputs": [
        {
          "internalType": "bytes4",
          "name": "_interfaceID",
          "type": "bytes4"
        }
      ],
      "name": "supportsInterface",
      "outputs": [
        {
          "internalType": "bool",
          "name": "",
          "type": "bool"
        }
      ],
      "stateMutability": "pure",
      "type": "function"
    },
    {
      "inputs": [
        {
          "internalType": "address",
          "name": "account",
          "type": "address"
        },
        {
          "internalType": "uint256",
          "name": "id",
          "type": "uint256"
        },
        {
          "internalType": "uint256",
          "name": "value",
          "type": "uint256"
        }
      ],
      "name": "transactionFees",
      "outputs": [
        {
          "internalType": "uint256",
          "name": "",
          "type": "uint256"
        }
      ],
      "stateMutability": "view",
      "type": "function"
    },
    {
      "inputs": [
        {
          "internalType": "address",
          "name": "newOwner",
          "type": "address"
        }
      ],
      "name": "transferOwnership",
      "outputs": [],
      "stateMutability": "nonpayable",
      "type": "function"
    },
    {
      "inputs": [
        {
          "internalType": "uint256",
          "name": "id",
          "type": "uint256"
        },
        {
          "internalType": "uint256",
          "name": "metadataHash",
          "type": "uint256"
        },
        {
          "internalType": "uint256[3]",
          "name": "transactionFees",
          "type": "uint256[3]"
        },
        {
          "internalType": "address[]",
          "name": "feesRecipients",
          "type": "address[]"
        },
        {
          "internalType": "uint256[]",
          "name": "feesRecipientsPercentage",
          "type": "uint256[]"
        },
        {
          "internalType": "uint256",
          "name": "minHoldingForCallback",
          "type": "uint256"
        },
        {
          "internalType": "bool",
          "name": "isPrivate",
          "type": "bool"
        },
        {
          "internalType": "address",
          "name": "legalAuthority",
          "type": "address"
        }
      ],
      "name": "updateToken",
      "outputs": [],
      "stateMutability": "nonpayable",
      "type": "function"
    },
    {
      "inputs": [
        {
          "internalType": "uint256",
          "name": "id",
          "type": "uint256"
        }
      ],
      "name": "uri",
      "outputs": [
        {
          "internalType": "string",
          "name": "",
          "type": "string"
        }
      ],
      "stateMutability": "view",
      "type": "function"
    },
    {
      "inputs": [],
      "name": "versionRecipient",
      "outputs": [
        {
          "internalType": "string",
          "name": "",
          "type": "string"
        }
      ],
      "stateMutability": "view",
      "type": "function"
    },
    {
      "inputs": [
        {
          "internalType": "uint256",
          "name": "id",
          "type": "uint256"
        },
        {
          "internalType": "address",
          "name": "holder",
          "type": "address"
        }
      ],
      "name": "approveHolder",
      "outputs": [],
      "stateMutability": "nonpayable",
      "type": "function"
    },
    {
      "inputs": [
        {
          "internalType": "uint256",
          "name": "id",
          "type": "uint256"
        },
        {
          "internalType": "address",
          "name": "holder",
          "type": "address"
        }
      ],
      "name": "revokeHolder",
      "outputs": [],
      "stateMutability": "nonpayable",
      "type": "function"
    }
  ],
  "bytecode": "0x60806040523480156200001157600080fd5b5062000026620000206200002c565b62000062565b62000133565b60006018361080159062000046575062000046336200011f565b156200005c575060131936013560601c6200005f565b50335b90565b6001600160a01b038116620000c3576040517f08c379a000000000000000000000000000000000000000000000000000000000815260040180806020018281038252602681526020018062003ed26026913960400191505060405180910390fd5b6003546040516001600160a01b038084169216907f8be0079c531659141344cd1fd0a4f28419497f9722a3daafe3b4186f6b6457e090600090a3600380546001600160a01b0319166001600160a01b0392909216919091179055565b6004546001600160a01b0390811691161490565b613d8f80620001436000396000f3fe6080604052600436106101cc5760003560e01c8063759c5214116100f7578063c40b87ae11610095578063ed70554d11610064578063ed70554d14610e48578063f242432a14610ec6578063f2fde38b14610f59578063f8a5a07c14610f8c576101cc565b8063c40b87ae14610bf8578063d1660e1814610d95578063d41d0aa314610dd4578063e985e9c514610e0d576101cc565b80638aeba37e116100d15780638aeba37e14610b205780638da5cb5b14610b59578063a22cb46514610b8a578063c02f303c14610bc5576101cc565b8063759c521414610a815780637627b73214610aba5780638870147b14610aed576101cc565b80634392e5771161016f578063572b6c051161013e578063572b6c05146109a3578063585941d5146109d65780635dafec1b14610a0f5780635dd2b9a614610a48576101cc565b80634392e5771461062b578063486ff0cd1461068c5780634ab0d253146106a15780634e1273f414610823576101cc565b80632eb2c2d6116101ab5780632eb2c2d6146103035780632ed42bf71461042c5780633cacd7d614610546578063414ed0ce14610599576101cc565b8062fdd58e146101d157806301ffc9a71461021c5780630e89341c14610264575b600080fd5b3480156101dd57600080fd5b5061020a600480360360408110156101f457600080fd5b506001600160a01b0381351690602001356110c3565b60408051918252519081900360200190f35b34801561022857600080fd5b506102506004803603602081101561023f57600080fd5b50356001600160e01b031916611138565b604080519115158252519081900360200190f35b34801561027057600080fd5b5061028e6004803603602081101561028757600080fd5b503561117f565b6040805160208082528351818301528351919283929083019185019080838360005b838110156102c85781810151838201526020016102b0565b50505050905090810190601f1680156102f55780820380516001836020036101000a031916815260200191505b509250505060405180910390f35b61042a600480360360a081101561031957600080fd5b6001600160a01b038235811692602081013590911691810190606081016040820135600160201b81111561034c57600080fd5b82018360208201111561035e57600080fd5b803590602001918460208302840111600160201b8311171561037f57600080fd5b919390929091602081019035600160201b81111561039c57600080fd5b8201836020820111156103ae57600080fd5b803590602001918460208302840111600160201b831117156103cf57600080fd5b919390929091602081019035600160201b8111156103ec57600080fd5b8201836020820111156103fe57600080fd5b803590602001918460018302840111600160201b8311171561041f57600080fd5b509092509050611220565b005b34801561043857600080fd5b506104416114f3565b604051808681526020018060200180602001856001600160a01b03168152602001846001600160a01b03168152602001838103835287818151815260200191508051906020019080838360005b838110156104a657818101518382015260200161048e565b50505050905090810190601f1680156104d35780820380516001836020036101000a031916815260200191505b50838103825286518152865160209182019188019080838360005b838110156105065781810151838201526020016104ee565b50505050905090810190601f1680156105335780820380516001836020036101000a031916815260200191505b5097505050505050505060405180910390f35b34801561055257600080fd5b506105796004803603602081101561056957600080fd5b50356001600160a01b0316611634565b604080519315158452911515602084015282820152519081900360600190f35b3480156105a557600080fd5b506105c3600480360360208110156105bc57600080fd5b503561165a565b604080519b8c5260208c019a909a528a8a019890985260608a019690965260808901949094526001600160a01b0390921660a0880152151560c0870152151560e086015215156101008501521515610120840152151561014083015251908190036101600190f35b34801561063757600080fd5b5061042a600480360361014081101561064f57600080fd5b81019080806101400190600a806020026040519081016040528092919082600a602002808284376000920191909152509194506116cd9350505050565b34801561069857600080fd5b5061028e611725565b3480156106ad57600080fd5b5061042a60048036036101408110156106c557600080fd5b6040805160608181018352843594602081013594810193909260a08401929091840190600390839083908082843760009201919091525091949392602081019250359050600160201b81111561071a57600080fd5b82018360208201111561072c57600080fd5b803590602001918460208302840111600160201b8311171561074d57600080fd5b9190808060200260200160405190810160405280939291908181526020018383602002808284376000920191909152509295949360208101935035915050600160201b81111561079c57600080fd5b8201836020820111156107ae57600080fd5b803590602001918460208302840111600160201b831117156107cf57600080fd5b919080806020026020016040519081016040528093929190818152602001838360200280828437600092019190915250929550508235935050506020810135151590604001356001600160a01b03166117b9565b34801561082f57600080fd5b506109536004803603604081101561084657600080fd5b810190602081018135600160201b81111561086057600080fd5b82018360208201111561087257600080fd5b803590602001918460208302840111600160201b8311171561089357600080fd5b9190808060200260200160405190810160405280939291908181526020018383602002808284376000920191909152509295949360208101935035915050600160201b8111156108e257600080fd5b8201836020820111156108f457600080fd5b803590602001918460208302840111600160201b8311171561091557600080fd5b9190808060200260200160405190810160405280939291908181526020018383602002808284376000920191909152509295506118b7945050505050565b60408051602080825283518183015283519192839290830191858101910280838360005b8381101561098f578181015183820152602001610977565b505050509050019250505060405180910390f35b3480156109af57600080fd5b50610250600480360360208110156109c657600080fd5b50356001600160a01b0316611a3b565b3480156109e257600080fd5b5061020a600480360360408110156109f957600080fd5b506001600160a01b038135169060200135611a4f565b348015610a1b57600080fd5b5061025060048036036040811015610a3257600080fd5b50803590602001356001600160a01b0316611a8a565b348015610a5457600080fd5b5061042a60048036036040811015610a6b57600080fd5b50803590602001356001600160a01b0316611a96565b348015610a8d57600080fd5b5061042a60048036036040811015610aa457600080fd5b50803590602001356001600160a01b0316611b2a565b348015610ac657600080fd5b5061042a60048036036020811015610add57600080fd5b50356001600160a01b0316611bb9565b348015610af957600080fd5b5061042a60048036036020811015610b1057600080fd5b50356001600160a01b0316611c24565b348015610b2c57600080fd5b5061042a60048036036040811015610b4357600080fd5b50803590602001356001600160a01b0316611c8c565b348015610b6557600080fd5b50610b6e611d0a565b604080516001600160a01b039092168252519081900360200190f35b348015610b9657600080fd5b5061042a60048036036040811015610bad57600080fd5b506001600160a01b0381351690602001351515611d19565b348015610bd157600080fd5b5061025060048036036020811015610be857600080fd5b50356001600160a01b0316611e0c565b348015610c0457600080fd5b5061042a60048036036101a0811015610c1c57600080fd5b60408051606081810183526001600160a01b03853516946020810135949381013593828201359360808301359391830192916101008301919060a0840190600390839083908082843760009201919091525091949392602081019250359050600160201b811115610c8c57600080fd5b820183602082011115610c9e57600080fd5b803590602001918460208302840111600160201b83111715610cbf57600080fd5b9190808060200260200160405190810160405280939291908181526020018383602002808284376000920191909152509295949360208101935035915050600160201b811115610d0e57600080fd5b820183602082011115610d2057600080fd5b803590602001918460208302840111600160201b83111715610d4157600080fd5b919080806020026020016040519081016040528093929190818152602001838360200280828437600092019190915250929550508235935050506020810135151590604001356001600160a01b0316611e17565b348015610da157600080fd5b5061020a60048036036060811015610db857600080fd5b506001600160a01b038135169060208101359060400135611eee565b348015610de057600080fd5b5061042a60048036036040811015610df757600080fd5b50803590602001356001600160a01b0316611f03565b348015610e1957600080fd5b5061025060048036036040811015610e3057600080fd5b506001600160a01b0381358116916020013516611f7e565b348015610e5457600080fd5b50610e7260048036036020811015610e6b57600080fd5b5035611f8a565b60408051998a5260208a0198909852888801969096526060880194909452608087019290925260a08601526001600160a01b031660c0850152151560e0840152151561010083015251908190036101200190f35b61042a600480360360a0811015610edc57600080fd5b6001600160a01b03823581169260208101359091169160408201359160608101359181019060a081016080820135600160201b811115610f1b57600080fd5b820183602082011115610f2d57600080fd5b803590602001918460018302840111600160201b83111715610f4e57600080fd5b509092509050611fe6565b348015610f6557600080fd5b5061042a60048036036020811015610f7c57600080fd5b50356001600160a01b031661215d565b348015610f9857600080fd5b5061042a60048036036060811015610faf57600080fd5b81359190810190604081016020820135600160201b811115610fd057600080fd5b820183602082011115610fe257600080fd5b803590602001918460208302840111600160201b8311171561100357600080fd5b9190808060200260200160405190810160405280939291908181526020018383602002808284376000920191909152509295949360208101935035915050600160201b81111561105257600080fd5b82018360208201111561106457600080fd5b803590602001918460208302840111600160201b8311171561108557600080fd5b9190808060200260200160405190810160405280939291908181526020018383602002808284376000920191909152509295506121b0945050505050565b60006001600160a01b03831661110a5760405162461bcd60e51b815260040180806020018281038252602b815260200180613b44602b913960400191505060405180910390fd5b5060008181526010602090815260408083206001600160a01b03861684526007019091529020545b92915050565b60006001600160e01b031982166301ffc9a760e01b148061116957506001600160e01b03198216636cdb3d1360e11b145b156111765750600161117a565b5060005b919050565b60018054604080516020600284861615610100026000190190941693909304601f8101849004840282018401909252818152606093611132939192909183018282801561120d5780601f106111e25761010080835404028352916020019161120d565b820191906000526020600020905b8154815290600101906020018083116111f057829003601f168201915b505050505061121b8461235e565b61241a565b84831461125e5760405162461bcd60e51b815260040180806020018281038252602e815260200180613cfb602e913960400191505060405180910390fd5b6001600160a01b0387166112a35760405162461bcd60e51b8152600401808060200182810382526028815260200180613b956028913960400191505060405180910390fd5b6112ab612524565b6001600160a01b0316886001600160a01b031614806112dc57506112d6886112d1612524565b611f7e565b15156001145b6113175760405162461bcd60e51b8152600401808060200182810382526037815260200180613cc46037913960400191505060405180910390fd5b611386888888888080602002602001604051908101604052809392919081815260200183836020028082843760009201919091525050604080516020808c0282810182019093528b82529093508b92508a91829185019084908082843760009201919091525061255692505050565b866001600160a01b0316886001600160a01b03166113a2612524565b6001600160a01b03167f4a39dc06d4c0dbc64b70af90fd698a233a518aa5d07e595d983b8c0526c8f7fb898989896040518080602001806020018381038352878782818152602001925060200280828437600083820152601f01601f19169091018481038352858152602090810191508690860280828437600083820152604051601f909101601f19169092018290039850909650505050505050a46114e9611449612524565b898989898080602002602001604051908101604052809392919081815260200183836020028082843760009201919091525050604080516020808d0282810182019093528c82529093508c92508b91829185019084908082843760009201919091525050604080516020601f8c018190048102820181019092528a815292508a915089908190840183828082843760009201919091525061261092505050565b5050505050505050565b6000805460018054604080516020600284861615610100026000190190941693909304601f8101849004840282018401909252818152939493929183018282801561157f5780601f106115545761010080835404028352916020019161157f565b820191906000526020600020905b81548152906001019060200180831161156257829003601f168201915b50505060028085018054604080516020601f60001961010060018716150201909416959095049283018590048502810185019091528181529596959450909250908301828280156116115780601f106115e657610100808354040283529160200191611611565b820191906000526020600020905b8154815290600101906020018083116115f457829003601f168201915b50505050600383015460049093015491926001600160a01b039081169216905085565b600f602052600090815260409020805460019091015460ff808316926101009004169083565b60116020526000908152604090208054600182015460028301546003840154600485015460059095015493949293919290916001600160a01b0381169060ff600160a01b8204811691600160a81b8104821691600160b01b8204811691600160b81b8104821691600160c01b909104168b565b6116d5612801565b611714576040805162461bcd60e51b81526020600482018190526024820152600080516020613ca4833981519152604482015290519081900360640190fd5b611721600582600a6139ef565b5050565b60028054604080516020601f60001961010060018716150201909416859004938401819004810282018101909252828152606093909290918301828280156117ae5780601f10611783576101008083540402835291602001916117ae565b820191906000526020600020905b81548152906001019060200180831161179157829003601f168201915b505050505090505b90565b876117cb816117c6612524565b612827565b611816576040805162461bcd60e51b815260206004820152601760248201527624b739bab33334b1b4b2b73a103832b936b4b9b9b4b7b760491b604482015290519081900360640190fd5b600089815260106020526040902054611866576040805162461bcd60e51b815260206004820152600d60248201526c2ab735b737bbb7103a37b5b2b760991b604482015290519081900360640190fd5b6118768989898989898989612861565b6040805189815290518a917f199acc06cd2556bbc146fa3cb578799037dffcbf256eca32aaf2ef656925d2fd919081900360200190a2505050505050505050565b606081518351146118f95760405162461bcd60e51b8152600401808060200182810382526030815260200180613be96030913960400191505060405180910390fd5b6060835167ffffffffffffffff8111801561191357600080fd5b5060405190808252806020026020018201604052801561193d578160200160208202803683370190505b50905060005b8451811015611a335760006001600160a01b031685828151811061196357fe5b60200260200101516001600160a01b031614156119b15760405162461bcd60e51b8152600401808060200182810382526034815260200180613c4f6034913960400191505060405180910390fd5b601060008583815181106119c157fe5b6020026020010151815260200190815260200160002060070160008683815181106119e857fe5b60200260200101516001600160a01b03166001600160a01b0316815260200190815260200160002060000154828281518110611a2057fe5b6020908102919091010152600101611943565b509392505050565b6004546001600160a01b0390811691161490565b60008181526010602090815260408083206001600160a01b0386168452600701909152812060010154611a83904290612a05565b9392505050565b6000611a838383612827565b81611aa3816117c6612524565b611aee576040805162461bcd60e51b815260206004820152601760248201527624b739bab33334b1b4b2b73a103832b936b4b9b9b4b7b760491b604482015290519081900360640190fd5b5060009182526010602090815260408084206001600160a01b039093168452600790920190529020600201805462ff0000191662010000179055565b81611b37816117c6612524565b611b82576040805162461bcd60e51b815260206004820152601760248201527624b739bab33334b1b4b2b73a103832b936b4b9b9b4b7b760491b604482015290519081900360640190fd5b5060009182526010602090815260408084206001600160a01b039093168452600790920190529020600201805462ff000019169055565b611bc1612801565b611c00576040805162461bcd60e51b81526020600482018190526024820152600080516020613ca4833981519152604482015290519081900360640190fd5b6001600160a01b03166000908152600f60205260409020805460ff19166001179055565b611c2c612801565b611c6b576040805162461bcd60e51b81526020600482018190526024820152600080516020613ca4833981519152604482015290519081900360640190fd5b6001600160a01b03166000908152600f60205260409020805460ff19169055565b611c94612801565b611cd3576040805162461bcd60e51b81526020600482018190526024820152600080516020613ca4833981519152604482015290519081900360640190fd5b60009182526010602090815260408084206001600160a01b039093168452600790920190529020600201805460ff19166001179055565b6003546001600160a01b031690565b816001600160a01b0316611d2b612524565b6001600160a01b03161415611d715760405162461bcd60e51b815260040180806020018281038252602c815260200180613bbd602c913960400191505060405180910390fd5b80600f6000611d7e612524565b6001600160a01b0390811682526020808301939093526040918201600090812091871680825260039092019093529120805460ff191692151592909217909155611dc6612524565b6001600160a01b03167f17307eab39ab6107e8899845ad3d59bd9653f200f220920489ca2b5937696c318360405180821515815260200191505060405180910390a35050565b600061113282612a47565b611e27611e22612524565b612a47565b611e72576040805162461bcd60e51b815260206004820152601760248201527624b739bab33334b1b4b2b73a103832b936b4b9b9b4b7b760491b604482015290519081900360640190fd5b611e858b8b8b8b8b8b8b8b8b8b8b612a71565b6001600160a01b038b166000611e99612524565b6001600160a01b03167fc3d58168c5ae7397731d063d5bbf3d657854427343f4c083240f7aacaa2d0f628d8d604051808381526020018281526020019250505060405180910390a45050505050505050505050565b6000611efb848484612bb1565b949350505050565b611f0b612801565b611f4a576040805162461bcd60e51b81526020600482018190526024820152600080516020613ca4833981519152604482015290519081900360640190fd5b60009182526010602090815260408084206001600160a01b039093168452600790920190529020600201805460ff19169055565b6000611a838383612d99565b601060205260009081526040902080546001820154600283015460038401546004850154600586015460069096015494959394929391929091906001600160a01b0381169060ff600160a01b8204811691600160a81b90041689565b6001600160a01b03851661202b5760405162461bcd60e51b8152600401808060200182810382526028815260200180613b956028913960400191505060405180910390fd5b612033612524565b6001600160a01b0316866001600160a01b0316148061205f5750612059866112d1612524565b15156001145b61209a5760405162461bcd60e51b8152600401808060200182810382526037815260200180613cc46037913960400191505060405180910390fd5b6120a686868686612dde565b846001600160a01b0316866001600160a01b03166120c2612524565b6001600160a01b03167fc3d58168c5ae7397731d063d5bbf3d657854427343f4c083240f7aacaa2d0f628787604051808381526020018281526020019250505060405180910390a4612155612115612524565b8787878787878080601f016020809104026020016040519081016040528093929190818152602001838380828437600092019190915250612e5692505050565b505050505050565b612165612801565b6121a4576040805162461bcd60e51b81526020600482018190526024820152600080516020613ca4833981519152604482015290519081900360640190fd5b6121ad81612fcb565b50565b6121bb611e22612524565b612206576040805162461bcd60e51b815260206004820152601760248201527624b739bab33334b1b4b2b73a103832b936b4b9b9b4b7b760491b604482015290519081900360640190fd5b60008381526010602052604090205415801590612224575080518251145b612269576040805162461bcd60e51b8152602060048201526011602482015270496e76616c696420617267756d656e747360781b604482015290519081900360640190fd5b60005b8251811015612358576122a68484838151811061228557fe5b602002602001015184848151811061229957fe5b602002602001015161306c565b600084815260106020526040812060080180549091906122c257fe5b60009182526020822001546001600160a01b0316906122df612524565b6001600160a01b03167fc3d58168c5ae7397731d063d5bbf3d657854427343f4c083240f7aacaa2d0f6286858151811061231557fe5b6020026020010151601060008a815260200190815260200160002060000154604051808381526020018281526020019250505060405180910390a460010161226c565b50505050565b60606000825b801561237a576001919091019060109004612364565b60608267ffffffffffffffff8111801561239357600080fd5b506040519080825280601f01601f1916602001820160405280156123be576020820181803683370190505b50905060005b83811015612411576010860692506123db8361320e565b82600183870303815181106123ec57fe5b60200101906001600160f81b031916908160001a9053506010860495506001016123c4565b50949350505050565b805182516060918491849184910167ffffffffffffffff8111801561243e57600080fd5b506040519080825280601f01601f191660200182016040528015612469576020820181803683370190505b509050806000805b85518110156124c25785818151811061248657fe5b602001015160f81c60f81b8383806001019450815181106124a357fe5b60200101906001600160f81b031916908160001a905350600101612471565b5060005b8451811015612517578481815181106124db57fe5b602001015160f81c60f81b8383806001019450815181106124f857fe5b60200101906001600160f81b031916908160001a9053506001016124c6565b5090979650505050505050565b60006018361080159061253b575061253b33611a3b565b1561254f575060131936013560601c6117b6565b50336117b6565b6000803411612580576001600160a01b0385166000908152600f6020526040902060010154612582565b345b905060005b83518110156125fe576125f46125c587878785815181106125a457fe5b60200260200101518786815181106125b857fe5b6020026020010151613252565b60408051808201909152601081526f092dce6eaccccd2c6d2cadce8408aa8960831b60208201528491906133a6565b9150600101612587565b50612609858261343d565b5050505050565b612622846001600160a01b03166134be565b156121555763bc197c8160e01b6001600160e01b031916846001600160a01b031663bc197c8188888787876040518663ffffffff1660e01b815260040180866001600160a01b03168152602001856001600160a01b03168152602001806020018060200180602001848103845287818151815260200191508051906020019060200280838360005b838110156126c25781810151838201526020016126aa565b50505050905001848103835286818151815260200191508051906020019060200280838360005b838110156127015781810151838201526020016126e9565b50505050905001848103825285818151815260200191508051906020019080838360005b8381101561273d578181015183820152602001612725565b50505050905090810190601f16801561276a5780820380516001836020036101000a031916815260200191505b5098505050505050505050602060405180830381600087803b15801561278f57600080fd5b505af11580156127a3573d6000803e3d6000fd5b505050506040513d60208110156127b957600080fd5b50516001600160e01b031916146121555760405162461bcd60e51b8152600401808060200182810382526036815260200180613c196036913960400191505060405180910390fd5b6003546000906001600160a01b0316612818612524565b6001600160a01b031614905090565b60008281526010602090815260408083206001600160a01b038516845260070190915281206002015460ff1680611a835750611a83612801565b6000805b85518110156128915785818151811061287a57fe5b602002602001015182019150806001019050612865565b50600086511180156128a1575060015b80156128ae575080612710145b80156128bb575061271084105b612900576040805162461bcd60e51b8152602060048201526011602482015270496e76616c696420617267756d656e747360781b604482015290519081900360640190fd5b6000898152601060209081526040808320600581018c90558a516002808301919091558b840151600383015582518084018452428152928c015183850152600b909101805460018101825590855292909320612960939283020191613a47565b506000898152601060209081526040909120875161298692600990920191890190613a81565b50600089815260106020908152604090912086516129ac92600a90920191880190613ad5565b505060009788526010602052604090972060048101929092556006909101805460ff60a01b1916600160a01b92151592909202919091176001600160a01b0319166001600160a01b039096169590951790945550505050565b6000611a8383836040518060400160405280601e81526020017f536166654d6174683a207375627472616374696f6e206f766572666c6f7700008152506133a6565b6001600160a01b0381166000908152600f602052604081205460ff16806111325750611132612801565b60008a815260106020526040902054158015612a8d5750600089115b612ad2576040805162461bcd60e51b8152602060048201526011602482015270496e76616c696420617267756d656e747360781b604482015290519081900360640190fd5b60008a81526010602052604081208a815560018082018b905591600790910190612afa612524565b6001600160a01b03166001600160a01b0316815260200190815260200160002060020160006101000a81548160ff0219169083151502179055506001601060008c815260200190815260200160002060070160008d6001600160a01b03166001600160a01b0316815260200190815260200160002060020160026101000a81548160ff021916908315150217905550612b998a88888888888888612861565b612ba48b8b8b6134f5565b5050505050505050505050565b6000828152601060205260408120600b015481904290600019015b6000868152601060205260408120600b01805483908110612be957fe5b60009182526020822060029091020101546000888152601060205260408120600b018054929350909184908110612c1c57fe5b9060005260206000209060020201600160028110612c3657fe5b015460008981526010602090815260408083206001600160a01b038e168452600701909152812060010154919250908311612cd95760008981526010602090815260408083206001600160a01b038e168452600701909152902060010154612cae906201518090612ca8908890612a05565b9061359e565b905080612cb9575060015b612ccd88612cc783856135e0565b906135e0565b86019550505050612d18565b612cea62015180612ca88786612a05565b905080612cf5575060015b9193508391612d0888612cc783856135e0565b9095019450505060001901612bcc565b50600085815260106020526040902060010154612d39908390600a0a61359e565b60008681526010602052604081206003015491935090612d64906305f5e10090612ca89088906135e0565b600087815260106020526040902060020154909150612d8e90612d879083613639565b8490613639565b979650505050505050565b6000612da58383613693565b80611a835750506001600160a01b039182166000908152600f602090815260408083209390941682526003909201909152205460ff1690565b6000803411612e08576001600160a01b0385166000908152600f6020526040902060010154612e0a565b345b9050612e4a612e1b86868686613252565b60408051808201909152601081526f092dce6eaccccd2c6d2cadce8408aa8960831b60208201528391906133a6565b9050612609858261343d565b612e68846001600160a01b03166134be565b156121555763f23a6e6160e01b6001600160e01b031916846001600160a01b031663f23a6e6188888787876040518663ffffffff1660e01b815260040180866001600160a01b03168152602001856001600160a01b0316815260200184815260200183815260200180602001828103825283818151815260200191508051906020019080838360005b83811015612f09578181015183820152602001612ef1565b50505050905090810190601f168015612f365780820380516001836020036101000a031916815260200191505b509650505050505050602060405180830381600087803b158015612f5957600080fd5b505af1158015612f6d573d6000803e3d6000fd5b505050506040513d6020811015612f8357600080fd5b50516001600160e01b031916146121555760405162461bcd60e51b8152600401808060200182810382526031815260200180613d296031913960400191505060405180910390fd5b6001600160a01b0381166130105760405162461bcd60e51b8152600401808060200182810382526026815260200180613b6f6026913960400191505060405180910390fd5b6003546040516001600160a01b038084169216907f8be0079c531659141344cd1fd0a4f28419497f9722a3daafe3b4186f6b6457e090600090a3600380546001600160a01b0319166001600160a01b0392909216919091179055565b60008381526010602052604081206008018054613209929061308a57fe5b600091825260208083209091015486835260108083526040808520805460018201548351606081018552600284015481526003840154818901528c895294909652600b90910180546001600160a01b03909516968a96929592948a9490939084019291906130f457fe5b906000526020600020906002020160016002811061310e57fe5b0154905260008a8152601060209081526040918290206009018054835181840281018401909452808452909183018282801561317357602002820191906000526020600020905b81546001600160a01b03168152600190910190602001808311613155575b50505060008d815260106020908152604091829020600a01805483518184028101840190945280845292945092508301828280156131d057602002820191906000526020600020905b8154815260200190600101908083116131bc575b50505060008e8152601060205260409020600481015460069091015490925060ff600160a01b82041691506001600160a01b0316612a71565b505050565b600060098260ff161161322857506030810160f81b61117a565b8160ff16600a111580156132405750600f8260ff1611155b156101cc57506057810160f81b61117a565b6040805180820182526014815273496e73756666696369656e742062616c616e636560601b6020808301919091526000858152601082528381206001600160a01b0389168252600701909152918220546132ad9184906133a6565b60008481526010602090815260408083206001600160a01b038a1684526007019091529020556132de8484846134f5565b6132e9858484612bb1565b905060005b60008481526010602052604090206009015481101561241157600084815260106020526040812060090180548390811061332457fe5b6000918252602080832090910154878352601090915260408220600a0180546001600160a01b039092169350908490811061335b57fe5b6000918252602090912001549050613379612710612ca886846135e0565b6001600160a01b039092166000908152600f602052604090206001908101805490930190925550016132ee565b600081848411156134355760405162461bcd60e51b81526004018080602001828103825283818151815260200191508051906020019080838360005b838110156133fa5781810151838201526020016133e2565b50505050905090810190601f1680156134275780820380516001836020036101000a031916815260200191505b509250505060405180910390fd5b505050900390565b60003411801561344d5750600081115b15613499576001600160a01b0382166000908152600f60205260409020600101546134789082613639565b6001600160a01b0383166000908152600f6020526040902060010155611721565b34611721576001600160a01b03919091166000908152600f6020526040902060010155565b6000813f7fc5d2460186f7233c927e7db2dcc703c0e500b653ca82273b7bfad8045d85a4708115801590611efb5750141592915050565b600082815260106020526040902060060154600160a01b900460ff16158061354b575060008281526010602090815260408083206001600160a01b038716845260070190915290206002015462010000900460ff165b613593576040805162461bcd60e51b81526020600482015260146024820152731059191c995cdcc81b9bdd08185c1c1c9bdd995960621b604482015290519081900360640190fd5b61320983838361377a565b6000611a8383836040518060400160405280601a81526020017f536166654d6174683a206469766973696f6e206279207a65726f00000000000081525061398a565b6000826135ef57506000611132565b828202828482816135fc57fe5b0414611a835760405162461bcd60e51b8152600401808060200182810382526021815260200180613c836021913960400191505060405180910390fd5b600082820183811015611a83576040805162461bcd60e51b815260206004820152601b60248201527f536166654d6174683a206164646974696f6e206f766572666c6f770000000000604482015290519081900360640190fd5b6000805b600a811015613770576000600582600a81106136af57fe5b01546001600160a01b031614613768576000600582600a81106136ce57fe5b01546040805163c455279160e01b81526001600160a01b0388811660048301529151928216935090861691839163c4552791916024808301926020929190829003018186803b15801561372057600080fd5b505afa158015613734573d6000803e3d6000fd5b505050506040513d602081101561374a57600080fd5b50516001600160a01b0316141561376657600192505050611132565b505b600101613697565b5060009392505050565b60008281526010602090815260408083206001600160a01b03871684526007019091528120546137aa9083613639565b60008481526010602090815260408083206001600160a01b03891684526007019091529020549091506138b95760008381526010602090815260408083206001600160a01b0388168452600701909152902060020154610100900460ff16613888576001600160a01b0384166000818152600f60209081526040808320600290810180546001818101835591865284862001899055888552601084528285206008810180549283018155865284862090910180546001600160a01b031916871790559484526007909401909152902001805461ff0019166101001790555b60008381526010602090815260408083206001600160a01b038816845260070190915290204260019091015561395a565b60008381526010602090815260408083206001600160a01b03881684526007019091528120600101546138ed904290612a05565b60008581526010602090815260408083206001600160a01b038a16845260070190915281205491925090613927908490612ca890856135e0565b60008681526010602090815260408083206001600160a01b038b1684526007019091529020429190910360019091015550505b60009283526010602090815260408085206001600160a01b03909616855260079095019052929091209190915550565b600081836139d95760405162461bcd60e51b81526020600482018181528351602484015283519092839260449091019190850190808383600083156133fa5781810151838201526020016133e2565b5060008385816139e557fe5b0495945050505050565b82600a8101928215613a37579160200282015b82811115613a3757825182546001600160a01b0319166001600160a01b03909116178255602090920191600190910190613a02565b50613a43929150613b0f565b5090565b8260028101928215613a75579160200282015b82811115613a75578251825591602001919060010190613a5a565b50613a43929150613b2e565b828054828255906000526020600020908101928215613a375791602002820182811115613a3757825182546001600160a01b0319166001600160a01b03909116178255602090920191600190910190613a02565b828054828255906000526020600020908101928215613a755791602002820182811115613a75578251825591602001919060010190613a5a565b5b80821115613a435780546001600160a01b0319168155600101613b10565b5b80821115613a435760008155600101613b2f56fe455243313135353a2062616c616e636520717565727920666f7220746865207a65726f20616464726573734f776e61626c653a206e6577206f776e657220697320746865207a65726f2061646472657373455243313135353a207461726765742061646472657373206d757374206265206e6f6e2d7a65726f455243313135353a2063616e6e6f742073657420617070726f76616c2073746174757320666f722073656c66455243313135353a206163636f756e747320616e6420494473206d75737420686176652073616d65206c656e67746873455243313135353a20676f7420756e6b6e6f776e2076616c75652066726f6d206f6e4552433131353542617463685265636569766564455243313135353a20736f6d65206164647265737320696e2062617463682062616c616e6365207175657279206973207a65726f536166654d6174683a206d756c7469706c69636174696f6e206f766572666c6f774f776e61626c653a2063616c6c6572206973206e6f7420746865206f776e6572455243313135353a206e656564206f70657261746f7220617070726f76616c20666f7220337264207061727479207472616e7366657273455243313135353a2049447320616e642076616c756573206d75737420686176652073616d65206c656e67746873455243313135353a20676f7420756e6b6e6f776e2076616c75652066726f6d206f6e455243313135355265636569766564a2646970667358221220f9942bba1490b926fc216d2423714c3aa93f8f60f4bd213c8f5dcd7cab82360864736f6c634300070100334f776e61626c653a206e6577206f776e657220697320746865207a65726f2061646472657373",
  "immutableReferences": {},
  "source": "// SPDX-License-Identifier: GPL-3.0-or-later\npragma solidity ^0.7.1;\n\nimport './Maintenable.sol';\n\ncontract Privatizable is Maintenable {\n\n\n    /****************************\n    EXTERNAL FUNCTIONS\n    *****************************/\n\n\n    /**\n     * @dev Function to approve holder for a private token.\n     * @param id the token id\n     * @param holder The authorized address\n     */\n    function approveHolder(uint256 id, address holder) external onlyMaintener(id) {\n        _tokens[id].holders[holder].isApproved = true;\n    }\n\n\n    /**\n     * @dev Function to revoke holder for a private token.\n     * @param id the token id\n     * @param holder The authorized address\n     */\n    function revokeHolder(uint256 id, address holder) external onlyMaintener(id) {\n        _tokens[id].holders[holder].isApproved = false;\n    }\n\n\n    /****************************\n    INTERNAL FUNCTIONS\n    *****************************/\n\n\n    // override ChargeableTransfer._addToBalance()\n    function _addToBalance(address recipient, uint256 id, uint256 value) internal override {\n        require(!_tokens[id].isPrivate || _tokens[id].holders[recipient].isApproved, \"Address not approved\");\n        super._addToBalance(recipient, id, value);\n    }\n\n}\n",
  "sourcePath": "/home/ouziel/Work/StashBloxContracts/contracts/lib/Privatizable.sol",
  "compiler": {
    "name": "solc",
    "version": "0.7.1+commit.f4a555be.Emscripten.clang"
  },
  "schemaVersion": "3.2.3",
  "updatedAt": "2020-10-22T09:44:00.963Z",
  "devdoc": {
    "kind": "dev",
    "methods": {
      "approveHolder(uint256,address)": {
        "details": "Function to approve holder for a private token.",
        "params": {
          "holder": "The authorized address",
          "id": "the token id"
        }
      },
      "authorizeMaintener(uint256,address)": {
        "details": "Function to authorize an address to maintain a token.",
        "params": {
          "maintener": "The authorized address"
        }
      },
      "authorizeTokenizer(address)": {
        "details": "Function to authorize an address to create a token.",
        "params": {
          "tokenizer": "The authorized address"
        }
      },
      "averageAge(address,uint256)": {
        "details": "Function to get the average age of the token for the given address.",
        "params": {
          "account": "the address from where to transfer the tokens",
          "id": "The token ID"
        },
        "returns": {
          "_0": "average age in seconds"
        }
      },
      "balanceOf(address,uint256)": {
        "details": "Get the specified address' balance for token with specified ID. Attempting to query the zero account for a balance will result in a revert.",
        "params": {
          "account": "The address of the token holder",
          "id": "ID of the token"
        },
        "returns": {
          "_0": "The account's balance of the token type requested"
        }
      },
      "balanceOfBatch(address[],uint256[])": {
        "details": "Get the balance of multiple account/token pairs. If any of the query accounts is the zero account, this query will revert.",
        "params": {
          "accounts": "The addresses of the token holders",
          "ids": "IDs of the tokens"
        },
        "returns": {
          "_0": "Balances for each account and token id pair"
        }
      },
      "cloneToken(uint256,uint256[],uint256[])": {
        "details": "Function to mint tokens in batch.",
        "params": {
          "id": "Identifier of the template",
          "ids": "list of IDs of the tokens to be minted",
          "metadataHashes": "list of metadata file hashes"
        }
      },
      "createToken(address,uint256,uint256,uint256,uint256,uint256[3],address[],uint256[],uint256,bool,address)": {
        "details": "Function to mint an amount of a token with the given ID.",
        "params": {
          "feesRecipients": "list of addresses receiving transfer fees",
          "feesRecipientsPercentage": "list of percentage, each one for the corresponding feesRecipients",
          "id": "ID of the token to be minted",
          "isPrivate": "true if holder need approval",
          "legalAuthority": "address of the legal authority",
          "metadataHash": "Metadata file hash",
          "minHoldingForCallback": "minimum holding to propose a callback",
          "recipient": "The address that will own the minted tokens",
          "supply": "Amount of the token to be minted",
          "transactionFees": "transaction fees: [lumpSumFees (in WEI), valueProportionalFees (ratio of transfered amount * 10**8), storageFees (in storageCredit * 10**8)]"
        }
      },
      "isApprovedForAll(address,address)": {
        "params": {
          "account": "The account of the Tokens",
          "operator": "Address of authorized operator"
        },
        "returns": {
          "_0": "True if the operator is approved, false if not"
        }
      },
      "isMaintener(uint256,address)": {
        "details": "Function to check if an address is authorized to maintain a token.",
        "params": {
          "id": "the token id",
          "maintener": "The authorized address"
        },
        "returns": {
          "_0": "true if it's a maintener address"
        }
      },
      "isTokenizer(address)": {
        "details": "Function to check if an address is authorized to create a token.",
        "params": {
          "tokenizer": "The authorized address"
        }
      },
      "owner()": {
        "details": "Returns the address of the current owner."
      },
      "revokeHolder(uint256,address)": {
        "details": "Function to revoke holder for a private token.",
        "params": {
          "holder": "The authorized address",
          "id": "the token id"
        }
      },
      "revokeMaintener(uint256,address)": {
        "details": "Function to revoke the authorization to maintain a token.",
        "params": {
          "id": "the token id",
          "maintener": "The authorized address"
        }
      },
      "revokeTokenizer(address)": {
        "details": "Function to revoke the authorization to create a token.",
        "params": {
          "tokenizer": "The authorized address"
        }
      },
      "safeBatchTransferFrom(address,address,uint256[],uint256[],bytes)": {
        "details": "Transfers `values` amount(s) of `ids` from the `from` address to the `to` address specified. Caller must be approved to manage the tokens being transferred out of the `from` account. If `to` is a smart contract, will call `onERC1155BatchReceived` on `to` and act appropriately.",
        "params": {
          "data": "Data forwarded to `onERC1155Received` if `to` is a contract receiver",
          "from": "Source address",
          "ids": "IDs of each token type",
          "to": "Target address",
          "values": "Transfer amounts per token type"
        }
      },
      "safeTransferFrom(address,address,uint256,uint256,bytes)": {
        "details": "Transfers `value` amount of an `id` from the `from` address to the `to` address specified. Caller must be approved to manage the tokens being transferred out of the `from` account. If `to` is a smart contract, will call `onERC1155Received` on `to` and act appropriately.",
        "params": {
          "data": "Data forwarded to `onERC1155Received` if `to` is a contract receiver",
          "from": "Source address",
          "id": "ID of the token type",
          "to": "Target address",
          "value": "Transfer amount"
        }
      },
      "setApprovalForAll(address,bool)": {
        "details": "Sets or unsets the approval of a given operator. An operator is allowed to transfer all tokens of the sender on their behalf. Because an account already has operator privileges for itself, this function will revert if the account attempts to set the approval status for itself.",
        "params": {
          "approved": "representing the status of the approval to be set",
          "operator": "address to set the approval"
        }
      },
      "setProxyRegistryAddress(address[10])": {
        "details": "Function to update the operator whitelist",
        "params": {
          "proxyAddresses": "List of addresses"
        }
      },
      "supportsInterface(bytes4)": {
        "params": {
          "_interfaceID": "The interface identifier, as specified in ERC-165"
        },
        "returns": {
          "_0": "`true` if the contract implements `_interfaceID` and"
        }
      },
      "transactionFees(address,uint256,uint256)": {
        "details": "Function to get the transaction price to transfer tokens.",
        "params": {
          "account": "the address from where to transfer the tokens",
          "id": "The token ID",
          "value": "The amount to transfer"
        },
        "returns": {
          "_0": "transfer price"
        }
      },
      "transferOwnership(address)": {
        "details": "Transfers ownership of the contract to a new account (`newOwner`). Can only be called by the current owner."
      },
      "updateToken(uint256,uint256,uint256[3],address[],uint256[],uint256,bool,address)": {
        "details": "Function to update a token with the given ID.",
        "params": {
          "feesRecipients": "list of addresses receiving transfer fees",
          "feesRecipientsPercentage": "list of percentage, each one for the corresponding feesRecipients",
          "id": "ID of the token to be updated",
          "isPrivate": "true if holder need approval",
          "legalAuthority": "address of the legal authority",
          "metadataHash": "Metadata file hash",
          "minHoldingForCallback": "minimum holding to propose a callback",
          "transactionFees": "transaction fees: [lumpSumFees (in WEI), valueProportionalFees (ratio of transfered amount * 10**8), storageFees (in storageCredit * 10**8)]"
        }
      },
      "uri(uint256)": {
        "params": {
          "id": "Token ID"
        },
        "returns": {
          "_0": "URI string"
        }
      }
    },
    "version": 1
  },
  "userdoc": {
    "kind": "user",
    "methods": {
      "isApprovedForAll(address,address)": {
        "notice": "Queries the approval status of an operator for a given account."
      },
      "isTrustedForwarder(address)": {
        "notice": "return if the forwarder is trusted to forward relayed transactions to us. the forwarder is required to verify the sender's signature, and verify the call is not a replay."
      },
      "supportsInterface(bytes4)": {
        "notice": "Query if a contract implements an interface"
      }
    },
    "version": 1
  }
}