{
  "contractName": "Privatizable",
  "abi": [
    {
      "anonymous": false,
      "inputs": [
        {
          "indexed": true,
          "internalType": "address",
          "name": "_owner",
          "type": "address"
        },
        {
          "indexed": true,
          "internalType": "address",
          "name": "_operator",
          "type": "address"
        },
        {
          "indexed": false,
          "internalType": "bool",
          "name": "_approved",
          "type": "bool"
        }
      ],
      "name": "ApprovalForAll",
      "type": "event"
    },
    {
      "anonymous": false,
      "inputs": [
        {
          "indexed": true,
          "internalType": "address",
          "name": "previousOwner",
          "type": "address"
        },
        {
          "indexed": true,
          "internalType": "address",
          "name": "newOwner",
          "type": "address"
        }
      ],
      "name": "OwnershipTransferred",
      "type": "event"
    },
    {
      "anonymous": false,
      "inputs": [
        {
          "indexed": true,
          "internalType": "uint256",
          "name": "_id",
          "type": "uint256"
        },
        {
          "indexed": false,
          "internalType": "uint256",
          "name": "_documentHash",
          "type": "uint256"
        }
      ],
      "name": "TokenUpdated",
      "type": "event"
    },
    {
      "anonymous": false,
      "inputs": [
        {
          "indexed": true,
          "internalType": "address",
          "name": "_operator",
          "type": "address"
        },
        {
          "indexed": true,
          "internalType": "address",
          "name": "_from",
          "type": "address"
        },
        {
          "indexed": true,
          "internalType": "address",
          "name": "_to",
          "type": "address"
        },
        {
          "indexed": false,
          "internalType": "uint256[]",
          "name": "_ids",
          "type": "uint256[]"
        },
        {
          "indexed": false,
          "internalType": "uint256[]",
          "name": "_values",
          "type": "uint256[]"
        }
      ],
      "name": "TransferBatch",
      "type": "event"
    },
    {
      "anonymous": false,
      "inputs": [
        {
          "indexed": true,
          "internalType": "address",
          "name": "_operator",
          "type": "address"
        },
        {
          "indexed": true,
          "internalType": "address",
          "name": "_from",
          "type": "address"
        },
        {
          "indexed": true,
          "internalType": "address",
          "name": "_to",
          "type": "address"
        },
        {
          "indexed": false,
          "internalType": "uint256",
          "name": "_id",
          "type": "uint256"
        },
        {
          "indexed": false,
          "internalType": "uint256",
          "name": "_value",
          "type": "uint256"
        }
      ],
      "name": "TransferSingle",
      "type": "event"
    },
    {
      "anonymous": false,
      "inputs": [
        {
          "indexed": false,
          "internalType": "string",
          "name": "_value",
          "type": "string"
        },
        {
          "indexed": true,
          "internalType": "uint256",
          "name": "_id",
          "type": "uint256"
        }
      ],
      "name": "URI",
      "type": "event"
    },
    {
      "inputs": [
        {
          "internalType": "uint256",
          "name": "",
          "type": "uint256"
        }
      ],
      "name": "_callbacks",
      "outputs": [
        {
          "internalType": "uint256",
          "name": "tokenId",
          "type": "uint256"
        },
        {
          "internalType": "uint256",
          "name": "price",
          "type": "uint256"
        },
        {
          "internalType": "uint256",
          "name": "escrowedAmount",
          "type": "uint256"
        },
        {
          "internalType": "uint256",
          "name": "callCounter",
          "type": "uint256"
        },
        {
          "internalType": "uint256",
          "name": "documentHash",
          "type": "uint256"
        },
        {
          "internalType": "address",
          "name": "caller",
          "type": "address"
        },
        {
          "internalType": "bool",
          "name": "needLegalApproval",
          "type": "bool"
        },
        {
          "internalType": "bool",
          "name": "approvedByLegal",
          "type": "bool"
        },
        {
          "internalType": "bool",
          "name": "refused",
          "type": "bool"
        },
        {
          "internalType": "bool",
          "name": "accepted",
          "type": "bool"
        },
        {
          "internalType": "bool",
          "name": "completed",
          "type": "bool"
        }
      ],
      "stateMutability": "view",
      "type": "function"
    },
    {
      "inputs": [],
      "name": "_config",
      "outputs": [
        {
          "internalType": "uint256",
          "name": "callbackAutoExecuteMaxAddresses",
          "type": "uint256"
        },
        {
          "internalType": "string",
          "name": "baseURI",
          "type": "string"
        },
        {
          "internalType": "address",
          "name": "owner",
          "type": "address"
        }
      ],
      "stateMutability": "view",
      "type": "function"
    },
    {
      "inputs": [
        {
          "internalType": "uint256",
          "name": "",
          "type": "uint256"
        }
      ],
      "name": "_tokens",
      "outputs": [
        {
          "internalType": "uint256",
          "name": "supply",
          "type": "uint256"
        },
        {
          "internalType": "uint256",
          "name": "decimals",
          "type": "uint256"
        },
        {
          "internalType": "uint256",
          "name": "lumpSumTransactionFees",
          "type": "uint256"
        },
        {
          "internalType": "uint256",
          "name": "valueTransactionFees",
          "type": "uint256"
        },
        {
          "internalType": "uint256",
          "name": "minHoldingForCallback",
          "type": "uint256"
        },
        {
          "internalType": "uint256",
          "name": "metadataHash",
          "type": "uint256"
        },
        {
          "internalType": "address",
          "name": "legalAuthority",
          "type": "address"
        },
        {
          "internalType": "bool",
          "name": "isPrivate",
          "type": "bool"
        },
        {
          "internalType": "bool",
          "name": "locked",
          "type": "bool"
        }
      ],
      "stateMutability": "view",
      "type": "function"
    },
    {
      "inputs": [
        {
          "internalType": "address",
          "name": "",
          "type": "address"
        }
      ],
      "name": "_users",
      "outputs": [
        {
          "internalType": "bool",
          "name": "isTokenizer",
          "type": "bool"
        },
        {
          "internalType": "bool",
          "name": "isLocked",
          "type": "bool"
        },
        {
          "internalType": "uint256",
          "name": "ETHBalance",
          "type": "uint256"
        }
      ],
      "stateMutability": "view",
      "type": "function"
    },
    {
      "inputs": [
        {
          "internalType": "uint256",
          "name": "id",
          "type": "uint256"
        },
        {
          "internalType": "address",
          "name": "maintener",
          "type": "address"
        }
      ],
      "name": "authorizeMaintener",
      "outputs": [],
      "stateMutability": "nonpayable",
      "type": "function"
    },
    {
      "inputs": [
        {
          "internalType": "address",
          "name": "tokenizer",
          "type": "address"
        }
      ],
      "name": "authorizeTokenizer",
      "outputs": [],
      "stateMutability": "nonpayable",
      "type": "function"
    },
    {
      "inputs": [
        {
          "internalType": "address",
          "name": "account",
          "type": "address"
        },
        {
          "internalType": "uint256",
          "name": "id",
          "type": "uint256"
        }
      ],
      "name": "averageAge",
      "outputs": [
        {
          "internalType": "uint256",
          "name": "",
          "type": "uint256"
        }
      ],
      "stateMutability": "view",
      "type": "function"
    },
    {
      "inputs": [
        {
          "internalType": "address",
          "name": "account",
          "type": "address"
        },
        {
          "internalType": "uint256",
          "name": "id",
          "type": "uint256"
        }
      ],
      "name": "balanceOf",
      "outputs": [
        {
          "internalType": "uint256",
          "name": "",
          "type": "uint256"
        }
      ],
      "stateMutability": "view",
      "type": "function"
    },
    {
      "inputs": [
        {
          "internalType": "address[]",
          "name": "accounts",
          "type": "address[]"
        },
        {
          "internalType": "uint256[]",
          "name": "ids",
          "type": "uint256[]"
        }
      ],
      "name": "balanceOfBatch",
      "outputs": [
        {
          "internalType": "uint256[]",
          "name": "",
          "type": "uint256[]"
        }
      ],
      "stateMutability": "view",
      "type": "function"
    },
    {
      "inputs": [
        {
          "internalType": "uint256",
          "name": "id",
          "type": "uint256"
        },
        {
          "internalType": "uint256[]",
          "name": "ids",
          "type": "uint256[]"
        },
        {
          "internalType": "uint256[]",
          "name": "metadataHashes",
          "type": "uint256[]"
        }
      ],
      "name": "cloneToken",
      "outputs": [],
      "stateMutability": "nonpayable",
      "type": "function"
    },
    {
      "inputs": [
        {
          "internalType": "address",
          "name": "recipient",
          "type": "address"
        },
        {
          "internalType": "uint256",
          "name": "id",
          "type": "uint256"
        },
        {
          "internalType": "uint256",
          "name": "supply",
          "type": "uint256"
        },
        {
          "internalType": "uint256",
          "name": "decimals",
          "type": "uint256"
        },
        {
          "internalType": "uint256",
          "name": "metadataHash",
          "type": "uint256"
        },
        {
          "internalType": "uint256[3]",
          "name": "transactionFees",
          "type": "uint256[3]"
        },
        {
          "internalType": "address[]",
          "name": "feesRecipients",
          "type": "address[]"
        },
        {
          "internalType": "uint256[]",
          "name": "feesRecipientsPercentage",
          "type": "uint256[]"
        },
        {
          "internalType": "uint256",
          "name": "minHoldingForCallback",
          "type": "uint256"
        },
        {
          "internalType": "bool",
          "name": "isPrivate",
          "type": "bool"
        },
        {
          "internalType": "address",
          "name": "legalAuthority",
          "type": "address"
        }
      ],
      "name": "createToken",
      "outputs": [],
      "stateMutability": "nonpayable",
      "type": "function"
    },
    {
      "inputs": [
        {
          "internalType": "address",
          "name": "account",
          "type": "address"
        },
        {
          "internalType": "address",
          "name": "operator",
          "type": "address"
        }
      ],
      "name": "isApprovedForAll",
      "outputs": [
        {
          "internalType": "bool",
          "name": "",
          "type": "bool"
        }
      ],
      "stateMutability": "view",
      "type": "function"
    },
    {
      "inputs": [
        {
          "internalType": "uint256",
          "name": "id",
          "type": "uint256"
        },
        {
          "internalType": "address",
          "name": "maintener",
          "type": "address"
        }
      ],
      "name": "isMaintener",
      "outputs": [
        {
          "internalType": "bool",
          "name": "",
          "type": "bool"
        }
      ],
      "stateMutability": "view",
      "type": "function"
    },
    {
      "inputs": [
        {
          "internalType": "address",
          "name": "tokenizer",
          "type": "address"
        }
      ],
      "name": "isTokenizer",
      "outputs": [
        {
          "internalType": "bool",
          "name": "",
          "type": "bool"
        }
      ],
      "stateMutability": "view",
      "type": "function"
    },
    {
      "inputs": [],
      "name": "owner",
      "outputs": [
        {
          "internalType": "address",
          "name": "",
          "type": "address"
        }
      ],
      "stateMutability": "view",
      "type": "function"
    },
    {
      "inputs": [
        {
          "internalType": "uint256",
          "name": "id",
          "type": "uint256"
        },
        {
          "internalType": "address",
          "name": "maintener",
          "type": "address"
        }
      ],
      "name": "revokeMaintener",
      "outputs": [],
      "stateMutability": "nonpayable",
      "type": "function"
    },
    {
      "inputs": [
        {
          "internalType": "address",
          "name": "tokenizer",
          "type": "address"
        }
      ],
      "name": "revokeTokenizer",
      "outputs": [],
      "stateMutability": "nonpayable",
      "type": "function"
    },
    {
      "inputs": [
        {
          "internalType": "address",
          "name": "from",
          "type": "address"
        },
        {
          "internalType": "address",
          "name": "to",
          "type": "address"
        },
        {
          "internalType": "uint256[]",
          "name": "ids",
          "type": "uint256[]"
        },
        {
          "internalType": "uint256[]",
          "name": "values",
          "type": "uint256[]"
        },
        {
          "internalType": "bytes",
          "name": "data",
          "type": "bytes"
        }
      ],
      "name": "safeBatchTransferFrom",
      "outputs": [],
      "stateMutability": "payable",
      "type": "function"
    },
    {
      "inputs": [
        {
          "internalType": "address",
          "name": "from",
          "type": "address"
        },
        {
          "internalType": "address",
          "name": "to",
          "type": "address"
        },
        {
          "internalType": "uint256",
          "name": "id",
          "type": "uint256"
        },
        {
          "internalType": "uint256",
          "name": "value",
          "type": "uint256"
        },
        {
          "internalType": "bytes",
          "name": "data",
          "type": "bytes"
        }
      ],
      "name": "safeTransferFrom",
      "outputs": [],
      "stateMutability": "payable",
      "type": "function"
    },
    {
      "inputs": [
        {
          "internalType": "address",
          "name": "operator",
          "type": "address"
        },
        {
          "internalType": "bool",
          "name": "approved",
          "type": "bool"
        }
      ],
      "name": "setApprovalForAll",
      "outputs": [],
      "stateMutability": "nonpayable",
      "type": "function"
    },
    {
      "inputs": [
        {
          "internalType": "address[10]",
          "name": "proxyAddresses",
          "type": "address[10]"
        }
      ],
      "name": "setProxyRegistryAddress",
      "outputs": [],
      "stateMutability": "nonpayable",
      "type": "function"
    },
    {
      "inputs": [
        {
          "internalType": "bytes4",
          "name": "_interfaceID",
          "type": "bytes4"
        }
      ],
      "name": "supportsInterface",
      "outputs": [
        {
          "internalType": "bool",
          "name": "",
          "type": "bool"
        }
      ],
      "stateMutability": "pure",
      "type": "function"
    },
    {
      "inputs": [
        {
          "internalType": "address",
          "name": "account",
          "type": "address"
        },
        {
          "internalType": "uint256",
          "name": "id",
          "type": "uint256"
        },
        {
          "internalType": "uint256",
          "name": "value",
          "type": "uint256"
        }
      ],
      "name": "transactionFees",
      "outputs": [
        {
          "internalType": "uint256",
          "name": "",
          "type": "uint256"
        }
      ],
      "stateMutability": "view",
      "type": "function"
    },
    {
      "inputs": [
        {
          "internalType": "address",
          "name": "newOwner",
          "type": "address"
        }
      ],
      "name": "transferOwnership",
      "outputs": [],
      "stateMutability": "nonpayable",
      "type": "function"
    },
    {
      "inputs": [
        {
          "internalType": "uint256",
          "name": "id",
          "type": "uint256"
        },
        {
          "internalType": "uint256",
          "name": "metadataHash",
          "type": "uint256"
        },
        {
          "internalType": "uint256[3]",
          "name": "transactionFees",
          "type": "uint256[3]"
        },
        {
          "internalType": "address[]",
          "name": "feesRecipients",
          "type": "address[]"
        },
        {
          "internalType": "uint256[]",
          "name": "feesRecipientsPercentage",
          "type": "uint256[]"
        },
        {
          "internalType": "uint256",
          "name": "minHoldingForCallback",
          "type": "uint256"
        },
        {
          "internalType": "bool",
          "name": "isPrivate",
          "type": "bool"
        },
        {
          "internalType": "address",
          "name": "legalAuthority",
          "type": "address"
        }
      ],
      "name": "updateToken",
      "outputs": [],
      "stateMutability": "nonpayable",
      "type": "function"
    },
    {
      "inputs": [
        {
          "internalType": "uint256",
          "name": "id",
          "type": "uint256"
        }
      ],
      "name": "uri",
      "outputs": [
        {
          "internalType": "string",
          "name": "",
          "type": "string"
        }
      ],
      "stateMutability": "view",
      "type": "function"
    },
    {
      "inputs": [
        {
          "internalType": "uint256",
          "name": "id",
          "type": "uint256"
        },
        {
          "internalType": "address",
          "name": "holder",
          "type": "address"
        }
      ],
      "name": "approveHolder",
      "outputs": [],
      "stateMutability": "nonpayable",
      "type": "function"
    },
    {
      "inputs": [
        {
          "internalType": "uint256",
          "name": "id",
          "type": "uint256"
        },
        {
          "internalType": "address",
          "name": "holder",
          "type": "address"
        }
      ],
      "name": "revokeHolder",
      "outputs": [],
      "stateMutability": "nonpayable",
      "type": "function"
    }
  ],
  "bytecode": "0x60806040523480156200001157600080fd5b506200001d3362000023565b620000e0565b6001600160a01b03811662000084576040517f08c379a000000000000000000000000000000000000000000000000000000000815260040180806020018281038252602681526020018062003b8b6026913960400191505060405180910390fd5b600c546040516001600160a01b038084169216907f8be0079c531659141344cd1fd0a4f28419497f9722a3daafe3b4186f6b6457e090600090a3600c80546001600160a01b0319166001600160a01b0392909216919091179055565b613a9b80620000f06000396000f3fe6080604052600436106101b65760003560e01c80637627b732116100ec578063d1660e181161008a578063ed70554d11610064578063ed70554d14610d74578063f242432a14610df2578063f2fde38b14610e85578063f8a5a07c14610eb8576101b6565b8063d1660e1814610cc1578063d41d0aa314610d00578063e985e9c514610d39576101b6565b80638da5cb5b116100c65780638da5cb5b14610a85578063a22cb46514610ab6578063c02f303c14610af1578063c40b87ae14610b24576101b6565b80637627b732146109e65780638870147b14610a195780638aeba37e14610a4c576101b6565b80634392e57711610159578063585941d511610133578063585941d5146109025780635dafec1b1461093b5780635dd2b9a614610974578063759c5214146109ad576101b6565b80634392e5771461059f5780634ab0d253146106005780634e1273f414610782576101b6565b80632eb2c2d6116101955780632eb2c2d6146102ed5780632ed42bf7146104165780633cacd7d6146104ba578063414ed0ce1461050d576101b6565b8062fdd58e146101bb57806301ffc9a7146102065780630e89341c1461024e575b600080fd5b3480156101c757600080fd5b506101f4600480360360408110156101de57600080fd5b506001600160a01b038135169060200135610fef565b60408051918252519081900360200190f35b34801561021257600080fd5b5061023a6004803603602081101561022957600080fd5b50356001600160e01b031916611064565b604080519115158252519081900360200190f35b34801561025a57600080fd5b506102786004803603602081101561027157600080fd5b50356110ab565b6040805160208082528351818301528351919283929083019185019080838360005b838110156102b257818101518382015260200161029a565b50505050905090810190601f1680156102df5780820380516001836020036101000a031916815260200191505b509250505060405180910390f35b610414600480360360a081101561030357600080fd5b6001600160a01b038235811692602081013590911691810190606081016040820135600160201b81111561033657600080fd5b82018360208201111561034857600080fd5b803590602001918460208302840111600160201b8311171561036957600080fd5b919390929091602081019035600160201b81111561038657600080fd5b82018360208201111561039857600080fd5b803590602001918460208302840111600160201b831117156103b957600080fd5b919390929091602081019035600160201b8111156103d657600080fd5b8201836020820111156103e857600080fd5b803590602001918460018302840111600160201b8311171561040957600080fd5b50909250905061114c565b005b34801561042257600080fd5b5061042b6113fa565b6040518084815260200180602001836001600160a01b03168152602001828103825284818151815260200191508051906020019080838360005b8381101561047d578181015183820152602001610465565b50505050905090810190601f1680156104aa5780820380516001836020036101000a031916815260200191505b5094505050505060405180910390f35b3480156104c657600080fd5b506104ed600480360360208110156104dd57600080fd5b50356001600160a01b031661149f565b604080519315158452911515602084015282820152519081900360600190f35b34801561051957600080fd5b506105376004803603602081101561053057600080fd5b50356114c5565b604080519b8c5260208c019a909a528a8a019890985260608a019690965260808901949094526001600160a01b0390921660a0880152151560c0870152151560e086015215156101008501521515610120840152151561014083015251908190036101600190f35b3480156105ab57600080fd5b5061041460048036036101408110156105c357600080fd5b81019080806101400190600a806020026040519081016040528092919082600a602002808284376000920191909152509194506115389350505050565b34801561060c57600080fd5b50610414600480360361014081101561062457600080fd5b6040805160608181018352843594602081013594810193909260a08401929091840190600390839083908082843760009201919091525091949392602081019250359050600160201b81111561067957600080fd5b82018360208201111561068b57600080fd5b803590602001918460208302840111600160201b831117156106ac57600080fd5b9190808060200260200160405190810160405280939291908181526020018383602002808284376000920191909152509295949360208101935035915050600160201b8111156106fb57600080fd5b82018360208201111561070d57600080fd5b803590602001918460208302840111600160201b8311171561072e57600080fd5b919080806020026020016040519081016040528093929190818152602001838360200280828437600092019190915250929550508235935050506020810135151590604001356001600160a01b0316611590565b34801561078e57600080fd5b506108b2600480360360408110156107a557600080fd5b810190602081018135600160201b8111156107bf57600080fd5b8201836020820111156107d157600080fd5b803590602001918460208302840111600160201b831117156107f257600080fd5b9190808060200260200160405190810160405280939291908181526020018383602002808284376000920191909152509295949360208101935035915050600160201b81111561084157600080fd5b82018360208201111561085357600080fd5b803590602001918460208302840111600160201b8311171561087457600080fd5b919080806020026020016040519081016040528093929190818152602001838360200280828437600092019190915250929550611687945050505050565b60408051602080825283518183015283519192839290830191858101910280838360005b838110156108ee5781810151838201526020016108d6565b505050509050019250505060405180910390f35b34801561090e57600080fd5b506101f46004803603604081101561092557600080fd5b506001600160a01b03813516906020013561180b565b34801561094757600080fd5b5061023a6004803603604081101561095e57600080fd5b50803590602001356001600160a01b0316611846565b34801561098057600080fd5b506104146004803603604081101561099757600080fd5b50803590602001356001600160a01b0316611852565b3480156109b957600080fd5b50610414600480360360408110156109d057600080fd5b50803590602001356001600160a01b03166118e4565b3480156109f257600080fd5b5061041460048036036020811015610a0957600080fd5b50356001600160a01b0316611971565b348015610a2557600080fd5b5061041460048036036020811015610a3c57600080fd5b50356001600160a01b03166119dc565b348015610a5857600080fd5b5061041460048036036040811015610a6f57600080fd5b50803590602001356001600160a01b0316611a44565b348015610a9157600080fd5b50610a9a611ac2565b604080516001600160a01b039092168252519081900360200190f35b348015610ac257600080fd5b5061041460048036036040811015610ad957600080fd5b506001600160a01b0381351690602001351515611ad1565b348015610afd57600080fd5b5061023a60048036036020811015610b1457600080fd5b50356001600160a01b0316611b8b565b348015610b3057600080fd5b5061041460048036036101a0811015610b4857600080fd5b60408051606081810183526001600160a01b03853516946020810135949381013593828201359360808301359391830192916101008301919060a0840190600390839083908082843760009201919091525091949392602081019250359050600160201b811115610bb857600080fd5b820183602082011115610bca57600080fd5b803590602001918460208302840111600160201b83111715610beb57600080fd5b9190808060200260200160405190810160405280939291908181526020018383602002808284376000920191909152509295949360208101935035915050600160201b811115610c3a57600080fd5b820183602082011115610c4c57600080fd5b803590602001918460208302840111600160201b83111715610c6d57600080fd5b919080806020026020016040519081016040528093929190818152602001838360200280828437600092019190915250929550508235935050506020810135151590604001356001600160a01b0316611b96565b348015610ccd57600080fd5b506101f460048036036060811015610ce457600080fd5b506001600160a01b038135169060208101359060400135611c55565b348015610d0c57600080fd5b5061041460048036036040811015610d2357600080fd5b50803590602001356001600160a01b0316611c6a565b348015610d4557600080fd5b5061023a60048036036040811015610d5c57600080fd5b506001600160a01b0381358116916020013516611ce5565b348015610d8057600080fd5b50610d9e60048036036020811015610d9757600080fd5b5035611cf1565b60408051998a5260208a0198909852888801969096526060880194909452608087019290925260a08601526001600160a01b031660c0850152151560e0840152151561010083015251908190036101200190f35b610414600480360360a0811015610e0857600080fd5b6001600160a01b03823581169260208101359091169160408201359160608101359181019060a081016080820135600160201b811115610e4757600080fd5b820183602082011115610e5957600080fd5b803590602001918460018302840111600160201b83111715610e7a57600080fd5b509092509050611d4d565b348015610e9157600080fd5b5061041460048036036020811015610ea857600080fd5b50356001600160a01b0316611ea4565b348015610ec457600080fd5b5061041460048036036060811015610edb57600080fd5b81359190810190604081016020820135600160201b811115610efc57600080fd5b820183602082011115610f0e57600080fd5b803590602001918460208302840111600160201b83111715610f2f57600080fd5b9190808060200260200160405190810160405280939291908181526020018383602002808284376000920191909152509295949360208101935035915050600160201b811115610f7e57600080fd5b820183602082011115610f9057600080fd5b803590602001918460208302840111600160201b83111715610fb157600080fd5b919080806020026020016040519081016040528093929190818152602001838360200280828437600092019190915250929550611ef7945050505050565b60006001600160a01b0383166110365760405162461bcd60e51b815260040180806020018281038252602b815260200180613850602b913960400191505060405180910390fd5b506000818152600e602090815260408083206001600160a01b03861684526007019091529020545b92915050565b60006001600160e01b031982166301ffc9a760e01b148061109557506001600160e01b03198216636cdb3d1360e11b145b156110a2575060016110a6565b5060005b919050565b60018054604080516020600284861615610100026000190190941693909304601f810184900484028201840190925281815260609361105e93919290918301828280156111395780601f1061110e57610100808354040283529160200191611139565b820191906000526020600020905b81548152906001019060200180831161111c57829003601f168201915b50505050506111478461209a565b612156565b84831461118a5760405162461bcd60e51b815260040180806020018281038252602e815260200180613a07602e913960400191505060405180910390fd5b6001600160a01b0387166111cf5760405162461bcd60e51b81526004018080602001828103825260288152602001806138a16028913960400191505060405180910390fd5b6001600160a01b0388163314806111f157506111eb8833611ce5565b15156001145b61122c5760405162461bcd60e51b81526004018080602001828103825260378152602001806139d06037913960400191505060405180910390fd5b61129b888888888080602002602001604051908101604052809392919081815260200183836020028082843760009201919091525050604080516020808c0282810182019093528b82529093508b92508a91829185019084908082843760009201919091525061226092505050565b866001600160a01b0316886001600160a01b0316336001600160a01b03167f4a39dc06d4c0dbc64b70af90fd698a233a518aa5d07e595d983b8c0526c8f7fb898989896040518080602001806020018381038352878782818152602001925060200280828437600083820152601f01601f19169091018481038352858152602090810191508690860280828437600083820152604051601f909101601f19169092018290039850909650505050505050a46113f033898989898080602002602001604051908101604052809392919081815260200183836020028082843760009201919091525050604080516020808d0282810182019093528c82529093508c92508b91829185019084908082843760009201919091525050604080516020601f8c018190048102820181019092528a815292508a915089908190840183828082843760009201919091525061231a92505050565b5050505050505050565b6000805460018054604080516020600284861615610100026000190190941693909304601f810184900484028201840190925281815293949392918301828280156114865780601f1061145b57610100808354040283529160200191611486565b820191906000526020600020905b81548152906001019060200180831161146957829003601f168201915b505050600c90930154919250506001600160a01b031683565b600d602052600090815260409020805460019091015460ff808316926101009004169083565b600f6020526000908152604090208054600182015460028301546003840154600485015460059095015493949293919290916001600160a01b0381169060ff600160a01b8204811691600160a81b8104821691600160b01b8204811691600160b81b8104821691600160c01b909104168b565b61154061250b565b61157f576040805162461bcd60e51b815260206004820181905260248201526000805160206139b0833981519152604482015290519081900360640190fd5b61158c600282600a6136fb565b5050565b8761159b813361251c565b6115e6576040805162461bcd60e51b815260206004820152601760248201527624b739bab33334b1b4b2b73a103832b936b4b9b9b4b7b760491b604482015290519081900360640190fd5b6000898152600e6020526040902054611636576040805162461bcd60e51b815260206004820152600d60248201526c2ab735b737bbb7103a37b5b2b760991b604482015290519081900360640190fd5b6116468989898989898989612556565b6040805189815290518a917f199acc06cd2556bbc146fa3cb578799037dffcbf256eca32aaf2ef656925d2fd919081900360200190a2505050505050505050565b606081518351146116c95760405162461bcd60e51b81526004018080602001828103825260308152602001806138f56030913960400191505060405180910390fd5b6060835167ffffffffffffffff811180156116e357600080fd5b5060405190808252806020026020018201604052801561170d578160200160208202803683370190505b50905060005b84518110156118035760006001600160a01b031685828151811061173357fe5b60200260200101516001600160a01b031614156117815760405162461bcd60e51b815260040180806020018281038252603481526020018061395b6034913960400191505060405180910390fd5b600e600085838151811061179157fe5b6020026020010151815260200190815260200160002060070160008683815181106117b857fe5b60200260200101516001600160a01b03166001600160a01b03168152602001908152602001600020600001548282815181106117f057fe5b6020908102919091010152600101611713565b509392505050565b6000818152600e602090815260408083206001600160a01b038616845260070190915281206001015461183f9042906126fa565b9392505050565b600061183f838361251c565b8161185d813361251c565b6118a8576040805162461bcd60e51b815260206004820152601760248201527624b739bab33334b1b4b2b73a103832b936b4b9b9b4b7b760491b604482015290519081900360640190fd5b506000918252600e602090815260408084206001600160a01b039093168452600790920190529020600201805462ff0000191662010000179055565b816118ef813361251c565b61193a576040805162461bcd60e51b815260206004820152601760248201527624b739bab33334b1b4b2b73a103832b936b4b9b9b4b7b760491b604482015290519081900360640190fd5b506000918252600e602090815260408084206001600160a01b039093168452600790920190529020600201805462ff000019169055565b61197961250b565b6119b8576040805162461bcd60e51b815260206004820181905260248201526000805160206139b0833981519152604482015290519081900360640190fd5b6001600160a01b03166000908152600d60205260409020805460ff19166001179055565b6119e461250b565b611a23576040805162461bcd60e51b815260206004820181905260248201526000805160206139b0833981519152604482015290519081900360640190fd5b6001600160a01b03166000908152600d60205260409020805460ff19169055565b611a4c61250b565b611a8b576040805162461bcd60e51b815260206004820181905260248201526000805160206139b0833981519152604482015290519081900360640190fd5b6000918252600e602090815260408084206001600160a01b039093168452600790920190529020600201805460ff19166001179055565b600c546001600160a01b031690565b336001600160a01b0383161415611b195760405162461bcd60e51b815260040180806020018281038252602c8152602001806138c9602c913960400191505060405180910390fd5b336000818152600d602090815260408083206001600160a01b0387168085526003909101835292819020805460ff1916861515908117909155815190815290519293927f17307eab39ab6107e8899845ad3d59bd9653f200f220920489ca2b5937696c31929181900390910190a35050565b600061105e8261273c565b611b9f3361273c565b611bea576040805162461bcd60e51b815260206004820152601760248201527624b739bab33334b1b4b2b73a103832b936b4b9b9b4b7b760491b604482015290519081900360640190fd5b611bfd8b8b8b8b8b8b8b8b8b8b8b612766565b604080518b8152602081018b905281516001600160a01b038e169260009233927fc3d58168c5ae7397731d063d5bbf3d657854427343f4c083240f7aacaa2d0f62929181900390910190a45050505050505050505050565b6000611c628484846128cf565b949350505050565b611c7261250b565b611cb1576040805162461bcd60e51b815260206004820181905260248201526000805160206139b0833981519152604482015290519081900360640190fd5b6000918252600e602090815260408084206001600160a01b039093168452600790920190529020600201805460ff19169055565b600061183f8383612ab7565b600e60205260009081526040902080546001820154600283015460038401546004850154600586015460069096015494959394929391929091906001600160a01b0381169060ff600160a01b8204811691600160a81b90041689565b6001600160a01b038516611d925760405162461bcd60e51b81526004018080602001828103825260288152602001806138a16028913960400191505060405180910390fd5b6001600160a01b038616331480611db45750611dae8633611ce5565b15156001145b611def5760405162461bcd60e51b81526004018080602001828103825260378152602001806139d06037913960400191505060405180910390fd5b611dfb86868686612afc565b846001600160a01b0316866001600160a01b0316336001600160a01b03167fc3d58168c5ae7397731d063d5bbf3d657854427343f4c083240f7aacaa2d0f628787604051808381526020018281526020019250505060405180910390a4611e9c338787878787878080601f016020809104026020016040519081016040528093929190818152602001838380828437600092019190915250612b7492505050565b505050505050565b611eac61250b565b611eeb576040805162461bcd60e51b815260206004820181905260248201526000805160206139b0833981519152604482015290519081900360640190fd5b611ef481612ce9565b50565b611f003361273c565b611f4b576040805162461bcd60e51b815260206004820152601760248201527624b739bab33334b1b4b2b73a103832b936b4b9b9b4b7b760491b604482015290519081900360640190fd5b6000838152600e602052604090205415801590611f69575080518251145b611fae576040805162461bcd60e51b8152602060048201526011602482015270496e76616c696420617267756d656e747360781b604482015290519081900360640190fd5b60005b825181101561209457611feb84848381518110611fca57fe5b6020026020010151848481518110611fde57fe5b6020026020010151612d8a565b6000848152600e60205260408120600801805490919061200757fe5b600091825260208220015484516001600160a01b03909116919033907fc3d58168c5ae7397731d063d5bbf3d657854427343f4c083240f7aacaa2d0f629087908690811061205157fe5b6020026020010151600e60008a815260200190815260200160002060000154604051808381526020018281526020019250505060405180910390a4600101611fb1565b50505050565b60606000825b80156120b65760019190910190601090046120a0565b60608267ffffffffffffffff811180156120cf57600080fd5b506040519080825280601f01601f1916602001820160405280156120fa576020820181803683370190505b50905060005b8381101561214d5760108606925061211783612f2c565b826001838703038151811061212857fe5b60200101906001600160f81b031916908160001a905350601086049550600101612100565b50949350505050565b805182516060918491849184910167ffffffffffffffff8111801561217a57600080fd5b506040519080825280601f01601f1916602001820160405280156121a5576020820181803683370190505b509050806000805b85518110156121fe578581815181106121c257fe5b602001015160f81c60f81b8383806001019450815181106121df57fe5b60200101906001600160f81b031916908160001a9053506001016121ad565b5060005b84518110156122535784818151811061221757fe5b602001015160f81c60f81b83838060010194508151811061223457fe5b60200101906001600160f81b031916908160001a905350600101612202565b5090979650505050505050565b600080341161228a576001600160a01b0385166000908152600d602052604090206001015461228c565b345b905060005b8351811015612308576122fe6122cf87878785815181106122ae57fe5b60200260200101518786815181106122c257fe5b6020026020010151612f70565b60408051808201909152601081526f092dce6eaccccd2c6d2cadce8408aa8960831b60208201528491906130c4565b9150600101612291565b50612313858261315b565b5050505050565b61232c846001600160a01b03166131dc565b15611e9c5763bc197c8160e01b6001600160e01b031916846001600160a01b031663bc197c8188888787876040518663ffffffff1660e01b815260040180866001600160a01b03168152602001856001600160a01b03168152602001806020018060200180602001848103845287818151815260200191508051906020019060200280838360005b838110156123cc5781810151838201526020016123b4565b50505050905001848103835286818151815260200191508051906020019060200280838360005b8381101561240b5781810151838201526020016123f3565b50505050905001848103825285818151815260200191508051906020019080838360005b8381101561244757818101518382015260200161242f565b50505050905090810190601f1680156124745780820380516001836020036101000a031916815260200191505b5098505050505050505050602060405180830381600087803b15801561249957600080fd5b505af11580156124ad573d6000803e3d6000fd5b505050506040513d60208110156124c357600080fd5b50516001600160e01b03191614611e9c5760405162461bcd60e51b81526004018080602001828103825260368152602001806139256036913960400191505060405180910390fd5b600c546001600160a01b0316331490565b6000828152600e602090815260408083206001600160a01b038516845260070190915281206002015460ff168061183f575061183f61250b565b6000805b85518110156125865785818151811061256f57fe5b60200260200101518201915080600101905061255a565b5060008651118015612596575060015b80156125a3575080612710145b80156125b0575061271084105b6125f5576040805162461bcd60e51b8152602060048201526011602482015270496e76616c696420617267756d656e747360781b604482015290519081900360640190fd5b6000898152600e60209081526040808320600581018c90558a516002808301919091558b840151600383015582518084018452428152928c015183850152600b909101805460018101825590855292909320612655939283020191613753565b506000898152600e60209081526040909120875161267b9260099092019189019061378d565b506000898152600e6020908152604090912086516126a192600a909201918801906137e1565b50506000978852600e602052604090972060048101929092556006909101805460ff60a01b1916600160a01b92151592909202919091176001600160a01b0319166001600160a01b039096169590951790945550505050565b600061183f83836040518060400160405280601e81526020017f536166654d6174683a207375627472616374696f6e206f766572666c6f7700008152506130c4565b6001600160a01b0381166000908152600d602052604081205460ff168061105e575061105e61250b565b60008a8152600e60205260409020541580156127825750600089115b6127c7576040805162461bcd60e51b8152602060048201526011602482015270496e76616c696420617267756d656e747360781b604482015290519081900360640190fd5b88600e60008c81526020019081526020016000206000018190555087600e60008c8152602001908152602001600020600101819055506001600e60008c81526020019081526020016000206007016000336001600160a01b03166001600160a01b0316815260200190815260200160002060020160006101000a81548160ff0219169083151502179055506001600e60008c815260200190815260200160002060070160008d6001600160a01b03166001600160a01b0316815260200190815260200160002060020160026101000a81548160ff0219169083151502179055506128b78a88888888888888612556565b6128c28b8b8b613213565b5050505050505050505050565b6000828152600e60205260408120600b015481904290600019015b6000868152600e60205260408120600b0180548390811061290757fe5b60009182526020822060029091020101546000888152600e60205260408120600b01805492935090918490811061293a57fe5b906000526020600020906002020160016002811061295457fe5b01546000898152600e602090815260408083206001600160a01b038e1684526007019091528120600101549192509083116129f7576000898152600e602090815260408083206001600160a01b038e1684526007019091529020600101546129cc9062015180906129c69088906126fa565b906132bc565b9050806129d7575060015b6129eb886129e583856132fe565b906132fe565b86019550505050612a36565b612a08620151806129c687866126fa565b905080612a13575060015b9193508391612a26886129e583856132fe565b90950194505050600019016128ea565b506000858152600e6020526040902060010154612a57908390600a0a6132bc565b6000868152600e602052604081206003015491935090612a82906305f5e100906129c69088906132fe565b6000878152600e6020526040902060020154909150612aac90612aa59083613357565b8490613357565b979650505050505050565b6000612ac383836133b1565b8061183f5750506001600160a01b039182166000908152600d602090815260408083209390941682526003909201909152205460ff1690565b6000803411612b26576001600160a01b0385166000908152600d6020526040902060010154612b28565b345b9050612b68612b3986868686612f70565b60408051808201909152601081526f092dce6eaccccd2c6d2cadce8408aa8960831b60208201528391906130c4565b9050612313858261315b565b612b86846001600160a01b03166131dc565b15611e9c5763f23a6e6160e01b6001600160e01b031916846001600160a01b031663f23a6e6188888787876040518663ffffffff1660e01b815260040180866001600160a01b03168152602001856001600160a01b0316815260200184815260200183815260200180602001828103825283818151815260200191508051906020019080838360005b83811015612c27578181015183820152602001612c0f565b50505050905090810190601f168015612c545780820380516001836020036101000a031916815260200191505b509650505050505050602060405180830381600087803b158015612c7757600080fd5b505af1158015612c8b573d6000803e3d6000fd5b505050506040513d6020811015612ca157600080fd5b50516001600160e01b03191614611e9c5760405162461bcd60e51b8152600401808060200182810382526031815260200180613a356031913960400191505060405180910390fd5b6001600160a01b038116612d2e5760405162461bcd60e51b815260040180806020018281038252602681526020018061387b6026913960400191505060405180910390fd5b600c546040516001600160a01b038084169216907f8be0079c531659141344cd1fd0a4f28419497f9722a3daafe3b4186f6b6457e090600090a3600c80546001600160a01b0319166001600160a01b0392909216919091179055565b6000838152600e602052604081206008018054612f279290612da857fe5b6000918252602080832090910154868352600e8083526040808520805460018201548351606081018552600284015481526003840154818901528c895294909652600b90910180546001600160a01b03909516968a96929592948a949093908401929190612e1257fe5b9060005260206000209060020201600160028110612e2c57fe5b0154905260008a8152600e602090815260409182902060090180548351818402810184019094528084529091830182828015612e9157602002820191906000526020600020905b81546001600160a01b03168152600190910190602001808311612e73575b50505060008d8152600e6020908152604091829020600a0180548351818402810184019094528084529294509250830182828015612eee57602002820191906000526020600020905b815481526020019060010190808311612eda575b50505060008e8152600e60205260409020600481015460069091015490925060ff600160a01b82041691506001600160a01b0316612766565b505050565b600060098260ff1611612f4657506030810160f81b6110a6565b8160ff16600a11158015612f5e5750600f8260ff1611155b156101b657506057810160f81b6110a6565b6040805180820182526014815273496e73756666696369656e742062616c616e636560601b6020808301919091526000858152600e82528381206001600160a01b038916825260070190915291822054612fcb9184906130c4565b6000848152600e602090815260408083206001600160a01b038a168452600701909152902055612ffc848484613213565b6130078584846128cf565b905060005b6000848152600e602052604090206009015481101561214d576000848152600e6020526040812060090180548390811061304257fe5b6000918252602080832090910154878352600e90915260408220600a0180546001600160a01b039092169350908490811061307957fe5b60009182526020909120015490506130976127106129c686846132fe565b6001600160a01b039092166000908152600d6020526040902060019081018054909301909255500161300c565b600081848411156131535760405162461bcd60e51b81526004018080602001828103825283818151815260200191508051906020019080838360005b83811015613118578181015183820152602001613100565b50505050905090810190601f1680156131455780820380516001836020036101000a031916815260200191505b509250505060405180910390fd5b505050900390565b60003411801561316b5750600081115b156131b7576001600160a01b0382166000908152600d60205260409020600101546131969082613357565b6001600160a01b0383166000908152600d602052604090206001015561158c565b3461158c576001600160a01b03919091166000908152600d6020526040902060010155565b6000813f7fc5d2460186f7233c927e7db2dcc703c0e500b653ca82273b7bfad8045d85a4708115801590611c625750141592915050565b6000828152600e6020526040902060060154600160a01b900460ff16158061326957506000828152600e602090815260408083206001600160a01b038716845260070190915290206002015462010000900460ff165b6132b1576040805162461bcd60e51b81526020600482015260146024820152731059191c995cdcc81b9bdd08185c1c1c9bdd995960621b604482015290519081900360640190fd5b612f27838383613498565b600061183f83836040518060400160405280601a81526020017f536166654d6174683a206469766973696f6e206279207a65726f000000000000815250613696565b60008261330d5750600061105e565b8282028284828161331a57fe5b041461183f5760405162461bcd60e51b815260040180806020018281038252602181526020018061398f6021913960400191505060405180910390fd5b60008282018381101561183f576040805162461bcd60e51b815260206004820152601b60248201527f536166654d6174683a206164646974696f6e206f766572666c6f770000000000604482015290519081900360640190fd5b6000805b600a81101561348e576000600282600a81106133cd57fe5b01546001600160a01b031614613486576000600282600a81106133ec57fe5b01546040805163c455279160e01b81526001600160a01b0388811660048301529151928216935090861691839163c4552791916024808301926020929190829003018186803b15801561343e57600080fd5b505afa158015613452573d6000803e3d6000fd5b505050506040513d602081101561346857600080fd5b50516001600160a01b031614156134845760019250505061105e565b505b6001016133b5565b5060009392505050565b6000828152600e602090815260408083206001600160a01b03871684526007019091528120546134c89083613357565b6000848152600e602090815260408083206001600160a01b03891684526007019091529020549091506135c5576000838152600e602090815260408083206001600160a01b0388168452600701909152902060020154610100900460ff16613594576001600160a01b0384166000818152600d6020908152604080832060020180546001818101835591855283852001889055878452600e83529083206008810180549283018155845282842090910180546001600160a01b0319168517905592909152600790910190525b6000838152600e602090815260408083206001600160a01b0388168452600701909152902042600190910155613666565b6000838152600e602090815260408083206001600160a01b03881684526007019091528120600101546135f99042906126fa565b6000858152600e602090815260408083206001600160a01b038a168452600701909152812054919250906136339084906129c690856132fe565b6000868152600e602090815260408083206001600160a01b038b1684526007019091529020429190910360019091015550505b6000928352600e602090815260408085206001600160a01b03909616855260079095019052929091209190915550565b600081836136e55760405162461bcd60e51b8152602060048201818152835160248401528351909283926044909101919085019080838360008315613118578181015183820152602001613100565b5060008385816136f157fe5b0495945050505050565b82600a8101928215613743579160200282015b8281111561374357825182546001600160a01b0319166001600160a01b0390911617825560209092019160019091019061370e565b5061374f92915061381b565b5090565b8260028101928215613781579160200282015b82811115613781578251825591602001919060010190613766565b5061374f92915061383a565b828054828255906000526020600020908101928215613743579160200282018281111561374357825182546001600160a01b0319166001600160a01b0390911617825560209092019160019091019061370e565b8280548282559060005260206000209081019282156137815791602002820182811115613781578251825591602001919060010190613766565b5b8082111561374f5780546001600160a01b031916815560010161381c565b5b8082111561374f576000815560010161383b56fe455243313135353a2062616c616e636520717565727920666f7220746865207a65726f20616464726573734f776e61626c653a206e6577206f776e657220697320746865207a65726f2061646472657373455243313135353a207461726765742061646472657373206d757374206265206e6f6e2d7a65726f455243313135353a2063616e6e6f742073657420617070726f76616c2073746174757320666f722073656c66455243313135353a206163636f756e747320616e6420494473206d75737420686176652073616d65206c656e67746873455243313135353a20676f7420756e6b6e6f776e2076616c75652066726f6d206f6e4552433131353542617463685265636569766564455243313135353a20736f6d65206164647265737320696e2062617463682062616c616e6365207175657279206973207a65726f536166654d6174683a206d756c7469706c69636174696f6e206f766572666c6f774f776e61626c653a2063616c6c6572206973206e6f7420746865206f776e6572455243313135353a206e656564206f70657261746f7220617070726f76616c20666f7220337264207061727479207472616e7366657273455243313135353a2049447320616e642076616c756573206d75737420686176652073616d65206c656e67746873455243313135353a20676f7420756e6b6e6f776e2076616c75652066726f6d206f6e455243313135355265636569766564a264697066735822122086823a5b9831569ece1a4e9df688a28caf573d5e5140f781d9e3b785a048d8e564736f6c634300070100334f776e61626c653a206e6577206f776e657220697320746865207a65726f2061646472657373",
  "immutableReferences": {},
  "source": "// SPDX-License-Identifier: GPL-3.0-or-later\npragma solidity ^0.7.1;\n\nimport './Maintenable.sol';\n\ncontract Privatizable is Maintenable {\n\n\n    /****************************\n    EXTERNAL FUNCTIONS\n    *****************************/\n\n\n    /**\n     * @dev Function to approve holder for a private token.\n     * @param id the token id\n     * @param holder The authorized address\n     */\n    function approveHolder(uint256 id, address holder) external onlyMaintener(id) {\n        _tokens[id].holders[holder].isApproved = true;\n    }\n\n\n    /**\n     * @dev Function to revoke holder for a private token.\n     * @param id the token id\n     * @param holder The authorized address\n     */\n    function revokeHolder(uint256 id, address holder) external onlyMaintener(id) {\n        _tokens[id].holders[holder].isApproved = false;\n    }\n\n\n    /****************************\n    INTERNAL FUNCTIONS\n    *****************************/\n\n\n    // override ChargeableTransfer._addToBalance()\n    function _addToBalance(address recipient, uint256 id, uint256 value) internal override {\n        require(!_tokens[id].isPrivate || _tokens[id].holders[recipient].isApproved, \"Address not approved\");\n        super._addToBalance(recipient, id, value);\n    }\n\n}\n",
  "sourcePath": "/home/ouziel/Work/StashBloxContracts/contracts/lib/Privatizable.sol",
  "compiler": {
    "name": "solc",
    "version": "0.7.1+commit.f4a555be.Emscripten.clang"
  },
  "schemaVersion": "3.2.3",
  "updatedAt": "2020-10-21T20:10:49.962Z",
  "devdoc": {
    "kind": "dev",
    "methods": {
      "approveHolder(uint256,address)": {
        "details": "Function to approve holder for a private token.",
        "params": {
          "holder": "The authorized address",
          "id": "the token id"
        }
      },
      "authorizeMaintener(uint256,address)": {
        "details": "Function to authorize an address to maintain a token.",
        "params": {
          "maintener": "The authorized address"
        }
      },
      "authorizeTokenizer(address)": {
        "details": "Function to authorize an address to create a token.",
        "params": {
          "tokenizer": "The authorized address"
        }
      },
      "averageAge(address,uint256)": {
        "details": "Function to get the average age of the token for the given address.",
        "params": {
          "account": "the address from where to transfer the tokens",
          "id": "The token ID"
        },
        "returns": {
          "_0": "average age in seconds"
        }
      },
      "balanceOf(address,uint256)": {
        "details": "Get the specified address' balance for token with specified ID. Attempting to query the zero account for a balance will result in a revert.",
        "params": {
          "account": "The address of the token holder",
          "id": "ID of the token"
        },
        "returns": {
          "_0": "The account's balance of the token type requested"
        }
      },
      "balanceOfBatch(address[],uint256[])": {
        "details": "Get the balance of multiple account/token pairs. If any of the query accounts is the zero account, this query will revert.",
        "params": {
          "accounts": "The addresses of the token holders",
          "ids": "IDs of the tokens"
        },
        "returns": {
          "_0": "Balances for each account and token id pair"
        }
      },
      "cloneToken(uint256,uint256[],uint256[])": {
        "details": "Function to mint tokens in batch.",
        "params": {
          "id": "Identifier of the template",
          "ids": "list of IDs of the tokens to be minted",
          "metadataHashes": "list of metadata file hashes"
        }
      },
      "createToken(address,uint256,uint256,uint256,uint256,uint256[3],address[],uint256[],uint256,bool,address)": {
        "details": "Function to mint an amount of a token with the given ID.",
        "params": {
          "feesRecipients": "list of addresses receiving transfer fees",
          "feesRecipientsPercentage": "list of percentage, each one for the corresponding feesRecipients",
          "id": "ID of the token to be minted",
          "isPrivate": "true if holder need approval",
          "legalAuthority": "address of the legal authority",
          "metadataHash": "Metadata file hash",
          "minHoldingForCallback": "minimum holding to propose a callback",
          "recipient": "The address that will own the minted tokens",
          "supply": "Amount of the token to be minted",
          "transactionFees": "transaction fees: [lumpSumFees (in WEI), valueProportionalFees (ratio of transfered amount * 10**8), storageFees (in storageCredit * 10**8)]"
        }
      },
      "isApprovedForAll(address,address)": {
        "params": {
          "account": "The account of the Tokens",
          "operator": "Address of authorized operator"
        },
        "returns": {
          "_0": "True if the operator is approved, false if not"
        }
      },
      "isMaintener(uint256,address)": {
        "details": "Function to check if an address is authorized to maintain a token.",
        "params": {
          "id": "the token id",
          "maintener": "The authorized address"
        },
        "returns": {
          "_0": "true if it's a maintener address"
        }
      },
      "isTokenizer(address)": {
        "details": "Function to check if an address is authorized to create a token.",
        "params": {
          "tokenizer": "The authorized address"
        }
      },
      "owner()": {
        "details": "Returns the address of the current owner."
      },
      "revokeHolder(uint256,address)": {
        "details": "Function to revoke holder for a private token.",
        "params": {
          "holder": "The authorized address",
          "id": "the token id"
        }
      },
      "revokeMaintener(uint256,address)": {
        "details": "Function to revoke the authorization to maintain a token.",
        "params": {
          "id": "the token id",
          "maintener": "The authorized address"
        }
      },
      "revokeTokenizer(address)": {
        "details": "Function to revoke the authorization to create a token.",
        "params": {
          "tokenizer": "The authorized address"
        }
      },
      "safeBatchTransferFrom(address,address,uint256[],uint256[],bytes)": {
        "details": "Transfers `values` amount(s) of `ids` from the `from` address to the `to` address specified. Caller must be approved to manage the tokens being transferred out of the `from` account. If `to` is a smart contract, will call `onERC1155BatchReceived` on `to` and act appropriately.",
        "params": {
          "data": "Data forwarded to `onERC1155Received` if `to` is a contract receiver",
          "from": "Source address",
          "ids": "IDs of each token type",
          "to": "Target address",
          "values": "Transfer amounts per token type"
        }
      },
      "safeTransferFrom(address,address,uint256,uint256,bytes)": {
        "details": "Transfers `value` amount of an `id` from the `from` address to the `to` address specified. Caller must be approved to manage the tokens being transferred out of the `from` account. If `to` is a smart contract, will call `onERC1155Received` on `to` and act appropriately.",
        "params": {
          "data": "Data forwarded to `onERC1155Received` if `to` is a contract receiver",
          "from": "Source address",
          "id": "ID of the token type",
          "to": "Target address",
          "value": "Transfer amount"
        }
      },
      "setApprovalForAll(address,bool)": {
        "details": "Sets or unsets the approval of a given operator. An operator is allowed to transfer all tokens of the sender on their behalf. Because an account already has operator privileges for itself, this function will revert if the account attempts to set the approval status for itself.",
        "params": {
          "approved": "representing the status of the approval to be set",
          "operator": "address to set the approval"
        }
      },
      "setProxyRegistryAddress(address[10])": {
        "details": "Function to update the operator whitelist",
        "params": {
          "proxyAddresses": "List of addresses"
        }
      },
      "supportsInterface(bytes4)": {
        "params": {
          "_interfaceID": "The interface identifier, as specified in ERC-165"
        },
        "returns": {
          "_0": "`true` if the contract implements `_interfaceID` and"
        }
      },
      "transactionFees(address,uint256,uint256)": {
        "details": "Function to get the transaction price to transfer tokens.",
        "params": {
          "account": "the address from where to transfer the tokens",
          "id": "The token ID",
          "value": "The amount to transfer"
        },
        "returns": {
          "_0": "transfer price"
        }
      },
      "transferOwnership(address)": {
        "details": "Transfers ownership of the contract to a new account (`newOwner`). Can only be called by the current owner."
      },
      "updateToken(uint256,uint256,uint256[3],address[],uint256[],uint256,bool,address)": {
        "details": "Function to update a token with the given ID.",
        "params": {
          "feesRecipients": "list of addresses receiving transfer fees",
          "feesRecipientsPercentage": "list of percentage, each one for the corresponding feesRecipients",
          "id": "ID of the token to be updated",
          "isPrivate": "true if holder need approval",
          "legalAuthority": "address of the legal authority",
          "metadataHash": "Metadata file hash",
          "minHoldingForCallback": "minimum holding to propose a callback",
          "transactionFees": "transaction fees: [lumpSumFees (in WEI), valueProportionalFees (ratio of transfered amount * 10**8), storageFees (in storageCredit * 10**8)]"
        }
      },
      "uri(uint256)": {
        "params": {
          "id": "Token ID"
        },
        "returns": {
          "_0": "URI string"
        }
      }
    },
    "version": 1
  },
  "userdoc": {
    "kind": "user",
    "methods": {
      "isApprovedForAll(address,address)": {
        "notice": "Queries the approval status of an operator for a given account."
      },
      "supportsInterface(bytes4)": {
        "notice": "Query if a contract implements an interface"
      }
    },
    "version": 1
  }
}