{
  "contractName": "Privatizable",
  "abi": [
    {
      "anonymous": false,
      "inputs": [
        {
          "indexed": true,
          "internalType": "address",
          "name": "_owner",
          "type": "address"
        },
        {
          "indexed": true,
          "internalType": "address",
          "name": "_operator",
          "type": "address"
        },
        {
          "indexed": false,
          "internalType": "bool",
          "name": "_approved",
          "type": "bool"
        }
      ],
      "name": "ApprovalForAll",
      "type": "event"
    },
    {
      "anonymous": false,
      "inputs": [
        {
          "indexed": true,
          "internalType": "address",
          "name": "previousOwner",
          "type": "address"
        },
        {
          "indexed": true,
          "internalType": "address",
          "name": "newOwner",
          "type": "address"
        }
      ],
      "name": "OwnershipTransferred",
      "type": "event"
    },
    {
      "anonymous": false,
      "inputs": [
        {
          "indexed": true,
          "internalType": "uint256",
          "name": "_id",
          "type": "uint256"
        },
        {
          "indexed": false,
          "internalType": "uint256",
          "name": "_documentHash",
          "type": "uint256"
        }
      ],
      "name": "TokenUpdated",
      "type": "event"
    },
    {
      "anonymous": false,
      "inputs": [
        {
          "indexed": true,
          "internalType": "address",
          "name": "_operator",
          "type": "address"
        },
        {
          "indexed": true,
          "internalType": "address",
          "name": "_from",
          "type": "address"
        },
        {
          "indexed": true,
          "internalType": "address",
          "name": "_to",
          "type": "address"
        },
        {
          "indexed": false,
          "internalType": "uint256[]",
          "name": "_ids",
          "type": "uint256[]"
        },
        {
          "indexed": false,
          "internalType": "uint256[]",
          "name": "_values",
          "type": "uint256[]"
        }
      ],
      "name": "TransferBatch",
      "type": "event"
    },
    {
      "anonymous": false,
      "inputs": [
        {
          "indexed": true,
          "internalType": "address",
          "name": "_operator",
          "type": "address"
        },
        {
          "indexed": true,
          "internalType": "address",
          "name": "_from",
          "type": "address"
        },
        {
          "indexed": true,
          "internalType": "address",
          "name": "_to",
          "type": "address"
        },
        {
          "indexed": false,
          "internalType": "uint256",
          "name": "_id",
          "type": "uint256"
        },
        {
          "indexed": false,
          "internalType": "uint256",
          "name": "_value",
          "type": "uint256"
        }
      ],
      "name": "TransferSingle",
      "type": "event"
    },
    {
      "anonymous": false,
      "inputs": [
        {
          "indexed": false,
          "internalType": "string",
          "name": "_value",
          "type": "string"
        },
        {
          "indexed": true,
          "internalType": "uint256",
          "name": "_id",
          "type": "uint256"
        }
      ],
      "name": "URI",
      "type": "event"
    },
    {
      "inputs": [
        {
          "internalType": "uint256",
          "name": "",
          "type": "uint256"
        }
      ],
      "name": "_callbacks",
      "outputs": [
        {
          "internalType": "uint256",
          "name": "tokenId",
          "type": "uint256"
        },
        {
          "internalType": "uint256",
          "name": "price",
          "type": "uint256"
        },
        {
          "internalType": "uint256",
          "name": "escrowedAmount",
          "type": "uint256"
        },
        {
          "internalType": "uint256",
          "name": "callCounter",
          "type": "uint256"
        },
        {
          "internalType": "uint256",
          "name": "documentHash",
          "type": "uint256"
        },
        {
          "internalType": "address",
          "name": "caller",
          "type": "address"
        },
        {
          "internalType": "bool",
          "name": "needLegalApproval",
          "type": "bool"
        },
        {
          "internalType": "bool",
          "name": "approvedByLegal",
          "type": "bool"
        },
        {
          "internalType": "bool",
          "name": "refused",
          "type": "bool"
        },
        {
          "internalType": "bool",
          "name": "accepted",
          "type": "bool"
        },
        {
          "internalType": "bool",
          "name": "completed",
          "type": "bool"
        }
      ],
      "stateMutability": "view",
      "type": "function"
    },
    {
      "inputs": [],
      "name": "_config",
      "outputs": [
        {
          "internalType": "uint256",
          "name": "callbackAutoExecuteMaxAddresses",
          "type": "uint256"
        },
        {
          "internalType": "string",
          "name": "baseURI",
          "type": "string"
        }
      ],
      "stateMutability": "view",
      "type": "function"
    },
    {
      "inputs": [
        {
          "internalType": "uint256",
          "name": "",
          "type": "uint256"
        }
      ],
      "name": "_tokens",
      "outputs": [
        {
          "internalType": "uint256",
          "name": "supply",
          "type": "uint256"
        },
        {
          "internalType": "uint256",
          "name": "decimals",
          "type": "uint256"
        },
        {
          "internalType": "uint256",
          "name": "lumpSumTransactionFees",
          "type": "uint256"
        },
        {
          "internalType": "uint256",
          "name": "valueTransactionFees",
          "type": "uint256"
        },
        {
          "internalType": "uint256",
          "name": "minHoldingForCallback",
          "type": "uint256"
        },
        {
          "internalType": "uint256",
          "name": "metadataHash",
          "type": "uint256"
        },
        {
          "internalType": "address",
          "name": "legalAuthority",
          "type": "address"
        },
        {
          "internalType": "bool",
          "name": "isPrivate",
          "type": "bool"
        },
        {
          "internalType": "bool",
          "name": "locked",
          "type": "bool"
        }
      ],
      "stateMutability": "view",
      "type": "function"
    },
    {
      "inputs": [
        {
          "internalType": "address",
          "name": "",
          "type": "address"
        }
      ],
      "name": "_users",
      "outputs": [
        {
          "internalType": "bool",
          "name": "isTokenizer",
          "type": "bool"
        },
        {
          "internalType": "bool",
          "name": "isLocked",
          "type": "bool"
        },
        {
          "internalType": "uint256",
          "name": "ETHBalance",
          "type": "uint256"
        }
      ],
      "stateMutability": "view",
      "type": "function"
    },
    {
      "inputs": [
        {
          "internalType": "uint256",
          "name": "id",
          "type": "uint256"
        },
        {
          "internalType": "address",
          "name": "maintener",
          "type": "address"
        }
      ],
      "name": "authorizeMaintener",
      "outputs": [],
      "stateMutability": "nonpayable",
      "type": "function"
    },
    {
      "inputs": [
        {
          "internalType": "address",
          "name": "tokenizer",
          "type": "address"
        }
      ],
      "name": "authorizeTokenizer",
      "outputs": [],
      "stateMutability": "nonpayable",
      "type": "function"
    },
    {
      "inputs": [
        {
          "internalType": "address",
          "name": "account",
          "type": "address"
        },
        {
          "internalType": "uint256",
          "name": "id",
          "type": "uint256"
        }
      ],
      "name": "balanceOf",
      "outputs": [
        {
          "internalType": "uint256",
          "name": "",
          "type": "uint256"
        }
      ],
      "stateMutability": "view",
      "type": "function"
    },
    {
      "inputs": [
        {
          "internalType": "address[]",
          "name": "accounts",
          "type": "address[]"
        },
        {
          "internalType": "uint256[]",
          "name": "ids",
          "type": "uint256[]"
        }
      ],
      "name": "balanceOfBatch",
      "outputs": [
        {
          "internalType": "uint256[]",
          "name": "",
          "type": "uint256[]"
        }
      ],
      "stateMutability": "view",
      "type": "function"
    },
    {
      "inputs": [
        {
          "internalType": "uint256",
          "name": "id",
          "type": "uint256"
        },
        {
          "internalType": "uint256[]",
          "name": "ids",
          "type": "uint256[]"
        },
        {
          "internalType": "uint256[]",
          "name": "metadataHashes",
          "type": "uint256[]"
        }
      ],
      "name": "cloneToken",
      "outputs": [],
      "stateMutability": "nonpayable",
      "type": "function"
    },
    {
      "inputs": [
        {
          "internalType": "address",
          "name": "recipient",
          "type": "address"
        },
        {
          "internalType": "uint256",
          "name": "id",
          "type": "uint256"
        },
        {
          "internalType": "uint256",
          "name": "supply",
          "type": "uint256"
        },
        {
          "internalType": "uint256",
          "name": "decimals",
          "type": "uint256"
        },
        {
          "internalType": "uint256",
          "name": "metadataHash",
          "type": "uint256"
        },
        {
          "internalType": "uint256[3]",
          "name": "transactionFees",
          "type": "uint256[3]"
        },
        {
          "internalType": "address[]",
          "name": "feesRecipients",
          "type": "address[]"
        },
        {
          "internalType": "uint256[]",
          "name": "feesRecipientsPercentage",
          "type": "uint256[]"
        },
        {
          "internalType": "uint256",
          "name": "minHoldingForCallback",
          "type": "uint256"
        },
        {
          "internalType": "bool",
          "name": "isPrivate",
          "type": "bool"
        },
        {
          "internalType": "address",
          "name": "legalAuthority",
          "type": "address"
        }
      ],
      "name": "createToken",
      "outputs": [],
      "stateMutability": "nonpayable",
      "type": "function"
    },
    {
      "inputs": [
        {
          "internalType": "address",
          "name": "account",
          "type": "address"
        },
        {
          "internalType": "address",
          "name": "operator",
          "type": "address"
        }
      ],
      "name": "isApprovedForAll",
      "outputs": [
        {
          "internalType": "bool",
          "name": "",
          "type": "bool"
        }
      ],
      "stateMutability": "view",
      "type": "function"
    },
    {
      "inputs": [
        {
          "internalType": "uint256",
          "name": "id",
          "type": "uint256"
        },
        {
          "internalType": "address",
          "name": "maintener",
          "type": "address"
        }
      ],
      "name": "isMaintener",
      "outputs": [
        {
          "internalType": "bool",
          "name": "",
          "type": "bool"
        }
      ],
      "stateMutability": "view",
      "type": "function"
    },
    {
      "inputs": [
        {
          "internalType": "address",
          "name": "tokenizer",
          "type": "address"
        }
      ],
      "name": "isTokenizer",
      "outputs": [
        {
          "internalType": "bool",
          "name": "",
          "type": "bool"
        }
      ],
      "stateMutability": "view",
      "type": "function"
    },
    {
      "inputs": [],
      "name": "owner",
      "outputs": [
        {
          "internalType": "address",
          "name": "",
          "type": "address"
        }
      ],
      "stateMutability": "view",
      "type": "function"
    },
    {
      "inputs": [
        {
          "internalType": "uint256",
          "name": "id",
          "type": "uint256"
        },
        {
          "internalType": "address",
          "name": "maintener",
          "type": "address"
        }
      ],
      "name": "revokeMaintener",
      "outputs": [],
      "stateMutability": "nonpayable",
      "type": "function"
    },
    {
      "inputs": [
        {
          "internalType": "address",
          "name": "tokenizer",
          "type": "address"
        }
      ],
      "name": "revokeTokenizer",
      "outputs": [],
      "stateMutability": "nonpayable",
      "type": "function"
    },
    {
      "inputs": [
        {
          "internalType": "address",
          "name": "from",
          "type": "address"
        },
        {
          "internalType": "address",
          "name": "to",
          "type": "address"
        },
        {
          "internalType": "uint256[]",
          "name": "ids",
          "type": "uint256[]"
        },
        {
          "internalType": "uint256[]",
          "name": "values",
          "type": "uint256[]"
        },
        {
          "internalType": "bytes",
          "name": "data",
          "type": "bytes"
        }
      ],
      "name": "safeBatchTransferFrom",
      "outputs": [],
      "stateMutability": "payable",
      "type": "function"
    },
    {
      "inputs": [
        {
          "internalType": "address",
          "name": "from",
          "type": "address"
        },
        {
          "internalType": "address",
          "name": "to",
          "type": "address"
        },
        {
          "internalType": "uint256",
          "name": "id",
          "type": "uint256"
        },
        {
          "internalType": "uint256",
          "name": "value",
          "type": "uint256"
        },
        {
          "internalType": "bytes",
          "name": "data",
          "type": "bytes"
        }
      ],
      "name": "safeTransferFrom",
      "outputs": [],
      "stateMutability": "payable",
      "type": "function"
    },
    {
      "inputs": [
        {
          "internalType": "address",
          "name": "operator",
          "type": "address"
        },
        {
          "internalType": "bool",
          "name": "approved",
          "type": "bool"
        }
      ],
      "name": "setApprovalForAll",
      "outputs": [],
      "stateMutability": "nonpayable",
      "type": "function"
    },
    {
      "inputs": [
        {
          "internalType": "address[10]",
          "name": "proxyAddresses",
          "type": "address[10]"
        }
      ],
      "name": "setProxyRegistryAddress",
      "outputs": [],
      "stateMutability": "nonpayable",
      "type": "function"
    },
    {
      "inputs": [
        {
          "internalType": "bytes4",
          "name": "_interfaceID",
          "type": "bytes4"
        }
      ],
      "name": "supportsInterface",
      "outputs": [
        {
          "internalType": "bool",
          "name": "",
          "type": "bool"
        }
      ],
      "stateMutability": "pure",
      "type": "function"
    },
    {
      "inputs": [
        {
          "internalType": "address",
          "name": "account",
          "type": "address"
        },
        {
          "internalType": "uint256",
          "name": "id",
          "type": "uint256"
        },
        {
          "internalType": "uint256",
          "name": "value",
          "type": "uint256"
        }
      ],
      "name": "transactionFees",
      "outputs": [
        {
          "internalType": "uint256",
          "name": "",
          "type": "uint256"
        }
      ],
      "stateMutability": "view",
      "type": "function"
    },
    {
      "inputs": [
        {
          "internalType": "address",
          "name": "newOwner",
          "type": "address"
        }
      ],
      "name": "transferOwnership",
      "outputs": [],
      "stateMutability": "nonpayable",
      "type": "function"
    },
    {
      "inputs": [
        {
          "internalType": "uint256",
          "name": "id",
          "type": "uint256"
        },
        {
          "internalType": "uint256",
          "name": "metadataHash",
          "type": "uint256"
        },
        {
          "internalType": "uint256[3]",
          "name": "transactionFees",
          "type": "uint256[3]"
        },
        {
          "internalType": "address[]",
          "name": "feesRecipients",
          "type": "address[]"
        },
        {
          "internalType": "uint256[]",
          "name": "feesRecipientsPercentage",
          "type": "uint256[]"
        },
        {
          "internalType": "uint256",
          "name": "minHoldingForCallback",
          "type": "uint256"
        },
        {
          "internalType": "bool",
          "name": "isPrivate",
          "type": "bool"
        },
        {
          "internalType": "address",
          "name": "legalAuthority",
          "type": "address"
        }
      ],
      "name": "updateToken",
      "outputs": [],
      "stateMutability": "nonpayable",
      "type": "function"
    },
    {
      "inputs": [
        {
          "internalType": "uint256",
          "name": "id",
          "type": "uint256"
        },
        {
          "internalType": "address",
          "name": "holder",
          "type": "address"
        }
      ],
      "name": "approveHolder",
      "outputs": [],
      "stateMutability": "nonpayable",
      "type": "function"
    },
    {
      "inputs": [
        {
          "internalType": "uint256",
          "name": "id",
          "type": "uint256"
        },
        {
          "internalType": "address",
          "name": "holder",
          "type": "address"
        }
      ],
      "name": "revokeHolder",
      "outputs": [],
      "stateMutability": "nonpayable",
      "type": "function"
    }
  ],
  "bytecode": "0x60806040523480156200001157600080fd5b506200001d3362000023565b620000e0565b6001600160a01b03811662000084576040517f08c379a0000000000000000000000000000000000000000000000000000000008152600401808060200182810382526026815260200180620037746026913960400191505060405180910390fd5b600f546040516001600160a01b038084169216907f8be0079c531659141344cd1fd0a4f28419497f9722a3daafe3b4186f6b6457e090600090a3600f80546001600160a01b0319166001600160a01b0392909216919091179055565b61368480620000f06000396000f3fe6080604052600436106101805760003560e01c80638870147b116100d1578063d1660e181161008a578063ed70554d11610064578063ed70554d14610c56578063f242432a14610cd4578063f2fde38b14610d67578063f8a5a07c14610d9a57610180565b8063d1660e1814610ba3578063d41d0aa314610be2578063e985e9c514610c1b57610180565b80638870147b146108fb5780638aeba37e1461092e5780638da5cb5b14610967578063a22cb46514610998578063c02f303c146109d3578063c40b87ae14610a0657610180565b80634392e5771161013e5780635dafec1b116101185780635dafec1b1461081d5780635dd2b9a614610856578063759c52141461088f5780637627b732146108c857610180565b80634392e577146104ba5780634ab0d2531461051b5780634e1273f41461069d57610180565b8062fdd58e1461018557806301ffc9a7146101d05780632eb2c2d6146102185780632ed42bf7146103415780633cacd7d6146103d5578063414ed0ce14610428575b600080fd5b34801561019157600080fd5b506101be600480360360408110156101a857600080fd5b506001600160a01b038135169060200135610ed1565b60408051918252519081900360200190f35b3480156101dc57600080fd5b50610204600480360360208110156101f357600080fd5b50356001600160e01b031916610f46565b604080519115158252519081900360200190f35b61033f600480360360a081101561022e57600080fd5b6001600160a01b038235811692602081013590911691810190606081016040820135600160201b81111561026157600080fd5b82018360208201111561027357600080fd5b803590602001918460208302840111600160201b8311171561029457600080fd5b919390929091602081019035600160201b8111156102b157600080fd5b8201836020820111156102c357600080fd5b803590602001918460208302840111600160201b831117156102e457600080fd5b919390929091602081019035600160201b81111561030157600080fd5b82018360208201111561031357600080fd5b803590602001918460018302840111600160201b8311171561033457600080fd5b509092509050610f8d565b005b34801561034d57600080fd5b5061035661123b565b6040518083815260200180602001828103825283818151815260200191508051906020019080838360005b83811015610399578181015183820152602001610381565b50505050905090810190601f1680156103c65780820380516001836020036101000a031916815260200191505b50935050505060405180910390f35b3480156103e157600080fd5b50610408600480360360208110156103f857600080fd5b50356001600160a01b03166112d1565b604080519315158452911515602084015282820152519081900360600190f35b34801561043457600080fd5b506104526004803603602081101561044b57600080fd5b50356112f7565b604080519b8c5260208c019a909a528a8a019890985260608a019690965260808901949094526001600160a01b0390921660a0880152151560c0870152151560e086015215156101008501521515610120840152151561014083015251908190036101600190f35b3480156104c657600080fd5b5061033f60048036036101408110156104de57600080fd5b81019080806101400190600a806020026040519081016040528092919082600a6020028082843760009201919091525091945061136a9350505050565b34801561052757600080fd5b5061033f600480360361014081101561053f57600080fd5b6040805160608181018352843594602081013594810193909260a08401929091840190600390839083908082843760009201919091525091949392602081019250359050600160201b81111561059457600080fd5b8201836020820111156105a657600080fd5b803590602001918460208302840111600160201b831117156105c757600080fd5b9190808060200260200160405190810160405280939291908181526020018383602002808284376000920191909152509295949360208101935035915050600160201b81111561061657600080fd5b82018360208201111561062857600080fd5b803590602001918460208302840111600160201b8311171561064957600080fd5b919080806020026020016040519081016040528093929190818152602001838360200280828437600092019190915250929550508235935050506020810135151590604001356001600160a01b03166113c2565b3480156106a957600080fd5b506107cd600480360360408110156106c057600080fd5b810190602081018135600160201b8111156106da57600080fd5b8201836020820111156106ec57600080fd5b803590602001918460208302840111600160201b8311171561070d57600080fd5b9190808060200260200160405190810160405280939291908181526020018383602002808284376000920191909152509295949360208101935035915050600160201b81111561075c57600080fd5b82018360208201111561076e57600080fd5b803590602001918460208302840111600160201b8311171561078f57600080fd5b9190808060200260200160405190810160405280939291908181526020018383602002808284376000920191909152509295506114b9945050505050565b60408051602080825283518183015283519192839290830191858101910280838360005b838110156108095781810151838201526020016107f1565b505050509050019250505060405180910390f35b34801561082957600080fd5b506102046004803603604081101561084057600080fd5b50803590602001356001600160a01b031661163d565b34801561086257600080fd5b5061033f6004803603604081101561087957600080fd5b50803590602001356001600160a01b0316611650565b34801561089b57600080fd5b5061033f600480360360408110156108b257600080fd5b50803590602001356001600160a01b03166116e2565b3480156108d457600080fd5b5061033f600480360360208110156108eb57600080fd5b50356001600160a01b031661176f565b34801561090757600080fd5b5061033f6004803603602081101561091e57600080fd5b50356001600160a01b03166117da565b34801561093a57600080fd5b5061033f6004803603604081101561095157600080fd5b50803590602001356001600160a01b0316611842565b34801561097357600080fd5b5061097c6118c0565b604080516001600160a01b039092168252519081900360200190f35b3480156109a457600080fd5b5061033f600480360360408110156109bb57600080fd5b506001600160a01b03813516906020013515156118cf565b3480156109df57600080fd5b50610204600480360360208110156109f657600080fd5b50356001600160a01b0316611985565b348015610a1257600080fd5b5061033f60048036036101a0811015610a2a57600080fd5b60408051606081810183526001600160a01b03853516946020810135949381013593828201359360808301359391830192916101008301919060a0840190600390839083908082843760009201919091525091949392602081019250359050600160201b811115610a9a57600080fd5b820183602082011115610aac57600080fd5b803590602001918460208302840111600160201b83111715610acd57600080fd5b9190808060200260200160405190810160405280939291908181526020018383602002808284376000920191909152509295949360208101935035915050600160201b811115610b1c57600080fd5b820183602082011115610b2e57600080fd5b803590602001918460208302840111600160201b83111715610b4f57600080fd5b919080806020026020016040519081016040528093929190818152602001838360200280828437600092019190915250929550508235935050506020810135151590604001356001600160a01b0316611990565b348015610baf57600080fd5b506101be60048036036060811015610bc657600080fd5b506001600160a01b038135169060208101359060400135611a4f565b348015610bee57600080fd5b5061033f60048036036040811015610c0557600080fd5b50803590602001356001600160a01b0316611a64565b348015610c2757600080fd5b5061020460048036036040811015610c3e57600080fd5b506001600160a01b0381358116916020013516611adf565b348015610c6257600080fd5b50610c8060048036036020811015610c7957600080fd5b5035611b20565b60408051998a5260208a0198909852888801969096526060880194909452608087019290925260a08601526001600160a01b031660c0850152151560e0840152151561010083015251908190036101200190f35b61033f600480360360a0811015610cea57600080fd5b6001600160a01b03823581169260208101359091169160408201359160608101359181019060a081016080820135600160201b811115610d2957600080fd5b820183602082011115610d3b57600080fd5b803590602001918460018302840111600160201b83111715610d5c57600080fd5b509092509050611b7c565b348015610d7357600080fd5b5061033f60048036036020811015610d8a57600080fd5b50356001600160a01b0316611cd3565b348015610da657600080fd5b5061033f60048036036060811015610dbd57600080fd5b81359190810190604081016020820135600160201b811115610dde57600080fd5b820183602082011115610df057600080fd5b803590602001918460208302840111600160201b83111715610e1157600080fd5b9190808060200260200160405190810160405280939291908181526020018383602002808284376000920191909152509295949360208101935035915050600160201b811115610e6057600080fd5b820183602082011115610e7257600080fd5b803590602001918460208302840111600160201b83111715610e9357600080fd5b919080806020026020016040519081016040528093929190818152602001838360200280828437600092019190915250929550611d26945050505050565b60006001600160a01b038316610f185760405162461bcd60e51b815260040180806020018281038252602b815260200180613439602b913960400191505060405180910390fd5b506000818152600d602090815260408083206001600160a01b03861684526007019091529020545b92915050565b60006001600160e01b031982166301ffc9a760e01b1480610f7757506001600160e01b03198216636cdb3d1360e11b145b15610f8457506001610f88565b5060005b919050565b848314610fcb5760405162461bcd60e51b815260040180806020018281038252602e8152602001806135f0602e913960400191505060405180910390fd5b6001600160a01b0387166110105760405162461bcd60e51b815260040180806020018281038252602881526020018061348a6028913960400191505060405180910390fd5b6001600160a01b038816331480611032575061102c8833611adf565b15156001145b61106d5760405162461bcd60e51b81526004018080602001828103825260378152602001806135b96037913960400191505060405180910390fd5b6110dc888888888080602002602001604051908101604052809392919081815260200183836020028082843760009201919091525050604080516020808c0282810182019093528b82529093508b92508a918291850190849080828437600092019190915250611ec992505050565b866001600160a01b0316886001600160a01b0316336001600160a01b03167f4a39dc06d4c0dbc64b70af90fd698a233a518aa5d07e595d983b8c0526c8f7fb898989896040518080602001806020018381038352878782818152602001925060200280828437600083820152601f01601f19169091018481038352858152602090810191508690860280828437600083820152604051601f909101601f19169092018290039850909650505050505050a461123133898989898080602002602001604051908101604052809392919081815260200183836020028082843760009201919091525050604080516020808d0282810182019093528c82529093508c92508b91829185019084908082843760009201919091525050604080516020601f8c018190048102820181019092528a815292508a9150899081908401838280828437600092019190915250611f8392505050565b5050505050505050565b6000805460018054604080516020600284861615610100026000190190941693909304601f810184900484028201840190925281815293949392918301828280156112c75780601f1061129c576101008083540402835291602001916112c7565b820191906000526020600020905b8154815290600101906020018083116112aa57829003601f168201915b5050505050905082565b600c602052600090815260409020805460019091015460ff808316926101009004169083565b600e6020526000908152604090208054600182015460028301546003840154600485015460059095015493949293919290916001600160a01b0381169060ff600160a01b8204811691600160a81b8104821691600160b01b8204811691600160b81b8104821691600160c01b909104168b565b611372612174565b6113b1576040805162461bcd60e51b81526020600482018190526024820152600080516020613599833981519152604482015290519081900360640190fd5b6113be600282600a6132e4565b5050565b876113cd8133612185565b611418576040805162461bcd60e51b815260206004820152601760248201527624b739bab33334b1b4b2b73a103832b936b4b9b9b4b7b760491b604482015290519081900360640190fd5b6000898152600d6020526040902054611468576040805162461bcd60e51b815260206004820152600d60248201526c2ab735b737bbb7103a37b5b2b760991b604482015290519081900360640190fd5b61147889898989898989896121bf565b6040805189815290518a917f199acc06cd2556bbc146fa3cb578799037dffcbf256eca32aaf2ef656925d2fd919081900360200190a2505050505050505050565b606081518351146114fb5760405162461bcd60e51b81526004018080602001828103825260308152602001806134de6030913960400191505060405180910390fd5b6060835167ffffffffffffffff8111801561151557600080fd5b5060405190808252806020026020018201604052801561153f578160200160208202803683370190505b50905060005b84518110156116355760006001600160a01b031685828151811061156557fe5b60200260200101516001600160a01b031614156115b35760405162461bcd60e51b81526004018080602001828103825260348152602001806135446034913960400191505060405180910390fd5b600d60008583815181106115c357fe5b6020026020010151815260200190815260200160002060070160008683815181106115ea57fe5b60200260200101516001600160a01b03166001600160a01b031681526020019081526020016000206000015482828151811061162257fe5b6020908102919091010152600101611545565b509392505050565b60006116498383612185565b9392505050565b8161165b8133612185565b6116a6576040805162461bcd60e51b815260206004820152601760248201527624b739bab33334b1b4b2b73a103832b936b4b9b9b4b7b760491b604482015290519081900360640190fd5b506000918252600d602090815260408084206001600160a01b039093168452600790920190529020600201805462ff0000191662010000179055565b816116ed8133612185565b611738576040805162461bcd60e51b815260206004820152601760248201527624b739bab33334b1b4b2b73a103832b936b4b9b9b4b7b760491b604482015290519081900360640190fd5b506000918252600d602090815260408084206001600160a01b039093168452600790920190529020600201805462ff000019169055565b611777612174565b6117b6576040805162461bcd60e51b81526020600482018190526024820152600080516020613599833981519152604482015290519081900360640190fd5b6001600160a01b03166000908152600c60205260409020805460ff19166001179055565b6117e2612174565b611821576040805162461bcd60e51b81526020600482018190526024820152600080516020613599833981519152604482015290519081900360640190fd5b6001600160a01b03166000908152600c60205260409020805460ff19169055565b61184a612174565b611889576040805162461bcd60e51b81526020600482018190526024820152600080516020613599833981519152604482015290519081900360640190fd5b6000918252600d602090815260408084206001600160a01b039093168452600790920190529020600201805460ff19166001179055565b600f546001600160a01b031690565b336001600160a01b03831614156119175760405162461bcd60e51b815260040180806020018281038252602c8152602001806134b2602c913960400191505060405180910390fd5b3360008181526010602090815260408083206001600160a01b03871680855290835292819020805460ff1916861515908117909155815190815290519293927f17307eab39ab6107e8899845ad3d59bd9653f200f220920489ca2b5937696c31929181900390910190a35050565b6000610f4082612363565b61199933612363565b6119e4576040805162461bcd60e51b815260206004820152601760248201527624b739bab33334b1b4b2b73a103832b936b4b9b9b4b7b760491b604482015290519081900360640190fd5b6119f78b8b8b8b8b8b8b8b8b8b8b61238d565b604080518b8152602081018b905281516001600160a01b038e169260009233927fc3d58168c5ae7397731d063d5bbf3d657854427343f4c083240f7aacaa2d0f62929181900390910190a45050505050505050505050565b6000611a5c8484846124f6565b949350505050565b611a6c612174565b611aab576040805162461bcd60e51b81526020600482018190526024820152600080516020613599833981519152604482015290519081900360640190fd5b6000918252600d602090815260408084206001600160a01b039093168452600790920190529020600201805460ff19169055565b6000611aeb83836126de565b806116495750506001600160a01b03918216600090815260106020908152604080832093909416825291909152205460ff1690565b600d60205260009081526040902080546001820154600283015460038401546004850154600586015460069096015494959394929391929091906001600160a01b0381169060ff600160a01b8204811691600160a81b90041689565b6001600160a01b038516611bc15760405162461bcd60e51b815260040180806020018281038252602881526020018061348a6028913960400191505060405180910390fd5b6001600160a01b038616331480611be35750611bdd8633611adf565b15156001145b611c1e5760405162461bcd60e51b81526004018080602001828103825260378152602001806135b96037913960400191505060405180910390fd5b611c2a868686866127c5565b846001600160a01b0316866001600160a01b0316336001600160a01b03167fc3d58168c5ae7397731d063d5bbf3d657854427343f4c083240f7aacaa2d0f628787604051808381526020018281526020019250505060405180910390a4611ccb338787878787878080601f01602080910402602001604051908101604052809392919081815260200183838082843760009201919091525061283d92505050565b505050505050565b611cdb612174565b611d1a576040805162461bcd60e51b81526020600482018190526024820152600080516020613599833981519152604482015290519081900360640190fd5b611d23816129b2565b50565b611d2f33612363565b611d7a576040805162461bcd60e51b815260206004820152601760248201527624b739bab33334b1b4b2b73a103832b936b4b9b9b4b7b760491b604482015290519081900360640190fd5b6000838152600d602052604090205415801590611d98575080518251145b611ddd576040805162461bcd60e51b8152602060048201526011602482015270496e76616c696420617267756d656e747360781b604482015290519081900360640190fd5b60005b8251811015611ec357611e1a84848381518110611df957fe5b6020026020010151848481518110611e0d57fe5b6020026020010151612a53565b6000848152600d602052604081206008018054909190611e3657fe5b600091825260208220015484516001600160a01b03909116919033907fc3d58168c5ae7397731d063d5bbf3d657854427343f4c083240f7aacaa2d0f6290879086908110611e8057fe5b6020026020010151600d60008a815260200190815260200160002060000154604051808381526020018281526020019250505060405180910390a4600101611de0565b50505050565b6000803411611ef3576001600160a01b0385166000908152600c6020526040902060010154611ef5565b345b905060005b8351811015611f7157611f67611f388787878581518110611f1757fe5b6020026020010151878681518110611f2b57fe5b6020026020010151612bf5565b60408051808201909152601081526f092dce6eaccccd2c6d2cadce8408aa8960831b6020820152849190612d52565b9150600101611efa565b50611f7c8582612de9565b5050505050565b611f95846001600160a01b0316612e6a565b15611ccb5763bc197c8160e01b6001600160e01b031916846001600160a01b031663bc197c8188888787876040518663ffffffff1660e01b815260040180866001600160a01b03168152602001856001600160a01b03168152602001806020018060200180602001848103845287818151815260200191508051906020019060200280838360005b8381101561203557818101518382015260200161201d565b50505050905001848103835286818151815260200191508051906020019060200280838360005b8381101561207457818101518382015260200161205c565b50505050905001848103825285818151815260200191508051906020019080838360005b838110156120b0578181015183820152602001612098565b50505050905090810190601f1680156120dd5780820380516001836020036101000a031916815260200191505b5098505050505050505050602060405180830381600087803b15801561210257600080fd5b505af1158015612116573d6000803e3d6000fd5b505050506040513d602081101561212c57600080fd5b50516001600160e01b03191614611ccb5760405162461bcd60e51b815260040180806020018281038252603681526020018061350e6036913960400191505060405180910390fd5b600f546001600160a01b0316331490565b6000828152600d602090815260408083206001600160a01b038516845260070190915281206002015460ff16806116495750611649612174565b6000805b85518110156121ef578581815181106121d857fe5b6020026020010151820191508060010190506121c3565b50600086511180156121ff575060015b801561220c575080612710145b8015612219575061271084105b61225e576040805162461bcd60e51b8152602060048201526011602482015270496e76616c696420617267756d656e747360781b604482015290519081900360640190fd5b6000898152600d60209081526040808320600581018c90558a516002808301919091558b840151600383015582518084018452428152928c015183850152600b9091018054600181018255908552929093206122be93928302019161333c565b506000898152600d6020908152604090912087516122e492600990920191890190613376565b506000898152600d60209081526040909120865161230a92600a909201918801906133ca565b50506000978852600d602052604090972060048101929092556006909101805460ff60a01b1916600160a01b92151592909202919091176001600160a01b0319166001600160a01b039096169590951790945550505050565b6001600160a01b0381166000908152600c602052604081205460ff1680610f405750610f40612174565b60008a8152600d60205260409020541580156123a95750600089115b6123ee576040805162461bcd60e51b8152602060048201526011602482015270496e76616c696420617267756d656e747360781b604482015290519081900360640190fd5b88600d60008c81526020019081526020016000206000018190555087600d60008c8152602001908152602001600020600101819055506001600d60008c81526020019081526020016000206007016000336001600160a01b03166001600160a01b0316815260200190815260200160002060020160006101000a81548160ff0219169083151502179055506001600d60008c815260200190815260200160002060070160008d6001600160a01b03166001600160a01b0316815260200190815260200160002060020160026101000a81548160ff0219169083151502179055506124de8a888888888888886121bf565b6124e98b8b8b612ea1565b5050505050505050505050565b6000828152600d60205260408120600b015481904290600019015b6000868152600d60205260408120600b0180548390811061252e57fe5b60009182526020822060029091020101546000888152600d60205260408120600b01805492935090918490811061256157fe5b906000526020600020906002020160016002811061257b57fe5b01546000898152600d602090815260408083206001600160a01b038e16845260070190915281206001015491925090831161261e576000898152600d602090815260408083206001600160a01b038e1684526007019091529020600101546125f39062015180906125ed908890612f4a565b90612f8c565b9050806125fe575060015b6126128861260c8385612fce565b90612fce565b8601955050505061265d565b61262f620151806125ed8786612f4a565b90508061263a575060015b919350839161264d8861260c8385612fce565b9095019450505060001901612511565b506000858152600d602052604090206001015461267e908390600a0a612f8c565b6000868152600d6020526040812060030154919350906126a9906305f5e100906125ed908890612fce565b6000878152600d60205260409020600201549091506126d3906126cc9083613027565b8490613027565b979650505050505050565b6000805b600a8110156127bb576000600282600a81106126fa57fe5b01546001600160a01b0316146127b3576000600282600a811061271957fe5b01546040805163c455279160e01b81526001600160a01b0388811660048301529151928216935090861691839163c4552791916024808301926020929190829003018186803b15801561276b57600080fd5b505afa15801561277f573d6000803e3d6000fd5b505050506040513d602081101561279557600080fd5b50516001600160a01b031614156127b157600192505050610f40565b505b6001016126e2565b5060009392505050565b60008034116127ef576001600160a01b0385166000908152600c60205260409020600101546127f1565b345b905061283161280286868686612bf5565b60408051808201909152601081526f092dce6eaccccd2c6d2cadce8408aa8960831b6020820152839190612d52565b9050611f7c8582612de9565b61284f846001600160a01b0316612e6a565b15611ccb5763f23a6e6160e01b6001600160e01b031916846001600160a01b031663f23a6e6188888787876040518663ffffffff1660e01b815260040180866001600160a01b03168152602001856001600160a01b0316815260200184815260200183815260200180602001828103825283818151815260200191508051906020019080838360005b838110156128f05781810151838201526020016128d8565b50505050905090810190601f16801561291d5780820380516001836020036101000a031916815260200191505b509650505050505050602060405180830381600087803b15801561294057600080fd5b505af1158015612954573d6000803e3d6000fd5b505050506040513d602081101561296a57600080fd5b50516001600160e01b03191614611ccb5760405162461bcd60e51b815260040180806020018281038252603181526020018061361e6031913960400191505060405180910390fd5b6001600160a01b0381166129f75760405162461bcd60e51b81526004018080602001828103825260268152602001806134646026913960400191505060405180910390fd5b600f546040516001600160a01b038084169216907f8be0079c531659141344cd1fd0a4f28419497f9722a3daafe3b4186f6b6457e090600090a3600f80546001600160a01b0319166001600160a01b0392909216919091179055565b6000838152600d602052604081206008018054612bf09290612a7157fe5b6000918252602080832090910154868352600d8083526040808520805460018201548351606081018552600284015481526003840154818901528c895294909652600b90910180546001600160a01b03909516968a96929592948a949093908401929190612adb57fe5b9060005260206000209060020201600160028110612af557fe5b0154905260008a8152600d602090815260409182902060090180548351818402810184019094528084529091830182828015612b5a57602002820191906000526020600020905b81546001600160a01b03168152600190910190602001808311612b3c575b50505060008d8152600d6020908152604091829020600a0180548351818402810184019094528084529294509250830182828015612bb757602002820191906000526020600020905b815481526020019060010190808311612ba3575b50505060008e8152600d60205260409020600481015460069091015490925060ff600160a01b82041691506001600160a01b031661238d565b505050565b6040805180820182526014815273496e73756666696369656e742062616c616e636560601b6020808301919091526000858152600d82528381206001600160a01b038916825260070190915291822054612c50918490612d52565b6000848152600d602090815260408083206001600160a01b038a168452600701909152902055612c81848484612ea1565b612c8c8584846124f6565b905060005b6000848152600d6020526040902060090154811015612d49576000848152600d60205260408120600901805483908110612cc757fe5b6000918252602080832090910154878352600d90915260408220600a0180546001600160a01b0390921693509084908110612cfe57fe5b6000918252602090912001549050612d1c6127106125ed8684612fce565b6001600160a01b039092166000908152600c60205260409020600190810180549093019092555001612c91565b50949350505050565b60008184841115612de15760405162461bcd60e51b81526004018080602001828103825283818151815260200191508051906020019080838360005b83811015612da6578181015183820152602001612d8e565b50505050905090810190601f168015612dd35780820380516001836020036101000a031916815260200191505b509250505060405180910390fd5b505050900390565b600034118015612df95750600081115b15612e45576001600160a01b0382166000908152600c6020526040902060010154612e249082613027565b6001600160a01b0383166000908152600c60205260409020600101556113be565b346113be576001600160a01b03919091166000908152600c6020526040902060010155565b6000813f7fc5d2460186f7233c927e7db2dcc703c0e500b653ca82273b7bfad8045d85a4708115801590611a5c5750141592915050565b6000828152600d6020526040902060060154600160a01b900460ff161580612ef757506000828152600d602090815260408083206001600160a01b038716845260070190915290206002015462010000900460ff165b612f3f576040805162461bcd60e51b81526020600482015260146024820152731059191c995cdcc81b9bdd08185c1c1c9bdd995960621b604482015290519081900360640190fd5b612bf0838383613081565b600061164983836040518060400160405280601e81526020017f536166654d6174683a207375627472616374696f6e206f766572666c6f770000815250612d52565b600061164983836040518060400160405280601a81526020017f536166654d6174683a206469766973696f6e206279207a65726f00000000000081525061327f565b600082612fdd57506000610f40565b82820282848281612fea57fe5b04146116495760405162461bcd60e51b81526004018080602001828103825260218152602001806135786021913960400191505060405180910390fd5b600082820183811015611649576040805162461bcd60e51b815260206004820152601b60248201527f536166654d6174683a206164646974696f6e206f766572666c6f770000000000604482015290519081900360640190fd5b6000828152600d602090815260408083206001600160a01b03871684526007019091528120546130b19083613027565b6000848152600d602090815260408083206001600160a01b03891684526007019091529020549091506131ae576000838152600d602090815260408083206001600160a01b0388168452600701909152902060020154610100900460ff1661317d576001600160a01b0384166000818152600c6020908152604080832060020180546001818101835591855283852001889055878452600d83529083206008810180549283018155845282842090910180546001600160a01b0319168517905592909152600790910190525b6000838152600d602090815260408083206001600160a01b038816845260070190915290204260019091015561324f565b6000838152600d602090815260408083206001600160a01b03881684526007019091528120600101546131e2904290612f4a565b6000858152600d602090815260408083206001600160a01b038a1684526007019091528120549192509061321c9084906125ed9085612fce565b6000868152600d602090815260408083206001600160a01b038b1684526007019091529020429190910360019091015550505b6000928352600d602090815260408085206001600160a01b03909616855260079095019052929091209190915550565b600081836132ce5760405162461bcd60e51b8152602060048201818152835160248401528351909283926044909101919085019080838360008315612da6578181015183820152602001612d8e565b5060008385816132da57fe5b0495945050505050565b82600a810192821561332c579160200282015b8281111561332c57825182546001600160a01b0319166001600160a01b039091161782556020909201916001909101906132f7565b50613338929150613404565b5090565b826002810192821561336a579160200282015b8281111561336a57825182559160200191906001019061334f565b50613338929150613423565b82805482825590600052602060002090810192821561332c579160200282018281111561332c57825182546001600160a01b0319166001600160a01b039091161782556020909201916001909101906132f7565b82805482825590600052602060002090810192821561336a579160200282018281111561336a57825182559160200191906001019061334f565b5b808211156133385780546001600160a01b0319168155600101613405565b5b80821115613338576000815560010161342456fe455243313135353a2062616c616e636520717565727920666f7220746865207a65726f20616464726573734f776e61626c653a206e6577206f776e657220697320746865207a65726f2061646472657373455243313135353a207461726765742061646472657373206d757374206265206e6f6e2d7a65726f455243313135353a2063616e6e6f742073657420617070726f76616c2073746174757320666f722073656c66455243313135353a206163636f756e747320616e6420494473206d75737420686176652073616d65206c656e67746873455243313135353a20676f7420756e6b6e6f776e2076616c75652066726f6d206f6e4552433131353542617463685265636569766564455243313135353a20736f6d65206164647265737320696e2062617463682062616c616e6365207175657279206973207a65726f536166654d6174683a206d756c7469706c69636174696f6e206f766572666c6f774f776e61626c653a2063616c6c6572206973206e6f7420746865206f776e6572455243313135353a206e656564206f70657261746f7220617070726f76616c20666f7220337264207061727479207472616e7366657273455243313135353a2049447320616e642076616c756573206d75737420686176652073616d65206c656e67746873455243313135353a20676f7420756e6b6e6f776e2076616c75652066726f6d206f6e455243313135355265636569766564a26469706673582212200a50dbf059c222f93cbae39036011d9dbeb93405f21a33462dd2fcac7e02e10f64736f6c634300070100334f776e61626c653a206e6577206f776e657220697320746865207a65726f2061646472657373",
  "immutableReferences": {},
  "source": "// SPDX-License-Identifier: GPL-3.0-or-later\npragma solidity ^0.7.1;\n\nimport './Maintenable.sol';\n\ncontract Privatizable is Maintenable {\n\n\n    /****************************\n    EXTERNAL FUNCTIONS\n    *****************************/\n\n\n    /**\n     * @dev Function to approve holder for a private token.\n     * @param id the token id\n     * @param holder The authorized address\n     */\n    function approveHolder(uint256 id, address holder) external onlyMaintener(id) {\n        _tokens[id].holders[holder].isApproved = true;\n    }\n\n\n    /**\n     * @dev Function to revoke holder for a private token.\n     * @param id the token id\n     * @param holder The authorized address\n     */\n    function revokeHolder(uint256 id, address holder) external onlyMaintener(id) {\n        _tokens[id].holders[holder].isApproved = false;\n    }\n\n\n    /****************************\n    INTERNAL FUNCTIONS\n    *****************************/\n\n\n    // override ChargeableTransfer._addToBalance()\n    function _addToBalance(address recipient, uint256 id, uint256 value) internal override {\n        require(!_tokens[id].isPrivate || _tokens[id].holders[recipient].isApproved, \"Address not approved\");\n        super._addToBalance(recipient, id, value);\n    }\n\n}\n",
  "sourcePath": "/home/ouziel/Work/StashBloxContracts/contracts/lib/Privatizable.sol",
  "compiler": {
    "name": "solc",
    "version": "0.7.1+commit.f4a555be.Emscripten.clang"
  },
  "schemaVersion": "3.2.3",
  "updatedAt": "2020-10-20T21:56:14.910Z",
  "devdoc": {
    "kind": "dev",
    "methods": {
      "approveHolder(uint256,address)": {
        "details": "Function to approve holder for a private token.",
        "params": {
          "holder": "The authorized address",
          "id": "the token id"
        }
      },
      "authorizeMaintener(uint256,address)": {
        "details": "Function to authorize an address to maintain a token.",
        "params": {
          "maintener": "The authorized address"
        }
      },
      "authorizeTokenizer(address)": {
        "details": "Function to authorize an address to create a token.",
        "params": {
          "tokenizer": "The authorized address"
        }
      },
      "balanceOf(address,uint256)": {
        "details": "Get the specified address' balance for token with specified ID. Attempting to query the zero account for a balance will result in a revert.",
        "params": {
          "account": "The address of the token holder",
          "id": "ID of the token"
        },
        "returns": {
          "_0": "The account's balance of the token type requested"
        }
      },
      "balanceOfBatch(address[],uint256[])": {
        "details": "Get the balance of multiple account/token pairs. If any of the query accounts is the zero account, this query will revert.",
        "params": {
          "accounts": "The addresses of the token holders",
          "ids": "IDs of the tokens"
        },
        "returns": {
          "_0": "Balances for each account and token id pair"
        }
      },
      "cloneToken(uint256,uint256[],uint256[])": {
        "details": "Function to mint tokens in batch.",
        "params": {
          "id": "Identifier of the template",
          "ids": "list of IDs of the tokens to be minted",
          "metadataHashes": "list of metadata file hashes"
        }
      },
      "createToken(address,uint256,uint256,uint256,uint256,uint256[3],address[],uint256[],uint256,bool,address)": {
        "details": "Function to mint an amount of a token with the given ID.",
        "params": {
          "feesRecipients": "list of addresses receiving transfer fees",
          "feesRecipientsPercentage": "list of percentage, each one for the corresponding feesRecipients",
          "id": "ID of the token to be minted",
          "isPrivate": "true if holder need approval",
          "legalAuthority": "address of the legal authority",
          "metadataHash": "Metadata file hash",
          "minHoldingForCallback": "minimum holding to propose a callback",
          "recipient": "The address that will own the minted tokens",
          "supply": "Amount of the token to be minted",
          "transactionFees": "transaction fees: [lumpSumFees (in WEI), valueProportionalFees (ratio of transfered amount * 10**8), storageFees (in storageCredit * 10**8)]"
        }
      },
      "isApprovedForAll(address,address)": {
        "params": {
          "account": "The account of the Tokens",
          "operator": "Address of authorized operator"
        },
        "returns": {
          "_0": "True if the operator is approved, false if not"
        }
      },
      "isMaintener(uint256,address)": {
        "details": "Function to check if an address is authorized to maintain a token.",
        "params": {
          "id": "the token id",
          "maintener": "The authorized address"
        },
        "returns": {
          "_0": "true if it's a maintener address"
        }
      },
      "isTokenizer(address)": {
        "details": "Function to check if an address is authorized to create a token.",
        "params": {
          "tokenizer": "The authorized address"
        }
      },
      "owner()": {
        "details": "Returns the address of the current owner."
      },
      "revokeHolder(uint256,address)": {
        "details": "Function to revoke holder for a private token.",
        "params": {
          "holder": "The authorized address",
          "id": "the token id"
        }
      },
      "revokeMaintener(uint256,address)": {
        "details": "Function to revoke the authorization to maintain a token.",
        "params": {
          "id": "the token id",
          "maintener": "The authorized address"
        }
      },
      "revokeTokenizer(address)": {
        "details": "Function to revoke the authorization to create a token.",
        "params": {
          "tokenizer": "The authorized address"
        }
      },
      "safeBatchTransferFrom(address,address,uint256[],uint256[],bytes)": {
        "details": "Transfers `values` amount(s) of `ids` from the `from` address to the `to` address specified. Caller must be approved to manage the tokens being transferred out of the `from` account. If `to` is a smart contract, will call `onERC1155BatchReceived` on `to` and act appropriately.",
        "params": {
          "data": "Data forwarded to `onERC1155Received` if `to` is a contract receiver",
          "from": "Source address",
          "ids": "IDs of each token type",
          "to": "Target address",
          "values": "Transfer amounts per token type"
        }
      },
      "safeTransferFrom(address,address,uint256,uint256,bytes)": {
        "details": "Transfers `value` amount of an `id` from the `from` address to the `to` address specified. Caller must be approved to manage the tokens being transferred out of the `from` account. If `to` is a smart contract, will call `onERC1155Received` on `to` and act appropriately.",
        "params": {
          "data": "Data forwarded to `onERC1155Received` if `to` is a contract receiver",
          "from": "Source address",
          "id": "ID of the token type",
          "to": "Target address",
          "value": "Transfer amount"
        }
      },
      "setApprovalForAll(address,bool)": {
        "details": "Sets or unsets the approval of a given operator. An operator is allowed to transfer all tokens of the sender on their behalf. Because an account already has operator privileges for itself, this function will revert if the account attempts to set the approval status for itself.",
        "params": {
          "approved": "representing the status of the approval to be set",
          "operator": "address to set the approval"
        }
      },
      "setProxyRegistryAddress(address[10])": {
        "details": "Function to update the operator whitelist",
        "params": {
          "proxyAddresses": "List of addresses"
        }
      },
      "supportsInterface(bytes4)": {
        "params": {
          "_interfaceID": "The interface identifier, as specified in ERC-165"
        },
        "returns": {
          "_0": "`true` if the contract implements `_interfaceID` and"
        }
      },
      "transactionFees(address,uint256,uint256)": {
        "details": "Function to get the transaction price to transfer tokens.",
        "params": {
          "account": "the address from where to transfer the tokens",
          "id": "The token ID",
          "value": "The amount to transfer"
        }
      },
      "transferOwnership(address)": {
        "details": "Transfers ownership of the contract to a new account (`newOwner`). Can only be called by the current owner."
      },
      "updateToken(uint256,uint256,uint256[3],address[],uint256[],uint256,bool,address)": {
        "details": "Function to update a token with the given ID.",
        "params": {
          "feesRecipients": "list of addresses receiving transfer fees",
          "feesRecipientsPercentage": "list of percentage, each one for the corresponding feesRecipients",
          "id": "ID of the token to be updated",
          "isPrivate": "true if holder need approval",
          "legalAuthority": "address of the legal authority",
          "metadataHash": "Metadata file hash",
          "minHoldingForCallback": "minimum holding to propose a callback",
          "transactionFees": "transaction fees: [lumpSumFees (in WEI), valueProportionalFees (ratio of transfered amount * 10**8), storageFees (in storageCredit * 10**8)]"
        }
      }
    },
    "version": 1
  },
  "userdoc": {
    "kind": "user",
    "methods": {
      "isApprovedForAll(address,address)": {
        "notice": "Queries the approval status of an operator for a given account."
      },
      "supportsInterface(bytes4)": {
        "notice": "Query if a contract implements an interface"
      }
    },
    "version": 1
  }
}