{
  "contractName": "Privatizable",
  "abi": [
    {
      "anonymous": false,
      "inputs": [
        {
          "indexed": true,
          "internalType": "address",
          "name": "_owner",
          "type": "address"
        },
        {
          "indexed": true,
          "internalType": "address",
          "name": "_operator",
          "type": "address"
        },
        {
          "indexed": false,
          "internalType": "bool",
          "name": "_approved",
          "type": "bool"
        }
      ],
      "name": "ApprovalForAll",
      "type": "event"
    },
    {
      "anonymous": false,
      "inputs": [
        {
          "indexed": true,
          "internalType": "address",
          "name": "previousOwner",
          "type": "address"
        },
        {
          "indexed": true,
          "internalType": "address",
          "name": "newOwner",
          "type": "address"
        }
      ],
      "name": "OwnershipTransferred",
      "type": "event"
    },
    {
      "anonymous": false,
      "inputs": [
        {
          "indexed": true,
          "internalType": "uint256",
          "name": "_id",
          "type": "uint256"
        },
        {
          "indexed": false,
          "internalType": "uint256",
          "name": "_documentHash",
          "type": "uint256"
        }
      ],
      "name": "TokenUpdated",
      "type": "event"
    },
    {
      "anonymous": false,
      "inputs": [
        {
          "indexed": true,
          "internalType": "address",
          "name": "_operator",
          "type": "address"
        },
        {
          "indexed": true,
          "internalType": "address",
          "name": "_from",
          "type": "address"
        },
        {
          "indexed": true,
          "internalType": "address",
          "name": "_to",
          "type": "address"
        },
        {
          "indexed": false,
          "internalType": "uint256[]",
          "name": "_ids",
          "type": "uint256[]"
        },
        {
          "indexed": false,
          "internalType": "uint256[]",
          "name": "_values",
          "type": "uint256[]"
        }
      ],
      "name": "TransferBatch",
      "type": "event"
    },
    {
      "anonymous": false,
      "inputs": [
        {
          "indexed": true,
          "internalType": "address",
          "name": "_operator",
          "type": "address"
        },
        {
          "indexed": true,
          "internalType": "address",
          "name": "_from",
          "type": "address"
        },
        {
          "indexed": true,
          "internalType": "address",
          "name": "_to",
          "type": "address"
        },
        {
          "indexed": false,
          "internalType": "uint256",
          "name": "_id",
          "type": "uint256"
        },
        {
          "indexed": false,
          "internalType": "uint256",
          "name": "_value",
          "type": "uint256"
        }
      ],
      "name": "TransferSingle",
      "type": "event"
    },
    {
      "anonymous": false,
      "inputs": [
        {
          "indexed": false,
          "internalType": "string",
          "name": "_value",
          "type": "string"
        },
        {
          "indexed": true,
          "internalType": "uint256",
          "name": "_id",
          "type": "uint256"
        }
      ],
      "name": "URI",
      "type": "event"
    },
    {
      "inputs": [
        {
          "internalType": "uint256",
          "name": "",
          "type": "uint256"
        }
      ],
      "name": "_callbacks",
      "outputs": [
        {
          "internalType": "uint256",
          "name": "tokenId",
          "type": "uint256"
        },
        {
          "internalType": "uint256",
          "name": "price",
          "type": "uint256"
        },
        {
          "internalType": "uint256",
          "name": "escrowedAmount",
          "type": "uint256"
        },
        {
          "internalType": "uint256",
          "name": "callCounter",
          "type": "uint256"
        },
        {
          "internalType": "uint256",
          "name": "documentHash",
          "type": "uint256"
        },
        {
          "internalType": "address",
          "name": "caller",
          "type": "address"
        },
        {
          "internalType": "bool",
          "name": "needLegalApproval",
          "type": "bool"
        },
        {
          "internalType": "bool",
          "name": "approvedByLegal",
          "type": "bool"
        },
        {
          "internalType": "bool",
          "name": "refused",
          "type": "bool"
        },
        {
          "internalType": "bool",
          "name": "accepted",
          "type": "bool"
        },
        {
          "internalType": "bool",
          "name": "completed",
          "type": "bool"
        }
      ],
      "stateMutability": "view",
      "type": "function"
    },
    {
      "inputs": [],
      "name": "_config",
      "outputs": [
        {
          "internalType": "uint256",
          "name": "callbackAutoExecuteMaxAddresses",
          "type": "uint256"
        },
        {
          "internalType": "string",
          "name": "baseURI",
          "type": "string"
        },
        {
          "internalType": "address",
          "name": "owner",
          "type": "address"
        }
      ],
      "stateMutability": "view",
      "type": "function"
    },
    {
      "inputs": [
        {
          "internalType": "uint256",
          "name": "",
          "type": "uint256"
        }
      ],
      "name": "_tokens",
      "outputs": [
        {
          "internalType": "uint256",
          "name": "supply",
          "type": "uint256"
        },
        {
          "internalType": "uint256",
          "name": "decimals",
          "type": "uint256"
        },
        {
          "internalType": "uint256",
          "name": "lumpSumTransactionFees",
          "type": "uint256"
        },
        {
          "internalType": "uint256",
          "name": "valueTransactionFees",
          "type": "uint256"
        },
        {
          "internalType": "uint256",
          "name": "minHoldingForCallback",
          "type": "uint256"
        },
        {
          "internalType": "uint256",
          "name": "metadataHash",
          "type": "uint256"
        },
        {
          "internalType": "address",
          "name": "legalAuthority",
          "type": "address"
        },
        {
          "internalType": "bool",
          "name": "isPrivate",
          "type": "bool"
        },
        {
          "internalType": "bool",
          "name": "locked",
          "type": "bool"
        }
      ],
      "stateMutability": "view",
      "type": "function"
    },
    {
      "inputs": [
        {
          "internalType": "address",
          "name": "",
          "type": "address"
        }
      ],
      "name": "_users",
      "outputs": [
        {
          "internalType": "bool",
          "name": "isTokenizer",
          "type": "bool"
        },
        {
          "internalType": "bool",
          "name": "isLocked",
          "type": "bool"
        },
        {
          "internalType": "uint256",
          "name": "ETHBalance",
          "type": "uint256"
        }
      ],
      "stateMutability": "view",
      "type": "function"
    },
    {
      "inputs": [
        {
          "internalType": "uint256",
          "name": "id",
          "type": "uint256"
        },
        {
          "internalType": "address",
          "name": "maintener",
          "type": "address"
        }
      ],
      "name": "authorizeMaintener",
      "outputs": [],
      "stateMutability": "nonpayable",
      "type": "function"
    },
    {
      "inputs": [
        {
          "internalType": "address",
          "name": "tokenizer",
          "type": "address"
        }
      ],
      "name": "authorizeTokenizer",
      "outputs": [],
      "stateMutability": "nonpayable",
      "type": "function"
    },
    {
      "inputs": [
        {
          "internalType": "address",
          "name": "account",
          "type": "address"
        },
        {
          "internalType": "uint256",
          "name": "id",
          "type": "uint256"
        }
      ],
      "name": "averageAge",
      "outputs": [
        {
          "internalType": "uint256",
          "name": "",
          "type": "uint256"
        }
      ],
      "stateMutability": "view",
      "type": "function"
    },
    {
      "inputs": [
        {
          "internalType": "address",
          "name": "account",
          "type": "address"
        },
        {
          "internalType": "uint256",
          "name": "id",
          "type": "uint256"
        }
      ],
      "name": "balanceOf",
      "outputs": [
        {
          "internalType": "uint256",
          "name": "",
          "type": "uint256"
        }
      ],
      "stateMutability": "view",
      "type": "function"
    },
    {
      "inputs": [
        {
          "internalType": "address[]",
          "name": "accounts",
          "type": "address[]"
        },
        {
          "internalType": "uint256[]",
          "name": "ids",
          "type": "uint256[]"
        }
      ],
      "name": "balanceOfBatch",
      "outputs": [
        {
          "internalType": "uint256[]",
          "name": "",
          "type": "uint256[]"
        }
      ],
      "stateMutability": "view",
      "type": "function"
    },
    {
      "inputs": [
        {
          "internalType": "uint256",
          "name": "id",
          "type": "uint256"
        },
        {
          "internalType": "uint256[]",
          "name": "ids",
          "type": "uint256[]"
        },
        {
          "internalType": "uint256[]",
          "name": "metadataHashes",
          "type": "uint256[]"
        }
      ],
      "name": "cloneToken",
      "outputs": [],
      "stateMutability": "nonpayable",
      "type": "function"
    },
    {
      "inputs": [
        {
          "internalType": "address",
          "name": "recipient",
          "type": "address"
        },
        {
          "internalType": "uint256",
          "name": "id",
          "type": "uint256"
        },
        {
          "internalType": "uint256",
          "name": "supply",
          "type": "uint256"
        },
        {
          "internalType": "uint256",
          "name": "decimals",
          "type": "uint256"
        },
        {
          "internalType": "uint256",
          "name": "metadataHash",
          "type": "uint256"
        },
        {
          "internalType": "uint256[3]",
          "name": "transactionFees",
          "type": "uint256[3]"
        },
        {
          "internalType": "address[]",
          "name": "feesRecipients",
          "type": "address[]"
        },
        {
          "internalType": "uint256[]",
          "name": "feesRecipientsPercentage",
          "type": "uint256[]"
        },
        {
          "internalType": "uint256",
          "name": "minHoldingForCallback",
          "type": "uint256"
        },
        {
          "internalType": "bool",
          "name": "isPrivate",
          "type": "bool"
        },
        {
          "internalType": "address",
          "name": "legalAuthority",
          "type": "address"
        }
      ],
      "name": "createToken",
      "outputs": [],
      "stateMutability": "nonpayable",
      "type": "function"
    },
    {
      "inputs": [
        {
          "internalType": "address",
          "name": "account",
          "type": "address"
        },
        {
          "internalType": "address",
          "name": "operator",
          "type": "address"
        }
      ],
      "name": "isApprovedForAll",
      "outputs": [
        {
          "internalType": "bool",
          "name": "",
          "type": "bool"
        }
      ],
      "stateMutability": "view",
      "type": "function"
    },
    {
      "inputs": [
        {
          "internalType": "uint256",
          "name": "id",
          "type": "uint256"
        },
        {
          "internalType": "address",
          "name": "maintener",
          "type": "address"
        }
      ],
      "name": "isMaintener",
      "outputs": [
        {
          "internalType": "bool",
          "name": "",
          "type": "bool"
        }
      ],
      "stateMutability": "view",
      "type": "function"
    },
    {
      "inputs": [
        {
          "internalType": "address",
          "name": "tokenizer",
          "type": "address"
        }
      ],
      "name": "isTokenizer",
      "outputs": [
        {
          "internalType": "bool",
          "name": "",
          "type": "bool"
        }
      ],
      "stateMutability": "view",
      "type": "function"
    },
    {
      "inputs": [
        {
          "internalType": "address",
          "name": "forwarder",
          "type": "address"
        }
      ],
      "name": "isTrustedForwarder",
      "outputs": [
        {
          "internalType": "bool",
          "name": "",
          "type": "bool"
        }
      ],
      "stateMutability": "view",
      "type": "function"
    },
    {
      "inputs": [],
      "name": "owner",
      "outputs": [
        {
          "internalType": "address",
          "name": "",
          "type": "address"
        }
      ],
      "stateMutability": "view",
      "type": "function"
    },
    {
      "inputs": [
        {
          "internalType": "uint256",
          "name": "id",
          "type": "uint256"
        },
        {
          "internalType": "address",
          "name": "maintener",
          "type": "address"
        }
      ],
      "name": "revokeMaintener",
      "outputs": [],
      "stateMutability": "nonpayable",
      "type": "function"
    },
    {
      "inputs": [
        {
          "internalType": "address",
          "name": "tokenizer",
          "type": "address"
        }
      ],
      "name": "revokeTokenizer",
      "outputs": [],
      "stateMutability": "nonpayable",
      "type": "function"
    },
    {
      "inputs": [
        {
          "internalType": "address",
          "name": "from",
          "type": "address"
        },
        {
          "internalType": "address",
          "name": "to",
          "type": "address"
        },
        {
          "internalType": "uint256[]",
          "name": "ids",
          "type": "uint256[]"
        },
        {
          "internalType": "uint256[]",
          "name": "values",
          "type": "uint256[]"
        },
        {
          "internalType": "bytes",
          "name": "data",
          "type": "bytes"
        }
      ],
      "name": "safeBatchTransferFrom",
      "outputs": [],
      "stateMutability": "payable",
      "type": "function"
    },
    {
      "inputs": [
        {
          "internalType": "address",
          "name": "from",
          "type": "address"
        },
        {
          "internalType": "address",
          "name": "to",
          "type": "address"
        },
        {
          "internalType": "uint256",
          "name": "id",
          "type": "uint256"
        },
        {
          "internalType": "uint256",
          "name": "value",
          "type": "uint256"
        },
        {
          "internalType": "bytes",
          "name": "data",
          "type": "bytes"
        }
      ],
      "name": "safeTransferFrom",
      "outputs": [],
      "stateMutability": "payable",
      "type": "function"
    },
    {
      "inputs": [
        {
          "internalType": "address",
          "name": "operator",
          "type": "address"
        },
        {
          "internalType": "bool",
          "name": "approved",
          "type": "bool"
        }
      ],
      "name": "setApprovalForAll",
      "outputs": [],
      "stateMutability": "nonpayable",
      "type": "function"
    },
    {
      "inputs": [
        {
          "internalType": "address[10]",
          "name": "proxyAddresses",
          "type": "address[10]"
        }
      ],
      "name": "setProxyRegistryAddress",
      "outputs": [],
      "stateMutability": "nonpayable",
      "type": "function"
    },
    {
      "inputs": [
        {
          "internalType": "bytes4",
          "name": "_interfaceID",
          "type": "bytes4"
        }
      ],
      "name": "supportsInterface",
      "outputs": [
        {
          "internalType": "bool",
          "name": "",
          "type": "bool"
        }
      ],
      "stateMutability": "pure",
      "type": "function"
    },
    {
      "inputs": [
        {
          "internalType": "address",
          "name": "account",
          "type": "address"
        },
        {
          "internalType": "uint256",
          "name": "id",
          "type": "uint256"
        },
        {
          "internalType": "uint256",
          "name": "value",
          "type": "uint256"
        }
      ],
      "name": "transactionFees",
      "outputs": [
        {
          "internalType": "uint256",
          "name": "",
          "type": "uint256"
        }
      ],
      "stateMutability": "view",
      "type": "function"
    },
    {
      "inputs": [
        {
          "internalType": "address",
          "name": "newOwner",
          "type": "address"
        }
      ],
      "name": "transferOwnership",
      "outputs": [],
      "stateMutability": "nonpayable",
      "type": "function"
    },
    {
      "inputs": [],
      "name": "trustedForwarder",
      "outputs": [
        {
          "internalType": "address",
          "name": "",
          "type": "address"
        }
      ],
      "stateMutability": "view",
      "type": "function"
    },
    {
      "inputs": [
        {
          "internalType": "uint256",
          "name": "id",
          "type": "uint256"
        },
        {
          "internalType": "uint256",
          "name": "metadataHash",
          "type": "uint256"
        },
        {
          "internalType": "uint256[3]",
          "name": "transactionFees",
          "type": "uint256[3]"
        },
        {
          "internalType": "address[]",
          "name": "feesRecipients",
          "type": "address[]"
        },
        {
          "internalType": "uint256[]",
          "name": "feesRecipientsPercentage",
          "type": "uint256[]"
        },
        {
          "internalType": "uint256",
          "name": "minHoldingForCallback",
          "type": "uint256"
        },
        {
          "internalType": "bool",
          "name": "isPrivate",
          "type": "bool"
        },
        {
          "internalType": "address",
          "name": "legalAuthority",
          "type": "address"
        }
      ],
      "name": "updateToken",
      "outputs": [],
      "stateMutability": "nonpayable",
      "type": "function"
    },
    {
      "inputs": [
        {
          "internalType": "uint256",
          "name": "id",
          "type": "uint256"
        }
      ],
      "name": "uri",
      "outputs": [
        {
          "internalType": "string",
          "name": "",
          "type": "string"
        }
      ],
      "stateMutability": "view",
      "type": "function"
    },
    {
      "inputs": [],
      "name": "versionRecipient",
      "outputs": [
        {
          "internalType": "string",
          "name": "",
          "type": "string"
        }
      ],
      "stateMutability": "view",
      "type": "function"
    },
    {
      "inputs": [
        {
          "internalType": "uint256",
          "name": "id",
          "type": "uint256"
        },
        {
          "internalType": "address",
          "name": "holder",
          "type": "address"
        }
      ],
      "name": "approveHolder",
      "outputs": [],
      "stateMutability": "nonpayable",
      "type": "function"
    },
    {
      "inputs": [
        {
          "internalType": "uint256",
          "name": "id",
          "type": "uint256"
        },
        {
          "internalType": "address",
          "name": "holder",
          "type": "address"
        }
      ],
      "name": "revokeHolder",
      "outputs": [],
      "stateMutability": "nonpayable",
      "type": "function"
    }
  ],
  "bytecode": "0x60c0604052601760808190527f312e302e302b6f70656e67736e2e7374617368626c6f7800000000000000000060a090815262000040916001919062000170565b503480156200004e57600080fd5b50620000636200005d62000069565b6200009f565b6200020c565b60006018361080159062000083575062000083336200015c565b1562000099575060131936013560601c6200009c565b50335b90565b6001600160a01b03811662000100576040517f08c379a000000000000000000000000000000000000000000000000000000000815260040180806020018281038252602681526020018062003ec16026913960400191505060405180910390fd5b600e546040516001600160a01b038084169216907f8be0079c531659141344cd1fd0a4f28419497f9722a3daafe3b4186f6b6457e090600090a3600e80546001600160a01b0319166001600160a01b0392909216919091179055565b6000546001600160a01b0390811691161490565b828054600181600116156101000203166002900490600052602060002090601f016020900481019282601f10620001b357805160ff1916838001178555620001e3565b82800160010185558215620001e3579182015b82811115620001e3578251825591602001919060010190620001c6565b50620001f1929150620001f5565b5090565b5b80821115620001f15760008155600101620001f6565b613ca5806200021c6000396000f3fe6080604052600436106101d75760003560e01c8063759c521411610102578063c40b87ae11610095578063ed70554d11610064578063ed70554d14610df2578063f242432a14610e70578063f2fde38b14610f03578063f8a5a07c14610f36576101d7565b8063c40b87ae14610ba2578063d1660e1814610d3f578063d41d0aa314610d7e578063e985e9c514610db7576101d7565b80638aeba37e116100d15780638aeba37e14610ae65780638da5cb5b14610b1f578063a22cb46514610b34578063c02f303c14610b6f576101d7565b8063759c521414610a165780637627b73214610a4f5780637da0a87714610a825780638870147b14610ab3576101d7565b80634392e5771161017a578063572b6c0511610149578063572b6c0514610938578063585941d51461096b5780635dafec1b146109a45780635dd2b9a6146109dd576101d7565b80634392e577146105c0578063486ff0cd146106215780634ab0d253146106365780634e1273f4146107b8576101d7565b80632eb2c2d6116101b65780632eb2c2d61461030e5780632ed42bf7146104375780633cacd7d6146104db578063414ed0ce1461052e576101d7565b8062fdd58e146101dc57806301ffc9a7146102275780630e89341c1461026f575b600080fd5b3480156101e857600080fd5b50610215600480360360408110156101ff57600080fd5b506001600160a01b03813516906020013561106d565b60408051918252519081900360200190f35b34801561023357600080fd5b5061025b6004803603602081101561024a57600080fd5b50356001600160e01b0319166110e2565b604080519115158252519081900360200190f35b34801561027b57600080fd5b506102996004803603602081101561029257600080fd5b5035611129565b6040805160208082528351818301528351919283929083019185019080838360005b838110156102d35781810151838201526020016102bb565b50505050905090810190601f1680156103005780820380516001836020036101000a031916815260200191505b509250505060405180910390f35b610435600480360360a081101561032457600080fd5b6001600160a01b038235811692602081013590911691810190606081016040820135600160201b81111561035757600080fd5b82018360208201111561036957600080fd5b803590602001918460208302840111600160201b8311171561038a57600080fd5b919390929091602081019035600160201b8111156103a757600080fd5b8201836020820111156103b957600080fd5b803590602001918460208302840111600160201b831117156103da57600080fd5b919390929091602081019035600160201b8111156103f757600080fd5b82018360208201111561040957600080fd5b803590602001918460018302840111600160201b8311171561042a57600080fd5b5090925090506111cb565b005b34801561044357600080fd5b5061044c61149e565b6040518084815260200180602001836001600160a01b03168152602001828103825284818151815260200191508051906020019080838360005b8381101561049e578181015183820152602001610486565b50505050905090810190601f1680156104cb5780820380516001836020036101000a031916815260200191505b5094505050505060405180910390f35b3480156104e757600080fd5b5061050e600480360360208110156104fe57600080fd5b50356001600160a01b0316611541565b604080519315158452911515602084015282820152519081900360600190f35b34801561053a57600080fd5b506105586004803603602081101561055157600080fd5b5035611567565b604080519b8c5260208c019a909a528a8a019890985260608a019690965260808901949094526001600160a01b0390921660a0880152151560c0870152151560e086015215156101008501521515610120840152151561014083015251908190036101600190f35b3480156105cc57600080fd5b5061043560048036036101408110156105e457600080fd5b81019080806101400190600a806020026040519081016040528092919082600a602002808284376000920191909152509194506115da9350505050565b34801561062d57600080fd5b50610299611632565b34801561064257600080fd5b50610435600480360361014081101561065a57600080fd5b6040805160608181018352843594602081013594810193909260a08401929091840190600390839083908082843760009201919091525091949392602081019250359050600160201b8111156106af57600080fd5b8201836020820111156106c157600080fd5b803590602001918460208302840111600160201b831117156106e257600080fd5b9190808060200260200160405190810160405280939291908181526020018383602002808284376000920191909152509295949360208101935035915050600160201b81111561073157600080fd5b82018360208201111561074357600080fd5b803590602001918460208302840111600160201b8311171561076457600080fd5b919080806020026020016040519081016040528093929190818152602001838360200280828437600092019190915250929550508235935050506020810135151590604001356001600160a01b03166116bf565b3480156107c457600080fd5b506108e8600480360360408110156107db57600080fd5b810190602081018135600160201b8111156107f557600080fd5b82018360208201111561080757600080fd5b803590602001918460208302840111600160201b8311171561082857600080fd5b9190808060200260200160405190810160405280939291908181526020018383602002808284376000920191909152509295949360208101935035915050600160201b81111561087757600080fd5b82018360208201111561088957600080fd5b803590602001918460208302840111600160201b831117156108aa57600080fd5b9190808060200260200160405190810160405280939291908181526020018383602002808284376000920191909152509295506117bd945050505050565b60408051602080825283518183015283519192839290830191858101910280838360005b8381101561092457818101518382015260200161090c565b505050509050019250505060405180910390f35b34801561094457600080fd5b5061025b6004803603602081101561095b57600080fd5b50356001600160a01b0316611941565b34801561097757600080fd5b506102156004803603604081101561098e57600080fd5b506001600160a01b038135169060200135611955565b3480156109b057600080fd5b5061025b600480360360408110156109c757600080fd5b50803590602001356001600160a01b0316611990565b3480156109e957600080fd5b5061043560048036036040811015610a0057600080fd5b50803590602001356001600160a01b031661199c565b348015610a2257600080fd5b5061043560048036036040811015610a3957600080fd5b50803590602001356001600160a01b0316611a30565b348015610a5b57600080fd5b5061043560048036036020811015610a7257600080fd5b50356001600160a01b0316611abf565b348015610a8e57600080fd5b50610a97611b2a565b604080516001600160a01b039092168252519081900360200190f35b348015610abf57600080fd5b5061043560048036036020811015610ad657600080fd5b50356001600160a01b0316611b39565b348015610af257600080fd5b5061043560048036036040811015610b0957600080fd5b50803590602001356001600160a01b0316611ba1565b348015610b2b57600080fd5b50610a97611c1f565b348015610b4057600080fd5b5061043560048036036040811015610b5757600080fd5b506001600160a01b0381351690602001351515611c2f565b348015610b7b57600080fd5b5061025b60048036036020811015610b9257600080fd5b50356001600160a01b0316611d22565b348015610bae57600080fd5b5061043560048036036101a0811015610bc657600080fd5b60408051606081810183526001600160a01b03853516946020810135949381013593828201359360808301359391830192916101008301919060a0840190600390839083908082843760009201919091525091949392602081019250359050600160201b811115610c3657600080fd5b820183602082011115610c4857600080fd5b803590602001918460208302840111600160201b83111715610c6957600080fd5b9190808060200260200160405190810160405280939291908181526020018383602002808284376000920191909152509295949360208101935035915050600160201b811115610cb857600080fd5b820183602082011115610cca57600080fd5b803590602001918460208302840111600160201b83111715610ceb57600080fd5b919080806020026020016040519081016040528093929190818152602001838360200280828437600092019190915250929550508235935050506020810135151590604001356001600160a01b0316611d2d565b348015610d4b57600080fd5b5061021560048036036060811015610d6257600080fd5b506001600160a01b038135169060208101359060400135611e04565b348015610d8a57600080fd5b5061043560048036036040811015610da157600080fd5b50803590602001356001600160a01b0316611e19565b348015610dc357600080fd5b5061025b60048036036040811015610dda57600080fd5b506001600160a01b0381358116916020013516611e94565b348015610dfe57600080fd5b50610e1c60048036036020811015610e1557600080fd5b5035611ea0565b60408051998a5260208a0198909852888801969096526060880194909452608087019290925260a08601526001600160a01b031660c0850152151560e0840152151561010083015251908190036101200190f35b610435600480360360a0811015610e8657600080fd5b6001600160a01b03823581169260208101359091169160408201359160608101359181019060a081016080820135600160201b811115610ec557600080fd5b820183602082011115610ed757600080fd5b803590602001918460018302840111600160201b83111715610ef857600080fd5b509092509050611efc565b348015610f0f57600080fd5b5061043560048036036020811015610f2657600080fd5b50356001600160a01b0316612073565b348015610f4257600080fd5b5061043560048036036060811015610f5957600080fd5b81359190810190604081016020820135600160201b811115610f7a57600080fd5b820183602082011115610f8c57600080fd5b803590602001918460208302840111600160201b83111715610fad57600080fd5b9190808060200260200160405190810160405280939291908181526020018383602002808284376000920191909152509295949360208101935035915050600160201b811115610ffc57600080fd5b82018360208201111561100e57600080fd5b803590602001918460208302840111600160201b8311171561102f57600080fd5b9190808060200260200160405190810160405280939291908181526020018383602002808284376000920191909152509295506120c6945050505050565b60006001600160a01b0383166110b45760405162461bcd60e51b815260040180806020018281038252602b815260200180613a5a602b913960400191505060405180910390fd5b5060008181526010602090815260408083206001600160a01b03861684526007019091529020545b92915050565b60006001600160e01b031982166301ffc9a760e01b148061111357506001600160e01b03198216636cdb3d1360e11b145b1561112057506001611124565b5060005b919050565b6003805460408051602060026001851615610100026000190190941693909304601f81018490048402820184019092528181526060936110dc93919290918301828280156111b85780601f1061118d576101008083540402835291602001916111b8565b820191906000526020600020905b81548152906001019060200180831161119b57829003601f168201915b50505050506111c684612274565b612330565b8483146112095760405162461bcd60e51b815260040180806020018281038252602e815260200180613c11602e913960400191505060405180910390fd5b6001600160a01b03871661124e5760405162461bcd60e51b8152600401808060200182810382526028815260200180613aab6028913960400191505060405180910390fd5b61125661243a565b6001600160a01b0316886001600160a01b0316148061128757506112818861127c61243a565b611e94565b15156001145b6112c25760405162461bcd60e51b8152600401808060200182810382526037815260200180613bda6037913960400191505060405180910390fd5b611331888888888080602002602001604051908101604052809392919081815260200183836020028082843760009201919091525050604080516020808c0282810182019093528b82529093508b92508a91829185019084908082843760009201919091525061246c92505050565b866001600160a01b0316886001600160a01b031661134d61243a565b6001600160a01b03167f4a39dc06d4c0dbc64b70af90fd698a233a518aa5d07e595d983b8c0526c8f7fb898989896040518080602001806020018381038352878782818152602001925060200280828437600083820152601f01601f19169091018481038352858152602090810191508690860280828437600083820152604051601f909101601f19169092018290039850909650505050505050a46114946113f461243a565b898989898080602002602001604051908101604052809392919081815260200183836020028082843760009201919091525050604080516020808d0282810182019093528c82529093508c92508b91829185019084908082843760009201919091525050604080516020601f8c018190048102820181019092528a815292508a915089908190840183828082843760009201919091525061252692505050565b5050505050505050565b600280546003805460408051602060018416156101000260001901909316869004601f810184900484028201840190925281815293949392918301828280156115285780601f106114fd57610100808354040283529160200191611528565b820191906000526020600020905b81548152906001019060200180831161150b57829003601f168201915b505050600c90930154919250506001600160a01b031683565b600f602052600090815260409020805460019091015460ff808316926101009004169083565b60116020526000908152604090208054600182015460028301546003840154600485015460059095015493949293919290916001600160a01b0381169060ff600160a01b8204811691600160a81b8104821691600160b01b8204811691600160b81b8104821691600160c01b909104168b565b6115e2612717565b611621576040805162461bcd60e51b81526020600482018190526024820152600080516020613bba833981519152604482015290519081900360640190fd5b61162e600482600a613905565b5050565b60018054604080516020600284861615610100026000190190941693909304601f810184900484028201840190925281815292918301828280156116b75780601f1061168c576101008083540402835291602001916116b7565b820191906000526020600020905b81548152906001019060200180831161169a57829003601f168201915b505050505081565b876116d1816116cc61243a565b61273d565b61171c576040805162461bcd60e51b815260206004820152601760248201527624b739bab33334b1b4b2b73a103832b936b4b9b9b4b7b760491b604482015290519081900360640190fd5b60008981526010602052604090205461176c576040805162461bcd60e51b815260206004820152600d60248201526c2ab735b737bbb7103a37b5b2b760991b604482015290519081900360640190fd5b61177c8989898989898989612777565b6040805189815290518a917f199acc06cd2556bbc146fa3cb578799037dffcbf256eca32aaf2ef656925d2fd919081900360200190a2505050505050505050565b606081518351146117ff5760405162461bcd60e51b8152600401808060200182810382526030815260200180613aff6030913960400191505060405180910390fd5b6060835167ffffffffffffffff8111801561181957600080fd5b50604051908082528060200260200182016040528015611843578160200160208202803683370190505b50905060005b84518110156119395760006001600160a01b031685828151811061186957fe5b60200260200101516001600160a01b031614156118b75760405162461bcd60e51b8152600401808060200182810382526034815260200180613b656034913960400191505060405180910390fd5b601060008583815181106118c757fe5b6020026020010151815260200190815260200160002060070160008683815181106118ee57fe5b60200260200101516001600160a01b03166001600160a01b031681526020019081526020016000206000015482828151811061192657fe5b6020908102919091010152600101611849565b509392505050565b6000546001600160a01b0390811691161490565b60008181526010602090815260408083206001600160a01b038616845260070190915281206001015461198990429061291b565b9392505050565b6000611989838361273d565b816119a9816116cc61243a565b6119f4576040805162461bcd60e51b815260206004820152601760248201527624b739bab33334b1b4b2b73a103832b936b4b9b9b4b7b760491b604482015290519081900360640190fd5b5060009182526010602090815260408084206001600160a01b039093168452600790920190529020600201805462ff0000191662010000179055565b81611a3d816116cc61243a565b611a88576040805162461bcd60e51b815260206004820152601760248201527624b739bab33334b1b4b2b73a103832b936b4b9b9b4b7b760491b604482015290519081900360640190fd5b5060009182526010602090815260408084206001600160a01b039093168452600790920190529020600201805462ff000019169055565b611ac7612717565b611b06576040805162461bcd60e51b81526020600482018190526024820152600080516020613bba833981519152604482015290519081900360640190fd5b6001600160a01b03166000908152600f60205260409020805460ff19166001179055565b6000546001600160a01b031681565b611b41612717565b611b80576040805162461bcd60e51b81526020600482018190526024820152600080516020613bba833981519152604482015290519081900360640190fd5b6001600160a01b03166000908152600f60205260409020805460ff19169055565b611ba9612717565b611be8576040805162461bcd60e51b81526020600482018190526024820152600080516020613bba833981519152604482015290519081900360640190fd5b60009182526010602090815260408084206001600160a01b039093168452600790920190529020600201805460ff19166001179055565b600e546001600160a01b03165b90565b816001600160a01b0316611c4161243a565b6001600160a01b03161415611c875760405162461bcd60e51b815260040180806020018281038252602c815260200180613ad3602c913960400191505060405180910390fd5b80600f6000611c9461243a565b6001600160a01b0390811682526020808301939093526040918201600090812091871680825260039092019093529120805460ff191692151592909217909155611cdc61243a565b6001600160a01b03167f17307eab39ab6107e8899845ad3d59bd9653f200f220920489ca2b5937696c318360405180821515815260200191505060405180910390a35050565b60006110dc8261295d565b611d3d611d3861243a565b61295d565b611d88576040805162461bcd60e51b815260206004820152601760248201527624b739bab33334b1b4b2b73a103832b936b4b9b9b4b7b760491b604482015290519081900360640190fd5b611d9b8b8b8b8b8b8b8b8b8b8b8b612987565b6001600160a01b038b166000611daf61243a565b6001600160a01b03167fc3d58168c5ae7397731d063d5bbf3d657854427343f4c083240f7aacaa2d0f628d8d604051808381526020018281526020019250505060405180910390a45050505050505050505050565b6000611e11848484612ac7565b949350505050565b611e21612717565b611e60576040805162461bcd60e51b81526020600482018190526024820152600080516020613bba833981519152604482015290519081900360640190fd5b60009182526010602090815260408084206001600160a01b039093168452600790920190529020600201805460ff19169055565b60006119898383612caf565b601060205260009081526040902080546001820154600283015460038401546004850154600586015460069096015494959394929391929091906001600160a01b0381169060ff600160a01b8204811691600160a81b90041689565b6001600160a01b038516611f415760405162461bcd60e51b8152600401808060200182810382526028815260200180613aab6028913960400191505060405180910390fd5b611f4961243a565b6001600160a01b0316866001600160a01b03161480611f755750611f6f8661127c61243a565b15156001145b611fb05760405162461bcd60e51b8152600401808060200182810382526037815260200180613bda6037913960400191505060405180910390fd5b611fbc86868686612cf4565b846001600160a01b0316866001600160a01b0316611fd861243a565b6001600160a01b03167fc3d58168c5ae7397731d063d5bbf3d657854427343f4c083240f7aacaa2d0f628787604051808381526020018281526020019250505060405180910390a461206b61202b61243a565b8787878787878080601f016020809104026020016040519081016040528093929190818152602001838380828437600092019190915250612d6c92505050565b505050505050565b61207b612717565b6120ba576040805162461bcd60e51b81526020600482018190526024820152600080516020613bba833981519152604482015290519081900360640190fd5b6120c381612ee1565b50565b6120d1611d3861243a565b61211c576040805162461bcd60e51b815260206004820152601760248201527624b739bab33334b1b4b2b73a103832b936b4b9b9b4b7b760491b604482015290519081900360640190fd5b6000838152601060205260409020541580159061213a575080518251145b61217f576040805162461bcd60e51b8152602060048201526011602482015270496e76616c696420617267756d656e747360781b604482015290519081900360640190fd5b60005b825181101561226e576121bc8484838151811061219b57fe5b60200260200101518484815181106121af57fe5b6020026020010151612f82565b600084815260106020526040812060080180549091906121d857fe5b60009182526020822001546001600160a01b0316906121f561243a565b6001600160a01b03167fc3d58168c5ae7397731d063d5bbf3d657854427343f4c083240f7aacaa2d0f6286858151811061222b57fe5b6020026020010151601060008a815260200190815260200160002060000154604051808381526020018281526020019250505060405180910390a4600101612182565b50505050565b60606000825b801561229057600191909101906010900461227a565b60608267ffffffffffffffff811180156122a957600080fd5b506040519080825280601f01601f1916602001820160405280156122d4576020820181803683370190505b50905060005b83811015612327576010860692506122f183613124565b826001838703038151811061230257fe5b60200101906001600160f81b031916908160001a9053506010860495506001016122da565b50949350505050565b805182516060918491849184910167ffffffffffffffff8111801561235457600080fd5b506040519080825280601f01601f19166020018201604052801561237f576020820181803683370190505b509050806000805b85518110156123d85785818151811061239c57fe5b602001015160f81c60f81b8383806001019450815181106123b957fe5b60200101906001600160f81b031916908160001a905350600101612387565b5060005b845181101561242d578481815181106123f157fe5b602001015160f81c60f81b83838060010194508151811061240e57fe5b60200101906001600160f81b031916908160001a9053506001016123dc565b5090979650505050505050565b600060183610801590612451575061245133611941565b15612465575060131936013560601c611c2c565b5033611c2c565b6000803411612496576001600160a01b0385166000908152600f6020526040902060010154612498565b345b905060005b83518110156125145761250a6124db87878785815181106124ba57fe5b60200260200101518786815181106124ce57fe5b6020026020010151613168565b60408051808201909152601081526f092dce6eaccccd2c6d2cadce8408aa8960831b60208201528491906132bc565b915060010161249d565b5061251f8582613353565b5050505050565b612538846001600160a01b03166133d4565b1561206b5763bc197c8160e01b6001600160e01b031916846001600160a01b031663bc197c8188888787876040518663ffffffff1660e01b815260040180866001600160a01b03168152602001856001600160a01b03168152602001806020018060200180602001848103845287818151815260200191508051906020019060200280838360005b838110156125d85781810151838201526020016125c0565b50505050905001848103835286818151815260200191508051906020019060200280838360005b838110156126175781810151838201526020016125ff565b50505050905001848103825285818151815260200191508051906020019080838360005b8381101561265357818101518382015260200161263b565b50505050905090810190601f1680156126805780820380516001836020036101000a031916815260200191505b5098505050505050505050602060405180830381600087803b1580156126a557600080fd5b505af11580156126b9573d6000803e3d6000fd5b505050506040513d60208110156126cf57600080fd5b50516001600160e01b0319161461206b5760405162461bcd60e51b8152600401808060200182810382526036815260200180613b2f6036913960400191505060405180910390fd5b600e546000906001600160a01b031661272e61243a565b6001600160a01b031614905090565b60008281526010602090815260408083206001600160a01b038516845260070190915281206002015460ff16806119895750611989612717565b6000805b85518110156127a75785818151811061279057fe5b60200260200101518201915080600101905061277b565b50600086511180156127b7575060015b80156127c4575080612710145b80156127d1575061271084105b612816576040805162461bcd60e51b8152602060048201526011602482015270496e76616c696420617267756d656e747360781b604482015290519081900360640190fd5b6000898152601060209081526040808320600581018c90558a516002808301919091558b840151600383015582518084018452428152928c015183850152600b90910180546001810182559085529290932061287693928302019161395d565b506000898152601060209081526040909120875161289c92600990920191890190613997565b50600089815260106020908152604090912086516128c292600a909201918801906139eb565b505060009788526010602052604090972060048101929092556006909101805460ff60a01b1916600160a01b92151592909202919091176001600160a01b0319166001600160a01b039096169590951790945550505050565b600061198983836040518060400160405280601e81526020017f536166654d6174683a207375627472616374696f6e206f766572666c6f7700008152506132bc565b6001600160a01b0381166000908152600f602052604081205460ff16806110dc57506110dc612717565b60008a8152601060205260409020541580156129a35750600089115b6129e8576040805162461bcd60e51b8152602060048201526011602482015270496e76616c696420617267756d656e747360781b604482015290519081900360640190fd5b60008a81526010602052604081208a815560018082018b905591600790910190612a1061243a565b6001600160a01b03166001600160a01b0316815260200190815260200160002060020160006101000a81548160ff0219169083151502179055506001601060008c815260200190815260200160002060070160008d6001600160a01b03166001600160a01b0316815260200190815260200160002060020160026101000a81548160ff021916908315150217905550612aaf8a88888888888888612777565b612aba8b8b8b61340b565b5050505050505050505050565b6000828152601060205260408120600b015481904290600019015b6000868152601060205260408120600b01805483908110612aff57fe5b60009182526020822060029091020101546000888152601060205260408120600b018054929350909184908110612b3257fe5b9060005260206000209060020201600160028110612b4c57fe5b015460008981526010602090815260408083206001600160a01b038e168452600701909152812060010154919250908311612bef5760008981526010602090815260408083206001600160a01b038e168452600701909152902060010154612bc4906201518090612bbe90889061291b565b906134b4565b905080612bcf575060015b612be388612bdd83856134f6565b906134f6565b86019550505050612c2e565b612c0062015180612bbe878661291b565b905080612c0b575060015b9193508391612c1e88612bdd83856134f6565b9095019450505060001901612ae2565b50600085815260106020526040902060010154612c4f908390600a0a6134b4565b60008681526010602052604081206003015491935090612c7a906305f5e10090612bbe9088906134f6565b600087815260106020526040902060020154909150612ca490612c9d908361354f565b849061354f565b979650505050505050565b6000612cbb83836135a9565b806119895750506001600160a01b039182166000908152600f602090815260408083209390941682526003909201909152205460ff1690565b6000803411612d1e576001600160a01b0385166000908152600f6020526040902060010154612d20565b345b9050612d60612d3186868686613168565b60408051808201909152601081526f092dce6eaccccd2c6d2cadce8408aa8960831b60208201528391906132bc565b905061251f8582613353565b612d7e846001600160a01b03166133d4565b1561206b5763f23a6e6160e01b6001600160e01b031916846001600160a01b031663f23a6e6188888787876040518663ffffffff1660e01b815260040180866001600160a01b03168152602001856001600160a01b0316815260200184815260200183815260200180602001828103825283818151815260200191508051906020019080838360005b83811015612e1f578181015183820152602001612e07565b50505050905090810190601f168015612e4c5780820380516001836020036101000a031916815260200191505b509650505050505050602060405180830381600087803b158015612e6f57600080fd5b505af1158015612e83573d6000803e3d6000fd5b505050506040513d6020811015612e9957600080fd5b50516001600160e01b0319161461206b5760405162461bcd60e51b8152600401808060200182810382526031815260200180613c3f6031913960400191505060405180910390fd5b6001600160a01b038116612f265760405162461bcd60e51b8152600401808060200182810382526026815260200180613a856026913960400191505060405180910390fd5b600e546040516001600160a01b038084169216907f8be0079c531659141344cd1fd0a4f28419497f9722a3daafe3b4186f6b6457e090600090a3600e80546001600160a01b0319166001600160a01b0392909216919091179055565b6000838152601060205260408120600801805461311f9290612fa057fe5b600091825260208083209091015486835260108083526040808520805460018201548351606081018552600284015481526003840154818901528c895294909652600b90910180546001600160a01b03909516968a96929592948a94909390840192919061300a57fe5b906000526020600020906002020160016002811061302457fe5b0154905260008a8152601060209081526040918290206009018054835181840281018401909452808452909183018282801561308957602002820191906000526020600020905b81546001600160a01b0316815260019091019060200180831161306b575b50505060008d815260106020908152604091829020600a01805483518184028101840190945280845292945092508301828280156130e657602002820191906000526020600020905b8154815260200190600101908083116130d2575b50505060008e8152601060205260409020600481015460069091015490925060ff600160a01b82041691506001600160a01b0316612987565b505050565b600060098260ff161161313e57506030810160f81b611124565b8160ff16600a111580156131565750600f8260ff1611155b156101d757506057810160f81b611124565b6040805180820182526014815273496e73756666696369656e742062616c616e636560601b6020808301919091526000858152601082528381206001600160a01b0389168252600701909152918220546131c39184906132bc565b60008481526010602090815260408083206001600160a01b038a1684526007019091529020556131f484848461340b565b6131ff858484612ac7565b905060005b60008481526010602052604090206009015481101561232757600084815260106020526040812060090180548390811061323a57fe5b6000918252602080832090910154878352601090915260408220600a0180546001600160a01b039092169350908490811061327157fe5b600091825260209091200154905061328f612710612bbe86846134f6565b6001600160a01b039092166000908152600f60205260409020600190810180549093019092555001613204565b6000818484111561334b5760405162461bcd60e51b81526004018080602001828103825283818151815260200191508051906020019080838360005b838110156133105781810151838201526020016132f8565b50505050905090810190601f16801561333d5780820380516001836020036101000a031916815260200191505b509250505060405180910390fd5b505050900390565b6000341180156133635750600081115b156133af576001600160a01b0382166000908152600f602052604090206001015461338e908261354f565b6001600160a01b0383166000908152600f602052604090206001015561162e565b3461162e576001600160a01b03919091166000908152600f6020526040902060010155565b6000813f7fc5d2460186f7233c927e7db2dcc703c0e500b653ca82273b7bfad8045d85a4708115801590611e115750141592915050565b600082815260106020526040902060060154600160a01b900460ff161580613461575060008281526010602090815260408083206001600160a01b038716845260070190915290206002015462010000900460ff165b6134a9576040805162461bcd60e51b81526020600482015260146024820152731059191c995cdcc81b9bdd08185c1c1c9bdd995960621b604482015290519081900360640190fd5b61311f838383613690565b600061198983836040518060400160405280601a81526020017f536166654d6174683a206469766973696f6e206279207a65726f0000000000008152506138a0565b600082613505575060006110dc565b8282028284828161351257fe5b04146119895760405162461bcd60e51b8152600401808060200182810382526021815260200180613b996021913960400191505060405180910390fd5b600082820183811015611989576040805162461bcd60e51b815260206004820152601b60248201527f536166654d6174683a206164646974696f6e206f766572666c6f770000000000604482015290519081900360640190fd5b6000805b600a811015613686576000600482600a81106135c557fe5b01546001600160a01b03161461367e576000600482600a81106135e457fe5b01546040805163c455279160e01b81526001600160a01b0388811660048301529151928216935090861691839163c4552791916024808301926020929190829003018186803b15801561363657600080fd5b505afa15801561364a573d6000803e3d6000fd5b505050506040513d602081101561366057600080fd5b50516001600160a01b0316141561367c576001925050506110dc565b505b6001016135ad565b5060009392505050565b60008281526010602090815260408083206001600160a01b03871684526007019091528120546136c0908361354f565b60008481526010602090815260408083206001600160a01b03891684526007019091529020549091506137cf5760008381526010602090815260408083206001600160a01b0388168452600701909152902060020154610100900460ff1661379e576001600160a01b0384166000818152600f60209081526040808320600290810180546001818101835591865284862001899055888552601084528285206008810180549283018155865284862090910180546001600160a01b031916871790559484526007909401909152902001805461ff0019166101001790555b60008381526010602090815260408083206001600160a01b0388168452600701909152902042600190910155613870565b60008381526010602090815260408083206001600160a01b038816845260070190915281206001015461380390429061291b565b60008581526010602090815260408083206001600160a01b038a1684526007019091528120549192509061383d908490612bbe90856134f6565b60008681526010602090815260408083206001600160a01b038b1684526007019091529020429190910360019091015550505b60009283526010602090815260408085206001600160a01b03909616855260079095019052929091209190915550565b600081836138ef5760405162461bcd60e51b81526020600482018181528351602484015283519092839260449091019190850190808383600083156133105781810151838201526020016132f8565b5060008385816138fb57fe5b0495945050505050565b82600a810192821561394d579160200282015b8281111561394d57825182546001600160a01b0319166001600160a01b03909116178255602090920191600190910190613918565b50613959929150613a25565b5090565b826002810192821561398b579160200282015b8281111561398b578251825591602001919060010190613970565b50613959929150613a44565b82805482825590600052602060002090810192821561394d579160200282018281111561394d57825182546001600160a01b0319166001600160a01b03909116178255602090920191600190910190613918565b82805482825590600052602060002090810192821561398b579160200282018281111561398b578251825591602001919060010190613970565b5b808211156139595780546001600160a01b0319168155600101613a26565b5b808211156139595760008155600101613a4556fe455243313135353a2062616c616e636520717565727920666f7220746865207a65726f20616464726573734f776e61626c653a206e6577206f776e657220697320746865207a65726f2061646472657373455243313135353a207461726765742061646472657373206d757374206265206e6f6e2d7a65726f455243313135353a2063616e6e6f742073657420617070726f76616c2073746174757320666f722073656c66455243313135353a206163636f756e747320616e6420494473206d75737420686176652073616d65206c656e67746873455243313135353a20676f7420756e6b6e6f776e2076616c75652066726f6d206f6e4552433131353542617463685265636569766564455243313135353a20736f6d65206164647265737320696e2062617463682062616c616e6365207175657279206973207a65726f536166654d6174683a206d756c7469706c69636174696f6e206f766572666c6f774f776e61626c653a2063616c6c6572206973206e6f7420746865206f776e6572455243313135353a206e656564206f70657261746f7220617070726f76616c20666f7220337264207061727479207472616e7366657273455243313135353a2049447320616e642076616c756573206d75737420686176652073616d65206c656e67746873455243313135353a20676f7420756e6b6e6f776e2076616c75652066726f6d206f6e455243313135355265636569766564a2646970667358221220d3b54188b9b75d0889b0781e0dc3e8dde0cd5af725c971cf5ae3a564fde6a3ed64736f6c634300070100334f776e61626c653a206e6577206f776e657220697320746865207a65726f2061646472657373",
  "immutableReferences": {},
  "source": "// SPDX-License-Identifier: GPL-3.0-or-later\npragma solidity ^0.7.1;\n\nimport './Maintenable.sol';\n\ncontract Privatizable is Maintenable {\n\n\n    /****************************\n    EXTERNAL FUNCTIONS\n    *****************************/\n\n\n    /**\n     * @dev Function to approve holder for a private token.\n     * @param id the token id\n     * @param holder The authorized address\n     */\n    function approveHolder(uint256 id, address holder) external onlyMaintener(id) {\n        _tokens[id].holders[holder].isApproved = true;\n    }\n\n\n    /**\n     * @dev Function to revoke holder for a private token.\n     * @param id the token id\n     * @param holder The authorized address\n     */\n    function revokeHolder(uint256 id, address holder) external onlyMaintener(id) {\n        _tokens[id].holders[holder].isApproved = false;\n    }\n\n\n    /****************************\n    INTERNAL FUNCTIONS\n    *****************************/\n\n\n    // override ChargeableTransfer._addToBalance()\n    function _addToBalance(address recipient, uint256 id, uint256 value) internal override {\n        require(!_tokens[id].isPrivate || _tokens[id].holders[recipient].isApproved, \"Address not approved\");\n        super._addToBalance(recipient, id, value);\n    }\n\n}\n",
  "sourcePath": "/home/ouziel/Work/StashBloxContracts/contracts/lib/Privatizable.sol",
  "compiler": {
    "name": "solc",
    "version": "0.7.1+commit.f4a555be.Emscripten.clang"
  },
  "schemaVersion": "3.2.3",
  "updatedAt": "2020-10-22T09:28:25.286Z",
  "devdoc": {
    "kind": "dev",
    "methods": {
      "approveHolder(uint256,address)": {
        "details": "Function to approve holder for a private token.",
        "params": {
          "holder": "The authorized address",
          "id": "the token id"
        }
      },
      "authorizeMaintener(uint256,address)": {
        "details": "Function to authorize an address to maintain a token.",
        "params": {
          "maintener": "The authorized address"
        }
      },
      "authorizeTokenizer(address)": {
        "details": "Function to authorize an address to create a token.",
        "params": {
          "tokenizer": "The authorized address"
        }
      },
      "averageAge(address,uint256)": {
        "details": "Function to get the average age of the token for the given address.",
        "params": {
          "account": "the address from where to transfer the tokens",
          "id": "The token ID"
        },
        "returns": {
          "_0": "average age in seconds"
        }
      },
      "balanceOf(address,uint256)": {
        "details": "Get the specified address' balance for token with specified ID. Attempting to query the zero account for a balance will result in a revert.",
        "params": {
          "account": "The address of the token holder",
          "id": "ID of the token"
        },
        "returns": {
          "_0": "The account's balance of the token type requested"
        }
      },
      "balanceOfBatch(address[],uint256[])": {
        "details": "Get the balance of multiple account/token pairs. If any of the query accounts is the zero account, this query will revert.",
        "params": {
          "accounts": "The addresses of the token holders",
          "ids": "IDs of the tokens"
        },
        "returns": {
          "_0": "Balances for each account and token id pair"
        }
      },
      "cloneToken(uint256,uint256[],uint256[])": {
        "details": "Function to mint tokens in batch.",
        "params": {
          "id": "Identifier of the template",
          "ids": "list of IDs of the tokens to be minted",
          "metadataHashes": "list of metadata file hashes"
        }
      },
      "createToken(address,uint256,uint256,uint256,uint256,uint256[3],address[],uint256[],uint256,bool,address)": {
        "details": "Function to mint an amount of a token with the given ID.",
        "params": {
          "feesRecipients": "list of addresses receiving transfer fees",
          "feesRecipientsPercentage": "list of percentage, each one for the corresponding feesRecipients",
          "id": "ID of the token to be minted",
          "isPrivate": "true if holder need approval",
          "legalAuthority": "address of the legal authority",
          "metadataHash": "Metadata file hash",
          "minHoldingForCallback": "minimum holding to propose a callback",
          "recipient": "The address that will own the minted tokens",
          "supply": "Amount of the token to be minted",
          "transactionFees": "transaction fees: [lumpSumFees (in WEI), valueProportionalFees (ratio of transfered amount * 10**8), storageFees (in storageCredit * 10**8)]"
        }
      },
      "isApprovedForAll(address,address)": {
        "params": {
          "account": "The account of the Tokens",
          "operator": "Address of authorized operator"
        },
        "returns": {
          "_0": "True if the operator is approved, false if not"
        }
      },
      "isMaintener(uint256,address)": {
        "details": "Function to check if an address is authorized to maintain a token.",
        "params": {
          "id": "the token id",
          "maintener": "The authorized address"
        },
        "returns": {
          "_0": "true if it's a maintener address"
        }
      },
      "isTokenizer(address)": {
        "details": "Function to check if an address is authorized to create a token.",
        "params": {
          "tokenizer": "The authorized address"
        }
      },
      "owner()": {
        "details": "Returns the address of the current owner."
      },
      "revokeHolder(uint256,address)": {
        "details": "Function to revoke holder for a private token.",
        "params": {
          "holder": "The authorized address",
          "id": "the token id"
        }
      },
      "revokeMaintener(uint256,address)": {
        "details": "Function to revoke the authorization to maintain a token.",
        "params": {
          "id": "the token id",
          "maintener": "The authorized address"
        }
      },
      "revokeTokenizer(address)": {
        "details": "Function to revoke the authorization to create a token.",
        "params": {
          "tokenizer": "The authorized address"
        }
      },
      "safeBatchTransferFrom(address,address,uint256[],uint256[],bytes)": {
        "details": "Transfers `values` amount(s) of `ids` from the `from` address to the `to` address specified. Caller must be approved to manage the tokens being transferred out of the `from` account. If `to` is a smart contract, will call `onERC1155BatchReceived` on `to` and act appropriately.",
        "params": {
          "data": "Data forwarded to `onERC1155Received` if `to` is a contract receiver",
          "from": "Source address",
          "ids": "IDs of each token type",
          "to": "Target address",
          "values": "Transfer amounts per token type"
        }
      },
      "safeTransferFrom(address,address,uint256,uint256,bytes)": {
        "details": "Transfers `value` amount of an `id` from the `from` address to the `to` address specified. Caller must be approved to manage the tokens being transferred out of the `from` account. If `to` is a smart contract, will call `onERC1155Received` on `to` and act appropriately.",
        "params": {
          "data": "Data forwarded to `onERC1155Received` if `to` is a contract receiver",
          "from": "Source address",
          "id": "ID of the token type",
          "to": "Target address",
          "value": "Transfer amount"
        }
      },
      "setApprovalForAll(address,bool)": {
        "details": "Sets or unsets the approval of a given operator. An operator is allowed to transfer all tokens of the sender on their behalf. Because an account already has operator privileges for itself, this function will revert if the account attempts to set the approval status for itself.",
        "params": {
          "approved": "representing the status of the approval to be set",
          "operator": "address to set the approval"
        }
      },
      "setProxyRegistryAddress(address[10])": {
        "details": "Function to update the operator whitelist",
        "params": {
          "proxyAddresses": "List of addresses"
        }
      },
      "supportsInterface(bytes4)": {
        "params": {
          "_interfaceID": "The interface identifier, as specified in ERC-165"
        },
        "returns": {
          "_0": "`true` if the contract implements `_interfaceID` and"
        }
      },
      "transactionFees(address,uint256,uint256)": {
        "details": "Function to get the transaction price to transfer tokens.",
        "params": {
          "account": "the address from where to transfer the tokens",
          "id": "The token ID",
          "value": "The amount to transfer"
        },
        "returns": {
          "_0": "transfer price"
        }
      },
      "transferOwnership(address)": {
        "details": "Transfers ownership of the contract to a new account (`newOwner`). Can only be called by the current owner."
      },
      "updateToken(uint256,uint256,uint256[3],address[],uint256[],uint256,bool,address)": {
        "details": "Function to update a token with the given ID.",
        "params": {
          "feesRecipients": "list of addresses receiving transfer fees",
          "feesRecipientsPercentage": "list of percentage, each one for the corresponding feesRecipients",
          "id": "ID of the token to be updated",
          "isPrivate": "true if holder need approval",
          "legalAuthority": "address of the legal authority",
          "metadataHash": "Metadata file hash",
          "minHoldingForCallback": "minimum holding to propose a callback",
          "transactionFees": "transaction fees: [lumpSumFees (in WEI), valueProportionalFees (ratio of transfered amount * 10**8), storageFees (in storageCredit * 10**8)]"
        }
      },
      "uri(uint256)": {
        "params": {
          "id": "Token ID"
        },
        "returns": {
          "_0": "URI string"
        }
      }
    },
    "version": 1
  },
  "userdoc": {
    "kind": "user",
    "methods": {
      "isApprovedForAll(address,address)": {
        "notice": "Queries the approval status of an operator for a given account."
      },
      "isTrustedForwarder(address)": {
        "notice": "return if the forwarder is trusted to forward relayed transactions to us. the forwarder is required to verify the sender's signature, and verify the call is not a replay."
      },
      "supportsInterface(bytes4)": {
        "notice": "Query if a contract implements an interface"
      }
    },
    "version": 1
  }
}