{
  "contractName": "Proxyable",
  "abi": [
    {
      "anonymous": false,
      "inputs": [
        {
          "indexed": true,
          "internalType": "address",
          "name": "previousOwner",
          "type": "address"
        },
        {
          "indexed": true,
          "internalType": "address",
          "name": "newOwner",
          "type": "address"
        }
      ],
      "name": "OwnershipTransferred",
      "type": "event"
    },
    {
      "inputs": [
        {
          "internalType": "uint256",
          "name": "",
          "type": "uint256"
        }
      ],
      "name": "_callbacks",
      "outputs": [
        {
          "internalType": "uint256",
          "name": "tokenId",
          "type": "uint256"
        },
        {
          "internalType": "uint256",
          "name": "price",
          "type": "uint256"
        },
        {
          "internalType": "uint256",
          "name": "escrowedAmount",
          "type": "uint256"
        },
        {
          "internalType": "uint256",
          "name": "callCounter",
          "type": "uint256"
        },
        {
          "internalType": "uint256",
          "name": "documentHash",
          "type": "uint256"
        },
        {
          "internalType": "address",
          "name": "caller",
          "type": "address"
        },
        {
          "internalType": "bool",
          "name": "needLegalApproval",
          "type": "bool"
        },
        {
          "internalType": "bool",
          "name": "approvedByLegal",
          "type": "bool"
        },
        {
          "internalType": "bool",
          "name": "refused",
          "type": "bool"
        },
        {
          "internalType": "bool",
          "name": "accepted",
          "type": "bool"
        },
        {
          "internalType": "bool",
          "name": "completed",
          "type": "bool"
        }
      ],
      "stateMutability": "view",
      "type": "function"
    },
    {
      "inputs": [],
      "name": "_config",
      "outputs": [
        {
          "internalType": "uint256",
          "name": "callbackAutoExecuteMaxAddresses",
          "type": "uint256"
        },
        {
          "internalType": "string",
          "name": "baseURI",
          "type": "string"
        },
        {
          "internalType": "address",
          "name": "owner",
          "type": "address"
        }
      ],
      "stateMutability": "view",
      "type": "function"
    },
    {
      "inputs": [
        {
          "internalType": "uint256",
          "name": "",
          "type": "uint256"
        }
      ],
      "name": "_tokens",
      "outputs": [
        {
          "internalType": "uint256",
          "name": "supply",
          "type": "uint256"
        },
        {
          "internalType": "uint256",
          "name": "decimals",
          "type": "uint256"
        },
        {
          "internalType": "uint256",
          "name": "lumpSumTransactionFees",
          "type": "uint256"
        },
        {
          "internalType": "uint256",
          "name": "valueTransactionFees",
          "type": "uint256"
        },
        {
          "internalType": "uint256",
          "name": "minHoldingForCallback",
          "type": "uint256"
        },
        {
          "internalType": "uint256",
          "name": "metadataHash",
          "type": "uint256"
        },
        {
          "internalType": "address",
          "name": "legalAuthority",
          "type": "address"
        },
        {
          "internalType": "bool",
          "name": "isPrivate",
          "type": "bool"
        },
        {
          "internalType": "bool",
          "name": "locked",
          "type": "bool"
        }
      ],
      "stateMutability": "view",
      "type": "function"
    },
    {
      "inputs": [
        {
          "internalType": "address",
          "name": "",
          "type": "address"
        }
      ],
      "name": "_users",
      "outputs": [
        {
          "internalType": "bool",
          "name": "isTokenizer",
          "type": "bool"
        },
        {
          "internalType": "bool",
          "name": "isLocked",
          "type": "bool"
        },
        {
          "internalType": "uint256",
          "name": "ETHBalance",
          "type": "uint256"
        }
      ],
      "stateMutability": "view",
      "type": "function"
    },
    {
      "inputs": [],
      "name": "owner",
      "outputs": [
        {
          "internalType": "address",
          "name": "",
          "type": "address"
        }
      ],
      "stateMutability": "view",
      "type": "function"
    },
    {
      "inputs": [
        {
          "internalType": "address",
          "name": "newOwner",
          "type": "address"
        }
      ],
      "name": "transferOwnership",
      "outputs": [],
      "stateMutability": "nonpayable",
      "type": "function"
    },
    {
      "inputs": [
        {
          "internalType": "uint256",
          "name": "id",
          "type": "uint256"
        }
      ],
      "name": "uri",
      "outputs": [
        {
          "internalType": "string",
          "name": "",
          "type": "string"
        }
      ],
      "stateMutability": "view",
      "type": "function"
    },
    {
      "inputs": [
        {
          "internalType": "address[10]",
          "name": "proxyAddresses",
          "type": "address[10]"
        }
      ],
      "name": "setProxyRegistryAddress",
      "outputs": [],
      "stateMutability": "nonpayable",
      "type": "function"
    }
  ],
  "bytecode": "0x608060405234801561001057600080fd5b5061001a3361001f565b6100da565b6001600160a01b03811661007e576040517f08c379a0000000000000000000000000000000000000000000000000000000008152600401808060200182810382526026815260200180610b2b6026913960400191505060405180910390fd5b600c546040516001600160a01b038084169216907f8be0079c531659141344cd1fd0a4f28419497f9722a3daafe3b4186f6b6457e090600090a3600c80546001600160a01b0319166001600160a01b0392909216919091179055565b610a42806100e96000396000f3fe608060405234801561001057600080fd5b50600436106100885760003560e01c80634392e5771161005b5780634392e577146102815780638da5cb5b146102d7578063ed70554d146102fb578063f2fde38b1461036c57610088565b80630e89341c1461008d5780632ed42bf71461011f5780633cacd7d6146101b6578063414ed0ce146101fc575b600080fd5b6100aa600480360360208110156100a357600080fd5b5035610392565b6040805160208082528351818301528351919283929083019185019080838360005b838110156100e45781810151838201526020016100cc565b50505050905090810190601f1680156101115780820380516001836020036101000a031916815260200191505b509250505060405180910390f35b61012761043b565b6040518084815260200180602001836001600160a01b03168152602001828103825284818151815260200191508051906020019080838360005b83811015610179578181015183820152602001610161565b50505050905090810190601f1680156101a65780820380516001836020036101000a031916815260200191505b5094505050505060405180910390f35b6101dc600480360360208110156101cc57600080fd5b50356001600160a01b03166104e0565b604080519315158452911515602084015282820152519081900360600190f35b6102196004803603602081101561021257600080fd5b5035610506565b604080519b8c5260208c019a909a528a8a019890985260608a019690965260808901949094526001600160a01b0390921660a0880152151560c0870152151560e086015215156101008501521515610120840152151561014083015251908190036101600190f35b6102d5600480360361014081101561029857600080fd5b81019080806101400190600a806020026040519081016040528092919082600a602002808284376000920191909152509194506105799350505050565b005b6102df6105e3565b604080516001600160a01b039092168252519081900360200190f35b6103186004803603602081101561031157600080fd5b50356105f2565b60408051998a5260208a0198909852888801969096526060880194909452608087019290925260a08601526001600160a01b031660c0850152151560e0840152151561010083015251908190036101200190f35b6102d56004803603602081101561038257600080fd5b50356001600160a01b031661064e565b60018054604080516020600284861615610100026000190190941693909304601f810184900484028201840190925281815260609361043393919290918301828280156104205780601f106103f557610100808354040283529160200191610420565b820191906000526020600020905b81548152906001019060200180831161040357829003601f168201915b505050505061042e846106b3565b61076f565b90505b919050565b6000805460018054604080516020600284861615610100026000190190941693909304601f810184900484028201840190925281815293949392918301828280156104c75780601f1061049c576101008083540402835291602001916104c7565b820191906000526020600020905b8154815290600101906020018083116104aa57829003601f168201915b505050600c90930154919250506001600160a01b031683565b600d602052600090815260409020805460019091015460ff808316926101009004169083565b600f6020526000908152604090208054600182015460028301546003840154600485015460059095015493949293919290916001600160a01b0381169060ff600160a01b8204811691600160a81b8104821691600160b01b8204811691600160b81b8104821691600160c01b909104168b565b610581610879565b6105d2576040805162461bcd60e51b815260206004820181905260248201527f4f776e61626c653a2063616c6c6572206973206e6f7420746865206f776e6572604482015290519081900360640190fd5b6105df600282600a61096f565b5050565b600c546001600160a01b031690565b600e60205260009081526040902080546001820154600283015460038401546004850154600586015460069096015494959394929391929091906001600160a01b0381169060ff600160a01b8204811691600160a81b90041689565b610656610879565b6106a7576040805162461bcd60e51b815260206004820181905260248201527f4f776e61626c653a2063616c6c6572206973206e6f7420746865206f776e6572604482015290519081900360640190fd5b6106b08161088a565b50565b60606000825b80156106cf5760019190910190601090046106b9565b60608267ffffffffffffffff811180156106e857600080fd5b506040519080825280601f01601f191660200182016040528015610713576020820181803683370190505b50905060005b83811015610766576010860692506107308361092b565b826001838703038151811061074157fe5b60200101906001600160f81b031916908160001a905350601086049550600101610719565b50949350505050565b805182516060918491849184910167ffffffffffffffff8111801561079357600080fd5b506040519080825280601f01601f1916602001820160405280156107be576020820181803683370190505b509050806000805b8551811015610817578581815181106107db57fe5b602001015160f81c60f81b8383806001019450815181106107f857fe5b60200101906001600160f81b031916908160001a9053506001016107c6565b5060005b845181101561086c5784818151811061083057fe5b602001015160f81c60f81b83838060010194508151811061084d57fe5b60200101906001600160f81b031916908160001a90535060010161081b565b5090979650505050505050565b600c546001600160a01b0316331490565b6001600160a01b0381166108cf5760405162461bcd60e51b81526004018080602001828103825260268152602001806109e76026913960400191505060405180910390fd5b600c546040516001600160a01b038084169216907f8be0079c531659141344cd1fd0a4f28419497f9722a3daafe3b4186f6b6457e090600090a3600c80546001600160a01b0319166001600160a01b0392909216919091179055565b600060098260ff161161094557506030810160f81b610436565b8160ff16600a1115801561095d5750600f8260ff1611155b1561008857506057810160f81b610436565b82600a81019282156109b7579160200282015b828111156109b757825182546001600160a01b0319166001600160a01b03909116178255602090920191600190910190610982565b506109c39291506109c7565b5090565b5b808211156109c35780546001600160a01b03191681556001016109c856fe4f776e61626c653a206e6577206f776e657220697320746865207a65726f2061646472657373a2646970667358221220de58e8f78a63dfc43a0ae90ec1432ce85943164e7e3edbf092542b0f4d06780264736f6c634300070100334f776e61626c653a206e6577206f776e657220697320746865207a65726f2061646472657373",
  "immutableReferences": {},
  "source": "// SPDX-License-Identifier: GPL-3.0-or-later\npragma solidity ^0.7.1;\n\nimport \"./Ownable.sol\";\n\ncontract OwnableDelegateProxy { }\n\ncontract ProxyRegistry{\n  mapping(address => OwnableDelegateProxy) public proxies;\n}\n\ncontract Proxyable is Ownable {\n\n\n    /****************************\n    EXTERNAL FUNCTIONS\n    *****************************/\n\n\n    /**\n     * @dev Function to update the operator whitelist\n     * @param proxyAddresses List of addresses\n     */\n    function setProxyRegistryAddress(address[10] memory proxyAddresses) external onlyOwner {\n        _config.proxyRegistryAddresses = proxyAddresses;\n    }\n\n\n    /****************************\n    INTERNAL FUNCTIONS\n    *****************************/\n\n\n    function _isWhitelistedOperator(address account, address operator) internal view returns (bool) {\n        for (uint256 i = 0; i < _config.proxyRegistryAddresses.length; ++i) {\n            if (_config.proxyRegistryAddresses[i] != address(0)) {\n                ProxyRegistry proxyRegistry = ProxyRegistry(_config.proxyRegistryAddresses[i]);\n                if (address(proxyRegistry.proxies(account)) == operator) {\n                    return true;\n                }\n            }\n        }\n        return false;\n    }\n\n    function _isApprovedForAll(address account, address operator) internal view returns (bool) {\n        return _isWhitelistedOperator(account, operator) || _users[account].operatorApprovals[operator];\n    }\n}\n",
  "sourcePath": "/home/ouziel/Work/StashBloxContracts/contracts/lib/Proxyable.sol",
  "compiler": {
    "name": "solc",
    "version": "0.7.1+commit.f4a555be.Emscripten.clang"
  },
  "schemaVersion": "3.2.3",
  "updatedAt": "2020-10-21T20:10:49.971Z",
  "devdoc": {
    "kind": "dev",
    "methods": {
      "owner()": {
        "details": "Returns the address of the current owner."
      },
      "setProxyRegistryAddress(address[10])": {
        "details": "Function to update the operator whitelist",
        "params": {
          "proxyAddresses": "List of addresses"
        }
      },
      "transferOwnership(address)": {
        "details": "Transfers ownership of the contract to a new account (`newOwner`). Can only be called by the current owner."
      },
      "uri(uint256)": {
        "params": {
          "id": "Token ID"
        },
        "returns": {
          "_0": "URI string"
        }
      }
    },
    "version": 1
  },
  "userdoc": {
    "kind": "user",
    "methods": {},
    "version": 1
  }
}