{
  "contractName": "ProxyRegistry",
  "abi": [
    {
      "inputs": [
        {
          "internalType": "address",
          "name": "",
          "type": "address"
        }
      ],
      "name": "proxies",
      "outputs": [
        {
          "internalType": "contract OwnableDelegateProxy",
          "name": "",
          "type": "address"
        }
      ],
      "stateMutability": "view",
      "type": "function"
    }
  ],
  "bytecode": "0x6080604052348015600f57600080fd5b5060bd8061001e6000396000f3fe6080604052348015600f57600080fd5b506004361060285760003560e01c8063c455279114602d575b600080fd5b605060048036036020811015604157600080fd5b50356001600160a01b0316606c565b604080516001600160a01b039092168252519081900360200190f35b6000602081905290815260409020546001600160a01b03168156fea26469706673582212201143aa328c8b8d7c80f2d8566c68260e9af935a904d6b643c20f263a4f8edc5964736f6c63430007010033",
  "immutableReferences": {},
  "source": "// SPDX-License-Identifier: GPL-3.0-or-later\n\npragma solidity ^0.7.1;\n\nimport './StashBloxData.sol';\nimport \"./Ownable.sol\";\n\ncontract OwnableDelegateProxy { }\n\ncontract ProxyRegistry{\n  mapping(address => OwnableDelegateProxy) public proxies;\n}\n\ncontract Proxyable is StashBloxData, Ownable {\n\n\n    /****************************\n    EXTERNAL FUNCTIONS\n    *****************************/\n\n\n    /**\n     * @dev Function to update the operator whitelist\n     * @param proxyAddresses List of addresses\n     */\n    function setProxyRegistryAddress(address[10] memory proxyAddresses) external onlyOwner {\n        _config.proxyRegistryAddresses = proxyAddresses;\n    }\n\n\n    /****************************\n    INTERNAL FUNCTIONS\n    *****************************/\n\n\n    function _isWhitelistedOperator(address account, address operator) internal view returns (bool) {\n        for (uint256 i = 0; i < _config.proxyRegistryAddresses.length; ++i) {\n            if (_config.proxyRegistryAddresses[i] != address(0)) {\n                ProxyRegistry proxyRegistry = ProxyRegistry(_config.proxyRegistryAddresses[i]);\n                if (address(proxyRegistry.proxies(account)) == operator) {\n                    return true;\n                }\n            }\n        }\n        return false;\n    }\n}\n",
  "sourcePath": "/home/ouziel/Work/StashBloxContracts/contracts/lib/Proxyable.sol",
  "compiler": {
    "name": "solc",
    "version": "0.7.1+commit.f4a555be.Emscripten.clang"
  },
  "schemaVersion": "3.2.3",
  "updatedAt": "2020-10-20T20:56:12.280Z",
  "devdoc": {
    "kind": "dev",
    "methods": {},
    "version": 1
  },
  "userdoc": {
    "kind": "user",
    "methods": {},
    "version": 1
  }
}