{
  "contractName": "Proxyable",
  "abi": [
    {
      "anonymous": false,
      "inputs": [
        {
          "indexed": true,
          "internalType": "address",
          "name": "previousOwner",
          "type": "address"
        },
        {
          "indexed": true,
          "internalType": "address",
          "name": "newOwner",
          "type": "address"
        }
      ],
      "name": "OwnershipTransferred",
      "type": "event"
    },
    {
      "inputs": [
        {
          "internalType": "uint256",
          "name": "",
          "type": "uint256"
        }
      ],
      "name": "_callbacks",
      "outputs": [
        {
          "internalType": "uint256",
          "name": "tokenId",
          "type": "uint256"
        },
        {
          "internalType": "uint256",
          "name": "price",
          "type": "uint256"
        },
        {
          "internalType": "uint256",
          "name": "escrowedAmount",
          "type": "uint256"
        },
        {
          "internalType": "uint256",
          "name": "callCounter",
          "type": "uint256"
        },
        {
          "internalType": "uint256",
          "name": "documentHash",
          "type": "uint256"
        },
        {
          "internalType": "address",
          "name": "caller",
          "type": "address"
        },
        {
          "internalType": "bool",
          "name": "needLegalApproval",
          "type": "bool"
        },
        {
          "internalType": "bool",
          "name": "approvedByLegal",
          "type": "bool"
        },
        {
          "internalType": "bool",
          "name": "refused",
          "type": "bool"
        },
        {
          "internalType": "bool",
          "name": "accepted",
          "type": "bool"
        },
        {
          "internalType": "bool",
          "name": "completed",
          "type": "bool"
        }
      ],
      "stateMutability": "view",
      "type": "function"
    },
    {
      "inputs": [],
      "name": "_config",
      "outputs": [
        {
          "internalType": "uint256",
          "name": "callbackAutoExecuteMaxAddresses",
          "type": "uint256"
        },
        {
          "internalType": "string",
          "name": "baseURI",
          "type": "string"
        },
        {
          "internalType": "string",
          "name": "versionRecipient",
          "type": "string"
        },
        {
          "internalType": "address",
          "name": "owner",
          "type": "address"
        },
        {
          "internalType": "address",
          "name": "GSNTrustedForwarder",
          "type": "address"
        }
      ],
      "stateMutability": "view",
      "type": "function"
    },
    {
      "inputs": [
        {
          "internalType": "uint256",
          "name": "",
          "type": "uint256"
        }
      ],
      "name": "_tokens",
      "outputs": [
        {
          "internalType": "uint256",
          "name": "supply",
          "type": "uint256"
        },
        {
          "internalType": "uint256",
          "name": "decimals",
          "type": "uint256"
        },
        {
          "internalType": "uint256",
          "name": "lumpSumTransactionFees",
          "type": "uint256"
        },
        {
          "internalType": "uint256",
          "name": "valueTransactionFees",
          "type": "uint256"
        },
        {
          "internalType": "uint256",
          "name": "minHoldingForCallback",
          "type": "uint256"
        },
        {
          "internalType": "uint256",
          "name": "metadataHash",
          "type": "uint256"
        },
        {
          "internalType": "address",
          "name": "legalAuthority",
          "type": "address"
        },
        {
          "internalType": "bool",
          "name": "isPrivate",
          "type": "bool"
        },
        {
          "internalType": "bool",
          "name": "locked",
          "type": "bool"
        }
      ],
      "stateMutability": "view",
      "type": "function"
    },
    {
      "inputs": [
        {
          "internalType": "address",
          "name": "",
          "type": "address"
        }
      ],
      "name": "_users",
      "outputs": [
        {
          "internalType": "bool",
          "name": "isTokenizer",
          "type": "bool"
        },
        {
          "internalType": "bool",
          "name": "isLocked",
          "type": "bool"
        },
        {
          "internalType": "uint256",
          "name": "ETHBalance",
          "type": "uint256"
        }
      ],
      "stateMutability": "view",
      "type": "function"
    },
    {
      "inputs": [
        {
          "internalType": "address",
          "name": "forwarder",
          "type": "address"
        }
      ],
      "name": "isTrustedForwarder",
      "outputs": [
        {
          "internalType": "bool",
          "name": "",
          "type": "bool"
        }
      ],
      "stateMutability": "view",
      "type": "function"
    },
    {
      "inputs": [],
      "name": "owner",
      "outputs": [
        {
          "internalType": "address",
          "name": "",
          "type": "address"
        }
      ],
      "stateMutability": "view",
      "type": "function"
    },
    {
      "inputs": [
        {
          "internalType": "address",
          "name": "newOwner",
          "type": "address"
        }
      ],
      "name": "transferOwnership",
      "outputs": [],
      "stateMutability": "nonpayable",
      "type": "function"
    },
    {
      "inputs": [],
      "name": "versionRecipient",
      "outputs": [
        {
          "internalType": "string",
          "name": "",
          "type": "string"
        }
      ],
      "stateMutability": "view",
      "type": "function"
    },
    {
      "inputs": [
        {
          "internalType": "address[10]",
          "name": "proxyAddresses",
          "type": "address[10]"
        }
      ],
      "name": "setProxyRegistryAddress",
      "outputs": [],
      "stateMutability": "nonpayable",
      "type": "function"
    }
  ],
  "bytecode": "0x608060405234801561001057600080fd5b5061002161001c610026565b610057565b610126565b60006018361080159061003d575061003d33610112565b15610051575060131936013560601c610054565b50335b90565b6001600160a01b0381166100b6576040517f08c379a0000000000000000000000000000000000000000000000000000000008152600401808060200182810382526026815260200180610af56026913960400191505060405180910390fd5b6003546040516001600160a01b038084169216907f8be0079c531659141344cd1fd0a4f28419497f9722a3daafe3b4186f6b6457e090600090a3600380546001600160a01b0319166001600160a01b0392909216919091179055565b6004546001600160a01b0390811691161490565b6109c0806101356000396000f3fe608060405234801561001057600080fd5b50600436106100935760003560e01c8063486ff0cd11610066578063486ff0cd146102c6578063572b6c05146103435780638da5cb5b1461037d578063ed70554d146103a1578063f2fde38b1461041257610093565b80632ed42bf7146100985780633cacd7d6146101a5578063414ed0ce146101eb5780634392e57714610270575b600080fd5b6100a0610438565b604051808681526020018060200180602001856001600160a01b03168152602001846001600160a01b03168152602001838103835287818151815260200191508051906020019080838360005b838110156101055781810151838201526020016100ed565b50505050905090810190601f1680156101325780820380516001836020036101000a031916815260200191505b50838103825286518152865160209182019188019080838360005b8381101561016557818101518382015260200161014d565b50505050905090810190601f1680156101925780820380516001836020036101000a031916815260200191505b5097505050505050505060405180910390f35b6101cb600480360360208110156101bb57600080fd5b50356001600160a01b0316610579565b604080519315158452911515602084015282820152519081900360600190f35b6102086004803603602081101561020157600080fd5b503561059f565b604080519b8c5260208c019a909a528a8a019890985260608a019690965260808901949094526001600160a01b0390921660a0880152151560c0870152151560e086015215156101008501521515610120840152151561014083015251908190036101600190f35b6102c4600480360361014081101561028757600080fd5b81019080806101400190600a806020026040519081016040528092919082600a602002808284376000920191909152509194506106129350505050565b005b6102ce61067c565b6040805160208082528351818301528351919283929083019185019080838360005b838110156103085781810151838201526020016102f0565b50505050905090810190601f1680156103355780820380516001836020036101000a031916815260200191505b509250505060405180910390f35b6103696004803603602081101561035957600080fd5b50356001600160a01b0316610710565b604080519115158252519081900360200190f35b610385610724565b604080516001600160a01b039092168252519081900360200190f35b6103be600480360360208110156103b757600080fd5b5035610733565b60408051998a5260208a0198909852888801969096526060880194909452608087019290925260a08601526001600160a01b031660c0850152151560e0840152151561010083015251908190036101200190f35b6102c46004803603602081101561042857600080fd5b50356001600160a01b031661078f565b6000805460018054604080516020600284861615610100026000190190941693909304601f810184900484028201840190925281815293949392918301828280156104c45780601f10610499576101008083540402835291602001916104c4565b820191906000526020600020905b8154815290600101906020018083116104a757829003601f168201915b50505060028085018054604080516020601f60001961010060018716150201909416959095049283018590048502810185019091528181529596959450909250908301828280156105565780601f1061052b57610100808354040283529160200191610556565b820191906000526020600020905b81548152906001019060200180831161053957829003601f168201915b50505050600383015460049093015491926001600160a01b039081169216905085565b600f602052600090815260409020805460019091015460ff808316926101009004169083565b60116020526000908152604090208054600182015460028301546003840154600485015460059095015493949293919290916001600160a01b0381169060ff600160a01b8204811691600160a81b8104821691600160b01b8204811691600160b81b8104821691600160c01b909104168b565b61061a6107f4565b61066b576040805162461bcd60e51b815260206004820181905260248201527f4f776e61626c653a2063616c6c6572206973206e6f7420746865206f776e6572604482015290519081900360640190fd5b610678600582600a6108ed565b5050565b60028054604080516020601f60001961010060018716150201909416859004938401819004810282018101909252828152606093909290918301828280156107055780601f106106da57610100808354040283529160200191610705565b820191906000526020600020905b8154815290600101906020018083116106e857829003601f168201915b505050505090505b90565b6004546001600160a01b0390811691161490565b6003546001600160a01b031690565b601060205260009081526040902080546001820154600283015460038401546004850154600586015460069096015494959394929391929091906001600160a01b0381169060ff600160a01b8204811691600160a81b90041689565b6107976107f4565b6107e8576040805162461bcd60e51b815260206004820181905260248201527f4f776e61626c653a2063616c6c6572206973206e6f7420746865206f776e6572604482015290519081900360640190fd5b6107f18161081a565b50565b6003546000906001600160a01b031661080b6108bb565b6001600160a01b031614905090565b6001600160a01b03811661085f5760405162461bcd60e51b81526004018080602001828103825260268152602001806109656026913960400191505060405180910390fd5b6003546040516001600160a01b038084169216907f8be0079c531659141344cd1fd0a4f28419497f9722a3daafe3b4186f6b6457e090600090a3600380546001600160a01b0319166001600160a01b0392909216919091179055565b6000601836108015906108d257506108d233610710565b156108e6575060131936013560601c61070d565b503361070d565b82600a8101928215610935579160200282015b8281111561093557825182546001600160a01b0319166001600160a01b03909116178255602090920191600190910190610900565b50610941929150610945565b5090565b5b808211156109415780546001600160a01b031916815560010161094656fe4f776e61626c653a206e6577206f776e657220697320746865207a65726f2061646472657373a26469706673582212203ee6642a10f0dda0b11a2c27a1bc3c37a97e9023bdc2573266c8be353e97d39d64736f6c634300070100334f776e61626c653a206e6577206f776e657220697320746865207a65726f2061646472657373",
  "immutableReferences": {},
  "source": "// SPDX-License-Identifier: GPL-3.0-or-later\npragma solidity ^0.7.1;\n\nimport \"./Ownable.sol\";\n\ncontract OwnableDelegateProxy { }\n\ncontract ProxyRegistry{\n  mapping(address => OwnableDelegateProxy) public proxies;\n}\n\ncontract Proxyable is Ownable {\n\n\n    /****************************\n    EXTERNAL FUNCTIONS\n    *****************************/\n\n\n    /**\n     * @dev Function to update the operator whitelist\n     * @param proxyAddresses List of addresses\n     */\n    function setProxyRegistryAddress(address[10] memory proxyAddresses) external onlyOwner {\n        _config.proxyRegistryAddresses = proxyAddresses;\n    }\n\n\n    /****************************\n    INTERNAL FUNCTIONS\n    *****************************/\n\n\n    function _isWhitelistedOperator(address account, address operator) internal view returns (bool) {\n        for (uint256 i = 0; i < _config.proxyRegistryAddresses.length; ++i) {\n            if (_config.proxyRegistryAddresses[i] != address(0)) {\n                ProxyRegistry proxyRegistry = ProxyRegistry(_config.proxyRegistryAddresses[i]);\n                if (address(proxyRegistry.proxies(account)) == operator) {\n                    return true;\n                }\n            }\n        }\n        return false;\n    }\n\n    function _isApprovedForAll(address account, address operator) internal view returns (bool) {\n        return _isWhitelistedOperator(account, operator) || _users[account].operatorApprovals[operator];\n    }\n}\n",
  "sourcePath": "/home/ouziel/Work/StashBloxContracts/contracts/lib/Proxyable.sol",
  "compiler": {
    "name": "solc",
    "version": "0.7.1+commit.f4a555be.Emscripten.clang"
  },
  "schemaVersion": "3.2.3",
  "updatedAt": "2020-10-22T09:44:00.970Z",
  "devdoc": {
    "kind": "dev",
    "methods": {
      "owner()": {
        "details": "Returns the address of the current owner."
      },
      "setProxyRegistryAddress(address[10])": {
        "details": "Function to update the operator whitelist",
        "params": {
          "proxyAddresses": "List of addresses"
        }
      },
      "transferOwnership(address)": {
        "details": "Transfers ownership of the contract to a new account (`newOwner`). Can only be called by the current owner."
      }
    },
    "version": 1
  },
  "userdoc": {
    "kind": "user",
    "methods": {
      "isTrustedForwarder(address)": {
        "notice": "return if the forwarder is trusted to forward relayed transactions to us. the forwarder is required to verify the sender's signature, and verify the call is not a replay."
      }
    },
    "version": 1
  }
}