{
  "contractName": "ProxyRegistry",
  "abi": [
    {
      "inputs": [
        {
          "internalType": "address",
          "name": "",
          "type": "address"
        }
      ],
      "name": "proxies",
      "outputs": [
        {
          "internalType": "contract OwnableDelegateProxy",
          "name": "",
          "type": "address"
        }
      ],
      "stateMutability": "view",
      "type": "function"
    }
  ],
  "bytecode": "0x6080604052348015600f57600080fd5b5060bd8061001e6000396000f3fe6080604052348015600f57600080fd5b506004361060285760003560e01c8063c455279114602d575b600080fd5b605060048036036020811015604157600080fd5b50356001600160a01b0316606c565b604080516001600160a01b039092168252519081900360200190f35b6000602081905290815260409020546001600160a01b03168156fea2646970667358221220f889f4b61c3b5f11dc7a2415ee4a8246c893d252fef816748e6ba2a0f7aa7d0464736f6c63430007010033",
  "immutableReferences": {},
  "source": "// SPDX-License-Identifier: GPL-3.0-or-later\n\npragma solidity ^0.7.1;\n\nimport \"./lib/utils/SafeMath.sol\";\nimport \"./lib/ERC173/ERC173.sol\";\nimport './lib/ERC1155/ERC1155Metadata.sol';\n\ncontract OwnableDelegateProxy { }\n\ncontract ProxyRegistry {\n  mapping(address => OwnableDelegateProxy) public proxies;\n}\n\ncontract StashBloxBase is ERC173, ERC1155Metadata {\n\n    using SafeMath for uint256;\n\n\n    /***************************************\n    GLOBAL VARIABLES\n    ****************************************/\n\n\n    // Mapping from token ID to account balances\n    mapping (uint256 => mapping(address => uint256)) public _balances;\n    // Mapping from token ID to Supply and decimals\n    mapping (uint256 => uint256) internal _supplies;\n    mapping (uint256 => uint256) internal _decimals;\n    // Mapping from token ID to account age\n    mapping (uint256 => mapping(address => uint256)) public _birthdays;\n    // Mapping from token ID to list of tuple [timestamp, price]\n    mapping (uint256 => uint256[2][]) internal _storageCostHistory;\n    // Lump sum transaction fees for each token\n    mapping (uint256 => uint256) _lumpSumTransactionFees;\n    // Value proportional transaction fees for each token\n    mapping (uint256 => uint256) _valueTransactionFees;\n    // For each token a list of addresses receiving transfer fees\n    mapping (uint256 => address[]) internal _feesRecipients;\n    // For each token a list of percentage, each one for the corresponding _feesRecipients index\n    mapping (uint256 => uint256[]) internal _feesRecipientsPercentage;\n    // Balances ETH for fees recipients and callbacks\n    mapping (address => uint256) public _ETHBalances;\n    // For each address a list of token IDs. Can contains zero balance.\n    mapping (address => uint256[]) public _tokensByAddress;\n    // For each token a list of addresses. Can contains zero balance.\n    mapping (uint256 => address[]) public _addressesByToken;\n    // Initialize to true on the first token received, never come back to false.\n    mapping (uint256 => mapping(address => bool)) internal _isHolder;\n    // Mapping for locked tokens\n    mapping (uint256 => bool) internal _tokenLocks;\n    // Mapping for locked addresses\n    mapping (address => bool) internal _addressLocks;\n\n    // list of callback propositions\n    struct CallbackProposition {\n        uint256 tokenId;\n        address caller;\n        address[] callees;\n        uint256 price;\n        uint256 escrowedAmount;\n        bool needLegalApproval;\n        bool approvedByMaintener;\n        bool approvedByLegal;\n        bool refused;\n        bool accepted;\n        uint256 callCounter;\n        bool completed;\n        uint256 documentHash;\n    }\n    uint256 _nextCallbackPropositionId = 1;\n    mapping (uint256 => CallbackProposition) public _callbackPropositions;\n\n    // list of addresses authorized to create a token\n    mapping (address => bool) _authorizedTokenizers;\n    // List of token mainteners\n    mapping (uint256 => mapping(address => bool)) _tokenMainteners;\n    // Minimum holding to propose a callback for each token\n    mapping (uint256 => uint256) _minHoldingForCallback;\n    // Token template for batch creation\n    struct TokenTemplate {\n        address recipient;\n        uint256 supply;\n        uint8 decimals;\n        uint256[3] transactionFees;\n        address[] feesRecipients;\n        uint256[] feesRecipientsPercentage;\n        uint256 minHoldingForCallback;\n    }\n    mapping(uint256 => TokenTemplate) _tokenTemplates;\n    // Exchanges proxy addresses\n    address[] _proxyRegistryAddresses;\n    // Legal authority addresses\n    mapping (uint256 => address) _legalAuthorityAddresses;\n\n    uint256 _callbackAutoExecuteMaxAddresses = 50;\n\n    /***************************************\n    EVENTS\n    ****************************************/\n\n\n    // Callback events\n    event CallbackProposed(uint256 indexed _callbackPropositionId);\n    event CallbackRefused(uint256 indexed _callbackPropositionId);\n    event CallbackAccepted(uint256 indexed _callbackPropositionId);\n    event CallbackCompleted(uint256 indexed _callbackPropositionId);\n\n    // Update transactions prices events\n    event UpdateTransactionFees(address indexed _maintener, uint256 _id, uint256[3] _fees);\n\n    event TokenLocked(uint256 indexed _id, uint256 _documentHash);\n    event TokenUnlocked(uint256 indexed _id, uint256 _documentHash);\n\n\n    /***************************************\n    MODIFIERS\n    ****************************************/\n\n    function _isTokenizer(address tokenizer) internal view returns (bool) {\n        return _authorizedTokenizers[tokenizer] || _isOwner();\n    }\n\n    modifier onlyTokenizer() {\n        require(_isTokenizer(msg.sender), \"[StashBlox]: caller is not a tokenizer\");\n        _;\n    }\n\n    function _isMaintener(uint256 id, address maintener) internal view returns (bool) {\n        return _tokenMainteners[id][maintener] || _isOwner();\n    }\n\n    modifier onlyMaintener(uint256 id) {\n        require(_isMaintener(id, msg.sender), \"[StashBlox]: caller is not a token maintener\");\n        _;\n    }\n\n    function _isLegalAuthority(uint256 id, address legalAuthority) internal view returns (bool) {\n        return _legalAuthorityAddresses[id] == legalAuthority;\n    }\n\n\n    /***************************************\n    LOCKS FUNCTIONS\n    ****************************************/\n\n    function _lockToken(uint256 id, uint256 documentHash) internal {\n        _tokenLocks[id] = true;\n        emit TokenLocked(id, documentHash);\n    }\n\n    function _unlockToken(uint256 id, uint256 documentHash) internal {\n        _tokenLocks[id] = false;\n        emit TokenUnlocked(id, documentHash);\n    }\n\n    function _isLockedToken(uint256 id) internal view returns (bool) {\n        return _tokenLocks[id];\n    }\n\n    function _isLockedAddress(address addr) internal view returns (bool) {\n        return _addressLocks[addr];\n    }\n\n    function _isLockedMove(address from, address to, uint256 id, uint256 value) internal view returns (bool) {\n        return _isLockedToken(id) || _isLockedAddress(from) || _isLockedAddress(to) || (value == 0);\n    }\n\n\n    /***************************************\n    TOKENS TRANSFER FUNCTIONS\n    ****************************************/\n\n\n    // update balance, lists of holders and token average age of the recipient\n    function _addToBalance(address recipient, uint256 id, uint256 value) internal {\n        uint256 newBalance = _balances[id][recipient].add(value);\n\n        if (_balances[id][recipient] == 0) {\n\n            if (!_isHolder[id][recipient]) {\n\n                _tokensByAddress[recipient].push(id);\n                _addressesByToken[id].push(recipient);\n                _isHolder[id][recipient];\n            }\n\n            _birthdays[id][recipient] = block.timestamp;\n\n        } else {\n\n            // calculate the average birthday of the received and hold tokens\n            uint256 oldTokensAge = block.timestamp.sub(_birthdays[id][recipient]);\n            uint256 newTokenAge = (_balances[id][recipient].mul(oldTokensAge)).div(newBalance);\n\n            _birthdays[id][recipient] = block.timestamp - newTokenAge;\n        }\n\n        _balances[id][recipient] = newBalance;\n    }\n\n    // Calculate transaction fees\n    function _transactionFees(address account, uint256 id, uint256 value) internal view returns (uint256) {\n        require(account != address(0), \"ERC1155: balance query for the zero address\");\n\n        uint256 totalCost = 0;\n        uint256 timeCursor = block.timestamp;\n\n        for (uint i = _storageCostHistory[id].length - 1; i >= 0; i--) {\n\n            uint256 costStartAt = _storageCostHistory[id][i][0];\n            uint256 cost = _storageCostHistory[id][i][1];\n            uint256 storageDays;\n\n            if (_birthdays[id][account] >= costStartAt) {\n                storageDays = (timeCursor.sub(_birthdays[id][account])).div(86400);\n                if (storageDays == 0) storageDays = 1;\n                totalCost += (storageDays.mul(cost)).mul(value);\n                break;\n            } else {\n                storageDays = (timeCursor.sub(costStartAt)).div(86400);\n                if (storageDays == 0) storageDays = 1;\n                timeCursor = costStartAt;\n                totalCost += (storageDays.mul(cost)).mul(value);\n            }\n        }\n\n        totalCost = totalCost.div(10**_decimals[id]); // storage cost are for one full token\n\n        uint256 valueFees = (value.mul(_valueTransactionFees[id])).div(10**8);\n\n        return totalCost.add(_lumpSumTransactionFees[id].add(valueFees));\n    }\n\n    // Used by ERC1155.sol in safeTransferFrom and safeTransferFromBatch functions\n    function _moveTokens(address from, address to, uint256 id, uint256 value, uint256 feesBalance) internal returns (uint256 fees) {\n        require(!_isLockedMove(from, to, id, value), \"Locked\");\n\n        fees = _transactionFees(from, id, value);\n        require(feesBalance >= fees, \"ERC1155: insufficient ETH for transfer fees\");\n\n        _balances[id][from] = _balances[id][from].sub(value, \"ERC1155: insufficient balance for transfer\");\n\n        _addToBalance(to, id, value);\n\n        for (uint256 i = 0; i < _feesRecipients[id].length; ++i) {\n            address feesRecipient = _feesRecipients[id][i];\n            uint256 feesRecipientsPercentage = _feesRecipientsPercentage[id][i];\n            _ETHBalances[feesRecipient] += (fees.mul(feesRecipientsPercentage)).div(10000);\n        }\n\n        return fees;\n    }\n\n\n    /***************************************\n    TOKENS CREATION AND MAINTENANCE FUNCTIONS\n    ****************************************/\n\n\n    function _createToken(address recipient,\n                          uint256 id,\n                          uint256 supply,\n                          uint8 decimals,\n                          uint256 metadataHash,\n                          uint256[3] memory transactionFees,\n                          address[] memory feesRecipients,\n                          uint256[] memory feesRecipientsPercentage,\n                          uint256 minHoldingForCallback)\n    internal {\n        require(_supplies[id] == 0, \"StashBlox: Token ID already used\");\n        require(supply > 0, \"StashBlox: Supply must be greater than 0\");\n\n        _supplies[id] = supply;\n        _decimals[id] = decimals;\n        _tokenMainteners[id][msg.sender] = true;\n\n        _addToBalance(recipient, id, supply);\n        _setMetadataHash(id, metadataHash);\n        _setTransactionFees(id, transactionFees);\n        _setFeesRecipients(id, feesRecipients, feesRecipientsPercentage);\n        _setMinHoldingForCallback(id, minHoldingForCallback);\n    }\n\n    function _setMetadataHash(uint256 id, uint256 hash) internal {\n         _metadataHashes[id] = hash;\n         emit MetadataHashUpdated(id, hash);\n    }\n\n    function _setTransactionFees(uint256 id, uint256[3] memory newFees) internal {\n        _lumpSumTransactionFees[id] = newFees[0];\n        _valueTransactionFees[id] = newFees[1];\n        _storageCostHistory[id].push([block.timestamp, newFees[2]]);\n\n        emit UpdateTransactionFees(msg.sender, id, newFees);\n    }\n\n    function _setMinHoldingForCallback(uint256 id, uint256 newMinHoldingForCallback) internal {\n        require(newMinHoldingForCallback < 10000, \"StashBlox: minimum holding must be lower than 10000 (100%)\");\n        _minHoldingForCallback[id] = newMinHoldingForCallback;\n    }\n\n    function _setFeesRecipients(uint256 id,\n                                address[] memory newFeesRecipients,\n                                uint256[] memory newFeesRecipientsPercentage)\n    internal {\n        require(newFeesRecipients.length > 0 &&\n                newFeesRecipients.length == newFeesRecipientsPercentage.length, \"StashBlox: Invalid arguments\");\n\n        uint256 totalPercentage = 0;\n        for (uint256 i = 0; i < newFeesRecipientsPercentage.length; ++i) {\n            totalPercentage += newFeesRecipientsPercentage[i];\n            require(newFeesRecipientsPercentage[i] > 0, \"StashBlox: feesRecipientsPercentage should be greater than 0\");\n        }\n        require(totalPercentage == 10000, \"StashBlox: Total of feesRecipientsPercentage must be equal to 10000\");\n\n        _feesRecipients[id] = newFeesRecipients;\n        _feesRecipientsPercentage[id] = newFeesRecipientsPercentage;\n    }\n\n    function _isWhitelistedOperator(address account, address operator) internal view returns (bool) {\n        for (uint256 i = 0; i < _proxyRegistryAddresses.length; ++i) {\n            ProxyRegistry proxyRegistry = ProxyRegistry(_proxyRegistryAddresses[i]);\n            if (address(proxyRegistry.proxies(account)) == operator) {\n                return true;\n            }\n        }\n        return false;\n    }\n\n\n    function _callbackPrice(uint256 tokenId, uint256 price, address[] memory callees) internal view returns (uint256) {\n        uint256 callbackAmount = 0;\n        if (callees.length == 0) {\n            callbackAmount = _supplies[tokenId].sub(_balances[tokenId][msg.sender]);\n        } else {\n            for (uint i; i < callees.length; i++) {\n                callbackAmount += _balances[tokenId][callees[i]];\n            }\n        }\n        return callbackAmount.mul(price);\n    }\n\n\n\n}\n",
  "sourcePath": "/home/ouziel/Work/StashBloxContracts/contracts/StashBloxBase.sol",
  "compiler": {
    "name": "solc",
    "version": "0.7.1+commit.f4a555be.Emscripten.clang"
  },
  "schemaVersion": "3.2.3",
  "updatedAt": "2020-10-14T17:16:05.397Z",
  "devdoc": {
    "kind": "dev",
    "methods": {},
    "version": 1
  },
  "userdoc": {
    "kind": "user",
    "methods": {},
    "version": 1
  }
}