{
  "contractName": "StashBlox",
  "abi": [
    {
      "anonymous": false,
      "inputs": [
        {
          "indexed": true,
          "internalType": "address",
          "name": "_owner",
          "type": "address"
        },
        {
          "indexed": true,
          "internalType": "address",
          "name": "_operator",
          "type": "address"
        },
        {
          "indexed": false,
          "internalType": "bool",
          "name": "_approved",
          "type": "bool"
        }
      ],
      "name": "ApprovalForAll",
      "type": "event"
    },
    {
      "anonymous": false,
      "inputs": [
        {
          "indexed": true,
          "internalType": "uint256",
          "name": "_id",
          "type": "uint256"
        },
        {
          "indexed": false,
          "internalType": "address",
          "name": "_proposer",
          "type": "address"
        },
        {
          "indexed": false,
          "internalType": "uint256",
          "name": "_price",
          "type": "uint256"
        }
      ],
      "name": "CallbackAccepted",
      "type": "event"
    },
    {
      "anonymous": false,
      "inputs": [
        {
          "indexed": true,
          "internalType": "uint256",
          "name": "_id",
          "type": "uint256"
        },
        {
          "indexed": false,
          "internalType": "address",
          "name": "_proposer",
          "type": "address"
        },
        {
          "indexed": false,
          "internalType": "uint256",
          "name": "_price",
          "type": "uint256"
        }
      ],
      "name": "CallbackProposed",
      "type": "event"
    },
    {
      "anonymous": false,
      "inputs": [
        {
          "indexed": true,
          "internalType": "uint256",
          "name": "_id",
          "type": "uint256"
        },
        {
          "indexed": false,
          "internalType": "address",
          "name": "_proposer",
          "type": "address"
        },
        {
          "indexed": false,
          "internalType": "uint256",
          "name": "_price",
          "type": "uint256"
        }
      ],
      "name": "CallbackRefused",
      "type": "event"
    },
    {
      "anonymous": false,
      "inputs": [
        {
          "indexed": true,
          "internalType": "uint256",
          "name": "_id",
          "type": "uint256"
        },
        {
          "indexed": true,
          "internalType": "uint256",
          "name": "_hash",
          "type": "uint256"
        }
      ],
      "name": "MetadataHashUpdated",
      "type": "event"
    },
    {
      "anonymous": false,
      "inputs": [
        {
          "indexed": true,
          "internalType": "address",
          "name": "previousOwner",
          "type": "address"
        },
        {
          "indexed": true,
          "internalType": "address",
          "name": "newOwner",
          "type": "address"
        }
      ],
      "name": "OwnershipTransferred",
      "type": "event"
    },
    {
      "anonymous": false,
      "inputs": [
        {
          "indexed": true,
          "internalType": "address",
          "name": "_operator",
          "type": "address"
        },
        {
          "indexed": true,
          "internalType": "address",
          "name": "_from",
          "type": "address"
        },
        {
          "indexed": true,
          "internalType": "address",
          "name": "_to",
          "type": "address"
        },
        {
          "indexed": false,
          "internalType": "uint256[]",
          "name": "_ids",
          "type": "uint256[]"
        },
        {
          "indexed": false,
          "internalType": "uint256[]",
          "name": "_values",
          "type": "uint256[]"
        }
      ],
      "name": "TransferBatch",
      "type": "event"
    },
    {
      "anonymous": false,
      "inputs": [
        {
          "indexed": true,
          "internalType": "address",
          "name": "_operator",
          "type": "address"
        },
        {
          "indexed": true,
          "internalType": "address",
          "name": "_from",
          "type": "address"
        },
        {
          "indexed": true,
          "internalType": "address",
          "name": "_to",
          "type": "address"
        },
        {
          "indexed": false,
          "internalType": "uint256",
          "name": "_id",
          "type": "uint256"
        },
        {
          "indexed": false,
          "internalType": "uint256",
          "name": "_value",
          "type": "uint256"
        }
      ],
      "name": "TransferSingle",
      "type": "event"
    },
    {
      "anonymous": false,
      "inputs": [
        {
          "indexed": false,
          "internalType": "string",
          "name": "_value",
          "type": "string"
        },
        {
          "indexed": true,
          "internalType": "uint256",
          "name": "_id",
          "type": "uint256"
        }
      ],
      "name": "URI",
      "type": "event"
    },
    {
      "anonymous": false,
      "inputs": [
        {
          "indexed": true,
          "internalType": "address",
          "name": "_tokenizer",
          "type": "address"
        },
        {
          "indexed": false,
          "internalType": "uint256",
          "name": "_id",
          "type": "uint256"
        },
        {
          "indexed": false,
          "internalType": "uint256",
          "name": "_cost",
          "type": "uint256"
        }
      ],
      "name": "UpdateStorageCost",
      "type": "event"
    },
    {
      "anonymous": false,
      "inputs": [
        {
          "indexed": true,
          "internalType": "address",
          "name": "_owner",
          "type": "address"
        },
        {
          "indexed": false,
          "internalType": "uint256",
          "name": "_price",
          "type": "uint256"
        }
      ],
      "name": "UpdateStorageCreditPrice",
      "type": "event"
    },
    {
      "constant": true,
      "inputs": [],
      "name": "BASE_URI",
      "outputs": [
        {
          "internalType": "string",
          "name": "",
          "type": "string"
        }
      ],
      "payable": false,
      "stateMutability": "view",
      "type": "function"
    },
    {
      "constant": true,
      "inputs": [
        {
          "internalType": "address",
          "name": "",
          "type": "address"
        }
      ],
      "name": "_ETHBalances",
      "outputs": [
        {
          "internalType": "uint256",
          "name": "",
          "type": "uint256"
        }
      ],
      "payable": false,
      "stateMutability": "view",
      "type": "function"
    },
    {
      "constant": true,
      "inputs": [
        {
          "internalType": "uint256",
          "name": "",
          "type": "uint256"
        },
        {
          "internalType": "uint256",
          "name": "",
          "type": "uint256"
        }
      ],
      "name": "_addressesByToken",
      "outputs": [
        {
          "internalType": "address",
          "name": "",
          "type": "address"
        }
      ],
      "payable": false,
      "stateMutability": "view",
      "type": "function"
    },
    {
      "constant": true,
      "inputs": [
        {
          "internalType": "uint256",
          "name": "",
          "type": "uint256"
        },
        {
          "internalType": "address",
          "name": "",
          "type": "address"
        }
      ],
      "name": "_birthdays",
      "outputs": [
        {
          "internalType": "uint256",
          "name": "",
          "type": "uint256"
        }
      ],
      "payable": false,
      "stateMutability": "view",
      "type": "function"
    },
    {
      "constant": true,
      "inputs": [
        {
          "internalType": "uint256",
          "name": "",
          "type": "uint256"
        }
      ],
      "name": "_locked",
      "outputs": [
        {
          "internalType": "bool",
          "name": "",
          "type": "bool"
        }
      ],
      "payable": false,
      "stateMutability": "view",
      "type": "function"
    },
    {
      "constant": true,
      "inputs": [
        {
          "internalType": "address",
          "name": "",
          "type": "address"
        },
        {
          "internalType": "uint256",
          "name": "",
          "type": "uint256"
        }
      ],
      "name": "_tokensByAddress",
      "outputs": [
        {
          "internalType": "uint256",
          "name": "",
          "type": "uint256"
        }
      ],
      "payable": false,
      "stateMutability": "view",
      "type": "function"
    },
    {
      "constant": false,
      "inputs": [
        {
          "internalType": "address",
          "name": "tokenizer",
          "type": "address"
        }
      ],
      "name": "authorizeTokenizer",
      "outputs": [],
      "payable": false,
      "stateMutability": "nonpayable",
      "type": "function"
    },
    {
      "constant": true,
      "inputs": [
        {
          "internalType": "address",
          "name": "account",
          "type": "address"
        },
        {
          "internalType": "uint256",
          "name": "id",
          "type": "uint256"
        }
      ],
      "name": "balanceOf",
      "outputs": [
        {
          "internalType": "uint256",
          "name": "",
          "type": "uint256"
        }
      ],
      "payable": false,
      "stateMutability": "view",
      "type": "function"
    },
    {
      "constant": true,
      "inputs": [
        {
          "internalType": "address[]",
          "name": "accounts",
          "type": "address[]"
        },
        {
          "internalType": "uint256[]",
          "name": "ids",
          "type": "uint256[]"
        }
      ],
      "name": "balanceOfBatch",
      "outputs": [
        {
          "internalType": "uint256[]",
          "name": "",
          "type": "uint256[]"
        }
      ],
      "payable": false,
      "stateMutability": "view",
      "type": "function"
    },
    {
      "constant": false,
      "inputs": [
        {
          "internalType": "address",
          "name": "recipient",
          "type": "address"
        },
        {
          "internalType": "uint256",
          "name": "id",
          "type": "uint256"
        },
        {
          "internalType": "uint256",
          "name": "supply",
          "type": "uint256"
        },
        {
          "internalType": "uint256",
          "name": "metadataHash",
          "type": "uint256"
        },
        {
          "internalType": "uint256",
          "name": "storageCreditCost",
          "type": "uint256"
        },
        {
          "internalType": "uint256",
          "name": "minHoldingForCallback",
          "type": "uint256"
        },
        {
          "internalType": "address[]",
          "name": "feesRecipients",
          "type": "address[]"
        },
        {
          "internalType": "uint256[]",
          "name": "feesRecipientsPercentage",
          "type": "uint256[]"
        }
      ],
      "name": "createToken",
      "outputs": [],
      "payable": false,
      "stateMutability": "nonpayable",
      "type": "function"
    },
    {
      "constant": true,
      "inputs": [
        {
          "internalType": "address",
          "name": "account",
          "type": "address"
        },
        {
          "internalType": "address",
          "name": "operator",
          "type": "address"
        }
      ],
      "name": "isApprovedForAll",
      "outputs": [
        {
          "internalType": "bool",
          "name": "",
          "type": "bool"
        }
      ],
      "payable": false,
      "stateMutability": "view",
      "type": "function"
    },
    {
      "constant": true,
      "inputs": [
        {
          "internalType": "address",
          "name": "tokenizer",
          "type": "address"
        }
      ],
      "name": "isTokenizer",
      "outputs": [
        {
          "internalType": "bool",
          "name": "",
          "type": "bool"
        }
      ],
      "payable": false,
      "stateMutability": "view",
      "type": "function"
    },
    {
      "constant": true,
      "inputs": [
        {
          "internalType": "uint256",
          "name": "id",
          "type": "uint256"
        }
      ],
      "name": "metadataHash",
      "outputs": [
        {
          "internalType": "uint256",
          "name": "",
          "type": "uint256"
        }
      ],
      "payable": false,
      "stateMutability": "view",
      "type": "function"
    },
    {
      "constant": true,
      "inputs": [],
      "name": "owner",
      "outputs": [
        {
          "internalType": "address",
          "name": "",
          "type": "address"
        }
      ],
      "payable": false,
      "stateMutability": "view",
      "type": "function"
    },
    {
      "constant": false,
      "inputs": [
        {
          "internalType": "address",
          "name": "tokenizer",
          "type": "address"
        }
      ],
      "name": "revokeTokenizer",
      "outputs": [],
      "payable": false,
      "stateMutability": "nonpayable",
      "type": "function"
    },
    {
      "constant": false,
      "inputs": [
        {
          "internalType": "address",
          "name": "from",
          "type": "address"
        },
        {
          "internalType": "address",
          "name": "to",
          "type": "address"
        },
        {
          "internalType": "uint256[]",
          "name": "ids",
          "type": "uint256[]"
        },
        {
          "internalType": "uint256[]",
          "name": "values",
          "type": "uint256[]"
        },
        {
          "internalType": "bytes",
          "name": "data",
          "type": "bytes"
        }
      ],
      "name": "safeBatchTransferFrom",
      "outputs": [],
      "payable": true,
      "stateMutability": "payable",
      "type": "function"
    },
    {
      "constant": false,
      "inputs": [
        {
          "internalType": "address",
          "name": "from",
          "type": "address"
        },
        {
          "internalType": "address",
          "name": "to",
          "type": "address"
        },
        {
          "internalType": "uint256",
          "name": "id",
          "type": "uint256"
        },
        {
          "internalType": "uint256",
          "name": "value",
          "type": "uint256"
        },
        {
          "internalType": "bytes",
          "name": "data",
          "type": "bytes"
        }
      ],
      "name": "safeTransferFrom",
      "outputs": [],
      "payable": true,
      "stateMutability": "payable",
      "type": "function"
    },
    {
      "constant": false,
      "inputs": [
        {
          "internalType": "address",
          "name": "operator",
          "type": "address"
        },
        {
          "internalType": "bool",
          "name": "approved",
          "type": "bool"
        }
      ],
      "name": "setApprovalForAll",
      "outputs": [],
      "payable": false,
      "stateMutability": "nonpayable",
      "type": "function"
    },
    {
      "constant": true,
      "inputs": [
        {
          "internalType": "address",
          "name": "account",
          "type": "address"
        },
        {
          "internalType": "uint256",
          "name": "id",
          "type": "uint256"
        },
        {
          "internalType": "uint256",
          "name": "value",
          "type": "uint256"
        }
      ],
      "name": "storageFees",
      "outputs": [
        {
          "internalType": "uint256",
          "name": "",
          "type": "uint256"
        }
      ],
      "payable": false,
      "stateMutability": "view",
      "type": "function"
    },
    {
      "constant": true,
      "inputs": [
        {
          "internalType": "bytes4",
          "name": "_interfaceID",
          "type": "bytes4"
        }
      ],
      "name": "supportsInterface",
      "outputs": [
        {
          "internalType": "bool",
          "name": "",
          "type": "bool"
        }
      ],
      "payable": false,
      "stateMutability": "view",
      "type": "function"
    },
    {
      "constant": false,
      "inputs": [
        {
          "internalType": "address",
          "name": "newOwner",
          "type": "address"
        }
      ],
      "name": "transferOwnership",
      "outputs": [],
      "payable": false,
      "stateMutability": "nonpayable",
      "type": "function"
    },
    {
      "constant": false,
      "inputs": [
        {
          "internalType": "uint256",
          "name": "id",
          "type": "uint256"
        },
        {
          "internalType": "uint256",
          "name": "metadataHash",
          "type": "uint256"
        }
      ],
      "name": "updateMetadataHash",
      "outputs": [],
      "payable": false,
      "stateMutability": "nonpayable",
      "type": "function"
    },
    {
      "constant": false,
      "inputs": [
        {
          "internalType": "uint256",
          "name": "id",
          "type": "uint256"
        },
        {
          "internalType": "uint256",
          "name": "newCost",
          "type": "uint256"
        }
      ],
      "name": "updateStorageCost",
      "outputs": [],
      "payable": false,
      "stateMutability": "nonpayable",
      "type": "function"
    },
    {
      "constant": false,
      "inputs": [
        {
          "internalType": "uint256",
          "name": "newPrice",
          "type": "uint256"
        }
      ],
      "name": "updateStorageCreditPrice",
      "outputs": [],
      "payable": false,
      "stateMutability": "nonpayable",
      "type": "function"
    },
    {
      "constant": true,
      "inputs": [
        {
          "internalType": "uint256",
          "name": "id",
          "type": "uint256"
        }
      ],
      "name": "uri",
      "outputs": [
        {
          "internalType": "string",
          "name": "",
          "type": "string"
        }
      ],
      "payable": false,
      "stateMutability": "view",
      "type": "function"
    },
    {
      "constant": false,
      "inputs": [
        {
          "internalType": "address",
          "name": "to",
          "type": "address"
        },
        {
          "internalType": "uint256",
          "name": "amount",
          "type": "uint256"
        }
      ],
      "name": "withdraw",
      "outputs": [],
      "payable": false,
      "stateMutability": "nonpayable",
      "type": "function"
    },
    {
      "constant": false,
      "inputs": [
        {
          "internalType": "uint256",
          "name": "id",
          "type": "uint256"
        },
        {
          "internalType": "uint256",
          "name": "price",
          "type": "uint256"
        }
      ],
      "name": "proposeCallback",
      "outputs": [],
      "payable": true,
      "stateMutability": "payable",
      "type": "function"
    },
    {
      "constant": false,
      "inputs": [
        {
          "internalType": "uint256",
          "name": "id",
          "type": "uint256"
        },
        {
          "internalType": "address",
          "name": "proposer",
          "type": "address"
        }
      ],
      "name": "refuseCallback",
      "outputs": [],
      "payable": false,
      "stateMutability": "nonpayable",
      "type": "function"
    },
    {
      "constant": false,
      "inputs": [
        {
          "internalType": "uint256",
          "name": "id",
          "type": "uint256"
        },
        {
          "internalType": "address",
          "name": "proposer",
          "type": "address"
        }
      ],
      "name": "acceptCallback",
      "outputs": [],
      "payable": false,
      "stateMutability": "nonpayable",
      "type": "function"
    }
  ],
  "bytecode": "0x60806040526103e86004556200001b336200002160201b60201c565b620001ed565b600073ffffffffffffffffffffffffffffffffffffffff168173ffffffffffffffffffffffffffffffffffffffff16141562000094576040517f08c379a00000000000000000000000000000000000000000000000000000000081526004016200008b90620001ba565b60405180910390fd5b8073ffffffffffffffffffffffffffffffffffffffff166000809054906101000a900473ffffffffffffffffffffffffffffffffffffffff1673ffffffffffffffffffffffffffffffffffffffff167f8be0079c531659141344cd1fd0a4f28419497f9722a3daafe3b4186f6b6457e060405160405180910390a3806000806101000a81548173ffffffffffffffffffffffffffffffffffffffff021916908373ffffffffffffffffffffffffffffffffffffffff16021790555050565b600062000161602683620001dc565b91507f4f776e61626c653a206e6577206f776e657220697320746865207a65726f206160008301527f64647265737300000000000000000000000000000000000000000000000000006020830152604082019050919050565b60006020820190508181036000830152620001d58162000152565b9050919050565b600082825260208201905092915050565b615ff080620001fd6000396000f3fe6080604052600436106101c15760003560e01c80638870147b116100f7578063cf6c97ca11610095578063ea2bd64d11610064578063ea2bd64d146106a1578063f242432a146106de578063f2fde38b146106fa578063f3fef3a314610723576101c1565b8063cf6c97ca146105d3578063d7b80ebc146105fc578063dbddb26a14610639578063e985e9c514610664576101c1565b8063a22cb465116100d1578063a22cb46514610507578063a294007214610530578063c02f303c14610559578063c4be3c3c14610596576101c1565b80638870147b1461048a5780638da5cb5b146104b3578063939cd641146104de576101c1565b80634e1273f4116101645780636fe8ded21161013e5780636fe8ded2146103f357806370e0b1451461041c5780637627b732146104385780638495b14114610461576101c1565b80634e1273f4146103505780636b62becb1461038d5780636eb987c7146103b6576101c1565b8063119c0737116101a0578063119c07371461027d57806315276e62146102ba578063219cc8bc146102f75780632eb2c2d614610334576101c1565b8062fdd58e146101c657806301ffc9a7146102035780630e89341c14610240575b600080fd5b3480156101d257600080fd5b506101ed60048036036101e89190810190614521565b61074c565b6040516101fa9190615ce2565b60405180910390f35b34801561020f57600080fd5b5061022a60048036036102259190810190614703565b610816565b6040516102379190615843565b60405180910390f35b34801561024c57600080fd5b5061026760048036036102629190810190614755565b6108c7565b6040516102749190615880565b60405180910390f35b34801561028957600080fd5b506102a4600480360361029f91908101906147ba565b610917565b6040516102b191906156b7565b60405180910390f35b3480156102c657600080fd5b506102e160048036036102dc9190810190614755565b610962565b6040516102ee9190615843565b60405180910390f35b34801561030357600080fd5b5061031e60048036036103199190810190614755565b610982565b60405161032b9190615ce2565b60405180910390f35b61034e60048036036103499190810190614387565b61099f565b005b34801561035c57600080fd5b5061037760048036036103729190810190614697565b610d4c565b6040516103849190615821565b60405180910390f35b34801561039957600080fd5b506103b460048036036103af91908101906147ba565b610efe565b005b3480156103c257600080fd5b506103dd60048036036103d89190810190614521565b610f54565b6040516103ea9190615ce2565b60405180910390f35b3480156103ff57600080fd5b5061041a6004803603610415919081019061477e565b610f82565b005b610436600480360361043191908101906147ba565b6111d9565b005b34801561044457600080fd5b5061045f600480360361045a9190810190614322565b6114df565b005b34801561046d57600080fd5b5061048860048036036104839190810190614755565b611581565b005b34801561049657600080fd5b506104b160048036036104ac9190810190614322565b611621565b005b3480156104bf57600080fd5b506104c86116c3565b6040516104d591906156b7565b60405180910390f35b3480156104ea57600080fd5b50610505600480360361050091908101906147ba565b6116ec565b005b34801561051357600080fd5b5061052e600480360361052991908101906144e5565b6117eb565b005b34801561053c57600080fd5b506105576004803603610552919081019061477e565b611957565b005b34801561056557600080fd5b50610580600480360361057b9190810190614322565b611f75565b60405161058d9190615843565b60405180910390f35b3480156105a257600080fd5b506105bd60048036036105b8919081019061455d565b611f87565b6040516105ca9190615ce2565b60405180910390f35b3480156105df57600080fd5b506105fa60048036036105f591908101906145ac565b611f9d565b005b34801561060857600080fd5b50610623600480360361061e9190810190614322565b612083565b6040516106309190615ce2565b60405180910390f35b34801561064557600080fd5b5061064e61209b565b60405161065b919061585e565b60405180910390f35b34801561067057600080fd5b5061068b6004803603610686919081019061434b565b6120d4565b6040516106989190615843565b60405180910390f35b3480156106ad57600080fd5b506106c860048036036106c3919081019061477e565b612168565b6040516106d59190615ce2565b60405180910390f35b6106f860048036036106f39190810190614453565b61218d565b005b34801561070657600080fd5b50610721600480360361071c9190810190614322565b612429565b005b34801561072f57600080fd5b5061074a60048036036107459190810190614521565b61247c565b005b60008073ffffffffffffffffffffffffffffffffffffffff168373ffffffffffffffffffffffffffffffffffffffff1614156107bd576040517f08c379a00000000000000000000000000000000000000000000000000000000081526004016107b4906158e2565b60405180910390fd5b6001600083815260200190815260200160002060008473ffffffffffffffffffffffffffffffffffffffff1673ffffffffffffffffffffffffffffffffffffffff16815260200190815260200160002054905092915050565b60006301ffc9a760e01b7bffffffffffffffffffffffffffffffffffffffffffffffffffffffff1916827bffffffffffffffffffffffffffffffffffffffffffffffffffffffff191614806108af575063d9b67a2660e01b7bffffffffffffffffffffffffffffffffffffffffffffffffffffffff1916827bffffffffffffffffffffffffffffffffffffffffffffffffffffffff1916145b156108bd57600190506108c2565b600090505b919050565b60606109106040518060400160405280601d81526020017f68747470733a2f2f7374617368626c6f782e636f6d2f746f6b656e732f00000081525061090b84612643565b612732565b9050919050565b6009602052816000526040600020818154811061093057fe5b906000526020600020016000915091509054906101000a900473ffffffffffffffffffffffffffffffffffffffff1681565b600c6020528060005260406000206000915054906101000a900460ff1681565b6000600d6000838152602001908152602001600020549050919050565b8383905086869050146109e7576040517f08c379a00000000000000000000000000000000000000000000000000000000081526004016109de90615be2565b60405180910390fd5b600073ffffffffffffffffffffffffffffffffffffffff168773ffffffffffffffffffffffffffffffffffffffff161415610a57576040517f08c379a0000000000000000000000000000000000000000000000000000000008152600401610a4e90615942565b60405180910390fd5b3373ffffffffffffffffffffffffffffffffffffffff168873ffffffffffffffffffffffffffffffffffffffff161480610a9e575060011515610a9a89336120d4565b1515145b610add576040517f08c379a0000000000000000000000000000000000000000000000000000000008152600401610ad490615bc2565b60405180910390fd5b600034905060008090505b87879050811015610b3357610b248a8a8a8a85818110610b0457fe5b90506020020135898986818110610b1757fe5b905060200201358661287d565b82039150806001019050610ae8565b508773ffffffffffffffffffffffffffffffffffffffff168973ffffffffffffffffffffffffffffffffffffffff163373ffffffffffffffffffffffffffffffffffffffff167f4a39dc06d4c0dbc64b70af90fd698a233a518aa5d07e595d983b8c0526c8f7fb8a8a8a8a604051610bae94939291906157e6565b60405180910390a4610c8a338a8a8a8a80806020026020016040519081016040528093929190818152602001838360200280828437600081840152601f19601f82011690508083019250505050505050898980806020026020016040519081016040528093929190818152602001838360200280828437600081840152601f19601f8201169050808301925050505050505088888080601f016020809104026020016040519081016040528093929190818152602001838380828437600081840152601f19601f82011690508083019250505050505050612f14565b6000811115610d415760003373ffffffffffffffffffffffffffffffffffffffff1682604051610cb9906156a2565b60006040518083038185875af1925050503d8060008114610cf6576040519150601f19603f3d011682016040523d82523d6000602084013e610cfb565b606091505b5050905080610d3f576040517f08c379a0000000000000000000000000000000000000000000000000000000008152600401610d3690615c22565b60405180910390fd5b505b505050505050505050565b60608151835114610d92576040517f08c379a0000000000000000000000000000000000000000000000000000000008152600401610d8990615a42565b60405180910390fd5b60608351604051908082528060200260200182016040528015610dc45781602001602082028038833980820191505090505b50905060008090505b8451811015610ef357600073ffffffffffffffffffffffffffffffffffffffff16858281518110610dfa57fe5b602002602001015173ffffffffffffffffffffffffffffffffffffffff161415610e59576040517f08c379a0000000000000000000000000000000000000000000000000000000008152600401610e5090615aa2565b60405180910390fd5b60016000858381518110610e6957fe5b602002602001015181526020019081526020016000206000868381518110610e8d57fe5b602002602001015173ffffffffffffffffffffffffffffffffffffffff1673ffffffffffffffffffffffffffffffffffffffff16815260200190815260200160002054828281518110610edc57fe5b602002602001018181525050806001019050610dcd565b508091505092915050565b610f0733613073565b610f46576040517f08c379a0000000000000000000000000000000000000000000000000000000008152600401610f3d90615a02565b60405180910390fd5b610f5082826130d8565b5050565b60086020528160005260406000208181548110610f6d57fe5b90600052602060002001600091509150505481565b610f8a613122565b610fc9576040517f08c379a0000000000000000000000000000000000000000000000000000000008152600401610fc090615b02565b60405180910390fd5b60006011600084815260200190815260200160002060008373ffffffffffffffffffffffffffffffffffffffff1673ffffffffffffffffffffffffffffffffffffffff16815260200190815260200160002060006002811061102757fe5b0154905060006011600085815260200190815260200160002060008473ffffffffffffffffffffffffffffffffffffffff1673ffffffffffffffffffffffffffffffffffffffff16815260200190815260200160002060016002811061108957fe5b01549050600082116110d0576040517f08c379a00000000000000000000000000000000000000000000000000000000081526004016110c790615b42565b60405180910390fd5b80600760008573ffffffffffffffffffffffffffffffffffffffff1673ffffffffffffffffffffffffffffffffffffffff168152602001908152602001600020600082825401925050819055506040518060400160405280600060ff168152602001600060ff168152506011600086815260200190815260200160002060008573ffffffffffffffffffffffffffffffffffffffff1673ffffffffffffffffffffffffffffffffffffffff168152602001908152602001600020906002611198929190613f11565b50837fd7e908f6f9af1236bea3e4382bb17cabca5929dec62fbb431284240820150ddd84846040516111cb9291906157bd565b60405180910390a250505050565b6000600e6000848152602001908152602001600020541161122f576040517f08c379a000000000000000000000000000000000000000000000000000000000815260040161122690615922565b60405180910390fd5b60008111611272576040517f08c379a0000000000000000000000000000000000000000000000000000000008152600401611269906159c2565b60405180910390fd5b60006112c16127106112b36010600087815260200190815260200160002054600e60008881526020019081526020016000205461317990919063ffffffff16565b6131e990919063ffffffff16565b9050806001600085815260200190815260200160002060003373ffffffffffffffffffffffffffffffffffffffff1673ffffffffffffffffffffffffffffffffffffffff168152602001908152602001600020541015611356576040517f08c379a000000000000000000000000000000000000000000000000000000000815260040161134d90615a22565b60405180910390fd5b60006113ce6001600086815260200190815260200160002060003373ffffffffffffffffffffffffffffffffffffffff1673ffffffffffffffffffffffffffffffffffffffff16815260200190815260200160002054600e60008781526020019081526020016000205461323390919063ffffffff16565b905060006113e5848361317990919063ffffffff16565b90508034101561142a576040517f08c379a000000000000000000000000000000000000000000000000000000000815260040161142190615b22565b60405180910390fd5b6040518060400160405280858152602001348152506011600087815260200190815260200160002060003373ffffffffffffffffffffffffffffffffffffffff1673ffffffffffffffffffffffffffffffffffffffff16815260200190815260200160002090600261149d929190613f56565b50847f2a7673db20f80755f65f456687dc9fd630454e8c76e428cb4a4ae1d0410cef5e33866040516114d09291906156d2565b60405180910390a25050505050565b6114e7613122565b611526576040517f08c379a000000000000000000000000000000000000000000000000000000000815260040161151d90615b02565b60405180910390fd5b6001600f60008373ffffffffffffffffffffffffffffffffffffffff1673ffffffffffffffffffffffffffffffffffffffff16815260200190815260200160002060006101000a81548160ff02191690831515021790555050565b61158a33613073565b6115c9576040517f08c379a00000000000000000000000000000000000000000000000000000000081526004016115c090615a02565b60405180910390fd5b806004819055503373ffffffffffffffffffffffffffffffffffffffff167f5c5a35dc0829d2f6a31d1d6da57c4315ba7b562ee447c87b75c732cfd96abde9826040516116169190615ce2565b60405180910390a250565b611629613122565b611668576040517f08c379a000000000000000000000000000000000000000000000000000000000815260040161165f90615b02565b60405180910390fd5b6000600f60008373ffffffffffffffffffffffffffffffffffffffff1673ffffffffffffffffffffffffffffffffffffffff16815260200190815260200160002060006101000a81548160ff02191690831515021790555050565b60008060009054906101000a900473ffffffffffffffffffffffffffffffffffffffff16905090565b6116f533613073565b611734576040517f08c379a000000000000000000000000000000000000000000000000000000000815260040161172b90615a02565b60405180910390fd5b6003600083815260200190815260200160002060405180604001604052804281526020018381525090806001815401808255809150509060018203906000526020600020906002020160009091929091909150906002611795929190613f56565b50503373ffffffffffffffffffffffffffffffffffffffff167f4bd9446604f43017ac3918d8db419b59a3b6f2a6cdd456eed5de99621bb6276583836040516117df929190615cfd565b60405180910390a25050565b8173ffffffffffffffffffffffffffffffffffffffff163373ffffffffffffffffffffffffffffffffffffffff16141561185a576040517f08c379a0000000000000000000000000000000000000000000000000000000008152600401611851906159a2565b60405180910390fd5b80600b60003373ffffffffffffffffffffffffffffffffffffffff1673ffffffffffffffffffffffffffffffffffffffff16815260200190815260200160002060008473ffffffffffffffffffffffffffffffffffffffff1673ffffffffffffffffffffffffffffffffffffffff16815260200190815260200160002060006101000a81548160ff0219169083151502179055508173ffffffffffffffffffffffffffffffffffffffff163373ffffffffffffffffffffffffffffffffffffffff167f17307eab39ab6107e8899845ad3d59bd9653f200f220920489ca2b5937696c318360405161194b9190615843565b60405180910390a35050565b61195f613122565b61199e576040517f08c379a000000000000000000000000000000000000000000000000000000000815260040161199590615b02565b60405180910390fd5b60006011600084815260200190815260200160002060008373ffffffffffffffffffffffffffffffffffffffff1673ffffffffffffffffffffffffffffffffffffffff1681526020019081526020016000206000600281106119fc57fe5b0154905060006011600085815260200190815260200160002060008473ffffffffffffffffffffffffffffffffffffffff1673ffffffffffffffffffffffffffffffffffffffff168152602001908152602001600020600160028110611a5e57fe5b0154905060008211611aa5576040517f08c379a0000000000000000000000000000000000000000000000000000000008152600401611a9c90615b42565b60405180910390fd5b6000611af4612710611ae66010600089815260200190815260200160002054600e60008a81526020019081526020016000205461317990919063ffffffff16565b6131e990919063ffffffff16565b9050806001600087815260200190815260200160002060003373ffffffffffffffffffffffffffffffffffffffff1673ffffffffffffffffffffffffffffffffffffffff168152602001908152602001600020541015611b89576040517f08c379a0000000000000000000000000000000000000000000000000000000008152600401611b80906158c2565b60405180910390fd5b6000611c016001600088815260200190815260200160002060003373ffffffffffffffffffffffffffffffffffffffff1673ffffffffffffffffffffffffffffffffffffffff16815260200190815260200160002054600e60008981526020019081526020016000205461323390919063ffffffff16565b90506000611c18858361317990919063ffffffff16565b905080841015611c5d576040517f08c379a0000000000000000000000000000000000000000000000000000000008152600401611c5490615ba2565b60405180910390fd5b60008090505b6009600089815260200190815260200160002080549050811015611df5576000600960008a81526020019081526020016000208281548110611ca157fe5b9060005260206000200160009054906101000a900473ffffffffffffffffffffffffffffffffffffffff1690506000600160008b815260200190815260200160002060008373ffffffffffffffffffffffffffffffffffffffff1673ffffffffffffffffffffffffffffffffffffffff1681526020019081526020016000205490506000811115611de8576000611d41828a61317990919063ffffffff16565b905080600760008573ffffffffffffffffffffffffffffffffffffffff1673ffffffffffffffffffffffffffffffffffffffff168152602001908152602001600020600082825401925050819055506000600160008d815260200190815260200160002060008573ffffffffffffffffffffffffffffffffffffffff1673ffffffffffffffffffffffffffffffffffffffff16815260200190815260200160002081905550505b5050806001019050611c63565b50600e6000888152602001908152602001600020546001600089815260200190815260200160002060008873ffffffffffffffffffffffffffffffffffffffff1673ffffffffffffffffffffffffffffffffffffffff1681526020019081526020016000208190555080841115611eb657808403600760008873ffffffffffffffffffffffffffffffffffffffff1673ffffffffffffffffffffffffffffffffffffffff168152602001908152602001600020600082825401925050819055505b6040518060400160405280600060ff168152602001600060ff168152506011600089815260200190815260200160002060008873ffffffffffffffffffffffffffffffffffffffff1673ffffffffffffffffffffffffffffffffffffffff168152602001908152602001600020906002611f31929190613f11565b50867f1a28571d07f35a57e1ed755a57928ae32539f444bbcef661637165f04fb5083f8787604051611f649291906157bd565b60405180910390a250505050505050565b6000611f8082613073565b9050919050565b6000611f9484848461327d565b90509392505050565b611fa633613073565b611fe5576040517f08c379a0000000000000000000000000000000000000000000000000000000008152600401611fdc90615a02565b60405180910390fd5b6120778a8a8a8a8a8a8a8a80806020026020016040519081016040528093929190818152602001838360200280828437600081840152601f19601f82011690508083019250505050505050898980806020026020016040519081016040528093929190818152602001838360200280828437600081840152601f19601f820116905080830192505050505050506134ce565b50505050505050505050565b60076020528060005260406000206000915090505481565b6040518060400160405280601d81526020017f68747470733a2f2f7374617368626c6f782e636f6d2f746f6b656e732f00000081525081565b6000600b60008473ffffffffffffffffffffffffffffffffffffffff1673ffffffffffffffffffffffffffffffffffffffff16815260200190815260200160002060008373ffffffffffffffffffffffffffffffffffffffff1673ffffffffffffffffffffffffffffffffffffffff16815260200190815260200160002060009054906101000a900460ff16905092915050565b6002602052816000526040600020602052806000526040600020600091509150505481565b600073ffffffffffffffffffffffffffffffffffffffff168573ffffffffffffffffffffffffffffffffffffffff1614156121fd576040517f08c379a00000000000000000000000000000000000000000000000000000000081526004016121f490615942565b60405180910390fd5b3373ffffffffffffffffffffffffffffffffffffffff168673ffffffffffffffffffffffffffffffffffffffff16148061224457506001151561224087336120d4565b1515145b612283576040517f08c379a000000000000000000000000000000000000000000000000000000000815260040161227a90615bc2565b60405180910390fd5b6000349050612295878787878561287d565b810390508573ffffffffffffffffffffffffffffffffffffffff168773ffffffffffffffffffffffffffffffffffffffff163373ffffffffffffffffffffffffffffffffffffffff167fc3d58168c5ae7397731d063d5bbf3d657854427343f4c083240f7aacaa2d0f62888860405161230f929190615cfd565b60405180910390a4612369338888888888888080601f016020809104026020016040519081016040528093929190818152602001838380828437600081840152601f19601f82011690508083019250505050505050613a7f565b60008111156124205760003373ffffffffffffffffffffffffffffffffffffffff1682604051612398906156a2565b60006040518083038185875af1925050503d80600081146123d5576040519150601f19603f3d011682016040523d82523d6000602084013e6123da565b606091505b505090508061241e576040517f08c379a000000000000000000000000000000000000000000000000000000000815260040161241590615c22565b60405180910390fd5b505b50505050505050565b612431613122565b612470576040517f08c379a000000000000000000000000000000000000000000000000000000000815260040161246790615b02565b60405180910390fd5b61247981613bde565b50565b612484613122565b6124c3576040517f08c379a00000000000000000000000000000000000000000000000000000000081526004016124ba90615b02565b60405180910390fd5b80600760008473ffffffffffffffffffffffffffffffffffffffff1673ffffffffffffffffffffffffffffffffffffffff168152602001908152602001600020541015612545576040517f08c379a000000000000000000000000000000000000000000000000000000000815260040161253c90615982565b60405180910390fd5b60008273ffffffffffffffffffffffffffffffffffffffff168260405161256b906156a2565b60006040518083038185875af1925050503d80600081146125a8576040519150601f19603f3d011682016040523d82523d6000602084013e6125ad565b606091505b50509050806125f1576040517f08c379a00000000000000000000000000000000000000000000000000000000081526004016125e8906158a2565b60405180910390fd5b81600760008573ffffffffffffffffffffffffffffffffffffffff1673ffffffffffffffffffffffffffffffffffffffff16815260200190815260200160002060008282540392505081905550505050565b6060600080905060008390505b600081146126725781806001019250506010818161266a57fe5b049050612650565b6060826040519080825280601f01601f1916602001820160405280156126a75781602001600182028038833980820191505090505b50905060008090505b8381101561272657601086816126c257fe5b0692506126ce83613d0c565b82600183870303815181106126df57fe5b60200101907effffffffffffffffffffffffffffffffffffffffffffffffffffffffffffff1916908160001a9053506010868161271857fe5b0495508060010190506126b0565b50809350505050919050565b6060808390506060839050606081518351016040519080825280601f01601f1916602001820160405280156127765781602001600182028038833980820191505090505b509050606081905060008090506000809050600090505b85518110156127fb578581815181106127a257fe5b602001015160f81c60f81b8383806001019450815181106127bf57fe5b60200101907effffffffffffffffffffffffffffffffffffffffffffffffffffffffffffff1916908160001a905350808060010191505061278d565b600090505b845181101561286e5784818151811061281557fe5b602001015160f81c60f81b83838060010194508151811061283257fe5b60200101907effffffffffffffffffffffffffffffffffffffffffffffffffffffffffffff1916908160001a9053508080600101915050612800565b82965050505050505092915050565b600061288a86858561327d565b9050808210156128cf576040517f08c379a00000000000000000000000000000000000000000000000000000000081526004016128c690615cc2565b60405180910390fd5b61294c836040518060600160405280602a8152602001615f84602a91396001600088815260200190815260200160002060008a73ffffffffffffffffffffffffffffffffffffffff1673ffffffffffffffffffffffffffffffffffffffff16815260200190815260200160002054613db59092919063ffffffff16565b6001600086815260200190815260200160002060008873ffffffffffffffffffffffffffffffffffffffff1673ffffffffffffffffffffffffffffffffffffffff168152602001908152602001600020819055506000612a05846001600088815260200190815260200160002060008973ffffffffffffffffffffffffffffffffffffffff1673ffffffffffffffffffffffffffffffffffffffff16815260200190815260200160002054613e1090919063ffffffff16565b905060006001600087815260200190815260200160002060008873ffffffffffffffffffffffffffffffffffffffff1673ffffffffffffffffffffffffffffffffffffffff168152602001908152602001600020541415612c5957600a600086815260200190815260200160002060008773ffffffffffffffffffffffffffffffffffffffff1673ffffffffffffffffffffffffffffffffffffffff16815260200190815260200160002060009054906101000a900460ff16612bff57600860008773ffffffffffffffffffffffffffffffffffffffff1673ffffffffffffffffffffffffffffffffffffffff168152602001908152602001600020859080600181540180825580915050906001820390600052602060002001600090919290919091505550600960008681526020019081526020016000208690806001815401808255809150509060018203906000526020600020016000909192909190916101000a81548173ffffffffffffffffffffffffffffffffffffffff021916908373ffffffffffffffffffffffffffffffffffffffff16021790555050600a600086815260200190815260200160002060008773ffffffffffffffffffffffffffffffffffffffff1673ffffffffffffffffffffffffffffffffffffffff16815260200190815260200160002060009054906101000a9050505b426002600087815260200190815260200160002060008873ffffffffffffffffffffffffffffffffffffffff1673ffffffffffffffffffffffffffffffffffffffff16815260200190815260200160002081905550612d93565b6000612cbe6002600088815260200190815260200160002060008973ffffffffffffffffffffffffffffffffffffffff1673ffffffffffffffffffffffffffffffffffffffff168152602001908152602001600020544261323390919063ffffffff16565b90506000612d3783612d2984600160008c815260200190815260200160002060008d73ffffffffffffffffffffffffffffffffffffffff1673ffffffffffffffffffffffffffffffffffffffff1681526020019081526020016000205461317990919063ffffffff16565b6131e990919063ffffffff16565b90508042036002600089815260200190815260200160002060008a73ffffffffffffffffffffffffffffffffffffffff1673ffffffffffffffffffffffffffffffffffffffff1681526020019081526020016000208190555050505b806001600087815260200190815260200160002060008873ffffffffffffffffffffffffffffffffffffffff1673ffffffffffffffffffffffffffffffffffffffff1681526020019081526020016000208190555060008090505b6005600087815260200190815260200160002080549050811015612f06576000600560008881526020019081526020016000208281548110612e2c57fe5b9060005260206000200160009054906101000a900473ffffffffffffffffffffffffffffffffffffffff1690506000600660008981526020019081526020016000208381548110612e7957fe5b90600052602060002001549050612ead612710612e9f838861317990919063ffffffff16565b6131e990919063ffffffff16565b600760008473ffffffffffffffffffffffffffffffffffffffff1673ffffffffffffffffffffffffffffffffffffffff168152602001908152602001600020600082825401925050819055505050806001019050612dee565b508191505095945050505050565b612f338473ffffffffffffffffffffffffffffffffffffffff16613e65565b1561306b578373ffffffffffffffffffffffffffffffffffffffff1663bc197c81905060e01b7bffffffffffffffffffffffffffffffffffffffffffffffffffffffff19168473ffffffffffffffffffffffffffffffffffffffff1663bc197c8188888787876040518663ffffffff1660e01b8152600401612fb99594939291906156fb565b602060405180830381600087803b158015612fd357600080fd5b505af1158015612fe7573d6000803e3d6000fd5b505050506040513d601f19601f8201168201806040525061300b919081019061472c565b7bffffffffffffffffffffffffffffffffffffffffffffffffffffffff19161461306a576040517f08c379a000000000000000000000000000000000000000000000000000000000815260040161306190615a82565b60405180910390fd5b5b505050505050565b6000600f60008373ffffffffffffffffffffffffffffffffffffffff1673ffffffffffffffffffffffffffffffffffffffff16815260200190815260200160002060009054906101000a900460ff16806130d157506130d0613122565b5b9050919050565b80600d60008481526020019081526020016000208190555080827f9cd9c60390fc75c213fd8d644749f61388dd30ed6c6eb4647b793b5b580fb43060405160405180910390a35050565b60008060009054906101000a900473ffffffffffffffffffffffffffffffffffffffff1673ffffffffffffffffffffffffffffffffffffffff163373ffffffffffffffffffffffffffffffffffffffff1614905090565b60008083141561318c57600090506131e3565b600082840290508284828161319d57fe5b04146131de576040517f08c379a00000000000000000000000000000000000000000000000000000000081526004016131d590615ac2565b60405180910390fd5b809150505b92915050565b600061322b83836040518060400160405280601a81526020017f536166654d6174683a206469766973696f6e206279207a65726f000000000000815250613eb0565b905092915050565b600061327583836040518060400160405280601e81526020017f536166654d6174683a207375627472616374696f6e206f766572666c6f770000815250613db5565b905092915050565b60008073ffffffffffffffffffffffffffffffffffffffff168473ffffffffffffffffffffffffffffffffffffffff1614156132ee576040517f08c379a00000000000000000000000000000000000000000000000000000000081526004016132e5906158e2565b60405180910390fd5b600080905060004290506000600160036000888152602001908152602001600020805490500390505b600081106134c157600060036000888152602001908152602001600020828154811061333f57fe5b906000526020600020906002020160006002811061335957fe5b0154905060006305f5e100600454600360008b8152602001908152602001600020858154811061338557fe5b906000526020600020906002020160016002811061339f57fe5b015402816133a957fe5b049050600082600260008b815260200190815260200160002060008c73ffffffffffffffffffffffffffffffffffffffff1673ffffffffffffffffffffffffffffffffffffffff16815260200190815260200160002054106134855762015180600260008b815260200190815260200160002060008c73ffffffffffffffffffffffffffffffffffffffff1673ffffffffffffffffffffffffffffffffffffffff1681526020019081526020016000205486038161346357fe5b049050600081141561347457600190505b8782820202860195505050506134c1565b620151808386038161349357fe5b04905060008114156134a457600190505b829450878282020286019550505050808060019003915050613317565b5081925050509392505050565b6000600e60008981526020019081526020016000205414613524576040517f08c379a000000000000000000000000000000000000000000000000000000000815260040161351b90615ae2565b60405180910390fd5b60008611613567576040517f08c379a000000000000000000000000000000000000000000000000000000000815260040161355e90615a62565b60405180910390fd5b600084116135aa576040517f08c379a00000000000000000000000000000000000000000000000000000000081526004016135a1906159e2565b60405180910390fd5b600083116135ed576040517f08c379a00000000000000000000000000000000000000000000000000000000081526004016135e490615ca2565b60405180910390fd5b612710831115613632576040517f08c379a000000000000000000000000000000000000000000000000000000000815260040161362990615c02565b60405180910390fd5b6000825111613676576040517f08c379a000000000000000000000000000000000000000000000000000000000815260040161366d90615c62565b60405180910390fd5b80518251146136ba576040517f08c379a00000000000000000000000000000000000000000000000000000000081526004016136b190615c42565b60405180910390fd5b600080905060008090505b8251811015613747578281815181106136da57fe5b60200260200101518201915060008382815181106136f457fe5b60200260200101511161373c576040517f08c379a000000000000000000000000000000000000000000000000000000000815260040161373390615b62565b60405180910390fd5b8060010190506136c5565b50612710811461378c576040517f08c379a000000000000000000000000000000000000000000000000000000000815260040161378390615b82565b60405180910390fd5b6001600a60008a815260200190815260200160002060008b73ffffffffffffffffffffffffffffffffffffffff1673ffffffffffffffffffffffffffffffffffffffff16815260200190815260200160002060006101000a81548160ff021916908315150217905550600860008a73ffffffffffffffffffffffffffffffffffffffff1673ffffffffffffffffffffffffffffffffffffffff16815260200190815260200160002088908060018154018082558091505090600182039060005260206000200160009091929091909150555086600e60008a81526020019081526020016000208190555086600160008a815260200190815260200160002060008b73ffffffffffffffffffffffffffffffffffffffff1673ffffffffffffffffffffffffffffffffffffffff168152602001908152602001600020819055506138d588876130d8565b42600260008a815260200190815260200160002060008b73ffffffffffffffffffffffffffffffffffffffff1673ffffffffffffffffffffffffffffffffffffffff16815260200190815260200160002081905550600360008981526020019081526020016000206040518060400160405280428152602001878152509080600181540180825580915050906001820390600052602060002090600202016000909192909190915090600261398b929190613f56565b505083601060008a81526020019081526020016000208190555082600560008a815260200190815260200160002090805190602001906139cc929190613f96565b5081600660008a815260200190815260200160002090805190602001906139f4929190614020565b508873ffffffffffffffffffffffffffffffffffffffff16600073ffffffffffffffffffffffffffffffffffffffff163373ffffffffffffffffffffffffffffffffffffffff167fc3d58168c5ae7397731d063d5bbf3d657854427343f4c083240f7aacaa2d0f628b8b604051613a6c929190615cfd565b60405180910390a4505050505050505050565b613a9e8473ffffffffffffffffffffffffffffffffffffffff16613e65565b15613bd6578373ffffffffffffffffffffffffffffffffffffffff1663f23a6e61905060e01b7bffffffffffffffffffffffffffffffffffffffffffffffffffffffff19168473ffffffffffffffffffffffffffffffffffffffff1663f23a6e6188888787876040518663ffffffff1660e01b8152600401613b24959493929190615763565b602060405180830381600087803b158015613b3e57600080fd5b505af1158015613b52573d6000803e3d6000fd5b505050506040513d601f19601f82011682018060405250613b76919081019061472c565b7bffffffffffffffffffffffffffffffffffffffffffffffffffffffff191614613bd5576040517f08c379a0000000000000000000000000000000000000000000000000000000008152600401613bcc90615c82565b60405180910390fd5b5b505050505050565b600073ffffffffffffffffffffffffffffffffffffffff168173ffffffffffffffffffffffffffffffffffffffff161415613c4e576040517f08c379a0000000000000000000000000000000000000000000000000000000008152600401613c4590615902565b60405180910390fd5b8073ffffffffffffffffffffffffffffffffffffffff166000809054906101000a900473ffffffffffffffffffffffffffffffffffffffff1673ffffffffffffffffffffffffffffffffffffffff167f8be0079c531659141344cd1fd0a4f28419497f9722a3daafe3b4186f6b6457e060405160405180910390a3806000806101000a81548173ffffffffffffffffffffffffffffffffffffffff021916908373ffffffffffffffffffffffffffffffffffffffff16021790555050565b60008160ff16600011158015613d26575060098260ff1611155b15613d5b57817f300000000000000000000000000000000000000000000000000000000000000060f81c0160f81b9050613db0565b8160ff16600a11158015613d735750600f8260ff1611155b15613dab57600a827f610000000000000000000000000000000000000000000000000000000000000060f81c010360f81b9050613db0565b600080fd5b919050565b6000838311158290613dfd576040517f08c379a0000000000000000000000000000000000000000000000000000000008152600401613df49190615880565b60405180910390fd5b5060008385039050809150509392505050565b600080828401905083811015613e5b576040517f08c379a0000000000000000000000000000000000000000000000000000000008152600401613e5290615962565b60405180910390fd5b8091505092915050565b60008060007fc5d2460186f7233c927e7db2dcc703c0e500b653ca82273b7bfad8045d85a47060001b9050833f91506000801b8214158015613ea75750808214155b92505050919050565b60008083118290613ef7576040517f08c379a0000000000000000000000000000000000000000000000000000000008152600401613eee9190615880565b60405180910390fd5b506000838581613f0357fe5b049050809150509392505050565b8260028101928215613f45579160200282015b82811115613f44578251829060ff16905591602001919060010190613f24565b5b509050613f52919061406d565b5090565b8260028101928215613f85579160200282015b82811115613f84578251825591602001919060010190613f69565b5b509050613f92919061406d565b5090565b82805482825590600052602060002090810192821561400f579160200282015b8281111561400e5782518260006101000a81548173ffffffffffffffffffffffffffffffffffffffff021916908373ffffffffffffffffffffffffffffffffffffffff16021790555091602001919060010190613fb6565b5b50905061401c9190614092565b5090565b82805482825590600052602060002090810192821561405c579160200282015b8281111561405b578251825591602001919060010190614040565b5b509050614069919061406d565b5090565b61408f91905b8082111561408b576000816000905550600101614073565b5090565b90565b6140d291905b808211156140ce57600081816101000a81549073ffffffffffffffffffffffffffffffffffffffff021916905550600101614098565b5090565b90565b6000813590506140e481615f27565b92915050565b60008083601f8401126140fc57600080fd5b8235905067ffffffffffffffff81111561411557600080fd5b60208301915083602082028301111561412d57600080fd5b9250929050565b600082601f83011261414557600080fd5b813561415861415382615d53565b615d26565b9150818183526020840193506020810190508385602084028201111561417d57600080fd5b60005b838110156141ad578161419388826140d5565b845260208401935060208301925050600181019050614180565b5050505092915050565b60008083601f8401126141c957600080fd5b8235905067ffffffffffffffff8111156141e257600080fd5b6020830191508360208202830111156141fa57600080fd5b9250929050565b600082601f83011261421257600080fd5b813561422561422082615d7b565b615d26565b9150818183526020840193506020810190508385602084028201111561424a57600080fd5b60005b8381101561427a5781614260888261430d565b84526020840193506020830192505060018101905061424d565b5050505092915050565b60008135905061429381615f3e565b92915050565b6000813590506142a881615f55565b92915050565b6000815190506142bd81615f55565b92915050565b60008083601f8401126142d557600080fd5b8235905067ffffffffffffffff8111156142ee57600080fd5b60208301915083600182028301111561430657600080fd5b9250929050565b60008135905061431c81615f6c565b92915050565b60006020828403121561433457600080fd5b6000614342848285016140d5565b91505092915050565b6000806040838503121561435e57600080fd5b600061436c858286016140d5565b925050602061437d858286016140d5565b9150509250929050565b60008060008060008060008060a0898b0312156143a357600080fd5b60006143b18b828c016140d5565b98505060206143c28b828c016140d5565b975050604089013567ffffffffffffffff8111156143df57600080fd5b6143eb8b828c016141b7565b9650965050606089013567ffffffffffffffff81111561440a57600080fd5b6144168b828c016141b7565b9450945050608089013567ffffffffffffffff81111561443557600080fd5b6144418b828c016142c3565b92509250509295985092959890939650565b60008060008060008060a0878903121561446c57600080fd5b600061447a89828a016140d5565b965050602061448b89828a016140d5565b955050604061449c89828a0161430d565b94505060606144ad89828a0161430d565b935050608087013567ffffffffffffffff8111156144ca57600080fd5b6144d689828a016142c3565b92509250509295509295509295565b600080604083850312156144f857600080fd5b6000614506858286016140d5565b925050602061451785828601614284565b9150509250929050565b6000806040838503121561453457600080fd5b6000614542858286016140d5565b92505060206145538582860161430d565b9150509250929050565b60008060006060848603121561457257600080fd5b6000614580868287016140d5565b93505060206145918682870161430d565b92505060406145a28682870161430d565b9150509250925092565b6000806000806000806000806000806101008b8d0312156145cc57600080fd5b60006145da8d828e016140d5565b9a505060206145eb8d828e0161430d565b99505060406145fc8d828e0161430d565b985050606061460d8d828e0161430d565b975050608061461e8d828e0161430d565b96505060a061462f8d828e0161430d565b95505060c08b013567ffffffffffffffff81111561464c57600080fd5b6146588d828e016140ea565b945094505060e08b013567ffffffffffffffff81111561467757600080fd5b6146838d828e016141b7565b92509250509295989b9194979a5092959850565b600080604083850312156146aa57600080fd5b600083013567ffffffffffffffff8111156146c457600080fd5b6146d085828601614134565b925050602083013567ffffffffffffffff8111156146ed57600080fd5b6146f985828601614201565b9150509250929050565b60006020828403121561471557600080fd5b600061472384828501614299565b91505092915050565b60006020828403121561473e57600080fd5b600061474c848285016142ae565b91505092915050565b60006020828403121561476757600080fd5b60006147758482850161430d565b91505092915050565b6000806040838503121561479157600080fd5b600061479f8582860161430d565b92505060206147b0858286016140d5565b9150509250929050565b600080604083850312156147cd57600080fd5b60006147db8582860161430d565b92505060206147ec8582860161430d565b9150509250929050565b60006148028383615684565b60208301905092915050565b61481781615e9e565b82525050565b61482681615e2a565b82525050565b60006148388385615dec565b93507f07ffffffffffffffffffffffffffffffffffffffffffffffffffffffffffffff83111561486757600080fd5b602083029250614878838584615ed4565b82840190509392505050565b600061488f82615db3565b6148998185615dec565b93506148a483615da3565b8060005b838110156148d55781516148bc88826147f6565b97506148c783615ddf565b9250506001810190506148a8565b5085935050505092915050565b6148eb81615e3c565b82525050565b60006148fc82615dbe565b6149068185615dfd565b9350614916818560208601615ee3565b61491f81615f16565b840191505092915050565b600061493582615dd4565b61493f8185615e19565b935061494f818560208601615ee3565b61495881615f16565b840191505092915050565b600061496e82615dc9565b6149788185615e19565b9350614988818560208601615ee3565b61499181615f16565b840191505092915050565b60006149a9601d83615e19565b91507f5374617368426c6f783a205769746864726177616c206661696c65642e0000006000830152602082019050919050565b60006149e9603883615e19565b91507f5374617368426c6f783a20696e73756666696369656e742062616c616e63652060008301527f746f2065786563757465207468652063616c6c6261636b2e00000000000000006020830152604082019050919050565b6000614a4f602b83615e19565b91507f455243313135353a2062616c616e636520717565727920666f7220746865207a60008301527f65726f20616464726573730000000000000000000000000000000000000000006020830152604082019050919050565b6000614ab5602683615e19565b91507f4f776e61626c653a206e6577206f776e657220697320746865207a65726f206160008301527f64647265737300000000000000000000000000000000000000000000000000006020830152604082019050919050565b6000614b1b601983615e19565b91507f5374617368426c6f783a20556e6b6e6f776e20746f6b656e2e000000000000006000830152602082019050919050565b6000614b5b602883615e19565b91507f455243313135353a207461726765742061646472657373206d7573742062652060008301527f6e6f6e2d7a65726f0000000000000000000000000000000000000000000000006020830152604082019050919050565b6000614bc1601b83615e19565b91507f536166654d6174683a206164646974696f6e206f766572666c6f7700000000006000830152602082019050919050565b6000614c01602083615e19565b91507f5374617368426c6f783a20496e73756666696369656e742062616c616e63652e6000830152602082019050919050565b6000614c41602c83615e19565b91507f455243313135353a2063616e6e6f742073657420617070726f76616c2073746160008301527f74757320666f722073656c6600000000000000000000000000000000000000006020830152604082019050919050565b6000614ca7602883615e19565b91507f5374617368426c6f783a205072696365206d757374206265206772656174657260008301527f207468616e20302e0000000000000000000000000000000000000000000000006020830152604082019050919050565b6000614d0d603583615e19565b91507f5374617368426c6f783a2073746f72616765437265646974436f73742073686f60008301527f756c642062652067726561746572207468616e203000000000000000000000006020830152604082019050919050565b6000614d73602383615e19565b91507f4d696e7461626c653a2063616c6c6572206973206e6f74206120746f6b656e6960008301527f7a657200000000000000000000000000000000000000000000000000000000006020830152604082019050919050565b6000614dd9603683615e19565b91507f5374617368426c6f783a20696e73756666696369656e742062616c616e63652060008301527f746f2070726f706f736520612063616c6c6261636b2e000000000000000000006020830152604082019050919050565b6000614e3f603083615e19565b91507f455243313135353a206163636f756e747320616e6420494473206d757374206860008301527f6176652073616d65206c656e67746873000000000000000000000000000000006020830152604082019050919050565b6000614ea5602a83615e19565b91507f5374617368426c6f783a20737570706c792073686f756c64206265206772656160008301527f746572207468616e2030000000000000000000000000000000000000000000006020830152604082019050919050565b6000614f0b603683615e19565b91507f455243313135353a20676f7420756e6b6e6f776e2076616c75652066726f6d2060008301527f6f6e4552433131353542617463685265636569766564000000000000000000006020830152604082019050919050565b6000614f71603483615e19565b91507f455243313135353a20736f6d65206164647265737320696e206261746368206260008301527f616c616e6365207175657279206973207a65726f0000000000000000000000006020830152604082019050919050565b6000614fd7602183615e19565b91507f536166654d6174683a206d756c7469706c69636174696f6e206f766572666c6f60008301527f77000000000000000000000000000000000000000000000000000000000000006020830152604082019050919050565b600061503d601f83615e19565b91507f5374617368426c6f783a20546f6b656e20616c7265616479206d696e746564006000830152602082019050919050565b600061507d602083615e19565b91507f4f776e61626c653a2063616c6c6572206973206e6f7420746865206f776e65726000830152602082019050919050565b60006150bd603583615e19565b91507f5374617368426c6f783a20696e73756666696369656e742076616c756520666f60008301527f72207468652070726f706f7365642070726963652e00000000000000000000006020830152604082019050919050565b6000615123602a83615e19565b91507f5374617368426c6f783a2063616c6c6261636b2070726f706f736974696f6e2060008301527f6e6f7420666f756e642e000000000000000000000000000000000000000000006020830152604082019050919050565b6000615189603c83615e19565b91507f5374617368426c6f783a2066656573526563697069656e747350657263656e7460008301527f6167652073686f756c642062652067726561746572207468616e2030000000006020830152604082019050919050565b60006151ef604383615e19565b91507f5374617368426c6f783a20546f74616c206f662066656573526563697069656e60008301527f747350657263656e74616765206d75737420626520657175616c20746f20313060208301527f30303000000000000000000000000000000000000000000000000000000000006040830152606082019050919050565b600061527b603f83615e19565b91507f5374617368426c6f783a20696e73756666696369656e7420657363726f77656460008301527f2076616c756520746f2065786563757465207468652063616c6c6261636b2e006020830152604082019050919050565b60006152e1603783615e19565b91507f455243313135353a206e656564206f70657261746f7220617070726f76616c2060008301527f666f7220337264207061727479207472616e73666572730000000000000000006020830152604082019050919050565b6000615347602e83615e19565b91507f455243313135353a2049447320616e642076616c756573206d7573742068617660008301527f652073616d65206c656e677468730000000000000000000000000000000000006020830152604082019050919050565b60006153ad604483615e19565b91507f5374617368426c6f783a206d696e486f6c64696e67466f7243616c6c6261636b60008301527f2073686f756c64206265206c6f776572206f7220657175616c207468616e203160208301527f30303030000000000000000000000000000000000000000000000000000000006040830152606082019050919050565b6000615439600083615e0e565b9150600082019050919050565b6000615453601083615e19565b91507f5472616e73666572206661696c65642e000000000000000000000000000000006000830152602082019050919050565b6000615493603283615e19565b91507f5374617368426c6f783a20696e76616c69642066656573526563697069656e7460008301527f7350657263656e74616765206c656e67746800000000000000000000000000006020830152604082019050919050565b60006154f9602b83615e19565b91507f5374617368426c6f783a206e656564206174206c65617374206f6e652066656560008301527f73526563697069656e74730000000000000000000000000000000000000000006020830152604082019050919050565b600061555f603183615e19565b91507f455243313135353a20676f7420756e6b6e6f776e2076616c75652066726f6d2060008301527f6f6e4552433131353552656365697665640000000000000000000000000000006020830152604082019050919050565b60006155c5603983615e19565b91507f5374617368426c6f783a206d696e486f6c64696e67466f7243616c6c6261636b60008301527f2073686f756c642062652067726561746572207468616e2030000000000000006020830152604082019050919050565b600061562b602b83615e19565b91507f455243313135353a20696e73756666696369656e742045544820666f7220747260008301527f616e7366657220666565730000000000000000000000000000000000000000006020830152604082019050919050565b61568d81615e94565b82525050565b61569c81615e94565b82525050565b60006156ad8261542c565b9150819050919050565b60006020820190506156cc600083018461481d565b92915050565b60006040820190506156e7600083018561480e565b6156f46020830184615693565b9392505050565b600060a082019050615710600083018861481d565b61571d602083018761481d565b818103604083015261572f8186614884565b905081810360608301526157438185614884565b9050818103608083015261575781846148f1565b90509695505050505050565b600060a082019050615778600083018861481d565b615785602083018761481d565b6157926040830186615693565b61579f6060830185615693565b81810360808301526157b181846148f1565b90509695505050505050565b60006040820190506157d2600083018561481d565b6157df6020830184615693565b9392505050565b6000604082019050818103600083015261580181868861482c565b9050818103602083015261581681848661482c565b905095945050505050565b6000602082019050818103600083015261583b8184614884565b905092915050565b600060208201905061585860008301846148e2565b92915050565b600060208201905081810360008301526158788184614963565b905092915050565b6000602082019050818103600083015261589a818461492a565b905092915050565b600060208201905081810360008301526158bb8161499c565b9050919050565b600060208201905081810360008301526158db816149dc565b9050919050565b600060208201905081810360008301526158fb81614a42565b9050919050565b6000602082019050818103600083015261591b81614aa8565b9050919050565b6000602082019050818103600083015261593b81614b0e565b9050919050565b6000602082019050818103600083015261595b81614b4e565b9050919050565b6000602082019050818103600083015261597b81614bb4565b9050919050565b6000602082019050818103600083015261599b81614bf4565b9050919050565b600060208201905081810360008301526159bb81614c34565b9050919050565b600060208201905081810360008301526159db81614c9a565b9050919050565b600060208201905081810360008301526159fb81614d00565b9050919050565b60006020820190508181036000830152615a1b81614d66565b9050919050565b60006020820190508181036000830152615a3b81614dcc565b9050919050565b60006020820190508181036000830152615a5b81614e32565b9050919050565b60006020820190508181036000830152615a7b81614e98565b9050919050565b60006020820190508181036000830152615a9b81614efe565b9050919050565b60006020820190508181036000830152615abb81614f64565b9050919050565b60006020820190508181036000830152615adb81614fca565b9050919050565b60006020820190508181036000830152615afb81615030565b9050919050565b60006020820190508181036000830152615b1b81615070565b9050919050565b60006020820190508181036000830152615b3b816150b0565b9050919050565b60006020820190508181036000830152615b5b81615116565b9050919050565b60006020820190508181036000830152615b7b8161517c565b9050919050565b60006020820190508181036000830152615b9b816151e2565b9050919050565b60006020820190508181036000830152615bbb8161526e565b9050919050565b60006020820190508181036000830152615bdb816152d4565b9050919050565b60006020820190508181036000830152615bfb8161533a565b9050919050565b60006020820190508181036000830152615c1b816153a0565b9050919050565b60006020820190508181036000830152615c3b81615446565b9050919050565b60006020820190508181036000830152615c5b81615486565b9050919050565b60006020820190508181036000830152615c7b816154ec565b9050919050565b60006020820190508181036000830152615c9b81615552565b9050919050565b60006020820190508181036000830152615cbb816155b8565b9050919050565b60006020820190508181036000830152615cdb8161561e565b9050919050565b6000602082019050615cf76000830184615693565b92915050565b6000604082019050615d126000830185615693565b615d1f6020830184615693565b9392505050565b6000604051905081810181811067ffffffffffffffff82111715615d4957600080fd5b8060405250919050565b600067ffffffffffffffff821115615d6a57600080fd5b602082029050602081019050919050565b600067ffffffffffffffff821115615d9257600080fd5b602082029050602081019050919050565b6000819050602082019050919050565b600081519050919050565b600081519050919050565b600081519050919050565b600081519050919050565b6000602082019050919050565b600082825260208201905092915050565b600082825260208201905092915050565b600081905092915050565b600082825260208201905092915050565b6000615e3582615e74565b9050919050565b60008115159050919050565b60007fffffffff0000000000000000000000000000000000000000000000000000000082169050919050565b600073ffffffffffffffffffffffffffffffffffffffff82169050919050565b6000819050919050565b6000615ea982615eb0565b9050919050565b6000615ebb82615ec2565b9050919050565b6000615ecd82615e74565b9050919050565b82818337600083830152505050565b60005b83811015615f01578082015181840152602081019050615ee6565b83811115615f10576000848401525b50505050565b6000601f19601f8301169050919050565b615f3081615e2a565b8114615f3b57600080fd5b50565b615f4781615e3c565b8114615f5257600080fd5b50565b615f5e81615e48565b8114615f6957600080fd5b50565b615f7581615e94565b8114615f8057600080fd5b5056fe455243313135353a20696e73756666696369656e742062616c616e636520666f72207472616e73666572a365627a7a723158208fa38900fe9d10b472971607387d4e557ea240b147a9fadd1154a92dbc8167416c6578706572696d656e74616cf564736f6c634300050c0040",
  "source": "pragma solidity ^0.5.12;\npragma experimental ABIEncoderV2;\n\nimport './lib/ERC1155/ERC1155Mintable.sol';\n\ncontract StashBlox is ERC1155Mintable {\n\n    // list of callback propositions\n    // _callbackPropositions[tokenID][proposer] = [priceForEachToken, ETHAmountEscrowed]\n    mapping (uint256 => mapping(address => uint256[2])) _callbackPropositions;\n\n    event CallbackProposed(uint256 indexed _id, address _proposer, uint256 _price);\n    event CallbackRefused(uint256 indexed _id, address _proposer, uint256 _price);\n    event CallbackAccepted(uint256 indexed _id, address _proposer, uint256 _price);\n\n    /**\n     * @dev Propose to buy the whole supply of a token.\n     * The proposer must hold minHoldingForCallback% of the total supply.\n     * StashBlox must approve the price with acceptCallback();\n     * @param id Token ID\n     * @param price proposed price\n     */\n    function proposeCallback(uint256 id, uint256 price) external payable {\n      require(_supplies[id] > 0, \"StashBlox: Unknown token.\");\n      require(price > 0, \"StashBlox: Price must be greater than 0.\");\n\n      uint256 minHolding = (_supplies[id].mul(_minHoldingForCallback[id])).div(10000);\n      require(_balances[id][msg.sender] >= minHolding, \"StashBlox: insufficient balance to propose a callback.\");\n\n      uint256 callbackAmount = _supplies[id].sub(_balances[id][msg.sender]);\n      uint256 callbackPrice = callbackAmount.mul(price);\n      require(msg.value >= callbackPrice, \"StashBlox: insufficient value for the proposed price.\");\n\n      _callbackPropositions[id][msg.sender] = [price, msg.value];\n      emit CallbackProposed(id, msg.sender, price);\n    }\n\n    /**\n     * @dev Refuse a callback if the price is not enough.\n     * @param id Token ID\n     * @param proposer address of the proposer\n     */\n    function refuseCallback(uint256 id, address proposer) external onlyOwner {\n      uint256 price = _callbackPropositions[id][proposer][0];\n      uint256 escrowedAmount = _callbackPropositions[id][proposer][1];\n\n      require(price > 0, \"StashBlox: callback proposition not found.\");\n\n      // return escrowed amount. Proposer must use withdraw() function to get\n      // escrowed amount.\n      _ETHBalances[proposer] += escrowedAmount;\n\n      _callbackPropositions[id][proposer] = [0, 0];\n      emit CallbackRefused(id, proposer, price);\n    }\n\n    /**\n     * @dev Accept a callback\n     * @param id Token ID\n     * @param proposer address of the proposer\n     */\n    function acceptCallback(uint256 id, address proposer) external onlyOwner {\n      uint256 price = _callbackPropositions[id][proposer][0];\n      uint256 escrowedAmount = _callbackPropositions[id][proposer][1];\n\n      require(price > 0, \"StashBlox: callback proposition not found.\");\n\n      uint256 minHolding = (_supplies[id].mul(_minHoldingForCallback[id])).div(10000);\n      require(_balances[id][msg.sender] >= minHolding, \"StashBlox: insufficient balance to execute the callback.\");\n\n      uint256 callbackAmount = _supplies[id].sub(_balances[id][msg.sender]);\n      uint256 callbackPrice = callbackAmount.mul(price);\n      require(escrowedAmount >= callbackPrice, \"StashBlox: insufficient escrowed value to execute the callback.\");\n\n      // move tokens to the proposer address and escrowed ETH to the holders addresses\n      // Holders must use withdraw() function to get paiement amount.\n      for (uint256 i = 0; i < _addressesByToken[id].length; ++i) {\n        address holderAddress = _addressesByToken[id][i];\n        uint256 holderBalance = _balances[id][holderAddress];\n        if (holderBalance > 0) {\n          uint256 holderPrice = price.mul(holderBalance);\n          _ETHBalances[holderAddress] += holderPrice;\n          _balances[id][holderAddress] = 0;\n        }\n      }\n      _balances[id][proposer] = _supplies[id];\n      if (escrowedAmount > callbackPrice) {\n        _ETHBalances[proposer] += escrowedAmount - callbackPrice;\n      }\n\n      _callbackPropositions[id][proposer] = [0, 0];\n      emit CallbackAccepted(id, proposer, price);\n    }\n}\n",
  "sourcePath": "/home/ouziel/Work/StashBloxContracts/contracts/StashBlox.sol",
  "compiler": {
    "name": "solc",
    "version": "0.5.12+commit.7709ece9.Emscripten.clang"
  },
  "schemaVersion": "3.2.3",
  "updatedAt": "2020-09-30T09:22:52.771Z",
  "devdoc": {
    "methods": {
      "acceptCallback(uint256,address)": {
        "details": "Accept a callback",
        "params": {
          "id": "Token ID",
          "proposer": "address of the proposer"
        }
      },
      "balanceOf(address,uint256)": {
        "details": "Get the specified address' balance for token with specified ID. Attempting to query the zero account for a balance will result in a revert.",
        "params": {
          "account": "The address of the token holder",
          "id": "ID of the token"
        },
        "return": "The account's balance of the token type requested"
      },
      "balanceOfBatch(address[],uint256[])": {
        "details": "Get the balance of multiple account/token pairs. If any of the query accounts is the zero account, this query will revert.",
        "params": {
          "accounts": "The addresses of the token holders",
          "ids": "IDs of the tokens"
        },
        "return": "Balances for each account and token id pair"
      },
      "createToken(address,uint256,uint256,uint256,uint256,uint256,address[],uint256[])": {
        "details": "Function to mint an amount of a token with the given ID.",
        "params": {
          "feesRecipients": "list of addresses receiving transfer fees",
          "feesRecipientsPercentage": "list of percentage, each one for the corresponding feesRecipients",
          "id": "ID of the token to be minted",
          "metadataHash": "Metadata file hash",
          "minHoldingForCallback": "minimum holding to propose a callback",
          "recipient": "The address that will own the minted tokens",
          "storageCreditCost": "cost for 24h storage in storageCredit (x 10 ^ 8 for the precision)",
          "supply": "Amount of the token to be minted"
        }
      },
      "isApprovedForAll(address,address)": {
        "params": {
          "account": "The account of the Tokens",
          "operator": "Address of authorized operator"
        },
        "return": "True if the operator is approved, false if not"
      },
      "owner()": {
        "details": "Returns the address of the current owner."
      },
      "proposeCallback(uint256,uint256)": {
        "details": "Propose to buy the whole supply of a token. The proposer must hold minHoldingForCallback% of the total supply. StashBlox must approve the price with acceptCallback();",
        "params": {
          "id": "Token ID",
          "price": "proposed price"
        }
      },
      "refuseCallback(uint256,address)": {
        "details": "Refuse a callback if the price is not enough.",
        "params": {
          "id": "Token ID",
          "proposer": "address of the proposer"
        }
      },
      "safeBatchTransferFrom(address,address,uint256[],uint256[],bytes)": {
        "details": "Transfers `values` amount(s) of `ids` from the `from` address to the `to` address specified. Caller must be approved to manage the tokens being transferred out of the `from` account. If `to` is a smart contract, will call `onERC1155BatchReceived` on `to` and act appropriately.",
        "params": {
          "data": "Data forwarded to `onERC1155Received` if `to` is a contract receiver",
          "from": "Source address",
          "ids": "IDs of each token type",
          "to": "Target address",
          "values": "Transfer amounts per token type"
        }
      },
      "safeTransferFrom(address,address,uint256,uint256,bytes)": {
        "details": "Transfers `value` amount of an `id` from the `from` address to the `to` address specified. Caller must be approved to manage the tokens being transferred out of the `from` account. If `to` is a smart contract, will call `onERC1155Received` on `to` and act appropriately.",
        "params": {
          "data": "Data forwarded to `onERC1155Received` if `to` is a contract receiver",
          "from": "Source address",
          "id": "ID of the token type",
          "to": "Target address",
          "value": "Transfer amount"
        }
      },
      "setApprovalForAll(address,bool)": {
        "details": "Sets or unsets the approval of a given operator.     * An operator is allowed to transfer all tokens of the sender on their behalf.     * Because an account already has operator privileges for itself, this function will revert if the account attempts to set the approval status for itself.",
        "params": {
          "approved": "representing the status of the approval to be set",
          "operator": "address to set the approval"
        }
      },
      "supportsInterface(bytes4)": {
        "params": {
          "_interfaceID": "The interface identifier, as specified in ERC-165"
        },
        "return": "`true` if the contract implements `_interfaceID` and"
      },
      "transferOwnership(address)": {
        "details": "Transfers ownership of the contract to a new account (`newOwner`). Can only be called by the current owner."
      },
      "uri(uint256)": {
        "params": {
          "id": "Token ID"
        },
        "return": "URI string"
      }
    }
  },
  "userdoc": {
    "methods": {
      "isApprovedForAll(address,address)": {
        "notice": "Queries the approval status of an operator for a given account."
      },
      "supportsInterface(bytes4)": {
        "notice": "Query if a contract implements an interface"
      }
    }
  }
}