{
  "contractName": "StashBlox",
  "abi": [
    {
      "inputs": [],
      "stateMutability": "nonpayable",
      "type": "constructor"
    },
    {
      "anonymous": false,
      "inputs": [
        {
          "indexed": true,
          "internalType": "address",
          "name": "_owner",
          "type": "address"
        },
        {
          "indexed": true,
          "internalType": "address",
          "name": "_operator",
          "type": "address"
        },
        {
          "indexed": false,
          "internalType": "bool",
          "name": "_approved",
          "type": "bool"
        }
      ],
      "name": "ApprovalForAll",
      "type": "event"
    },
    {
      "anonymous": false,
      "inputs": [
        {
          "indexed": true,
          "internalType": "uint256",
          "name": "_CallbackId",
          "type": "uint256"
        }
      ],
      "name": "CallbackUpdated",
      "type": "event"
    },
    {
      "anonymous": false,
      "inputs": [
        {
          "indexed": true,
          "internalType": "address",
          "name": "previousOwner",
          "type": "address"
        },
        {
          "indexed": true,
          "internalType": "address",
          "name": "newOwner",
          "type": "address"
        }
      ],
      "name": "OwnershipTransferred",
      "type": "event"
    },
    {
      "anonymous": false,
      "inputs": [
        {
          "indexed": true,
          "internalType": "uint256",
          "name": "_id",
          "type": "uint256"
        },
        {
          "indexed": false,
          "internalType": "uint256",
          "name": "_documentHash",
          "type": "uint256"
        }
      ],
      "name": "TokenUpdated",
      "type": "event"
    },
    {
      "anonymous": false,
      "inputs": [
        {
          "indexed": true,
          "internalType": "address",
          "name": "_operator",
          "type": "address"
        },
        {
          "indexed": true,
          "internalType": "address",
          "name": "_from",
          "type": "address"
        },
        {
          "indexed": true,
          "internalType": "address",
          "name": "_to",
          "type": "address"
        },
        {
          "indexed": false,
          "internalType": "uint256[]",
          "name": "_ids",
          "type": "uint256[]"
        },
        {
          "indexed": false,
          "internalType": "uint256[]",
          "name": "_values",
          "type": "uint256[]"
        }
      ],
      "name": "TransferBatch",
      "type": "event"
    },
    {
      "anonymous": false,
      "inputs": [
        {
          "indexed": true,
          "internalType": "address",
          "name": "_operator",
          "type": "address"
        },
        {
          "indexed": true,
          "internalType": "address",
          "name": "_from",
          "type": "address"
        },
        {
          "indexed": true,
          "internalType": "address",
          "name": "_to",
          "type": "address"
        },
        {
          "indexed": false,
          "internalType": "uint256",
          "name": "_id",
          "type": "uint256"
        },
        {
          "indexed": false,
          "internalType": "uint256",
          "name": "_value",
          "type": "uint256"
        }
      ],
      "name": "TransferSingle",
      "type": "event"
    },
    {
      "anonymous": false,
      "inputs": [
        {
          "indexed": false,
          "internalType": "string",
          "name": "_value",
          "type": "string"
        },
        {
          "indexed": true,
          "internalType": "uint256",
          "name": "_id",
          "type": "uint256"
        }
      ],
      "name": "URI",
      "type": "event"
    },
    {
      "inputs": [
        {
          "internalType": "uint256",
          "name": "",
          "type": "uint256"
        }
      ],
      "name": "_callbacks",
      "outputs": [
        {
          "internalType": "uint256",
          "name": "tokenId",
          "type": "uint256"
        },
        {
          "internalType": "uint256",
          "name": "price",
          "type": "uint256"
        },
        {
          "internalType": "uint256",
          "name": "escrowedAmount",
          "type": "uint256"
        },
        {
          "internalType": "uint256",
          "name": "callCounter",
          "type": "uint256"
        },
        {
          "internalType": "uint256",
          "name": "documentHash",
          "type": "uint256"
        },
        {
          "internalType": "address",
          "name": "caller",
          "type": "address"
        },
        {
          "internalType": "bool",
          "name": "needLegalApproval",
          "type": "bool"
        },
        {
          "internalType": "bool",
          "name": "approvedByLegal",
          "type": "bool"
        },
        {
          "internalType": "bool",
          "name": "refused",
          "type": "bool"
        },
        {
          "internalType": "bool",
          "name": "accepted",
          "type": "bool"
        },
        {
          "internalType": "bool",
          "name": "completed",
          "type": "bool"
        }
      ],
      "stateMutability": "view",
      "type": "function"
    },
    {
      "inputs": [],
      "name": "_config",
      "outputs": [
        {
          "internalType": "uint256",
          "name": "callbackAutoExecuteMaxAddresses",
          "type": "uint256"
        },
        {
          "internalType": "string",
          "name": "baseURI",
          "type": "string"
        }
      ],
      "stateMutability": "view",
      "type": "function"
    },
    {
      "inputs": [
        {
          "internalType": "uint256",
          "name": "",
          "type": "uint256"
        }
      ],
      "name": "_tokens",
      "outputs": [
        {
          "internalType": "uint256",
          "name": "supply",
          "type": "uint256"
        },
        {
          "internalType": "uint256",
          "name": "decimals",
          "type": "uint256"
        },
        {
          "internalType": "uint256",
          "name": "lumpSumTransactionFees",
          "type": "uint256"
        },
        {
          "internalType": "uint256",
          "name": "valueTransactionFees",
          "type": "uint256"
        },
        {
          "internalType": "uint256",
          "name": "minHoldingForCallback",
          "type": "uint256"
        },
        {
          "internalType": "uint256",
          "name": "metadataHash",
          "type": "uint256"
        },
        {
          "internalType": "address",
          "name": "legalAuthority",
          "type": "address"
        },
        {
          "internalType": "bool",
          "name": "isPrivate",
          "type": "bool"
        },
        {
          "internalType": "bool",
          "name": "locked",
          "type": "bool"
        }
      ],
      "stateMutability": "view",
      "type": "function"
    },
    {
      "inputs": [
        {
          "internalType": "address",
          "name": "",
          "type": "address"
        }
      ],
      "name": "_users",
      "outputs": [
        {
          "internalType": "bool",
          "name": "isTokenizer",
          "type": "bool"
        },
        {
          "internalType": "bool",
          "name": "isLocked",
          "type": "bool"
        },
        {
          "internalType": "uint256",
          "name": "ETHBalance",
          "type": "uint256"
        }
      ],
      "stateMutability": "view",
      "type": "function"
    },
    {
      "inputs": [
        {
          "internalType": "uint256",
          "name": "callbackId",
          "type": "uint256"
        }
      ],
      "name": "acceptCallback",
      "outputs": [],
      "stateMutability": "nonpayable",
      "type": "function"
    },
    {
      "inputs": [
        {
          "internalType": "uint256",
          "name": "callbackId",
          "type": "uint256"
        }
      ],
      "name": "approveCallback",
      "outputs": [],
      "stateMutability": "nonpayable",
      "type": "function"
    },
    {
      "inputs": [
        {
          "internalType": "uint256",
          "name": "id",
          "type": "uint256"
        },
        {
          "internalType": "address",
          "name": "holder",
          "type": "address"
        }
      ],
      "name": "approveHolder",
      "outputs": [],
      "stateMutability": "nonpayable",
      "type": "function"
    },
    {
      "inputs": [
        {
          "internalType": "uint256",
          "name": "id",
          "type": "uint256"
        },
        {
          "internalType": "address",
          "name": "maintener",
          "type": "address"
        }
      ],
      "name": "authorizeMaintener",
      "outputs": [],
      "stateMutability": "nonpayable",
      "type": "function"
    },
    {
      "inputs": [
        {
          "internalType": "address",
          "name": "tokenizer",
          "type": "address"
        }
      ],
      "name": "authorizeTokenizer",
      "outputs": [],
      "stateMutability": "nonpayable",
      "type": "function"
    },
    {
      "inputs": [
        {
          "internalType": "address",
          "name": "account",
          "type": "address"
        },
        {
          "internalType": "uint256",
          "name": "id",
          "type": "uint256"
        }
      ],
      "name": "balanceOf",
      "outputs": [
        {
          "internalType": "uint256",
          "name": "",
          "type": "uint256"
        }
      ],
      "stateMutability": "view",
      "type": "function"
    },
    {
      "inputs": [
        {
          "internalType": "address[]",
          "name": "accounts",
          "type": "address[]"
        },
        {
          "internalType": "uint256[]",
          "name": "ids",
          "type": "uint256[]"
        }
      ],
      "name": "balanceOfBatch",
      "outputs": [
        {
          "internalType": "uint256[]",
          "name": "",
          "type": "uint256[]"
        }
      ],
      "stateMutability": "view",
      "type": "function"
    },
    {
      "inputs": [
        {
          "internalType": "uint256",
          "name": "id",
          "type": "uint256"
        },
        {
          "internalType": "uint256[]",
          "name": "ids",
          "type": "uint256[]"
        },
        {
          "internalType": "uint256[]",
          "name": "metadataHashes",
          "type": "uint256[]"
        }
      ],
      "name": "cloneToken",
      "outputs": [],
      "stateMutability": "nonpayable",
      "type": "function"
    },
    {
      "inputs": [
        {
          "internalType": "address",
          "name": "recipient",
          "type": "address"
        },
        {
          "internalType": "uint256",
          "name": "id",
          "type": "uint256"
        },
        {
          "internalType": "uint256",
          "name": "supply",
          "type": "uint256"
        },
        {
          "internalType": "uint256",
          "name": "decimals",
          "type": "uint256"
        },
        {
          "internalType": "uint256",
          "name": "metadataHash",
          "type": "uint256"
        },
        {
          "internalType": "uint256[3]",
          "name": "transactionFees",
          "type": "uint256[3]"
        },
        {
          "internalType": "address[]",
          "name": "feesRecipients",
          "type": "address[]"
        },
        {
          "internalType": "uint256[]",
          "name": "feesRecipientsPercentage",
          "type": "uint256[]"
        },
        {
          "internalType": "uint256",
          "name": "minHoldingForCallback",
          "type": "uint256"
        },
        {
          "internalType": "bool",
          "name": "isPrivate",
          "type": "bool"
        },
        {
          "internalType": "address",
          "name": "legalAuthority",
          "type": "address"
        }
      ],
      "name": "createToken",
      "outputs": [],
      "stateMutability": "nonpayable",
      "type": "function"
    },
    {
      "inputs": [
        {
          "internalType": "uint256",
          "name": "callbackId",
          "type": "uint256"
        },
        {
          "internalType": "uint256",
          "name": "maxCall",
          "type": "uint256"
        }
      ],
      "name": "executeCallback",
      "outputs": [],
      "stateMutability": "nonpayable",
      "type": "function"
    },
    {
      "inputs": [
        {
          "internalType": "address",
          "name": "account",
          "type": "address"
        },
        {
          "internalType": "address",
          "name": "operator",
          "type": "address"
        }
      ],
      "name": "isApprovedForAll",
      "outputs": [
        {
          "internalType": "bool",
          "name": "",
          "type": "bool"
        }
      ],
      "stateMutability": "view",
      "type": "function"
    },
    {
      "inputs": [
        {
          "internalType": "address",
          "name": "addr",
          "type": "address"
        }
      ],
      "name": "isLockedAddress",
      "outputs": [
        {
          "internalType": "bool",
          "name": "",
          "type": "bool"
        }
      ],
      "stateMutability": "view",
      "type": "function"
    },
    {
      "inputs": [
        {
          "internalType": "uint256",
          "name": "id",
          "type": "uint256"
        }
      ],
      "name": "isLockedToken",
      "outputs": [
        {
          "internalType": "bool",
          "name": "",
          "type": "bool"
        }
      ],
      "stateMutability": "view",
      "type": "function"
    },
    {
      "inputs": [
        {
          "internalType": "uint256",
          "name": "id",
          "type": "uint256"
        },
        {
          "internalType": "address",
          "name": "maintener",
          "type": "address"
        }
      ],
      "name": "isMaintener",
      "outputs": [
        {
          "internalType": "bool",
          "name": "",
          "type": "bool"
        }
      ],
      "stateMutability": "view",
      "type": "function"
    },
    {
      "inputs": [
        {
          "internalType": "address",
          "name": "tokenizer",
          "type": "address"
        }
      ],
      "name": "isTokenizer",
      "outputs": [
        {
          "internalType": "bool",
          "name": "",
          "type": "bool"
        }
      ],
      "stateMutability": "view",
      "type": "function"
    },
    {
      "inputs": [
        {
          "internalType": "address",
          "name": "addr",
          "type": "address"
        }
      ],
      "name": "lockAddress",
      "outputs": [],
      "stateMutability": "nonpayable",
      "type": "function"
    },
    {
      "inputs": [
        {
          "internalType": "uint256",
          "name": "id",
          "type": "uint256"
        },
        {
          "internalType": "uint256",
          "name": "documentHash",
          "type": "uint256"
        }
      ],
      "name": "lockToken",
      "outputs": [],
      "stateMutability": "nonpayable",
      "type": "function"
    },
    {
      "inputs": [],
      "name": "owner",
      "outputs": [
        {
          "internalType": "address",
          "name": "",
          "type": "address"
        }
      ],
      "stateMutability": "view",
      "type": "function"
    },
    {
      "inputs": [
        {
          "internalType": "uint256",
          "name": "callbackId",
          "type": "uint256"
        },
        {
          "internalType": "uint256",
          "name": "tokenId",
          "type": "uint256"
        },
        {
          "internalType": "uint256",
          "name": "price",
          "type": "uint256"
        },
        {
          "internalType": "address[]",
          "name": "callees",
          "type": "address[]"
        },
        {
          "internalType": "uint256",
          "name": "documentHash",
          "type": "uint256"
        }
      ],
      "name": "proposeCallback",
      "outputs": [],
      "stateMutability": "payable",
      "type": "function"
    },
    {
      "inputs": [
        {
          "internalType": "uint256",
          "name": "callbackId",
          "type": "uint256"
        }
      ],
      "name": "refuseCallback",
      "outputs": [],
      "stateMutability": "nonpayable",
      "type": "function"
    },
    {
      "inputs": [
        {
          "internalType": "uint256",
          "name": "id",
          "type": "uint256"
        },
        {
          "internalType": "address",
          "name": "holder",
          "type": "address"
        }
      ],
      "name": "revokeHolder",
      "outputs": [],
      "stateMutability": "nonpayable",
      "type": "function"
    },
    {
      "inputs": [
        {
          "internalType": "uint256",
          "name": "id",
          "type": "uint256"
        },
        {
          "internalType": "address",
          "name": "maintener",
          "type": "address"
        }
      ],
      "name": "revokeMaintener",
      "outputs": [],
      "stateMutability": "nonpayable",
      "type": "function"
    },
    {
      "inputs": [
        {
          "internalType": "address",
          "name": "tokenizer",
          "type": "address"
        }
      ],
      "name": "revokeTokenizer",
      "outputs": [],
      "stateMutability": "nonpayable",
      "type": "function"
    },
    {
      "inputs": [
        {
          "internalType": "address",
          "name": "from",
          "type": "address"
        },
        {
          "internalType": "address",
          "name": "to",
          "type": "address"
        },
        {
          "internalType": "uint256[]",
          "name": "ids",
          "type": "uint256[]"
        },
        {
          "internalType": "uint256[]",
          "name": "values",
          "type": "uint256[]"
        },
        {
          "internalType": "bytes",
          "name": "data",
          "type": "bytes"
        }
      ],
      "name": "safeBatchTransferFrom",
      "outputs": [],
      "stateMutability": "payable",
      "type": "function"
    },
    {
      "inputs": [
        {
          "internalType": "address",
          "name": "from",
          "type": "address"
        },
        {
          "internalType": "address",
          "name": "to",
          "type": "address"
        },
        {
          "internalType": "uint256",
          "name": "id",
          "type": "uint256"
        },
        {
          "internalType": "uint256",
          "name": "value",
          "type": "uint256"
        },
        {
          "internalType": "bytes",
          "name": "data",
          "type": "bytes"
        }
      ],
      "name": "safeTransferFrom",
      "outputs": [],
      "stateMutability": "payable",
      "type": "function"
    },
    {
      "inputs": [
        {
          "internalType": "address",
          "name": "operator",
          "type": "address"
        },
        {
          "internalType": "bool",
          "name": "approved",
          "type": "bool"
        }
      ],
      "name": "setApprovalForAll",
      "outputs": [],
      "stateMutability": "nonpayable",
      "type": "function"
    },
    {
      "inputs": [
        {
          "internalType": "uint256",
          "name": "newMax",
          "type": "uint256"
        }
      ],
      "name": "setCallbackAutoExecuteMaxAddresses",
      "outputs": [],
      "stateMutability": "nonpayable",
      "type": "function"
    },
    {
      "inputs": [
        {
          "internalType": "address[10]",
          "name": "proxyAddresses",
          "type": "address[10]"
        }
      ],
      "name": "setProxyRegistryAddress",
      "outputs": [],
      "stateMutability": "nonpayable",
      "type": "function"
    },
    {
      "inputs": [
        {
          "internalType": "bytes4",
          "name": "_interfaceID",
          "type": "bytes4"
        }
      ],
      "name": "supportsInterface",
      "outputs": [
        {
          "internalType": "bool",
          "name": "",
          "type": "bool"
        }
      ],
      "stateMutability": "pure",
      "type": "function"
    },
    {
      "inputs": [
        {
          "internalType": "address",
          "name": "account",
          "type": "address"
        },
        {
          "internalType": "uint256",
          "name": "id",
          "type": "uint256"
        },
        {
          "internalType": "uint256",
          "name": "value",
          "type": "uint256"
        }
      ],
      "name": "transactionFees",
      "outputs": [
        {
          "internalType": "uint256",
          "name": "",
          "type": "uint256"
        }
      ],
      "stateMutability": "view",
      "type": "function"
    },
    {
      "inputs": [
        {
          "internalType": "address",
          "name": "newOwner",
          "type": "address"
        }
      ],
      "name": "transferOwnership",
      "outputs": [],
      "stateMutability": "nonpayable",
      "type": "function"
    },
    {
      "inputs": [
        {
          "internalType": "address",
          "name": "addr",
          "type": "address"
        }
      ],
      "name": "unlockAddress",
      "outputs": [],
      "stateMutability": "nonpayable",
      "type": "function"
    },
    {
      "inputs": [
        {
          "internalType": "uint256",
          "name": "id",
          "type": "uint256"
        },
        {
          "internalType": "uint256",
          "name": "documentHash",
          "type": "uint256"
        }
      ],
      "name": "unlockToken",
      "outputs": [],
      "stateMutability": "nonpayable",
      "type": "function"
    },
    {
      "inputs": [
        {
          "internalType": "uint256",
          "name": "id",
          "type": "uint256"
        },
        {
          "internalType": "uint256",
          "name": "metadataHash",
          "type": "uint256"
        },
        {
          "internalType": "uint256[3]",
          "name": "transactionFees",
          "type": "uint256[3]"
        },
        {
          "internalType": "address[]",
          "name": "feesRecipients",
          "type": "address[]"
        },
        {
          "internalType": "uint256[]",
          "name": "feesRecipientsPercentage",
          "type": "uint256[]"
        },
        {
          "internalType": "uint256",
          "name": "minHoldingForCallback",
          "type": "uint256"
        },
        {
          "internalType": "bool",
          "name": "isPrivate",
          "type": "bool"
        },
        {
          "internalType": "address",
          "name": "legalAuthority",
          "type": "address"
        }
      ],
      "name": "updateToken",
      "outputs": [],
      "stateMutability": "nonpayable",
      "type": "function"
    },
    {
      "stateMutability": "payable",
      "type": "receive"
    },
    {
      "inputs": [
        {
          "internalType": "address",
          "name": "to",
          "type": "address"
        },
        {
          "internalType": "uint256",
          "name": "amount",
          "type": "uint256"
        }
      ],
      "name": "withdraw",
      "outputs": [],
      "stateMutability": "nonpayable",
      "type": "function"
    },
    {
      "inputs": [
        {
          "internalType": "address",
          "name": "to",
          "type": "address"
        }
      ],
      "name": "deposit",
      "outputs": [],
      "stateMutability": "payable",
      "type": "function"
    },
    {
      "inputs": [
        {
          "internalType": "uint256",
          "name": "id",
          "type": "uint256"
        }
      ],
      "name": "uri",
      "outputs": [
        {
          "internalType": "string",
          "name": "",
          "type": "string"
        }
      ],
      "stateMutability": "view",
      "type": "function"
    }
  ],
  "bytecode": "0x60806040523480156200001157600080fd5b506200001d336200007a565b603260005560408051808201909152601c8082527f687474703a2f2f7374617368626c6f782e636f6d2f746f6b656e732f000000006020909201918252620000689160019162000137565b5062000074336200007a565b620001d3565b6001600160a01b038116620000db576040517f08c379a0000000000000000000000000000000000000000000000000000000008152600401808060200182810382526026815260200180620053ad6026913960400191505060405180910390fd5b600f546040516001600160a01b038084169216907f8be0079c531659141344cd1fd0a4f28419497f9722a3daafe3b4186f6b6457e090600090a3600f80546001600160a01b0319166001600160a01b0392909216919091179055565b828054600181600116156101000203166002900490600052602060002090601f016020900481019282601f106200017a57805160ff1916838001178555620001aa565b82800160010185558215620001aa579182015b82811115620001aa5782518255916020019190600101906200018d565b50620001b8929150620001bc565b5090565b5b80821115620001b85760008155600101620001bd565b6151ca80620001e36000396000f3fe6080604052600436106102495760003560e01c80638f96f13111610139578063d1660e18116100b6578063f242432a1161007a578063f242432a146110f4578063f2fde38b14611187578063f340fa01146111ba578063f3fef3a3146111e0578063f8a5a07c14611219578063fc3fcec71461135057610280565b8063d1660e1814610f0d578063d41d0aa314610f4c578063d842b67314610f85578063e985e9c51461103b578063ed70554d1461107657610280565b8063bba75c83116100fd578063bba75c8314610cb6578063c02f303c14610ce0578063c255620a14610d13578063c40b87ae14610d3d578063cba54e6014610eda57610280565b80638f96f13114610bbe578063a22cb46514610be8578063aba7fe8a14610c23578063b7eb5e0a14610c53578063baa3411014610c8657610280565b80634392e577116101c7578063759c52141161018b578063759c521414610ab55780637627b73214610aee5780638870147b14610b215780638aeba37e14610b545780638da5cb5b14610b8d57610280565b80634392e577146106e05780634ab0d253146107415780634e1273f4146108c35780635dafec1b14610a435780635dd2b9a614610a7c57610280565b806331d5f78c1161020e57806331d5f78c1461057457806334a90d021461059e578063369c37e9146105d15780633cacd7d6146105fb578063414ed0ce1461064e57610280565b8062fdd58e1461028557806301ffc9a7146102d05780630e89341c146103185780632eb2c2d6146103b75780632ed42bf7146104e057610280565b3661028057336000908152600c602052604090206001015461026b9034611380565b336000908152600c6020526040902060010155005b600080fd5b34801561029157600080fd5b506102be600480360360408110156102a857600080fd5b506001600160a01b0381351690602001356113e3565b60408051918252519081900360200190f35b3480156102dc57600080fd5b50610304600480360360208110156102f357600080fd5b50356001600160e01b031916611456565b604080519115158252519081900360200190f35b34801561032457600080fd5b506103426004803603602081101561033b57600080fd5b503561149d565b6040805160208082528351818301528351919283929083019185019080838360005b8381101561037c578181015183820152602001610364565b50505050905090810190601f1680156103a95780820380516001836020036101000a031916815260200191505b509250505060405180910390f35b6104de600480360360a08110156103cd57600080fd5b6001600160a01b038235811692602081013590911691810190606081016040820135600160201b81111561040057600080fd5b82018360208201111561041257600080fd5b803590602001918460208302840111600160201b8311171561043357600080fd5b919390929091602081019035600160201b81111561045057600080fd5b82018360208201111561046257600080fd5b803590602001918460208302840111600160201b8311171561048357600080fd5b919390929091602081019035600160201b8111156104a057600080fd5b8201836020820111156104b257600080fd5b803590602001918460018302840111600160201b831117156104d357600080fd5b50909250905061153e565b005b3480156104ec57600080fd5b506104f56117ec565b6040518083815260200180602001828103825283818151815260200191508051906020019080838360005b83811015610538578181015183820152602001610520565b50505050905090810190601f1680156105655780820380516001836020036101000a031916815260200191505b50935050505060405180910390f35b34801561058057600080fd5b506104de6004803603602081101561059757600080fd5b5035611882565b3480156105aa57600080fd5b506104de600480360360208110156105c157600080fd5b50356001600160a01b0316611a60565b3480156105dd57600080fd5b506104de600480360360208110156105f457600080fd5b5035611acd565b34801561060757600080fd5b5061062e6004803603602081101561061e57600080fd5b50356001600160a01b0316611b19565b604080519315158452911515602084015282820152519081900360600190f35b34801561065a57600080fd5b506106786004803603602081101561067157600080fd5b5035611b3f565b604080519b8c5260208c019a909a528a8a019890985260608a019690965260808901949094526001600160a01b0390921660a0880152151560c0870152151560e086015215156101008501521515610120840152151561014083015251908190036101600190f35b3480156106ec57600080fd5b506104de600480360361014081101561070457600080fd5b81019080806101400190600a806020026040519081016040528092919082600a60200280828437600092019190915250919450611bb29350505050565b34801561074d57600080fd5b506104de600480360361014081101561076557600080fd5b6040805160608181018352843594602081013594810193909260a08401929091840190600390839083908082843760009201919091525091949392602081019250359050600160201b8111156107ba57600080fd5b8201836020820111156107cc57600080fd5b803590602001918460208302840111600160201b831117156107ed57600080fd5b9190808060200260200160405190810160405280939291908181526020018383602002808284376000920191909152509295949360208101935035915050600160201b81111561083c57600080fd5b82018360208201111561084e57600080fd5b803590602001918460208302840111600160201b8311171561086f57600080fd5b919080806020026020016040519081016040528093929190818152602001838360200280828437600092019190915250929550508235935050506020810135151590604001356001600160a01b0316611c0a565b3480156108cf57600080fd5b506109f3600480360360408110156108e657600080fd5b810190602081018135600160201b81111561090057600080fd5b82018360208201111561091257600080fd5b803590602001918460208302840111600160201b8311171561093357600080fd5b9190808060200260200160405190810160405280939291908181526020018383602002808284376000920191909152509295949360208101935035915050600160201b81111561098257600080fd5b82018360208201111561099457600080fd5b803590602001918460208302840111600160201b831117156109b557600080fd5b919080806020026020016040519081016040528093929190818152602001838360200280828437600092019190915250929550611cf5945050505050565b60408051602080825283518183015283519192839290830191858101910280838360005b83811015610a2f578181015183820152602001610a17565b505050509050019250505060405180910390f35b348015610a4f57600080fd5b5061030460048036036040811015610a6657600080fd5b50803590602001356001600160a01b0316611e79565b348015610a8857600080fd5b506104de60048036036040811015610a9f57600080fd5b50803590602001356001600160a01b0316611e85565b348015610ac157600080fd5b506104de60048036036040811015610ad857600080fd5b50803590602001356001600160a01b0316611f0b565b348015610afa57600080fd5b506104de60048036036020811015610b1157600080fd5b50356001600160a01b0316611f8c565b348015610b2d57600080fd5b506104de60048036036020811015610b4457600080fd5b50356001600160a01b0316611ff7565b348015610b6057600080fd5b506104de60048036036040811015610b7757600080fd5b50803590602001356001600160a01b031661205f565b348015610b9957600080fd5b50610ba26120dd565b604080516001600160a01b039092168252519081900360200190f35b348015610bca57600080fd5b506104de60048036036020811015610be157600080fd5b50356120ec565b348015610bf457600080fd5b506104de60048036036040811015610c0b57600080fd5b506001600160a01b0381351690602001351515612325565b348015610c2f57600080fd5b506104de60048036036040811015610c4657600080fd5b50803590602001356123db565b348015610c5f57600080fd5b506104de60048036036020811015610c7657600080fd5b50356001600160a01b0316612434565b348015610c9257600080fd5b506104de60048036036040811015610ca957600080fd5b508035906020013561249d565b348015610cc257600080fd5b5061030460048036036020811015610cd957600080fd5b50356124f1565b348015610cec57600080fd5b5061030460048036036020811015610d0357600080fd5b50356001600160a01b03166124fc565b348015610d1f57600080fd5b506104de60048036036020811015610d3657600080fd5b5035612507565b348015610d4957600080fd5b506104de60048036036101a0811015610d6157600080fd5b60408051606081810183526001600160a01b03853516946020810135949381013593828201359360808301359391830192916101008301919060a0840190600390839083908082843760009201919091525091949392602081019250359050600160201b811115610dd157600080fd5b820183602082011115610de357600080fd5b803590602001918460208302840111600160201b83111715610e0457600080fd5b9190808060200260200160405190810160405280939291908181526020018383602002808284376000920191909152509295949360208101935035915050600160201b811115610e5357600080fd5b820183602082011115610e6557600080fd5b803590602001918460208302840111600160201b83111715610e8657600080fd5b919080806020026020016040519081016040528093929190818152602001838360200280828437600092019190915250929550508235935050506020810135151590604001356001600160a01b0316612778565b348015610ee657600080fd5b5061030460048036036020811015610efd57600080fd5b50356001600160a01b0316612819565b348015610f1957600080fd5b506102be60048036036060811015610f3057600080fd5b506001600160a01b038135169060208101359060400135612824565b348015610f5857600080fd5b506104de60048036036040811015610f6f57600080fd5b50803590602001356001600160a01b0316612839565b6104de600480360360a0811015610f9b57600080fd5b81359160208101359160408201359190810190608081016060820135600160201b811115610fc857600080fd5b820183602082011115610fda57600080fd5b803590602001918460208302840111600160201b83111715610ffb57600080fd5b91908080602002602001604051908101604052809392919081815260200183836020028082843760009201919091525092955050913592506128b4915050565b34801561104757600080fd5b506103046004803603604081101561105e57600080fd5b506001600160a01b0381358116916020013516612b40565b34801561108257600080fd5b506110a06004803603602081101561109957600080fd5b5035612b81565b60408051998a5260208a0198909852888801969096526060880194909452608087019290925260a08601526001600160a01b031660c0850152151560e0840152151561010083015251908190036101200190f35b6104de600480360360a081101561110a57600080fd5b6001600160a01b03823581169260208101359091169160408201359160608101359181019060a081016080820135600160201b81111561114957600080fd5b82018360208201111561115b57600080fd5b803590602001918460018302840111600160201b8311171561117c57600080fd5b509092509050612bdd565b34801561119357600080fd5b506104de600480360360208110156111aa57600080fd5b50356001600160a01b0316612d22565b6104de600480360360208110156111d057600080fd5b50356001600160a01b0316612d75565b3480156111ec57600080fd5b506104de6004803603604081101561120357600080fd5b506001600160a01b038135169060200135612dba565b34801561122557600080fd5b506104de6004803603606081101561123c57600080fd5b81359190810190604081016020820135600160201b81111561125d57600080fd5b82018360208201111561126f57600080fd5b803590602001918460208302840111600160201b8311171561129057600080fd5b9190808060200260200160405190810160405280939291908181526020018383602002808284376000920191909152509295949360208101935035915050600160201b8111156112df57600080fd5b8201836020820111156112f157600080fd5b803590602001918460208302840111600160201b8311171561131257600080fd5b919080806020026020016040519081016040528093929190818152602001838360200280828437600092019190915250929550612f29945050505050565b34801561135c57600080fd5b506104de6004803603604081101561137357600080fd5b50803590602001356130ae565b6000828201838110156113da576040805162461bcd60e51b815260206004820152601b60248201527f536166654d6174683a206164646974696f6e206f766572666c6f770000000000604482015290519081900360640190fd5b90505b92915050565b60006001600160a01b03831661142a5760405162461bcd60e51b815260040180806020018281038252602b815260200180614f0b602b913960400191505060405180910390fd5b506000908152600d602090815260408083206001600160a01b0394909416835260079093019052205490565b60006001600160e01b031982166301ffc9a760e01b148061148757506001600160e01b03198216636cdb3d1360e11b145b1561149457506001611498565b5060005b919050565b60018054604080516020600284861615610100026000190190941693909304601f81018490048402820184019092528181526060936113dd939192909183018282801561152b5780601f106115005761010080835404028352916020019161152b565b820191906000526020600020905b81548152906001019060200180831161150e57829003601f168201915b505050505061153984613272565b61332e565b84831461157c5760405162461bcd60e51b815260040180806020018281038252602e815260200180615136602e913960400191505060405180910390fd5b6001600160a01b0387166115c15760405162461bcd60e51b8152600401808060200182810382526028815260200180614f9c6028913960400191505060405180910390fd5b6001600160a01b0388163314806115e357506115dd8833612b40565b15156001145b61161e5760405162461bcd60e51b81526004018080602001828103825260378152602001806150ff6037913960400191505060405180910390fd5b61168d888888888080602002602001604051908101604052809392919081815260200183836020028082843760009201919091525050604080516020808c0282810182019093528b82529093508b92508a91829185019084908082843760009201919091525061343892505050565b866001600160a01b0316886001600160a01b0316336001600160a01b03167f4a39dc06d4c0dbc64b70af90fd698a233a518aa5d07e595d983b8c0526c8f7fb898989896040518080602001806020018381038352878782818152602001925060200280828437600083820152601f01601f19169091018481038352858152602090810191508690860280828437600083820152604051601f909101601f19169092018290039850909650505050505050a46117e233898989898080602002602001604051908101604052809392919081815260200183836020028082843760009201919091525050604080516020808d0282810182019093528c82529093508c92508b91829185019084908082843760009201919091525050604080516020601f8c018190048102820181019092528a815292508a91508990819084018382808284376000920191909152506134f292505050565b5050505050505050565b6000805460018054604080516020600284861615610100026000190190941693909304601f810184900484028201840190925281815293949392918301828280156118785780601f1061184d57610100808354040283529160200191611878565b820191906000526020600020905b81548152906001019060200180831161185b57829003601f168201915b5050505050905082565b61188a614d22565b6000828152600e602090815260409182902082516101808101845281548152600182015481840152600282015481850152600382015460608201526004820154608082015260058201546001600160a01b03811660a083015260ff600160a01b82048116151560c0840152600160a81b82048116151560e0840152600160b01b820481161515610100840152600160b81b820481161515610120840152600160c01b90910416151561014082015260068201805485518186028101860190965280865291949293610160860193929083018282801561199257602002820191906000526020600020905b81546001600160a01b03168152600190910190602001808311611974575b505050919092525050815191925050158015906119b6575080516119b690336136e3565b80156119c55750610100810151155b80156119d45750610120810151155b611a25576040805162461bcd60e51b815260206004820152601f60248201527f496e76616c696420617267756d656e7473206f72207065726d697373696f6e00604482015290519081900360640190fd5b6000828152600e6020526040808220600501805460ff60a81b1916600160a81b179055518391600080516020614f7c83398151915291a25050565b611a68613707565b611aa7576040805162461bcd60e51b815260206004820181905260248201526000805160206150df833981519152604482015290519081900360640190fd5b6001600160a01b03166000908152600c60205260409020805461ff001916610100179055565b611ad5613707565b611b14576040805162461bcd60e51b815260206004820181905260248201526000805160206150df833981519152604482015290519081900360640190fd5b600055565b600c602052600090815260409020805460019091015460ff808316926101009004169083565b600e6020526000908152604090208054600182015460028301546003840154600485015460059095015493949293919290916001600160a01b0381169060ff600160a01b8204811691600160a81b8104821691600160b01b8204811691600160b81b8104821691600160c01b909104168b565b611bba613707565b611bf9576040805162461bcd60e51b815260206004820181905260248201526000805160206150df833981519152604482015290519081900360640190fd5b611c06600282600a614d96565b5050565b87611c158133613718565b611c54576040805162461bcd60e51b81526020600482015260176024820152600080516020614f36833981519152604482015290519081900360640190fd5b6000898152600d6020526040902054611ca4576040805162461bcd60e51b815260206004820152600d60248201526c2ab735b737bbb7103a37b5b2b760991b604482015290519081900360640190fd5b611cb48989898989898989613752565b6040805189815290518a917f199acc06cd2556bbc146fa3cb578799037dffcbf256eca32aaf2ef656925d2fd919081900360200190a2505050505050505050565b60608151835114611d375760405162461bcd60e51b8152600401808060200182810382526030815260200180614ff06030913960400191505060405180910390fd5b6060835167ffffffffffffffff81118015611d5157600080fd5b50604051908082528060200260200182016040528015611d7b578160200160208202803683370190505b50905060005b8451811015611e715760006001600160a01b0316858281518110611da157fe5b60200260200101516001600160a01b03161415611def5760405162461bcd60e51b81526004018080602001828103825260348152602001806150566034913960400191505060405180910390fd5b600d6000858381518110611dff57fe5b602002602001015181526020019081526020016000206007016000868381518110611e2657fe5b60200260200101516001600160a01b03166001600160a01b0316815260200190815260200160002060000154828281518110611e5e57fe5b6020908102919091010152600101611d81565b509392505050565b60006113da8383613718565b81611e908133613718565b611ecf576040805162461bcd60e51b81526020600482015260176024820152600080516020614f36833981519152604482015290519081900360640190fd5b506000918252600d602090815260408084206001600160a01b039093168452600790920190529020600201805462ff0000191662010000179055565b81611f168133613718565b611f55576040805162461bcd60e51b81526020600482015260176024820152600080516020614f36833981519152604482015290519081900360640190fd5b506000918252600d602090815260408084206001600160a01b039093168452600790920190529020600201805462ff000019169055565b611f94613707565b611fd3576040805162461bcd60e51b815260206004820181905260248201526000805160206150df833981519152604482015290519081900360640190fd5b6001600160a01b03166000908152600c60205260409020805460ff19166001179055565b611fff613707565b61203e576040805162461bcd60e51b815260206004820181905260248201526000805160206150df833981519152604482015290519081900360640190fd5b6001600160a01b03166000908152600c60205260409020805460ff19169055565b612067613707565b6120a6576040805162461bcd60e51b815260206004820181905260248201526000805160206150df833981519152604482015290519081900360640190fd5b6000918252600d602090815260408084206001600160a01b039093168452600790920190529020600201805460ff19166001179055565b600f546001600160a01b031690565b6120f4614d22565b6000828152600e602090815260409182902082516101808101845281548152600182015481840152600282015481850152600382015460608201526004820154608082015260058201546001600160a01b03811660a083015260ff600160a01b82048116151560c0840152600160a81b82048116151560e0840152600160b01b820481161515610100840152600160b81b820481161515610120840152600160c01b9091041615156101408201526006820180548551818602810186019096528086529194929361016086019392908301828280156121fc57602002820191906000526020600020905b81546001600160a01b031681526001909101906020018083116121de575b5050509190925250508151919250501580159061221c5750610100810151155b801561222b5750610120810151155b80156122705750805161223e9033613718565b806122505750805161225090336136e3565b8061227057508060a001516001600160a01b0316336001600160a01b0316145b6122c1576040805162461bcd60e51b815260206004820152601f60248201527f496e76616c696420617267756d656e7473206f72207065726d697373696f6e00604482015290519081900360640190fd5b6000828152600e60209081526040808320600501805460ff60b01b1916600160b01b1790558381015160a08501516001600160a01b03168452600c9092528083206001018054909201909155518391600080516020614f7c83398151915291a25050565b336001600160a01b038316141561236d5760405162461bcd60e51b815260040180806020018281038252602c815260200180614fc4602c913960400191505060405180910390fd5b3360008181526010602090815260408083206001600160a01b03871680855290835292819020805460ff1916861515908117909155815190815290519293927f17307eab39ab6107e8899845ad3d59bd9653f200f220920489ca2b5937696c31929181900390910190a35050565b816123e68133613718565b612425576040805162461bcd60e51b81526020600482015260176024820152600080516020614f36833981519152604482015290519081900360640190fd5b61242f83836138f6565b505050565b61243c613707565b61247b576040805162461bcd60e51b815260206004820181905260248201526000805160206150df833981519152604482015290519081900360640190fd5b6001600160a01b03166000908152600c60205260409020805461ff0019169055565b816124a88133613718565b6124e7576040805162461bcd60e51b81526020600482015260176024820152600080516020614f36833981519152604482015290519081900360640190fd5b61242f838361394c565b60006113dd826139a8565b60006113dd826139c7565b61250f614d22565b6000828152600e602090815260409182902082516101808101845281548152600182015481840152600282015481850152600382015460608201526004820154608082015260058201546001600160a01b03811660a083015260ff600160a01b82048116151560c0840152600160a81b82048116151560e0840152600160b01b820481161515610100840152600160b81b820481161515610120840152600160c01b90910416151561014082015260068201805485518186028101860190965280865291949293610160860193929083018282801561261757602002820191906000526020600020905b81546001600160a01b031681526001909101906020018083116125f9575b5050509190925250508151919250501580159061263b5750805161263b9033613718565b801561265457508060c00151158061265457508060e001515b80156126635750610100810151155b80156126725750610120810151155b80156126995750612691816000015182602001518361016001516139f1565b816040015110155b6126d45760405162461bcd60e51b81526004018080602001828103825260348152602001806150ab6034913960400191505060405180910390fd5b6000828152600e6020526040808220600501805460ff60b81b1916600160b81b179055518391600080516020614f7c83398151915291a2610160810151511561272c576127278282610160015151613aa8565b611c06565b6000805482518252600d602052604090912060080154116127665780516000908152600d6020526040902060080154612727908390613aa8565b611c068160000151826080015161394c565b612781336139c7565b6127c0576040805162461bcd60e51b81526020600482015260176024820152600080516020614f36833981519152604482015290519081900360640190fd5b6127d38b8b8b8b8b8b8b8b8b8b8b613d45565b604080518b8152602081018b905281516001600160a01b038e16926000923392600080516020614eeb833981519152929181900390910190a45050505050505050505050565b60006113dd82613eae565b6000612831848484613ed1565b949350505050565b612841613707565b612880576040805162461bcd60e51b815260206004820181905260248201526000805160206150df833981519152604482015290519081900360640190fd5b6000918252600d602090815260408084206001600160a01b039093168452600790920190529020600201805460ff19169055565b6000858152600e60205260409020541580156128dd57506000848152600d602052604090205415155b80156128f357506128ef8484846139f1565b3410155b80156129025750600054825111155b612953576040805162461bcd60e51b815260206004820152601a60248201527f496e76616c696420617267756d656e7473206f722076616c7565000000000000604482015290519081900360640190fd5b6000848152600d602052604081206004810154905461297f9161271091612979916140b3565b9061410c565b905060405180610180016040528086815260200185815260200134815260200160008152602001838152602001336001600160a01b0316815260200185600014806129e557506000878152600d6020908152604080832033845260070190915290205483115b806129f1575060008551115b151581526000602080830182905260408084018390526060808501849052608080860185905260a09586018a90528c8552600e8452938290208651815586840151600182015591860151600283015585015160038201559184015160048301559183015160058201805460c086015160e08701516101008801516101208901516101408a01511515600160c01b0260ff60c01b19911515600160b81b0260ff60b81b19931515600160b01b0260ff60b01b19951515600160a81b0260ff60a81b19971515600160a01b0260ff60a01b196001600160a01b03909c166001600160a01b0319909a16999099179a909a16979097179590951697909717929092169390931792909216171691909117905561016083015180519192612b1c92600685019290910190614dee565b5050604051879150600080516020614f7c83398151915290600090a2505050505050565b6000612b4c838361414e565b806113da5750506001600160a01b03918216600090815260106020908152604080832093909416825291909152205460ff1690565b600d60205260009081526040902080546001820154600283015460038401546004850154600586015460069096015494959394929391929091906001600160a01b0381169060ff600160a01b8204811691600160a81b90041689565b6001600160a01b038516612c225760405162461bcd60e51b8152600401808060200182810382526028815260200180614f9c6028913960400191505060405180910390fd5b6001600160a01b038616331480612c445750612c3e8633612b40565b15156001145b612c7f5760405162461bcd60e51b81526004018080602001828103825260378152602001806150ff6037913960400191505060405180910390fd5b612c8b86868686614235565b846001600160a01b0316866001600160a01b0316336001600160a01b0316600080516020614eeb8339815191528787604051808381526020018281526020019250505060405180910390a4612d1a338787878787878080601f0160208091040260200160405190810160405280939291908181526020018383808284376000920191909152506142ad92505050565b505050505050565b612d2a613707565b612d69576040805162461bcd60e51b815260206004820181905260248201526000805160206150df833981519152604482015290519081900360640190fd5b612d7281614422565b50565b6001600160a01b0381166000908152600c6020526040902060010154612d9b9034611380565b6001600160a01b039091166000908152600c6020526040902060010155565b612dc2613707565b612e01576040805162461bcd60e51b815260206004820181905260248201526000805160206150df833981519152604482015290519081900360640190fd5b6001600160a01b0382166000908152600c6020526040902060010154811115612e68576040805162461bcd60e51b8152602060048201526014602482015273496e73756666696369656e742062616c616e636560601b604482015290519081900360640190fd5b6040516000906001600160a01b0384169083908381818185875af1925050503d8060008114612eb3576040519150601f19603f3d011682016040523d82523d6000602084013e612eb8565b606091505b5050905080612f02576040805162461bcd60e51b815260206004820152601160248201527015da5d1a191c985dd85b0819985a5b1959607a1b604482015290519081900360640190fd5b506001600160a01b039091166000908152600c602052604090206001018054919091039055565b612f32336139c7565b612f71576040805162461bcd60e51b81526020600482015260176024820152600080516020614f36833981519152604482015290519081900360640190fd5b6000838152600d602052604090205415801590612f8f575080518251145b612fd4576040805162461bcd60e51b8152602060048201526011602482015270496e76616c696420617267756d656e747360781b604482015290519081900360640190fd5b60005b82518110156130a85761301184848381518110612ff057fe5b602002602001015184848151811061300457fe5b60200260200101516144c3565b6000848152600d60205260408120600801805490919061302d57fe5b600091825260208220015484516001600160a01b0390911691903390600080516020614eeb8339815191529087908690811061306557fe5b6020026020010151600d60008a815260200190815260200160002060000154604051808381526020018281526020019250505060405180910390a4600101612fd7565b50505050565b6130b6614d22565b6000838152600e602090815260409182902082516101808101845281548152600182015481840152600282015481850152600382015460608201526004820154608082015260058201546001600160a01b03811660a083015260ff600160a01b82048116151560c0840152600160a81b82048116151560e0840152600160b01b820481161515610100840152600160b81b820481161515610120840152600160c01b9091041615156101408201526006820180548551818602810186019096528086529194929361016086019392908301828280156131be57602002820191906000526020600020905b81546001600160a01b031681526001909101906020018083116131a0575b505050919092525050815191925050158015906131e2575061012081015115156001145b80156131f15750610140810151155b613235576040805162461bcd60e51b815260206004820152601060248201526f496e76616c69642063616c6c6261636b60801b604482015290519081900360640190fd5b61323f8383613aa8565b6000838152600e6020526040902060050154600160c01b900460ff161561242f5761242f816000015182608001516138f6565b60606000825b801561328e576001919091019060109004613278565b60608267ffffffffffffffff811180156132a757600080fd5b506040519080825280601f01601f1916602001820160405280156132d2576020820181803683370190505b50905060005b83811015613325576010860692506132ef83614660565b826001838703038151811061330057fe5b60200101906001600160f81b031916908160001a9053506010860495506001016132d8565b50949350505050565b805182516060918491849184910167ffffffffffffffff8111801561335257600080fd5b506040519080825280601f01601f19166020018201604052801561337d576020820181803683370190505b509050806000805b85518110156133d65785818151811061339a57fe5b602001015160f81c60f81b8383806001019450815181106133b757fe5b60200101906001600160f81b031916908160001a905350600101613385565b5060005b845181101561342b578481815181106133ef57fe5b602001015160f81c60f81b83838060010194508151811061340c57fe5b60200101906001600160f81b031916908160001a9053506001016133da565b5090979650505050505050565b6000803411613462576001600160a01b0385166000908152600c6020526040902060010154613464565b345b905060005b83518110156134e0576134d66134a7878787858151811061348657fe5b602002602001015187868151811061349a57fe5b60200260200101516146a4565b60408051808201909152601081526f092dce6eaccccd2c6d2cadce8408aa8960831b60208201528491906146f9565b9150600101613469565b506134eb8582614790565b5050505050565b613504846001600160a01b0316614811565b15612d1a5763bc197c8160e01b6001600160e01b031916846001600160a01b031663bc197c8188888787876040518663ffffffff1660e01b815260040180866001600160a01b03168152602001856001600160a01b03168152602001806020018060200180602001848103845287818151815260200191508051906020019060200280838360005b838110156135a457818101518382015260200161358c565b50505050905001848103835286818151815260200191508051906020019060200280838360005b838110156135e35781810151838201526020016135cb565b50505050905001848103825285818151815260200191508051906020019080838360005b8381101561361f578181015183820152602001613607565b50505050905090810190601f16801561364c5780820380516001836020036101000a031916815260200191505b5098505050505050505050602060405180830381600087803b15801561367157600080fd5b505af1158015613685573d6000803e3d6000fd5b505050506040513d602081101561369b57600080fd5b50516001600160e01b03191614612d1a5760405162461bcd60e51b81526004018080602001828103825260368152602001806150206036913960400191505060405180910390fd5b6000918252600d6020526040909120600601546001600160a01b0391821691161490565b600f546001600160a01b0316331490565b6000828152600d602090815260408083206001600160a01b038516845260070190915281206002015460ff16806113da57506113da613707565b6000805b85518110156137825785818151811061376b57fe5b602002602001015182019150806001019050613756565b5060008651118015613792575060015b801561379f575080612710145b80156137ac575061271084105b6137f1576040805162461bcd60e51b8152602060048201526011602482015270496e76616c696420617267756d656e747360781b604482015290519081900360640190fd5b6000898152600d60209081526040808320600581018c90558a516002808301919091558b840151600383015582518084018452428152928c015183850152600b909101805460018101825590855292909320613851939283020191614e42565b506000898152600d60209081526040909120875161387792600990920191890190614dee565b506000898152600d60209081526040909120865161389d92600a90920191880190614e7c565b50506000978852600d602052604090972060048101929092556006909101805460ff60a01b1916600160a01b92151592909202919091176001600160a01b0319166001600160a01b039096169590951790945550505050565b6000828152600d6020908152604091829020600601805460ff60a81b191690558151838152915184927f199acc06cd2556bbc146fa3cb578799037dffcbf256eca32aaf2ef656925d2fd92908290030190a25050565b6000828152600d6020908152604091829020600601805460ff60a81b1916600160a81b1790558151838152915184927f199acc06cd2556bbc146fa3cb578799037dffcbf256eca32aaf2ef656925d2fd92908290030190a25050565b6000908152600d6020526040902060060154600160a81b900460ff1690565b6001600160a01b0381166000908152600c602052604081205460ff16806113dd57506113dd613707565b80516000908190613a32576000858152600d60208181526040808420338552600781018352908420549389905291905254613a2b91614848565b9050613a95565b60005b8351811015613a9357600d60008781526020019081526020016000206007016000858381518110613a6257fe5b6020908102919091018101516001600160a01b03168252810191909152604001600020549190910190600101613a35565b505b613a9f81856140b3565b95945050505050565b6000828152600e602052604090208054600690910154606090613adb576000828152600d60205260409020600801613aed565b6000848152600e602052604090206006015b805480602002602001604051908101604052809291908181526020018280548015613b4157602002820191906000526020600020905b81546001600160a01b03168152600190910190602001808311613b23575b505083516000898152600e60205260408120600301549596506000199091019493509150508582018311613b755782613b79565b8582015b90506000825b828111613cc1576000868281518110613b9457fe5b60209081029190910181015160008a8152600d835260408082206001600160a01b0384168352600701909352919091205490915015613cb8576000888152600d602090815260408083206001600160a01b0385168085526007909101808452828520548f8652600e855292852060010154919094529290915293840193613c1a916140b3565b6001600160a01b038083166000818152600c6020908152604080832060010180549096019095558e8252600e8152848220600501548d8352600d82528583208484526007018252918590205485518e8152918201528451919093169391923392600080516020614eeb83398151915292918290030190a46000888152600d602090815260408083206001600160a01b03851684526007019091528120555b50600101613b7f565b506000888152600e6020526040902060050154613ce8906001600160a01b0316878361488a565b6000888152600e60205260409020600301829055838214156117e2576000888152600e6020526040808220600501805460ff60c01b1916600160c01b179055518991600080516020614f7c83398151915291a25050505050505050565b60008a8152600d6020526040902054158015613d615750600089115b613da6576040805162461bcd60e51b8152602060048201526011602482015270496e76616c696420617267756d656e747360781b604482015290519081900360640190fd5b88600d60008c81526020019081526020016000206000018190555087600d60008c8152602001908152602001600020600101819055506001600d60008c81526020019081526020016000206007016000336001600160a01b03166001600160a01b0316815260200190815260200160002060020160006101000a81548160ff0219169083151502179055506001600d60008c815260200190815260200160002060070160008d6001600160a01b03166001600160a01b0316815260200190815260200160002060020160026101000a81548160ff021916908315150217905550613e968a88888888888888613752565b613ea18b8b8b61488a565b5050505050505050505050565b6001600160a01b03166000908152600c6020526040902054610100900460ff1690565b6000828152600d60205260408120600b015481904290600019015b6000868152600d60205260408120600b01805483908110613f0957fe5b60009182526020822060029091020101546000888152600d60205260408120600b018054929350909184908110613f3c57fe5b9060005260206000209060020201600160028110613f5657fe5b01546000898152600d602090815260408083206001600160a01b038e168452600701909152812060010154919250908311613ff3576000898152600d602090815260408083206001600160a01b038e168452600701909152902060010154613fc8906201518090612979908890614848565b905080613fd3575060015b613fe788613fe183856140b3565b906140b3565b86019550505050614032565b614004620151806129798786614848565b90508061400f575060015b919350839161402288613fe183856140b3565b9095019450505060001901613eec565b506000858152600d6020526040902060010154614053908390600a0a61410c565b6000868152600d60205260408120600301549193509061407e906305f5e100906129799088906140b3565b6000878152600d60205260409020600201549091506140a8906140a19083611380565b8490611380565b979650505050505050565b6000826140c2575060006113dd565b828202828482816140cf57fe5b04146113da5760405162461bcd60e51b815260040180806020018281038252602181526020018061508a6021913960400191505060405180910390fd5b60006113da83836040518060400160405280601a81526020017f536166654d6174683a206469766973696f6e206279207a65726f000000000000815250614933565b6000805b600a81101561422b576000600282600a811061416a57fe5b01546001600160a01b031614614223576000600282600a811061418957fe5b01546040805163c455279160e01b81526001600160a01b0388811660048301529151928216935090861691839163c4552791916024808301926020929190829003018186803b1580156141db57600080fd5b505afa1580156141ef573d6000803e3d6000fd5b505050506040513d602081101561420557600080fd5b50516001600160a01b03161415614221576001925050506113dd565b505b600101614152565b5060009392505050565b600080341161425f576001600160a01b0385166000908152600c6020526040902060010154614261565b345b90506142a1614272868686866146a4565b60408051808201909152601081526f092dce6eaccccd2c6d2cadce8408aa8960831b60208201528391906146f9565b90506134eb8582614790565b6142bf846001600160a01b0316614811565b15612d1a5763f23a6e6160e01b6001600160e01b031916846001600160a01b031663f23a6e6188888787876040518663ffffffff1660e01b815260040180866001600160a01b03168152602001856001600160a01b0316815260200184815260200183815260200180602001828103825283818151815260200191508051906020019080838360005b83811015614360578181015183820152602001614348565b50505050905090810190601f16801561438d5780820380516001836020036101000a031916815260200191505b509650505050505050602060405180830381600087803b1580156143b057600080fd5b505af11580156143c4573d6000803e3d6000fd5b505050506040513d60208110156143da57600080fd5b50516001600160e01b03191614612d1a5760405162461bcd60e51b81526004018080602001828103825260318152602001806151646031913960400191505060405180910390fd5b6001600160a01b0381166144675760405162461bcd60e51b8152600401808060200182810382526026815260200180614f566026913960400191505060405180910390fd5b600f546040516001600160a01b038084169216907f8be0079c531659141344cd1fd0a4f28419497f9722a3daafe3b4186f6b6457e090600090a3600f80546001600160a01b0319166001600160a01b0392909216919091179055565b6000838152600d60205260408120600801805461242f92906144e157fe5b6000918252602080832090910154868352600d8083526040808520805460018201548351606081018552600284015481526003840154818901528c895294909652600b90910180546001600160a01b03909516968a96929592948a94909390840192919061454b57fe5b906000526020600020906002020160016002811061456557fe5b0154905260008a8152600d6020908152604091829020600901805483518184028101840190945280845290918301828280156145ca57602002820191906000526020600020905b81546001600160a01b031681526001909101906020018083116145ac575b50505060008d8152600d6020908152604091829020600a018054835181840281018401909452808452929450925083018282801561462757602002820191906000526020600020905b815481526020019060010190808311614613575b50505060008e8152600d60205260409020600481015460069091015490925060ff600160a01b82041691506001600160a01b0316613d45565b600060098260ff161161467a57506030810160f81b611498565b8160ff16600a111580156146925750600f8260ff1611155b1561028057506057810160f81b611498565b60006146b285858585614998565b156146ed576040805162461bcd60e51b8152602060048201526006602482015265131bd8dad95960d21b604482015290519081900360640190fd5b613a9f858585856149d0565b600081848411156147885760405162461bcd60e51b81526004018080602001828103825283818151815260200191508051906020019080838360005b8381101561474d578181015183820152602001614735565b50505050905090810190601f16801561477a5780820380516001836020036101000a031916815260200191505b509250505060405180910390fd5b505050900390565b6000341180156147a05750600081115b156147ec576001600160a01b0382166000908152600c60205260409020600101546147cb9082611380565b6001600160a01b0383166000908152600c6020526040902060010155611c06565b34611c06576001600160a01b03919091166000908152600c6020526040902060010155565b6000813f7fc5d2460186f7233c927e7db2dcc703c0e500b653ca82273b7bfad8045d85a47081158015906128315750141592915050565b60006113da83836040518060400160405280601e81526020017f536166654d6174683a207375627472616374696f6e206f766572666c6f7700008152506146f9565b6000828152600d6020526040902060060154600160a01b900460ff1615806148e057506000828152600d602090815260408083206001600160a01b038716845260070190915290206002015462010000900460ff165b614928576040805162461bcd60e51b81526020600482015260146024820152731059191c995cdcc81b9bdd08185c1c1c9bdd995960621b604482015290519081900360640190fd5b61242f838383614b24565b600081836149825760405162461bcd60e51b815260206004820181815283516024840152835190928392604490910191908501908083836000831561474d578181015183820152602001614735565b50600083858161498e57fe5b0495945050505050565b60006149a3836139a8565b806149b257506149b285613eae565b806149c157506149c184613eae565b80613a9f575050159392505050565b6040805180820182526014815273496e73756666696369656e742062616c616e636560601b6020808301919091526000858152600d82528381206001600160a01b038916825260070190915291822054614a2b9184906146f9565b6000848152600d602090815260408083206001600160a01b038a168452600701909152902055614a5c84848461488a565b614a67858484613ed1565b905060005b6000848152600d6020526040902060090154811015613325576000848152600d60205260408120600901805483908110614aa257fe5b6000918252602080832090910154878352600d90915260408220600a0180546001600160a01b0390921693509084908110614ad957fe5b6000918252602090912001549050614af761271061297986846140b3565b6001600160a01b039092166000908152600c60205260409020600190810180549093019092555001614a6c565b6000828152600d602090815260408083206001600160a01b0387168452600701909152812054614b549083611380565b6000848152600d602090815260408083206001600160a01b0389168452600701909152902054909150614c51576000838152600d602090815260408083206001600160a01b0388168452600701909152902060020154610100900460ff16614c20576001600160a01b0384166000818152600c6020908152604080832060020180546001818101835591855283852001889055878452600d83529083206008810180549283018155845282842090910180546001600160a01b0319168517905592909152600790910190525b6000838152600d602090815260408083206001600160a01b0388168452600701909152902042600190910155614cf2565b6000838152600d602090815260408083206001600160a01b0388168452600701909152812060010154614c85904290614848565b6000858152600d602090815260408083206001600160a01b038a16845260070190915281205491925090614cbf90849061297990856140b3565b6000868152600d602090815260408083206001600160a01b038b1684526007019091529020429190910360019091015550505b6000928352600d602090815260408085206001600160a01b03909616855260079095019052929091209190915550565b604051806101800160405280600081526020016000815260200160008152602001600081526020016000815260200160006001600160a01b03168152602001600015158152602001600015158152602001600015158152602001600015158152602001600015158152602001606081525090565b82600a8101928215614dde579160200282015b82811115614dde57825182546001600160a01b0319166001600160a01b03909116178255602090920191600190910190614da9565b50614dea929150614eb6565b5090565b828054828255906000526020600020908101928215614dde5791602002820182811115614dde57825182546001600160a01b0319166001600160a01b03909116178255602090920191600190910190614da9565b8260028101928215614e70579160200282015b82811115614e70578251825591602001919060010190614e55565b50614dea929150614ed5565b828054828255906000526020600020908101928215614e705791602002820182811115614e70578251825591602001919060010190614e55565b5b80821115614dea5780546001600160a01b0319168155600101614eb7565b5b80821115614dea5760008155600101614ed656fec3d58168c5ae7397731d063d5bbf3d657854427343f4c083240f7aacaa2d0f62455243313135353a2062616c616e636520717565727920666f7220746865207a65726f2061646472657373496e73756666696369656e74207065726d697373696f6e0000000000000000004f776e61626c653a206e6577206f776e657220697320746865207a65726f20616464726573736ce984c7277c5fe8f47fdf17245300ed19587e3bc1041342d79726b2b2f1dc0b455243313135353a207461726765742061646472657373206d757374206265206e6f6e2d7a65726f455243313135353a2063616e6e6f742073657420617070726f76616c2073746174757320666f722073656c66455243313135353a206163636f756e747320616e6420494473206d75737420686176652073616d65206c656e67746873455243313135353a20676f7420756e6b6e6f776e2076616c75652066726f6d206f6e4552433131353542617463685265636569766564455243313135353a20736f6d65206164647265737320696e2062617463682062616c616e6365207175657279206973207a65726f536166654d6174683a206d756c7469706c69636174696f6e206f766572666c6f77496e73756666696369656e742063616c6c6261636b2c207065726d697373696f6e206f7220657363726f77656420616d6f756e744f776e61626c653a2063616c6c6572206973206e6f7420746865206f776e6572455243313135353a206e656564206f70657261746f7220617070726f76616c20666f7220337264207061727479207472616e7366657273455243313135353a2049447320616e642076616c756573206d75737420686176652073616d65206c656e67746873455243313135353a20676f7420756e6b6e6f776e2076616c75652066726f6d206f6e455243313135355265636569766564a26469706673582212209fa8355ba147e3b79b62cee0677d25327d2b3586439d3b68a57bbf39f6512ba664736f6c634300070100334f776e61626c653a206e6577206f776e657220697320746865207a65726f2061646472657373",
  "immutableReferences": {},
  "source": "// SPDX-License-Identifier: GPL-3.0-or-later\n\npragma solidity ^0.7.1;\n\nimport './interfaces/IERC1155Metadata.sol';\nimport \"./utils/SafeMath.sol\";\nimport './utils/StringUtils.sol';\nimport './lib/Callable.sol';\nimport './lib/Privatizable.sol';\n\ncontract StashBlox is Callable, IERC1155Metadata, StringUtils {\n\n    using SafeMath for uint256;\n\n    /**\n     * @dev Initializes the contract setting the deployer as the initial owner.\n     */\n    constructor () {\n        _config.callbackAutoExecuteMaxAddresses = 50;\n        _config.baseURI = \"http://stashblox.com/tokens/\";\n        _transferOwnership(msg.sender);\n    }\n\n    /**\n     * @dev Function to withdraw ETH from the contract.\n     * @param to recipent address\n     * @param amount amount to withdraw\n     */\n    function withdraw(address to, uint256 amount) external onlyOwner {\n        require(_users[to].ETHBalance >= amount, \"Insufficient balance\");\n        (bool success, ) = to.call{value: amount}(\"\");\n        require(success, \"Withdrawal failed\");\n        _users[to].ETHBalance -= amount;\n    }\n\n    /**\n     * @dev Function to make an ETH deposit that can be used to pay token transfer .\n     * @param to recipent address\n     */\n    function deposit(address to) external payable {\n        _users[to].ETHBalance = _users[to].ETHBalance.add(msg.value);\n    }\n\n    /**\n     * @dev Receive Ether Function:this is the function that is executed on plain Ether transfers (e.g. via .send() or .transfer()).\n     */\n    receive() external payable {\n        _users[msg.sender].ETHBalance = _users[msg.sender].ETHBalance.add(msg.value);\n    }\n\n    /**\n     * @param id Token ID\n     * @return URI string\n     */\n    function uri(uint256 id) external view override returns (string memory) {\n        return _strConcat(_config.baseURI, _toHexString(id));\n    }\n\n\n\n}\n",
  "sourcePath": "/home/ouziel/Work/StashBloxContracts/contracts/StashBlox.sol",
  "compiler": {
    "name": "solc",
    "version": "0.7.1+commit.f4a555be.Emscripten.clang"
  },
  "schemaVersion": "3.2.3",
  "updatedAt": "2020-10-20T21:56:14.829Z",
  "devdoc": {
    "kind": "dev",
    "methods": {
      "acceptCallback(uint256)": {
        "details": "Accept a callback",
        "params": {
          "callbackId": "callback proposition ID"
        }
      },
      "approveCallback(uint256)": {
        "details": "Approve a callback",
        "params": {
          "callbackId": "callback proposition ID"
        }
      },
      "approveHolder(uint256,address)": {
        "details": "Function to approve holder for a private token.",
        "params": {
          "holder": "The authorized address",
          "id": "the token id"
        }
      },
      "authorizeMaintener(uint256,address)": {
        "details": "Function to authorize an address to maintain a token.",
        "params": {
          "maintener": "The authorized address"
        }
      },
      "authorizeTokenizer(address)": {
        "details": "Function to authorize an address to create a token.",
        "params": {
          "tokenizer": "The authorized address"
        }
      },
      "balanceOf(address,uint256)": {
        "details": "Get the specified address' balance for token with specified ID. Attempting to query the zero account for a balance will result in a revert.",
        "params": {
          "account": "The address of the token holder",
          "id": "ID of the token"
        },
        "returns": {
          "_0": "The account's balance of the token type requested"
        }
      },
      "balanceOfBatch(address[],uint256[])": {
        "details": "Get the balance of multiple account/token pairs. If any of the query accounts is the zero account, this query will revert.",
        "params": {
          "accounts": "The addresses of the token holders",
          "ids": "IDs of the tokens"
        },
        "returns": {
          "_0": "Balances for each account and token id pair"
        }
      },
      "cloneToken(uint256,uint256[],uint256[])": {
        "details": "Function to mint tokens in batch.",
        "params": {
          "id": "Identifier of the template",
          "ids": "list of IDs of the tokens to be minted",
          "metadataHashes": "list of metadata file hashes"
        }
      },
      "constructor": {
        "details": "Initializes the contract setting the deployer as the initial owner."
      },
      "createToken(address,uint256,uint256,uint256,uint256,uint256[3],address[],uint256[],uint256,bool,address)": {
        "details": "Function to mint an amount of a token with the given ID.",
        "params": {
          "feesRecipients": "list of addresses receiving transfer fees",
          "feesRecipientsPercentage": "list of percentage, each one for the corresponding feesRecipients",
          "id": "ID of the token to be minted",
          "isPrivate": "true if holder need approval",
          "legalAuthority": "address of the legal authority",
          "metadataHash": "Metadata file hash",
          "minHoldingForCallback": "minimum holding to propose a callback",
          "recipient": "The address that will own the minted tokens",
          "supply": "Amount of the token to be minted",
          "transactionFees": "transaction fees: [lumpSumFees (in WEI), valueProportionalFees (ratio of transfered amount * 10**8), storageFees (in storageCredit * 10**8)]"
        }
      },
      "deposit(address)": {
        "details": "Function to make an ETH deposit that can be used to pay token transfer .",
        "params": {
          "to": "recipent address"
        }
      },
      "executeCallback(uint256,uint256)": {
        "details": "Accept a callback. Caller need to recall the function to continue the callback until completed.",
        "params": {
          "callbackId": "callback proposition ID",
          "maxCall": "maximal call to excute"
        }
      },
      "isApprovedForAll(address,address)": {
        "params": {
          "account": "The account of the Tokens",
          "operator": "Address of authorized operator"
        },
        "returns": {
          "_0": "True if the operator is approved, false if not"
        }
      },
      "isLockedAddress(address)": {
        "details": "Function to check if an address is lockec.",
        "params": {
          "addr": "The address to check"
        }
      },
      "isLockedToken(uint256)": {
        "details": "Function to check if a token is locked.",
        "params": {
          "id": "The token ID"
        }
      },
      "isMaintener(uint256,address)": {
        "details": "Function to check if an address is authorized to maintain a token.",
        "params": {
          "id": "the token id",
          "maintener": "The authorized address"
        },
        "returns": {
          "_0": "true if it's a maintener address"
        }
      },
      "isTokenizer(address)": {
        "details": "Function to check if an address is authorized to create a token.",
        "params": {
          "tokenizer": "The authorized address"
        }
      },
      "lockAddress(address)": {
        "details": "Function to lock an address.",
        "params": {
          "addr": "The address to lock"
        }
      },
      "lockToken(uint256,uint256)": {
        "details": "Function to lock a token.",
        "params": {
          "id": "The token ID"
        }
      },
      "owner()": {
        "details": "Returns the address of the current owner."
      },
      "proposeCallback(uint256,uint256,uint256,address[],uint256)": {
        "details": "Propose to buy the whole supply of a token. The proposer must hold minHoldingForCallback% of the total supply. StashBlox must approve the price with acceptCallback();",
        "params": {
          "callees": "list of calless. Empty list means all holders.",
          "price": "proposed price",
          "tokenId": "Token ID"
        }
      },
      "refuseCallback(uint256)": {
        "details": "Refuse a callback if the price is not enough.",
        "params": {
          "callbackId": "callback proposition ID"
        }
      },
      "revokeHolder(uint256,address)": {
        "details": "Function to revoke holder for a private token.",
        "params": {
          "holder": "The authorized address",
          "id": "the token id"
        }
      },
      "revokeMaintener(uint256,address)": {
        "details": "Function to revoke the authorization to maintain a token.",
        "params": {
          "id": "the token id",
          "maintener": "The authorized address"
        }
      },
      "revokeTokenizer(address)": {
        "details": "Function to revoke the authorization to create a token.",
        "params": {
          "tokenizer": "The authorized address"
        }
      },
      "safeBatchTransferFrom(address,address,uint256[],uint256[],bytes)": {
        "details": "Transfers `values` amount(s) of `ids` from the `from` address to the `to` address specified. Caller must be approved to manage the tokens being transferred out of the `from` account. If `to` is a smart contract, will call `onERC1155BatchReceived` on `to` and act appropriately.",
        "params": {
          "data": "Data forwarded to `onERC1155Received` if `to` is a contract receiver",
          "from": "Source address",
          "ids": "IDs of each token type",
          "to": "Target address",
          "values": "Transfer amounts per token type"
        }
      },
      "safeTransferFrom(address,address,uint256,uint256,bytes)": {
        "details": "Transfers `value` amount of an `id` from the `from` address to the `to` address specified. Caller must be approved to manage the tokens being transferred out of the `from` account. If `to` is a smart contract, will call `onERC1155Received` on `to` and act appropriately.",
        "params": {
          "data": "Data forwarded to `onERC1155Received` if `to` is a contract receiver",
          "from": "Source address",
          "id": "ID of the token type",
          "to": "Target address",
          "value": "Transfer amount"
        }
      },
      "setApprovalForAll(address,bool)": {
        "details": "Sets or unsets the approval of a given operator. An operator is allowed to transfer all tokens of the sender on their behalf. Because an account already has operator privileges for itself, this function will revert if the account attempts to set the approval status for itself.",
        "params": {
          "approved": "representing the status of the approval to be set",
          "operator": "address to set the approval"
        }
      },
      "setCallbackAutoExecuteMaxAddresses(uint256)": {
        "details": "Maximum addresses to execute automatically the callback when is accepted.",
        "params": {
          "newMax": "new maximum"
        }
      },
      "setProxyRegistryAddress(address[10])": {
        "details": "Function to update the operator whitelist",
        "params": {
          "proxyAddresses": "List of addresses"
        }
      },
      "supportsInterface(bytes4)": {
        "params": {
          "_interfaceID": "The interface identifier, as specified in ERC-165"
        },
        "returns": {
          "_0": "`true` if the contract implements `_interfaceID` and"
        }
      },
      "transactionFees(address,uint256,uint256)": {
        "details": "Function to get the transaction price to transfer tokens.",
        "params": {
          "account": "the address from where to transfer the tokens",
          "id": "The token ID",
          "value": "The amount to transfer"
        }
      },
      "transferOwnership(address)": {
        "details": "Transfers ownership of the contract to a new account (`newOwner`). Can only be called by the current owner."
      },
      "unlockAddress(address)": {
        "details": "Function to unlock an address.",
        "params": {
          "addr": "The address to unlock"
        }
      },
      "unlockToken(uint256,uint256)": {
        "details": "Function to unlock a token.",
        "params": {
          "id": "The token ID"
        }
      },
      "updateToken(uint256,uint256,uint256[3],address[],uint256[],uint256,bool,address)": {
        "details": "Function to update a token with the given ID.",
        "params": {
          "feesRecipients": "list of addresses receiving transfer fees",
          "feesRecipientsPercentage": "list of percentage, each one for the corresponding feesRecipients",
          "id": "ID of the token to be updated",
          "isPrivate": "true if holder need approval",
          "legalAuthority": "address of the legal authority",
          "metadataHash": "Metadata file hash",
          "minHoldingForCallback": "minimum holding to propose a callback",
          "transactionFees": "transaction fees: [lumpSumFees (in WEI), valueProportionalFees (ratio of transfered amount * 10**8), storageFees (in storageCredit * 10**8)]"
        }
      },
      "uri(uint256)": {
        "params": {
          "id": "Token ID"
        },
        "returns": {
          "_0": "URI string"
        }
      },
      "withdraw(address,uint256)": {
        "details": "Function to withdraw ETH from the contract.",
        "params": {
          "amount": "amount to withdraw",
          "to": "recipent address"
        }
      }
    },
    "version": 1
  },
  "userdoc": {
    "kind": "user",
    "methods": {
      "isApprovedForAll(address,address)": {
        "notice": "Queries the approval status of an operator for a given account."
      },
      "supportsInterface(bytes4)": {
        "notice": "Query if a contract implements an interface"
      }
    },
    "version": 1
  }
}