{
  "contractName": "StashBloxBase",
  "abi": [
    {
      "anonymous": false,
      "inputs": [
        {
          "indexed": true,
          "internalType": "address",
          "name": "previousOwner",
          "type": "address"
        },
        {
          "indexed": true,
          "internalType": "address",
          "name": "newOwner",
          "type": "address"
        }
      ],
      "name": "OwnershipTransferred",
      "type": "event"
    },
    {
      "inputs": [
        {
          "internalType": "address",
          "name": "",
          "type": "address"
        }
      ],
      "name": "_ETHBalances",
      "outputs": [
        {
          "internalType": "uint256",
          "name": "",
          "type": "uint256"
        }
      ],
      "stateMutability": "view",
      "type": "function"
    },
    {
      "inputs": [
        {
          "internalType": "uint256",
          "name": "",
          "type": "uint256"
        },
        {
          "internalType": "uint256",
          "name": "",
          "type": "uint256"
        }
      ],
      "name": "_addressesByToken",
      "outputs": [
        {
          "internalType": "address",
          "name": "",
          "type": "address"
        }
      ],
      "stateMutability": "view",
      "type": "function"
    },
    {
      "inputs": [
        {
          "internalType": "uint256",
          "name": "",
          "type": "uint256"
        },
        {
          "internalType": "address",
          "name": "",
          "type": "address"
        }
      ],
      "name": "_birthdays",
      "outputs": [
        {
          "internalType": "uint256",
          "name": "",
          "type": "uint256"
        }
      ],
      "stateMutability": "view",
      "type": "function"
    },
    {
      "inputs": [
        {
          "internalType": "address",
          "name": "",
          "type": "address"
        },
        {
          "internalType": "uint256",
          "name": "",
          "type": "uint256"
        }
      ],
      "name": "_tokensByAddress",
      "outputs": [
        {
          "internalType": "uint256",
          "name": "",
          "type": "uint256"
        }
      ],
      "stateMutability": "view",
      "type": "function"
    },
    {
      "inputs": [],
      "name": "owner",
      "outputs": [
        {
          "internalType": "address",
          "name": "",
          "type": "address"
        }
      ],
      "stateMutability": "view",
      "type": "function"
    },
    {
      "inputs": [
        {
          "internalType": "address",
          "name": "newOwner",
          "type": "address"
        }
      ],
      "name": "transferOwnership",
      "outputs": [],
      "stateMutability": "nonpayable",
      "type": "function"
    },
    {
      "inputs": [
        {
          "internalType": "uint256",
          "name": "id",
          "type": "uint256"
        }
      ],
      "name": "lockToken",
      "outputs": [],
      "stateMutability": "nonpayable",
      "type": "function"
    },
    {
      "inputs": [
        {
          "internalType": "uint256",
          "name": "id",
          "type": "uint256"
        }
      ],
      "name": "unlockToken",
      "outputs": [],
      "stateMutability": "nonpayable",
      "type": "function"
    },
    {
      "inputs": [
        {
          "internalType": "uint256",
          "name": "id",
          "type": "uint256"
        }
      ],
      "name": "isLockedToken",
      "outputs": [
        {
          "internalType": "bool",
          "name": "",
          "type": "bool"
        }
      ],
      "stateMutability": "view",
      "type": "function"
    },
    {
      "inputs": [
        {
          "internalType": "address",
          "name": "addr",
          "type": "address"
        }
      ],
      "name": "lockAddress",
      "outputs": [],
      "stateMutability": "nonpayable",
      "type": "function"
    },
    {
      "inputs": [
        {
          "internalType": "address",
          "name": "addr",
          "type": "address"
        }
      ],
      "name": "unlockAddress",
      "outputs": [],
      "stateMutability": "nonpayable",
      "type": "function"
    },
    {
      "inputs": [
        {
          "internalType": "address",
          "name": "addr",
          "type": "address"
        }
      ],
      "name": "isLockedAddress",
      "outputs": [
        {
          "internalType": "bool",
          "name": "",
          "type": "bool"
        }
      ],
      "stateMutability": "view",
      "type": "function"
    }
  ],
  "bytecode": "0x60806040526103e860045534801561001657600080fd5b5061002033610025565b6100df565b6001600160a01b038116610084576040517f08c379a00000000000000000000000000000000000000000000000000000000081526004018080602001828103825260268152602001806107876026913960400191505060405180910390fd5b600080546040516001600160a01b03808516939216917f8be0079c531659141344cd1fd0a4f28419497f9722a3daafe3b4186f6b6457e091a3600080546001600160a01b0319166001600160a01b0392909216919091179055565b610699806100ee6000396000f3fe608060405234801561001057600080fd5b50600436106100b45760003560e01c8063bba75c8311610071578063bba75c83146101a9578063cba54e60146101da578063d7b80ebc14610200578063dd2e0ac014610226578063ea2bd64d14610243578063f2fde38b1461026f576100b4565b8063119c0737146100b957806334a90d02146100f85780636eb987c71461012057806380f203631461015e5780638da5cb5b1461017b578063b7eb5e0a14610183575b600080fd5b6100dc600480360360408110156100cf57600080fd5b5080359060200135610295565b604080516001600160a01b039092168252519081900360200190f35b61011e6004803603602081101561010e57600080fd5b50356001600160a01b03166102ca565b005b61014c6004803603604081101561013657600080fd5b506001600160a01b038135169060200135610335565b60408051918252519081900360200190f35b61011e6004803603602081101561017457600080fd5b5035610363565b6100dc6103c5565b61011e6004803603602081101561019957600080fd5b50356001600160a01b03166103d4565b6101c6600480360360208110156101bf57600080fd5b503561043c565b604080519115158252519081900360200190f35b6101c6600480360360208110156101f057600080fd5b50356001600160a01b031661044d565b61014c6004803603602081101561021657600080fd5b50356001600160a01b0316610458565b61011e6004803603602081101561023c57600080fd5b503561046a565b61014c6004803603604081101561025957600080fd5b50803590602001356001600160a01b03166104c9565b61011e6004803603602081101561028557600080fd5b50356001600160a01b03166104e6565b600960205281600052604060002081815481106102ae57fe5b6000918252602090912001546001600160a01b03169150829050565b6102d2610539565b610311576040805162461bcd60e51b81526020600482018190526024820152600080516020610644833981519152604482015290519081900360640190fd5b6001600160a01b03166000908152600c60205260409020805460ff19166001179055565b6008602052816000526040600020818154811061034e57fe5b90600052602060002001600091509150505481565b61036b610539565b6103aa576040805162461bcd60e51b81526020600482018190526024820152600080516020610644833981519152604482015290519081900360640190fd5b6000908152600b60205260409020805460ff19166001179055565b6000546001600160a01b031690565b6103dc610539565b61041b576040805162461bcd60e51b81526020600482018190526024820152600080516020610644833981519152604482015290519081900360640190fd5b6001600160a01b03166000908152600c60205260409020805460ff19169055565b60006104478261054a565b92915050565b60006104478261055f565b60076020526000908152604090205481565b610472610539565b6104b1576040805162461bcd60e51b81526020600482018190526024820152600080516020610644833981519152604482015290519081900360640190fd5b6000908152600b60205260409020805460ff19169055565b600260209081526000928352604080842090915290825290205481565b6104ee610539565b61052d576040805162461bcd60e51b81526020600482018190526024820152600080516020610644833981519152604482015290519081900360640190fd5b6105368161057d565b50565b6000546001600160a01b0316331490565b6000908152600b602052604090205460ff1690565b6001600160a01b03166000908152600c602052604090205460ff1690565b6001600160a01b0381166105c25760405162461bcd60e51b815260040180806020018281038252602681526020018061061e6026913960400191505060405180910390fd5b600080546040516001600160a01b03808516939216917f8be0079c531659141344cd1fd0a4f28419497f9722a3daafe3b4186f6b6457e091a3600080546001600160a01b0319166001600160a01b039290921691909117905556fe4f776e61626c653a206e6577206f776e657220697320746865207a65726f20616464726573734f776e61626c653a2063616c6c6572206973206e6f7420746865206f776e6572a2646970667358221220fdc530470e6533efc16863b10fdde145b5d40ad44ae041f5fe84ac106e55145364736f6c634300070100334f776e61626c653a206e6577206f776e657220697320746865207a65726f2061646472657373",
  "immutableReferences": {},
  "source": "pragma solidity ^0.7.1;\n\nimport \"./lib/utils/SafeMath.sol\";\nimport \"./lib/ERC173/ERC173.sol\";\n\ncontract StashBloxBase is ERC173 {\n\n    using SafeMath for uint256;\n\n    // Mapping from token ID to account balances\n    mapping (uint256 => mapping(address => uint256)) _balances;\n\n    // Mapping from token ID to account age\n    mapping (uint256 => mapping(address => uint256)) public _birthdays;\n\n    // Mapping from token ID to list of tuple [timestamp, price]\n    mapping (uint256 => uint256[2][]) internal _storageCostHistory;\n\n    // price on one storage credit in wei\n    uint256 storageCreditPrice = 1000;\n\n    // For each token a list of addresses receiving transfer fees\n    mapping (uint256 => address[]) internal _feesRecipients;\n    // For each token a list of percentage, each one for the corresponding _feesRecipients index\n    mapping (uint256 => uint256[]) internal _feesRecipientsPercentage;\n    // Balances ETH for fees recipients and callbacks\n    mapping (address => uint256) public _ETHBalances;\n\n    // For each address a list of token IDs. Can contains zero balance.\n    mapping (address => uint256[]) public _tokensByAddress;\n    // For each token a list of addresses. Can contains zero balance.\n    mapping (uint256 => address[]) public _addressesByToken;\n    // Initialize to true on the first token received, never come back to false.\n    mapping (uint256 => mapping(address => bool)) internal _isHolder;\n\n\n    // Mapping for locked tokens\n    mapping (uint256 => bool) private _tokenLocks;\n    mapping (address => bool) private _addressLocks;\n\n    function lockToken(uint256 id) external onlyOwner {\n        _tokenLocks[id] = true;\n    }\n\n    function unlockToken(uint256 id) external onlyOwner {\n        _tokenLocks[id] = false;\n    }\n\n    function isLockedToken(uint256 id) external view returns (bool){\n        return _isLockedToken(id);\n    }\n\n    function _isLockedToken(uint256 id) internal view returns (bool) {\n        return _tokenLocks[id];\n    }\n\n    function lockAddress(address addr) external onlyOwner {\n        _addressLocks[addr] = true;\n    }\n\n    function unlockAddress(address addr) external onlyOwner {\n        _addressLocks[addr] = false;\n    }\n\n    function isLockedAddress(address addr) external view returns (bool){\n        return _isLockedAddress(addr);\n    }\n\n    function _isLockedAddress(address addr) internal view returns (bool) {\n        return _addressLocks[addr];\n    }\n\n    function _isLockedMove(address from, address to, uint256 id, uint256 value) internal view returns (bool) {\n        return _isLockedToken(id) || _isLockedAddress(from) || _isLockedAddress(to) || (value == 0);\n    }\n\n\n    function _moveTokens(address from, address to, uint256 id, uint256 value, uint256 feesBalance) internal returns (uint256 fees) {\n        //require(!_locked[id], \"Locked\");\n        require(!_isLockedMove(from, to, id, value), \"Locked\");\n\n        fees = _storageFees(from, id, value);\n        require(feesBalance >= fees, \"ERC1155: insufficient ETH for transfer fees\");\n\n        _balances[id][from] = _balances[id][from].sub(value, \"ERC1155: insufficient balance for transfer\");\n\n        uint256 newBalanceTo = _balances[id][to].add(value);\n\n        if (_balances[id][to] == 0) {\n\n          if (!_isHolder[id][to]) {\n            _tokensByAddress[to].push(id);\n            _addressesByToken[id].push(to);\n            _isHolder[id][to];\n          }\n\n          _birthdays[id][to] = block.timestamp;\n\n        } else {\n          // calculate the average birthday of the received and hold tokens\n          uint256 oldTokensAge = block.timestamp.sub(_birthdays[id][to]);\n          uint256 newTokenAge = (_balances[id][to].mul(oldTokensAge)).div(newBalanceTo);\n\n          _birthdays[id][to] = block.timestamp - newTokenAge;\n        }\n\n        _balances[id][to] = newBalanceTo;\n\n        for (uint256 i = 0; i < _feesRecipients[id].length; ++i) {\n          address feesRecipient = _feesRecipients[id][i];\n          uint256 feesRecipientsPercentage = _feesRecipientsPercentage[id][i];\n          _ETHBalances[feesRecipient] += (fees.mul(feesRecipientsPercentage)).div(10000);\n        }\n\n        return fees;\n    }\n\n    function _storageFees(address account, uint256 id, uint256 value) internal view returns (uint256) {\n        require(account != address(0), \"ERC1155: balance query for the zero address\");\n\n        uint256 totalCost = 0;\n        uint256 timeCursor = block.timestamp;\n\n        for (uint i = _storageCostHistory[id].length - 1; i >= 0; i--) {\n\n          uint256 costStartAt = _storageCostHistory[id][i][0];\n          uint256 cost = (_storageCostHistory[id][i][1] * storageCreditPrice) / 10**8;\n          uint256 storageDays;\n\n          if (_birthdays[id][account] >= costStartAt) {\n            storageDays = (timeCursor - _birthdays[id][account]) / 86400;\n            if (storageDays == 0) storageDays = 1;\n            totalCost += storageDays * cost * value;\n            break;\n          } else {\n            storageDays = (timeCursor - costStartAt) / 86400;\n            if (storageDays == 0) storageDays = 1;\n            timeCursor = costStartAt;\n            totalCost += storageDays * cost * value;\n          }\n        }\n\n        return totalCost;\n    }\n}\n",
  "sourcePath": "/home/ouziel/Work/StashBloxContracts/contracts/StashBloxBase.sol",
  "compiler": {
    "name": "solc",
    "version": "0.7.1+commit.f4a555be.Emscripten.clang"
  },
  "schemaVersion": "3.2.3",
  "updatedAt": "2020-10-02T10:27:22.980Z",
  "devdoc": {
    "kind": "dev",
    "methods": {
      "owner()": {
        "details": "Returns the address of the current owner."
      },
      "transferOwnership(address)": {
        "details": "Transfers ownership of the contract to a new account (`newOwner`). Can only be called by the current owner."
      }
    },
    "version": 1
  },
  "userdoc": {
    "kind": "user",
    "methods": {},
    "version": 1
  }
}