{
  "contractName": "StashBlox",
  "abi": [
    {
      "anonymous": false,
      "inputs": [
        {
          "indexed": true,
          "internalType": "address",
          "name": "_owner",
          "type": "address"
        },
        {
          "indexed": true,
          "internalType": "address",
          "name": "_operator",
          "type": "address"
        },
        {
          "indexed": false,
          "internalType": "bool",
          "name": "_approved",
          "type": "bool"
        }
      ],
      "name": "ApprovalForAll",
      "type": "event"
    },
    {
      "anonymous": false,
      "inputs": [
        {
          "indexed": true,
          "internalType": "uint256",
          "name": "_id",
          "type": "uint256"
        },
        {
          "indexed": false,
          "internalType": "address",
          "name": "_proposer",
          "type": "address"
        },
        {
          "indexed": false,
          "internalType": "uint256",
          "name": "_price",
          "type": "uint256"
        }
      ],
      "name": "CallbackAccepted",
      "type": "event"
    },
    {
      "anonymous": false,
      "inputs": [
        {
          "indexed": true,
          "internalType": "uint256",
          "name": "_id",
          "type": "uint256"
        },
        {
          "indexed": false,
          "internalType": "address",
          "name": "_proposer",
          "type": "address"
        },
        {
          "indexed": false,
          "internalType": "uint256",
          "name": "_price",
          "type": "uint256"
        }
      ],
      "name": "CallbackCanceled",
      "type": "event"
    },
    {
      "anonymous": false,
      "inputs": [
        {
          "indexed": true,
          "internalType": "uint256",
          "name": "_id",
          "type": "uint256"
        },
        {
          "indexed": false,
          "internalType": "address",
          "name": "_proposer",
          "type": "address"
        },
        {
          "indexed": false,
          "internalType": "uint256",
          "name": "_price",
          "type": "uint256"
        }
      ],
      "name": "CallbackProposed",
      "type": "event"
    },
    {
      "anonymous": false,
      "inputs": [
        {
          "indexed": true,
          "internalType": "uint256",
          "name": "_id",
          "type": "uint256"
        },
        {
          "indexed": false,
          "internalType": "address",
          "name": "_proposer",
          "type": "address"
        },
        {
          "indexed": false,
          "internalType": "uint256",
          "name": "_price",
          "type": "uint256"
        }
      ],
      "name": "CallbackRefused",
      "type": "event"
    },
    {
      "anonymous": false,
      "inputs": [
        {
          "indexed": true,
          "internalType": "uint256",
          "name": "_id",
          "type": "uint256"
        },
        {
          "indexed": true,
          "internalType": "uint256",
          "name": "_hash",
          "type": "uint256"
        }
      ],
      "name": "MetadataHashUpdated",
      "type": "event"
    },
    {
      "anonymous": false,
      "inputs": [
        {
          "indexed": true,
          "internalType": "address",
          "name": "previousOwner",
          "type": "address"
        },
        {
          "indexed": true,
          "internalType": "address",
          "name": "newOwner",
          "type": "address"
        }
      ],
      "name": "OwnershipTransferred",
      "type": "event"
    },
    {
      "anonymous": false,
      "inputs": [
        {
          "indexed": true,
          "internalType": "address",
          "name": "_operator",
          "type": "address"
        },
        {
          "indexed": true,
          "internalType": "address",
          "name": "_from",
          "type": "address"
        },
        {
          "indexed": true,
          "internalType": "address",
          "name": "_to",
          "type": "address"
        },
        {
          "indexed": false,
          "internalType": "uint256[]",
          "name": "_ids",
          "type": "uint256[]"
        },
        {
          "indexed": false,
          "internalType": "uint256[]",
          "name": "_values",
          "type": "uint256[]"
        }
      ],
      "name": "TransferBatch",
      "type": "event"
    },
    {
      "anonymous": false,
      "inputs": [
        {
          "indexed": true,
          "internalType": "address",
          "name": "_operator",
          "type": "address"
        },
        {
          "indexed": true,
          "internalType": "address",
          "name": "_from",
          "type": "address"
        },
        {
          "indexed": true,
          "internalType": "address",
          "name": "_to",
          "type": "address"
        },
        {
          "indexed": false,
          "internalType": "uint256",
          "name": "_id",
          "type": "uint256"
        },
        {
          "indexed": false,
          "internalType": "uint256",
          "name": "_value",
          "type": "uint256"
        }
      ],
      "name": "TransferSingle",
      "type": "event"
    },
    {
      "anonymous": false,
      "inputs": [
        {
          "indexed": false,
          "internalType": "string",
          "name": "_value",
          "type": "string"
        },
        {
          "indexed": true,
          "internalType": "uint256",
          "name": "_id",
          "type": "uint256"
        }
      ],
      "name": "URI",
      "type": "event"
    },
    {
      "anonymous": false,
      "inputs": [
        {
          "indexed": true,
          "internalType": "address",
          "name": "_tokenizer",
          "type": "address"
        },
        {
          "indexed": false,
          "internalType": "uint256",
          "name": "_id",
          "type": "uint256"
        },
        {
          "indexed": false,
          "internalType": "uint256",
          "name": "_cost",
          "type": "uint256"
        }
      ],
      "name": "UpdateStorageCost",
      "type": "event"
    },
    {
      "anonymous": false,
      "inputs": [
        {
          "indexed": true,
          "internalType": "address",
          "name": "_owner",
          "type": "address"
        },
        {
          "indexed": false,
          "internalType": "uint256",
          "name": "_price",
          "type": "uint256"
        }
      ],
      "name": "UpdateStorageCreditPrice",
      "type": "event"
    },
    {
      "constant": true,
      "inputs": [],
      "name": "BASE_URI",
      "outputs": [
        {
          "internalType": "string",
          "name": "",
          "type": "string"
        }
      ],
      "payable": false,
      "stateMutability": "view",
      "type": "function"
    },
    {
      "constant": false,
      "inputs": [
        {
          "internalType": "uint256",
          "name": "id",
          "type": "uint256"
        },
        {
          "internalType": "address",
          "name": "proposer",
          "type": "address"
        }
      ],
      "name": "acceptCallback",
      "outputs": [],
      "payable": false,
      "stateMutability": "nonpayable",
      "type": "function"
    },
    {
      "constant": true,
      "inputs": [
        {
          "internalType": "uint256",
          "name": "id",
          "type": "uint256"
        }
      ],
      "name": "addressesByToken",
      "outputs": [
        {
          "internalType": "string",
          "name": "result",
          "type": "string"
        }
      ],
      "payable": false,
      "stateMutability": "view",
      "type": "function"
    },
    {
      "constant": false,
      "inputs": [
        {
          "internalType": "address",
          "name": "tokenizer",
          "type": "address"
        }
      ],
      "name": "authorizeTokenizer",
      "outputs": [],
      "payable": false,
      "stateMutability": "nonpayable",
      "type": "function"
    },
    {
      "constant": true,
      "inputs": [
        {
          "internalType": "address",
          "name": "account",
          "type": "address"
        },
        {
          "internalType": "uint256",
          "name": "id",
          "type": "uint256"
        }
      ],
      "name": "balanceOf",
      "outputs": [
        {
          "internalType": "uint256",
          "name": "",
          "type": "uint256"
        }
      ],
      "payable": false,
      "stateMutability": "view",
      "type": "function"
    },
    {
      "constant": true,
      "inputs": [
        {
          "internalType": "address[]",
          "name": "accounts",
          "type": "address[]"
        },
        {
          "internalType": "uint256[]",
          "name": "ids",
          "type": "uint256[]"
        }
      ],
      "name": "balanceOfBatch",
      "outputs": [
        {
          "internalType": "uint256[]",
          "name": "",
          "type": "uint256[]"
        }
      ],
      "payable": false,
      "stateMutability": "view",
      "type": "function"
    },
    {
      "constant": true,
      "inputs": [
        {
          "internalType": "address",
          "name": "account",
          "type": "address"
        },
        {
          "internalType": "uint256",
          "name": "id",
          "type": "uint256"
        }
      ],
      "name": "birthdayOf",
      "outputs": [
        {
          "internalType": "uint256",
          "name": "",
          "type": "uint256"
        }
      ],
      "payable": false,
      "stateMutability": "view",
      "type": "function"
    },
    {
      "constant": false,
      "inputs": [
        {
          "internalType": "address",
          "name": "recipient",
          "type": "address"
        },
        {
          "internalType": "uint256",
          "name": "id",
          "type": "uint256"
        },
        {
          "internalType": "uint256",
          "name": "supply",
          "type": "uint256"
        },
        {
          "internalType": "uint256",
          "name": "metadataHash",
          "type": "uint256"
        },
        {
          "internalType": "uint256",
          "name": "storageCreditCost",
          "type": "uint256"
        },
        {
          "internalType": "uint256",
          "name": "minHoldingForCallback",
          "type": "uint256"
        },
        {
          "internalType": "address[]",
          "name": "feesRecipients",
          "type": "address[]"
        },
        {
          "internalType": "uint256[]",
          "name": "feesRecipientsPercentage",
          "type": "uint256[]"
        }
      ],
      "name": "createToken",
      "outputs": [],
      "payable": false,
      "stateMutability": "nonpayable",
      "type": "function"
    },
    {
      "constant": false,
      "inputs": [
        {
          "internalType": "address",
          "name": "recipient",
          "type": "address"
        },
        {
          "internalType": "uint256[]",
          "name": "ids",
          "type": "uint256[]"
        },
        {
          "internalType": "uint256[]",
          "name": "metadataHashes",
          "type": "uint256[]"
        }
      ],
      "name": "createTokens",
      "outputs": [],
      "payable": false,
      "stateMutability": "nonpayable",
      "type": "function"
    },
    {
      "constant": true,
      "inputs": [
        {
          "internalType": "address",
          "name": "account",
          "type": "address"
        },
        {
          "internalType": "address",
          "name": "operator",
          "type": "address"
        }
      ],
      "name": "isApprovedForAll",
      "outputs": [
        {
          "internalType": "bool",
          "name": "",
          "type": "bool"
        }
      ],
      "payable": false,
      "stateMutability": "view",
      "type": "function"
    },
    {
      "constant": true,
      "inputs": [
        {
          "internalType": "address",
          "name": "addr",
          "type": "address"
        }
      ],
      "name": "isLockedAddress",
      "outputs": [
        {
          "internalType": "bool",
          "name": "",
          "type": "bool"
        }
      ],
      "payable": false,
      "stateMutability": "view",
      "type": "function"
    },
    {
      "constant": true,
      "inputs": [
        {
          "internalType": "uint256",
          "name": "id",
          "type": "uint256"
        }
      ],
      "name": "isLockedToken",
      "outputs": [
        {
          "internalType": "bool",
          "name": "",
          "type": "bool"
        }
      ],
      "payable": false,
      "stateMutability": "view",
      "type": "function"
    },
    {
      "constant": true,
      "inputs": [
        {
          "internalType": "address",
          "name": "tokenizer",
          "type": "address"
        }
      ],
      "name": "isTokenizer",
      "outputs": [
        {
          "internalType": "bool",
          "name": "",
          "type": "bool"
        }
      ],
      "payable": false,
      "stateMutability": "view",
      "type": "function"
    },
    {
      "constant": false,
      "inputs": [
        {
          "internalType": "address",
          "name": "addr",
          "type": "address"
        }
      ],
      "name": "lockAddress",
      "outputs": [],
      "payable": false,
      "stateMutability": "nonpayable",
      "type": "function"
    },
    {
      "constant": false,
      "inputs": [
        {
          "internalType": "uint256",
          "name": "id",
          "type": "uint256"
        }
      ],
      "name": "lockToken",
      "outputs": [],
      "payable": false,
      "stateMutability": "nonpayable",
      "type": "function"
    },
    {
      "constant": true,
      "inputs": [
        {
          "internalType": "uint256",
          "name": "id",
          "type": "uint256"
        }
      ],
      "name": "metadataHash",
      "outputs": [
        {
          "internalType": "uint256",
          "name": "",
          "type": "uint256"
        }
      ],
      "payable": false,
      "stateMutability": "view",
      "type": "function"
    },
    {
      "constant": true,
      "inputs": [],
      "name": "owner",
      "outputs": [
        {
          "internalType": "address",
          "name": "",
          "type": "address"
        }
      ],
      "payable": false,
      "stateMutability": "view",
      "type": "function"
    },
    {
      "constant": false,
      "inputs": [
        {
          "internalType": "uint256",
          "name": "id",
          "type": "uint256"
        },
        {
          "internalType": "uint256",
          "name": "price",
          "type": "uint256"
        }
      ],
      "name": "proposeCallback",
      "outputs": [],
      "payable": true,
      "stateMutability": "payable",
      "type": "function"
    },
    {
      "constant": false,
      "inputs": [
        {
          "internalType": "uint256",
          "name": "id",
          "type": "uint256"
        },
        {
          "internalType": "address",
          "name": "proposer",
          "type": "address"
        }
      ],
      "name": "refuseCallback",
      "outputs": [],
      "payable": false,
      "stateMutability": "nonpayable",
      "type": "function"
    },
    {
      "constant": false,
      "inputs": [
        {
          "internalType": "address",
          "name": "tokenizer",
          "type": "address"
        }
      ],
      "name": "revokeTokenizer",
      "outputs": [],
      "payable": false,
      "stateMutability": "nonpayable",
      "type": "function"
    },
    {
      "constant": false,
      "inputs": [
        {
          "internalType": "address",
          "name": "from",
          "type": "address"
        },
        {
          "internalType": "address",
          "name": "to",
          "type": "address"
        },
        {
          "internalType": "uint256[]",
          "name": "ids",
          "type": "uint256[]"
        },
        {
          "internalType": "uint256[]",
          "name": "values",
          "type": "uint256[]"
        },
        {
          "internalType": "bytes",
          "name": "data",
          "type": "bytes"
        }
      ],
      "name": "safeBatchTransferFrom",
      "outputs": [],
      "payable": true,
      "stateMutability": "payable",
      "type": "function"
    },
    {
      "constant": false,
      "inputs": [
        {
          "internalType": "address",
          "name": "from",
          "type": "address"
        },
        {
          "internalType": "address",
          "name": "to",
          "type": "address"
        },
        {
          "internalType": "uint256",
          "name": "id",
          "type": "uint256"
        },
        {
          "internalType": "uint256",
          "name": "value",
          "type": "uint256"
        },
        {
          "internalType": "bytes",
          "name": "data",
          "type": "bytes"
        }
      ],
      "name": "safeTransferFrom",
      "outputs": [],
      "payable": true,
      "stateMutability": "payable",
      "type": "function"
    },
    {
      "constant": false,
      "inputs": [
        {
          "internalType": "address",
          "name": "operator",
          "type": "address"
        },
        {
          "internalType": "bool",
          "name": "approved",
          "type": "bool"
        }
      ],
      "name": "setApprovalForAll",
      "outputs": [],
      "payable": false,
      "stateMutability": "nonpayable",
      "type": "function"
    },
    {
      "constant": false,
      "inputs": [
        {
          "internalType": "uint256",
          "name": "supply",
          "type": "uint256"
        },
        {
          "internalType": "uint256",
          "name": "storageCreditCost",
          "type": "uint256"
        },
        {
          "internalType": "uint256",
          "name": "minHoldingForCallback",
          "type": "uint256"
        },
        {
          "internalType": "address[]",
          "name": "feesRecipients",
          "type": "address[]"
        },
        {
          "internalType": "uint256[]",
          "name": "feesRecipientsPercentage",
          "type": "uint256[]"
        }
      ],
      "name": "setCreateTokensDefaultValues",
      "outputs": [],
      "payable": false,
      "stateMutability": "nonpayable",
      "type": "function"
    },
    {
      "constant": true,
      "inputs": [
        {
          "internalType": "address",
          "name": "account",
          "type": "address"
        },
        {
          "internalType": "uint256",
          "name": "id",
          "type": "uint256"
        },
        {
          "internalType": "uint256",
          "name": "value",
          "type": "uint256"
        }
      ],
      "name": "storageFees",
      "outputs": [
        {
          "internalType": "uint256",
          "name": "",
          "type": "uint256"
        }
      ],
      "payable": false,
      "stateMutability": "view",
      "type": "function"
    },
    {
      "constant": true,
      "inputs": [
        {
          "internalType": "bytes4",
          "name": "_interfaceID",
          "type": "bytes4"
        }
      ],
      "name": "supportsInterface",
      "outputs": [
        {
          "internalType": "bool",
          "name": "",
          "type": "bool"
        }
      ],
      "payable": false,
      "stateMutability": "view",
      "type": "function"
    },
    {
      "constant": true,
      "inputs": [
        {
          "internalType": "address",
          "name": "account",
          "type": "address"
        }
      ],
      "name": "tokensByAddress",
      "outputs": [
        {
          "internalType": "string",
          "name": "result",
          "type": "string"
        }
      ],
      "payable": false,
      "stateMutability": "view",
      "type": "function"
    },
    {
      "constant": true,
      "inputs": [
        {
          "internalType": "uint256",
          "name": "id",
          "type": "uint256"
        }
      ],
      "name": "totalSupply",
      "outputs": [
        {
          "internalType": "uint256",
          "name": "",
          "type": "uint256"
        }
      ],
      "payable": false,
      "stateMutability": "view",
      "type": "function"
    },
    {
      "constant": false,
      "inputs": [
        {
          "internalType": "address",
          "name": "newOwner",
          "type": "address"
        }
      ],
      "name": "transferOwnership",
      "outputs": [],
      "payable": false,
      "stateMutability": "nonpayable",
      "type": "function"
    },
    {
      "constant": false,
      "inputs": [
        {
          "internalType": "address",
          "name": "addr",
          "type": "address"
        }
      ],
      "name": "unlockAddress",
      "outputs": [],
      "payable": false,
      "stateMutability": "nonpayable",
      "type": "function"
    },
    {
      "constant": false,
      "inputs": [
        {
          "internalType": "uint256",
          "name": "id",
          "type": "uint256"
        }
      ],
      "name": "unlockToken",
      "outputs": [],
      "payable": false,
      "stateMutability": "nonpayable",
      "type": "function"
    },
    {
      "constant": false,
      "inputs": [
        {
          "internalType": "uint256",
          "name": "id",
          "type": "uint256"
        },
        {
          "internalType": "uint256",
          "name": "metadataHash",
          "type": "uint256"
        }
      ],
      "name": "updateMetadataHash",
      "outputs": [],
      "payable": false,
      "stateMutability": "nonpayable",
      "type": "function"
    },
    {
      "constant": false,
      "inputs": [
        {
          "internalType": "uint256",
          "name": "id",
          "type": "uint256"
        },
        {
          "internalType": "uint256",
          "name": "newCost",
          "type": "uint256"
        }
      ],
      "name": "updateStorageCost",
      "outputs": [],
      "payable": false,
      "stateMutability": "nonpayable",
      "type": "function"
    },
    {
      "constant": false,
      "inputs": [
        {
          "internalType": "uint256",
          "name": "newPrice",
          "type": "uint256"
        }
      ],
      "name": "updateStorageCreditPrice",
      "outputs": [],
      "payable": false,
      "stateMutability": "nonpayable",
      "type": "function"
    },
    {
      "constant": true,
      "inputs": [
        {
          "internalType": "uint256",
          "name": "id",
          "type": "uint256"
        }
      ],
      "name": "uri",
      "outputs": [
        {
          "internalType": "string",
          "name": "",
          "type": "string"
        }
      ],
      "payable": false,
      "stateMutability": "view",
      "type": "function"
    },
    {
      "constant": false,
      "inputs": [
        {
          "internalType": "address",
          "name": "to",
          "type": "address"
        },
        {
          "internalType": "uint256",
          "name": "amount",
          "type": "uint256"
        }
      ],
      "name": "withdraw",
      "outputs": [],
      "payable": false,
      "stateMutability": "nonpayable",
      "type": "function"
    }
  ],
  "bytecode": "0x60806040526103e8600655611f4060175562000021336200002760201b60201c565b620001f3565b600073ffffffffffffffffffffffffffffffffffffffff168173ffffffffffffffffffffffffffffffffffffffff1614156200009a576040517f08c379a00000000000000000000000000000000000000000000000000000000081526004016200009190620001c0565b60405180910390fd5b8073ffffffffffffffffffffffffffffffffffffffff166000809054906101000a900473ffffffffffffffffffffffffffffffffffffffff1673ffffffffffffffffffffffffffffffffffffffff167f8be0079c531659141344cd1fd0a4f28419497f9722a3daafe3b4186f6b6457e060405160405180910390a3806000806101000a81548173ffffffffffffffffffffffffffffffffffffffff021916908373ffffffffffffffffffffffffffffffffffffffff16021790555050565b600062000167602683620001e2565b91507f4f776e61626c653a206e6577206f776e657220697320746865207a65726f206160008301527f64647265737300000000000000000000000000000000000000000000000000006020830152604082019050919050565b60006020820190508181036000830152620001db8162000158565b9050919050565b600082825260208201905092915050565b616cad80620002036000396000f3fe60806040526004361061020e5760003560e01c8063b5690ac111610118578063dbddb26a116100a0578063f242432a1161006f578063f242432a1461080c578063f2fde38b14610828578063f38320ce14610851578063f3fef3a31461087a578063f8c89fd0146108a35761020e565b8063dbddb26a1461073e578063dd2e0ac014610769578063e1c95f8a14610792578063e985e9c5146107cf5761020e565b8063c02f303c116100e7578063c02f303c14610621578063c4be3c3c1461065e578063cba54e601461069b578063cf6c97ca146106d8578063d6bc5942146107015761020e565b8063b5690ac114610541578063b7eb5e0a1461057e578063bba75c83146105a7578063bd85b039146105e45761020e565b806370e0b1451161019b5780638870147b1161016a5780638870147b146104725780638da5cb5b1461049b578063939cd641146104c6578063a22cb465146104ef578063a2940072146105185761020e565b806370e0b145146103db5780637627b732146103f757806380f20363146104205780638495b141146104495761020e565b80632eb2c2d6116101e25780632eb2c2d61461030757806334a90d02146103235780634e1273f41461034c5780636b62becb146103895780636fe8ded2146103b25761020e565b8062fdd58e1461021357806301ffc9a7146102505780630e89341c1461028d578063219cc8bc146102ca575b600080fd5b34801561021f57600080fd5b5061023a6004803603610235919081019061512e565b6108cc565b604051610247919061699f565b60405180910390f35b34801561025c57600080fd5b5061027760048036036102729190810190615310565b610996565b6040516102849190616500565b60405180910390f35b34801561029957600080fd5b506102b460048036036102af9190810190615362565b610a47565b6040516102c1919061653d565b60405180910390f35b3480156102d657600080fd5b506102f160048036036102ec9190810190615362565b610a97565b6040516102fe919061699f565b60405180910390f35b610321600480360361031c9190810190614f0b565b610ab4565b005b34801561032f57600080fd5b5061034a60048036036103459190810190614ea6565b610e61565b005b34801561035857600080fd5b50610373600480360361036e91908101906152a4565b610f03565b60405161038091906164de565b60405180910390f35b34801561039557600080fd5b506103b060048036036103ab91908101906153c7565b6110b5565b005b3480156103be57600080fd5b506103d960048036036103d4919081019061538b565b61110b565b005b6103f560048036036103f091908101906153c7565b611362565b005b34801561040357600080fd5b5061041e60048036036104199190810190614ea6565b611668565b005b34801561042c57600080fd5b5061044760048036036104429190810190615362565b61170a565b005b34801561045557600080fd5b50610470600480360361046b9190810190615362565b61177f565b005b34801561047e57600080fd5b5061049960048036036104949190810190614ea6565b61181f565b005b3480156104a757600080fd5b506104b06118c1565b6040516104bd9190616374565b60405180910390f35b3480156104d257600080fd5b506104ed60048036036104e891908101906153c7565b6118ea565b005b3480156104fb57600080fd5b50610516600480360361051191908101906150f2565b6119e9565b005b34801561052457600080fd5b5061053f600480360361053a919081019061538b565b611b55565b005b34801561054d57600080fd5b5061056860048036036105639190810190615362565b612173565b604051610575919061653d565b60405180910390f35b34801561058a57600080fd5b506105a560048036036105a09190810190614ea6565b6122f3565b005b3480156105b357600080fd5b506105ce60048036036105c99190810190615362565b612395565b6040516105db9190616500565b60405180910390f35b3480156105f057600080fd5b5061060b60048036036106069190810190615362565b6123a7565b604051610618919061699f565b60405180910390f35b34801561062d57600080fd5b5061064860048036036106439190810190614ea6565b6123c4565b6040516106559190616500565b60405180910390f35b34801561066a57600080fd5b506106856004803603610680919081019061516a565b6123d6565b604051610692919061699f565b60405180910390f35b3480156106a757600080fd5b506106c260048036036106bd9190810190614ea6565b6123ec565b6040516106cf9190616500565b60405180910390f35b3480156106e457600080fd5b506106ff60048036036106fa91908101906151b9565b6123fe565b005b34801561070d57600080fd5b5061072860048036036107239190810190614ea6565b6124e4565b604051610735919061653d565b60405180910390f35b34801561074a57600080fd5b506107536126e0565b604051610760919061651b565b60405180910390f35b34801561077557600080fd5b50610790600480360361078b9190810190615362565b612719565b005b34801561079e57600080fd5b506107b960048036036107b4919081019061512e565b61278f565b6040516107c6919061699f565b60405180910390f35b3480156107db57600080fd5b506107f660048036036107f19190810190614ecf565b6128b9565b6040516108039190616500565b60405180910390f35b61082660048036036108219190810190614fd7565b61294d565b005b34801561083457600080fd5b5061084f600480360361084a9190810190614ea6565b612be9565b005b34801561085d57600080fd5b5061087860048036036108739190810190615069565b612c3c565b005b34801561088657600080fd5b506108a1600480360361089c919081019061512e565b612db8565b005b3480156108af57600080fd5b506108ca60048036036108c59190810190615403565b612f44565b005b60008073ffffffffffffffffffffffffffffffffffffffff168373ffffffffffffffffffffffffffffffffffffffff16141561093d576040517f08c379a0000000000000000000000000000000000000000000000000000000008152600401610934906165bf565b60405180910390fd5b6003600083815260200190815260200160002060008473ffffffffffffffffffffffffffffffffffffffff1673ffffffffffffffffffffffffffffffffffffffff16815260200190815260200160002054905092915050565b60006301ffc9a760e01b7bffffffffffffffffffffffffffffffffffffffffffffffffffffffff1916827bffffffffffffffffffffffffffffffffffffffffffffffffffffffff19161480610a2f575063d9b67a2660e01b7bffffffffffffffffffffffffffffffffffffffffffffffffffffffff1916827bffffffffffffffffffffffffffffffffffffffffffffffffffffffff1916145b15610a3d5760019050610a42565b600090505b919050565b6060610a906040518060400160405280601d81526020017f68747470733a2f2f7374617368626c6f782e636f6d2f746f6b656e732f000000815250610a8b84612fce565b6130bd565b9050919050565b6000600e6000838152602001908152602001600020549050919050565b838390508686905014610afc576040517f08c379a0000000000000000000000000000000000000000000000000000000008152600401610af39061689f565b60405180910390fd5b600073ffffffffffffffffffffffffffffffffffffffff168773ffffffffffffffffffffffffffffffffffffffff161415610b6c576040517f08c379a0000000000000000000000000000000000000000000000000000000008152600401610b639061661f565b60405180910390fd5b3373ffffffffffffffffffffffffffffffffffffffff168873ffffffffffffffffffffffffffffffffffffffff161480610bb3575060011515610baf89336128b9565b1515145b610bf2576040517f08c379a0000000000000000000000000000000000000000000000000000000008152600401610be99061687f565b60405180910390fd5b600034905060008090505b87879050811015610c4857610c398a8a8a8a85818110610c1957fe5b90506020020135898986818110610c2c57fe5b9050602002013586613208565b82039150806001019050610bfd565b508773ffffffffffffffffffffffffffffffffffffffff168973ffffffffffffffffffffffffffffffffffffffff163373ffffffffffffffffffffffffffffffffffffffff167f4a39dc06d4c0dbc64b70af90fd698a233a518aa5d07e595d983b8c0526c8f7fb8a8a8a8a604051610cc394939291906164a3565b60405180910390a4610d9f338a8a8a8a80806020026020016040519081016040528093929190818152602001838360200280828437600081840152601f19601f82011690508083019250505050505050898980806020026020016040519081016040528093929190818152602001838360200280828437600081840152601f19601f8201169050808301925050505050505088888080601f016020809104026020016040519081016040528093929190818152602001838380828437600081840152601f19601f820116905080830192505050505050506138eb565b6000811115610e565760003373ffffffffffffffffffffffffffffffffffffffff1682604051610dce9061635f565b60006040518083038185875af1925050503d8060008114610e0b576040519150601f19603f3d011682016040523d82523d6000602084013e610e10565b606091505b5050905080610e54576040517f08c379a0000000000000000000000000000000000000000000000000000000008152600401610e4b906168df565b60405180910390fd5b505b505050505050505050565b610e69613a4a565b610ea8576040517f08c379a0000000000000000000000000000000000000000000000000000000008152600401610e9f906167bf565b60405180910390fd5b6001600260008373ffffffffffffffffffffffffffffffffffffffff1673ffffffffffffffffffffffffffffffffffffffff16815260200190815260200160002060006101000a81548160ff02191690831515021790555050565b60608151835114610f49576040517f08c379a0000000000000000000000000000000000000000000000000000000008152600401610f40906166ff565b60405180910390fd5b60608351604051908082528060200260200182016040528015610f7b5781602001602082028038833980820191505090505b50905060008090505b84518110156110aa57600073ffffffffffffffffffffffffffffffffffffffff16858281518110610fb157fe5b602002602001015173ffffffffffffffffffffffffffffffffffffffff161415611010576040517f08c379a00000000000000000000000000000000000000000000000000000000081526004016110079061675f565b60405180910390fd5b6003600085838151811061102057fe5b60200260200101518152602001908152602001600020600086838151811061104457fe5b602002602001015173ffffffffffffffffffffffffffffffffffffffff1673ffffffffffffffffffffffffffffffffffffffff1681526020019081526020016000205482828151811061109357fe5b602002602001018181525050806001019050610f84565b508091505092915050565b6110be33613aa1565b6110fd576040517f08c379a00000000000000000000000000000000000000000000000000000000081526004016110f4906166bf565b60405180910390fd5b6111078282613b06565b5050565b611113613a4a565b611152576040517f08c379a0000000000000000000000000000000000000000000000000000000008152600401611149906167bf565b60405180910390fd5b60006011600084815260200190815260200160002060008373ffffffffffffffffffffffffffffffffffffffff1673ffffffffffffffffffffffffffffffffffffffff1681526020019081526020016000206000600281106111b057fe5b0154905060006011600085815260200190815260200160002060008473ffffffffffffffffffffffffffffffffffffffff1673ffffffffffffffffffffffffffffffffffffffff16815260200190815260200160002060016002811061121257fe5b0154905060008211611259576040517f08c379a0000000000000000000000000000000000000000000000000000000008152600401611250906167ff565b60405180910390fd5b80600960008573ffffffffffffffffffffffffffffffffffffffff1673ffffffffffffffffffffffffffffffffffffffff168152602001908152602001600020600082825401925050819055506040518060400160405280600060ff168152602001600060ff168152506011600086815260200190815260200160002060008573ffffffffffffffffffffffffffffffffffffffff1673ffffffffffffffffffffffffffffffffffffffff1681526020019081526020016000209060026113219291906149a8565b50837fd7e908f6f9af1236bea3e4382bb17cabca5929dec62fbb431284240820150ddd848460405161135492919061647a565b60405180910390a250505050565b6000600f600084815260200190815260200160002054116113b8576040517f08c379a00000000000000000000000000000000000000000000000000000000081526004016113af906165ff565b60405180910390fd5b600081116113fb576040517f08c379a00000000000000000000000000000000000000000000000000000000081526004016113f29061667f565b60405180910390fd5b600061144a61271061143c6012600087815260200190815260200160002054600f600088815260200190815260200160002054613b5090919063ffffffff16565b613bc090919063ffffffff16565b9050806003600085815260200190815260200160002060003373ffffffffffffffffffffffffffffffffffffffff1673ffffffffffffffffffffffffffffffffffffffff1681526020019081526020016000205410156114df576040517f08c379a00000000000000000000000000000000000000000000000000000000081526004016114d6906166df565b60405180910390fd5b60006115576003600086815260200190815260200160002060003373ffffffffffffffffffffffffffffffffffffffff1673ffffffffffffffffffffffffffffffffffffffff16815260200190815260200160002054600f600087815260200190815260200160002054613c0a90919063ffffffff16565b9050600061156e8483613b5090919063ffffffff16565b9050803410156115b3576040517f08c379a00000000000000000000000000000000000000000000000000000000081526004016115aa906167df565b60405180910390fd5b6040518060400160405280858152602001348152506011600087815260200190815260200160002060003373ffffffffffffffffffffffffffffffffffffffff1673ffffffffffffffffffffffffffffffffffffffff1681526020019081526020016000209060026116269291906149ed565b50847f2a7673db20f80755f65f456687dc9fd630454e8c76e428cb4a4ae1d0410cef5e338660405161165992919061638f565b60405180910390a25050505050565b611670613a4a565b6116af576040517f08c379a00000000000000000000000000000000000000000000000000000000081526004016116a6906167bf565b60405180910390fd5b6001601060008373ffffffffffffffffffffffffffffffffffffffff1673ffffffffffffffffffffffffffffffffffffffff16815260200190815260200160002060006101000a81548160ff02191690831515021790555050565b611712613a4a565b611751576040517f08c379a0000000000000000000000000000000000000000000000000000000008152600401611748906167bf565b60405180910390fd5b600180600083815260200190815260200160002060006101000a81548160ff02191690831515021790555050565b61178833613aa1565b6117c7576040517f08c379a00000000000000000000000000000000000000000000000000000000081526004016117be906166bf565b60405180910390fd5b806006819055503373ffffffffffffffffffffffffffffffffffffffff167f5c5a35dc0829d2f6a31d1d6da57c4315ba7b562ee447c87b75c732cfd96abde982604051611814919061699f565b60405180910390a250565b611827613a4a565b611866576040517f08c379a000000000000000000000000000000000000000000000000000000000815260040161185d906167bf565b60405180910390fd5b6000601060008373ffffffffffffffffffffffffffffffffffffffff1673ffffffffffffffffffffffffffffffffffffffff16815260200190815260200160002060006101000a81548160ff02191690831515021790555050565b60008060009054906101000a900473ffffffffffffffffffffffffffffffffffffffff16905090565b6118f333613aa1565b611932576040517f08c379a0000000000000000000000000000000000000000000000000000000008152600401611929906166bf565b60405180910390fd5b60056000838152602001908152602001600020604051806040016040528042815260200183815250908060018154018082558091505090600182039060005260206000209060020201600090919290919091509060026119939291906149ed565b50503373ffffffffffffffffffffffffffffffffffffffff167f4bd9446604f43017ac3918d8db419b59a3b6f2a6cdd456eed5de99621bb6276583836040516119dd9291906169ba565b60405180910390a25050565b8173ffffffffffffffffffffffffffffffffffffffff163373ffffffffffffffffffffffffffffffffffffffff161415611a58576040517f08c379a0000000000000000000000000000000000000000000000000000000008152600401611a4f9061665f565b60405180910390fd5b80600d60003373ffffffffffffffffffffffffffffffffffffffff1673ffffffffffffffffffffffffffffffffffffffff16815260200190815260200160002060008473ffffffffffffffffffffffffffffffffffffffff1673ffffffffffffffffffffffffffffffffffffffff16815260200190815260200160002060006101000a81548160ff0219169083151502179055508173ffffffffffffffffffffffffffffffffffffffff163373ffffffffffffffffffffffffffffffffffffffff167f17307eab39ab6107e8899845ad3d59bd9653f200f220920489ca2b5937696c3183604051611b499190616500565b60405180910390a35050565b611b5d613a4a565b611b9c576040517f08c379a0000000000000000000000000000000000000000000000000000000008152600401611b93906167bf565b60405180910390fd5b60006011600084815260200190815260200160002060008373ffffffffffffffffffffffffffffffffffffffff1673ffffffffffffffffffffffffffffffffffffffff168152602001908152602001600020600060028110611bfa57fe5b0154905060006011600085815260200190815260200160002060008473ffffffffffffffffffffffffffffffffffffffff1673ffffffffffffffffffffffffffffffffffffffff168152602001908152602001600020600160028110611c5c57fe5b0154905060008211611ca3576040517f08c379a0000000000000000000000000000000000000000000000000000000008152600401611c9a906167ff565b60405180910390fd5b6000611cf2612710611ce46012600089815260200190815260200160002054600f60008a815260200190815260200160002054613b5090919063ffffffff16565b613bc090919063ffffffff16565b9050806003600087815260200190815260200160002060003373ffffffffffffffffffffffffffffffffffffffff1673ffffffffffffffffffffffffffffffffffffffff168152602001908152602001600020541015611d87576040517f08c379a0000000000000000000000000000000000000000000000000000000008152600401611d7e9061657f565b60405180910390fd5b6000611dff6003600088815260200190815260200160002060003373ffffffffffffffffffffffffffffffffffffffff1673ffffffffffffffffffffffffffffffffffffffff16815260200190815260200160002054600f600089815260200190815260200160002054613c0a90919063ffffffff16565b90506000611e168583613b5090919063ffffffff16565b905080841015611e5b576040517f08c379a0000000000000000000000000000000000000000000000000000000008152600401611e529061685f565b60405180910390fd5b60008090505b600b600089815260200190815260200160002080549050811015611ff3576000600b60008a81526020019081526020016000208281548110611e9f57fe5b9060005260206000200160009054906101000a900473ffffffffffffffffffffffffffffffffffffffff1690506000600360008b815260200190815260200160002060008373ffffffffffffffffffffffffffffffffffffffff1673ffffffffffffffffffffffffffffffffffffffff1681526020019081526020016000205490506000811115611fe6576000611f3f828a613b5090919063ffffffff16565b905080600960008573ffffffffffffffffffffffffffffffffffffffff1673ffffffffffffffffffffffffffffffffffffffff168152602001908152602001600020600082825401925050819055506000600360008d815260200190815260200160002060008573ffffffffffffffffffffffffffffffffffffffff1673ffffffffffffffffffffffffffffffffffffffff16815260200190815260200160002081905550505b5050806001019050611e61565b50600f6000888152602001908152602001600020546003600089815260200190815260200160002060008873ffffffffffffffffffffffffffffffffffffffff1673ffffffffffffffffffffffffffffffffffffffff16815260200190815260200160002081905550808411156120b457808403600960008873ffffffffffffffffffffffffffffffffffffffff1673ffffffffffffffffffffffffffffffffffffffff168152602001908152602001600020600082825401925050819055505b6040518060400160405280600060ff168152602001600060ff168152506011600089815260200190815260200160002060008873ffffffffffffffffffffffffffffffffffffffff1673ffffffffffffffffffffffffffffffffffffffff16815260200190815260200160002090600261212f9291906149a8565b50867f1a28571d07f35a57e1ed755a57928ae32539f444bbcef661637165f04fb5083f878760405161216292919061647a565b60405180910390a250505050505050565b606060008090505b600b6000848152602001908152602001600020805490508110156122ea576000600b600085815260200190815260200160002082815481106121b957fe5b9060005260206000200160009054906101000a900473ffffffffffffffffffffffffffffffffffffffff16905060006003600086815260200190815260200160002060008373ffffffffffffffffffffffffffffffffffffffff1673ffffffffffffffffffffffffffffffffffffffff1681526020019081526020016000205411156122dc576000835111156122b957612288836040518060400160405280600181526020017f20000000000000000000000000000000000000000000000000000000000000008152506130bd565b92506122b2836122ad8373ffffffffffffffffffffffffffffffffffffffff16612fce565b6130bd565b92506122db565b6122d88173ffffffffffffffffffffffffffffffffffffffff16612fce565b92505b5b50808060010191505061217b565b50809050919050565b6122fb613a4a565b61233a576040517f08c379a0000000000000000000000000000000000000000000000000000000008152600401612331906167bf565b60405180910390fd5b6000600260008373ffffffffffffffffffffffffffffffffffffffff1673ffffffffffffffffffffffffffffffffffffffff16815260200190815260200160002060006101000a81548160ff02191690831515021790555050565b60006123a082613c54565b9050919050565b6000600f6000838152602001908152602001600020549050919050565b60006123cf82613aa1565b9050919050565b60006123e3848484613c7e565b90509392505050565b60006123f782613ecf565b9050919050565b61240733613aa1565b612446576040517f08c379a000000000000000000000000000000000000000000000000000000000815260040161243d906166bf565b60405180910390fd5b6124d88a8a8a8a8a8a8a8a80806020026020016040519081016040528093929190818152602001838360200280828437600081840152601f19601f82011690508083019250505050505050898980806020026020016040519081016040528093929190818152602001838360200280828437600081840152601f19601f82011690508083019250505050505050613f25565b50505050505050505050565b6060600073ffffffffffffffffffffffffffffffffffffffff168273ffffffffffffffffffffffffffffffffffffffff161415612556576040517f08c379a000000000000000000000000000000000000000000000000000000000815260040161254d906165bf565b60405180910390fd5b60008090505b600a60008473ffffffffffffffffffffffffffffffffffffffff1673ffffffffffffffffffffffffffffffffffffffff168152602001908152602001600020805490508110156126d7576000600a60008573ffffffffffffffffffffffffffffffffffffffff1673ffffffffffffffffffffffffffffffffffffffff16815260200190815260200160002082815481106125f257fe5b9060005260206000200154905060006003600083815260200190815260200160002060008673ffffffffffffffffffffffffffffffffffffffff1673ffffffffffffffffffffffffffffffffffffffff1681526020019081526020016000205411156126c9576000835111156126bc576126a1836040518060400160405280600181526020017f20000000000000000000000000000000000000000000000000000000000000008152506130bd565b92506126b5836126b083612fce565b6130bd565b92506126c8565b6126c581612fce565b92505b5b50808060010191505061255c565b50809050919050565b6040518060400160405280601d81526020017f68747470733a2f2f7374617368626c6f782e636f6d2f746f6b656e732f00000081525081565b612721613a4a565b612760576040517f08c379a0000000000000000000000000000000000000000000000000000000008152600401612757906167bf565b60405180910390fd5b60006001600083815260200190815260200160002060006101000a81548160ff02191690831515021790555050565b60008073ffffffffffffffffffffffffffffffffffffffff168373ffffffffffffffffffffffffffffffffffffffff161415612800576040517f08c379a00000000000000000000000000000000000000000000000000000000081526004016127f7906165bf565b60405180910390fd5b60006003600084815260200190815260200160002060008573ffffffffffffffffffffffffffffffffffffffff1673ffffffffffffffffffffffffffffffffffffffff16815260200190815260200160002054146128ae576004600083815260200190815260200160002060008473ffffffffffffffffffffffffffffffffffffffff1673ffffffffffffffffffffffffffffffffffffffff168152602001908152602001600020546128b1565b60005b905092915050565b6000600d60008473ffffffffffffffffffffffffffffffffffffffff1673ffffffffffffffffffffffffffffffffffffffff16815260200190815260200160002060008373ffffffffffffffffffffffffffffffffffffffff1673ffffffffffffffffffffffffffffffffffffffff16815260200190815260200160002060009054906101000a900460ff16905092915050565b600073ffffffffffffffffffffffffffffffffffffffff168573ffffffffffffffffffffffffffffffffffffffff1614156129bd576040517f08c379a00000000000000000000000000000000000000000000000000000000081526004016129b49061661f565b60405180910390fd5b3373ffffffffffffffffffffffffffffffffffffffff168673ffffffffffffffffffffffffffffffffffffffff161480612a04575060011515612a0087336128b9565b1515145b612a43576040517f08c379a0000000000000000000000000000000000000000000000000000000008152600401612a3a9061687f565b60405180910390fd5b6000349050612a558787878785613208565b810390508573ffffffffffffffffffffffffffffffffffffffff168773ffffffffffffffffffffffffffffffffffffffff163373ffffffffffffffffffffffffffffffffffffffff167fc3d58168c5ae7397731d063d5bbf3d657854427343f4c083240f7aacaa2d0f628888604051612acf9291906169ba565b60405180910390a4612b29338888888888888080601f016020809104026020016040519081016040528093929190818152602001838380828437600081840152601f19601f820116905080830192505050505050506144d6565b6000811115612be05760003373ffffffffffffffffffffffffffffffffffffffff1682604051612b589061635f565b60006040518083038185875af1925050503d8060008114612b95576040519150601f19603f3d011682016040523d82523d6000602084013e612b9a565b606091505b5050905080612bde576040517f08c379a0000000000000000000000000000000000000000000000000000000008152600401612bd5906168df565b60405180910390fd5b505b50505050505050565b612bf1613a4a565b612c30576040517f08c379a0000000000000000000000000000000000000000000000000000000008152600401612c27906167bf565b60405180910390fd5b612c3981614635565b50565b612c4533613aa1565b612c84576040517f08c379a0000000000000000000000000000000000000000000000000000000008152600401612c7b906166bf565b60405180910390fd5b60008090505b84849050811015612db057612da586868684818110612ca557fe5b90506020020135601354868686818110612cbb57fe5b905060200201356014546017546015805480602002602001604051908101604052809291908181526020018280548015612d4a57602002820191906000526020600020905b8160009054906101000a900473ffffffffffffffffffffffffffffffffffffffff1673ffffffffffffffffffffffffffffffffffffffff1681526020019060010190808311612d00575b50505050506016805480602002602001604051908101604052809291908181526020018280548015612d9b57602002820191906000526020600020905b815481526020019060010190808311612d87575b5050505050613f25565b806001019050612c8a565b505050505050565b612dc0613a4a565b612dff576040517f08c379a0000000000000000000000000000000000000000000000000000000008152600401612df6906167bf565b60405180910390fd5b80600960008473ffffffffffffffffffffffffffffffffffffffff1673ffffffffffffffffffffffffffffffffffffffff1681526020019081526020016000205410612f405760008273ffffffffffffffffffffffffffffffffffffffff1682604051612e6b9061635f565b60006040518083038185875af1925050503d8060008114612ea8576040519150601f19603f3d011682016040523d82523d6000602084013e612ead565b606091505b5050905080612ef1576040517f08c379a0000000000000000000000000000000000000000000000000000000008152600401612ee89061655f565b60405180910390fd5b81600960008573ffffffffffffffffffffffffffffffffffffffff1673ffffffffffffffffffffffffffffffffffffffff16815260200190815260200160002060008282540392505081905550505b5050565b612f4d33613aa1565b612f8c576040517f08c379a0000000000000000000000000000000000000000000000000000000008152600401612f83906166bf565b60405180910390fd5b866013819055508560148190555084601781905550838360159190612fb2929190614a2d565b50818160169190612fc4929190614acd565b5050505050505050565b6060600080905060008390505b60008114612ffd57818060010192505060108181612ff557fe5b049050612fdb565b6060826040519080825280601f01601f1916602001820160405280156130325781602001600182028038833980820191505090505b50905060008090505b838110156130b1576010868161304d57fe5b06925061305983614763565b826001838703038151811061306a57fe5b60200101907effffffffffffffffffffffffffffffffffffffffffffffffffffffffffffff1916908160001a905350601086816130a357fe5b04955080600101905061303b565b50809350505050919050565b6060808390506060839050606081518351016040519080825280601f01601f1916602001820160405280156131015781602001600182028038833980820191505090505b509050606081905060008090506000809050600090505b85518110156131865785818151811061312d57fe5b602001015160f81c60f81b83838060010194508151811061314a57fe5b60200101907effffffffffffffffffffffffffffffffffffffffffffffffffffffffffffff1916908160001a9053508080600101915050613118565b600090505b84518110156131f9578481815181106131a057fe5b602001015160f81c60f81b8383806001019450815181106131bd57fe5b60200101907effffffffffffffffffffffffffffffffffffffffffffffffffffffffffffff1916908160001a905350808060010191505061318b565b82965050505050505092915050565b60006132168686868661480c565b15613256576040517f08c379a000000000000000000000000000000000000000000000000000000000815260040161324d9061659f565b60405180910390fd5b613261868585613c7e565b9050808210156132a6576040517f08c379a000000000000000000000000000000000000000000000000000000000815260040161329d9061697f565b60405180910390fd5b613323836040518060600160405280602a8152602001616c41602a91396003600088815260200190815260200160002060008a73ffffffffffffffffffffffffffffffffffffffff1673ffffffffffffffffffffffffffffffffffffffff1681526020019081526020016000205461484c9092919063ffffffff16565b6003600086815260200190815260200160002060008873ffffffffffffffffffffffffffffffffffffffff1673ffffffffffffffffffffffffffffffffffffffff1681526020019081526020016000208190555060006133dc846003600088815260200190815260200160002060008973ffffffffffffffffffffffffffffffffffffffff1673ffffffffffffffffffffffffffffffffffffffff168152602001908152602001600020546148a790919063ffffffff16565b905060006003600087815260200190815260200160002060008873ffffffffffffffffffffffffffffffffffffffff1673ffffffffffffffffffffffffffffffffffffffff16815260200190815260200160002054141561363057600c600086815260200190815260200160002060008773ffffffffffffffffffffffffffffffffffffffff1673ffffffffffffffffffffffffffffffffffffffff16815260200190815260200160002060009054906101000a900460ff166135d657600a60008773ffffffffffffffffffffffffffffffffffffffff1673ffffffffffffffffffffffffffffffffffffffff168152602001908152602001600020859080600181540180825580915050906001820390600052602060002001600090919290919091505550600b60008681526020019081526020016000208690806001815401808255809150509060018203906000526020600020016000909192909190916101000a81548173ffffffffffffffffffffffffffffffffffffffff021916908373ffffffffffffffffffffffffffffffffffffffff16021790555050600c600086815260200190815260200160002060008773ffffffffffffffffffffffffffffffffffffffff1673ffffffffffffffffffffffffffffffffffffffff16815260200190815260200160002060009054906101000a9050505b426004600087815260200190815260200160002060008873ffffffffffffffffffffffffffffffffffffffff1673ffffffffffffffffffffffffffffffffffffffff1681526020019081526020016000208190555061376a565b60006136956004600088815260200190815260200160002060008973ffffffffffffffffffffffffffffffffffffffff1673ffffffffffffffffffffffffffffffffffffffff1681526020019081526020016000205442613c0a90919063ffffffff16565b9050600061370e8361370084600360008c815260200190815260200160002060008d73ffffffffffffffffffffffffffffffffffffffff1673ffffffffffffffffffffffffffffffffffffffff16815260200190815260200160002054613b5090919063ffffffff16565b613bc090919063ffffffff16565b90508042036004600089815260200190815260200160002060008a73ffffffffffffffffffffffffffffffffffffffff1673ffffffffffffffffffffffffffffffffffffffff1681526020019081526020016000208190555050505b806003600087815260200190815260200160002060008873ffffffffffffffffffffffffffffffffffffffff1673ffffffffffffffffffffffffffffffffffffffff1681526020019081526020016000208190555060008090505b60076000878152602001908152602001600020805490508110156138dd57600060076000888152602001908152602001600020828154811061380357fe5b9060005260206000200160009054906101000a900473ffffffffffffffffffffffffffffffffffffffff169050600060086000898152602001908152602001600020838154811061385057fe5b906000526020600020015490506138846127106138768388613b5090919063ffffffff16565b613bc090919063ffffffff16565b600960008473ffffffffffffffffffffffffffffffffffffffff1673ffffffffffffffffffffffffffffffffffffffff1681526020019081526020016000206000828254019250508190555050508060010190506137c5565b508191505095945050505050565b61390a8473ffffffffffffffffffffffffffffffffffffffff166148fc565b15613a42578373ffffffffffffffffffffffffffffffffffffffff1663bc197c81905060e01b7bffffffffffffffffffffffffffffffffffffffffffffffffffffffff19168473ffffffffffffffffffffffffffffffffffffffff1663bc197c8188888787876040518663ffffffff1660e01b81526004016139909594939291906163b8565b602060405180830381600087803b1580156139aa57600080fd5b505af11580156139be573d6000803e3d6000fd5b505050506040513d601f19601f820116820180604052506139e29190810190615339565b7bffffffffffffffffffffffffffffffffffffffffffffffffffffffff191614613a41576040517f08c379a0000000000000000000000000000000000000000000000000000000008152600401613a389061673f565b60405180910390fd5b5b505050505050565b60008060009054906101000a900473ffffffffffffffffffffffffffffffffffffffff1673ffffffffffffffffffffffffffffffffffffffff163373ffffffffffffffffffffffffffffffffffffffff1614905090565b6000601060008373ffffffffffffffffffffffffffffffffffffffff1673ffffffffffffffffffffffffffffffffffffffff16815260200190815260200160002060009054906101000a900460ff1680613aff5750613afe613a4a565b5b9050919050565b80600e60008481526020019081526020016000208190555080827f9cd9c60390fc75c213fd8d644749f61388dd30ed6c6eb4647b793b5b580fb43060405160405180910390a35050565b600080831415613b635760009050613bba565b6000828402905082848281613b7457fe5b0414613bb5576040517f08c379a0000000000000000000000000000000000000000000000000000000008152600401613bac9061677f565b60405180910390fd5b809150505b92915050565b6000613c0283836040518060400160405280601a81526020017f536166654d6174683a206469766973696f6e206279207a65726f000000000000815250614947565b905092915050565b6000613c4c83836040518060400160405280601e81526020017f536166654d6174683a207375627472616374696f6e206f766572666c6f77000081525061484c565b905092915050565b60006001600083815260200190815260200160002060009054906101000a900460ff169050919050565b60008073ffffffffffffffffffffffffffffffffffffffff168473ffffffffffffffffffffffffffffffffffffffff161415613cef576040517f08c379a0000000000000000000000000000000000000000000000000000000008152600401613ce6906165bf565b60405180910390fd5b600080905060004290506000600160056000888152602001908152602001600020805490500390505b60008110613ec2576000600560008881526020019081526020016000208281548110613d4057fe5b9060005260206000209060020201600060028110613d5a57fe5b0154905060006305f5e100600654600560008b81526020019081526020016000208581548110613d8657fe5b9060005260206000209060020201600160028110613da057fe5b01540281613daa57fe5b049050600082600460008b815260200190815260200160002060008c73ffffffffffffffffffffffffffffffffffffffff1673ffffffffffffffffffffffffffffffffffffffff1681526020019081526020016000205410613e865762015180600460008b815260200190815260200160002060008c73ffffffffffffffffffffffffffffffffffffffff1673ffffffffffffffffffffffffffffffffffffffff16815260200190815260200160002054860381613e6457fe5b0490506000811415613e7557600190505b878282020286019550505050613ec2565b6201518083860381613e9457fe5b0490506000811415613ea557600190505b829450878282020286019550505050808060019003915050613d18565b5081925050509392505050565b6000600260008373ffffffffffffffffffffffffffffffffffffffff1673ffffffffffffffffffffffffffffffffffffffff16815260200190815260200160002060009054906101000a900460ff169050919050565b6000600f60008981526020019081526020016000205414613f7b576040517f08c379a0000000000000000000000000000000000000000000000000000000008152600401613f729061679f565b60405180910390fd5b60008611613fbe576040517f08c379a0000000000000000000000000000000000000000000000000000000008152600401613fb59061671f565b60405180910390fd5b60008411614001576040517f08c379a0000000000000000000000000000000000000000000000000000000008152600401613ff89061669f565b60405180910390fd5b60008311614044576040517f08c379a000000000000000000000000000000000000000000000000000000000815260040161403b9061695f565b60405180910390fd5b612710831115614089576040517f08c379a0000000000000000000000000000000000000000000000000000000008152600401614080906168bf565b60405180910390fd5b60008251116140cd576040517f08c379a00000000000000000000000000000000000000000000000000000000081526004016140c49061691f565b60405180910390fd5b8051825114614111576040517f08c379a0000000000000000000000000000000000000000000000000000000008152600401614108906168ff565b60405180910390fd5b600080905060008090505b825181101561419e5782818151811061413157fe5b602002602001015182019150600083828151811061414b57fe5b602002602001015111614193576040517f08c379a000000000000000000000000000000000000000000000000000000000815260040161418a9061681f565b60405180910390fd5b80600101905061411c565b5061271081146141e3576040517f08c379a00000000000000000000000000000000000000000000000000000000081526004016141da9061683f565b60405180910390fd5b6001600c60008a815260200190815260200160002060008b73ffffffffffffffffffffffffffffffffffffffff1673ffffffffffffffffffffffffffffffffffffffff16815260200190815260200160002060006101000a81548160ff021916908315150217905550600a60008a73ffffffffffffffffffffffffffffffffffffffff1673ffffffffffffffffffffffffffffffffffffffff16815260200190815260200160002088908060018154018082558091505090600182039060005260206000200160009091929091909150555086600f60008a81526020019081526020016000208190555086600360008a815260200190815260200160002060008b73ffffffffffffffffffffffffffffffffffffffff1673ffffffffffffffffffffffffffffffffffffffff1681526020019081526020016000208190555061432c8887613b06565b42600460008a815260200190815260200160002060008b73ffffffffffffffffffffffffffffffffffffffff1673ffffffffffffffffffffffffffffffffffffffff1681526020019081526020016000208190555060056000898152602001908152602001600020604051806040016040528042815260200187815250908060018154018082558091505090600182039060005260206000209060020201600090919290919091509060026143e29291906149ed565b505083601260008a81526020019081526020016000208190555082600760008a81526020019081526020016000209080519060200190614423929190614b1a565b5081600860008a8152602001908152602001600020908051906020019061444b929190614ba4565b508873ffffffffffffffffffffffffffffffffffffffff16600073ffffffffffffffffffffffffffffffffffffffff163373ffffffffffffffffffffffffffffffffffffffff167fc3d58168c5ae7397731d063d5bbf3d657854427343f4c083240f7aacaa2d0f628b8b6040516144c39291906169ba565b60405180910390a4505050505050505050565b6144f58473ffffffffffffffffffffffffffffffffffffffff166148fc565b1561462d578373ffffffffffffffffffffffffffffffffffffffff1663f23a6e61905060e01b7bffffffffffffffffffffffffffffffffffffffffffffffffffffffff19168473ffffffffffffffffffffffffffffffffffffffff1663f23a6e6188888787876040518663ffffffff1660e01b815260040161457b959493929190616420565b602060405180830381600087803b15801561459557600080fd5b505af11580156145a9573d6000803e3d6000fd5b505050506040513d601f19601f820116820180604052506145cd9190810190615339565b7bffffffffffffffffffffffffffffffffffffffffffffffffffffffff19161461462c576040517f08c379a00000000000000000000000000000000000000000000000000000000081526004016146239061693f565b60405180910390fd5b5b505050505050565b600073ffffffffffffffffffffffffffffffffffffffff168173ffffffffffffffffffffffffffffffffffffffff1614156146a5576040517f08c379a000000000000000000000000000000000000000000000000000000000815260040161469c906165df565b60405180910390fd5b8073ffffffffffffffffffffffffffffffffffffffff166000809054906101000a900473ffffffffffffffffffffffffffffffffffffffff1673ffffffffffffffffffffffffffffffffffffffff167f8be0079c531659141344cd1fd0a4f28419497f9722a3daafe3b4186f6b6457e060405160405180910390a3806000806101000a81548173ffffffffffffffffffffffffffffffffffffffff021916908373ffffffffffffffffffffffffffffffffffffffff16021790555050565b60008160ff1660001115801561477d575060098260ff1611155b156147b257817f300000000000000000000000000000000000000000000000000000000000000060f81c0160f81b9050614807565b8160ff16600a111580156147ca5750600f8260ff1611155b1561480257600a827f610000000000000000000000000000000000000000000000000000000000000060f81c010360f81b9050614807565b600080fd5b919050565b600061481783613c54565b80614827575061482685613ecf565b5b80614837575061483684613ecf565b5b806148425750600082145b9050949350505050565b6000838311158290614894576040517f08c379a000000000000000000000000000000000000000000000000000000000815260040161488b919061653d565b60405180910390fd5b5060008385039050809150509392505050565b6000808284019050838110156148f2576040517f08c379a00000000000000000000000000000000000000000000000000000000081526004016148e99061663f565b60405180910390fd5b8091505092915050565b60008060007fc5d2460186f7233c927e7db2dcc703c0e500b653ca82273b7bfad8045d85a47060001b9050833f91506000801b821415801561493e5750808214155b92505050919050565b6000808311829061498e576040517f08c379a0000000000000000000000000000000000000000000000000000000008152600401614985919061653d565b60405180910390fd5b50600083858161499a57fe5b049050809150509392505050565b82600281019282156149dc579160200282015b828111156149db578251829060ff169055916020019190600101906149bb565b5b5090506149e99190614bf1565b5090565b8260028101928215614a1c579160200282015b82811115614a1b578251825591602001919060010190614a00565b5b509050614a299190614bf1565b5090565b828054828255906000526020600020908101928215614abc579160200282015b82811115614abb57823573ffffffffffffffffffffffffffffffffffffffff168260006101000a81548173ffffffffffffffffffffffffffffffffffffffff021916908373ffffffffffffffffffffffffffffffffffffffff16021790555091602001919060010190614a4d565b5b509050614ac99190614c16565b5090565b828054828255906000526020600020908101928215614b09579160200282015b82811115614b08578235825591602001919060010190614aed565b5b509050614b169190614bf1565b5090565b828054828255906000526020600020908101928215614b93579160200282015b82811115614b925782518260006101000a81548173ffffffffffffffffffffffffffffffffffffffff021916908373ffffffffffffffffffffffffffffffffffffffff16021790555091602001919060010190614b3a565b5b509050614ba09190614c16565b5090565b828054828255906000526020600020908101928215614be0579160200282015b82811115614bdf578251825591602001919060010190614bc4565b5b509050614bed9190614bf1565b5090565b614c1391905b80821115614c0f576000816000905550600101614bf7565b5090565b90565b614c5691905b80821115614c5257600081816101000a81549073ffffffffffffffffffffffffffffffffffffffff021916905550600101614c1c565b5090565b90565b600081359050614c6881616be4565b92915050565b60008083601f840112614c8057600080fd5b8235905067ffffffffffffffff811115614c9957600080fd5b602083019150836020820283011115614cb157600080fd5b9250929050565b600082601f830112614cc957600080fd5b8135614cdc614cd782616a10565b6169e3565b91508181835260208401935060208101905083856020840282011115614d0157600080fd5b60005b83811015614d315781614d178882614c59565b845260208401935060208301925050600181019050614d04565b5050505092915050565b60008083601f840112614d4d57600080fd5b8235905067ffffffffffffffff811115614d6657600080fd5b602083019150836020820283011115614d7e57600080fd5b9250929050565b600082601f830112614d9657600080fd5b8135614da9614da482616a38565b6169e3565b91508181835260208401935060208101905083856020840282011115614dce57600080fd5b60005b83811015614dfe5781614de48882614e91565b845260208401935060208301925050600181019050614dd1565b5050505092915050565b600081359050614e1781616bfb565b92915050565b600081359050614e2c81616c12565b92915050565b600081519050614e4181616c12565b92915050565b60008083601f840112614e5957600080fd5b8235905067ffffffffffffffff811115614e7257600080fd5b602083019150836001820283011115614e8a57600080fd5b9250929050565b600081359050614ea081616c29565b92915050565b600060208284031215614eb857600080fd5b6000614ec684828501614c59565b91505092915050565b60008060408385031215614ee257600080fd5b6000614ef085828601614c59565b9250506020614f0185828601614c59565b9150509250929050565b60008060008060008060008060a0898b031215614f2757600080fd5b6000614f358b828c01614c59565b9850506020614f468b828c01614c59565b975050604089013567ffffffffffffffff811115614f6357600080fd5b614f6f8b828c01614d3b565b9650965050606089013567ffffffffffffffff811115614f8e57600080fd5b614f9a8b828c01614d3b565b9450945050608089013567ffffffffffffffff811115614fb957600080fd5b614fc58b828c01614e47565b92509250509295985092959890939650565b60008060008060008060a08789031215614ff057600080fd5b6000614ffe89828a01614c59565b965050602061500f89828a01614c59565b955050604061502089828a01614e91565b945050606061503189828a01614e91565b935050608087013567ffffffffffffffff81111561504e57600080fd5b61505a89828a01614e47565b92509250509295509295509295565b60008060008060006060868803121561508157600080fd5b600061508f88828901614c59565b955050602086013567ffffffffffffffff8111156150ac57600080fd5b6150b888828901614d3b565b9450945050604086013567ffffffffffffffff8111156150d757600080fd5b6150e388828901614d3b565b92509250509295509295909350565b6000806040838503121561510557600080fd5b600061511385828601614c59565b925050602061512485828601614e08565b9150509250929050565b6000806040838503121561514157600080fd5b600061514f85828601614c59565b925050602061516085828601614e91565b9150509250929050565b60008060006060848603121561517f57600080fd5b600061518d86828701614c59565b935050602061519e86828701614e91565b92505060406151af86828701614e91565b9150509250925092565b6000806000806000806000806000806101008b8d0312156151d957600080fd5b60006151e78d828e01614c59565b9a505060206151f88d828e01614e91565b99505060406152098d828e01614e91565b985050606061521a8d828e01614e91565b975050608061522b8d828e01614e91565b96505060a061523c8d828e01614e91565b95505060c08b013567ffffffffffffffff81111561525957600080fd5b6152658d828e01614c6e565b945094505060e08b013567ffffffffffffffff81111561528457600080fd5b6152908d828e01614d3b565b92509250509295989b9194979a5092959850565b600080604083850312156152b757600080fd5b600083013567ffffffffffffffff8111156152d157600080fd5b6152dd85828601614cb8565b925050602083013567ffffffffffffffff8111156152fa57600080fd5b61530685828601614d85565b9150509250929050565b60006020828403121561532257600080fd5b600061533084828501614e1d565b91505092915050565b60006020828403121561534b57600080fd5b600061535984828501614e32565b91505092915050565b60006020828403121561537457600080fd5b600061538284828501614e91565b91505092915050565b6000806040838503121561539e57600080fd5b60006153ac85828601614e91565b92505060206153bd85828601614c59565b9150509250929050565b600080604083850312156153da57600080fd5b60006153e885828601614e91565b92505060206153f985828601614e91565b9150509250929050565b600080600080600080600060a0888a03121561541e57600080fd5b600061542c8a828b01614e91565b975050602061543d8a828b01614e91565b965050604061544e8a828b01614e91565b955050606088013567ffffffffffffffff81111561546b57600080fd5b6154778a828b01614c6e565b9450945050608088013567ffffffffffffffff81111561549657600080fd5b6154a28a828b01614d3b565b925092505092959891949750929550565b60006154bf8383616341565b60208301905092915050565b6154d481616b5b565b82525050565b6154e381616ae7565b82525050565b60006154f58385616aa9565b93507f07ffffffffffffffffffffffffffffffffffffffffffffffffffffffffffffff83111561552457600080fd5b602083029250615535838584616b91565b82840190509392505050565b600061554c82616a70565b6155568185616aa9565b935061556183616a60565b8060005b8381101561559257815161557988826154b3565b975061558483616a9c565b925050600181019050615565565b5085935050505092915050565b6155a881616af9565b82525050565b60006155b982616a7b565b6155c38185616aba565b93506155d3818560208601616ba0565b6155dc81616bd3565b840191505092915050565b60006155f282616a91565b6155fc8185616ad6565b935061560c818560208601616ba0565b61561581616bd3565b840191505092915050565b600061562b82616a86565b6156358185616ad6565b9350615645818560208601616ba0565b61564e81616bd3565b840191505092915050565b6000615666601d83616ad6565b91507f5374617368426c6f783a205769746864726177616c206661696c65642e0000006000830152602082019050919050565b60006156a6603883616ad6565b91507f5374617368426c6f783a20696e73756666696369656e742062616c616e63652060008301527f746f2065786563757465207468652063616c6c6261636b2e00000000000000006020830152604082019050919050565b600061570c600683616ad6565b91507f4c6f636b656400000000000000000000000000000000000000000000000000006000830152602082019050919050565b600061574c602b83616ad6565b91507f455243313135353a2062616c616e636520717565727920666f7220746865207a60008301527f65726f20616464726573730000000000000000000000000000000000000000006020830152604082019050919050565b60006157b2602683616ad6565b91507f4f776e61626c653a206e6577206f776e657220697320746865207a65726f206160008301527f64647265737300000000000000000000000000000000000000000000000000006020830152604082019050919050565b6000615818601983616ad6565b91507f5374617368426c6f783a20556e6b6e6f776e20746f6b656e2e000000000000006000830152602082019050919050565b6000615858602883616ad6565b91507f455243313135353a207461726765742061646472657373206d7573742062652060008301527f6e6f6e2d7a65726f0000000000000000000000000000000000000000000000006020830152604082019050919050565b60006158be601b83616ad6565b91507f536166654d6174683a206164646974696f6e206f766572666c6f7700000000006000830152602082019050919050565b60006158fe602c83616ad6565b91507f455243313135353a2063616e6e6f742073657420617070726f76616c2073746160008301527f74757320666f722073656c6600000000000000000000000000000000000000006020830152604082019050919050565b6000615964602883616ad6565b91507f5374617368426c6f783a205072696365206d757374206265206772656174657260008301527f207468616e20302e0000000000000000000000000000000000000000000000006020830152604082019050919050565b60006159ca603583616ad6565b91507f5374617368426c6f783a2073746f72616765437265646974436f73742073686f60008301527f756c642062652067726561746572207468616e203000000000000000000000006020830152604082019050919050565b6000615a30602383616ad6565b91507f4d696e7461626c653a2063616c6c6572206973206e6f74206120746f6b656e6960008301527f7a657200000000000000000000000000000000000000000000000000000000006020830152604082019050919050565b6000615a96603683616ad6565b91507f5374617368426c6f783a20696e73756666696369656e742062616c616e63652060008301527f746f2070726f706f736520612063616c6c6261636b2e000000000000000000006020830152604082019050919050565b6000615afc603083616ad6565b91507f455243313135353a206163636f756e747320616e6420494473206d757374206860008301527f6176652073616d65206c656e67746873000000000000000000000000000000006020830152604082019050919050565b6000615b62602a83616ad6565b91507f5374617368426c6f783a20737570706c792073686f756c64206265206772656160008301527f746572207468616e2030000000000000000000000000000000000000000000006020830152604082019050919050565b6000615bc8603683616ad6565b91507f455243313135353a20676f7420756e6b6e6f776e2076616c75652066726f6d2060008301527f6f6e4552433131353542617463685265636569766564000000000000000000006020830152604082019050919050565b6000615c2e603483616ad6565b91507f455243313135353a20736f6d65206164647265737320696e206261746368206260008301527f616c616e6365207175657279206973207a65726f0000000000000000000000006020830152604082019050919050565b6000615c94602183616ad6565b91507f536166654d6174683a206d756c7469706c69636174696f6e206f766572666c6f60008301527f77000000000000000000000000000000000000000000000000000000000000006020830152604082019050919050565b6000615cfa601f83616ad6565b91507f5374617368426c6f783a20546f6b656e20616c7265616479206d696e746564006000830152602082019050919050565b6000615d3a602083616ad6565b91507f4f776e61626c653a2063616c6c6572206973206e6f7420746865206f776e65726000830152602082019050919050565b6000615d7a603583616ad6565b91507f5374617368426c6f783a20696e73756666696369656e742076616c756520666f60008301527f72207468652070726f706f7365642070726963652e00000000000000000000006020830152604082019050919050565b6000615de0602a83616ad6565b91507f5374617368426c6f783a2063616c6c6261636b2070726f706f736974696f6e2060008301527f6e6f7420666f756e642e000000000000000000000000000000000000000000006020830152604082019050919050565b6000615e46603c83616ad6565b91507f5374617368426c6f783a2066656573526563697069656e747350657263656e7460008301527f6167652073686f756c642062652067726561746572207468616e2030000000006020830152604082019050919050565b6000615eac604383616ad6565b91507f5374617368426c6f783a20546f74616c206f662066656573526563697069656e60008301527f747350657263656e74616765206d75737420626520657175616c20746f20313060208301527f30303000000000000000000000000000000000000000000000000000000000006040830152606082019050919050565b6000615f38603f83616ad6565b91507f5374617368426c6f783a20696e73756666696369656e7420657363726f77656460008301527f2076616c756520746f2065786563757465207468652063616c6c6261636b2e006020830152604082019050919050565b6000615f9e603783616ad6565b91507f455243313135353a206e656564206f70657261746f7220617070726f76616c2060008301527f666f7220337264207061727479207472616e73666572730000000000000000006020830152604082019050919050565b6000616004602e83616ad6565b91507f455243313135353a2049447320616e642076616c756573206d7573742068617660008301527f652073616d65206c656e677468730000000000000000000000000000000000006020830152604082019050919050565b600061606a604483616ad6565b91507f5374617368426c6f783a206d696e486f6c64696e67466f7243616c6c6261636b60008301527f2073686f756c64206265206c6f776572206f7220657175616c207468616e203160208301527f30303030000000000000000000000000000000000000000000000000000000006040830152606082019050919050565b60006160f6600083616acb565b9150600082019050919050565b6000616110601083616ad6565b91507f5472616e73666572206661696c65642e000000000000000000000000000000006000830152602082019050919050565b6000616150603283616ad6565b91507f5374617368426c6f783a20696e76616c69642066656573526563697069656e7460008301527f7350657263656e74616765206c656e67746800000000000000000000000000006020830152604082019050919050565b60006161b6602b83616ad6565b91507f5374617368426c6f783a206e656564206174206c65617374206f6e652066656560008301527f73526563697069656e74730000000000000000000000000000000000000000006020830152604082019050919050565b600061621c603183616ad6565b91507f455243313135353a20676f7420756e6b6e6f776e2076616c75652066726f6d2060008301527f6f6e4552433131353552656365697665640000000000000000000000000000006020830152604082019050919050565b6000616282603983616ad6565b91507f5374617368426c6f783a206d696e486f6c64696e67466f7243616c6c6261636b60008301527f2073686f756c642062652067726561746572207468616e2030000000000000006020830152604082019050919050565b60006162e8602b83616ad6565b91507f455243313135353a20696e73756666696369656e742045544820666f7220747260008301527f616e7366657220666565730000000000000000000000000000000000000000006020830152604082019050919050565b61634a81616b51565b82525050565b61635981616b51565b82525050565b600061636a826160e9565b9150819050919050565b600060208201905061638960008301846154da565b92915050565b60006040820190506163a460008301856154cb565b6163b16020830184616350565b9392505050565b600060a0820190506163cd60008301886154da565b6163da60208301876154da565b81810360408301526163ec8186615541565b905081810360608301526164008185615541565b9050818103608083015261641481846155ae565b90509695505050505050565b600060a08201905061643560008301886154da565b61644260208301876154da565b61644f6040830186616350565b61645c6060830185616350565b818103608083015261646e81846155ae565b90509695505050505050565b600060408201905061648f60008301856154da565b61649c6020830184616350565b9392505050565b600060408201905081810360008301526164be8186886154e9565b905081810360208301526164d38184866154e9565b905095945050505050565b600060208201905081810360008301526164f88184615541565b905092915050565b6000602082019050616515600083018461559f565b92915050565b600060208201905081810360008301526165358184615620565b905092915050565b6000602082019050818103600083015261655781846155e7565b905092915050565b6000602082019050818103600083015261657881615659565b9050919050565b6000602082019050818103600083015261659881615699565b9050919050565b600060208201905081810360008301526165b8816156ff565b9050919050565b600060208201905081810360008301526165d88161573f565b9050919050565b600060208201905081810360008301526165f8816157a5565b9050919050565b600060208201905081810360008301526166188161580b565b9050919050565b600060208201905081810360008301526166388161584b565b9050919050565b60006020820190508181036000830152616658816158b1565b9050919050565b60006020820190508181036000830152616678816158f1565b9050919050565b6000602082019050818103600083015261669881615957565b9050919050565b600060208201905081810360008301526166b8816159bd565b9050919050565b600060208201905081810360008301526166d881615a23565b9050919050565b600060208201905081810360008301526166f881615a89565b9050919050565b6000602082019050818103600083015261671881615aef565b9050919050565b6000602082019050818103600083015261673881615b55565b9050919050565b6000602082019050818103600083015261675881615bbb565b9050919050565b6000602082019050818103600083015261677881615c21565b9050919050565b6000602082019050818103600083015261679881615c87565b9050919050565b600060208201905081810360008301526167b881615ced565b9050919050565b600060208201905081810360008301526167d881615d2d565b9050919050565b600060208201905081810360008301526167f881615d6d565b9050919050565b6000602082019050818103600083015261681881615dd3565b9050919050565b6000602082019050818103600083015261683881615e39565b9050919050565b6000602082019050818103600083015261685881615e9f565b9050919050565b6000602082019050818103600083015261687881615f2b565b9050919050565b6000602082019050818103600083015261689881615f91565b9050919050565b600060208201905081810360008301526168b881615ff7565b9050919050565b600060208201905081810360008301526168d88161605d565b9050919050565b600060208201905081810360008301526168f881616103565b9050919050565b6000602082019050818103600083015261691881616143565b9050919050565b60006020820190508181036000830152616938816161a9565b9050919050565b600060208201905081810360008301526169588161620f565b9050919050565b6000602082019050818103600083015261697881616275565b9050919050565b60006020820190508181036000830152616998816162db565b9050919050565b60006020820190506169b46000830184616350565b92915050565b60006040820190506169cf6000830185616350565b6169dc6020830184616350565b9392505050565b6000604051905081810181811067ffffffffffffffff82111715616a0657600080fd5b8060405250919050565b600067ffffffffffffffff821115616a2757600080fd5b602082029050602081019050919050565b600067ffffffffffffffff821115616a4f57600080fd5b602082029050602081019050919050565b6000819050602082019050919050565b600081519050919050565b600081519050919050565b600081519050919050565b600081519050919050565b6000602082019050919050565b600082825260208201905092915050565b600082825260208201905092915050565b600081905092915050565b600082825260208201905092915050565b6000616af282616b31565b9050919050565b60008115159050919050565b60007fffffffff0000000000000000000000000000000000000000000000000000000082169050919050565b600073ffffffffffffffffffffffffffffffffffffffff82169050919050565b6000819050919050565b6000616b6682616b6d565b9050919050565b6000616b7882616b7f565b9050919050565b6000616b8a82616b31565b9050919050565b82818337600083830152505050565b60005b83811015616bbe578082015181840152602081019050616ba3565b83811115616bcd576000848401525b50505050565b6000601f19601f8301169050919050565b616bed81616ae7565b8114616bf857600080fd5b50565b616c0481616af9565b8114616c0f57600080fd5b50565b616c1b81616b05565b8114616c2657600080fd5b50565b616c3281616b51565b8114616c3d57600080fd5b5056fe455243313135353a20696e73756666696369656e742062616c616e636520666f72207472616e73666572a365627a7a72315820b7d3c8e166e5476c5d51489480ea110b44dd7d1458e0b589a50aa78c8d93a3ae6c6578706572696d656e74616cf564736f6c634300050c0040",
  "source": "pragma solidity ^0.5.12;\npragma experimental ABIEncoderV2;\n\nimport './lib/ERC1155/ERC1155Mintable.sol';\n\ncontract StashBlox is ERC1155Mintable {\n\n}\n",
  "sourcePath": "/home/ouziel/Work/StashBloxContracts/contracts/StashBlox.sol",
  "compiler": {
    "name": "solc",
    "version": "0.5.12+commit.7709ece9.Emscripten.clang"
  },
  "schemaVersion": "3.2.3",
  "updatedAt": "2020-09-26T12:10:30.970Z",
  "devdoc": {
    "methods": {
      "acceptCallback(uint256,address)": {
        "details": "Accept a callback",
        "params": {
          "id": "Token ID",
          "proposer": "address of the proposer"
        }
      },
      "balanceOf(address,uint256)": {
        "details": "Get the specified address' balance for token with specified ID. Attempting to query the zero account for a balance will result in a revert.",
        "params": {
          "account": "The address of the token holder",
          "id": "ID of the token"
        },
        "return": "The account's balance of the token type requested"
      },
      "balanceOfBatch(address[],uint256[])": {
        "details": "Get the balance of multiple account/token pairs. If any of the query accounts is the zero account, this query will revert.",
        "params": {
          "accounts": "The addresses of the token holders",
          "ids": "IDs of the tokens"
        },
        "return": "Balances for each account and token id pair"
      },
      "createToken(address,uint256,uint256,uint256,uint256,uint256,address[],uint256[])": {
        "details": "Function to mint an amount of a token with the given ID.",
        "params": {
          "feesRecipients": "list of addresses receiving transfer fees",
          "feesRecipientsPercentage": "list of percentage, each one for the corresponding feesRecipients",
          "id": "ID of the token to be minted",
          "metadataHash": "Metadata file hash",
          "minHoldingForCallback": "minimum holding to propose a callback",
          "recipient": "The address that will own the minted tokens",
          "storageCreditCost": "cost for 24h storage in storageCredit (x 10 ^ 8 for the precision)",
          "supply": "Amount of the token to be minted"
        }
      },
      "createTokens(address,uint256[],uint256[])": {
        "details": "Function to mint token in batch. Default value must be set with setCreateTokensDefaultValues.",
        "params": {
          "ids": "list of IDs of the tokens to be minted",
          "metadataHashes": "list of Metadata file hash",
          "recipient": "The address that will own the minted tokens"
        }
      },
      "isApprovedForAll(address,address)": {
        "params": {
          "account": "The account of the Tokens",
          "operator": "Address of authorized operator"
        },
        "return": "True if the operator is approved, false if not"
      },
      "owner()": {
        "details": "Returns the address of the current owner."
      },
      "proposeCallback(uint256,uint256)": {
        "details": "Propose to buy the whole supply of a token. The proposer must hold minHoldingForCallback% of the total supply. StashBlox must approve the price with acceptCallback();",
        "params": {
          "id": "Token ID",
          "price": "proposed price"
        }
      },
      "refuseCallback(uint256,address)": {
        "details": "Refuse a callback if the price is not enough.",
        "params": {
          "id": "Token ID",
          "proposer": "address of the proposer"
        }
      },
      "safeBatchTransferFrom(address,address,uint256[],uint256[],bytes)": {
        "details": "Transfers `values` amount(s) of `ids` from the `from` address to the `to` address specified. Caller must be approved to manage the tokens being transferred out of the `from` account. If `to` is a smart contract, will call `onERC1155BatchReceived` on `to` and act appropriately.",
        "params": {
          "data": "Data forwarded to `onERC1155Received` if `to` is a contract receiver",
          "from": "Source address",
          "ids": "IDs of each token type",
          "to": "Target address",
          "values": "Transfer amounts per token type"
        }
      },
      "safeTransferFrom(address,address,uint256,uint256,bytes)": {
        "details": "Transfers `value` amount of an `id` from the `from` address to the `to` address specified. Caller must be approved to manage the tokens being transferred out of the `from` account. If `to` is a smart contract, will call `onERC1155Received` on `to` and act appropriately.",
        "params": {
          "data": "Data forwarded to `onERC1155Received` if `to` is a contract receiver",
          "from": "Source address",
          "id": "ID of the token type",
          "to": "Target address",
          "value": "Transfer amount"
        }
      },
      "setApprovalForAll(address,bool)": {
        "details": "Sets or unsets the approval of a given operator.     * An operator is allowed to transfer all tokens of the sender on their behalf.     * Because an account already has operator privileges for itself, this function will revert if the account attempts to set the approval status for itself.",
        "params": {
          "approved": "representing the status of the approval to be set",
          "operator": "address to set the approval"
        }
      },
      "setCreateTokensDefaultValues(uint256,uint256,uint256,address[],uint256[])": {
        "details": "Set default values for batch token creation.",
        "params": {
          "feesRecipients": "list of addresses receiving transfer fees",
          "feesRecipientsPercentage": "list of percentage, each one for the corresponding feesRecipients",
          "minHoldingForCallback": "minimum holding to propose a callback",
          "storageCreditCost": "cost for 24h storage in storageCredit (x 10 ^ 8 for the precision)",
          "supply": "Amount of the token to be minted"
        }
      },
      "supportsInterface(bytes4)": {
        "params": {
          "_interfaceID": "The interface identifier, as specified in ERC-165"
        },
        "return": "`true` if the contract implements `_interfaceID` and"
      },
      "totalSupply(uint256)": {
        "params": {
          "id": "Token ID"
        },
        "return": "Token supply"
      },
      "transferOwnership(address)": {
        "details": "Transfers ownership of the contract to a new account (`newOwner`). Can only be called by the current owner."
      },
      "uri(uint256)": {
        "params": {
          "id": "Token ID"
        },
        "return": "URI string"
      }
    }
  },
  "userdoc": {
    "methods": {
      "isApprovedForAll(address,address)": {
        "notice": "Queries the approval status of an operator for a given account."
      },
      "supportsInterface(bytes4)": {
        "notice": "Query if a contract implements an interface"
      }
    }
  }
}