{
  "contractName": "StashBloxData",
  "abi": [
    {
      "inputs": [
        {
          "internalType": "uint256",
          "name": "",
          "type": "uint256"
        }
      ],
      "name": "_callbacks",
      "outputs": [
        {
          "internalType": "uint256",
          "name": "tokenId",
          "type": "uint256"
        },
        {
          "internalType": "uint256",
          "name": "price",
          "type": "uint256"
        },
        {
          "internalType": "uint256",
          "name": "escrowedAmount",
          "type": "uint256"
        },
        {
          "internalType": "uint256",
          "name": "callCounter",
          "type": "uint256"
        },
        {
          "internalType": "uint256",
          "name": "documentHash",
          "type": "uint256"
        },
        {
          "internalType": "address",
          "name": "caller",
          "type": "address"
        },
        {
          "internalType": "bool",
          "name": "needLegalApproval",
          "type": "bool"
        },
        {
          "internalType": "bool",
          "name": "approvedByLegal",
          "type": "bool"
        },
        {
          "internalType": "bool",
          "name": "refused",
          "type": "bool"
        },
        {
          "internalType": "bool",
          "name": "accepted",
          "type": "bool"
        },
        {
          "internalType": "bool",
          "name": "completed",
          "type": "bool"
        }
      ],
      "stateMutability": "view",
      "type": "function"
    },
    {
      "inputs": [],
      "name": "_config",
      "outputs": [
        {
          "internalType": "uint256",
          "name": "callbackAutoExecuteMaxAddresses",
          "type": "uint256"
        },
        {
          "internalType": "string",
          "name": "baseURI",
          "type": "string"
        },
        {
          "internalType": "address",
          "name": "owner",
          "type": "address"
        }
      ],
      "stateMutability": "view",
      "type": "function"
    },
    {
      "inputs": [
        {
          "internalType": "uint256",
          "name": "",
          "type": "uint256"
        }
      ],
      "name": "_tokens",
      "outputs": [
        {
          "internalType": "uint256",
          "name": "supply",
          "type": "uint256"
        },
        {
          "internalType": "uint256",
          "name": "decimals",
          "type": "uint256"
        },
        {
          "internalType": "uint256",
          "name": "lumpSumTransactionFees",
          "type": "uint256"
        },
        {
          "internalType": "uint256",
          "name": "valueTransactionFees",
          "type": "uint256"
        },
        {
          "internalType": "uint256",
          "name": "minHoldingForCallback",
          "type": "uint256"
        },
        {
          "internalType": "uint256",
          "name": "metadataHash",
          "type": "uint256"
        },
        {
          "internalType": "address",
          "name": "legalAuthority",
          "type": "address"
        },
        {
          "internalType": "bool",
          "name": "isPrivate",
          "type": "bool"
        },
        {
          "internalType": "bool",
          "name": "locked",
          "type": "bool"
        }
      ],
      "stateMutability": "view",
      "type": "function"
    },
    {
      "inputs": [
        {
          "internalType": "address",
          "name": "",
          "type": "address"
        }
      ],
      "name": "_users",
      "outputs": [
        {
          "internalType": "bool",
          "name": "isTokenizer",
          "type": "bool"
        },
        {
          "internalType": "bool",
          "name": "isLocked",
          "type": "bool"
        },
        {
          "internalType": "uint256",
          "name": "ETHBalance",
          "type": "uint256"
        }
      ],
      "stateMutability": "view",
      "type": "function"
    }
  ],
  "bytecode": "0x608060405234801561001057600080fd5b506103f4806100206000396000f3fe608060405234801561001057600080fd5b506004361061004c5760003560e01c80632ed42bf7146100515780633cacd7d6146100e8578063414ed0ce1461012e578063ed70554d146101b3575b600080fd5b610059610224565b6040518084815260200180602001836001600160a01b03168152602001828103825284818151815260200191508051906020019080838360005b838110156100ab578181015183820152602001610093565b50505050905090810190601f1680156100d85780820380516001836020036101000a031916815260200191505b5094505050505060405180910390f35b61010e600480360360208110156100fe57600080fd5b50356001600160a01b03166102c9565b604080519315158452911515602084015282820152519081900360600190f35b61014b6004803603602081101561014457600080fd5b50356102ef565b604080519b8c5260208c019a909a528a8a019890985260608a019690965260808901949094526001600160a01b0390921660a0880152151560c0870152151560e086015215156101008501521515610120840152151561014083015251908190036101600190f35b6101d0600480360360208110156101c957600080fd5b5035610362565b60408051998a5260208a0198909852888801969096526060880194909452608087019290925260a08601526001600160a01b031660c0850152151560e0840152151561010083015251908190036101200190f35b6000805460018054604080516020600284861615610100026000190190941693909304601f810184900484028201840190925281815293949392918301828280156102b05780601f10610285576101008083540402835291602001916102b0565b820191906000526020600020905b81548152906001019060200180831161029357829003601f168201915b505050600c90930154919250506001600160a01b031683565b600d602052600090815260409020805460019091015460ff808316926101009004169083565b600f6020526000908152604090208054600182015460028301546003840154600485015460059095015493949293919290916001600160a01b0381169060ff600160a01b8204811691600160a81b8104821691600160b01b8204811691600160b81b8104821691600160c01b909104168b565b600e60205260009081526040902080546001820154600283015460038401546004850154600586015460069096015494959394929391929091906001600160a01b0381169060ff600160a01b8204811691600160a81b9004168956fea26469706673582212207f69788803669d400abb2225b5fb844ca30a3620a2a3e90ccf9e9cee80ca1ed964736f6c63430007010033",
  "immutableReferences": {},
  "source": "// SPDX-License-Identifier: GPL-3.0-or-later\npragma solidity ^0.7.1;\n\ncontract StashBloxData {\n\n\n    /***************************************\n    TYPES\n    ****************************************/\n\n\n    struct User {\n        bool isTokenizer;\n        bool isLocked;\n        uint256 ETHBalance;\n        uint256[] tokens;\n        mapping(address => bool) operatorApprovals;\n    }\n\n    struct Holder {\n        uint256 balance;\n        uint256 birthday;\n        bool isMaintener;\n        bool isHolder; // never come back to false\n        bool isApproved; // for private tokens\n    }\n\n    struct Token {\n        uint256 supply;\n        uint256 decimals;\n        uint256 lumpSumTransactionFees;\n        uint256 valueTransactionFees;\n        uint256 minHoldingForCallback;\n        uint256 metadataHash;\n        address legalAuthority;\n        bool isPrivate;\n        bool locked;\n        mapping(address => Holder) holders;\n        address[] holderList; // Can contains zero balance\n        address[] feesRecipients;\n        uint256[] feesRecipientsPercentage;\n        uint256[2][] storageCostHistory; //list of tuple [timestamp, price]\n    }\n\n    struct Config {\n        uint256 callbackAutoExecuteMaxAddresses;\n        string baseURI;\n        address[10] proxyRegistryAddresses;\n        address owner;\n    }\n\n    struct Callback {\n        uint256 tokenId;\n        uint256 price;\n        uint256 escrowedAmount;\n        uint256 callCounter;\n        uint256 documentHash;\n        address caller;\n        bool needLegalApproval;\n        bool approvedByLegal;\n        bool refused;\n        bool accepted;\n        bool completed;\n        address[] callees;\n    }\n\n\n    /***************************************\n    CONSTANTS\n    ****************************************/\n\n\n    bytes4 constant internal INTERFACE_SIGNATURE_ERC165 = 0x01ffc9a7;\n    bytes4 constant internal INTERFACE_SIGNATURE_ERC1155 = 0xd9b67a26;\n\n\n    /***************************************\n    GLOBAL VARIABLES\n    ****************************************/\n\n\n    Config public  _config;\n    mapping (address => User) public _users;\n    mapping (uint256 => Token) public _tokens;\n    mapping (uint256 => Callback) public _callbacks;\n\n}\n",
  "sourcePath": "/home/ouziel/Work/StashBloxContracts/contracts/lib/StashBloxData.sol",
  "compiler": {
    "name": "solc",
    "version": "0.7.1+commit.f4a555be.Emscripten.clang"
  },
  "schemaVersion": "3.2.3",
  "updatedAt": "2020-10-21T17:19:14.627Z",
  "devdoc": {
    "kind": "dev",
    "methods": {},
    "version": 1
  },
  "userdoc": {
    "kind": "user",
    "methods": {},
    "version": 1
  }
}