{
  "contractName": "StashBloxBase",
  "abi": [
    {
      "anonymous": false,
      "inputs": [
        {
          "indexed": true,
          "internalType": "uint256",
          "name": "_callbackPropositionId",
          "type": "uint256"
        }
      ],
      "name": "CallbackAccepted",
      "type": "event"
    },
    {
      "anonymous": false,
      "inputs": [
        {
          "indexed": true,
          "internalType": "uint256",
          "name": "_callbackPropositionId",
          "type": "uint256"
        }
      ],
      "name": "CallbackCompleted",
      "type": "event"
    },
    {
      "anonymous": false,
      "inputs": [
        {
          "indexed": true,
          "internalType": "uint256",
          "name": "_callbackPropositionId",
          "type": "uint256"
        }
      ],
      "name": "CallbackProposed",
      "type": "event"
    },
    {
      "anonymous": false,
      "inputs": [
        {
          "indexed": true,
          "internalType": "uint256",
          "name": "_callbackPropositionId",
          "type": "uint256"
        }
      ],
      "name": "CallbackRefused",
      "type": "event"
    },
    {
      "anonymous": false,
      "inputs": [
        {
          "indexed": true,
          "internalType": "uint256",
          "name": "_id",
          "type": "uint256"
        },
        {
          "indexed": true,
          "internalType": "uint256",
          "name": "_hash",
          "type": "uint256"
        }
      ],
      "name": "MetadataHashUpdated",
      "type": "event"
    },
    {
      "anonymous": false,
      "inputs": [
        {
          "indexed": true,
          "internalType": "address",
          "name": "previousOwner",
          "type": "address"
        },
        {
          "indexed": true,
          "internalType": "address",
          "name": "newOwner",
          "type": "address"
        }
      ],
      "name": "OwnershipTransferred",
      "type": "event"
    },
    {
      "anonymous": false,
      "inputs": [
        {
          "indexed": true,
          "internalType": "uint256",
          "name": "_id",
          "type": "uint256"
        },
        {
          "indexed": false,
          "internalType": "uint256",
          "name": "_documentHash",
          "type": "uint256"
        }
      ],
      "name": "TokenLocked",
      "type": "event"
    },
    {
      "anonymous": false,
      "inputs": [
        {
          "indexed": true,
          "internalType": "uint256",
          "name": "_id",
          "type": "uint256"
        },
        {
          "indexed": false,
          "internalType": "uint256",
          "name": "_documentHash",
          "type": "uint256"
        }
      ],
      "name": "TokenUnlocked",
      "type": "event"
    },
    {
      "anonymous": false,
      "inputs": [
        {
          "indexed": true,
          "internalType": "address",
          "name": "_maintener",
          "type": "address"
        },
        {
          "indexed": false,
          "internalType": "uint256",
          "name": "_id",
          "type": "uint256"
        },
        {
          "indexed": false,
          "internalType": "uint256[3]",
          "name": "_fees",
          "type": "uint256[3]"
        }
      ],
      "name": "UpdateTransactionFees",
      "type": "event"
    },
    {
      "inputs": [],
      "name": "BASE_URI",
      "outputs": [
        {
          "internalType": "string",
          "name": "",
          "type": "string"
        }
      ],
      "stateMutability": "view",
      "type": "function"
    },
    {
      "inputs": [
        {
          "internalType": "address",
          "name": "",
          "type": "address"
        }
      ],
      "name": "_ETHBalances",
      "outputs": [
        {
          "internalType": "uint256",
          "name": "",
          "type": "uint256"
        }
      ],
      "stateMutability": "view",
      "type": "function"
    },
    {
      "inputs": [
        {
          "internalType": "uint256",
          "name": "",
          "type": "uint256"
        },
        {
          "internalType": "uint256",
          "name": "",
          "type": "uint256"
        }
      ],
      "name": "_addressesByToken",
      "outputs": [
        {
          "internalType": "address",
          "name": "",
          "type": "address"
        }
      ],
      "stateMutability": "view",
      "type": "function"
    },
    {
      "inputs": [
        {
          "internalType": "uint256",
          "name": "",
          "type": "uint256"
        },
        {
          "internalType": "address",
          "name": "",
          "type": "address"
        }
      ],
      "name": "_balances",
      "outputs": [
        {
          "internalType": "uint256",
          "name": "",
          "type": "uint256"
        }
      ],
      "stateMutability": "view",
      "type": "function"
    },
    {
      "inputs": [
        {
          "internalType": "uint256",
          "name": "",
          "type": "uint256"
        },
        {
          "internalType": "address",
          "name": "",
          "type": "address"
        }
      ],
      "name": "_birthdays",
      "outputs": [
        {
          "internalType": "uint256",
          "name": "",
          "type": "uint256"
        }
      ],
      "stateMutability": "view",
      "type": "function"
    },
    {
      "inputs": [
        {
          "internalType": "uint256",
          "name": "",
          "type": "uint256"
        }
      ],
      "name": "_callbackPropositions",
      "outputs": [
        {
          "internalType": "uint256",
          "name": "tokenId",
          "type": "uint256"
        },
        {
          "internalType": "address",
          "name": "caller",
          "type": "address"
        },
        {
          "internalType": "uint256",
          "name": "price",
          "type": "uint256"
        },
        {
          "internalType": "uint256",
          "name": "escrowedAmount",
          "type": "uint256"
        },
        {
          "internalType": "bool",
          "name": "needLegalApproval",
          "type": "bool"
        },
        {
          "internalType": "bool",
          "name": "approvedByMaintener",
          "type": "bool"
        },
        {
          "internalType": "bool",
          "name": "approvedByLegal",
          "type": "bool"
        },
        {
          "internalType": "bool",
          "name": "refused",
          "type": "bool"
        },
        {
          "internalType": "bool",
          "name": "accepted",
          "type": "bool"
        },
        {
          "internalType": "uint256",
          "name": "callCounter",
          "type": "uint256"
        },
        {
          "internalType": "bool",
          "name": "completed",
          "type": "bool"
        },
        {
          "internalType": "uint256",
          "name": "documentHash",
          "type": "uint256"
        }
      ],
      "stateMutability": "view",
      "type": "function"
    },
    {
      "inputs": [
        {
          "internalType": "address",
          "name": "",
          "type": "address"
        },
        {
          "internalType": "uint256",
          "name": "",
          "type": "uint256"
        }
      ],
      "name": "_tokensByAddress",
      "outputs": [
        {
          "internalType": "uint256",
          "name": "",
          "type": "uint256"
        }
      ],
      "stateMutability": "view",
      "type": "function"
    },
    {
      "inputs": [
        {
          "internalType": "uint256",
          "name": "id",
          "type": "uint256"
        }
      ],
      "name": "metadataHash",
      "outputs": [
        {
          "internalType": "uint256",
          "name": "",
          "type": "uint256"
        }
      ],
      "stateMutability": "view",
      "type": "function"
    },
    {
      "inputs": [],
      "name": "owner",
      "outputs": [
        {
          "internalType": "address",
          "name": "",
          "type": "address"
        }
      ],
      "stateMutability": "view",
      "type": "function"
    },
    {
      "inputs": [
        {
          "internalType": "address",
          "name": "newOwner",
          "type": "address"
        }
      ],
      "name": "transferOwnership",
      "outputs": [],
      "stateMutability": "nonpayable",
      "type": "function"
    },
    {
      "inputs": [
        {
          "internalType": "uint256",
          "name": "id",
          "type": "uint256"
        }
      ],
      "name": "uri",
      "outputs": [
        {
          "internalType": "string",
          "name": "",
          "type": "string"
        }
      ],
      "stateMutability": "pure",
      "type": "function"
    }
  ],
  "bytecode": "0x60806040526001601055603260185534801561001a57600080fd5b5061002433610029565b6100e3565b6001600160a01b038116610088576040517f08c379a000000000000000000000000000000000000000000000000000000000815260040180806020018281038252602681526020018061095c6026913960400191505060405180910390fd5b600080546040516001600160a01b03808516939216917f8be0079c531659141344cd1fd0a4f28419497f9722a3daafe3b4186f6b6457e091a3600080546001600160a01b0319166001600160a01b0392909216919091179055565b61086a806100f26000396000f3fe608060405234801561001057600080fd5b50600436106100a95760003560e01c806397869e271161007157806397869e27146101e2578063d7b80ebc1461026c578063dbddb26a14610292578063ea2bd64d1461029a578063f2fde38b146102c6578063fc25a4da146102ee576100a9565b80630e89341c146100ae578063119c073714610140578063219cc8bc1461017f5780636eb987c7146101ae5780638da5cb5b146101da575b600080fd5b6100cb600480360360208110156100c457600080fd5b503561031a565b6040805160208082528351818301528351919283929083019185019080838360005b838110156101055781810151838201526020016100ed565b50505050905090810190601f1680156101325780820380516001836020036101000a031916815260200191505b509250505060405180910390f35b6101636004803603604081101561015657600080fd5b508035906020013561036b565b604080516001600160a01b039092168252519081900360200190f35b61019c6004803603602081101561019557600080fd5b50356103a0565b60408051918252519081900360200190f35b61019c600480360360408110156101c457600080fd5b506001600160a01b0381351690602001356103b2565b6101636103e0565b6101ff600480360360208110156101f857600080fd5b50356103ef565b604080519c8d526001600160a01b03909b1660208d01528b8b019990995260608b019790975294151560808a015292151560a089015290151560c0880152151560e08701521515610100860152610120850152151561014084015261016083015251908190036101800190f35b61019c6004803603602081101561028257600080fd5b50356001600160a01b0316610469565b6100cb61047b565b61019c600480360360408110156102b057600080fd5b50803590602001356001600160a01b03166104b4565b6102ec600480360360208110156102dc57600080fd5b50356001600160a01b03166104d1565b005b61019c6004803603604081101561030457600080fd5b50803590602001356001600160a01b0316610536565b60606103636040518060400160405280601d81526020017f68747470733a2f2f7374617368626c6f782e636f6d2f746f6b656e732f00000081525061035e84610553565b61060f565b90505b919050565b600c602052816000526040600020818154811061038457fe5b6000918252602090912001546001600160a01b03169150829050565b60009081526001602052604090205490565b600b60205281600052604060002081815481106103cb57fe5b90600052602060002001600091509150505481565b6000546001600160a01b031690565b6011602052600090815260409020805460018201546003830154600484015460058501546006860154600787015460089097015495966001600160a01b03909516959394929360ff80841694610100850482169462010000810483169463010000008204841694640100000000909204841693909216908c565b600a6020526000908152604090205481565b6040518060400160405280601d81526020017f68747470733a2f2f7374617368626c6f782e636f6d2f746f6b656e732f00000081525081565b600460209081526000928352604080842090915290825290205481565b6104d9610719565b61052a576040805162461bcd60e51b815260206004820181905260248201527f4f776e61626c653a2063616c6c6572206973206e6f7420746865206f776e6572604482015290519081900360640190fd5b6105338161072a565b50565b600260209081526000928352604080842090915290825290205481565b60606000825b801561056f576001919091019060109004610559565b60608267ffffffffffffffff8111801561058857600080fd5b506040519080825280601f01601f1916602001820160405280156105b3576020820181803683370190505b50905060005b83811015610606576010860692506105d0836107ca565b82600183870303815181106105e157fe5b60200101906001600160f81b031916908160001a9053506010860495506001016105b9565b50949350505050565b805182516060918491849184910167ffffffffffffffff8111801561063357600080fd5b506040519080825280601f01601f19166020018201604052801561065e576020820181803683370190505b509050806000805b85518110156106b75785818151811061067b57fe5b602001015160f81c60f81b83838060010194508151811061069857fe5b60200101906001600160f81b031916908160001a905350600101610666565b5060005b845181101561070c578481815181106106d057fe5b602001015160f81c60f81b8383806001019450815181106106ed57fe5b60200101906001600160f81b031916908160001a9053506001016106bb565b5090979650505050505050565b6000546001600160a01b0316331490565b6001600160a01b03811661076f5760405162461bcd60e51b815260040180806020018281038252602681526020018061080f6026913960400191505060405180910390fd5b600080546040516001600160a01b03808516939216917f8be0079c531659141344cd1fd0a4f28419497f9722a3daafe3b4186f6b6457e091a3600080546001600160a01b0319166001600160a01b0392909216919091179055565b600060098260ff16116107e457506030810160f81b610366565b8160ff16600a111580156107fc5750600f8260ff1611155b156100a957506057810160f81b61036656fe4f776e61626c653a206e6577206f776e657220697320746865207a65726f2061646472657373a2646970667358221220a01aef874de2d31bdbb031f1473f5b494f5b8027354fb079ee899e2ecbc9e07564736f6c634300070100334f776e61626c653a206e6577206f776e657220697320746865207a65726f2061646472657373",
  "immutableReferences": {},
  "source": "// SPDX-License-Identifier: GPL-3.0-or-later\n\npragma solidity ^0.7.1;\n\nimport \"./lib/utils/SafeMath.sol\";\nimport \"./lib/ERC173/ERC173.sol\";\nimport './lib/ERC1155/ERC1155Metadata.sol';\n\ncontract OwnableDelegateProxy { }\n\ncontract ProxyRegistry {\n  mapping(address => OwnableDelegateProxy) public proxies;\n}\n\ncontract StashBloxBase is ERC173, ERC1155Metadata {\n\n    using SafeMath for uint256;\n\n\n    /***************************************\n    GLOBAL VARIABLES\n    ****************************************/\n\n\n    // Mapping from token ID to account balances\n    mapping (uint256 => mapping(address => uint256)) public _balances;\n    // Mapping from token ID to Supply\n    mapping (uint256 => uint256) internal _supplies;\n    // Mapping from token ID to account age\n    mapping (uint256 => mapping(address => uint256)) public _birthdays;\n    // Mapping from token ID to list of tuple [timestamp, price]\n    mapping (uint256 => uint256[2][]) internal _storageCostHistory;\n    // Lump sum transaction fees for each token\n    mapping (uint256 => uint256) _lumpSumTransactionFees;\n    // Value proportional transaction fees for each token\n    mapping (uint256 => uint256) _valueTransactionFees;\n    // For each token a list of addresses receiving transfer fees\n    mapping (uint256 => address[]) internal _feesRecipients;\n    // For each token a list of percentage, each one for the corresponding _feesRecipients index\n    mapping (uint256 => uint256[]) internal _feesRecipientsPercentage;\n    // Balances ETH for fees recipients and callbacks\n    mapping (address => uint256) public _ETHBalances;\n    // For each address a list of token IDs. Can contains zero balance.\n    mapping (address => uint256[]) public _tokensByAddress;\n    // For each token a list of addresses. Can contains zero balance.\n    mapping (uint256 => address[]) public _addressesByToken;\n    // Initialize to true on the first token received, never come back to false.\n    mapping (uint256 => mapping(address => bool)) internal _isHolder;\n    // Mapping for locked tokens\n    mapping (uint256 => bool) internal _tokenLocks;\n    // Mapping for locked addresses\n    mapping (address => bool) internal _addressLocks;\n\n    // list of callback propositions\n    struct CallbackProposition {\n        uint256 tokenId;\n        address caller;\n        address[] callees;\n        uint256 price;\n        uint256 escrowedAmount;\n        bool needLegalApproval;\n        bool approvedByMaintener;\n        bool approvedByLegal;\n        bool refused;\n        bool accepted;\n        uint256 callCounter;\n        bool completed;\n        uint256 documentHash;\n    }\n    uint256 _nextCallbackPropositionId = 1;\n    mapping (uint256 => CallbackProposition) public _callbackPropositions;\n\n    // list of addresses authorized to create a token\n    mapping (address => bool) _authorizedTokenizers;\n    // List of token mainteners\n    mapping (uint256 => mapping(address => bool)) _tokenMainteners;\n    // Minimum holding to propose a callback for each token\n    mapping (uint256 => uint256) _minHoldingForCallback;\n    // Token template for batch creation\n    struct TokenTemplate {\n        address recipient;\n        uint256 supply;\n        uint256[3] transactionFees;\n        address[] feesRecipients;\n        uint256[] feesRecipientsPercentage;\n        uint256 minHoldingForCallback;\n    }\n    mapping(uint256 => TokenTemplate) _tokenTemplates;\n    // Exchanges proxy addresses\n    address[] _proxyRegistryAddresses;\n    // Legal authority addresses\n    mapping (uint256 => address) _legalAuthorityAddresses;\n\n    uint256 _callbackAutoExecuteMaxAddresses = 50;\n\n    /***************************************\n    EVENTS\n    ****************************************/\n\n\n    // Callback events\n    event CallbackProposed(uint256 indexed _callbackPropositionId);\n    event CallbackRefused(uint256 indexed _callbackPropositionId);\n    event CallbackAccepted(uint256 indexed _callbackPropositionId);\n    event CallbackCompleted(uint256 indexed _callbackPropositionId);\n\n    // Update transactions prices events\n    event UpdateTransactionFees(address indexed _maintener, uint256 _id, uint256[3] _fees);\n\n    event TokenLocked(uint256 indexed _id, uint256 _documentHash);\n    event TokenUnlocked(uint256 indexed _id, uint256 _documentHash);\n\n\n    /***************************************\n    MODIFIERS\n    ****************************************/\n\n    function _isTokenizer(address tokenizer) internal view returns (bool) {\n        return _authorizedTokenizers[tokenizer] || _isOwner();\n    }\n\n    modifier onlyTokenizer() {\n        require(_isTokenizer(msg.sender), \"[StashBlox]: caller is not a tokenizer\");\n        _;\n    }\n\n    function _isMaintener(uint256 id, address maintener) internal view returns (bool) {\n        return _tokenMainteners[id][maintener] || _isOwner();\n    }\n\n    modifier onlyMaintener(uint256 id) {\n        require(_isMaintener(id, msg.sender), \"[StashBlox]: caller is not a token maintener\");\n        _;\n    }\n\n    function _isLegalAuthority(uint256 id, address legalAuthority) internal view returns (bool) {\n        return _legalAuthorityAddresses[id] == legalAuthority;\n    }\n\n\n    /***************************************\n    LOCKS FUNCTIONS\n    ****************************************/\n\n    function _lockToken(uint256 id, uint256 documentHash) internal {\n        _tokenLocks[id] = true;\n        emit TokenLocked(id, documentHash);\n    }\n\n    function _unlockToken(uint256 id, uint256 documentHash) internal {\n        _tokenLocks[id] = false;\n        emit TokenUnlocked(id, documentHash);\n    }\n\n    function _isLockedToken(uint256 id) internal view returns (bool) {\n        return _tokenLocks[id];\n    }\n\n    function _isLockedAddress(address addr) internal view returns (bool) {\n        return _addressLocks[addr];\n    }\n\n    function _isLockedMove(address from, address to, uint256 id, uint256 value) internal view returns (bool) {\n        return _isLockedToken(id) || _isLockedAddress(from) || _isLockedAddress(to) || (value == 0);\n    }\n\n\n    /***************************************\n    TOKENS TRANSFER FUNCTIONS\n    ****************************************/\n\n\n    // update balance, lists of holders and token average age of the recipient\n    function _addToBalance(address recipient, uint256 id, uint256 value) internal {\n        uint256 newBalance = _balances[id][recipient].add(value);\n\n        if (_balances[id][recipient] == 0) {\n\n            if (!_isHolder[id][recipient]) {\n\n                _tokensByAddress[recipient].push(id);\n                _addressesByToken[id].push(recipient);\n                _isHolder[id][recipient];\n            }\n\n            _birthdays[id][recipient] = block.timestamp;\n\n        } else {\n\n            // calculate the average birthday of the received and hold tokens\n            uint256 oldTokensAge = block.timestamp.sub(_birthdays[id][recipient]);\n            uint256 newTokenAge = (_balances[id][recipient].mul(oldTokensAge)).div(newBalance);\n\n            _birthdays[id][recipient] = block.timestamp - newTokenAge;\n        }\n\n        _balances[id][recipient] = newBalance;\n    }\n\n    // Calculate transaction fees\n    function _transactionFees(address account, uint256 id, uint256 value) internal view returns (uint256) {\n        require(account != address(0), \"ERC1155: balance query for the zero address\");\n\n        uint256 totalCost = 0;\n        uint256 timeCursor = block.timestamp;\n\n        for (uint i = _storageCostHistory[id].length - 1; i >= 0; i--) {\n\n            uint256 costStartAt = _storageCostHistory[id][i][0];\n            uint256 cost = _storageCostHistory[id][i][1];\n            uint256 storageDays;\n\n            if (_birthdays[id][account] >= costStartAt) {\n                storageDays = (timeCursor.sub(_birthdays[id][account])).div(86400);\n                if (storageDays == 0) storageDays = 1;\n                totalCost += (storageDays.mul(cost)).mul(value);\n                break;\n            } else {\n                storageDays = (timeCursor.sub(costStartAt)).div(86400);\n                if (storageDays == 0) storageDays = 1;\n                timeCursor = costStartAt;\n                totalCost += (storageDays.mul(cost)).mul(value);\n            }\n        }\n\n        uint256 valueFees = (value.mul(_valueTransactionFees[id])).div(10**8);\n\n        return totalCost.add(_lumpSumTransactionFees[id].add(valueFees));\n    }\n\n    // Used by ERC1155.sol in safeTransferFrom and safeTransferFromBatch functions\n    function _moveTokens(address from, address to, uint256 id, uint256 value, uint256 feesBalance) internal returns (uint256 fees) {\n        require(!_isLockedMove(from, to, id, value), \"Locked\");\n\n        fees = _transactionFees(from, id, value);\n        require(feesBalance >= fees, \"ERC1155: insufficient ETH for transfer fees\");\n\n        _balances[id][from] = _balances[id][from].sub(value, \"ERC1155: insufficient balance for transfer\");\n\n        _addToBalance(to, id, value);\n\n        for (uint256 i = 0; i < _feesRecipients[id].length; ++i) {\n            address feesRecipient = _feesRecipients[id][i];\n            uint256 feesRecipientsPercentage = _feesRecipientsPercentage[id][i];\n            _ETHBalances[feesRecipient] += (fees.mul(feesRecipientsPercentage)).div(10000);\n        }\n\n        return fees;\n    }\n\n\n    /***************************************\n    TOKENS CREATION AND MAINTENANCE FUNCTIONS\n    ****************************************/\n\n\n    function _createToken(address recipient,\n                          uint256 id,\n                          uint256 supply,\n                          uint256 metadataHash,\n                          uint256[3] memory transactionFees,\n                          address[] memory feesRecipients,\n                          uint256[] memory feesRecipientsPercentage,\n                          uint256 minHoldingForCallback)\n    internal {\n        require(_supplies[id] == 0, \"StashBlox: Token ID already used\");\n        require(supply > 0, \"StashBlox: Supply must be greater than 0\");\n\n        _supplies[id] = supply;\n        _tokenMainteners[id][msg.sender] = true;\n\n        _addToBalance(recipient, id, supply);\n        _setMetadataHash(id, metadataHash);\n        _setTransactionFees(id, transactionFees);\n        _setFeesRecipients(id, feesRecipients, feesRecipientsPercentage);\n        _setMinHoldingForCallback(id, minHoldingForCallback);\n    }\n\n    function _setMetadataHash(uint256 id, uint256 hash) internal {\n         _metadataHashes[id] = hash;\n         emit MetadataHashUpdated(id, hash);\n    }\n\n    function _setTransactionFees(uint256 id, uint256[3] memory newFees) internal {\n        _lumpSumTransactionFees[id] = newFees[0];\n        _valueTransactionFees[id] = newFees[1];\n        _storageCostHistory[id].push([block.timestamp, newFees[2]]);\n\n        emit UpdateTransactionFees(msg.sender, id, newFees);\n    }\n\n    function _setMinHoldingForCallback(uint256 id, uint256 newMinHoldingForCallback) internal {\n        require(newMinHoldingForCallback < 10000, \"StashBlox: minimum holding must be lower than 10000 (100%)\");\n        _minHoldingForCallback[id] = newMinHoldingForCallback;\n    }\n\n    function _setFeesRecipients(uint256 id,\n                                address[] memory newFeesRecipients,\n                                uint256[] memory newFeesRecipientsPercentage)\n    internal {\n        require(newFeesRecipients.length > 0 &&\n                newFeesRecipients.length == newFeesRecipientsPercentage.length, \"StashBlox: Invalid arguments\");\n\n        uint256 totalPercentage = 0;\n        for (uint256 i = 0; i < newFeesRecipientsPercentage.length; ++i) {\n            totalPercentage += newFeesRecipientsPercentage[i];\n            require(newFeesRecipientsPercentage[i] > 0, \"StashBlox: feesRecipientsPercentage should be greater than 0\");\n        }\n        require(totalPercentage == 10000, \"StashBlox: Total of feesRecipientsPercentage must be equal to 10000\");\n\n        _feesRecipients[id] = newFeesRecipients;\n        _feesRecipientsPercentage[id] = newFeesRecipientsPercentage;\n    }\n\n    function _isWhitelistedOperator(address account, address operator) internal view returns (bool) {\n        for (uint256 i = 0; i < _proxyRegistryAddresses.length; ++i) {\n            ProxyRegistry proxyRegistry = ProxyRegistry(_proxyRegistryAddresses[i]);\n            if (address(proxyRegistry.proxies(account)) == operator) {\n                return true;\n            }\n        }\n        return false;\n    }\n\n\n    function _callbackPrice(uint256 tokenId, uint256 price, address[] memory callees) internal view returns (uint256) {\n        uint256 callbackAmount = 0;\n        if (callees.length == 0) {\n            callbackAmount = _supplies[tokenId].sub(_balances[tokenId][msg.sender]);\n        } else {\n            for (uint i; i < callees.length; i++) {\n                callbackAmount += _balances[tokenId][callees[i]];\n            }\n        }\n        return callbackAmount.mul(price);\n    }\n\n\n\n}\n",
  "sourcePath": "/home/ouziel/Work/StashBloxContracts/contracts/StashBloxBase.sol",
  "compiler": {
    "name": "solc",
    "version": "0.7.1+commit.f4a555be.Emscripten.clang"
  },
  "schemaVersion": "3.2.3",
  "updatedAt": "2020-10-14T09:10:42.283Z",
  "devdoc": {
    "kind": "dev",
    "methods": {
      "owner()": {
        "details": "Returns the address of the current owner."
      },
      "transferOwnership(address)": {
        "details": "Transfers ownership of the contract to a new account (`newOwner`). Can only be called by the current owner."
      },
      "uri(uint256)": {
        "params": {
          "id": "Token ID"
        },
        "returns": {
          "_0": "URI string"
        }
      }
    },
    "version": 1
  },
  "userdoc": {
    "kind": "user",
    "methods": {},
    "version": 1
  }
}