{
  "contractName": "StashBlox",
  "abi": [
    {
      "anonymous": false,
      "inputs": [
        {
          "indexed": true,
          "internalType": "address",
          "name": "_owner",
          "type": "address"
        },
        {
          "indexed": true,
          "internalType": "address",
          "name": "_operator",
          "type": "address"
        },
        {
          "indexed": false,
          "internalType": "bool",
          "name": "_approved",
          "type": "bool"
        }
      ],
      "name": "ApprovalForAll",
      "type": "event"
    },
    {
      "anonymous": false,
      "inputs": [
        {
          "indexed": true,
          "internalType": "uint256",
          "name": "_id",
          "type": "uint256"
        },
        {
          "indexed": true,
          "internalType": "uint256",
          "name": "_hash",
          "type": "uint256"
        }
      ],
      "name": "MetadataHashUpdated",
      "type": "event"
    },
    {
      "anonymous": false,
      "inputs": [
        {
          "indexed": true,
          "internalType": "address",
          "name": "previousOwner",
          "type": "address"
        },
        {
          "indexed": true,
          "internalType": "address",
          "name": "newOwner",
          "type": "address"
        }
      ],
      "name": "OwnershipTransferred",
      "type": "event"
    },
    {
      "anonymous": false,
      "inputs": [
        {
          "indexed": true,
          "internalType": "address",
          "name": "_operator",
          "type": "address"
        },
        {
          "indexed": true,
          "internalType": "address",
          "name": "_from",
          "type": "address"
        },
        {
          "indexed": true,
          "internalType": "address",
          "name": "_to",
          "type": "address"
        },
        {
          "indexed": false,
          "internalType": "uint256[]",
          "name": "_ids",
          "type": "uint256[]"
        },
        {
          "indexed": false,
          "internalType": "uint256[]",
          "name": "_values",
          "type": "uint256[]"
        }
      ],
      "name": "TransferBatch",
      "type": "event"
    },
    {
      "anonymous": false,
      "inputs": [
        {
          "indexed": true,
          "internalType": "address",
          "name": "_operator",
          "type": "address"
        },
        {
          "indexed": true,
          "internalType": "address",
          "name": "_from",
          "type": "address"
        },
        {
          "indexed": true,
          "internalType": "address",
          "name": "_to",
          "type": "address"
        },
        {
          "indexed": false,
          "internalType": "uint256",
          "name": "_id",
          "type": "uint256"
        },
        {
          "indexed": false,
          "internalType": "uint256",
          "name": "_value",
          "type": "uint256"
        }
      ],
      "name": "TransferSingle",
      "type": "event"
    },
    {
      "anonymous": false,
      "inputs": [
        {
          "indexed": false,
          "internalType": "string",
          "name": "_value",
          "type": "string"
        },
        {
          "indexed": true,
          "internalType": "uint256",
          "name": "_id",
          "type": "uint256"
        }
      ],
      "name": "URI",
      "type": "event"
    },
    {
      "anonymous": false,
      "inputs": [
        {
          "indexed": true,
          "internalType": "address",
          "name": "_tokenizer",
          "type": "address"
        },
        {
          "indexed": false,
          "internalType": "uint256",
          "name": "_id",
          "type": "uint256"
        },
        {
          "indexed": false,
          "internalType": "uint256",
          "name": "_cost",
          "type": "uint256"
        }
      ],
      "name": "UpdateStorageCost",
      "type": "event"
    },
    {
      "anonymous": false,
      "inputs": [
        {
          "indexed": true,
          "internalType": "address",
          "name": "_owner",
          "type": "address"
        },
        {
          "indexed": false,
          "internalType": "uint256",
          "name": "_price",
          "type": "uint256"
        }
      ],
      "name": "UpdateStorageCreditPrice",
      "type": "event"
    },
    {
      "constant": true,
      "inputs": [],
      "name": "BASE_URI",
      "outputs": [
        {
          "internalType": "string",
          "name": "",
          "type": "string"
        }
      ],
      "payable": false,
      "stateMutability": "view",
      "type": "function"
    },
    {
      "constant": true,
      "inputs": [
        {
          "internalType": "uint256",
          "name": "id",
          "type": "uint256"
        }
      ],
      "name": "addressesByToken",
      "outputs": [
        {
          "internalType": "string",
          "name": "result",
          "type": "string"
        }
      ],
      "payable": false,
      "stateMutability": "view",
      "type": "function"
    },
    {
      "constant": false,
      "inputs": [
        {
          "internalType": "address",
          "name": "tokenizer",
          "type": "address"
        }
      ],
      "name": "authorizeTokenizer",
      "outputs": [],
      "payable": false,
      "stateMutability": "nonpayable",
      "type": "function"
    },
    {
      "constant": true,
      "inputs": [
        {
          "internalType": "address",
          "name": "account",
          "type": "address"
        },
        {
          "internalType": "uint256",
          "name": "id",
          "type": "uint256"
        }
      ],
      "name": "balanceOf",
      "outputs": [
        {
          "internalType": "uint256",
          "name": "",
          "type": "uint256"
        }
      ],
      "payable": false,
      "stateMutability": "view",
      "type": "function"
    },
    {
      "constant": true,
      "inputs": [
        {
          "internalType": "address[]",
          "name": "accounts",
          "type": "address[]"
        },
        {
          "internalType": "uint256[]",
          "name": "ids",
          "type": "uint256[]"
        }
      ],
      "name": "balanceOfBatch",
      "outputs": [
        {
          "internalType": "uint256[]",
          "name": "",
          "type": "uint256[]"
        }
      ],
      "payable": false,
      "stateMutability": "view",
      "type": "function"
    },
    {
      "constant": true,
      "inputs": [
        {
          "internalType": "address",
          "name": "account",
          "type": "address"
        },
        {
          "internalType": "uint256",
          "name": "id",
          "type": "uint256"
        }
      ],
      "name": "birthdayOf",
      "outputs": [
        {
          "internalType": "uint256",
          "name": "",
          "type": "uint256"
        }
      ],
      "payable": false,
      "stateMutability": "view",
      "type": "function"
    },
    {
      "constant": false,
      "inputs": [
        {
          "internalType": "address",
          "name": "recipient",
          "type": "address"
        },
        {
          "internalType": "uint256",
          "name": "id",
          "type": "uint256"
        },
        {
          "internalType": "uint256",
          "name": "supply",
          "type": "uint256"
        },
        {
          "internalType": "uint256",
          "name": "metadataHash",
          "type": "uint256"
        },
        {
          "internalType": "uint256",
          "name": "storageCreditCost",
          "type": "uint256"
        },
        {
          "internalType": "uint256",
          "name": "minHoldingForCallback",
          "type": "uint256"
        },
        {
          "internalType": "address[]",
          "name": "feesRecipients",
          "type": "address[]"
        },
        {
          "internalType": "uint256[]",
          "name": "feesRecipientsPercentage",
          "type": "uint256[]"
        }
      ],
      "name": "createToken",
      "outputs": [],
      "payable": false,
      "stateMutability": "nonpayable",
      "type": "function"
    },
    {
      "constant": false,
      "inputs": [
        {
          "internalType": "address",
          "name": "recipient",
          "type": "address"
        },
        {
          "internalType": "uint256[]",
          "name": "ids",
          "type": "uint256[]"
        },
        {
          "internalType": "uint256[]",
          "name": "metadataHashes",
          "type": "uint256[]"
        }
      ],
      "name": "createTokens",
      "outputs": [],
      "payable": false,
      "stateMutability": "nonpayable",
      "type": "function"
    },
    {
      "constant": true,
      "inputs": [
        {
          "internalType": "address",
          "name": "account",
          "type": "address"
        },
        {
          "internalType": "address",
          "name": "operator",
          "type": "address"
        }
      ],
      "name": "isApprovedForAll",
      "outputs": [
        {
          "internalType": "bool",
          "name": "",
          "type": "bool"
        }
      ],
      "payable": false,
      "stateMutability": "view",
      "type": "function"
    },
    {
      "constant": true,
      "inputs": [
        {
          "internalType": "address",
          "name": "addr",
          "type": "address"
        }
      ],
      "name": "isLockedAddress",
      "outputs": [
        {
          "internalType": "bool",
          "name": "",
          "type": "bool"
        }
      ],
      "payable": false,
      "stateMutability": "view",
      "type": "function"
    },
    {
      "constant": true,
      "inputs": [
        {
          "internalType": "uint256",
          "name": "id",
          "type": "uint256"
        }
      ],
      "name": "isLockedToken",
      "outputs": [
        {
          "internalType": "bool",
          "name": "",
          "type": "bool"
        }
      ],
      "payable": false,
      "stateMutability": "view",
      "type": "function"
    },
    {
      "constant": true,
      "inputs": [
        {
          "internalType": "address",
          "name": "tokenizer",
          "type": "address"
        }
      ],
      "name": "isTokenizer",
      "outputs": [
        {
          "internalType": "bool",
          "name": "",
          "type": "bool"
        }
      ],
      "payable": false,
      "stateMutability": "view",
      "type": "function"
    },
    {
      "constant": false,
      "inputs": [
        {
          "internalType": "address",
          "name": "addr",
          "type": "address"
        }
      ],
      "name": "lockAddress",
      "outputs": [],
      "payable": false,
      "stateMutability": "nonpayable",
      "type": "function"
    },
    {
      "constant": false,
      "inputs": [
        {
          "internalType": "uint256",
          "name": "id",
          "type": "uint256"
        }
      ],
      "name": "lockToken",
      "outputs": [],
      "payable": false,
      "stateMutability": "nonpayable",
      "type": "function"
    },
    {
      "constant": true,
      "inputs": [
        {
          "internalType": "uint256",
          "name": "id",
          "type": "uint256"
        }
      ],
      "name": "metadataHash",
      "outputs": [
        {
          "internalType": "uint256",
          "name": "",
          "type": "uint256"
        }
      ],
      "payable": false,
      "stateMutability": "view",
      "type": "function"
    },
    {
      "constant": true,
      "inputs": [],
      "name": "owner",
      "outputs": [
        {
          "internalType": "address",
          "name": "",
          "type": "address"
        }
      ],
      "payable": false,
      "stateMutability": "view",
      "type": "function"
    },
    {
      "constant": false,
      "inputs": [
        {
          "internalType": "address",
          "name": "tokenizer",
          "type": "address"
        }
      ],
      "name": "revokeTokenizer",
      "outputs": [],
      "payable": false,
      "stateMutability": "nonpayable",
      "type": "function"
    },
    {
      "constant": false,
      "inputs": [
        {
          "internalType": "address",
          "name": "from",
          "type": "address"
        },
        {
          "internalType": "address",
          "name": "to",
          "type": "address"
        },
        {
          "internalType": "uint256[]",
          "name": "ids",
          "type": "uint256[]"
        },
        {
          "internalType": "uint256[]",
          "name": "values",
          "type": "uint256[]"
        },
        {
          "internalType": "bytes",
          "name": "data",
          "type": "bytes"
        }
      ],
      "name": "safeBatchTransferFrom",
      "outputs": [],
      "payable": true,
      "stateMutability": "payable",
      "type": "function"
    },
    {
      "constant": false,
      "inputs": [
        {
          "internalType": "address",
          "name": "from",
          "type": "address"
        },
        {
          "internalType": "address",
          "name": "to",
          "type": "address"
        },
        {
          "internalType": "uint256",
          "name": "id",
          "type": "uint256"
        },
        {
          "internalType": "uint256",
          "name": "value",
          "type": "uint256"
        },
        {
          "internalType": "bytes",
          "name": "data",
          "type": "bytes"
        }
      ],
      "name": "safeTransferFrom",
      "outputs": [],
      "payable": true,
      "stateMutability": "payable",
      "type": "function"
    },
    {
      "constant": false,
      "inputs": [
        {
          "internalType": "address",
          "name": "operator",
          "type": "address"
        },
        {
          "internalType": "bool",
          "name": "approved",
          "type": "bool"
        }
      ],
      "name": "setApprovalForAll",
      "outputs": [],
      "payable": false,
      "stateMutability": "nonpayable",
      "type": "function"
    },
    {
      "constant": false,
      "inputs": [
        {
          "internalType": "uint256",
          "name": "supply",
          "type": "uint256"
        },
        {
          "internalType": "uint256",
          "name": "storageCreditCost",
          "type": "uint256"
        },
        {
          "internalType": "uint256",
          "name": "minHoldingForCallback",
          "type": "uint256"
        },
        {
          "internalType": "address[]",
          "name": "feesRecipients",
          "type": "address[]"
        },
        {
          "internalType": "uint256[]",
          "name": "feesRecipientsPercentage",
          "type": "uint256[]"
        }
      ],
      "name": "setCreateTokensDefaultValues",
      "outputs": [],
      "payable": false,
      "stateMutability": "nonpayable",
      "type": "function"
    },
    {
      "constant": true,
      "inputs": [
        {
          "internalType": "address",
          "name": "account",
          "type": "address"
        },
        {
          "internalType": "uint256",
          "name": "id",
          "type": "uint256"
        },
        {
          "internalType": "uint256",
          "name": "value",
          "type": "uint256"
        }
      ],
      "name": "storageFees",
      "outputs": [
        {
          "internalType": "uint256",
          "name": "",
          "type": "uint256"
        }
      ],
      "payable": false,
      "stateMutability": "view",
      "type": "function"
    },
    {
      "constant": true,
      "inputs": [
        {
          "internalType": "bytes4",
          "name": "_interfaceID",
          "type": "bytes4"
        }
      ],
      "name": "supportsInterface",
      "outputs": [
        {
          "internalType": "bool",
          "name": "",
          "type": "bool"
        }
      ],
      "payable": false,
      "stateMutability": "view",
      "type": "function"
    },
    {
      "constant": true,
      "inputs": [
        {
          "internalType": "address",
          "name": "account",
          "type": "address"
        }
      ],
      "name": "tokensByAddress",
      "outputs": [
        {
          "internalType": "string",
          "name": "result",
          "type": "string"
        }
      ],
      "payable": false,
      "stateMutability": "view",
      "type": "function"
    },
    {
      "constant": true,
      "inputs": [
        {
          "internalType": "uint256",
          "name": "id",
          "type": "uint256"
        }
      ],
      "name": "totalSupply",
      "outputs": [
        {
          "internalType": "uint256",
          "name": "",
          "type": "uint256"
        }
      ],
      "payable": false,
      "stateMutability": "view",
      "type": "function"
    },
    {
      "constant": false,
      "inputs": [
        {
          "internalType": "address",
          "name": "newOwner",
          "type": "address"
        }
      ],
      "name": "transferOwnership",
      "outputs": [],
      "payable": false,
      "stateMutability": "nonpayable",
      "type": "function"
    },
    {
      "constant": false,
      "inputs": [
        {
          "internalType": "address",
          "name": "addr",
          "type": "address"
        }
      ],
      "name": "unlockAddress",
      "outputs": [],
      "payable": false,
      "stateMutability": "nonpayable",
      "type": "function"
    },
    {
      "constant": false,
      "inputs": [
        {
          "internalType": "uint256",
          "name": "id",
          "type": "uint256"
        }
      ],
      "name": "unlockToken",
      "outputs": [],
      "payable": false,
      "stateMutability": "nonpayable",
      "type": "function"
    },
    {
      "constant": false,
      "inputs": [
        {
          "internalType": "uint256",
          "name": "id",
          "type": "uint256"
        },
        {
          "internalType": "uint256",
          "name": "metadataHash",
          "type": "uint256"
        }
      ],
      "name": "updateMetadataHash",
      "outputs": [],
      "payable": false,
      "stateMutability": "nonpayable",
      "type": "function"
    },
    {
      "constant": false,
      "inputs": [
        {
          "internalType": "uint256",
          "name": "id",
          "type": "uint256"
        },
        {
          "internalType": "uint256",
          "name": "newCost",
          "type": "uint256"
        }
      ],
      "name": "updateStorageCost",
      "outputs": [],
      "payable": false,
      "stateMutability": "nonpayable",
      "type": "function"
    },
    {
      "constant": false,
      "inputs": [
        {
          "internalType": "uint256",
          "name": "newPrice",
          "type": "uint256"
        }
      ],
      "name": "updateStorageCreditPrice",
      "outputs": [],
      "payable": false,
      "stateMutability": "nonpayable",
      "type": "function"
    },
    {
      "constant": true,
      "inputs": [
        {
          "internalType": "uint256",
          "name": "id",
          "type": "uint256"
        }
      ],
      "name": "uri",
      "outputs": [
        {
          "internalType": "string",
          "name": "",
          "type": "string"
        }
      ],
      "payable": false,
      "stateMutability": "view",
      "type": "function"
    },
    {
      "constant": false,
      "inputs": [
        {
          "internalType": "address",
          "name": "to",
          "type": "address"
        },
        {
          "internalType": "uint256",
          "name": "amount",
          "type": "uint256"
        }
      ],
      "name": "withdraw",
      "outputs": [],
      "payable": false,
      "stateMutability": "nonpayable",
      "type": "function"
    }
  ],
  "bytecode": "0x60806040526103e8600655611f4060165562000021336200002760201b60201c565b620001f3565b600073ffffffffffffffffffffffffffffffffffffffff168173ffffffffffffffffffffffffffffffffffffffff1614156200009a576040517f08c379a00000000000000000000000000000000000000000000000000000000081526004016200009190620001c0565b60405180910390fd5b8073ffffffffffffffffffffffffffffffffffffffff166000809054906101000a900473ffffffffffffffffffffffffffffffffffffffff1673ffffffffffffffffffffffffffffffffffffffff167f8be0079c531659141344cd1fd0a4f28419497f9722a3daafe3b4186f6b6457e060405160405180910390a3806000806101000a81548173ffffffffffffffffffffffffffffffffffffffff021916908373ffffffffffffffffffffffffffffffffffffffff16021790555050565b600062000167602683620001e2565b91507f4f776e61626c653a206e6577206f776e657220697320746865207a65726f206160008301527f64647265737300000000000000000000000000000000000000000000000000006020830152604082019050919050565b60006020820190508181036000830152620001db8162000158565b9050919050565b600082825260208201905092915050565b615c0780620002036000396000f3fe6080604052600436106101ed5760003560e01c8063b7eb5e0a1161010d578063dbddb26a116100a0578063f242432a1161006f578063f242432a1461077d578063f2fde38b14610799578063f38320ce146107c2578063f3fef3a3146107eb578063f8c89fd014610814576101ed565b8063dbddb26a146106af578063dd2e0ac0146106da578063e1c95f8a14610703578063e985e9c514610740576101ed565b8063c4be3c3c116100dc578063c4be3c3c146105cf578063cba54e601461060c578063cf6c97ca14610649578063d6bc594214610672576101ed565b8063b7eb5e0a146104ef578063bba75c8314610518578063bd85b03914610555578063c02f303c14610592576101ed565b80637627b732116101855780638da5cb5b116101545780638da5cb5b14610435578063939cd64114610460578063a22cb46514610489578063b5690ac1146104b2576101ed565b80637627b7321461039157806380f20363146103ba5780638495b141146103e35780638870147b1461040c576101ed565b80632eb2c2d6116101c15780632eb2c2d6146102e657806334a90d02146103025780634e1273f41461032b5780636b62becb14610368576101ed565b8062fdd58e146101f257806301ffc9a71461022f5780630e89341c1461026c578063219cc8bc146102a9575b600080fd5b3480156101fe57600080fd5b50610219600480360361021491908101906144df565b61083d565b604051610226919061592f565b60405180910390f35b34801561023b57600080fd5b50610256600480360361025191908101906146c1565b610907565b6040516102639190615570565b60405180910390f35b34801561027857600080fd5b50610293600480360361028e9190810190614713565b6109b8565b6040516102a091906155ad565b60405180910390f35b3480156102b557600080fd5b506102d060048036036102cb9190810190614713565b610a08565b6040516102dd919061592f565b60405180910390f35b61030060048036036102fb91908101906142bc565b610a25565b005b34801561030e57600080fd5b5061032960048036036103249190810190614257565b610dd2565b005b34801561033757600080fd5b50610352600480360361034d9190810190614655565b610e74565b60405161035f919061554e565b60405180910390f35b34801561037457600080fd5b5061038f600480360361038a919081019061473c565b611026565b005b34801561039d57600080fd5b506103b860048036036103b39190810190614257565b61107c565b005b3480156103c657600080fd5b506103e160048036036103dc9190810190614713565b61111e565b005b3480156103ef57600080fd5b5061040a60048036036104059190810190614713565b611193565b005b34801561041857600080fd5b50610433600480360361042e9190810190614257565b611233565b005b34801561044157600080fd5b5061044a6112d5565b6040516104579190615436565b60405180910390f35b34801561046c57600080fd5b506104876004803603610482919081019061473c565b6112fe565b005b34801561049557600080fd5b506104b060048036036104ab91908101906144a3565b6113fd565b005b3480156104be57600080fd5b506104d960048036036104d49190810190614713565b611569565b6040516104e691906155ad565b60405180910390f35b3480156104fb57600080fd5b5061051660048036036105119190810190614257565b6116e9565b005b34801561052457600080fd5b5061053f600480360361053a9190810190614713565b61178b565b60405161054c9190615570565b60405180910390f35b34801561056157600080fd5b5061057c60048036036105779190810190614713565b61179d565b604051610589919061592f565b60405180910390f35b34801561059e57600080fd5b506105b960048036036105b49190810190614257565b6117ba565b6040516105c69190615570565b60405180910390f35b3480156105db57600080fd5b506105f660048036036105f1919081019061451b565b6117cc565b604051610603919061592f565b60405180910390f35b34801561061857600080fd5b50610633600480360361062e9190810190614257565b6117e2565b6040516106409190615570565b60405180910390f35b34801561065557600080fd5b50610670600480360361066b919081019061456a565b6117f4565b005b34801561067e57600080fd5b5061069960048036036106949190810190614257565b6118da565b6040516106a691906155ad565b60405180910390f35b3480156106bb57600080fd5b506106c4611ad6565b6040516106d1919061558b565b60405180910390f35b3480156106e657600080fd5b5061070160048036036106fc9190810190614713565b611b0f565b005b34801561070f57600080fd5b5061072a600480360361072591908101906144df565b611b85565b604051610737919061592f565b60405180910390f35b34801561074c57600080fd5b5061076760048036036107629190810190614280565b611caf565b6040516107749190615570565b60405180910390f35b61079760048036036107929190810190614388565b611d43565b005b3480156107a557600080fd5b506107c060048036036107bb9190810190614257565b611fdf565b005b3480156107ce57600080fd5b506107e960048036036107e4919081019061441a565b612032565b005b3480156107f757600080fd5b50610812600480360361080d91908101906144df565b6121ae565b005b34801561082057600080fd5b5061083b60048036036108369190810190614778565b61233a565b005b60008073ffffffffffffffffffffffffffffffffffffffff168373ffffffffffffffffffffffffffffffffffffffff1614156108ae576040517f08c379a00000000000000000000000000000000000000000000000000000000081526004016108a59061560f565b60405180910390fd5b6003600083815260200190815260200160002060008473ffffffffffffffffffffffffffffffffffffffff1673ffffffffffffffffffffffffffffffffffffffff16815260200190815260200160002054905092915050565b60006301ffc9a760e01b7bffffffffffffffffffffffffffffffffffffffffffffffffffffffff1916827bffffffffffffffffffffffffffffffffffffffffffffffffffffffff191614806109a0575063d9b67a2660e01b7bffffffffffffffffffffffffffffffffffffffffffffffffffffffff1916827bffffffffffffffffffffffffffffffffffffffffffffffffffffffff1916145b156109ae57600190506109b3565b600090505b919050565b6060610a016040518060400160405280601d81526020017f68747470733a2f2f7374617368626c6f782e636f6d2f746f6b656e732f0000008152506109fc846123c4565b6124b3565b9050919050565b6000600e6000838152602001908152602001600020549050919050565b838390508686905014610a6d576040517f08c379a0000000000000000000000000000000000000000000000000000000008152600401610a649061582f565b60405180910390fd5b600073ffffffffffffffffffffffffffffffffffffffff168773ffffffffffffffffffffffffffffffffffffffff161415610add576040517f08c379a0000000000000000000000000000000000000000000000000000000008152600401610ad49061564f565b60405180910390fd5b3373ffffffffffffffffffffffffffffffffffffffff168873ffffffffffffffffffffffffffffffffffffffff161480610b24575060011515610b208933611caf565b1515145b610b63576040517f08c379a0000000000000000000000000000000000000000000000000000000008152600401610b5a9061580f565b60405180910390fd5b600034905060008090505b87879050811015610bb957610baa8a8a8a8a85818110610b8a57fe5b90506020020135898986818110610b9d57fe5b90506020020135866125fe565b82039150806001019050610b6e565b508773ffffffffffffffffffffffffffffffffffffffff168973ffffffffffffffffffffffffffffffffffffffff163373ffffffffffffffffffffffffffffffffffffffff167f4a39dc06d4c0dbc64b70af90fd698a233a518aa5d07e595d983b8c0526c8f7fb8a8a8a8a604051610c349493929190615513565b60405180910390a4610d10338a8a8a8a80806020026020016040519081016040528093929190818152602001838360200280828437600081840152601f19601f82011690508083019250505050505050898980806020026020016040519081016040528093929190818152602001838360200280828437600081840152601f19601f8201169050808301925050505050505088888080601f016020809104026020016040519081016040528093929190818152602001838380828437600081840152601f19601f82011690508083019250505050505050612ce1565b6000811115610dc75760003373ffffffffffffffffffffffffffffffffffffffff1682604051610d3f90615421565b60006040518083038185875af1925050503d8060008114610d7c576040519150601f19603f3d011682016040523d82523d6000602084013e610d81565b606091505b5050905080610dc5576040517f08c379a0000000000000000000000000000000000000000000000000000000008152600401610dbc9061586f565b60405180910390fd5b505b505050505050505050565b610dda612e40565b610e19576040517f08c379a0000000000000000000000000000000000000000000000000000000008152600401610e10906157af565b60405180910390fd5b6001600260008373ffffffffffffffffffffffffffffffffffffffff1673ffffffffffffffffffffffffffffffffffffffff16815260200190815260200160002060006101000a81548160ff02191690831515021790555050565b60608151835114610eba576040517f08c379a0000000000000000000000000000000000000000000000000000000008152600401610eb1906156ef565b60405180910390fd5b60608351604051908082528060200260200182016040528015610eec5781602001602082028038833980820191505090505b50905060008090505b845181101561101b57600073ffffffffffffffffffffffffffffffffffffffff16858281518110610f2257fe5b602002602001015173ffffffffffffffffffffffffffffffffffffffff161415610f81576040517f08c379a0000000000000000000000000000000000000000000000000000000008152600401610f789061574f565b60405180910390fd5b60036000858381518110610f9157fe5b602002602001015181526020019081526020016000206000868381518110610fb557fe5b602002602001015173ffffffffffffffffffffffffffffffffffffffff1673ffffffffffffffffffffffffffffffffffffffff1681526020019081526020016000205482828151811061100457fe5b602002602001018181525050806001019050610ef5565b508091505092915050565b61102f33612e97565b61106e576040517f08c379a0000000000000000000000000000000000000000000000000000000008152600401611065906156cf565b60405180910390fd5b6110788282612efc565b5050565b611084612e40565b6110c3576040517f08c379a00000000000000000000000000000000000000000000000000000000081526004016110ba906157af565b60405180910390fd5b6001601060008373ffffffffffffffffffffffffffffffffffffffff1673ffffffffffffffffffffffffffffffffffffffff16815260200190815260200160002060006101000a81548160ff02191690831515021790555050565b611126612e40565b611165576040517f08c379a000000000000000000000000000000000000000000000000000000000815260040161115c906157af565b60405180910390fd5b600180600083815260200190815260200160002060006101000a81548160ff02191690831515021790555050565b61119c33612e97565b6111db576040517f08c379a00000000000000000000000000000000000000000000000000000000081526004016111d2906156cf565b60405180910390fd5b806006819055503373ffffffffffffffffffffffffffffffffffffffff167f5c5a35dc0829d2f6a31d1d6da57c4315ba7b562ee447c87b75c732cfd96abde982604051611228919061592f565b60405180910390a250565b61123b612e40565b61127a576040517f08c379a0000000000000000000000000000000000000000000000000000000008152600401611271906157af565b60405180910390fd5b6000601060008373ffffffffffffffffffffffffffffffffffffffff1673ffffffffffffffffffffffffffffffffffffffff16815260200190815260200160002060006101000a81548160ff02191690831515021790555050565b60008060009054906101000a900473ffffffffffffffffffffffffffffffffffffffff16905090565b61130733612e97565b611346576040517f08c379a000000000000000000000000000000000000000000000000000000000815260040161133d906156cf565b60405180910390fd5b60056000838152602001908152602001600020604051806040016040528042815260200183815250908060018154018082558091505090600182039060005260206000209060020201600090919290919091509060026113a7929190613d9e565b50503373ffffffffffffffffffffffffffffffffffffffff167f4bd9446604f43017ac3918d8db419b59a3b6f2a6cdd456eed5de99621bb6276583836040516113f192919061594a565b60405180910390a25050565b8173ffffffffffffffffffffffffffffffffffffffff163373ffffffffffffffffffffffffffffffffffffffff16141561146c576040517f08c379a00000000000000000000000000000000000000000000000000000000081526004016114639061568f565b60405180910390fd5b80600d60003373ffffffffffffffffffffffffffffffffffffffff1673ffffffffffffffffffffffffffffffffffffffff16815260200190815260200160002060008473ffffffffffffffffffffffffffffffffffffffff1673ffffffffffffffffffffffffffffffffffffffff16815260200190815260200160002060006101000a81548160ff0219169083151502179055508173ffffffffffffffffffffffffffffffffffffffff163373ffffffffffffffffffffffffffffffffffffffff167f17307eab39ab6107e8899845ad3d59bd9653f200f220920489ca2b5937696c318360405161155d9190615570565b60405180910390a35050565b606060008090505b600b6000848152602001908152602001600020805490508110156116e0576000600b600085815260200190815260200160002082815481106115af57fe5b9060005260206000200160009054906101000a900473ffffffffffffffffffffffffffffffffffffffff16905060006003600086815260200190815260200160002060008373ffffffffffffffffffffffffffffffffffffffff1673ffffffffffffffffffffffffffffffffffffffff1681526020019081526020016000205411156116d2576000835111156116af5761167e836040518060400160405280600181526020017f20000000000000000000000000000000000000000000000000000000000000008152506124b3565b92506116a8836116a38373ffffffffffffffffffffffffffffffffffffffff166123c4565b6124b3565b92506116d1565b6116ce8173ffffffffffffffffffffffffffffffffffffffff166123c4565b92505b5b508080600101915050611571565b50809050919050565b6116f1612e40565b611730576040517f08c379a0000000000000000000000000000000000000000000000000000000008152600401611727906157af565b60405180910390fd5b6000600260008373ffffffffffffffffffffffffffffffffffffffff1673ffffffffffffffffffffffffffffffffffffffff16815260200190815260200160002060006101000a81548160ff02191690831515021790555050565b600061179682612f46565b9050919050565b6000600f6000838152602001908152602001600020549050919050565b60006117c582612e97565b9050919050565b60006117d9848484612f70565b90509392505050565b60006117ed826131c1565b9050919050565b6117fd33612e97565b61183c576040517f08c379a0000000000000000000000000000000000000000000000000000000008152600401611833906156cf565b60405180910390fd5b6118ce8a8a8a8a8a8a8a8a80806020026020016040519081016040528093929190818152602001838360200280828437600081840152601f19601f82011690508083019250505050505050898980806020026020016040519081016040528093929190818152602001838360200280828437600081840152601f19601f82011690508083019250505050505050613217565b50505050505050505050565b6060600073ffffffffffffffffffffffffffffffffffffffff168273ffffffffffffffffffffffffffffffffffffffff16141561194c576040517f08c379a00000000000000000000000000000000000000000000000000000000081526004016119439061560f565b60405180910390fd5b60008090505b600a60008473ffffffffffffffffffffffffffffffffffffffff1673ffffffffffffffffffffffffffffffffffffffff16815260200190815260200160002080549050811015611acd576000600a60008573ffffffffffffffffffffffffffffffffffffffff1673ffffffffffffffffffffffffffffffffffffffff16815260200190815260200160002082815481106119e857fe5b9060005260206000200154905060006003600083815260200190815260200160002060008673ffffffffffffffffffffffffffffffffffffffff1673ffffffffffffffffffffffffffffffffffffffff168152602001908152602001600020541115611abf57600083511115611ab257611a97836040518060400160405280600181526020017f20000000000000000000000000000000000000000000000000000000000000008152506124b3565b9250611aab83611aa6836123c4565b6124b3565b9250611abe565b611abb816123c4565b92505b5b508080600101915050611952565b50809050919050565b6040518060400160405280601d81526020017f68747470733a2f2f7374617368626c6f782e636f6d2f746f6b656e732f00000081525081565b611b17612e40565b611b56576040517f08c379a0000000000000000000000000000000000000000000000000000000008152600401611b4d906157af565b60405180910390fd5b60006001600083815260200190815260200160002060006101000a81548160ff02191690831515021790555050565b60008073ffffffffffffffffffffffffffffffffffffffff168373ffffffffffffffffffffffffffffffffffffffff161415611bf6576040517f08c379a0000000000000000000000000000000000000000000000000000000008152600401611bed9061560f565b60405180910390fd5b60006003600084815260200190815260200160002060008573ffffffffffffffffffffffffffffffffffffffff1673ffffffffffffffffffffffffffffffffffffffff1681526020019081526020016000205414611ca4576004600083815260200190815260200160002060008473ffffffffffffffffffffffffffffffffffffffff1673ffffffffffffffffffffffffffffffffffffffff16815260200190815260200160002054611ca7565b60005b905092915050565b6000600d60008473ffffffffffffffffffffffffffffffffffffffff1673ffffffffffffffffffffffffffffffffffffffff16815260200190815260200160002060008373ffffffffffffffffffffffffffffffffffffffff1673ffffffffffffffffffffffffffffffffffffffff16815260200190815260200160002060009054906101000a900460ff16905092915050565b600073ffffffffffffffffffffffffffffffffffffffff168573ffffffffffffffffffffffffffffffffffffffff161415611db3576040517f08c379a0000000000000000000000000000000000000000000000000000000008152600401611daa9061564f565b60405180910390fd5b3373ffffffffffffffffffffffffffffffffffffffff168673ffffffffffffffffffffffffffffffffffffffff161480611dfa575060011515611df68733611caf565b1515145b611e39576040517f08c379a0000000000000000000000000000000000000000000000000000000008152600401611e309061580f565b60405180910390fd5b6000349050611e4b87878787856125fe565b810390508573ffffffffffffffffffffffffffffffffffffffff168773ffffffffffffffffffffffffffffffffffffffff163373ffffffffffffffffffffffffffffffffffffffff167fc3d58168c5ae7397731d063d5bbf3d657854427343f4c083240f7aacaa2d0f628888604051611ec592919061594a565b60405180910390a4611f1f338888888888888080601f016020809104026020016040519081016040528093929190818152602001838380828437600081840152601f19601f820116905080830192505050505050506137c8565b6000811115611fd65760003373ffffffffffffffffffffffffffffffffffffffff1682604051611f4e90615421565b60006040518083038185875af1925050503d8060008114611f8b576040519150601f19603f3d011682016040523d82523d6000602084013e611f90565b606091505b5050905080611fd4576040517f08c379a0000000000000000000000000000000000000000000000000000000008152600401611fcb9061586f565b60405180910390fd5b505b50505050505050565b611fe7612e40565b612026576040517f08c379a000000000000000000000000000000000000000000000000000000000815260040161201d906157af565b60405180910390fd5b61202f81613927565b50565b61203b33612e97565b61207a576040517f08c379a0000000000000000000000000000000000000000000000000000000008152600401612071906156cf565b60405180910390fd5b60008090505b848490508110156121a65761219b8686868481811061209b57fe5b905060200201356012548686868181106120b157fe5b90506020020135601354601654601480548060200260200160405190810160405280929190818152602001828054801561214057602002820191906000526020600020905b8160009054906101000a900473ffffffffffffffffffffffffffffffffffffffff1673ffffffffffffffffffffffffffffffffffffffff16815260200190600101908083116120f6575b5050505050601580548060200260200160405190810160405280929190818152602001828054801561219157602002820191906000526020600020905b81548152602001906001019080831161217d575b5050505050613217565b806001019050612080565b505050505050565b6121b6612e40565b6121f5576040517f08c379a00000000000000000000000000000000000000000000000000000000081526004016121ec906157af565b60405180910390fd5b80600960008473ffffffffffffffffffffffffffffffffffffffff1673ffffffffffffffffffffffffffffffffffffffff16815260200190815260200160002054106123365760008273ffffffffffffffffffffffffffffffffffffffff168260405161226190615421565b60006040518083038185875af1925050503d806000811461229e576040519150601f19603f3d011682016040523d82523d6000602084013e6122a3565b606091505b50509050806122e7576040517f08c379a00000000000000000000000000000000000000000000000000000000081526004016122de906155cf565b60405180910390fd5b81600960008573ffffffffffffffffffffffffffffffffffffffff1673ffffffffffffffffffffffffffffffffffffffff16815260200190815260200160002060008282540392505081905550505b5050565b61234333612e97565b612382576040517f08c379a0000000000000000000000000000000000000000000000000000000008152600401612379906156cf565b60405180910390fd5b8660128190555085601381905550846016819055508383601491906123a8929190613dde565b508181601591906123ba929190613e7e565b5050505050505050565b6060600080905060008390505b600081146123f3578180600101925050601081816123eb57fe5b0490506123d1565b6060826040519080825280601f01601f1916602001820160405280156124285781602001600182028038833980820191505090505b50905060008090505b838110156124a7576010868161244357fe5b06925061244f83613a55565b826001838703038151811061246057fe5b60200101907effffffffffffffffffffffffffffffffffffffffffffffffffffffffffffff1916908160001a9053506010868161249957fe5b049550806001019050612431565b50809350505050919050565b6060808390506060839050606081518351016040519080825280601f01601f1916602001820160405280156124f75781602001600182028038833980820191505090505b509050606081905060008090506000809050600090505b855181101561257c5785818151811061252357fe5b602001015160f81c60f81b83838060010194508151811061254057fe5b60200101907effffffffffffffffffffffffffffffffffffffffffffffffffffffffffffff1916908160001a905350808060010191505061250e565b600090505b84518110156125ef5784818151811061259657fe5b602001015160f81c60f81b8383806001019450815181106125b357fe5b60200101907effffffffffffffffffffffffffffffffffffffffffffffffffffffffffffff1916908160001a9053508080600101915050612581565b82965050505050505092915050565b600061260c86868686613afe565b1561264c576040517f08c379a0000000000000000000000000000000000000000000000000000000008152600401612643906155ef565b60405180910390fd5b612657868585612f70565b90508082101561269c576040517f08c379a00000000000000000000000000000000000000000000000000000000081526004016126939061590f565b60405180910390fd5b612719836040518060600160405280602a8152602001615b9b602a91396003600088815260200190815260200160002060008a73ffffffffffffffffffffffffffffffffffffffff1673ffffffffffffffffffffffffffffffffffffffff16815260200190815260200160002054613b3e9092919063ffffffff16565b6003600086815260200190815260200160002060008873ffffffffffffffffffffffffffffffffffffffff1673ffffffffffffffffffffffffffffffffffffffff1681526020019081526020016000208190555060006127d2846003600088815260200190815260200160002060008973ffffffffffffffffffffffffffffffffffffffff1673ffffffffffffffffffffffffffffffffffffffff16815260200190815260200160002054613b9990919063ffffffff16565b905060006003600087815260200190815260200160002060008873ffffffffffffffffffffffffffffffffffffffff1673ffffffffffffffffffffffffffffffffffffffff168152602001908152602001600020541415612a2657600c600086815260200190815260200160002060008773ffffffffffffffffffffffffffffffffffffffff1673ffffffffffffffffffffffffffffffffffffffff16815260200190815260200160002060009054906101000a900460ff166129cc57600a60008773ffffffffffffffffffffffffffffffffffffffff1673ffffffffffffffffffffffffffffffffffffffff168152602001908152602001600020859080600181540180825580915050906001820390600052602060002001600090919290919091505550600b60008681526020019081526020016000208690806001815401808255809150509060018203906000526020600020016000909192909190916101000a81548173ffffffffffffffffffffffffffffffffffffffff021916908373ffffffffffffffffffffffffffffffffffffffff16021790555050600c600086815260200190815260200160002060008773ffffffffffffffffffffffffffffffffffffffff1673ffffffffffffffffffffffffffffffffffffffff16815260200190815260200160002060009054906101000a9050505b426004600087815260200190815260200160002060008873ffffffffffffffffffffffffffffffffffffffff1673ffffffffffffffffffffffffffffffffffffffff16815260200190815260200160002081905550612b60565b6000612a8b6004600088815260200190815260200160002060008973ffffffffffffffffffffffffffffffffffffffff1673ffffffffffffffffffffffffffffffffffffffff1681526020019081526020016000205442613bee90919063ffffffff16565b90506000612b0483612af684600360008c815260200190815260200160002060008d73ffffffffffffffffffffffffffffffffffffffff1673ffffffffffffffffffffffffffffffffffffffff16815260200190815260200160002054613c3890919063ffffffff16565b613ca890919063ffffffff16565b90508042036004600089815260200190815260200160002060008a73ffffffffffffffffffffffffffffffffffffffff1673ffffffffffffffffffffffffffffffffffffffff1681526020019081526020016000208190555050505b806003600087815260200190815260200160002060008873ffffffffffffffffffffffffffffffffffffffff1673ffffffffffffffffffffffffffffffffffffffff1681526020019081526020016000208190555060008090505b6007600087815260200190815260200160002080549050811015612cd3576000600760008881526020019081526020016000208281548110612bf957fe5b9060005260206000200160009054906101000a900473ffffffffffffffffffffffffffffffffffffffff1690506000600860008981526020019081526020016000208381548110612c4657fe5b90600052602060002001549050612c7a612710612c6c8388613c3890919063ffffffff16565b613ca890919063ffffffff16565b600960008473ffffffffffffffffffffffffffffffffffffffff1673ffffffffffffffffffffffffffffffffffffffff168152602001908152602001600020600082825401925050819055505050806001019050612bbb565b508191505095945050505050565b612d008473ffffffffffffffffffffffffffffffffffffffff16613cf2565b15612e38578373ffffffffffffffffffffffffffffffffffffffff1663bc197c81905060e01b7bffffffffffffffffffffffffffffffffffffffffffffffffffffffff19168473ffffffffffffffffffffffffffffffffffffffff1663bc197c8188888787876040518663ffffffff1660e01b8152600401612d86959493929190615451565b602060405180830381600087803b158015612da057600080fd5b505af1158015612db4573d6000803e3d6000fd5b505050506040513d601f19601f82011682018060405250612dd891908101906146ea565b7bffffffffffffffffffffffffffffffffffffffffffffffffffffffff191614612e37576040517f08c379a0000000000000000000000000000000000000000000000000000000008152600401612e2e9061572f565b60405180910390fd5b5b505050505050565b60008060009054906101000a900473ffffffffffffffffffffffffffffffffffffffff1673ffffffffffffffffffffffffffffffffffffffff163373ffffffffffffffffffffffffffffffffffffffff1614905090565b6000601060008373ffffffffffffffffffffffffffffffffffffffff1673ffffffffffffffffffffffffffffffffffffffff16815260200190815260200160002060009054906101000a900460ff1680612ef55750612ef4612e40565b5b9050919050565b80600e60008481526020019081526020016000208190555080827f9cd9c60390fc75c213fd8d644749f61388dd30ed6c6eb4647b793b5b580fb43060405160405180910390a35050565b60006001600083815260200190815260200160002060009054906101000a900460ff169050919050565b60008073ffffffffffffffffffffffffffffffffffffffff168473ffffffffffffffffffffffffffffffffffffffff161415612fe1576040517f08c379a0000000000000000000000000000000000000000000000000000000008152600401612fd89061560f565b60405180910390fd5b600080905060004290506000600160056000888152602001908152602001600020805490500390505b600081106131b457600060056000888152602001908152602001600020828154811061303257fe5b906000526020600020906002020160006002811061304c57fe5b0154905060006305f5e100600654600560008b8152602001908152602001600020858154811061307857fe5b906000526020600020906002020160016002811061309257fe5b0154028161309c57fe5b049050600082600460008b815260200190815260200160002060008c73ffffffffffffffffffffffffffffffffffffffff1673ffffffffffffffffffffffffffffffffffffffff16815260200190815260200160002054106131785762015180600460008b815260200190815260200160002060008c73ffffffffffffffffffffffffffffffffffffffff1673ffffffffffffffffffffffffffffffffffffffff1681526020019081526020016000205486038161315657fe5b049050600081141561316757600190505b8782820202860195505050506131b4565b620151808386038161318657fe5b049050600081141561319757600190505b82945087828202028601955050505080806001900391505061300a565b5081925050509392505050565b6000600260008373ffffffffffffffffffffffffffffffffffffffff1673ffffffffffffffffffffffffffffffffffffffff16815260200190815260200160002060009054906101000a900460ff169050919050565b6000600f6000898152602001908152602001600020541461326d576040517f08c379a00000000000000000000000000000000000000000000000000000000081526004016132649061578f565b60405180910390fd5b600086116132b0576040517f08c379a00000000000000000000000000000000000000000000000000000000081526004016132a79061570f565b60405180910390fd5b600084116132f3576040517f08c379a00000000000000000000000000000000000000000000000000000000081526004016132ea906156af565b60405180910390fd5b60008311613336576040517f08c379a000000000000000000000000000000000000000000000000000000000815260040161332d906158ef565b60405180910390fd5b61271083111561337b576040517f08c379a00000000000000000000000000000000000000000000000000000000081526004016133729061584f565b60405180910390fd5b60008251116133bf576040517f08c379a00000000000000000000000000000000000000000000000000000000081526004016133b6906158af565b60405180910390fd5b8051825114613403576040517f08c379a00000000000000000000000000000000000000000000000000000000081526004016133fa9061588f565b60405180910390fd5b600080905060008090505b82518110156134905782818151811061342357fe5b602002602001015182019150600083828151811061343d57fe5b602002602001015111613485576040517f08c379a000000000000000000000000000000000000000000000000000000000815260040161347c906157cf565b60405180910390fd5b80600101905061340e565b5061271081146134d5576040517f08c379a00000000000000000000000000000000000000000000000000000000081526004016134cc906157ef565b60405180910390fd5b6001600c60008a815260200190815260200160002060008b73ffffffffffffffffffffffffffffffffffffffff1673ffffffffffffffffffffffffffffffffffffffff16815260200190815260200160002060006101000a81548160ff021916908315150217905550600a60008a73ffffffffffffffffffffffffffffffffffffffff1673ffffffffffffffffffffffffffffffffffffffff16815260200190815260200160002088908060018154018082558091505090600182039060005260206000200160009091929091909150555086600f60008a81526020019081526020016000208190555086600360008a815260200190815260200160002060008b73ffffffffffffffffffffffffffffffffffffffff1673ffffffffffffffffffffffffffffffffffffffff1681526020019081526020016000208190555061361e8887612efc565b42600460008a815260200190815260200160002060008b73ffffffffffffffffffffffffffffffffffffffff1673ffffffffffffffffffffffffffffffffffffffff1681526020019081526020016000208190555060056000898152602001908152602001600020604051806040016040528042815260200187815250908060018154018082558091505090600182039060005260206000209060020201600090919290919091509060026136d4929190613d9e565b505083601160008a81526020019081526020016000208190555082600760008a81526020019081526020016000209080519060200190613715929190613ecb565b5081600860008a8152602001908152602001600020908051906020019061373d929190613f55565b508873ffffffffffffffffffffffffffffffffffffffff16600073ffffffffffffffffffffffffffffffffffffffff163373ffffffffffffffffffffffffffffffffffffffff167fc3d58168c5ae7397731d063d5bbf3d657854427343f4c083240f7aacaa2d0f628b8b6040516137b592919061594a565b60405180910390a4505050505050505050565b6137e78473ffffffffffffffffffffffffffffffffffffffff16613cf2565b1561391f578373ffffffffffffffffffffffffffffffffffffffff1663f23a6e61905060e01b7bffffffffffffffffffffffffffffffffffffffffffffffffffffffff19168473ffffffffffffffffffffffffffffffffffffffff1663f23a6e6188888787876040518663ffffffff1660e01b815260040161386d9594939291906154b9565b602060405180830381600087803b15801561388757600080fd5b505af115801561389b573d6000803e3d6000fd5b505050506040513d601f19601f820116820180604052506138bf91908101906146ea565b7bffffffffffffffffffffffffffffffffffffffffffffffffffffffff19161461391e576040517f08c379a0000000000000000000000000000000000000000000000000000000008152600401613915906158cf565b60405180910390fd5b5b505050505050565b600073ffffffffffffffffffffffffffffffffffffffff168173ffffffffffffffffffffffffffffffffffffffff161415613997576040517f08c379a000000000000000000000000000000000000000000000000000000000815260040161398e9061562f565b60405180910390fd5b8073ffffffffffffffffffffffffffffffffffffffff166000809054906101000a900473ffffffffffffffffffffffffffffffffffffffff1673ffffffffffffffffffffffffffffffffffffffff167f8be0079c531659141344cd1fd0a4f28419497f9722a3daafe3b4186f6b6457e060405160405180910390a3806000806101000a81548173ffffffffffffffffffffffffffffffffffffffff021916908373ffffffffffffffffffffffffffffffffffffffff16021790555050565b60008160ff16600011158015613a6f575060098260ff1611155b15613aa457817f300000000000000000000000000000000000000000000000000000000000000060f81c0160f81b9050613af9565b8160ff16600a11158015613abc5750600f8260ff1611155b15613af457600a827f610000000000000000000000000000000000000000000000000000000000000060f81c010360f81b9050613af9565b600080fd5b919050565b6000613b0983612f46565b80613b195750613b18856131c1565b5b80613b295750613b28846131c1565b5b80613b345750600082145b9050949350505050565b6000838311158290613b86576040517f08c379a0000000000000000000000000000000000000000000000000000000008152600401613b7d91906155ad565b60405180910390fd5b5060008385039050809150509392505050565b600080828401905083811015613be4576040517f08c379a0000000000000000000000000000000000000000000000000000000008152600401613bdb9061566f565b60405180910390fd5b8091505092915050565b6000613c3083836040518060400160405280601e81526020017f536166654d6174683a207375627472616374696f6e206f766572666c6f770000815250613b3e565b905092915050565b600080831415613c4b5760009050613ca2565b6000828402905082848281613c5c57fe5b0414613c9d576040517f08c379a0000000000000000000000000000000000000000000000000000000008152600401613c949061576f565b60405180910390fd5b809150505b92915050565b6000613cea83836040518060400160405280601a81526020017f536166654d6174683a206469766973696f6e206279207a65726f000000000000815250613d3d565b905092915050565b60008060007fc5d2460186f7233c927e7db2dcc703c0e500b653ca82273b7bfad8045d85a47060001b9050833f91506000801b8214158015613d345750808214155b92505050919050565b60008083118290613d84576040517f08c379a0000000000000000000000000000000000000000000000000000000008152600401613d7b91906155ad565b60405180910390fd5b506000838581613d9057fe5b049050809150509392505050565b8260028101928215613dcd579160200282015b82811115613dcc578251825591602001919060010190613db1565b5b509050613dda9190613fa2565b5090565b828054828255906000526020600020908101928215613e6d579160200282015b82811115613e6c57823573ffffffffffffffffffffffffffffffffffffffff168260006101000a81548173ffffffffffffffffffffffffffffffffffffffff021916908373ffffffffffffffffffffffffffffffffffffffff16021790555091602001919060010190613dfe565b5b509050613e7a9190613fc7565b5090565b828054828255906000526020600020908101928215613eba579160200282015b82811115613eb9578235825591602001919060010190613e9e565b5b509050613ec79190613fa2565b5090565b828054828255906000526020600020908101928215613f44579160200282015b82811115613f435782518260006101000a81548173ffffffffffffffffffffffffffffffffffffffff021916908373ffffffffffffffffffffffffffffffffffffffff16021790555091602001919060010190613eeb565b5b509050613f519190613fc7565b5090565b828054828255906000526020600020908101928215613f91579160200282015b82811115613f90578251825591602001919060010190613f75565b5b509050613f9e9190613fa2565b5090565b613fc491905b80821115613fc0576000816000905550600101613fa8565b5090565b90565b61400791905b8082111561400357600081816101000a81549073ffffffffffffffffffffffffffffffffffffffff021916905550600101613fcd565b5090565b90565b60008135905061401981615b3e565b92915050565b60008083601f84011261403157600080fd5b8235905067ffffffffffffffff81111561404a57600080fd5b60208301915083602082028301111561406257600080fd5b9250929050565b600082601f83011261407a57600080fd5b813561408d614088826159a0565b615973565b915081818352602084019350602081019050838560208402820111156140b257600080fd5b60005b838110156140e257816140c8888261400a565b8452602084019350602083019250506001810190506140b5565b5050505092915050565b60008083601f8401126140fe57600080fd5b8235905067ffffffffffffffff81111561411757600080fd5b60208301915083602082028301111561412f57600080fd5b9250929050565b600082601f83011261414757600080fd5b813561415a614155826159c8565b615973565b9150818183526020840193506020810190508385602084028201111561417f57600080fd5b60005b838110156141af57816141958882614242565b845260208401935060208301925050600181019050614182565b5050505092915050565b6000813590506141c881615b55565b92915050565b6000813590506141dd81615b6c565b92915050565b6000815190506141f281615b6c565b92915050565b60008083601f84011261420a57600080fd5b8235905067ffffffffffffffff81111561422357600080fd5b60208301915083600182028301111561423b57600080fd5b9250929050565b60008135905061425181615b83565b92915050565b60006020828403121561426957600080fd5b60006142778482850161400a565b91505092915050565b6000806040838503121561429357600080fd5b60006142a18582860161400a565b92505060206142b28582860161400a565b9150509250929050565b60008060008060008060008060a0898b0312156142d857600080fd5b60006142e68b828c0161400a565b98505060206142f78b828c0161400a565b975050604089013567ffffffffffffffff81111561431457600080fd5b6143208b828c016140ec565b9650965050606089013567ffffffffffffffff81111561433f57600080fd5b61434b8b828c016140ec565b9450945050608089013567ffffffffffffffff81111561436a57600080fd5b6143768b828c016141f8565b92509250509295985092959890939650565b60008060008060008060a087890312156143a157600080fd5b60006143af89828a0161400a565b96505060206143c089828a0161400a565b95505060406143d189828a01614242565b94505060606143e289828a01614242565b935050608087013567ffffffffffffffff8111156143ff57600080fd5b61440b89828a016141f8565b92509250509295509295509295565b60008060008060006060868803121561443257600080fd5b60006144408882890161400a565b955050602086013567ffffffffffffffff81111561445d57600080fd5b614469888289016140ec565b9450945050604086013567ffffffffffffffff81111561448857600080fd5b614494888289016140ec565b92509250509295509295909350565b600080604083850312156144b657600080fd5b60006144c48582860161400a565b92505060206144d5858286016141b9565b9150509250929050565b600080604083850312156144f257600080fd5b60006145008582860161400a565b925050602061451185828601614242565b9150509250929050565b60008060006060848603121561453057600080fd5b600061453e8682870161400a565b935050602061454f86828701614242565b925050604061456086828701614242565b9150509250925092565b6000806000806000806000806000806101008b8d03121561458a57600080fd5b60006145988d828e0161400a565b9a505060206145a98d828e01614242565b99505060406145ba8d828e01614242565b98505060606145cb8d828e01614242565b97505060806145dc8d828e01614242565b96505060a06145ed8d828e01614242565b95505060c08b013567ffffffffffffffff81111561460a57600080fd5b6146168d828e0161401f565b945094505060e08b013567ffffffffffffffff81111561463557600080fd5b6146418d828e016140ec565b92509250509295989b9194979a5092959850565b6000806040838503121561466857600080fd5b600083013567ffffffffffffffff81111561468257600080fd5b61468e85828601614069565b925050602083013567ffffffffffffffff8111156146ab57600080fd5b6146b785828601614136565b9150509250929050565b6000602082840312156146d357600080fd5b60006146e1848285016141ce565b91505092915050565b6000602082840312156146fc57600080fd5b600061470a848285016141e3565b91505092915050565b60006020828403121561472557600080fd5b600061473384828501614242565b91505092915050565b6000806040838503121561474f57600080fd5b600061475d85828601614242565b925050602061476e85828601614242565b9150509250929050565b600080600080600080600060a0888a03121561479357600080fd5b60006147a18a828b01614242565b97505060206147b28a828b01614242565b96505060406147c38a828b01614242565b955050606088013567ffffffffffffffff8111156147e057600080fd5b6147ec8a828b0161401f565b9450945050608088013567ffffffffffffffff81111561480b57600080fd5b6148178a828b016140ec565b925092505092959891949750929550565b60006148348383615403565b60208301905092915050565b61484981615a77565b82525050565b600061485b8385615a39565b93507f07ffffffffffffffffffffffffffffffffffffffffffffffffffffffffffffff83111561488a57600080fd5b60208302925061489b838584615aeb565b82840190509392505050565b60006148b282615a00565b6148bc8185615a39565b93506148c7836159f0565b8060005b838110156148f85781516148df8882614828565b97506148ea83615a2c565b9250506001810190506148cb565b5085935050505092915050565b61490e81615a89565b82525050565b600061491f82615a0b565b6149298185615a4a565b9350614939818560208601615afa565b61494281615b2d565b840191505092915050565b600061495882615a21565b6149628185615a66565b9350614972818560208601615afa565b61497b81615b2d565b840191505092915050565b600061499182615a16565b61499b8185615a66565b93506149ab818560208601615afa565b6149b481615b2d565b840191505092915050565b60006149cc601d83615a66565b91507f5374617368426c6f783a205769746864726177616c206661696c65642e0000006000830152602082019050919050565b6000614a0c600683615a66565b91507f4c6f636b656400000000000000000000000000000000000000000000000000006000830152602082019050919050565b6000614a4c602b83615a66565b91507f455243313135353a2062616c616e636520717565727920666f7220746865207a60008301527f65726f20616464726573730000000000000000000000000000000000000000006020830152604082019050919050565b6000614ab2602683615a66565b91507f4f776e61626c653a206e6577206f776e657220697320746865207a65726f206160008301527f64647265737300000000000000000000000000000000000000000000000000006020830152604082019050919050565b6000614b18602883615a66565b91507f455243313135353a207461726765742061646472657373206d7573742062652060008301527f6e6f6e2d7a65726f0000000000000000000000000000000000000000000000006020830152604082019050919050565b6000614b7e601b83615a66565b91507f536166654d6174683a206164646974696f6e206f766572666c6f7700000000006000830152602082019050919050565b6000614bbe602c83615a66565b91507f455243313135353a2063616e6e6f742073657420617070726f76616c2073746160008301527f74757320666f722073656c6600000000000000000000000000000000000000006020830152604082019050919050565b6000614c24603583615a66565b91507f5374617368426c6f783a2073746f72616765437265646974436f73742073686f60008301527f756c642062652067726561746572207468616e203000000000000000000000006020830152604082019050919050565b6000614c8a602383615a66565b91507f4d696e7461626c653a2063616c6c6572206973206e6f74206120746f6b656e6960008301527f7a657200000000000000000000000000000000000000000000000000000000006020830152604082019050919050565b6000614cf0603083615a66565b91507f455243313135353a206163636f756e747320616e6420494473206d757374206860008301527f6176652073616d65206c656e67746873000000000000000000000000000000006020830152604082019050919050565b6000614d56602a83615a66565b91507f5374617368426c6f783a20737570706c792073686f756c64206265206772656160008301527f746572207468616e2030000000000000000000000000000000000000000000006020830152604082019050919050565b6000614dbc603683615a66565b91507f455243313135353a20676f7420756e6b6e6f776e2076616c75652066726f6d2060008301527f6f6e4552433131353542617463685265636569766564000000000000000000006020830152604082019050919050565b6000614e22603483615a66565b91507f455243313135353a20736f6d65206164647265737320696e206261746368206260008301527f616c616e6365207175657279206973207a65726f0000000000000000000000006020830152604082019050919050565b6000614e88602183615a66565b91507f536166654d6174683a206d756c7469706c69636174696f6e206f766572666c6f60008301527f77000000000000000000000000000000000000000000000000000000000000006020830152604082019050919050565b6000614eee601f83615a66565b91507f5374617368426c6f783a20546f6b656e20616c7265616479206d696e746564006000830152602082019050919050565b6000614f2e602083615a66565b91507f4f776e61626c653a2063616c6c6572206973206e6f7420746865206f776e65726000830152602082019050919050565b6000614f6e603c83615a66565b91507f5374617368426c6f783a2066656573526563697069656e747350657263656e7460008301527f6167652073686f756c642062652067726561746572207468616e2030000000006020830152604082019050919050565b6000614fd4604383615a66565b91507f5374617368426c6f783a20546f74616c206f662066656573526563697069656e60008301527f747350657263656e74616765206d75737420626520657175616c20746f20313060208301527f30303000000000000000000000000000000000000000000000000000000000006040830152606082019050919050565b6000615060603783615a66565b91507f455243313135353a206e656564206f70657261746f7220617070726f76616c2060008301527f666f7220337264207061727479207472616e73666572730000000000000000006020830152604082019050919050565b60006150c6602e83615a66565b91507f455243313135353a2049447320616e642076616c756573206d7573742068617660008301527f652073616d65206c656e677468730000000000000000000000000000000000006020830152604082019050919050565b600061512c604483615a66565b91507f5374617368426c6f783a206d696e486f6c64696e67466f7243616c6c6261636b60008301527f2073686f756c64206265206c6f776572206f7220657175616c207468616e203160208301527f30303030000000000000000000000000000000000000000000000000000000006040830152606082019050919050565b60006151b8600083615a5b565b9150600082019050919050565b60006151d2601083615a66565b91507f5472616e73666572206661696c65642e000000000000000000000000000000006000830152602082019050919050565b6000615212603283615a66565b91507f5374617368426c6f783a20696e76616c69642066656573526563697069656e7460008301527f7350657263656e74616765206c656e67746800000000000000000000000000006020830152604082019050919050565b6000615278602b83615a66565b91507f5374617368426c6f783a206e656564206174206c65617374206f6e652066656560008301527f73526563697069656e74730000000000000000000000000000000000000000006020830152604082019050919050565b60006152de603183615a66565b91507f455243313135353a20676f7420756e6b6e6f776e2076616c75652066726f6d2060008301527f6f6e4552433131353552656365697665640000000000000000000000000000006020830152604082019050919050565b6000615344603983615a66565b91507f5374617368426c6f783a206d696e486f6c64696e67466f7243616c6c6261636b60008301527f2073686f756c642062652067726561746572207468616e2030000000000000006020830152604082019050919050565b60006153aa602b83615a66565b91507f455243313135353a20696e73756666696369656e742045544820666f7220747260008301527f616e7366657220666565730000000000000000000000000000000000000000006020830152604082019050919050565b61540c81615ae1565b82525050565b61541b81615ae1565b82525050565b600061542c826151ab565b9150819050919050565b600060208201905061544b6000830184614840565b92915050565b600060a0820190506154666000830188614840565b6154736020830187614840565b818103604083015261548581866148a7565b9050818103606083015261549981856148a7565b905081810360808301526154ad8184614914565b90509695505050505050565b600060a0820190506154ce6000830188614840565b6154db6020830187614840565b6154e86040830186615412565b6154f56060830185615412565b81810360808301526155078184614914565b90509695505050505050565b6000604082019050818103600083015261552e81868861484f565b9050818103602083015261554381848661484f565b905095945050505050565b6000602082019050818103600083015261556881846148a7565b905092915050565b60006020820190506155856000830184614905565b92915050565b600060208201905081810360008301526155a58184614986565b905092915050565b600060208201905081810360008301526155c7818461494d565b905092915050565b600060208201905081810360008301526155e8816149bf565b9050919050565b60006020820190508181036000830152615608816149ff565b9050919050565b6000602082019050818103600083015261562881614a3f565b9050919050565b6000602082019050818103600083015261564881614aa5565b9050919050565b6000602082019050818103600083015261566881614b0b565b9050919050565b6000602082019050818103600083015261568881614b71565b9050919050565b600060208201905081810360008301526156a881614bb1565b9050919050565b600060208201905081810360008301526156c881614c17565b9050919050565b600060208201905081810360008301526156e881614c7d565b9050919050565b6000602082019050818103600083015261570881614ce3565b9050919050565b6000602082019050818103600083015261572881614d49565b9050919050565b6000602082019050818103600083015261574881614daf565b9050919050565b6000602082019050818103600083015261576881614e15565b9050919050565b6000602082019050818103600083015261578881614e7b565b9050919050565b600060208201905081810360008301526157a881614ee1565b9050919050565b600060208201905081810360008301526157c881614f21565b9050919050565b600060208201905081810360008301526157e881614f61565b9050919050565b6000602082019050818103600083015261580881614fc7565b9050919050565b6000602082019050818103600083015261582881615053565b9050919050565b60006020820190508181036000830152615848816150b9565b9050919050565b600060208201905081810360008301526158688161511f565b9050919050565b60006020820190508181036000830152615888816151c5565b9050919050565b600060208201905081810360008301526158a881615205565b9050919050565b600060208201905081810360008301526158c88161526b565b9050919050565b600060208201905081810360008301526158e8816152d1565b9050919050565b6000602082019050818103600083015261590881615337565b9050919050565b600060208201905081810360008301526159288161539d565b9050919050565b60006020820190506159446000830184615412565b92915050565b600060408201905061595f6000830185615412565b61596c6020830184615412565b9392505050565b6000604051905081810181811067ffffffffffffffff8211171561599657600080fd5b8060405250919050565b600067ffffffffffffffff8211156159b757600080fd5b602082029050602081019050919050565b600067ffffffffffffffff8211156159df57600080fd5b602082029050602081019050919050565b6000819050602082019050919050565b600081519050919050565b600081519050919050565b600081519050919050565b600081519050919050565b6000602082019050919050565b600082825260208201905092915050565b600082825260208201905092915050565b600081905092915050565b600082825260208201905092915050565b6000615a8282615ac1565b9050919050565b60008115159050919050565b60007fffffffff0000000000000000000000000000000000000000000000000000000082169050919050565b600073ffffffffffffffffffffffffffffffffffffffff82169050919050565b6000819050919050565b82818337600083830152505050565b60005b83811015615b18578082015181840152602081019050615afd565b83811115615b27576000848401525b50505050565b6000601f19601f8301169050919050565b615b4781615a77565b8114615b5257600080fd5b50565b615b5e81615a89565b8114615b6957600080fd5b50565b615b7581615a95565b8114615b8057600080fd5b50565b615b8c81615ae1565b8114615b9757600080fd5b5056fe455243313135353a20696e73756666696369656e742062616c616e636520666f72207472616e73666572a365627a7a72315820a91e91114bacb5d4867deeb184b22b37d3f5f411849012231ddaa5f78732bde56c6578706572696d656e74616cf564736f6c634300050c0040",
  "source": "pragma solidity ^0.5.12;\npragma experimental ABIEncoderV2;\n\nimport './lib/ERC1155/ERC1155Mintable.sol';\n\ncontract StashBlox is ERC1155Mintable {\n\n}\n",
  "sourcePath": "/home/ouziel/Work/StashBloxContracts/contracts/StashBlox.sol",
  "compiler": {
    "name": "solc",
    "version": "0.5.12+commit.7709ece9.Emscripten.clang"
  },
  "schemaVersion": "3.2.3",
  "updatedAt": "2020-09-27T12:08:31.527Z",
  "devdoc": {
    "methods": {
      "balanceOf(address,uint256)": {
        "details": "Get the specified address' balance for token with specified ID. Attempting to query the zero account for a balance will result in a revert.",
        "params": {
          "account": "The address of the token holder",
          "id": "ID of the token"
        },
        "return": "The account's balance of the token type requested"
      },
      "balanceOfBatch(address[],uint256[])": {
        "details": "Get the balance of multiple account/token pairs. If any of the query accounts is the zero account, this query will revert.",
        "params": {
          "accounts": "The addresses of the token holders",
          "ids": "IDs of the tokens"
        },
        "return": "Balances for each account and token id pair"
      },
      "createToken(address,uint256,uint256,uint256,uint256,uint256,address[],uint256[])": {
        "details": "Function to mint an amount of a token with the given ID.",
        "params": {
          "feesRecipients": "list of addresses receiving transfer fees",
          "feesRecipientsPercentage": "list of percentage, each one for the corresponding feesRecipients",
          "id": "ID of the token to be minted",
          "metadataHash": "Metadata file hash",
          "minHoldingForCallback": "minimum holding to propose a callback",
          "recipient": "The address that will own the minted tokens",
          "storageCreditCost": "cost for 24h storage in storageCredit (x 10 ^ 8 for the precision)",
          "supply": "Amount of the token to be minted"
        }
      },
      "createTokens(address,uint256[],uint256[])": {
        "details": "Function to mint token in batch. Default value must be set with setCreateTokensDefaultValues.",
        "params": {
          "ids": "list of IDs of the tokens to be minted",
          "metadataHashes": "list of Metadata file hash",
          "recipient": "The address that will own the minted tokens"
        }
      },
      "isApprovedForAll(address,address)": {
        "params": {
          "account": "The account of the Tokens",
          "operator": "Address of authorized operator"
        },
        "return": "True if the operator is approved, false if not"
      },
      "owner()": {
        "details": "Returns the address of the current owner."
      },
      "safeBatchTransferFrom(address,address,uint256[],uint256[],bytes)": {
        "details": "Transfers `values` amount(s) of `ids` from the `from` address to the `to` address specified. Caller must be approved to manage the tokens being transferred out of the `from` account. If `to` is a smart contract, will call `onERC1155BatchReceived` on `to` and act appropriately.",
        "params": {
          "data": "Data forwarded to `onERC1155Received` if `to` is a contract receiver",
          "from": "Source address",
          "ids": "IDs of each token type",
          "to": "Target address",
          "values": "Transfer amounts per token type"
        }
      },
      "safeTransferFrom(address,address,uint256,uint256,bytes)": {
        "details": "Transfers `value` amount of an `id` from the `from` address to the `to` address specified. Caller must be approved to manage the tokens being transferred out of the `from` account. If `to` is a smart contract, will call `onERC1155Received` on `to` and act appropriately.",
        "params": {
          "data": "Data forwarded to `onERC1155Received` if `to` is a contract receiver",
          "from": "Source address",
          "id": "ID of the token type",
          "to": "Target address",
          "value": "Transfer amount"
        }
      },
      "setApprovalForAll(address,bool)": {
        "details": "Sets or unsets the approval of a given operator.     * An operator is allowed to transfer all tokens of the sender on their behalf.     * Because an account already has operator privileges for itself, this function will revert if the account attempts to set the approval status for itself.",
        "params": {
          "approved": "representing the status of the approval to be set",
          "operator": "address to set the approval"
        }
      },
      "setCreateTokensDefaultValues(uint256,uint256,uint256,address[],uint256[])": {
        "details": "Set default values for batch token creation.",
        "params": {
          "feesRecipients": "list of addresses receiving transfer fees",
          "feesRecipientsPercentage": "list of percentage, each one for the corresponding feesRecipients",
          "minHoldingForCallback": "minimum holding to propose a callback",
          "storageCreditCost": "cost for 24h storage in storageCredit (x 10 ^ 8 for the precision)",
          "supply": "Amount of the token to be minted"
        }
      },
      "supportsInterface(bytes4)": {
        "params": {
          "_interfaceID": "The interface identifier, as specified in ERC-165"
        },
        "return": "`true` if the contract implements `_interfaceID` and"
      },
      "totalSupply(uint256)": {
        "params": {
          "id": "Token ID"
        },
        "return": "Token supply"
      },
      "transferOwnership(address)": {
        "details": "Transfers ownership of the contract to a new account (`newOwner`). Can only be called by the current owner."
      },
      "uri(uint256)": {
        "params": {
          "id": "Token ID"
        },
        "return": "URI string"
      }
    }
  },
  "userdoc": {
    "methods": {
      "isApprovedForAll(address,address)": {
        "notice": "Queries the approval status of an operator for a given account."
      },
      "supportsInterface(bytes4)": {
        "notice": "Query if a contract implements an interface"
      }
    }
  }
}