{
  "contractName": "StashBloxBase",
  "abi": [
    {
      "anonymous": false,
      "inputs": [
        {
          "indexed": true,
          "internalType": "uint256",
          "name": "_id",
          "type": "uint256"
        },
        {
          "indexed": false,
          "internalType": "address",
          "name": "_proposer",
          "type": "address"
        },
        {
          "indexed": false,
          "internalType": "uint256",
          "name": "_price",
          "type": "uint256"
        }
      ],
      "name": "CallbackAccepted",
      "type": "event"
    },
    {
      "anonymous": false,
      "inputs": [
        {
          "indexed": true,
          "internalType": "uint256",
          "name": "_id",
          "type": "uint256"
        },
        {
          "indexed": false,
          "internalType": "address",
          "name": "_proposer",
          "type": "address"
        },
        {
          "indexed": false,
          "internalType": "uint256",
          "name": "_price",
          "type": "uint256"
        }
      ],
      "name": "CallbackProposed",
      "type": "event"
    },
    {
      "anonymous": false,
      "inputs": [
        {
          "indexed": true,
          "internalType": "uint256",
          "name": "_id",
          "type": "uint256"
        },
        {
          "indexed": false,
          "internalType": "address",
          "name": "_proposer",
          "type": "address"
        },
        {
          "indexed": false,
          "internalType": "uint256",
          "name": "_price",
          "type": "uint256"
        }
      ],
      "name": "CallbackRefused",
      "type": "event"
    },
    {
      "anonymous": false,
      "inputs": [
        {
          "indexed": true,
          "internalType": "address",
          "name": "previousOwner",
          "type": "address"
        },
        {
          "indexed": true,
          "internalType": "address",
          "name": "newOwner",
          "type": "address"
        }
      ],
      "name": "OwnershipTransferred",
      "type": "event"
    },
    {
      "anonymous": false,
      "inputs": [
        {
          "indexed": true,
          "internalType": "address",
          "name": "_tokenizer",
          "type": "address"
        },
        {
          "indexed": false,
          "internalType": "uint256",
          "name": "_id",
          "type": "uint256"
        },
        {
          "indexed": false,
          "internalType": "uint256",
          "name": "_cost",
          "type": "uint256"
        }
      ],
      "name": "UpdateStorageCost",
      "type": "event"
    },
    {
      "anonymous": false,
      "inputs": [
        {
          "indexed": true,
          "internalType": "address",
          "name": "_owner",
          "type": "address"
        },
        {
          "indexed": false,
          "internalType": "uint256",
          "name": "_price",
          "type": "uint256"
        }
      ],
      "name": "UpdateStorageCreditPrice",
      "type": "event"
    },
    {
      "inputs": [
        {
          "internalType": "address",
          "name": "",
          "type": "address"
        }
      ],
      "name": "_ETHBalances",
      "outputs": [
        {
          "internalType": "uint256",
          "name": "",
          "type": "uint256"
        }
      ],
      "stateMutability": "view",
      "type": "function"
    },
    {
      "inputs": [
        {
          "internalType": "uint256",
          "name": "",
          "type": "uint256"
        },
        {
          "internalType": "uint256",
          "name": "",
          "type": "uint256"
        }
      ],
      "name": "_addressesByToken",
      "outputs": [
        {
          "internalType": "address",
          "name": "",
          "type": "address"
        }
      ],
      "stateMutability": "view",
      "type": "function"
    },
    {
      "inputs": [
        {
          "internalType": "uint256",
          "name": "",
          "type": "uint256"
        },
        {
          "internalType": "address",
          "name": "",
          "type": "address"
        }
      ],
      "name": "_birthdays",
      "outputs": [
        {
          "internalType": "uint256",
          "name": "",
          "type": "uint256"
        }
      ],
      "stateMutability": "view",
      "type": "function"
    },
    {
      "inputs": [
        {
          "internalType": "address",
          "name": "",
          "type": "address"
        },
        {
          "internalType": "uint256",
          "name": "",
          "type": "uint256"
        }
      ],
      "name": "_tokensByAddress",
      "outputs": [
        {
          "internalType": "uint256",
          "name": "",
          "type": "uint256"
        }
      ],
      "stateMutability": "view",
      "type": "function"
    },
    {
      "inputs": [],
      "name": "owner",
      "outputs": [
        {
          "internalType": "address",
          "name": "",
          "type": "address"
        }
      ],
      "stateMutability": "view",
      "type": "function"
    },
    {
      "inputs": [
        {
          "internalType": "address",
          "name": "newOwner",
          "type": "address"
        }
      ],
      "name": "transferOwnership",
      "outputs": [],
      "stateMutability": "nonpayable",
      "type": "function"
    }
  ],
  "bytecode": "0x60806040526103e860055534801561001657600080fd5b5061002033610025565b6100df565b6001600160a01b038116610084576040517f08c379a00000000000000000000000000000000000000000000000000000000081526004018080602001828103825260268152602001806104676026913960400191505060405180910390fd5b600080546040516001600160a01b03808516939216917f8be0079c531659141344cd1fd0a4f28419497f9722a3daafe3b4186f6b6457e091a3600080546001600160a01b0319166001600160a01b0392909216919091179055565b610379806100ee6000396000f3fe608060405234801561001057600080fd5b50600436106100625760003560e01c8063119c0737146100675780636eb987c7146100a65780638da5cb5b146100e4578063d7b80ebc146100ec578063ea2bd64d14610112578063f2fde38b1461013e575b600080fd5b61008a6004803603604081101561007d57600080fd5b5080359060200135610166565b604080516001600160a01b039092168252519081900360200190f35b6100d2600480360360408110156100bc57600080fd5b506001600160a01b03813516906020013561019b565b60408051918252519081900360200190f35b61008a6101c9565b6100d26004803603602081101561010257600080fd5b50356001600160a01b03166101d8565b6100d26004803603604081101561012857600080fd5b50803590602001356001600160a01b03166101ea565b6101646004803603602081101561015457600080fd5b50356001600160a01b0316610207565b005b600a602052816000526040600020818154811061017f57fe5b6000918252602090912001546001600160a01b03169150829050565b600960205281600052604060002081815481106101b457fe5b90600052602060002001600091509150505481565b6000546001600160a01b031690565b60086020526000908152604090205481565b600360209081526000928352604080842090915290825290205481565b61020f61026c565b610260576040805162461bcd60e51b815260206004820181905260248201527f4f776e61626c653a2063616c6c6572206973206e6f7420746865206f776e6572604482015290519081900360640190fd5b6102698161027d565b50565b6000546001600160a01b0316331490565b6001600160a01b0381166102c25760405162461bcd60e51b815260040180806020018281038252602681526020018061031e6026913960400191505060405180910390fd5b600080546040516001600160a01b03808516939216917f8be0079c531659141344cd1fd0a4f28419497f9722a3daafe3b4186f6b6457e091a3600080546001600160a01b0319166001600160a01b039290921691909117905556fe4f776e61626c653a206e6577206f776e657220697320746865207a65726f2061646472657373a26469706673582212209b63700b4b1117f73ec2d66089c636d511896a03c6a8921b5e365464075dc13b64736f6c634300070100334f776e61626c653a206e6577206f776e657220697320746865207a65726f2061646472657373",
  "immutableReferences": {},
  "source": "// SPDX-License-Identifier: GPL-3.0-or-later\n\npragma solidity ^0.7.1;\n\nimport \"./lib/utils/SafeMath.sol\";\nimport \"./lib/ERC173/ERC173.sol\";\n\ncontract StashBloxBase is ERC173 {\n\n    using SafeMath for uint256;\n\n\n    /***************************************\n    GLOBAL VARIABLES\n    ****************************************/\n\n\n    // Mapping from token ID to account balances\n    mapping (uint256 => mapping(address => uint256)) _balances;\n    // Mapping from token ID to Supply\n    mapping (uint256 => uint256) internal _supplies;\n    // Mapping from token ID to account age\n    mapping (uint256 => mapping(address => uint256)) public _birthdays;\n    // Mapping from token ID to list of tuple [timestamp, price]\n    mapping (uint256 => uint256[2][]) internal _storageCostHistory;\n    // price of one storage credit in wei\n    uint256 storageCreditPrice = 1000;\n    // For each token a list of addresses receiving transfer fees\n    mapping (uint256 => address[]) internal _feesRecipients;\n    // For each token a list of percentage, each one for the corresponding _feesRecipients index\n    mapping (uint256 => uint256[]) internal _feesRecipientsPercentage;\n    // Balances ETH for fees recipients and callbacks\n    mapping (address => uint256) public _ETHBalances;\n    // For each address a list of token IDs. Can contains zero balance.\n    mapping (address => uint256[]) public _tokensByAddress;\n    // For each token a list of addresses. Can contains zero balance.\n    mapping (uint256 => address[]) public _addressesByToken;\n    // Initialize to true on the first token received, never come back to false.\n    mapping (uint256 => mapping(address => bool)) internal _isHolder;\n    // Mapping for locked tokens\n    mapping (uint256 => bool) internal _tokenLocks;\n    // Mapping for locked addresses\n    mapping (address => bool) internal _addressLocks;\n    // list of callback propositions\n    // _callbackPropositions[tokenID][proposer] = [priceForEachToken, ETHAmountEscrowed]\n    mapping (uint256 => mapping(address => uint256[2])) _callbackPropositions;\n    // list of addresses authorized to create a token\n    mapping (address => bool) _authorizedTokenizers;\n    // Minimum holding to propose a callback for each token\n    mapping (uint256 => uint256) _minHoldingForCallback;\n\n\n    /***************************************\n    EVENTS\n    ****************************************/\n\n\n    // Callback events\n    event CallbackProposed(uint256 indexed _id, address _proposer, uint256 _price);\n    event CallbackRefused(uint256 indexed _id, address _proposer, uint256 _price);\n    event CallbackAccepted(uint256 indexed _id, address _proposer, uint256 _price);\n\n    // Update storage prices events\n    event UpdateStorageCost(address indexed _tokenizer, uint256 _id, uint256 _cost);\n    event UpdateStorageCreditPrice(address indexed _owner, uint256 _price);\n\n\n    /***************************************\n    MODIFIERS\n    ****************************************/\n\n\n    modifier onlyTokenizer() {\n        require(_isTokenizer(msg.sender), \"Mintable: caller is not a tokenizer\");\n        _;\n    }\n\n\n    /***************************************\n    INTERNAL FUNCTIONS\n    ****************************************/\n\n\n    function _isTokenizer(address tokenizer) internal view returns (bool) {\n        return _authorizedTokenizers[tokenizer] || _isOwner();\n    }\n\n    function _isLockedToken(uint256 id) internal view returns (bool) {\n        return _tokenLocks[id];\n    }\n\n    function _isLockedAddress(address addr) internal view returns (bool) {\n        return _addressLocks[addr];\n    }\n\n    function _isLockedMove(address from, address to, uint256 id, uint256 value) internal view returns (bool) {\n        return _isLockedToken(id) || _isLockedAddress(from) || _isLockedAddress(to) || (value == 0);\n    }\n\n    function _setNewBalance(address recipient, uint256 id, uint256 value) internal {\n        if (_balances[id][recipient] == 0) {\n\n            if (!_isHolder[id][recipient]) {\n\n                _tokensByAddress[recipient].push(id);\n                _addressesByToken[id].push(recipient);\n                _isHolder[id][recipient];\n            }\n\n            _birthdays[id][recipient] = block.timestamp;\n\n        } else {\n\n            // calculate the average birthday of the received and hold tokens\n            uint256 oldTokensAge = block.timestamp.sub(_birthdays[id][recipient]);\n            uint256 newTokenAge = (_balances[id][recipient].mul(oldTokensAge)).div(value);\n\n            _birthdays[id][recipient] = block.timestamp - newTokenAge;\n        }\n\n        _balances[id][recipient] = value;\n    }\n\n    // Used by ERC1155.sol in tranfers functions\n    function _moveTokens(address from, address to, uint256 id, uint256 value, uint256 feesBalance) internal returns (uint256 fees) {\n        require(!_isLockedMove(from, to, id, value), \"Locked\");\n\n        fees = _storageFees(from, id, value);\n        require(feesBalance >= fees, \"ERC1155: insufficient ETH for transfer fees\");\n\n        _balances[id][from] = _balances[id][from].sub(value, \"ERC1155: insufficient balance for transfer\");\n\n        uint256 newBalanceTo = _balances[id][to].add(value);\n\n        _setNewBalance(to, id, newBalanceTo);\n\n        for (uint256 i = 0; i < _feesRecipients[id].length; ++i) {\n            address feesRecipient = _feesRecipients[id][i];\n            uint256 feesRecipientsPercentage = _feesRecipientsPercentage[id][i];\n            _ETHBalances[feesRecipient] += (fees.mul(feesRecipientsPercentage)).div(10000);\n        }\n\n        return fees;\n    }\n\n    // Calculate transaction fees\n    function _storageFees(address account, uint256 id, uint256 value) internal view returns (uint256) {\n        require(account != address(0), \"ERC1155: balance query for the zero address\");\n\n        uint256 totalCost = 0;\n        uint256 timeCursor = block.timestamp;\n\n        for (uint i = _storageCostHistory[id].length - 1; i >= 0; i--) {\n\n            uint256 costStartAt = _storageCostHistory[id][i][0];\n            uint256 cost = (_storageCostHistory[id][i][1] * storageCreditPrice) / 10**8;\n            uint256 storageDays;\n\n            if (_birthdays[id][account] >= costStartAt) {\n                storageDays = (timeCursor - _birthdays[id][account]) / 86400;\n                if (storageDays == 0) storageDays = 1;\n                totalCost += storageDays * cost * value;\n                break;\n            } else {\n                storageDays = (timeCursor - costStartAt) / 86400;\n                if (storageDays == 0) storageDays = 1;\n                timeCursor = costStartAt;\n                totalCost += storageDays * cost * value;\n            }\n        }\n        return totalCost;\n    }\n\n    function _updateStorageCost(uint256 id, uint256 newCost) internal {\n        _storageCostHistory[id].push([block.timestamp, newCost]);\n        emit UpdateStorageCost(msg.sender, id, newCost);\n    }\n\n    function _updateMinHoldingForCallback(uint256 id, uint256 newMinHoldingForCallback) internal {\n        require(newMinHoldingForCallback < 10000, \"StashBlox: minimum holding must be lower than 10000 (100%)\");\n        _minHoldingForCallback[id] = newMinHoldingForCallback;\n    }\n\n    function _updateFeesRecipients(uint256 id,\n                                   address[] memory newFeesRecipients,\n                                   uint256[] memory newFeesRecipientsPercentage)\n    internal {\n        require(newFeesRecipients.length > 0 &&\n                newFeesRecipients.length == newFeesRecipientsPercentage.length, \"StashBlox: Invalid arguments\");\n\n        uint256 totalPercentage = 0;\n        for (uint256 i = 0; i < newFeesRecipientsPercentage.length; ++i) {\n            totalPercentage += newFeesRecipientsPercentage[i];\n            require(newFeesRecipientsPercentage[i] > 0, \"StashBlox: feesRecipientsPercentage should be greater than 0\");\n        }\n        require(totalPercentage == 10000, \"StashBlox: Total of feesRecipientsPercentage must be equal to 10000\");\n\n        _feesRecipients[id] = newFeesRecipients;\n        _feesRecipientsPercentage[id] = newFeesRecipientsPercentage;\n    }\n\n}\n",
  "sourcePath": "/home/ouziel/Work/StashBloxContracts/contracts/StashBloxBase.sol",
  "compiler": {
    "name": "solc",
    "version": "0.7.1+commit.f4a555be.Emscripten.clang"
  },
  "schemaVersion": "3.2.3",
  "updatedAt": "2020-10-02T21:50:09.668Z",
  "devdoc": {
    "kind": "dev",
    "methods": {
      "owner()": {
        "details": "Returns the address of the current owner."
      },
      "transferOwnership(address)": {
        "details": "Transfers ownership of the contract to a new account (`newOwner`). Can only be called by the current owner."
      }
    },
    "version": 1
  },
  "userdoc": {
    "kind": "user",
    "methods": {},
    "version": 1
  }
}