{
  "contractName": "StashBlox",
  "abi": [
    {
      "anonymous": false,
      "inputs": [
        {
          "indexed": true,
          "internalType": "address",
          "name": "_owner",
          "type": "address"
        },
        {
          "indexed": true,
          "internalType": "address",
          "name": "_operator",
          "type": "address"
        },
        {
          "indexed": false,
          "internalType": "bool",
          "name": "_approved",
          "type": "bool"
        }
      ],
      "name": "ApprovalForAll",
      "type": "event"
    },
    {
      "anonymous": false,
      "inputs": [
        {
          "indexed": true,
          "internalType": "uint256",
          "name": "_id",
          "type": "uint256"
        },
        {
          "indexed": false,
          "internalType": "address",
          "name": "_proposer",
          "type": "address"
        },
        {
          "indexed": false,
          "internalType": "uint256",
          "name": "_price",
          "type": "uint256"
        }
      ],
      "name": "CallbackAccepted",
      "type": "event"
    },
    {
      "anonymous": false,
      "inputs": [
        {
          "indexed": true,
          "internalType": "uint256",
          "name": "_id",
          "type": "uint256"
        },
        {
          "indexed": false,
          "internalType": "address",
          "name": "_proposer",
          "type": "address"
        },
        {
          "indexed": false,
          "internalType": "uint256",
          "name": "_price",
          "type": "uint256"
        }
      ],
      "name": "CallbackProposed",
      "type": "event"
    },
    {
      "anonymous": false,
      "inputs": [
        {
          "indexed": true,
          "internalType": "uint256",
          "name": "_id",
          "type": "uint256"
        },
        {
          "indexed": false,
          "internalType": "address",
          "name": "_proposer",
          "type": "address"
        },
        {
          "indexed": false,
          "internalType": "uint256",
          "name": "_price",
          "type": "uint256"
        }
      ],
      "name": "CallbackRefused",
      "type": "event"
    },
    {
      "anonymous": false,
      "inputs": [
        {
          "indexed": true,
          "internalType": "uint256",
          "name": "_id",
          "type": "uint256"
        },
        {
          "indexed": true,
          "internalType": "uint256",
          "name": "_hash",
          "type": "uint256"
        }
      ],
      "name": "MetadataHashUpdated",
      "type": "event"
    },
    {
      "anonymous": false,
      "inputs": [
        {
          "indexed": true,
          "internalType": "address",
          "name": "previousOwner",
          "type": "address"
        },
        {
          "indexed": true,
          "internalType": "address",
          "name": "newOwner",
          "type": "address"
        }
      ],
      "name": "OwnershipTransferred",
      "type": "event"
    },
    {
      "anonymous": false,
      "inputs": [
        {
          "indexed": true,
          "internalType": "address",
          "name": "_operator",
          "type": "address"
        },
        {
          "indexed": true,
          "internalType": "address",
          "name": "_from",
          "type": "address"
        },
        {
          "indexed": true,
          "internalType": "address",
          "name": "_to",
          "type": "address"
        },
        {
          "indexed": false,
          "internalType": "uint256[]",
          "name": "_ids",
          "type": "uint256[]"
        },
        {
          "indexed": false,
          "internalType": "uint256[]",
          "name": "_values",
          "type": "uint256[]"
        }
      ],
      "name": "TransferBatch",
      "type": "event"
    },
    {
      "anonymous": false,
      "inputs": [
        {
          "indexed": true,
          "internalType": "address",
          "name": "_operator",
          "type": "address"
        },
        {
          "indexed": true,
          "internalType": "address",
          "name": "_from",
          "type": "address"
        },
        {
          "indexed": true,
          "internalType": "address",
          "name": "_to",
          "type": "address"
        },
        {
          "indexed": false,
          "internalType": "uint256",
          "name": "_id",
          "type": "uint256"
        },
        {
          "indexed": false,
          "internalType": "uint256",
          "name": "_value",
          "type": "uint256"
        }
      ],
      "name": "TransferSingle",
      "type": "event"
    },
    {
      "anonymous": false,
      "inputs": [
        {
          "indexed": false,
          "internalType": "string",
          "name": "_value",
          "type": "string"
        },
        {
          "indexed": true,
          "internalType": "uint256",
          "name": "_id",
          "type": "uint256"
        }
      ],
      "name": "URI",
      "type": "event"
    },
    {
      "anonymous": false,
      "inputs": [
        {
          "indexed": true,
          "internalType": "address",
          "name": "_tokenizer",
          "type": "address"
        },
        {
          "indexed": false,
          "internalType": "uint256",
          "name": "_id",
          "type": "uint256"
        },
        {
          "indexed": false,
          "internalType": "uint256",
          "name": "_cost",
          "type": "uint256"
        }
      ],
      "name": "UpdateStorageCost",
      "type": "event"
    },
    {
      "anonymous": false,
      "inputs": [
        {
          "indexed": true,
          "internalType": "address",
          "name": "_owner",
          "type": "address"
        },
        {
          "indexed": false,
          "internalType": "uint256",
          "name": "_price",
          "type": "uint256"
        }
      ],
      "name": "UpdateStorageCreditPrice",
      "type": "event"
    },
    {
      "inputs": [],
      "name": "BASE_URI",
      "outputs": [
        {
          "internalType": "string",
          "name": "",
          "type": "string"
        }
      ],
      "stateMutability": "view",
      "type": "function"
    },
    {
      "inputs": [
        {
          "internalType": "address",
          "name": "",
          "type": "address"
        }
      ],
      "name": "_ETHBalances",
      "outputs": [
        {
          "internalType": "uint256",
          "name": "",
          "type": "uint256"
        }
      ],
      "stateMutability": "view",
      "type": "function"
    },
    {
      "inputs": [
        {
          "internalType": "uint256",
          "name": "",
          "type": "uint256"
        },
        {
          "internalType": "uint256",
          "name": "",
          "type": "uint256"
        }
      ],
      "name": "_addressesByToken",
      "outputs": [
        {
          "internalType": "address",
          "name": "",
          "type": "address"
        }
      ],
      "stateMutability": "view",
      "type": "function"
    },
    {
      "inputs": [
        {
          "internalType": "uint256",
          "name": "",
          "type": "uint256"
        },
        {
          "internalType": "address",
          "name": "",
          "type": "address"
        }
      ],
      "name": "_birthdays",
      "outputs": [
        {
          "internalType": "uint256",
          "name": "",
          "type": "uint256"
        }
      ],
      "stateMutability": "view",
      "type": "function"
    },
    {
      "inputs": [
        {
          "internalType": "address",
          "name": "",
          "type": "address"
        },
        {
          "internalType": "uint256",
          "name": "",
          "type": "uint256"
        }
      ],
      "name": "_tokensByAddress",
      "outputs": [
        {
          "internalType": "uint256",
          "name": "",
          "type": "uint256"
        }
      ],
      "stateMutability": "view",
      "type": "function"
    },
    {
      "inputs": [
        {
          "internalType": "address",
          "name": "tokenizer",
          "type": "address"
        }
      ],
      "name": "authorizeTokenizer",
      "outputs": [],
      "stateMutability": "nonpayable",
      "type": "function"
    },
    {
      "inputs": [
        {
          "internalType": "address",
          "name": "account",
          "type": "address"
        },
        {
          "internalType": "uint256",
          "name": "id",
          "type": "uint256"
        }
      ],
      "name": "balanceOf",
      "outputs": [
        {
          "internalType": "uint256",
          "name": "",
          "type": "uint256"
        }
      ],
      "stateMutability": "view",
      "type": "function"
    },
    {
      "inputs": [
        {
          "internalType": "address[]",
          "name": "accounts",
          "type": "address[]"
        },
        {
          "internalType": "uint256[]",
          "name": "ids",
          "type": "uint256[]"
        }
      ],
      "name": "balanceOfBatch",
      "outputs": [
        {
          "internalType": "uint256[]",
          "name": "",
          "type": "uint256[]"
        }
      ],
      "stateMutability": "view",
      "type": "function"
    },
    {
      "inputs": [
        {
          "internalType": "address",
          "name": "recipient",
          "type": "address"
        },
        {
          "internalType": "uint256",
          "name": "id",
          "type": "uint256"
        },
        {
          "internalType": "uint256",
          "name": "supply",
          "type": "uint256"
        },
        {
          "internalType": "uint256",
          "name": "metadataHash",
          "type": "uint256"
        },
        {
          "internalType": "uint256",
          "name": "storageCreditCost",
          "type": "uint256"
        },
        {
          "internalType": "uint256",
          "name": "minHoldingForCallback",
          "type": "uint256"
        },
        {
          "internalType": "address[]",
          "name": "feesRecipients",
          "type": "address[]"
        },
        {
          "internalType": "uint256[]",
          "name": "feesRecipientsPercentage",
          "type": "uint256[]"
        }
      ],
      "name": "createToken",
      "outputs": [],
      "stateMutability": "nonpayable",
      "type": "function"
    },
    {
      "inputs": [
        {
          "internalType": "address",
          "name": "account",
          "type": "address"
        },
        {
          "internalType": "address",
          "name": "operator",
          "type": "address"
        }
      ],
      "name": "isApprovedForAll",
      "outputs": [
        {
          "internalType": "bool",
          "name": "",
          "type": "bool"
        }
      ],
      "stateMutability": "view",
      "type": "function"
    },
    {
      "inputs": [
        {
          "internalType": "address",
          "name": "addr",
          "type": "address"
        }
      ],
      "name": "isLockedAddress",
      "outputs": [
        {
          "internalType": "bool",
          "name": "",
          "type": "bool"
        }
      ],
      "stateMutability": "view",
      "type": "function"
    },
    {
      "inputs": [
        {
          "internalType": "uint256",
          "name": "id",
          "type": "uint256"
        }
      ],
      "name": "isLockedToken",
      "outputs": [
        {
          "internalType": "bool",
          "name": "",
          "type": "bool"
        }
      ],
      "stateMutability": "view",
      "type": "function"
    },
    {
      "inputs": [
        {
          "internalType": "address",
          "name": "tokenizer",
          "type": "address"
        }
      ],
      "name": "isTokenizer",
      "outputs": [
        {
          "internalType": "bool",
          "name": "",
          "type": "bool"
        }
      ],
      "stateMutability": "view",
      "type": "function"
    },
    {
      "inputs": [
        {
          "internalType": "address",
          "name": "addr",
          "type": "address"
        }
      ],
      "name": "lockAddress",
      "outputs": [],
      "stateMutability": "nonpayable",
      "type": "function"
    },
    {
      "inputs": [
        {
          "internalType": "uint256",
          "name": "id",
          "type": "uint256"
        }
      ],
      "name": "lockToken",
      "outputs": [],
      "stateMutability": "nonpayable",
      "type": "function"
    },
    {
      "inputs": [
        {
          "internalType": "uint256",
          "name": "id",
          "type": "uint256"
        }
      ],
      "name": "metadataHash",
      "outputs": [
        {
          "internalType": "uint256",
          "name": "",
          "type": "uint256"
        }
      ],
      "stateMutability": "view",
      "type": "function"
    },
    {
      "inputs": [],
      "name": "owner",
      "outputs": [
        {
          "internalType": "address",
          "name": "",
          "type": "address"
        }
      ],
      "stateMutability": "view",
      "type": "function"
    },
    {
      "inputs": [
        {
          "internalType": "address",
          "name": "tokenizer",
          "type": "address"
        }
      ],
      "name": "revokeTokenizer",
      "outputs": [],
      "stateMutability": "nonpayable",
      "type": "function"
    },
    {
      "inputs": [
        {
          "internalType": "address",
          "name": "from",
          "type": "address"
        },
        {
          "internalType": "address",
          "name": "to",
          "type": "address"
        },
        {
          "internalType": "uint256[]",
          "name": "ids",
          "type": "uint256[]"
        },
        {
          "internalType": "uint256[]",
          "name": "values",
          "type": "uint256[]"
        },
        {
          "internalType": "bytes",
          "name": "data",
          "type": "bytes"
        }
      ],
      "name": "safeBatchTransferFrom",
      "outputs": [],
      "stateMutability": "payable",
      "type": "function"
    },
    {
      "inputs": [
        {
          "internalType": "address",
          "name": "from",
          "type": "address"
        },
        {
          "internalType": "address",
          "name": "to",
          "type": "address"
        },
        {
          "internalType": "uint256",
          "name": "id",
          "type": "uint256"
        },
        {
          "internalType": "uint256",
          "name": "value",
          "type": "uint256"
        },
        {
          "internalType": "bytes",
          "name": "data",
          "type": "bytes"
        }
      ],
      "name": "safeTransferFrom",
      "outputs": [],
      "stateMutability": "payable",
      "type": "function"
    },
    {
      "inputs": [
        {
          "internalType": "address",
          "name": "operator",
          "type": "address"
        },
        {
          "internalType": "bool",
          "name": "approved",
          "type": "bool"
        }
      ],
      "name": "setApprovalForAll",
      "outputs": [],
      "stateMutability": "nonpayable",
      "type": "function"
    },
    {
      "inputs": [
        {
          "internalType": "address",
          "name": "account",
          "type": "address"
        },
        {
          "internalType": "uint256",
          "name": "id",
          "type": "uint256"
        },
        {
          "internalType": "uint256",
          "name": "value",
          "type": "uint256"
        }
      ],
      "name": "storageFees",
      "outputs": [
        {
          "internalType": "uint256",
          "name": "",
          "type": "uint256"
        }
      ],
      "stateMutability": "view",
      "type": "function"
    },
    {
      "inputs": [
        {
          "internalType": "bytes4",
          "name": "_interfaceID",
          "type": "bytes4"
        }
      ],
      "name": "supportsInterface",
      "outputs": [
        {
          "internalType": "bool",
          "name": "",
          "type": "bool"
        }
      ],
      "stateMutability": "pure",
      "type": "function"
    },
    {
      "inputs": [
        {
          "internalType": "address",
          "name": "newOwner",
          "type": "address"
        }
      ],
      "name": "transferOwnership",
      "outputs": [],
      "stateMutability": "nonpayable",
      "type": "function"
    },
    {
      "inputs": [
        {
          "internalType": "address",
          "name": "addr",
          "type": "address"
        }
      ],
      "name": "unlockAddress",
      "outputs": [],
      "stateMutability": "nonpayable",
      "type": "function"
    },
    {
      "inputs": [
        {
          "internalType": "uint256",
          "name": "id",
          "type": "uint256"
        }
      ],
      "name": "unlockToken",
      "outputs": [],
      "stateMutability": "nonpayable",
      "type": "function"
    },
    {
      "inputs": [
        {
          "internalType": "uint256",
          "name": "id",
          "type": "uint256"
        },
        {
          "internalType": "uint256",
          "name": "metadataHash",
          "type": "uint256"
        }
      ],
      "name": "updateMetadataHash",
      "outputs": [],
      "stateMutability": "nonpayable",
      "type": "function"
    },
    {
      "inputs": [
        {
          "internalType": "uint256",
          "name": "id",
          "type": "uint256"
        },
        {
          "internalType": "uint256",
          "name": "newCost",
          "type": "uint256"
        }
      ],
      "name": "updateStorageCost",
      "outputs": [],
      "stateMutability": "nonpayable",
      "type": "function"
    },
    {
      "inputs": [
        {
          "internalType": "uint256",
          "name": "newPrice",
          "type": "uint256"
        }
      ],
      "name": "updateStorageCreditPrice",
      "outputs": [],
      "stateMutability": "nonpayable",
      "type": "function"
    },
    {
      "inputs": [
        {
          "internalType": "uint256",
          "name": "id",
          "type": "uint256"
        }
      ],
      "name": "uri",
      "outputs": [
        {
          "internalType": "string",
          "name": "",
          "type": "string"
        }
      ],
      "stateMutability": "pure",
      "type": "function"
    },
    {
      "inputs": [
        {
          "internalType": "address",
          "name": "to",
          "type": "address"
        },
        {
          "internalType": "uint256",
          "name": "amount",
          "type": "uint256"
        }
      ],
      "name": "withdraw",
      "outputs": [],
      "stateMutability": "nonpayable",
      "type": "function"
    },
    {
      "inputs": [
        {
          "internalType": "uint256",
          "name": "id",
          "type": "uint256"
        },
        {
          "internalType": "uint256",
          "name": "price",
          "type": "uint256"
        }
      ],
      "name": "proposeCallback",
      "outputs": [],
      "stateMutability": "payable",
      "type": "function"
    },
    {
      "inputs": [
        {
          "internalType": "uint256",
          "name": "id",
          "type": "uint256"
        },
        {
          "internalType": "address",
          "name": "proposer",
          "type": "address"
        }
      ],
      "name": "refuseCallback",
      "outputs": [],
      "stateMutability": "nonpayable",
      "type": "function"
    },
    {
      "inputs": [
        {
          "internalType": "uint256",
          "name": "id",
          "type": "uint256"
        },
        {
          "internalType": "address",
          "name": "proposer",
          "type": "address"
        }
      ],
      "name": "acceptCallback",
      "outputs": [],
      "stateMutability": "nonpayable",
      "type": "function"
    }
  ],
  "bytecode": "0x60806040526103e86006553480156200001757600080fd5b50620000233362000029565b620000e5565b6001600160a01b0381166200008a576040517f08c379a000000000000000000000000000000000000000000000000000000000815260040180806020018281038252602681526020018062003b536026913960400191505060405180910390fd5b600080546040516001600160a01b03808516939216917f8be0079c531659141344cd1fd0a4f28419497f9722a3daafe3b4186f6b6457e091a3600080546001600160a01b0319166001600160a01b0392909216919091179055565b613a5e80620000f56000396000f3fe6080604052600436106101f85760003560e01c8063939cd6411161010d578063cf6c97ca116100a0578063e985e9c51161006f578063e985e9c514610b26578063ea2bd64d14610b61578063f242432a14610b9a578063f2fde38b14610c2d578063f3fef3a314610c60576101f8565b8063cf6c97ca146109bb578063d7b80ebc14610ab4578063dbddb26a14610ae7578063dd2e0ac014610afc576101f8565b8063bba75c83116100dc578063bba75c83146108ec578063c02f303c14610916578063c4be3c3c14610949578063cba54e6014610988576101f8565b8063939cd64114610815578063a22cb46514610845578063a294007214610880578063b7eb5e0a146108b9576101f8565b80636b62becb116101905780637627b7321161015f5780637627b7321461074657806380f20363146107795780638495b141146107a35780638870147b146107cd5780638da5cb5b14610800576101f8565b80636b62becb146106815780636eb987c7146106b15780636fe8ded2146106ea57806370e0b14514610723576101f8565b8063219cc8bc116101cc578063219cc8bc1461037b5780632eb2c2d6146103a557806334a90d02146104ce5780634e1273f414610501576101f8565b8062fdd58e146101fd57806301ffc9a7146102485780630e89341c14610290578063119c07371461032f575b600080fd5b34801561020957600080fd5b506102366004803603604081101561022057600080fd5b506001600160a01b038135169060200135610c99565b60408051918252519081900360200190f35b34801561025457600080fd5b5061027c6004803603602081101561026b57600080fd5b50356001600160e01b031916610d0b565b604080519115158252519081900360200190f35b34801561029c57600080fd5b506102ba600480360360208110156102b357600080fd5b5035610d52565b6040805160208082528351818301528351919283929083019185019080838360005b838110156102f45781810151838201526020016102dc565b50505050905090810190601f1680156103215780820380516001836020036101000a031916815260200191505b509250505060405180910390f35b34801561033b57600080fd5b5061035f6004803603604081101561035257600080fd5b5080359060200135610d9b565b604080516001600160a01b039092168252519081900360200190f35b34801561038757600080fd5b506102366004803603602081101561039e57600080fd5b5035610dd0565b6104cc600480360360a08110156103bb57600080fd5b6001600160a01b038235811692602081013590911691810190606081016040820135600160201b8111156103ee57600080fd5b82018360208201111561040057600080fd5b803590602001918460208302840111600160201b8311171561042157600080fd5b919390929091602081019035600160201b81111561043e57600080fd5b82018360208201111561045057600080fd5b803590602001918460208302840111600160201b8311171561047157600080fd5b919390929091602081019035600160201b81111561048e57600080fd5b8201836020820111156104a057600080fd5b803590602001918460018302840111600160201b831117156104c157600080fd5b509092509050610de2565b005b3480156104da57600080fd5b506104cc600480360360208110156104f157600080fd5b50356001600160a01b0316611104565b34801561050d57600080fd5b506106316004803603604081101561052457600080fd5b810190602081018135600160201b81111561053e57600080fd5b82018360208201111561055057600080fd5b803590602001918460208302840111600160201b8311171561057157600080fd5b9190808060200260200160405190810160405280939291908181526020018383602002808284376000920191909152509295949360208101935035915050600160201b8111156105c057600080fd5b8201836020820111156105d257600080fd5b803590602001918460208302840111600160201b831117156105f357600080fd5b91908080602002602001604051908101604052809392919081815260200183836020028082843760009201919091525092955061116f945050505050565b60408051602080825283518183015283519192839290830191858101910280838360005b8381101561066d578181015183820152602001610655565b505050509050019250505060405180910390f35b34801561068d57600080fd5b506104cc600480360360408110156106a457600080fd5b50803590602001356112ed565b3480156106bd57600080fd5b50610236600480360360408110156106d457600080fd5b506001600160a01b03813516906020013561133f565b3480156106f657600080fd5b506104cc6004803603604081101561070d57600080fd5b50803590602001356001600160a01b031661136d565b6104cc6004803603604081101561073957600080fd5b50803590602001356114b3565b34801561075257600080fd5b506104cc6004803603602081101561076957600080fd5b50356001600160a01b03166116d4565b34801561078557600080fd5b506104cc6004803603602081101561079c57600080fd5b503561173f565b3480156107af57600080fd5b506104cc600480360360208110156107c657600080fd5b50356117a4565b3480156107d957600080fd5b506104cc600480360360208110156107f057600080fd5b50356001600160a01b0316611826565b34801561080c57600080fd5b5061035f61188e565b34801561082157600080fd5b506104cc6004803603604081101561083857600080fd5b508035906020013561189d565b34801561085157600080fd5b506104cc6004803603604081101561086857600080fd5b506001600160a01b0381351690602001351515611963565b34801561088c57600080fd5b506104cc600480360360408110156108a357600080fd5b50803590602001356001600160a01b0316611a19565b3480156108c557600080fd5b506104cc600480360360208110156108dc57600080fd5b50356001600160a01b0316611d64565b3480156108f857600080fd5b5061027c6004803603602081101561090f57600080fd5b5035611dcc565b34801561092257600080fd5b5061027c6004803603602081101561093957600080fd5b50356001600160a01b0316611dd7565b34801561095557600080fd5b506102366004803603606081101561096c57600080fd5b506001600160a01b038135169060208101359060400135611de2565b34801561099457600080fd5b5061027c600480360360208110156109ab57600080fd5b50356001600160a01b0316611df7565b3480156109c757600080fd5b506104cc60048036036101008110156109df57600080fd5b6001600160a01b038235169160208101359160408201359160608101359160808201359160a08101359181019060e0810160c0820135600160201b811115610a2657600080fd5b820183602082011115610a3857600080fd5b803590602001918460208302840111600160201b83111715610a5957600080fd5b919390929091602081019035600160201b811115610a7657600080fd5b820183602082011115610a8857600080fd5b803590602001918460208302840111600160201b83111715610aa957600080fd5b509092509050611e02565b348015610ac057600080fd5b5061023660048036036020811015610ad757600080fd5b50356001600160a01b0316611eb9565b348015610af357600080fd5b506102ba611ecb565b348015610b0857600080fd5b506104cc60048036036020811015610b1f57600080fd5b5035611f04565b348015610b3257600080fd5b5061027c60048036036040811015610b4957600080fd5b506001600160a01b0381358116916020013516611f63565b348015610b6d57600080fd5b5061023660048036036040811015610b8457600080fd5b50803590602001356001600160a01b0316611f91565b6104cc600480360360a0811015610bb057600080fd5b6001600160a01b03823581169260208101359091169160408201359160608101359181019060a081016080820135600160201b811115610bef57600080fd5b820183602082011115610c0157600080fd5b803590602001918460018302840111600160201b83111715610c2257600080fd5b509092509050611fae565b348015610c3957600080fd5b506104cc60048036036020811015610c5057600080fd5b50356001600160a01b03166121a4565b348015610c6c57600080fd5b506104cc60048036036040811015610c8357600080fd5b506001600160a01b0381351690602001356121f7565b60006001600160a01b038316610ce05760405162461bcd60e51b815260040180806020018281038252602b815260200180613620602b913960400191505060405180910390fd5b5060008181526003602090815260408083206001600160a01b03861684529091529020545b92915050565b60006001600160e01b031982166301ffc9a760e01b1480610d3c57506001600160e01b03198216636cdb3d1360e11b145b15610d4957506001610d4d565b5060005b919050565b6060610d056040518060400160405280601d81526020017f68747470733a2f2f7374617368626c6f782e636f6d2f746f6b656e732f000000815250610d9684612375565b612431565b600b6020528160005260406000208181548110610db457fe5b6000918252602090912001546001600160a01b03169150829050565b6000908152600e602052604090205490565b848314610e205760405162461bcd60e51b815260040180806020018281038252602e81526020018061399f602e913960400191505060405180910390fd5b6001600160a01b038716610e655760405162461bcd60e51b81526004018080602001828103825260288152602001806136716028913960400191505060405180910390fd5b6001600160a01b038816331480610e875750610e818833611f63565b15156001145b610ec25760405162461bcd60e51b81526004018080602001828103825260378152602001806139686037913960400191505060405180910390fd5b3460005b86811015610f0b57610eff8a8a8a8a85818110610edf57fe5b90506020020135898986818110610ef257fe5b905060200201358661253b565b90910390600101610ec6565b50876001600160a01b0316896001600160a01b0316336001600160a01b03167f4a39dc06d4c0dbc64b70af90fd698a233a518aa5d07e595d983b8c0526c8f7fb8a8a8a8a6040518080602001806020018381038352878782818152602001925060200280828437600083820152601f01601f19169091018481038352858152602090810191508690860280828437600083820152604051601f909101601f19169092018290039850909650505050505050a4611061338a8a8a8a8080602002602001604051908101604052809392919081815260200183836020028082843760009201919091525050604080516020808e0282810182019093528d82529093508d92508c91829185019084908082843760009201919091525050604080516020601f8d018190048102820181019092528b815292508b91508a90819084018382808284376000920191909152506128a092505050565b80156110f957604051600090339083908381818185875af1925050503d80600081146110a9576040519150601f19603f3d011682016040523d82523d6000602084013e6110ae565b606091505b50509050806110f7576040805162461bcd60e51b815260206004820152601060248201526f2a3930b739b332b9103330b4b632b21760811b604482015290519081900360640190fd5b505b505050505050505050565b61110c612a99565b61114b576040805162461bcd60e51b8152602060048201819052602482015260008051602061382b833981519152604482015290519081900360640190fd5b6001600160a01b03166000908152600260205260409020805460ff19166001179055565b606081518351146111b15760405162461bcd60e51b81526004018080602001828103825260308152602001806137466030913960400191505060405180910390fd5b6060835167ffffffffffffffff811180156111cb57600080fd5b506040519080825280602002602001820160405280156111f5578160200160208202803683370190505b50905060005b84518110156112e55760006001600160a01b031685828151811061121b57fe5b60200260200101516001600160a01b031614156112695760405162461bcd60e51b81526004018080602001828103825260348152602001806137ac6034913960400191505060405180910390fd5b6003600085838151811061127957fe5b60200260200101518152602001908152602001600020600086838151811061129d57fe5b60200260200101516001600160a01b03166001600160a01b03168152602001908152602001600020548282815181106112d257fe5b60209081029190910101526001016111fb565b509392505050565b6112f633612aaa565b6113315760405162461bcd60e51b81526004018080602001828103825260238152602001806136ed6023913960400191505060405180910390fd5b61133b8282612ad4565b5050565b600a602052816000526040600020818154811061135857fe5b90600052602060002001600091509150505481565b611375612a99565b6113b4576040805162461bcd60e51b8152602060048201819052602482015260008051602061382b833981519152604482015290519081900360640190fd5b60008281526012602090815260408083206001600160a01b0385168452909152902080546001909101548161141a5760405162461bcd60e51b815260040180806020018281038252602a815260200180613880602a913960400191505060405180910390fd5b6001600160a01b038316600081815260096020908152604080832080548601905580518082018252838152808301849052888452601283528184209484529390915290206114699160026134a7565b50604080516001600160a01b038516815260208101849052815186927fd7e908f6f9af1236bea3e4382bb17cabca5929dec62fbb431284240820150ddd928290030190a250505050565b6000828152600f6020526040902054611513576040805162461bcd60e51b815260206004820152601960248201527f5374617368426c6f783a20556e6b6e6f776e20746f6b656e2e00000000000000604482015290519081900360640190fd5b600081116115525760405162461bcd60e51b81526004018080602001828103825260288152602001806136c56028913960400191505060405180910390fd5b600082815260116020908152604080832054600f909252822054611583916127109161157d91612b13565b90612b73565b60008481526003602090815260408083203384529091529020549091508111156115de5760405162461bcd60e51b81526004018080602001828103825260368152602001806137106036913960400191505060405180910390fd5b6000838152600360209081526040808320338452825280832054868452600f90925282205461160c91612bb5565b9050600061161a8285612b13565b90508034101561165b5760405162461bcd60e51b815260040180806020018281038252603581526020018061384b6035913960400191505060405180910390fd5b60408051808201825285815234602080830191909152600088815260128252838120338252909152919091206116929160026134ea565b506040805133815260208101869052815187927f2a7673db20f80755f65f456687dc9fd630454e8c76e428cb4a4ae1d0410cef5e928290030190a25050505050565b6116dc612a99565b61171b576040805162461bcd60e51b8152602060048201819052602482015260008051602061382b833981519152604482015290519081900360640190fd5b6001600160a01b03166000908152601060205260409020805460ff19166001179055565b611747612a99565b611786576040805162461bcd60e51b8152602060048201819052602482015260008051602061382b833981519152604482015290519081900360640190fd5b6000908152600160208190526040909120805460ff19169091179055565b6117ad33612aaa565b6117e85760405162461bcd60e51b81526004018080602001828103825260238152602001806136ed6023913960400191505060405180910390fd5b600681905560408051828152905133917f5c5a35dc0829d2f6a31d1d6da57c4315ba7b562ee447c87b75c732cfd96abde9919081900360200190a250565b61182e612a99565b61186d576040805162461bcd60e51b8152602060048201819052602482015260008051602061382b833981519152604482015290519081900360640190fd5b6001600160a01b03166000908152601060205260409020805460ff19169055565b6000546001600160a01b031690565b6118a633612aaa565b6118e15760405162461bcd60e51b81526004018080602001828103825260238152602001806136ed6023913960400191505060405180910390fd5b60008281526005602090815260408083208151808301909252428252818301859052805460018101825590845291909220611924926002928302909101916134ea565b506040805183815260208101839052815133927f4bd9446604f43017ac3918d8db419b59a3b6f2a6cdd456eed5de99621bb62765928290030190a25050565b336001600160a01b03831614156119ab5760405162461bcd60e51b815260040180806020018281038252602c815260200180613699602c913960400191505060405180910390fd5b336000818152600d602090815260408083206001600160a01b03871680855290835292819020805460ff1916861515908117909155815190815290519293927f17307eab39ab6107e8899845ad3d59bd9653f200f220920489ca2b5937696c31929181900390910190a35050565b611a21612a99565b611a60576040805162461bcd60e51b8152602060048201819052602482015260008051602061382b833981519152604482015290519081900360640190fd5b60008281526012602090815260408083206001600160a01b03851684529091529020805460019091015481611ac65760405162461bcd60e51b815260040180806020018281038252602a815260200180613880602a913960400191505060405180910390fd5b600084815260116020908152604080832054600f909252822054611af1916127109161157d91612b13565b6000868152600360209081526040808320338452909152902054909150811115611b4c5760405162461bcd60e51b81526004018080602001828103825260388152602001806135e86038913960400191505060405180910390fd5b6000858152600360209081526040808320338452825280832054888452600f909252822054611b7a91612bb5565b90506000611b888286612b13565b905080841015611bc95760405162461bcd60e51b815260040180806020018281038252603f815260200180613929603f913960400191505060405180910390fd5b60005b6000888152600b6020526040902054811015611c84576000888152600b60205260408120805483908110611bfc57fe5b60009182526020808320909101548b83526003825260408084206001600160a01b03909216808552919092529120549091508015611c7a576000611c408983612b13565b6001600160a01b038416600081815260096020908152604080832080549095019094558e8252600381528382209282529190915290812055505b5050600101611bcc565b506000878152600f6020908152604080832054600383528184206001600160a01b038b1685529092529091205580841115611cda576001600160a01b038616600090815260096020526040902080548286030190555b604080518082018252600080825260208083018290528a8252601281528382206001600160a01b038b168352905291909120611d179160026134a7565b50604080516001600160a01b038816815260208101879052815189927f1a28571d07f35a57e1ed755a57928ae32539f444bbcef661637165f04fb5083f928290030190a250505050505050565b611d6c612a99565b611dab576040805162461bcd60e51b8152602060048201819052602482015260008051602061382b833981519152604482015290519081900360640190fd5b6001600160a01b03166000908152600260205260409020805460ff19169055565b6000610d0582612bf7565b6000610d0582612aaa565b6000611def848484612c0c565b949350505050565b6000610d0582612d85565b611e0b33612aaa565b611e465760405162461bcd60e51b81526004018080602001828103825260238152602001806136ed6023913960400191505060405180910390fd5b6110f78a8a8a8a8a8a8a8a8080602002602001604051908101604052809392919081815260200183836020028082843760009201919091525050604080516020808e0282810182019093528d82529093508d92508c918291850190849080828437600092019190915250612da392505050565b60096020526000908152604090205481565b6040518060400160405280601d81526020017f68747470733a2f2f7374617368626c6f782e636f6d2f746f6b656e732f00000081525081565b611f0c612a99565b611f4b576040805162461bcd60e51b8152602060048201819052602482015260008051602061382b833981519152604482015290519081900360640190fd5b6000908152600160205260409020805460ff19169055565b6001600160a01b039182166000908152600d6020908152604080832093909416825291909152205460ff1690565b600460209081526000928352604080842090915290825290205481565b6001600160a01b038516611ff35760405162461bcd60e51b81526004018080602001828103825260288152602001806136716028913960400191505060405180910390fd5b6001600160a01b038616331480612015575061200f8633611f63565b15156001145b6120505760405162461bcd60e51b81526004018080602001828103825260378152602001806139686037913960400191505060405180910390fd5b3461205e878787878561253b565b81039050856001600160a01b0316876001600160a01b0316336001600160a01b03167fc3d58168c5ae7397731d063d5bbf3d657854427343f4c083240f7aacaa2d0f628888604051808381526020018281526020019250505060405180910390a4612103338888888888888080601f01602080910402602001604051908101604052809392919081815260200183838082843760009201919091525061308692505050565b801561219b57604051600090339083908381818185875af1925050503d806000811461214b576040519150601f19603f3d011682016040523d82523d6000602084013e612150565b606091505b5050905080612199576040805162461bcd60e51b815260206004820152601060248201526f2a3930b739b332b9103330b4b632b21760811b604482015290519081900360640190fd5b505b50505050505050565b6121ac612a99565b6121eb576040805162461bcd60e51b8152602060048201819052602482015260008051602061382b833981519152604482015290519081900360640190fd5b6121f4816131fb565b50565b6121ff612a99565b61223e576040805162461bcd60e51b8152602060048201819052602482015260008051602061382b833981519152604482015290519081900360640190fd5b6001600160a01b0382166000908152600960205260409020548111156122ab576040805162461bcd60e51b815260206004820181905260248201527f5374617368426c6f783a20496e73756666696369656e742062616c616e63652e604482015290519081900360640190fd5b6040516000906001600160a01b0384169083908381818185875af1925050503d80600081146122f6576040519150601f19603f3d011682016040523d82523d6000602084013e6122fb565b606091505b5050905080612351576040805162461bcd60e51b815260206004820152601d60248201527f5374617368426c6f783a205769746864726177616c206661696c65642e000000604482015290519081900360640190fd5b506001600160a01b0390911660009081526009602052604090208054919091039055565b60606000825b801561239157600191909101906010900461237b565b60608267ffffffffffffffff811180156123aa57600080fd5b506040519080825280601f01601f1916602001820160405280156123d5576020820181803683370190505b50905060005b83811015612428576010860692506123f28361329b565b826001838703038151811061240357fe5b60200101906001600160f81b031916908160001a9053506010860495506001016123db565b50949350505050565b805182516060918491849184910167ffffffffffffffff8111801561245557600080fd5b506040519080825280601f01601f191660200182016040528015612480576020820181803683370190505b509050806000805b85518110156124d95785818151811061249d57fe5b602001015160f81c60f81b8383806001019450815181106124ba57fe5b60200101906001600160f81b031916908160001a905350600101612488565b5060005b845181101561252e578481815181106124f257fe5b602001015160f81c60f81b83838060010194508151811061250f57fe5b60200101906001600160f81b031916908160001a9053506001016124dd565b5090979650505050505050565b6000612549868686866132df565b15612584576040805162461bcd60e51b8152602060048201526006602482015265131bd8dad95960d21b604482015290519081900360640190fd5b61258f868585612c0c565b9050808210156125d05760405162461bcd60e51b815260040180806020018281038252602b8152602001806139fe602b913960400191505060405180910390fd5b612617836040518060600160405280602a81526020016137e0602a913960008781526003602090815260408083206001600160a01b038d168452909152902054919061331a565b60008581526003602090815260408083206001600160a01b038b81168552925280832093909355871681529081205461265090856133b1565b60008681526003602090815260408083206001600160a01b038b168452909152902054909150612732576000858152600c602090815260408083206001600160a01b038a16845290915290205460ff16612708576001600160a01b0386166000818152600a60209081526040808320805460018181018355918552838520018a9055898452600b83528184208054918201815584528284200180546001600160a01b03191685179055888352600c8252822092909152525b60008581526004602090815260408083206001600160a01b038a16845290915290204290556127c3565b60008581526004602090815260408083206001600160a01b038a168452909152812054612760904290612bb5565b60008781526003602090815260408083206001600160a01b038c1684529091528120549192509061279790849061157d9085612b13565b60008881526004602090815260408083206001600160a01b038d16845290915290204291909103905550505b60008581526003602090815260408083206001600160a01b038a16845290915281208290555b60008681526007602052604090205481101561289557600086815260076020526040812080548390811061281957fe5b600091825260208083209091015489835260089091526040822080546001600160a01b039092169350908490811061284d57fe5b600091825260209091200154905061286b61271061157d8784612b13565b6001600160a01b0390921660009081526009602052604090208054909201909155506001016127e9565b505095945050505050565b6128b2846001600160a01b031661340b565b15612a915763bc197c8160e01b6001600160e01b031916846001600160a01b031663bc197c8188888787876040518663ffffffff1660e01b815260040180866001600160a01b03168152602001856001600160a01b03168152602001806020018060200180602001848103845287818151815260200191508051906020019060200280838360005b8381101561295257818101518382015260200161293a565b50505050905001848103835286818151815260200191508051906020019060200280838360005b83811015612991578181015183820152602001612979565b50505050905001848103825285818151815260200191508051906020019080838360005b838110156129cd5781810151838201526020016129b5565b50505050905090810190601f1680156129fa5780820380516001836020036101000a031916815260200191505b5098505050505050505050602060405180830381600087803b158015612a1f57600080fd5b505af1158015612a33573d6000803e3d6000fd5b505050506040513d6020811015612a4957600080fd5b50516001600160e01b03191614612a915760405162461bcd60e51b81526004018080602001828103825260368152602001806137766036913960400191505060405180910390fd5b505050505050565b6000546001600160a01b0316331490565b6001600160a01b03811660009081526010602052604081205460ff1680610d055750610d05612a99565b6000828152600e602052604080822083905551829184917f9cd9c60390fc75c213fd8d644749f61388dd30ed6c6eb4647b793b5b580fb4309190a35050565b600082612b2257506000610d05565b82820282848281612b2f57fe5b0414612b6c5760405162461bcd60e51b815260040180806020018281038252602181526020018061380a6021913960400191505060405180910390fd5b9392505050565b6000612b6c83836040518060400160405280601a81526020017f536166654d6174683a206469766973696f6e206279207a65726f000000000000815250613442565b6000612b6c83836040518060400160405280601e81526020017f536166654d6174683a207375627472616374696f6e206f766572666c6f77000081525061331a565b60009081526001602052604090205460ff1690565b60006001600160a01b038416612c535760405162461bcd60e51b815260040180806020018281038252602b815260200180613620602b913960400191505060405180910390fd5b6000838152600560205260408120544290600019015b6000868152600560205260408120805483908110612c8357fe5b6000918252602082206002909102010154905060006305f5e100600654600560008b81526020019081526020016000208581548110612cbe57fe5b9060005260206000209060020201600160028110612cd857fe5b01540281612ce257fe5b60008a81526004602090815260408083206001600160a01b038f168452909152812054929091049250908311612d55575060008881526004602090815260408083206001600160a01b038d168452909152902054620151809085030480612d47575060015b028602939093019250612d7a565b50620151808285030480612d67575060015b0286029390930192915060001901612c69565b509095945050505050565b6001600160a01b031660009081526002602052604090205460ff1690565b6000878152600f6020526040902054158015612dbf5750600086115b8015612dcb5750600084115b8015612dd75750600083115b8015612de557506127108311155b8015612df2575060008251115b8015612dff575080518251145b612e50576040805162461bcd60e51b815260206004820152601c60248201527f5374617368426c6f783a20496e76616c696420617267756d656e747300000000604482015290519081900360640190fd5b6000805b8251811015612ecf57828181518110612e6957fe5b6020026020010151820191506000838281518110612e8357fe5b602002602001015111612ec75760405162461bcd60e51b815260040180806020018281038252603c8152602001806138aa603c913960400191505060405180910390fd5b600101612e54565b508061271014612f105760405162461bcd60e51b81526004018080602001828103825260438152602001806138e66043913960600191505060405180910390fd5b6000888152600c602090815260408083206001600160a01b038d16808552908352818420805460ff19166001908117909155600a8452828520805491820181558552838520018c90558b8452600f83528184208b9055600383528184209084529091529020879055612f828887612ad4565b60008881526004602090815260408083206001600160a01b038d168452825280832042908190558b8452600583528184208251808401909352908252818301899052805460018101825590845291909220612fe5926002928302909101916134ea565b50600088815260116020908152604080832087905560078252909120845161300f92860190613518565b506000888152600860209081526040909120835161302f92850190613579565b50604080518981526020810189905281516001600160a01b038c169260009233927fc3d58168c5ae7397731d063d5bbf3d657854427343f4c083240f7aacaa2d0f62929181900390910190a4505050505050505050565b613098846001600160a01b031661340b565b15612a915763f23a6e6160e01b6001600160e01b031916846001600160a01b031663f23a6e6188888787876040518663ffffffff1660e01b815260040180866001600160a01b03168152602001856001600160a01b0316815260200184815260200183815260200180602001828103825283818151815260200191508051906020019080838360005b83811015613139578181015183820152602001613121565b50505050905090810190601f1680156131665780820380516001836020036101000a031916815260200191505b509650505050505050602060405180830381600087803b15801561318957600080fd5b505af115801561319d573d6000803e3d6000fd5b505050506040513d60208110156131b357600080fd5b50516001600160e01b03191614612a915760405162461bcd60e51b81526004018080602001828103825260318152602001806139cd6031913960400191505060405180910390fd5b6001600160a01b0381166132405760405162461bcd60e51b815260040180806020018281038252602681526020018061364b6026913960400191505060405180910390fd5b600080546040516001600160a01b03808516939216917f8be0079c531659141344cd1fd0a4f28419497f9722a3daafe3b4186f6b6457e091a3600080546001600160a01b0319166001600160a01b0392909216919091179055565b600060098260ff16116132b557506030810160f81b610d4d565b8160ff16600a111580156132cd5750600f8260ff1611155b156101f857506057810160f81b610d4d565b60006132ea83612bf7565b806132f957506132f985612d85565b80613308575061330884612d85565b80613311575081155b95945050505050565b600081848411156133a95760405162461bcd60e51b81526004018080602001828103825283818151815260200191508051906020019080838360005b8381101561336e578181015183820152602001613356565b50505050905090810190601f16801561339b5780820380516001836020036101000a031916815260200191505b509250505060405180910390fd5b505050900390565b600082820183811015612b6c576040805162461bcd60e51b815260206004820152601b60248201527f536166654d6174683a206164646974696f6e206f766572666c6f770000000000604482015290519081900360640190fd5b6000813f7fc5d2460186f7233c927e7db2dcc703c0e500b653ca82273b7bfad8045d85a4708115801590611def5750141592915050565b600081836134915760405162461bcd60e51b815260206004820181815283516024840152835190928392604490910191908501908083836000831561336e578181015183820152602001613356565b50600083858161349d57fe5b0495945050505050565b82600281019282156134da579160200282015b828111156134da578251829060ff169055916020019190600101906134ba565b506134e69291506135b3565b5090565b82600281019282156134da579160200282015b828111156134da5782518255916020019190600101906134fd565b82805482825590600052602060002090810192821561356d579160200282015b8281111561356d57825182546001600160a01b0319166001600160a01b03909116178255602090920191600190910190613538565b506134e69291506135c8565b8280548282559060005260206000209081019282156134da57916020028201828111156134da5782518255916020019190600101906134fd565b5b808211156134e657600081556001016135b4565b5b808211156134e65780546001600160a01b03191681556001016135c956fe5374617368426c6f783a20696e73756666696369656e742062616c616e636520746f2065786563757465207468652063616c6c6261636b2e455243313135353a2062616c616e636520717565727920666f7220746865207a65726f20616464726573734f776e61626c653a206e6577206f776e657220697320746865207a65726f2061646472657373455243313135353a207461726765742061646472657373206d757374206265206e6f6e2d7a65726f455243313135353a2063616e6e6f742073657420617070726f76616c2073746174757320666f722073656c665374617368426c6f783a205072696365206d7573742062652067726561746572207468616e20302e4d696e7461626c653a2063616c6c6572206973206e6f74206120746f6b656e697a65725374617368426c6f783a20696e73756666696369656e742062616c616e636520746f2070726f706f736520612063616c6c6261636b2e455243313135353a206163636f756e747320616e6420494473206d75737420686176652073616d65206c656e67746873455243313135353a20676f7420756e6b6e6f776e2076616c75652066726f6d206f6e4552433131353542617463685265636569766564455243313135353a20736f6d65206164647265737320696e2062617463682062616c616e6365207175657279206973207a65726f455243313135353a20696e73756666696369656e742062616c616e636520666f72207472616e73666572536166654d6174683a206d756c7469706c69636174696f6e206f766572666c6f774f776e61626c653a2063616c6c6572206973206e6f7420746865206f776e65725374617368426c6f783a20696e73756666696369656e742076616c756520666f72207468652070726f706f7365642070726963652e5374617368426c6f783a2063616c6c6261636b2070726f706f736974696f6e206e6f7420666f756e642e5374617368426c6f783a2066656573526563697069656e747350657263656e746167652073686f756c642062652067726561746572207468616e20305374617368426c6f783a20546f74616c206f662066656573526563697069656e747350657263656e74616765206d75737420626520657175616c20746f2031303030305374617368426c6f783a20696e73756666696369656e7420657363726f7765642076616c756520746f2065786563757465207468652063616c6c6261636b2e455243313135353a206e656564206f70657261746f7220617070726f76616c20666f7220337264207061727479207472616e7366657273455243313135353a2049447320616e642076616c756573206d75737420686176652073616d65206c656e67746873455243313135353a20676f7420756e6b6e6f776e2076616c75652066726f6d206f6e455243313135355265636569766564455243313135353a20696e73756666696369656e742045544820666f72207472616e736665722066656573a264697066735822122092944f771e10612a3424d7cb4a1a8993fbeac73e62e8c3edb56f91d9bf198e8664736f6c634300070100334f776e61626c653a206e6577206f776e657220697320746865207a65726f2061646472657373",
  "immutableReferences": {},
  "source": "pragma solidity ^0.7.1;\n\nimport './lib/ERC1155/ERC1155Mintable.sol';\nimport \"./lib/utils/SafeMath.sol\";\n\ncontract StashBlox is ERC1155Mintable {\n\n    // list of callback propositions\n    // _callbackPropositions[tokenID][proposer] = [priceForEachToken, ETHAmountEscrowed]\n    mapping (uint256 => mapping(address => uint256[2])) _callbackPropositions;\n\n    event CallbackProposed(uint256 indexed _id, address _proposer, uint256 _price);\n    event CallbackRefused(uint256 indexed _id, address _proposer, uint256 _price);\n    event CallbackAccepted(uint256 indexed _id, address _proposer, uint256 _price);\n\n    using SafeMath for uint256;\n\n    /**\n     * @dev Propose to buy the whole supply of a token.\n     * The proposer must hold minHoldingForCallback% of the total supply.\n     * StashBlox must approve the price with acceptCallback();\n     * @param id Token ID\n     * @param price proposed price\n     */\n    function proposeCallback(uint256 id, uint256 price) external payable {\n      require(_supplies[id] > 0, \"StashBlox: Unknown token.\");\n      require(price > 0, \"StashBlox: Price must be greater than 0.\");\n\n      uint256 minHolding = (_supplies[id].mul(_minHoldingForCallback[id])).div(10000);\n      require(_balances[id][msg.sender] >= minHolding, \"StashBlox: insufficient balance to propose a callback.\");\n\n      uint256 callbackAmount = _supplies[id].sub(_balances[id][msg.sender]);\n      uint256 callbackPrice = callbackAmount.mul(price);\n      require(msg.value >= callbackPrice, \"StashBlox: insufficient value for the proposed price.\");\n\n      _callbackPropositions[id][msg.sender] = [price, msg.value];\n      emit CallbackProposed(id, msg.sender, price);\n    }\n\n    /**\n     * @dev Refuse a callback if the price is not enough.\n     * @param id Token ID\n     * @param proposer address of the proposer\n     */\n    function refuseCallback(uint256 id, address proposer) external onlyOwner {\n      uint256 price = _callbackPropositions[id][proposer][0];\n      uint256 escrowedAmount = _callbackPropositions[id][proposer][1];\n\n      require(price > 0, \"StashBlox: callback proposition not found.\");\n\n      // return escrowed amount. Proposer must use withdraw() function to get\n      // escrowed amount.\n      _ETHBalances[proposer] += escrowedAmount;\n\n      _callbackPropositions[id][proposer] = [0, 0];\n      emit CallbackRefused(id, proposer, price);\n    }\n\n    /**\n     * @dev Accept a callback\n     * @param id Token ID\n     * @param proposer address of the proposer\n     */\n    function acceptCallback(uint256 id, address proposer) external onlyOwner {\n      uint256 price = _callbackPropositions[id][proposer][0];\n      uint256 escrowedAmount = _callbackPropositions[id][proposer][1];\n\n      require(price > 0, \"StashBlox: callback proposition not found.\");\n\n      uint256 minHolding = (_supplies[id].mul(_minHoldingForCallback[id])).div(10000);\n      require(_balances[id][msg.sender] >= minHolding, \"StashBlox: insufficient balance to execute the callback.\");\n\n      uint256 callbackAmount = _supplies[id].sub(_balances[id][msg.sender]);\n      uint256 callbackPrice = callbackAmount.mul(price);\n      require(escrowedAmount >= callbackPrice, \"StashBlox: insufficient escrowed value to execute the callback.\");\n\n      // move tokens to the proposer address and escrowed ETH to the holders addresses\n      // Holders must use withdraw() function to get paiement amount.\n      for (uint256 i = 0; i < _addressesByToken[id].length; ++i) {\n        address holderAddress = _addressesByToken[id][i];\n        uint256 holderBalance = _balances[id][holderAddress];\n        if (holderBalance > 0) {\n          uint256 holderPrice = price.mul(holderBalance);\n          _ETHBalances[holderAddress] += holderPrice;\n          _balances[id][holderAddress] = 0;\n        }\n      }\n      _balances[id][proposer] = _supplies[id];\n      if (escrowedAmount > callbackPrice) {\n        _ETHBalances[proposer] += escrowedAmount - callbackPrice;\n      }\n\n      _callbackPropositions[id][proposer] = [0, 0];\n      emit CallbackAccepted(id, proposer, price);\n    }\n}\n",
  "sourcePath": "/home/ouziel/Work/StashBloxContracts/contracts/StashBlox.sol",
  "compiler": {
    "name": "solc",
    "version": "0.7.1+commit.f4a555be.Emscripten.clang"
  },
  "schemaVersion": "3.2.3",
  "updatedAt": "2020-10-01T11:57:28.170Z",
  "devdoc": {
    "kind": "dev",
    "methods": {
      "acceptCallback(uint256,address)": {
        "details": "Accept a callback",
        "params": {
          "id": "Token ID",
          "proposer": "address of the proposer"
        }
      },
      "balanceOf(address,uint256)": {
        "details": "Get the specified address' balance for token with specified ID. Attempting to query the zero account for a balance will result in a revert.",
        "params": {
          "account": "The address of the token holder",
          "id": "ID of the token"
        },
        "returns": {
          "_0": "The account's balance of the token type requested"
        }
      },
      "balanceOfBatch(address[],uint256[])": {
        "details": "Get the balance of multiple account/token pairs. If any of the query accounts is the zero account, this query will revert.",
        "params": {
          "accounts": "The addresses of the token holders",
          "ids": "IDs of the tokens"
        },
        "returns": {
          "_0": "Balances for each account and token id pair"
        }
      },
      "createToken(address,uint256,uint256,uint256,uint256,uint256,address[],uint256[])": {
        "details": "Function to mint an amount of a token with the given ID.",
        "params": {
          "feesRecipients": "list of addresses receiving transfer fees",
          "feesRecipientsPercentage": "list of percentage, each one for the corresponding feesRecipients",
          "id": "ID of the token to be minted",
          "metadataHash": "Metadata file hash",
          "minHoldingForCallback": "minimum holding to propose a callback",
          "recipient": "The address that will own the minted tokens",
          "storageCreditCost": "cost for 24h storage in storageCredit (x 10 ^ 8 for the precision)",
          "supply": "Amount of the token to be minted"
        }
      },
      "isApprovedForAll(address,address)": {
        "params": {
          "account": "The account of the Tokens",
          "operator": "Address of authorized operator"
        },
        "returns": {
          "_0": "True if the operator is approved, false if not"
        }
      },
      "owner()": {
        "details": "Returns the address of the current owner."
      },
      "proposeCallback(uint256,uint256)": {
        "details": "Propose to buy the whole supply of a token. The proposer must hold minHoldingForCallback% of the total supply. StashBlox must approve the price with acceptCallback();",
        "params": {
          "id": "Token ID",
          "price": "proposed price"
        }
      },
      "refuseCallback(uint256,address)": {
        "details": "Refuse a callback if the price is not enough.",
        "params": {
          "id": "Token ID",
          "proposer": "address of the proposer"
        }
      },
      "safeBatchTransferFrom(address,address,uint256[],uint256[],bytes)": {
        "details": "Transfers `values` amount(s) of `ids` from the `from` address to the `to` address specified. Caller must be approved to manage the tokens being transferred out of the `from` account. If `to` is a smart contract, will call `onERC1155BatchReceived` on `to` and act appropriately.",
        "params": {
          "data": "Data forwarded to `onERC1155Received` if `to` is a contract receiver",
          "from": "Source address",
          "ids": "IDs of each token type",
          "to": "Target address",
          "values": "Transfer amounts per token type"
        }
      },
      "safeTransferFrom(address,address,uint256,uint256,bytes)": {
        "details": "Transfers `value` amount of an `id` from the `from` address to the `to` address specified. Caller must be approved to manage the tokens being transferred out of the `from` account. If `to` is a smart contract, will call `onERC1155Received` on `to` and act appropriately.",
        "params": {
          "data": "Data forwarded to `onERC1155Received` if `to` is a contract receiver",
          "from": "Source address",
          "id": "ID of the token type",
          "to": "Target address",
          "value": "Transfer amount"
        }
      },
      "setApprovalForAll(address,bool)": {
        "details": "Sets or unsets the approval of a given operator. An operator is allowed to transfer all tokens of the sender on their behalf. Because an account already has operator privileges for itself, this function will revert if the account attempts to set the approval status for itself.",
        "params": {
          "approved": "representing the status of the approval to be set",
          "operator": "address to set the approval"
        }
      },
      "supportsInterface(bytes4)": {
        "params": {
          "_interfaceID": "The interface identifier, as specified in ERC-165"
        },
        "returns": {
          "_0": "`true` if the contract implements `_interfaceID` and"
        }
      },
      "transferOwnership(address)": {
        "details": "Transfers ownership of the contract to a new account (`newOwner`). Can only be called by the current owner."
      },
      "uri(uint256)": {
        "params": {
          "id": "Token ID"
        },
        "returns": {
          "_0": "URI string"
        }
      }
    },
    "version": 1
  },
  "userdoc": {
    "kind": "user",
    "methods": {
      "isApprovedForAll(address,address)": {
        "notice": "Queries the approval status of an operator for a given account."
      },
      "supportsInterface(bytes4)": {
        "notice": "Query if a contract implements an interface"
      }
    },
    "version": 1
  }
}