{
  "contractName": "StashBlox",
  "abi": [
    {
      "anonymous": false,
      "inputs": [
        {
          "indexed": true,
          "internalType": "address",
          "name": "_owner",
          "type": "address"
        },
        {
          "indexed": true,
          "internalType": "address",
          "name": "_operator",
          "type": "address"
        },
        {
          "indexed": false,
          "internalType": "bool",
          "name": "_approved",
          "type": "bool"
        }
      ],
      "name": "ApprovalForAll",
      "type": "event"
    },
    {
      "anonymous": false,
      "inputs": [
        {
          "indexed": true,
          "internalType": "uint256",
          "name": "_id",
          "type": "uint256"
        },
        {
          "indexed": false,
          "internalType": "address",
          "name": "_proposer",
          "type": "address"
        },
        {
          "indexed": false,
          "internalType": "uint256",
          "name": "_price",
          "type": "uint256"
        }
      ],
      "name": "CallbackAccepted",
      "type": "event"
    },
    {
      "anonymous": false,
      "inputs": [
        {
          "indexed": true,
          "internalType": "uint256",
          "name": "_id",
          "type": "uint256"
        },
        {
          "indexed": false,
          "internalType": "address",
          "name": "_proposer",
          "type": "address"
        },
        {
          "indexed": false,
          "internalType": "uint256",
          "name": "_price",
          "type": "uint256"
        }
      ],
      "name": "CallbackProposed",
      "type": "event"
    },
    {
      "anonymous": false,
      "inputs": [
        {
          "indexed": true,
          "internalType": "uint256",
          "name": "_id",
          "type": "uint256"
        },
        {
          "indexed": false,
          "internalType": "address",
          "name": "_proposer",
          "type": "address"
        },
        {
          "indexed": false,
          "internalType": "uint256",
          "name": "_price",
          "type": "uint256"
        }
      ],
      "name": "CallbackRefused",
      "type": "event"
    },
    {
      "anonymous": false,
      "inputs": [
        {
          "indexed": true,
          "internalType": "uint256",
          "name": "_id",
          "type": "uint256"
        },
        {
          "indexed": true,
          "internalType": "uint256",
          "name": "_hash",
          "type": "uint256"
        }
      ],
      "name": "MetadataHashUpdated",
      "type": "event"
    },
    {
      "anonymous": false,
      "inputs": [
        {
          "indexed": true,
          "internalType": "address",
          "name": "previousOwner",
          "type": "address"
        },
        {
          "indexed": true,
          "internalType": "address",
          "name": "newOwner",
          "type": "address"
        }
      ],
      "name": "OwnershipTransferred",
      "type": "event"
    },
    {
      "anonymous": false,
      "inputs": [
        {
          "indexed": true,
          "internalType": "address",
          "name": "_operator",
          "type": "address"
        },
        {
          "indexed": true,
          "internalType": "address",
          "name": "_from",
          "type": "address"
        },
        {
          "indexed": true,
          "internalType": "address",
          "name": "_to",
          "type": "address"
        },
        {
          "indexed": false,
          "internalType": "uint256[]",
          "name": "_ids",
          "type": "uint256[]"
        },
        {
          "indexed": false,
          "internalType": "uint256[]",
          "name": "_values",
          "type": "uint256[]"
        }
      ],
      "name": "TransferBatch",
      "type": "event"
    },
    {
      "anonymous": false,
      "inputs": [
        {
          "indexed": true,
          "internalType": "address",
          "name": "_operator",
          "type": "address"
        },
        {
          "indexed": true,
          "internalType": "address",
          "name": "_from",
          "type": "address"
        },
        {
          "indexed": true,
          "internalType": "address",
          "name": "_to",
          "type": "address"
        },
        {
          "indexed": false,
          "internalType": "uint256",
          "name": "_id",
          "type": "uint256"
        },
        {
          "indexed": false,
          "internalType": "uint256",
          "name": "_value",
          "type": "uint256"
        }
      ],
      "name": "TransferSingle",
      "type": "event"
    },
    {
      "anonymous": false,
      "inputs": [
        {
          "indexed": false,
          "internalType": "string",
          "name": "_value",
          "type": "string"
        },
        {
          "indexed": true,
          "internalType": "uint256",
          "name": "_id",
          "type": "uint256"
        }
      ],
      "name": "URI",
      "type": "event"
    },
    {
      "anonymous": false,
      "inputs": [
        {
          "indexed": true,
          "internalType": "address",
          "name": "_tokenizer",
          "type": "address"
        },
        {
          "indexed": false,
          "internalType": "uint256",
          "name": "_id",
          "type": "uint256"
        },
        {
          "indexed": false,
          "internalType": "uint256",
          "name": "_cost",
          "type": "uint256"
        }
      ],
      "name": "UpdateStorageCost",
      "type": "event"
    },
    {
      "anonymous": false,
      "inputs": [
        {
          "indexed": true,
          "internalType": "address",
          "name": "_owner",
          "type": "address"
        },
        {
          "indexed": false,
          "internalType": "uint256",
          "name": "_price",
          "type": "uint256"
        }
      ],
      "name": "UpdateStorageCreditPrice",
      "type": "event"
    },
    {
      "inputs": [],
      "name": "BASE_URI",
      "outputs": [
        {
          "internalType": "string",
          "name": "",
          "type": "string"
        }
      ],
      "stateMutability": "view",
      "type": "function"
    },
    {
      "inputs": [
        {
          "internalType": "address",
          "name": "",
          "type": "address"
        }
      ],
      "name": "_ETHBalances",
      "outputs": [
        {
          "internalType": "uint256",
          "name": "",
          "type": "uint256"
        }
      ],
      "stateMutability": "view",
      "type": "function"
    },
    {
      "inputs": [
        {
          "internalType": "uint256",
          "name": "",
          "type": "uint256"
        },
        {
          "internalType": "uint256",
          "name": "",
          "type": "uint256"
        }
      ],
      "name": "_addressesByToken",
      "outputs": [
        {
          "internalType": "address",
          "name": "",
          "type": "address"
        }
      ],
      "stateMutability": "view",
      "type": "function"
    },
    {
      "inputs": [
        {
          "internalType": "uint256",
          "name": "",
          "type": "uint256"
        },
        {
          "internalType": "address",
          "name": "",
          "type": "address"
        }
      ],
      "name": "_birthdays",
      "outputs": [
        {
          "internalType": "uint256",
          "name": "",
          "type": "uint256"
        }
      ],
      "stateMutability": "view",
      "type": "function"
    },
    {
      "inputs": [
        {
          "internalType": "address",
          "name": "",
          "type": "address"
        },
        {
          "internalType": "uint256",
          "name": "",
          "type": "uint256"
        }
      ],
      "name": "_tokensByAddress",
      "outputs": [
        {
          "internalType": "uint256",
          "name": "",
          "type": "uint256"
        }
      ],
      "stateMutability": "view",
      "type": "function"
    },
    {
      "inputs": [
        {
          "internalType": "address",
          "name": "tokenizer",
          "type": "address"
        }
      ],
      "name": "authorizeTokenizer",
      "outputs": [],
      "stateMutability": "nonpayable",
      "type": "function"
    },
    {
      "inputs": [
        {
          "internalType": "address",
          "name": "account",
          "type": "address"
        },
        {
          "internalType": "uint256",
          "name": "id",
          "type": "uint256"
        }
      ],
      "name": "balanceOf",
      "outputs": [
        {
          "internalType": "uint256",
          "name": "",
          "type": "uint256"
        }
      ],
      "stateMutability": "view",
      "type": "function"
    },
    {
      "inputs": [
        {
          "internalType": "address[]",
          "name": "accounts",
          "type": "address[]"
        },
        {
          "internalType": "uint256[]",
          "name": "ids",
          "type": "uint256[]"
        }
      ],
      "name": "balanceOfBatch",
      "outputs": [
        {
          "internalType": "uint256[]",
          "name": "",
          "type": "uint256[]"
        }
      ],
      "stateMutability": "view",
      "type": "function"
    },
    {
      "inputs": [
        {
          "internalType": "address",
          "name": "recipient",
          "type": "address"
        },
        {
          "internalType": "uint256",
          "name": "id",
          "type": "uint256"
        },
        {
          "internalType": "uint256",
          "name": "supply",
          "type": "uint256"
        },
        {
          "internalType": "uint256",
          "name": "metadataHash",
          "type": "uint256"
        },
        {
          "internalType": "uint256",
          "name": "storageCreditCost",
          "type": "uint256"
        },
        {
          "internalType": "uint256",
          "name": "minHoldingForCallback",
          "type": "uint256"
        },
        {
          "internalType": "address[]",
          "name": "feesRecipients",
          "type": "address[]"
        },
        {
          "internalType": "uint256[]",
          "name": "feesRecipientsPercentage",
          "type": "uint256[]"
        }
      ],
      "name": "createToken",
      "outputs": [],
      "stateMutability": "nonpayable",
      "type": "function"
    },
    {
      "inputs": [
        {
          "internalType": "address",
          "name": "account",
          "type": "address"
        },
        {
          "internalType": "address",
          "name": "operator",
          "type": "address"
        }
      ],
      "name": "isApprovedForAll",
      "outputs": [
        {
          "internalType": "bool",
          "name": "",
          "type": "bool"
        }
      ],
      "stateMutability": "view",
      "type": "function"
    },
    {
      "inputs": [
        {
          "internalType": "address",
          "name": "addr",
          "type": "address"
        }
      ],
      "name": "isLockedAddress",
      "outputs": [
        {
          "internalType": "bool",
          "name": "",
          "type": "bool"
        }
      ],
      "stateMutability": "view",
      "type": "function"
    },
    {
      "inputs": [
        {
          "internalType": "uint256",
          "name": "id",
          "type": "uint256"
        }
      ],
      "name": "isLockedToken",
      "outputs": [
        {
          "internalType": "bool",
          "name": "",
          "type": "bool"
        }
      ],
      "stateMutability": "view",
      "type": "function"
    },
    {
      "inputs": [
        {
          "internalType": "address",
          "name": "tokenizer",
          "type": "address"
        }
      ],
      "name": "isTokenizer",
      "outputs": [
        {
          "internalType": "bool",
          "name": "",
          "type": "bool"
        }
      ],
      "stateMutability": "view",
      "type": "function"
    },
    {
      "inputs": [
        {
          "internalType": "address",
          "name": "addr",
          "type": "address"
        }
      ],
      "name": "lockAddress",
      "outputs": [],
      "stateMutability": "nonpayable",
      "type": "function"
    },
    {
      "inputs": [
        {
          "internalType": "uint256",
          "name": "id",
          "type": "uint256"
        }
      ],
      "name": "lockToken",
      "outputs": [],
      "stateMutability": "nonpayable",
      "type": "function"
    },
    {
      "inputs": [
        {
          "internalType": "uint256",
          "name": "id",
          "type": "uint256"
        }
      ],
      "name": "metadataHash",
      "outputs": [
        {
          "internalType": "uint256",
          "name": "",
          "type": "uint256"
        }
      ],
      "stateMutability": "view",
      "type": "function"
    },
    {
      "inputs": [],
      "name": "owner",
      "outputs": [
        {
          "internalType": "address",
          "name": "",
          "type": "address"
        }
      ],
      "stateMutability": "view",
      "type": "function"
    },
    {
      "inputs": [
        {
          "internalType": "address",
          "name": "tokenizer",
          "type": "address"
        }
      ],
      "name": "revokeTokenizer",
      "outputs": [],
      "stateMutability": "nonpayable",
      "type": "function"
    },
    {
      "inputs": [
        {
          "internalType": "address",
          "name": "from",
          "type": "address"
        },
        {
          "internalType": "address",
          "name": "to",
          "type": "address"
        },
        {
          "internalType": "uint256[]",
          "name": "ids",
          "type": "uint256[]"
        },
        {
          "internalType": "uint256[]",
          "name": "values",
          "type": "uint256[]"
        },
        {
          "internalType": "bytes",
          "name": "data",
          "type": "bytes"
        }
      ],
      "name": "safeBatchTransferFrom",
      "outputs": [],
      "stateMutability": "payable",
      "type": "function"
    },
    {
      "inputs": [
        {
          "internalType": "address",
          "name": "from",
          "type": "address"
        },
        {
          "internalType": "address",
          "name": "to",
          "type": "address"
        },
        {
          "internalType": "uint256",
          "name": "id",
          "type": "uint256"
        },
        {
          "internalType": "uint256",
          "name": "value",
          "type": "uint256"
        },
        {
          "internalType": "bytes",
          "name": "data",
          "type": "bytes"
        }
      ],
      "name": "safeTransferFrom",
      "outputs": [],
      "stateMutability": "payable",
      "type": "function"
    },
    {
      "inputs": [
        {
          "internalType": "address",
          "name": "operator",
          "type": "address"
        },
        {
          "internalType": "bool",
          "name": "approved",
          "type": "bool"
        }
      ],
      "name": "setApprovalForAll",
      "outputs": [],
      "stateMutability": "nonpayable",
      "type": "function"
    },
    {
      "inputs": [
        {
          "internalType": "address",
          "name": "account",
          "type": "address"
        },
        {
          "internalType": "uint256",
          "name": "id",
          "type": "uint256"
        },
        {
          "internalType": "uint256",
          "name": "value",
          "type": "uint256"
        }
      ],
      "name": "storageFees",
      "outputs": [
        {
          "internalType": "uint256",
          "name": "",
          "type": "uint256"
        }
      ],
      "stateMutability": "view",
      "type": "function"
    },
    {
      "inputs": [
        {
          "internalType": "bytes4",
          "name": "_interfaceID",
          "type": "bytes4"
        }
      ],
      "name": "supportsInterface",
      "outputs": [
        {
          "internalType": "bool",
          "name": "",
          "type": "bool"
        }
      ],
      "stateMutability": "pure",
      "type": "function"
    },
    {
      "inputs": [
        {
          "internalType": "address",
          "name": "newOwner",
          "type": "address"
        }
      ],
      "name": "transferOwnership",
      "outputs": [],
      "stateMutability": "nonpayable",
      "type": "function"
    },
    {
      "inputs": [
        {
          "internalType": "address",
          "name": "addr",
          "type": "address"
        }
      ],
      "name": "unlockAddress",
      "outputs": [],
      "stateMutability": "nonpayable",
      "type": "function"
    },
    {
      "inputs": [
        {
          "internalType": "uint256",
          "name": "id",
          "type": "uint256"
        }
      ],
      "name": "unlockToken",
      "outputs": [],
      "stateMutability": "nonpayable",
      "type": "function"
    },
    {
      "inputs": [
        {
          "internalType": "uint256",
          "name": "id",
          "type": "uint256"
        },
        {
          "internalType": "uint256",
          "name": "metadataHash",
          "type": "uint256"
        }
      ],
      "name": "updateMetadataHash",
      "outputs": [],
      "stateMutability": "nonpayable",
      "type": "function"
    },
    {
      "inputs": [
        {
          "internalType": "uint256",
          "name": "id",
          "type": "uint256"
        },
        {
          "internalType": "uint256",
          "name": "newCost",
          "type": "uint256"
        }
      ],
      "name": "updateStorageCost",
      "outputs": [],
      "stateMutability": "nonpayable",
      "type": "function"
    },
    {
      "inputs": [
        {
          "internalType": "uint256",
          "name": "newPrice",
          "type": "uint256"
        }
      ],
      "name": "updateStorageCreditPrice",
      "outputs": [],
      "stateMutability": "nonpayable",
      "type": "function"
    },
    {
      "inputs": [
        {
          "internalType": "uint256",
          "name": "id",
          "type": "uint256"
        }
      ],
      "name": "uri",
      "outputs": [
        {
          "internalType": "string",
          "name": "",
          "type": "string"
        }
      ],
      "stateMutability": "pure",
      "type": "function"
    },
    {
      "inputs": [
        {
          "internalType": "address",
          "name": "to",
          "type": "address"
        },
        {
          "internalType": "uint256",
          "name": "amount",
          "type": "uint256"
        }
      ],
      "name": "withdraw",
      "outputs": [],
      "stateMutability": "nonpayable",
      "type": "function"
    },
    {
      "inputs": [
        {
          "internalType": "uint256",
          "name": "id",
          "type": "uint256"
        },
        {
          "internalType": "uint256",
          "name": "price",
          "type": "uint256"
        }
      ],
      "name": "proposeCallback",
      "outputs": [],
      "stateMutability": "payable",
      "type": "function"
    },
    {
      "inputs": [
        {
          "internalType": "uint256",
          "name": "id",
          "type": "uint256"
        },
        {
          "internalType": "address",
          "name": "proposer",
          "type": "address"
        }
      ],
      "name": "refuseCallback",
      "outputs": [],
      "stateMutability": "nonpayable",
      "type": "function"
    },
    {
      "inputs": [
        {
          "internalType": "uint256",
          "name": "id",
          "type": "uint256"
        },
        {
          "internalType": "address",
          "name": "proposer",
          "type": "address"
        }
      ],
      "name": "acceptCallback",
      "outputs": [],
      "stateMutability": "nonpayable",
      "type": "function"
    }
  ],
  "bytecode": "0x60806040526103e86006553480156200001757600080fd5b50620000233362000029565b6200012d565b6001600160a01b03811662000075576040517f08c379a00000000000000000000000000000000000000000000000000000000081526004016200006c90620000d0565b60405180910390fd5b600080546040516001600160a01b03808516939216917f8be0079c531659141344cd1fd0a4f28419497f9722a3daafe3b4186f6b6457e091a3600080546001600160a01b0319166001600160a01b0392909216919091179055565b60208082526026908201527f4f776e61626c653a206e6577206f776e657220697320746865207a65726f206160408201527f6464726573730000000000000000000000000000000000000000000000000000606082015260800190565b613732806200013d6000396000f3fe6080604052600436106101f85760003560e01c8063939cd6411161010d578063cf6c97ca116100a0578063e985e9c51161006f578063e985e9c5146105b9578063ea2bd64d146105d9578063f242432a146105f9578063f2fde38b1461060c578063f3fef3a31461062c576101f8565b8063cf6c97ca14610544578063d7b80ebc14610564578063dbddb26a14610584578063dd2e0ac014610599576101f8565b8063bba75c83116100dc578063bba75c83146104c4578063c02f303c146104e4578063c4be3c3c14610504578063cba54e6014610524576101f8565b8063939cd64114610444578063a22cb46514610464578063a294007214610484578063b7eb5e0a146104a4576101f8565b80636b62becb116101905780637627b7321161015f5780637627b732146103af57806380f20363146103cf5780638495b141146103ef5780638870147b1461040f5780638da5cb5b1461042f576101f8565b80636b62becb1461033c5780636eb987c71461035c5780636fe8ded21461037c57806370e0b1451461039c576101f8565b8063219cc8bc116101cc578063219cc8bc146102ba5780632eb2c2d6146102da57806334a90d02146102ef5780634e1273f41461030f576101f8565b8062fdd58e146101fd57806301ffc9a7146102335780630e89341c14610260578063119c07371461028d575b600080fd5b34801561020957600080fd5b5061021d6102183660046129de565b61064c565b60405161022a919061365e565b60405180910390f35b34801561023f57600080fd5b5061025361024e366004612baf565b6106a8565b60405161022a9190612e09565b34801561026c57600080fd5b5061028061027b366004612be7565b6106ef565b60405161022a9190612e14565b34801561029957600080fd5b506102ad6102a8366004612c22565b610738565b60405161022a9190612cff565b3480156102c657600080fd5b5061021d6102d5366004612be7565b61076d565b6102ed6102e8366004612872565b61077f565b005b3480156102fb57600080fd5b506102ed61030a366004612823565b6109da565b34801561031b57600080fd5b5061032f61032a366004612aed565b610a22565b60405161022a9190612df6565b34801561034857600080fd5b506102ed610357366004612c22565b610b62565b34801561036857600080fd5b5061021d6103773660046129de565b610b95565b34801561038857600080fd5b506102ed610397366004612bff565b610bc3565b6102ed6103aa366004612c22565b610cbe565b3480156103bb57600080fd5b506102ed6103ca366004612823565b610e4d565b3480156103db57600080fd5b506102ed6103ea366004612be7565b610e95565b3480156103fb57600080fd5b506102ed61040a366004612be7565b610ed7565b34801561041b57600080fd5b506102ed61042a366004612823565b610f3e565b34801561043b57600080fd5b506102ad610f83565b34801561045057600080fd5b506102ed61045f366004612c22565b610f92565b34801561047057600080fd5b506102ed61047f3660046129a3565b611042565b34801561049057600080fd5b506102ed61049f366004612bff565b6110da565b3480156104b057600080fd5b506102ed6104bf366004612823565b61139c565b3480156104d057600080fd5b506102536104df366004612be7565b6113e1565b3480156104f057600080fd5b506102536104ff366004612823565b6113ec565b34801561051057600080fd5b5061021d61051f366004612a08565b6113f7565b34801561053057600080fd5b5061025361053f366004612823565b61140c565b34801561055057600080fd5b506102ed61055f366004612a3b565b611417565b34801561057057600080fd5b5061021d61057f366004612823565b6114af565b34801561059057600080fd5b506102806114c1565b3480156105a557600080fd5b506102ed6105b4366004612be7565b6114fa565b3480156105c557600080fd5b506102536105d436600461283e565b611536565b3480156105e557600080fd5b5061021d6105f4366004612bff565b611564565b6102ed61060736600461292b565b611581565b34801561061857600080fd5b506102ed610627366004612823565b61171f565b34801561063857600080fd5b506102ed6106473660046129de565b61174f565b60006001600160a01b03831661067d5760405162461bcd60e51b815260040161067490612edb565b60405180910390fd5b5060008181526003602090815260408083206001600160a01b03861684529091529020545b92915050565b60006001600160e01b031982166301ffc9a760e01b14806106d957506001600160e01b03198216636cdb3d1360e11b145b156106e6575060016106ea565b5060005b919050565b60606106a26040518060400160405280601d81526020017f68747470733a2f2f7374617368626c6f782e636f6d2f746f6b656e732f0000008152506107338461184b565b611907565b600b602052816000526040600020818154811061075157fe5b6000918252602090912001546001600160a01b03169150829050565b6000908152600e602052604090205490565b84831461079e5760405162461bcd60e51b815260040161067490613513565b6001600160a01b0387166107c45760405162461bcd60e51b815260040161067490612fa3565b6001600160a01b0388163314806107e657506107e08833611536565b15156001145b6108025760405162461bcd60e51b8152600401610674906134b6565b3460005b8681101561084b5761083f8a8a8a8a8581811061081f57fe5b9050602002013589898681811061083257fe5b9050602002013586611a11565b90910390600101610806565b50876001600160a01b0316896001600160a01b0316336001600160a01b03167f4a39dc06d4c0dbc64b70af90fd698a233a518aa5d07e595d983b8c0526c8f7fb8a8a8a8a60405161089f9493929190612dcf565b60405180910390a461094b338a8a8a8a8080602002602001604051908101604052809392919081815260200183836020028082843760009201919091525050604080516020808e0282810182019093528d82529093508d92508c91829185019084908082843760009201919091525050604080516020601f8d018190048102820181019092528b815292508b91508a9081908401838280828437600092019190915250611d3992505050565b80156109cf576000336001600160a01b03168260405161096a90612cfc565b60006040518083038185875af1925050503d80600081146109a7576040519150601f19603f3d011682016040523d82523d6000602084013e6109ac565b606091505b50509050806109cd5760405162461bcd60e51b815260040161067490613561565b505b505050505050505050565b6109e2611e07565b6109fe5760405162461bcd60e51b8152600401610674906132bf565b6001600160a01b03166000908152600260205260409020805460ff19166001179055565b60608151835114610a455760405162461bcd60e51b815260040161067490613184565b6060835167ffffffffffffffff81118015610a5f57600080fd5b50604051908082528060200260200182016040528015610a89578160200160208202803683370190505b50905060005b8451811015610b5a5760006001600160a01b0316858281518110610aaf57fe5b60200260200101516001600160a01b03161415610ade5760405162461bcd60e51b81526004016106749061322a565b60036000858381518110610aee57fe5b602002602001015181526020019081526020016000206000868381518110610b1257fe5b60200260200101516001600160a01b03166001600160a01b0316815260200190815260200160002054828281518110610b4757fe5b6020908102919091010152600101610a8f565b509392505050565b610b6b33611e18565b610b875760405162461bcd60e51b8152600401610674906130eb565b610b918282611e42565b5050565b600a6020528160005260406000208181548110610bae57fe5b90600052602060002001600091509150505481565b610bcb611e07565b610be75760405162461bcd60e51b8152600401610674906132bf565b60008281526012602090815260408083206001600160a01b03851684529091529020805460019091015481610c2e5760405162461bcd60e51b815260040161067490613349565b6001600160a01b03831660008181526009602090815260408083208054860190558051808201825283815280830184905288845260128352818420948452939091529020610c7d9160026125d5565b50837fd7e908f6f9af1236bea3e4382bb17cabca5929dec62fbb431284240820150ddd8484604051610cb0929190612d13565b60405180910390a250505050565b6000828152600f6020526040902054610ce95760405162461bcd60e51b815260040161067490612f6c565b60008111610d095760405162461bcd60e51b8152600401610674906130a3565b600082815260116020908152604080832054600f909252822054610d3a9161271091610d3491611e81565b90611ec2565b6000848152600360209081526040808320338452909152902054909150811115610d765760405162461bcd60e51b81526004016106749061312e565b6000838152600360209081526040808320338452825280832054868452600f909252822054610da491611f04565b90506000610db28285611e81565b905080341015610dd45760405162461bcd60e51b8152600401610674906132f4565b6040805180820182528581523460208083019190915260008881526012825283812033825290915291909120610e0b916002612618565b50847f2a7673db20f80755f65f456687dc9fd630454e8c76e428cb4a4ae1d0410cef5e3386604051610e3e929190612d13565b60405180910390a25050505050565b610e55611e07565b610e715760405162461bcd60e51b8152600401610674906132bf565b6001600160a01b03166000908152601060205260409020805460ff19166001179055565b610e9d611e07565b610eb95760405162461bcd60e51b8152600401610674906132bf565b6000908152600160208190526040909120805460ff19169091179055565b610ee033611e18565b610efc5760405162461bcd60e51b8152600401610674906130eb565b600681905560405133907f5c5a35dc0829d2f6a31d1d6da57c4315ba7b562ee447c87b75c732cfd96abde990610f3390849061365e565b60405180910390a250565b610f46611e07565b610f625760405162461bcd60e51b8152600401610674906132bf565b6001600160a01b03166000908152601060205260409020805460ff19169055565b6000546001600160a01b031690565b610f9b33611e18565b610fb75760405162461bcd60e51b8152600401610674906130eb565b60008281526005602090815260408083208151808301909252428252818301859052805460018101825590845291909220610ffa92600292830290910191612618565b50336001600160a01b03167f4bd9446604f43017ac3918d8db419b59a3b6f2a6cdd456eed5de99621bb627658383604051611036929190613667565b60405180910390a25050565b336001600160a01b038316141561106b5760405162461bcd60e51b815260040161067490613057565b336000818152600d602090815260408083206001600160a01b038716808552925291829020805460ff191685151517905590519091907f17307eab39ab6107e8899845ad3d59bd9653f200f220920489ca2b5937696c31906110ce908590612e09565b60405180910390a35050565b6110e2611e07565b6110fe5760405162461bcd60e51b8152600401610674906132bf565b60008281526012602090815260408083206001600160a01b038516845290915290208054600190910154816111455760405162461bcd60e51b815260040161067490613349565b600084815260116020908152604080832054600f9092528220546111709161271091610d3491611e81565b60008681526003602090815260408083203384529091529020549091508111156111ac5760405162461bcd60e51b815260040161067490612e5e565b6000858152600360209081526040808320338452825280832054888452600f9092528220546111da91611f04565b905060006111e88286611e81565b90508084101561120a5760405162461bcd60e51b815260040161067490613459565b60005b6000888152600b60205260409020548110156112c5576000888152600b6020526040812080548390811061123d57fe5b60009182526020808320909101548b83526003825260408084206001600160a01b039092168085529190925291205490915080156112bb5760006112818983611e81565b6001600160a01b038416600081815260096020908152604080832080549095019094558e8252600381528382209282529190915290812055505b505060010161120d565b506000878152600f6020908152604080832054600383528184206001600160a01b038b168552909252909120558084111561131b576001600160a01b038616600090815260096020526040902080548286030190555b604080518082018252600080825260208083018290528a8252601281528382206001600160a01b038b1683529052919091206113589160026125d5565b50867f1a28571d07f35a57e1ed755a57928ae32539f444bbcef661637165f04fb5083f878760405161138b929190612d13565b60405180910390a250505050505050565b6113a4611e07565b6113c05760405162461bcd60e51b8152600401610674906132bf565b6001600160a01b03166000908152600260205260409020805460ff19169055565b60006106a282611f46565b60006106a282611e18565b6000611404848484611f5b565b949350505050565b60006106a2826120b5565b61142033611e18565b61143c5760405162461bcd60e51b8152600401610674906130eb565b6109cd8a8a8a8a8a8a8a8a8080602002602001604051908101604052809392919081815260200183836020028082843760009201919091525050604080516020808e0282810182019093528d82529093508d92508c9182918501908490808284376000920191909152506120d392505050565b60096020526000908152604090205481565b6040518060400160405280601d81526020017f68747470733a2f2f7374617368626c6f782e636f6d2f746f6b656e732f00000081525081565b611502611e07565b61151e5760405162461bcd60e51b8152600401610674906132bf565b6000908152600160205260409020805460ff19169055565b6001600160a01b039182166000908152600d6020908152604080832093909416825291909152205460ff1690565b600460209081526000928352604080842090915290825290205481565b6001600160a01b0385166115a75760405162461bcd60e51b815260040161067490612fa3565b6001600160a01b0386163314806115c957506115c38633611536565b15156001145b6115e55760405162461bcd60e51b8152600401610674906134b6565b346115f38787878785611a11565b81039050856001600160a01b0316876001600160a01b0316336001600160a01b03167fc3d58168c5ae7397731d063d5bbf3d657854427343f4c083240f7aacaa2d0f628888604051611646929190613667565b60405180910390a4611692338888888888888080601f01602080910402602001604051908101604052809392919081815260200183838082843760009201919091525061235092505050565b8015611716576000336001600160a01b0316826040516116b190612cfc565b60006040518083038185875af1925050503d80600081146116ee576040519150601f19603f3d011682016040523d82523d6000602084013e6116f3565b606091505b50509050806117145760405162461bcd60e51b815260040161067490613561565b505b50505050505050565b611727611e07565b6117435760405162461bcd60e51b8152600401610674906132bf565b61174c81612416565b50565b611757611e07565b6117735760405162461bcd60e51b8152600401610674906132bf565b6001600160a01b0382166000908152600960205260409020548111156117ab5760405162461bcd60e51b815260040161067490613022565b6000826001600160a01b0316826040516117c490612cfc565b60006040518083038185875af1925050503d8060008114611801576040519150601f19603f3d011682016040523d82523d6000602084013e611806565b606091505b50509050806118275760405162461bcd60e51b815260040161067490612e27565b506001600160a01b0390911660009081526009602052604090208054919091039055565b60606000825b8015611867576001919091019060109004611851565b60608267ffffffffffffffff8111801561188057600080fd5b506040519080825280601f01601f1916602001820160405280156118ab576020820181803683370190505b50905060005b838110156118fe576010860692506118c883612497565b82600183870303815181106118d957fe5b60200101906001600160f81b031916908160001a9053506010860495506001016118b1565b50949350505050565b805182516060918491849184910167ffffffffffffffff8111801561192b57600080fd5b506040519080825280601f01601f191660200182016040528015611956576020820181803683370190505b509050806000805b85518110156119af5785818151811061197357fe5b602001015160f81c60f81b83838060010194508151811061199057fe5b60200101906001600160f81b031916908160001a90535060010161195e565b5060005b8451811015611a04578481815181106119c857fe5b602001015160f81c60f81b8383806001019450815181106119e557fe5b60200101906001600160f81b031916908160001a9053506001016119b3565b5090979650505050505050565b6000611a1f868686866124db565b15611a3c5760405162461bcd60e51b815260040161067490612ebb565b611a47868585611f5b565b905080821015611a695760405162461bcd60e51b815260040161067490613613565b611ab0836040518060600160405280602a81526020016136d3602a913960008781526003602090815260408083206001600160a01b038d1684529091529020549190612516565b60008581526003602090815260408083206001600160a01b038b811685529252808320939093558716815290812054611ae99085612542565b60008681526003602090815260408083206001600160a01b038b168452909152902054909150611bcb576000858152600c602090815260408083206001600160a01b038a16845290915290205460ff16611ba1576001600160a01b0386166000818152600a60209081526040808320805460018181018355918552838520018a9055898452600b83528184208054918201815584528284200180546001600160a01b03191685179055888352600c8252822092909152525b60008581526004602090815260408083206001600160a01b038a1684529091529020429055611c5c565b60008581526004602090815260408083206001600160a01b038a168452909152812054611bf9904290611f04565b60008781526003602090815260408083206001600160a01b038c16845290915281205491925090611c30908490610d349085611e81565b60008881526004602090815260408083206001600160a01b038d16845290915290204291909103905550505b60008581526003602090815260408083206001600160a01b038a16845290915281208290555b600086815260076020526040902054811015611d2e576000868152600760205260408120805483908110611cb257fe5b600091825260208083209091015489835260089091526040822080546001600160a01b0390921693509084908110611ce657fe5b6000918252602090912001549050611d04612710610d348784611e81565b6001600160a01b039092166000908152600960205260409020805490920190915550600101611c82565b505095945050505050565b611d4b846001600160a01b0316612567565b15611dff5760405163bc197c8160e01b808252906001600160a01b0386169063bc197c8190611d86908a908a90899089908990600401612d2c565b602060405180830381600087803b158015611da057600080fd5b505af1158015611db4573d6000803e3d6000fd5b505050506040513d601f19601f82011682018060405250810190611dd89190612bcb565b6001600160e01b03191614611dff5760405162461bcd60e51b8152600401610674906131d4565b505050505050565b6000546001600160a01b0316331490565b6001600160a01b03811660009081526010602052604081205460ff16806106a257506106a2611e07565b6000828152600e602052604080822083905551829184917f9cd9c60390fc75c213fd8d644749f61388dd30ed6c6eb4647b793b5b580fb4309190a35050565b600082611e90575060006106a2565b82820282848281611e9d57fe5b0414611ebb5760405162461bcd60e51b81526004016106749061327e565b9392505050565b6000611ebb83836040518060400160405280601a81526020017f536166654d6174683a206469766973696f6e206279207a65726f00000000000081525061259e565b6000611ebb83836040518060400160405280601e81526020017f536166654d6174683a207375627472616374696f6e206f766572666c6f770000815250612516565b60009081526001602052604090205460ff1690565b60006001600160a01b038416611f835760405162461bcd60e51b815260040161067490612edb565b6000838152600560205260408120544290600019015b6000868152600560205260408120805483908110611fb357fe5b6000918252602082206002909102010154905060006305f5e100600654600560008b81526020019081526020016000208581548110611fee57fe5b906000526020600020906002020160016002811061200857fe5b0154028161201257fe5b60008a81526004602090815260408083206001600160a01b038f168452909152812054929091049250908311612085575060008881526004602090815260408083206001600160a01b038d168452909152902054620151809085030480612077575060015b0286029390930192506120aa565b50620151808285030480612097575060015b0286029390930192915060001901611f99565b509095945050505050565b6001600160a01b031660009081526002602052604090205460ff1690565b6000878152600f60205260409020541580156120ef5750600086115b80156120fb5750600084115b80156121075750600083115b801561211557506127108311155b8015612122575060008251115b801561212f575080518251145b61214b5760405162461bcd60e51b81526004016106749061358b565b6000805b82518110156121ab5782818151811061216457fe5b602002602001015182019150600083828151811061217e57fe5b6020026020010151116121a35760405162461bcd60e51b815260040161067490613393565b60010161214f565b5080612710146121cd5760405162461bcd60e51b8152600401610674906133f0565b6000888152600c602090815260408083206001600160a01b038d16808552908352818420805460ff19166001908117909155600a8452828520805491820181558552838520018c90558b8452600f83528184208b905560038352818420908452909152902087905561223f8887611e42565b60008881526004602090815260408083206001600160a01b038d168452825280832042908190558b84526005835281842082518084019093529082528183018990528054600181018255908452919092206122a292600292830290910191612618565b5060008881526011602090815260408083208790556007825290912084516122cc92860190612646565b50600088815260086020908152604090912083516122ec928501906126a7565b50886001600160a01b031660006001600160a01b0316336001600160a01b03167fc3d58168c5ae7397731d063d5bbf3d657854427343f4c083240f7aacaa2d0f628b8b60405161233d929190613667565b60405180910390a4505050505050505050565b612362846001600160a01b0316612567565b15611dff5760405163f23a6e6160e01b808252906001600160a01b0386169063f23a6e619061239d908a908a90899089908990600401612d8a565b602060405180830381600087803b1580156123b757600080fd5b505af11580156123cb573d6000803e3d6000fd5b505050506040513d601f19601f820116820180604052508101906123ef9190612bcb565b6001600160e01b03191614611dff5760405162461bcd60e51b8152600401610674906135c2565b6001600160a01b03811661243c5760405162461bcd60e51b815260040161067490612f26565b600080546040516001600160a01b03808516939216917f8be0079c531659141344cd1fd0a4f28419497f9722a3daafe3b4186f6b6457e091a3600080546001600160a01b0319166001600160a01b0392909216919091179055565b600060098260ff16116124b157506030810160f81b6106ea565b8160ff16600a111580156124c95750600f8260ff1611155b156101f857506057810160f81b6106ea565b60006124e683611f46565b806124f557506124f5856120b5565b806125045750612504846120b5565b8061250d575081155b95945050505050565b6000818484111561253a5760405162461bcd60e51b81526004016106749190612e14565b505050900390565b600082820183811015611ebb5760405162461bcd60e51b815260040161067490612feb565b6000813f7fc5d2460186f7233c927e7db2dcc703c0e500b653ca82273b7bfad8045d85a47081158015906114045750141592915050565b600081836125bf5760405162461bcd60e51b81526004016106749190612e14565b5060008385816125cb57fe5b0495945050505050565b8260028101928215612608579160200282015b82811115612608578251829060ff169055916020019190600101906125e8565b506126149291506126e1565b5090565b8260028101928215612608579160200282015b8281111561260857825182559160200191906001019061262b565b82805482825590600052602060002090810192821561269b579160200282015b8281111561269b57825182546001600160a01b0319166001600160a01b03909116178255602090920191600190910190612666565b506126149291506126f6565b828054828255906000526020600020908101928215612608579160200282018281111561260857825182559160200191906001019061262b565b5b8082111561261457600081556001016126e2565b5b808211156126145780546001600160a01b03191681556001016126f7565b80356001600160a01b03811681146106a257600080fd5b60008083601f84011261273d578182fd5b50813567ffffffffffffffff811115612754578182fd5b602083019150836020808302850101111561276e57600080fd5b9250929050565b600082601f830112612785578081fd5b81356127986127938261369c565b613675565b8181529150602080830190848101818402860182018710156127b957600080fd5b60005b848110156127d8578135845292820192908201906001016127bc565b505050505092915050565b60008083601f8401126127f4578182fd5b50813567ffffffffffffffff81111561280b578182fd5b60208301915083602082850101111561276e57600080fd5b600060208284031215612834578081fd5b611ebb8383612715565b60008060408385031215612850578081fd5b61285a8484612715565b91506128698460208501612715565b90509250929050565b60008060008060008060008060a0898b03121561288d578384fd5b6128978a8a612715565b97506128a68a60208b01612715565b9650604089013567ffffffffffffffff808211156128c2578586fd5b6128ce8c838d0161272c565b909850965060608b01359150808211156128e6578586fd5b6128f28c838d0161272c565b909650945060808b013591508082111561290a578384fd5b506129178b828c016127e3565b999c989b5096995094979396929594505050565b60008060008060008060a08789031215612943578182fd5b61294d8888612715565b955061295c8860208901612715565b94506040870135935060608701359250608087013567ffffffffffffffff811115612985578283fd5b61299189828a016127e3565b979a9699509497509295939492505050565b600080604083850312156129b5578182fd5b6129bf8484612715565b9150602083013580151581146129d3578182fd5b809150509250929050565b600080604083850312156129f0578182fd5b6129fa8484612715565b946020939093013593505050565b600080600060608486031215612a1c578283fd5b612a268585612715565b95602085013595506040909401359392505050565b6000806000806000806000806000806101008b8d031215612a5a578182fd5b612a648c8c612715565b995060208b0135985060408b0135975060608b0135965060808b0135955060a08b0135945060c08b013567ffffffffffffffff80821115612aa3578384fd5b612aaf8e838f0161272c565b909650945060e08d0135915080821115612ac7578384fd5b50612ad48d828e0161272c565b915080935050809150509295989b9194979a5092959850565b60008060408385031215612aff578182fd5b823567ffffffffffffffff80821115612b16578384fd5b818501915085601f830112612b29578384fd5b8135612b376127938261369c565b80828252602080830192508086018a828387028901011115612b57578889fd5b8896505b84871015612b8157612b6d8b82612715565b845260019690960195928101928101612b5b565b509096508701359350505080821115612b98578283fd5b50612ba585828601612775565b9150509250929050565b600060208284031215612bc0578081fd5b8135611ebb816136bc565b600060208284031215612bdc578081fd5b8151611ebb816136bc565b600060208284031215612bf8578081fd5b5035919050565b60008060408385031215612c11578182fd5b823591506128698460208501612715565b60008060408385031215612c34578182fd5b50508035926020909101359150565b81835260006001600160fb1b03831115612c5b578081fd5b6020830280836020870137939093016020019283525090919050565b6000815180845260208085019450808401835b83811015612ca657815187529582019590820190600101612c8a565b509495945050505050565b60008151808452815b81811015612cd657602081850181015186830182015201612cba565b81811115612ce75782602083870101525b50601f01601f19169290920160200192915050565b90565b6001600160a01b0391909116815260200190565b6001600160a01b03929092168252602082015260400190565b6001600160a01b0386811682528516602082015260a060408201819052600090612d5890830186612c77565b8281036060840152612d6a8186612c77565b90508281036080840152612d7e8185612cb1565b98975050505050505050565b6001600160a01b03868116825285166020820152604081018490526060810183905260a060808201819052600090612dc490830184612cb1565b979650505050505050565b600060408252612de3604083018688612c43565b8281036020840152612dc4818587612c43565b600060208252611ebb6020830184612c77565b901515815260200190565b600060208252611ebb6020830184612cb1565b6020808252601d908201527f5374617368426c6f783a205769746864726177616c206661696c65642e000000604082015260600190565b60208082526038908201527f5374617368426c6f783a20696e73756666696369656e742062616c616e63652060408201527f746f2065786563757465207468652063616c6c6261636b2e0000000000000000606082015260800190565b602080825260069082015265131bd8dad95960d21b604082015260600190565b6020808252602b908201527f455243313135353a2062616c616e636520717565727920666f7220746865207a60408201526a65726f206164647265737360a81b606082015260800190565b60208082526026908201527f4f776e61626c653a206e6577206f776e657220697320746865207a65726f206160408201526564647265737360d01b606082015260800190565b60208082526019908201527f5374617368426c6f783a20556e6b6e6f776e20746f6b656e2e00000000000000604082015260600190565b60208082526028908201527f455243313135353a207461726765742061646472657373206d757374206265206040820152676e6f6e2d7a65726f60c01b606082015260800190565b6020808252601b908201527f536166654d6174683a206164646974696f6e206f766572666c6f770000000000604082015260600190565b6020808252818101527f5374617368426c6f783a20496e73756666696369656e742062616c616e63652e604082015260600190565b6020808252602c908201527f455243313135353a2063616e6e6f742073657420617070726f76616c2073746160408201526b3a3ab9903337b91039b2b63360a11b606082015260800190565b60208082526028908201527f5374617368426c6f783a205072696365206d7573742062652067726561746572604082015267103a3430b710181760c11b606082015260800190565b60208082526023908201527f4d696e7461626c653a2063616c6c6572206973206e6f74206120746f6b656e696040820152623d32b960e91b606082015260800190565b60208082526036908201527f5374617368426c6f783a20696e73756666696369656e742062616c616e6365206040820152753a3790383937b837b9b290309031b0b6363130b1b59760511b606082015260800190565b60208082526030908201527f455243313135353a206163636f756e747320616e6420494473206d757374206860408201526f6176652073616d65206c656e6774687360801b606082015260800190565b60208082526036908201527f455243313135353a20676f7420756e6b6e6f776e2076616c75652066726f6d206040820152751bdb915490cc4c4d4d50985d18da149958d95a5d995960521b606082015260800190565b60208082526034908201527f455243313135353a20736f6d65206164647265737320696e2062617463682062604082015273616c616e6365207175657279206973207a65726f60601b606082015260800190565b60208082526021908201527f536166654d6174683a206d756c7469706c69636174696f6e206f766572666c6f6040820152607760f81b606082015260800190565b6020808252818101527f4f776e61626c653a2063616c6c6572206973206e6f7420746865206f776e6572604082015260600190565b60208082526035908201527f5374617368426c6f783a20696e73756666696369656e742076616c756520666f60408201527439103a343290383937b837b9b2b210383934b1b29760591b606082015260800190565b6020808252602a908201527f5374617368426c6f783a2063616c6c6261636b2070726f706f736974696f6e206040820152693737ba103337bab7321760b11b606082015260800190565b6020808252603c908201527f5374617368426c6f783a2066656573526563697069656e747350657263656e7460408201527f6167652073686f756c642062652067726561746572207468616e203000000000606082015260800190565b60208082526043908201527f5374617368426c6f783a20546f74616c206f662066656573526563697069656e60408201527f747350657263656e74616765206d75737420626520657175616c20746f20313060608201526203030360ec1b608082015260a00190565b6020808252603f908201527f5374617368426c6f783a20696e73756666696369656e7420657363726f77656460408201527f2076616c756520746f2065786563757465207468652063616c6c6261636b2e00606082015260800190565b60208082526037908201527f455243313135353a206e656564206f70657261746f7220617070726f76616c2060408201527f666f7220337264207061727479207472616e7366657273000000000000000000606082015260800190565b6020808252602e908201527f455243313135353a2049447320616e642076616c756573206d7573742068617660408201526d652073616d65206c656e6774687360901b606082015260800190565b60208082526010908201526f2a3930b739b332b9103330b4b632b21760811b604082015260600190565b6020808252601c908201527f5374617368426c6f783a20496e76616c696420617267756d656e747300000000604082015260600190565b60208082526031908201527f455243313135353a20676f7420756e6b6e6f776e2076616c75652066726f6d206040820152701bdb915490cc4c4d4d549958d95a5d9959607a1b606082015260800190565b6020808252602b908201527f455243313135353a20696e73756666696369656e742045544820666f7220747260408201526a616e73666572206665657360a81b606082015260800190565b90815260200190565b918252602082015260400190565b60405181810167ffffffffffffffff8111828210171561369457600080fd5b604052919050565b600067ffffffffffffffff8211156136b2578081fd5b5060209081020190565b6001600160e01b03198116811461174c57600080fdfe455243313135353a20696e73756666696369656e742062616c616e636520666f72207472616e73666572a264697066735822122094cbc0b2923f785ca2805328af4204d42499d6659728a2d9027ec6d8b8ab004464736f6c63430007010033",
  "immutableReferences": {},
  "source": "pragma solidity ^0.7.1;\npragma experimental ABIEncoderV2;\n\nimport './lib/ERC1155/ERC1155Mintable.sol';\nimport \"./lib/utils/SafeMath.sol\";\n\ncontract StashBlox is ERC1155Mintable {\n\n    // list of callback propositions\n    // _callbackPropositions[tokenID][proposer] = [priceForEachToken, ETHAmountEscrowed]\n    mapping (uint256 => mapping(address => uint256[2])) _callbackPropositions;\n\n    event CallbackProposed(uint256 indexed _id, address _proposer, uint256 _price);\n    event CallbackRefused(uint256 indexed _id, address _proposer, uint256 _price);\n    event CallbackAccepted(uint256 indexed _id, address _proposer, uint256 _price);\n\n    using SafeMath for uint256;\n\n    /**\n     * @dev Propose to buy the whole supply of a token.\n     * The proposer must hold minHoldingForCallback% of the total supply.\n     * StashBlox must approve the price with acceptCallback();\n     * @param id Token ID\n     * @param price proposed price\n     */\n    function proposeCallback(uint256 id, uint256 price) external payable {\n      require(_supplies[id] > 0, \"StashBlox: Unknown token.\");\n      require(price > 0, \"StashBlox: Price must be greater than 0.\");\n\n      uint256 minHolding = (_supplies[id].mul(_minHoldingForCallback[id])).div(10000);\n      require(_balances[id][msg.sender] >= minHolding, \"StashBlox: insufficient balance to propose a callback.\");\n\n      uint256 callbackAmount = _supplies[id].sub(_balances[id][msg.sender]);\n      uint256 callbackPrice = callbackAmount.mul(price);\n      require(msg.value >= callbackPrice, \"StashBlox: insufficient value for the proposed price.\");\n\n      _callbackPropositions[id][msg.sender] = [price, msg.value];\n      emit CallbackProposed(id, msg.sender, price);\n    }\n\n    /**\n     * @dev Refuse a callback if the price is not enough.\n     * @param id Token ID\n     * @param proposer address of the proposer\n     */\n    function refuseCallback(uint256 id, address proposer) external onlyOwner {\n      uint256 price = _callbackPropositions[id][proposer][0];\n      uint256 escrowedAmount = _callbackPropositions[id][proposer][1];\n\n      require(price > 0, \"StashBlox: callback proposition not found.\");\n\n      // return escrowed amount. Proposer must use withdraw() function to get\n      // escrowed amount.\n      _ETHBalances[proposer] += escrowedAmount;\n\n      _callbackPropositions[id][proposer] = [0, 0];\n      emit CallbackRefused(id, proposer, price);\n    }\n\n    /**\n     * @dev Accept a callback\n     * @param id Token ID\n     * @param proposer address of the proposer\n     */\n    function acceptCallback(uint256 id, address proposer) external onlyOwner {\n      uint256 price = _callbackPropositions[id][proposer][0];\n      uint256 escrowedAmount = _callbackPropositions[id][proposer][1];\n\n      require(price > 0, \"StashBlox: callback proposition not found.\");\n\n      uint256 minHolding = (_supplies[id].mul(_minHoldingForCallback[id])).div(10000);\n      require(_balances[id][msg.sender] >= minHolding, \"StashBlox: insufficient balance to execute the callback.\");\n\n      uint256 callbackAmount = _supplies[id].sub(_balances[id][msg.sender]);\n      uint256 callbackPrice = callbackAmount.mul(price);\n      require(escrowedAmount >= callbackPrice, \"StashBlox: insufficient escrowed value to execute the callback.\");\n\n      // move tokens to the proposer address and escrowed ETH to the holders addresses\n      // Holders must use withdraw() function to get paiement amount.\n      for (uint256 i = 0; i < _addressesByToken[id].length; ++i) {\n        address holderAddress = _addressesByToken[id][i];\n        uint256 holderBalance = _balances[id][holderAddress];\n        if (holderBalance > 0) {\n          uint256 holderPrice = price.mul(holderBalance);\n          _ETHBalances[holderAddress] += holderPrice;\n          _balances[id][holderAddress] = 0;\n        }\n      }\n      _balances[id][proposer] = _supplies[id];\n      if (escrowedAmount > callbackPrice) {\n        _ETHBalances[proposer] += escrowedAmount - callbackPrice;\n      }\n\n      _callbackPropositions[id][proposer] = [0, 0];\n      emit CallbackAccepted(id, proposer, price);\n    }\n}\n",
  "sourcePath": "/home/ouziel/Work/StashBloxContracts/contracts/StashBlox.sol",
  "compiler": {
    "name": "solc",
    "version": "0.7.1+commit.f4a555be.Emscripten.clang"
  },
  "schemaVersion": "3.2.3",
  "updatedAt": "2020-10-01T11:53:08.329Z",
  "devdoc": {
    "kind": "dev",
    "methods": {
      "acceptCallback(uint256,address)": {
        "details": "Accept a callback",
        "params": {
          "id": "Token ID",
          "proposer": "address of the proposer"
        }
      },
      "balanceOf(address,uint256)": {
        "details": "Get the specified address' balance for token with specified ID. Attempting to query the zero account for a balance will result in a revert.",
        "params": {
          "account": "The address of the token holder",
          "id": "ID of the token"
        },
        "returns": {
          "_0": "The account's balance of the token type requested"
        }
      },
      "balanceOfBatch(address[],uint256[])": {
        "details": "Get the balance of multiple account/token pairs. If any of the query accounts is the zero account, this query will revert.",
        "params": {
          "accounts": "The addresses of the token holders",
          "ids": "IDs of the tokens"
        },
        "returns": {
          "_0": "Balances for each account and token id pair"
        }
      },
      "createToken(address,uint256,uint256,uint256,uint256,uint256,address[],uint256[])": {
        "details": "Function to mint an amount of a token with the given ID.",
        "params": {
          "feesRecipients": "list of addresses receiving transfer fees",
          "feesRecipientsPercentage": "list of percentage, each one for the corresponding feesRecipients",
          "id": "ID of the token to be minted",
          "metadataHash": "Metadata file hash",
          "minHoldingForCallback": "minimum holding to propose a callback",
          "recipient": "The address that will own the minted tokens",
          "storageCreditCost": "cost for 24h storage in storageCredit (x 10 ^ 8 for the precision)",
          "supply": "Amount of the token to be minted"
        }
      },
      "isApprovedForAll(address,address)": {
        "params": {
          "account": "The account of the Tokens",
          "operator": "Address of authorized operator"
        },
        "returns": {
          "_0": "True if the operator is approved, false if not"
        }
      },
      "owner()": {
        "details": "Returns the address of the current owner."
      },
      "proposeCallback(uint256,uint256)": {
        "details": "Propose to buy the whole supply of a token. The proposer must hold minHoldingForCallback% of the total supply. StashBlox must approve the price with acceptCallback();",
        "params": {
          "id": "Token ID",
          "price": "proposed price"
        }
      },
      "refuseCallback(uint256,address)": {
        "details": "Refuse a callback if the price is not enough.",
        "params": {
          "id": "Token ID",
          "proposer": "address of the proposer"
        }
      },
      "safeBatchTransferFrom(address,address,uint256[],uint256[],bytes)": {
        "details": "Transfers `values` amount(s) of `ids` from the `from` address to the `to` address specified. Caller must be approved to manage the tokens being transferred out of the `from` account. If `to` is a smart contract, will call `onERC1155BatchReceived` on `to` and act appropriately.",
        "params": {
          "data": "Data forwarded to `onERC1155Received` if `to` is a contract receiver",
          "from": "Source address",
          "ids": "IDs of each token type",
          "to": "Target address",
          "values": "Transfer amounts per token type"
        }
      },
      "safeTransferFrom(address,address,uint256,uint256,bytes)": {
        "details": "Transfers `value` amount of an `id` from the `from` address to the `to` address specified. Caller must be approved to manage the tokens being transferred out of the `from` account. If `to` is a smart contract, will call `onERC1155Received` on `to` and act appropriately.",
        "params": {
          "data": "Data forwarded to `onERC1155Received` if `to` is a contract receiver",
          "from": "Source address",
          "id": "ID of the token type",
          "to": "Target address",
          "value": "Transfer amount"
        }
      },
      "setApprovalForAll(address,bool)": {
        "details": "Sets or unsets the approval of a given operator. An operator is allowed to transfer all tokens of the sender on their behalf. Because an account already has operator privileges for itself, this function will revert if the account attempts to set the approval status for itself.",
        "params": {
          "approved": "representing the status of the approval to be set",
          "operator": "address to set the approval"
        }
      },
      "supportsInterface(bytes4)": {
        "params": {
          "_interfaceID": "The interface identifier, as specified in ERC-165"
        },
        "returns": {
          "_0": "`true` if the contract implements `_interfaceID` and"
        }
      },
      "transferOwnership(address)": {
        "details": "Transfers ownership of the contract to a new account (`newOwner`). Can only be called by the current owner."
      },
      "uri(uint256)": {
        "params": {
          "id": "Token ID"
        },
        "returns": {
          "_0": "URI string"
        }
      }
    },
    "version": 1
  },
  "userdoc": {
    "kind": "user",
    "methods": {
      "isApprovedForAll(address,address)": {
        "notice": "Queries the approval status of an operator for a given account."
      },
      "supportsInterface(bytes4)": {
        "notice": "Query if a contract implements an interface"
      }
    },
    "version": 1
  }
}