{
  "contractName": "StashBlox",
  "abi": [
    {
      "inputs": [],
      "stateMutability": "nonpayable",
      "type": "constructor"
    },
    {
      "anonymous": false,
      "inputs": [
        {
          "indexed": true,
          "internalType": "address",
          "name": "_owner",
          "type": "address"
        },
        {
          "indexed": true,
          "internalType": "address",
          "name": "_operator",
          "type": "address"
        },
        {
          "indexed": false,
          "internalType": "bool",
          "name": "_approved",
          "type": "bool"
        }
      ],
      "name": "ApprovalForAll",
      "type": "event"
    },
    {
      "anonymous": false,
      "inputs": [
        {
          "indexed": true,
          "internalType": "uint256",
          "name": "_callbackId",
          "type": "uint256"
        }
      ],
      "name": "CallbackUpdated",
      "type": "event"
    },
    {
      "anonymous": false,
      "inputs": [
        {
          "indexed": true,
          "internalType": "address",
          "name": "previousOwner",
          "type": "address"
        },
        {
          "indexed": true,
          "internalType": "address",
          "name": "newOwner",
          "type": "address"
        }
      ],
      "name": "OwnershipTransferred",
      "type": "event"
    },
    {
      "anonymous": false,
      "inputs": [
        {
          "indexed": true,
          "internalType": "uint256",
          "name": "_id",
          "type": "uint256"
        },
        {
          "indexed": false,
          "internalType": "uint256",
          "name": "_documentHash",
          "type": "uint256"
        }
      ],
      "name": "TokenUpdated",
      "type": "event"
    },
    {
      "anonymous": false,
      "inputs": [
        {
          "indexed": true,
          "internalType": "address",
          "name": "_operator",
          "type": "address"
        },
        {
          "indexed": true,
          "internalType": "address",
          "name": "_from",
          "type": "address"
        },
        {
          "indexed": true,
          "internalType": "address",
          "name": "_to",
          "type": "address"
        },
        {
          "indexed": false,
          "internalType": "uint256[]",
          "name": "_ids",
          "type": "uint256[]"
        },
        {
          "indexed": false,
          "internalType": "uint256[]",
          "name": "_values",
          "type": "uint256[]"
        }
      ],
      "name": "TransferBatch",
      "type": "event"
    },
    {
      "anonymous": false,
      "inputs": [
        {
          "indexed": true,
          "internalType": "address",
          "name": "_operator",
          "type": "address"
        },
        {
          "indexed": true,
          "internalType": "address",
          "name": "_from",
          "type": "address"
        },
        {
          "indexed": true,
          "internalType": "address",
          "name": "_to",
          "type": "address"
        },
        {
          "indexed": false,
          "internalType": "uint256",
          "name": "_id",
          "type": "uint256"
        },
        {
          "indexed": false,
          "internalType": "uint256",
          "name": "_value",
          "type": "uint256"
        }
      ],
      "name": "TransferSingle",
      "type": "event"
    },
    {
      "anonymous": false,
      "inputs": [
        {
          "indexed": false,
          "internalType": "string",
          "name": "_value",
          "type": "string"
        },
        {
          "indexed": true,
          "internalType": "uint256",
          "name": "_id",
          "type": "uint256"
        }
      ],
      "name": "URI",
      "type": "event"
    },
    {
      "inputs": [
        {
          "internalType": "uint256",
          "name": "",
          "type": "uint256"
        }
      ],
      "name": "_callbacks",
      "outputs": [
        {
          "internalType": "uint256",
          "name": "tokenId",
          "type": "uint256"
        },
        {
          "internalType": "uint256",
          "name": "price",
          "type": "uint256"
        },
        {
          "internalType": "uint256",
          "name": "escrowedAmount",
          "type": "uint256"
        },
        {
          "internalType": "uint256",
          "name": "callCounter",
          "type": "uint256"
        },
        {
          "internalType": "uint256",
          "name": "documentHash",
          "type": "uint256"
        },
        {
          "internalType": "address",
          "name": "caller",
          "type": "address"
        },
        {
          "internalType": "bool",
          "name": "needLegalApproval",
          "type": "bool"
        },
        {
          "internalType": "bool",
          "name": "approvedByLegal",
          "type": "bool"
        },
        {
          "internalType": "bool",
          "name": "refused",
          "type": "bool"
        },
        {
          "internalType": "bool",
          "name": "accepted",
          "type": "bool"
        },
        {
          "internalType": "bool",
          "name": "completed",
          "type": "bool"
        }
      ],
      "stateMutability": "view",
      "type": "function"
    },
    {
      "inputs": [],
      "name": "_config",
      "outputs": [
        {
          "internalType": "uint256",
          "name": "callbackAutoExecuteMaxAddresses",
          "type": "uint256"
        },
        {
          "internalType": "string",
          "name": "baseURI",
          "type": "string"
        },
        {
          "internalType": "address",
          "name": "owner",
          "type": "address"
        }
      ],
      "stateMutability": "view",
      "type": "function"
    },
    {
      "inputs": [
        {
          "internalType": "uint256",
          "name": "",
          "type": "uint256"
        }
      ],
      "name": "_tokens",
      "outputs": [
        {
          "internalType": "uint256",
          "name": "supply",
          "type": "uint256"
        },
        {
          "internalType": "uint256",
          "name": "decimals",
          "type": "uint256"
        },
        {
          "internalType": "uint256",
          "name": "lumpSumTransactionFees",
          "type": "uint256"
        },
        {
          "internalType": "uint256",
          "name": "valueTransactionFees",
          "type": "uint256"
        },
        {
          "internalType": "uint256",
          "name": "minHoldingForCallback",
          "type": "uint256"
        },
        {
          "internalType": "uint256",
          "name": "metadataHash",
          "type": "uint256"
        },
        {
          "internalType": "address",
          "name": "legalAuthority",
          "type": "address"
        },
        {
          "internalType": "bool",
          "name": "isPrivate",
          "type": "bool"
        },
        {
          "internalType": "bool",
          "name": "locked",
          "type": "bool"
        }
      ],
      "stateMutability": "view",
      "type": "function"
    },
    {
      "inputs": [
        {
          "internalType": "address",
          "name": "",
          "type": "address"
        }
      ],
      "name": "_users",
      "outputs": [
        {
          "internalType": "bool",
          "name": "isTokenizer",
          "type": "bool"
        },
        {
          "internalType": "bool",
          "name": "isLocked",
          "type": "bool"
        },
        {
          "internalType": "uint256",
          "name": "ETHBalance",
          "type": "uint256"
        }
      ],
      "stateMutability": "view",
      "type": "function"
    },
    {
      "inputs": [
        {
          "internalType": "uint256",
          "name": "callbackId",
          "type": "uint256"
        }
      ],
      "name": "acceptCallback",
      "outputs": [],
      "stateMutability": "nonpayable",
      "type": "function"
    },
    {
      "inputs": [
        {
          "internalType": "uint256",
          "name": "callbackId",
          "type": "uint256"
        }
      ],
      "name": "approveCallback",
      "outputs": [],
      "stateMutability": "nonpayable",
      "type": "function"
    },
    {
      "inputs": [
        {
          "internalType": "uint256",
          "name": "id",
          "type": "uint256"
        },
        {
          "internalType": "address",
          "name": "holder",
          "type": "address"
        }
      ],
      "name": "approveHolder",
      "outputs": [],
      "stateMutability": "nonpayable",
      "type": "function"
    },
    {
      "inputs": [
        {
          "internalType": "uint256",
          "name": "id",
          "type": "uint256"
        },
        {
          "internalType": "address",
          "name": "maintener",
          "type": "address"
        }
      ],
      "name": "authorizeMaintener",
      "outputs": [],
      "stateMutability": "nonpayable",
      "type": "function"
    },
    {
      "inputs": [
        {
          "internalType": "address",
          "name": "tokenizer",
          "type": "address"
        }
      ],
      "name": "authorizeTokenizer",
      "outputs": [],
      "stateMutability": "nonpayable",
      "type": "function"
    },
    {
      "inputs": [
        {
          "internalType": "address",
          "name": "account",
          "type": "address"
        },
        {
          "internalType": "uint256",
          "name": "id",
          "type": "uint256"
        }
      ],
      "name": "averageAge",
      "outputs": [
        {
          "internalType": "uint256",
          "name": "",
          "type": "uint256"
        }
      ],
      "stateMutability": "view",
      "type": "function"
    },
    {
      "inputs": [
        {
          "internalType": "address",
          "name": "account",
          "type": "address"
        },
        {
          "internalType": "uint256",
          "name": "id",
          "type": "uint256"
        }
      ],
      "name": "balanceOf",
      "outputs": [
        {
          "internalType": "uint256",
          "name": "",
          "type": "uint256"
        }
      ],
      "stateMutability": "view",
      "type": "function"
    },
    {
      "inputs": [
        {
          "internalType": "address[]",
          "name": "accounts",
          "type": "address[]"
        },
        {
          "internalType": "uint256[]",
          "name": "ids",
          "type": "uint256[]"
        }
      ],
      "name": "balanceOfBatch",
      "outputs": [
        {
          "internalType": "uint256[]",
          "name": "",
          "type": "uint256[]"
        }
      ],
      "stateMutability": "view",
      "type": "function"
    },
    {
      "inputs": [
        {
          "internalType": "uint256",
          "name": "id",
          "type": "uint256"
        },
        {
          "internalType": "uint256[]",
          "name": "ids",
          "type": "uint256[]"
        },
        {
          "internalType": "uint256[]",
          "name": "metadataHashes",
          "type": "uint256[]"
        }
      ],
      "name": "cloneToken",
      "outputs": [],
      "stateMutability": "nonpayable",
      "type": "function"
    },
    {
      "inputs": [
        {
          "internalType": "address",
          "name": "recipient",
          "type": "address"
        },
        {
          "internalType": "uint256",
          "name": "id",
          "type": "uint256"
        },
        {
          "internalType": "uint256",
          "name": "supply",
          "type": "uint256"
        },
        {
          "internalType": "uint256",
          "name": "decimals",
          "type": "uint256"
        },
        {
          "internalType": "uint256",
          "name": "metadataHash",
          "type": "uint256"
        },
        {
          "internalType": "uint256[3]",
          "name": "transactionFees",
          "type": "uint256[3]"
        },
        {
          "internalType": "address[]",
          "name": "feesRecipients",
          "type": "address[]"
        },
        {
          "internalType": "uint256[]",
          "name": "feesRecipientsPercentage",
          "type": "uint256[]"
        },
        {
          "internalType": "uint256",
          "name": "minHoldingForCallback",
          "type": "uint256"
        },
        {
          "internalType": "bool",
          "name": "isPrivate",
          "type": "bool"
        },
        {
          "internalType": "address",
          "name": "legalAuthority",
          "type": "address"
        }
      ],
      "name": "createToken",
      "outputs": [],
      "stateMutability": "nonpayable",
      "type": "function"
    },
    {
      "inputs": [
        {
          "internalType": "address",
          "name": "to",
          "type": "address"
        }
      ],
      "name": "deposit",
      "outputs": [],
      "stateMutability": "payable",
      "type": "function"
    },
    {
      "inputs": [
        {
          "internalType": "uint256",
          "name": "callbackId",
          "type": "uint256"
        },
        {
          "internalType": "uint256",
          "name": "maxCall",
          "type": "uint256"
        }
      ],
      "name": "executeCallback",
      "outputs": [],
      "stateMutability": "nonpayable",
      "type": "function"
    },
    {
      "inputs": [
        {
          "internalType": "address",
          "name": "account",
          "type": "address"
        },
        {
          "internalType": "address",
          "name": "operator",
          "type": "address"
        }
      ],
      "name": "isApprovedForAll",
      "outputs": [
        {
          "internalType": "bool",
          "name": "",
          "type": "bool"
        }
      ],
      "stateMutability": "view",
      "type": "function"
    },
    {
      "inputs": [
        {
          "internalType": "address",
          "name": "addr",
          "type": "address"
        }
      ],
      "name": "isLockedAddress",
      "outputs": [
        {
          "internalType": "bool",
          "name": "",
          "type": "bool"
        }
      ],
      "stateMutability": "view",
      "type": "function"
    },
    {
      "inputs": [
        {
          "internalType": "uint256",
          "name": "id",
          "type": "uint256"
        }
      ],
      "name": "isLockedToken",
      "outputs": [
        {
          "internalType": "bool",
          "name": "",
          "type": "bool"
        }
      ],
      "stateMutability": "view",
      "type": "function"
    },
    {
      "inputs": [
        {
          "internalType": "uint256",
          "name": "id",
          "type": "uint256"
        },
        {
          "internalType": "address",
          "name": "maintener",
          "type": "address"
        }
      ],
      "name": "isMaintener",
      "outputs": [
        {
          "internalType": "bool",
          "name": "",
          "type": "bool"
        }
      ],
      "stateMutability": "view",
      "type": "function"
    },
    {
      "inputs": [
        {
          "internalType": "address",
          "name": "tokenizer",
          "type": "address"
        }
      ],
      "name": "isTokenizer",
      "outputs": [
        {
          "internalType": "bool",
          "name": "",
          "type": "bool"
        }
      ],
      "stateMutability": "view",
      "type": "function"
    },
    {
      "inputs": [
        {
          "internalType": "address",
          "name": "addr",
          "type": "address"
        }
      ],
      "name": "lockAddress",
      "outputs": [],
      "stateMutability": "nonpayable",
      "type": "function"
    },
    {
      "inputs": [
        {
          "internalType": "uint256",
          "name": "id",
          "type": "uint256"
        },
        {
          "internalType": "uint256",
          "name": "documentHash",
          "type": "uint256"
        }
      ],
      "name": "lockToken",
      "outputs": [],
      "stateMutability": "nonpayable",
      "type": "function"
    },
    {
      "inputs": [],
      "name": "owner",
      "outputs": [
        {
          "internalType": "address",
          "name": "",
          "type": "address"
        }
      ],
      "stateMutability": "view",
      "type": "function"
    },
    {
      "inputs": [
        {
          "internalType": "uint256",
          "name": "callbackId",
          "type": "uint256"
        },
        {
          "internalType": "uint256",
          "name": "tokenId",
          "type": "uint256"
        },
        {
          "internalType": "uint256",
          "name": "price",
          "type": "uint256"
        },
        {
          "internalType": "address[]",
          "name": "callees",
          "type": "address[]"
        },
        {
          "internalType": "uint256",
          "name": "documentHash",
          "type": "uint256"
        }
      ],
      "name": "proposeCallback",
      "outputs": [],
      "stateMutability": "payable",
      "type": "function"
    },
    {
      "inputs": [
        {
          "internalType": "uint256",
          "name": "callbackId",
          "type": "uint256"
        }
      ],
      "name": "refuseCallback",
      "outputs": [],
      "stateMutability": "nonpayable",
      "type": "function"
    },
    {
      "inputs": [
        {
          "internalType": "uint256",
          "name": "id",
          "type": "uint256"
        },
        {
          "internalType": "address",
          "name": "holder",
          "type": "address"
        }
      ],
      "name": "revokeHolder",
      "outputs": [],
      "stateMutability": "nonpayable",
      "type": "function"
    },
    {
      "inputs": [
        {
          "internalType": "uint256",
          "name": "id",
          "type": "uint256"
        },
        {
          "internalType": "address",
          "name": "maintener",
          "type": "address"
        }
      ],
      "name": "revokeMaintener",
      "outputs": [],
      "stateMutability": "nonpayable",
      "type": "function"
    },
    {
      "inputs": [
        {
          "internalType": "address",
          "name": "tokenizer",
          "type": "address"
        }
      ],
      "name": "revokeTokenizer",
      "outputs": [],
      "stateMutability": "nonpayable",
      "type": "function"
    },
    {
      "inputs": [
        {
          "internalType": "address",
          "name": "from",
          "type": "address"
        },
        {
          "internalType": "address",
          "name": "to",
          "type": "address"
        },
        {
          "internalType": "uint256[]",
          "name": "ids",
          "type": "uint256[]"
        },
        {
          "internalType": "uint256[]",
          "name": "values",
          "type": "uint256[]"
        },
        {
          "internalType": "bytes",
          "name": "data",
          "type": "bytes"
        }
      ],
      "name": "safeBatchTransferFrom",
      "outputs": [],
      "stateMutability": "payable",
      "type": "function"
    },
    {
      "inputs": [
        {
          "internalType": "address",
          "name": "from",
          "type": "address"
        },
        {
          "internalType": "address",
          "name": "to",
          "type": "address"
        },
        {
          "internalType": "uint256",
          "name": "id",
          "type": "uint256"
        },
        {
          "internalType": "uint256",
          "name": "value",
          "type": "uint256"
        },
        {
          "internalType": "bytes",
          "name": "data",
          "type": "bytes"
        }
      ],
      "name": "safeTransferFrom",
      "outputs": [],
      "stateMutability": "payable",
      "type": "function"
    },
    {
      "inputs": [
        {
          "internalType": "address",
          "name": "operator",
          "type": "address"
        },
        {
          "internalType": "bool",
          "name": "approved",
          "type": "bool"
        }
      ],
      "name": "setApprovalForAll",
      "outputs": [],
      "stateMutability": "nonpayable",
      "type": "function"
    },
    {
      "inputs": [
        {
          "internalType": "uint256",
          "name": "newMax",
          "type": "uint256"
        }
      ],
      "name": "setCallbackAutoExecuteMaxAddresses",
      "outputs": [],
      "stateMutability": "nonpayable",
      "type": "function"
    },
    {
      "inputs": [
        {
          "internalType": "address[10]",
          "name": "proxyAddresses",
          "type": "address[10]"
        }
      ],
      "name": "setProxyRegistryAddress",
      "outputs": [],
      "stateMutability": "nonpayable",
      "type": "function"
    },
    {
      "inputs": [
        {
          "internalType": "bytes4",
          "name": "_interfaceID",
          "type": "bytes4"
        }
      ],
      "name": "supportsInterface",
      "outputs": [
        {
          "internalType": "bool",
          "name": "",
          "type": "bool"
        }
      ],
      "stateMutability": "pure",
      "type": "function"
    },
    {
      "inputs": [
        {
          "internalType": "address",
          "name": "account",
          "type": "address"
        },
        {
          "internalType": "uint256",
          "name": "id",
          "type": "uint256"
        },
        {
          "internalType": "uint256",
          "name": "value",
          "type": "uint256"
        }
      ],
      "name": "transactionFees",
      "outputs": [
        {
          "internalType": "uint256",
          "name": "",
          "type": "uint256"
        }
      ],
      "stateMutability": "view",
      "type": "function"
    },
    {
      "inputs": [
        {
          "internalType": "address",
          "name": "newOwner",
          "type": "address"
        }
      ],
      "name": "transferOwnership",
      "outputs": [],
      "stateMutability": "nonpayable",
      "type": "function"
    },
    {
      "inputs": [
        {
          "internalType": "address",
          "name": "addr",
          "type": "address"
        }
      ],
      "name": "unlockAddress",
      "outputs": [],
      "stateMutability": "nonpayable",
      "type": "function"
    },
    {
      "inputs": [
        {
          "internalType": "uint256",
          "name": "id",
          "type": "uint256"
        },
        {
          "internalType": "uint256",
          "name": "documentHash",
          "type": "uint256"
        }
      ],
      "name": "unlockToken",
      "outputs": [],
      "stateMutability": "nonpayable",
      "type": "function"
    },
    {
      "inputs": [
        {
          "internalType": "uint256",
          "name": "id",
          "type": "uint256"
        },
        {
          "internalType": "uint256",
          "name": "metadataHash",
          "type": "uint256"
        },
        {
          "internalType": "uint256[3]",
          "name": "transactionFees",
          "type": "uint256[3]"
        },
        {
          "internalType": "address[]",
          "name": "feesRecipients",
          "type": "address[]"
        },
        {
          "internalType": "uint256[]",
          "name": "feesRecipientsPercentage",
          "type": "uint256[]"
        },
        {
          "internalType": "uint256",
          "name": "minHoldingForCallback",
          "type": "uint256"
        },
        {
          "internalType": "bool",
          "name": "isPrivate",
          "type": "bool"
        },
        {
          "internalType": "address",
          "name": "legalAuthority",
          "type": "address"
        }
      ],
      "name": "updateToken",
      "outputs": [],
      "stateMutability": "nonpayable",
      "type": "function"
    },
    {
      "inputs": [
        {
          "internalType": "address",
          "name": "to",
          "type": "address"
        },
        {
          "internalType": "uint256",
          "name": "amount",
          "type": "uint256"
        }
      ],
      "name": "withdraw",
      "outputs": [],
      "stateMutability": "nonpayable",
      "type": "function"
    },
    {
      "stateMutability": "payable",
      "type": "receive"
    },
    {
      "inputs": [
        {
          "internalType": "uint256",
          "name": "id",
          "type": "uint256"
        }
      ],
      "name": "uri",
      "outputs": [
        {
          "internalType": "string",
          "name": "",
          "type": "string"
        }
      ],
      "stateMutability": "view",
      "type": "function"
    }
  ],
  "bytecode": "0x60806040523480156200001157600080fd5b506200001d336200007a565b603260005560408051808201909152601c8082527f687474703a2f2f7374617368626c6f782e636f6d2f746f6b656e732f000000006020909201918252620000689160019162000137565b5062000074336200007a565b620001d3565b6001600160a01b038116620000db576040517f08c379a0000000000000000000000000000000000000000000000000000000008152600401808060200182810382526026815260200180620054116026913960400191505060405180910390fd5b600c546040516001600160a01b038084169216907f8be0079c531659141344cd1fd0a4f28419497f9722a3daafe3b4186f6b6457e090600090a3600c80546001600160a01b0319166001600160a01b0392909216919091179055565b828054600181600116156101000203166002900490600052602060002090601f016020900481019282601f106200017a57805160ff1916838001178555620001aa565b82800160010185558215620001aa579182015b82811115620001aa5782518255916020019190600101906200018d565b50620001b8929150620001bc565b5090565b5b80821115620001b85760008155600101620001bd565b61522e80620001e36000396000f3fe6080604052600436106102545760003560e01c80638f96f13111610139578063d1660e18116100b6578063f242432a1161007a578063f242432a14611148578063f2fde38b146111db578063f340fa011461120e578063f3fef3a314611234578063f8a5a07c1461126d578063fc3fcec7146113a45761028b565b8063d1660e1814610f61578063d41d0aa314610fa0578063d842b67314610fd9578063e985e9c51461108f578063ed70554d146110ca5761028b565b8063bba75c83116100fd578063bba75c8314610d0a578063c02f303c14610d34578063c255620a14610d67578063c40b87ae14610d91578063cba54e6014610f2e5761028b565b80638f96f13114610c12578063a22cb46514610c3c578063aba7fe8a14610c77578063b7eb5e0a14610ca7578063baa3411014610cda5761028b565b80634392e577116101d25780635dd2b9a6116101965780635dd2b9a614610ad0578063759c521414610b095780637627b73214610b425780638870147b14610b755780638aeba37e14610ba85780638da5cb5b14610be15761028b565b80634392e577146106fb5780634ab0d2531461075c5780634e1273f4146108de578063585941d514610a5e5780635dafec1b14610a975761028b565b806331d5f78c1161021957806331d5f78c1461058f57806334a90d02146105b9578063369c37e9146105ec5780633cacd7d614610616578063414ed0ce146106695761028b565b8062fdd58e1461029057806301ffc9a7146102db5780630e89341c146103235780632eb2c2d6146103c25780632ed42bf7146104eb5761028b565b3661028b57336000908152600d602052604090206001015461027690346113d4565b336000908152600d6020526040902060010155005b600080fd5b34801561029c57600080fd5b506102c9600480360360408110156102b357600080fd5b506001600160a01b038135169060200135611437565b60408051918252519081900360200190f35b3480156102e757600080fd5b5061030f600480360360208110156102fe57600080fd5b50356001600160e01b0319166114aa565b604080519115158252519081900360200190f35b34801561032f57600080fd5b5061034d6004803603602081101561034657600080fd5b50356114f1565b6040805160208082528351818301528351919283929083019185019080838360005b8381101561038757818101518382015260200161036f565b50505050905090810190601f1680156103b45780820380516001836020036101000a031916815260200191505b509250505060405180910390f35b6104e9600480360360a08110156103d857600080fd5b6001600160a01b038235811692602081013590911691810190606081016040820135600160201b81111561040b57600080fd5b82018360208201111561041d57600080fd5b803590602001918460208302840111600160201b8311171561043e57600080fd5b919390929091602081019035600160201b81111561045b57600080fd5b82018360208201111561046d57600080fd5b803590602001918460208302840111600160201b8311171561048e57600080fd5b919390929091602081019035600160201b8111156104ab57600080fd5b8201836020820111156104bd57600080fd5b803590602001918460018302840111600160201b831117156104de57600080fd5b509092509050611592565b005b3480156104f757600080fd5b50610500611840565b6040518084815260200180602001836001600160a01b03168152602001828103825284818151815260200191508051906020019080838360005b8381101561055257818101518382015260200161053a565b50505050905090810190601f16801561057f5780820380516001836020036101000a031916815260200191505b5094505050505060405180910390f35b34801561059b57600080fd5b506104e9600480360360208110156105b257600080fd5b50356118e5565b3480156105c557600080fd5b506104e9600480360360208110156105dc57600080fd5b50356001600160a01b0316611ac3565b3480156105f857600080fd5b506104e96004803603602081101561060f57600080fd5b5035611b30565b34801561062257600080fd5b506106496004803603602081101561063957600080fd5b50356001600160a01b0316611b7c565b604080519315158452911515602084015282820152519081900360600190f35b34801561067557600080fd5b506106936004803603602081101561068c57600080fd5b5035611ba2565b604080519b8c5260208c019a909a528a8a019890985260608a019690965260808901949094526001600160a01b0390921660a0880152151560c0870152151560e086015215156101008501521515610120840152151561014083015251908190036101600190f35b34801561070757600080fd5b506104e9600480360361014081101561071f57600080fd5b81019080806101400190600a806020026040519081016040528092919082600a60200280828437600092019190915250919450611c159350505050565b34801561076857600080fd5b506104e9600480360361014081101561078057600080fd5b6040805160608181018352843594602081013594810193909260a08401929091840190600390839083908082843760009201919091525091949392602081019250359050600160201b8111156107d557600080fd5b8201836020820111156107e757600080fd5b803590602001918460208302840111600160201b8311171561080857600080fd5b9190808060200260200160405190810160405280939291908181526020018383602002808284376000920191909152509295949360208101935035915050600160201b81111561085757600080fd5b82018360208201111561086957600080fd5b803590602001918460208302840111600160201b8311171561088a57600080fd5b919080806020026020016040519081016040528093929190818152602001838360200280828437600092019190915250929550508235935050506020810135151590604001356001600160a01b0316611c6d565b3480156108ea57600080fd5b50610a0e6004803603604081101561090157600080fd5b810190602081018135600160201b81111561091b57600080fd5b82018360208201111561092d57600080fd5b803590602001918460208302840111600160201b8311171561094e57600080fd5b9190808060200260200160405190810160405280939291908181526020018383602002808284376000920191909152509295949360208101935035915050600160201b81111561099d57600080fd5b8201836020820111156109af57600080fd5b803590602001918460208302840111600160201b831117156109d057600080fd5b919080806020026020016040519081016040528093929190818152602001838360200280828437600092019190915250929550611d58945050505050565b60408051602080825283518183015283519192839290830191858101910280838360005b83811015610a4a578181015183820152602001610a32565b505050509050019250505060405180910390f35b348015610a6a57600080fd5b506102c960048036036040811015610a8157600080fd5b506001600160a01b038135169060200135611edc565b348015610aa357600080fd5b5061030f60048036036040811015610aba57600080fd5b50803590602001356001600160a01b0316611f10565b348015610adc57600080fd5b506104e960048036036040811015610af357600080fd5b50803590602001356001600160a01b0316611f1c565b348015610b1557600080fd5b506104e960048036036040811015610b2c57600080fd5b50803590602001356001600160a01b0316611fa2565b348015610b4e57600080fd5b506104e960048036036020811015610b6557600080fd5b50356001600160a01b0316612023565b348015610b8157600080fd5b506104e960048036036020811015610b9857600080fd5b50356001600160a01b031661208e565b348015610bb457600080fd5b506104e960048036036040811015610bcb57600080fd5b50803590602001356001600160a01b03166120f6565b348015610bed57600080fd5b50610bf6612174565b604080516001600160a01b039092168252519081900360200190f35b348015610c1e57600080fd5b506104e960048036036020811015610c3557600080fd5b5035612183565b348015610c4857600080fd5b506104e960048036036040811015610c5f57600080fd5b506001600160a01b03813516906020013515156123bc565b348015610c8357600080fd5b506104e960048036036040811015610c9a57600080fd5b5080359060200135612476565b348015610cb357600080fd5b506104e960048036036020811015610cca57600080fd5b50356001600160a01b03166124cf565b348015610ce657600080fd5b506104e960048036036040811015610cfd57600080fd5b5080359060200135612538565b348015610d1657600080fd5b5061030f60048036036020811015610d2d57600080fd5b503561258c565b348015610d4057600080fd5b5061030f60048036036020811015610d5757600080fd5b50356001600160a01b0316612597565b348015610d7357600080fd5b506104e960048036036020811015610d8a57600080fd5b50356125a2565b348015610d9d57600080fd5b506104e960048036036101a0811015610db557600080fd5b60408051606081810183526001600160a01b03853516946020810135949381013593828201359360808301359391830192916101008301919060a0840190600390839083908082843760009201919091525091949392602081019250359050600160201b811115610e2557600080fd5b820183602082011115610e3757600080fd5b803590602001918460208302840111600160201b83111715610e5857600080fd5b9190808060200260200160405190810160405280939291908181526020018383602002808284376000920191909152509295949360208101935035915050600160201b811115610ea757600080fd5b820183602082011115610eb957600080fd5b803590602001918460208302840111600160201b83111715610eda57600080fd5b919080806020026020016040519081016040528093929190818152602001838360200280828437600092019190915250929550508235935050506020810135151590604001356001600160a01b0316612813565b348015610f3a57600080fd5b5061030f60048036036020811015610f5157600080fd5b50356001600160a01b03166128b4565b348015610f6d57600080fd5b506102c960048036036060811015610f8457600080fd5b506001600160a01b0381351690602081013590604001356128bf565b348015610fac57600080fd5b506104e960048036036040811015610fc357600080fd5b50803590602001356001600160a01b03166128d4565b6104e9600480360360a0811015610fef57600080fd5b81359160208101359160408201359190810190608081016060820135600160201b81111561101c57600080fd5b82018360208201111561102e57600080fd5b803590602001918460208302840111600160201b8311171561104f57600080fd5b919080806020026020016040519081016040528093929190818152602001838360200280828437600092019190915250929550509135925061294f915050565b34801561109b57600080fd5b5061030f600480360360408110156110b257600080fd5b506001600160a01b0381358116916020013516612bdb565b3480156110d657600080fd5b506110f4600480360360208110156110ed57600080fd5b5035612be7565b60408051998a5260208a0198909852888801969096526060880194909452608087019290925260a08601526001600160a01b031660c0850152151560e0840152151561010083015251908190036101200190f35b6104e9600480360360a081101561115e57600080fd5b6001600160a01b03823581169260208101359091169160408201359160608101359181019060a081016080820135600160201b81111561119d57600080fd5b8201836020820111156111af57600080fd5b803590602001918460018302840111600160201b831117156111d057600080fd5b509092509050612c43565b3480156111e757600080fd5b506104e9600480360360208110156111fe57600080fd5b50356001600160a01b0316612d88565b6104e96004803603602081101561122457600080fd5b50356001600160a01b0316612ddb565b34801561124057600080fd5b506104e96004803603604081101561125757600080fd5b506001600160a01b038135169060200135612e20565b34801561127957600080fd5b506104e96004803603606081101561129057600080fd5b81359190810190604081016020820135600160201b8111156112b157600080fd5b8201836020820111156112c357600080fd5b803590602001918460208302840111600160201b831117156112e457600080fd5b9190808060200260200160405190810160405280939291908181526020018383602002808284376000920191909152509295949360208101935035915050600160201b81111561133357600080fd5b82018360208201111561134557600080fd5b803590602001918460208302840111600160201b8311171561136657600080fd5b919080806020026020016040519081016040528093929190818152602001838360200280828437600092019190915250929550612f48945050505050565b3480156113b057600080fd5b506104e9600480360360408110156113c757600080fd5b50803590602001356130cd565b60008282018381101561142e576040805162461bcd60e51b815260206004820152601b60248201527f536166654d6174683a206164646974696f6e206f766572666c6f770000000000604482015290519081900360640190fd5b90505b92915050565b60006001600160a01b03831661147e5760405162461bcd60e51b815260040180806020018281038252602b815260200180614f6f602b913960400191505060405180910390fd5b506000908152600e602090815260408083206001600160a01b0394909416835260079093019052205490565b60006001600160e01b031982166301ffc9a760e01b14806114db57506001600160e01b03198216636cdb3d1360e11b145b156114e8575060016114ec565b5060005b919050565b60018054604080516020600284861615610100026000190190941693909304601f8101849004840282018401909252818152606093611431939192909183018282801561157f5780601f106115545761010080835404028352916020019161157f565b820191906000526020600020905b81548152906001019060200180831161156257829003601f168201915b505050505061158d84613291565b61334d565b8483146115d05760405162461bcd60e51b815260040180806020018281038252602e81526020018061519a602e913960400191505060405180910390fd5b6001600160a01b0387166116155760405162461bcd60e51b81526004018080602001828103825260288152602001806150006028913960400191505060405180910390fd5b6001600160a01b03881633148061163757506116318833612bdb565b15156001145b6116725760405162461bcd60e51b81526004018080602001828103825260378152602001806151636037913960400191505060405180910390fd5b6116e1888888888080602002602001604051908101604052809392919081815260200183836020028082843760009201919091525050604080516020808c0282810182019093528b82529093508b92508a91829185019084908082843760009201919091525061345792505050565b866001600160a01b0316886001600160a01b0316336001600160a01b03167f4a39dc06d4c0dbc64b70af90fd698a233a518aa5d07e595d983b8c0526c8f7fb898989896040518080602001806020018381038352878782818152602001925060200280828437600083820152601f01601f19169091018481038352858152602090810191508690860280828437600083820152604051601f909101601f19169092018290039850909650505050505050a461183633898989898080602002602001604051908101604052809392919081815260200183836020028082843760009201919091525050604080516020808d0282810182019093528c82529093508c92508b91829185019084908082843760009201919091525050604080516020601f8c018190048102820181019092528a815292508a915089908190840183828082843760009201919091525061351192505050565b5050505050505050565b6000805460018054604080516020600284861615610100026000190190941693909304601f810184900484028201840190925281815293949392918301828280156118cc5780601f106118a1576101008083540402835291602001916118cc565b820191906000526020600020905b8154815290600101906020018083116118af57829003601f168201915b505050600c90930154919250506001600160a01b031683565b6118ed614d86565b6000828152600f602090815260409182902082516101808101845281548152600182015481840152600282015481850152600382015460608201526004820154608082015260058201546001600160a01b03811660a083015260ff600160a01b82048116151560c0840152600160a81b82048116151560e0840152600160b01b820481161515610100840152600160b81b820481161515610120840152600160c01b9091041615156101408201526006820180548551818602810186019096528086529194929361016086019392908301828280156119f557602002820191906000526020600020905b81546001600160a01b031681526001909101906020018083116119d7575b50505091909252505081519192505015801590611a1957508051611a199033613702565b8015611a285750610100810151155b8015611a375750610120810151155b611a88576040805162461bcd60e51b815260206004820152601f60248201527f496e76616c696420617267756d656e7473206f72207065726d697373696f6e00604482015290519081900360640190fd5b6000828152600f6020526040808220600501805460ff60a81b1916600160a81b179055518391600080516020614fe083398151915291a25050565b611acb613726565b611b0a576040805162461bcd60e51b81526020600482018190526024820152600080516020615143833981519152604482015290519081900360640190fd5b6001600160a01b03166000908152600d60205260409020805461ff001916610100179055565b611b38613726565b611b77576040805162461bcd60e51b81526020600482018190526024820152600080516020615143833981519152604482015290519081900360640190fd5b600055565b600d602052600090815260409020805460019091015460ff808316926101009004169083565b600f6020526000908152604090208054600182015460028301546003840154600485015460059095015493949293919290916001600160a01b0381169060ff600160a01b8204811691600160a81b8104821691600160b01b8204811691600160b81b8104821691600160c01b909104168b565b611c1d613726565b611c5c576040805162461bcd60e51b81526020600482018190526024820152600080516020615143833981519152604482015290519081900360640190fd5b611c69600282600a614dfa565b5050565b87611c788133613737565b611cb7576040805162461bcd60e51b81526020600482015260176024820152600080516020614f9a833981519152604482015290519081900360640190fd5b6000898152600e6020526040902054611d07576040805162461bcd60e51b815260206004820152600d60248201526c2ab735b737bbb7103a37b5b2b760991b604482015290519081900360640190fd5b611d178989898989898989613771565b6040805189815290518a917f199acc06cd2556bbc146fa3cb578799037dffcbf256eca32aaf2ef656925d2fd919081900360200190a2505050505050505050565b60608151835114611d9a5760405162461bcd60e51b81526004018080602001828103825260308152602001806150546030913960400191505060405180910390fd5b6060835167ffffffffffffffff81118015611db457600080fd5b50604051908082528060200260200182016040528015611dde578160200160208202803683370190505b50905060005b8451811015611ed45760006001600160a01b0316858281518110611e0457fe5b60200260200101516001600160a01b03161415611e525760405162461bcd60e51b81526004018080602001828103825260348152602001806150ba6034913960400191505060405180910390fd5b600e6000858381518110611e6257fe5b602002602001015181526020019081526020016000206007016000868381518110611e8957fe5b60200260200101516001600160a01b03166001600160a01b0316815260200190815260200160002060000154828281518110611ec157fe5b6020908102919091010152600101611de4565b509392505050565b6000818152600e602090815260408083206001600160a01b038616845260070190915281206001015461142e904290613915565b600061142e8383613737565b81611f278133613737565b611f66576040805162461bcd60e51b81526020600482015260176024820152600080516020614f9a833981519152604482015290519081900360640190fd5b506000918252600e602090815260408084206001600160a01b039093168452600790920190529020600201805462ff0000191662010000179055565b81611fad8133613737565b611fec576040805162461bcd60e51b81526020600482015260176024820152600080516020614f9a833981519152604482015290519081900360640190fd5b506000918252600e602090815260408084206001600160a01b039093168452600790920190529020600201805462ff000019169055565b61202b613726565b61206a576040805162461bcd60e51b81526020600482018190526024820152600080516020615143833981519152604482015290519081900360640190fd5b6001600160a01b03166000908152600d60205260409020805460ff19166001179055565b612096613726565b6120d5576040805162461bcd60e51b81526020600482018190526024820152600080516020615143833981519152604482015290519081900360640190fd5b6001600160a01b03166000908152600d60205260409020805460ff19169055565b6120fe613726565b61213d576040805162461bcd60e51b81526020600482018190526024820152600080516020615143833981519152604482015290519081900360640190fd5b6000918252600e602090815260408084206001600160a01b039093168452600790920190529020600201805460ff19166001179055565b600c546001600160a01b031690565b61218b614d86565b6000828152600f602090815260409182902082516101808101845281548152600182015481840152600282015481850152600382015460608201526004820154608082015260058201546001600160a01b03811660a083015260ff600160a01b82048116151560c0840152600160a81b82048116151560e0840152600160b01b820481161515610100840152600160b81b820481161515610120840152600160c01b90910416151561014082015260068201805485518186028101860190965280865291949293610160860193929083018282801561229357602002820191906000526020600020905b81546001600160a01b03168152600190910190602001808311612275575b505050919092525050815191925050158015906122b35750610100810151155b80156122c25750610120810151155b8015612307575080516122d59033613737565b806122e7575080516122e79033613702565b8061230757508060a001516001600160a01b0316336001600160a01b0316145b612358576040805162461bcd60e51b815260206004820152601f60248201527f496e76616c696420617267756d656e7473206f72207065726d697373696f6e00604482015290519081900360640190fd5b6000828152600f60209081526040808320600501805460ff60b01b1916600160b01b1790558381015160a08501516001600160a01b03168452600d9092528083206001018054909201909155518391600080516020614fe083398151915291a25050565b336001600160a01b03831614156124045760405162461bcd60e51b815260040180806020018281038252602c815260200180615028602c913960400191505060405180910390fd5b336000818152600d602090815260408083206001600160a01b0387168085526003909101835292819020805460ff1916861515908117909155815190815290519293927f17307eab39ab6107e8899845ad3d59bd9653f200f220920489ca2b5937696c31929181900390910190a35050565b816124818133613737565b6124c0576040805162461bcd60e51b81526020600482015260176024820152600080516020614f9a833981519152604482015290519081900360640190fd5b6124ca8383613957565b505050565b6124d7613726565b612516576040805162461bcd60e51b81526020600482018190526024820152600080516020615143833981519152604482015290519081900360640190fd5b6001600160a01b03166000908152600d60205260409020805461ff0019169055565b816125438133613737565b612582576040805162461bcd60e51b81526020600482015260176024820152600080516020614f9a833981519152604482015290519081900360640190fd5b6124ca83836139ad565b600061143182613a09565b600061143182613a28565b6125aa614d86565b6000828152600f602090815260409182902082516101808101845281548152600182015481840152600282015481850152600382015460608201526004820154608082015260058201546001600160a01b03811660a083015260ff600160a01b82048116151560c0840152600160a81b82048116151560e0840152600160b01b820481161515610100840152600160b81b820481161515610120840152600160c01b9091041615156101408201526006820180548551818602810186019096528086529194929361016086019392908301828280156126b257602002820191906000526020600020905b81546001600160a01b03168152600190910190602001808311612694575b505050919092525050815191925050158015906126d6575080516126d69033613737565b80156126ef57508060c0015115806126ef57508060e001515b80156126fe5750610100810151155b801561270d5750610120810151155b8015612734575061272c81600001518260200151836101600151613a52565b816040015110155b61276f5760405162461bcd60e51b815260040180806020018281038252603481526020018061510f6034913960400191505060405180910390fd5b6000828152600f6020526040808220600501805460ff60b81b1916600160b81b179055518391600080516020614fe083398151915291a261016081015151156127c7576127c28282610160015151613b09565b611c69565b6000805482518252600e602052604090912060080154116128015780516000908152600e60205260409020600801546127c2908390613b09565b611c69816000015182608001516139ad565b61281c33613a28565b61285b576040805162461bcd60e51b81526020600482015260176024820152600080516020614f9a833981519152604482015290519081900360640190fd5b61286e8b8b8b8b8b8b8b8b8b8b8b613da6565b604080518b8152602081018b905281516001600160a01b038e16926000923392600080516020614f4f833981519152929181900390910190a45050505050505050505050565b600061143182613f0f565b60006128cc848484613f32565b949350505050565b6128dc613726565b61291b576040805162461bcd60e51b81526020600482018190526024820152600080516020615143833981519152604482015290519081900360640190fd5b6000918252600e602090815260408084206001600160a01b039093168452600790920190529020600201805460ff19169055565b6000858152600f602052604090205415801561297857506000848152600e602052604090205415155b801561298e575061298a848484613a52565b3410155b801561299d5750600054825111155b6129ee576040805162461bcd60e51b815260206004820152601a60248201527f496e76616c696420617267756d656e7473206f722076616c7565000000000000604482015290519081900360640190fd5b6000848152600e6020526040812060048101549054612a1a9161271091612a1491614114565b9061416d565b905060405180610180016040528086815260200185815260200134815260200160008152602001838152602001336001600160a01b031681526020018560001480612a8057506000878152600e6020908152604080832033845260070190915290205483115b80612a8c575060008551115b151581526000602080830182905260408084018390526060808501849052608080860185905260a09586018a90528c8552600f8452938290208651815586840151600182015591860151600283015585015160038201559184015160048301559183015160058201805460c086015160e08701516101008801516101208901516101408a01511515600160c01b0260ff60c01b19911515600160b81b0260ff60b81b19931515600160b01b0260ff60b01b19951515600160a81b0260ff60a81b19971515600160a01b0260ff60a01b196001600160a01b03909c166001600160a01b0319909a16999099179a909a16979097179590951697909717929092169390931792909216171691909117905561016083015180519192612bb792600685019290910190614e52565b5050604051879150600080516020614fe083398151915290600090a2505050505050565b600061142e83836141af565b600e60205260009081526040902080546001820154600283015460038401546004850154600586015460069096015494959394929391929091906001600160a01b0381169060ff600160a01b8204811691600160a81b90041689565b6001600160a01b038516612c885760405162461bcd60e51b81526004018080602001828103825260288152602001806150006028913960400191505060405180910390fd5b6001600160a01b038616331480612caa5750612ca48633612bdb565b15156001145b612ce55760405162461bcd60e51b81526004018080602001828103825260378152602001806151636037913960400191505060405180910390fd5b612cf1868686866141f4565b846001600160a01b0316866001600160a01b0316336001600160a01b0316600080516020614f4f8339815191528787604051808381526020018281526020019250505060405180910390a4612d80338787878787878080601f01602080910402602001604051908101604052809392919081815260200183838082843760009201919091525061426c92505050565b505050505050565b612d90613726565b612dcf576040805162461bcd60e51b81526020600482018190526024820152600080516020615143833981519152604482015290519081900360640190fd5b612dd8816143e1565b50565b6001600160a01b0381166000908152600d6020526040902060010154612e0190346113d4565b6001600160a01b039091166000908152600d6020526040902060010155565b6001600160a01b0382166000908152600d6020526040902060010154811115612e87576040805162461bcd60e51b8152602060048201526014602482015273496e73756666696369656e742062616c616e636560601b604482015290519081900360640190fd5b6040516000906001600160a01b0384169083908381818185875af1925050503d8060008114612ed2576040519150601f19603f3d011682016040523d82523d6000602084013e612ed7565b606091505b5050905080612f21576040805162461bcd60e51b815260206004820152601160248201527015da5d1a191c985dd85b0819985a5b1959607a1b604482015290519081900360640190fd5b506001600160a01b039091166000908152600d602052604090206001018054919091039055565b612f5133613a28565b612f90576040805162461bcd60e51b81526020600482015260176024820152600080516020614f9a833981519152604482015290519081900360640190fd5b6000838152600e602052604090205415801590612fae575080518251145b612ff3576040805162461bcd60e51b8152602060048201526011602482015270496e76616c696420617267756d656e747360781b604482015290519081900360640190fd5b60005b82518110156130c7576130308484838151811061300f57fe5b602002602001015184848151811061302357fe5b6020026020010151614482565b6000848152600e60205260408120600801805490919061304c57fe5b600091825260208220015484516001600160a01b0390911691903390600080516020614f4f8339815191529087908690811061308457fe5b6020026020010151600e60008a815260200190815260200160002060000154604051808381526020018281526020019250505060405180910390a4600101612ff6565b50505050565b6130d5614d86565b6000838152600f602090815260409182902082516101808101845281548152600182015481840152600282015481850152600382015460608201526004820154608082015260058201546001600160a01b03811660a083015260ff600160a01b82048116151560c0840152600160a81b82048116151560e0840152600160b01b820481161515610100840152600160b81b820481161515610120840152600160c01b9091041615156101408201526006820180548551818602810186019096528086529194929361016086019392908301828280156131dd57602002820191906000526020600020905b81546001600160a01b031681526001909101906020018083116131bf575b50505091909252505081519192505015801590613201575061012081015115156001145b80156132105750610140810151155b613254576040805162461bcd60e51b815260206004820152601060248201526f496e76616c69642063616c6c6261636b60801b604482015290519081900360640190fd5b61325e8383613b09565b6000838152600f6020526040902060050154600160c01b900460ff16156124ca576124ca81600001518260800151613957565b60606000825b80156132ad576001919091019060109004613297565b60608267ffffffffffffffff811180156132c657600080fd5b506040519080825280601f01601f1916602001820160405280156132f1576020820181803683370190505b50905060005b838110156133445760108606925061330e8361461f565b826001838703038151811061331f57fe5b60200101906001600160f81b031916908160001a9053506010860495506001016132f7565b50949350505050565b805182516060918491849184910167ffffffffffffffff8111801561337157600080fd5b506040519080825280601f01601f19166020018201604052801561339c576020820181803683370190505b509050806000805b85518110156133f5578581815181106133b957fe5b602001015160f81c60f81b8383806001019450815181106133d657fe5b60200101906001600160f81b031916908160001a9053506001016133a4565b5060005b845181101561344a5784818151811061340e57fe5b602001015160f81c60f81b83838060010194508151811061342b57fe5b60200101906001600160f81b031916908160001a9053506001016133f9565b5090979650505050505050565b6000803411613481576001600160a01b0385166000908152600d6020526040902060010154613483565b345b905060005b83518110156134ff576134f56134c687878785815181106134a557fe5b60200260200101518786815181106134b957fe5b6020026020010151614663565b60408051808201909152601081526f092dce6eaccccd2c6d2cadce8408aa8960831b60208201528491906146b8565b9150600101613488565b5061350a858261474f565b5050505050565b613523846001600160a01b03166147d0565b15612d805763bc197c8160e01b6001600160e01b031916846001600160a01b031663bc197c8188888787876040518663ffffffff1660e01b815260040180866001600160a01b03168152602001856001600160a01b03168152602001806020018060200180602001848103845287818151815260200191508051906020019060200280838360005b838110156135c35781810151838201526020016135ab565b50505050905001848103835286818151815260200191508051906020019060200280838360005b838110156136025781810151838201526020016135ea565b50505050905001848103825285818151815260200191508051906020019080838360005b8381101561363e578181015183820152602001613626565b50505050905090810190601f16801561366b5780820380516001836020036101000a031916815260200191505b5098505050505050505050602060405180830381600087803b15801561369057600080fd5b505af11580156136a4573d6000803e3d6000fd5b505050506040513d60208110156136ba57600080fd5b50516001600160e01b03191614612d805760405162461bcd60e51b81526004018080602001828103825260368152602001806150846036913960400191505060405180910390fd5b6000918252600e6020526040909120600601546001600160a01b0391821691161490565b600c546001600160a01b0316331490565b6000828152600e602090815260408083206001600160a01b038516845260070190915281206002015460ff168061142e575061142e613726565b6000805b85518110156137a15785818151811061378a57fe5b602002602001015182019150806001019050613775565b50600086511180156137b1575060015b80156137be575080612710145b80156137cb575061271084105b613810576040805162461bcd60e51b8152602060048201526011602482015270496e76616c696420617267756d656e747360781b604482015290519081900360640190fd5b6000898152600e60209081526040808320600581018c90558a516002808301919091558b840151600383015582518084018452428152928c015183850152600b909101805460018101825590855292909320613870939283020191614ea6565b506000898152600e60209081526040909120875161389692600990920191890190614e52565b506000898152600e6020908152604090912086516138bc92600a90920191880190614ee0565b50506000978852600e602052604090972060048101929092556006909101805460ff60a01b1916600160a01b92151592909202919091176001600160a01b0319166001600160a01b039096169590951790945550505050565b600061142e83836040518060400160405280601e81526020017f536166654d6174683a207375627472616374696f6e206f766572666c6f7700008152506146b8565b6000828152600e6020908152604091829020600601805460ff60a81b191690558151838152915184927f199acc06cd2556bbc146fa3cb578799037dffcbf256eca32aaf2ef656925d2fd92908290030190a25050565b6000828152600e6020908152604091829020600601805460ff60a81b1916600160a81b1790558151838152915184927f199acc06cd2556bbc146fa3cb578799037dffcbf256eca32aaf2ef656925d2fd92908290030190a25050565b6000908152600e6020526040902060060154600160a81b900460ff1690565b6001600160a01b0381166000908152600d602052604081205460ff16806114315750611431613726565b80516000908190613a93576000858152600e60208181526040808420338552600781018352908420549389905291905254613a8c91613915565b9050613af6565b60005b8351811015613af457600e60008781526020019081526020016000206007016000858381518110613ac357fe5b6020908102919091018101516001600160a01b03168252810191909152604001600020549190910190600101613a96565b505b613b008185614114565b95945050505050565b6000828152600f602052604090208054600690910154606090613b3c576000828152600e60205260409020600801613b4e565b6000848152600f602052604090206006015b805480602002602001604051908101604052809291908181526020018280548015613ba257602002820191906000526020600020905b81546001600160a01b03168152600190910190602001808311613b84575b505083516000898152600f60205260408120600301549596506000199091019493509150508582018311613bd65782613bda565b8582015b90506000825b828111613d22576000868281518110613bf557fe5b60209081029190910181015160008a8152600e835260408082206001600160a01b0384168352600701909352919091205490915015613d19576000888152600e602090815260408083206001600160a01b0385168085526007909101808452828520548f8652600f855292852060010154919094529290915293840193613c7b91614114565b6001600160a01b038083166000818152600d6020908152604080832060010180549096019095558e8252600f8152848220600501548d8352600e82528583208484526007018252918590205485518e8152918201528451919093169391923392600080516020614f4f83398151915292918290030190a46000888152600e602090815260408083206001600160a01b03851684526007019091528120555b50600101613be0565b506000888152600f6020526040902060050154613d49906001600160a01b03168783614807565b6000888152600f6020526040902060030182905583821415611836576000888152600f6020526040808220600501805460ff60c01b1916600160c01b179055518991600080516020614fe083398151915291a25050505050505050565b60008a8152600e6020526040902054158015613dc25750600089115b613e07576040805162461bcd60e51b8152602060048201526011602482015270496e76616c696420617267756d656e747360781b604482015290519081900360640190fd5b88600e60008c81526020019081526020016000206000018190555087600e60008c8152602001908152602001600020600101819055506001600e60008c81526020019081526020016000206007016000336001600160a01b03166001600160a01b0316815260200190815260200160002060020160006101000a81548160ff0219169083151502179055506001600e60008c815260200190815260200160002060070160008d6001600160a01b03166001600160a01b0316815260200190815260200160002060020160026101000a81548160ff021916908315150217905550613ef78a88888888888888613771565b613f028b8b8b614807565b5050505050505050505050565b6001600160a01b03166000908152600d6020526040902054610100900460ff1690565b6000828152600e60205260408120600b015481904290600019015b6000868152600e60205260408120600b01805483908110613f6a57fe5b60009182526020822060029091020101546000888152600e60205260408120600b018054929350909184908110613f9d57fe5b9060005260206000209060020201600160028110613fb757fe5b01546000898152600e602090815260408083206001600160a01b038e168452600701909152812060010154919250908311614054576000898152600e602090815260408083206001600160a01b038e168452600701909152902060010154614029906201518090612a14908890613915565b905080614034575060015b614048886140428385614114565b90614114565b86019550505050614093565b61406562015180612a148786613915565b905080614070575060015b9193508391614083886140428385614114565b9095019450505060001901613f4d565b506000858152600e60205260409020600101546140b4908390600a0a61416d565b6000868152600e6020526040812060030154919350906140df906305f5e10090612a14908890614114565b6000878152600e60205260409020600201549091506141099061410290836113d4565b84906113d4565b979650505050505050565b60008261412357506000611431565b8282028284828161413057fe5b041461142e5760405162461bcd60e51b81526004018080602001828103825260218152602001806150ee6021913960400191505060405180910390fd5b600061142e83836040518060400160405280601a81526020017f536166654d6174683a206469766973696f6e206279207a65726f0000000000008152506148b0565b60006141bb8383614915565b8061142e5750506001600160a01b039182166000908152600d602090815260408083209390941682526003909201909152205460ff1690565b600080341161421e576001600160a01b0385166000908152600d6020526040902060010154614220565b345b905061426061423186868686614663565b60408051808201909152601081526f092dce6eaccccd2c6d2cadce8408aa8960831b60208201528391906146b8565b905061350a858261474f565b61427e846001600160a01b03166147d0565b15612d805763f23a6e6160e01b6001600160e01b031916846001600160a01b031663f23a6e6188888787876040518663ffffffff1660e01b815260040180866001600160a01b03168152602001856001600160a01b0316815260200184815260200183815260200180602001828103825283818151815260200191508051906020019080838360005b8381101561431f578181015183820152602001614307565b50505050905090810190601f16801561434c5780820380516001836020036101000a031916815260200191505b509650505050505050602060405180830381600087803b15801561436f57600080fd5b505af1158015614383573d6000803e3d6000fd5b505050506040513d602081101561439957600080fd5b50516001600160e01b03191614612d805760405162461bcd60e51b81526004018080602001828103825260318152602001806151c86031913960400191505060405180910390fd5b6001600160a01b0381166144265760405162461bcd60e51b8152600401808060200182810382526026815260200180614fba6026913960400191505060405180910390fd5b600c546040516001600160a01b038084169216907f8be0079c531659141344cd1fd0a4f28419497f9722a3daafe3b4186f6b6457e090600090a3600c80546001600160a01b0319166001600160a01b0392909216919091179055565b6000838152600e6020526040812060080180546124ca92906144a057fe5b6000918252602080832090910154868352600e8083526040808520805460018201548351606081018552600284015481526003840154818901528c895294909652600b90910180546001600160a01b03909516968a96929592948a94909390840192919061450a57fe5b906000526020600020906002020160016002811061452457fe5b0154905260008a8152600e60209081526040918290206009018054835181840281018401909452808452909183018282801561458957602002820191906000526020600020905b81546001600160a01b0316815260019091019060200180831161456b575b50505060008d8152600e6020908152604091829020600a01805483518184028101840190945280845292945092508301828280156145e657602002820191906000526020600020905b8154815260200190600101908083116145d2575b50505060008e8152600e60205260409020600481015460069091015490925060ff600160a01b82041691506001600160a01b0316613da6565b600060098260ff161161463957506030810160f81b6114ec565b8160ff16600a111580156146515750600f8260ff1611155b1561028b57506057810160f81b6114ec565b6000614671858585856149fc565b156146ac576040805162461bcd60e51b8152602060048201526006602482015265131bd8dad95960d21b604482015290519081900360640190fd5b613b0085858585614a34565b600081848411156147475760405162461bcd60e51b81526004018080602001828103825283818151815260200191508051906020019080838360005b8381101561470c5781810151838201526020016146f4565b50505050905090810190601f1680156147395780820380516001836020036101000a031916815260200191505b509250505060405180910390fd5b505050900390565b60003411801561475f5750600081115b156147ab576001600160a01b0382166000908152600d602052604090206001015461478a90826113d4565b6001600160a01b0383166000908152600d6020526040902060010155611c69565b34611c69576001600160a01b03919091166000908152600d6020526040902060010155565b6000813f7fc5d2460186f7233c927e7db2dcc703c0e500b653ca82273b7bfad8045d85a47081158015906128cc5750141592915050565b6000828152600e6020526040902060060154600160a01b900460ff16158061485d57506000828152600e602090815260408083206001600160a01b038716845260070190915290206002015462010000900460ff165b6148a5576040805162461bcd60e51b81526020600482015260146024820152731059191c995cdcc81b9bdd08185c1c1c9bdd995960621b604482015290519081900360640190fd5b6124ca838383614b88565b600081836148ff5760405162461bcd60e51b815260206004820181815283516024840152835190928392604490910191908501908083836000831561470c5781810151838201526020016146f4565b50600083858161490b57fe5b0495945050505050565b6000805b600a8110156149f2576000600282600a811061493157fe5b01546001600160a01b0316146149ea576000600282600a811061495057fe5b01546040805163c455279160e01b81526001600160a01b0388811660048301529151928216935090861691839163c4552791916024808301926020929190829003018186803b1580156149a257600080fd5b505afa1580156149b6573d6000803e3d6000fd5b505050506040513d60208110156149cc57600080fd5b50516001600160a01b031614156149e857600192505050611431565b505b600101614919565b5060009392505050565b6000614a0783613a09565b80614a165750614a1685613f0f565b80614a255750614a2584613f0f565b80613b00575050159392505050565b6040805180820182526014815273496e73756666696369656e742062616c616e636560601b6020808301919091526000858152600e82528381206001600160a01b038916825260070190915291822054614a8f9184906146b8565b6000848152600e602090815260408083206001600160a01b038a168452600701909152902055614ac0848484614807565b614acb858484613f32565b905060005b6000848152600e6020526040902060090154811015613344576000848152600e60205260408120600901805483908110614b0657fe5b6000918252602080832090910154878352600e90915260408220600a0180546001600160a01b0390921693509084908110614b3d57fe5b6000918252602090912001549050614b5b612710612a148684614114565b6001600160a01b039092166000908152600d60205260409020600190810180549093019092555001614ad0565b6000828152600e602090815260408083206001600160a01b0387168452600701909152812054614bb890836113d4565b6000848152600e602090815260408083206001600160a01b0389168452600701909152902054909150614cb5576000838152600e602090815260408083206001600160a01b0388168452600701909152902060020154610100900460ff16614c84576001600160a01b0384166000818152600d6020908152604080832060020180546001818101835591855283852001889055878452600e83529083206008810180549283018155845282842090910180546001600160a01b0319168517905592909152600790910190525b6000838152600e602090815260408083206001600160a01b0388168452600701909152902042600190910155614d56565b6000838152600e602090815260408083206001600160a01b0388168452600701909152812060010154614ce9904290613915565b6000858152600e602090815260408083206001600160a01b038a16845260070190915281205491925090614d23908490612a149085614114565b6000868152600e602090815260408083206001600160a01b038b1684526007019091529020429190910360019091015550505b6000928352600e602090815260408085206001600160a01b03909616855260079095019052929091209190915550565b604051806101800160405280600081526020016000815260200160008152602001600081526020016000815260200160006001600160a01b03168152602001600015158152602001600015158152602001600015158152602001600015158152602001600015158152602001606081525090565b82600a8101928215614e42579160200282015b82811115614e4257825182546001600160a01b0319166001600160a01b03909116178255602090920191600190910190614e0d565b50614e4e929150614f1a565b5090565b828054828255906000526020600020908101928215614e425791602002820182811115614e4257825182546001600160a01b0319166001600160a01b03909116178255602090920191600190910190614e0d565b8260028101928215614ed4579160200282015b82811115614ed4578251825591602001919060010190614eb9565b50614e4e929150614f39565b828054828255906000526020600020908101928215614ed45791602002820182811115614ed4578251825591602001919060010190614eb9565b5b80821115614e4e5780546001600160a01b0319168155600101614f1b565b5b80821115614e4e5760008155600101614f3a56fec3d58168c5ae7397731d063d5bbf3d657854427343f4c083240f7aacaa2d0f62455243313135353a2062616c616e636520717565727920666f7220746865207a65726f2061646472657373496e73756666696369656e74207065726d697373696f6e0000000000000000004f776e61626c653a206e6577206f776e657220697320746865207a65726f20616464726573736ce984c7277c5fe8f47fdf17245300ed19587e3bc1041342d79726b2b2f1dc0b455243313135353a207461726765742061646472657373206d757374206265206e6f6e2d7a65726f455243313135353a2063616e6e6f742073657420617070726f76616c2073746174757320666f722073656c66455243313135353a206163636f756e747320616e6420494473206d75737420686176652073616d65206c656e67746873455243313135353a20676f7420756e6b6e6f776e2076616c75652066726f6d206f6e4552433131353542617463685265636569766564455243313135353a20736f6d65206164647265737320696e2062617463682062616c616e6365207175657279206973207a65726f536166654d6174683a206d756c7469706c69636174696f6e206f766572666c6f77496e73756666696369656e742063616c6c6261636b2c207065726d697373696f6e206f7220657363726f77656420616d6f756e744f776e61626c653a2063616c6c6572206973206e6f7420746865206f776e6572455243313135353a206e656564206f70657261746f7220617070726f76616c20666f7220337264207061727479207472616e7366657273455243313135353a2049447320616e642076616c756573206d75737420686176652073616d65206c656e67746873455243313135353a20676f7420756e6b6e6f776e2076616c75652066726f6d206f6e455243313135355265636569766564a26469706673582212202d2581029e022b60f0412722ec4eeaa3e112c4a8538901cb286171505db1327364736f6c634300070100334f776e61626c653a206e6577206f776e657220697320746865207a65726f2061646472657373",
  "immutableReferences": {},
  "source": "// SPDX-License-Identifier: GPL-3.0-or-later\npragma solidity ^0.7.1;\n\nimport './interfaces/IERC1155Metadata.sol';\nimport './utils/StringUtils.sol';\nimport './lib/Callable.sol';\nimport './lib/Withdrawable.sol';\n\ncontract StashBlox is Callable, Withdrawable, IERC1155Metadata, StringUtils {\n\n    using SafeMath for uint256;\n\n    /**\n     * @dev Initializes the contract setting the deployer as the initial owner.\n     */\n    constructor () {\n        _config.callbackAutoExecuteMaxAddresses = 50;\n        _config.baseURI = \"http://stashblox.com/tokens/\";\n        _transferOwnership(msg.sender);\n    }\n\n    /**\n     * @param id Token ID\n     * @return URI string\n     */\n    function uri(uint256 id) external view override returns (string memory) {\n        return _strConcat(_config.baseURI, _toHexString(id));\n    }\n\n\n}\n",
  "sourcePath": "/home/ouziel/Work/StashBloxContracts/contracts/StashBlox.sol",
  "compiler": {
    "name": "solc",
    "version": "0.7.1+commit.f4a555be.Emscripten.clang"
  },
  "schemaVersion": "3.2.3",
  "updatedAt": "2020-10-21T19:56:31.223Z",
  "devdoc": {
    "kind": "dev",
    "methods": {
      "acceptCallback(uint256)": {
        "details": "Accept a callback",
        "params": {
          "callbackId": "callback proposition ID"
        }
      },
      "approveCallback(uint256)": {
        "details": "Approve a callback",
        "params": {
          "callbackId": "callback proposition ID"
        }
      },
      "approveHolder(uint256,address)": {
        "details": "Function to approve holder for a private token.",
        "params": {
          "holder": "The authorized address",
          "id": "the token id"
        }
      },
      "authorizeMaintener(uint256,address)": {
        "details": "Function to authorize an address to maintain a token.",
        "params": {
          "maintener": "The authorized address"
        }
      },
      "authorizeTokenizer(address)": {
        "details": "Function to authorize an address to create a token.",
        "params": {
          "tokenizer": "The authorized address"
        }
      },
      "averageAge(address,uint256)": {
        "details": "Function to get the average age of the token for the given address.",
        "params": {
          "account": "the address from where to transfer the tokens",
          "id": "The token ID"
        },
        "returns": {
          "_0": "average age in seconds"
        }
      },
      "balanceOf(address,uint256)": {
        "details": "Get the specified address' balance for token with specified ID. Attempting to query the zero account for a balance will result in a revert.",
        "params": {
          "account": "The address of the token holder",
          "id": "ID of the token"
        },
        "returns": {
          "_0": "The account's balance of the token type requested"
        }
      },
      "balanceOfBatch(address[],uint256[])": {
        "details": "Get the balance of multiple account/token pairs. If any of the query accounts is the zero account, this query will revert.",
        "params": {
          "accounts": "The addresses of the token holders",
          "ids": "IDs of the tokens"
        },
        "returns": {
          "_0": "Balances for each account and token id pair"
        }
      },
      "cloneToken(uint256,uint256[],uint256[])": {
        "details": "Function to mint tokens in batch.",
        "params": {
          "id": "Identifier of the template",
          "ids": "list of IDs of the tokens to be minted",
          "metadataHashes": "list of metadata file hashes"
        }
      },
      "constructor": {
        "details": "Initializes the contract setting the deployer as the initial owner."
      },
      "createToken(address,uint256,uint256,uint256,uint256,uint256[3],address[],uint256[],uint256,bool,address)": {
        "details": "Function to mint an amount of a token with the given ID.",
        "params": {
          "feesRecipients": "list of addresses receiving transfer fees",
          "feesRecipientsPercentage": "list of percentage, each one for the corresponding feesRecipients",
          "id": "ID of the token to be minted",
          "isPrivate": "true if holder need approval",
          "legalAuthority": "address of the legal authority",
          "metadataHash": "Metadata file hash",
          "minHoldingForCallback": "minimum holding to propose a callback",
          "recipient": "The address that will own the minted tokens",
          "supply": "Amount of the token to be minted",
          "transactionFees": "transaction fees: [lumpSumFees (in WEI), valueProportionalFees (ratio of transfered amount * 10**8), storageFees (in storageCredit * 10**8)]"
        }
      },
      "deposit(address)": {
        "details": "Function to make an ETH deposit that can be used to pay token transfer .",
        "params": {
          "to": "recipent address"
        }
      },
      "executeCallback(uint256,uint256)": {
        "details": "Accept a callback. Caller need to recall the function to continue the callback until completed.",
        "params": {
          "callbackId": "callback proposition ID",
          "maxCall": "maximal call to excute"
        }
      },
      "isApprovedForAll(address,address)": {
        "params": {
          "account": "The account of the Tokens",
          "operator": "Address of authorized operator"
        },
        "returns": {
          "_0": "True if the operator is approved, false if not"
        }
      },
      "isLockedAddress(address)": {
        "details": "Function to check if an address is lockec.",
        "params": {
          "addr": "The address to check"
        }
      },
      "isLockedToken(uint256)": {
        "details": "Function to check if a token is locked.",
        "params": {
          "id": "The token ID"
        }
      },
      "isMaintener(uint256,address)": {
        "details": "Function to check if an address is authorized to maintain a token.",
        "params": {
          "id": "the token id",
          "maintener": "The authorized address"
        },
        "returns": {
          "_0": "true if it's a maintener address"
        }
      },
      "isTokenizer(address)": {
        "details": "Function to check if an address is authorized to create a token.",
        "params": {
          "tokenizer": "The authorized address"
        }
      },
      "lockAddress(address)": {
        "details": "Function to lock an address.",
        "params": {
          "addr": "The address to lock"
        }
      },
      "lockToken(uint256,uint256)": {
        "details": "Function to lock a token.",
        "params": {
          "id": "The token ID"
        }
      },
      "owner()": {
        "details": "Returns the address of the current owner."
      },
      "proposeCallback(uint256,uint256,uint256,address[],uint256)": {
        "details": "Propose to buy the whole supply of a token. The proposer must hold minHoldingForCallback% of the total supply. StashBlox must approve the price with acceptCallback();",
        "params": {
          "callees": "list of calless. Empty list means all holders.",
          "price": "proposed price",
          "tokenId": "Token ID"
        }
      },
      "refuseCallback(uint256)": {
        "details": "Refuse a callback if the price is not enough.",
        "params": {
          "callbackId": "callback proposition ID"
        }
      },
      "revokeHolder(uint256,address)": {
        "details": "Function to revoke holder for a private token.",
        "params": {
          "holder": "The authorized address",
          "id": "the token id"
        }
      },
      "revokeMaintener(uint256,address)": {
        "details": "Function to revoke the authorization to maintain a token.",
        "params": {
          "id": "the token id",
          "maintener": "The authorized address"
        }
      },
      "revokeTokenizer(address)": {
        "details": "Function to revoke the authorization to create a token.",
        "params": {
          "tokenizer": "The authorized address"
        }
      },
      "safeBatchTransferFrom(address,address,uint256[],uint256[],bytes)": {
        "details": "Transfers `values` amount(s) of `ids` from the `from` address to the `to` address specified. Caller must be approved to manage the tokens being transferred out of the `from` account. If `to` is a smart contract, will call `onERC1155BatchReceived` on `to` and act appropriately.",
        "params": {
          "data": "Data forwarded to `onERC1155Received` if `to` is a contract receiver",
          "from": "Source address",
          "ids": "IDs of each token type",
          "to": "Target address",
          "values": "Transfer amounts per token type"
        }
      },
      "safeTransferFrom(address,address,uint256,uint256,bytes)": {
        "details": "Transfers `value` amount of an `id` from the `from` address to the `to` address specified. Caller must be approved to manage the tokens being transferred out of the `from` account. If `to` is a smart contract, will call `onERC1155Received` on `to` and act appropriately.",
        "params": {
          "data": "Data forwarded to `onERC1155Received` if `to` is a contract receiver",
          "from": "Source address",
          "id": "ID of the token type",
          "to": "Target address",
          "value": "Transfer amount"
        }
      },
      "setApprovalForAll(address,bool)": {
        "details": "Sets or unsets the approval of a given operator. An operator is allowed to transfer all tokens of the sender on their behalf. Because an account already has operator privileges for itself, this function will revert if the account attempts to set the approval status for itself.",
        "params": {
          "approved": "representing the status of the approval to be set",
          "operator": "address to set the approval"
        }
      },
      "setCallbackAutoExecuteMaxAddresses(uint256)": {
        "details": "Maximum addresses to execute automatically the callback when is accepted.",
        "params": {
          "newMax": "new maximum"
        }
      },
      "setProxyRegistryAddress(address[10])": {
        "details": "Function to update the operator whitelist",
        "params": {
          "proxyAddresses": "List of addresses"
        }
      },
      "supportsInterface(bytes4)": {
        "params": {
          "_interfaceID": "The interface identifier, as specified in ERC-165"
        },
        "returns": {
          "_0": "`true` if the contract implements `_interfaceID` and"
        }
      },
      "transactionFees(address,uint256,uint256)": {
        "details": "Function to get the transaction price to transfer tokens.",
        "params": {
          "account": "the address from where to transfer the tokens",
          "id": "The token ID",
          "value": "The amount to transfer"
        },
        "returns": {
          "_0": "transfer price"
        }
      },
      "transferOwnership(address)": {
        "details": "Transfers ownership of the contract to a new account (`newOwner`). Can only be called by the current owner."
      },
      "unlockAddress(address)": {
        "details": "Function to unlock an address.",
        "params": {
          "addr": "The address to unlock"
        }
      },
      "unlockToken(uint256,uint256)": {
        "details": "Function to unlock a token.",
        "params": {
          "id": "The token ID"
        }
      },
      "updateToken(uint256,uint256,uint256[3],address[],uint256[],uint256,bool,address)": {
        "details": "Function to update a token with the given ID.",
        "params": {
          "feesRecipients": "list of addresses receiving transfer fees",
          "feesRecipientsPercentage": "list of percentage, each one for the corresponding feesRecipients",
          "id": "ID of the token to be updated",
          "isPrivate": "true if holder need approval",
          "legalAuthority": "address of the legal authority",
          "metadataHash": "Metadata file hash",
          "minHoldingForCallback": "minimum holding to propose a callback",
          "transactionFees": "transaction fees: [lumpSumFees (in WEI), valueProportionalFees (ratio of transfered amount * 10**8), storageFees (in storageCredit * 10**8)]"
        }
      },
      "uri(uint256)": {
        "params": {
          "id": "Token ID"
        },
        "returns": {
          "_0": "URI string"
        }
      },
      "withdraw(address,uint256)": {
        "details": "Function to withdraw ETH from the contract. TODO: Add permission ??",
        "params": {
          "amount": "amount to withdraw",
          "to": "recipent address"
        }
      }
    },
    "version": 1
  },
  "userdoc": {
    "kind": "user",
    "methods": {
      "isApprovedForAll(address,address)": {
        "notice": "Queries the approval status of an operator for a given account."
      },
      "supportsInterface(bytes4)": {
        "notice": "Query if a contract implements an interface"
      }
    },
    "version": 1
  }
}