{
  "contractName": "StashBlox",
  "abi": [
    {
      "anonymous": false,
      "inputs": [
        {
          "indexed": true,
          "internalType": "address",
          "name": "_owner",
          "type": "address"
        },
        {
          "indexed": true,
          "internalType": "address",
          "name": "_operator",
          "type": "address"
        },
        {
          "indexed": false,
          "internalType": "bool",
          "name": "_approved",
          "type": "bool"
        }
      ],
      "name": "ApprovalForAll",
      "type": "event"
    },
    {
      "anonymous": false,
      "inputs": [
        {
          "indexed": true,
          "internalType": "uint256",
          "name": "_id",
          "type": "uint256"
        },
        {
          "indexed": false,
          "internalType": "address",
          "name": "_proposer",
          "type": "address"
        },
        {
          "indexed": false,
          "internalType": "uint256",
          "name": "_price",
          "type": "uint256"
        }
      ],
      "name": "CallbackAccepted",
      "type": "event"
    },
    {
      "anonymous": false,
      "inputs": [
        {
          "indexed": true,
          "internalType": "uint256",
          "name": "_id",
          "type": "uint256"
        },
        {
          "indexed": false,
          "internalType": "address",
          "name": "_proposer",
          "type": "address"
        },
        {
          "indexed": false,
          "internalType": "uint256",
          "name": "_price",
          "type": "uint256"
        }
      ],
      "name": "CallbackProposed",
      "type": "event"
    },
    {
      "anonymous": false,
      "inputs": [
        {
          "indexed": true,
          "internalType": "uint256",
          "name": "_id",
          "type": "uint256"
        },
        {
          "indexed": false,
          "internalType": "address",
          "name": "_proposer",
          "type": "address"
        },
        {
          "indexed": false,
          "internalType": "uint256",
          "name": "_price",
          "type": "uint256"
        }
      ],
      "name": "CallbackRefused",
      "type": "event"
    },
    {
      "anonymous": false,
      "inputs": [
        {
          "indexed": true,
          "internalType": "uint256",
          "name": "_id",
          "type": "uint256"
        },
        {
          "indexed": true,
          "internalType": "uint256",
          "name": "_hash",
          "type": "uint256"
        }
      ],
      "name": "MetadataHashUpdated",
      "type": "event"
    },
    {
      "anonymous": false,
      "inputs": [
        {
          "indexed": true,
          "internalType": "address",
          "name": "previousOwner",
          "type": "address"
        },
        {
          "indexed": true,
          "internalType": "address",
          "name": "newOwner",
          "type": "address"
        }
      ],
      "name": "OwnershipTransferred",
      "type": "event"
    },
    {
      "anonymous": false,
      "inputs": [
        {
          "indexed": true,
          "internalType": "address",
          "name": "_operator",
          "type": "address"
        },
        {
          "indexed": true,
          "internalType": "address",
          "name": "_from",
          "type": "address"
        },
        {
          "indexed": true,
          "internalType": "address",
          "name": "_to",
          "type": "address"
        },
        {
          "indexed": false,
          "internalType": "uint256[]",
          "name": "_ids",
          "type": "uint256[]"
        },
        {
          "indexed": false,
          "internalType": "uint256[]",
          "name": "_values",
          "type": "uint256[]"
        }
      ],
      "name": "TransferBatch",
      "type": "event"
    },
    {
      "anonymous": false,
      "inputs": [
        {
          "indexed": true,
          "internalType": "address",
          "name": "_operator",
          "type": "address"
        },
        {
          "indexed": true,
          "internalType": "address",
          "name": "_from",
          "type": "address"
        },
        {
          "indexed": true,
          "internalType": "address",
          "name": "_to",
          "type": "address"
        },
        {
          "indexed": false,
          "internalType": "uint256",
          "name": "_id",
          "type": "uint256"
        },
        {
          "indexed": false,
          "internalType": "uint256",
          "name": "_value",
          "type": "uint256"
        }
      ],
      "name": "TransferSingle",
      "type": "event"
    },
    {
      "anonymous": false,
      "inputs": [
        {
          "indexed": false,
          "internalType": "string",
          "name": "_value",
          "type": "string"
        },
        {
          "indexed": true,
          "internalType": "uint256",
          "name": "_id",
          "type": "uint256"
        }
      ],
      "name": "URI",
      "type": "event"
    },
    {
      "anonymous": false,
      "inputs": [
        {
          "indexed": true,
          "internalType": "address",
          "name": "_tokenizer",
          "type": "address"
        },
        {
          "indexed": false,
          "internalType": "uint256",
          "name": "_id",
          "type": "uint256"
        },
        {
          "indexed": false,
          "internalType": "uint256",
          "name": "_cost",
          "type": "uint256"
        }
      ],
      "name": "UpdateStorageCost",
      "type": "event"
    },
    {
      "anonymous": false,
      "inputs": [
        {
          "indexed": true,
          "internalType": "address",
          "name": "_owner",
          "type": "address"
        },
        {
          "indexed": false,
          "internalType": "uint256",
          "name": "_price",
          "type": "uint256"
        }
      ],
      "name": "UpdateStorageCreditPrice",
      "type": "event"
    },
    {
      "inputs": [],
      "name": "BASE_URI",
      "outputs": [
        {
          "internalType": "string",
          "name": "",
          "type": "string"
        }
      ],
      "stateMutability": "view",
      "type": "function"
    },
    {
      "inputs": [
        {
          "internalType": "address",
          "name": "",
          "type": "address"
        }
      ],
      "name": "_ETHBalances",
      "outputs": [
        {
          "internalType": "uint256",
          "name": "",
          "type": "uint256"
        }
      ],
      "stateMutability": "view",
      "type": "function"
    },
    {
      "inputs": [
        {
          "internalType": "uint256",
          "name": "",
          "type": "uint256"
        },
        {
          "internalType": "uint256",
          "name": "",
          "type": "uint256"
        }
      ],
      "name": "_addressesByToken",
      "outputs": [
        {
          "internalType": "address",
          "name": "",
          "type": "address"
        }
      ],
      "stateMutability": "view",
      "type": "function"
    },
    {
      "inputs": [
        {
          "internalType": "uint256",
          "name": "",
          "type": "uint256"
        },
        {
          "internalType": "address",
          "name": "",
          "type": "address"
        }
      ],
      "name": "_birthdays",
      "outputs": [
        {
          "internalType": "uint256",
          "name": "",
          "type": "uint256"
        }
      ],
      "stateMutability": "view",
      "type": "function"
    },
    {
      "inputs": [
        {
          "internalType": "uint256",
          "name": "",
          "type": "uint256"
        }
      ],
      "name": "_locked",
      "outputs": [
        {
          "internalType": "bool",
          "name": "",
          "type": "bool"
        }
      ],
      "stateMutability": "view",
      "type": "function"
    },
    {
      "inputs": [
        {
          "internalType": "address",
          "name": "",
          "type": "address"
        },
        {
          "internalType": "uint256",
          "name": "",
          "type": "uint256"
        }
      ],
      "name": "_tokensByAddress",
      "outputs": [
        {
          "internalType": "uint256",
          "name": "",
          "type": "uint256"
        }
      ],
      "stateMutability": "view",
      "type": "function"
    },
    {
      "inputs": [
        {
          "internalType": "address",
          "name": "tokenizer",
          "type": "address"
        }
      ],
      "name": "authorizeTokenizer",
      "outputs": [],
      "stateMutability": "nonpayable",
      "type": "function"
    },
    {
      "inputs": [
        {
          "internalType": "address",
          "name": "account",
          "type": "address"
        },
        {
          "internalType": "uint256",
          "name": "id",
          "type": "uint256"
        }
      ],
      "name": "balanceOf",
      "outputs": [
        {
          "internalType": "uint256",
          "name": "",
          "type": "uint256"
        }
      ],
      "stateMutability": "view",
      "type": "function"
    },
    {
      "inputs": [
        {
          "internalType": "address[]",
          "name": "accounts",
          "type": "address[]"
        },
        {
          "internalType": "uint256[]",
          "name": "ids",
          "type": "uint256[]"
        }
      ],
      "name": "balanceOfBatch",
      "outputs": [
        {
          "internalType": "uint256[]",
          "name": "",
          "type": "uint256[]"
        }
      ],
      "stateMutability": "view",
      "type": "function"
    },
    {
      "inputs": [
        {
          "internalType": "address",
          "name": "recipient",
          "type": "address"
        },
        {
          "internalType": "uint256",
          "name": "id",
          "type": "uint256"
        },
        {
          "internalType": "uint256",
          "name": "supply",
          "type": "uint256"
        },
        {
          "internalType": "uint256",
          "name": "metadataHash",
          "type": "uint256"
        },
        {
          "internalType": "uint256",
          "name": "storageCreditCost",
          "type": "uint256"
        },
        {
          "internalType": "uint256",
          "name": "minHoldingForCallback",
          "type": "uint256"
        },
        {
          "internalType": "address[]",
          "name": "feesRecipients",
          "type": "address[]"
        },
        {
          "internalType": "uint256[]",
          "name": "feesRecipientsPercentage",
          "type": "uint256[]"
        }
      ],
      "name": "createToken",
      "outputs": [],
      "stateMutability": "nonpayable",
      "type": "function"
    },
    {
      "inputs": [
        {
          "internalType": "address",
          "name": "account",
          "type": "address"
        },
        {
          "internalType": "address",
          "name": "operator",
          "type": "address"
        }
      ],
      "name": "isApprovedForAll",
      "outputs": [
        {
          "internalType": "bool",
          "name": "",
          "type": "bool"
        }
      ],
      "stateMutability": "view",
      "type": "function"
    },
    {
      "inputs": [
        {
          "internalType": "address",
          "name": "tokenizer",
          "type": "address"
        }
      ],
      "name": "isTokenizer",
      "outputs": [
        {
          "internalType": "bool",
          "name": "",
          "type": "bool"
        }
      ],
      "stateMutability": "view",
      "type": "function"
    },
    {
      "inputs": [
        {
          "internalType": "uint256",
          "name": "id",
          "type": "uint256"
        }
      ],
      "name": "metadataHash",
      "outputs": [
        {
          "internalType": "uint256",
          "name": "",
          "type": "uint256"
        }
      ],
      "stateMutability": "view",
      "type": "function"
    },
    {
      "inputs": [],
      "name": "owner",
      "outputs": [
        {
          "internalType": "address",
          "name": "",
          "type": "address"
        }
      ],
      "stateMutability": "view",
      "type": "function"
    },
    {
      "inputs": [
        {
          "internalType": "address",
          "name": "tokenizer",
          "type": "address"
        }
      ],
      "name": "revokeTokenizer",
      "outputs": [],
      "stateMutability": "nonpayable",
      "type": "function"
    },
    {
      "inputs": [
        {
          "internalType": "address",
          "name": "from",
          "type": "address"
        },
        {
          "internalType": "address",
          "name": "to",
          "type": "address"
        },
        {
          "internalType": "uint256[]",
          "name": "ids",
          "type": "uint256[]"
        },
        {
          "internalType": "uint256[]",
          "name": "values",
          "type": "uint256[]"
        },
        {
          "internalType": "bytes",
          "name": "data",
          "type": "bytes"
        }
      ],
      "name": "safeBatchTransferFrom",
      "outputs": [],
      "stateMutability": "payable",
      "type": "function"
    },
    {
      "inputs": [
        {
          "internalType": "address",
          "name": "from",
          "type": "address"
        },
        {
          "internalType": "address",
          "name": "to",
          "type": "address"
        },
        {
          "internalType": "uint256",
          "name": "id",
          "type": "uint256"
        },
        {
          "internalType": "uint256",
          "name": "value",
          "type": "uint256"
        },
        {
          "internalType": "bytes",
          "name": "data",
          "type": "bytes"
        }
      ],
      "name": "safeTransferFrom",
      "outputs": [],
      "stateMutability": "payable",
      "type": "function"
    },
    {
      "inputs": [
        {
          "internalType": "address",
          "name": "operator",
          "type": "address"
        },
        {
          "internalType": "bool",
          "name": "approved",
          "type": "bool"
        }
      ],
      "name": "setApprovalForAll",
      "outputs": [],
      "stateMutability": "nonpayable",
      "type": "function"
    },
    {
      "inputs": [
        {
          "internalType": "address",
          "name": "account",
          "type": "address"
        },
        {
          "internalType": "uint256",
          "name": "id",
          "type": "uint256"
        },
        {
          "internalType": "uint256",
          "name": "value",
          "type": "uint256"
        }
      ],
      "name": "storageFees",
      "outputs": [
        {
          "internalType": "uint256",
          "name": "",
          "type": "uint256"
        }
      ],
      "stateMutability": "view",
      "type": "function"
    },
    {
      "inputs": [
        {
          "internalType": "bytes4",
          "name": "_interfaceID",
          "type": "bytes4"
        }
      ],
      "name": "supportsInterface",
      "outputs": [
        {
          "internalType": "bool",
          "name": "",
          "type": "bool"
        }
      ],
      "stateMutability": "pure",
      "type": "function"
    },
    {
      "inputs": [
        {
          "internalType": "address",
          "name": "newOwner",
          "type": "address"
        }
      ],
      "name": "transferOwnership",
      "outputs": [],
      "stateMutability": "nonpayable",
      "type": "function"
    },
    {
      "inputs": [
        {
          "internalType": "uint256",
          "name": "id",
          "type": "uint256"
        },
        {
          "internalType": "uint256",
          "name": "metadataHash",
          "type": "uint256"
        }
      ],
      "name": "updateMetadataHash",
      "outputs": [],
      "stateMutability": "nonpayable",
      "type": "function"
    },
    {
      "inputs": [
        {
          "internalType": "uint256",
          "name": "id",
          "type": "uint256"
        },
        {
          "internalType": "uint256",
          "name": "newCost",
          "type": "uint256"
        }
      ],
      "name": "updateStorageCost",
      "outputs": [],
      "stateMutability": "nonpayable",
      "type": "function"
    },
    {
      "inputs": [
        {
          "internalType": "uint256",
          "name": "newPrice",
          "type": "uint256"
        }
      ],
      "name": "updateStorageCreditPrice",
      "outputs": [],
      "stateMutability": "nonpayable",
      "type": "function"
    },
    {
      "inputs": [
        {
          "internalType": "uint256",
          "name": "id",
          "type": "uint256"
        }
      ],
      "name": "uri",
      "outputs": [
        {
          "internalType": "string",
          "name": "",
          "type": "string"
        }
      ],
      "stateMutability": "pure",
      "type": "function"
    },
    {
      "inputs": [
        {
          "internalType": "address",
          "name": "to",
          "type": "address"
        },
        {
          "internalType": "uint256",
          "name": "amount",
          "type": "uint256"
        }
      ],
      "name": "withdraw",
      "outputs": [],
      "stateMutability": "nonpayable",
      "type": "function"
    },
    {
      "inputs": [
        {
          "internalType": "uint256",
          "name": "id",
          "type": "uint256"
        },
        {
          "internalType": "uint256",
          "name": "price",
          "type": "uint256"
        }
      ],
      "name": "proposeCallback",
      "outputs": [],
      "stateMutability": "payable",
      "type": "function"
    },
    {
      "inputs": [
        {
          "internalType": "uint256",
          "name": "id",
          "type": "uint256"
        },
        {
          "internalType": "address",
          "name": "proposer",
          "type": "address"
        }
      ],
      "name": "refuseCallback",
      "outputs": [],
      "stateMutability": "nonpayable",
      "type": "function"
    },
    {
      "inputs": [
        {
          "internalType": "uint256",
          "name": "id",
          "type": "uint256"
        },
        {
          "internalType": "address",
          "name": "proposer",
          "type": "address"
        }
      ],
      "name": "acceptCallback",
      "outputs": [],
      "stateMutability": "nonpayable",
      "type": "function"
    }
  ],
  "bytecode": "0x60806040526103e86004553480156200001757600080fd5b50620000233362000029565b6200012d565b6001600160a01b03811662000075576040517f08c379a00000000000000000000000000000000000000000000000000000000081526004016200006c90620000d0565b60405180910390fd5b600080546040516001600160a01b03808516939216917f8be0079c531659141344cd1fd0a4f28419497f9722a3daafe3b4186f6b6457e091a3600080546001600160a01b0319166001600160a01b0392909216919091179055565b60208082526026908201527f4f776e61626c653a206e6577206f776e657220697320746865207a65726f206160408201527f6464726573730000000000000000000000000000000000000000000000000000606082015260800190565b6134b0806200013d6000396000f3fe6080604052600436106101c15760003560e01c80638870147b116100f7578063cf6c97ca11610095578063ea2bd64d11610064578063ea2bd64d14610502578063f242432a14610522578063f2fde38b14610535578063f3fef3a314610555576101c1565b8063cf6c97ca1461048d578063d7b80ebc146104ad578063dbddb26a146104cd578063e985e9c5146104e2576101c1565b8063a22cb465116100d1578063a22cb4651461040d578063a29400721461042d578063c02f303c1461044d578063c4be3c3c1461046d576101c1565b80638870147b146103b85780638da5cb5b146103d8578063939cd641146103ed576101c1565b80634e1273f4116101645780636fe8ded21161013e5780636fe8ded21461034557806370e0b145146103655780637627b732146103785780638495b14114610398576101c1565b80634e1273f4146102d85780636b62becb146103055780636eb987c714610325576101c1565b8063119c0737116101a0578063119c07371461025657806315276e6214610283578063219cc8bc146102a35780632eb2c2d6146102c3576101c1565b8062fdd58e146101c657806301ffc9a7146101fc5780630e89341c14610229575b600080fd5b3480156101d257600080fd5b506101e66101e136600461277c565b610575565b6040516101f391906133dc565b60405180910390f35b34801561020857600080fd5b5061021c61021736600461294d565b6105d1565b6040516101f39190612ba7565b34801561023557600080fd5b50610249610244366004612985565b610618565b6040516101f39190612bb2565b34801561026257600080fd5b506102766102713660046129c0565b610661565b6040516101f39190612a9d565b34801561028f57600080fd5b5061021c61029e366004612985565b610696565b3480156102af57600080fd5b506101e66102be366004612985565b6106ab565b6102d66102d1366004612610565b6106bd565b005b3480156102e457600080fd5b506102f86102f336600461288b565b610918565b6040516101f39190612b94565b34801561031157600080fd5b506102d66103203660046129c0565b610a58565b34801561033157600080fd5b506101e661034036600461277c565b610a8b565b34801561035157600080fd5b506102d661036036600461299d565b610ab9565b6102d66103733660046129c0565b610bb4565b34801561038457600080fd5b506102d66103933660046125c1565b610d43565b3480156103a457600080fd5b506102d66103b3366004612985565b610d8b565b3480156103c457600080fd5b506102d66103d33660046125c1565b610df2565b3480156103e457600080fd5b50610276610e37565b3480156103f957600080fd5b506102d66104083660046129c0565b610e46565b34801561041957600080fd5b506102d6610428366004612741565b610ef6565b34801561043957600080fd5b506102d661044836600461299d565b610f8e565b34801561045957600080fd5b5061021c6104683660046125c1565b611250565b34801561047957600080fd5b506101e66104883660046127a6565b61125b565b34801561049957600080fd5b506102d66104a83660046127d9565b611270565b3480156104b957600080fd5b506101e66104c83660046125c1565b611308565b3480156104d957600080fd5b5061024961131a565b3480156104ee57600080fd5b5061021c6104fd3660046125dc565b611353565b34801561050e57600080fd5b506101e661051d36600461299d565b611381565b6102d66105303660046126c9565b61139e565b34801561054157600080fd5b506102d66105503660046125c1565b61153c565b34801561056157600080fd5b506102d661057036600461277c565b61156c565b60006001600160a01b0383166105a65760405162461bcd60e51b815260040161059d90612c59565b60405180910390fd5b5060008181526001602090815260408083206001600160a01b03861684529091529020545b92915050565b60006001600160e01b031982166301ffc9a760e01b148061060257506001600160e01b03198216636cdb3d1360e11b145b1561060f57506001610613565b5060005b919050565b60606105cb6040518060400160405280601d81526020017f68747470733a2f2f7374617368626c6f782e636f6d2f746f6b656e732f00000081525061065c84611668565b611724565b6009602052816000526040600020818154811061067a57fe5b6000918252602090912001546001600160a01b03169150829050565b600c6020526000908152604090205460ff1681565b6000908152600d602052604090205490565b8483146106dc5760405162461bcd60e51b815260040161059d90613291565b6001600160a01b0387166107025760405162461bcd60e51b815260040161059d90612d21565b6001600160a01b038816331480610724575061071e8833611353565b15156001145b6107405760405162461bcd60e51b815260040161059d90613234565b3460005b868110156107895761077d8a8a8a8a8581811061075d57fe5b9050602002013589898681811061077057fe5b905060200201358661182e565b90910390600101610744565b50876001600160a01b0316896001600160a01b0316336001600160a01b03167f4a39dc06d4c0dbc64b70af90fd698a233a518aa5d07e595d983b8c0526c8f7fb8a8a8a8a6040516107dd9493929190612b6d565b60405180910390a4610889338a8a8a8a8080602002602001604051908101604052809392919081815260200183836020028082843760009201919091525050604080516020808e0282810182019093528d82529093508d92508c91829185019084908082843760009201919091525050604080516020601f8d018190048102820181019092528b815292508b91508a9081908401838280828437600092019190915250611b4a92505050565b801561090d576000336001600160a01b0316826040516108a890612a9a565b60006040518083038185875af1925050503d80600081146108e5576040519150601f19603f3d011682016040523d82523d6000602084013e6108ea565b606091505b505090508061090b5760405162461bcd60e51b815260040161059d906132df565b505b505050505050505050565b6060815183511461093b5760405162461bcd60e51b815260040161059d90612f02565b6060835167ffffffffffffffff8111801561095557600080fd5b5060405190808252806020026020018201604052801561097f578160200160208202803683370190505b50905060005b8451811015610a505760006001600160a01b03168582815181106109a557fe5b60200260200101516001600160a01b031614156109d45760405162461bcd60e51b815260040161059d90612fa8565b600160008583815181106109e457fe5b602002602001015181526020019081526020016000206000868381518110610a0857fe5b60200260200101516001600160a01b03166001600160a01b0316815260200190815260200160002054828281518110610a3d57fe5b6020908102919091010152600101610985565b509392505050565b610a6133611c18565b610a7d5760405162461bcd60e51b815260040161059d90612e69565b610a878282611c42565b5050565b60086020528160005260406000208181548110610aa457fe5b90600052602060002001600091509150505481565b610ac1611c81565b610add5760405162461bcd60e51b815260040161059d9061303d565b60008281526011602090815260408083206001600160a01b03851684529091529020805460019091015481610b245760405162461bcd60e51b815260040161059d906130c7565b6001600160a01b03831660008181526007602090815260408083208054860190558051808201825283815280830184905288845260118352818420948452939091529020610b73916002612373565b50837fd7e908f6f9af1236bea3e4382bb17cabca5929dec62fbb431284240820150ddd8484604051610ba6929190612ab1565b60405180910390a250505050565b6000828152600e6020526040902054610bdf5760405162461bcd60e51b815260040161059d90612cea565b60008111610bff5760405162461bcd60e51b815260040161059d90612e21565b600082815260106020908152604080832054600e909252822054610c309161271091610c2a91611c92565b90611cd3565b6000848152600160209081526040808320338452909152902054909150811115610c6c5760405162461bcd60e51b815260040161059d90612eac565b6000838152600160209081526040808320338452825280832054868452600e909252822054610c9a91611d15565b90506000610ca88285611c92565b905080341015610cca5760405162461bcd60e51b815260040161059d90613072565b6040805180820182528581523460208083019190915260008881526011825283812033825290915291909120610d019160026123b6565b50847f2a7673db20f80755f65f456687dc9fd630454e8c76e428cb4a4ae1d0410cef5e3386604051610d34929190612ab1565b60405180910390a25050505050565b610d4b611c81565b610d675760405162461bcd60e51b815260040161059d9061303d565b6001600160a01b03166000908152600f60205260409020805460ff19166001179055565b610d9433611c18565b610db05760405162461bcd60e51b815260040161059d90612e69565b600481905560405133907f5c5a35dc0829d2f6a31d1d6da57c4315ba7b562ee447c87b75c732cfd96abde990610de79084906133dc565b60405180910390a250565b610dfa611c81565b610e165760405162461bcd60e51b815260040161059d9061303d565b6001600160a01b03166000908152600f60205260409020805460ff19169055565b6000546001600160a01b031690565b610e4f33611c18565b610e6b5760405162461bcd60e51b815260040161059d90612e69565b60008281526003602090815260408083208151808301909252428252818301859052805460018101825590845291909220610eae926002928302909101916123b6565b50336001600160a01b03167f4bd9446604f43017ac3918d8db419b59a3b6f2a6cdd456eed5de99621bb627658383604051610eea9291906133e5565b60405180910390a25050565b336001600160a01b0383161415610f1f5760405162461bcd60e51b815260040161059d90612dd5565b336000818152600b602090815260408083206001600160a01b038716808552925291829020805460ff191685151517905590519091907f17307eab39ab6107e8899845ad3d59bd9653f200f220920489ca2b5937696c3190610f82908590612ba7565b60405180910390a35050565b610f96611c81565b610fb25760405162461bcd60e51b815260040161059d9061303d565b60008281526011602090815260408083206001600160a01b03851684529091529020805460019091015481610ff95760405162461bcd60e51b815260040161059d906130c7565b600084815260106020908152604080832054600e9092528220546110249161271091610c2a91611c92565b60008681526001602090815260408083203384529091529020549091508111156110605760405162461bcd60e51b815260040161059d90612bfc565b6000858152600160209081526040808320338452825280832054888452600e90925282205461108e91611d15565b9050600061109c8286611c92565b9050808410156110be5760405162461bcd60e51b815260040161059d906131d7565b60005b6000888152600960205260409020548110156111795760008881526009602052604081208054839081106110f157fe5b60009182526020808320909101548b83526001825260408084206001600160a01b0390921680855291909252912054909150801561116f5760006111358983611c92565b6001600160a01b038416600081815260076020908152604080832080549095019094558e8252600181528382209282529190915290812055505b50506001016110c1565b506000878152600e6020908152604080832054600183528184206001600160a01b038b16855290925290912055808411156111cf576001600160a01b038616600090815260076020526040902080548286030190555b604080518082018252600080825260208083018290528a8252601181528382206001600160a01b038b16835290529190912061120c916002612373565b50867f1a28571d07f35a57e1ed755a57928ae32539f444bbcef661637165f04fb5083f878760405161123f929190612ab1565b60405180910390a250505050505050565b60006105cb82611c18565b6000611268848484611d57565b949350505050565b61127933611c18565b6112955760405162461bcd60e51b815260040161059d90612e69565b61090b8a8a8a8a8a8a8a8a8080602002602001604051908101604052809392919081815260200183836020028082843760009201919091525050604080516020808e0282810182019093528d82529093508d92508c918291850190849080828437600092019190915250611eb192505050565b60076020526000908152604090205481565b6040518060400160405280601d81526020017f68747470733a2f2f7374617368626c6f782e636f6d2f746f6b656e732f00000081525081565b6001600160a01b039182166000908152600b6020908152604080832093909416825291909152205460ff1690565b600260209081526000928352604080842090915290825290205481565b6001600160a01b0385166113c45760405162461bcd60e51b815260040161059d90612d21565b6001600160a01b0386163314806113e657506113e08633611353565b15156001145b6114025760405162461bcd60e51b815260040161059d90613234565b34611410878787878561182e565b81039050856001600160a01b0316876001600160a01b0316336001600160a01b03167fc3d58168c5ae7397731d063d5bbf3d657854427343f4c083240f7aacaa2d0f6288886040516114639291906133e5565b60405180910390a46114af338888888888888080601f01602080910402602001604051908101604052809392919081815260200183838082843760009201919091525061212992505050565b8015611533576000336001600160a01b0316826040516114ce90612a9a565b60006040518083038185875af1925050503d806000811461150b576040519150601f19603f3d011682016040523d82523d6000602084013e611510565b606091505b50509050806115315760405162461bcd60e51b815260040161059d906132df565b505b50505050505050565b611544611c81565b6115605760405162461bcd60e51b815260040161059d9061303d565b611569816121ef565b50565b611574611c81565b6115905760405162461bcd60e51b815260040161059d9061303d565b6001600160a01b0382166000908152600760205260409020548111156115c85760405162461bcd60e51b815260040161059d90612da0565b6000826001600160a01b0316826040516115e190612a9a565b60006040518083038185875af1925050503d806000811461161e576040519150601f19603f3d011682016040523d82523d6000602084013e611623565b606091505b50509050806116445760405162461bcd60e51b815260040161059d90612bc5565b506001600160a01b0390911660009081526007602052604090208054919091039055565b60606000825b801561168457600191909101906010900461166e565b60608267ffffffffffffffff8111801561169d57600080fd5b506040519080825280601f01601f1916602001820160405280156116c8576020820181803683370190505b50905060005b8381101561171b576010860692506116e583612270565b82600183870303815181106116f657fe5b60200101906001600160f81b031916908160001a9053506010860495506001016116ce565b50949350505050565b805182516060918491849184910167ffffffffffffffff8111801561174857600080fd5b506040519080825280601f01601f191660200182016040528015611773576020820181803683370190505b509050806000805b85518110156117cc5785818151811061179057fe5b602001015160f81c60f81b8383806001019450815181106117ad57fe5b60200101906001600160f81b031916908160001a90535060010161177b565b5060005b8451811015611821578481815181106117e557fe5b602001015160f81c60f81b83838060010194508151811061180257fe5b60200101906001600160f81b031916908160001a9053506001016117d0565b5090979650505050505050565b6000838152600c6020526040812054849060ff161561184c57600080fd5b611857878686611d57565b9150818310156118795760405162461bcd60e51b815260040161059d90613391565b6118c0846040518060600160405280602a8152602001613451602a913960008881526001602090815260408083206001600160a01b038e16845290915290205491906122b4565b60008681526001602090815260408083206001600160a01b038c8116855292528083209390935588168152908120546118f990866122e0565b60008781526001602090815260408083206001600160a01b038c1684529091529020549091506119db576000868152600a602090815260408083206001600160a01b038b16845290915290205460ff166119b1576001600160a01b0387166000818152600860209081526040808320805460018181018355918552838520018b90558a8452600983528184208054918201815584528284200180546001600160a01b03191685179055898352600a8252822092909152525b60008681526002602090815260408083206001600160a01b038b1684529091529020429055611a6c565b60008681526002602090815260408083206001600160a01b038b168452909152812054611a09904290611d15565b60008881526001602090815260408083206001600160a01b038d16845290915281205491925090611a40908490610c2a9085611c92565b60008981526002602090815260408083206001600160a01b038e16845290915290204291909103905550505b60008681526001602090815260408083206001600160a01b038b16845290915281208290555b600087815260056020526040902054811015611b3e576000878152600560205260408120805483908110611ac257fe5b60009182526020808320909101548a835260069091526040822080546001600160a01b0390921693509084908110611af657fe5b6000918252602090912001549050611b14612710610c2a8884611c92565b6001600160a01b039092166000908152600760205260409020805490920190915550600101611a92565b50505095945050505050565b611b5c846001600160a01b0316612305565b15611c105760405163bc197c8160e01b808252906001600160a01b0386169063bc197c8190611b97908a908a90899089908990600401612aca565b602060405180830381600087803b158015611bb157600080fd5b505af1158015611bc5573d6000803e3d6000fd5b505050506040513d601f19601f82011682018060405250810190611be99190612969565b6001600160e01b03191614611c105760405162461bcd60e51b815260040161059d90612f52565b505050505050565b6001600160a01b0381166000908152600f602052604081205460ff16806105cb57506105cb611c81565b6000828152600d602052604080822083905551829184917f9cd9c60390fc75c213fd8d644749f61388dd30ed6c6eb4647b793b5b580fb4309190a35050565b6000546001600160a01b0316331490565b600082611ca1575060006105cb565b82820282848281611cae57fe5b0414611ccc5760405162461bcd60e51b815260040161059d90612ffc565b9392505050565b6000611ccc83836040518060400160405280601a81526020017f536166654d6174683a206469766973696f6e206279207a65726f00000000000081525061233c565b6000611ccc83836040518060400160405280601e81526020017f536166654d6174683a207375627472616374696f6e206f766572666c6f7700008152506122b4565b60006001600160a01b038416611d7f5760405162461bcd60e51b815260040161059d90612c59565b6000838152600360205260408120544290600019015b6000868152600360205260408120805483908110611daf57fe5b6000918252602082206002909102010154905060006305f5e100600454600360008b81526020019081526020016000208581548110611dea57fe5b9060005260206000209060020201600160028110611e0457fe5b01540281611e0e57fe5b60008a81526002602090815260408083206001600160a01b038f168452909152812054929091049250908311611e81575060008881526002602090815260408083206001600160a01b038d168452909152902054620151809085030480611e73575060015b028602939093019250611ea6565b50620151808285030480611e93575060015b0286029390930192915060001901611d95565b509095945050505050565b6000878152600e6020526040902054158015611ecd5750600086115b8015611ed95750600084115b8015611ee55750600083115b8015611ef357506127108311155b8015611f00575060008251115b8015611f0d575080518251145b611f295760405162461bcd60e51b815260040161059d90613309565b6000805b8251811015611f8957828181518110611f4257fe5b6020026020010151820191506000838281518110611f5c57fe5b602002602001015111611f815760405162461bcd60e51b815260040161059d90613111565b600101611f2d565b508061271014611fab5760405162461bcd60e51b815260040161059d9061316e565b6000888152600a602090815260408083206001600160a01b038d16808552908352818420805460ff191660019081179091556008845282852080548083018255908652848620018d90558c8552600e84528285208c90558352818420908452909152902087905561201c8887611c42565b60008881526002602081815260408084206001600160a01b038e168552825280842042908190558c85526003835281852082518084019093529082528183018a905280546001810182559085529190932061207b9391830201916123b6565b5060008881526010602090815260408083208790556005825290912084516120a5928601906123e4565b50600088815260066020908152604090912083516120c592850190612445565b50886001600160a01b031660006001600160a01b0316336001600160a01b03167fc3d58168c5ae7397731d063d5bbf3d657854427343f4c083240f7aacaa2d0f628b8b6040516121169291906133e5565b60405180910390a4505050505050505050565b61213b846001600160a01b0316612305565b15611c105760405163f23a6e6160e01b808252906001600160a01b0386169063f23a6e6190612176908a908a90899089908990600401612b28565b602060405180830381600087803b15801561219057600080fd5b505af11580156121a4573d6000803e3d6000fd5b505050506040513d601f19601f820116820180604052508101906121c89190612969565b6001600160e01b03191614611c105760405162461bcd60e51b815260040161059d90613340565b6001600160a01b0381166122155760405162461bcd60e51b815260040161059d90612ca4565b600080546040516001600160a01b03808516939216917f8be0079c531659141344cd1fd0a4f28419497f9722a3daafe3b4186f6b6457e091a3600080546001600160a01b0319166001600160a01b0392909216919091179055565b600060098260ff161161228a57506030810160f81b610613565b8160ff16600a111580156122a25750600f8260ff1611155b156101c157506057810160f81b610613565b600081848411156122d85760405162461bcd60e51b815260040161059d9190612bb2565b505050900390565b600082820183811015611ccc5760405162461bcd60e51b815260040161059d90612d69565b6000813f7fc5d2460186f7233c927e7db2dcc703c0e500b653ca82273b7bfad8045d85a47081158015906112685750141592915050565b6000818361235d5760405162461bcd60e51b815260040161059d9190612bb2565b50600083858161236957fe5b0495945050505050565b82600281019282156123a6579160200282015b828111156123a6578251829060ff16905591602001919060010190612386565b506123b292915061247f565b5090565b82600281019282156123a6579160200282015b828111156123a65782518255916020019190600101906123c9565b828054828255906000526020600020908101928215612439579160200282015b8281111561243957825182546001600160a01b0319166001600160a01b03909116178255602090920191600190910190612404565b506123b2929150612494565b8280548282559060005260206000209081019282156123a657916020028201828111156123a65782518255916020019190600101906123c9565b5b808211156123b25760008155600101612480565b5b808211156123b25780546001600160a01b0319168155600101612495565b80356001600160a01b03811681146105cb57600080fd5b60008083601f8401126124db578182fd5b50813567ffffffffffffffff8111156124f2578182fd5b602083019150836020808302850101111561250c57600080fd5b9250929050565b600082601f830112612523578081fd5b81356125366125318261341a565b6133f3565b81815291506020808301908481018184028601820187101561255757600080fd5b60005b848110156125765781358452928201929082019060010161255a565b505050505092915050565b60008083601f840112612592578182fd5b50813567ffffffffffffffff8111156125a9578182fd5b60208301915083602082850101111561250c57600080fd5b6000602082840312156125d2578081fd5b611ccc83836124b3565b600080604083850312156125ee578081fd5b6125f884846124b3565b915061260784602085016124b3565b90509250929050565b60008060008060008060008060a0898b03121561262b578384fd5b6126358a8a6124b3565b97506126448a60208b016124b3565b9650604089013567ffffffffffffffff80821115612660578586fd5b61266c8c838d016124ca565b909850965060608b0135915080821115612684578586fd5b6126908c838d016124ca565b909650945060808b01359150808211156126a8578384fd5b506126b58b828c01612581565b999c989b5096995094979396929594505050565b60008060008060008060a087890312156126e1578182fd5b6126eb88886124b3565b95506126fa88602089016124b3565b94506040870135935060608701359250608087013567ffffffffffffffff811115612723578283fd5b61272f89828a01612581565b979a9699509497509295939492505050565b60008060408385031215612753578182fd5b61275d84846124b3565b915060208301358015158114612771578182fd5b809150509250929050565b6000806040838503121561278e578182fd5b61279884846124b3565b946020939093013593505050565b6000806000606084860312156127ba578283fd5b6127c485856124b3565b95602085013595506040909401359392505050565b6000806000806000806000806000806101008b8d0312156127f8578182fd5b6128028c8c6124b3565b995060208b0135985060408b0135975060608b0135965060808b0135955060a08b0135945060c08b013567ffffffffffffffff80821115612841578384fd5b61284d8e838f016124ca565b909650945060e08d0135915080821115612865578384fd5b506128728d828e016124ca565b915080935050809150509295989b9194979a5092959850565b6000806040838503121561289d578182fd5b823567ffffffffffffffff808211156128b4578384fd5b818501915085601f8301126128c7578384fd5b81356128d56125318261341a565b80828252602080830192508086018a8283870289010111156128f5578889fd5b8896505b8487101561291f5761290b8b826124b3565b8452600196909601959281019281016128f9565b509096508701359350505080821115612936578283fd5b5061294385828601612513565b9150509250929050565b60006020828403121561295e578081fd5b8135611ccc8161343a565b60006020828403121561297a578081fd5b8151611ccc8161343a565b600060208284031215612996578081fd5b5035919050565b600080604083850312156129af578182fd5b8235915061260784602085016124b3565b600080604083850312156129d2578182fd5b50508035926020909101359150565b81835260006001600160fb1b038311156129f9578081fd5b6020830280836020870137939093016020019283525090919050565b6000815180845260208085019450808401835b83811015612a4457815187529582019590820190600101612a28565b509495945050505050565b60008151808452815b81811015612a7457602081850181015186830182015201612a58565b81811115612a855782602083870101525b50601f01601f19169290920160200192915050565b90565b6001600160a01b0391909116815260200190565b6001600160a01b03929092168252602082015260400190565b6001600160a01b0386811682528516602082015260a060408201819052600090612af690830186612a15565b8281036060840152612b088186612a15565b90508281036080840152612b1c8185612a4f565b98975050505050505050565b6001600160a01b03868116825285166020820152604081018490526060810183905260a060808201819052600090612b6290830184612a4f565b979650505050505050565b600060408252612b816040830186886129e1565b8281036020840152612b628185876129e1565b600060208252611ccc6020830184612a15565b901515815260200190565b600060208252611ccc6020830184612a4f565b6020808252601d908201527f5374617368426c6f783a205769746864726177616c206661696c65642e000000604082015260600190565b60208082526038908201527f5374617368426c6f783a20696e73756666696369656e742062616c616e63652060408201527f746f2065786563757465207468652063616c6c6261636b2e0000000000000000606082015260800190565b6020808252602b908201527f455243313135353a2062616c616e636520717565727920666f7220746865207a60408201526a65726f206164647265737360a81b606082015260800190565b60208082526026908201527f4f776e61626c653a206e6577206f776e657220697320746865207a65726f206160408201526564647265737360d01b606082015260800190565b60208082526019908201527f5374617368426c6f783a20556e6b6e6f776e20746f6b656e2e00000000000000604082015260600190565b60208082526028908201527f455243313135353a207461726765742061646472657373206d757374206265206040820152676e6f6e2d7a65726f60c01b606082015260800190565b6020808252601b908201527f536166654d6174683a206164646974696f6e206f766572666c6f770000000000604082015260600190565b6020808252818101527f5374617368426c6f783a20496e73756666696369656e742062616c616e63652e604082015260600190565b6020808252602c908201527f455243313135353a2063616e6e6f742073657420617070726f76616c2073746160408201526b3a3ab9903337b91039b2b63360a11b606082015260800190565b60208082526028908201527f5374617368426c6f783a205072696365206d7573742062652067726561746572604082015267103a3430b710181760c11b606082015260800190565b60208082526023908201527f4d696e7461626c653a2063616c6c6572206973206e6f74206120746f6b656e696040820152623d32b960e91b606082015260800190565b60208082526036908201527f5374617368426c6f783a20696e73756666696369656e742062616c616e6365206040820152753a3790383937b837b9b290309031b0b6363130b1b59760511b606082015260800190565b60208082526030908201527f455243313135353a206163636f756e747320616e6420494473206d757374206860408201526f6176652073616d65206c656e6774687360801b606082015260800190565b60208082526036908201527f455243313135353a20676f7420756e6b6e6f776e2076616c75652066726f6d206040820152751bdb915490cc4c4d4d50985d18da149958d95a5d995960521b606082015260800190565b60208082526034908201527f455243313135353a20736f6d65206164647265737320696e2062617463682062604082015273616c616e6365207175657279206973207a65726f60601b606082015260800190565b60208082526021908201527f536166654d6174683a206d756c7469706c69636174696f6e206f766572666c6f6040820152607760f81b606082015260800190565b6020808252818101527f4f776e61626c653a2063616c6c6572206973206e6f7420746865206f776e6572604082015260600190565b60208082526035908201527f5374617368426c6f783a20696e73756666696369656e742076616c756520666f60408201527439103a343290383937b837b9b2b210383934b1b29760591b606082015260800190565b6020808252602a908201527f5374617368426c6f783a2063616c6c6261636b2070726f706f736974696f6e206040820152693737ba103337bab7321760b11b606082015260800190565b6020808252603c908201527f5374617368426c6f783a2066656573526563697069656e747350657263656e7460408201527f6167652073686f756c642062652067726561746572207468616e203000000000606082015260800190565b60208082526043908201527f5374617368426c6f783a20546f74616c206f662066656573526563697069656e60408201527f747350657263656e74616765206d75737420626520657175616c20746f20313060608201526203030360ec1b608082015260a00190565b6020808252603f908201527f5374617368426c6f783a20696e73756666696369656e7420657363726f77656460408201527f2076616c756520746f2065786563757465207468652063616c6c6261636b2e00606082015260800190565b60208082526037908201527f455243313135353a206e656564206f70657261746f7220617070726f76616c2060408201527f666f7220337264207061727479207472616e7366657273000000000000000000606082015260800190565b6020808252602e908201527f455243313135353a2049447320616e642076616c756573206d7573742068617660408201526d652073616d65206c656e6774687360901b606082015260800190565b60208082526010908201526f2a3930b739b332b9103330b4b632b21760811b604082015260600190565b6020808252601c908201527f5374617368426c6f783a20496e76616c696420617267756d656e747300000000604082015260600190565b60208082526031908201527f455243313135353a20676f7420756e6b6e6f776e2076616c75652066726f6d206040820152701bdb915490cc4c4d4d549958d95a5d9959607a1b606082015260800190565b6020808252602b908201527f455243313135353a20696e73756666696369656e742045544820666f7220747260408201526a616e73666572206665657360a81b606082015260800190565b90815260200190565b918252602082015260400190565b60405181810167ffffffffffffffff8111828210171561341257600080fd5b604052919050565b600067ffffffffffffffff821115613430578081fd5b5060209081020190565b6001600160e01b03198116811461156957600080fdfe455243313135353a20696e73756666696369656e742062616c616e636520666f72207472616e73666572a26469706673582212208c6bfdf6c09c2339537008ecb616dc22aa0bbc941acdc8946677f28a37594d2364736f6c63430007010033",
  "immutableReferences": {},
  "source": "pragma solidity ^0.7.1;\npragma experimental ABIEncoderV2;\n\nimport './lib/ERC1155/ERC1155Mintable.sol';\nimport \"./lib/utils/SafeMath.sol\";\n\ncontract StashBlox is ERC1155Mintable {\n\n    // list of callback propositions\n    // _callbackPropositions[tokenID][proposer] = [priceForEachToken, ETHAmountEscrowed]\n    mapping (uint256 => mapping(address => uint256[2])) _callbackPropositions;\n\n    event CallbackProposed(uint256 indexed _id, address _proposer, uint256 _price);\n    event CallbackRefused(uint256 indexed _id, address _proposer, uint256 _price);\n    event CallbackAccepted(uint256 indexed _id, address _proposer, uint256 _price);\n\n    using SafeMath for uint256;\n\n    /**\n     * @dev Propose to buy the whole supply of a token.\n     * The proposer must hold minHoldingForCallback% of the total supply.\n     * StashBlox must approve the price with acceptCallback();\n     * @param id Token ID\n     * @param price proposed price\n     */\n    function proposeCallback(uint256 id, uint256 price) external payable {\n      require(_supplies[id] > 0, \"StashBlox: Unknown token.\");\n      require(price > 0, \"StashBlox: Price must be greater than 0.\");\n\n      uint256 minHolding = (_supplies[id].mul(_minHoldingForCallback[id])).div(10000);\n      require(_balances[id][msg.sender] >= minHolding, \"StashBlox: insufficient balance to propose a callback.\");\n\n      uint256 callbackAmount = _supplies[id].sub(_balances[id][msg.sender]);\n      uint256 callbackPrice = callbackAmount.mul(price);\n      require(msg.value >= callbackPrice, \"StashBlox: insufficient value for the proposed price.\");\n\n      _callbackPropositions[id][msg.sender] = [price, msg.value];\n      emit CallbackProposed(id, msg.sender, price);\n    }\n\n    /**\n     * @dev Refuse a callback if the price is not enough.\n     * @param id Token ID\n     * @param proposer address of the proposer\n     */\n    function refuseCallback(uint256 id, address proposer) external onlyOwner {\n      uint256 price = _callbackPropositions[id][proposer][0];\n      uint256 escrowedAmount = _callbackPropositions[id][proposer][1];\n\n      require(price > 0, \"StashBlox: callback proposition not found.\");\n\n      // return escrowed amount. Proposer must use withdraw() function to get\n      // escrowed amount.\n      _ETHBalances[proposer] += escrowedAmount;\n\n      _callbackPropositions[id][proposer] = [0, 0];\n      emit CallbackRefused(id, proposer, price);\n    }\n\n    /**\n     * @dev Accept a callback\n     * @param id Token ID\n     * @param proposer address of the proposer\n     */\n    function acceptCallback(uint256 id, address proposer) external onlyOwner {\n      uint256 price = _callbackPropositions[id][proposer][0];\n      uint256 escrowedAmount = _callbackPropositions[id][proposer][1];\n\n      require(price > 0, \"StashBlox: callback proposition not found.\");\n\n      uint256 minHolding = (_supplies[id].mul(_minHoldingForCallback[id])).div(10000);\n      require(_balances[id][msg.sender] >= minHolding, \"StashBlox: insufficient balance to execute the callback.\");\n\n      uint256 callbackAmount = _supplies[id].sub(_balances[id][msg.sender]);\n      uint256 callbackPrice = callbackAmount.mul(price);\n      require(escrowedAmount >= callbackPrice, \"StashBlox: insufficient escrowed value to execute the callback.\");\n\n      // move tokens to the proposer address and escrowed ETH to the holders addresses\n      // Holders must use withdraw() function to get paiement amount.\n      for (uint256 i = 0; i < _addressesByToken[id].length; ++i) {\n        address holderAddress = _addressesByToken[id][i];\n        uint256 holderBalance = _balances[id][holderAddress];\n        if (holderBalance > 0) {\n          uint256 holderPrice = price.mul(holderBalance);\n          _ETHBalances[holderAddress] += holderPrice;\n          _balances[id][holderAddress] = 0;\n        }\n      }\n      _balances[id][proposer] = _supplies[id];\n      if (escrowedAmount > callbackPrice) {\n        _ETHBalances[proposer] += escrowedAmount - callbackPrice;\n      }\n\n      _callbackPropositions[id][proposer] = [0, 0];\n      emit CallbackAccepted(id, proposer, price);\n    }\n}\n",
  "sourcePath": "/home/ouziel/Work/StashBloxContracts/contracts/StashBlox.sol",
  "compiler": {
    "name": "solc",
    "version": "0.7.1+commit.f4a555be.Emscripten.clang"
  },
  "schemaVersion": "3.2.3",
  "updatedAt": "2020-10-01T11:40:38.788Z",
  "devdoc": {
    "kind": "dev",
    "methods": {
      "acceptCallback(uint256,address)": {
        "details": "Accept a callback",
        "params": {
          "id": "Token ID",
          "proposer": "address of the proposer"
        }
      },
      "balanceOf(address,uint256)": {
        "details": "Get the specified address' balance for token with specified ID. Attempting to query the zero account for a balance will result in a revert.",
        "params": {
          "account": "The address of the token holder",
          "id": "ID of the token"
        },
        "returns": {
          "_0": "The account's balance of the token type requested"
        }
      },
      "balanceOfBatch(address[],uint256[])": {
        "details": "Get the balance of multiple account/token pairs. If any of the query accounts is the zero account, this query will revert.",
        "params": {
          "accounts": "The addresses of the token holders",
          "ids": "IDs of the tokens"
        },
        "returns": {
          "_0": "Balances for each account and token id pair"
        }
      },
      "createToken(address,uint256,uint256,uint256,uint256,uint256,address[],uint256[])": {
        "details": "Function to mint an amount of a token with the given ID.",
        "params": {
          "feesRecipients": "list of addresses receiving transfer fees",
          "feesRecipientsPercentage": "list of percentage, each one for the corresponding feesRecipients",
          "id": "ID of the token to be minted",
          "metadataHash": "Metadata file hash",
          "minHoldingForCallback": "minimum holding to propose a callback",
          "recipient": "The address that will own the minted tokens",
          "storageCreditCost": "cost for 24h storage in storageCredit (x 10 ^ 8 for the precision)",
          "supply": "Amount of the token to be minted"
        }
      },
      "isApprovedForAll(address,address)": {
        "params": {
          "account": "The account of the Tokens",
          "operator": "Address of authorized operator"
        },
        "returns": {
          "_0": "True if the operator is approved, false if not"
        }
      },
      "owner()": {
        "details": "Returns the address of the current owner."
      },
      "proposeCallback(uint256,uint256)": {
        "details": "Propose to buy the whole supply of a token. The proposer must hold minHoldingForCallback% of the total supply. StashBlox must approve the price with acceptCallback();",
        "params": {
          "id": "Token ID",
          "price": "proposed price"
        }
      },
      "refuseCallback(uint256,address)": {
        "details": "Refuse a callback if the price is not enough.",
        "params": {
          "id": "Token ID",
          "proposer": "address of the proposer"
        }
      },
      "safeBatchTransferFrom(address,address,uint256[],uint256[],bytes)": {
        "details": "Transfers `values` amount(s) of `ids` from the `from` address to the `to` address specified. Caller must be approved to manage the tokens being transferred out of the `from` account. If `to` is a smart contract, will call `onERC1155BatchReceived` on `to` and act appropriately.",
        "params": {
          "data": "Data forwarded to `onERC1155Received` if `to` is a contract receiver",
          "from": "Source address",
          "ids": "IDs of each token type",
          "to": "Target address",
          "values": "Transfer amounts per token type"
        }
      },
      "safeTransferFrom(address,address,uint256,uint256,bytes)": {
        "details": "Transfers `value` amount of an `id` from the `from` address to the `to` address specified. Caller must be approved to manage the tokens being transferred out of the `from` account. If `to` is a smart contract, will call `onERC1155Received` on `to` and act appropriately.",
        "params": {
          "data": "Data forwarded to `onERC1155Received` if `to` is a contract receiver",
          "from": "Source address",
          "id": "ID of the token type",
          "to": "Target address",
          "value": "Transfer amount"
        }
      },
      "setApprovalForAll(address,bool)": {
        "details": "Sets or unsets the approval of a given operator. An operator is allowed to transfer all tokens of the sender on their behalf. Because an account already has operator privileges for itself, this function will revert if the account attempts to set the approval status for itself.",
        "params": {
          "approved": "representing the status of the approval to be set",
          "operator": "address to set the approval"
        }
      },
      "supportsInterface(bytes4)": {
        "params": {
          "_interfaceID": "The interface identifier, as specified in ERC-165"
        },
        "returns": {
          "_0": "`true` if the contract implements `_interfaceID` and"
        }
      },
      "transferOwnership(address)": {
        "details": "Transfers ownership of the contract to a new account (`newOwner`). Can only be called by the current owner."
      },
      "uri(uint256)": {
        "params": {
          "id": "Token ID"
        },
        "returns": {
          "_0": "URI string"
        }
      }
    },
    "version": 1
  },
  "userdoc": {
    "kind": "user",
    "methods": {
      "isApprovedForAll(address,address)": {
        "notice": "Queries the approval status of an operator for a given account."
      },
      "supportsInterface(bytes4)": {
        "notice": "Query if a contract implements an interface"
      }
    },
    "version": 1
  }
}