{
  "contractName": "StashBlox",
  "abi": [
    {
      "anonymous": false,
      "inputs": [
        {
          "indexed": true,
          "internalType": "address",
          "name": "_owner",
          "type": "address"
        },
        {
          "indexed": true,
          "internalType": "address",
          "name": "_operator",
          "type": "address"
        },
        {
          "indexed": false,
          "internalType": "bool",
          "name": "_approved",
          "type": "bool"
        }
      ],
      "name": "ApprovalForAll",
      "type": "event"
    },
    {
      "anonymous": false,
      "inputs": [
        {
          "indexed": true,
          "internalType": "uint256",
          "name": "_id",
          "type": "uint256"
        },
        {
          "indexed": true,
          "internalType": "uint256",
          "name": "_hash",
          "type": "uint256"
        }
      ],
      "name": "MetadataHashUpdated",
      "type": "event"
    },
    {
      "anonymous": false,
      "inputs": [
        {
          "indexed": true,
          "internalType": "address",
          "name": "previousOwner",
          "type": "address"
        },
        {
          "indexed": true,
          "internalType": "address",
          "name": "newOwner",
          "type": "address"
        }
      ],
      "name": "OwnershipTransferred",
      "type": "event"
    },
    {
      "anonymous": false,
      "inputs": [
        {
          "indexed": true,
          "internalType": "address",
          "name": "_operator",
          "type": "address"
        },
        {
          "indexed": true,
          "internalType": "address",
          "name": "_from",
          "type": "address"
        },
        {
          "indexed": true,
          "internalType": "address",
          "name": "_to",
          "type": "address"
        },
        {
          "indexed": false,
          "internalType": "uint256[]",
          "name": "_ids",
          "type": "uint256[]"
        },
        {
          "indexed": false,
          "internalType": "uint256[]",
          "name": "_values",
          "type": "uint256[]"
        }
      ],
      "name": "TransferBatch",
      "type": "event"
    },
    {
      "anonymous": false,
      "inputs": [
        {
          "indexed": true,
          "internalType": "address",
          "name": "_operator",
          "type": "address"
        },
        {
          "indexed": true,
          "internalType": "address",
          "name": "_from",
          "type": "address"
        },
        {
          "indexed": true,
          "internalType": "address",
          "name": "_to",
          "type": "address"
        },
        {
          "indexed": false,
          "internalType": "uint256",
          "name": "_id",
          "type": "uint256"
        },
        {
          "indexed": false,
          "internalType": "uint256",
          "name": "_value",
          "type": "uint256"
        }
      ],
      "name": "TransferSingle",
      "type": "event"
    },
    {
      "anonymous": false,
      "inputs": [
        {
          "indexed": false,
          "internalType": "string",
          "name": "_value",
          "type": "string"
        },
        {
          "indexed": true,
          "internalType": "uint256",
          "name": "_id",
          "type": "uint256"
        }
      ],
      "name": "URI",
      "type": "event"
    },
    {
      "anonymous": false,
      "inputs": [
        {
          "indexed": true,
          "internalType": "address",
          "name": "_tokenizer",
          "type": "address"
        },
        {
          "indexed": false,
          "internalType": "uint256",
          "name": "_id",
          "type": "uint256"
        },
        {
          "indexed": false,
          "internalType": "uint256",
          "name": "_cost",
          "type": "uint256"
        }
      ],
      "name": "UpdateStorageCost",
      "type": "event"
    },
    {
      "anonymous": false,
      "inputs": [
        {
          "indexed": true,
          "internalType": "address",
          "name": "_owner",
          "type": "address"
        },
        {
          "indexed": false,
          "internalType": "uint256",
          "name": "_price",
          "type": "uint256"
        }
      ],
      "name": "UpdateStorageCreditPrice",
      "type": "event"
    },
    {
      "constant": true,
      "inputs": [],
      "name": "BASE_URI",
      "outputs": [
        {
          "internalType": "string",
          "name": "",
          "type": "string"
        }
      ],
      "payable": false,
      "stateMutability": "view",
      "type": "function"
    },
    {
      "constant": true,
      "inputs": [
        {
          "internalType": "uint256",
          "name": "id",
          "type": "uint256"
        }
      ],
      "name": "addressesByToken",
      "outputs": [
        {
          "internalType": "string",
          "name": "result",
          "type": "string"
        }
      ],
      "payable": false,
      "stateMutability": "view",
      "type": "function"
    },
    {
      "constant": false,
      "inputs": [
        {
          "internalType": "address",
          "name": "tokenizer",
          "type": "address"
        }
      ],
      "name": "authorizeTokenizer",
      "outputs": [],
      "payable": false,
      "stateMutability": "nonpayable",
      "type": "function"
    },
    {
      "constant": true,
      "inputs": [
        {
          "internalType": "address",
          "name": "account",
          "type": "address"
        },
        {
          "internalType": "uint256",
          "name": "id",
          "type": "uint256"
        }
      ],
      "name": "balanceOf",
      "outputs": [
        {
          "internalType": "uint256",
          "name": "",
          "type": "uint256"
        }
      ],
      "payable": false,
      "stateMutability": "view",
      "type": "function"
    },
    {
      "constant": true,
      "inputs": [
        {
          "internalType": "address[]",
          "name": "accounts",
          "type": "address[]"
        },
        {
          "internalType": "uint256[]",
          "name": "ids",
          "type": "uint256[]"
        }
      ],
      "name": "balanceOfBatch",
      "outputs": [
        {
          "internalType": "uint256[]",
          "name": "",
          "type": "uint256[]"
        }
      ],
      "payable": false,
      "stateMutability": "view",
      "type": "function"
    },
    {
      "constant": true,
      "inputs": [
        {
          "internalType": "address",
          "name": "account",
          "type": "address"
        },
        {
          "internalType": "uint256",
          "name": "id",
          "type": "uint256"
        }
      ],
      "name": "birthdayOf",
      "outputs": [
        {
          "internalType": "uint256",
          "name": "",
          "type": "uint256"
        }
      ],
      "payable": false,
      "stateMutability": "view",
      "type": "function"
    },
    {
      "constant": false,
      "inputs": [
        {
          "internalType": "uint256[]",
          "name": "ids",
          "type": "uint256[]"
        },
        {
          "internalType": "address[]",
          "name": "recipients",
          "type": "address[]"
        },
        {
          "internalType": "uint256[]",
          "name": "values",
          "type": "uint256[]"
        },
        {
          "internalType": "uint256[]",
          "name": "metadataHashes",
          "type": "uint256[]"
        },
        {
          "internalType": "uint256[]",
          "name": "storageCreditCost",
          "type": "uint256[]"
        }
      ],
      "name": "createTokens",
      "outputs": [],
      "payable": false,
      "stateMutability": "nonpayable",
      "type": "function"
    },
    {
      "constant": true,
      "inputs": [
        {
          "internalType": "address",
          "name": "account",
          "type": "address"
        },
        {
          "internalType": "address",
          "name": "operator",
          "type": "address"
        }
      ],
      "name": "isApprovedForAll",
      "outputs": [
        {
          "internalType": "bool",
          "name": "",
          "type": "bool"
        }
      ],
      "payable": false,
      "stateMutability": "view",
      "type": "function"
    },
    {
      "constant": true,
      "inputs": [
        {
          "internalType": "address",
          "name": "addr",
          "type": "address"
        }
      ],
      "name": "isLockedAddress",
      "outputs": [
        {
          "internalType": "bool",
          "name": "",
          "type": "bool"
        }
      ],
      "payable": false,
      "stateMutability": "view",
      "type": "function"
    },
    {
      "constant": true,
      "inputs": [
        {
          "internalType": "uint256",
          "name": "id",
          "type": "uint256"
        }
      ],
      "name": "isLockedToken",
      "outputs": [
        {
          "internalType": "bool",
          "name": "",
          "type": "bool"
        }
      ],
      "payable": false,
      "stateMutability": "view",
      "type": "function"
    },
    {
      "constant": true,
      "inputs": [
        {
          "internalType": "address",
          "name": "tokenizer",
          "type": "address"
        }
      ],
      "name": "isTokenizer",
      "outputs": [
        {
          "internalType": "bool",
          "name": "",
          "type": "bool"
        }
      ],
      "payable": false,
      "stateMutability": "view",
      "type": "function"
    },
    {
      "constant": false,
      "inputs": [
        {
          "internalType": "address",
          "name": "addr",
          "type": "address"
        }
      ],
      "name": "lockAddress",
      "outputs": [],
      "payable": false,
      "stateMutability": "nonpayable",
      "type": "function"
    },
    {
      "constant": false,
      "inputs": [
        {
          "internalType": "uint256",
          "name": "id",
          "type": "uint256"
        }
      ],
      "name": "lockToken",
      "outputs": [],
      "payable": false,
      "stateMutability": "nonpayable",
      "type": "function"
    },
    {
      "constant": true,
      "inputs": [
        {
          "internalType": "uint256",
          "name": "id",
          "type": "uint256"
        }
      ],
      "name": "metadataHash",
      "outputs": [
        {
          "internalType": "uint256",
          "name": "",
          "type": "uint256"
        }
      ],
      "payable": false,
      "stateMutability": "view",
      "type": "function"
    },
    {
      "constant": true,
      "inputs": [],
      "name": "owner",
      "outputs": [
        {
          "internalType": "address",
          "name": "",
          "type": "address"
        }
      ],
      "payable": false,
      "stateMutability": "view",
      "type": "function"
    },
    {
      "constant": false,
      "inputs": [
        {
          "internalType": "address",
          "name": "tokenizer",
          "type": "address"
        }
      ],
      "name": "revokeTokenizer",
      "outputs": [],
      "payable": false,
      "stateMutability": "nonpayable",
      "type": "function"
    },
    {
      "constant": false,
      "inputs": [
        {
          "internalType": "address",
          "name": "from",
          "type": "address"
        },
        {
          "internalType": "address",
          "name": "to",
          "type": "address"
        },
        {
          "internalType": "uint256[]",
          "name": "ids",
          "type": "uint256[]"
        },
        {
          "internalType": "uint256[]",
          "name": "values",
          "type": "uint256[]"
        },
        {
          "internalType": "bytes",
          "name": "data",
          "type": "bytes"
        }
      ],
      "name": "safeBatchTransferFrom",
      "outputs": [],
      "payable": true,
      "stateMutability": "payable",
      "type": "function"
    },
    {
      "constant": false,
      "inputs": [
        {
          "internalType": "address",
          "name": "from",
          "type": "address"
        },
        {
          "internalType": "address",
          "name": "to",
          "type": "address"
        },
        {
          "internalType": "uint256",
          "name": "id",
          "type": "uint256"
        },
        {
          "internalType": "uint256",
          "name": "value",
          "type": "uint256"
        },
        {
          "internalType": "bytes",
          "name": "data",
          "type": "bytes"
        }
      ],
      "name": "safeTransferFrom",
      "outputs": [],
      "payable": true,
      "stateMutability": "payable",
      "type": "function"
    },
    {
      "constant": false,
      "inputs": [
        {
          "internalType": "address",
          "name": "operator",
          "type": "address"
        },
        {
          "internalType": "bool",
          "name": "approved",
          "type": "bool"
        }
      ],
      "name": "setApprovalForAll",
      "outputs": [],
      "payable": false,
      "stateMutability": "nonpayable",
      "type": "function"
    },
    {
      "constant": true,
      "inputs": [
        {
          "internalType": "address",
          "name": "account",
          "type": "address"
        },
        {
          "internalType": "uint256",
          "name": "id",
          "type": "uint256"
        },
        {
          "internalType": "uint256",
          "name": "value",
          "type": "uint256"
        }
      ],
      "name": "storageFees",
      "outputs": [
        {
          "internalType": "uint256",
          "name": "",
          "type": "uint256"
        }
      ],
      "payable": false,
      "stateMutability": "view",
      "type": "function"
    },
    {
      "constant": true,
      "inputs": [
        {
          "internalType": "bytes4",
          "name": "_interfaceID",
          "type": "bytes4"
        }
      ],
      "name": "supportsInterface",
      "outputs": [
        {
          "internalType": "bool",
          "name": "",
          "type": "bool"
        }
      ],
      "payable": false,
      "stateMutability": "view",
      "type": "function"
    },
    {
      "constant": true,
      "inputs": [
        {
          "internalType": "address",
          "name": "account",
          "type": "address"
        }
      ],
      "name": "tokensByAddress",
      "outputs": [
        {
          "internalType": "string",
          "name": "result",
          "type": "string"
        }
      ],
      "payable": false,
      "stateMutability": "view",
      "type": "function"
    },
    {
      "constant": true,
      "inputs": [
        {
          "internalType": "uint256",
          "name": "id",
          "type": "uint256"
        }
      ],
      "name": "totalSupply",
      "outputs": [
        {
          "internalType": "uint256",
          "name": "",
          "type": "uint256"
        }
      ],
      "payable": false,
      "stateMutability": "view",
      "type": "function"
    },
    {
      "constant": false,
      "inputs": [
        {
          "internalType": "address",
          "name": "newOwner",
          "type": "address"
        }
      ],
      "name": "transferOwnership",
      "outputs": [],
      "payable": false,
      "stateMutability": "nonpayable",
      "type": "function"
    },
    {
      "constant": false,
      "inputs": [
        {
          "internalType": "address",
          "name": "addr",
          "type": "address"
        }
      ],
      "name": "unlockAddress",
      "outputs": [],
      "payable": false,
      "stateMutability": "nonpayable",
      "type": "function"
    },
    {
      "constant": false,
      "inputs": [
        {
          "internalType": "uint256",
          "name": "id",
          "type": "uint256"
        }
      ],
      "name": "unlockToken",
      "outputs": [],
      "payable": false,
      "stateMutability": "nonpayable",
      "type": "function"
    },
    {
      "constant": false,
      "inputs": [
        {
          "internalType": "uint256",
          "name": "id",
          "type": "uint256"
        },
        {
          "internalType": "uint256",
          "name": "metadataHash",
          "type": "uint256"
        }
      ],
      "name": "updateMetadataHash",
      "outputs": [],
      "payable": false,
      "stateMutability": "nonpayable",
      "type": "function"
    },
    {
      "constant": false,
      "inputs": [
        {
          "internalType": "uint256",
          "name": "id",
          "type": "uint256"
        },
        {
          "internalType": "uint256",
          "name": "newCost",
          "type": "uint256"
        }
      ],
      "name": "updateStorageCost",
      "outputs": [],
      "payable": false,
      "stateMutability": "nonpayable",
      "type": "function"
    },
    {
      "constant": false,
      "inputs": [
        {
          "internalType": "uint256",
          "name": "newPrice",
          "type": "uint256"
        }
      ],
      "name": "updateStorageCreditPrice",
      "outputs": [],
      "payable": false,
      "stateMutability": "nonpayable",
      "type": "function"
    },
    {
      "constant": true,
      "inputs": [
        {
          "internalType": "uint256",
          "name": "id",
          "type": "uint256"
        }
      ],
      "name": "uri",
      "outputs": [
        {
          "internalType": "string",
          "name": "",
          "type": "string"
        }
      ],
      "payable": false,
      "stateMutability": "view",
      "type": "function"
    },
    {
      "constant": false,
      "inputs": [
        {
          "internalType": "address",
          "name": "to",
          "type": "address"
        },
        {
          "internalType": "uint256",
          "name": "amount",
          "type": "uint256"
        }
      ],
      "name": "withdraw",
      "outputs": [],
      "payable": false,
      "stateMutability": "nonpayable",
      "type": "function"
    }
  ],
  "bytecode": "0x60806040526103e86006556200001b336200002160201b60201c565b620001ed565b600073ffffffffffffffffffffffffffffffffffffffff168173ffffffffffffffffffffffffffffffffffffffff16141562000094576040517f08c379a00000000000000000000000000000000000000000000000000000000081526004016200008b90620001ba565b60405180910390fd5b8073ffffffffffffffffffffffffffffffffffffffff166000809054906101000a900473ffffffffffffffffffffffffffffffffffffffff1673ffffffffffffffffffffffffffffffffffffffff167f8be0079c531659141344cd1fd0a4f28419497f9722a3daafe3b4186f6b6457e060405160405180910390a3806000806101000a81548173ffffffffffffffffffffffffffffffffffffffff021916908373ffffffffffffffffffffffffffffffffffffffff16021790555050565b600062000161602683620001dc565b91507f4f776e61626c653a206e6577206f776e657220697320746865207a65726f206160008301527f64647265737300000000000000000000000000000000000000000000000000006020830152604082019050919050565b60006020820190508181036000830152620001d58162000152565b9050919050565b600082825260208201905092915050565b614eb280620001fd6000396000f3fe6080604052600436106101d75760003560e01c8063a22cb46511610102578063d6bc594211610095578063e985e9c511610064578063e985e9c51461072a578063f242432a14610767578063f2fde38b14610783578063f3fef3a3146107ac576101d7565b8063d6bc59421461065c578063dbddb26a14610699578063dd2e0ac0146106c4578063e1c95f8a146106ed576101d7565b8063bd85b039116100d1578063bd85b03914610568578063c02f303c146105a5578063c4be3c3c146105e2578063cba54e601461061f576101d7565b8063a22cb4651461049c578063b5690ac1146104c5578063b7eb5e0a14610502578063bba75c831461052b576101d7565b80636b62becb1161017a5780638495b141116101495780638495b141146103f65780638870147b1461041f5780638da5cb5b14610448578063939cd64114610473576101d7565b80636b62becb146103525780637627b7321461037b57806380f20363146103a457806383fd5a0e146103cd576101d7565b8063219cc8bc116101b6578063219cc8bc146102935780632eb2c2d6146102d057806334a90d02146102ec5780634e1273f414610315576101d7565b8062fdd58e146101dc57806301ffc9a7146102195780630e89341c14610256575b600080fd5b3480156101e857600080fd5b5061020360048036036101fe9190810190613c16565b6107d5565b6040516102109190614bda565b60405180910390f35b34801561022557600080fd5b50610240600480360361023b9190810190613e12565b61089f565b60405161024d91906148fb565b60405180910390f35b34801561026257600080fd5b5061027d60048036036102789190810190613e64565b610950565b60405161028a9190614938565b60405180910390f35b34801561029f57600080fd5b506102ba60048036036102b59190810190613e64565b6109a0565b6040516102c79190614bda565b60405180910390f35b6102ea60048036036102e59190810190613a7c565b6109bd565b005b3480156102f857600080fd5b50610313600480360361030e9190810190613a17565b610d6a565b005b34801561032157600080fd5b5061033c60048036036103379190810190613ca1565b610e0c565b60405161034991906148d9565b60405180910390f35b34801561035e57600080fd5b5061037960048036036103749190810190613e8d565b610fbe565b005b34801561038757600080fd5b506103a2600480360361039d9190810190613a17565b611014565b005b3480156103b057600080fd5b506103cb60048036036103c69190810190613e64565b6110b6565b005b3480156103d957600080fd5b506103f460048036036103ef9190810190613d0d565b61112b565b005b34801561040257600080fd5b5061041d60048036036104189190810190613e64565b611585565b005b34801561042b57600080fd5b5061044660048036036104419190810190613a17565b611625565b005b34801561045457600080fd5b5061045d6116c7565b60405161046a91906147c1565b60405180910390f35b34801561047f57600080fd5b5061049a60048036036104959190810190613e8d565b6116f0565b005b3480156104a857600080fd5b506104c360048036036104be9190810190613bda565b6117ef565b005b3480156104d157600080fd5b506104ec60048036036104e79190810190613e64565b61195b565b6040516104f99190614938565b60405180910390f35b34801561050e57600080fd5b5061052960048036036105249190810190613a17565b611adb565b005b34801561053757600080fd5b50610552600480360361054d9190810190613e64565b611b7d565b60405161055f91906148fb565b60405180910390f35b34801561057457600080fd5b5061058f600480360361058a9190810190613e64565b611b8f565b60405161059c9190614bda565b60405180910390f35b3480156105b157600080fd5b506105cc60048036036105c79190810190613a17565b611bac565b6040516105d991906148fb565b60405180910390f35b3480156105ee57600080fd5b5061060960048036036106049190810190613c52565b611bbe565b6040516106169190614bda565b60405180910390f35b34801561062b57600080fd5b5061064660048036036106419190810190613a17565b611bd4565b60405161065391906148fb565b60405180910390f35b34801561066857600080fd5b50610683600480360361067e9190810190613a17565b611be6565b6040516106909190614938565b60405180910390f35b3480156106a557600080fd5b506106ae611de2565b6040516106bb9190614916565b60405180910390f35b3480156106d057600080fd5b506106eb60048036036106e69190810190613e64565b611e1b565b005b3480156106f957600080fd5b50610714600480360361070f9190810190613c16565b611e91565b6040516107219190614bda565b60405180910390f35b34801561073657600080fd5b50610751600480360361074c9190810190613a40565b611fbb565b60405161075e91906148fb565b60405180910390f35b610781600480360361077c9190810190613b48565b61204f565b005b34801561078f57600080fd5b506107aa60048036036107a59190810190613a17565b6122eb565b005b3480156107b857600080fd5b506107d360048036036107ce9190810190613c16565b61233e565b005b60008073ffffffffffffffffffffffffffffffffffffffff168373ffffffffffffffffffffffffffffffffffffffff161415610846576040517f08c379a000000000000000000000000000000000000000000000000000000000815260040161083d9061497a565b60405180910390fd5b6003600083815260200190815260200160002060008473ffffffffffffffffffffffffffffffffffffffff1673ffffffffffffffffffffffffffffffffffffffff16815260200190815260200160002054905092915050565b60006301ffc9a760e01b7bffffffffffffffffffffffffffffffffffffffffffffffffffffffff1916827bffffffffffffffffffffffffffffffffffffffffffffffffffffffff19161480610938575063d9b67a2660e01b7bffffffffffffffffffffffffffffffffffffffffffffffffffffffff1916827bffffffffffffffffffffffffffffffffffffffffffffffffffffffff1916145b15610946576001905061094b565b600090505b919050565b60606109996040518060400160405280601d81526020017f68747470733a2f2f7374617368626c6f782e636f6d2f746f6b656e732f0000008152506109948461245b565b61254a565b9050919050565b6000600b6000838152602001908152602001600020549050919050565b838390508686905014610a05576040517f08c379a00000000000000000000000000000000000000000000000000000000081526004016109fc90614b5a565b60405180910390fd5b600073ffffffffffffffffffffffffffffffffffffffff168773ffffffffffffffffffffffffffffffffffffffff161415610a75576040517f08c379a0000000000000000000000000000000000000000000000000000000008152600401610a6c906149ba565b60405180910390fd5b3373ffffffffffffffffffffffffffffffffffffffff168873ffffffffffffffffffffffffffffffffffffffff161480610abc575060011515610ab88933611fbb565b1515145b610afb576040517f08c379a0000000000000000000000000000000000000000000000000000000008152600401610af290614b3a565b60405180910390fd5b600034905060008090505b87879050811015610b5157610b428a8a8a8a85818110610b2257fe5b90506020020135898986818110610b3557fe5b9050602002013586612695565b82039150806001019050610b06565b508773ffffffffffffffffffffffffffffffffffffffff168973ffffffffffffffffffffffffffffffffffffffff163373ffffffffffffffffffffffffffffffffffffffff167f4a39dc06d4c0dbc64b70af90fd698a233a518aa5d07e595d983b8c0526c8f7fb8a8a8a8a604051610bcc949392919061489e565b60405180910390a4610ca8338a8a8a8a80806020026020016040519081016040528093929190818152602001838360200280828437600081840152601f19601f82011690508083019250505050505050898980806020026020016040519081016040528093929190818152602001838360200280828437600081840152601f19601f8201169050808301925050505050505088888080601f016020809104026020016040519081016040528093929190818152602001838380828437600081840152601f19601f82011690508083019250505050505050612c59565b6000811115610d5f5760003373ffffffffffffffffffffffffffffffffffffffff1682604051610cd7906147ac565b60006040518083038185875af1925050503d8060008114610d14576040519150601f19603f3d011682016040523d82523d6000602084013e610d19565b606091505b5050905080610d5d576040517f08c379a0000000000000000000000000000000000000000000000000000000008152600401610d5490614b7a565b60405180910390fd5b505b505050505050505050565b610d72612db8565b610db1576040517f08c379a0000000000000000000000000000000000000000000000000000000008152600401610da890614b1a565b60405180910390fd5b6001600260008373ffffffffffffffffffffffffffffffffffffffff1673ffffffffffffffffffffffffffffffffffffffff16815260200190815260200160002060006101000a81548160ff02191690831515021790555050565b60608151835114610e52576040517f08c379a0000000000000000000000000000000000000000000000000000000008152600401610e4990614a5a565b60405180910390fd5b60608351604051908082528060200260200182016040528015610e845781602001602082028038833980820191505090505b50905060008090505b8451811015610fb357600073ffffffffffffffffffffffffffffffffffffffff16858281518110610eba57fe5b602002602001015173ffffffffffffffffffffffffffffffffffffffff161415610f19576040517f08c379a0000000000000000000000000000000000000000000000000000000008152600401610f1090614aba565b60405180910390fd5b60036000858381518110610f2957fe5b602002602001015181526020019081526020016000206000868381518110610f4d57fe5b602002602001015173ffffffffffffffffffffffffffffffffffffffff1673ffffffffffffffffffffffffffffffffffffffff16815260200190815260200160002054828281518110610f9c57fe5b602002602001018181525050806001019050610e8d565b508091505092915050565b610fc733612e0f565b611006576040517f08c379a0000000000000000000000000000000000000000000000000000000008152600401610ffd90614a3a565b60405180910390fd5b6110108282612e74565b5050565b61101c612db8565b61105b576040517f08c379a000000000000000000000000000000000000000000000000000000000815260040161105290614b1a565b60405180910390fd5b6001600d60008373ffffffffffffffffffffffffffffffffffffffff1673ffffffffffffffffffffffffffffffffffffffff16815260200190815260200160002060006101000a81548160ff02191690831515021790555050565b6110be612db8565b6110fd576040517f08c379a00000000000000000000000000000000000000000000000000000000081526004016110f490614b1a565b60405180910390fd5b600180600083815260200190815260200160002060006101000a81548160ff02191690831515021790555050565b61113433612e0f565b611173576040517f08c379a000000000000000000000000000000000000000000000000000000000815260040161116a90614a3a565b60405180910390fd5b878790508a8a905014801561118d57508585905088889050145b801561119e57508383905086869050145b6111dd576040517f08c379a00000000000000000000000000000000000000000000000000000000081526004016111d4906149fa565b60405180910390fd5b60008090505b8a8a9050811015611261576000600c60008d8d8581811061120057fe5b9050602002013581526020019081526020016000205414611256576040517f08c379a000000000000000000000000000000000000000000000000000000000815260040161124d90614afa565b60405180910390fd5b8060010190506111e3565b5060008090505b8a8a90508110156115785760008b8b8381811061128157fe5b90506020020135905060008a8a8481811061129857fe5b90506020020160206112ad9190810190613a17565b905060008989858181106112bd57fe5b90506020020135905080600c60008581526020019081526020016000208190555060056000848152602001908152602001600020604051806040016040528042815260200188888881811061130e57fe5b9050602002013581525090806001815401808255809150509060018203906000526020600020906002020160009091929091909150906002611351929190613765565b5050806003600085815260200190815260200160002060008473ffffffffffffffffffffffffffffffffffffffff1673ffffffffffffffffffffffffffffffffffffffff1681526020019081526020016000208190555060016009600085815260200190815260200160002060008473ffffffffffffffffffffffffffffffffffffffff1673ffffffffffffffffffffffffffffffffffffffff16815260200190815260200160002060006101000a81548160ff021916908315150217905550426004600085815260200190815260200160002060008473ffffffffffffffffffffffffffffffffffffffff1673ffffffffffffffffffffffffffffffffffffffff16815260200190815260200160002081905550600760008373ffffffffffffffffffffffffffffffffffffffff1673ffffffffffffffffffffffffffffffffffffffff1681526020019081526020016000208390806001815401808255809150509060018203906000526020600020016000909192909190915055508173ffffffffffffffffffffffffffffffffffffffff16600073ffffffffffffffffffffffffffffffffffffffff163373ffffffffffffffffffffffffffffffffffffffff167fc3d58168c5ae7397731d063d5bbf3d657854427343f4c083240f7aacaa2d0f628685604051611546929190614bf5565b60405180910390a461156a8389898781811061155e57fe5b90506020020135612e74565b505050806001019050611268565b5050505050505050505050565b61158e33612e0f565b6115cd576040517f08c379a00000000000000000000000000000000000000000000000000000000081526004016115c490614a3a565b60405180910390fd5b806006819055503373ffffffffffffffffffffffffffffffffffffffff167f5c5a35dc0829d2f6a31d1d6da57c4315ba7b562ee447c87b75c732cfd96abde98260405161161a9190614bda565b60405180910390a250565b61162d612db8565b61166c576040517f08c379a000000000000000000000000000000000000000000000000000000000815260040161166390614b1a565b60405180910390fd5b6000600d60008373ffffffffffffffffffffffffffffffffffffffff1673ffffffffffffffffffffffffffffffffffffffff16815260200190815260200160002060006101000a81548160ff02191690831515021790555050565b60008060009054906101000a900473ffffffffffffffffffffffffffffffffffffffff16905090565b6116f933612e0f565b611738576040517f08c379a000000000000000000000000000000000000000000000000000000000815260040161172f90614a3a565b60405180910390fd5b6005600083815260200190815260200160002060405180604001604052804281526020018381525090806001815401808255809150509060018203906000526020600020906002020160009091929091909150906002611799929190613765565b50503373ffffffffffffffffffffffffffffffffffffffff167f4bd9446604f43017ac3918d8db419b59a3b6f2a6cdd456eed5de99621bb6276583836040516117e3929190614bf5565b60405180910390a25050565b8173ffffffffffffffffffffffffffffffffffffffff163373ffffffffffffffffffffffffffffffffffffffff16141561185e576040517f08c379a000000000000000000000000000000000000000000000000000000000815260040161185590614a1a565b60405180910390fd5b80600a60003373ffffffffffffffffffffffffffffffffffffffff1673ffffffffffffffffffffffffffffffffffffffff16815260200190815260200160002060008473ffffffffffffffffffffffffffffffffffffffff1673ffffffffffffffffffffffffffffffffffffffff16815260200190815260200160002060006101000a81548160ff0219169083151502179055508173ffffffffffffffffffffffffffffffffffffffff163373ffffffffffffffffffffffffffffffffffffffff167f17307eab39ab6107e8899845ad3d59bd9653f200f220920489ca2b5937696c318360405161194f91906148fb565b60405180910390a35050565b606060008090505b6008600084815260200190815260200160002080549050811015611ad25760006008600085815260200190815260200160002082815481106119a157fe5b9060005260206000200160009054906101000a900473ffffffffffffffffffffffffffffffffffffffff16905060006003600086815260200190815260200160002060008373ffffffffffffffffffffffffffffffffffffffff1673ffffffffffffffffffffffffffffffffffffffff168152602001908152602001600020541115611ac457600083511115611aa157611a70836040518060400160405280600181526020017f200000000000000000000000000000000000000000000000000000000000000081525061254a565b9250611a9a83611a958373ffffffffffffffffffffffffffffffffffffffff1661245b565b61254a565b9250611ac3565b611ac08173ffffffffffffffffffffffffffffffffffffffff1661245b565b92505b5b508080600101915050611963565b50809050919050565b611ae3612db8565b611b22576040517f08c379a0000000000000000000000000000000000000000000000000000000008152600401611b1990614b1a565b60405180910390fd5b6000600260008373ffffffffffffffffffffffffffffffffffffffff1673ffffffffffffffffffffffffffffffffffffffff16815260200190815260200160002060006101000a81548160ff02191690831515021790555050565b6000611b8882612ebe565b9050919050565b6000600c6000838152602001908152602001600020549050919050565b6000611bb782612e0f565b9050919050565b6000611bcb848484612ee8565b90509392505050565b6000611bdf82613139565b9050919050565b6060600073ffffffffffffffffffffffffffffffffffffffff168273ffffffffffffffffffffffffffffffffffffffff161415611c58576040517f08c379a0000000000000000000000000000000000000000000000000000000008152600401611c4f9061497a565b60405180910390fd5b60008090505b600760008473ffffffffffffffffffffffffffffffffffffffff1673ffffffffffffffffffffffffffffffffffffffff16815260200190815260200160002080549050811015611dd9576000600760008573ffffffffffffffffffffffffffffffffffffffff1673ffffffffffffffffffffffffffffffffffffffff1681526020019081526020016000208281548110611cf457fe5b9060005260206000200154905060006003600083815260200190815260200160002060008673ffffffffffffffffffffffffffffffffffffffff1673ffffffffffffffffffffffffffffffffffffffff168152602001908152602001600020541115611dcb57600083511115611dbe57611da3836040518060400160405280600181526020017f200000000000000000000000000000000000000000000000000000000000000081525061254a565b9250611db783611db28361245b565b61254a565b9250611dca565b611dc78161245b565b92505b5b508080600101915050611c5e565b50809050919050565b6040518060400160405280601d81526020017f68747470733a2f2f7374617368626c6f782e636f6d2f746f6b656e732f00000081525081565b611e23612db8565b611e62576040517f08c379a0000000000000000000000000000000000000000000000000000000008152600401611e5990614b1a565b60405180910390fd5b60006001600083815260200190815260200160002060006101000a81548160ff02191690831515021790555050565b60008073ffffffffffffffffffffffffffffffffffffffff168373ffffffffffffffffffffffffffffffffffffffff161415611f02576040517f08c379a0000000000000000000000000000000000000000000000000000000008152600401611ef99061497a565b60405180910390fd5b60006003600084815260200190815260200160002060008573ffffffffffffffffffffffffffffffffffffffff1673ffffffffffffffffffffffffffffffffffffffff1681526020019081526020016000205414611fb0576004600083815260200190815260200160002060008473ffffffffffffffffffffffffffffffffffffffff1673ffffffffffffffffffffffffffffffffffffffff16815260200190815260200160002054611fb3565b60005b905092915050565b6000600a60008473ffffffffffffffffffffffffffffffffffffffff1673ffffffffffffffffffffffffffffffffffffffff16815260200190815260200160002060008373ffffffffffffffffffffffffffffffffffffffff1673ffffffffffffffffffffffffffffffffffffffff16815260200190815260200160002060009054906101000a900460ff16905092915050565b600073ffffffffffffffffffffffffffffffffffffffff168573ffffffffffffffffffffffffffffffffffffffff1614156120bf576040517f08c379a00000000000000000000000000000000000000000000000000000000081526004016120b6906149ba565b60405180910390fd5b3373ffffffffffffffffffffffffffffffffffffffff168673ffffffffffffffffffffffffffffffffffffffff1614806121065750600115156121028733611fbb565b1515145b612145576040517f08c379a000000000000000000000000000000000000000000000000000000000815260040161213c90614b3a565b60405180910390fd5b60003490506121578787878785612695565b810390508573ffffffffffffffffffffffffffffffffffffffff168773ffffffffffffffffffffffffffffffffffffffff163373ffffffffffffffffffffffffffffffffffffffff167fc3d58168c5ae7397731d063d5bbf3d657854427343f4c083240f7aacaa2d0f6288886040516121d1929190614bf5565b60405180910390a461222b338888888888888080601f016020809104026020016040519081016040528093929190818152602001838380828437600081840152601f19601f8201169050808301925050505050505061318f565b60008111156122e25760003373ffffffffffffffffffffffffffffffffffffffff168260405161225a906147ac565b60006040518083038185875af1925050503d8060008114612297576040519150601f19603f3d011682016040523d82523d6000602084013e61229c565b606091505b50509050806122e0576040517f08c379a00000000000000000000000000000000000000000000000000000000081526004016122d790614b7a565b60405180910390fd5b505b50505050505050565b6122f3612db8565b612332576040517f08c379a000000000000000000000000000000000000000000000000000000000815260040161232990614b1a565b60405180910390fd5b61233b816132ee565b50565b612346612db8565b612385576040517f08c379a000000000000000000000000000000000000000000000000000000000815260040161237c90614b1a565b60405180910390fd5b60003073ffffffffffffffffffffffffffffffffffffffff163190508181106124565760008373ffffffffffffffffffffffffffffffffffffffff16836040516123ce906147ac565b60006040518083038185875af1925050503d806000811461240b576040519150601f19603f3d011682016040523d82523d6000602084013e612410565b606091505b5050905080612454576040517f08c379a000000000000000000000000000000000000000000000000000000000815260040161244b90614a7a565b60405180910390fd5b505b505050565b6060600080905060008390505b6000811461248a5781806001019250506010818161248257fe5b049050612468565b6060826040519080825280601f01601f1916602001820160405280156124bf5781602001600182028038833980820191505090505b50905060008090505b8381101561253e57601086816124da57fe5b0692506124e68361341c565b82600183870303815181106124f757fe5b60200101907effffffffffffffffffffffffffffffffffffffffffffffffffffffffffffff1916908160001a9053506010868161253057fe5b0495508060010190506124c8565b50809350505050919050565b6060808390506060839050606081518351016040519080825280601f01601f19166020018201604052801561258e5781602001600182028038833980820191505090505b509050606081905060008090506000809050600090505b8551811015612613578581815181106125ba57fe5b602001015160f81c60f81b8383806001019450815181106125d757fe5b60200101907effffffffffffffffffffffffffffffffffffffffffffffffffffffffffffff1916908160001a90535080806001019150506125a5565b600090505b84518110156126865784818151811061262d57fe5b602001015160f81c60f81b83838060010194508151811061264a57fe5b60200101907effffffffffffffffffffffffffffffffffffffffffffffffffffffffffffff1916908160001a9053508080600101915050612618565b82965050505050505092915050565b60006126a3868686866134c5565b156126e3576040517f08c379a00000000000000000000000000000000000000000000000000000000081526004016126da9061495a565b60405180910390fd5b6126ee868585612ee8565b905080821015612733576040517f08c379a000000000000000000000000000000000000000000000000000000000815260040161272a90614bba565b60405180910390fd5b6127b0836040518060600160405280602a8152602001614e46602a91396003600088815260200190815260200160002060008a73ffffffffffffffffffffffffffffffffffffffff1673ffffffffffffffffffffffffffffffffffffffff168152602001908152602001600020546135059092919063ffffffff16565b6003600086815260200190815260200160002060008873ffffffffffffffffffffffffffffffffffffffff1673ffffffffffffffffffffffffffffffffffffffff168152602001908152602001600020819055506000612869846003600088815260200190815260200160002060008973ffffffffffffffffffffffffffffffffffffffff1673ffffffffffffffffffffffffffffffffffffffff1681526020019081526020016000205461356090919063ffffffff16565b905060006003600087815260200190815260200160002060008873ffffffffffffffffffffffffffffffffffffffff1673ffffffffffffffffffffffffffffffffffffffff168152602001908152602001600020541415612abd576009600086815260200190815260200160002060008773ffffffffffffffffffffffffffffffffffffffff1673ffffffffffffffffffffffffffffffffffffffff16815260200190815260200160002060009054906101000a900460ff16612a6357600760008773ffffffffffffffffffffffffffffffffffffffff1673ffffffffffffffffffffffffffffffffffffffff168152602001908152602001600020859080600181540180825580915050906001820390600052602060002001600090919290919091505550600860008681526020019081526020016000208690806001815401808255809150509060018203906000526020600020016000909192909190916101000a81548173ffffffffffffffffffffffffffffffffffffffff021916908373ffffffffffffffffffffffffffffffffffffffff160217905550506009600086815260200190815260200160002060008773ffffffffffffffffffffffffffffffffffffffff1673ffffffffffffffffffffffffffffffffffffffff16815260200190815260200160002060009054906101000a9050505b426004600087815260200190815260200160002060008873ffffffffffffffffffffffffffffffffffffffff1673ffffffffffffffffffffffffffffffffffffffff16815260200190815260200160002081905550612bf7565b6000612b226004600088815260200190815260200160002060008973ffffffffffffffffffffffffffffffffffffffff1673ffffffffffffffffffffffffffffffffffffffff16815260200190815260200160002054426135b590919063ffffffff16565b90506000612b9b83612b8d84600360008c815260200190815260200160002060008d73ffffffffffffffffffffffffffffffffffffffff1673ffffffffffffffffffffffffffffffffffffffff168152602001908152602001600020546135ff90919063ffffffff16565b61366f90919063ffffffff16565b90508042036004600089815260200190815260200160002060008a73ffffffffffffffffffffffffffffffffffffffff1673ffffffffffffffffffffffffffffffffffffffff1681526020019081526020016000208190555050505b806003600087815260200190815260200160002060008873ffffffffffffffffffffffffffffffffffffffff1673ffffffffffffffffffffffffffffffffffffffff168152602001908152602001600020819055508191505095945050505050565b612c788473ffffffffffffffffffffffffffffffffffffffff166136b9565b15612db0578373ffffffffffffffffffffffffffffffffffffffff1663bc197c81905060e01b7bffffffffffffffffffffffffffffffffffffffffffffffffffffffff19168473ffffffffffffffffffffffffffffffffffffffff1663bc197c8188888787876040518663ffffffff1660e01b8152600401612cfe9594939291906147dc565b602060405180830381600087803b158015612d1857600080fd5b505af1158015612d2c573d6000803e3d6000fd5b505050506040513d601f19601f82011682018060405250612d509190810190613e3b565b7bffffffffffffffffffffffffffffffffffffffffffffffffffffffff191614612daf576040517f08c379a0000000000000000000000000000000000000000000000000000000008152600401612da690614a9a565b60405180910390fd5b5b505050505050565b60008060009054906101000a900473ffffffffffffffffffffffffffffffffffffffff1673ffffffffffffffffffffffffffffffffffffffff163373ffffffffffffffffffffffffffffffffffffffff1614905090565b6000600d60008373ffffffffffffffffffffffffffffffffffffffff1673ffffffffffffffffffffffffffffffffffffffff16815260200190815260200160002060009054906101000a900460ff1680612e6d5750612e6c612db8565b5b9050919050565b80600b60008481526020019081526020016000208190555080827f9cd9c60390fc75c213fd8d644749f61388dd30ed6c6eb4647b793b5b580fb43060405160405180910390a35050565b60006001600083815260200190815260200160002060009054906101000a900460ff169050919050565b60008073ffffffffffffffffffffffffffffffffffffffff168473ffffffffffffffffffffffffffffffffffffffff161415612f59576040517f08c379a0000000000000000000000000000000000000000000000000000000008152600401612f509061497a565b60405180910390fd5b600080905060004290506000600160056000888152602001908152602001600020805490500390505b6000811061312c576000600560008881526020019081526020016000208281548110612faa57fe5b9060005260206000209060020201600060028110612fc457fe5b0154905060006008600a600654600560008c81526020019081526020016000208681548110612fef57fe5b906000526020600020906002020160016002811061300957fe5b0154028161301357fe5b04189050600082600460008b815260200190815260200160002060008c73ffffffffffffffffffffffffffffffffffffffff1673ffffffffffffffffffffffffffffffffffffffff16815260200190815260200160002054106130f05762015180600460008b815260200190815260200160002060008c73ffffffffffffffffffffffffffffffffffffffff1673ffffffffffffffffffffffffffffffffffffffff168152602001908152602001600020548603816130ce57fe5b04905060008114156130df57600190505b87828202028601955050505061312c565b62015180838603816130fe57fe5b049050600081141561310f57600190505b829450878282020286019550505050808060019003915050612f82565b5081925050509392505050565b6000600260008373ffffffffffffffffffffffffffffffffffffffff1673ffffffffffffffffffffffffffffffffffffffff16815260200190815260200160002060009054906101000a900460ff169050919050565b6131ae8473ffffffffffffffffffffffffffffffffffffffff166136b9565b156132e6578373ffffffffffffffffffffffffffffffffffffffff1663f23a6e61905060e01b7bffffffffffffffffffffffffffffffffffffffffffffffffffffffff19168473ffffffffffffffffffffffffffffffffffffffff1663f23a6e6188888787876040518663ffffffff1660e01b8152600401613234959493929190614844565b602060405180830381600087803b15801561324e57600080fd5b505af1158015613262573d6000803e3d6000fd5b505050506040513d601f19601f820116820180604052506132869190810190613e3b565b7bffffffffffffffffffffffffffffffffffffffffffffffffffffffff1916146132e5576040517f08c379a00000000000000000000000000000000000000000000000000000000081526004016132dc90614b9a565b60405180910390fd5b5b505050505050565b600073ffffffffffffffffffffffffffffffffffffffff168173ffffffffffffffffffffffffffffffffffffffff16141561335e576040517f08c379a00000000000000000000000000000000000000000000000000000000081526004016133559061499a565b60405180910390fd5b8073ffffffffffffffffffffffffffffffffffffffff166000809054906101000a900473ffffffffffffffffffffffffffffffffffffffff1673ffffffffffffffffffffffffffffffffffffffff167f8be0079c531659141344cd1fd0a4f28419497f9722a3daafe3b4186f6b6457e060405160405180910390a3806000806101000a81548173ffffffffffffffffffffffffffffffffffffffff021916908373ffffffffffffffffffffffffffffffffffffffff16021790555050565b60008160ff16600011158015613436575060098260ff1611155b1561346b57817f300000000000000000000000000000000000000000000000000000000000000060f81c0160f81b90506134c0565b8160ff16600a111580156134835750600f8260ff1611155b156134bb57600a827f610000000000000000000000000000000000000000000000000000000000000060f81c010360f81b90506134c0565b600080fd5b919050565b60006134d083612ebe565b806134e057506134df85613139565b5b806134f057506134ef84613139565b5b806134fb5750600082145b9050949350505050565b600083831115829061354d576040517f08c379a00000000000000000000000000000000000000000000000000000000081526004016135449190614938565b60405180910390fd5b5060008385039050809150509392505050565b6000808284019050838110156135ab576040517f08c379a00000000000000000000000000000000000000000000000000000000081526004016135a2906149da565b60405180910390fd5b8091505092915050565b60006135f783836040518060400160405280601e81526020017f536166654d6174683a207375627472616374696f6e206f766572666c6f770000815250613505565b905092915050565b6000808314156136125760009050613669565b600082840290508284828161362357fe5b0414613664576040517f08c379a000000000000000000000000000000000000000000000000000000000815260040161365b90614ada565b60405180910390fd5b809150505b92915050565b60006136b183836040518060400160405280601a81526020017f536166654d6174683a206469766973696f6e206279207a65726f000000000000815250613704565b905092915050565b60008060007fc5d2460186f7233c927e7db2dcc703c0e500b653ca82273b7bfad8045d85a47060001b9050833f91506000801b82141580156136fb5750808214155b92505050919050565b6000808311829061374b576040517f08c379a00000000000000000000000000000000000000000000000000000000081526004016137429190614938565b60405180910390fd5b50600083858161375757fe5b049050809150509392505050565b8260028101928215613794579160200282015b82811115613793578251825591602001919060010190613778565b5b5090506137a191906137a5565b5090565b6137c791905b808211156137c35760008160009055506001016137ab565b5090565b90565b6000813590506137d981614de9565b92915050565b60008083601f8401126137f157600080fd5b8235905067ffffffffffffffff81111561380a57600080fd5b60208301915083602082028301111561382257600080fd5b9250929050565b600082601f83011261383a57600080fd5b813561384d61384882614c4b565b614c1e565b9150818183526020840193506020810190508385602084028201111561387257600080fd5b60005b838110156138a2578161388888826137ca565b845260208401935060208301925050600181019050613875565b5050505092915050565b60008083601f8401126138be57600080fd5b8235905067ffffffffffffffff8111156138d757600080fd5b6020830191508360208202830111156138ef57600080fd5b9250929050565b600082601f83011261390757600080fd5b813561391a61391582614c73565b614c1e565b9150818183526020840193506020810190508385602084028201111561393f57600080fd5b60005b8381101561396f57816139558882613a02565b845260208401935060208301925050600181019050613942565b5050505092915050565b60008135905061398881614e00565b92915050565b60008135905061399d81614e17565b92915050565b6000815190506139b281614e17565b92915050565b60008083601f8401126139ca57600080fd5b8235905067ffffffffffffffff8111156139e357600080fd5b6020830191508360018202830111156139fb57600080fd5b9250929050565b600081359050613a1181614e2e565b92915050565b600060208284031215613a2957600080fd5b6000613a37848285016137ca565b91505092915050565b60008060408385031215613a5357600080fd5b6000613a61858286016137ca565b9250506020613a72858286016137ca565b9150509250929050565b60008060008060008060008060a0898b031215613a9857600080fd5b6000613aa68b828c016137ca565b9850506020613ab78b828c016137ca565b975050604089013567ffffffffffffffff811115613ad457600080fd5b613ae08b828c016138ac565b9650965050606089013567ffffffffffffffff811115613aff57600080fd5b613b0b8b828c016138ac565b9450945050608089013567ffffffffffffffff811115613b2a57600080fd5b613b368b828c016139b8565b92509250509295985092959890939650565b60008060008060008060a08789031215613b6157600080fd5b6000613b6f89828a016137ca565b9650506020613b8089828a016137ca565b9550506040613b9189828a01613a02565b9450506060613ba289828a01613a02565b935050608087013567ffffffffffffffff811115613bbf57600080fd5b613bcb89828a016139b8565b92509250509295509295509295565b60008060408385031215613bed57600080fd5b6000613bfb858286016137ca565b9250506020613c0c85828601613979565b9150509250929050565b60008060408385031215613c2957600080fd5b6000613c37858286016137ca565b9250506020613c4885828601613a02565b9150509250929050565b600080600060608486031215613c6757600080fd5b6000613c75868287016137ca565b9350506020613c8686828701613a02565b9250506040613c9786828701613a02565b9150509250925092565b60008060408385031215613cb457600080fd5b600083013567ffffffffffffffff811115613cce57600080fd5b613cda85828601613829565b925050602083013567ffffffffffffffff811115613cf757600080fd5b613d03858286016138f6565b9150509250929050565b60008060008060008060008060008060a08b8d031215613d2c57600080fd5b60008b013567ffffffffffffffff811115613d4657600080fd5b613d528d828e016138ac565b9a509a505060208b013567ffffffffffffffff811115613d7157600080fd5b613d7d8d828e016137df565b985098505060408b013567ffffffffffffffff811115613d9c57600080fd5b613da88d828e016138ac565b965096505060608b013567ffffffffffffffff811115613dc757600080fd5b613dd38d828e016138ac565b945094505060808b013567ffffffffffffffff811115613df257600080fd5b613dfe8d828e016138ac565b92509250509295989b9194979a5092959850565b600060208284031215613e2457600080fd5b6000613e328482850161398e565b91505092915050565b600060208284031215613e4d57600080fd5b6000613e5b848285016139a3565b91505092915050565b600060208284031215613e7657600080fd5b6000613e8484828501613a02565b91505092915050565b60008060408385031215613ea057600080fd5b6000613eae85828601613a02565b9250506020613ebf85828601613a02565b9150509250929050565b6000613ed5838361478e565b60208301905092915050565b613eea81614d22565b82525050565b6000613efc8385614ce4565b93507f07ffffffffffffffffffffffffffffffffffffffffffffffffffffffffffffff831115613f2b57600080fd5b602083029250613f3c838584614d96565b82840190509392505050565b6000613f5382614cab565b613f5d8185614ce4565b9350613f6883614c9b565b8060005b83811015613f99578151613f808882613ec9565b9750613f8b83614cd7565b925050600181019050613f6c565b5085935050505092915050565b613faf81614d34565b82525050565b6000613fc082614cb6565b613fca8185614cf5565b9350613fda818560208601614da5565b613fe381614dd8565b840191505092915050565b6000613ff982614ccc565b6140038185614d11565b9350614013818560208601614da5565b61401c81614dd8565b840191505092915050565b600061403282614cc1565b61403c8185614d11565b935061404c818560208601614da5565b61405581614dd8565b840191505092915050565b600061406d600683614d11565b91507f4c6f636b656400000000000000000000000000000000000000000000000000006000830152602082019050919050565b60006140ad602b83614d11565b91507f455243313135353a2062616c616e636520717565727920666f7220746865207a60008301527f65726f20616464726573730000000000000000000000000000000000000000006020830152604082019050919050565b6000614113602683614d11565b91507f4f776e61626c653a206e6577206f776e657220697320746865207a65726f206160008301527f64647265737300000000000000000000000000000000000000000000000000006020830152604082019050919050565b6000614179602883614d11565b91507f455243313135353a207461726765742061646472657373206d7573742062652060008301527f6e6f6e2d7a65726f0000000000000000000000000000000000000000000000006020830152604082019050919050565b60006141df601b83614d11565b91507f536166654d6174683a206164646974696f6e206f766572666c6f7700000000006000830152602082019050919050565b600061421f602b83614d11565b91507f5374617368426c6f783a20616c6c206c69737473206d7573742068617665207360008301527f616d65206c656e677468730000000000000000000000000000000000000000006020830152604082019050919050565b6000614285602c83614d11565b91507f455243313135353a2063616e6e6f742073657420617070726f76616c2073746160008301527f74757320666f722073656c6600000000000000000000000000000000000000006020830152604082019050919050565b60006142eb602383614d11565b91507f4d696e7461626c653a2063616c6c6572206973206e6f74206120746f6b656e6960008301527f7a657200000000000000000000000000000000000000000000000000000000006020830152604082019050919050565b6000614351603083614d11565b91507f455243313135353a206163636f756e747320616e6420494473206d757374206860008301527f6176652073616d65206c656e67746873000000000000000000000000000000006020830152604082019050919050565b60006143b7601283614d11565b91507f5769746864726177616c206661696c65642e00000000000000000000000000006000830152602082019050919050565b60006143f7603683614d11565b91507f455243313135353a20676f7420756e6b6e6f776e2076616c75652066726f6d2060008301527f6f6e4552433131353542617463685265636569766564000000000000000000006020830152604082019050919050565b600061445d603483614d11565b91507f455243313135353a20736f6d65206164647265737320696e206261746368206260008301527f616c616e6365207175657279206973207a65726f0000000000000000000000006020830152604082019050919050565b60006144c3602183614d11565b91507f536166654d6174683a206d756c7469706c69636174696f6e206f766572666c6f60008301527f77000000000000000000000000000000000000000000000000000000000000006020830152604082019050919050565b6000614529601f83614d11565b91507f5374617368426c6f783a20546f6b656e20616c7265616479206d696e746564006000830152602082019050919050565b6000614569602083614d11565b91507f4f776e61626c653a2063616c6c6572206973206e6f7420746865206f776e65726000830152602082019050919050565b60006145a9603783614d11565b91507f455243313135353a206e656564206f70657261746f7220617070726f76616c2060008301527f666f7220337264207061727479207472616e73666572730000000000000000006020830152604082019050919050565b600061460f602e83614d11565b91507f455243313135353a2049447320616e642076616c756573206d7573742068617660008301527f652073616d65206c656e677468730000000000000000000000000000000000006020830152604082019050919050565b6000614675600083614d06565b9150600082019050919050565b600061468f601083614d11565b91507f5472616e73666572206661696c65642e000000000000000000000000000000006000830152602082019050919050565b60006146cf603183614d11565b91507f455243313135353a20676f7420756e6b6e6f776e2076616c75652066726f6d2060008301527f6f6e4552433131353552656365697665640000000000000000000000000000006020830152604082019050919050565b6000614735602b83614d11565b91507f455243313135353a20696e73756666696369656e742045544820666f7220747260008301527f616e7366657220666565730000000000000000000000000000000000000000006020830152604082019050919050565b61479781614d8c565b82525050565b6147a681614d8c565b82525050565b60006147b782614668565b9150819050919050565b60006020820190506147d66000830184613ee1565b92915050565b600060a0820190506147f16000830188613ee1565b6147fe6020830187613ee1565b81810360408301526148108186613f48565b905081810360608301526148248185613f48565b905081810360808301526148388184613fb5565b90509695505050505050565b600060a0820190506148596000830188613ee1565b6148666020830187613ee1565b614873604083018661479d565b614880606083018561479d565b81810360808301526148928184613fb5565b90509695505050505050565b600060408201905081810360008301526148b9818688613ef0565b905081810360208301526148ce818486613ef0565b905095945050505050565b600060208201905081810360008301526148f38184613f48565b905092915050565b60006020820190506149106000830184613fa6565b92915050565b600060208201905081810360008301526149308184614027565b905092915050565b600060208201905081810360008301526149528184613fee565b905092915050565b6000602082019050818103600083015261497381614060565b9050919050565b60006020820190508181036000830152614993816140a0565b9050919050565b600060208201905081810360008301526149b381614106565b9050919050565b600060208201905081810360008301526149d38161416c565b9050919050565b600060208201905081810360008301526149f3816141d2565b9050919050565b60006020820190508181036000830152614a1381614212565b9050919050565b60006020820190508181036000830152614a3381614278565b9050919050565b60006020820190508181036000830152614a53816142de565b9050919050565b60006020820190508181036000830152614a7381614344565b9050919050565b60006020820190508181036000830152614a93816143aa565b9050919050565b60006020820190508181036000830152614ab3816143ea565b9050919050565b60006020820190508181036000830152614ad381614450565b9050919050565b60006020820190508181036000830152614af3816144b6565b9050919050565b60006020820190508181036000830152614b138161451c565b9050919050565b60006020820190508181036000830152614b338161455c565b9050919050565b60006020820190508181036000830152614b538161459c565b9050919050565b60006020820190508181036000830152614b7381614602565b9050919050565b60006020820190508181036000830152614b9381614682565b9050919050565b60006020820190508181036000830152614bb3816146c2565b9050919050565b60006020820190508181036000830152614bd381614728565b9050919050565b6000602082019050614bef600083018461479d565b92915050565b6000604082019050614c0a600083018561479d565b614c17602083018461479d565b9392505050565b6000604051905081810181811067ffffffffffffffff82111715614c4157600080fd5b8060405250919050565b600067ffffffffffffffff821115614c6257600080fd5b602082029050602081019050919050565b600067ffffffffffffffff821115614c8a57600080fd5b602082029050602081019050919050565b6000819050602082019050919050565b600081519050919050565b600081519050919050565b600081519050919050565b600081519050919050565b6000602082019050919050565b600082825260208201905092915050565b600082825260208201905092915050565b600081905092915050565b600082825260208201905092915050565b6000614d2d82614d6c565b9050919050565b60008115159050919050565b60007fffffffff0000000000000000000000000000000000000000000000000000000082169050919050565b600073ffffffffffffffffffffffffffffffffffffffff82169050919050565b6000819050919050565b82818337600083830152505050565b60005b83811015614dc3578082015181840152602081019050614da8565b83811115614dd2576000848401525b50505050565b6000601f19601f8301169050919050565b614df281614d22565b8114614dfd57600080fd5b50565b614e0981614d34565b8114614e1457600080fd5b50565b614e2081614d40565b8114614e2b57600080fd5b50565b614e3781614d8c565b8114614e4257600080fd5b5056fe455243313135353a20696e73756666696369656e742062616c616e636520666f72207472616e73666572a365627a7a723158209bb33df3925f8b098a226ffca95edd651c103d0dc34af26617d8b5653fd2de846c6578706572696d656e74616cf564736f6c634300050c0040",
  "source": "pragma solidity ^0.5.12;\npragma experimental ABIEncoderV2;\n\nimport './lib/ERC1155/ERC1155Mintable.sol';\n\ncontract StashBlox is ERC1155Mintable {\n\n}\n",
  "sourcePath": "/home/ouziel/Work/StashBloxContracts/contracts/StashBlox.sol",
  "compiler": {
    "name": "solc",
    "version": "0.5.12+commit.7709ece9.Emscripten.clang"
  },
  "schemaVersion": "3.2.3",
  "updatedAt": "2020-09-14T22:07:47.477Z",
  "devdoc": {
    "methods": {
      "balanceOf(address,uint256)": {
        "details": "Get the specified address' balance for token with specified ID. Attempting to query the zero account for a balance will result in a revert.",
        "params": {
          "account": "The address of the token holder",
          "id": "ID of the token"
        },
        "return": "The account's balance of the token type requested"
      },
      "balanceOfBatch(address[],uint256[])": {
        "details": "Get the balance of multiple account/token pairs. If any of the query accounts is the zero account, this query will revert.",
        "params": {
          "accounts": "The addresses of the token holders",
          "ids": "IDs of the tokens"
        },
        "return": "Balances for each account and token id pair"
      },
      "createTokens(uint256[],address[],uint256[],uint256[],uint256[])": {
        "details": "Function to mint an amount of a token with the given ID.",
        "params": {
          "ids": "ID of the token to be minted",
          "metadataHashes": "Metadata files hashes",
          "recipients": "The addresses that will own the minted token",
          "storageCreditCost": "cost for 24h storage in storageCredit (x 10 ^ 8 for the precision)",
          "values": "Amount of the token to be minted for each recipient"
        }
      },
      "isApprovedForAll(address,address)": {
        "params": {
          "account": "The account of the Tokens",
          "operator": "Address of authorized operator"
        },
        "return": "True if the operator is approved, false if not"
      },
      "owner()": {
        "details": "Returns the address of the current owner."
      },
      "safeBatchTransferFrom(address,address,uint256[],uint256[],bytes)": {
        "details": "Transfers `values` amount(s) of `ids` from the `from` address to the `to` address specified. Caller must be approved to manage the tokens being transferred out of the `from` account. If `to` is a smart contract, will call `onERC1155BatchReceived` on `to` and act appropriately.",
        "params": {
          "data": "Data forwarded to `onERC1155Received` if `to` is a contract receiver",
          "from": "Source address",
          "ids": "IDs of each token type",
          "to": "Target address",
          "values": "Transfer amounts per token type"
        }
      },
      "safeTransferFrom(address,address,uint256,uint256,bytes)": {
        "details": "Transfers `value` amount of an `id` from the `from` address to the `to` address specified. Caller must be approved to manage the tokens being transferred out of the `from` account. If `to` is a smart contract, will call `onERC1155Received` on `to` and act appropriately.",
        "params": {
          "data": "Data forwarded to `onERC1155Received` if `to` is a contract receiver",
          "from": "Source address",
          "id": "ID of the token type",
          "to": "Target address",
          "value": "Transfer amount"
        }
      },
      "setApprovalForAll(address,bool)": {
        "details": "Sets or unsets the approval of a given operator.     * An operator is allowed to transfer all tokens of the sender on their behalf.     * Because an account already has operator privileges for itself, this function will revert if the account attempts to set the approval status for itself.",
        "params": {
          "approved": "representing the status of the approval to be set",
          "operator": "address to set the approval"
        }
      },
      "supportsInterface(bytes4)": {
        "params": {
          "_interfaceID": "The interface identifier, as specified in ERC-165"
        },
        "return": "`true` if the contract implements `_interfaceID` and"
      },
      "totalSupply(uint256)": {
        "params": {
          "id": "Token ID"
        },
        "return": "Token supply"
      },
      "transferOwnership(address)": {
        "details": "Transfers ownership of the contract to a new account (`newOwner`). Can only be called by the current owner."
      },
      "uri(uint256)": {
        "params": {
          "id": "Token ID"
        },
        "return": "URI string"
      }
    }
  },
  "userdoc": {
    "methods": {
      "isApprovedForAll(address,address)": {
        "notice": "Queries the approval status of an operator for a given account."
      },
      "supportsInterface(bytes4)": {
        "notice": "Query if a contract implements an interface"
      }
    }
  }
}