{
  "contractName": "StashBlox",
  "abi": [
    {
      "anonymous": false,
      "inputs": [
        {
          "indexed": true,
          "internalType": "address",
          "name": "_owner",
          "type": "address"
        },
        {
          "indexed": true,
          "internalType": "address",
          "name": "_operator",
          "type": "address"
        },
        {
          "indexed": false,
          "internalType": "bool",
          "name": "_approved",
          "type": "bool"
        }
      ],
      "name": "ApprovalForAll",
      "type": "event"
    },
    {
      "anonymous": false,
      "inputs": [
        {
          "indexed": true,
          "internalType": "uint256",
          "name": "dealId",
          "type": "uint256"
        }
      ],
      "name": "DealCancelled",
      "type": "event"
    },
    {
      "anonymous": false,
      "inputs": [
        {
          "indexed": true,
          "internalType": "uint256",
          "name": "dealId",
          "type": "uint256"
        }
      ],
      "name": "DealConfirmed",
      "type": "event"
    },
    {
      "anonymous": false,
      "inputs": [
        {
          "indexed": true,
          "internalType": "uint256",
          "name": "id",
          "type": "uint256"
        },
        {
          "indexed": false,
          "internalType": "uint256",
          "name": "hash",
          "type": "uint256"
        },
        {
          "indexed": false,
          "internalType": "string",
          "name": "name",
          "type": "string"
        }
      ],
      "name": "DocumentAdded",
      "type": "event"
    },
    {
      "anonymous": false,
      "inputs": [
        {
          "indexed": true,
          "internalType": "uint256",
          "name": "offerId",
          "type": "uint256"
        },
        {
          "indexed": true,
          "internalType": "uint256",
          "name": "dealId",
          "type": "uint256"
        },
        {
          "indexed": true,
          "internalType": "address",
          "name": "buyer",
          "type": "address"
        },
        {
          "indexed": false,
          "internalType": "uint256",
          "name": "amount",
          "type": "uint256"
        },
        {
          "indexed": false,
          "internalType": "uint256",
          "name": "endCancellationPeriod",
          "type": "uint256"
        }
      ],
      "name": "OfferAccepted",
      "type": "event"
    },
    {
      "anonymous": false,
      "inputs": [
        {
          "indexed": true,
          "internalType": "uint256",
          "name": "offerId",
          "type": "uint256"
        }
      ],
      "name": "OfferCancelled",
      "type": "event"
    },
    {
      "anonymous": false,
      "inputs": [
        {
          "indexed": true,
          "internalType": "uint256",
          "name": "offerId",
          "type": "uint256"
        },
        {
          "indexed": true,
          "internalType": "uint256",
          "name": "tokenId",
          "type": "uint256"
        },
        {
          "indexed": true,
          "internalType": "address",
          "name": "from",
          "type": "address"
        },
        {
          "indexed": false,
          "internalType": "uint256",
          "name": "amount",
          "type": "uint256"
        },
        {
          "indexed": false,
          "internalType": "uint256",
          "name": "priceCurrency",
          "type": "uint256"
        },
        {
          "indexed": false,
          "internalType": "uint256",
          "name": "price",
          "type": "uint256"
        }
      ],
      "name": "OfferOpened",
      "type": "event"
    },
    {
      "anonymous": false,
      "inputs": [
        {
          "indexed": true,
          "internalType": "address",
          "name": "previousOwner",
          "type": "address"
        },
        {
          "indexed": true,
          "internalType": "address",
          "name": "newOwner",
          "type": "address"
        }
      ],
      "name": "OwnershipTransferred",
      "type": "event"
    },
    {
      "anonymous": false,
      "inputs": [
        {
          "indexed": true,
          "internalType": "address",
          "name": "_operator",
          "type": "address"
        },
        {
          "indexed": true,
          "internalType": "address",
          "name": "_from",
          "type": "address"
        },
        {
          "indexed": true,
          "internalType": "address",
          "name": "_to",
          "type": "address"
        },
        {
          "indexed": false,
          "internalType": "uint256[]",
          "name": "_ids",
          "type": "uint256[]"
        },
        {
          "indexed": false,
          "internalType": "uint256[]",
          "name": "_values",
          "type": "uint256[]"
        }
      ],
      "name": "TransferBatch",
      "type": "event"
    },
    {
      "anonymous": false,
      "inputs": [
        {
          "indexed": true,
          "internalType": "address",
          "name": "_operator",
          "type": "address"
        },
        {
          "indexed": true,
          "internalType": "address",
          "name": "_from",
          "type": "address"
        },
        {
          "indexed": true,
          "internalType": "address",
          "name": "_to",
          "type": "address"
        },
        {
          "indexed": false,
          "internalType": "uint256",
          "name": "_id",
          "type": "uint256"
        },
        {
          "indexed": false,
          "internalType": "uint256",
          "name": "_value",
          "type": "uint256"
        }
      ],
      "name": "TransferSingle",
      "type": "event"
    },
    {
      "anonymous": false,
      "inputs": [
        {
          "indexed": false,
          "internalType": "string",
          "name": "_value",
          "type": "string"
        },
        {
          "indexed": true,
          "internalType": "uint256",
          "name": "_id",
          "type": "uint256"
        }
      ],
      "name": "URI",
      "type": "event"
    },
    {
      "constant": true,
      "inputs": [],
      "name": "BASE_URI",
      "outputs": [
        {
          "internalType": "string",
          "name": "",
          "type": "string"
        }
      ],
      "payable": false,
      "stateMutability": "view",
      "type": "function"
    },
    {
      "constant": true,
      "inputs": [],
      "name": "DOCUMENTS_BASE_URI",
      "outputs": [
        {
          "internalType": "string",
          "name": "",
          "type": "string"
        }
      ],
      "payable": false,
      "stateMutability": "view",
      "type": "function"
    },
    {
      "constant": false,
      "inputs": [
        {
          "internalType": "uint256",
          "name": "id",
          "type": "uint256"
        },
        {
          "internalType": "uint256",
          "name": "docHash",
          "type": "uint256"
        },
        {
          "internalType": "string",
          "name": "docName",
          "type": "string"
        }
      ],
      "name": "addDocument",
      "outputs": [],
      "payable": false,
      "stateMutability": "nonpayable",
      "type": "function"
    },
    {
      "constant": false,
      "inputs": [
        {
          "internalType": "address",
          "name": "tokenizer",
          "type": "address"
        }
      ],
      "name": "authorizeTokenizer",
      "outputs": [],
      "payable": false,
      "stateMutability": "nonpayable",
      "type": "function"
    },
    {
      "constant": true,
      "inputs": [
        {
          "internalType": "address",
          "name": "account",
          "type": "address"
        },
        {
          "internalType": "uint256",
          "name": "id",
          "type": "uint256"
        }
      ],
      "name": "balanceOf",
      "outputs": [
        {
          "internalType": "uint256",
          "name": "",
          "type": "uint256"
        }
      ],
      "payable": false,
      "stateMutability": "view",
      "type": "function"
    },
    {
      "constant": true,
      "inputs": [
        {
          "internalType": "address[]",
          "name": "accounts",
          "type": "address[]"
        },
        {
          "internalType": "uint256[]",
          "name": "ids",
          "type": "uint256[]"
        }
      ],
      "name": "balanceOfBatch",
      "outputs": [
        {
          "internalType": "uint256[]",
          "name": "",
          "type": "uint256[]"
        }
      ],
      "payable": false,
      "stateMutability": "view",
      "type": "function"
    },
    {
      "constant": false,
      "inputs": [
        {
          "internalType": "uint256",
          "name": "offerId",
          "type": "uint256"
        }
      ],
      "name": "cancelOffer",
      "outputs": [],
      "payable": false,
      "stateMutability": "nonpayable",
      "type": "function"
    },
    {
      "constant": false,
      "inputs": [
        {
          "internalType": "uint256",
          "name": "dealId",
          "type": "uint256"
        }
      ],
      "name": "confirmDeal",
      "outputs": [],
      "payable": false,
      "stateMutability": "nonpayable",
      "type": "function"
    },
    {
      "constant": false,
      "inputs": [
        {
          "internalType": "uint256[]",
          "name": "ids",
          "type": "uint256[]"
        },
        {
          "internalType": "address[]",
          "name": "recipients",
          "type": "address[]"
        },
        {
          "internalType": "uint256[]",
          "name": "values",
          "type": "uint256[]"
        }
      ],
      "name": "createTokens",
      "outputs": [],
      "payable": false,
      "stateMutability": "nonpayable",
      "type": "function"
    },
    {
      "constant": true,
      "inputs": [
        {
          "internalType": "uint256",
          "name": "docHash",
          "type": "uint256"
        }
      ],
      "name": "documentUri",
      "outputs": [
        {
          "internalType": "string",
          "name": "",
          "type": "string"
        }
      ],
      "payable": false,
      "stateMutability": "pure",
      "type": "function"
    },
    {
      "constant": true,
      "inputs": [
        {
          "internalType": "address",
          "name": "account",
          "type": "address"
        },
        {
          "internalType": "address",
          "name": "operator",
          "type": "address"
        }
      ],
      "name": "isApprovedForAll",
      "outputs": [
        {
          "internalType": "bool",
          "name": "",
          "type": "bool"
        }
      ],
      "payable": false,
      "stateMutability": "view",
      "type": "function"
    },
    {
      "constant": true,
      "inputs": [
        {
          "internalType": "address",
          "name": "addr",
          "type": "address"
        }
      ],
      "name": "isLockedAddress",
      "outputs": [
        {
          "internalType": "bool",
          "name": "",
          "type": "bool"
        }
      ],
      "payable": false,
      "stateMutability": "view",
      "type": "function"
    },
    {
      "constant": true,
      "inputs": [
        {
          "internalType": "uint256",
          "name": "id",
          "type": "uint256"
        }
      ],
      "name": "isLockedToken",
      "outputs": [
        {
          "internalType": "bool",
          "name": "",
          "type": "bool"
        }
      ],
      "payable": false,
      "stateMutability": "view",
      "type": "function"
    },
    {
      "constant": true,
      "inputs": [
        {
          "internalType": "address",
          "name": "tokenizer",
          "type": "address"
        }
      ],
      "name": "isTokenizer",
      "outputs": [
        {
          "internalType": "bool",
          "name": "",
          "type": "bool"
        }
      ],
      "payable": false,
      "stateMutability": "view",
      "type": "function"
    },
    {
      "constant": false,
      "inputs": [
        {
          "internalType": "address",
          "name": "addr",
          "type": "address"
        }
      ],
      "name": "lockAddress",
      "outputs": [],
      "payable": false,
      "stateMutability": "nonpayable",
      "type": "function"
    },
    {
      "constant": false,
      "inputs": [
        {
          "internalType": "uint256",
          "name": "id",
          "type": "uint256"
        }
      ],
      "name": "lockToken",
      "outputs": [],
      "payable": false,
      "stateMutability": "nonpayable",
      "type": "function"
    },
    {
      "constant": false,
      "inputs": [
        {
          "internalType": "uint256",
          "name": "offerId",
          "type": "uint256"
        },
        {
          "internalType": "address",
          "name": "buyer",
          "type": "address"
        },
        {
          "internalType": "uint256",
          "name": "amount",
          "type": "uint256"
        },
        {
          "internalType": "uint256",
          "name": "cancellationPeriod",
          "type": "uint256"
        }
      ],
      "name": "onOfferAccepted",
      "outputs": [
        {
          "internalType": "uint256",
          "name": "dealId",
          "type": "uint256"
        }
      ],
      "payable": false,
      "stateMutability": "nonpayable",
      "type": "function"
    },
    {
      "constant": false,
      "inputs": [
        {
          "internalType": "uint256",
          "name": "dealId",
          "type": "uint256"
        }
      ],
      "name": "onPaymentCancelled",
      "outputs": [],
      "payable": false,
      "stateMutability": "nonpayable",
      "type": "function"
    },
    {
      "constant": false,
      "inputs": [
        {
          "internalType": "uint256",
          "name": "tokenId",
          "type": "uint256"
        },
        {
          "internalType": "uint256",
          "name": "amount",
          "type": "uint256"
        },
        {
          "internalType": "uint256",
          "name": "price",
          "type": "uint256"
        },
        {
          "internalType": "uint256",
          "name": "priceCurrency",
          "type": "uint256"
        },
        {
          "internalType": "bool",
          "name": "acceptPartial",
          "type": "bool"
        },
        {
          "internalType": "address",
          "name": "paymentOfficer",
          "type": "address"
        },
        {
          "internalType": "address[]",
          "name": "authorizedBuyers",
          "type": "address[]"
        }
      ],
      "name": "openOffer",
      "outputs": [
        {
          "internalType": "uint256",
          "name": "offerId",
          "type": "uint256"
        }
      ],
      "payable": false,
      "stateMutability": "nonpayable",
      "type": "function"
    },
    {
      "constant": false,
      "inputs": [
        {
          "internalType": "uint256[]",
          "name": "tokenIds",
          "type": "uint256[]"
        },
        {
          "internalType": "uint256[]",
          "name": "amounts",
          "type": "uint256[]"
        },
        {
          "internalType": "uint256[]",
          "name": "prices",
          "type": "uint256[]"
        },
        {
          "internalType": "uint256",
          "name": "priceCurrency",
          "type": "uint256"
        },
        {
          "internalType": "bool",
          "name": "acceptPartial",
          "type": "bool"
        },
        {
          "internalType": "address",
          "name": "paymentOfficer",
          "type": "address"
        },
        {
          "internalType": "address[]",
          "name": "authorizedBuyers",
          "type": "address[]"
        }
      ],
      "name": "openOffers",
      "outputs": [
        {
          "internalType": "uint256[]",
          "name": "offerIds",
          "type": "uint256[]"
        }
      ],
      "payable": false,
      "stateMutability": "nonpayable",
      "type": "function"
    },
    {
      "constant": true,
      "inputs": [],
      "name": "owner",
      "outputs": [
        {
          "internalType": "address",
          "name": "",
          "type": "address"
        }
      ],
      "payable": false,
      "stateMutability": "view",
      "type": "function"
    },
    {
      "constant": false,
      "inputs": [
        {
          "internalType": "address",
          "name": "tokenizer",
          "type": "address"
        }
      ],
      "name": "revokeTokenizer",
      "outputs": [],
      "payable": false,
      "stateMutability": "nonpayable",
      "type": "function"
    },
    {
      "constant": false,
      "inputs": [
        {
          "internalType": "address",
          "name": "from",
          "type": "address"
        },
        {
          "internalType": "address",
          "name": "to",
          "type": "address"
        },
        {
          "internalType": "uint256[]",
          "name": "ids",
          "type": "uint256[]"
        },
        {
          "internalType": "uint256[]",
          "name": "values",
          "type": "uint256[]"
        },
        {
          "internalType": "bytes",
          "name": "data",
          "type": "bytes"
        }
      ],
      "name": "safeBatchTransferFrom",
      "outputs": [],
      "payable": false,
      "stateMutability": "nonpayable",
      "type": "function"
    },
    {
      "constant": false,
      "inputs": [
        {
          "internalType": "address",
          "name": "from",
          "type": "address"
        },
        {
          "internalType": "address",
          "name": "to",
          "type": "address"
        },
        {
          "internalType": "uint256",
          "name": "id",
          "type": "uint256"
        },
        {
          "internalType": "uint256",
          "name": "value",
          "type": "uint256"
        },
        {
          "internalType": "bytes",
          "name": "data",
          "type": "bytes"
        }
      ],
      "name": "safeTransferFrom",
      "outputs": [],
      "payable": false,
      "stateMutability": "nonpayable",
      "type": "function"
    },
    {
      "constant": false,
      "inputs": [
        {
          "internalType": "address",
          "name": "operator",
          "type": "address"
        },
        {
          "internalType": "bool",
          "name": "approved",
          "type": "bool"
        }
      ],
      "name": "setApprovalForAll",
      "outputs": [],
      "payable": false,
      "stateMutability": "nonpayable",
      "type": "function"
    },
    {
      "constant": true,
      "inputs": [
        {
          "internalType": "bytes4",
          "name": "_interfaceID",
          "type": "bytes4"
        }
      ],
      "name": "supportsInterface",
      "outputs": [
        {
          "internalType": "bool",
          "name": "",
          "type": "bool"
        }
      ],
      "payable": false,
      "stateMutability": "view",
      "type": "function"
    },
    {
      "constant": true,
      "inputs": [
        {
          "internalType": "uint256",
          "name": "id",
          "type": "uint256"
        }
      ],
      "name": "totalSupply",
      "outputs": [
        {
          "internalType": "uint256",
          "name": "",
          "type": "uint256"
        }
      ],
      "payable": false,
      "stateMutability": "view",
      "type": "function"
    },
    {
      "constant": false,
      "inputs": [
        {
          "internalType": "address",
          "name": "newOwner",
          "type": "address"
        }
      ],
      "name": "transferOwnership",
      "outputs": [],
      "payable": false,
      "stateMutability": "nonpayable",
      "type": "function"
    },
    {
      "constant": false,
      "inputs": [
        {
          "internalType": "address",
          "name": "addr",
          "type": "address"
        }
      ],
      "name": "unlockAddress",
      "outputs": [],
      "payable": false,
      "stateMutability": "nonpayable",
      "type": "function"
    },
    {
      "constant": false,
      "inputs": [
        {
          "internalType": "uint256",
          "name": "id",
          "type": "uint256"
        }
      ],
      "name": "unlockToken",
      "outputs": [],
      "payable": false,
      "stateMutability": "nonpayable",
      "type": "function"
    },
    {
      "constant": true,
      "inputs": [
        {
          "internalType": "uint256",
          "name": "id",
          "type": "uint256"
        }
      ],
      "name": "uri",
      "outputs": [
        {
          "internalType": "string",
          "name": "",
          "type": "string"
        }
      ],
      "payable": false,
      "stateMutability": "view",
      "type": "function"
    }
  ],
  "bytecode": "0x608060405262000015336200001b60201b60201c565b620001e9565b600073ffffffffffffffffffffffffffffffffffffffff168173ffffffffffffffffffffffffffffffffffffffff1614156200008e576040517f08c379a00000000000000000000000000000000000000000000000000000000081526004016200008590620001b6565b60405180910390fd5b8073ffffffffffffffffffffffffffffffffffffffff16600260009054906101000a900473ffffffffffffffffffffffffffffffffffffffff1673ffffffffffffffffffffffffffffffffffffffff167f8be0079c531659141344cd1fd0a4f28419497f9722a3daafe3b4186f6b6457e060405160405180910390a380600260006101000a81548173ffffffffffffffffffffffffffffffffffffffff021916908373ffffffffffffffffffffffffffffffffffffffff16021790555050565b60006200015d602683620001d8565b91507f4f776e61626c653a206e6577206f776e657220697320746865207a65726f206160008301527f64647265737300000000000000000000000000000000000000000000000000006020830152604082019050919050565b60006020820190508181036000830152620001d1816200014e565b9050919050565b600082825260208201905092915050565b615f4580620001f96000396000f3fe608060405234801561001057600080fd5b50600436106101e45760003560e01c80638870147b1161010f578063dbddb26a116100a2578063ea2653e311610071578063ea2653e3146105e7578063ef706adf14610603578063f242432a1461061f578063f2fde38b1461063b576101e4565b8063dbddb26a14610561578063dd2e0ac01461057f578063e5d09afe1461059b578063e985e9c5146105b7576101e4565b8063bba75c83116100de578063bba75c83146104a1578063bd85b039146104d1578063c02f303c14610501578063cba54e6014610531576101e4565b80638870147b1461042f5780638da5cb5b1461044b578063a22cb46514610469578063b7eb5e0a14610485576101e4565b80634e1273f41161018757806364d7e0531161015657806364d7e053146103ab5780637627b732146103db57806380f20363146103f75780638842ec2214610413576101e4565b80634e1273f414610311578063577c5a17146103415780635cb442bb1461037157806361feed5c1461038d576101e4565b80632eb2c2d6116101c35780632eb2c2d61461027957806334a90d021461029557806346d9beec146102b157806349342ac8146102e1576101e4565b8062fdd58e146101e957806301ffc9a7146102195780630e89341c14610249575b600080fd5b61020360048036036101fe919081019061463d565b610657565b6040516102109190615c11565b60405180910390f35b610233600480360361022e9190810190614899565b610720565b60405161024091906157d2565b60405180910390f35b610263600480360361025e91908101906148eb565b6107d1565b604051610270919061580f565b60405180910390f35b610293600480360361028e91908101906144a3565b610821565b005b6102af60048036036102aa919081019061443e565b610b0c565b005b6102cb60048036036102c691908101906149e3565b610bae565b6040516102d89190615c11565b60405180910390f35b6102fb60048036036102f69190810190614789565b610c0f565b60405161030891906157b0565b60405180910390f35b61032b60048036036103269190810190614679565b610d47565b60405161033891906157b0565b60405180910390f35b61035b60048036036103569190810190614914565b610ef8565b6040516103689190615c11565b60405180910390f35b61038b600480360361038691908101906148eb565b610f10565b005b610395610f1c565b6040516103a291906157ed565b60405180910390f35b6103c560048036036103c091908101906148eb565b610f55565b6040516103d2919061580f565b60405180910390f35b6103f560048036036103f0919081019061443e565b610fa5565b005b610411600480360361040c91908101906148eb565b611047565b005b61042d60048036036104289190810190614977565b6110bd565b005b6104496004803603610444919081019061443e565b611159565b005b6104536111fb565b6040516104609190615698565b60405180910390f35b610483600480360361047e9190810190614601565b611225565b005b61049f600480360361049a919081019061443e565b611391565b005b6104bb60048036036104b691908101906148eb565b611433565b6040516104c891906157d2565b60405180910390f35b6104eb60048036036104e691908101906148eb565b611445565b6040516104f89190615c11565b60405180910390f35b61051b6004803603610516919081019061443e565b611462565b60405161052891906157d2565b60405180910390f35b61054b6004803603610546919081019061443e565b6114b8565b60405161055891906157d2565b60405180910390f35b6105696114ca565b60405161057691906157ed565b60405180910390f35b610599600480360361059491908101906148eb565b611503565b005b6105b560048036036105b091908101906146e5565b611579565b005b6105d160048036036105cc9190810190614467565b61194d565b6040516105de91906157d2565b60405180910390f35b61060160048036036105fc91908101906148eb565b6119e1565b005b61061d600480360361061891908101906148eb565b6119ed565b005b6106396004803603610634919081019061456f565b6119f9565b005b6106556004803603610650919081019061443e565b611bd3565b005b60008073ffffffffffffffffffffffffffffffffffffffff168373ffffffffffffffffffffffffffffffffffffffff1614156106c8576040517f08c379a00000000000000000000000000000000000000000000000000000000081526004016106bf90615851565b60405180910390fd5b60008083815260200190815260200160002060008473ffffffffffffffffffffffffffffffffffffffff1673ffffffffffffffffffffffffffffffffffffffff16815260200190815260200160002054905092915050565b60006301ffc9a760e01b7bffffffffffffffffffffffffffffffffffffffffffffffffffffffff1916827bffffffffffffffffffffffffffffffffffffffffffffffffffffffff191614806107b9575063d9b67a2660e01b7bffffffffffffffffffffffffffffffffffffffffffffffffffffffff1916827bffffffffffffffffffffffffffffffffffffffffffffffffffffffff1916145b156107c757600190506107cc565b600090505b919050565b606061081a6040518060400160405280601d81526020017f68747470733a2f2f7374617368626c6f782e636f6d2f746f6b656e732f00000081525061081584611c26565b611d15565b9050919050565b838390508686905014610869576040517f08c379a000000000000000000000000000000000000000000000000000000000815260040161086090615b31565b60405180910390fd5b600073ffffffffffffffffffffffffffffffffffffffff168773ffffffffffffffffffffffffffffffffffffffff1614156108d9576040517f08c379a00000000000000000000000000000000000000000000000000000000081526004016108d0906158b1565b60405180910390fd5b3373ffffffffffffffffffffffffffffffffffffffff168873ffffffffffffffffffffffffffffffffffffffff16148061092057506001151561091c893361194d565b1515145b61095f576040517f08c379a000000000000000000000000000000000000000000000000000000000815260040161095690615b11565b60405180910390fd5b60008090505b868690508110156109ab576109a0898989898581811061098157fe5b9050602002013588888681811061099457fe5b90506020020135611e60565b806001019050610965565b508673ffffffffffffffffffffffffffffffffffffffff168873ffffffffffffffffffffffffffffffffffffffff163373ffffffffffffffffffffffffffffffffffffffff167f4a39dc06d4c0dbc64b70af90fd698a233a518aa5d07e595d983b8c0526c8f7fb89898989604051610a269493929190615775565b60405180910390a4610b02338989898980806020026020016040519081016040528093929190818152602001838360200280828437600081840152601f19601f82011690508083019250505050505050888880806020026020016040519081016040528093929190818152602001838360200280828437600081840152601f19601f8201169050808301925050505050505087878080601f016020809104026020016040519081016040528093929190818152602001838380828437600081840152601f19601f82011690508083019250505050505050611edf565b5050505050505050565b610b1461203e565b610b53576040517f08c379a0000000000000000000000000000000000000000000000000000000008152600401610b4a90615ab1565b60405180910390fd5b6001600460008373ffffffffffffffffffffffffffffffffffffffff1673ffffffffffffffffffffffffffffffffffffffff16815260200190815260200160002060006101000a81548160ff02191690831515021790555050565b6000610c0189338a8a8a8a8a8a8a80806020026020016040519081016040528093929190818152602001838360200280828437600081840152601f19601f82011690508083019250505050505050612096565b905098975050505050505050565b606060008c8c9050118015610c2957508b8b90508a8a9050145b8015610c3a57508989905088889050145b610c79576040517f08c379a0000000000000000000000000000000000000000000000000000000008152600401610c7090615af1565b60405180910390fd5b60008090505b8c8c9050811015610d3457610d118d8d83818110610c9957fe5b90506020020135338d8d85818110610cad57fe5b905060200201358c8c86818110610cc057fe5b905060200201358b8b8b8b8b80806020026020016040519081016040528093929190818152602001838360200280828437600081840152601f19601f82011690508083019250505050505050612096565b828281518110610d1d57fe5b602002602001018181525050806001019050610c7f565b508090509b9a5050505050505050505050565b60608151835114610d8d576040517f08c379a0000000000000000000000000000000000000000000000000000000008152600401610d8490615971565b60405180910390fd5b60608351604051908082528060200260200182016040528015610dbf5781602001602082028038833980820191505090505b50905060008090505b8451811015610eed57600073ffffffffffffffffffffffffffffffffffffffff16858281518110610df557fe5b602002602001015173ffffffffffffffffffffffffffffffffffffffff161415610e54576040517f08c379a0000000000000000000000000000000000000000000000000000000008152600401610e4b90615a31565b60405180910390fd5b600080858381518110610e6357fe5b602002602001015181526020019081526020016000206000868381518110610e8757fe5b602002602001015173ffffffffffffffffffffffffffffffffffffffff1673ffffffffffffffffffffffffffffffffffffffff16815260200190815260200160002054828281518110610ed657fe5b602002602001018181525050806001019050610dc8565b508091505092915050565b6000610f068585858561256e565b9050949350505050565b610f1981612c32565b50565b6040518060400160405280602081526020017f68747470733a2f2f7374617368626c6f782e636f6d2f646f63756d656e74732f81525081565b6060610f9e6040518060400160405280602081526020017f68747470733a2f2f7374617368626c6f782e636f6d2f646f63756d656e74732f815250610f9984611c26565b611d15565b9050919050565b610fad61203e565b610fec576040517f08c379a0000000000000000000000000000000000000000000000000000000008152600401610fe390615ab1565b60405180910390fd5b6001600660008373ffffffffffffffffffffffffffffffffffffffff1673ffffffffffffffffffffffffffffffffffffffff16815260200190815260200160002060006101000a81548160ff02191690831515021790555050565b61104f61203e565b61108e576040517f08c379a000000000000000000000000000000000000000000000000000000000815260040161108590615ab1565b60405180910390fd5b60016003600083815260200190815260200160002060006101000a81548160ff02191690831515021790555050565b6110c561203e565b611104576040517f08c379a00000000000000000000000000000000000000000000000000000000081526004016110fb90615ab1565b60405180910390fd5b611153848484848080601f016020809104026020016040519081016040528093929190818152602001838380828437600081840152601f19601f820116905080830192505050505050506130ce565b50505050565b61116161203e565b6111a0576040517f08c379a000000000000000000000000000000000000000000000000000000000815260040161119790615ab1565b60405180910390fd5b6000600660008373ffffffffffffffffffffffffffffffffffffffff1673ffffffffffffffffffffffffffffffffffffffff16815260200190815260200160002060006101000a81548160ff02191690831515021790555050565b6000600260009054906101000a900473ffffffffffffffffffffffffffffffffffffffff16905090565b8173ffffffffffffffffffffffffffffffffffffffff163373ffffffffffffffffffffffffffffffffffffffff161415611294576040517f08c379a000000000000000000000000000000000000000000000000000000000815260040161128b90615931565b60405180910390fd5b80600160003373ffffffffffffffffffffffffffffffffffffffff1673ffffffffffffffffffffffffffffffffffffffff16815260200190815260200160002060008473ffffffffffffffffffffffffffffffffffffffff1673ffffffffffffffffffffffffffffffffffffffff16815260200190815260200160002060006101000a81548160ff0219169083151502179055508173ffffffffffffffffffffffffffffffffffffffff163373ffffffffffffffffffffffffffffffffffffffff167f17307eab39ab6107e8899845ad3d59bd9653f200f220920489ca2b5937696c318360405161138591906157d2565b60405180910390a35050565b61139961203e565b6113d8576040517f08c379a00000000000000000000000000000000000000000000000000000000081526004016113cf90615ab1565b60405180910390fd5b6000600460008373ffffffffffffffffffffffffffffffffffffffff1673ffffffffffffffffffffffffffffffffffffffff16815260200190815260200160002060006101000a81548160ff02191690831515021790555050565b600061143e82613146565b9050919050565b600060056000838152602001908152602001600020549050919050565b6000600660008373ffffffffffffffffffffffffffffffffffffffff1673ffffffffffffffffffffffffffffffffffffffff16815260200190815260200160002060009054906101000a900460ff169050919050565b60006114c382613170565b9050919050565b6040518060400160405280601d81526020017f68747470733a2f2f7374617368626c6f782e636f6d2f746f6b656e732f00000081525081565b61150b61203e565b61154a576040517f08c379a000000000000000000000000000000000000000000000000000000000815260040161154190615ab1565b60405180910390fd5b60006003600083815260200190815260200160002060006101000a81548160ff02191690831515021790555050565b61158161203e565b6115c0576040517f08c379a00000000000000000000000000000000000000000000000000000000081526004016115b790615ab1565b60405180910390fd5b600660003373ffffffffffffffffffffffffffffffffffffffff1673ffffffffffffffffffffffffffffffffffffffff16815260200190815260200160002060009054906101000a900460ff1661164c576040517f08c379a0000000000000000000000000000000000000000000000000000000008152600401611643906158f1565b60405180910390fd5b838390508686905014611694576040517f08c379a000000000000000000000000000000000000000000000000000000000815260040161168b90615911565b60405180910390fd5b8181905084849050146116dc576040517f08c379a00000000000000000000000000000000000000000000000000000000081526004016116d3906159b1565b60405180910390fd5b60008090505b86869050811015611760576000600560008989858181106116ff57fe5b9050602002013581526020019081526020016000205414611755576040517f08c379a000000000000000000000000000000000000000000000000000000000815260040161174c90615a71565b60405180910390fd5b8060010190506116e2565b5060008090505b8686905081101561194457600087878381811061178057fe5b905060200201359050600086868481811061179757fe5b90506020020160206117ac919081019061443e565b905060008585858181106117bc57fe5b9050602002013590506117eb8160056000868152602001908152602001600020546131c690919063ffffffff16565b60056000858152602001908152602001600020819055506118648160008086815260200190815260200160002060008573ffffffffffffffffffffffffffffffffffffffff1673ffffffffffffffffffffffffffffffffffffffff168152602001908152602001600020546131c690919063ffffffff16565b60008085815260200190815260200160002060008473ffffffffffffffffffffffffffffffffffffffff1673ffffffffffffffffffffffffffffffffffffffff168152602001908152602001600020819055508173ffffffffffffffffffffffffffffffffffffffff16600073ffffffffffffffffffffffffffffffffffffffff163373ffffffffffffffffffffffffffffffffffffffff167fc3d58168c5ae7397731d063d5bbf3d657854427343f4c083240f7aacaa2d0f62868560405161192e929190615c5c565b60405180910390a4505050806001019050611767565b50505050505050565b6000600160008473ffffffffffffffffffffffffffffffffffffffff1673ffffffffffffffffffffffffffffffffffffffff16815260200190815260200160002060008373ffffffffffffffffffffffffffffffffffffffff1673ffffffffffffffffffffffffffffffffffffffff16815260200190815260200160002060009054906101000a900460ff16905092915050565b6119ea8161321b565b50565b6119f6816136d2565b50565b600073ffffffffffffffffffffffffffffffffffffffff168573ffffffffffffffffffffffffffffffffffffffff161415611a69576040517f08c379a0000000000000000000000000000000000000000000000000000000008152600401611a60906158b1565b60405180910390fd5b3373ffffffffffffffffffffffffffffffffffffffff168673ffffffffffffffffffffffffffffffffffffffff161480611ab0575060011515611aac873361194d565b1515145b611aef576040517f08c379a0000000000000000000000000000000000000000000000000000000008152600401611ae690615b11565b60405180910390fd5b611afb86868686611e60565b8473ffffffffffffffffffffffffffffffffffffffff168673ffffffffffffffffffffffffffffffffffffffff163373ffffffffffffffffffffffffffffffffffffffff167fc3d58168c5ae7397731d063d5bbf3d657854427343f4c083240f7aacaa2d0f628787604051611b71929190615c5c565b60405180910390a4611bcb338787878787878080601f016020809104026020016040519081016040528093929190818152602001838380828437600081840152601f19601f82011690508083019250505050505050613a08565b505050505050565b611bdb61203e565b611c1a576040517f08c379a0000000000000000000000000000000000000000000000000000000008152600401611c1190615ab1565b60405180910390fd5b611c2381613b67565b50565b6060600080905060008390505b60008114611c5557818060010192505060108181611c4d57fe5b049050611c33565b6060826040519080825280601f01601f191660200182016040528015611c8a5781602001600182028038833980820191505090505b50905060008090505b83811015611d095760108681611ca557fe5b069250611cb183613c97565b8260018387030381518110611cc257fe5b60200101907effffffffffffffffffffffffffffffffffffffffffffffffffffffffffffff1916908160001a90535060108681611cfb57fe5b049550806001019050611c93565b50809350505050919050565b6060808390506060839050606081518351016040519080825280601f01601f191660200182016040528015611d595781602001600182028038833980820191505090505b509050606081905060008090506000809050600090505b8551811015611dde57858181518110611d8557fe5b602001015160f81c60f81b838380600101945081518110611da257fe5b60200101907effffffffffffffffffffffffffffffffffffffffffffffffffffffffffffff1916908160001a9053508080600101915050611d70565b600090505b8451811015611e5157848181518110611df857fe5b602001015160f81c60f81b838380600101945081518110611e1557fe5b60200101907effffffffffffffffffffffffffffffffffffffffffffffffffffffffffffff1916908160001a9053508080600101915050611de3565b82965050505050505092915050565b611e6982613146565b158015611e7c5750611e7a84613170565b155b8015611e8e5750611e8c83613170565b155b611ecd576040517f08c379a0000000000000000000000000000000000000000000000000000000008152600401611ec490615a91565b60405180910390fd5b611ed984848484613d40565b50505050565b611efe8473ffffffffffffffffffffffffffffffffffffffff16613eca565b15612036578373ffffffffffffffffffffffffffffffffffffffff1663bc197c81905060e01b7bffffffffffffffffffffffffffffffffffffffffffffffffffffffff19168473ffffffffffffffffffffffffffffffffffffffff1663bc197c8188888787876040518663ffffffff1660e01b8152600401611f849594939291906156b3565b602060405180830381600087803b158015611f9e57600080fd5b505af1158015611fb2573d6000803e3d6000fd5b505050506040513d601f19601f82011682018060405250611fd691908101906148c2565b7bffffffffffffffffffffffffffffffffffffffffffffffffffffffff191614612035576040517f08c379a000000000000000000000000000000000000000000000000000000000815260040161202c906159d1565b60405180910390fd5b5b505050505050565b6000600260009054906101000a900473ffffffffffffffffffffffffffffffffffffffff1673ffffffffffffffffffffffffffffffffffffffff163373ffffffffffffffffffffffffffffffffffffffff1614905090565b600080600560008b815260200190815260200160002054116120ed576040517f08c379a00000000000000000000000000000000000000000000000000000000081526004016120e490615a11565b60405180910390fd5b866000808b815260200190815260200160002060003373ffffffffffffffffffffffffffffffffffffffff1673ffffffffffffffffffffffffffffffffffffffff16815260200190815260200160002054101561217f576040517f08c379a0000000000000000000000000000000000000000000000000000000008152600401612176906159f1565b60405180910390fd5b61218885613f15565b6121c7576040517f08c379a00000000000000000000000000000000000000000000000000000000081526004016121be90615991565b60405180910390fd5b6000861161220a576040517f08c379a000000000000000000000000000000000000000000000000000000000815260040161220190615831565b60405180910390fd5b6000612214613f20565b905061221e614011565b818160000181815250508a81602001818152505089816040019073ffffffffffffffffffffffffffffffffffffffff16908173ffffffffffffffffffffffffffffffffffffffff168152505088816060018181525050868160c0018181525050878160e001818152505085816101000190151590811515815250508481610120019073ffffffffffffffffffffffffffffffffffffffff16908173ffffffffffffffffffffffffffffffffffffffff168152505060018161016001901515908115158152505080600a6000848152602001908152602001600020600082015181600001556020820151816001015560408201518160020160006101000a81548173ffffffffffffffffffffffffffffffffffffffff021916908373ffffffffffffffffffffffffffffffffffffffff160217905550606082015181600301556080820151816004015560a0820151816005015560c0820151816006015560e082015181600701556101008201518160080160006101000a81548160ff0219169083151502179055506101208201518160080160016101000a81548173ffffffffffffffffffffffffffffffffffffffff021916908373ffffffffffffffffffffffffffffffffffffffff16021790555061014082015181600a015561016082015181600b0160006101000a81548160ff02191690831515021790555061018082015181600b0160016101000a81548160ff02191690831515021790555090505060008090505b84518110156124fd576001600a6000858152602001908152602001600020600901600087848151811061247357fe5b602002602001015173ffffffffffffffffffffffffffffffffffffffff1673ffffffffffffffffffffffffffffffffffffffff16815260200190815260200160002060006101000a81548160ff021916908315150217905550600a6000848152602001908152602001600020600a0160008154809291906001019190505550806001019050612444565b506125098b338b613f38565b8973ffffffffffffffffffffffffffffffffffffffff168b837f917c305b3fd6b7f7a61920199134f9d7f7be34db77537dad166bcebe584dac168c8b8d60405161255593929190615c85565b60405180910390a4819250505098975050505050505050565b6000612578614011565b600a6000878152602001908152602001600020604051806101a001604052908160008201548152602001600182015481526020016002820160009054906101000a900473ffffffffffffffffffffffffffffffffffffffff1673ffffffffffffffffffffffffffffffffffffffff1673ffffffffffffffffffffffffffffffffffffffff16815260200160038201548152602001600482015481526020016005820154815260200160068201548152602001600782015481526020016008820160009054906101000a900460ff161515151581526020016008820160019054906101000a900473ffffffffffffffffffffffffffffffffffffffff1673ffffffffffffffffffffffffffffffffffffffff1673ffffffffffffffffffffffffffffffffffffffff168152602001600a8201548152602001600b820160009054906101000a900460ff16151515158152602001600b820160019054906101000a900460ff16151515158152505090508581600001511461272c576040517f08c379a000000000000000000000000000000000000000000000000000000000815260040161272390615bf1565b60405180910390fd5b806101600151612771576040517f08c379a000000000000000000000000000000000000000000000000000000000815260040161276890615bb1565b60405180910390fd5b80610120015173ffffffffffffffffffffffffffffffffffffffff163373ffffffffffffffffffffffffffffffffffffffff16146127e4576040517f08c379a00000000000000000000000000000000000000000000000000000000081526004016127db906158f1565b60405180910390fd5b6000816101400151111561289357600a600087815260200190815260200160002060090160008673ffffffffffffffffffffffffffffffffffffffff1673ffffffffffffffffffffffffffffffffffffffff16815260200190815260200160002060009054906101000a900460ff16612892576040517f08c379a0000000000000000000000000000000000000000000000000000000008152600401612889906158f1565b60405180910390fd5b5b806101000151156128f05780608001518160600151038411156128eb576040517f08c379a00000000000000000000000000000000000000000000000000000000081526004016128e290615951565b60405180910390fd5b612937565b80606001518414612936576040517f08c379a000000000000000000000000000000000000000000000000000000000815260040161292d90615951565b60405180910390fd5b5b83600a60008881526020019081526020016000206004015401600a6000888152602001908152602001600020600401819055506000612974613f6b565b905060008442019050600081421015905061298d6140ab565b838160000181815250508981602001818152505088816040019073ffffffffffffffffffffffffffffffffffffffff16908173ffffffffffffffffffffffffffffffffffffffff16815250508781606001818152505082816080018181525050818160a001901515908115158152505080600b6000868152602001908152602001600020600082015181600001556020820151816001015560408201518160020160006101000a81548173ffffffffffffffffffffffffffffffffffffffff021916908373ffffffffffffffffffffffffffffffffffffffff160217905550606082015181600301556080820151816004015560a08201518160050160006101000a81548160ff02191690831515021790555060c08201518160050160016101000a81548160ff02191690831515021790555090505087600a60008c81526020019081526020016000206004015401600a60008c8152602001908152602001600020600401819055508873ffffffffffffffffffffffffffffffffffffffff16848b7f8f414bb7b1129208b5a842a85f18292a47ad72117cca38e4363cf80dc189ec168b87604051612b40929190615c5c565b60405180910390a48115612bbe57612b5d85602001518a8a613f83565b87600a60008c81526020019081526020016000206005015401600a60008c815260200190815260200160002060050181905550837f9df29a48d557958defdbeb91dda0116b443663f2a358ab8947609973c5a7b51c60405160405180910390a25b600a60008b815260200190815260200160002060030154600a60008c8152602001908152602001600020600501541415612c22576000600a60008c8152602001908152602001600020600b0160006101000a81548160ff0219169083151502179055505b8395505050505050949350505050565b612c3a6140ab565b600b60008381526020019081526020016000206040518060e001604052908160008201548152602001600182015481526020016002820160009054906101000a900473ffffffffffffffffffffffffffffffffffffffff1673ffffffffffffffffffffffffffffffffffffffff1673ffffffffffffffffffffffffffffffffffffffff16815260200160038201548152602001600482015481526020016005820160009054906101000a900460ff161515151581526020016005820160019054906101000a900460ff161515151581525050905081816000015114612d54576040517f08c379a0000000000000000000000000000000000000000000000000000000008152600401612d4b90615871565b60405180910390fd5b8060a00151158015612d6857508060c00151155b612da7576040517f08c379a0000000000000000000000000000000000000000000000000000000008152600401612d9e90615ad1565b60405180910390fd5b8060800151421015612dee576040517f08c379a0000000000000000000000000000000000000000000000000000000008152600401612de590615b51565b60405180910390fd5b612df6614011565b600a600083602001518152602001908152602001600020604051806101a001604052908160008201548152602001600182015481526020016002820160009054906101000a900473ffffffffffffffffffffffffffffffffffffffff1673ffffffffffffffffffffffffffffffffffffffff1673ffffffffffffffffffffffffffffffffffffffff16815260200160038201548152602001600482015481526020016005820154815260200160068201548152602001600782015481526020016008820160009054906101000a900460ff161515151581526020016008820160019054906101000a900473ffffffffffffffffffffffffffffffffffffffff1673ffffffffffffffffffffffffffffffffffffffff1673ffffffffffffffffffffffffffffffffffffffff168152602001600a8201548152602001600b820160009054906101000a900460ff16151515158152602001600b820160019054906101000a900460ff16151515158152505090506001600b600085815260200190815260200160002060050160006101000a81548160ff021916908315150217905550612fae816020015183604001518460600151613f83565b8160600151600a6000836000015181526020019081526020016000206005015401600a600083600001518152602001908152602001600020600501819055508160600151600a6000836000015181526020019081526020016000206004015403600a60008360000151815260200190815260200160002060040181905550827f9df29a48d557958defdbeb91dda0116b443663f2a358ab8947609973c5a7b51c60405160405180910390a2600a60008260000151815260200190815260200160002060030154600a6000836000015181526020019081526020016000206005015414156130c9576000600a600083600001518152602001908152602001600020600b0160006101000a81548160ff0219169083151502179055505b505050565b80600c600085815260200190815260200160002060008481526020019081526020016000209080519060200190613106929190614102565b50827f7c77b0a5e04b8b0a37a64aa8dd7a24c2cdfb5f2302c065c6044b33077b96abaa8383604051613139929190615c2c565b60405180910390a2505050565b60006003600083815260200190815260200160002060009054906101000a900460ff169050919050565b6000600460008373ffffffffffffffffffffffffffffffffffffffff1673ffffffffffffffffffffffffffffffffffffffff16815260200190815260200160002060009054906101000a900460ff169050919050565b600080828401905083811015613211576040517f08c379a0000000000000000000000000000000000000000000000000000000008152600401613208906158d1565b60405180910390fd5b8091505092915050565b6132236140ab565b600b60008381526020019081526020016000206040518060e001604052908160008201548152602001600182015481526020016002820160009054906101000a900473ffffffffffffffffffffffffffffffffffffffff1673ffffffffffffffffffffffffffffffffffffffff1673ffffffffffffffffffffffffffffffffffffffff16815260200160038201548152602001600482015481526020016005820160009054906101000a900460ff161515151581526020016005820160019054906101000a900460ff16151515158152505090508181600001511461333d576040517f08c379a000000000000000000000000000000000000000000000000000000000815260040161333490615871565b60405180910390fd5b8060a0015115613382576040517f08c379a000000000000000000000000000000000000000000000000000000000815260040161337990615a51565b60405180910390fd5b806080015142106133c8576040517f08c379a00000000000000000000000000000000000000000000000000000000081526004016133bf90615bd1565b60405180910390fd5b6133d0614011565b600a600083602001518152602001908152602001600020604051806101a001604052908160008201548152602001600182015481526020016002820160009054906101000a900473ffffffffffffffffffffffffffffffffffffffff1673ffffffffffffffffffffffffffffffffffffffff1673ffffffffffffffffffffffffffffffffffffffff16815260200160038201548152602001600482015481526020016005820154815260200160068201548152602001600782015481526020016008820160009054906101000a900460ff161515151581526020016008820160019054906101000a900473ffffffffffffffffffffffffffffffffffffffff1673ffffffffffffffffffffffffffffffffffffffff1673ffffffffffffffffffffffffffffffffffffffff168152602001600a8201548152602001600b820160009054906101000a900460ff16151515158152602001600b820160019054906101000a900460ff161515151581525050905080610120015173ffffffffffffffffffffffffffffffffffffffff163373ffffffffffffffffffffffffffffffffffffffff16146135b5576040517f08c379a00000000000000000000000000000000000000000000000000000000081526004016135ac906158f1565b60405180910390fd5b6001600b600085815260200190815260200160002060050160016101000a81548160ff0219169083151502179055508160600151600a6000836000015181526020019081526020016000206004015403600a60008360000151815260200190815260200160002060040181905550827f31b0c01e8429f81903c3f8adc204767b8efa7cfca91a00f3b4bb40ce63c8a20660405160405180910390a2600a600082600001518152602001908152602001600020600b0160019054906101000a900460ff161561369957613694816020015182604001518460600151613f83565b6136cd565b6001600a600083600001518152602001908152602001600020600b0160006101000a81548160ff0219169083151502179055505b505050565b6136da614011565b600a6000838152602001908152602001600020604051806101a001604052908160008201548152602001600182015481526020016002820160009054906101000a900473ffffffffffffffffffffffffffffffffffffffff1673ffffffffffffffffffffffffffffffffffffffff1673ffffffffffffffffffffffffffffffffffffffff16815260200160038201548152602001600482015481526020016005820154815260200160068201548152602001600782015481526020016008820160009054906101000a900460ff161515151581526020016008820160019054906101000a900473ffffffffffffffffffffffffffffffffffffffff1673ffffffffffffffffffffffffffffffffffffffff1673ffffffffffffffffffffffffffffffffffffffff168152602001600a8201548152602001600b820160009054906101000a900460ff16151515158152602001600b820160019054906101000a900460ff16151515158152505090508181600001511461388e576040517f08c379a000000000000000000000000000000000000000000000000000000000815260040161388590615bf1565b60405180910390fd5b80610160015180156138a35750806101800151155b6138e2576040517f08c379a00000000000000000000000000000000000000000000000000000000081526004016138d990615b71565b60405180910390fd5b806040015173ffffffffffffffffffffffffffffffffffffffff163373ffffffffffffffffffffffffffffffffffffffff1614613954576040517f08c379a000000000000000000000000000000000000000000000000000000000815260040161394b906158f1565b60405180910390fd5b6001600a6000848152602001908152602001600020600b0160016101000a81548160ff0219169083151502179055506000600a6000848152602001908152602001600020600b0160006101000a81548160ff02191690831515021790555060008160a0015182608001518360600151030390506139d682602001513383613f83565b827fc28b4aed030bfacc245c0501326e1beb8c0ef0d60e4edc21067fdeb52da2a7aa60405160405180910390a2505050565b613a278473ffffffffffffffffffffffffffffffffffffffff16613eca565b15613b5f578373ffffffffffffffffffffffffffffffffffffffff1663f23a6e61905060e01b7bffffffffffffffffffffffffffffffffffffffffffffffffffffffff19168473ffffffffffffffffffffffffffffffffffffffff1663f23a6e6188888787876040518663ffffffff1660e01b8152600401613aad95949392919061571b565b602060405180830381600087803b158015613ac757600080fd5b505af1158015613adb573d6000803e3d6000fd5b505050506040513d601f19601f82011682018060405250613aff91908101906148c2565b7bffffffffffffffffffffffffffffffffffffffffffffffffffffffff191614613b5e576040517f08c379a0000000000000000000000000000000000000000000000000000000008152600401613b5590615b91565b60405180910390fd5b5b505050505050565b600073ffffffffffffffffffffffffffffffffffffffff168173ffffffffffffffffffffffffffffffffffffffff161415613bd7576040517f08c379a0000000000000000000000000000000000000000000000000000000008152600401613bce90615891565b60405180910390fd5b8073ffffffffffffffffffffffffffffffffffffffff16600260009054906101000a900473ffffffffffffffffffffffffffffffffffffffff1673ffffffffffffffffffffffffffffffffffffffff167f8be0079c531659141344cd1fd0a4f28419497f9722a3daafe3b4186f6b6457e060405160405180910390a380600260006101000a81548173ffffffffffffffffffffffffffffffffffffffff021916908373ffffffffffffffffffffffffffffffffffffffff16021790555050565b60008160ff16600011158015613cb1575060098260ff1611155b15613ce657817f300000000000000000000000000000000000000000000000000000000000000060f81c0160f81b9050613d3b565b8160ff16600a11158015613cfe5750600f8260ff1611155b15613d3657600a827f610000000000000000000000000000000000000000000000000000000000000060f81c010360f81b9050613d3b565b600080fd5b919050565b613dbc816040518060600160405280602a8152602001615ed9602a913960008086815260200190815260200160002060008873ffffffffffffffffffffffffffffffffffffffff1673ffffffffffffffffffffffffffffffffffffffff16815260200190815260200160002054613fb69092919063ffffffff16565b60008084815260200190815260200160002060008673ffffffffffffffffffffffffffffffffffffffff1673ffffffffffffffffffffffffffffffffffffffff16815260200190815260200160002081905550613e718160008085815260200190815260200160002060008673ffffffffffffffffffffffffffffffffffffffff1673ffffffffffffffffffffffffffffffffffffffff168152602001908152602001600020546131c690919063ffffffff16565b60008084815260200190815260200160002060008573ffffffffffffffffffffffffffffffffffffffff1673ffffffffffffffffffffffffffffffffffffffff1681526020019081526020016000208190555050505050565b60008060007fc5d2460186f7233c927e7db2dcc703c0e500b653ca82273b7bfad8045d85a47060001b9050833f91506000801b8214158015613f0c5750808214155b92505050919050565b600060019050919050565b60006007600081548092919060010191905055905090565b613f6682600960009054906101000a900473ffffffffffffffffffffffffffffffffffffffff168584611e60565b505050565b60006008600081548092919060010191905055905090565b613fb1600960009054906101000a900473ffffffffffffffffffffffffffffffffffffffff16838584611e60565b505050565b6000838311158290613ffe576040517f08c379a0000000000000000000000000000000000000000000000000000000008152600401613ff5919061580f565b60405180910390fd5b5060008385039050809150509392505050565b604051806101a001604052806000815260200160008152602001600073ffffffffffffffffffffffffffffffffffffffff1681526020016000815260200160008152602001600081526020016000815260200160008152602001600015158152602001600073ffffffffffffffffffffffffffffffffffffffff168152602001600081526020016000151581526020016000151581525090565b6040518060e001604052806000815260200160008152602001600073ffffffffffffffffffffffffffffffffffffffff16815260200160008152602001600081526020016000151581526020016000151581525090565b828054600181600116156101000203166002900490600052602060002090601f016020900481019282601f1061414357805160ff1916838001178555614171565b82800160010185558215614171579182015b82811115614170578251825591602001919060010190614155565b5b50905061417e9190614182565b5090565b6141a491905b808211156141a0576000816000905550600101614188565b5090565b90565b6000813590506141b681615e7c565b92915050565b60008083601f8401126141ce57600080fd5b8235905067ffffffffffffffff8111156141e757600080fd5b6020830191508360208202830111156141ff57600080fd5b9250929050565b600082601f83011261421757600080fd5b813561422a61422582615ce9565b615cbc565b9150818183526020840193506020810190508385602084028201111561424f57600080fd5b60005b8381101561427f578161426588826141a7565b845260208401935060208301925050600181019050614252565b5050505092915050565b60008083601f84011261429b57600080fd5b8235905067ffffffffffffffff8111156142b457600080fd5b6020830191508360208202830111156142cc57600080fd5b9250929050565b600082601f8301126142e457600080fd5b81356142f76142f282615d11565b615cbc565b9150818183526020840193506020810190508385602084028201111561431c57600080fd5b60005b8381101561434c57816143328882614429565b84526020840193506020830192505060018101905061431f565b5050505092915050565b60008135905061436581615e93565b92915050565b60008135905061437a81615eaa565b92915050565b60008151905061438f81615eaa565b92915050565b60008083601f8401126143a757600080fd5b8235905067ffffffffffffffff8111156143c057600080fd5b6020830191508360018202830111156143d857600080fd5b9250929050565b60008083601f8401126143f157600080fd5b8235905067ffffffffffffffff81111561440a57600080fd5b60208301915083600182028301111561442257600080fd5b9250929050565b60008135905061443881615ec1565b92915050565b60006020828403121561445057600080fd5b600061445e848285016141a7565b91505092915050565b6000806040838503121561447a57600080fd5b6000614488858286016141a7565b9250506020614499858286016141a7565b9150509250929050565b60008060008060008060008060a0898b0312156144bf57600080fd5b60006144cd8b828c016141a7565b98505060206144de8b828c016141a7565b975050604089013567ffffffffffffffff8111156144fb57600080fd5b6145078b828c01614289565b9650965050606089013567ffffffffffffffff81111561452657600080fd5b6145328b828c01614289565b9450945050608089013567ffffffffffffffff81111561455157600080fd5b61455d8b828c01614395565b92509250509295985092959890939650565b60008060008060008060a0878903121561458857600080fd5b600061459689828a016141a7565b96505060206145a789828a016141a7565b95505060406145b889828a01614429565b94505060606145c989828a01614429565b935050608087013567ffffffffffffffff8111156145e657600080fd5b6145f289828a01614395565b92509250509295509295509295565b6000806040838503121561461457600080fd5b6000614622858286016141a7565b925050602061463385828601614356565b9150509250929050565b6000806040838503121561465057600080fd5b600061465e858286016141a7565b925050602061466f85828601614429565b9150509250929050565b6000806040838503121561468c57600080fd5b600083013567ffffffffffffffff8111156146a657600080fd5b6146b285828601614206565b925050602083013567ffffffffffffffff8111156146cf57600080fd5b6146db858286016142d3565b9150509250929050565b600080600080600080606087890312156146fe57600080fd5b600087013567ffffffffffffffff81111561471857600080fd5b61472489828a01614289565b9650965050602087013567ffffffffffffffff81111561474357600080fd5b61474f89828a016141bc565b9450945050604087013567ffffffffffffffff81111561476e57600080fd5b61477a89828a01614289565b92509250509295509295509295565b600080600080600080600080600080600060e08c8e0312156147aa57600080fd5b60008c013567ffffffffffffffff8111156147c457600080fd5b6147d08e828f01614289565b9b509b505060208c013567ffffffffffffffff8111156147ef57600080fd5b6147fb8e828f01614289565b995099505060408c013567ffffffffffffffff81111561481a57600080fd5b6148268e828f01614289565b975097505060606148398e828f01614429565b955050608061484a8e828f01614356565b94505060a061485b8e828f016141a7565b93505060c08c013567ffffffffffffffff81111561487857600080fd5b6148848e828f016141bc565b92509250509295989b509295989b9093969950565b6000602082840312156148ab57600080fd5b60006148b98482850161436b565b91505092915050565b6000602082840312156148d457600080fd5b60006148e284828501614380565b91505092915050565b6000602082840312156148fd57600080fd5b600061490b84828501614429565b91505092915050565b6000806000806080858703121561492a57600080fd5b600061493887828801614429565b9450506020614949878288016141a7565b935050604061495a87828801614429565b925050606061496b87828801614429565b91505092959194509250565b6000806000806060858703121561498d57600080fd5b600061499b87828801614429565b94505060206149ac87828801614429565b935050604085013567ffffffffffffffff8111156149c957600080fd5b6149d5878288016143df565b925092505092959194509250565b60008060008060008060008060e0898b0312156149ff57600080fd5b6000614a0d8b828c01614429565b9850506020614a1e8b828c01614429565b9750506040614a2f8b828c01614429565b9650506060614a408b828c01614429565b9550506080614a518b828c01614356565b94505060a0614a628b828c016141a7565b93505060c089013567ffffffffffffffff811115614a7f57600080fd5b614a8b8b828c016141bc565b92509250509295985092959890939650565b6000614aa9838361567a565b60208301905092915050565b614abe81615db5565b82525050565b6000614ad08385615d82565b93507f07ffffffffffffffffffffffffffffffffffffffffffffffffffffffffffffff831115614aff57600080fd5b602083029250614b10838584615e29565b82840190509392505050565b6000614b2782615d49565b614b318185615d82565b9350614b3c83615d39565b8060005b83811015614b6d578151614b548882614a9d565b9750614b5f83615d75565b925050600181019050614b40565b5085935050505092915050565b614b8381615dc7565b82525050565b6000614b9482615d54565b614b9e8185615d93565b9350614bae818560208601615e38565b614bb781615e6b565b840191505092915050565b6000614bcd82615d6a565b614bd78185615da4565b9350614be7818560208601615e38565b614bf081615e6b565b840191505092915050565b6000614c0682615d5f565b614c108185615da4565b9350614c20818560208601615e38565b614c2981615e6b565b840191505092915050565b6000614c41601883615da4565b91507f5374617368426c6f783a20496e76616c696420707269636500000000000000006000830152602082019050919050565b6000614c81602b83615da4565b91507f455243313135353a2062616c616e636520717565727920666f7220746865207a60008301527f65726f20616464726573730000000000000000000000000000000000000000006020830152604082019050919050565b6000614ce7601783615da4565b91507f5374617368426c6f783a20556e6b6e6f776e204465616c0000000000000000006000830152602082019050919050565b6000614d27602683615da4565b91507f4f776e61626c653a206e6577206f776e657220697320746865207a65726f206160008301527f64647265737300000000000000000000000000000000000000000000000000006020830152604082019050919050565b6000614d8d602883615da4565b91507f455243313135353a207461726765742061646472657373206d7573742062652060008301527f6e6f6e2d7a65726f0000000000000000000000000000000000000000000000006020830152604082019050919050565b6000614df3601b83615da4565b91507f536166654d6174683a206164646974696f6e206f766572666c6f7700000000006000830152602082019050919050565b6000614e33601783615da4565b91507f5374617368426c6f783a20556e617574686f72697a65640000000000000000006000830152602082019050919050565b6000614e73603483615da4565b91507f5374617368426c6f783a2069647320616e6420726563697069656e7473206d7560008301527f737420686176652073616d65206c656e677468730000000000000000000000006020830152604082019050919050565b6000614ed9602c83615da4565b91507f455243313135353a2063616e6e6f742073657420617070726f76616c2073746160008301527f74757320666f722073656c6600000000000000000000000000000000000000006020830152604082019050919050565b6000614f3f601983615da4565b91507f5374617368426c6f783a20696e76616c696420616d6f756e74000000000000006000830152602082019050919050565b6000614f7f603083615da4565b91507f455243313135353a206163636f756e747320616e6420494473206d757374206860008301527f6176652073616d65206c656e67746873000000000000000000000000000000006020830152604082019050919050565b6000614fe5601b83615da4565b91507f5374617368426c6f783a20496e76616c69642063757272656e637900000000006000830152602082019050919050565b6000615025603783615da4565b91507f5374617368426c6f783a20726563697069656e747320616e642076616c75657360008301527f206d75737420686176652073616d65206c656e677468730000000000000000006020830152604082019050919050565b600061508b603683615da4565b91507f455243313135353a20676f7420756e6b6e6f776e2076616c75652066726f6d2060008301527f6f6e4552433131353542617463685265636569766564000000000000000000006020830152604082019050919050565b60006150f1601f83615da4565b91507f5374617368426c6f783a20496e73756666696369656e742062616c616e6365006000830152602082019050919050565b6000615131601883615da4565b91507f5374617368426c6f783a20556e6b6e6f776e20546f6b656e00000000000000006000830152602082019050919050565b6000615171603483615da4565b91507f455243313135353a20736f6d65206164647265737320696e206261746368206260008301527f616c616e6365207175657279206973207a65726f0000000000000000000000006020830152604082019050919050565b60006151d7602183615da4565b91507f5374617368426c6f783a204465616c20616c726561647920636f6e6669726d6560008301527f64000000000000000000000000000000000000000000000000000000000000006020830152604082019050919050565b600061523d601f83615da4565b91507f5374617368426c6f783a20546f6b656e20616c7265616479206d696e746564006000830152602082019050919050565b600061527d601783615da4565b91507f455243313135354c6f636b61626c653a204c6f636b65640000000000000000006000830152602082019050919050565b60006152bd602083615da4565b91507f4f776e61626c653a2063616c6c6572206973206e6f7420746865206f776e65726000830152602082019050919050565b60006152fd602d83615da4565b91507f5374617368426c6f783a204465616c20616c726561647920636f6e6669726d6560008301527f64206f722063616e63656c6564000000000000000000000000000000000000006020830152604082019050919050565b6000615363604383615da4565b91507f5374617368426c6f783a20616c6c206c697374206d757374206861766520736160008301527f6d65206c656e6774687320616e64206174206c65617374206f6e6520656c656d60208301527f656e7400000000000000000000000000000000000000000000000000000000006040830152606082019050919050565b60006153ef603783615da4565b91507f455243313135353a206e656564206f70657261746f7220617070726f76616c2060008301527f666f7220337264207061727479207472616e73666572730000000000000000006020830152604082019050919050565b6000615455602e83615da4565b91507f455243313135353a2049447320616e642076616c756573206d7573742068617660008301527f652073616d65206c656e677468730000000000000000000000000000000000006020830152604082019050919050565b60006154bb601383615da4565b91507f5374617368426c6f783a20546f6f20736f6f6e000000000000000000000000006000830152602082019050919050565b60006154fb602483615da4565b91507f5374617368426c6f783a204f6666657220636c6f736564206f722063616e636560008301527f6c6c6564000000000000000000000000000000000000000000000000000000006020830152604082019050919050565b6000615561603183615da4565b91507f455243313135353a20676f7420756e6b6e6f776e2076616c75652066726f6d2060008301527f6f6e4552433131353552656365697665640000000000000000000000000000006020830152604082019050919050565b60006155c7601783615da4565b91507f5374617368426c6f783a204f6666657220636c6f7365640000000000000000006000830152602082019050919050565b6000615607601383615da4565b91507f5374617368426c6f783a20546f6f206c617465000000000000000000000000006000830152602082019050919050565b6000615647601883615da4565b91507f5374617368426c6f783a20556e6b6e6f776e204f6666657200000000000000006000830152602082019050919050565b61568381615e1f565b82525050565b61569281615e1f565b82525050565b60006020820190506156ad6000830184614ab5565b92915050565b600060a0820190506156c86000830188614ab5565b6156d56020830187614ab5565b81810360408301526156e78186614b1c565b905081810360608301526156fb8185614b1c565b9050818103608083015261570f8184614b89565b90509695505050505050565b600060a0820190506157306000830188614ab5565b61573d6020830187614ab5565b61574a6040830186615689565b6157576060830185615689565b81810360808301526157698184614b89565b90509695505050505050565b60006040820190508181036000830152615790818688614ac4565b905081810360208301526157a5818486614ac4565b905095945050505050565b600060208201905081810360008301526157ca8184614b1c565b905092915050565b60006020820190506157e76000830184614b7a565b92915050565b600060208201905081810360008301526158078184614bfb565b905092915050565b600060208201905081810360008301526158298184614bc2565b905092915050565b6000602082019050818103600083015261584a81614c34565b9050919050565b6000602082019050818103600083015261586a81614c74565b9050919050565b6000602082019050818103600083015261588a81614cda565b9050919050565b600060208201905081810360008301526158aa81614d1a565b9050919050565b600060208201905081810360008301526158ca81614d80565b9050919050565b600060208201905081810360008301526158ea81614de6565b9050919050565b6000602082019050818103600083015261590a81614e26565b9050919050565b6000602082019050818103600083015261592a81614e66565b9050919050565b6000602082019050818103600083015261594a81614ecc565b9050919050565b6000602082019050818103600083015261596a81614f32565b9050919050565b6000602082019050818103600083015261598a81614f72565b9050919050565b600060208201905081810360008301526159aa81614fd8565b9050919050565b600060208201905081810360008301526159ca81615018565b9050919050565b600060208201905081810360008301526159ea8161507e565b9050919050565b60006020820190508181036000830152615a0a816150e4565b9050919050565b60006020820190508181036000830152615a2a81615124565b9050919050565b60006020820190508181036000830152615a4a81615164565b9050919050565b60006020820190508181036000830152615a6a816151ca565b9050919050565b60006020820190508181036000830152615a8a81615230565b9050919050565b60006020820190508181036000830152615aaa81615270565b9050919050565b60006020820190508181036000830152615aca816152b0565b9050919050565b60006020820190508181036000830152615aea816152f0565b9050919050565b60006020820190508181036000830152615b0a81615356565b9050919050565b60006020820190508181036000830152615b2a816153e2565b9050919050565b60006020820190508181036000830152615b4a81615448565b9050919050565b60006020820190508181036000830152615b6a816154ae565b9050919050565b60006020820190508181036000830152615b8a816154ee565b9050919050565b60006020820190508181036000830152615baa81615554565b9050919050565b60006020820190508181036000830152615bca816155ba565b9050919050565b60006020820190508181036000830152615bea816155fa565b9050919050565b60006020820190508181036000830152615c0a8161563a565b9050919050565b6000602082019050615c266000830184615689565b92915050565b6000604082019050615c416000830185615689565b8181036020830152615c538184614bc2565b90509392505050565b6000604082019050615c716000830185615689565b615c7e6020830184615689565b9392505050565b6000606082019050615c9a6000830186615689565b615ca76020830185615689565b615cb46040830184615689565b949350505050565b6000604051905081810181811067ffffffffffffffff82111715615cdf57600080fd5b8060405250919050565b600067ffffffffffffffff821115615d0057600080fd5b602082029050602081019050919050565b600067ffffffffffffffff821115615d2857600080fd5b602082029050602081019050919050565b6000819050602082019050919050565b600081519050919050565b600081519050919050565b600081519050919050565b600081519050919050565b6000602082019050919050565b600082825260208201905092915050565b600082825260208201905092915050565b600082825260208201905092915050565b6000615dc082615dff565b9050919050565b60008115159050919050565b60007fffffffff0000000000000000000000000000000000000000000000000000000082169050919050565b600073ffffffffffffffffffffffffffffffffffffffff82169050919050565b6000819050919050565b82818337600083830152505050565b60005b83811015615e56578082015181840152602081019050615e3b565b83811115615e65576000848401525b50505050565b6000601f19601f8301169050919050565b615e8581615db5565b8114615e9057600080fd5b50565b615e9c81615dc7565b8114615ea757600080fd5b50565b615eb381615dd3565b8114615ebe57600080fd5b50565b615eca81615e1f565b8114615ed557600080fd5b5056fe455243313135353a20696e73756666696369656e742062616c616e636520666f72207472616e73666572a365627a7a72315820920c54f97efeb68b8480d528e837eb23ee6786cc5e0dae6d5af14b7e313ba3796c6578706572696d656e74616cf564736f6c634300050c0040",
  "source": "pragma solidity ^0.5.12;\npragma experimental ABIEncoderV2;\n\nimport './lib/ERC1155/ERC1155Lockable.sol';\nimport './lib/ERC1155/ERC1155Documents.sol';\nimport './lib/ERC1155/ERC1155Metadata.sol';\nimport './lib/ERC1155/ERC1155Sellable.sol';\n\ncontract StashBlox is ERC1155Lockable, ERC1155Sellable, ERC1155Documents, ERC1155Metadata {\n\n}\n",
  "sourcePath": "/home/ouziel/Work/StashBloxContracts/contracts/StashBlox.sol",
  "compiler": {
    "name": "solc",
    "version": "0.5.12+commit.7709ece9.Emscripten.clang"
  },
  "schemaVersion": "3.0.16",
  "updatedAt": "2019-11-16T16:20:46.256Z",
  "devdoc": {
    "methods": {
      "balanceOf(address,uint256)": {
        "details": "Get the specified address' balance for token with specified ID. Attempting to query the zero account for a balance will result in a revert.",
        "params": {
          "account": "The address of the token holder",
          "id": "ID of the token"
        },
        "return": "The account's balance of the token type requested"
      },
      "balanceOfBatch(address[],uint256[])": {
        "details": "Get the balance of multiple account/token pairs. If any of the query accounts is the zero account, this query will revert.",
        "params": {
          "accounts": "The addresses of the token holders",
          "ids": "IDs of the tokens"
        },
        "return": "Balances for each account and token id pair"
      },
      "createTokens(uint256[],address[],uint256[])": {
        "details": "Function to mint an amount of a token with the given ID.",
        "params": {
          "ids": "ID of the token to be minted",
          "recipients": "The addresses that will own the minted token",
          "values": "Amount of the token to be minted for each recipient"
        }
      },
      "isApprovedForAll(address,address)": {
        "params": {
          "account": "The account of the Tokens",
          "operator": "Address of authorized operator"
        },
        "return": "True if the operator is approved, false if not"
      },
      "owner()": {
        "details": "Returns the address of the current owner."
      },
      "safeBatchTransferFrom(address,address,uint256[],uint256[],bytes)": {
        "details": "Transfers `values` amount(s) of `ids` from the `from` address to the `to` address specified. Caller must be approved to manage the tokens being transferred out of the `from` account. If `to` is a smart contract, will call `onERC1155BatchReceived` on `to` and act appropriately.",
        "params": {
          "data": "Data forwarded to `onERC1155Received` if `to` is a contract receiver",
          "from": "Source address",
          "ids": "IDs of each token type",
          "to": "Target address",
          "values": "Transfer amounts per token type"
        }
      },
      "safeTransferFrom(address,address,uint256,uint256,bytes)": {
        "details": "Transfers `value` amount of an `id` from the `from` address to the `to` address specified. Caller must be approved to manage the tokens being transferred out of the `from` account. If `to` is a smart contract, will call `onERC1155Received` on `to` and act appropriately.",
        "params": {
          "data": "Data forwarded to `onERC1155Received` if `to` is a contract receiver",
          "from": "Source address",
          "id": "ID of the token type",
          "to": "Target address",
          "value": "Transfer amount"
        }
      },
      "setApprovalForAll(address,bool)": {
        "details": "Sets or unsets the approval of a given operator.     * An operator is allowed to transfer all tokens of the sender on their behalf.     * Because an account already has operator privileges for itself, this function will revert if the account attempts to set the approval status for itself.",
        "params": {
          "approved": "representing the status of the approval to be set",
          "operator": "address to set the approval"
        }
      },
      "supportsInterface(bytes4)": {
        "params": {
          "_interfaceID": "The interface identifier, as specified in ERC-165"
        },
        "return": "`true` if the contract implements `_interfaceID` and"
      },
      "totalSupply(uint256)": {
        "params": {
          "id": "Token ID"
        },
        "return": "Token supply"
      },
      "transferOwnership(address)": {
        "details": "Transfers ownership of the contract to a new account (`newOwner`). Can only be called by the current owner."
      },
      "uri(uint256)": {
        "params": {
          "id": "Token ID"
        },
        "return": "URI string"
      }
    }
  },
  "userdoc": {
    "methods": {
      "isApprovedForAll(address,address)": {
        "notice": "Queries the approval status of an operator for a given account."
      },
      "supportsInterface(bytes4)": {
        "notice": "Query if a contract implements an interface"
      }
    }
  }
}