{
  "contractName": "StashBlox",
  "abi": [
    {
      "anonymous": false,
      "inputs": [
        {
          "indexed": true,
          "internalType": "address",
          "name": "_owner",
          "type": "address"
        },
        {
          "indexed": true,
          "internalType": "address",
          "name": "_operator",
          "type": "address"
        },
        {
          "indexed": false,
          "internalType": "bool",
          "name": "_approved",
          "type": "bool"
        }
      ],
      "name": "ApprovalForAll",
      "type": "event"
    },
    {
      "anonymous": false,
      "inputs": [
        {
          "indexed": true,
          "internalType": "uint256",
          "name": "_callbackPropositionId",
          "type": "uint256"
        }
      ],
      "name": "CallbackAccepted",
      "type": "event"
    },
    {
      "anonymous": false,
      "inputs": [
        {
          "indexed": true,
          "internalType": "uint256",
          "name": "_callbackPropositionId",
          "type": "uint256"
        }
      ],
      "name": "CallbackCompleted",
      "type": "event"
    },
    {
      "anonymous": false,
      "inputs": [
        {
          "indexed": true,
          "internalType": "uint256",
          "name": "_callbackPropositionId",
          "type": "uint256"
        }
      ],
      "name": "CallbackProposed",
      "type": "event"
    },
    {
      "anonymous": false,
      "inputs": [
        {
          "indexed": true,
          "internalType": "uint256",
          "name": "_callbackPropositionId",
          "type": "uint256"
        }
      ],
      "name": "CallbackRefused",
      "type": "event"
    },
    {
      "anonymous": false,
      "inputs": [
        {
          "indexed": true,
          "internalType": "uint256",
          "name": "_id",
          "type": "uint256"
        },
        {
          "indexed": true,
          "internalType": "uint256",
          "name": "_hash",
          "type": "uint256"
        }
      ],
      "name": "MetadataHashUpdated",
      "type": "event"
    },
    {
      "anonymous": false,
      "inputs": [
        {
          "indexed": true,
          "internalType": "address",
          "name": "previousOwner",
          "type": "address"
        },
        {
          "indexed": true,
          "internalType": "address",
          "name": "newOwner",
          "type": "address"
        }
      ],
      "name": "OwnershipTransferred",
      "type": "event"
    },
    {
      "anonymous": false,
      "inputs": [
        {
          "indexed": true,
          "internalType": "address",
          "name": "_operator",
          "type": "address"
        },
        {
          "indexed": true,
          "internalType": "address",
          "name": "_from",
          "type": "address"
        },
        {
          "indexed": true,
          "internalType": "address",
          "name": "_to",
          "type": "address"
        },
        {
          "indexed": false,
          "internalType": "uint256[]",
          "name": "_ids",
          "type": "uint256[]"
        },
        {
          "indexed": false,
          "internalType": "uint256[]",
          "name": "_values",
          "type": "uint256[]"
        }
      ],
      "name": "TransferBatch",
      "type": "event"
    },
    {
      "anonymous": false,
      "inputs": [
        {
          "indexed": true,
          "internalType": "address",
          "name": "_operator",
          "type": "address"
        },
        {
          "indexed": true,
          "internalType": "address",
          "name": "_from",
          "type": "address"
        },
        {
          "indexed": true,
          "internalType": "address",
          "name": "_to",
          "type": "address"
        },
        {
          "indexed": false,
          "internalType": "uint256",
          "name": "_id",
          "type": "uint256"
        },
        {
          "indexed": false,
          "internalType": "uint256",
          "name": "_value",
          "type": "uint256"
        }
      ],
      "name": "TransferSingle",
      "type": "event"
    },
    {
      "anonymous": false,
      "inputs": [
        {
          "indexed": false,
          "internalType": "string",
          "name": "_value",
          "type": "string"
        },
        {
          "indexed": true,
          "internalType": "uint256",
          "name": "_id",
          "type": "uint256"
        }
      ],
      "name": "URI",
      "type": "event"
    },
    {
      "anonymous": false,
      "inputs": [
        {
          "indexed": true,
          "internalType": "address",
          "name": "_owner",
          "type": "address"
        },
        {
          "indexed": false,
          "internalType": "uint256",
          "name": "_price",
          "type": "uint256"
        }
      ],
      "name": "UpdateStorageCreditPrice",
      "type": "event"
    },
    {
      "anonymous": false,
      "inputs": [
        {
          "indexed": true,
          "internalType": "address",
          "name": "_maintener",
          "type": "address"
        },
        {
          "indexed": false,
          "internalType": "uint256",
          "name": "_id",
          "type": "uint256"
        },
        {
          "indexed": false,
          "internalType": "uint256[3]",
          "name": "_fees",
          "type": "uint256[3]"
        }
      ],
      "name": "UpdateTransactionFees",
      "type": "event"
    },
    {
      "inputs": [],
      "name": "BASE_URI",
      "outputs": [
        {
          "internalType": "string",
          "name": "",
          "type": "string"
        }
      ],
      "stateMutability": "view",
      "type": "function"
    },
    {
      "inputs": [
        {
          "internalType": "address",
          "name": "",
          "type": "address"
        }
      ],
      "name": "_ETHBalances",
      "outputs": [
        {
          "internalType": "uint256",
          "name": "",
          "type": "uint256"
        }
      ],
      "stateMutability": "view",
      "type": "function"
    },
    {
      "inputs": [
        {
          "internalType": "uint256",
          "name": "",
          "type": "uint256"
        },
        {
          "internalType": "uint256",
          "name": "",
          "type": "uint256"
        }
      ],
      "name": "_addressesByToken",
      "outputs": [
        {
          "internalType": "address",
          "name": "",
          "type": "address"
        }
      ],
      "stateMutability": "view",
      "type": "function"
    },
    {
      "inputs": [
        {
          "internalType": "uint256",
          "name": "",
          "type": "uint256"
        },
        {
          "internalType": "address",
          "name": "",
          "type": "address"
        }
      ],
      "name": "_balances",
      "outputs": [
        {
          "internalType": "uint256",
          "name": "",
          "type": "uint256"
        }
      ],
      "stateMutability": "view",
      "type": "function"
    },
    {
      "inputs": [
        {
          "internalType": "uint256",
          "name": "",
          "type": "uint256"
        },
        {
          "internalType": "address",
          "name": "",
          "type": "address"
        }
      ],
      "name": "_birthdays",
      "outputs": [
        {
          "internalType": "uint256",
          "name": "",
          "type": "uint256"
        }
      ],
      "stateMutability": "view",
      "type": "function"
    },
    {
      "inputs": [
        {
          "internalType": "uint256",
          "name": "",
          "type": "uint256"
        }
      ],
      "name": "_callbackPropositions",
      "outputs": [
        {
          "internalType": "uint256",
          "name": "tokenId",
          "type": "uint256"
        },
        {
          "internalType": "address",
          "name": "caller",
          "type": "address"
        },
        {
          "internalType": "uint256",
          "name": "price",
          "type": "uint256"
        },
        {
          "internalType": "uint256",
          "name": "escrowedAmount",
          "type": "uint256"
        },
        {
          "internalType": "bool",
          "name": "needLegalApproval",
          "type": "bool"
        },
        {
          "internalType": "bool",
          "name": "approvedByMaintener",
          "type": "bool"
        },
        {
          "internalType": "bool",
          "name": "approvedByLegal",
          "type": "bool"
        },
        {
          "internalType": "bool",
          "name": "refused",
          "type": "bool"
        },
        {
          "internalType": "bool",
          "name": "accepted",
          "type": "bool"
        },
        {
          "internalType": "uint256",
          "name": "callCounter",
          "type": "uint256"
        },
        {
          "internalType": "bool",
          "name": "completed",
          "type": "bool"
        },
        {
          "internalType": "uint256",
          "name": "documentHash",
          "type": "uint256"
        }
      ],
      "stateMutability": "view",
      "type": "function"
    },
    {
      "inputs": [
        {
          "internalType": "address",
          "name": "",
          "type": "address"
        },
        {
          "internalType": "uint256",
          "name": "",
          "type": "uint256"
        }
      ],
      "name": "_tokensByAddress",
      "outputs": [
        {
          "internalType": "uint256",
          "name": "",
          "type": "uint256"
        }
      ],
      "stateMutability": "view",
      "type": "function"
    },
    {
      "inputs": [
        {
          "internalType": "address",
          "name": "account",
          "type": "address"
        },
        {
          "internalType": "uint256",
          "name": "id",
          "type": "uint256"
        }
      ],
      "name": "balanceOf",
      "outputs": [
        {
          "internalType": "uint256",
          "name": "",
          "type": "uint256"
        }
      ],
      "stateMutability": "view",
      "type": "function"
    },
    {
      "inputs": [
        {
          "internalType": "address[]",
          "name": "accounts",
          "type": "address[]"
        },
        {
          "internalType": "uint256[]",
          "name": "ids",
          "type": "uint256[]"
        }
      ],
      "name": "balanceOfBatch",
      "outputs": [
        {
          "internalType": "uint256[]",
          "name": "",
          "type": "uint256[]"
        }
      ],
      "stateMutability": "view",
      "type": "function"
    },
    {
      "inputs": [
        {
          "internalType": "address",
          "name": "account",
          "type": "address"
        },
        {
          "internalType": "address",
          "name": "operator",
          "type": "address"
        }
      ],
      "name": "isApprovedForAll",
      "outputs": [
        {
          "internalType": "bool",
          "name": "",
          "type": "bool"
        }
      ],
      "stateMutability": "view",
      "type": "function"
    },
    {
      "inputs": [
        {
          "internalType": "uint256",
          "name": "id",
          "type": "uint256"
        }
      ],
      "name": "metadataHash",
      "outputs": [
        {
          "internalType": "uint256",
          "name": "",
          "type": "uint256"
        }
      ],
      "stateMutability": "view",
      "type": "function"
    },
    {
      "inputs": [],
      "name": "owner",
      "outputs": [
        {
          "internalType": "address",
          "name": "",
          "type": "address"
        }
      ],
      "stateMutability": "view",
      "type": "function"
    },
    {
      "inputs": [
        {
          "internalType": "address",
          "name": "from",
          "type": "address"
        },
        {
          "internalType": "address",
          "name": "to",
          "type": "address"
        },
        {
          "internalType": "uint256[]",
          "name": "ids",
          "type": "uint256[]"
        },
        {
          "internalType": "uint256[]",
          "name": "values",
          "type": "uint256[]"
        },
        {
          "internalType": "bytes",
          "name": "data",
          "type": "bytes"
        }
      ],
      "name": "safeBatchTransferFrom",
      "outputs": [],
      "stateMutability": "payable",
      "type": "function"
    },
    {
      "inputs": [
        {
          "internalType": "address",
          "name": "from",
          "type": "address"
        },
        {
          "internalType": "address",
          "name": "to",
          "type": "address"
        },
        {
          "internalType": "uint256",
          "name": "id",
          "type": "uint256"
        },
        {
          "internalType": "uint256",
          "name": "value",
          "type": "uint256"
        },
        {
          "internalType": "bytes",
          "name": "data",
          "type": "bytes"
        }
      ],
      "name": "safeTransferFrom",
      "outputs": [],
      "stateMutability": "payable",
      "type": "function"
    },
    {
      "inputs": [
        {
          "internalType": "address",
          "name": "operator",
          "type": "address"
        },
        {
          "internalType": "bool",
          "name": "approved",
          "type": "bool"
        }
      ],
      "name": "setApprovalForAll",
      "outputs": [],
      "stateMutability": "nonpayable",
      "type": "function"
    },
    {
      "inputs": [
        {
          "internalType": "bytes4",
          "name": "_interfaceID",
          "type": "bytes4"
        }
      ],
      "name": "supportsInterface",
      "outputs": [
        {
          "internalType": "bool",
          "name": "",
          "type": "bool"
        }
      ],
      "stateMutability": "pure",
      "type": "function"
    },
    {
      "inputs": [
        {
          "internalType": "address",
          "name": "newOwner",
          "type": "address"
        }
      ],
      "name": "transferOwnership",
      "outputs": [],
      "stateMutability": "nonpayable",
      "type": "function"
    },
    {
      "inputs": [
        {
          "internalType": "uint256",
          "name": "id",
          "type": "uint256"
        }
      ],
      "name": "uri",
      "outputs": [
        {
          "internalType": "string",
          "name": "",
          "type": "string"
        }
      ],
      "stateMutability": "pure",
      "type": "function"
    },
    {
      "stateMutability": "payable",
      "type": "receive"
    },
    {
      "inputs": [
        {
          "internalType": "address",
          "name": "tokenizer",
          "type": "address"
        }
      ],
      "name": "authorizeTokenizer",
      "outputs": [],
      "stateMutability": "nonpayable",
      "type": "function"
    },
    {
      "inputs": [
        {
          "internalType": "address",
          "name": "tokenizer",
          "type": "address"
        }
      ],
      "name": "revokeTokenizer",
      "outputs": [],
      "stateMutability": "nonpayable",
      "type": "function"
    },
    {
      "inputs": [
        {
          "internalType": "address",
          "name": "tokenizer",
          "type": "address"
        }
      ],
      "name": "isTokenizer",
      "outputs": [
        {
          "internalType": "bool",
          "name": "",
          "type": "bool"
        }
      ],
      "stateMutability": "view",
      "type": "function"
    },
    {
      "inputs": [
        {
          "internalType": "uint256",
          "name": "id",
          "type": "uint256"
        },
        {
          "internalType": "address",
          "name": "maintener",
          "type": "address"
        }
      ],
      "name": "authorizeMaintener",
      "outputs": [],
      "stateMutability": "nonpayable",
      "type": "function"
    },
    {
      "inputs": [
        {
          "internalType": "uint256",
          "name": "id",
          "type": "uint256"
        },
        {
          "internalType": "address",
          "name": "maintener",
          "type": "address"
        }
      ],
      "name": "revokeMaintener",
      "outputs": [],
      "stateMutability": "nonpayable",
      "type": "function"
    },
    {
      "inputs": [
        {
          "internalType": "uint256",
          "name": "id",
          "type": "uint256"
        },
        {
          "internalType": "address",
          "name": "maintener",
          "type": "address"
        }
      ],
      "name": "isMaintener",
      "outputs": [
        {
          "internalType": "bool",
          "name": "",
          "type": "bool"
        }
      ],
      "stateMutability": "view",
      "type": "function"
    },
    {
      "inputs": [
        {
          "internalType": "uint256",
          "name": "id",
          "type": "uint256"
        }
      ],
      "name": "lockToken",
      "outputs": [],
      "stateMutability": "nonpayable",
      "type": "function"
    },
    {
      "inputs": [
        {
          "internalType": "uint256",
          "name": "id",
          "type": "uint256"
        }
      ],
      "name": "unlockToken",
      "outputs": [],
      "stateMutability": "nonpayable",
      "type": "function"
    },
    {
      "inputs": [
        {
          "internalType": "uint256",
          "name": "id",
          "type": "uint256"
        }
      ],
      "name": "isLockedToken",
      "outputs": [
        {
          "internalType": "bool",
          "name": "",
          "type": "bool"
        }
      ],
      "stateMutability": "view",
      "type": "function"
    },
    {
      "inputs": [
        {
          "internalType": "address",
          "name": "addr",
          "type": "address"
        }
      ],
      "name": "lockAddress",
      "outputs": [],
      "stateMutability": "nonpayable",
      "type": "function"
    },
    {
      "inputs": [
        {
          "internalType": "address",
          "name": "addr",
          "type": "address"
        }
      ],
      "name": "unlockAddress",
      "outputs": [],
      "stateMutability": "nonpayable",
      "type": "function"
    },
    {
      "inputs": [
        {
          "internalType": "address",
          "name": "addr",
          "type": "address"
        }
      ],
      "name": "isLockedAddress",
      "outputs": [
        {
          "internalType": "bool",
          "name": "",
          "type": "bool"
        }
      ],
      "stateMutability": "view",
      "type": "function"
    },
    {
      "inputs": [
        {
          "internalType": "address",
          "name": "recipient",
          "type": "address"
        },
        {
          "internalType": "uint256",
          "name": "id",
          "type": "uint256"
        },
        {
          "internalType": "uint256",
          "name": "supply",
          "type": "uint256"
        },
        {
          "internalType": "uint256",
          "name": "metadataHash",
          "type": "uint256"
        },
        {
          "internalType": "uint256[3]",
          "name": "transactionFees",
          "type": "uint256[3]"
        },
        {
          "internalType": "address[]",
          "name": "feesRecipients",
          "type": "address[]"
        },
        {
          "internalType": "uint256[]",
          "name": "feesRecipientsPercentage",
          "type": "uint256[]"
        },
        {
          "internalType": "uint256",
          "name": "minHoldingForCallback",
          "type": "uint256"
        }
      ],
      "name": "createToken",
      "outputs": [],
      "stateMutability": "nonpayable",
      "type": "function"
    },
    {
      "inputs": [
        {
          "internalType": "uint256",
          "name": "templateID",
          "type": "uint256"
        },
        {
          "internalType": "uint256[]",
          "name": "ids",
          "type": "uint256[]"
        },
        {
          "internalType": "uint256[]",
          "name": "metadataHashes",
          "type": "uint256[]"
        }
      ],
      "name": "createTokens",
      "outputs": [],
      "stateMutability": "nonpayable",
      "type": "function"
    },
    {
      "inputs": [
        {
          "internalType": "uint256",
          "name": "templateID",
          "type": "uint256"
        },
        {
          "internalType": "address",
          "name": "recipient",
          "type": "address"
        },
        {
          "internalType": "uint256",
          "name": "supply",
          "type": "uint256"
        },
        {
          "internalType": "uint256[3]",
          "name": "transactionFees",
          "type": "uint256[3]"
        },
        {
          "internalType": "address[]",
          "name": "feesRecipients",
          "type": "address[]"
        },
        {
          "internalType": "uint256[]",
          "name": "feesRecipientsPercentage",
          "type": "uint256[]"
        },
        {
          "internalType": "uint256",
          "name": "minHoldingForCallback",
          "type": "uint256"
        }
      ],
      "name": "setTokenTemplate",
      "outputs": [],
      "stateMutability": "nonpayable",
      "type": "function"
    },
    {
      "inputs": [
        {
          "internalType": "uint256",
          "name": "id",
          "type": "uint256"
        },
        {
          "internalType": "uint256",
          "name": "metadataHash",
          "type": "uint256"
        }
      ],
      "name": "updateMetadataHash",
      "outputs": [],
      "stateMutability": "nonpayable",
      "type": "function"
    },
    {
      "inputs": [
        {
          "internalType": "uint256",
          "name": "id",
          "type": "uint256"
        },
        {
          "internalType": "uint256[3]",
          "name": "newFees",
          "type": "uint256[3]"
        }
      ],
      "name": "updateTransactionFees",
      "outputs": [],
      "stateMutability": "nonpayable",
      "type": "function"
    },
    {
      "inputs": [
        {
          "internalType": "uint256",
          "name": "id",
          "type": "uint256"
        },
        {
          "internalType": "address[]",
          "name": "newFeesRecipients",
          "type": "address[]"
        },
        {
          "internalType": "uint256[]",
          "name": "newFeesRecipientsPercentage",
          "type": "uint256[]"
        }
      ],
      "name": "updateFeesRecipients",
      "outputs": [],
      "stateMutability": "nonpayable",
      "type": "function"
    },
    {
      "inputs": [
        {
          "internalType": "uint256",
          "name": "id",
          "type": "uint256"
        },
        {
          "internalType": "uint256",
          "name": "newMinHoldingForCallback",
          "type": "uint256"
        }
      ],
      "name": "updateMinHoldingForCallback",
      "outputs": [],
      "stateMutability": "nonpayable",
      "type": "function"
    },
    {
      "inputs": [
        {
          "internalType": "uint256",
          "name": "newPrice",
          "type": "uint256"
        }
      ],
      "name": "updateStorageCreditPrice",
      "outputs": [],
      "stateMutability": "nonpayable",
      "type": "function"
    },
    {
      "inputs": [
        {
          "internalType": "address",
          "name": "account",
          "type": "address"
        },
        {
          "internalType": "uint256",
          "name": "id",
          "type": "uint256"
        },
        {
          "internalType": "uint256",
          "name": "value",
          "type": "uint256"
        }
      ],
      "name": "transactionFees",
      "outputs": [
        {
          "internalType": "uint256",
          "name": "",
          "type": "uint256"
        }
      ],
      "stateMutability": "view",
      "type": "function"
    },
    {
      "inputs": [
        {
          "internalType": "uint256",
          "name": "tokenId",
          "type": "uint256"
        },
        {
          "internalType": "uint256",
          "name": "price",
          "type": "uint256"
        },
        {
          "internalType": "address[]",
          "name": "callees",
          "type": "address[]"
        },
        {
          "internalType": "uint256",
          "name": "documentHash",
          "type": "uint256"
        }
      ],
      "name": "proposeCallback",
      "outputs": [
        {
          "internalType": "uint256",
          "name": "",
          "type": "uint256"
        }
      ],
      "stateMutability": "payable",
      "type": "function"
    },
    {
      "inputs": [
        {
          "internalType": "uint256",
          "name": "callbackId",
          "type": "uint256"
        }
      ],
      "name": "refuseCallback",
      "outputs": [],
      "stateMutability": "nonpayable",
      "type": "function"
    },
    {
      "inputs": [
        {
          "internalType": "uint256",
          "name": "callbackId",
          "type": "uint256"
        }
      ],
      "name": "acceptCallback",
      "outputs": [],
      "stateMutability": "nonpayable",
      "type": "function"
    },
    {
      "inputs": [
        {
          "internalType": "uint256",
          "name": "callbackId",
          "type": "uint256"
        },
        {
          "internalType": "uint256",
          "name": "maxCall",
          "type": "uint256"
        }
      ],
      "name": "executeCallback",
      "outputs": [],
      "stateMutability": "nonpayable",
      "type": "function"
    },
    {
      "inputs": [
        {
          "internalType": "address",
          "name": "to",
          "type": "address"
        },
        {
          "internalType": "uint256",
          "name": "amount",
          "type": "uint256"
        }
      ],
      "name": "withdraw",
      "outputs": [],
      "stateMutability": "nonpayable",
      "type": "function"
    },
    {
      "inputs": [
        {
          "internalType": "address",
          "name": "to",
          "type": "address"
        }
      ],
      "name": "deposit",
      "outputs": [],
      "stateMutability": "payable",
      "type": "function"
    },
    {
      "inputs": [
        {
          "internalType": "address[]",
          "name": "proxyAddresses",
          "type": "address[]"
        }
      ],
      "name": "setProxyRegistryAddress",
      "outputs": [],
      "stateMutability": "nonpayable",
      "type": "function"
    }
  ],
  "bytecode": "0x60806040526103e8600655600160115560326019553480156200002157600080fd5b506200002d3362000033565b620000ef565b6001600160a01b03811662000094576040517f08c379a0000000000000000000000000000000000000000000000000000000008152600401808060200182810382526026815260200180620056da6026913960400191505060405180910390fd5b600080546040516001600160a01b03808516939216917f8be0079c531659141344cd1fd0a4f28419497f9722a3daafe3b4186f6b6457e091a3600080546001600160a01b0319166001600160a01b0392909216919091179055565b6155db80620000ff6000396000f3fe6080604052600436106102805760003560e01c8063a00712b61161014f578063d7b80ebc116100c1578063f242432a1161007a578063f242432a14611371578063f2fde38b14611404578063f340fa0114611437578063f3fef3a31461145d578063fc25a4da14611496578063fc3fcec7146114cf5761029c565b8063d7b80ebc1461125b578063dbddb26a1461128e578063dd2e0ac0146112a3578063e985e9c5146112cd578063ea2bd64d14611308578063ebc5af53146113415761029c565b8063c02f303c11610113578063c02f303c14610fd7578063c255620a1461100a578063cba54e6014611034578063cfc992b414611067578063d1660e18146111e3578063d41d0aa3146112225761029c565b8063a00712b614610e2e578063a22cb46514610edc578063aa5aba5b14610f17578063b7eb5e0a14610f7a578063bba75c8314610fad5761029c565b80635dafec1b116101f35780638495b141116101ac5780638495b14114610cc25780638870147b14610cec5780638aeba37e14610d1f5780638da5cb5b14610d585780638f96f13114610d6d57806397869e2714610d975761029c565b80635dafec1b14610a8c5780636b62becb14610ac55780636eb987c714610af55780637627b73214610b2e5780637a18b66a14610b6157806380f2036314610c985761029c565b80631fb35aa3116102455780631fb35aa314610558578063209bf05514610607578063219cc8bc146107885780632eb2c2d6146107b257806334a90d02146108d95780634e1273f41461090c5761029c565b8062fdd58e146102a157806301ffc9a7146102ec5780630d897453146103345780630e89341c1461046d578063119c07371461050c5761029c565b3661029c57336000908152600b60205260409020805434019055005b600080fd5b3480156102ad57600080fd5b506102da600480360360408110156102c457600080fd5b506001600160a01b0381351690602001356114ff565b60408051918252519081900360200190f35b3480156102f857600080fd5b506103206004803603602081101561030f57600080fd5b50356001600160e01b031916611571565b604080519115158252519081900360200190f35b34801561034057600080fd5b5061046b6004803603606081101561035757600080fd5b81359190810190604081016020820135600160201b81111561037857600080fd5b82018360208201111561038a57600080fd5b803590602001918460208302840111600160201b831117156103ab57600080fd5b9190808060200260200160405190810160405280939291908181526020018383602002808284376000920191909152509295949360208101935035915050600160201b8111156103fa57600080fd5b82018360208201111561040c57600080fd5b803590602001918460208302840111600160201b8311171561042d57600080fd5b9190808060200260200160405190810160405280939291908181526020018383602002808284376000920191909152509295506115b8945050505050565b005b34801561047957600080fd5b506104976004803603602081101561049057600080fd5b503561160f565b6040805160208082528351818301528351919283929083019185019080838360005b838110156104d15781810151838201526020016104b9565b50505050905090810190601f1680156104fe5780820380516001836020036101000a031916815260200191505b509250505060405180910390f35b34801561051857600080fd5b5061053c6004803603604081101561052f57600080fd5b5080359060200135611658565b604080516001600160a01b039092168252519081900360200190f35b6102da6004803603608081101561056e57600080fd5b813591602081013591810190606081016040820135600160201b81111561059457600080fd5b8201836020820111156105a657600080fd5b803590602001918460208302840111600160201b831117156105c757600080fd5b919080806020026020016040519081016040528093929190818152602001838360200280828437600092019190915250929550509135925061168d915050565b34801561061357600080fd5b5061046b600480360361014081101561062b57600080fd5b60408051606081810183526001600160a01b0385351694602081013594938101359382820135939082019260e0830191906080840190600390839083908082843760009201919091525091949392602081019250359050600160201b81111561069357600080fd5b8201836020820111156106a557600080fd5b803590602001918460208302840111600160201b831117156106c657600080fd5b9190808060200260200160405190810160405280939291908181526020018383602002808284376000920191909152509295949360208101935035915050600160201b81111561071557600080fd5b82018360208201111561072757600080fd5b803590602001918460208302840111600160201b8311171561074857600080fd5b91908080602002602001604051908101604052809392919081815260200183836020028082843760009201919091525092955050913592506119ae915050565b34801561079457600080fd5b506102da600480360360208110156107ab57600080fd5b5035611a45565b61046b600480360360a08110156107c857600080fd5b6001600160a01b038235811692602081013590911691810190606081016040820135600160201b8111156107fb57600080fd5b82018360208201111561080d57600080fd5b803590602001918460208302840111600160201b8311171561082e57600080fd5b919390929091602081019035600160201b81111561084b57600080fd5b82018360208201111561085d57600080fd5b803590602001918460208302840111600160201b8311171561087e57600080fd5b919390929091602081019035600160201b81111561089b57600080fd5b8201836020820111156108ad57600080fd5b803590602001918460018302840111600160201b831117156108ce57600080fd5b509092509050611a57565b3480156108e557600080fd5b5061046b600480360360208110156108fc57600080fd5b50356001600160a01b0316611dd7565b34801561091857600080fd5b50610a3c6004803603604081101561092f57600080fd5b810190602081018135600160201b81111561094957600080fd5b82018360208201111561095b57600080fd5b803590602001918460208302840111600160201b8311171561097c57600080fd5b9190808060200260200160405190810160405280939291908181526020018383602002808284376000920191909152509295949360208101935035915050600160201b8111156109cb57600080fd5b8201836020820111156109dd57600080fd5b803590602001918460208302840111600160201b831117156109fe57600080fd5b919080806020026020016040519081016040528093929190818152602001838360200280828437600092019190915250929550611e42945050505050565b60408051602080825283518183015283519192839290830191858101910280838360005b83811015610a78578181015183820152602001610a60565b505050509050019250505060405180910390f35b348015610a9857600080fd5b5061032060048036036040811015610aaf57600080fd5b50803590602001356001600160a01b0316611fc0565b348015610ad157600080fd5b5061046b60048036036040811015610ae857600080fd5b5080359060200135611fd3565b348015610b0157600080fd5b506102da60048036036040811015610b1857600080fd5b506001600160a01b038135169060200135612028565b348015610b3a57600080fd5b5061046b60048036036020811015610b5157600080fd5b50356001600160a01b0316612056565b348015610b6d57600080fd5b5061046b60048036036060811015610b8457600080fd5b81359190810190604081016020820135600160201b811115610ba557600080fd5b820183602082011115610bb757600080fd5b803590602001918460208302840111600160201b83111715610bd857600080fd5b9190808060200260200160405190810160405280939291908181526020018383602002808284376000920191909152509295949360208101935035915050600160201b811115610c2757600080fd5b820183602082011115610c3957600080fd5b803590602001918460208302840111600160201b83111715610c5a57600080fd5b9190808060200260200160405190810160405280939291908181526020018383602002808284376000920191909152509295506120c1945050505050565b348015610ca457600080fd5b5061046b60048036036020811015610cbb57600080fd5b50356123b2565b348015610cce57600080fd5b5061046b60048036036020811015610ce557600080fd5b5035612414565b348015610cf857600080fd5b5061046b60048036036020811015610d0f57600080fd5b50356001600160a01b0316612499565b348015610d2b57600080fd5b5061046b60048036036040811015610d4257600080fd5b50803590602001356001600160a01b0316612501565b348015610d6457600080fd5b5061053c612578565b348015610d7957600080fd5b5061046b60048036036020811015610d9057600080fd5b5035612587565b348015610da357600080fd5b50610dc160048036036020811015610dba57600080fd5b5035612826565b604080519c8d526001600160a01b03909b1660208d01528b8b019990995260608b019790975294151560808a015292151560a089015290151560c0880152151560e08701521515610100860152610120850152151561014084015261016083015251908190036101800190f35b348015610e3a57600080fd5b5061046b60048036036020811015610e5157600080fd5b810190602081018135600160201b811115610e6b57600080fd5b820183602082011115610e7d57600080fd5b803590602001918460208302840111600160201b83111715610e9e57600080fd5b91908080602002602001604051908101604052809392919081815260200183836020028082843760009201919091525092955061289f945050505050565b348015610ee857600080fd5b5061046b60048036036040811015610eff57600080fd5b506001600160a01b03813516906020013515156128fd565b348015610f2357600080fd5b5061046b60048036036080811015610f3a57600080fd5b6040805160608181019092528335939283019291608083019190602084019060039083908390808284376000920191909152509194506129b39350505050565b348015610f8657600080fd5b5061046b60048036036020811015610f9d57600080fd5b50356001600160a01b0316612a03565b348015610fb957600080fd5b5061032060048036036020811015610fd057600080fd5b5035612a6b565b348015610fe357600080fd5b5061032060048036036020811015610ffa57600080fd5b50356001600160a01b0316612a76565b34801561101657600080fd5b5061046b6004803603602081101561102d57600080fd5b5035612a81565b34801561104057600080fd5b506103206004803603602081101561105757600080fd5b50356001600160a01b0316612e51565b34801561107357600080fd5b5061046b600480360361012081101561108b57600080fd5b60408051606081810183528435946001600160a01b03602082013516949381013593810192909160c08301919080840190600390839083908082843760009201919091525091949392602081019250359050600160201b8111156110ee57600080fd5b82018360208201111561110057600080fd5b803590602001918460208302840111600160201b8311171561112157600080fd5b9190808060200260200160405190810160405280939291908181526020018383602002808284376000920191909152509295949360208101935035915050600160201b81111561117057600080fd5b82018360208201111561118257600080fd5b803590602001918460208302840111600160201b831117156111a357600080fd5b9190808060200260200160405190810160405280939291908181526020018383602002808284376000920191909152509295505091359250612e5c915050565b3480156111ef57600080fd5b506102da6004803603606081101561120657600080fd5b506001600160a01b038135169060208101359060400135612f68565b34801561122e57600080fd5b5061046b6004803603604081101561124557600080fd5b50803590602001356001600160a01b0316612f7d565b34801561126757600080fd5b506102da6004803603602081101561127e57600080fd5b50356001600160a01b0316612ff1565b34801561129a57600080fd5b50610497613003565b3480156112af57600080fd5b5061046b600480360360208110156112c657600080fd5b503561303c565b3480156112d957600080fd5b50610320600480360360408110156112f057600080fd5b506001600160a01b038135811691602001351661309b565b34801561131457600080fd5b506102da6004803603604081101561132b57600080fd5b50803590602001356001600160a01b03166130dc565b34801561134d57600080fd5b5061046b6004803603604081101561136457600080fd5b50803590602001356130f9565b61046b600480360360a081101561138757600080fd5b6001600160a01b03823581169260208101359091169160408201359160608101359181019060a081016080820135600160201b8111156113c657600080fd5b8201836020820111156113d857600080fd5b803590602001918460018302840111600160201b831117156113f957600080fd5b509092509050613149565b34801561141057600080fd5b5061046b6004803603602081101561142757600080fd5b50356001600160a01b031661338b565b61046b6004803603602081101561144d57600080fd5b50356001600160a01b03166133de565b34801561146957600080fd5b5061046b6004803603604081101561148057600080fd5b506001600160a01b0381351690602001356133fd565b3480156114a257600080fd5b506102da600480360360408110156114b957600080fd5b50803590602001356001600160a01b031661357b565b3480156114db57600080fd5b5061046b600480360360408110156114f257600080fd5b5080359060200135613598565b60006001600160a01b0383166115465760405162461bcd60e51b815260040180806020018281038252602b8152602001806150bc602b913960400191505060405180910390fd5b5060008181526002602090815260408083206001600160a01b03861684529091529020545b92915050565b60006001600160e01b031982166301ffc9a760e01b14806115a257506001600160e01b03198216636cdb3d1360e11b145b156115af575060016115b3565b5060005b919050565b826115c381336137c0565b6115fe5760405162461bcd60e51b815260040180806020018281038252602c8152602001806154da602c913960400191505060405180910390fd5b6116098484846137f4565b50505050565b606061156b6040518060400160405280601d81526020017f68747470733a2f2f7374617368626c6f782e636f6d2f746f6b656e732f0000008152506116538461395d565b613a19565b600d602052816000526040600020818154811061167157fe5b6000918252602090912001546001600160a01b03169150829050565b6000848152600360205260408120546116ed576040805162461bcd60e51b815260206004820152601960248201527f5374617368426c6f783a20556e6b6e6f776e20746f6b656e2e00000000000000604482015290519081900360640190fd5b6116f8858585613b23565b3410156117365760405162461bcd60e51b81526004018080602001828103825260358152602001806153286035913960400191505060405180910390fd5b6019548351111561178e576040805162461bcd60e51b815260206004820152601b60248201527f5374617368426c6f783a20746f6f206d7563682063616c6c6565730000000000604482015290519081900360640190fd5b60008581526015602090815260408083205460039092528220546117bf91612710916117b991613be0565b90613c39565b9050604051806101a00160405280878152602001336001600160a01b03168152602001858152602001868152602001348152602001866000148061181b5750600088815260026020908152604080832033845290915290205483115b80611827575060008651115b15158152600060208083018290526040808401839052606084018390526080840183905260a0840183905260c0840183905260e09093018790526011548252601281529082902083518155838201516001820180546001600160a01b0319166001600160a01b039092169190911790559183015180516118ad9260028501920190614ebe565b50606082015160038201556080820151600482015560a082015160058201805460c085015160e08601516101008088015161012089015160ff199586169715159790971761ff0019169315159091029290921762ff0000191662010000911515919091021763ff00000019166301000000911515919091021764ff000000001916600160201b931515939093029290921790556101408301516006830155610160830151600783018054909216901515179055610180909101516008909101556011546040517f227cfe17ee1dc56c6d8556f7318619d5ad20f3408efea751ccd5985dce00ca5990600090a250506011805460018101909155949350505050565b6119b733613c7b565b6119f25760405162461bcd60e51b815260040180806020018281038252602681526020018061535d6026913960400191505060405180910390fd5b611a028888888888888888613ca5565b604080518881526020810188905281516001600160a01b038b1692600092339260008051602061509c833981519152929181900390910190a45050505050505050565b60009081526001602052604090205490565b848314611a955760405162461bcd60e51b815260040180806020018281038252602e8152602001806154ac602e913960400191505060405180910390fd5b6001600160a01b038716611ada5760405162461bcd60e51b815260040180806020018281038252602881526020018061512e6028913960400191505060405180910390fd5b6001600160a01b038816331480611afc5750611af6883361309b565b15156001145b611b375760405162461bcd60e51b81526004018080602001828103825260378152602001806154516037913960400191505060405180910390fd5b6000803411611b5e576001600160a01b0389166000908152600b6020526040902054611b60565b345b905060005b86811015611baa57611b9e8a8a8a8a85818110611b7e57fe5b90506020020135898986818110611b9157fe5b9050602002013586613db1565b90910390600101611b65565b50876001600160a01b0316896001600160a01b0316336001600160a01b03167f4a39dc06d4c0dbc64b70af90fd698a233a518aa5d07e595d983b8c0526c8f7fb8a8a8a8a6040518080602001806020018381038352878782818152602001925060200280828437600083820152601f01601f19169091018481038352858152602090810191508690860280828437600083820152604051601f909101601f19169092018290039850909650505050505050a4611d00338a8a8a8a8080602002602001604051908101604052809392919081815260200183836020028082843760009201919091525050604080516020808e0282810182019093528d82529093508d92508c91829185019084908082843760009201919091525050604080516020601f8d018190048102820181019092528b815292508b91508a9081908401838280828437600092019190915250613f7492505050565b600034118015611d105750600081115b15611dab57604051600090339083908381818185875af1925050503d8060008114611d57576040519150601f19603f3d011682016040523d82523d6000602084013e611d5c565b606091505b5050905080611da5576040805162461bcd60e51b815260206004820152601060248201526f2a3930b739b332b9103330b4b632b21760811b604482015290519081900360640190fd5b50611dcc565b34611dcc576001600160a01b0389166000908152600b602052604090208190555b505050505050505050565b611ddf61416d565b611e1e576040805162461bcd60e51b81526020600482018190526024820152600080516020615308833981519152604482015290519081900360640190fd5b6001600160a01b03166000908152601060205260409020805460ff19166001179055565b60608151835114611e845760405162461bcd60e51b81526004018080602001828103825260308152602001806151c16030913960400191505060405180910390fd5b6060835167ffffffffffffffff81118015611e9e57600080fd5b50604051908082528060200260200182016040528015611ec8578160200160208202803683370190505b50905060005b8451811015611fb85760006001600160a01b0316858281518110611eee57fe5b60200260200101516001600160a01b03161415611f3c5760405162461bcd60e51b815260040180806020018281038252603481526020018061524f6034913960400191505060405180910390fd5b60026000858381518110611f4c57fe5b602002602001015181526020019081526020016000206000868381518110611f7057fe5b60200260200101516001600160a01b03166001600160a01b0316815260200190815260200160002054828281518110611fa557fe5b6020908102919091010152600101611ece565b509392505050565b6000611fcc83836137c0565b9392505050565b81611fde81336137c0565b6120195760405162461bcd60e51b815260040180806020018281038252602c8152602001806154da602c913960400191505060405180910390fd5b612023838361417e565b505050565b600c602052816000526040600020818154811061204157fe5b90600052602060002001600091509150505481565b61205e61416d565b61209d576040805162461bcd60e51b81526020600482018190526024820152600080516020615308833981519152604482015290519081900360640190fd5b6001600160a01b03166000908152601360205260409020805460ff19166001179055565b6120ca33613c7b565b6121055760405162461bcd60e51b815260040180806020018281038252602681526020018061535d6026913960400191505060405180910390fd5b6000838152601660205260409020600101546121525760405162461bcd60e51b815260040180806020018281038252602181526020018061510d6021913960400191505060405180910390fd5b80518251146121a8576040805162461bcd60e51b815260206004820152601c60248201527f5374617368426c6f783a20496e76616c696420617267756d656e747300000000604482015290519081900360640190fd5b60005b8251811015611609576000848152601660205260409020548351612333916001600160a01b0316908590849081106121df57fe5b6020026020010151601660008881526020019081526020016000206001015485858151811061220a57fe5b60209081029190910181015160008a8152601690925260409182902082516060810193849052919260029091019060039082845b81548152602001906001019080831161223e5750505060008c815260166020908152604091829020600501805483518184028101840190945280845292945092508301828280156122b857602002820191906000526020600020905b81546001600160a01b0316815260019091019060200180831161229a575b50505060008d8152601660209081526040918290206006018054835181840281018401909452808452929450925083018282801561231557602002820191906000526020600020905b815481526020019060010190808311612301575b50505060008e8152601660205260409020600701549150613ca59050565b60008481526016602052604081205484516001600160a01b039091169190339060008051602061509c8339815191529087908690811061236f57fe5b6020026020010151601660008a815260200190815260200160002060010154604051808381526020018281526020019250505060405180910390a46001016121ab565b806123bd81336137c0565b6123f85760405162461bcd60e51b815260040180806020018281038252602c8152602001806154da602c913960400191505060405180910390fd5b506000908152600f60205260409020805460ff19166001179055565b61241c61416d565b61245b576040805162461bcd60e51b81526020600482018190526024820152600080516020615308833981519152604482015290519081900360640190fd5b600681905560408051828152905133917f5c5a35dc0829d2f6a31d1d6da57c4315ba7b562ee447c87b75c732cfd96abde9919081900360200190a250565b6124a161416d565b6124e0576040805162461bcd60e51b81526020600482018190526024820152600080516020615308833981519152604482015290519081900360640190fd5b6001600160a01b03166000908152601360205260409020805460ff19169055565b61250961416d565b612548576040805162461bcd60e51b81526020600482018190526024820152600080516020615308833981519152604482015290519081900360640190fd5b60009182526014602090815260408084206001600160a01b0390931684529190529020805460ff19166001179055565b6000546001600160a01b031690565b61258f614f23565b60008281526012602090815260409182902082516101a0810184528154815260018201546001600160a01b0316818401526002820180548551818602810186018752818152929593949386019383018282801561261557602002820191906000526020600020905b81546001600160a01b031681526001909101906020018083116125f7575b50505091835250506003820154602082015260048201546040820152600582015460ff808216151560608401526101008083048216151560808501526201000083048216151560a0850152630100000083048216151560c0850152600160201b9092048116151560e084015260068401549183019190915260078301541615156101208201526008909101546101409091015280519091506126e85760405162461bcd60e51b815260040180806020018281038252602a815260200180615383602a913960400191505060405180910390fd5b6101008101511561272a5760405162461bcd60e51b81526004018080602001828103825260248152602001806154886024913960400191505060405180910390fd5b6101208101511561276c5760405162461bcd60e51b81526004018080602001828103825260258152602001806153ad6025913960400191505060405180910390fd5b805161277890336137c0565b6127b35760405162461bcd60e51b81526004018080602001828103825260238152602001806155376023913960400191505060405180910390fd5b6000828152601260209081526040808320600501805463ff000000191663010000001790556080840151848301516001600160a01b03168452600b90925280832080549092019091555183917f47005b77581b619f0e0c69fef1491098a030bbb33305b3e9ac0c4c44ab94358c91a25050565b6012602052600090815260409020805460018201546003830154600484015460058501546006860154600787015460089097015495966001600160a01b03909516959394929360ff80841694610100850482169462010000810483169463010000008204841694600160201b909204841693909216908c565b6128a761416d565b6128e6576040805162461bcd60e51b81526020600482018190526024820152600080516020615308833981519152604482015290519081900360640190fd5b80516128f9906017906020840190614ebe565b5050565b336001600160a01b03831614156129455760405162461bcd60e51b815260040180806020018281038252602c815260200180615195602c913960400191505060405180910390fd5b336000818152601a602090815260408083206001600160a01b03871680855290835292819020805460ff1916861515908117909155815190815290519293927f17307eab39ab6107e8899845ad3d59bd9653f200f220920489ca2b5937696c31929181900390910190a35050565b816129be81336137c0565b6129f95760405162461bcd60e51b815260040180806020018281038252602c8152602001806154da602c913960400191505060405180910390fd5b61202383836141bd565b612a0b61416d565b612a4a576040805162461bcd60e51b81526020600482018190526024820152600080516020615308833981519152604482015290519081900360640190fd5b6001600160a01b03166000908152601060205260409020805460ff19169055565b600061156b8261428b565b600061156b82613c7b565b612a89614f23565b60008281526012602090815260409182902082516101a0810184528154815260018201546001600160a01b03168184015260028201805485518186028101860187528181529295939493860193830182828015612b0f57602002820191906000526020600020905b81546001600160a01b03168152600190910190602001808311612af1575b50505091835250506003820154602082015260048201546040820152600582015460ff808216151560608401526101008083048216151560808501526201000083048216151560a0850152630100000083048216151560c0850152600160201b9092048116151560e08401526006840154918301919091526007830154161515610120820152600890910154610140909101528051909150612be25760405162461bcd60e51b815260040180806020018281038252602a815260200180615383602a913960400191505060405180910390fd5b61010081015115612c245760405162461bcd60e51b81526004018080602001828103825260248152602001806154886024913960400191505060405180910390fd5b61012081015115612c665760405162461bcd60e51b81526004018080602001828103825260258152602001806153ad6025913960400191505060405180910390fd5b612c7d816000015182606001518360400151613b23565b81608001511015612cbf5760405162461bcd60e51b815260040180806020018281038252603f815260200180615156603f913960400191505060405180910390fd5b8051612ccb90336137c0565b15612cf3576000828152601260205260409020600501805461ff001916610100179055612d60565b8051612cff90336142a0565b15612d29576000828152601260205260409020600501805462ff0000191662010000179055612d60565b60405162461bcd60e51b81526004018080602001828103825260238152602001806155376023913960400191505060405180910390fd5b8060c001518015612d7e57508060a001511580612d7e57508060e001515b6000838152601260205260409020600501805464ff000000001916600160201b9215158302179081905560ff91900416156128f95760405182907f2092737b5a79cde419e39021e85a1fee2c21072bab56e45dc54c8ee108c9e19890600090a260408101515115612dfd57612df8828260400151516142c1565b6128f9565b60195481516000908152600d602052604090205411612e325780516000908152600d6020526040902054612df89083906142c1565b80516000908152600f60205260409020805460ff191660011790555050565b600061156b82614553565b612e6533613c7b565b612ea05760405162461bcd60e51b815260040180806020018281038252602681526020018061535d6026913960400191505060405180910390fd5b6040805160c0810182526001600160a01b0388811682526020808301898152838501898152606085018990526080850188905260a0850187905260008d8152601690935294909120835181546001600160a01b03191693169290921782555160018201559151909190612f199060028301906003614fa0565b5060608201518051612f35916005840191602090910190614ebe565b5060808201518051612f51916006840191602090910190614fda565b5060a0820151816007015590505050505050505050565b6000612f75848484614571565b949350505050565b612f8561416d565b612fc4576040805162461bcd60e51b81526020600482018190526024820152600080516020615308833981519152604482015290519081900360640190fd5b60009182526014602090815260408084206001600160a01b0390931684529190529020805460ff19169055565b600b6020526000908152604090205481565b6040518060400160405280601d81526020017f68747470733a2f2f7374617368626c6f782e636f6d2f746f6b656e732f00000081525081565b8061304781336137c0565b6130825760405162461bcd60e51b815260040180806020018281038252602c8152602001806154da602c913960400191505060405180910390fd5b506000908152600f60205260409020805460ff19169055565b60006130a78383614770565b80611fcc5750506001600160a01b039182166000908152601a6020908152604080832093909416825291909152205460ff1690565b600460209081526000928352604080842090915290825290205481565b8161310481336137c0565b61313f5760405162461bcd60e51b815260040180806020018281038252602c8152602001806154da602c913960400191505060405180910390fd5b6120238383614840565b6001600160a01b03851661318e5760405162461bcd60e51b815260040180806020018281038252602881526020018061512e6028913960400191505060405180910390fd5b6001600160a01b0386163314806131b057506131aa863361309b565b15156001145b6131eb5760405162461bcd60e51b81526004018080602001828103825260378152602001806154516037913960400191505060405180910390fd5b6000803411613212576001600160a01b0387166000908152600b6020526040902054613214565b345b90506132238787878785613db1565b81039050856001600160a01b0316876001600160a01b0316336001600160a01b031660008051602061509c8339815191528888604051808381526020018281526020019250505060405180910390a46132b6338888888888888080601f01602080910402602001604051908101604052809392919081815260200183838082843760009201919091525061489292505050565b6000341180156132c65750600081115b1561336157604051600090339083908381818185875af1925050503d806000811461330d576040519150601f19603f3d011682016040523d82523d6000602084013e613312565b606091505b505090508061335b576040805162461bcd60e51b815260206004820152601060248201526f2a3930b739b332b9103330b4b632b21760811b604482015290519081900360640190fd5b50613382565b34613382576001600160a01b0387166000908152600b602052604090208190555b50505050505050565b61339361416d565b6133d2576040805162461bcd60e51b81526020600482018190526024820152600080516020615308833981519152604482015290519081900360640190fd5b6133db81614a07565b50565b6001600160a01b03166000908152600b60205260409020805434019055565b61340561416d565b613444576040805162461bcd60e51b81526020600482018190526024820152600080516020615308833981519152604482015290519081900360640190fd5b6001600160a01b0382166000908152600b60205260409020548111156134b1576040805162461bcd60e51b815260206004820181905260248201527f5374617368426c6f783a20496e73756666696369656e742062616c616e63652e604482015290519081900360640190fd5b6040516000906001600160a01b0384169083908381818185875af1925050503d80600081146134fc576040519150601f19603f3d011682016040523d82523d6000602084013e613501565b606091505b5050905080613557576040805162461bcd60e51b815260206004820152601d60248201527f5374617368426c6f783a205769746864726177616c206661696c65642e000000604482015290519081900360640190fd5b506001600160a01b039091166000908152600b602052604090208054919091039055565b600260209081526000928352604080842090915290825290205481565b6135a0614f23565b60008381526012602090815260409182902082516101a0810184528154815260018201546001600160a01b0316818401526002820180548551818602810186018752818152929593949386019383018282801561362657602002820191906000526020600020905b81546001600160a01b03168152600190910190602001808311613608575b50505091835250506003820154602082015260048201546040820152600582015460ff808216151560608401526101008083048216151560808501526201000083048216151560a0850152630100000083048216151560c0850152600160201b9092048116151560e084015260068401549183019190915260078301541615156101208201526008909101546101409091015280519091506136f95760405162461bcd60e51b815260040180806020018281038252602a815260200180615383602a913960400191505060405180910390fd5b610120810151151560011461373f5760405162461bcd60e51b815260040180806020018281038252602181526020018061555a6021913960400191505060405180910390fd5b610160810151156137815760405162461bcd60e51b81526004018080602001828103825260268152602001806150766026913960400191505060405180910390fd5b61378b83836142c1565b60008381526012602052604090206007015460ff161561202357516000908152600f60205260409020805460ff191690555050565b60008281526014602090815260408083206001600160a01b038516845290915281205460ff1680611fcc5750611fcc61416d565b60008251118015613806575080518251145b613857576040805162461bcd60e51b815260206004820152601c60248201527f5374617368426c6f783a20496e76616c696420617267756d656e747300000000604482015290519081900360640190fd5b6000805b82518110156138d65782818151811061387057fe5b602002602001015182019150600083828151811061388a57fe5b6020026020010151116138ce5760405162461bcd60e51b815260040180806020018281038252603c8152602001806153d2603c913960400191505060405180910390fd5b60010161385b565b5080612710146139175760405162461bcd60e51b815260040180806020018281038252604381526020018061540e6043913960600191505060405180910390fd5b6000848152600960209081526040909120845161393692860190614ebe565b506000848152600a60209081526040909120835161395692850190614fda565b5050505050565b60606000825b8015613979576001919091019060109004613963565b60608267ffffffffffffffff8111801561399257600080fd5b506040519080825280601f01601f1916602001820160405280156139bd576020820181803683370190505b50905060005b83811015613a10576010860692506139da83614aa7565b82600183870303815181106139eb57fe5b60200101906001600160f81b031916908160001a9053506010860495506001016139c3565b50949350505050565b805182516060918491849184910167ffffffffffffffff81118015613a3d57600080fd5b506040519080825280601f01601f191660200182016040528015613a68576020820181803683370190505b509050806000805b8551811015613ac157858181518110613a8557fe5b602001015160f81c60f81b838380600101945081518110613aa257fe5b60200101906001600160f81b031916908160001a905350600101613a70565b5060005b8451811015613b1657848181518110613ada57fe5b602001015160f81c60f81b838380600101945081518110613af757fe5b60200101906001600160f81b031916908160001a905350600101613ac5565b5090979650505050505050565b80516000908190613b64576000858152600260209081526040808320338452825280832054888452600390925290912054613b5d91614aeb565b9050613bcd565b60005b8351811015613bcb57600260008781526020019081526020016000206000858381518110613b9157fe5b60200260200101516001600160a01b03166001600160a01b0316815260200190815260200160002054820191508080600101915050613b67565b505b613bd78185613be0565b95945050505050565b600082613bef5750600061156b565b82820282848281613bfc57fe5b0414611fcc5760405162461bcd60e51b81526004018080602001828103825260218152602001806152e76021913960400191505060405180910390fd5b6000611fcc83836040518060400160405280601a81526020017f536166654d6174683a206469766973696f6e206279207a65726f000000000000815250614b2d565b6001600160a01b03811660009081526013602052604081205460ff168061156b575061156b61416d565b60008781526003602052604090205415613d06576040805162461bcd60e51b815260206004820181905260248201527f5374617368426c6f783a20546f6b656e20494420616c72656164792075736564604482015290519081900360640190fd5b60008611613d455760405162461bcd60e51b81526004018080602001828103825260288152602001806152276028913960400191505060405180910390fd5b6000878152600360209081526040808320899055601482528083203384529091529020805460ff19166001179055613d7e888888614bcf565b613d88878661417e565b613d9287856141bd565b613d9d8784846137f4565b613da78782614840565b5050505050505050565b6000613dbf86868686614d9b565b15613dfa576040805162461bcd60e51b8152602060048201526006602482015265131bd8dad95960d21b604482015290519081900360640190fd5b613e05868585614571565b905080821015613e465760405162461bcd60e51b815260040180806020018281038252602b81526020018061557b602b913960400191505060405180910390fd5b613e8d836040518060600160405280602a8152602001615283602a913960008781526002602090815260408083206001600160a01b038d1684529091529020549190614dd3565b60008581526002602090815260408083206001600160a01b038b168452909152902055613ebb858585614bcf565b60005b600085815260096020526040902054811015613f6a576000858152600960205260408120805483908110613eee57fe5b6000918252602080832090910154888352600a9091526040822080546001600160a01b0390921693509084908110613f2257fe5b6000918252602090912001549050613f406127106117b98684613be0565b6001600160a01b039092166000908152600b60205260409020805490920190915550600101613ebe565b5095945050505050565b613f86846001600160a01b0316614e2d565b156141655763bc197c8160e01b6001600160e01b031916846001600160a01b031663bc197c8188888787876040518663ffffffff1660e01b815260040180866001600160a01b03168152602001856001600160a01b03168152602001806020018060200180602001848103845287818151815260200191508051906020019060200280838360005b8381101561402657818101518382015260200161400e565b50505050905001848103835286818151815260200191508051906020019060200280838360005b8381101561406557818101518382015260200161404d565b50505050905001848103825285818151815260200191508051906020019080838360005b838110156140a1578181015183820152602001614089565b50505050905090810190601f1680156140ce5780820380516001836020036101000a031916815260200191505b5098505050505050505050602060405180830381600087803b1580156140f357600080fd5b505af1158015614107573d6000803e3d6000fd5b505050506040513d602081101561411d57600080fd5b50516001600160e01b031916146141655760405162461bcd60e51b81526004018080602001828103825260368152602001806151f16036913960400191505060405180910390fd5b505050505050565b6000546001600160a01b0316331490565b60008281526001602052604080822083905551829184917f9cd9c60390fc75c213fd8d644749f61388dd30ed6c6eb4647b793b5b580fb4309190a35050565b8051600083815260076020908152604080832093909355808401516008825283832055600581528282208351808501855242815293850151848301528054600181018255908352912061421892600292830290910191615014565b50336001600160a01b03167f53a447d9bcfcd7fc8a34304419ad6cb15ca6ad600f5d6fe90928bf9d808c7e0883836040518083815260200182600360200280838360005b8381101561427457818101518382015260200161425c565b505050509050019250505060405180910390a25050565b6000908152600f602052604090205460ff1690565b600091825260186020526040909120546001600160a01b0391821691161490565b600082815260126020526040902080546002909101546060906142f1576000828152600d60205260409020614303565b60008481526012602052604090206002015b80548060200260200160405190810160405280929190818152602001828054801561435757602002820191906000526020600020905b81546001600160a01b03168152600190910190602001808311614339575b50508351600089815260126020526040812060060154959650600019909101949350915050858201831161438b578261438f565b8582015b90506000825b8281116144c35760008682815181106143aa57fe5b60209081029190910181015160008a81526002835260408082206001600160a01b03841683529093529190912054909150156144ba5760008881526002602090815260408083206001600160a01b038516808552818452828520548f8652601285529285206003015494529091529384019361442591613be0565b6001600160a01b038083166000818152600b6020908152604080832080549096019095558e825260128152848220600101548d8352600282528583208484528252918590205485518e815291820152845191909316939192339260008051602061509c83398151915292918290030190a460008881526002602090815260408083206001600160a01b03851684529091528120555b50600101614395565b506000888152601260205260409020600101546144ea906001600160a01b03168783614bcf565b600088815260126020526040902060060182905583821415613da757600088815260126020526040808220600701805460ff191660011790555189917f05f5a704db4251bb2db282a1d2b51d521774f70c0e618c2b44661c0b015a8af991a25050505050505050565b6001600160a01b031660009081526010602052604090205460ff1690565b60006001600160a01b0384166145b85760405162461bcd60e51b815260040180806020018281038252602b8152602001806150bc602b913960400191505060405180910390fd5b6000838152600560205260408120544290600019015b60008681526005602052604081208054839081106145e857fe5b60009182526020822060029091020101549050600061464b6305f5e1006117b9600654600560008d8152602001908152602001600020878154811061462957fe5b906000526020600020906002020160016002811061464357fe5b015490613be0565b60008981526004602090815260408083206001600160a01b038e1684529091528120549192509083116146da5760008981526004602090815260408083206001600160a01b038e1684529091529020546146af9062015180906117b9908890614aeb565b9050806146ba575060015b6146ce886146c88385613be0565b90613be0565b86019550505050614719565b6146eb620151806117b98786614aeb565b9050806146f6575060015b9193508391614709886146c88385613be0565b90950194505050600019016145ce565b5060008581526008602052604081205461473e906305f5e100906117b9908890613be0565b6000878152600760205260409020549091506147659061475e9083614e64565b8490614e64565b979650505050505050565b6000805b6017548110156148365760006017828154811061478d57fe5b600091825260209182902001546040805163c455279160e01b81526001600160a01b0389811660048301529151928216945090871692849263c4552791926024808201939291829003018186803b1580156147e757600080fd5b505afa1580156147fb573d6000803e3d6000fd5b505050506040513d602081101561481157600080fd5b50516001600160a01b0316141561482d5760019250505061156b565b50600101614774565b5060009392505050565b61271081106148805760405162461bcd60e51b815260040180806020018281038252603a8152602001806152ad603a913960400191505060405180910390fd5b60009182526015602052604090912055565b6148a4846001600160a01b0316614e2d565b156141655763f23a6e6160e01b6001600160e01b031916846001600160a01b031663f23a6e6188888787876040518663ffffffff1660e01b815260040180866001600160a01b03168152602001856001600160a01b0316815260200184815260200183815260200180602001828103825283818151815260200191508051906020019080838360005b8381101561494557818101518382015260200161492d565b50505050905090810190601f1680156149725780820380516001836020036101000a031916815260200191505b509650505050505050602060405180830381600087803b15801561499557600080fd5b505af11580156149a9573d6000803e3d6000fd5b505050506040513d60208110156149bf57600080fd5b50516001600160e01b031916146141655760405162461bcd60e51b81526004018080602001828103825260318152602001806155066031913960400191505060405180910390fd5b6001600160a01b038116614a4c5760405162461bcd60e51b81526004018080602001828103825260268152602001806150e76026913960400191505060405180910390fd5b600080546040516001600160a01b03808516939216917f8be0079c531659141344cd1fd0a4f28419497f9722a3daafe3b4186f6b6457e091a3600080546001600160a01b0319166001600160a01b0392909216919091179055565b600060098260ff1611614ac157506030810160f81b6115b3565b8160ff16600a11158015614ad95750600f8260ff1611155b1561029c57506057810160f81b6115b3565b6000611fcc83836040518060400160405280601e81526020017f536166654d6174683a207375627472616374696f6e206f766572666c6f770000815250614dd3565b60008183614bb95760405162461bcd60e51b81526004018080602001828103825283818151815260200191508051906020019080838360005b83811015614b7e578181015183820152602001614b66565b50505050905090810190601f168015614bab5780820380516001836020036101000a031916815260200191505b509250505060405180910390fd5b506000838581614bc557fe5b0495945050505050565b60008281526002602090815260408083206001600160a01b0387168452909152812054614bfc9083614e64565b60008481526002602090815260408083206001600160a01b0389168452909152902054909150614cde576000838152600e602090815260408083206001600160a01b038816845290915290205460ff16614cb4576001600160a01b0384166000818152600c6020908152604080832080546001818101835591855283852001889055878452600d83528184208054918201815584528284200180546001600160a01b03191685179055868352600e8252822092909152525b60008381526004602090815260408083206001600160a01b03881684529091529020429055614d6f565b60008381526004602090815260408083206001600160a01b0388168452909152812054614d0c904290614aeb565b60008581526002602090815260408083206001600160a01b038a16845290915281205491925090614d439084906117b99085613be0565b60008681526004602090815260408083206001600160a01b038b16845290915290204291909103905550505b60009283526002602090815260408085206001600160a01b039096168552949052929091209190915550565b6000614da68361428b565b80614db55750614db585614553565b80614dc45750614dc484614553565b80613bd7575050159392505050565b60008184841115614e255760405162461bcd60e51b8152602060048201818152835160248401528351909283926044909101919085019080838360008315614b7e578181015183820152602001614b66565b505050900390565b6000813f7fc5d2460186f7233c927e7db2dcc703c0e500b653ca82273b7bfad8045d85a4708115801590612f755750141592915050565b600082820183811015611fcc576040805162461bcd60e51b815260206004820152601b60248201527f536166654d6174683a206164646974696f6e206f766572666c6f770000000000604482015290519081900360640190fd5b828054828255906000526020600020908101928215614f13579160200282015b82811115614f1357825182546001600160a01b0319166001600160a01b03909116178255602090920191600190910190614ede565b50614f1f929150615041565b5090565b604051806101a001604052806000815260200160006001600160a01b0316815260200160608152602001600081526020016000815260200160001515815260200160001515815260200160001515815260200160001515815260200160001515815260200160008152602001600015158152602001600081525090565b8260038101928215614fce579160200282015b82811115614fce578251825591602001919060010190614fb3565b50614f1f929150615060565b828054828255906000526020600020908101928215614fce5791602002820182811115614fce578251825591602001919060010190614fb3565b8260028101928215614fce5791602002820182811115614fce578251825591602001919060010190614fb3565b5b80821115614f1f5780546001600160a01b0319168155600101615042565b5b80821115614f1f576000815560010161506156fe5374617368426c6f783a2063616c6c6261636b20616c726561647920636f6d706c657465642ec3d58168c5ae7397731d063d5bbf3d657854427343f4c083240f7aacaa2d0f62455243313135353a2062616c616e636520717565727920666f7220746865207a65726f20616464726573734f776e61626c653a206e6577206f776e657220697320746865207a65726f20616464726573735374617368426c6f783a20556e6b6e6f776e20746f6b656e2074656d706c617465455243313135353a207461726765742061646472657373206d757374206265206e6f6e2d7a65726f5374617368426c6f783a20696e73756666696369656e7420657363726f77656420616d6f756e7420666f72207468652070726f706f7365642070726963652e455243313135353a2063616e6e6f742073657420617070726f76616c2073746174757320666f722073656c66455243313135353a206163636f756e747320616e6420494473206d75737420686176652073616d65206c656e67746873455243313135353a20676f7420756e6b6e6f776e2076616c75652066726f6d206f6e45524331313535426174636852656365697665645374617368426c6f783a20537570706c79206d7573742062652067726561746572207468616e2030455243313135353a20736f6d65206164647265737320696e2062617463682062616c616e6365207175657279206973207a65726f455243313135353a20696e73756666696369656e742062616c616e636520666f72207472616e736665725374617368426c6f783a206d696e696d756d20686f6c64696e67206d757374206265206c6f776572207468616e20313030303020283130302529536166654d6174683a206d756c7469706c69636174696f6e206f766572666c6f774f776e61626c653a2063616c6c6572206973206e6f7420746865206f776e65725374617368426c6f783a20696e73756666696369656e742076616c756520666f72207468652070726f706f7365642070726963652e5b5374617368426c6f785d3a2063616c6c6572206973206e6f74206120746f6b656e697a65725374617368426c6f783a2063616c6c6261636b2070726f706f736974696f6e206e6f7420666f756e642e5374617368426c6f783a2063616c6c6261636b20616c72656164792061636365707465642e5374617368426c6f783a2066656573526563697069656e747350657263656e746167652073686f756c642062652067726561746572207468616e20305374617368426c6f783a20546f74616c206f662066656573526563697069656e747350657263656e74616765206d75737420626520657175616c20746f203130303030455243313135353a206e656564206f70657261746f7220617070726f76616c20666f7220337264207061727479207472616e73666572735374617368426c6f783a2063616c6c6261636b20616c726561647920726566757365642e455243313135353a2049447320616e642076616c756573206d75737420686176652073616d65206c656e677468735b5374617368426c6f785d3a2063616c6c6572206973206e6f74206120746f6b656e206d61696e74656e6572455243313135353a20676f7420756e6b6e6f776e2076616c75652066726f6d206f6e4552433131353552656365697665645374617368426c6f783a20696e73756666696369656e74207065726d697373696f6e2e5374617368426c6f783a2063616c6c6261636b206e6f742061636365707465642e455243313135353a20696e73756666696369656e742045544820666f72207472616e736665722066656573a264697066735822122041b687ae00f57d8f587e68cb04bd47aeef4644045057298ace85644a2020788f64736f6c634300070100334f776e61626c653a206e6577206f776e657220697320746865207a65726f2061646472657373",
  "immutableReferences": {},
  "source": "// SPDX-License-Identifier: GPL-3.0-or-later\n\npragma solidity ^0.7.1;\n\nimport './lib/ERC1155/ERC1155.sol';\nimport \"./lib/utils/SafeMath.sol\";\n\ncontract StashBlox is ERC1155 {\n\n    using SafeMath for uint256;\n\n\n    /***************************************\n    TOKENIZERS\n    ****************************************/\n\n\n    /**\n     * @dev Function to authorize an address to create a token.\n     * @param tokenizer The authorized address\n     */\n    function authorizeTokenizer(address tokenizer) external onlyOwner {\n        _authorizedTokenizers[tokenizer] = true;\n    }\n\n    /**\n     * @dev Function to revoke the authorization to create a token.\n     * @param tokenizer The authorized address\n     */\n    function revokeTokenizer(address tokenizer) external onlyOwner {\n        _authorizedTokenizers[tokenizer] = false;\n    }\n\n    /**\n     * @dev Function to check if an address is authorized to create a token.\n     * @param tokenizer The authorized address\n     */\n    function isTokenizer(address tokenizer) external view returns (bool) {\n        return _isTokenizer(tokenizer);\n    }\n\n\n    /***************************************\n    MAINTENERS\n    ****************************************/\n\n\n    /**\n     * @dev Function to authorize an address to maintain a token.\n     * @param maintener The authorized address\n     */\n    function authorizeMaintener(uint256 id, address maintener) external onlyOwner {\n        _tokenMainteners[id][maintener] = true;\n    }\n\n    /**\n     * @dev Function to revoke the authorization to maintain a token.\n     * @param maintener The authorized address\n     */\n    function revokeMaintener(uint256 id, address maintener) external onlyOwner {\n        _tokenMainteners[id][maintener] = false;\n    }\n\n    /**\n     * @dev Function to check if an address is authorized to maintain a token.\n     * @param maintener The authorized address\n     */\n    function isMaintener(uint256 id, address maintener) external view returns (bool) {\n        return _isMaintener(id, maintener);\n    }\n\n\n    /***************************************\n    LOCKS\n    ****************************************/\n\n\n    /**\n     * @dev Function to lock a token.\n     * @param id The token ID\n     */\n    function lockToken(uint256 id) external onlyMaintener(id) {\n        _tokenLocks[id] = true;\n    }\n\n    /**\n     * @dev Function to unlock a token.\n     * @param id The token ID\n     */\n    function unlockToken(uint256 id) external onlyMaintener(id) {\n        _tokenLocks[id] = false;\n    }\n\n    /**\n     * @dev Function to check if a token is locked.\n     * @param id The token ID\n     */\n    function isLockedToken(uint256 id) external view returns (bool){\n        return _isLockedToken(id);\n    }\n\n    /**\n     * @dev Function to lock an address.\n     * @param addr The address to lock\n     */\n    function lockAddress(address addr) external onlyOwner {\n        _addressLocks[addr] = true;\n    }\n\n    /**\n     * @dev Function to unlock an address.\n     * @param addr The address to unlock\n     */\n    function unlockAddress(address addr) external onlyOwner {\n        _addressLocks[addr] = false;\n    }\n\n    /**\n     * @dev Function to check if an address is lockec.\n     * @param addr The address to check\n     */\n    function isLockedAddress(address addr) external view returns (bool){\n        return _isLockedAddress(addr);\n    }\n\n\n    /***************************************\n    TOKEN CREATION AND MAINTENANCE\n    ****************************************/\n\n\n    /**\n     * @dev Function to mint an amount of a token with the given ID.\n     * @param recipient The address that will own the minted tokens\n     * @param id ID of the token to be minted\n     * @param supply Amount of the token to be minted\n     * @param metadataHash Metadata file hash\n     * @param transactionFees transaction fees: [lumpSumFees (in WEI), valueProportionalFees (ratio of transfered amount * 10**8), storageFees (in storageCredit * 10**8)]\n     * @param feesRecipients list of addresses receiving transfer fees\n     * @param feesRecipientsPercentage list of percentage, each one for the corresponding feesRecipients\n     * @param minHoldingForCallback minimum holding to propose a callback\n     */\n    function createToken(address recipient,\n                         uint256 id,\n                         uint256 supply,\n                         uint256 metadataHash,\n                         uint256[3] memory transactionFees,\n                         address[] memory feesRecipients,\n                         uint256[] memory feesRecipientsPercentage,\n                         uint256 minHoldingForCallback)\n    external onlyTokenizer {\n        _createToken(recipient,\n                     id,\n                     supply,\n                     metadataHash,\n                     transactionFees,\n                     feesRecipients,\n                     feesRecipientsPercentage,\n                     minHoldingForCallback);\n        emit TransferSingle(msg.sender, address(0), recipient, id, supply);\n    }\n\n    /**\n     * @dev Function to mint tokens.\n     * @param templateID Identifier of the template\n     * @param ids list of IDs of the tokens to be minted\n     * @param metadataHashes list of metadata file hashes\n     */\n    function createTokens(uint256 templateID,\n                          uint256[] memory ids,\n                          uint256[] memory metadataHashes)\n    external onlyTokenizer {\n        require(_tokenTemplates[templateID].supply > 0, \"StashBlox: Unknown token template\");\n        require(ids.length == metadataHashes.length, \"StashBlox: Invalid arguments\");\n\n        for (uint256 i = 0; i < ids.length; ++i) {\n            _createToken(_tokenTemplates[templateID].recipient,\n                         ids[i],\n                         _tokenTemplates[templateID].supply,\n                         metadataHashes[i],\n                         _tokenTemplates[templateID].transactionFees,\n                         _tokenTemplates[templateID].feesRecipients,\n                         _tokenTemplates[templateID].feesRecipientsPercentage,\n                         _tokenTemplates[templateID].minHoldingForCallback);\n            emit TransferSingle(msg.sender, address(0),\n                                _tokenTemplates[templateID].recipient, ids[i],\n                                _tokenTemplates[templateID].supply);\n        }\n    }\n\n    /**\n     * @dev Function to create or update a token template for batch creation.\n     * @param templateID Identifier of the template\n     * @param recipient The address that will own the minted tokens\n     * @param supply Amount of the token to be minted\n     * @param transactionFees transaction fees\n     * @param feesRecipients list of addresses receiving transfer fees\n     * @param feesRecipientsPercentage list of percentage, each one for the corresponding feesRecipients\n     * @param minHoldingForCallback minimum holding to propose a callback\n     */\n    function setTokenTemplate(uint256 templateID,\n                              address recipient,\n                              uint256 supply,\n                              uint256[3] memory transactionFees,\n                              address[] memory feesRecipients,\n                              uint256[] memory feesRecipientsPercentage,\n                              uint256 minHoldingForCallback)\n    external onlyTokenizer {\n        _tokenTemplates[templateID] = TokenTemplate({\n            recipient: recipient,\n            supply: supply,\n            transactionFees: transactionFees,\n            feesRecipients: feesRecipients,\n            feesRecipientsPercentage: feesRecipientsPercentage,\n            minHoldingForCallback: minHoldingForCallback\n        });\n    }\n\n    /**\n     * @dev Function to update the metadata hash of a token.\n     * @param id The token ID\n     * @param metadataHash The new metadata hash\n     */\n    function updateMetadataHash(uint256 id, uint256 metadataHash) external onlyMaintener(id) {\n      _setMetadataHash(id, metadataHash);\n    }\n\n    /**\n     * @dev Function to update transaction fees.\n     * @param id The token ID\n     * @param newFees The new transaction fees: [lumpSumFees (in WEI), valueProportionalFees (ratio of transfered amount * 10**8), storageFees (in storageCredit * 10**8)]\n     */\n    function updateTransactionFees(uint256 id, uint256[3] memory newFees) external onlyMaintener(id) {\n        _setTransactionFees(id, newFees);\n    }\n\n    /**\n     * @dev Function to update the minimum holding to propose a callback.\n     * @param id The token ID\n     * @param newFeesRecipients list of addresses receiving transfer fees\n     * @param newFeesRecipientsPercentage list of percentage, each one for the corresponding feesRecipients\n     */\n    function updateFeesRecipients(uint256 id,\n                                  address[] memory newFeesRecipients,\n                                  uint256[] memory newFeesRecipientsPercentage)\n    external onlyMaintener(id) {\n      _setFeesRecipients(id, newFeesRecipients, newFeesRecipientsPercentage);\n    }\n\n    /**\n     * @dev Function to update the minimum holding to propose a callback.\n     * @param id The token ID\n     * @param newMinHoldingForCallback The new minimum holding\n     */\n    function updateMinHoldingForCallback(uint256 id, uint256 newMinHoldingForCallback) external onlyMaintener(id) {\n        _setMinHoldingForCallback(id, newMinHoldingForCallback);\n    }\n\n\n    /***************************************\n    TRANSFER PRICE\n    ****************************************/\n\n\n    /**\n     * @dev Function to update the price of one \"storage credit\".\n     * @param newPrice The new price\n     */\n    function updateStorageCreditPrice(uint256 newPrice) external onlyOwner {\n        storageCreditPrice = newPrice;\n        emit UpdateStorageCreditPrice(msg.sender, newPrice);\n    }\n\n    /**\n     * @dev Function to get the transaction price to transfer tokens.\n     * @param account the address from where to transfer the tokens\n     * @param id The token ID\n     * @param value The amount to transfer\n     */\n    function transactionFees(address account, uint256 id, uint256 value) public view returns (uint256) {\n        return _transactionFees(account, id, value);\n    }\n\n\n    /***************************************\n    CALLBACKS\n    ****************************************/\n\n    /**\n     * @dev Propose to buy the whole supply of a token.\n     * The proposer must hold minHoldingForCallback% of the total supply.\n     * StashBlox must approve the price with acceptCallback();\n     * @param tokenId Token ID\n     * @param price proposed price\n     * @param callees list of calless. Empty list means all holders.\n     */\n    function proposeCallback(uint256 tokenId, uint256 price, address[] memory callees, uint256 documentHash) external payable returns (uint256) {\n        require(_supplies[tokenId] > 0, \"StashBlox: Unknown token.\");\n        require(msg.value >= _callbackPrice(tokenId, price, callees), \"StashBlox: insufficient value for the proposed price.\");\n        require(callees.length <= _maxPartialCallbackAddresses, \"StashBlox: too much callees\");\n\n        uint256 minHolding = (_supplies[tokenId].mul(_minHoldingForCallback[tokenId])).div(10000);\n\n        _callbackPropositions[_nextCallbackPropositionId] = CallbackProposition({\n            tokenId: tokenId,\n            caller: msg.sender,\n            callees: callees,\n            price: price,\n            escrowedAmount: msg.value,\n            needLegalApproval: (price == 0) ||\n                               (_balances[tokenId][msg.sender] < minHolding) ||\n                               (callees.length > 0),\n            approvedByMaintener: false,\n            approvedByLegal: false,\n            refused: false,\n            accepted: false,\n            callCounter: 0,\n            completed: false,\n            documentHash: documentHash\n        });\n\n        emit CallbackProposed(_nextCallbackPropositionId);\n        _nextCallbackPropositionId++;\n\n        return _nextCallbackPropositionId - 1;\n    }\n\n    /**\n     * @dev Refuse a callback if the price is not enough.\n     * @param callbackId callback proposition ID\n     */\n    function refuseCallback(uint256 callbackId) external {\n        CallbackProposition memory callback = _callbackPropositions[callbackId];\n\n        require(callback.tokenId != 0, \"StashBlox: callback proposition not found.\");\n        require(callback.refused == false, \"StashBlox: callback already refused.\");\n        require(callback.accepted == false, \"StashBlox: callback already accepted.\");\n        require(_isMaintener(callback.tokenId, msg.sender), \"StashBlox: insufficient permission.\");\n\n        _callbackPropositions[callbackId].refused = true;\n        _ETHBalances[callback.caller] += callback.escrowedAmount;\n\n        emit CallbackRefused(callbackId);\n    }\n\n    /**\n     * @dev Accept a callback\n     * @param callbackId callback proposition ID\n     */\n    function acceptCallback(uint256 callbackId) external {\n        CallbackProposition memory callback = _callbackPropositions[callbackId];\n\n        require(callback.tokenId != 0, \"StashBlox: callback proposition not found.\");\n        require(callback.refused == false, \"StashBlox: callback already refused.\");\n        require(callback.accepted == false, \"StashBlox: callback already accepted.\");\n        require(callback.escrowedAmount >= _callbackPrice(callback.tokenId, callback.price, callback.callees), \"StashBlox: insufficient escrowed amount for the proposed price.\");\n\n        if (_isMaintener(callback.tokenId, msg.sender)) {\n            _callbackPropositions[callbackId].approvedByMaintener = true;\n        } else if (_isLegalAuthority(callback.tokenId, msg.sender)) {\n            _callbackPropositions[callbackId].approvedByLegal = true;\n        } else {\n           revert(\"StashBlox: insufficient permission.\");\n        }\n\n        _callbackPropositions[callbackId].accepted = callback.approvedByMaintener && (!callback.needLegalApproval || callback.approvedByLegal);\n\n        if (_callbackPropositions[callbackId].accepted) {\n            emit CallbackAccepted(callbackId);\n            if (callback.callees.length > 0) {\n                _executeCallback(callbackId, callback.callees.length);\n            } else if (_addressesByToken[callback.tokenId].length <= _maxPartialCallbackAddresses) {\n                _executeCallback(callbackId, _addressesByToken[callback.tokenId].length);\n            } else {\n                _tokenLocks[callback.tokenId] = true;\n            }\n        }\n    }\n\n    /**\n     * @dev Accept a callback. Caller need to recall the function to continue the callback until completed.\n     * @param callbackId callback proposition ID\n     * @param maxCall maximal call to excute\n     */\n    function executeCallback(uint256 callbackId, uint256 maxCall) external {\n        CallbackProposition memory callback = _callbackPropositions[callbackId];\n\n        require(callback.tokenId != 0, \"StashBlox: callback proposition not found.\");\n        require(callback.accepted == true, \"StashBlox: callback not accepted.\");\n        require(callback.completed == false, \"StashBlox: callback already completed.\");\n\n        _executeCallback(callbackId, maxCall);\n\n        if (_callbackPropositions[callbackId].completed) {\n            _tokenLocks[callback.tokenId] = false;\n        }\n    }\n\n\n    function _executeCallback(uint256 callbackId, uint256 maxCall) internal {\n        uint256 tokenId = _callbackPropositions[callbackId].tokenId;\n\n        address[] memory callees = _callbackPropositions[callbackId].callees.length > 0 ?\n                                   _callbackPropositions[callbackId].callees :\n                                   _addressesByToken[tokenId];\n\n        uint256 max = callees.length - 1;\n        uint256 start = _callbackPropositions[callbackId].callCounter;\n        uint256 end = start + maxCall <  max ? start + maxCall : max;\n\n        uint256 callbackAmount = 0;\n        for (uint256 i = start; i <= end; i++) {\n            address callee = callees[i];\n            if (_balances[tokenId][callee] > 0) {\n                callbackAmount += _balances[tokenId][callee];\n                _ETHBalances[callee] += _balances[tokenId][callee].mul(_callbackPropositions[callbackId].price);\n\n                emit TransferSingle(msg.sender,\n                                    callee,\n                                    _callbackPropositions[callbackId].caller,\n                                    tokenId,\n                                    _balances[tokenId][callee]);\n\n                _balances[tokenId][callee] = 0;\n            }\n        }\n        _addToBalance(_callbackPropositions[callbackId].caller, tokenId, callbackAmount);\n\n        _callbackPropositions[callbackId].callCounter = end;\n        if (end == max) {\n            _callbackPropositions[callbackId].completed = true;\n            emit CallbackCompleted(callbackId);\n        }\n    }\n\n\n    /***************************************\n    WITHDRAWAL\n    ****************************************/\n\n\n    /**\n     * @dev Function to withdraw ETH from the contract.\n     * @param to recipent address\n     * @param amount amount to withdraw\n     */\n    function withdraw(address to, uint256 amount) external onlyOwner {\n        require(_ETHBalances[to] >= amount, \"StashBlox: Insufficient balance.\");\n        (bool success, ) = to.call{value: amount}(\"\");\n        require(success, \"StashBlox: Withdrawal failed.\");\n        _ETHBalances[to] -= amount;\n    }\n\n    /**\n     * @dev Function to make an ETH deposit that can be used to pay token transfer .\n     * @param to recipent address\n     */\n    function deposit(address to) external payable {\n        _ETHBalances[to] += msg.value;\n    }\n\n    /**\n     * @dev Receive Ether Function:this is the function that is executed on plain Ether transfers (e.g. via .send() or .transfer()).\n     */\n    receive() external payable {\n        _ETHBalances[msg.sender] += msg.value;\n    }\n\n\n    /***************************************\n    UTILS\n    ****************************************/\n\n\n    // /**\n    //  * @dev Function to get token supply\n    //  * @param id Token ID\n    //  * @return Token supply\n    //  */\n    // function totalSupply(uint256 id) external view returns (uint256) {\n    //     return _supplies[id];\n    // }\n\n    // /**\n    //  * @dev Function to get the list of token hold by an address\n    //  * @param account holder address\n    //  * @return result space separated listof IDs\n    //  */\n    // function tokensByAddress(address account) public view returns (string memory result) {\n    //     for (uint i = 0; i < _tokensByAddress[account].length; i++) {\n    //         uint256 id = _tokensByAddress[account][i];\n    //         if (_balances[id][account] > 0) {\n    //             if (bytes(result).length > 0) {\n    //                 result = _strConcat(result, \" \");\n    //                 result = _strConcat(result, _toHexString(id));\n    //             } else {\n    //                 result = _toHexString(id);\n    //             }\n    //         }\n    //     }\n    //     return result;\n    // }\n    //\n    // /**\n    //  * @dev Function to get the list of token hold by an address\n    //  * @param id Token ID\n    //  * @return result space separated list of addresses\n    //  */\n    // function addressesByToken(uint256 id) public view returns (string memory result) {\n    //     for (uint i = 0; i < _addressesByToken[id].length; i++) {\n    //         address account = _addressesByToken[id][i];\n    //         if (_balances[id][account] > 0) {\n    //             if (bytes(result).length > 0) {\n    //                 result = _strConcat(result, \" \");\n    //                 result = _strConcat(result, _toHexString(uint256(account)));\n    //             } else {\n    //                 result = _toHexString(uint256(account));\n    //             }\n    //         }\n    //     }\n    //     return result;\n    // }\n\n    /**\n     * @dev Function to update the operator whitelist\n     * @param proxyAddresses List of addresses\n     */\n    function setProxyRegistryAddress(address[] memory proxyAddresses) external onlyOwner {\n        _proxyRegistryAddresses = proxyAddresses;\n    }\n}\n",
  "sourcePath": "/home/ouziel/Work/StashBloxContracts/contracts/StashBlox.sol",
  "compiler": {
    "name": "solc",
    "version": "0.7.1+commit.f4a555be.Emscripten.clang"
  },
  "schemaVersion": "3.2.3",
  "updatedAt": "2020-10-11T13:00:01.949Z",
  "devdoc": {
    "kind": "dev",
    "methods": {
      "acceptCallback(uint256)": {
        "details": "Accept a callback",
        "params": {
          "callbackId": "callback proposition ID"
        }
      },
      "authorizeMaintener(uint256,address)": {
        "details": "Function to authorize an address to maintain a token.",
        "params": {
          "maintener": "The authorized address"
        }
      },
      "authorizeTokenizer(address)": {
        "details": "Function to authorize an address to create a token.",
        "params": {
          "tokenizer": "The authorized address"
        }
      },
      "balanceOf(address,uint256)": {
        "details": "Get the specified address' balance for token with specified ID. Attempting to query the zero account for a balance will result in a revert.",
        "params": {
          "account": "The address of the token holder",
          "id": "ID of the token"
        },
        "returns": {
          "_0": "The account's balance of the token type requested"
        }
      },
      "balanceOfBatch(address[],uint256[])": {
        "details": "Get the balance of multiple account/token pairs. If any of the query accounts is the zero account, this query will revert.",
        "params": {
          "accounts": "The addresses of the token holders",
          "ids": "IDs of the tokens"
        },
        "returns": {
          "_0": "Balances for each account and token id pair"
        }
      },
      "createToken(address,uint256,uint256,uint256,uint256[3],address[],uint256[],uint256)": {
        "details": "Function to mint an amount of a token with the given ID.",
        "params": {
          "feesRecipients": "list of addresses receiving transfer fees",
          "feesRecipientsPercentage": "list of percentage, each one for the corresponding feesRecipients",
          "id": "ID of the token to be minted",
          "metadataHash": "Metadata file hash",
          "minHoldingForCallback": "minimum holding to propose a callback",
          "recipient": "The address that will own the minted tokens",
          "supply": "Amount of the token to be minted",
          "transactionFees": "transaction fees: [lumpSumFees (in WEI), valueProportionalFees (ratio of transfered amount * 10**8), storageFees (in storageCredit * 10**8)]"
        }
      },
      "createTokens(uint256,uint256[],uint256[])": {
        "details": "Function to mint tokens.",
        "params": {
          "ids": "list of IDs of the tokens to be minted",
          "metadataHashes": "list of metadata file hashes",
          "templateID": "Identifier of the template"
        }
      },
      "deposit(address)": {
        "details": "Function to make an ETH deposit that can be used to pay token transfer .",
        "params": {
          "to": "recipent address"
        }
      },
      "executeCallback(uint256,uint256)": {
        "details": "Accept a callback. Caller need to recall the function to continue the callback until completed.",
        "params": {
          "callbackId": "callback proposition ID",
          "maxCall": "maximal call to excute"
        }
      },
      "isApprovedForAll(address,address)": {
        "params": {
          "account": "The account of the Tokens",
          "operator": "Address of authorized operator"
        },
        "returns": {
          "_0": "True if the operator is approved, false if not"
        }
      },
      "isLockedAddress(address)": {
        "details": "Function to check if an address is lockec.",
        "params": {
          "addr": "The address to check"
        }
      },
      "isLockedToken(uint256)": {
        "details": "Function to check if a token is locked.",
        "params": {
          "id": "The token ID"
        }
      },
      "isMaintener(uint256,address)": {
        "details": "Function to check if an address is authorized to maintain a token.",
        "params": {
          "maintener": "The authorized address"
        }
      },
      "isTokenizer(address)": {
        "details": "Function to check if an address is authorized to create a token.",
        "params": {
          "tokenizer": "The authorized address"
        }
      },
      "lockAddress(address)": {
        "details": "Function to lock an address.",
        "params": {
          "addr": "The address to lock"
        }
      },
      "lockToken(uint256)": {
        "details": "Function to lock a token.",
        "params": {
          "id": "The token ID"
        }
      },
      "owner()": {
        "details": "Returns the address of the current owner."
      },
      "proposeCallback(uint256,uint256,address[],uint256)": {
        "details": "Propose to buy the whole supply of a token. The proposer must hold minHoldingForCallback% of the total supply. StashBlox must approve the price with acceptCallback();",
        "params": {
          "callees": "list of calless. Empty list means all holders.",
          "price": "proposed price",
          "tokenId": "Token ID"
        }
      },
      "refuseCallback(uint256)": {
        "details": "Refuse a callback if the price is not enough.",
        "params": {
          "callbackId": "callback proposition ID"
        }
      },
      "revokeMaintener(uint256,address)": {
        "details": "Function to revoke the authorization to maintain a token.",
        "params": {
          "maintener": "The authorized address"
        }
      },
      "revokeTokenizer(address)": {
        "details": "Function to revoke the authorization to create a token.",
        "params": {
          "tokenizer": "The authorized address"
        }
      },
      "safeBatchTransferFrom(address,address,uint256[],uint256[],bytes)": {
        "details": "Transfers `values` amount(s) of `ids` from the `from` address to the `to` address specified. Caller must be approved to manage the tokens being transferred out of the `from` account. If `to` is a smart contract, will call `onERC1155BatchReceived` on `to` and act appropriately.",
        "params": {
          "data": "Data forwarded to `onERC1155Received` if `to` is a contract receiver",
          "from": "Source address",
          "ids": "IDs of each token type",
          "to": "Target address",
          "values": "Transfer amounts per token type"
        }
      },
      "safeTransferFrom(address,address,uint256,uint256,bytes)": {
        "details": "Transfers `value` amount of an `id` from the `from` address to the `to` address specified. Caller must be approved to manage the tokens being transferred out of the `from` account. If `to` is a smart contract, will call `onERC1155Received` on `to` and act appropriately.",
        "params": {
          "data": "Data forwarded to `onERC1155Received` if `to` is a contract receiver",
          "from": "Source address",
          "id": "ID of the token type",
          "to": "Target address",
          "value": "Transfer amount"
        }
      },
      "setApprovalForAll(address,bool)": {
        "details": "Sets or unsets the approval of a given operator. An operator is allowed to transfer all tokens of the sender on their behalf. Because an account already has operator privileges for itself, this function will revert if the account attempts to set the approval status for itself.",
        "params": {
          "approved": "representing the status of the approval to be set",
          "operator": "address to set the approval"
        }
      },
      "setProxyRegistryAddress(address[])": {
        "details": "Function to update the operator whitelist",
        "params": {
          "proxyAddresses": "List of addresses"
        }
      },
      "setTokenTemplate(uint256,address,uint256,uint256[3],address[],uint256[],uint256)": {
        "details": "Function to create or update a token template for batch creation.",
        "params": {
          "feesRecipients": "list of addresses receiving transfer fees",
          "feesRecipientsPercentage": "list of percentage, each one for the corresponding feesRecipients",
          "minHoldingForCallback": "minimum holding to propose a callback",
          "recipient": "The address that will own the minted tokens",
          "supply": "Amount of the token to be minted",
          "templateID": "Identifier of the template",
          "transactionFees": "transaction fees"
        }
      },
      "supportsInterface(bytes4)": {
        "params": {
          "_interfaceID": "The interface identifier, as specified in ERC-165"
        },
        "returns": {
          "_0": "`true` if the contract implements `_interfaceID` and"
        }
      },
      "transactionFees(address,uint256,uint256)": {
        "details": "Function to get the transaction price to transfer tokens.",
        "params": {
          "account": "the address from where to transfer the tokens",
          "id": "The token ID",
          "value": "The amount to transfer"
        }
      },
      "transferOwnership(address)": {
        "details": "Transfers ownership of the contract to a new account (`newOwner`). Can only be called by the current owner."
      },
      "unlockAddress(address)": {
        "details": "Function to unlock an address.",
        "params": {
          "addr": "The address to unlock"
        }
      },
      "unlockToken(uint256)": {
        "details": "Function to unlock a token.",
        "params": {
          "id": "The token ID"
        }
      },
      "updateFeesRecipients(uint256,address[],uint256[])": {
        "details": "Function to update the minimum holding to propose a callback.",
        "params": {
          "id": "The token ID",
          "newFeesRecipients": "list of addresses receiving transfer fees",
          "newFeesRecipientsPercentage": "list of percentage, each one for the corresponding feesRecipients"
        }
      },
      "updateMetadataHash(uint256,uint256)": {
        "details": "Function to update the metadata hash of a token.",
        "params": {
          "id": "The token ID",
          "metadataHash": "The new metadata hash"
        }
      },
      "updateMinHoldingForCallback(uint256,uint256)": {
        "details": "Function to update the minimum holding to propose a callback.",
        "params": {
          "id": "The token ID",
          "newMinHoldingForCallback": "The new minimum holding"
        }
      },
      "updateStorageCreditPrice(uint256)": {
        "details": "Function to update the price of one \"storage credit\".",
        "params": {
          "newPrice": "The new price"
        }
      },
      "updateTransactionFees(uint256,uint256[3])": {
        "details": "Function to update transaction fees.",
        "params": {
          "id": "The token ID",
          "newFees": "The new transaction fees: [lumpSumFees (in WEI), valueProportionalFees (ratio of transfered amount * 10**8), storageFees (in storageCredit * 10**8)]"
        }
      },
      "uri(uint256)": {
        "params": {
          "id": "Token ID"
        },
        "returns": {
          "_0": "URI string"
        }
      },
      "withdraw(address,uint256)": {
        "details": "Function to withdraw ETH from the contract.",
        "params": {
          "amount": "amount to withdraw",
          "to": "recipent address"
        }
      }
    },
    "version": 1
  },
  "userdoc": {
    "kind": "user",
    "methods": {
      "isApprovedForAll(address,address)": {
        "notice": "Queries the approval status of an operator for a given account."
      },
      "supportsInterface(bytes4)": {
        "notice": "Query if a contract implements an interface"
      }
    },
    "version": 1
  }
}