{
  "contractName": "StashBlox",
  "abi": [
    {
      "anonymous": false,
      "inputs": [
        {
          "indexed": true,
          "internalType": "address",
          "name": "_owner",
          "type": "address"
        },
        {
          "indexed": true,
          "internalType": "address",
          "name": "_operator",
          "type": "address"
        },
        {
          "indexed": false,
          "internalType": "bool",
          "name": "_approved",
          "type": "bool"
        }
      ],
      "name": "ApprovalForAll",
      "type": "event"
    },
    {
      "anonymous": false,
      "inputs": [
        {
          "indexed": true,
          "internalType": "uint256",
          "name": "_id",
          "type": "uint256"
        },
        {
          "indexed": false,
          "internalType": "address",
          "name": "_proposer",
          "type": "address"
        },
        {
          "indexed": false,
          "internalType": "uint256",
          "name": "_price",
          "type": "uint256"
        }
      ],
      "name": "CallbackAccepted",
      "type": "event"
    },
    {
      "anonymous": false,
      "inputs": [
        {
          "indexed": true,
          "internalType": "uint256",
          "name": "_id",
          "type": "uint256"
        },
        {
          "indexed": false,
          "internalType": "address",
          "name": "_proposer",
          "type": "address"
        },
        {
          "indexed": false,
          "internalType": "uint256",
          "name": "_price",
          "type": "uint256"
        }
      ],
      "name": "CallbackProposed",
      "type": "event"
    },
    {
      "anonymous": false,
      "inputs": [
        {
          "indexed": true,
          "internalType": "uint256",
          "name": "_id",
          "type": "uint256"
        },
        {
          "indexed": false,
          "internalType": "address",
          "name": "_proposer",
          "type": "address"
        },
        {
          "indexed": false,
          "internalType": "uint256",
          "name": "_price",
          "type": "uint256"
        }
      ],
      "name": "CallbackRefused",
      "type": "event"
    },
    {
      "anonymous": false,
      "inputs": [
        {
          "indexed": true,
          "internalType": "uint256",
          "name": "_id",
          "type": "uint256"
        },
        {
          "indexed": true,
          "internalType": "uint256",
          "name": "_hash",
          "type": "uint256"
        }
      ],
      "name": "MetadataHashUpdated",
      "type": "event"
    },
    {
      "anonymous": false,
      "inputs": [
        {
          "indexed": true,
          "internalType": "address",
          "name": "previousOwner",
          "type": "address"
        },
        {
          "indexed": true,
          "internalType": "address",
          "name": "newOwner",
          "type": "address"
        }
      ],
      "name": "OwnershipTransferred",
      "type": "event"
    },
    {
      "anonymous": false,
      "inputs": [
        {
          "indexed": true,
          "internalType": "address",
          "name": "_operator",
          "type": "address"
        },
        {
          "indexed": true,
          "internalType": "address",
          "name": "_from",
          "type": "address"
        },
        {
          "indexed": true,
          "internalType": "address",
          "name": "_to",
          "type": "address"
        },
        {
          "indexed": false,
          "internalType": "uint256[]",
          "name": "_ids",
          "type": "uint256[]"
        },
        {
          "indexed": false,
          "internalType": "uint256[]",
          "name": "_values",
          "type": "uint256[]"
        }
      ],
      "name": "TransferBatch",
      "type": "event"
    },
    {
      "anonymous": false,
      "inputs": [
        {
          "indexed": true,
          "internalType": "address",
          "name": "_operator",
          "type": "address"
        },
        {
          "indexed": true,
          "internalType": "address",
          "name": "_from",
          "type": "address"
        },
        {
          "indexed": true,
          "internalType": "address",
          "name": "_to",
          "type": "address"
        },
        {
          "indexed": false,
          "internalType": "uint256",
          "name": "_id",
          "type": "uint256"
        },
        {
          "indexed": false,
          "internalType": "uint256",
          "name": "_value",
          "type": "uint256"
        }
      ],
      "name": "TransferSingle",
      "type": "event"
    },
    {
      "anonymous": false,
      "inputs": [
        {
          "indexed": false,
          "internalType": "string",
          "name": "_value",
          "type": "string"
        },
        {
          "indexed": true,
          "internalType": "uint256",
          "name": "_id",
          "type": "uint256"
        }
      ],
      "name": "URI",
      "type": "event"
    },
    {
      "anonymous": false,
      "inputs": [
        {
          "indexed": true,
          "internalType": "address",
          "name": "_tokenizer",
          "type": "address"
        },
        {
          "indexed": false,
          "internalType": "uint256",
          "name": "_id",
          "type": "uint256"
        },
        {
          "indexed": false,
          "internalType": "uint256",
          "name": "_cost",
          "type": "uint256"
        }
      ],
      "name": "UpdateStorageCost",
      "type": "event"
    },
    {
      "anonymous": false,
      "inputs": [
        {
          "indexed": true,
          "internalType": "address",
          "name": "_owner",
          "type": "address"
        },
        {
          "indexed": false,
          "internalType": "uint256",
          "name": "_price",
          "type": "uint256"
        }
      ],
      "name": "UpdateStorageCreditPrice",
      "type": "event"
    },
    {
      "inputs": [],
      "name": "BASE_URI",
      "outputs": [
        {
          "internalType": "string",
          "name": "",
          "type": "string"
        }
      ],
      "stateMutability": "view",
      "type": "function"
    },
    {
      "inputs": [
        {
          "internalType": "address",
          "name": "",
          "type": "address"
        }
      ],
      "name": "_ETHBalances",
      "outputs": [
        {
          "internalType": "uint256",
          "name": "",
          "type": "uint256"
        }
      ],
      "stateMutability": "view",
      "type": "function"
    },
    {
      "inputs": [
        {
          "internalType": "uint256",
          "name": "",
          "type": "uint256"
        },
        {
          "internalType": "uint256",
          "name": "",
          "type": "uint256"
        }
      ],
      "name": "_addressesByToken",
      "outputs": [
        {
          "internalType": "address",
          "name": "",
          "type": "address"
        }
      ],
      "stateMutability": "view",
      "type": "function"
    },
    {
      "inputs": [
        {
          "internalType": "uint256",
          "name": "",
          "type": "uint256"
        },
        {
          "internalType": "address",
          "name": "",
          "type": "address"
        }
      ],
      "name": "_birthdays",
      "outputs": [
        {
          "internalType": "uint256",
          "name": "",
          "type": "uint256"
        }
      ],
      "stateMutability": "view",
      "type": "function"
    },
    {
      "inputs": [
        {
          "internalType": "address",
          "name": "",
          "type": "address"
        },
        {
          "internalType": "uint256",
          "name": "",
          "type": "uint256"
        }
      ],
      "name": "_tokensByAddress",
      "outputs": [
        {
          "internalType": "uint256",
          "name": "",
          "type": "uint256"
        }
      ],
      "stateMutability": "view",
      "type": "function"
    },
    {
      "inputs": [
        {
          "internalType": "address",
          "name": "account",
          "type": "address"
        },
        {
          "internalType": "uint256",
          "name": "id",
          "type": "uint256"
        }
      ],
      "name": "balanceOf",
      "outputs": [
        {
          "internalType": "uint256",
          "name": "",
          "type": "uint256"
        }
      ],
      "stateMutability": "view",
      "type": "function"
    },
    {
      "inputs": [
        {
          "internalType": "address[]",
          "name": "accounts",
          "type": "address[]"
        },
        {
          "internalType": "uint256[]",
          "name": "ids",
          "type": "uint256[]"
        }
      ],
      "name": "balanceOfBatch",
      "outputs": [
        {
          "internalType": "uint256[]",
          "name": "",
          "type": "uint256[]"
        }
      ],
      "stateMutability": "view",
      "type": "function"
    },
    {
      "inputs": [
        {
          "internalType": "address",
          "name": "account",
          "type": "address"
        },
        {
          "internalType": "address",
          "name": "operator",
          "type": "address"
        }
      ],
      "name": "isApprovedForAll",
      "outputs": [
        {
          "internalType": "bool",
          "name": "",
          "type": "bool"
        }
      ],
      "stateMutability": "view",
      "type": "function"
    },
    {
      "inputs": [
        {
          "internalType": "uint256",
          "name": "id",
          "type": "uint256"
        }
      ],
      "name": "metadataHash",
      "outputs": [
        {
          "internalType": "uint256",
          "name": "",
          "type": "uint256"
        }
      ],
      "stateMutability": "view",
      "type": "function"
    },
    {
      "inputs": [],
      "name": "owner",
      "outputs": [
        {
          "internalType": "address",
          "name": "",
          "type": "address"
        }
      ],
      "stateMutability": "view",
      "type": "function"
    },
    {
      "inputs": [
        {
          "internalType": "address",
          "name": "from",
          "type": "address"
        },
        {
          "internalType": "address",
          "name": "to",
          "type": "address"
        },
        {
          "internalType": "uint256[]",
          "name": "ids",
          "type": "uint256[]"
        },
        {
          "internalType": "uint256[]",
          "name": "values",
          "type": "uint256[]"
        },
        {
          "internalType": "bytes",
          "name": "data",
          "type": "bytes"
        }
      ],
      "name": "safeBatchTransferFrom",
      "outputs": [],
      "stateMutability": "payable",
      "type": "function"
    },
    {
      "inputs": [
        {
          "internalType": "address",
          "name": "from",
          "type": "address"
        },
        {
          "internalType": "address",
          "name": "to",
          "type": "address"
        },
        {
          "internalType": "uint256",
          "name": "id",
          "type": "uint256"
        },
        {
          "internalType": "uint256",
          "name": "value",
          "type": "uint256"
        },
        {
          "internalType": "bytes",
          "name": "data",
          "type": "bytes"
        }
      ],
      "name": "safeTransferFrom",
      "outputs": [],
      "stateMutability": "payable",
      "type": "function"
    },
    {
      "inputs": [
        {
          "internalType": "address",
          "name": "operator",
          "type": "address"
        },
        {
          "internalType": "bool",
          "name": "approved",
          "type": "bool"
        }
      ],
      "name": "setApprovalForAll",
      "outputs": [],
      "stateMutability": "nonpayable",
      "type": "function"
    },
    {
      "inputs": [
        {
          "internalType": "bytes4",
          "name": "_interfaceID",
          "type": "bytes4"
        }
      ],
      "name": "supportsInterface",
      "outputs": [
        {
          "internalType": "bool",
          "name": "",
          "type": "bool"
        }
      ],
      "stateMutability": "pure",
      "type": "function"
    },
    {
      "inputs": [
        {
          "internalType": "address",
          "name": "newOwner",
          "type": "address"
        }
      ],
      "name": "transferOwnership",
      "outputs": [],
      "stateMutability": "nonpayable",
      "type": "function"
    },
    {
      "inputs": [
        {
          "internalType": "uint256",
          "name": "id",
          "type": "uint256"
        }
      ],
      "name": "uri",
      "outputs": [
        {
          "internalType": "string",
          "name": "",
          "type": "string"
        }
      ],
      "stateMutability": "pure",
      "type": "function"
    },
    {
      "inputs": [
        {
          "internalType": "address",
          "name": "tokenizer",
          "type": "address"
        }
      ],
      "name": "authorizeTokenizer",
      "outputs": [],
      "stateMutability": "nonpayable",
      "type": "function"
    },
    {
      "inputs": [
        {
          "internalType": "address",
          "name": "tokenizer",
          "type": "address"
        }
      ],
      "name": "revokeTokenizer",
      "outputs": [],
      "stateMutability": "nonpayable",
      "type": "function"
    },
    {
      "inputs": [
        {
          "internalType": "address",
          "name": "tokenizer",
          "type": "address"
        }
      ],
      "name": "isTokenizer",
      "outputs": [
        {
          "internalType": "bool",
          "name": "",
          "type": "bool"
        }
      ],
      "stateMutability": "view",
      "type": "function"
    },
    {
      "inputs": [
        {
          "internalType": "uint256",
          "name": "id",
          "type": "uint256"
        }
      ],
      "name": "lockToken",
      "outputs": [],
      "stateMutability": "nonpayable",
      "type": "function"
    },
    {
      "inputs": [
        {
          "internalType": "uint256",
          "name": "id",
          "type": "uint256"
        }
      ],
      "name": "unlockToken",
      "outputs": [],
      "stateMutability": "nonpayable",
      "type": "function"
    },
    {
      "inputs": [
        {
          "internalType": "uint256",
          "name": "id",
          "type": "uint256"
        }
      ],
      "name": "isLockedToken",
      "outputs": [
        {
          "internalType": "bool",
          "name": "",
          "type": "bool"
        }
      ],
      "stateMutability": "view",
      "type": "function"
    },
    {
      "inputs": [
        {
          "internalType": "address",
          "name": "addr",
          "type": "address"
        }
      ],
      "name": "lockAddress",
      "outputs": [],
      "stateMutability": "nonpayable",
      "type": "function"
    },
    {
      "inputs": [
        {
          "internalType": "address",
          "name": "addr",
          "type": "address"
        }
      ],
      "name": "unlockAddress",
      "outputs": [],
      "stateMutability": "nonpayable",
      "type": "function"
    },
    {
      "inputs": [
        {
          "internalType": "address",
          "name": "addr",
          "type": "address"
        }
      ],
      "name": "isLockedAddress",
      "outputs": [
        {
          "internalType": "bool",
          "name": "",
          "type": "bool"
        }
      ],
      "stateMutability": "view",
      "type": "function"
    },
    {
      "inputs": [
        {
          "internalType": "address",
          "name": "recipient",
          "type": "address"
        },
        {
          "internalType": "uint256",
          "name": "id",
          "type": "uint256"
        },
        {
          "internalType": "uint256",
          "name": "supply",
          "type": "uint256"
        },
        {
          "internalType": "uint256",
          "name": "metadataHash",
          "type": "uint256"
        },
        {
          "internalType": "uint256",
          "name": "storageCreditCost",
          "type": "uint256"
        },
        {
          "internalType": "uint256",
          "name": "minHoldingForCallback",
          "type": "uint256"
        },
        {
          "internalType": "address[]",
          "name": "feesRecipients",
          "type": "address[]"
        },
        {
          "internalType": "uint256[]",
          "name": "feesRecipientsPercentage",
          "type": "uint256[]"
        }
      ],
      "name": "createToken",
      "outputs": [],
      "stateMutability": "nonpayable",
      "type": "function"
    },
    {
      "inputs": [
        {
          "internalType": "uint256",
          "name": "id",
          "type": "uint256"
        },
        {
          "internalType": "uint256",
          "name": "metadataHash",
          "type": "uint256"
        }
      ],
      "name": "updateMetadataHash",
      "outputs": [],
      "stateMutability": "nonpayable",
      "type": "function"
    },
    {
      "inputs": [
        {
          "internalType": "uint256",
          "name": "newPrice",
          "type": "uint256"
        }
      ],
      "name": "updateStorageCreditPrice",
      "outputs": [],
      "stateMutability": "nonpayable",
      "type": "function"
    },
    {
      "inputs": [
        {
          "internalType": "uint256",
          "name": "id",
          "type": "uint256"
        },
        {
          "internalType": "uint256",
          "name": "newCost",
          "type": "uint256"
        }
      ],
      "name": "updateStorageCost",
      "outputs": [],
      "stateMutability": "nonpayable",
      "type": "function"
    },
    {
      "inputs": [
        {
          "internalType": "address",
          "name": "to",
          "type": "address"
        },
        {
          "internalType": "uint256",
          "name": "amount",
          "type": "uint256"
        }
      ],
      "name": "withdraw",
      "outputs": [],
      "stateMutability": "nonpayable",
      "type": "function"
    },
    {
      "inputs": [
        {
          "internalType": "uint256",
          "name": "id",
          "type": "uint256"
        }
      ],
      "name": "totalSupply",
      "outputs": [
        {
          "internalType": "uint256",
          "name": "",
          "type": "uint256"
        }
      ],
      "stateMutability": "view",
      "type": "function"
    },
    {
      "inputs": [
        {
          "internalType": "uint256",
          "name": "id",
          "type": "uint256"
        },
        {
          "internalType": "uint256",
          "name": "price",
          "type": "uint256"
        }
      ],
      "name": "proposeCallback",
      "outputs": [],
      "stateMutability": "payable",
      "type": "function"
    },
    {
      "inputs": [
        {
          "internalType": "uint256",
          "name": "id",
          "type": "uint256"
        },
        {
          "internalType": "address",
          "name": "proposer",
          "type": "address"
        }
      ],
      "name": "refuseCallback",
      "outputs": [],
      "stateMutability": "nonpayable",
      "type": "function"
    },
    {
      "inputs": [
        {
          "internalType": "uint256",
          "name": "id",
          "type": "uint256"
        },
        {
          "internalType": "address",
          "name": "proposer",
          "type": "address"
        }
      ],
      "name": "acceptCallback",
      "outputs": [],
      "stateMutability": "nonpayable",
      "type": "function"
    },
    {
      "inputs": [
        {
          "internalType": "address",
          "name": "account",
          "type": "address"
        },
        {
          "internalType": "uint256",
          "name": "id",
          "type": "uint256"
        },
        {
          "internalType": "uint256",
          "name": "value",
          "type": "uint256"
        }
      ],
      "name": "storageFees",
      "outputs": [
        {
          "internalType": "uint256",
          "name": "",
          "type": "uint256"
        }
      ],
      "stateMutability": "view",
      "type": "function"
    },
    {
      "inputs": [
        {
          "internalType": "address",
          "name": "account",
          "type": "address"
        }
      ],
      "name": "tokensByAddress",
      "outputs": [
        {
          "internalType": "string",
          "name": "result",
          "type": "string"
        }
      ],
      "stateMutability": "view",
      "type": "function"
    },
    {
      "inputs": [
        {
          "internalType": "uint256",
          "name": "id",
          "type": "uint256"
        }
      ],
      "name": "addressesByToken",
      "outputs": [
        {
          "internalType": "string",
          "name": "result",
          "type": "string"
        }
      ],
      "stateMutability": "view",
      "type": "function"
    }
  ],
  "bytecode": "0x60806040526103e86005553480156200001757600080fd5b50620000233362000029565b620000e5565b6001600160a01b0381166200008a576040517f08c379a000000000000000000000000000000000000000000000000000000000815260040180806020018281038252602681526020018062003dfd6026913960400191505060405180910390fd5b600080546040516001600160a01b03808516939216917f8be0079c531659141344cd1fd0a4f28419497f9722a3daafe3b4186f6b6457e091a3600080546001600160a01b0319166001600160a01b0392909216919091179055565b613d0880620000f56000396000f3fe6080604052600436106102195760003560e01c8063a22cb46511610123578063cf6c97ca116100ab578063e985e9c51161006f578063e985e9c514610c33578063ea2bd64d14610c6e578063f242432a14610ca7578063f2fde38b14610d3a578063f3fef3a314610d6d57610219565b8063cf6c97ca14610a30578063d6bc594214610b8e578063d7b80ebc14610bc1578063dbddb26a14610bf4578063dd2e0ac014610c0957610219565b8063bba75c83116100f2578063bba75c8314610937578063bd85b03914610961578063c02f303c1461098b578063c4be3c3c146109be578063cba54e60146109fd57610219565b8063a22cb46514610866578063a2940072146108a1578063b5690ac1146108da578063b7eb5e0a1461090457610219565b80636eb987c7116101a657806380f203631161017557806380f203631461079a5780638495b141146107c45780638870147b146107ee5780638da5cb5b14610821578063939cd6411461083657610219565b80636eb987c7146106d25780636fe8ded21461070b57806370e0b145146107445780637627b7321461076757610219565b8063219cc8bc116101ed578063219cc8bc1461039c5780632eb2c2d6146103c657806334a90d02146104ef5780634e1273f4146105225780636b62becb146106a257610219565b8062fdd58e1461021e57806301ffc9a7146102695780630e89341c146102b1578063119c073714610350575b600080fd5b34801561022a57600080fd5b506102576004803603604081101561024157600080fd5b506001600160a01b038135169060200135610da6565b60408051918252519081900360200190f35b34801561027557600080fd5b5061029d6004803603602081101561028c57600080fd5b50356001600160e01b031916610e18565b604080519115158252519081900360200190f35b3480156102bd57600080fd5b506102db600480360360208110156102d457600080fd5b5035610e5f565b6040805160208082528351818301528351919283929083019185019080838360005b838110156103155781810151838201526020016102fd565b50505050905090810190601f1680156103425780820380516001836020036101000a031916815260200191505b509250505060405180910390f35b34801561035c57600080fd5b506103806004803603604081101561037357600080fd5b5080359060200135610ea8565b604080516001600160a01b039092168252519081900360200190f35b3480156103a857600080fd5b50610257600480360360208110156103bf57600080fd5b5035610edd565b6104ed600480360360a08110156103dc57600080fd5b6001600160a01b038235811692602081013590911691810190606081016040820135600160201b81111561040f57600080fd5b82018360208201111561042157600080fd5b803590602001918460208302840111600160201b8311171561044257600080fd5b919390929091602081019035600160201b81111561045f57600080fd5b82018360208201111561047157600080fd5b803590602001918460208302840111600160201b8311171561049257600080fd5b919390929091602081019035600160201b8111156104af57600080fd5b8201836020820111156104c157600080fd5b803590602001918460018302840111600160201b831117156104e257600080fd5b509092509050610eef565b005b3480156104fb57600080fd5b506104ed6004803603602081101561051257600080fd5b50356001600160a01b0316611211565b34801561052e57600080fd5b506106526004803603604081101561054557600080fd5b810190602081018135600160201b81111561055f57600080fd5b82018360208201111561057157600080fd5b803590602001918460208302840111600160201b8311171561059257600080fd5b9190808060200260200160405190810160405280939291908181526020018383602002808284376000920191909152509295949360208101935035915050600160201b8111156105e157600080fd5b8201836020820111156105f357600080fd5b803590602001918460208302840111600160201b8311171561061457600080fd5b91908080602002602001604051908101604052809392919081815260200183836020028082843760009201919091525092955061127c945050505050565b60408051602080825283518183015283519192839290830191858101910280838360005b8381101561068e578181015183820152602001610676565b505050509050019250505060405180910390f35b3480156106ae57600080fd5b506104ed600480360360408110156106c557600080fd5b50803590602001356113fa565b3480156106de57600080fd5b50610257600480360360408110156106f557600080fd5b506001600160a01b03813516906020013561144c565b34801561071757600080fd5b506104ed6004803603604081101561072e57600080fd5b50803590602001356001600160a01b031661147a565b6104ed6004803603604081101561075a57600080fd5b50803590602001356115c0565b34801561077357600080fd5b506104ed6004803603602081101561078a57600080fd5b50356001600160a01b03166117e1565b3480156107a657600080fd5b506104ed600480360360208110156107bd57600080fd5b503561184c565b3480156107d057600080fd5b506104ed600480360360208110156107e757600080fd5b50356118ae565b3480156107fa57600080fd5b506104ed6004803603602081101561081157600080fd5b50356001600160a01b0316611930565b34801561082d57600080fd5b50610380611998565b34801561084257600080fd5b506104ed6004803603604081101561085957600080fd5b50803590602001356119a7565b34801561087257600080fd5b506104ed6004803603604081101561088957600080fd5b506001600160a01b0381351690602001351515611a6d565b3480156108ad57600080fd5b506104ed600480360360408110156108c457600080fd5b50803590602001356001600160a01b0316611b23565b3480156108e657600080fd5b506102db600480360360208110156108fd57600080fd5b5035611e80565b34801561091057600080fd5b506104ed6004803603602081101561092757600080fd5b50356001600160a01b0316611f59565b34801561094357600080fd5b5061029d6004803603602081101561095a57600080fd5b5035611fc1565b34801561096d57600080fd5b506102576004803603602081101561098457600080fd5b5035611fcc565b34801561099757600080fd5b5061029d600480360360208110156109ae57600080fd5b50356001600160a01b0316611fde565b3480156109ca57600080fd5b50610257600480360360608110156109e157600080fd5b506001600160a01b038135169060208101359060400135611fe9565b348015610a0957600080fd5b5061029d60048036036020811015610a2057600080fd5b50356001600160a01b0316611ffe565b348015610a3c57600080fd5b506104ed6004803603610100811015610a5457600080fd5b6001600160a01b038235169160208101359160408201359160608101359160808201359160a08101359181019060e0810160c0820135600160201b811115610a9b57600080fd5b820183602082011115610aad57600080fd5b803590602001918460208302840111600160201b83111715610ace57600080fd5b9190808060200260200160405190810160405280939291908181526020018383602002808284376000920191909152509295949360208101935035915050600160201b811115610b1d57600080fd5b820183602082011115610b2f57600080fd5b803590602001918460208302840111600160201b83111715610b5057600080fd5b919080806020026020016040519081016040528093929190818152602001838360200280828437600092019190915250929550612009945050505050565b348015610b9a57600080fd5b506102db60048036036020811015610bb157600080fd5b50356001600160a01b031661232f565b348015610bcd57600080fd5b5061025760048036036020811015610be457600080fd5b50356001600160a01b0316612446565b348015610c0057600080fd5b506102db612458565b348015610c1557600080fd5b506104ed60048036036020811015610c2c57600080fd5b5035612491565b348015610c3f57600080fd5b5061029d60048036036040811015610c5657600080fd5b506001600160a01b03813581169160200135166124f0565b348015610c7a57600080fd5b5061025760048036036040811015610c9157600080fd5b50803590602001356001600160a01b031661251e565b6104ed600480360360a0811015610cbd57600080fd5b6001600160a01b03823581169260208101359091169160408201359160608101359181019060a081016080820135600160201b811115610cfc57600080fd5b820183602082011115610d0e57600080fd5b803590602001918460018302840111600160201b83111715610d2f57600080fd5b50909250905061253b565b348015610d4657600080fd5b506104ed60048036036020811015610d5d57600080fd5b50356001600160a01b0316612731565b348015610d7957600080fd5b506104ed60048036036040811015610d9057600080fd5b506001600160a01b038135169060200135612784565b60006001600160a01b038316610ded5760405162461bcd60e51b815260040180806020018281038252602b8152602001806138ca602b913960400191505060405180910390fd5b5060008181526001602090815260408083206001600160a01b03861684529091529020545b92915050565b60006001600160e01b031982166301ffc9a760e01b1480610e4957506001600160e01b03198216636cdb3d1360e11b145b15610e5657506001610e5a565b5060005b919050565b6060610e126040518060400160405280601d81526020017f68747470733a2f2f7374617368626c6f782e636f6d2f746f6b656e732f000000815250610ea384612902565b6129be565b600a6020528160005260406000208181548110610ec157fe5b6000918252602090912001546001600160a01b03169150829050565b60009081526012602052604090205490565b848314610f2d5760405162461bcd60e51b815260040180806020018281038252602e815260200180613c49602e913960400191505060405180910390fd5b6001600160a01b038716610f725760405162461bcd60e51b815260040180806020018281038252602881526020018061391b6028913960400191505060405180910390fd5b6001600160a01b038816331480610f945750610f8e88336124f0565b15156001145b610fcf5760405162461bcd60e51b8152600401808060200182810382526037815260200180613c126037913960400191505060405180910390fd5b3460005b868110156110185761100c8a8a8a8a85818110610fec57fe5b90506020020135898986818110610fff57fe5b9050602002013586612ac8565b90910390600101610fd3565b50876001600160a01b0316896001600160a01b0316336001600160a01b03167f4a39dc06d4c0dbc64b70af90fd698a233a518aa5d07e595d983b8c0526c8f7fb8a8a8a8a6040518080602001806020018381038352878782818152602001925060200280828437600083820152601f01601f19169091018481038352858152602090810191508690860280828437600083820152604051601f909101601f19169092018290039850909650505050505050a461116e338a8a8a8a8080602002602001604051908101604052809392919081815260200183836020028082843760009201919091525050604080516020808e0282810182019093528d82529093508d92508c91829185019084908082843760009201919091525050604080516020601f8d018190048102820181019092528b815292508b91508a9081908401838280828437600092019190915250612e2d92505050565b801561120657604051600090339083908381818185875af1925050503d80600081146111b6576040519150601f19603f3d011682016040523d82523d6000602084013e6111bb565b606091505b5050905080611204576040805162461bcd60e51b815260206004820152601060248201526f2a3930b739b332b9103330b4b632b21760811b604482015290519081900360640190fd5b505b505050505050505050565b611219613026565b611258576040805162461bcd60e51b81526020600482018190526024820152600080516020613ad5833981519152604482015290519081900360640190fd5b6001600160a01b03166000908152600d60205260409020805460ff19166001179055565b606081518351146112be5760405162461bcd60e51b81526004018080602001828103825260308152602001806139f06030913960400191505060405180910390fd5b6060835167ffffffffffffffff811180156112d857600080fd5b50604051908082528060200260200182016040528015611302578160200160208202803683370190505b50905060005b84518110156113f25760006001600160a01b031685828151811061132857fe5b60200260200101516001600160a01b031614156113765760405162461bcd60e51b8152600401808060200182810382526034815260200180613a566034913960400191505060405180910390fd5b6001600085838151811061138657fe5b6020026020010151815260200190815260200160002060008683815181106113aa57fe5b60200260200101516001600160a01b03166001600160a01b03168152602001908152602001600020548282815181106113df57fe5b6020908102919091010152600101611308565b509392505050565b61140333613037565b61143e5760405162461bcd60e51b81526004018080602001828103825260238152602001806139976023913960400191505060405180910390fd5b6114488282613061565b5050565b6009602052816000526040600020818154811061146557fe5b90600052602060002001600091509150505481565b611482613026565b6114c1576040805162461bcd60e51b81526020600482018190526024820152600080516020613ad5833981519152604482015290519081900360640190fd5b6000828152600e602090815260408083206001600160a01b038516845290915290208054600190910154816115275760405162461bcd60e51b815260040180806020018281038252602a815260200180613b2a602a913960400191505060405180910390fd5b6001600160a01b038316600081815260086020908152604080832080548601905580518082018252838152808301849052888452600e8352818420948452939091529020611576916002613751565b50604080516001600160a01b038516815260208101849052815186927fd7e908f6f9af1236bea3e4382bb17cabca5929dec62fbb431284240820150ddd928290030190a250505050565b600082815260026020526040902054611620576040805162461bcd60e51b815260206004820152601960248201527f5374617368426c6f783a20556e6b6e6f776e20746f6b656e2e00000000000000604482015290519081900360640190fd5b6000811161165f5760405162461bcd60e51b815260040180806020018281038252602881526020018061396f6028913960400191505060405180910390fd5b6000828152601060209081526040808320546002909252822054611690916127109161168a916130a0565b90613100565b60008481526001602090815260408083203384529091529020549091508111156116eb5760405162461bcd60e51b81526004018080602001828103825260368152602001806139ba6036913960400191505060405180910390fd5b6000838152600160209081526040808320338452825280832054868452600290925282205461171991613142565b9050600061172782856130a0565b9050803410156117685760405162461bcd60e51b8152600401808060200182810382526035815260200180613af56035913960400191505060405180910390fd5b604080518082018252858152346020808301919091526000888152600e82528381203382529091529190912061179f916002613794565b506040805133815260208101869052815187927f2a7673db20f80755f65f456687dc9fd630454e8c76e428cb4a4ae1d0410cef5e928290030190a25050505050565b6117e9613026565b611828576040805162461bcd60e51b81526020600482018190526024820152600080516020613ad5833981519152604482015290519081900360640190fd5b6001600160a01b03166000908152600f60205260409020805460ff19166001179055565b611854613026565b611893576040805162461bcd60e51b81526020600482018190526024820152600080516020613ad5833981519152604482015290519081900360640190fd5b6000908152600c60205260409020805460ff19166001179055565b6118b733613037565b6118f25760405162461bcd60e51b81526004018080602001828103825260238152602001806139976023913960400191505060405180910390fd5b600581905560408051828152905133917f5c5a35dc0829d2f6a31d1d6da57c4315ba7b562ee447c87b75c732cfd96abde9919081900360200190a250565b611938613026565b611977576040805162461bcd60e51b81526020600482018190526024820152600080516020613ad5833981519152604482015290519081900360640190fd5b6001600160a01b03166000908152600f60205260409020805460ff19169055565b6000546001600160a01b031690565b6119b033613037565b6119eb5760405162461bcd60e51b81526004018080602001828103825260238152602001806139976023913960400191505060405180910390fd5b60008281526004602090815260408083208151808301909252428252818301859052805460018101825590845291909220611a2e92600292830290910191613794565b506040805183815260208101839052815133927f4bd9446604f43017ac3918d8db419b59a3b6f2a6cdd456eed5de99621bb62765928290030190a25050565b336001600160a01b0383161415611ab55760405162461bcd60e51b815260040180806020018281038252602c815260200180613943602c913960400191505060405180910390fd5b3360008181526011602090815260408083206001600160a01b03871680855290835292819020805460ff1916861515908117909155815190815290519293927f17307eab39ab6107e8899845ad3d59bd9653f200f220920489ca2b5937696c31929181900390910190a35050565b611b2b613026565b611b6a576040805162461bcd60e51b81526020600482018190526024820152600080516020613ad5833981519152604482015290519081900360640190fd5b6000828152600e602090815260408083206001600160a01b03851684529091529020805460019091015481611bd05760405162461bcd60e51b815260040180806020018281038252602a815260200180613b2a602a913960400191505060405180910390fd5b6000848152601060209081526040808320546002909252822054611bfb916127109161168a916130a0565b60008681526001602090815260408083206001600160a01b0389168452909152902054909150811115611c5f5760405162461bcd60e51b81526004018080602001828103825260388152602001806138926038913960400191505060405180910390fd5b60008581526001602090815260408083206001600160a01b03881684528252808320548884526002909252822054611c9691613142565b90506000611ca482866130a0565b905080841015611ce55760405162461bcd60e51b815260040180806020018281038252603f815260200180613bd3603f913960400191505060405180910390fd5b60005b6000888152600a6020526040902054811015611da0576000888152600a60205260408120805483908110611d1857fe5b60009182526020808320909101548b83526001825260408084206001600160a01b03909216808552919092529120549091508015611d96576000611d5c89836130a0565b6001600160a01b038416600081815260086020908152604080832080549095019094558e8252600181528382209282529190915290812055505b5050600101611ce8565b50600087815260026020908152604080832054600183528184206001600160a01b038b1685529092529091205580841115611df6576001600160a01b038616600090815260086020526040902080548286030190555b604080518082018252600080825260208083018290528a8252600e81528382206001600160a01b038b168352905291909120611e33916002613751565b50604080516001600160a01b038816815260208101879052815189927f1a28571d07f35a57e1ed755a57928ae32539f444bbcef661637165f04fb5083f928290030190a250505050505050565b606060005b6000838152600a6020526040902054811015611f53576000838152600a60205260408120805483908110611eb557fe5b60009182526020808320909101548683526001825260408084206001600160a01b039092168085529190925291205490915015611f4a57825115611f3557611f1683604051806040016040528060018152602001600160fd1b8152506129be565b9250611f2e83610ea3836001600160a01b0316612902565b9250611f4a565b611f47816001600160a01b0316612902565b92505b50600101611e85565b50919050565b611f61613026565b611fa0576040805162461bcd60e51b81526020600482018190526024820152600080516020613ad5833981519152604482015290519081900360640190fd5b6001600160a01b03166000908152600d60205260409020805460ff19169055565b6000610e1282613184565b60009081526002602052604090205490565b6000610e1282613037565b6000611ff6848484613199565b949350505050565b6000610e1282613312565b61201233613037565b61204d5760405162461bcd60e51b81526004018080602001828103825260238152602001806139976023913960400191505060405180910390fd5b6000878152600260205260409020541580156120695750600086115b80156120755750600084115b80156120815750600083115b801561208f57506127108311155b801561209c575060008251115b80156120a9575080518251145b6120fa576040805162461bcd60e51b815260206004820152601c60248201527f5374617368426c6f783a20496e76616c696420617267756d656e747300000000604482015290519081900360640190fd5b6000805b82518110156121795782818151811061211357fe5b602002602001015182019150600083828151811061212d57fe5b6020026020010151116121715760405162461bcd60e51b815260040180806020018281038252603c815260200180613b54603c913960400191505060405180910390fd5b6001016120fe565b5080612710146121ba5760405162461bcd60e51b8152600401808060200182810382526043815260200180613b906043913960600191505060405180910390fd5b6000888152600b602090815260408083206001600160a01b038d16808552908352818420805460ff191660019081179091556009845282852080548083018255908652848620018d90558c8552600284528285208c90558352818420908452909152902087905561222b8887613061565b60008881526003602090815260408083206001600160a01b038d168452825280832042908190558b845260048352818420825180840190935290825281830189905280546001810182559084529190922061228e92600292830290910191613794565b5060008881526010602090815260408083208790556006825290912084516122b8928601906137c2565b50600088815260076020908152604090912083516122d892850190613823565b50604080518981526020810189905281516001600160a01b038c169260009233927fc3d58168c5ae7397731d063d5bbf3d657854427343f4c083240f7aacaa2d0f62929181900390910190a4505050505050505050565b60606001600160a01b0382166123765760405162461bcd60e51b815260040180806020018281038252602b8152602001806138ca602b913960400191505060405180910390fd5b60005b6001600160a01b038316600090815260096020526040902054811015611f53576001600160a01b03831660009081526009602052604081208054839081106123bd57fe5b60009182526020808320909101548083526001825260408084206001600160a01b03891685529092529120549091501561243d578251156124315761241b83604051806040016040528060018152602001600160fd1b8152506129be565b925061242a83610ea383612902565b925061243d565b61243a81612902565b92505b50600101612379565b60086020526000908152604090205481565b6040518060400160405280601d81526020017f68747470733a2f2f7374617368626c6f782e636f6d2f746f6b656e732f00000081525081565b612499613026565b6124d8576040805162461bcd60e51b81526020600482018190526024820152600080516020613ad5833981519152604482015290519081900360640190fd5b6000908152600c60205260409020805460ff19169055565b6001600160a01b03918216600090815260116020908152604080832093909416825291909152205460ff1690565b600360209081526000928352604080842090915290825290205481565b6001600160a01b0385166125805760405162461bcd60e51b815260040180806020018281038252602881526020018061391b6028913960400191505060405180910390fd5b6001600160a01b0386163314806125a2575061259c86336124f0565b15156001145b6125dd5760405162461bcd60e51b8152600401808060200182810382526037815260200180613c126037913960400191505060405180910390fd5b346125eb8787878785612ac8565b81039050856001600160a01b0316876001600160a01b0316336001600160a01b03167fc3d58168c5ae7397731d063d5bbf3d657854427343f4c083240f7aacaa2d0f628888604051808381526020018281526020019250505060405180910390a4612690338888888888888080601f01602080910402602001604051908101604052809392919081815260200183838082843760009201919091525061333092505050565b801561272857604051600090339083908381818185875af1925050503d80600081146126d8576040519150601f19603f3d011682016040523d82523d6000602084013e6126dd565b606091505b5050905080612726576040805162461bcd60e51b815260206004820152601060248201526f2a3930b739b332b9103330b4b632b21760811b604482015290519081900360640190fd5b505b50505050505050565b612739613026565b612778576040805162461bcd60e51b81526020600482018190526024820152600080516020613ad5833981519152604482015290519081900360640190fd5b612781816134a5565b50565b61278c613026565b6127cb576040805162461bcd60e51b81526020600482018190526024820152600080516020613ad5833981519152604482015290519081900360640190fd5b6001600160a01b038216600090815260086020526040902054811115612838576040805162461bcd60e51b815260206004820181905260248201527f5374617368426c6f783a20496e73756666696369656e742062616c616e63652e604482015290519081900360640190fd5b6040516000906001600160a01b0384169083908381818185875af1925050503d8060008114612883576040519150601f19603f3d011682016040523d82523d6000602084013e612888565b606091505b50509050806128de576040805162461bcd60e51b815260206004820152601d60248201527f5374617368426c6f783a205769746864726177616c206661696c65642e000000604482015290519081900360640190fd5b506001600160a01b0390911660009081526008602052604090208054919091039055565b60606000825b801561291e576001919091019060109004612908565b60608267ffffffffffffffff8111801561293757600080fd5b506040519080825280601f01601f191660200182016040528015612962576020820181803683370190505b50905060005b838110156129b55760108606925061297f83613545565b826001838703038151811061299057fe5b60200101906001600160f81b031916908160001a905350601086049550600101612968565b50949350505050565b805182516060918491849184910167ffffffffffffffff811180156129e257600080fd5b506040519080825280601f01601f191660200182016040528015612a0d576020820181803683370190505b509050806000805b8551811015612a6657858181518110612a2a57fe5b602001015160f81c60f81b838380600101945081518110612a4757fe5b60200101906001600160f81b031916908160001a905350600101612a15565b5060005b8451811015612abb57848181518110612a7f57fe5b602001015160f81c60f81b838380600101945081518110612a9c57fe5b60200101906001600160f81b031916908160001a905350600101612a6a565b5090979650505050505050565b6000612ad686868686613589565b15612b11576040805162461bcd60e51b8152602060048201526006602482015265131bd8dad95960d21b604482015290519081900360640190fd5b612b1c868585613199565b905080821015612b5d5760405162461bcd60e51b815260040180806020018281038252602b815260200180613ca8602b913960400191505060405180910390fd5b612ba4836040518060600160405280602a8152602001613a8a602a913960008781526001602090815260408083206001600160a01b038d16845290915290205491906135c4565b60008581526001602090815260408083206001600160a01b038b811685529252808320939093558716815290812054612bdd908561365b565b60008681526001602090815260408083206001600160a01b038b168452909152902054909150612cbf576000858152600b602090815260408083206001600160a01b038a16845290915290205460ff16612c95576001600160a01b0386166000818152600960209081526040808320805460018181018355918552838520018a9055898452600a83528184208054918201815584528284200180546001600160a01b03191685179055888352600b8252822092909152525b60008581526003602090815260408083206001600160a01b038a1684529091529020429055612d50565b60008581526003602090815260408083206001600160a01b038a168452909152812054612ced904290613142565b60008781526001602090815260408083206001600160a01b038c16845290915281205491925090612d2490849061168a90856130a0565b60008881526003602090815260408083206001600160a01b038d16845290915290204291909103905550505b60008581526001602090815260408083206001600160a01b038a16845290915281208290555b600086815260066020526040902054811015612e22576000868152600660205260408120805483908110612da657fe5b600091825260208083209091015489835260079091526040822080546001600160a01b0390921693509084908110612dda57fe5b6000918252602090912001549050612df861271061168a87846130a0565b6001600160a01b039092166000908152600860205260409020805490920190915550600101612d76565b505095945050505050565b612e3f846001600160a01b03166136b5565b1561301e5763bc197c8160e01b6001600160e01b031916846001600160a01b031663bc197c8188888787876040518663ffffffff1660e01b815260040180866001600160a01b03168152602001856001600160a01b03168152602001806020018060200180602001848103845287818151815260200191508051906020019060200280838360005b83811015612edf578181015183820152602001612ec7565b50505050905001848103835286818151815260200191508051906020019060200280838360005b83811015612f1e578181015183820152602001612f06565b50505050905001848103825285818151815260200191508051906020019080838360005b83811015612f5a578181015183820152602001612f42565b50505050905090810190601f168015612f875780820380516001836020036101000a031916815260200191505b5098505050505050505050602060405180830381600087803b158015612fac57600080fd5b505af1158015612fc0573d6000803e3d6000fd5b505050506040513d6020811015612fd657600080fd5b50516001600160e01b0319161461301e5760405162461bcd60e51b8152600401808060200182810382526036815260200180613a206036913960400191505060405180910390fd5b505050505050565b6000546001600160a01b0316331490565b6001600160a01b0381166000908152600f602052604081205460ff1680610e125750610e12613026565b60008281526012602052604080822083905551829184917f9cd9c60390fc75c213fd8d644749f61388dd30ed6c6eb4647b793b5b580fb4309190a35050565b6000826130af57506000610e12565b828202828482816130bc57fe5b04146130f95760405162461bcd60e51b8152600401808060200182810382526021815260200180613ab46021913960400191505060405180910390fd5b9392505050565b60006130f983836040518060400160405280601a81526020017f536166654d6174683a206469766973696f6e206279207a65726f0000000000008152506136ec565b60006130f983836040518060400160405280601e81526020017f536166654d6174683a207375627472616374696f6e206f766572666c6f7700008152506135c4565b6000908152600c602052604090205460ff1690565b60006001600160a01b0384166131e05760405162461bcd60e51b815260040180806020018281038252602b8152602001806138ca602b913960400191505060405180910390fd5b6000838152600460205260408120544290600019015b600086815260046020526040812080548390811061321057fe5b6000918252602082206002909102010154905060006305f5e100600554600460008b8152602001908152602001600020858154811061324b57fe5b906000526020600020906002020160016002811061326557fe5b0154028161326f57fe5b60008a81526003602090815260408083206001600160a01b038f1684529091528120549290910492509083116132e2575060008881526003602090815260408083206001600160a01b038d1684529091529020546201518090850304806132d4575060015b028602939093019250613307565b506201518082850304806132f4575060015b02860293909301929150600019016131f6565b509095945050505050565b6001600160a01b03166000908152600d602052604090205460ff1690565b613342846001600160a01b03166136b5565b1561301e5763f23a6e6160e01b6001600160e01b031916846001600160a01b031663f23a6e6188888787876040518663ffffffff1660e01b815260040180866001600160a01b03168152602001856001600160a01b0316815260200184815260200183815260200180602001828103825283818151815260200191508051906020019080838360005b838110156133e35781810151838201526020016133cb565b50505050905090810190601f1680156134105780820380516001836020036101000a031916815260200191505b509650505050505050602060405180830381600087803b15801561343357600080fd5b505af1158015613447573d6000803e3d6000fd5b505050506040513d602081101561345d57600080fd5b50516001600160e01b0319161461301e5760405162461bcd60e51b8152600401808060200182810382526031815260200180613c776031913960400191505060405180910390fd5b6001600160a01b0381166134ea5760405162461bcd60e51b81526004018080602001828103825260268152602001806138f56026913960400191505060405180910390fd5b600080546040516001600160a01b03808516939216917f8be0079c531659141344cd1fd0a4f28419497f9722a3daafe3b4186f6b6457e091a3600080546001600160a01b0319166001600160a01b0392909216919091179055565b600060098260ff161161355f57506030810160f81b610e5a565b8160ff16600a111580156135775750600f8260ff1611155b1561021957506057810160f81b610e5a565b600061359483613184565b806135a357506135a385613312565b806135b257506135b284613312565b806135bb575081155b95945050505050565b600081848411156136535760405162461bcd60e51b81526004018080602001828103825283818151815260200191508051906020019080838360005b83811015613618578181015183820152602001613600565b50505050905090810190601f1680156136455780820380516001836020036101000a031916815260200191505b509250505060405180910390fd5b505050900390565b6000828201838110156130f9576040805162461bcd60e51b815260206004820152601b60248201527f536166654d6174683a206164646974696f6e206f766572666c6f770000000000604482015290519081900360640190fd5b6000813f7fc5d2460186f7233c927e7db2dcc703c0e500b653ca82273b7bfad8045d85a4708115801590611ff65750141592915050565b6000818361373b5760405162461bcd60e51b8152602060048201818152835160248401528351909283926044909101919085019080838360008315613618578181015183820152602001613600565b50600083858161374757fe5b0495945050505050565b8260028101928215613784579160200282015b82811115613784578251829060ff16905591602001919060010190613764565b5061379092915061385d565b5090565b8260028101928215613784579160200282015b828111156137845782518255916020019190600101906137a7565b828054828255906000526020600020908101928215613817579160200282015b8281111561381757825182546001600160a01b0319166001600160a01b039091161782556020909201916001909101906137e2565b50613790929150613872565b82805482825590600052602060002090810192821561378457916020028201828111156137845782518255916020019190600101906137a7565b5b80821115613790576000815560010161385e565b5b808211156137905780546001600160a01b031916815560010161387356fe5374617368426c6f783a20696e73756666696369656e742062616c616e636520746f2065786563757465207468652063616c6c6261636b2e455243313135353a2062616c616e636520717565727920666f7220746865207a65726f20616464726573734f776e61626c653a206e6577206f776e657220697320746865207a65726f2061646472657373455243313135353a207461726765742061646472657373206d757374206265206e6f6e2d7a65726f455243313135353a2063616e6e6f742073657420617070726f76616c2073746174757320666f722073656c665374617368426c6f783a205072696365206d7573742062652067726561746572207468616e20302e4d696e7461626c653a2063616c6c6572206973206e6f74206120746f6b656e697a65725374617368426c6f783a20696e73756666696369656e742062616c616e636520746f2070726f706f736520612063616c6c6261636b2e455243313135353a206163636f756e747320616e6420494473206d75737420686176652073616d65206c656e67746873455243313135353a20676f7420756e6b6e6f776e2076616c75652066726f6d206f6e4552433131353542617463685265636569766564455243313135353a20736f6d65206164647265737320696e2062617463682062616c616e6365207175657279206973207a65726f455243313135353a20696e73756666696369656e742062616c616e636520666f72207472616e73666572536166654d6174683a206d756c7469706c69636174696f6e206f766572666c6f774f776e61626c653a2063616c6c6572206973206e6f7420746865206f776e65725374617368426c6f783a20696e73756666696369656e742076616c756520666f72207468652070726f706f7365642070726963652e5374617368426c6f783a2063616c6c6261636b2070726f706f736974696f6e206e6f7420666f756e642e5374617368426c6f783a2066656573526563697069656e747350657263656e746167652073686f756c642062652067726561746572207468616e20305374617368426c6f783a20546f74616c206f662066656573526563697069656e747350657263656e74616765206d75737420626520657175616c20746f2031303030305374617368426c6f783a20696e73756666696369656e7420657363726f7765642076616c756520746f2065786563757465207468652063616c6c6261636b2e455243313135353a206e656564206f70657261746f7220617070726f76616c20666f7220337264207061727479207472616e7366657273455243313135353a2049447320616e642076616c756573206d75737420686176652073616d65206c656e67746873455243313135353a20676f7420756e6b6e6f776e2076616c75652066726f6d206f6e455243313135355265636569766564455243313135353a20696e73756666696369656e742045544820666f72207472616e736665722066656573a2646970667358221220c7b49c49ea1d3c44d4b9a8a6d359b213716f395f3ab0ea97e3003a601469fefe64736f6c634300070100334f776e61626c653a206e6577206f776e657220697320746865207a65726f2061646472657373",
  "immutableReferences": {},
  "source": "pragma solidity ^0.7.1;\n\nimport './lib/ERC1155/ERC1155.sol';\nimport './lib/ERC1155/ERC1155Metadata.sol';\nimport \"./lib/utils/SafeMath.sol\";\n\ncontract StashBlox is ERC1155, ERC1155Metadata {\n\n    using SafeMath for uint256;\n\n    function authorizeTokenizer(address tokenizer) external onlyOwner {\n        _authorizedTokenizers[tokenizer] = true;\n    }\n\n    function revokeTokenizer(address tokenizer) external onlyOwner {\n        _authorizedTokenizers[tokenizer] = false;\n    }\n\n    function isTokenizer(address tokenizer) external view returns (bool) {\n        return _isTokenizer(tokenizer);\n    }\n\n    function lockToken(uint256 id) external onlyOwner {\n        _tokenLocks[id] = true;\n    }\n\n    function unlockToken(uint256 id) external onlyOwner {\n        _tokenLocks[id] = false;\n    }\n\n    function isLockedToken(uint256 id) external view returns (bool){\n        return _isLockedToken(id);\n    }\n\n    function lockAddress(address addr) external onlyOwner {\n        _addressLocks[addr] = true;\n    }\n\n    function unlockAddress(address addr) external onlyOwner {\n        _addressLocks[addr] = false;\n    }\n\n    function isLockedAddress(address addr) external view returns (bool){\n        return _isLockedAddress(addr);\n    }\n\n    /**\n     * @dev Function to mint an amount of a token with the given ID.\n     * @param recipient The address that will own the minted tokens\n     * @param id ID of the token to be minted\n     * @param supply Amount of the token to be minted\n     * @param metadataHash Metadata file hash\n     * @param storageCreditCost cost for 24h storage in storageCredit (x 10 ^ 8 for the precision)\n     * @param minHoldingForCallback minimum holding to propose a callback\n     * @param feesRecipients list of addresses receiving transfer fees\n     * @param feesRecipientsPercentage list of percentage, each one for the corresponding feesRecipients\n     */\n    function createToken(address recipient,\n                         uint256 id,\n                         uint256 supply,\n                         uint256 metadataHash,\n                         uint256 storageCreditCost,\n                         uint256 minHoldingForCallback,\n                         address[] memory feesRecipients,\n                         uint256[] memory feesRecipientsPercentage)\n    external onlyTokenizer {\n\n        // require(_supplies[id] == 0, \"StashBlox: Token already minted\");\n        // require(supply > 0, \"StashBlox: supply should be greater than 0\");\n        // require(storageCreditCost > 0, \"StashBlox: storageCreditCost should be greater than 0\");\n        // require(minHoldingForCallback > 0, \"StashBlox: minHoldingForCallback should be greater than 0\");\n        // require(minHoldingForCallback <= 10000, \"StashBlox: minHoldingForCallback should be lower or equal than 10000\");\n        // require(feesRecipients.length > 0, \"StashBlox: need at least one feesRecipients\");\n        // require(feesRecipients.length == feesRecipientsPercentage.length, \"StashBlox: invalid feesRecipientsPercentage length\");\n        require(_supplies[id] == 0 &&\n                supply > 0 &&\n                storageCreditCost > 0 &&\n                minHoldingForCallback > 0 &&\n                minHoldingForCallback <= 10000 &&\n                feesRecipients.length > 0 &&\n                feesRecipients.length == feesRecipientsPercentage.length, \"StashBlox: Invalid arguments\");\n\n        uint256 totalPercentage = 0;\n        for (uint256 i = 0; i < feesRecipientsPercentage.length; ++i) {\n            totalPercentage += feesRecipientsPercentage[i];\n            require(feesRecipientsPercentage[i] > 0, \"StashBlox: feesRecipientsPercentage should be greater than 0\");\n        }\n        require(totalPercentage == 10000, \"StashBlox: Total of feesRecipientsPercentage must be equal to 10000\");\n\n        _isHolder[id][recipient] = true;\n        _tokensByAddress[recipient].push(id);\n        _supplies[id] = supply;\n        _balances[id][recipient] = supply;\n        _updateMetadataHash(id, metadataHash);\n        _birthdays[id][recipient] = block.timestamp;\n        _storageCostHistory[id].push([block.timestamp, storageCreditCost]);\n        _minHoldingForCallback[id] = minHoldingForCallback;\n        _feesRecipients[id] = feesRecipients;\n        _feesRecipientsPercentage[id] = feesRecipientsPercentage;\n\n        emit TransferSingle(msg.sender, address(0), recipient, id, supply);\n        // emit URI(uri, id);\n    }\n\n\n    function updateMetadataHash(uint256 id, uint256 metadataHash) external onlyTokenizer {\n      _updateMetadataHash(id, metadataHash);\n    }\n\n    function updateStorageCreditPrice(uint256 newPrice) external onlyTokenizer {\n      storageCreditPrice = newPrice;\n      emit UpdateStorageCreditPrice(msg.sender, newPrice);\n    }\n\n    function updateStorageCost(uint256 id, uint256 newCost) external onlyTokenizer {\n      _storageCostHistory[id].push([block.timestamp, newCost]);\n      emit UpdateStorageCost(msg.sender, id, newCost);\n    }\n\n    function withdraw(address to, uint256 amount) external onlyOwner {\n      require(_ETHBalances[to] >= amount, \"StashBlox: Insufficient balance.\");\n      (bool success, ) = to.call{value: amount}(\"\");\n      require(success, \"StashBlox: Withdrawal failed.\");\n      _ETHBalances[to] -= amount;\n    }\n\n    /**\n     * @param id Token ID\n     * @return Token supply\n     */\n    function totalSupply(uint256 id) external view returns (uint256) {\n        return _supplies[id];\n    }\n\n    /**\n     * @dev Propose to buy the whole supply of a token.\n     * The proposer must hold minHoldingForCallback% of the total supply.\n     * StashBlox must approve the price with acceptCallback();\n     * @param id Token ID\n     * @param price proposed price\n     */\n    function proposeCallback(uint256 id, uint256 price) external payable {\n      require(_supplies[id] > 0, \"StashBlox: Unknown token.\");\n      require(price > 0, \"StashBlox: Price must be greater than 0.\");\n\n      uint256 minHolding = (_supplies[id].mul(_minHoldingForCallback[id])).div(10000);\n      require(_balances[id][msg.sender] >= minHolding, \"StashBlox: insufficient balance to propose a callback.\");\n\n      uint256 callbackAmount = _supplies[id].sub(_balances[id][msg.sender]);\n      uint256 callbackPrice = callbackAmount.mul(price);\n      require(msg.value >= callbackPrice, \"StashBlox: insufficient value for the proposed price.\");\n\n      _callbackPropositions[id][msg.sender] = [price, msg.value];\n      emit CallbackProposed(id, msg.sender, price);\n    }\n\n    /**\n     * @dev Refuse a callback if the price is not enough.\n     * @param id Token ID\n     * @param proposer address of the proposer\n     */\n    function refuseCallback(uint256 id, address proposer) external onlyOwner {\n      uint256 price = _callbackPropositions[id][proposer][0];\n      uint256 escrowedAmount = _callbackPropositions[id][proposer][1];\n\n      require(price > 0, \"StashBlox: callback proposition not found.\");\n\n      // return escrowed amount. Proposer must use withdraw() function to get\n      // escrowed amount.\n      _ETHBalances[proposer] += escrowedAmount;\n\n      _callbackPropositions[id][proposer] = [0, 0];\n      emit CallbackRefused(id, proposer, price);\n    }\n\n    /**\n     * @dev Accept a callback\n     * @param id Token ID\n     * @param proposer address of the proposer\n     */\n    function acceptCallback(uint256 id, address proposer) external onlyOwner {\n      uint256 price = _callbackPropositions[id][proposer][0];\n      uint256 escrowedAmount = _callbackPropositions[id][proposer][1];\n\n      require(price > 0, \"StashBlox: callback proposition not found.\");\n\n      uint256 minHolding = (_supplies[id].mul(_minHoldingForCallback[id])).div(10000);\n      require(_balances[id][proposer] >= minHolding, \"StashBlox: insufficient balance to execute the callback.\");\n\n      uint256 callbackAmount = _supplies[id].sub(_balances[id][proposer]);\n      uint256 callbackPrice = callbackAmount.mul(price);\n      require(escrowedAmount >= callbackPrice, \"StashBlox: insufficient escrowed value to execute the callback.\");\n\n      // move tokens to the proposer address and escrowed ETH to the holders addresses\n      // Holders must use withdraw() function to get paiement amount.\n      for (uint256 i = 0; i < _addressesByToken[id].length; ++i) {\n        address holderAddress = _addressesByToken[id][i];\n        uint256 holderBalance = _balances[id][holderAddress];\n        if (holderBalance > 0) {\n          uint256 holderPrice = price.mul(holderBalance);\n          _ETHBalances[holderAddress] += holderPrice;\n          _balances[id][holderAddress] = 0;\n        }\n      }\n      _balances[id][proposer] = _supplies[id];\n      if (escrowedAmount > callbackPrice) {\n        _ETHBalances[proposer] += escrowedAmount - callbackPrice;\n      }\n\n      _callbackPropositions[id][proposer] = [0, 0];\n      emit CallbackAccepted(id, proposer, price);\n    }\n\n\n    function storageFees(address account, uint256 id, uint256 value) public view returns (uint256) {\n        return _storageFees(account, id, value);\n    }\n\n\n    function tokensByAddress(address account) public view returns (string memory result) {\n        require(account != address(0), \"ERC1155: balance query for the zero address\");\n\n        for (uint i = 0; i < _tokensByAddress[account].length; i++) {\n            uint256 id = _tokensByAddress[account][i];\n            if (_balances[id][account] > 0) {\n              if (bytes(result).length > 0) {\n                result = _strConcat(result, \" \");\n                result = _strConcat(result, _toHexString(id));\n              } else {\n                result = _toHexString(id);\n              }\n            }\n        }\n        return result;\n    }\n\n\n    function addressesByToken(uint256 id) public view returns (string memory result) {\n\n        for (uint i = 0; i < _addressesByToken[id].length; i++) {\n            address account = _addressesByToken[id][i];\n            if (_balances[id][account] > 0) {\n              if (bytes(result).length > 0) {\n                result = _strConcat(result, \" \");\n                result = _strConcat(result, _toHexString(uint256(account)));\n              } else {\n                result = _toHexString(uint256(account));\n              }\n            }\n        }\n        return result;\n    }\n}\n",
  "sourcePath": "/home/ouziel/Work/StashBloxContracts/contracts/StashBlox.sol",
  "compiler": {
    "name": "solc",
    "version": "0.7.1+commit.f4a555be.Emscripten.clang"
  },
  "schemaVersion": "3.2.3",
  "updatedAt": "2020-10-02T10:42:07.711Z",
  "devdoc": {
    "kind": "dev",
    "methods": {
      "acceptCallback(uint256,address)": {
        "details": "Accept a callback",
        "params": {
          "id": "Token ID",
          "proposer": "address of the proposer"
        }
      },
      "balanceOf(address,uint256)": {
        "details": "Get the specified address' balance for token with specified ID. Attempting to query the zero account for a balance will result in a revert.",
        "params": {
          "account": "The address of the token holder",
          "id": "ID of the token"
        },
        "returns": {
          "_0": "The account's balance of the token type requested"
        }
      },
      "balanceOfBatch(address[],uint256[])": {
        "details": "Get the balance of multiple account/token pairs. If any of the query accounts is the zero account, this query will revert.",
        "params": {
          "accounts": "The addresses of the token holders",
          "ids": "IDs of the tokens"
        },
        "returns": {
          "_0": "Balances for each account and token id pair"
        }
      },
      "createToken(address,uint256,uint256,uint256,uint256,uint256,address[],uint256[])": {
        "details": "Function to mint an amount of a token with the given ID.",
        "params": {
          "feesRecipients": "list of addresses receiving transfer fees",
          "feesRecipientsPercentage": "list of percentage, each one for the corresponding feesRecipients",
          "id": "ID of the token to be minted",
          "metadataHash": "Metadata file hash",
          "minHoldingForCallback": "minimum holding to propose a callback",
          "recipient": "The address that will own the minted tokens",
          "storageCreditCost": "cost for 24h storage in storageCredit (x 10 ^ 8 for the precision)",
          "supply": "Amount of the token to be minted"
        }
      },
      "isApprovedForAll(address,address)": {
        "params": {
          "account": "The account of the Tokens",
          "operator": "Address of authorized operator"
        },
        "returns": {
          "_0": "True if the operator is approved, false if not"
        }
      },
      "owner()": {
        "details": "Returns the address of the current owner."
      },
      "proposeCallback(uint256,uint256)": {
        "details": "Propose to buy the whole supply of a token. The proposer must hold minHoldingForCallback% of the total supply. StashBlox must approve the price with acceptCallback();",
        "params": {
          "id": "Token ID",
          "price": "proposed price"
        }
      },
      "refuseCallback(uint256,address)": {
        "details": "Refuse a callback if the price is not enough.",
        "params": {
          "id": "Token ID",
          "proposer": "address of the proposer"
        }
      },
      "safeBatchTransferFrom(address,address,uint256[],uint256[],bytes)": {
        "details": "Transfers `values` amount(s) of `ids` from the `from` address to the `to` address specified. Caller must be approved to manage the tokens being transferred out of the `from` account. If `to` is a smart contract, will call `onERC1155BatchReceived` on `to` and act appropriately.",
        "params": {
          "data": "Data forwarded to `onERC1155Received` if `to` is a contract receiver",
          "from": "Source address",
          "ids": "IDs of each token type",
          "to": "Target address",
          "values": "Transfer amounts per token type"
        }
      },
      "safeTransferFrom(address,address,uint256,uint256,bytes)": {
        "details": "Transfers `value` amount of an `id` from the `from` address to the `to` address specified. Caller must be approved to manage the tokens being transferred out of the `from` account. If `to` is a smart contract, will call `onERC1155Received` on `to` and act appropriately.",
        "params": {
          "data": "Data forwarded to `onERC1155Received` if `to` is a contract receiver",
          "from": "Source address",
          "id": "ID of the token type",
          "to": "Target address",
          "value": "Transfer amount"
        }
      },
      "setApprovalForAll(address,bool)": {
        "details": "Sets or unsets the approval of a given operator. An operator is allowed to transfer all tokens of the sender on their behalf. Because an account already has operator privileges for itself, this function will revert if the account attempts to set the approval status for itself.",
        "params": {
          "approved": "representing the status of the approval to be set",
          "operator": "address to set the approval"
        }
      },
      "supportsInterface(bytes4)": {
        "params": {
          "_interfaceID": "The interface identifier, as specified in ERC-165"
        },
        "returns": {
          "_0": "`true` if the contract implements `_interfaceID` and"
        }
      },
      "totalSupply(uint256)": {
        "params": {
          "id": "Token ID"
        },
        "returns": {
          "_0": "Token supply"
        }
      },
      "transferOwnership(address)": {
        "details": "Transfers ownership of the contract to a new account (`newOwner`). Can only be called by the current owner."
      },
      "uri(uint256)": {
        "params": {
          "id": "Token ID"
        },
        "returns": {
          "_0": "URI string"
        }
      }
    },
    "version": 1
  },
  "userdoc": {
    "kind": "user",
    "methods": {
      "isApprovedForAll(address,address)": {
        "notice": "Queries the approval status of an operator for a given account."
      },
      "supportsInterface(bytes4)": {
        "notice": "Query if a contract implements an interface"
      }
    },
    "version": 1
  }
}