{
  "contractName": "StashBlox",
  "abi": [
    {
      "inputs": [],
      "stateMutability": "nonpayable",
      "type": "constructor"
    },
    {
      "anonymous": false,
      "inputs": [
        {
          "indexed": true,
          "internalType": "address",
          "name": "_owner",
          "type": "address"
        },
        {
          "indexed": true,
          "internalType": "address",
          "name": "_operator",
          "type": "address"
        },
        {
          "indexed": false,
          "internalType": "bool",
          "name": "_approved",
          "type": "bool"
        }
      ],
      "name": "ApprovalForAll",
      "type": "event"
    },
    {
      "anonymous": false,
      "inputs": [
        {
          "indexed": true,
          "internalType": "uint256",
          "name": "_CallbackId",
          "type": "uint256"
        }
      ],
      "name": "CallbackUpdated",
      "type": "event"
    },
    {
      "anonymous": false,
      "inputs": [
        {
          "indexed": true,
          "internalType": "address",
          "name": "previousOwner",
          "type": "address"
        },
        {
          "indexed": true,
          "internalType": "address",
          "name": "newOwner",
          "type": "address"
        }
      ],
      "name": "OwnershipTransferred",
      "type": "event"
    },
    {
      "anonymous": false,
      "inputs": [
        {
          "indexed": true,
          "internalType": "uint256",
          "name": "_id",
          "type": "uint256"
        },
        {
          "indexed": false,
          "internalType": "uint256",
          "name": "_documentHash",
          "type": "uint256"
        }
      ],
      "name": "TokenUpdated",
      "type": "event"
    },
    {
      "anonymous": false,
      "inputs": [
        {
          "indexed": true,
          "internalType": "address",
          "name": "_operator",
          "type": "address"
        },
        {
          "indexed": true,
          "internalType": "address",
          "name": "_from",
          "type": "address"
        },
        {
          "indexed": true,
          "internalType": "address",
          "name": "_to",
          "type": "address"
        },
        {
          "indexed": false,
          "internalType": "uint256[]",
          "name": "_ids",
          "type": "uint256[]"
        },
        {
          "indexed": false,
          "internalType": "uint256[]",
          "name": "_values",
          "type": "uint256[]"
        }
      ],
      "name": "TransferBatch",
      "type": "event"
    },
    {
      "anonymous": false,
      "inputs": [
        {
          "indexed": true,
          "internalType": "address",
          "name": "_operator",
          "type": "address"
        },
        {
          "indexed": true,
          "internalType": "address",
          "name": "_from",
          "type": "address"
        },
        {
          "indexed": true,
          "internalType": "address",
          "name": "_to",
          "type": "address"
        },
        {
          "indexed": false,
          "internalType": "uint256",
          "name": "_id",
          "type": "uint256"
        },
        {
          "indexed": false,
          "internalType": "uint256",
          "name": "_value",
          "type": "uint256"
        }
      ],
      "name": "TransferSingle",
      "type": "event"
    },
    {
      "anonymous": false,
      "inputs": [
        {
          "indexed": false,
          "internalType": "string",
          "name": "_value",
          "type": "string"
        },
        {
          "indexed": true,
          "internalType": "uint256",
          "name": "_id",
          "type": "uint256"
        }
      ],
      "name": "URI",
      "type": "event"
    },
    {
      "inputs": [
        {
          "internalType": "uint256",
          "name": "",
          "type": "uint256"
        }
      ],
      "name": "_callbacks",
      "outputs": [
        {
          "internalType": "uint256",
          "name": "tokenId",
          "type": "uint256"
        },
        {
          "internalType": "uint256",
          "name": "price",
          "type": "uint256"
        },
        {
          "internalType": "uint256",
          "name": "escrowedAmount",
          "type": "uint256"
        },
        {
          "internalType": "uint256",
          "name": "callCounter",
          "type": "uint256"
        },
        {
          "internalType": "uint256",
          "name": "documentHash",
          "type": "uint256"
        },
        {
          "internalType": "address",
          "name": "caller",
          "type": "address"
        },
        {
          "internalType": "bool",
          "name": "needLegalApproval",
          "type": "bool"
        },
        {
          "internalType": "bool",
          "name": "approvedByLegal",
          "type": "bool"
        },
        {
          "internalType": "bool",
          "name": "refused",
          "type": "bool"
        },
        {
          "internalType": "bool",
          "name": "accepted",
          "type": "bool"
        },
        {
          "internalType": "bool",
          "name": "completed",
          "type": "bool"
        }
      ],
      "stateMutability": "view",
      "type": "function"
    },
    {
      "inputs": [],
      "name": "_config",
      "outputs": [
        {
          "internalType": "uint256",
          "name": "callbackAutoExecuteMaxAddresses",
          "type": "uint256"
        },
        {
          "internalType": "string",
          "name": "baseURI",
          "type": "string"
        }
      ],
      "stateMutability": "view",
      "type": "function"
    },
    {
      "inputs": [
        {
          "internalType": "uint256",
          "name": "",
          "type": "uint256"
        }
      ],
      "name": "_tokens",
      "outputs": [
        {
          "internalType": "uint256",
          "name": "supply",
          "type": "uint256"
        },
        {
          "internalType": "uint256",
          "name": "decimals",
          "type": "uint256"
        },
        {
          "internalType": "uint256",
          "name": "lumpSumTransactionFees",
          "type": "uint256"
        },
        {
          "internalType": "uint256",
          "name": "valueTransactionFees",
          "type": "uint256"
        },
        {
          "internalType": "uint256",
          "name": "minHoldingForCallback",
          "type": "uint256"
        },
        {
          "internalType": "uint256",
          "name": "metadataHash",
          "type": "uint256"
        },
        {
          "internalType": "address",
          "name": "legalAuthority",
          "type": "address"
        },
        {
          "internalType": "bool",
          "name": "isPrivate",
          "type": "bool"
        },
        {
          "internalType": "bool",
          "name": "locked",
          "type": "bool"
        }
      ],
      "stateMutability": "view",
      "type": "function"
    },
    {
      "inputs": [
        {
          "internalType": "address",
          "name": "",
          "type": "address"
        }
      ],
      "name": "_users",
      "outputs": [
        {
          "internalType": "bool",
          "name": "isTokenizer",
          "type": "bool"
        },
        {
          "internalType": "bool",
          "name": "isLocked",
          "type": "bool"
        },
        {
          "internalType": "uint256",
          "name": "ETHBalance",
          "type": "uint256"
        }
      ],
      "stateMutability": "view",
      "type": "function"
    },
    {
      "inputs": [
        {
          "internalType": "uint256",
          "name": "callbackId",
          "type": "uint256"
        }
      ],
      "name": "acceptCallback",
      "outputs": [],
      "stateMutability": "nonpayable",
      "type": "function"
    },
    {
      "inputs": [
        {
          "internalType": "uint256",
          "name": "callbackId",
          "type": "uint256"
        }
      ],
      "name": "approveCallback",
      "outputs": [],
      "stateMutability": "nonpayable",
      "type": "function"
    },
    {
      "inputs": [
        {
          "internalType": "uint256",
          "name": "id",
          "type": "uint256"
        },
        {
          "internalType": "address",
          "name": "maintener",
          "type": "address"
        }
      ],
      "name": "authorizeMaintener",
      "outputs": [],
      "stateMutability": "nonpayable",
      "type": "function"
    },
    {
      "inputs": [
        {
          "internalType": "address",
          "name": "tokenizer",
          "type": "address"
        }
      ],
      "name": "authorizeTokenizer",
      "outputs": [],
      "stateMutability": "nonpayable",
      "type": "function"
    },
    {
      "inputs": [
        {
          "internalType": "address",
          "name": "account",
          "type": "address"
        },
        {
          "internalType": "uint256",
          "name": "id",
          "type": "uint256"
        }
      ],
      "name": "balanceOf",
      "outputs": [
        {
          "internalType": "uint256",
          "name": "",
          "type": "uint256"
        }
      ],
      "stateMutability": "view",
      "type": "function"
    },
    {
      "inputs": [
        {
          "internalType": "address[]",
          "name": "accounts",
          "type": "address[]"
        },
        {
          "internalType": "uint256[]",
          "name": "ids",
          "type": "uint256[]"
        }
      ],
      "name": "balanceOfBatch",
      "outputs": [
        {
          "internalType": "uint256[]",
          "name": "",
          "type": "uint256[]"
        }
      ],
      "stateMutability": "view",
      "type": "function"
    },
    {
      "inputs": [
        {
          "internalType": "uint256",
          "name": "id",
          "type": "uint256"
        },
        {
          "internalType": "uint256[]",
          "name": "ids",
          "type": "uint256[]"
        },
        {
          "internalType": "uint256[]",
          "name": "metadataHashes",
          "type": "uint256[]"
        }
      ],
      "name": "cloneToken",
      "outputs": [],
      "stateMutability": "nonpayable",
      "type": "function"
    },
    {
      "inputs": [
        {
          "internalType": "address",
          "name": "recipient",
          "type": "address"
        },
        {
          "internalType": "uint256",
          "name": "id",
          "type": "uint256"
        },
        {
          "internalType": "uint256",
          "name": "supply",
          "type": "uint256"
        },
        {
          "internalType": "uint256",
          "name": "decimals",
          "type": "uint256"
        },
        {
          "internalType": "uint256",
          "name": "metadataHash",
          "type": "uint256"
        },
        {
          "internalType": "uint256[3]",
          "name": "transactionFees",
          "type": "uint256[3]"
        },
        {
          "internalType": "address[]",
          "name": "feesRecipients",
          "type": "address[]"
        },
        {
          "internalType": "uint256[]",
          "name": "feesRecipientsPercentage",
          "type": "uint256[]"
        },
        {
          "internalType": "uint256",
          "name": "minHoldingForCallback",
          "type": "uint256"
        },
        {
          "internalType": "bool",
          "name": "isPrivate",
          "type": "bool"
        },
        {
          "internalType": "address",
          "name": "legalAuthority",
          "type": "address"
        }
      ],
      "name": "createToken",
      "outputs": [],
      "stateMutability": "nonpayable",
      "type": "function"
    },
    {
      "inputs": [
        {
          "internalType": "uint256",
          "name": "callbackId",
          "type": "uint256"
        },
        {
          "internalType": "uint256",
          "name": "maxCall",
          "type": "uint256"
        }
      ],
      "name": "executeCallback",
      "outputs": [],
      "stateMutability": "nonpayable",
      "type": "function"
    },
    {
      "inputs": [
        {
          "internalType": "address",
          "name": "account",
          "type": "address"
        },
        {
          "internalType": "address",
          "name": "operator",
          "type": "address"
        }
      ],
      "name": "isApprovedForAll",
      "outputs": [
        {
          "internalType": "bool",
          "name": "",
          "type": "bool"
        }
      ],
      "stateMutability": "view",
      "type": "function"
    },
    {
      "inputs": [
        {
          "internalType": "address",
          "name": "addr",
          "type": "address"
        }
      ],
      "name": "isLockedAddress",
      "outputs": [
        {
          "internalType": "bool",
          "name": "",
          "type": "bool"
        }
      ],
      "stateMutability": "view",
      "type": "function"
    },
    {
      "inputs": [
        {
          "internalType": "uint256",
          "name": "id",
          "type": "uint256"
        }
      ],
      "name": "isLockedToken",
      "outputs": [
        {
          "internalType": "bool",
          "name": "",
          "type": "bool"
        }
      ],
      "stateMutability": "view",
      "type": "function"
    },
    {
      "inputs": [
        {
          "internalType": "uint256",
          "name": "id",
          "type": "uint256"
        },
        {
          "internalType": "address",
          "name": "maintener",
          "type": "address"
        }
      ],
      "name": "isMaintener",
      "outputs": [
        {
          "internalType": "bool",
          "name": "",
          "type": "bool"
        }
      ],
      "stateMutability": "view",
      "type": "function"
    },
    {
      "inputs": [
        {
          "internalType": "address",
          "name": "tokenizer",
          "type": "address"
        }
      ],
      "name": "isTokenizer",
      "outputs": [
        {
          "internalType": "bool",
          "name": "",
          "type": "bool"
        }
      ],
      "stateMutability": "view",
      "type": "function"
    },
    {
      "inputs": [
        {
          "internalType": "address",
          "name": "addr",
          "type": "address"
        }
      ],
      "name": "lockAddress",
      "outputs": [],
      "stateMutability": "nonpayable",
      "type": "function"
    },
    {
      "inputs": [
        {
          "internalType": "uint256",
          "name": "id",
          "type": "uint256"
        },
        {
          "internalType": "uint256",
          "name": "documentHash",
          "type": "uint256"
        }
      ],
      "name": "lockToken",
      "outputs": [],
      "stateMutability": "nonpayable",
      "type": "function"
    },
    {
      "inputs": [],
      "name": "owner",
      "outputs": [
        {
          "internalType": "address",
          "name": "",
          "type": "address"
        }
      ],
      "stateMutability": "view",
      "type": "function"
    },
    {
      "inputs": [
        {
          "internalType": "uint256",
          "name": "callbackId",
          "type": "uint256"
        },
        {
          "internalType": "uint256",
          "name": "tokenId",
          "type": "uint256"
        },
        {
          "internalType": "uint256",
          "name": "price",
          "type": "uint256"
        },
        {
          "internalType": "address[]",
          "name": "callees",
          "type": "address[]"
        },
        {
          "internalType": "uint256",
          "name": "documentHash",
          "type": "uint256"
        }
      ],
      "name": "proposeCallback",
      "outputs": [],
      "stateMutability": "payable",
      "type": "function"
    },
    {
      "inputs": [
        {
          "internalType": "uint256",
          "name": "callbackId",
          "type": "uint256"
        }
      ],
      "name": "refuseCallback",
      "outputs": [],
      "stateMutability": "nonpayable",
      "type": "function"
    },
    {
      "inputs": [
        {
          "internalType": "uint256",
          "name": "id",
          "type": "uint256"
        },
        {
          "internalType": "address",
          "name": "maintener",
          "type": "address"
        }
      ],
      "name": "revokeMaintener",
      "outputs": [],
      "stateMutability": "nonpayable",
      "type": "function"
    },
    {
      "inputs": [
        {
          "internalType": "address",
          "name": "tokenizer",
          "type": "address"
        }
      ],
      "name": "revokeTokenizer",
      "outputs": [],
      "stateMutability": "nonpayable",
      "type": "function"
    },
    {
      "inputs": [
        {
          "internalType": "address",
          "name": "from",
          "type": "address"
        },
        {
          "internalType": "address",
          "name": "to",
          "type": "address"
        },
        {
          "internalType": "uint256[]",
          "name": "ids",
          "type": "uint256[]"
        },
        {
          "internalType": "uint256[]",
          "name": "values",
          "type": "uint256[]"
        },
        {
          "internalType": "bytes",
          "name": "data",
          "type": "bytes"
        }
      ],
      "name": "safeBatchTransferFrom",
      "outputs": [],
      "stateMutability": "payable",
      "type": "function"
    },
    {
      "inputs": [
        {
          "internalType": "address",
          "name": "from",
          "type": "address"
        },
        {
          "internalType": "address",
          "name": "to",
          "type": "address"
        },
        {
          "internalType": "uint256",
          "name": "id",
          "type": "uint256"
        },
        {
          "internalType": "uint256",
          "name": "value",
          "type": "uint256"
        },
        {
          "internalType": "bytes",
          "name": "data",
          "type": "bytes"
        }
      ],
      "name": "safeTransferFrom",
      "outputs": [],
      "stateMutability": "payable",
      "type": "function"
    },
    {
      "inputs": [
        {
          "internalType": "address",
          "name": "operator",
          "type": "address"
        },
        {
          "internalType": "bool",
          "name": "approved",
          "type": "bool"
        }
      ],
      "name": "setApprovalForAll",
      "outputs": [],
      "stateMutability": "nonpayable",
      "type": "function"
    },
    {
      "inputs": [
        {
          "internalType": "uint256",
          "name": "newMax",
          "type": "uint256"
        }
      ],
      "name": "setCallbackAutoExecuteMaxAddresses",
      "outputs": [],
      "stateMutability": "nonpayable",
      "type": "function"
    },
    {
      "inputs": [
        {
          "internalType": "address[10]",
          "name": "proxyAddresses",
          "type": "address[10]"
        }
      ],
      "name": "setProxyRegistryAddress",
      "outputs": [],
      "stateMutability": "nonpayable",
      "type": "function"
    },
    {
      "inputs": [
        {
          "internalType": "bytes4",
          "name": "_interfaceID",
          "type": "bytes4"
        }
      ],
      "name": "supportsInterface",
      "outputs": [
        {
          "internalType": "bool",
          "name": "",
          "type": "bool"
        }
      ],
      "stateMutability": "pure",
      "type": "function"
    },
    {
      "inputs": [
        {
          "internalType": "address",
          "name": "account",
          "type": "address"
        },
        {
          "internalType": "uint256",
          "name": "id",
          "type": "uint256"
        },
        {
          "internalType": "uint256",
          "name": "value",
          "type": "uint256"
        }
      ],
      "name": "transactionFees",
      "outputs": [
        {
          "internalType": "uint256",
          "name": "",
          "type": "uint256"
        }
      ],
      "stateMutability": "view",
      "type": "function"
    },
    {
      "inputs": [
        {
          "internalType": "address",
          "name": "newOwner",
          "type": "address"
        }
      ],
      "name": "transferOwnership",
      "outputs": [],
      "stateMutability": "nonpayable",
      "type": "function"
    },
    {
      "inputs": [
        {
          "internalType": "address",
          "name": "addr",
          "type": "address"
        }
      ],
      "name": "unlockAddress",
      "outputs": [],
      "stateMutability": "nonpayable",
      "type": "function"
    },
    {
      "inputs": [
        {
          "internalType": "uint256",
          "name": "id",
          "type": "uint256"
        },
        {
          "internalType": "uint256",
          "name": "documentHash",
          "type": "uint256"
        }
      ],
      "name": "unlockToken",
      "outputs": [],
      "stateMutability": "nonpayable",
      "type": "function"
    },
    {
      "inputs": [
        {
          "internalType": "uint256",
          "name": "id",
          "type": "uint256"
        },
        {
          "internalType": "uint256",
          "name": "metadataHash",
          "type": "uint256"
        },
        {
          "internalType": "uint256[3]",
          "name": "transactionFees",
          "type": "uint256[3]"
        },
        {
          "internalType": "address[]",
          "name": "feesRecipients",
          "type": "address[]"
        },
        {
          "internalType": "uint256[]",
          "name": "feesRecipientsPercentage",
          "type": "uint256[]"
        },
        {
          "internalType": "uint256",
          "name": "minHoldingForCallback",
          "type": "uint256"
        },
        {
          "internalType": "bool",
          "name": "isPrivate",
          "type": "bool"
        },
        {
          "internalType": "address",
          "name": "legalAuthority",
          "type": "address"
        }
      ],
      "name": "updateToken",
      "outputs": [],
      "stateMutability": "nonpayable",
      "type": "function"
    },
    {
      "stateMutability": "payable",
      "type": "receive"
    },
    {
      "inputs": [
        {
          "internalType": "address",
          "name": "to",
          "type": "address"
        },
        {
          "internalType": "uint256",
          "name": "amount",
          "type": "uint256"
        }
      ],
      "name": "withdraw",
      "outputs": [],
      "stateMutability": "nonpayable",
      "type": "function"
    },
    {
      "inputs": [
        {
          "internalType": "address",
          "name": "to",
          "type": "address"
        }
      ],
      "name": "deposit",
      "outputs": [],
      "stateMutability": "payable",
      "type": "function"
    },
    {
      "inputs": [
        {
          "internalType": "uint256",
          "name": "id",
          "type": "uint256"
        }
      ],
      "name": "uri",
      "outputs": [
        {
          "internalType": "string",
          "name": "",
          "type": "string"
        }
      ],
      "stateMutability": "view",
      "type": "function"
    }
  ],
  "bytecode": "0x60806040523480156200001157600080fd5b506200001d336200007a565b603260005560408051808201909152601c8082527f687474703a2f2f7374617368626c6f782e636f6d2f746f6b656e732f000000006020909201918252620000689160019162000137565b5062000074336200007a565b620001d3565b6001600160a01b038116620000db576040517f08c379a0000000000000000000000000000000000000000000000000000000008152600401808060200182810382526026815260200180620051916026913960400191505060405180910390fd5b600f546040516001600160a01b038084169216907f8be0079c531659141344cd1fd0a4f28419497f9722a3daafe3b4186f6b6457e090600090a3600f80546001600160a01b0319166001600160a01b0392909216919091179055565b828054600181600116156101000203166002900490600052602060002090601f016020900481019282601f106200017a57805160ff1916838001178555620001aa565b82800160010185558215620001aa579182015b82811115620001aa5782518255916020019190600101906200018d565b50620001b8929150620001bc565b5090565b5b80821115620001b85760008155600101620001bd565b614fae80620001e36000396000f3fe6080604052600436106102335760003560e01c8063a22cb4651161012e578063d41d0aa3116100ab578063f2fde38b1161006f578063f2fde38b146110ff578063f340fa0114611132578063f3fef3a314611158578063f8a5a07c14611191578063fc3fcec7146112c85761026a565b8063d41d0aa314610ec4578063d842b67314610efd578063e985e9c514610fb3578063ed70554d14610fee578063f242432a1461106c5761026a565b8063c02f303c116100f2578063c02f303c14610c58578063c255620a14610c8b578063c40b87ae14610cb5578063cba54e6014610e52578063d1660e1814610e855761026a565b8063a22cb46514610b60578063aba7fe8a14610b9b578063b7eb5e0a14610bcb578063baa3411014610bfe578063bba75c8314610c2e5761026a565b8063414ed0ce116101bc5780637627b732116101805780637627b73214610a665780638870147b14610a995780638aeba37e14610acc5780638da5cb5b14610b055780638f96f13114610b365761026a565b8063414ed0ce146106385780634392e577146106ca5780634ab0d2531461072b5780634e1273f4146108ad5780635dafec1b14610a2d5761026a565b80632ed42bf7116102035780632ed42bf7146104ca57806331d5f78c1461055e57806334a90d0214610588578063369c37e9146105bb5780633cacd7d6146105e55761026a565b8062fdd58e1461026f57806301ffc9a7146102ba5780630e89341c146103025780632eb2c2d6146103a15761026a565b3661026a57336000908152600c602052604090206001015461025590346112f8565b336000908152600c6020526040902060010155005b600080fd5b34801561027b57600080fd5b506102a86004803603604081101561029257600080fd5b506001600160a01b03813516906020013561135b565b60408051918252519081900360200190f35b3480156102c657600080fd5b506102ee600480360360208110156102dd57600080fd5b50356001600160e01b0319166113ce565b604080519115158252519081900360200190f35b34801561030e57600080fd5b5061032c6004803603602081101561032557600080fd5b5035611415565b6040805160208082528351818301528351919283929083019185019080838360005b8381101561036657818101518382015260200161034e565b50505050905090810190601f1680156103935780820380516001836020036101000a031916815260200191505b509250505060405180910390f35b6104c8600480360360a08110156103b757600080fd5b6001600160a01b038235811692602081013590911691810190606081016040820135600160201b8111156103ea57600080fd5b8201836020820111156103fc57600080fd5b803590602001918460208302840111600160201b8311171561041d57600080fd5b919390929091602081019035600160201b81111561043a57600080fd5b82018360208201111561044c57600080fd5b803590602001918460208302840111600160201b8311171561046d57600080fd5b919390929091602081019035600160201b81111561048a57600080fd5b82018360208201111561049c57600080fd5b803590602001918460018302840111600160201b831117156104bd57600080fd5b5090925090506114b6565b005b3480156104d657600080fd5b506104df611764565b6040518083815260200180602001828103825283818151815260200191508051906020019080838360005b8381101561052257818101518382015260200161050a565b50505050905090810190601f16801561054f5780820380516001836020036101000a031916815260200191505b50935050505060405180910390f35b34801561056a57600080fd5b506104c86004803603602081101561058157600080fd5b50356117fa565b34801561059457600080fd5b506104c8600480360360208110156105ab57600080fd5b50356001600160a01b03166119d8565b3480156105c757600080fd5b506104c8600480360360208110156105de57600080fd5b5035611a45565b3480156105f157600080fd5b506106186004803603602081101561060857600080fd5b50356001600160a01b0316611a91565b604080519315158452911515602084015282820152519081900360600190f35b34801561064457600080fd5b506106626004803603602081101561065b57600080fd5b5035611ab7565b604080519b8c5260208c019a909a528a8a019890985260608a019690965260808901949094526001600160a01b0390921660a0880152151560c0870152151560e086015215156101008501521515610120840152151561014083015251908190036101600190f35b3480156106d657600080fd5b506104c860048036036101408110156106ee57600080fd5b81019080806101400190600a806020026040519081016040528092919082600a60200280828437600092019190915250919450611b2a9350505050565b34801561073757600080fd5b506104c8600480360361014081101561074f57600080fd5b6040805160608181018352843594602081013594810193909260a08401929091840190600390839083908082843760009201919091525091949392602081019250359050600160201b8111156107a457600080fd5b8201836020820111156107b657600080fd5b803590602001918460208302840111600160201b831117156107d757600080fd5b9190808060200260200160405190810160405280939291908181526020018383602002808284376000920191909152509295949360208101935035915050600160201b81111561082657600080fd5b82018360208201111561083857600080fd5b803590602001918460208302840111600160201b8311171561085957600080fd5b919080806020026020016040519081016040528093929190818152602001838360200280828437600092019190915250929550508235935050506020810135151590604001356001600160a01b0316611b82565b3480156108b957600080fd5b506109dd600480360360408110156108d057600080fd5b810190602081018135600160201b8111156108ea57600080fd5b8201836020820111156108fc57600080fd5b803590602001918460208302840111600160201b8311171561091d57600080fd5b9190808060200260200160405190810160405280939291908181526020018383602002808284376000920191909152509295949360208101935035915050600160201b81111561096c57600080fd5b82018360208201111561097e57600080fd5b803590602001918460208302840111600160201b8311171561099f57600080fd5b919080806020026020016040519081016040528093929190818152602001838360200280828437600092019190915250929550611c79945050505050565b60408051602080825283518183015283519192839290830191858101910280838360005b83811015610a19578181015183820152602001610a01565b505050509050019250505060405180910390f35b348015610a3957600080fd5b506102ee60048036036040811015610a5057600080fd5b50803590602001356001600160a01b0316611dfd565b348015610a7257600080fd5b506104c860048036036020811015610a8957600080fd5b50356001600160a01b0316611e09565b348015610aa557600080fd5b506104c860048036036020811015610abc57600080fd5b50356001600160a01b0316611e74565b348015610ad857600080fd5b506104c860048036036040811015610aef57600080fd5b50803590602001356001600160a01b0316611edc565b348015610b1157600080fd5b50610b1a611f5a565b604080516001600160a01b039092168252519081900360200190f35b348015610b4257600080fd5b506104c860048036036020811015610b5957600080fd5b5035611f69565b348015610b6c57600080fd5b506104c860048036036040811015610b8357600080fd5b506001600160a01b03813516906020013515156121a2565b348015610ba757600080fd5b506104c860048036036040811015610bbe57600080fd5b5080359060200135612258565b348015610bd757600080fd5b506104c860048036036020811015610bee57600080fd5b50356001600160a01b03166122bd565b348015610c0a57600080fd5b506104c860048036036040811015610c2157600080fd5b5080359060200135612326565b348015610c3a57600080fd5b506102ee60048036036020811015610c5157600080fd5b5035612386565b348015610c6457600080fd5b506102ee60048036036020811015610c7b57600080fd5b50356001600160a01b0316612391565b348015610c9757600080fd5b506104c860048036036020811015610cae57600080fd5b503561239c565b348015610cc157600080fd5b506104c860048036036101a0811015610cd957600080fd5b60408051606081810183526001600160a01b03853516946020810135949381013593828201359360808301359391830192916101008301919060a0840190600390839083908082843760009201919091525091949392602081019250359050600160201b811115610d4957600080fd5b820183602082011115610d5b57600080fd5b803590602001918460208302840111600160201b83111715610d7c57600080fd5b9190808060200260200160405190810160405280939291908181526020018383602002808284376000920191909152509295949360208101935035915050600160201b811115610dcb57600080fd5b820183602082011115610ddd57600080fd5b803590602001918460208302840111600160201b83111715610dfe57600080fd5b919080806020026020016040519081016040528093929190818152602001838360200280828437600092019190915250929550508235935050506020810135151590604001356001600160a01b031661260d565b348015610e5e57600080fd5b506102ee60048036036020811015610e7557600080fd5b50356001600160a01b03166126ba565b348015610e9157600080fd5b506102a860048036036060811015610ea857600080fd5b506001600160a01b0381351690602081013590604001356126c5565b348015610ed057600080fd5b506104c860048036036040811015610ee757600080fd5b50803590602001356001600160a01b03166126da565b6104c8600480360360a0811015610f1357600080fd5b81359160208101359160408201359190810190608081016060820135600160201b811115610f4057600080fd5b820183602082011115610f5257600080fd5b803590602001918460208302840111600160201b83111715610f7357600080fd5b9190808060200260200160405190810160405280939291908181526020018383602002808284376000920191909152509295505091359250612755915050565b348015610fbf57600080fd5b506102ee60048036036040811015610fd657600080fd5b506001600160a01b03813581169160200135166129e1565b348015610ffa57600080fd5b506110186004803603602081101561101157600080fd5b5035612a22565b60408051998a5260208a0198909852888801969096526060880194909452608087019290925260a08601526001600160a01b031660c0850152151560e0840152151561010083015251908190036101200190f35b6104c8600480360360a081101561108257600080fd5b6001600160a01b03823581169260208101359091169160408201359160608101359181019060a081016080820135600160201b8111156110c157600080fd5b8201836020820111156110d357600080fd5b803590602001918460018302840111600160201b831117156110f457600080fd5b509092509050612a7e565b34801561110b57600080fd5b506104c86004803603602081101561112257600080fd5b50356001600160a01b0316612bc3565b6104c86004803603602081101561114857600080fd5b50356001600160a01b0316612c16565b34801561116457600080fd5b506104c86004803603604081101561117b57600080fd5b506001600160a01b038135169060200135612c5b565b34801561119d57600080fd5b506104c8600480360360608110156111b457600080fd5b81359190810190604081016020820135600160201b8111156111d557600080fd5b8201836020820111156111e757600080fd5b803590602001918460208302840111600160201b8311171561120857600080fd5b9190808060200260200160405190810160405280939291908181526020018383602002808284376000920191909152509295949360208101935035915050600160201b81111561125757600080fd5b82018360208201111561126957600080fd5b803590602001918460208302840111600160201b8311171561128a57600080fd5b919080806020026020016040519081016040528093929190818152602001838360200280828437600092019190915250929550612dca945050505050565b3480156112d457600080fd5b506104c8600480360360408110156112eb57600080fd5b5080359060200135612f5b565b600082820183811015611352576040805162461bcd60e51b815260206004820152601b60248201527f536166654d6174683a206164646974696f6e206f766572666c6f770000000000604482015290519081900360640190fd5b90505b92915050565b60006001600160a01b0383166113a25760405162461bcd60e51b815260040180806020018281038252602b815260200180614d0f602b913960400191505060405180910390fd5b506000908152600d602090815260408083206001600160a01b0394909416835260079093019052205490565b60006001600160e01b031982166301ffc9a760e01b14806113ff57506001600160e01b03198216636cdb3d1360e11b145b1561140c57506001611410565b5060005b919050565b60018054604080516020600284861615610100026000190190941693909304601f810184900484028201840190925281815260609361135593919290918301828280156114a35780601f10611478576101008083540402835291602001916114a3565b820191906000526020600020905b81548152906001019060200180831161148657829003601f168201915b50505050506114b18461311f565b6131db565b8483146114f45760405162461bcd60e51b815260040180806020018281038252602e815260200180614f1a602e913960400191505060405180910390fd5b6001600160a01b0387166115395760405162461bcd60e51b8152600401808060200182810382526028815260200180614d806028913960400191505060405180910390fd5b6001600160a01b03881633148061155b575061155588336129e1565b15156001145b6115965760405162461bcd60e51b8152600401808060200182810382526037815260200180614ee36037913960400191505060405180910390fd5b611605888888888080602002602001604051908101604052809392919081815260200183836020028082843760009201919091525050604080516020808c0282810182019093528b82529093508b92508a9182918501908490808284376000920191909152506132e592505050565b866001600160a01b0316886001600160a01b0316336001600160a01b03167f4a39dc06d4c0dbc64b70af90fd698a233a518aa5d07e595d983b8c0526c8f7fb898989896040518080602001806020018381038352878782818152602001925060200280828437600083820152601f01601f19169091018481038352858152602090810191508690860280828437600083820152604051601f909101601f19169092018290039850909650505050505050a461175a33898989898080602002602001604051908101604052809392919081815260200183836020028082843760009201919091525050604080516020808d0282810182019093528c82529093508c92508b91829185019084908082843760009201919091525050604080516020601f8c018190048102820181019092528a815292508a915089908190840183828082843760009201919091525061339f92505050565b5050505050505050565b6000805460018054604080516020600284861615610100026000190190941693909304601f810184900484028201840190925281815293949392918301828280156117f05780601f106117c5576101008083540402835291602001916117f0565b820191906000526020600020905b8154815290600101906020018083116117d357829003601f168201915b5050505050905082565b611802614b26565b6000828152600e602090815260409182902082516101808101845281548152600182015481840152600282015481850152600382015460608201526004820154608082015260058201546001600160a01b03811660a083015260ff600160a01b82048116151560c0840152600160a81b82048116151560e0840152600160b01b820481161515610100840152600160b81b820481161515610120840152600160c01b90910416151561014082015260068201805485518186028101860190965280865291949293610160860193929083018282801561190a57602002820191906000526020600020905b81546001600160a01b031681526001909101906020018083116118ec575b5050509190925250508151919250501580159061192e5750805161192e9033613590565b801561193d5750610100810151155b801561194c5750610120810151155b61199d576040805162461bcd60e51b815260206004820152601f60248201527f496e76616c696420617267756d656e7473206f72207065726d697373696f6e00604482015290519081900360640190fd5b6000828152600e6020526040808220600501805460ff60a81b1916600160a81b179055518391600080516020614d6083398151915291a25050565b6119e06135b4565b611a1f576040805162461bcd60e51b81526020600482018190526024820152600080516020614ec3833981519152604482015290519081900360640190fd5b6001600160a01b03166000908152600c60205260409020805461ff001916610100179055565b611a4d6135b4565b611a8c576040805162461bcd60e51b81526020600482018190526024820152600080516020614ec3833981519152604482015290519081900360640190fd5b600055565b600c602052600090815260409020805460019091015460ff808316926101009004169083565b600e6020526000908152604090208054600182015460028301546003840154600485015460059095015493949293919290916001600160a01b0381169060ff600160a01b8204811691600160a81b8104821691600160b01b8204811691600160b81b8104821691600160c01b909104168b565b611b326135b4565b611b71576040805162461bcd60e51b81526020600482018190526024820152600080516020614ec3833981519152604482015290519081900360640190fd5b611b7e600282600a614b9a565b5050565b87611b8d81336135c5565b611bd8576040805162461bcd60e51b815260206004820152601760248201527624b739bab33334b1b4b2b73a103832b936b4b9b9b4b7b760491b604482015290519081900360640190fd5b6000898152600d6020526040902054611c28576040805162461bcd60e51b815260206004820152600d60248201526c2ab735b737bbb7103a37b5b2b760991b604482015290519081900360640190fd5b611c3889898989898989896135ff565b6040805189815290518a917f199acc06cd2556bbc146fa3cb578799037dffcbf256eca32aaf2ef656925d2fd919081900360200190a2505050505050505050565b60608151835114611cbb5760405162461bcd60e51b8152600401808060200182810382526030815260200180614dd46030913960400191505060405180910390fd5b6060835167ffffffffffffffff81118015611cd557600080fd5b50604051908082528060200260200182016040528015611cff578160200160208202803683370190505b50905060005b8451811015611df55760006001600160a01b0316858281518110611d2557fe5b60200260200101516001600160a01b03161415611d735760405162461bcd60e51b8152600401808060200182810382526034815260200180614e3a6034913960400191505060405180910390fd5b600d6000858381518110611d8357fe5b602002602001015181526020019081526020016000206007016000868381518110611daa57fe5b60200260200101516001600160a01b03166001600160a01b0316815260200190815260200160002060000154828281518110611de257fe5b6020908102919091010152600101611d05565b509392505050565b600061135283836135c5565b611e116135b4565b611e50576040805162461bcd60e51b81526020600482018190526024820152600080516020614ec3833981519152604482015290519081900360640190fd5b6001600160a01b03166000908152600c60205260409020805460ff19166001179055565b611e7c6135b4565b611ebb576040805162461bcd60e51b81526020600482018190526024820152600080516020614ec3833981519152604482015290519081900360640190fd5b6001600160a01b03166000908152600c60205260409020805460ff19169055565b611ee46135b4565b611f23576040805162461bcd60e51b81526020600482018190526024820152600080516020614ec3833981519152604482015290519081900360640190fd5b6000918252600d602090815260408084206001600160a01b039093168452600790920190529020600201805460ff19166001179055565b600f546001600160a01b031690565b611f71614b26565b6000828152600e602090815260409182902082516101808101845281548152600182015481840152600282015481850152600382015460608201526004820154608082015260058201546001600160a01b03811660a083015260ff600160a01b82048116151560c0840152600160a81b82048116151560e0840152600160b01b820481161515610100840152600160b81b820481161515610120840152600160c01b90910416151561014082015260068201805485518186028101860190965280865291949293610160860193929083018282801561207957602002820191906000526020600020905b81546001600160a01b0316815260019091019060200180831161205b575b505050919092525050815191925050158015906120995750610100810151155b80156120a85750610120810151155b80156120ed575080516120bb90336135c5565b806120cd575080516120cd9033613590565b806120ed57508060a001516001600160a01b0316336001600160a01b0316145b61213e576040805162461bcd60e51b815260206004820152601f60248201527f496e76616c696420617267756d656e7473206f72207065726d697373696f6e00604482015290519081900360640190fd5b6000828152600e60209081526040808320600501805460ff60b01b1916600160b01b1790558381015160a08501516001600160a01b03168452600c9092528083206001018054909201909155518391600080516020614d6083398151915291a25050565b336001600160a01b03831614156121ea5760405162461bcd60e51b815260040180806020018281038252602c815260200180614da8602c913960400191505060405180910390fd5b3360008181526010602090815260408083206001600160a01b03871680855290835292819020805460ff1916861515908117909155815190815290519293927f17307eab39ab6107e8899845ad3d59bd9653f200f220920489ca2b5937696c31929181900390910190a35050565b8161226381336135c5565b6122ae576040805162461bcd60e51b815260206004820152601760248201527624b739bab33334b1b4b2b73a103832b936b4b9b9b4b7b760491b604482015290519081900360640190fd5b6122b883836137a3565b505050565b6122c56135b4565b612304576040805162461bcd60e51b81526020600482018190526024820152600080516020614ec3833981519152604482015290519081900360640190fd5b6001600160a01b03166000908152600c60205260409020805461ff0019169055565b8161233181336135c5565b61237c576040805162461bcd60e51b815260206004820152601760248201527624b739bab33334b1b4b2b73a103832b936b4b9b9b4b7b760491b604482015290519081900360640190fd5b6122b883836137f9565b600061135582613855565b600061135582613874565b6123a4614b26565b6000828152600e602090815260409182902082516101808101845281548152600182015481840152600282015481850152600382015460608201526004820154608082015260058201546001600160a01b03811660a083015260ff600160a01b82048116151560c0840152600160a81b82048116151560e0840152600160b01b820481161515610100840152600160b81b820481161515610120840152600160c01b9091041615156101408201526006820180548551818602810186019096528086529194929361016086019392908301828280156124ac57602002820191906000526020600020905b81546001600160a01b0316815260019091019060200180831161248e575b505050919092525050815191925050158015906124d0575080516124d090336135c5565b80156124e957508060c0015115806124e957508060e001515b80156124f85750610100810151155b80156125075750610120810151155b801561252e57506125268160000151826020015183610160015161389e565b816040015110155b6125695760405162461bcd60e51b8152600401808060200182810382526034815260200180614e8f6034913960400191505060405180910390fd5b6000828152600e6020526040808220600501805460ff60b81b1916600160b81b179055518391600080516020614d6083398151915291a261016081015151156125c1576125bc8282610160015151613955565b611b7e565b6000805482518252600d602052604090912060080154116125fb5780516000908152600d60205260409020600801546125bc908390613955565b611b7e816000015182608001516137f9565b61261633613874565b612661576040805162461bcd60e51b815260206004820152601760248201527624b739bab33334b1b4b2b73a103832b936b4b9b9b4b7b760491b604482015290519081900360640190fd5b6126748b8b8b8b8b8b8b8b8b8b8b613bf2565b604080518b8152602081018b905281516001600160a01b038e16926000923392600080516020614cef833981519152929181900390910190a45050505050505050505050565b600061135582613d5b565b60006126d2848484613d7e565b949350505050565b6126e26135b4565b612721576040805162461bcd60e51b81526020600482018190526024820152600080516020614ec3833981519152604482015290519081900360640190fd5b6000918252600d602090815260408084206001600160a01b039093168452600790920190529020600201805460ff19169055565b6000858152600e602052604090205415801561277e57506000848152600d602052604090205415155b8015612794575061279084848461389e565b3410155b80156127a35750600054825111155b6127f4576040805162461bcd60e51b815260206004820152601a60248201527f496e76616c696420617267756d656e7473206f722076616c7565000000000000604482015290519081900360640190fd5b6000848152600d6020526040812060048101549054612820916127109161281a91613f60565b90613fb9565b905060405180610180016040528086815260200185815260200134815260200160008152602001838152602001336001600160a01b03168152602001856000148061288657506000878152600d6020908152604080832033845260070190915290205483115b80612892575060008551115b151581526000602080830182905260408084018390526060808501849052608080860185905260a09586018a90528c8552600e8452938290208651815586840151600182015591860151600283015585015160038201559184015160048301559183015160058201805460c086015160e08701516101008801516101208901516101408a01511515600160c01b0260ff60c01b19911515600160b81b0260ff60b81b19931515600160b01b0260ff60b01b19951515600160a81b0260ff60a81b19971515600160a01b0260ff60a01b196001600160a01b03909c166001600160a01b0319909a16999099179a909a169790971795909516979097179290921693909317929092161716919091179055610160830151805191926129bd92600685019290910190614bf2565b5050604051879150600080516020614d6083398151915290600090a2505050505050565b60006129ed8383613ffb565b806113525750506001600160a01b03918216600090815260106020908152604080832093909416825291909152205460ff1690565b600d60205260009081526040902080546001820154600283015460038401546004850154600586015460069096015494959394929391929091906001600160a01b0381169060ff600160a01b8204811691600160a81b90041689565b6001600160a01b038516612ac35760405162461bcd60e51b8152600401808060200182810382526028815260200180614d806028913960400191505060405180910390fd5b6001600160a01b038616331480612ae55750612adf86336129e1565b15156001145b612b205760405162461bcd60e51b8152600401808060200182810382526037815260200180614ee36037913960400191505060405180910390fd5b612b2c868686866140e2565b846001600160a01b0316866001600160a01b0316336001600160a01b0316600080516020614cef8339815191528787604051808381526020018281526020019250505060405180910390a4612bbb338787878787878080601f01602080910402602001604051908101604052809392919081815260200183838082843760009201919091525061415a92505050565b505050505050565b612bcb6135b4565b612c0a576040805162461bcd60e51b81526020600482018190526024820152600080516020614ec3833981519152604482015290519081900360640190fd5b612c13816142cf565b50565b6001600160a01b0381166000908152600c6020526040902060010154612c3c90346112f8565b6001600160a01b039091166000908152600c6020526040902060010155565b612c636135b4565b612ca2576040805162461bcd60e51b81526020600482018190526024820152600080516020614ec3833981519152604482015290519081900360640190fd5b6001600160a01b0382166000908152600c6020526040902060010154811115612d09576040805162461bcd60e51b8152602060048201526014602482015273496e73756666696369656e742062616c616e636560601b604482015290519081900360640190fd5b6040516000906001600160a01b0384169083908381818185875af1925050503d8060008114612d54576040519150601f19603f3d011682016040523d82523d6000602084013e612d59565b606091505b5050905080612da3576040805162461bcd60e51b815260206004820152601160248201527015da5d1a191c985dd85b0819985a5b1959607a1b604482015290519081900360640190fd5b506001600160a01b039091166000908152600c602052604090206001018054919091039055565b612dd333613874565b612e1e576040805162461bcd60e51b815260206004820152601760248201527624b739bab33334b1b4b2b73a103832b936b4b9b9b4b7b760491b604482015290519081900360640190fd5b6000838152600d602052604090205415801590612e3c575080518251145b612e81576040805162461bcd60e51b8152602060048201526011602482015270496e76616c696420617267756d656e747360781b604482015290519081900360640190fd5b60005b8251811015612f5557612ebe84848381518110612e9d57fe5b6020026020010151848481518110612eb157fe5b6020026020010151614370565b6000848152600d602052604081206008018054909190612eda57fe5b600091825260208220015484516001600160a01b0390911691903390600080516020614cef83398151915290879086908110612f1257fe5b6020026020010151600d60008a815260200190815260200160002060000154604051808381526020018281526020019250505060405180910390a4600101612e84565b50505050565b612f63614b26565b6000838152600e602090815260409182902082516101808101845281548152600182015481840152600282015481850152600382015460608201526004820154608082015260058201546001600160a01b03811660a083015260ff600160a01b82048116151560c0840152600160a81b82048116151560e0840152600160b01b820481161515610100840152600160b81b820481161515610120840152600160c01b90910416151561014082015260068201805485518186028101860190965280865291949293610160860193929083018282801561306b57602002820191906000526020600020905b81546001600160a01b0316815260019091019060200180831161304d575b5050509190925250508151919250501580159061308f575061012081015115156001145b801561309e5750610140810151155b6130e2576040805162461bcd60e51b815260206004820152601060248201526f496e76616c69642063616c6c6261636b60801b604482015290519081900360640190fd5b6130ec8383613955565b6000838152600e6020526040902060050154600160c01b900460ff16156122b8576122b8816000015182608001516137a3565b60606000825b801561313b576001919091019060109004613125565b60608267ffffffffffffffff8111801561315457600080fd5b506040519080825280601f01601f19166020018201604052801561317f576020820181803683370190505b50905060005b838110156131d25760108606925061319c8361450d565b82600183870303815181106131ad57fe5b60200101906001600160f81b031916908160001a905350601086049550600101613185565b50949350505050565b805182516060918491849184910167ffffffffffffffff811180156131ff57600080fd5b506040519080825280601f01601f19166020018201604052801561322a576020820181803683370190505b509050806000805b85518110156132835785818151811061324757fe5b602001015160f81c60f81b83838060010194508151811061326457fe5b60200101906001600160f81b031916908160001a905350600101613232565b5060005b84518110156132d85784818151811061329c57fe5b602001015160f81c60f81b8383806001019450815181106132b957fe5b60200101906001600160f81b031916908160001a905350600101613287565b5090979650505050505050565b600080341161330f576001600160a01b0385166000908152600c6020526040902060010154613311565b345b905060005b835181101561338d57613383613354878787858151811061333357fe5b602002602001015187868151811061334757fe5b6020026020010151614551565b60408051808201909152601081526f092dce6eaccccd2c6d2cadce8408aa8960831b60208201528491906145a6565b9150600101613316565b50613398858261463d565b5050505050565b6133b1846001600160a01b03166146be565b15612bbb5763bc197c8160e01b6001600160e01b031916846001600160a01b031663bc197c8188888787876040518663ffffffff1660e01b815260040180866001600160a01b03168152602001856001600160a01b03168152602001806020018060200180602001848103845287818151815260200191508051906020019060200280838360005b83811015613451578181015183820152602001613439565b50505050905001848103835286818151815260200191508051906020019060200280838360005b83811015613490578181015183820152602001613478565b50505050905001848103825285818151815260200191508051906020019080838360005b838110156134cc5781810151838201526020016134b4565b50505050905090810190601f1680156134f95780820380516001836020036101000a031916815260200191505b5098505050505050505050602060405180830381600087803b15801561351e57600080fd5b505af1158015613532573d6000803e3d6000fd5b505050506040513d602081101561354857600080fd5b50516001600160e01b03191614612bbb5760405162461bcd60e51b8152600401808060200182810382526036815260200180614e046036913960400191505060405180910390fd5b6000918252600d6020526040909120600601546001600160a01b0391821691161490565b600f546001600160a01b0316331490565b6000828152600d602090815260408083206001600160a01b038516845260070190915281206002015460ff168061135257506113526135b4565b6000805b855181101561362f5785818151811061361857fe5b602002602001015182019150806001019050613603565b506000865111801561363f575060015b801561364c575080612710145b8015613659575061271084105b61369e576040805162461bcd60e51b8152602060048201526011602482015270496e76616c696420617267756d656e747360781b604482015290519081900360640190fd5b6000898152600d60209081526040808320600581018c90558a516002808301919091558b840151600383015582518084018452428152928c015183850152600b9091018054600181018255908552929093206136fe939283020191614c46565b506000898152600d60209081526040909120875161372492600990920191890190614bf2565b506000898152600d60209081526040909120865161374a92600a90920191880190614c80565b50506000978852600d602052604090972060048101929092556006909101805460ff60a01b1916600160a01b92151592909202919091176001600160a01b0319166001600160a01b039096169590951790945550505050565b6000828152600d6020908152604091829020600601805460ff60a81b191690558151838152915184927f199acc06cd2556bbc146fa3cb578799037dffcbf256eca32aaf2ef656925d2fd92908290030190a25050565b6000828152600d6020908152604091829020600601805460ff60a81b1916600160a81b1790558151838152915184927f199acc06cd2556bbc146fa3cb578799037dffcbf256eca32aaf2ef656925d2fd92908290030190a25050565b6000908152600d6020526040902060060154600160a81b900460ff1690565b6001600160a01b0381166000908152600c602052604081205460ff168061135557506113556135b4565b805160009081906138df576000858152600d602081815260408084203385526007810183529084205493899052919052546138d8916146f5565b9050613942565b60005b835181101561394057600d6000878152602001908152602001600020600701600085838151811061390f57fe5b6020908102919091018101516001600160a01b031682528101919091526040016000205491909101906001016138e2565b505b61394c8185613f60565b95945050505050565b6000828152600e602052604090208054600690910154606090613988576000828152600d6020526040902060080161399a565b6000848152600e602052604090206006015b8054806020026020016040519081016040528092919081815260200182805480156139ee57602002820191906000526020600020905b81546001600160a01b031681526001909101906020018083116139d0575b505083516000898152600e60205260408120600301549596506000199091019493509150508582018311613a225782613a26565b8582015b90506000825b828111613b6e576000868281518110613a4157fe5b60209081029190910181015160008a8152600d835260408082206001600160a01b0384168352600701909352919091205490915015613b65576000888152600d602090815260408083206001600160a01b0385168085526007909101808452828520548f8652600e855292852060010154919094529290915293840193613ac791613f60565b6001600160a01b038083166000818152600c6020908152604080832060010180549096019095558e8252600e8152848220600501548d8352600d82528583208484526007018252918590205485518e8152918201528451919093169391923392600080516020614cef83398151915292918290030190a46000888152600d602090815260408083206001600160a01b03851684526007019091528120555b50600101613a2c565b506000888152600e6020526040902060050154613b95906001600160a01b03168783614737565b6000888152600e602052604090206003018290558382141561175a576000888152600e6020526040808220600501805460ff60c01b1916600160c01b179055518991600080516020614d6083398151915291a25050505050505050565b60008a8152600d6020526040902054158015613c0e5750600089115b613c53576040805162461bcd60e51b8152602060048201526011602482015270496e76616c696420617267756d656e747360781b604482015290519081900360640190fd5b88600d60008c81526020019081526020016000206000018190555087600d60008c8152602001908152602001600020600101819055506001600d60008c81526020019081526020016000206007016000336001600160a01b03166001600160a01b0316815260200190815260200160002060020160006101000a81548160ff0219169083151502179055506001600d60008c815260200190815260200160002060070160008d6001600160a01b03166001600160a01b0316815260200190815260200160002060020160026101000a81548160ff021916908315150217905550613d438a888888888888886135ff565b613d4e8b8b8b614737565b5050505050505050505050565b6001600160a01b03166000908152600c6020526040902054610100900460ff1690565b6000828152600d60205260408120600b015481904290600019015b6000868152600d60205260408120600b01805483908110613db657fe5b60009182526020822060029091020101546000888152600d60205260408120600b018054929350909184908110613de957fe5b9060005260206000209060020201600160028110613e0357fe5b01546000898152600d602090815260408083206001600160a01b038e168452600701909152812060010154919250908311613ea0576000898152600d602090815260408083206001600160a01b038e168452600701909152902060010154613e7590620151809061281a9088906146f5565b905080613e80575060015b613e9488613e8e8385613f60565b90613f60565b86019550505050613edf565b613eb16201518061281a87866146f5565b905080613ebc575060015b9193508391613ecf88613e8e8385613f60565b9095019450505060001901613d99565b506000858152600d6020526040902060010154613f00908390600a0a613fb9565b6000868152600d602052604081206003015491935090613f2b906305f5e1009061281a908890613f60565b6000878152600d6020526040902060020154909150613f5590613f4e90836112f8565b84906112f8565b979650505050505050565b600082613f6f57506000611355565b82820282848281613f7c57fe5b04146113525760405162461bcd60e51b8152600401808060200182810382526021815260200180614e6e6021913960400191505060405180910390fd5b600061135283836040518060400160405280601a81526020017f536166654d6174683a206469766973696f6e206279207a65726f000000000000815250614935565b6000805b600a8110156140d8576000600282600a811061401757fe5b01546001600160a01b0316146140d0576000600282600a811061403657fe5b01546040805163c455279160e01b81526001600160a01b0388811660048301529151928216935090861691839163c4552791916024808301926020929190829003018186803b15801561408857600080fd5b505afa15801561409c573d6000803e3d6000fd5b505050506040513d60208110156140b257600080fd5b50516001600160a01b031614156140ce57600192505050611355565b505b600101613fff565b5060009392505050565b600080341161410c576001600160a01b0385166000908152600c602052604090206001015461410e565b345b905061414e61411f86868686614551565b60408051808201909152601081526f092dce6eaccccd2c6d2cadce8408aa8960831b60208201528391906145a6565b9050613398858261463d565b61416c846001600160a01b03166146be565b15612bbb5763f23a6e6160e01b6001600160e01b031916846001600160a01b031663f23a6e6188888787876040518663ffffffff1660e01b815260040180866001600160a01b03168152602001856001600160a01b0316815260200184815260200183815260200180602001828103825283818151815260200191508051906020019080838360005b8381101561420d5781810151838201526020016141f5565b50505050905090810190601f16801561423a5780820380516001836020036101000a031916815260200191505b509650505050505050602060405180830381600087803b15801561425d57600080fd5b505af1158015614271573d6000803e3d6000fd5b505050506040513d602081101561428757600080fd5b50516001600160e01b03191614612bbb5760405162461bcd60e51b8152600401808060200182810382526031815260200180614f486031913960400191505060405180910390fd5b6001600160a01b0381166143145760405162461bcd60e51b8152600401808060200182810382526026815260200180614d3a6026913960400191505060405180910390fd5b600f546040516001600160a01b038084169216907f8be0079c531659141344cd1fd0a4f28419497f9722a3daafe3b4186f6b6457e090600090a3600f80546001600160a01b0319166001600160a01b0392909216919091179055565b6000838152600d6020526040812060080180546122b8929061438e57fe5b6000918252602080832090910154868352600d8083526040808520805460018201548351606081018552600284015481526003840154818901528c895294909652600b90910180546001600160a01b03909516968a96929592948a9490939084019291906143f857fe5b906000526020600020906002020160016002811061441257fe5b0154905260008a8152600d60209081526040918290206009018054835181840281018401909452808452909183018282801561447757602002820191906000526020600020905b81546001600160a01b03168152600190910190602001808311614459575b50505060008d8152600d6020908152604091829020600a01805483518184028101840190945280845292945092508301828280156144d457602002820191906000526020600020905b8154815260200190600101908083116144c0575b50505060008e8152600d60205260409020600481015460069091015490925060ff600160a01b82041691506001600160a01b0316613bf2565b600060098260ff161161452757506030810160f81b611410565b8160ff16600a1115801561453f5750600f8260ff1611155b1561026a57506057810160f81b611410565b600061455f8585858561499a565b1561459a576040805162461bcd60e51b8152602060048201526006602482015265131bd8dad95960d21b604482015290519081900360640190fd5b61394c858585856149d2565b600081848411156146355760405162461bcd60e51b81526004018080602001828103825283818151815260200191508051906020019080838360005b838110156145fa5781810151838201526020016145e2565b50505050905090810190601f1680156146275780820380516001836020036101000a031916815260200191505b509250505060405180910390fd5b505050900390565b60003411801561464d5750600081115b15614699576001600160a01b0382166000908152600c602052604090206001015461467890826112f8565b6001600160a01b0383166000908152600c6020526040902060010155611b7e565b34611b7e576001600160a01b03919091166000908152600c6020526040902060010155565b6000813f7fc5d2460186f7233c927e7db2dcc703c0e500b653ca82273b7bfad8045d85a47081158015906126d25750141592915050565b600061135283836040518060400160405280601e81526020017f536166654d6174683a207375627472616374696f6e206f766572666c6f7700008152506145a6565b6000828152600d602090815260408083206001600160a01b038716845260070190915281205461476790836112f8565b6000848152600d602090815260408083206001600160a01b0389168452600701909152902054909150614864576000838152600d602090815260408083206001600160a01b0388168452600701909152902060020154610100900460ff16614833576001600160a01b0384166000818152600c6020908152604080832060020180546001818101835591855283852001889055878452600d83529083206008810180549283018155845282842090910180546001600160a01b0319168517905592909152600790910190525b6000838152600d602090815260408083206001600160a01b0388168452600701909152902042600190910155614905565b6000838152600d602090815260408083206001600160a01b03881684526007019091528120600101546148989042906146f5565b6000858152600d602090815260408083206001600160a01b038a168452600701909152812054919250906148d290849061281a9085613f60565b6000868152600d602090815260408083206001600160a01b038b1684526007019091529020429190910360019091015550505b6000928352600d602090815260408085206001600160a01b03909616855260079095019052929091209190915550565b600081836149845760405162461bcd60e51b81526020600482018181528351602484015283519092839260449091019190850190808383600083156145fa5781810151838201526020016145e2565b50600083858161499057fe5b0495945050505050565b60006149a583613855565b806149b457506149b485613d5b565b806149c357506149c384613d5b565b8061394c575050159392505050565b6040805180820182526014815273496e73756666696369656e742062616c616e636560601b6020808301919091526000858152600d82528381206001600160a01b038916825260070190915291822054614a2d9184906145a6565b6000848152600d602090815260408083206001600160a01b038a168452600701909152902055614a5e848484614737565b614a69858484613d7e565b905060005b6000848152600d60205260409020600901548110156131d2576000848152600d60205260408120600901805483908110614aa457fe5b6000918252602080832090910154878352600d90915260408220600a0180546001600160a01b0390921693509084908110614adb57fe5b6000918252602090912001549050614af961271061281a8684613f60565b6001600160a01b039092166000908152600c60205260409020600190810180549093019092555001614a6e565b604051806101800160405280600081526020016000815260200160008152602001600081526020016000815260200160006001600160a01b03168152602001600015158152602001600015158152602001600015158152602001600015158152602001600015158152602001606081525090565b82600a8101928215614be2579160200282015b82811115614be257825182546001600160a01b0319166001600160a01b03909116178255602090920191600190910190614bad565b50614bee929150614cba565b5090565b828054828255906000526020600020908101928215614be25791602002820182811115614be257825182546001600160a01b0319166001600160a01b03909116178255602090920191600190910190614bad565b8260028101928215614c74579160200282015b82811115614c74578251825591602001919060010190614c59565b50614bee929150614cd9565b828054828255906000526020600020908101928215614c745791602002820182811115614c74578251825591602001919060010190614c59565b5b80821115614bee5780546001600160a01b0319168155600101614cbb565b5b80821115614bee5760008155600101614cda56fec3d58168c5ae7397731d063d5bbf3d657854427343f4c083240f7aacaa2d0f62455243313135353a2062616c616e636520717565727920666f7220746865207a65726f20616464726573734f776e61626c653a206e6577206f776e657220697320746865207a65726f20616464726573736ce984c7277c5fe8f47fdf17245300ed19587e3bc1041342d79726b2b2f1dc0b455243313135353a207461726765742061646472657373206d757374206265206e6f6e2d7a65726f455243313135353a2063616e6e6f742073657420617070726f76616c2073746174757320666f722073656c66455243313135353a206163636f756e747320616e6420494473206d75737420686176652073616d65206c656e67746873455243313135353a20676f7420756e6b6e6f776e2076616c75652066726f6d206f6e4552433131353542617463685265636569766564455243313135353a20736f6d65206164647265737320696e2062617463682062616c616e6365207175657279206973207a65726f536166654d6174683a206d756c7469706c69636174696f6e206f766572666c6f77496e73756666696369656e742063616c6c6261636b2c207065726d697373696f6e206f7220657363726f77656420616d6f756e744f776e61626c653a2063616c6c6572206973206e6f7420746865206f776e6572455243313135353a206e656564206f70657261746f7220617070726f76616c20666f7220337264207061727479207472616e7366657273455243313135353a2049447320616e642076616c756573206d75737420686176652073616d65206c656e67746873455243313135353a20676f7420756e6b6e6f776e2076616c75652066726f6d206f6e455243313135355265636569766564a2646970667358221220c37109f4d2937b672e15dea24601ee5e8fbed0300d874c6166a746cf00d5182964736f6c634300070100334f776e61626c653a206e6577206f776e657220697320746865207a65726f2061646472657373",
  "immutableReferences": {},
  "source": "// SPDX-License-Identifier: GPL-3.0-or-later\n\npragma solidity ^0.7.1;\n\nimport './interfaces/IERC1155Metadata.sol';\nimport \"./utils/SafeMath.sol\";\nimport './utils/StringUtils.sol';\nimport './lib/Callable.sol';\nimport './lib/Privatizable.sol';\n\ncontract StashBlox is Callable, IERC1155Metadata, StringUtils {\n\n    using SafeMath for uint256;\n\n    /**\n     * @dev Initializes the contract setting the deployer as the initial owner.\n     */\n    constructor () {\n        _config.callbackAutoExecuteMaxAddresses = 50;\n        _config.baseURI = \"http://stashblox.com/tokens/\";\n        _transferOwnership(msg.sender);\n    }\n\n    /**\n     * @dev Function to withdraw ETH from the contract.\n     * @param to recipent address\n     * @param amount amount to withdraw\n     */\n    function withdraw(address to, uint256 amount) external onlyOwner {\n        require(_users[to].ETHBalance >= amount, \"Insufficient balance\");\n        (bool success, ) = to.call{value: amount}(\"\");\n        require(success, \"Withdrawal failed\");\n        _users[to].ETHBalance -= amount;\n    }\n\n    /**\n     * @dev Function to make an ETH deposit that can be used to pay token transfer .\n     * @param to recipent address\n     */\n    function deposit(address to) external payable {\n        _users[to].ETHBalance = _users[to].ETHBalance.add(msg.value);\n    }\n\n    /**\n     * @dev Receive Ether Function:this is the function that is executed on plain Ether transfers (e.g. via .send() or .transfer()).\n     */\n    receive() external payable {\n        _users[msg.sender].ETHBalance = _users[msg.sender].ETHBalance.add(msg.value);\n    }\n\n    /**\n     * @param id Token ID\n     * @return URI string\n     */\n    function uri(uint256 id) external view override returns (string memory) {\n        return _strConcat(_config.baseURI, _toHexString(id));\n    }\n\n\n\n}\n",
  "sourcePath": "/home/ouziel/Work/StashBloxContracts/contracts/StashBlox.sol",
  "compiler": {
    "name": "solc",
    "version": "0.7.1+commit.f4a555be.Emscripten.clang"
  },
  "schemaVersion": "3.2.3",
  "updatedAt": "2020-10-20T21:31:25.943Z",
  "devdoc": {
    "kind": "dev",
    "methods": {
      "acceptCallback(uint256)": {
        "details": "Accept a callback",
        "params": {
          "callbackId": "callback proposition ID"
        }
      },
      "approveCallback(uint256)": {
        "details": "Approve a callback",
        "params": {
          "callbackId": "callback proposition ID"
        }
      },
      "authorizeMaintener(uint256,address)": {
        "details": "Function to authorize an address to maintain a token.",
        "params": {
          "maintener": "The authorized address"
        }
      },
      "authorizeTokenizer(address)": {
        "details": "Function to authorize an address to create a token.",
        "params": {
          "tokenizer": "The authorized address"
        }
      },
      "balanceOf(address,uint256)": {
        "details": "Get the specified address' balance for token with specified ID. Attempting to query the zero account for a balance will result in a revert.",
        "params": {
          "account": "The address of the token holder",
          "id": "ID of the token"
        },
        "returns": {
          "_0": "The account's balance of the token type requested"
        }
      },
      "balanceOfBatch(address[],uint256[])": {
        "details": "Get the balance of multiple account/token pairs. If any of the query accounts is the zero account, this query will revert.",
        "params": {
          "accounts": "The addresses of the token holders",
          "ids": "IDs of the tokens"
        },
        "returns": {
          "_0": "Balances for each account and token id pair"
        }
      },
      "cloneToken(uint256,uint256[],uint256[])": {
        "details": "Function to mint tokens in batch.",
        "params": {
          "id": "Identifier of the template",
          "ids": "list of IDs of the tokens to be minted",
          "metadataHashes": "list of metadata file hashes"
        }
      },
      "constructor": {
        "details": "Initializes the contract setting the deployer as the initial owner."
      },
      "createToken(address,uint256,uint256,uint256,uint256,uint256[3],address[],uint256[],uint256,bool,address)": {
        "details": "Function to mint an amount of a token with the given ID.",
        "params": {
          "feesRecipients": "list of addresses receiving transfer fees",
          "feesRecipientsPercentage": "list of percentage, each one for the corresponding feesRecipients",
          "id": "ID of the token to be minted",
          "isPrivate": "true if holder need approval",
          "legalAuthority": "address of the legal authority",
          "metadataHash": "Metadata file hash",
          "minHoldingForCallback": "minimum holding to propose a callback",
          "recipient": "The address that will own the minted tokens",
          "supply": "Amount of the token to be minted",
          "transactionFees": "transaction fees: [lumpSumFees (in WEI), valueProportionalFees (ratio of transfered amount * 10**8), storageFees (in storageCredit * 10**8)]"
        }
      },
      "deposit(address)": {
        "details": "Function to make an ETH deposit that can be used to pay token transfer .",
        "params": {
          "to": "recipent address"
        }
      },
      "executeCallback(uint256,uint256)": {
        "details": "Accept a callback. Caller need to recall the function to continue the callback until completed.",
        "params": {
          "callbackId": "callback proposition ID",
          "maxCall": "maximal call to excute"
        }
      },
      "isApprovedForAll(address,address)": {
        "params": {
          "account": "The account of the Tokens",
          "operator": "Address of authorized operator"
        },
        "returns": {
          "_0": "True if the operator is approved, false if not"
        }
      },
      "isLockedAddress(address)": {
        "details": "Function to check if an address is lockec.",
        "params": {
          "addr": "The address to check"
        }
      },
      "isLockedToken(uint256)": {
        "details": "Function to check if a token is locked.",
        "params": {
          "id": "The token ID"
        }
      },
      "isMaintener(uint256,address)": {
        "details": "Function to check if an address is authorized to maintain a token.",
        "params": {
          "id": "the token id",
          "maintener": "The authorized address"
        },
        "returns": {
          "_0": "true if it's a maintener address"
        }
      },
      "isTokenizer(address)": {
        "details": "Function to check if an address is authorized to create a token.",
        "params": {
          "tokenizer": "The authorized address"
        }
      },
      "lockAddress(address)": {
        "details": "Function to lock an address.",
        "params": {
          "addr": "The address to lock"
        }
      },
      "lockToken(uint256,uint256)": {
        "details": "Function to lock a token.",
        "params": {
          "id": "The token ID"
        }
      },
      "owner()": {
        "details": "Returns the address of the current owner."
      },
      "proposeCallback(uint256,uint256,uint256,address[],uint256)": {
        "details": "Propose to buy the whole supply of a token. The proposer must hold minHoldingForCallback% of the total supply. StashBlox must approve the price with acceptCallback();",
        "params": {
          "callees": "list of calless. Empty list means all holders.",
          "price": "proposed price",
          "tokenId": "Token ID"
        }
      },
      "refuseCallback(uint256)": {
        "details": "Refuse a callback if the price is not enough.",
        "params": {
          "callbackId": "callback proposition ID"
        }
      },
      "revokeMaintener(uint256,address)": {
        "details": "Function to revoke the authorization to maintain a token.",
        "params": {
          "id": "the token id",
          "maintener": "The authorized address"
        }
      },
      "revokeTokenizer(address)": {
        "details": "Function to revoke the authorization to create a token.",
        "params": {
          "tokenizer": "The authorized address"
        }
      },
      "safeBatchTransferFrom(address,address,uint256[],uint256[],bytes)": {
        "details": "Transfers `values` amount(s) of `ids` from the `from` address to the `to` address specified. Caller must be approved to manage the tokens being transferred out of the `from` account. If `to` is a smart contract, will call `onERC1155BatchReceived` on `to` and act appropriately.",
        "params": {
          "data": "Data forwarded to `onERC1155Received` if `to` is a contract receiver",
          "from": "Source address",
          "ids": "IDs of each token type",
          "to": "Target address",
          "values": "Transfer amounts per token type"
        }
      },
      "safeTransferFrom(address,address,uint256,uint256,bytes)": {
        "details": "Transfers `value` amount of an `id` from the `from` address to the `to` address specified. Caller must be approved to manage the tokens being transferred out of the `from` account. If `to` is a smart contract, will call `onERC1155Received` on `to` and act appropriately.",
        "params": {
          "data": "Data forwarded to `onERC1155Received` if `to` is a contract receiver",
          "from": "Source address",
          "id": "ID of the token type",
          "to": "Target address",
          "value": "Transfer amount"
        }
      },
      "setApprovalForAll(address,bool)": {
        "details": "Sets or unsets the approval of a given operator. An operator is allowed to transfer all tokens of the sender on their behalf. Because an account already has operator privileges for itself, this function will revert if the account attempts to set the approval status for itself.",
        "params": {
          "approved": "representing the status of the approval to be set",
          "operator": "address to set the approval"
        }
      },
      "setCallbackAutoExecuteMaxAddresses(uint256)": {
        "details": "Maximum addresses to execute automatically the callback when is accepted.",
        "params": {
          "newMax": "new maximum"
        }
      },
      "setProxyRegistryAddress(address[10])": {
        "details": "Function to update the operator whitelist",
        "params": {
          "proxyAddresses": "List of addresses"
        }
      },
      "supportsInterface(bytes4)": {
        "params": {
          "_interfaceID": "The interface identifier, as specified in ERC-165"
        },
        "returns": {
          "_0": "`true` if the contract implements `_interfaceID` and"
        }
      },
      "transactionFees(address,uint256,uint256)": {
        "details": "Function to get the transaction price to transfer tokens.",
        "params": {
          "account": "the address from where to transfer the tokens",
          "id": "The token ID",
          "value": "The amount to transfer"
        }
      },
      "transferOwnership(address)": {
        "details": "Transfers ownership of the contract to a new account (`newOwner`). Can only be called by the current owner."
      },
      "unlockAddress(address)": {
        "details": "Function to unlock an address.",
        "params": {
          "addr": "The address to unlock"
        }
      },
      "unlockToken(uint256,uint256)": {
        "details": "Function to unlock a token.",
        "params": {
          "id": "The token ID"
        }
      },
      "updateToken(uint256,uint256,uint256[3],address[],uint256[],uint256,bool,address)": {
        "details": "Function to update a token with the given ID.",
        "params": {
          "feesRecipients": "list of addresses receiving transfer fees",
          "feesRecipientsPercentage": "list of percentage, each one for the corresponding feesRecipients",
          "id": "ID of the token to be updated",
          "isPrivate": "true if holder need approval",
          "legalAuthority": "address of the legal authority",
          "metadataHash": "Metadata file hash",
          "minHoldingForCallback": "minimum holding to propose a callback",
          "transactionFees": "transaction fees: [lumpSumFees (in WEI), valueProportionalFees (ratio of transfered amount * 10**8), storageFees (in storageCredit * 10**8)]"
        }
      },
      "uri(uint256)": {
        "params": {
          "id": "Token ID"
        },
        "returns": {
          "_0": "URI string"
        }
      },
      "withdraw(address,uint256)": {
        "details": "Function to withdraw ETH from the contract.",
        "params": {
          "amount": "amount to withdraw",
          "to": "recipent address"
        }
      }
    },
    "version": 1
  },
  "userdoc": {
    "kind": "user",
    "methods": {
      "isApprovedForAll(address,address)": {
        "notice": "Queries the approval status of an operator for a given account."
      },
      "supportsInterface(bytes4)": {
        "notice": "Query if a contract implements an interface"
      }
    },
    "version": 1
  }
}