{
  "contractName": "StashBlox",
  "abi": [
    {
      "anonymous": false,
      "inputs": [
        {
          "indexed": true,
          "internalType": "address",
          "name": "_owner",
          "type": "address"
        },
        {
          "indexed": true,
          "internalType": "address",
          "name": "_operator",
          "type": "address"
        },
        {
          "indexed": false,
          "internalType": "bool",
          "name": "_approved",
          "type": "bool"
        }
      ],
      "name": "ApprovalForAll",
      "type": "event"
    },
    {
      "anonymous": false,
      "inputs": [
        {
          "indexed": true,
          "internalType": "uint256",
          "name": "_id",
          "type": "uint256"
        },
        {
          "indexed": true,
          "internalType": "uint256",
          "name": "_hash",
          "type": "uint256"
        }
      ],
      "name": "MetadataHashUpdated",
      "type": "event"
    },
    {
      "anonymous": false,
      "inputs": [
        {
          "indexed": true,
          "internalType": "address",
          "name": "previousOwner",
          "type": "address"
        },
        {
          "indexed": true,
          "internalType": "address",
          "name": "newOwner",
          "type": "address"
        }
      ],
      "name": "OwnershipTransferred",
      "type": "event"
    },
    {
      "anonymous": false,
      "inputs": [
        {
          "indexed": true,
          "internalType": "address",
          "name": "_operator",
          "type": "address"
        },
        {
          "indexed": true,
          "internalType": "address",
          "name": "_from",
          "type": "address"
        },
        {
          "indexed": true,
          "internalType": "address",
          "name": "_to",
          "type": "address"
        },
        {
          "indexed": false,
          "internalType": "uint256[]",
          "name": "_ids",
          "type": "uint256[]"
        },
        {
          "indexed": false,
          "internalType": "uint256[]",
          "name": "_values",
          "type": "uint256[]"
        }
      ],
      "name": "TransferBatch",
      "type": "event"
    },
    {
      "anonymous": false,
      "inputs": [
        {
          "indexed": true,
          "internalType": "address",
          "name": "_operator",
          "type": "address"
        },
        {
          "indexed": true,
          "internalType": "address",
          "name": "_from",
          "type": "address"
        },
        {
          "indexed": true,
          "internalType": "address",
          "name": "_to",
          "type": "address"
        },
        {
          "indexed": false,
          "internalType": "uint256",
          "name": "_id",
          "type": "uint256"
        },
        {
          "indexed": false,
          "internalType": "uint256",
          "name": "_value",
          "type": "uint256"
        }
      ],
      "name": "TransferSingle",
      "type": "event"
    },
    {
      "anonymous": false,
      "inputs": [
        {
          "indexed": false,
          "internalType": "string",
          "name": "_value",
          "type": "string"
        },
        {
          "indexed": true,
          "internalType": "uint256",
          "name": "_id",
          "type": "uint256"
        }
      ],
      "name": "URI",
      "type": "event"
    },
    {
      "anonymous": false,
      "inputs": [
        {
          "indexed": true,
          "internalType": "address",
          "name": "_tokenizer",
          "type": "address"
        },
        {
          "indexed": false,
          "internalType": "uint256",
          "name": "_id",
          "type": "uint256"
        },
        {
          "indexed": false,
          "internalType": "uint256",
          "name": "_cost",
          "type": "uint256"
        }
      ],
      "name": "UpdateStorageCost",
      "type": "event"
    },
    {
      "anonymous": false,
      "inputs": [
        {
          "indexed": true,
          "internalType": "address",
          "name": "_owner",
          "type": "address"
        },
        {
          "indexed": false,
          "internalType": "uint256",
          "name": "_price",
          "type": "uint256"
        }
      ],
      "name": "UpdateStorageCreditPrice",
      "type": "event"
    },
    {
      "constant": true,
      "inputs": [],
      "name": "BASE_URI",
      "outputs": [
        {
          "internalType": "string",
          "name": "",
          "type": "string"
        }
      ],
      "payable": false,
      "stateMutability": "view",
      "type": "function"
    },
    {
      "constant": true,
      "inputs": [
        {
          "internalType": "uint256",
          "name": "id",
          "type": "uint256"
        }
      ],
      "name": "addressesByToken",
      "outputs": [
        {
          "internalType": "string",
          "name": "result",
          "type": "string"
        }
      ],
      "payable": false,
      "stateMutability": "view",
      "type": "function"
    },
    {
      "constant": false,
      "inputs": [
        {
          "internalType": "address",
          "name": "tokenizer",
          "type": "address"
        }
      ],
      "name": "authorizeTokenizer",
      "outputs": [],
      "payable": false,
      "stateMutability": "nonpayable",
      "type": "function"
    },
    {
      "constant": true,
      "inputs": [
        {
          "internalType": "address",
          "name": "account",
          "type": "address"
        },
        {
          "internalType": "uint256",
          "name": "id",
          "type": "uint256"
        }
      ],
      "name": "balanceOf",
      "outputs": [
        {
          "internalType": "uint256",
          "name": "",
          "type": "uint256"
        }
      ],
      "payable": false,
      "stateMutability": "view",
      "type": "function"
    },
    {
      "constant": true,
      "inputs": [
        {
          "internalType": "address[]",
          "name": "accounts",
          "type": "address[]"
        },
        {
          "internalType": "uint256[]",
          "name": "ids",
          "type": "uint256[]"
        }
      ],
      "name": "balanceOfBatch",
      "outputs": [
        {
          "internalType": "uint256[]",
          "name": "",
          "type": "uint256[]"
        }
      ],
      "payable": false,
      "stateMutability": "view",
      "type": "function"
    },
    {
      "constant": true,
      "inputs": [
        {
          "internalType": "address",
          "name": "account",
          "type": "address"
        },
        {
          "internalType": "uint256",
          "name": "id",
          "type": "uint256"
        }
      ],
      "name": "birthdayOf",
      "outputs": [
        {
          "internalType": "uint256",
          "name": "",
          "type": "uint256"
        }
      ],
      "payable": false,
      "stateMutability": "view",
      "type": "function"
    },
    {
      "constant": false,
      "inputs": [
        {
          "internalType": "address",
          "name": "recipient",
          "type": "address"
        },
        {
          "internalType": "uint256",
          "name": "id",
          "type": "uint256"
        },
        {
          "internalType": "uint256",
          "name": "supply",
          "type": "uint256"
        },
        {
          "internalType": "uint256",
          "name": "metadataHash",
          "type": "uint256"
        },
        {
          "internalType": "uint256",
          "name": "storageCreditCost",
          "type": "uint256"
        },
        {
          "internalType": "address[]",
          "name": "feesRecipients",
          "type": "address[]"
        },
        {
          "internalType": "uint256[]",
          "name": "feesRecipientsPercentage",
          "type": "uint256[]"
        }
      ],
      "name": "createToken",
      "outputs": [],
      "payable": false,
      "stateMutability": "nonpayable",
      "type": "function"
    },
    {
      "constant": false,
      "inputs": [
        {
          "internalType": "address",
          "name": "recipient",
          "type": "address"
        },
        {
          "internalType": "uint256[]",
          "name": "ids",
          "type": "uint256[]"
        },
        {
          "internalType": "uint256[]",
          "name": "metadataHashes",
          "type": "uint256[]"
        }
      ],
      "name": "createTokens",
      "outputs": [],
      "payable": false,
      "stateMutability": "nonpayable",
      "type": "function"
    },
    {
      "constant": true,
      "inputs": [
        {
          "internalType": "address",
          "name": "account",
          "type": "address"
        },
        {
          "internalType": "address",
          "name": "operator",
          "type": "address"
        }
      ],
      "name": "isApprovedForAll",
      "outputs": [
        {
          "internalType": "bool",
          "name": "",
          "type": "bool"
        }
      ],
      "payable": false,
      "stateMutability": "view",
      "type": "function"
    },
    {
      "constant": true,
      "inputs": [
        {
          "internalType": "address",
          "name": "addr",
          "type": "address"
        }
      ],
      "name": "isLockedAddress",
      "outputs": [
        {
          "internalType": "bool",
          "name": "",
          "type": "bool"
        }
      ],
      "payable": false,
      "stateMutability": "view",
      "type": "function"
    },
    {
      "constant": true,
      "inputs": [
        {
          "internalType": "uint256",
          "name": "id",
          "type": "uint256"
        }
      ],
      "name": "isLockedToken",
      "outputs": [
        {
          "internalType": "bool",
          "name": "",
          "type": "bool"
        }
      ],
      "payable": false,
      "stateMutability": "view",
      "type": "function"
    },
    {
      "constant": true,
      "inputs": [
        {
          "internalType": "address",
          "name": "tokenizer",
          "type": "address"
        }
      ],
      "name": "isTokenizer",
      "outputs": [
        {
          "internalType": "bool",
          "name": "",
          "type": "bool"
        }
      ],
      "payable": false,
      "stateMutability": "view",
      "type": "function"
    },
    {
      "constant": false,
      "inputs": [
        {
          "internalType": "address",
          "name": "addr",
          "type": "address"
        }
      ],
      "name": "lockAddress",
      "outputs": [],
      "payable": false,
      "stateMutability": "nonpayable",
      "type": "function"
    },
    {
      "constant": false,
      "inputs": [
        {
          "internalType": "uint256",
          "name": "id",
          "type": "uint256"
        }
      ],
      "name": "lockToken",
      "outputs": [],
      "payable": false,
      "stateMutability": "nonpayable",
      "type": "function"
    },
    {
      "constant": true,
      "inputs": [
        {
          "internalType": "uint256",
          "name": "id",
          "type": "uint256"
        }
      ],
      "name": "metadataHash",
      "outputs": [
        {
          "internalType": "uint256",
          "name": "",
          "type": "uint256"
        }
      ],
      "payable": false,
      "stateMutability": "view",
      "type": "function"
    },
    {
      "constant": true,
      "inputs": [],
      "name": "owner",
      "outputs": [
        {
          "internalType": "address",
          "name": "",
          "type": "address"
        }
      ],
      "payable": false,
      "stateMutability": "view",
      "type": "function"
    },
    {
      "constant": false,
      "inputs": [
        {
          "internalType": "address",
          "name": "tokenizer",
          "type": "address"
        }
      ],
      "name": "revokeTokenizer",
      "outputs": [],
      "payable": false,
      "stateMutability": "nonpayable",
      "type": "function"
    },
    {
      "constant": false,
      "inputs": [
        {
          "internalType": "address",
          "name": "from",
          "type": "address"
        },
        {
          "internalType": "address",
          "name": "to",
          "type": "address"
        },
        {
          "internalType": "uint256[]",
          "name": "ids",
          "type": "uint256[]"
        },
        {
          "internalType": "uint256[]",
          "name": "values",
          "type": "uint256[]"
        },
        {
          "internalType": "bytes",
          "name": "data",
          "type": "bytes"
        }
      ],
      "name": "safeBatchTransferFrom",
      "outputs": [],
      "payable": true,
      "stateMutability": "payable",
      "type": "function"
    },
    {
      "constant": false,
      "inputs": [
        {
          "internalType": "address",
          "name": "from",
          "type": "address"
        },
        {
          "internalType": "address",
          "name": "to",
          "type": "address"
        },
        {
          "internalType": "uint256",
          "name": "id",
          "type": "uint256"
        },
        {
          "internalType": "uint256",
          "name": "value",
          "type": "uint256"
        },
        {
          "internalType": "bytes",
          "name": "data",
          "type": "bytes"
        }
      ],
      "name": "safeTransferFrom",
      "outputs": [],
      "payable": true,
      "stateMutability": "payable",
      "type": "function"
    },
    {
      "constant": false,
      "inputs": [
        {
          "internalType": "address",
          "name": "operator",
          "type": "address"
        },
        {
          "internalType": "bool",
          "name": "approved",
          "type": "bool"
        }
      ],
      "name": "setApprovalForAll",
      "outputs": [],
      "payable": false,
      "stateMutability": "nonpayable",
      "type": "function"
    },
    {
      "constant": false,
      "inputs": [
        {
          "internalType": "uint256",
          "name": "supply",
          "type": "uint256"
        },
        {
          "internalType": "uint256",
          "name": "storageCreditCost",
          "type": "uint256"
        },
        {
          "internalType": "address[]",
          "name": "feesRecipients",
          "type": "address[]"
        },
        {
          "internalType": "uint256[]",
          "name": "feesRecipientsPercentage",
          "type": "uint256[]"
        }
      ],
      "name": "setCreateTokensDefaultValues",
      "outputs": [],
      "payable": false,
      "stateMutability": "nonpayable",
      "type": "function"
    },
    {
      "constant": true,
      "inputs": [
        {
          "internalType": "address",
          "name": "account",
          "type": "address"
        },
        {
          "internalType": "uint256",
          "name": "id",
          "type": "uint256"
        },
        {
          "internalType": "uint256",
          "name": "value",
          "type": "uint256"
        }
      ],
      "name": "storageFees",
      "outputs": [
        {
          "internalType": "uint256",
          "name": "",
          "type": "uint256"
        }
      ],
      "payable": false,
      "stateMutability": "view",
      "type": "function"
    },
    {
      "constant": true,
      "inputs": [
        {
          "internalType": "bytes4",
          "name": "_interfaceID",
          "type": "bytes4"
        }
      ],
      "name": "supportsInterface",
      "outputs": [
        {
          "internalType": "bool",
          "name": "",
          "type": "bool"
        }
      ],
      "payable": false,
      "stateMutability": "view",
      "type": "function"
    },
    {
      "constant": true,
      "inputs": [
        {
          "internalType": "address",
          "name": "account",
          "type": "address"
        }
      ],
      "name": "tokensByAddress",
      "outputs": [
        {
          "internalType": "string",
          "name": "result",
          "type": "string"
        }
      ],
      "payable": false,
      "stateMutability": "view",
      "type": "function"
    },
    {
      "constant": true,
      "inputs": [
        {
          "internalType": "uint256",
          "name": "id",
          "type": "uint256"
        }
      ],
      "name": "totalSupply",
      "outputs": [
        {
          "internalType": "uint256",
          "name": "",
          "type": "uint256"
        }
      ],
      "payable": false,
      "stateMutability": "view",
      "type": "function"
    },
    {
      "constant": false,
      "inputs": [
        {
          "internalType": "address",
          "name": "newOwner",
          "type": "address"
        }
      ],
      "name": "transferOwnership",
      "outputs": [],
      "payable": false,
      "stateMutability": "nonpayable",
      "type": "function"
    },
    {
      "constant": false,
      "inputs": [
        {
          "internalType": "address",
          "name": "addr",
          "type": "address"
        }
      ],
      "name": "unlockAddress",
      "outputs": [],
      "payable": false,
      "stateMutability": "nonpayable",
      "type": "function"
    },
    {
      "constant": false,
      "inputs": [
        {
          "internalType": "uint256",
          "name": "id",
          "type": "uint256"
        }
      ],
      "name": "unlockToken",
      "outputs": [],
      "payable": false,
      "stateMutability": "nonpayable",
      "type": "function"
    },
    {
      "constant": false,
      "inputs": [
        {
          "internalType": "uint256",
          "name": "id",
          "type": "uint256"
        },
        {
          "internalType": "uint256",
          "name": "metadataHash",
          "type": "uint256"
        }
      ],
      "name": "updateMetadataHash",
      "outputs": [],
      "payable": false,
      "stateMutability": "nonpayable",
      "type": "function"
    },
    {
      "constant": false,
      "inputs": [
        {
          "internalType": "uint256",
          "name": "id",
          "type": "uint256"
        },
        {
          "internalType": "uint256",
          "name": "newCost",
          "type": "uint256"
        }
      ],
      "name": "updateStorageCost",
      "outputs": [],
      "payable": false,
      "stateMutability": "nonpayable",
      "type": "function"
    },
    {
      "constant": false,
      "inputs": [
        {
          "internalType": "uint256",
          "name": "newPrice",
          "type": "uint256"
        }
      ],
      "name": "updateStorageCreditPrice",
      "outputs": [],
      "payable": false,
      "stateMutability": "nonpayable",
      "type": "function"
    },
    {
      "constant": true,
      "inputs": [
        {
          "internalType": "uint256",
          "name": "id",
          "type": "uint256"
        }
      ],
      "name": "uri",
      "outputs": [
        {
          "internalType": "string",
          "name": "",
          "type": "string"
        }
      ],
      "payable": false,
      "stateMutability": "view",
      "type": "function"
    },
    {
      "constant": false,
      "inputs": [
        {
          "internalType": "address",
          "name": "to",
          "type": "address"
        },
        {
          "internalType": "uint256",
          "name": "amount",
          "type": "uint256"
        }
      ],
      "name": "withdraw",
      "outputs": [],
      "payable": false,
      "stateMutability": "nonpayable",
      "type": "function"
    }
  ],
  "bytecode": "0x60806040526103e86006556200001b336200002160201b60201c565b620001ed565b600073ffffffffffffffffffffffffffffffffffffffff168173ffffffffffffffffffffffffffffffffffffffff16141562000094576040517f08c379a00000000000000000000000000000000000000000000000000000000081526004016200008b90620001ba565b60405180910390fd5b8073ffffffffffffffffffffffffffffffffffffffff166000809054906101000a900473ffffffffffffffffffffffffffffffffffffffff1673ffffffffffffffffffffffffffffffffffffffff167f8be0079c531659141344cd1fd0a4f28419497f9722a3daafe3b4186f6b6457e060405160405180910390a3806000806101000a81548173ffffffffffffffffffffffffffffffffffffffff021916908373ffffffffffffffffffffffffffffffffffffffff16021790555050565b600062000161602683620001dc565b91507f4f776e61626c653a206e6577206f776e657220697320746865207a65726f206160008301527f64647265737300000000000000000000000000000000000000000000000000006020830152604082019050919050565b60006020820190508181036000830152620001d58162000152565b9050919050565b600082825260208201905092915050565b615a1a80620001fd6000396000f3fe6080604052600436106101ed5760003560e01c8063a22cb4651161010d578063d6bc5942116100a0578063e985e9c51161006f578063e985e9c514610769578063f242432a146107a6578063f2fde38b146107c2578063f38320ce146107eb578063f3fef3a314610814576101ed565b8063d6bc59421461069b578063dbddb26a146106d8578063dd2e0ac014610703578063e1c95f8a1461072c576101ed565b8063bd85b039116100dc578063bd85b039146105a7578063c02f303c146105e4578063c4be3c3c14610621578063cba54e601461065e576101ed565b8063a22cb465146104db578063b5690ac114610504578063b7eb5e0a14610541578063bba75c831461056a576101ed565b80636b62becb116101855780638870147b116101545780638870147b146104355780638da5cb5b1461045e578063935a365014610489578063939cd641146104b2576101ed565b80636b62becb146103915780637627b732146103ba57806380f20363146103e35780638495b1411461040c576101ed565b80632eb2c2d6116101c15780632eb2c2d6146102e657806334a90d02146103025780634e1273f41461032b5780634fa2dbea14610368576101ed565b8062fdd58e146101f257806301ffc9a71461022f5780630e89341c1461026c578063219cc8bc146102a9575b600080fd5b3480156101fe57600080fd5b506102196004803603610214919081019061444e565b61083d565b6040516102269190615742565b60405180910390f35b34801561023b57600080fd5b506102566004803603610251919081019061461b565b610907565b60405161026391906153c3565b60405180910390f35b34801561027857600080fd5b50610293600480360361028e919081019061466d565b6109b8565b6040516102a09190615400565b60405180910390f35b3480156102b557600080fd5b506102d060048036036102cb919081019061466d565b610a08565b6040516102dd9190615742565b60405180910390f35b61030060048036036102fb919081019061422b565b610a25565b005b34801561030e57600080fd5b50610329600480360361032491908101906141c6565b610dd2565b005b34801561033757600080fd5b50610352600480360361034d91908101906145af565b610e74565b60405161035f91906153a1565b60405180910390f35b34801561037457600080fd5b5061038f600480360361038a91908101906144d9565b611026565b005b34801561039d57600080fd5b506103b860048036036103b39190810190614696565b61110a565b005b3480156103c657600080fd5b506103e160048036036103dc91908101906141c6565b611160565b005b3480156103ef57600080fd5b5061040a6004803603610405919081019061466d565b611202565b005b34801561041857600080fd5b50610433600480360361042e919081019061466d565b611277565b005b34801561044157600080fd5b5061045c600480360361045791908101906141c6565b611317565b005b34801561046a57600080fd5b506104736113b9565b6040516104809190615289565b60405180910390f35b34801561049557600080fd5b506104b060048036036104ab91908101906146d2565b6113e2565b005b3480156104be57600080fd5b506104d960048036036104d49190810190614696565b611464565b005b3480156104e757600080fd5b5061050260048036036104fd9190810190614412565b611563565b005b34801561051057600080fd5b5061052b6004803603610526919081019061466d565b6116cf565b6040516105389190615400565b60405180910390f35b34801561054d57600080fd5b50610568600480360361056391908101906141c6565b61184f565b005b34801561057657600080fd5b50610591600480360361058c919081019061466d565b6118f1565b60405161059e91906153c3565b60405180910390f35b3480156105b357600080fd5b506105ce60048036036105c9919081019061466d565b611903565b6040516105db9190615742565b60405180910390f35b3480156105f057600080fd5b5061060b600480360361060691908101906141c6565b611920565b60405161061891906153c3565b60405180910390f35b34801561062d57600080fd5b506106486004803603610643919081019061448a565b611932565b6040516106559190615742565b60405180910390f35b34801561066a57600080fd5b50610685600480360361068091908101906141c6565b611948565b60405161069291906153c3565b60405180910390f35b3480156106a757600080fd5b506106c260048036036106bd91908101906141c6565b61195a565b6040516106cf9190615400565b60405180910390f35b3480156106e457600080fd5b506106ed611b56565b6040516106fa91906153de565b60405180910390f35b34801561070f57600080fd5b5061072a6004803603610725919081019061466d565b611b8f565b005b34801561073857600080fd5b50610753600480360361074e919081019061444e565b611c05565b6040516107609190615742565b60405180910390f35b34801561077557600080fd5b50610790600480360361078b91908101906141ef565b611d2f565b60405161079d91906153c3565b60405180910390f35b6107c060048036036107bb91908101906142f7565b611dc3565b005b3480156107ce57600080fd5b506107e960048036036107e491908101906141c6565b61205f565b005b3480156107f757600080fd5b50610812600480360361080d9190810190614389565b6120b2565b005b34801561082057600080fd5b5061083b6004803603610836919081019061444e565b61222b565b005b60008073ffffffffffffffffffffffffffffffffffffffff168373ffffffffffffffffffffffffffffffffffffffff1614156108ae576040517f08c379a00000000000000000000000000000000000000000000000000000000081526004016108a590615442565b60405180910390fd5b6003600083815260200190815260200160002060008473ffffffffffffffffffffffffffffffffffffffff1673ffffffffffffffffffffffffffffffffffffffff16815260200190815260200160002054905092915050565b60006301ffc9a760e01b7bffffffffffffffffffffffffffffffffffffffffffffffffffffffff1916827bffffffffffffffffffffffffffffffffffffffffffffffffffffffff191614806109a0575063d9b67a2660e01b7bffffffffffffffffffffffffffffffffffffffffffffffffffffffff1916827bffffffffffffffffffffffffffffffffffffffffffffffffffffffff1916145b156109ae57600190506109b3565b600090505b919050565b6060610a016040518060400160405280601d81526020017f68747470733a2f2f7374617368626c6f782e636f6d2f746f6b656e732f0000008152506109fc846123d4565b6124c3565b9050919050565b6000600e6000838152602001908152602001600020549050919050565b838390508686905014610a6d576040517f08c379a0000000000000000000000000000000000000000000000000000000008152600401610a6490615682565b60405180910390fd5b600073ffffffffffffffffffffffffffffffffffffffff168773ffffffffffffffffffffffffffffffffffffffff161415610add576040517f08c379a0000000000000000000000000000000000000000000000000000000008152600401610ad490615482565b60405180910390fd5b3373ffffffffffffffffffffffffffffffffffffffff168873ffffffffffffffffffffffffffffffffffffffff161480610b24575060011515610b208933611d2f565b1515145b610b63576040517f08c379a0000000000000000000000000000000000000000000000000000000008152600401610b5a90615662565b60405180910390fd5b600034905060008090505b87879050811015610bb957610baa8a8a8a8a85818110610b8a57fe5b90506020020135898986818110610b9d57fe5b905060200201358661260e565b82039150806001019050610b6e565b508773ffffffffffffffffffffffffffffffffffffffff168973ffffffffffffffffffffffffffffffffffffffff163373ffffffffffffffffffffffffffffffffffffffff167f4a39dc06d4c0dbc64b70af90fd698a233a518aa5d07e595d983b8c0526c8f7fb8a8a8a8a604051610c349493929190615366565b60405180910390a4610d10338a8a8a8a80806020026020016040519081016040528093929190818152602001838360200280828437600081840152601f19601f82011690508083019250505050505050898980806020026020016040519081016040528093929190818152602001838360200280828437600081840152601f19601f8201169050808301925050505050505088888080601f016020809104026020016040519081016040528093929190818152602001838380828437600081840152601f19601f82011690508083019250505050505050612cf1565b6000811115610dc75760003373ffffffffffffffffffffffffffffffffffffffff1682604051610d3f90615274565b60006040518083038185875af1925050503d8060008114610d7c576040519150601f19603f3d011682016040523d82523d6000602084013e610d81565b606091505b5050905080610dc5576040517f08c379a0000000000000000000000000000000000000000000000000000000008152600401610dbc906156a2565b60405180910390fd5b505b505050505050505050565b610dda612e50565b610e19576040517f08c379a0000000000000000000000000000000000000000000000000000000008152600401610e1090615602565b60405180910390fd5b6001600260008373ffffffffffffffffffffffffffffffffffffffff1673ffffffffffffffffffffffffffffffffffffffff16815260200190815260200160002060006101000a81548160ff02191690831515021790555050565b60608151835114610eba576040517f08c379a0000000000000000000000000000000000000000000000000000000008152600401610eb190615522565b60405180910390fd5b60608351604051908082528060200260200182016040528015610eec5781602001602082028038833980820191505090505b50905060008090505b845181101561101b57600073ffffffffffffffffffffffffffffffffffffffff16858281518110610f2257fe5b602002602001015173ffffffffffffffffffffffffffffffffffffffff161415610f81576040517f08c379a0000000000000000000000000000000000000000000000000000000008152600401610f78906155a2565b60405180910390fd5b60036000858381518110610f9157fe5b602002602001015181526020019081526020016000206000868381518110610fb557fe5b602002602001015173ffffffffffffffffffffffffffffffffffffffff1673ffffffffffffffffffffffffffffffffffffffff1681526020019081526020016000205482828151811061100457fe5b602002602001018181525050806001019050610ef5565b508091505092915050565b61102f33612ea7565b61106e576040517f08c379a000000000000000000000000000000000000000000000000000000000815260040161106590615502565b60405180910390fd5b6110ff8989898989898980806020026020016040519081016040528093929190818152602001838360200280828437600081840152601f19601f82011690508083019250505050505050888880806020026020016040519081016040528093929190818152602001838360200280828437600081840152601f19601f82011690508083019250505050505050612f0c565b505050505050505050565b61111333612ea7565b611152576040517f08c379a000000000000000000000000000000000000000000000000000000000815260040161114990615502565b60405180910390fd5b61115c828261341c565b5050565b611168612e50565b6111a7576040517f08c379a000000000000000000000000000000000000000000000000000000000815260040161119e90615602565b60405180910390fd5b6001601060008373ffffffffffffffffffffffffffffffffffffffff1673ffffffffffffffffffffffffffffffffffffffff16815260200190815260200160002060006101000a81548160ff02191690831515021790555050565b61120a612e50565b611249576040517f08c379a000000000000000000000000000000000000000000000000000000000815260040161124090615602565b60405180910390fd5b600180600083815260200190815260200160002060006101000a81548160ff02191690831515021790555050565b61128033612ea7565b6112bf576040517f08c379a00000000000000000000000000000000000000000000000000000000081526004016112b690615502565b60405180910390fd5b806006819055503373ffffffffffffffffffffffffffffffffffffffff167f5c5a35dc0829d2f6a31d1d6da57c4315ba7b562ee447c87b75c732cfd96abde98260405161130c9190615742565b60405180910390a250565b61131f612e50565b61135e576040517f08c379a000000000000000000000000000000000000000000000000000000000815260040161135590615602565b60405180910390fd5b6000601060008373ffffffffffffffffffffffffffffffffffffffff1673ffffffffffffffffffffffffffffffffffffffff16815260200190815260200160002060006101000a81548160ff02191690831515021790555050565b60008060009054906101000a900473ffffffffffffffffffffffffffffffffffffffff16905090565b6113eb33612ea7565b61142a576040517f08c379a000000000000000000000000000000000000000000000000000000000815260040161142190615502565b60405180910390fd5b8560118190555084601281905550838360139190611449929190613d0d565b5081816014919061145b929190613dad565b50505050505050565b61146d33612ea7565b6114ac576040517f08c379a00000000000000000000000000000000000000000000000000000000081526004016114a390615502565b60405180910390fd5b600560008381526020019081526020016000206040518060400160405280428152602001838152509080600181540180825580915050906001820390600052602060002090600202016000909192909190915090600261150d929190613dfa565b50503373ffffffffffffffffffffffffffffffffffffffff167f4bd9446604f43017ac3918d8db419b59a3b6f2a6cdd456eed5de99621bb62765838360405161155792919061575d565b60405180910390a25050565b8173ffffffffffffffffffffffffffffffffffffffff163373ffffffffffffffffffffffffffffffffffffffff1614156115d2576040517f08c379a00000000000000000000000000000000000000000000000000000000081526004016115c9906154c2565b60405180910390fd5b80600d60003373ffffffffffffffffffffffffffffffffffffffff1673ffffffffffffffffffffffffffffffffffffffff16815260200190815260200160002060008473ffffffffffffffffffffffffffffffffffffffff1673ffffffffffffffffffffffffffffffffffffffff16815260200190815260200160002060006101000a81548160ff0219169083151502179055508173ffffffffffffffffffffffffffffffffffffffff163373ffffffffffffffffffffffffffffffffffffffff167f17307eab39ab6107e8899845ad3d59bd9653f200f220920489ca2b5937696c31836040516116c391906153c3565b60405180910390a35050565b606060008090505b600b600084815260200190815260200160002080549050811015611846576000600b6000858152602001908152602001600020828154811061171557fe5b9060005260206000200160009054906101000a900473ffffffffffffffffffffffffffffffffffffffff16905060006003600086815260200190815260200160002060008373ffffffffffffffffffffffffffffffffffffffff1673ffffffffffffffffffffffffffffffffffffffff16815260200190815260200160002054111561183857600083511115611815576117e4836040518060400160405280600181526020017f20000000000000000000000000000000000000000000000000000000000000008152506124c3565b925061180e836118098373ffffffffffffffffffffffffffffffffffffffff166123d4565b6124c3565b9250611837565b6118348173ffffffffffffffffffffffffffffffffffffffff166123d4565b92505b5b5080806001019150506116d7565b50809050919050565b611857612e50565b611896576040517f08c379a000000000000000000000000000000000000000000000000000000000815260040161188d90615602565b60405180910390fd5b6000600260008373ffffffffffffffffffffffffffffffffffffffff1673ffffffffffffffffffffffffffffffffffffffff16815260200190815260200160002060006101000a81548160ff02191690831515021790555050565b60006118fc82613466565b9050919050565b6000600f6000838152602001908152602001600020549050919050565b600061192b82612ea7565b9050919050565b600061193f848484613490565b90509392505050565b6000611953826136e1565b9050919050565b6060600073ffffffffffffffffffffffffffffffffffffffff168273ffffffffffffffffffffffffffffffffffffffff1614156119cc576040517f08c379a00000000000000000000000000000000000000000000000000000000081526004016119c390615442565b60405180910390fd5b60008090505b600a60008473ffffffffffffffffffffffffffffffffffffffff1673ffffffffffffffffffffffffffffffffffffffff16815260200190815260200160002080549050811015611b4d576000600a60008573ffffffffffffffffffffffffffffffffffffffff1673ffffffffffffffffffffffffffffffffffffffff1681526020019081526020016000208281548110611a6857fe5b9060005260206000200154905060006003600083815260200190815260200160002060008673ffffffffffffffffffffffffffffffffffffffff1673ffffffffffffffffffffffffffffffffffffffff168152602001908152602001600020541115611b3f57600083511115611b3257611b17836040518060400160405280600181526020017f20000000000000000000000000000000000000000000000000000000000000008152506124c3565b9250611b2b83611b26836123d4565b6124c3565b9250611b3e565b611b3b816123d4565b92505b5b5080806001019150506119d2565b50809050919050565b6040518060400160405280601d81526020017f68747470733a2f2f7374617368626c6f782e636f6d2f746f6b656e732f00000081525081565b611b97612e50565b611bd6576040517f08c379a0000000000000000000000000000000000000000000000000000000008152600401611bcd90615602565b60405180910390fd5b60006001600083815260200190815260200160002060006101000a81548160ff02191690831515021790555050565b60008073ffffffffffffffffffffffffffffffffffffffff168373ffffffffffffffffffffffffffffffffffffffff161415611c76576040517f08c379a0000000000000000000000000000000000000000000000000000000008152600401611c6d90615442565b60405180910390fd5b60006003600084815260200190815260200160002060008573ffffffffffffffffffffffffffffffffffffffff1673ffffffffffffffffffffffffffffffffffffffff1681526020019081526020016000205414611d24576004600083815260200190815260200160002060008473ffffffffffffffffffffffffffffffffffffffff1673ffffffffffffffffffffffffffffffffffffffff16815260200190815260200160002054611d27565b60005b905092915050565b6000600d60008473ffffffffffffffffffffffffffffffffffffffff1673ffffffffffffffffffffffffffffffffffffffff16815260200190815260200160002060008373ffffffffffffffffffffffffffffffffffffffff1673ffffffffffffffffffffffffffffffffffffffff16815260200190815260200160002060009054906101000a900460ff16905092915050565b600073ffffffffffffffffffffffffffffffffffffffff168573ffffffffffffffffffffffffffffffffffffffff161415611e33576040517f08c379a0000000000000000000000000000000000000000000000000000000008152600401611e2a90615482565b60405180910390fd5b3373ffffffffffffffffffffffffffffffffffffffff168673ffffffffffffffffffffffffffffffffffffffff161480611e7a575060011515611e768733611d2f565b1515145b611eb9576040517f08c379a0000000000000000000000000000000000000000000000000000000008152600401611eb090615662565b60405180910390fd5b6000349050611ecb878787878561260e565b810390508573ffffffffffffffffffffffffffffffffffffffff168773ffffffffffffffffffffffffffffffffffffffff163373ffffffffffffffffffffffffffffffffffffffff167fc3d58168c5ae7397731d063d5bbf3d657854427343f4c083240f7aacaa2d0f628888604051611f4592919061575d565b60405180910390a4611f9f338888888888888080601f016020809104026020016040519081016040528093929190818152602001838380828437600081840152601f19601f82011690508083019250505050505050613737565b60008111156120565760003373ffffffffffffffffffffffffffffffffffffffff1682604051611fce90615274565b60006040518083038185875af1925050503d806000811461200b576040519150601f19603f3d011682016040523d82523d6000602084013e612010565b606091505b5050905080612054576040517f08c379a000000000000000000000000000000000000000000000000000000000815260040161204b906156a2565b60405180910390fd5b505b50505050505050565b612067612e50565b6120a6576040517f08c379a000000000000000000000000000000000000000000000000000000000815260040161209d90615602565b60405180910390fd5b6120af81613896565b50565b6120bb33612ea7565b6120fa576040517f08c379a00000000000000000000000000000000000000000000000000000000081526004016120f190615502565b60405180910390fd5b60008090505b84849050811015612223576122188686868481811061211b57fe5b9050602002013560115486868681811061213157fe5b9050602002013560125460138054806020026020016040519081016040528092919081815260200182805480156121bd57602002820191906000526020600020905b8160009054906101000a900473ffffffffffffffffffffffffffffffffffffffff1673ffffffffffffffffffffffffffffffffffffffff1681526020019060010190808311612173575b5050505050601480548060200260200160405190810160405280929190818152602001828054801561220e57602002820191906000526020600020905b8154815260200190600101908083116121fa575b5050505050612f0c565b806001019050612100565b505050505050565b612233612e50565b612272576040517f08c379a000000000000000000000000000000000000000000000000000000000815260040161226990615602565b60405180910390fd5b60003073ffffffffffffffffffffffffffffffffffffffff1631905081600960008573ffffffffffffffffffffffffffffffffffffffff1673ffffffffffffffffffffffffffffffffffffffff16815260200190815260200160002054106123cf5760008373ffffffffffffffffffffffffffffffffffffffff16836040516122fa90615274565b60006040518083038185875af1925050503d8060008114612337576040519150601f19603f3d011682016040523d82523d6000602084013e61233c565b606091505b5050905080612380576040517f08c379a000000000000000000000000000000000000000000000000000000000815260040161237790615542565b60405180910390fd5b82600960008673ffffffffffffffffffffffffffffffffffffffff1673ffffffffffffffffffffffffffffffffffffffff16815260200190815260200160002060008282540392505081905550505b505050565b6060600080905060008390505b60008114612403578180600101925050601081816123fb57fe5b0490506123e1565b6060826040519080825280601f01601f1916602001820160405280156124385781602001600182028038833980820191505090505b50905060008090505b838110156124b7576010868161245357fe5b06925061245f836139c4565b826001838703038151811061247057fe5b60200101907effffffffffffffffffffffffffffffffffffffffffffffffffffffffffffff1916908160001a905350601086816124a957fe5b049550806001019050612441565b50809350505050919050565b6060808390506060839050606081518351016040519080825280601f01601f1916602001820160405280156125075781602001600182028038833980820191505090505b509050606081905060008090506000809050600090505b855181101561258c5785818151811061253357fe5b602001015160f81c60f81b83838060010194508151811061255057fe5b60200101907effffffffffffffffffffffffffffffffffffffffffffffffffffffffffffff1916908160001a905350808060010191505061251e565b600090505b84518110156125ff578481815181106125a657fe5b602001015160f81c60f81b8383806001019450815181106125c357fe5b60200101907effffffffffffffffffffffffffffffffffffffffffffffffffffffffffffff1916908160001a9053508080600101915050612591565b82965050505050505092915050565b600061261c86868686613a6d565b1561265c576040517f08c379a000000000000000000000000000000000000000000000000000000000815260040161265390615422565b60405180910390fd5b612667868585613490565b9050808210156126ac576040517f08c379a00000000000000000000000000000000000000000000000000000000081526004016126a390615722565b60405180910390fd5b612729836040518060600160405280602a81526020016159ae602a91396003600088815260200190815260200160002060008a73ffffffffffffffffffffffffffffffffffffffff1673ffffffffffffffffffffffffffffffffffffffff16815260200190815260200160002054613aad9092919063ffffffff16565b6003600086815260200190815260200160002060008873ffffffffffffffffffffffffffffffffffffffff1673ffffffffffffffffffffffffffffffffffffffff1681526020019081526020016000208190555060006127e2846003600088815260200190815260200160002060008973ffffffffffffffffffffffffffffffffffffffff1673ffffffffffffffffffffffffffffffffffffffff16815260200190815260200160002054613b0890919063ffffffff16565b905060006003600087815260200190815260200160002060008873ffffffffffffffffffffffffffffffffffffffff1673ffffffffffffffffffffffffffffffffffffffff168152602001908152602001600020541415612a3657600c600086815260200190815260200160002060008773ffffffffffffffffffffffffffffffffffffffff1673ffffffffffffffffffffffffffffffffffffffff16815260200190815260200160002060009054906101000a900460ff166129dc57600a60008773ffffffffffffffffffffffffffffffffffffffff1673ffffffffffffffffffffffffffffffffffffffff168152602001908152602001600020859080600181540180825580915050906001820390600052602060002001600090919290919091505550600b60008681526020019081526020016000208690806001815401808255809150509060018203906000526020600020016000909192909190916101000a81548173ffffffffffffffffffffffffffffffffffffffff021916908373ffffffffffffffffffffffffffffffffffffffff16021790555050600c600086815260200190815260200160002060008773ffffffffffffffffffffffffffffffffffffffff1673ffffffffffffffffffffffffffffffffffffffff16815260200190815260200160002060009054906101000a9050505b426004600087815260200190815260200160002060008873ffffffffffffffffffffffffffffffffffffffff1673ffffffffffffffffffffffffffffffffffffffff16815260200190815260200160002081905550612b70565b6000612a9b6004600088815260200190815260200160002060008973ffffffffffffffffffffffffffffffffffffffff1673ffffffffffffffffffffffffffffffffffffffff1681526020019081526020016000205442613b5d90919063ffffffff16565b90506000612b1483612b0684600360008c815260200190815260200160002060008d73ffffffffffffffffffffffffffffffffffffffff1673ffffffffffffffffffffffffffffffffffffffff16815260200190815260200160002054613ba790919063ffffffff16565b613c1790919063ffffffff16565b90508042036004600089815260200190815260200160002060008a73ffffffffffffffffffffffffffffffffffffffff1673ffffffffffffffffffffffffffffffffffffffff1681526020019081526020016000208190555050505b806003600087815260200190815260200160002060008873ffffffffffffffffffffffffffffffffffffffff1673ffffffffffffffffffffffffffffffffffffffff1681526020019081526020016000208190555060008090505b6007600087815260200190815260200160002080549050811015612ce3576000600760008881526020019081526020016000208281548110612c0957fe5b9060005260206000200160009054906101000a900473ffffffffffffffffffffffffffffffffffffffff1690506000600860008981526020019081526020016000208381548110612c5657fe5b90600052602060002001549050612c8a612710612c7c8388613ba790919063ffffffff16565b613c1790919063ffffffff16565b600960008473ffffffffffffffffffffffffffffffffffffffff1673ffffffffffffffffffffffffffffffffffffffff168152602001908152602001600020600082825401925050819055505050806001019050612bcb565b508191505095945050505050565b612d108473ffffffffffffffffffffffffffffffffffffffff16613c61565b15612e48578373ffffffffffffffffffffffffffffffffffffffff1663bc197c81905060e01b7bffffffffffffffffffffffffffffffffffffffffffffffffffffffff19168473ffffffffffffffffffffffffffffffffffffffff1663bc197c8188888787876040518663ffffffff1660e01b8152600401612d969594939291906152a4565b602060405180830381600087803b158015612db057600080fd5b505af1158015612dc4573d6000803e3d6000fd5b505050506040513d601f19601f82011682018060405250612de89190810190614644565b7bffffffffffffffffffffffffffffffffffffffffffffffffffffffff191614612e47576040517f08c379a0000000000000000000000000000000000000000000000000000000008152600401612e3e90615582565b60405180910390fd5b5b505050505050565b60008060009054906101000a900473ffffffffffffffffffffffffffffffffffffffff1673ffffffffffffffffffffffffffffffffffffffff163373ffffffffffffffffffffffffffffffffffffffff1614905090565b6000601060008373ffffffffffffffffffffffffffffffffffffffff1673ffffffffffffffffffffffffffffffffffffffff16815260200190815260200160002060009054906101000a900460ff1680612f055750612f04612e50565b5b9050919050565b6000600f60008881526020019081526020016000205414612f62576040517f08c379a0000000000000000000000000000000000000000000000000000000008152600401612f59906155e2565b60405180910390fd5b60008511612fa5576040517f08c379a0000000000000000000000000000000000000000000000000000000008152600401612f9c90615562565b60405180910390fd5b60008311612fe8576040517f08c379a0000000000000000000000000000000000000000000000000000000008152600401612fdf906154e2565b60405180910390fd5b600082511161302c576040517f08c379a0000000000000000000000000000000000000000000000000000000008152600401613023906156e2565b60405180910390fd5b8051825114613070576040517f08c379a0000000000000000000000000000000000000000000000000000000008152600401613067906156c2565b60405180910390fd5b600080905060008090505b82518110156130fd5782818151811061309057fe5b60200260200101518201915060008382815181106130aa57fe5b6020026020010151116130f2576040517f08c379a00000000000000000000000000000000000000000000000000000000081526004016130e990615622565b60405180910390fd5b80600101905061307b565b506127108114613142576040517f08c379a000000000000000000000000000000000000000000000000000000000815260040161313990615642565b60405180910390fd5b6001600c600089815260200190815260200160002060008a73ffffffffffffffffffffffffffffffffffffffff1673ffffffffffffffffffffffffffffffffffffffff16815260200190815260200160002060006101000a81548160ff021916908315150217905550600a60008973ffffffffffffffffffffffffffffffffffffffff1673ffffffffffffffffffffffffffffffffffffffff16815260200190815260200160002087908060018154018082558091505090600182039060005260206000200160009091929091909150555085600f600089815260200190815260200160002081905550856003600089815260200190815260200160002060008a73ffffffffffffffffffffffffffffffffffffffff1673ffffffffffffffffffffffffffffffffffffffff1681526020019081526020016000208190555061328b878661341c565b426004600089815260200190815260200160002060008a73ffffffffffffffffffffffffffffffffffffffff1673ffffffffffffffffffffffffffffffffffffffff168152602001908152602001600020819055506005600088815260200190815260200160002060405180604001604052804281526020018681525090806001815401808255809150509060018203906000526020600020906002020160009091929091909150906002613341929190613dfa565b50508260076000898152602001908152602001600020908051906020019061336a929190613e3a565b5081600860008981526020019081526020016000209080519060200190613392929190613ec4565b508773ffffffffffffffffffffffffffffffffffffffff16600073ffffffffffffffffffffffffffffffffffffffff163373ffffffffffffffffffffffffffffffffffffffff167fc3d58168c5ae7397731d063d5bbf3d657854427343f4c083240f7aacaa2d0f628a8a60405161340a92919061575d565b60405180910390a45050505050505050565b80600e60008481526020019081526020016000208190555080827f9cd9c60390fc75c213fd8d644749f61388dd30ed6c6eb4647b793b5b580fb43060405160405180910390a35050565b60006001600083815260200190815260200160002060009054906101000a900460ff169050919050565b60008073ffffffffffffffffffffffffffffffffffffffff168473ffffffffffffffffffffffffffffffffffffffff161415613501576040517f08c379a00000000000000000000000000000000000000000000000000000000081526004016134f890615442565b60405180910390fd5b600080905060004290506000600160056000888152602001908152602001600020805490500390505b600081106136d457600060056000888152602001908152602001600020828154811061355257fe5b906000526020600020906002020160006002811061356c57fe5b0154905060006305f5e100600654600560008b8152602001908152602001600020858154811061359857fe5b90600052602060002090600202016001600281106135b257fe5b015402816135bc57fe5b049050600082600460008b815260200190815260200160002060008c73ffffffffffffffffffffffffffffffffffffffff1673ffffffffffffffffffffffffffffffffffffffff16815260200190815260200160002054106136985762015180600460008b815260200190815260200160002060008c73ffffffffffffffffffffffffffffffffffffffff1673ffffffffffffffffffffffffffffffffffffffff1681526020019081526020016000205486038161367657fe5b049050600081141561368757600190505b8782820202860195505050506136d4565b62015180838603816136a657fe5b04905060008114156136b757600190505b82945087828202028601955050505080806001900391505061352a565b5081925050509392505050565b6000600260008373ffffffffffffffffffffffffffffffffffffffff1673ffffffffffffffffffffffffffffffffffffffff16815260200190815260200160002060009054906101000a900460ff169050919050565b6137568473ffffffffffffffffffffffffffffffffffffffff16613c61565b1561388e578373ffffffffffffffffffffffffffffffffffffffff1663f23a6e61905060e01b7bffffffffffffffffffffffffffffffffffffffffffffffffffffffff19168473ffffffffffffffffffffffffffffffffffffffff1663f23a6e6188888787876040518663ffffffff1660e01b81526004016137dc95949392919061530c565b602060405180830381600087803b1580156137f657600080fd5b505af115801561380a573d6000803e3d6000fd5b505050506040513d601f19601f8201168201806040525061382e9190810190614644565b7bffffffffffffffffffffffffffffffffffffffffffffffffffffffff19161461388d576040517f08c379a000000000000000000000000000000000000000000000000000000000815260040161388490615702565b60405180910390fd5b5b505050505050565b600073ffffffffffffffffffffffffffffffffffffffff168173ffffffffffffffffffffffffffffffffffffffff161415613906576040517f08c379a00000000000000000000000000000000000000000000000000000000081526004016138fd90615462565b60405180910390fd5b8073ffffffffffffffffffffffffffffffffffffffff166000809054906101000a900473ffffffffffffffffffffffffffffffffffffffff1673ffffffffffffffffffffffffffffffffffffffff167f8be0079c531659141344cd1fd0a4f28419497f9722a3daafe3b4186f6b6457e060405160405180910390a3806000806101000a81548173ffffffffffffffffffffffffffffffffffffffff021916908373ffffffffffffffffffffffffffffffffffffffff16021790555050565b60008160ff166000111580156139de575060098260ff1611155b15613a1357817f300000000000000000000000000000000000000000000000000000000000000060f81c0160f81b9050613a68565b8160ff16600a11158015613a2b5750600f8260ff1611155b15613a6357600a827f610000000000000000000000000000000000000000000000000000000000000060f81c010360f81b9050613a68565b600080fd5b919050565b6000613a7883613466565b80613a885750613a87856136e1565b5b80613a985750613a97846136e1565b5b80613aa35750600082145b9050949350505050565b6000838311158290613af5576040517f08c379a0000000000000000000000000000000000000000000000000000000008152600401613aec9190615400565b60405180910390fd5b5060008385039050809150509392505050565b600080828401905083811015613b53576040517f08c379a0000000000000000000000000000000000000000000000000000000008152600401613b4a906154a2565b60405180910390fd5b8091505092915050565b6000613b9f83836040518060400160405280601e81526020017f536166654d6174683a207375627472616374696f6e206f766572666c6f770000815250613aad565b905092915050565b600080831415613bba5760009050613c11565b6000828402905082848281613bcb57fe5b0414613c0c576040517f08c379a0000000000000000000000000000000000000000000000000000000008152600401613c03906155c2565b60405180910390fd5b809150505b92915050565b6000613c5983836040518060400160405280601a81526020017f536166654d6174683a206469766973696f6e206279207a65726f000000000000815250613cac565b905092915050565b60008060007fc5d2460186f7233c927e7db2dcc703c0e500b653ca82273b7bfad8045d85a47060001b9050833f91506000801b8214158015613ca35750808214155b92505050919050565b60008083118290613cf3576040517f08c379a0000000000000000000000000000000000000000000000000000000008152600401613cea9190615400565b60405180910390fd5b506000838581613cff57fe5b049050809150509392505050565b828054828255906000526020600020908101928215613d9c579160200282015b82811115613d9b57823573ffffffffffffffffffffffffffffffffffffffff168260006101000a81548173ffffffffffffffffffffffffffffffffffffffff021916908373ffffffffffffffffffffffffffffffffffffffff16021790555091602001919060010190613d2d565b5b509050613da99190613f11565b5090565b828054828255906000526020600020908101928215613de9579160200282015b82811115613de8578235825591602001919060010190613dcd565b5b509050613df69190613f54565b5090565b8260028101928215613e29579160200282015b82811115613e28578251825591602001919060010190613e0d565b5b509050613e369190613f54565b5090565b828054828255906000526020600020908101928215613eb3579160200282015b82811115613eb25782518260006101000a81548173ffffffffffffffffffffffffffffffffffffffff021916908373ffffffffffffffffffffffffffffffffffffffff16021790555091602001919060010190613e5a565b5b509050613ec09190613f11565b5090565b828054828255906000526020600020908101928215613f00579160200282015b82811115613eff578251825591602001919060010190613ee4565b5b509050613f0d9190613f54565b5090565b613f5191905b80821115613f4d57600081816101000a81549073ffffffffffffffffffffffffffffffffffffffff021916905550600101613f17565b5090565b90565b613f7691905b80821115613f72576000816000905550600101613f5a565b5090565b90565b600081359050613f8881615951565b92915050565b60008083601f840112613fa057600080fd5b8235905067ffffffffffffffff811115613fb957600080fd5b602083019150836020820283011115613fd157600080fd5b9250929050565b600082601f830112613fe957600080fd5b8135613ffc613ff7826157b3565b615786565b9150818183526020840193506020810190508385602084028201111561402157600080fd5b60005b8381101561405157816140378882613f79565b845260208401935060208301925050600181019050614024565b5050505092915050565b60008083601f84011261406d57600080fd5b8235905067ffffffffffffffff81111561408657600080fd5b60208301915083602082028301111561409e57600080fd5b9250929050565b600082601f8301126140b657600080fd5b81356140c96140c4826157db565b615786565b915081818352602084019350602081019050838560208402820111156140ee57600080fd5b60005b8381101561411e578161410488826141b1565b8452602084019350602083019250506001810190506140f1565b5050505092915050565b60008135905061413781615968565b92915050565b60008135905061414c8161597f565b92915050565b6000815190506141618161597f565b92915050565b60008083601f84011261417957600080fd5b8235905067ffffffffffffffff81111561419257600080fd5b6020830191508360018202830111156141aa57600080fd5b9250929050565b6000813590506141c081615996565b92915050565b6000602082840312156141d857600080fd5b60006141e684828501613f79565b91505092915050565b6000806040838503121561420257600080fd5b600061421085828601613f79565b925050602061422185828601613f79565b9150509250929050565b60008060008060008060008060a0898b03121561424757600080fd5b60006142558b828c01613f79565b98505060206142668b828c01613f79565b975050604089013567ffffffffffffffff81111561428357600080fd5b61428f8b828c0161405b565b9650965050606089013567ffffffffffffffff8111156142ae57600080fd5b6142ba8b828c0161405b565b9450945050608089013567ffffffffffffffff8111156142d957600080fd5b6142e58b828c01614167565b92509250509295985092959890939650565b60008060008060008060a0878903121561431057600080fd5b600061431e89828a01613f79565b965050602061432f89828a01613f79565b955050604061434089828a016141b1565b945050606061435189828a016141b1565b935050608087013567ffffffffffffffff81111561436e57600080fd5b61437a89828a01614167565b92509250509295509295509295565b6000806000806000606086880312156143a157600080fd5b60006143af88828901613f79565b955050602086013567ffffffffffffffff8111156143cc57600080fd5b6143d88882890161405b565b9450945050604086013567ffffffffffffffff8111156143f757600080fd5b6144038882890161405b565b92509250509295509295909350565b6000806040838503121561442557600080fd5b600061443385828601613f79565b925050602061444485828601614128565b9150509250929050565b6000806040838503121561446157600080fd5b600061446f85828601613f79565b9250506020614480858286016141b1565b9150509250929050565b60008060006060848603121561449f57600080fd5b60006144ad86828701613f79565b93505060206144be868287016141b1565b92505060406144cf868287016141b1565b9150509250925092565b600080600080600080600080600060e08a8c0312156144f757600080fd5b60006145058c828d01613f79565b99505060206145168c828d016141b1565b98505060406145278c828d016141b1565b97505060606145388c828d016141b1565b96505060806145498c828d016141b1565b95505060a08a013567ffffffffffffffff81111561456657600080fd5b6145728c828d01613f8e565b945094505060c08a013567ffffffffffffffff81111561459157600080fd5b61459d8c828d0161405b565b92509250509295985092959850929598565b600080604083850312156145c257600080fd5b600083013567ffffffffffffffff8111156145dc57600080fd5b6145e885828601613fd8565b925050602083013567ffffffffffffffff81111561460557600080fd5b614611858286016140a5565b9150509250929050565b60006020828403121561462d57600080fd5b600061463b8482850161413d565b91505092915050565b60006020828403121561465657600080fd5b600061466484828501614152565b91505092915050565b60006020828403121561467f57600080fd5b600061468d848285016141b1565b91505092915050565b600080604083850312156146a957600080fd5b60006146b7858286016141b1565b92505060206146c8858286016141b1565b9150509250929050565b600080600080600080608087890312156146eb57600080fd5b60006146f989828a016141b1565b965050602061470a89828a016141b1565b955050604087013567ffffffffffffffff81111561472757600080fd5b61473389828a01613f8e565b9450945050606087013567ffffffffffffffff81111561475257600080fd5b61475e89828a0161405b565b92509250509295509295509295565b60006147798383615256565b60208301905092915050565b61478e8161588a565b82525050565b60006147a0838561584c565b93507f07ffffffffffffffffffffffffffffffffffffffffffffffffffffffffffffff8311156147cf57600080fd5b6020830292506147e08385846158fe565b82840190509392505050565b60006147f782615813565b614801818561584c565b935061480c83615803565b8060005b8381101561483d578151614824888261476d565b975061482f8361583f565b925050600181019050614810565b5085935050505092915050565b6148538161589c565b82525050565b60006148648261581e565b61486e818561585d565b935061487e81856020860161590d565b61488781615940565b840191505092915050565b600061489d82615834565b6148a78185615879565b93506148b781856020860161590d565b6148c081615940565b840191505092915050565b60006148d682615829565b6148e08185615879565b93506148f081856020860161590d565b6148f981615940565b840191505092915050565b6000614911600683615879565b91507f4c6f636b656400000000000000000000000000000000000000000000000000006000830152602082019050919050565b6000614951602b83615879565b91507f455243313135353a2062616c616e636520717565727920666f7220746865207a60008301527f65726f20616464726573730000000000000000000000000000000000000000006020830152604082019050919050565b60006149b7602683615879565b91507f4f776e61626c653a206e6577206f776e657220697320746865207a65726f206160008301527f64647265737300000000000000000000000000000000000000000000000000006020830152604082019050919050565b6000614a1d602883615879565b91507f455243313135353a207461726765742061646472657373206d7573742062652060008301527f6e6f6e2d7a65726f0000000000000000000000000000000000000000000000006020830152604082019050919050565b6000614a83601b83615879565b91507f536166654d6174683a206164646974696f6e206f766572666c6f7700000000006000830152602082019050919050565b6000614ac3602c83615879565b91507f455243313135353a2063616e6e6f742073657420617070726f76616c2073746160008301527f74757320666f722073656c6600000000000000000000000000000000000000006020830152604082019050919050565b6000614b29603583615879565b91507f5374617368426c6f783a2073746f72616765437265646974436f73742073686f60008301527f756c642062652067726561746572207468616e203000000000000000000000006020830152604082019050919050565b6000614b8f602383615879565b91507f4d696e7461626c653a2063616c6c6572206973206e6f74206120746f6b656e6960008301527f7a657200000000000000000000000000000000000000000000000000000000006020830152604082019050919050565b6000614bf5603083615879565b91507f455243313135353a206163636f756e747320616e6420494473206d757374206860008301527f6176652073616d65206c656e67746873000000000000000000000000000000006020830152604082019050919050565b6000614c5b601283615879565b91507f5769746864726177616c206661696c65642e00000000000000000000000000006000830152602082019050919050565b6000614c9b602a83615879565b91507f5374617368426c6f783a20737570706c792073686f756c64206265206772656160008301527f746572207468616e2030000000000000000000000000000000000000000000006020830152604082019050919050565b6000614d01603683615879565b91507f455243313135353a20676f7420756e6b6e6f776e2076616c75652066726f6d2060008301527f6f6e4552433131353542617463685265636569766564000000000000000000006020830152604082019050919050565b6000614d67603483615879565b91507f455243313135353a20736f6d65206164647265737320696e206261746368206260008301527f616c616e6365207175657279206973207a65726f0000000000000000000000006020830152604082019050919050565b6000614dcd602183615879565b91507f536166654d6174683a206d756c7469706c69636174696f6e206f766572666c6f60008301527f77000000000000000000000000000000000000000000000000000000000000006020830152604082019050919050565b6000614e33601f83615879565b91507f5374617368426c6f783a20546f6b656e20616c7265616479206d696e746564006000830152602082019050919050565b6000614e73602083615879565b91507f4f776e61626c653a2063616c6c6572206973206e6f7420746865206f776e65726000830152602082019050919050565b6000614eb3603c83615879565b91507f5374617368426c6f783a2066656573526563697069656e747350657263656e7460008301527f6167652073686f756c642062652067726561746572207468616e2030000000006020830152604082019050919050565b6000614f19604383615879565b91507f5374617368426c6f783a20546f74616c206f662066656573526563697069656e60008301527f747350657263656e74616765206d75737420626520657175616c20746f20313060208301527f30303000000000000000000000000000000000000000000000000000000000006040830152606082019050919050565b6000614fa5603783615879565b91507f455243313135353a206e656564206f70657261746f7220617070726f76616c2060008301527f666f7220337264207061727479207472616e73666572730000000000000000006020830152604082019050919050565b600061500b602e83615879565b91507f455243313135353a2049447320616e642076616c756573206d7573742068617660008301527f652073616d65206c656e677468730000000000000000000000000000000000006020830152604082019050919050565b600061507160008361586e565b9150600082019050919050565b600061508b601083615879565b91507f5472616e73666572206661696c65642e000000000000000000000000000000006000830152602082019050919050565b60006150cb603283615879565b91507f5374617368426c6f783a20696e76616c69642066656573526563697069656e7460008301527f7350657263656e74616765206c656e67746800000000000000000000000000006020830152604082019050919050565b6000615131602b83615879565b91507f5374617368426c6f783a206e656564206174206c65617374206f6e652066656560008301527f73526563697069656e74730000000000000000000000000000000000000000006020830152604082019050919050565b6000615197603183615879565b91507f455243313135353a20676f7420756e6b6e6f776e2076616c75652066726f6d2060008301527f6f6e4552433131353552656365697665640000000000000000000000000000006020830152604082019050919050565b60006151fd602b83615879565b91507f455243313135353a20696e73756666696369656e742045544820666f7220747260008301527f616e7366657220666565730000000000000000000000000000000000000000006020830152604082019050919050565b61525f816158f4565b82525050565b61526e816158f4565b82525050565b600061527f82615064565b9150819050919050565b600060208201905061529e6000830184614785565b92915050565b600060a0820190506152b96000830188614785565b6152c66020830187614785565b81810360408301526152d881866147ec565b905081810360608301526152ec81856147ec565b905081810360808301526153008184614859565b90509695505050505050565b600060a0820190506153216000830188614785565b61532e6020830187614785565b61533b6040830186615265565b6153486060830185615265565b818103608083015261535a8184614859565b90509695505050505050565b60006040820190508181036000830152615381818688614794565b90508181036020830152615396818486614794565b905095945050505050565b600060208201905081810360008301526153bb81846147ec565b905092915050565b60006020820190506153d8600083018461484a565b92915050565b600060208201905081810360008301526153f881846148cb565b905092915050565b6000602082019050818103600083015261541a8184614892565b905092915050565b6000602082019050818103600083015261543b81614904565b9050919050565b6000602082019050818103600083015261545b81614944565b9050919050565b6000602082019050818103600083015261547b816149aa565b9050919050565b6000602082019050818103600083015261549b81614a10565b9050919050565b600060208201905081810360008301526154bb81614a76565b9050919050565b600060208201905081810360008301526154db81614ab6565b9050919050565b600060208201905081810360008301526154fb81614b1c565b9050919050565b6000602082019050818103600083015261551b81614b82565b9050919050565b6000602082019050818103600083015261553b81614be8565b9050919050565b6000602082019050818103600083015261555b81614c4e565b9050919050565b6000602082019050818103600083015261557b81614c8e565b9050919050565b6000602082019050818103600083015261559b81614cf4565b9050919050565b600060208201905081810360008301526155bb81614d5a565b9050919050565b600060208201905081810360008301526155db81614dc0565b9050919050565b600060208201905081810360008301526155fb81614e26565b9050919050565b6000602082019050818103600083015261561b81614e66565b9050919050565b6000602082019050818103600083015261563b81614ea6565b9050919050565b6000602082019050818103600083015261565b81614f0c565b9050919050565b6000602082019050818103600083015261567b81614f98565b9050919050565b6000602082019050818103600083015261569b81614ffe565b9050919050565b600060208201905081810360008301526156bb8161507e565b9050919050565b600060208201905081810360008301526156db816150be565b9050919050565b600060208201905081810360008301526156fb81615124565b9050919050565b6000602082019050818103600083015261571b8161518a565b9050919050565b6000602082019050818103600083015261573b816151f0565b9050919050565b60006020820190506157576000830184615265565b92915050565b60006040820190506157726000830185615265565b61577f6020830184615265565b9392505050565b6000604051905081810181811067ffffffffffffffff821117156157a957600080fd5b8060405250919050565b600067ffffffffffffffff8211156157ca57600080fd5b602082029050602081019050919050565b600067ffffffffffffffff8211156157f257600080fd5b602082029050602081019050919050565b6000819050602082019050919050565b600081519050919050565b600081519050919050565b600081519050919050565b600081519050919050565b6000602082019050919050565b600082825260208201905092915050565b600082825260208201905092915050565b600081905092915050565b600082825260208201905092915050565b6000615895826158d4565b9050919050565b60008115159050919050565b60007fffffffff0000000000000000000000000000000000000000000000000000000082169050919050565b600073ffffffffffffffffffffffffffffffffffffffff82169050919050565b6000819050919050565b82818337600083830152505050565b60005b8381101561592b578082015181840152602081019050615910565b8381111561593a576000848401525b50505050565b6000601f19601f8301169050919050565b61595a8161588a565b811461596557600080fd5b50565b6159718161589c565b811461597c57600080fd5b50565b615988816158a8565b811461599357600080fd5b50565b61599f816158f4565b81146159aa57600080fd5b5056fe455243313135353a20696e73756666696369656e742062616c616e636520666f72207472616e73666572a365627a7a72315820f1b319c176d341d19b90ccaadc8c59b497413913cc5e0cc40d70784b810892f86c6578706572696d656e74616cf564736f6c634300050c0040",
  "source": "pragma solidity ^0.5.12;\npragma experimental ABIEncoderV2;\n\nimport './lib/ERC1155/ERC1155Mintable.sol';\n\ncontract StashBlox is ERC1155Mintable {\n\n}\n",
  "sourcePath": "/home/ouziel/Work/StashBloxContracts/contracts/StashBlox.sol",
  "compiler": {
    "name": "solc",
    "version": "0.5.12+commit.7709ece9.Emscripten.clang"
  },
  "schemaVersion": "3.2.3",
  "updatedAt": "2020-09-25T16:39:58.052Z",
  "devdoc": {
    "methods": {
      "balanceOf(address,uint256)": {
        "details": "Get the specified address' balance for token with specified ID. Attempting to query the zero account for a balance will result in a revert.",
        "params": {
          "account": "The address of the token holder",
          "id": "ID of the token"
        },
        "return": "The account's balance of the token type requested"
      },
      "balanceOfBatch(address[],uint256[])": {
        "details": "Get the balance of multiple account/token pairs. If any of the query accounts is the zero account, this query will revert.",
        "params": {
          "accounts": "The addresses of the token holders",
          "ids": "IDs of the tokens"
        },
        "return": "Balances for each account and token id pair"
      },
      "createToken(address,uint256,uint256,uint256,uint256,address[],uint256[])": {
        "details": "Function to mint an amount of a token with the given ID.",
        "params": {
          "feesRecipients": "list of addresses receiving transfer fees",
          "feesRecipientsPercentage": "list of percentage, each one for the corresponding feesRecipients index",
          "id": "ID of the token to be minted",
          "metadataHash": "Metadata file hash",
          "recipient": "The address that will own the minted tokens",
          "storageCreditCost": "cost for 24h storage in storageCredit (x 10 ^ 8 for the precision)",
          "supply": "Amount of the token to be minted"
        }
      },
      "isApprovedForAll(address,address)": {
        "params": {
          "account": "The account of the Tokens",
          "operator": "Address of authorized operator"
        },
        "return": "True if the operator is approved, false if not"
      },
      "owner()": {
        "details": "Returns the address of the current owner."
      },
      "safeBatchTransferFrom(address,address,uint256[],uint256[],bytes)": {
        "details": "Transfers `values` amount(s) of `ids` from the `from` address to the `to` address specified. Caller must be approved to manage the tokens being transferred out of the `from` account. If `to` is a smart contract, will call `onERC1155BatchReceived` on `to` and act appropriately.",
        "params": {
          "data": "Data forwarded to `onERC1155Received` if `to` is a contract receiver",
          "from": "Source address",
          "ids": "IDs of each token type",
          "to": "Target address",
          "values": "Transfer amounts per token type"
        }
      },
      "safeTransferFrom(address,address,uint256,uint256,bytes)": {
        "details": "Transfers `value` amount of an `id` from the `from` address to the `to` address specified. Caller must be approved to manage the tokens being transferred out of the `from` account. If `to` is a smart contract, will call `onERC1155Received` on `to` and act appropriately.",
        "params": {
          "data": "Data forwarded to `onERC1155Received` if `to` is a contract receiver",
          "from": "Source address",
          "id": "ID of the token type",
          "to": "Target address",
          "value": "Transfer amount"
        }
      },
      "setApprovalForAll(address,bool)": {
        "details": "Sets or unsets the approval of a given operator.     * An operator is allowed to transfer all tokens of the sender on their behalf.     * Because an account already has operator privileges for itself, this function will revert if the account attempts to set the approval status for itself.",
        "params": {
          "approved": "representing the status of the approval to be set",
          "operator": "address to set the approval"
        }
      },
      "supportsInterface(bytes4)": {
        "params": {
          "_interfaceID": "The interface identifier, as specified in ERC-165"
        },
        "return": "`true` if the contract implements `_interfaceID` and"
      },
      "totalSupply(uint256)": {
        "params": {
          "id": "Token ID"
        },
        "return": "Token supply"
      },
      "transferOwnership(address)": {
        "details": "Transfers ownership of the contract to a new account (`newOwner`). Can only be called by the current owner."
      },
      "uri(uint256)": {
        "params": {
          "id": "Token ID"
        },
        "return": "URI string"
      }
    }
  },
  "userdoc": {
    "methods": {
      "isApprovedForAll(address,address)": {
        "notice": "Queries the approval status of an operator for a given account."
      },
      "supportsInterface(bytes4)": {
        "notice": "Query if a contract implements an interface"
      }
    }
  }
}