{
  "contractName": "StashBloxBase",
  "abi": [
    {
      "anonymous": false,
      "inputs": [
        {
          "indexed": true,
          "internalType": "uint256",
          "name": "_CallbackId",
          "type": "uint256"
        }
      ],
      "name": "CallbackUpdated",
      "type": "event"
    },
    {
      "anonymous": false,
      "inputs": [
        {
          "indexed": true,
          "internalType": "address",
          "name": "previousOwner",
          "type": "address"
        },
        {
          "indexed": true,
          "internalType": "address",
          "name": "newOwner",
          "type": "address"
        }
      ],
      "name": "OwnershipTransferred",
      "type": "event"
    },
    {
      "anonymous": false,
      "inputs": [
        {
          "indexed": true,
          "internalType": "uint256",
          "name": "_id",
          "type": "uint256"
        },
        {
          "indexed": false,
          "internalType": "uint256",
          "name": "_documentHash",
          "type": "uint256"
        }
      ],
      "name": "TokenUpdated",
      "type": "event"
    },
    {
      "inputs": [],
      "name": "_config",
      "outputs": [
        {
          "internalType": "uint256",
          "name": "callbackAutoExecuteMaxAddresses",
          "type": "uint256"
        },
        {
          "internalType": "string",
          "name": "baseURI",
          "type": "string"
        }
      ],
      "stateMutability": "view",
      "type": "function"
    },
    {
      "inputs": [
        {
          "internalType": "uint256",
          "name": "",
          "type": "uint256"
        }
      ],
      "name": "_tokens",
      "outputs": [
        {
          "internalType": "uint256",
          "name": "supply",
          "type": "uint256"
        },
        {
          "internalType": "uint256",
          "name": "decimals",
          "type": "uint256"
        },
        {
          "internalType": "uint256",
          "name": "lumpSumTransactionFees",
          "type": "uint256"
        },
        {
          "internalType": "uint256",
          "name": "valueTransactionFees",
          "type": "uint256"
        },
        {
          "internalType": "uint256",
          "name": "minHoldingForCallback",
          "type": "uint256"
        },
        {
          "internalType": "uint256",
          "name": "metadataHash",
          "type": "uint256"
        },
        {
          "internalType": "address",
          "name": "legalAuthority",
          "type": "address"
        },
        {
          "internalType": "bool",
          "name": "isPrivate",
          "type": "bool"
        },
        {
          "internalType": "bool",
          "name": "locked",
          "type": "bool"
        }
      ],
      "stateMutability": "view",
      "type": "function"
    },
    {
      "inputs": [
        {
          "internalType": "address",
          "name": "",
          "type": "address"
        }
      ],
      "name": "_users",
      "outputs": [
        {
          "internalType": "bool",
          "name": "isTokenizer",
          "type": "bool"
        },
        {
          "internalType": "bool",
          "name": "isLocked",
          "type": "bool"
        },
        {
          "internalType": "uint256",
          "name": "ETHBalance",
          "type": "uint256"
        }
      ],
      "stateMutability": "view",
      "type": "function"
    },
    {
      "inputs": [],
      "name": "owner",
      "outputs": [
        {
          "internalType": "address",
          "name": "",
          "type": "address"
        }
      ],
      "stateMutability": "view",
      "type": "function"
    },
    {
      "inputs": [
        {
          "internalType": "address",
          "name": "newOwner",
          "type": "address"
        }
      ],
      "name": "transferOwnership",
      "outputs": [],
      "stateMutability": "nonpayable",
      "type": "function"
    }
  ],
  "bytecode": "0x608060405234801561001057600080fd5b5061001a3361001f565b6100d9565b6001600160a01b03811661007e576040517f08c379a00000000000000000000000000000000000000000000000000000000081526004018080602001828103825260268152602001806105646026913960400191505060405180910390fd5b600080546040516001600160a01b03808516939216917f8be0079c531659141344cd1fd0a4f28419497f9722a3daafe3b4186f6b6457e091a3600080546001600160a01b0319166001600160a01b0392909216919091179055565b61047c806100e86000396000f3fe608060405234801561001057600080fd5b50600436106100575760003560e01c80632ed42bf71461005c5780633cacd7d6146100e35780638da5cb5b14610129578063ed70554d1461014d578063f2fde38b146101be575b600080fd5b6100646101e6565b6040518083815260200180602001828103825283818151815260200191508051906020019080838360005b838110156100a757818101518382015260200161008f565b50505050905090810190601f1680156100d45780820380516001836020036101000a031916815260200191505b50935050505060405180910390f35b610109600480360360208110156100f957600080fd5b50356001600160a01b0316610279565b604080519315158452911515602084015282820152519081900360600190f35b61013161029f565b604080516001600160a01b039092168252519081900360200190f35b61016a6004803603602081101561016357600080fd5b50356102ae565b60408051998a5260208a0198909852888801969096526060880194909452608087019290925260a08601526001600160a01b031660c0850152151560e0840152151561010083015251908190036101200190f35b6101e4600480360360208110156101d457600080fd5b50356001600160a01b031661030a565b005b6001805460028054604080516020838716156101000260001901909316849004601f8101849004840282018401909252818152939493929183018282801561026f5780601f106102445761010080835404028352916020019161026f565b820191906000526020600020905b81548152906001019060200180831161025257829003601f168201915b5050505050905082565b600d602052600090815260409020805460019091015460ff808316926101009004169083565b6000546001600160a01b031690565b600e60205260009081526040902080546001820154600283015460038401546004850154600586015460069096015494959394929391929091906001600160a01b0381169060ff600160a01b8204811691600160a81b90041689565b61031261036f565b610363576040805162461bcd60e51b815260206004820181905260248201527f4f776e61626c653a2063616c6c6572206973206e6f7420746865206f776e6572604482015290519081900360640190fd5b61036c81610380565b50565b6000546001600160a01b0316331490565b6001600160a01b0381166103c55760405162461bcd60e51b81526004018080602001828103825260268152602001806104216026913960400191505060405180910390fd5b600080546040516001600160a01b03808516939216917f8be0079c531659141344cd1fd0a4f28419497f9722a3daafe3b4186f6b6457e091a3600080546001600160a01b0319166001600160a01b039290921691909117905556fe4f776e61626c653a206e6577206f776e657220697320746865207a65726f2061646472657373a26469706673582212207e2f5ca64aedc0260a79c7b6b3628e83eab93a78e3b637793068d3b19f086da264736f6c634300070100334f776e61626c653a206e6577206f776e657220697320746865207a65726f2061646472657373",
  "immutableReferences": {},
  "source": "// SPDX-License-Identifier: GPL-3.0-or-later\n\npragma solidity ^0.7.1;\n\nimport \"./lib/utils/SafeMath.sol\";\nimport \"./lib/ERC173/ERC173.sol\";\n\ncontract OwnableDelegateProxy { }\n\ncontract ProxyRegistry {\n  mapping(address => OwnableDelegateProxy) public proxies;\n}\n\ncontract StashBloxBase is ERC173 {\n\n    using SafeMath for uint256;\n\n    /***************************************\n    TYPES\n    ****************************************/\n\n\n    struct User {\n        bool isTokenizer;\n        bool isLocked;\n        uint256 ETHBalance;\n        uint256[] tokens;\n    }\n\n    struct Holder {\n        uint256 balance;\n        uint256 birthday;\n        bool isMaintener;\n        bool isHolder; // never come back to false\n        bool isApproved; // for private tokens\n    }\n\n    struct Token {\n        uint256 supply;\n        uint256 decimals;\n        uint256 lumpSumTransactionFees;\n        uint256 valueTransactionFees;\n        uint256 minHoldingForCallback;\n        uint256 metadataHash;\n        address legalAuthority;\n        bool isPrivate;\n        bool locked;\n        mapping(address => Holder) holders;\n        address[] holderList; // Can contains zero balance\n        address[] feesRecipients;\n        uint256[] feesRecipientsPercentage;\n        uint256[2][] storageCostHistory; //list of tuple [timestamp, price]\n    }\n\n\n\n    struct Config {\n        uint256 callbackAutoExecuteMaxAddresses;\n        string baseURI;\n        address[10] proxyRegistryAddresses;\n    }\n\n\n    /***************************************\n    GLOBAL VARIABLES\n    ****************************************/\n\n    Config public  _config;\n    mapping (address => User) public _users;\n    mapping (uint256 => Token) public _tokens;\n    \n\n\n    /***************************************\n    EVENTS\n    ****************************************/\n\n\n    event CallbackUpdated(uint256 indexed _CallbackId);\n    event TokenUpdated(uint256 indexed _id, uint256 _documentHash);\n\n\n    /***************************************\n    PERMISSIONS\n    ****************************************/\n\n    function _isTokenizer(address tokenizer) internal view returns (bool) {\n        return _users[tokenizer].isTokenizer || _isOwner();\n    }\n\n    modifier onlyTokenizer() {\n        require(_isTokenizer(msg.sender), \"Insufficient permission\");\n        _;\n    }\n\n    function _isMaintener(uint256 id, address maintener) internal view returns (bool) {\n        return _tokens[id].holders[maintener].isMaintener || _isOwner();\n    }\n\n    modifier onlyMaintener(uint256 id) {\n        require(_isMaintener(id, msg.sender), \"Insufficient permission\");\n        _;\n    }\n\n    function _isLegalAuthority(uint256 id, address legalAuthority) internal view returns (bool) {\n        return _tokens[id].legalAuthority == legalAuthority;\n    }\n\n\n    /***************************************\n    LOCKS FUNCTIONS\n    ****************************************/\n\n\n    function _lockToken(uint256 id, uint256 documentHash) internal {\n        _tokens[id].locked = true;\n        emit TokenUpdated(id, documentHash);\n    }\n\n    function _unlockToken(uint256 id, uint256 documentHash) internal {\n        _tokens[id].locked = false;\n        emit TokenUpdated(id, documentHash);\n    }\n\n    function _isLockedToken(uint256 id) internal view returns (bool) {\n        return _tokens[id].locked;\n    }\n\n    function _isLockedAddress(address addr) internal view returns (bool) {\n        return _users[addr].isLocked;\n    }\n\n    function _isLockedMove(address from, address to, uint256 id, uint256 value) internal view returns (bool) {\n        return _isLockedToken(id) || _isLockedAddress(from) || _isLockedAddress(to) || (value == 0);\n    }\n\n\n    /***************************************\n    TOKENS TRANSFER FUNCTIONS\n    ****************************************/\n\n\n    // update balance, lists of holders and token average age of the recipient\n    function _addToBalance(address recipient, uint256 id, uint256 value) internal {\n        require(!_tokens[id].isPrivate || _tokens[id].holders[recipient].isApproved, \"Address not approved\");\n\n        uint256 newBalance = _tokens[id].holders[recipient].balance.add(value);\n\n        if (_tokens[id].holders[recipient].balance == 0) {\n\n            if (!_tokens[id].holders[recipient].isHolder) {\n                _users[recipient].tokens.push(id);\n                _tokens[id].holderList.push(recipient);\n                _tokens[id].holders[recipient].isHolder;\n            }\n\n            _tokens[id].holders[recipient].birthday = block.timestamp;\n\n        } else {\n\n            // calculate the average birthday of the received and hold tokens\n            uint256 oldTokensAge = block.timestamp.sub(_tokens[id].holders[recipient].birthday);\n            uint256 newTokenAge = (_tokens[id].holders[recipient].balance.mul(oldTokensAge)).div(newBalance);\n\n            _tokens[id].holders[recipient].birthday = block.timestamp - newTokenAge;\n        }\n\n        _tokens[id].holders[recipient].balance = newBalance;\n    }\n\n    // Calculate transaction fees\n    function _transactionFees(address account, uint256 id, uint256 value) internal view returns (uint256) {\n        uint256 totalCost = 0;\n        uint256 timeCursor = block.timestamp;\n\n        for (uint i = _tokens[id].storageCostHistory.length - 1; i >= 0; i--) {\n\n            uint256 costStartAt = _tokens[id].storageCostHistory[i][0];\n            uint256 cost = _tokens[id].storageCostHistory[i][1];\n            uint256 storageDays;\n\n            if (_tokens[id].holders[account].birthday >= costStartAt) {\n                storageDays = (timeCursor.sub(_tokens[id].holders[account].birthday)).div(86400);\n                if (storageDays == 0) storageDays = 1;\n                totalCost += (storageDays.mul(cost)).mul(value);\n                break;\n            } else {\n                storageDays = (timeCursor.sub(costStartAt)).div(86400);\n                if (storageDays == 0) storageDays = 1;\n                timeCursor = costStartAt;\n                totalCost += (storageDays.mul(cost)).mul(value);\n            }\n        }\n\n        // TODO!\n        totalCost = totalCost.div(10**_tokens[id].decimals); // storage cost are for one full token\n\n        uint256 valueFees = (value.mul(_tokens[id].valueTransactionFees)).div(10**8);\n\n        return totalCost.add(_tokens[id].lumpSumTransactionFees.add(valueFees));\n    }\n\n    // Used by ERC1155.sol in safeTransferFrom and safeTransferFromBatch functions\n    function _moveTokens(address from, address to, uint256 id, uint256 value, uint256 feesBalance) internal returns (uint256 fees) {\n        require(!_isLockedMove(from, to, id, value), \"Locked\");\n\n        fees = _transactionFees(from, id, value);\n        require(feesBalance >= fees, \"Insufficient ETH for fees\");\n\n        _tokens[id].holders[from].balance = _tokens[id].holders[from].balance.sub(value, \"Insufficient balance\");\n\n        _addToBalance(to, id, value);\n\n        for (uint256 i = 0; i < _tokens[id].feesRecipients.length; ++i) {\n            address feesRecipient = _tokens[id].feesRecipients[i];\n            uint256 feesRecipientsPercentage = _tokens[id].feesRecipientsPercentage[i];\n            _users[feesRecipient].ETHBalance += (fees.mul(feesRecipientsPercentage)).div(10000);\n        }\n\n        return fees;\n    }\n\n\n    /***************************************\n    TOKENS CREATION AND MAINTENANCE FUNCTIONS\n    ****************************************/\n\n\n    function _createToken(address recipient,\n                          uint256 id,\n                          uint256 supply,\n                          uint256 decimals,\n                          uint256 metadataHash,\n                          uint256[3] memory transactionFees,\n                          address[] memory feesRecipients,\n                          uint256[] memory feesRecipientsPercentage,\n                          uint256 minHoldingForCallback,\n                          bool isPrivate,\n                          address legalAuthority)\n    internal {\n        require(_tokens[id].supply == 0 && supply > 0, \"Invalid arguments\");\n\n        _tokens[id].supply = supply;\n        _tokens[id].decimals = decimals;\n        _tokens[id].holders[msg.sender].isMaintener = true;\n        _tokens[id].holders[recipient].isApproved = true;\n\n        _updateToken(id,\n                     metadataHash,\n                     transactionFees,\n                     feesRecipients,\n                     feesRecipientsPercentage,\n                     minHoldingForCallback,\n                     isPrivate,\n                     legalAuthority);\n\n        _addToBalance(recipient, id, supply);\n    }\n\n    function _cloneToken(uint256 id, uint256 cloneId, uint256 metadataHash) internal {\n        _createToken(_tokens[id].holderList[0],\n                     cloneId,\n                     _tokens[id].supply,\n                     _tokens[id].decimals,\n                     metadataHash,\n                     [\n                       _tokens[id].lumpSumTransactionFees,\n                       _tokens[id].valueTransactionFees,\n                       _tokens[id].storageCostHistory[0][1]\n                     ],\n                     _tokens[id].feesRecipients,\n                     _tokens[id].feesRecipientsPercentage,\n                     _tokens[id].minHoldingForCallback,\n                     _tokens[id].isPrivate,\n                     _tokens[id].legalAuthority);\n    }\n\n    function _updateToken(uint256 id,\n                          uint256 metadataHash,\n                          uint256[3] memory transactionFees,\n                          address[] memory feesRecipients,\n                          uint256[] memory feesRecipientsPercentage,\n                          uint256 minHoldingForCallback,\n                          bool isPrivate,\n                          address legalAuthority)\n    internal {\n        uint256 totalPercentage = 0;\n        for (uint256 i = 0; i < feesRecipientsPercentage.length; ++i)\n            totalPercentage += feesRecipientsPercentage[i];\n\n        require(feesRecipients.length > 0 && feesRecipients.length == feesRecipients.length &&\n                totalPercentage == 10000 &&\n                minHoldingForCallback < 10000,\n                \"Invalid arguments\");\n\n        _tokens[id].metadataHash = metadataHash;\n        _tokens[id].lumpSumTransactionFees = transactionFees[0];\n        _tokens[id].valueTransactionFees = transactionFees[1];\n        _tokens[id].storageCostHistory.push([block.timestamp, transactionFees[2]]);\n        _tokens[id].feesRecipients = feesRecipients;\n        _tokens[id].feesRecipientsPercentage = feesRecipientsPercentage;\n        _tokens[id].minHoldingForCallback = minHoldingForCallback;\n        _tokens[id].isPrivate = isPrivate;\n        _tokens[id].legalAuthority = legalAuthority;\n    }\n\n\n    function _isWhitelistedOperator(address account, address operator) internal view returns (bool) {\n        for (uint256 i = 0; i < _config.proxyRegistryAddresses.length; ++i) {\n            if (_config.proxyRegistryAddresses[i] != address(0)) {\n                ProxyRegistry proxyRegistry = ProxyRegistry(_config.proxyRegistryAddresses[i]);\n                if (address(proxyRegistry.proxies(account)) == operator) {\n                    return true;\n                }\n            }\n        }\n        return false;\n    }\n\n\n\n}\n",
  "sourcePath": "/home/ouziel/Work/StashBloxContracts/contracts/StashBloxBase.sol",
  "compiler": {
    "name": "solc",
    "version": "0.7.1+commit.f4a555be.Emscripten.clang"
  },
  "schemaVersion": "3.2.3",
  "updatedAt": "2020-10-20T10:02:00.051Z",
  "devdoc": {
    "kind": "dev",
    "methods": {
      "owner()": {
        "details": "Returns the address of the current owner."
      },
      "transferOwnership(address)": {
        "details": "Transfers ownership of the contract to a new account (`newOwner`). Can only be called by the current owner."
      }
    },
    "version": 1
  },
  "userdoc": {
    "kind": "user",
    "methods": {},
    "version": 1
  }
}