{
  "contractName": "StashBloxCallback",
  "abi": [
    {
      "anonymous": false,
      "inputs": [
        {
          "indexed": true,
          "internalType": "uint256",
          "name": "_id",
          "type": "uint256"
        },
        {
          "indexed": false,
          "internalType": "address",
          "name": "_proposer",
          "type": "address"
        },
        {
          "indexed": false,
          "internalType": "uint256",
          "name": "_price",
          "type": "uint256"
        }
      ],
      "name": "CallbackAccepted",
      "type": "event"
    },
    {
      "anonymous": false,
      "inputs": [
        {
          "indexed": true,
          "internalType": "uint256",
          "name": "_id",
          "type": "uint256"
        },
        {
          "indexed": false,
          "internalType": "address",
          "name": "_proposer",
          "type": "address"
        },
        {
          "indexed": false,
          "internalType": "uint256",
          "name": "_price",
          "type": "uint256"
        }
      ],
      "name": "CallbackProposed",
      "type": "event"
    },
    {
      "anonymous": false,
      "inputs": [
        {
          "indexed": true,
          "internalType": "uint256",
          "name": "_id",
          "type": "uint256"
        },
        {
          "indexed": false,
          "internalType": "address",
          "name": "_proposer",
          "type": "address"
        },
        {
          "indexed": false,
          "internalType": "uint256",
          "name": "_price",
          "type": "uint256"
        }
      ],
      "name": "CallbackRefused",
      "type": "event"
    },
    {
      "anonymous": false,
      "inputs": [
        {
          "indexed": true,
          "internalType": "address",
          "name": "previousOwner",
          "type": "address"
        },
        {
          "indexed": true,
          "internalType": "address",
          "name": "newOwner",
          "type": "address"
        }
      ],
      "name": "OwnershipTransferred",
      "type": "event"
    },
    {
      "constant": true,
      "inputs": [],
      "name": "owner",
      "outputs": [
        {
          "internalType": "address",
          "name": "",
          "type": "address"
        }
      ],
      "payable": false,
      "stateMutability": "view",
      "type": "function"
    },
    {
      "constant": false,
      "inputs": [
        {
          "internalType": "address",
          "name": "newOwner",
          "type": "address"
        }
      ],
      "name": "transferOwnership",
      "outputs": [],
      "payable": false,
      "stateMutability": "nonpayable",
      "type": "function"
    },
    {
      "constant": false,
      "inputs": [
        {
          "internalType": "uint256",
          "name": "id",
          "type": "uint256"
        },
        {
          "internalType": "uint256",
          "name": "price",
          "type": "uint256"
        }
      ],
      "name": "proposeCallback",
      "outputs": [],
      "payable": true,
      "stateMutability": "payable",
      "type": "function"
    },
    {
      "constant": false,
      "inputs": [
        {
          "internalType": "uint256",
          "name": "id",
          "type": "uint256"
        },
        {
          "internalType": "address",
          "name": "proposer",
          "type": "address"
        }
      ],
      "name": "refuseCallback",
      "outputs": [],
      "payable": false,
      "stateMutability": "nonpayable",
      "type": "function"
    },
    {
      "constant": false,
      "inputs": [
        {
          "internalType": "uint256",
          "name": "id",
          "type": "uint256"
        },
        {
          "internalType": "address",
          "name": "proposer",
          "type": "address"
        }
      ],
      "name": "acceptCallback",
      "outputs": [],
      "payable": false,
      "stateMutability": "nonpayable",
      "type": "function"
    }
  ],
  "bytecode": "0x608060405262000015336200001b60201b60201c565b620001e7565b600073ffffffffffffffffffffffffffffffffffffffff168173ffffffffffffffffffffffffffffffffffffffff1614156200008e576040517f08c379a00000000000000000000000000000000000000000000000000000000081526004016200008590620001b4565b60405180910390fd5b8073ffffffffffffffffffffffffffffffffffffffff166000809054906101000a900473ffffffffffffffffffffffffffffffffffffffff1673ffffffffffffffffffffffffffffffffffffffff167f8be0079c531659141344cd1fd0a4f28419497f9722a3daafe3b4186f6b6457e060405160405180910390a3806000806101000a81548173ffffffffffffffffffffffffffffffffffffffff021916908373ffffffffffffffffffffffffffffffffffffffff16021790555050565b60006200015b602683620001d6565b91507f4f776e61626c653a206e6577206f776e657220697320746865207a65726f206160008301527f64647265737300000000000000000000000000000000000000000000000000006020830152604082019050919050565b60006020820190508181036000830152620001cf816200014c565b9050919050565b600082825260208201905092915050565b6118ea80620001f76000396000f3fe60806040526004361061004a5760003560e01c80636fe8ded21461004f57806370e0b145146100785780638da5cb5b14610094578063a2940072146100bf578063f2fde38b146100e8575b600080fd5b34801561005b57600080fd5b506100766004803603610071919081019061114a565b610111565b005b610092600480360361008d9190810190611186565b610368565b005b3480156100a057600080fd5b506100a961066e565b6040516100b691906115d8565b60405180910390f35b3480156100cb57600080fd5b506100e660048036036100e1919081019061114a565b610697565b005b3480156100f457600080fd5b5061010f600480360361010a9190810190611121565b610cb5565b005b610119610d08565b610158576040517f08c379a000000000000000000000000000000000000000000000000000000000815260040161014f90611727565b60405180910390fd5b60006005600084815260200190815260200160002060008373ffffffffffffffffffffffffffffffffffffffff1673ffffffffffffffffffffffffffffffffffffffff1681526020019081526020016000206000600281106101b657fe5b0154905060006005600085815260200190815260200160002060008473ffffffffffffffffffffffffffffffffffffffff1673ffffffffffffffffffffffffffffffffffffffff16815260200190815260200160002060016002811061021857fe5b015490506000821161025f576040517f08c379a000000000000000000000000000000000000000000000000000000000815260040161025690611767565b60405180910390fd5b80600360008573ffffffffffffffffffffffffffffffffffffffff1673ffffffffffffffffffffffffffffffffffffffff168152602001908152602001600020600082825401925050819055506040518060400160405280600060ff168152602001600060ff168152506005600086815260200190815260200160002060008573ffffffffffffffffffffffffffffffffffffffff1673ffffffffffffffffffffffffffffffffffffffff16815260200190815260200160002090600261032792919061104d565b50837fd7e908f6f9af1236bea3e4382bb17cabca5929dec62fbb431284240820150ddd848460405161035a92919061161c565b60405180910390a250505050565b60006002600084815260200190815260200160002054116103be576040517f08c379a00000000000000000000000000000000000000000000000000000000081526004016103b5906116a7565b60405180910390fd5b60008111610401576040517f08c379a00000000000000000000000000000000000000000000000000000000081526004016103f8906116c7565b60405180910390fd5b600061045061271061044260066000878152602001908152602001600020546002600088815260200190815260200160002054610d5f90919063ffffffff16565b610dcf90919063ffffffff16565b9050806001600085815260200190815260200160002060003373ffffffffffffffffffffffffffffffffffffffff1673ffffffffffffffffffffffffffffffffffffffff1681526020019081526020016000205410156104e5576040517f08c379a00000000000000000000000000000000000000000000000000000000081526004016104dc906116e7565b60405180910390fd5b600061055d6001600086815260200190815260200160002060003373ffffffffffffffffffffffffffffffffffffffff1673ffffffffffffffffffffffffffffffffffffffff168152602001908152602001600020546002600087815260200190815260200160002054610e1990919063ffffffff16565b905060006105748483610d5f90919063ffffffff16565b9050803410156105b9576040517f08c379a00000000000000000000000000000000000000000000000000000000081526004016105b090611747565b60405180910390fd5b6040518060400160405280858152602001348152506005600087815260200190815260200160002060003373ffffffffffffffffffffffffffffffffffffffff1673ffffffffffffffffffffffffffffffffffffffff16815260200190815260200160002090600261062c929190611092565b50847f2a7673db20f80755f65f456687dc9fd630454e8c76e428cb4a4ae1d0410cef5e338660405161065f9291906115f3565b60405180910390a25050505050565b60008060009054906101000a900473ffffffffffffffffffffffffffffffffffffffff16905090565b61069f610d08565b6106de576040517f08c379a00000000000000000000000000000000000000000000000000000000081526004016106d590611727565b60405180910390fd5b60006005600084815260200190815260200160002060008373ffffffffffffffffffffffffffffffffffffffff1673ffffffffffffffffffffffffffffffffffffffff16815260200190815260200160002060006002811061073c57fe5b0154905060006005600085815260200190815260200160002060008473ffffffffffffffffffffffffffffffffffffffff1673ffffffffffffffffffffffffffffffffffffffff16815260200190815260200160002060016002811061079e57fe5b01549050600082116107e5576040517f08c379a00000000000000000000000000000000000000000000000000000000081526004016107dc90611767565b60405180910390fd5b60006108346127106108266006600089815260200190815260200160002054600260008a815260200190815260200160002054610d5f90919063ffffffff16565b610dcf90919063ffffffff16565b9050806001600087815260200190815260200160002060003373ffffffffffffffffffffffffffffffffffffffff1673ffffffffffffffffffffffffffffffffffffffff1681526020019081526020016000205410156108c9576040517f08c379a00000000000000000000000000000000000000000000000000000000081526004016108c090611667565b60405180910390fd5b60006109416001600088815260200190815260200160002060003373ffffffffffffffffffffffffffffffffffffffff1673ffffffffffffffffffffffffffffffffffffffff168152602001908152602001600020546002600089815260200190815260200160002054610e1990919063ffffffff16565b905060006109588583610d5f90919063ffffffff16565b90508084101561099d576040517f08c379a000000000000000000000000000000000000000000000000000000000815260040161099490611787565b60405180910390fd5b60008090505b6004600089815260200190815260200160002080549050811015610b35576000600460008a815260200190815260200160002082815481106109e157fe5b9060005260206000200160009054906101000a900473ffffffffffffffffffffffffffffffffffffffff1690506000600160008b815260200190815260200160002060008373ffffffffffffffffffffffffffffffffffffffff1673ffffffffffffffffffffffffffffffffffffffff1681526020019081526020016000205490506000811115610b28576000610a81828a610d5f90919063ffffffff16565b905080600360008573ffffffffffffffffffffffffffffffffffffffff1673ffffffffffffffffffffffffffffffffffffffff168152602001908152602001600020600082825401925050819055506000600160008d815260200190815260200160002060008573ffffffffffffffffffffffffffffffffffffffff1673ffffffffffffffffffffffffffffffffffffffff16815260200190815260200160002081905550505b50508060010190506109a3565b5060026000888152602001908152602001600020546001600089815260200190815260200160002060008873ffffffffffffffffffffffffffffffffffffffff1673ffffffffffffffffffffffffffffffffffffffff1681526020019081526020016000208190555080841115610bf657808403600360008873ffffffffffffffffffffffffffffffffffffffff1673ffffffffffffffffffffffffffffffffffffffff168152602001908152602001600020600082825401925050819055505b6040518060400160405280600060ff168152602001600060ff168152506005600089815260200190815260200160002060008873ffffffffffffffffffffffffffffffffffffffff1673ffffffffffffffffffffffffffffffffffffffff168152602001908152602001600020906002610c7192919061104d565b50867f1a28571d07f35a57e1ed755a57928ae32539f444bbcef661637165f04fb5083f8787604051610ca492919061161c565b60405180910390a250505050505050565b610cbd610d08565b610cfc576040517f08c379a0000000000000000000000000000000000000000000000000000000008152600401610cf390611727565b60405180910390fd5b610d0581610e63565b50565b60008060009054906101000a900473ffffffffffffffffffffffffffffffffffffffff1673ffffffffffffffffffffffffffffffffffffffff163373ffffffffffffffffffffffffffffffffffffffff1614905090565b600080831415610d725760009050610dc9565b6000828402905082848281610d8357fe5b0414610dc4576040517f08c379a0000000000000000000000000000000000000000000000000000000008152600401610dbb90611707565b60405180910390fd5b809150505b92915050565b6000610e1183836040518060400160405280601a81526020017f536166654d6174683a206469766973696f6e206279207a65726f000000000000815250610f91565b905092915050565b6000610e5b83836040518060400160405280601e81526020017f536166654d6174683a207375627472616374696f6e206f766572666c6f770000815250610ff2565b905092915050565b600073ffffffffffffffffffffffffffffffffffffffff168173ffffffffffffffffffffffffffffffffffffffff161415610ed3576040517f08c379a0000000000000000000000000000000000000000000000000000000008152600401610eca90611687565b60405180910390fd5b8073ffffffffffffffffffffffffffffffffffffffff166000809054906101000a900473ffffffffffffffffffffffffffffffffffffffff1673ffffffffffffffffffffffffffffffffffffffff167f8be0079c531659141344cd1fd0a4f28419497f9722a3daafe3b4186f6b6457e060405160405180910390a3806000806101000a81548173ffffffffffffffffffffffffffffffffffffffff021916908373ffffffffffffffffffffffffffffffffffffffff16021790555050565b60008083118290610fd8576040517f08c379a0000000000000000000000000000000000000000000000000000000008152600401610fcf9190611645565b60405180910390fd5b506000838581610fe457fe5b049050809150509392505050565b600083831115829061103a576040517f08c379a00000000000000000000000000000000000000000000000000000000081526004016110319190611645565b60405180910390fd5b5060008385039050809150509392505050565b8260028101928215611081579160200282015b82811115611080578251829060ff16905591602001919060010190611060565b5b50905061108e91906110d2565b5090565b82600281019282156110c1579160200282015b828111156110c05782518255916020019190600101906110a5565b5b5090506110ce91906110d2565b5090565b6110f491905b808211156110f05760008160009055506001016110d8565b5090565b90565b60008135905061110681611879565b92915050565b60008135905061111b81611890565b92915050565b60006020828403121561113357600080fd5b6000611141848285016110f7565b91505092915050565b6000806040838503121561115d57600080fd5b600061116b8582860161110c565b925050602061117c858286016110f7565b9150509250929050565b6000806040838503121561119957600080fd5b60006111a78582860161110c565b92505060206111b88582860161110c565b9150509250929050565b6111cb816117ff565b82525050565b6111da816117c3565b82525050565b60006111eb826117a7565b6111f581856117b2565b9350611205818560208601611835565b61120e81611868565b840191505092915050565b60006112266038836117b2565b91507f5374617368426c6f783a20696e73756666696369656e742062616c616e63652060008301527f746f2065786563757465207468652063616c6c6261636b2e00000000000000006020830152604082019050919050565b600061128c6026836117b2565b91507f4f776e61626c653a206e6577206f776e657220697320746865207a65726f206160008301527f64647265737300000000000000000000000000000000000000000000000000006020830152604082019050919050565b60006112f26019836117b2565b91507f5374617368426c6f783a20556e6b6e6f776e20746f6b656e2e000000000000006000830152602082019050919050565b60006113326028836117b2565b91507f5374617368426c6f783a205072696365206d757374206265206772656174657260008301527f207468616e20302e0000000000000000000000000000000000000000000000006020830152604082019050919050565b60006113986036836117b2565b91507f5374617368426c6f783a20696e73756666696369656e742062616c616e63652060008301527f746f2070726f706f736520612063616c6c6261636b2e000000000000000000006020830152604082019050919050565b60006113fe6021836117b2565b91507f536166654d6174683a206d756c7469706c69636174696f6e206f766572666c6f60008301527f77000000000000000000000000000000000000000000000000000000000000006020830152604082019050919050565b60006114646020836117b2565b91507f4f776e61626c653a2063616c6c6572206973206e6f7420746865206f776e65726000830152602082019050919050565b60006114a46035836117b2565b91507f5374617368426c6f783a20696e73756666696369656e742076616c756520666f60008301527f72207468652070726f706f7365642070726963652e00000000000000000000006020830152604082019050919050565b600061150a602a836117b2565b91507f5374617368426c6f783a2063616c6c6261636b2070726f706f736974696f6e2060008301527f6e6f7420666f756e642e000000000000000000000000000000000000000000006020830152604082019050919050565b6000611570603f836117b2565b91507f5374617368426c6f783a20696e73756666696369656e7420657363726f77656460008301527f2076616c756520746f2065786563757465207468652063616c6c6261636b2e006020830152604082019050919050565b6115d2816117f5565b82525050565b60006020820190506115ed60008301846111d1565b92915050565b600060408201905061160860008301856111c2565b61161560208301846115c9565b9392505050565b600060408201905061163160008301856111d1565b61163e60208301846115c9565b9392505050565b6000602082019050818103600083015261165f81846111e0565b905092915050565b6000602082019050818103600083015261168081611219565b9050919050565b600060208201905081810360008301526116a08161127f565b9050919050565b600060208201905081810360008301526116c0816112e5565b9050919050565b600060208201905081810360008301526116e081611325565b9050919050565b600060208201905081810360008301526117008161138b565b9050919050565b60006020820190508181036000830152611720816113f1565b9050919050565b6000602082019050818103600083015261174081611457565b9050919050565b6000602082019050818103600083015261176081611497565b9050919050565b60006020820190508181036000830152611780816114fd565b9050919050565b600060208201905081810360008301526117a081611563565b9050919050565b600081519050919050565b600082825260208201905092915050565b60006117ce826117d5565b9050919050565b600073ffffffffffffffffffffffffffffffffffffffff82169050919050565b6000819050919050565b600061180a82611811565b9050919050565b600061181c82611823565b9050919050565b600061182e826117d5565b9050919050565b60005b83811015611853578082015181840152602081019050611838565b83811115611862576000848401525b50505050565b6000601f19601f8301169050919050565b611882816117c3565b811461188d57600080fd5b50565b611899816117f5565b81146118a457600080fd5b5056fea365627a7a723158205756b4fcc522b7e93202e1d7be50b84a4ed1b3659ae6f21cf27db682286552d06c6578706572696d656e74616cf564736f6c634300050c0040",
  "source": "pragma solidity ^0.5.12;\npragma experimental ABIEncoderV2;\n\nimport \"./lib/ERC173/ERC173.sol\";\nimport \"./lib/utils/SafeMath.sol\";\n\ncontract StashBloxCallback is ERC173 {\n    using SafeMath for uint256;\n\n    // Mapping from token ID to account balances\n    mapping (uint256 => mapping(address => uint256)) _balances;\n\n    // Mapping from token ID to Supply\n    mapping (uint256 => uint256) internal _supplies;\n\n    // Balances ETH for fees recipients and callbacks\n    mapping (address => uint256) internal _ETHBalances;\n\n    // For each token a list of addresses. Can contains zero balance.\n    mapping (uint256 => address[]) internal _addressesByToken;\n\n\n    event CallbackProposed(uint256 indexed _id, address _proposer, uint256 _price);\n    event CallbackRefused(uint256 indexed _id, address _proposer, uint256 _price);\n    event CallbackAccepted(uint256 indexed _id, address _proposer, uint256 _price);\n\n    // list of callback propositions\n    // _callbackPropositions[tokenID][proposer] = [priceForEachToken, ETHAmountEscrowed]\n    mapping (uint256 => mapping(address => uint256[2])) _callbackPropositions;\n    // Minimum holding to propose a callback for each token\n    mapping (uint256 => uint256) _minHoldingForCallback;\n\n    /**\n     * @dev Propose to buy the whole supply of a token.\n     * The proposer must hold minHoldingForCallback% of the total supply.\n     * StashBlox must approve the price with acceptCallback();\n     * @param id Token ID\n     * @param price proposed price\n     */\n    function proposeCallback(uint256 id, uint256 price) external payable {\n      require(_supplies[id] > 0, \"StashBlox: Unknown token.\");\n      require(price > 0, \"StashBlox: Price must be greater than 0.\");\n\n      uint256 minHolding = (_supplies[id].mul(_minHoldingForCallback[id])).div(10000);\n      require(_balances[id][msg.sender] >= minHolding, \"StashBlox: insufficient balance to propose a callback.\");\n\n      uint256 callbackAmount = _supplies[id].sub(_balances[id][msg.sender]);\n      uint256 callbackPrice = callbackAmount.mul(price);\n      require(msg.value >= callbackPrice, \"StashBlox: insufficient value for the proposed price.\");\n\n      _callbackPropositions[id][msg.sender] = [price, msg.value];\n      emit CallbackProposed(id, msg.sender, price);\n    }\n\n    /**\n     * @dev Refuse a callback if the price is not enough.\n     * @param id Token ID\n     * @param proposer address of the proposer\n     */\n    function refuseCallback(uint256 id, address proposer) external onlyOwner {\n      uint256 price = _callbackPropositions[id][proposer][0];\n      uint256 escrowedAmount = _callbackPropositions[id][proposer][1];\n\n      require(price > 0, \"StashBlox: callback proposition not found.\");\n\n      // return escrowed amount. Proposer must use withdraw() function to get\n      // escrowed amount.\n      _ETHBalances[proposer] += escrowedAmount;\n\n      _callbackPropositions[id][proposer] = [0, 0];\n      emit CallbackRefused(id, proposer, price);\n    }\n\n    /**\n     * @dev Accept a callback\n     * @param id Token ID\n     * @param proposer address of the proposer\n     */\n    function acceptCallback(uint256 id, address proposer) external onlyOwner {\n      uint256 price = _callbackPropositions[id][proposer][0];\n      uint256 escrowedAmount = _callbackPropositions[id][proposer][1];\n\n      require(price > 0, \"StashBlox: callback proposition not found.\");\n\n      uint256 minHolding = (_supplies[id].mul(_minHoldingForCallback[id])).div(10000);\n      require(_balances[id][msg.sender] >= minHolding, \"StashBlox: insufficient balance to execute the callback.\");\n\n      uint256 callbackAmount = _supplies[id].sub(_balances[id][msg.sender]);\n      uint256 callbackPrice = callbackAmount.mul(price);\n      require(escrowedAmount >= callbackPrice, \"StashBlox: insufficient escrowed value to execute the callback.\");\n\n      // move tokens to the proposer address and escrowed ETH to the holders addresses\n      // Holders must use withdraw() function to get paiement amount.\n      for (uint256 i = 0; i < _addressesByToken[id].length; ++i) {\n        address holderAddress = _addressesByToken[id][i];\n        uint256 holderBalance = _balances[id][holderAddress];\n        if (holderBalance > 0) {\n          uint256 holderPrice = price.mul(holderBalance);\n          _ETHBalances[holderAddress] += holderPrice;\n          _balances[id][holderAddress] = 0;\n        }\n      }\n      _balances[id][proposer] = _supplies[id];\n      if (escrowedAmount > callbackPrice) {\n        _ETHBalances[proposer] += escrowedAmount - callbackPrice;\n      }\n\n      _callbackPropositions[id][proposer] = [0, 0];\n      emit CallbackAccepted(id, proposer, price);\n    }\n}\n",
  "sourcePath": "/home/ouziel/Work/StashBloxContracts/contracts/StashBloxCallback.sol",
  "compiler": {
    "name": "solc",
    "version": "0.5.12+commit.7709ece9.Emscripten.clang"
  },
  "schemaVersion": "3.2.3",
  "updatedAt": "2020-09-27T12:08:31.531Z",
  "devdoc": {
    "methods": {
      "acceptCallback(uint256,address)": {
        "details": "Accept a callback",
        "params": {
          "id": "Token ID",
          "proposer": "address of the proposer"
        }
      },
      "owner()": {
        "details": "Returns the address of the current owner."
      },
      "proposeCallback(uint256,uint256)": {
        "details": "Propose to buy the whole supply of a token. The proposer must hold minHoldingForCallback% of the total supply. StashBlox must approve the price with acceptCallback();",
        "params": {
          "id": "Token ID",
          "price": "proposed price"
        }
      },
      "refuseCallback(uint256,address)": {
        "details": "Refuse a callback if the price is not enough.",
        "params": {
          "id": "Token ID",
          "proposer": "address of the proposer"
        }
      },
      "transferOwnership(address)": {
        "details": "Transfers ownership of the contract to a new account (`newOwner`). Can only be called by the current owner."
      }
    }
  },
  "userdoc": {
    "methods": {}
  }
}