{
  "contractName": "StashBloxBase",
  "abi": [
    {
      "anonymous": false,
      "inputs": [
        {
          "indexed": true,
          "internalType": "uint256",
          "name": "_id",
          "type": "uint256"
        },
        {
          "indexed": false,
          "internalType": "address",
          "name": "_proposer",
          "type": "address"
        },
        {
          "indexed": false,
          "internalType": "uint256",
          "name": "_price",
          "type": "uint256"
        }
      ],
      "name": "CallbackAccepted",
      "type": "event"
    },
    {
      "anonymous": false,
      "inputs": [
        {
          "indexed": true,
          "internalType": "uint256",
          "name": "_id",
          "type": "uint256"
        },
        {
          "indexed": false,
          "internalType": "address",
          "name": "_proposer",
          "type": "address"
        },
        {
          "indexed": false,
          "internalType": "uint256",
          "name": "_price",
          "type": "uint256"
        }
      ],
      "name": "CallbackProposed",
      "type": "event"
    },
    {
      "anonymous": false,
      "inputs": [
        {
          "indexed": true,
          "internalType": "uint256",
          "name": "_id",
          "type": "uint256"
        },
        {
          "indexed": false,
          "internalType": "address",
          "name": "_proposer",
          "type": "address"
        },
        {
          "indexed": false,
          "internalType": "uint256",
          "name": "_price",
          "type": "uint256"
        }
      ],
      "name": "CallbackRefused",
      "type": "event"
    },
    {
      "anonymous": false,
      "inputs": [
        {
          "indexed": true,
          "internalType": "uint256",
          "name": "_id",
          "type": "uint256"
        },
        {
          "indexed": true,
          "internalType": "uint256",
          "name": "_hash",
          "type": "uint256"
        }
      ],
      "name": "MetadataHashUpdated",
      "type": "event"
    },
    {
      "anonymous": false,
      "inputs": [
        {
          "indexed": true,
          "internalType": "address",
          "name": "previousOwner",
          "type": "address"
        },
        {
          "indexed": true,
          "internalType": "address",
          "name": "newOwner",
          "type": "address"
        }
      ],
      "name": "OwnershipTransferred",
      "type": "event"
    },
    {
      "anonymous": false,
      "inputs": [
        {
          "indexed": true,
          "internalType": "address",
          "name": "_maintener",
          "type": "address"
        },
        {
          "indexed": false,
          "internalType": "uint256",
          "name": "_id",
          "type": "uint256"
        },
        {
          "indexed": false,
          "internalType": "uint256",
          "name": "_cost",
          "type": "uint256"
        }
      ],
      "name": "UpdateStorageCost",
      "type": "event"
    },
    {
      "anonymous": false,
      "inputs": [
        {
          "indexed": true,
          "internalType": "address",
          "name": "_owner",
          "type": "address"
        },
        {
          "indexed": false,
          "internalType": "uint256",
          "name": "_price",
          "type": "uint256"
        }
      ],
      "name": "UpdateStorageCreditPrice",
      "type": "event"
    },
    {
      "anonymous": false,
      "inputs": [
        {
          "indexed": true,
          "internalType": "address",
          "name": "_maintener",
          "type": "address"
        },
        {
          "indexed": false,
          "internalType": "uint256",
          "name": "_id",
          "type": "uint256"
        },
        {
          "indexed": false,
          "internalType": "uint256",
          "name": "_fees",
          "type": "uint256"
        }
      ],
      "name": "UpdateTransactionFees",
      "type": "event"
    },
    {
      "inputs": [],
      "name": "BASE_URI",
      "outputs": [
        {
          "internalType": "string",
          "name": "",
          "type": "string"
        }
      ],
      "stateMutability": "view",
      "type": "function"
    },
    {
      "inputs": [
        {
          "internalType": "address",
          "name": "",
          "type": "address"
        }
      ],
      "name": "_ETHBalances",
      "outputs": [
        {
          "internalType": "uint256",
          "name": "",
          "type": "uint256"
        }
      ],
      "stateMutability": "view",
      "type": "function"
    },
    {
      "inputs": [
        {
          "internalType": "uint256",
          "name": "",
          "type": "uint256"
        },
        {
          "internalType": "uint256",
          "name": "",
          "type": "uint256"
        }
      ],
      "name": "_addressesByToken",
      "outputs": [
        {
          "internalType": "address",
          "name": "",
          "type": "address"
        }
      ],
      "stateMutability": "view",
      "type": "function"
    },
    {
      "inputs": [
        {
          "internalType": "uint256",
          "name": "",
          "type": "uint256"
        },
        {
          "internalType": "address",
          "name": "",
          "type": "address"
        }
      ],
      "name": "_balances",
      "outputs": [
        {
          "internalType": "uint256",
          "name": "",
          "type": "uint256"
        }
      ],
      "stateMutability": "view",
      "type": "function"
    },
    {
      "inputs": [
        {
          "internalType": "uint256",
          "name": "",
          "type": "uint256"
        },
        {
          "internalType": "address",
          "name": "",
          "type": "address"
        }
      ],
      "name": "_birthdays",
      "outputs": [
        {
          "internalType": "uint256",
          "name": "",
          "type": "uint256"
        }
      ],
      "stateMutability": "view",
      "type": "function"
    },
    {
      "inputs": [
        {
          "internalType": "address",
          "name": "",
          "type": "address"
        },
        {
          "internalType": "uint256",
          "name": "",
          "type": "uint256"
        }
      ],
      "name": "_tokensByAddress",
      "outputs": [
        {
          "internalType": "uint256",
          "name": "",
          "type": "uint256"
        }
      ],
      "stateMutability": "view",
      "type": "function"
    },
    {
      "inputs": [
        {
          "internalType": "uint256",
          "name": "id",
          "type": "uint256"
        }
      ],
      "name": "metadataHash",
      "outputs": [
        {
          "internalType": "uint256",
          "name": "",
          "type": "uint256"
        }
      ],
      "stateMutability": "view",
      "type": "function"
    },
    {
      "inputs": [],
      "name": "owner",
      "outputs": [
        {
          "internalType": "address",
          "name": "",
          "type": "address"
        }
      ],
      "stateMutability": "view",
      "type": "function"
    },
    {
      "inputs": [
        {
          "internalType": "address",
          "name": "newOwner",
          "type": "address"
        }
      ],
      "name": "transferOwnership",
      "outputs": [],
      "stateMutability": "nonpayable",
      "type": "function"
    },
    {
      "inputs": [
        {
          "internalType": "uint256",
          "name": "id",
          "type": "uint256"
        }
      ],
      "name": "uri",
      "outputs": [
        {
          "internalType": "string",
          "name": "",
          "type": "string"
        }
      ],
      "stateMutability": "pure",
      "type": "function"
    }
  ],
  "bytecode": "0x60806040526103e860065534801561001657600080fd5b5061002033610025565b6100df565b6001600160a01b038116610084576040517f08c379a00000000000000000000000000000000000000000000000000000000081526004018080602001828103825260268152602001806108496026913960400191505060405180910390fd5b600080546040516001600160a01b03808516939216917f8be0079c531659141344cd1fd0a4f28419497f9722a3daafe3b4186f6b6457e091a3600080546001600160a01b0319166001600160a01b0392909216919091179055565b61075b806100ee6000396000f3fe608060405234801561001057600080fd5b506004361061009e5760003560e01c8063d7b80ebc11610066578063d7b80ebc146101d7578063dbddb26a146101fd578063ea2bd64d14610205578063f2fde38b14610231578063fc25a4da146102595761009e565b80630e89341c146100a3578063119c073714610135578063219cc8bc146101745780636eb987c7146101a35780638da5cb5b146101cf575b600080fd5b6100c0600480360360208110156100b957600080fd5b5035610285565b6040805160208082528351818301528351919283929083019185019080838360005b838110156100fa5781810151838201526020016100e2565b50505050905090810190601f1680156101275780820380516001836020036101000a031916815260200191505b509250505060405180910390f35b6101586004803603604081101561014b57600080fd5b50803590602001356102d6565b604080516001600160a01b039092168252519081900360200190f35b6101916004803603602081101561018a57600080fd5b503561030b565b60408051918252519081900360200190f35b610191600480360360408110156101b957600080fd5b506001600160a01b03813516906020013561031d565b61015861034b565b610191600480360360208110156101ed57600080fd5b50356001600160a01b031661035a565b6100c061036c565b6101916004803603604081101561021b57600080fd5b50803590602001356001600160a01b03166103a5565b6102576004803603602081101561024757600080fd5b50356001600160a01b03166103c2565b005b6101916004803603604081101561026f57600080fd5b50803590602001356001600160a01b0316610427565b60606102ce6040518060400160405280601d81526020017f68747470733a2f2f7374617368626c6f782e636f6d2f746f6b656e732f0000008152506102c984610444565b610500565b90505b919050565b600c60205281600052604060002081815481106102ef57fe5b6000918252602090912001546001600160a01b03169150829050565b60009081526001602052604090205490565b600b602052816000526040600020818154811061033657fe5b90600052602060002001600091509150505481565b6000546001600160a01b031690565b600a6020526000908152604090205481565b6040518060400160405280601d81526020017f68747470733a2f2f7374617368626c6f782e636f6d2f746f6b656e732f00000081525081565b600460209081526000928352604080842090915290825290205481565b6103ca61060a565b61041b576040805162461bcd60e51b815260206004820181905260248201527f4f776e61626c653a2063616c6c6572206973206e6f7420746865206f776e6572604482015290519081900360640190fd5b6104248161061b565b50565b600260209081526000928352604080842090915290825290205481565b60606000825b801561046057600191909101906010900461044a565b60608267ffffffffffffffff8111801561047957600080fd5b506040519080825280601f01601f1916602001820160405280156104a4576020820181803683370190505b50905060005b838110156104f7576010860692506104c1836106bb565b82600183870303815181106104d257fe5b60200101906001600160f81b031916908160001a9053506010860495506001016104aa565b50949350505050565b805182516060918491849184910167ffffffffffffffff8111801561052457600080fd5b506040519080825280601f01601f19166020018201604052801561054f576020820181803683370190505b509050806000805b85518110156105a85785818151811061056c57fe5b602001015160f81c60f81b83838060010194508151811061058957fe5b60200101906001600160f81b031916908160001a905350600101610557565b5060005b84518110156105fd578481815181106105c157fe5b602001015160f81c60f81b8383806001019450815181106105de57fe5b60200101906001600160f81b031916908160001a9053506001016105ac565b5090979650505050505050565b6000546001600160a01b0316331490565b6001600160a01b0381166106605760405162461bcd60e51b81526004018080602001828103825260268152602001806107006026913960400191505060405180910390fd5b600080546040516001600160a01b03808516939216917f8be0079c531659141344cd1fd0a4f28419497f9722a3daafe3b4186f6b6457e091a3600080546001600160a01b0319166001600160a01b0392909216919091179055565b600060098260ff16116106d557506030810160f81b6102d1565b8160ff16600a111580156106ed5750600f8260ff1611155b1561009e57506057810160f81b6102d156fe4f776e61626c653a206e6577206f776e657220697320746865207a65726f2061646472657373a2646970667358221220713062de8fcae6f84e93d0d73900f3d80836cc0881319caf33753d28d0773c3964736f6c634300070100334f776e61626c653a206e6577206f776e657220697320746865207a65726f2061646472657373",
  "immutableReferences": {},
  "source": "// SPDX-License-Identifier: GPL-3.0-or-later\n\npragma solidity ^0.7.1;\n\nimport \"./lib/utils/SafeMath.sol\";\nimport \"./lib/ERC173/ERC173.sol\";\nimport './lib/ERC1155/ERC1155Metadata.sol';\n\ncontract StashBloxBase is ERC173, ERC1155Metadata {\n\n    using SafeMath for uint256;\n\n\n    /***************************************\n    GLOBAL VARIABLES\n    ****************************************/\n\n\n    // Mapping from token ID to account balances\n    mapping (uint256 => mapping(address => uint256)) public _balances;\n    // Mapping from token ID to Supply\n    mapping (uint256 => uint256) internal _supplies;\n    // Mapping from token ID to account age\n    mapping (uint256 => mapping(address => uint256)) public _birthdays;\n    // Mapping from token ID to list of tuple [timestamp, price]\n    mapping (uint256 => uint256[2][]) internal _storageCostHistory;\n    // price of one storage credit in wei\n    uint256 storageCreditPrice = 1000;\n    // Lump sum transaction fees for each token\n    mapping (uint256 => uint256) _transactionFees;\n    // For each token a list of addresses receiving transfer fees\n    mapping (uint256 => address[]) internal _feesRecipients;\n    // For each token a list of percentage, each one for the corresponding _feesRecipients index\n    mapping (uint256 => uint256[]) internal _feesRecipientsPercentage;\n    // Balances ETH for fees recipients and callbacks\n    mapping (address => uint256) public _ETHBalances;\n    // For each address a list of token IDs. Can contains zero balance.\n    mapping (address => uint256[]) public _tokensByAddress;\n    // For each token a list of addresses. Can contains zero balance.\n    mapping (uint256 => address[]) public _addressesByToken;\n    // Initialize to true on the first token received, never come back to false.\n    mapping (uint256 => mapping(address => bool)) internal _isHolder;\n    // Mapping for locked tokens\n    mapping (uint256 => bool) internal _tokenLocks;\n    // Mapping for locked addresses\n    mapping (address => bool) internal _addressLocks;\n    // list of callback propositions\n    // _callbackPropositions[tokenID][proposer] = [priceForEachToken, ETHAmountEscrowed]\n    mapping (uint256 => mapping(address => uint256[2])) _callbackPropositions;\n    // list of addresses authorized to create a token\n    mapping (address => bool) _authorizedTokenizers;\n    // List of token mainteners\n    mapping (uint256 => mapping(address => bool)) _tokenMainteners;\n    // Minimum holding to propose a callback for each token\n    mapping (uint256 => uint256) _minHoldingForCallback;\n\n\n    /***************************************\n    EVENTS\n    ****************************************/\n\n\n    // Callback events\n    event CallbackProposed(uint256 indexed _id, address _proposer, uint256 _price);\n    event CallbackRefused(uint256 indexed _id, address _proposer, uint256 _price);\n    event CallbackAccepted(uint256 indexed _id, address _proposer, uint256 _price);\n\n    // Update storage prices events\n    event UpdateStorageCost(address indexed _maintener, uint256 _id, uint256 _cost);\n    event UpdateStorageCreditPrice(address indexed _owner, uint256 _price);\n\n    event UpdateTransactionFees(address indexed _maintener, uint256 _id, uint256 _fees);\n\n\n    /***************************************\n    MODIFIERS\n    ****************************************/\n\n    function _isTokenizer(address tokenizer) internal view returns (bool) {\n        return _authorizedTokenizers[tokenizer] || _isOwner();\n    }\n\n    modifier onlyTokenizer() {\n        require(_isTokenizer(msg.sender), \"Mintable: caller is not a tokenizer\");\n        _;\n    }\n\n    function _isMaintener(uint256 id, address maintener) internal view returns (bool) {\n        return _tokenMainteners[id][maintener] || _isOwner();\n    }\n\n    modifier onlyMaintener(uint256 id) {\n        require(_isMaintener(id, msg.sender), \"Mintable: caller is not a token maintener\");\n        _;\n    }\n\n\n    /***************************************\n    LOCKS FUNCTIONS\n    ****************************************/\n\n\n    function _isLockedToken(uint256 id) internal view returns (bool) {\n        return _tokenLocks[id];\n    }\n\n    function _isLockedAddress(address addr) internal view returns (bool) {\n        return _addressLocks[addr];\n    }\n\n    function _isLockedMove(address from, address to, uint256 id, uint256 value) internal view returns (bool) {\n        return _isLockedToken(id) || _isLockedAddress(from) || _isLockedAddress(to) || (value == 0);\n    }\n\n\n    /***************************************\n    TOKENS TRANSFER FUNCTIONS\n    ****************************************/\n\n\n    // update balance, lists of holders and token average age of the recipient\n    function _setNewBalance(address recipient, uint256 id, uint256 value) internal {\n        if (_balances[id][recipient] == 0) {\n\n            if (!_isHolder[id][recipient]) {\n\n                _tokensByAddress[recipient].push(id);\n                _addressesByToken[id].push(recipient);\n                _isHolder[id][recipient];\n            }\n\n            _birthdays[id][recipient] = block.timestamp;\n\n        } else {\n\n            // calculate the average birthday of the received and hold tokens\n            uint256 oldTokensAge = block.timestamp.sub(_birthdays[id][recipient]);\n            uint256 newTokenAge = (_balances[id][recipient].mul(oldTokensAge)).div(value);\n\n            _birthdays[id][recipient] = block.timestamp - newTokenAge;\n        }\n\n        _balances[id][recipient] = value;\n    }\n\n    // Calculate transaction fees\n    function _storageFees(address account, uint256 id, uint256 value) internal view returns (uint256) {\n        require(account != address(0), \"ERC1155: balance query for the zero address\");\n\n        uint256 totalCost = 0;\n        uint256 timeCursor = block.timestamp;\n\n        for (uint i = _storageCostHistory[id].length - 1; i >= 0; i--) {\n\n            uint256 costStartAt = _storageCostHistory[id][i][0];\n            uint256 cost = (_storageCostHistory[id][i][1] * storageCreditPrice) / 10**8;\n            uint256 storageDays;\n\n            if (_birthdays[id][account] >= costStartAt) {\n                storageDays = (timeCursor - _birthdays[id][account]) / 86400;\n                if (storageDays == 0) storageDays = 1;\n                totalCost += storageDays * cost * value;\n                break;\n            } else {\n                storageDays = (timeCursor - costStartAt) / 86400;\n                if (storageDays == 0) storageDays = 1;\n                timeCursor = costStartAt;\n                totalCost += storageDays * cost * value;\n            }\n        }\n        return totalCost.add(_transactionFees[id]);\n    }\n\n    // Used by ERC1155.sol in safeTransferFrom and safeTransferFromBatch functions\n    function _moveTokens(address from, address to, uint256 id, uint256 value, uint256 feesBalance) internal returns (uint256 fees) {\n        require(!_isLockedMove(from, to, id, value), \"Locked\");\n\n        fees = _storageFees(from, id, value);\n        require(feesBalance >= fees, \"ERC1155: insufficient ETH for transfer fees\");\n\n        _balances[id][from] = _balances[id][from].sub(value, \"ERC1155: insufficient balance for transfer\");\n\n        uint256 newBalanceTo = _balances[id][to].add(value);\n\n        _setNewBalance(to, id, newBalanceTo);\n\n        for (uint256 i = 0; i < _feesRecipients[id].length; ++i) {\n            address feesRecipient = _feesRecipients[id][i];\n            uint256 feesRecipientsPercentage = _feesRecipientsPercentage[id][i];\n            _ETHBalances[feesRecipient] += (fees.mul(feesRecipientsPercentage)).div(10000);\n        }\n\n        return fees;\n    }\n\n\n    /***************************************\n    TOKENS MAINTENANCE FUNCTIONS\n    ****************************************/\n\n\n    function _updateMetadataHash(uint256 id, uint256 hash) internal {\n         _metadataHashes[id] = hash;\n         emit MetadataHashUpdated(id, hash);\n    }\n\n    function _updateTransactionFees(uint256 id, uint256 newFees) internal {\n        _transactionFees[id] = newFees;\n        emit UpdateTransactionFees(msg.sender, id, newFees);\n    }\n\n    function _updateStorageCost(uint256 id, uint256 newCost) internal {\n        _storageCostHistory[id].push([block.timestamp, newCost]);\n        emit UpdateStorageCost(msg.sender, id, newCost);\n    }\n\n    function _updateMinHoldingForCallback(uint256 id, uint256 newMinHoldingForCallback) internal {\n        require(newMinHoldingForCallback < 10000, \"StashBlox: minimum holding must be lower than 10000 (100%)\");\n        _minHoldingForCallback[id] = newMinHoldingForCallback;\n    }\n\n    function _updateFeesRecipients(uint256 id,\n                                   address[] memory newFeesRecipients,\n                                   uint256[] memory newFeesRecipientsPercentage)\n    internal {\n        require(newFeesRecipients.length > 0 &&\n                newFeesRecipients.length == newFeesRecipientsPercentage.length, \"StashBlox: Invalid arguments\");\n\n        uint256 totalPercentage = 0;\n        for (uint256 i = 0; i < newFeesRecipientsPercentage.length; ++i) {\n            totalPercentage += newFeesRecipientsPercentage[i];\n            require(newFeesRecipientsPercentage[i] > 0, \"StashBlox: feesRecipientsPercentage should be greater than 0\");\n        }\n        require(totalPercentage == 10000, \"StashBlox: Total of feesRecipientsPercentage must be equal to 10000\");\n\n        _feesRecipients[id] = newFeesRecipients;\n        _feesRecipientsPercentage[id] = newFeesRecipientsPercentage;\n    }\n\n}\n",
  "sourcePath": "/home/ouziel/Work/StashBloxContracts/contracts/StashBloxBase.sol",
  "compiler": {
    "name": "solc",
    "version": "0.7.1+commit.f4a555be.Emscripten.clang"
  },
  "schemaVersion": "3.2.3",
  "updatedAt": "2020-10-03T00:01:02.156Z",
  "devdoc": {
    "kind": "dev",
    "methods": {
      "owner()": {
        "details": "Returns the address of the current owner."
      },
      "transferOwnership(address)": {
        "details": "Transfers ownership of the contract to a new account (`newOwner`). Can only be called by the current owner."
      },
      "uri(uint256)": {
        "params": {
          "id": "Token ID"
        },
        "returns": {
          "_0": "URI string"
        }
      }
    },
    "version": 1
  },
  "userdoc": {
    "kind": "user",
    "methods": {},
    "version": 1
  }
}