{
  "contractName": "StashBlox",
  "abi": [
    {
      "inputs": [
        {
          "internalType": "address",
          "name": "addr",
          "type": "address"
        }
      ],
      "payable": false,
      "stateMutability": "nonpayable",
      "type": "constructor"
    },
    {
      "anonymous": false,
      "inputs": [
        {
          "indexed": true,
          "internalType": "address",
          "name": "_owner",
          "type": "address"
        },
        {
          "indexed": true,
          "internalType": "address",
          "name": "_operator",
          "type": "address"
        },
        {
          "indexed": false,
          "internalType": "bool",
          "name": "_approved",
          "type": "bool"
        }
      ],
      "name": "ApprovalForAll",
      "type": "event"
    },
    {
      "anonymous": false,
      "inputs": [
        {
          "indexed": true,
          "internalType": "uint256",
          "name": "_id",
          "type": "uint256"
        },
        {
          "indexed": true,
          "internalType": "uint256",
          "name": "_hash",
          "type": "uint256"
        }
      ],
      "name": "MetadataHashUpdated",
      "type": "event"
    },
    {
      "anonymous": false,
      "inputs": [
        {
          "indexed": true,
          "internalType": "address",
          "name": "previousOwner",
          "type": "address"
        },
        {
          "indexed": true,
          "internalType": "address",
          "name": "newOwner",
          "type": "address"
        }
      ],
      "name": "OwnershipTransferred",
      "type": "event"
    },
    {
      "anonymous": false,
      "inputs": [
        {
          "indexed": true,
          "internalType": "address",
          "name": "_operator",
          "type": "address"
        },
        {
          "indexed": true,
          "internalType": "address",
          "name": "_from",
          "type": "address"
        },
        {
          "indexed": true,
          "internalType": "address",
          "name": "_to",
          "type": "address"
        },
        {
          "indexed": false,
          "internalType": "uint256[]",
          "name": "_ids",
          "type": "uint256[]"
        },
        {
          "indexed": false,
          "internalType": "uint256[]",
          "name": "_values",
          "type": "uint256[]"
        }
      ],
      "name": "TransferBatch",
      "type": "event"
    },
    {
      "anonymous": false,
      "inputs": [
        {
          "indexed": true,
          "internalType": "address",
          "name": "_operator",
          "type": "address"
        },
        {
          "indexed": true,
          "internalType": "address",
          "name": "_from",
          "type": "address"
        },
        {
          "indexed": true,
          "internalType": "address",
          "name": "_to",
          "type": "address"
        },
        {
          "indexed": false,
          "internalType": "uint256",
          "name": "_id",
          "type": "uint256"
        },
        {
          "indexed": false,
          "internalType": "uint256",
          "name": "_value",
          "type": "uint256"
        }
      ],
      "name": "TransferSingle",
      "type": "event"
    },
    {
      "anonymous": false,
      "inputs": [
        {
          "indexed": false,
          "internalType": "string",
          "name": "_value",
          "type": "string"
        },
        {
          "indexed": true,
          "internalType": "uint256",
          "name": "_id",
          "type": "uint256"
        }
      ],
      "name": "URI",
      "type": "event"
    },
    {
      "anonymous": false,
      "inputs": [
        {
          "indexed": true,
          "internalType": "address",
          "name": "_tokenizer",
          "type": "address"
        },
        {
          "indexed": false,
          "internalType": "uint256",
          "name": "_id",
          "type": "uint256"
        },
        {
          "indexed": false,
          "internalType": "uint256",
          "name": "_cost",
          "type": "uint256"
        }
      ],
      "name": "UpdateStorageCost",
      "type": "event"
    },
    {
      "anonymous": false,
      "inputs": [
        {
          "indexed": true,
          "internalType": "address",
          "name": "_owner",
          "type": "address"
        },
        {
          "indexed": false,
          "internalType": "uint256",
          "name": "_price",
          "type": "uint256"
        }
      ],
      "name": "UpdateStorageCreditPrice",
      "type": "event"
    },
    {
      "constant": true,
      "inputs": [],
      "name": "BASE_URI",
      "outputs": [
        {
          "internalType": "string",
          "name": "",
          "type": "string"
        }
      ],
      "payable": false,
      "stateMutability": "view",
      "type": "function"
    },
    {
      "constant": true,
      "inputs": [
        {
          "internalType": "uint256",
          "name": "id",
          "type": "uint256"
        }
      ],
      "name": "addressesByToken",
      "outputs": [
        {
          "internalType": "string",
          "name": "result",
          "type": "string"
        }
      ],
      "payable": false,
      "stateMutability": "view",
      "type": "function"
    },
    {
      "constant": false,
      "inputs": [
        {
          "internalType": "address",
          "name": "tokenizer",
          "type": "address"
        }
      ],
      "name": "authorizeTokenizer",
      "outputs": [],
      "payable": false,
      "stateMutability": "nonpayable",
      "type": "function"
    },
    {
      "constant": true,
      "inputs": [
        {
          "internalType": "address",
          "name": "account",
          "type": "address"
        },
        {
          "internalType": "uint256",
          "name": "id",
          "type": "uint256"
        }
      ],
      "name": "balanceOf",
      "outputs": [
        {
          "internalType": "uint256",
          "name": "",
          "type": "uint256"
        }
      ],
      "payable": false,
      "stateMutability": "view",
      "type": "function"
    },
    {
      "constant": true,
      "inputs": [
        {
          "internalType": "address[]",
          "name": "accounts",
          "type": "address[]"
        },
        {
          "internalType": "uint256[]",
          "name": "ids",
          "type": "uint256[]"
        }
      ],
      "name": "balanceOfBatch",
      "outputs": [
        {
          "internalType": "uint256[]",
          "name": "",
          "type": "uint256[]"
        }
      ],
      "payable": false,
      "stateMutability": "view",
      "type": "function"
    },
    {
      "constant": true,
      "inputs": [
        {
          "internalType": "address",
          "name": "account",
          "type": "address"
        },
        {
          "internalType": "uint256",
          "name": "id",
          "type": "uint256"
        }
      ],
      "name": "birthdayOf",
      "outputs": [
        {
          "internalType": "uint256",
          "name": "",
          "type": "uint256"
        }
      ],
      "payable": false,
      "stateMutability": "view",
      "type": "function"
    },
    {
      "constant": false,
      "inputs": [
        {
          "internalType": "address",
          "name": "recipient",
          "type": "address"
        },
        {
          "internalType": "uint256",
          "name": "id",
          "type": "uint256"
        },
        {
          "internalType": "uint256",
          "name": "supply",
          "type": "uint256"
        },
        {
          "internalType": "uint256",
          "name": "metadataHash",
          "type": "uint256"
        },
        {
          "internalType": "uint256",
          "name": "storageCreditCost",
          "type": "uint256"
        },
        {
          "internalType": "uint256",
          "name": "minHoldingForCallback",
          "type": "uint256"
        },
        {
          "internalType": "address[]",
          "name": "feesRecipients",
          "type": "address[]"
        },
        {
          "internalType": "uint256[]",
          "name": "feesRecipientsPercentage",
          "type": "uint256[]"
        }
      ],
      "name": "createToken",
      "outputs": [],
      "payable": false,
      "stateMutability": "nonpayable",
      "type": "function"
    },
    {
      "constant": true,
      "inputs": [
        {
          "internalType": "address",
          "name": "account",
          "type": "address"
        }
      ],
      "name": "ethBalanceOf",
      "outputs": [
        {
          "internalType": "uint256",
          "name": "",
          "type": "uint256"
        }
      ],
      "payable": false,
      "stateMutability": "view",
      "type": "function"
    },
    {
      "constant": true,
      "inputs": [
        {
          "internalType": "address",
          "name": "account",
          "type": "address"
        },
        {
          "internalType": "address",
          "name": "operator",
          "type": "address"
        }
      ],
      "name": "isApprovedForAll",
      "outputs": [
        {
          "internalType": "bool",
          "name": "",
          "type": "bool"
        }
      ],
      "payable": false,
      "stateMutability": "view",
      "type": "function"
    },
    {
      "constant": true,
      "inputs": [
        {
          "internalType": "address",
          "name": "addr",
          "type": "address"
        }
      ],
      "name": "isLockedAddress",
      "outputs": [
        {
          "internalType": "bool",
          "name": "",
          "type": "bool"
        }
      ],
      "payable": false,
      "stateMutability": "view",
      "type": "function"
    },
    {
      "constant": true,
      "inputs": [
        {
          "internalType": "uint256",
          "name": "id",
          "type": "uint256"
        }
      ],
      "name": "isLockedToken",
      "outputs": [
        {
          "internalType": "bool",
          "name": "",
          "type": "bool"
        }
      ],
      "payable": false,
      "stateMutability": "view",
      "type": "function"
    },
    {
      "constant": true,
      "inputs": [
        {
          "internalType": "address",
          "name": "tokenizer",
          "type": "address"
        }
      ],
      "name": "isTokenizer",
      "outputs": [
        {
          "internalType": "bool",
          "name": "",
          "type": "bool"
        }
      ],
      "payable": false,
      "stateMutability": "view",
      "type": "function"
    },
    {
      "constant": false,
      "inputs": [
        {
          "internalType": "address",
          "name": "addr",
          "type": "address"
        }
      ],
      "name": "lockAddress",
      "outputs": [],
      "payable": false,
      "stateMutability": "nonpayable",
      "type": "function"
    },
    {
      "constant": false,
      "inputs": [
        {
          "internalType": "uint256",
          "name": "id",
          "type": "uint256"
        }
      ],
      "name": "lockToken",
      "outputs": [],
      "payable": false,
      "stateMutability": "nonpayable",
      "type": "function"
    },
    {
      "constant": true,
      "inputs": [
        {
          "internalType": "uint256",
          "name": "id",
          "type": "uint256"
        }
      ],
      "name": "metadataHash",
      "outputs": [
        {
          "internalType": "uint256",
          "name": "",
          "type": "uint256"
        }
      ],
      "payable": false,
      "stateMutability": "view",
      "type": "function"
    },
    {
      "constant": true,
      "inputs": [],
      "name": "owner",
      "outputs": [
        {
          "internalType": "address",
          "name": "",
          "type": "address"
        }
      ],
      "payable": false,
      "stateMutability": "view",
      "type": "function"
    },
    {
      "constant": false,
      "inputs": [
        {
          "internalType": "address",
          "name": "tokenizer",
          "type": "address"
        }
      ],
      "name": "revokeTokenizer",
      "outputs": [],
      "payable": false,
      "stateMutability": "nonpayable",
      "type": "function"
    },
    {
      "constant": false,
      "inputs": [
        {
          "internalType": "address",
          "name": "from",
          "type": "address"
        },
        {
          "internalType": "address",
          "name": "to",
          "type": "address"
        },
        {
          "internalType": "uint256[]",
          "name": "ids",
          "type": "uint256[]"
        },
        {
          "internalType": "uint256[]",
          "name": "values",
          "type": "uint256[]"
        },
        {
          "internalType": "bytes",
          "name": "data",
          "type": "bytes"
        }
      ],
      "name": "safeBatchTransferFrom",
      "outputs": [],
      "payable": true,
      "stateMutability": "payable",
      "type": "function"
    },
    {
      "constant": false,
      "inputs": [
        {
          "internalType": "address",
          "name": "from",
          "type": "address"
        },
        {
          "internalType": "address",
          "name": "to",
          "type": "address"
        },
        {
          "internalType": "uint256",
          "name": "id",
          "type": "uint256"
        },
        {
          "internalType": "uint256",
          "name": "value",
          "type": "uint256"
        },
        {
          "internalType": "bytes",
          "name": "data",
          "type": "bytes"
        }
      ],
      "name": "safeTransferFrom",
      "outputs": [],
      "payable": true,
      "stateMutability": "payable",
      "type": "function"
    },
    {
      "constant": false,
      "inputs": [
        {
          "internalType": "address",
          "name": "operator",
          "type": "address"
        },
        {
          "internalType": "bool",
          "name": "approved",
          "type": "bool"
        }
      ],
      "name": "setApprovalForAll",
      "outputs": [],
      "payable": false,
      "stateMutability": "nonpayable",
      "type": "function"
    },
    {
      "constant": true,
      "inputs": [
        {
          "internalType": "address",
          "name": "account",
          "type": "address"
        },
        {
          "internalType": "uint256",
          "name": "id",
          "type": "uint256"
        },
        {
          "internalType": "uint256",
          "name": "value",
          "type": "uint256"
        }
      ],
      "name": "storageFees",
      "outputs": [
        {
          "internalType": "uint256",
          "name": "",
          "type": "uint256"
        }
      ],
      "payable": false,
      "stateMutability": "view",
      "type": "function"
    },
    {
      "constant": true,
      "inputs": [
        {
          "internalType": "bytes4",
          "name": "_interfaceID",
          "type": "bytes4"
        }
      ],
      "name": "supportsInterface",
      "outputs": [
        {
          "internalType": "bool",
          "name": "",
          "type": "bool"
        }
      ],
      "payable": false,
      "stateMutability": "view",
      "type": "function"
    },
    {
      "constant": true,
      "inputs": [
        {
          "internalType": "address",
          "name": "account",
          "type": "address"
        }
      ],
      "name": "tokensByAddress",
      "outputs": [
        {
          "internalType": "string",
          "name": "result",
          "type": "string"
        }
      ],
      "payable": false,
      "stateMutability": "view",
      "type": "function"
    },
    {
      "constant": true,
      "inputs": [
        {
          "internalType": "uint256",
          "name": "id",
          "type": "uint256"
        }
      ],
      "name": "totalSupply",
      "outputs": [
        {
          "internalType": "uint256",
          "name": "",
          "type": "uint256"
        }
      ],
      "payable": false,
      "stateMutability": "view",
      "type": "function"
    },
    {
      "constant": false,
      "inputs": [
        {
          "internalType": "address",
          "name": "newOwner",
          "type": "address"
        }
      ],
      "name": "transferOwnership",
      "outputs": [],
      "payable": false,
      "stateMutability": "nonpayable",
      "type": "function"
    },
    {
      "constant": false,
      "inputs": [
        {
          "internalType": "address",
          "name": "addr",
          "type": "address"
        }
      ],
      "name": "unlockAddress",
      "outputs": [],
      "payable": false,
      "stateMutability": "nonpayable",
      "type": "function"
    },
    {
      "constant": false,
      "inputs": [
        {
          "internalType": "uint256",
          "name": "id",
          "type": "uint256"
        }
      ],
      "name": "unlockToken",
      "outputs": [],
      "payable": false,
      "stateMutability": "nonpayable",
      "type": "function"
    },
    {
      "constant": false,
      "inputs": [
        {
          "internalType": "uint256",
          "name": "id",
          "type": "uint256"
        },
        {
          "internalType": "uint256",
          "name": "metadataHash",
          "type": "uint256"
        }
      ],
      "name": "updateMetadataHash",
      "outputs": [],
      "payable": false,
      "stateMutability": "nonpayable",
      "type": "function"
    },
    {
      "constant": false,
      "inputs": [
        {
          "internalType": "uint256",
          "name": "id",
          "type": "uint256"
        },
        {
          "internalType": "uint256",
          "name": "newCost",
          "type": "uint256"
        }
      ],
      "name": "updateStorageCost",
      "outputs": [],
      "payable": false,
      "stateMutability": "nonpayable",
      "type": "function"
    },
    {
      "constant": false,
      "inputs": [
        {
          "internalType": "uint256",
          "name": "newPrice",
          "type": "uint256"
        }
      ],
      "name": "updateStorageCreditPrice",
      "outputs": [],
      "payable": false,
      "stateMutability": "nonpayable",
      "type": "function"
    },
    {
      "constant": true,
      "inputs": [
        {
          "internalType": "uint256",
          "name": "id",
          "type": "uint256"
        }
      ],
      "name": "uri",
      "outputs": [
        {
          "internalType": "string",
          "name": "",
          "type": "string"
        }
      ],
      "payable": false,
      "stateMutability": "view",
      "type": "function"
    },
    {
      "constant": false,
      "inputs": [
        {
          "internalType": "address",
          "name": "to",
          "type": "address"
        },
        {
          "internalType": "uint256",
          "name": "amount",
          "type": "uint256"
        }
      ],
      "name": "withdraw",
      "outputs": [],
      "payable": false,
      "stateMutability": "nonpayable",
      "type": "function"
    },
    {
      "constant": false,
      "inputs": [
        {
          "internalType": "uint256",
          "name": "id",
          "type": "uint256"
        },
        {
          "internalType": "uint256",
          "name": "price",
          "type": "uint256"
        }
      ],
      "name": "proposeCallback",
      "outputs": [],
      "payable": true,
      "stateMutability": "payable",
      "type": "function"
    },
    {
      "constant": false,
      "inputs": [
        {
          "internalType": "uint256",
          "name": "id",
          "type": "uint256"
        },
        {
          "internalType": "address",
          "name": "proposer",
          "type": "address"
        }
      ],
      "name": "refuseCallback",
      "outputs": [],
      "payable": false,
      "stateMutability": "nonpayable",
      "type": "function"
    },
    {
      "constant": false,
      "inputs": [
        {
          "internalType": "uint256",
          "name": "id",
          "type": "uint256"
        },
        {
          "internalType": "address",
          "name": "proposer",
          "type": "address"
        }
      ],
      "name": "acceptCallback",
      "outputs": [],
      "payable": false,
      "stateMutability": "nonpayable",
      "type": "function"
    }
  ],
  "bytecode": "0x60806040526103e86006553480156200001757600080fd5b50604051620062e6380380620062e683398181016040526200003d9190810190620001ef565b6200004e33620000a760201b60201c565b80601260006101000a81548173ffffffffffffffffffffffffffffffffffffffff021916908373ffffffffffffffffffffffffffffffffffffffff160217905550620000a033620000a760201b60201c565b5062000304565b600073ffffffffffffffffffffffffffffffffffffffff168173ffffffffffffffffffffffffffffffffffffffff1614156200011a576040517f08c379a0000000000000000000000000000000000000000000000000000000008152600401620001119062000283565b60405180910390fd5b8073ffffffffffffffffffffffffffffffffffffffff166000809054906101000a900473ffffffffffffffffffffffffffffffffffffffff1673ffffffffffffffffffffffffffffffffffffffff167f8be0079c531659141344cd1fd0a4f28419497f9722a3daafe3b4186f6b6457e060405160405180910390a3806000806101000a81548173ffffffffffffffffffffffffffffffffffffffff021916908373ffffffffffffffffffffffffffffffffffffffff16021790555050565b600081519050620001e981620002ea565b92915050565b6000602082840312156200020257600080fd5b60006200021284828501620001d8565b91505092915050565b60006200022a602683620002a5565b91507f4f776e61626c653a206e6577206f776e657220697320746865207a65726f206160008301527f64647265737300000000000000000000000000000000000000000000000000006020830152604082019050919050565b600060208201905081810360008301526200029e816200021b565b9050919050565b600082825260208201905092915050565b6000620002c382620002ca565b9050919050565b600073ffffffffffffffffffffffffffffffffffffffff82169050919050565b620002f581620002b6565b81146200030157600080fd5b50565b615fd280620003146000396000f3fe6080604052600436106102035760003560e01c8063a22cb46511610118578063cf6c97ca116100a0578063e1c95f8a1161006f578063e1c95f8a146107c4578063e985e9c514610801578063f242432a1461083e578063f2fde38b1461085a578063f3fef3a31461088357610203565b8063cf6c97ca1461070a578063d6bc594214610733578063dbddb26a14610770578063dd2e0ac01461079b57610203565b8063bba75c83116100e7578063bba75c83146105d9578063bd85b03914610616578063c02f303c14610653578063c4be3c3c14610690578063cba54e60146106cd57610203565b8063a22cb46514610521578063a29400721461054a578063b5690ac114610573578063b7eb5e0a146105b057610203565b80636fe8ded21161019b57806380f203631161016a57806380f20363146104525780638495b1411461047b5780638870147b146104a45780638da5cb5b146104cd578063939cd641146104f857610203565b80636fe8ded2146103a757806370e0b145146103d05780637252bbf2146103ec5780637627b7321461042957610203565b80632eb2c2d6116101d75780632eb2c2d6146102fc57806334a90d02146103185780634e1273f4146103415780636b62becb1461037e57610203565b8062fdd58e1461020857806301ffc9a7146102455780630e89341c14610282578063219cc8bc146102bf575b600080fd5b34801561021457600080fd5b5061022f600480360361022a9190810190614707565b6108ac565b60405161023c9190615cd1565b60405180910390f35b34801561025157600080fd5b5061026c600480360361026791908101906148e9565b610976565b6040516102799190615892565b60405180910390f35b34801561028e57600080fd5b506102a960048036036102a4919081019061493b565b610a27565b6040516102b691906158cf565b60405180910390f35b3480156102cb57600080fd5b506102e660048036036102e1919081019061493b565b610a77565b6040516102f39190615cd1565b60405180910390f35b6103166004803603610311919081019061456d565b610a94565b005b34801561032457600080fd5b5061033f600480360361033a9190810190614508565b610e41565b005b34801561034d57600080fd5b506103686004803603610363919081019061487d565b610ee3565b6040516103759190615870565b60405180910390f35b34801561038a57600080fd5b506103a560048036036103a091908101906149a0565b611095565b005b3480156103b357600080fd5b506103ce60048036036103c99190810190614964565b6110eb565b005b6103ea60048036036103e591908101906149a0565b611293565b005b3480156103f857600080fd5b50610413600480360361040e9190810190614508565b6113f4565b6040516104209190615cd1565b60405180910390f35b34801561043557600080fd5b50610450600480360361044b9190810190614508565b61143d565b005b34801561045e57600080fd5b506104796004803603610474919081019061493b565b6114df565b005b34801561048757600080fd5b506104a2600480360361049d919081019061493b565b611554565b005b3480156104b057600080fd5b506104cb60048036036104c69190810190614508565b6115f4565b005b3480156104d957600080fd5b506104e2611696565b6040516104ef9190615758565b60405180910390f35b34801561050457600080fd5b5061051f600480360361051a91908101906149a0565b6116bf565b005b34801561052d57600080fd5b50610548600480360361054391908101906146cb565b6117be565b005b34801561055657600080fd5b50610571600480360361056c9190810190614964565b61192a565b005b34801561057f57600080fd5b5061059a6004803603610595919081019061493b565b611ad2565b6040516105a791906158cf565b60405180910390f35b3480156105bc57600080fd5b506105d760048036036105d29190810190614508565b611c52565b005b3480156105e557600080fd5b5061060060048036036105fb919081019061493b565b611cf4565b60405161060d9190615892565b60405180910390f35b34801561062257600080fd5b5061063d6004803603610638919081019061493b565b611d06565b60405161064a9190615cd1565b60405180910390f35b34801561065f57600080fd5b5061067a60048036036106759190810190614508565b611d23565b6040516106879190615892565b60405180910390f35b34801561069c57600080fd5b506106b760048036036106b29190810190614743565b611d35565b6040516106c49190615cd1565b60405180910390f35b3480156106d957600080fd5b506106f460048036036106ef9190810190614508565b611d4b565b6040516107019190615892565b60405180910390f35b34801561071657600080fd5b50610731600480360361072c9190810190614792565b611d5d565b005b34801561073f57600080fd5b5061075a60048036036107559190810190614508565b611e43565b60405161076791906158cf565b60405180910390f35b34801561077c57600080fd5b5061078561203f565b60405161079291906158ad565b60405180910390f35b3480156107a757600080fd5b506107c260048036036107bd919081019061493b565b612078565b005b3480156107d057600080fd5b506107eb60048036036107e69190810190614707565b6120ee565b6040516107f89190615cd1565b60405180910390f35b34801561080d57600080fd5b5061082860048036036108239190810190614531565b612218565b6040516108359190615892565b60405180910390f35b61085860048036036108539190810190614639565b6122ac565b005b34801561086657600080fd5b50610881600480360361087c9190810190614508565b612548565b005b34801561088f57600080fd5b506108aa60048036036108a59190810190614707565b61259b565b005b60008073ffffffffffffffffffffffffffffffffffffffff168373ffffffffffffffffffffffffffffffffffffffff16141561091d576040517f08c379a000000000000000000000000000000000000000000000000000000000815260040161091490615951565b60405180910390fd5b6003600083815260200190815260200160002060008473ffffffffffffffffffffffffffffffffffffffff1673ffffffffffffffffffffffffffffffffffffffff16815260200190815260200160002054905092915050565b60006301ffc9a760e01b7bffffffffffffffffffffffffffffffffffffffffffffffffffffffff1916827bffffffffffffffffffffffffffffffffffffffffffffffffffffffff19161480610a0f575063d9b67a2660e01b7bffffffffffffffffffffffffffffffffffffffffffffffffffffffff1916827bffffffffffffffffffffffffffffffffffffffffffffffffffffffff1916145b15610a1d5760019050610a22565b600090505b919050565b6060610a706040518060400160405280601d81526020017f68747470733a2f2f7374617368626c6f782e636f6d2f746f6b656e732f000000815250610a6b84612762565b612851565b9050919050565b6000600e6000838152602001908152602001600020549050919050565b838390508686905014610adc576040517f08c379a0000000000000000000000000000000000000000000000000000000008152600401610ad390615bb1565b60405180910390fd5b600073ffffffffffffffffffffffffffffffffffffffff168773ffffffffffffffffffffffffffffffffffffffff161415610b4c576040517f08c379a0000000000000000000000000000000000000000000000000000000008152600401610b4390615991565b60405180910390fd5b3373ffffffffffffffffffffffffffffffffffffffff168873ffffffffffffffffffffffffffffffffffffffff161480610b93575060011515610b8f8933612218565b1515145b610bd2576040517f08c379a0000000000000000000000000000000000000000000000000000000008152600401610bc990615b91565b60405180910390fd5b600034905060008090505b87879050811015610c2857610c198a8a8a8a85818110610bf957fe5b90506020020135898986818110610c0c57fe5b905060200201358661299c565b82039150806001019050610bdd565b508773ffffffffffffffffffffffffffffffffffffffff168973ffffffffffffffffffffffffffffffffffffffff163373ffffffffffffffffffffffffffffffffffffffff167f4a39dc06d4c0dbc64b70af90fd698a233a518aa5d07e595d983b8c0526c8f7fb8a8a8a8a604051610ca39493929190615835565b60405180910390a4610d7f338a8a8a8a80806020026020016040519081016040528093929190818152602001838360200280828437600081840152601f19601f82011690508083019250505050505050898980806020026020016040519081016040528093929190818152602001838360200280828437600081840152601f19601f8201169050808301925050505050505088888080601f016020809104026020016040519081016040528093929190818152602001838380828437600081840152601f19601f8201169050808301925050505050505061307f565b6000811115610e365760003373ffffffffffffffffffffffffffffffffffffffff1682604051610dae90615743565b60006040518083038185875af1925050503d8060008114610deb576040519150601f19603f3d011682016040523d82523d6000602084013e610df0565b606091505b5050905080610e34576040517f08c379a0000000000000000000000000000000000000000000000000000000008152600401610e2b90615bf1565b60405180910390fd5b505b505050505050505050565b610e496131de565b610e88576040517f08c379a0000000000000000000000000000000000000000000000000000000008152600401610e7f90615b11565b60405180910390fd5b6001600260008373ffffffffffffffffffffffffffffffffffffffff1673ffffffffffffffffffffffffffffffffffffffff16815260200190815260200160002060006101000a81548160ff02191690831515021790555050565b60608151835114610f29576040517f08c379a0000000000000000000000000000000000000000000000000000000008152600401610f2090615a51565b60405180910390fd5b60608351604051908082528060200260200182016040528015610f5b5781602001602082028038833980820191505090505b50905060008090505b845181101561108a57600073ffffffffffffffffffffffffffffffffffffffff16858281518110610f9157fe5b602002602001015173ffffffffffffffffffffffffffffffffffffffff161415610ff0576040517f08c379a0000000000000000000000000000000000000000000000000000000008152600401610fe790615ab1565b60405180910390fd5b6003600085838151811061100057fe5b60200260200101518152602001908152602001600020600086838151811061102457fe5b602002602001015173ffffffffffffffffffffffffffffffffffffffff1673ffffffffffffffffffffffffffffffffffffffff1681526020019081526020016000205482828151811061107357fe5b602002602001018181525050806001019050610f64565b508091505092915050565b61109e33613235565b6110dd576040517f08c379a00000000000000000000000000000000000000000000000000000000081526004016110d490615a31565b60405180910390fd5b6110e7828261329a565b5050565b6110f36131de565b611132576040517f08c379a000000000000000000000000000000000000000000000000000000000815260040161112990615b11565b60405180910390fd5b6000601260009054906101000a900473ffffffffffffffffffffffffffffffffffffffff1673ffffffffffffffffffffffffffffffffffffffff168383604051602401611180929190615cec565b6040516020818303038152906040527f6fe8ded2000000000000000000000000000000000000000000000000000000007bffffffffffffffffffffffffffffffffffffffffffffffffffffffff19166020820180517bffffffffffffffffffffffffffffffffffffffffffffffffffffffff838183161783525050505060405161120a919061572c565b600060405180830381855af49150503d8060008114611245576040519150601f19603f3d011682016040523d82523d6000602084013e61124a565b606091505b505090508061128e576040517f08c379a000000000000000000000000000000000000000000000000000000000815260040161128590615931565b60405180910390fd5b505050565b6000601260009054906101000a900473ffffffffffffffffffffffffffffffffffffffff1673ffffffffffffffffffffffffffffffffffffffff1683836040516024016112e1929190615d15565b6040516020818303038152906040527f70e0b145000000000000000000000000000000000000000000000000000000007bffffffffffffffffffffffffffffffffffffffffffffffffffffffff19166020820180517bffffffffffffffffffffffffffffffffffffffffffffffffffffffff838183161783525050505060405161136b919061572c565b600060405180830381855af49150503d80600081146113a6576040519150601f19603f3d011682016040523d82523d6000602084013e6113ab565b606091505b50509050806113ef576040517f08c379a00000000000000000000000000000000000000000000000000000000081526004016113e690615b51565b60405180910390fd5b505050565b6000600960008373ffffffffffffffffffffffffffffffffffffffff1673ffffffffffffffffffffffffffffffffffffffff168152602001908152602001600020549050919050565b6114456131de565b611484576040517f08c379a000000000000000000000000000000000000000000000000000000000815260040161147b90615b11565b60405180910390fd5b6001601060008373ffffffffffffffffffffffffffffffffffffffff1673ffffffffffffffffffffffffffffffffffffffff16815260200190815260200160002060006101000a81548160ff02191690831515021790555050565b6114e76131de565b611526576040517f08c379a000000000000000000000000000000000000000000000000000000000815260040161151d90615b11565b60405180910390fd5b600180600083815260200190815260200160002060006101000a81548160ff02191690831515021790555050565b61155d33613235565b61159c576040517f08c379a000000000000000000000000000000000000000000000000000000000815260040161159390615a31565b60405180910390fd5b806006819055503373ffffffffffffffffffffffffffffffffffffffff167f5c5a35dc0829d2f6a31d1d6da57c4315ba7b562ee447c87b75c732cfd96abde9826040516115e99190615cd1565b60405180910390a250565b6115fc6131de565b61163b576040517f08c379a000000000000000000000000000000000000000000000000000000000815260040161163290615b11565b60405180910390fd5b6000601060008373ffffffffffffffffffffffffffffffffffffffff1673ffffffffffffffffffffffffffffffffffffffff16815260200190815260200160002060006101000a81548160ff02191690831515021790555050565b60008060009054906101000a900473ffffffffffffffffffffffffffffffffffffffff16905090565b6116c833613235565b611707576040517f08c379a00000000000000000000000000000000000000000000000000000000081526004016116fe90615a31565b60405180910390fd5b600560008381526020019081526020016000206040518060400160405280428152602001838152509080600181540180825580915050906001820390600052602060002090600202016000909192909190915090600261176892919061413c565b50503373ffffffffffffffffffffffffffffffffffffffff167f4bd9446604f43017ac3918d8db419b59a3b6f2a6cdd456eed5de99621bb6276583836040516117b2929190615d15565b60405180910390a25050565b8173ffffffffffffffffffffffffffffffffffffffff163373ffffffffffffffffffffffffffffffffffffffff16141561182d576040517f08c379a0000000000000000000000000000000000000000000000000000000008152600401611824906159f1565b60405180910390fd5b80600d60003373ffffffffffffffffffffffffffffffffffffffff1673ffffffffffffffffffffffffffffffffffffffff16815260200190815260200160002060008473ffffffffffffffffffffffffffffffffffffffff1673ffffffffffffffffffffffffffffffffffffffff16815260200190815260200160002060006101000a81548160ff0219169083151502179055508173ffffffffffffffffffffffffffffffffffffffff163373ffffffffffffffffffffffffffffffffffffffff167f17307eab39ab6107e8899845ad3d59bd9653f200f220920489ca2b5937696c318360405161191e9190615892565b60405180910390a35050565b6119326131de565b611971576040517f08c379a000000000000000000000000000000000000000000000000000000000815260040161196890615b11565b60405180910390fd5b6000601260009054906101000a900473ffffffffffffffffffffffffffffffffffffffff1673ffffffffffffffffffffffffffffffffffffffff1683836040516024016119bf929190615cec565b6040516020818303038152906040527fa2940072000000000000000000000000000000000000000000000000000000007bffffffffffffffffffffffffffffffffffffffffffffffffffffffff19166020820180517bffffffffffffffffffffffffffffffffffffffffffffffffffffffff8381831617835250505050604051611a49919061572c565b600060405180830381855af49150503d8060008114611a84576040519150601f19603f3d011682016040523d82523d6000602084013e611a89565b606091505b5050905080611acd576040517f08c379a0000000000000000000000000000000000000000000000000000000008152600401611ac490615c91565b60405180910390fd5b505050565b606060008090505b600b600084815260200190815260200160002080549050811015611c49576000600b60008581526020019081526020016000208281548110611b1857fe5b9060005260206000200160009054906101000a900473ffffffffffffffffffffffffffffffffffffffff16905060006003600086815260200190815260200160002060008373ffffffffffffffffffffffffffffffffffffffff1673ffffffffffffffffffffffffffffffffffffffff168152602001908152602001600020541115611c3b57600083511115611c1857611be7836040518060400160405280600181526020017f2000000000000000000000000000000000000000000000000000000000000000815250612851565b9250611c1183611c0c8373ffffffffffffffffffffffffffffffffffffffff16612762565b612851565b9250611c3a565b611c378173ffffffffffffffffffffffffffffffffffffffff16612762565b92505b5b508080600101915050611ada565b50809050919050565b611c5a6131de565b611c99576040517f08c379a0000000000000000000000000000000000000000000000000000000008152600401611c9090615b11565b60405180910390fd5b6000600260008373ffffffffffffffffffffffffffffffffffffffff1673ffffffffffffffffffffffffffffffffffffffff16815260200190815260200160002060006101000a81548160ff02191690831515021790555050565b6000611cff826132e4565b9050919050565b6000600f6000838152602001908152602001600020549050919050565b6000611d2e82613235565b9050919050565b6000611d4284848461330e565b90509392505050565b6000611d568261355f565b9050919050565b611d6633613235565b611da5576040517f08c379a0000000000000000000000000000000000000000000000000000000008152600401611d9c90615a31565b60405180910390fd5b611e378a8a8a8a8a8a8a8a80806020026020016040519081016040528093929190818152602001838360200280828437600081840152601f19601f82011690508083019250505050505050898980806020026020016040519081016040528093929190818152602001838360200280828437600081840152601f19601f820116905080830192505050505050506135b5565b50505050505050505050565b6060600073ffffffffffffffffffffffffffffffffffffffff168273ffffffffffffffffffffffffffffffffffffffff161415611eb5576040517f08c379a0000000000000000000000000000000000000000000000000000000008152600401611eac90615951565b60405180910390fd5b60008090505b600a60008473ffffffffffffffffffffffffffffffffffffffff1673ffffffffffffffffffffffffffffffffffffffff16815260200190815260200160002080549050811015612036576000600a60008573ffffffffffffffffffffffffffffffffffffffff1673ffffffffffffffffffffffffffffffffffffffff1681526020019081526020016000208281548110611f5157fe5b9060005260206000200154905060006003600083815260200190815260200160002060008673ffffffffffffffffffffffffffffffffffffffff1673ffffffffffffffffffffffffffffffffffffffff1681526020019081526020016000205411156120285760008351111561201b57612000836040518060400160405280600181526020017f2000000000000000000000000000000000000000000000000000000000000000815250612851565b92506120148361200f83612762565b612851565b9250612027565b61202481612762565b92505b5b508080600101915050611ebb565b50809050919050565b6040518060400160405280601d81526020017f68747470733a2f2f7374617368626c6f782e636f6d2f746f6b656e732f00000081525081565b6120806131de565b6120bf576040517f08c379a00000000000000000000000000000000000000000000000000000000081526004016120b690615b11565b60405180910390fd5b60006001600083815260200190815260200160002060006101000a81548160ff02191690831515021790555050565b60008073ffffffffffffffffffffffffffffffffffffffff168373ffffffffffffffffffffffffffffffffffffffff16141561215f576040517f08c379a000000000000000000000000000000000000000000000000000000000815260040161215690615951565b60405180910390fd5b60006003600084815260200190815260200160002060008573ffffffffffffffffffffffffffffffffffffffff1673ffffffffffffffffffffffffffffffffffffffff168152602001908152602001600020541461220d576004600083815260200190815260200160002060008473ffffffffffffffffffffffffffffffffffffffff1673ffffffffffffffffffffffffffffffffffffffff16815260200190815260200160002054612210565b60005b905092915050565b6000600d60008473ffffffffffffffffffffffffffffffffffffffff1673ffffffffffffffffffffffffffffffffffffffff16815260200190815260200160002060008373ffffffffffffffffffffffffffffffffffffffff1673ffffffffffffffffffffffffffffffffffffffff16815260200190815260200160002060009054906101000a900460ff16905092915050565b600073ffffffffffffffffffffffffffffffffffffffff168573ffffffffffffffffffffffffffffffffffffffff16141561231c576040517f08c379a000000000000000000000000000000000000000000000000000000000815260040161231390615991565b60405180910390fd5b3373ffffffffffffffffffffffffffffffffffffffff168673ffffffffffffffffffffffffffffffffffffffff16148061236357506001151561235f8733612218565b1515145b6123a2576040517f08c379a000000000000000000000000000000000000000000000000000000000815260040161239990615b91565b60405180910390fd5b60003490506123b4878787878561299c565b810390508573ffffffffffffffffffffffffffffffffffffffff168773ffffffffffffffffffffffffffffffffffffffff163373ffffffffffffffffffffffffffffffffffffffff167fc3d58168c5ae7397731d063d5bbf3d657854427343f4c083240f7aacaa2d0f62888860405161242e929190615d15565b60405180910390a4612488338888888888888080601f016020809104026020016040519081016040528093929190818152602001838380828437600081840152601f19601f82011690508083019250505050505050613b66565b600081111561253f5760003373ffffffffffffffffffffffffffffffffffffffff16826040516124b790615743565b60006040518083038185875af1925050503d80600081146124f4576040519150601f19603f3d011682016040523d82523d6000602084013e6124f9565b606091505b505090508061253d576040517f08c379a000000000000000000000000000000000000000000000000000000000815260040161253490615bf1565b60405180910390fd5b505b50505050505050565b6125506131de565b61258f576040517f08c379a000000000000000000000000000000000000000000000000000000000815260040161258690615b11565b60405180910390fd5b61259881613cc5565b50565b6125a36131de565b6125e2576040517f08c379a00000000000000000000000000000000000000000000000000000000081526004016125d990615b11565b60405180910390fd5b80600960008473ffffffffffffffffffffffffffffffffffffffff1673ffffffffffffffffffffffffffffffffffffffff168152602001908152602001600020541015612664576040517f08c379a000000000000000000000000000000000000000000000000000000000815260040161265b906159d1565b60405180910390fd5b60008273ffffffffffffffffffffffffffffffffffffffff168260405161268a90615743565b60006040518083038185875af1925050503d80600081146126c7576040519150601f19603f3d011682016040523d82523d6000602084013e6126cc565b606091505b5050905080612710576040517f08c379a0000000000000000000000000000000000000000000000000000000008152600401612707906158f1565b60405180910390fd5b81600960008573ffffffffffffffffffffffffffffffffffffffff1673ffffffffffffffffffffffffffffffffffffffff16815260200190815260200160002060008282540392505081905550505050565b6060600080905060008390505b600081146127915781806001019250506010818161278957fe5b04905061276f565b6060826040519080825280601f01601f1916602001820160405280156127c65781602001600182028038833980820191505090505b50905060008090505b8381101561284557601086816127e157fe5b0692506127ed83613df3565b82600183870303815181106127fe57fe5b60200101907effffffffffffffffffffffffffffffffffffffffffffffffffffffffffffff1916908160001a9053506010868161283757fe5b0495508060010190506127cf565b50809350505050919050565b6060808390506060839050606081518351016040519080825280601f01601f1916602001820160405280156128955781602001600182028038833980820191505090505b509050606081905060008090506000809050600090505b855181101561291a578581815181106128c157fe5b602001015160f81c60f81b8383806001019450815181106128de57fe5b60200101907effffffffffffffffffffffffffffffffffffffffffffffffffffffffffffff1916908160001a90535080806001019150506128ac565b600090505b845181101561298d5784818151811061293457fe5b602001015160f81c60f81b83838060010194508151811061295157fe5b60200101907effffffffffffffffffffffffffffffffffffffffffffffffffffffffffffff1916908160001a905350808060010191505061291f565b82965050505050505092915050565b60006129aa86868686613e9c565b156129ea576040517f08c379a00000000000000000000000000000000000000000000000000000000081526004016129e190615911565b60405180910390fd5b6129f586858561330e565b905080821015612a3a576040517f08c379a0000000000000000000000000000000000000000000000000000000008152600401612a3190615cb1565b60405180910390fd5b612ab7836040518060600160405280602a8152602001615f66602a91396003600088815260200190815260200160002060008a73ffffffffffffffffffffffffffffffffffffffff1673ffffffffffffffffffffffffffffffffffffffff16815260200190815260200160002054613edc9092919063ffffffff16565b6003600086815260200190815260200160002060008873ffffffffffffffffffffffffffffffffffffffff1673ffffffffffffffffffffffffffffffffffffffff168152602001908152602001600020819055506000612b70846003600088815260200190815260200160002060008973ffffffffffffffffffffffffffffffffffffffff1673ffffffffffffffffffffffffffffffffffffffff16815260200190815260200160002054613f3790919063ffffffff16565b905060006003600087815260200190815260200160002060008873ffffffffffffffffffffffffffffffffffffffff1673ffffffffffffffffffffffffffffffffffffffff168152602001908152602001600020541415612dc457600c600086815260200190815260200160002060008773ffffffffffffffffffffffffffffffffffffffff1673ffffffffffffffffffffffffffffffffffffffff16815260200190815260200160002060009054906101000a900460ff16612d6a57600a60008773ffffffffffffffffffffffffffffffffffffffff1673ffffffffffffffffffffffffffffffffffffffff168152602001908152602001600020859080600181540180825580915050906001820390600052602060002001600090919290919091505550600b60008681526020019081526020016000208690806001815401808255809150509060018203906000526020600020016000909192909190916101000a81548173ffffffffffffffffffffffffffffffffffffffff021916908373ffffffffffffffffffffffffffffffffffffffff16021790555050600c600086815260200190815260200160002060008773ffffffffffffffffffffffffffffffffffffffff1673ffffffffffffffffffffffffffffffffffffffff16815260200190815260200160002060009054906101000a9050505b426004600087815260200190815260200160002060008873ffffffffffffffffffffffffffffffffffffffff1673ffffffffffffffffffffffffffffffffffffffff16815260200190815260200160002081905550612efe565b6000612e296004600088815260200190815260200160002060008973ffffffffffffffffffffffffffffffffffffffff1673ffffffffffffffffffffffffffffffffffffffff1681526020019081526020016000205442613f8c90919063ffffffff16565b90506000612ea283612e9484600360008c815260200190815260200160002060008d73ffffffffffffffffffffffffffffffffffffffff1673ffffffffffffffffffffffffffffffffffffffff16815260200190815260200160002054613fd690919063ffffffff16565b61404690919063ffffffff16565b90508042036004600089815260200190815260200160002060008a73ffffffffffffffffffffffffffffffffffffffff1673ffffffffffffffffffffffffffffffffffffffff1681526020019081526020016000208190555050505b806003600087815260200190815260200160002060008873ffffffffffffffffffffffffffffffffffffffff1673ffffffffffffffffffffffffffffffffffffffff1681526020019081526020016000208190555060008090505b6007600087815260200190815260200160002080549050811015613071576000600760008881526020019081526020016000208281548110612f9757fe5b9060005260206000200160009054906101000a900473ffffffffffffffffffffffffffffffffffffffff1690506000600860008981526020019081526020016000208381548110612fe457fe5b9060005260206000200154905061301861271061300a8388613fd690919063ffffffff16565b61404690919063ffffffff16565b600960008473ffffffffffffffffffffffffffffffffffffffff1673ffffffffffffffffffffffffffffffffffffffff168152602001908152602001600020600082825401925050819055505050806001019050612f59565b508191505095945050505050565b61309e8473ffffffffffffffffffffffffffffffffffffffff16614090565b156131d6578373ffffffffffffffffffffffffffffffffffffffff1663bc197c81905060e01b7bffffffffffffffffffffffffffffffffffffffffffffffffffffffff19168473ffffffffffffffffffffffffffffffffffffffff1663bc197c8188888787876040518663ffffffff1660e01b8152600401613124959493929190615773565b602060405180830381600087803b15801561313e57600080fd5b505af1158015613152573d6000803e3d6000fd5b505050506040513d601f19601f820116820180604052506131769190810190614912565b7bffffffffffffffffffffffffffffffffffffffffffffffffffffffff1916146131d5576040517f08c379a00000000000000000000000000000000000000000000000000000000081526004016131cc90615a91565b60405180910390fd5b5b505050505050565b60008060009054906101000a900473ffffffffffffffffffffffffffffffffffffffff1673ffffffffffffffffffffffffffffffffffffffff163373ffffffffffffffffffffffffffffffffffffffff1614905090565b6000601060008373ffffffffffffffffffffffffffffffffffffffff1673ffffffffffffffffffffffffffffffffffffffff16815260200190815260200160002060009054906101000a900460ff168061329357506132926131de565b5b9050919050565b80600e60008481526020019081526020016000208190555080827f9cd9c60390fc75c213fd8d644749f61388dd30ed6c6eb4647b793b5b580fb43060405160405180910390a35050565b60006001600083815260200190815260200160002060009054906101000a900460ff169050919050565b60008073ffffffffffffffffffffffffffffffffffffffff168473ffffffffffffffffffffffffffffffffffffffff16141561337f576040517f08c379a000000000000000000000000000000000000000000000000000000000815260040161337690615951565b60405180910390fd5b600080905060004290506000600160056000888152602001908152602001600020805490500390505b600081106135525760006005600088815260200190815260200160002082815481106133d057fe5b90600052602060002090600202016000600281106133ea57fe5b0154905060006305f5e100600654600560008b8152602001908152602001600020858154811061341657fe5b906000526020600020906002020160016002811061343057fe5b0154028161343a57fe5b049050600082600460008b815260200190815260200160002060008c73ffffffffffffffffffffffffffffffffffffffff1673ffffffffffffffffffffffffffffffffffffffff16815260200190815260200160002054106135165762015180600460008b815260200190815260200160002060008c73ffffffffffffffffffffffffffffffffffffffff1673ffffffffffffffffffffffffffffffffffffffff168152602001908152602001600020548603816134f457fe5b049050600081141561350557600190505b878282020286019550505050613552565b620151808386038161352457fe5b049050600081141561353557600190505b8294508782820202860195505050508080600190039150506133a8565b5081925050509392505050565b6000600260008373ffffffffffffffffffffffffffffffffffffffff1673ffffffffffffffffffffffffffffffffffffffff16815260200190815260200160002060009054906101000a900460ff169050919050565b6000600f6000898152602001908152602001600020541461360b576040517f08c379a000000000000000000000000000000000000000000000000000000000815260040161360290615af1565b60405180910390fd5b6000861161364e576040517f08c379a000000000000000000000000000000000000000000000000000000000815260040161364590615a71565b60405180910390fd5b60008411613691576040517f08c379a000000000000000000000000000000000000000000000000000000000815260040161368890615a11565b60405180910390fd5b600083116136d4576040517f08c379a00000000000000000000000000000000000000000000000000000000081526004016136cb90615c71565b60405180910390fd5b612710831115613719576040517f08c379a000000000000000000000000000000000000000000000000000000000815260040161371090615bd1565b60405180910390fd5b600082511161375d576040517f08c379a000000000000000000000000000000000000000000000000000000000815260040161375490615c31565b60405180910390fd5b80518251146137a1576040517f08c379a000000000000000000000000000000000000000000000000000000000815260040161379890615c11565b60405180910390fd5b600080905060008090505b825181101561382e578281815181106137c157fe5b60200260200101518201915060008382815181106137db57fe5b602002602001015111613823576040517f08c379a000000000000000000000000000000000000000000000000000000000815260040161381a90615b31565b60405180910390fd5b8060010190506137ac565b506127108114613873576040517f08c379a000000000000000000000000000000000000000000000000000000000815260040161386a90615b71565b60405180910390fd5b6001600c60008a815260200190815260200160002060008b73ffffffffffffffffffffffffffffffffffffffff1673ffffffffffffffffffffffffffffffffffffffff16815260200190815260200160002060006101000a81548160ff021916908315150217905550600a60008a73ffffffffffffffffffffffffffffffffffffffff1673ffffffffffffffffffffffffffffffffffffffff16815260200190815260200160002088908060018154018082558091505090600182039060005260206000200160009091929091909150555086600f60008a81526020019081526020016000208190555086600360008a815260200190815260200160002060008b73ffffffffffffffffffffffffffffffffffffffff1673ffffffffffffffffffffffffffffffffffffffff168152602001908152602001600020819055506139bc888761329a565b42600460008a815260200190815260200160002060008b73ffffffffffffffffffffffffffffffffffffffff1673ffffffffffffffffffffffffffffffffffffffff168152602001908152602001600020819055506005600089815260200190815260200160002060405180604001604052804281526020018781525090806001815401808255809150509060018203906000526020600020906002020160009091929091909150906002613a7292919061413c565b505083601160008a81526020019081526020016000208190555082600760008a81526020019081526020016000209080519060200190613ab392919061417c565b5081600860008a81526020019081526020016000209080519060200190613adb929190614206565b508873ffffffffffffffffffffffffffffffffffffffff16600073ffffffffffffffffffffffffffffffffffffffff163373ffffffffffffffffffffffffffffffffffffffff167fc3d58168c5ae7397731d063d5bbf3d657854427343f4c083240f7aacaa2d0f628b8b604051613b53929190615d15565b60405180910390a4505050505050505050565b613b858473ffffffffffffffffffffffffffffffffffffffff16614090565b15613cbd578373ffffffffffffffffffffffffffffffffffffffff1663f23a6e61905060e01b7bffffffffffffffffffffffffffffffffffffffffffffffffffffffff19168473ffffffffffffffffffffffffffffffffffffffff1663f23a6e6188888787876040518663ffffffff1660e01b8152600401613c0b9594939291906157db565b602060405180830381600087803b158015613c2557600080fd5b505af1158015613c39573d6000803e3d6000fd5b505050506040513d601f19601f82011682018060405250613c5d9190810190614912565b7bffffffffffffffffffffffffffffffffffffffffffffffffffffffff191614613cbc576040517f08c379a0000000000000000000000000000000000000000000000000000000008152600401613cb390615c51565b60405180910390fd5b5b505050505050565b600073ffffffffffffffffffffffffffffffffffffffff168173ffffffffffffffffffffffffffffffffffffffff161415613d35576040517f08c379a0000000000000000000000000000000000000000000000000000000008152600401613d2c90615971565b60405180910390fd5b8073ffffffffffffffffffffffffffffffffffffffff166000809054906101000a900473ffffffffffffffffffffffffffffffffffffffff1673ffffffffffffffffffffffffffffffffffffffff167f8be0079c531659141344cd1fd0a4f28419497f9722a3daafe3b4186f6b6457e060405160405180910390a3806000806101000a81548173ffffffffffffffffffffffffffffffffffffffff021916908373ffffffffffffffffffffffffffffffffffffffff16021790555050565b60008160ff16600011158015613e0d575060098260ff1611155b15613e4257817f300000000000000000000000000000000000000000000000000000000000000060f81c0160f81b9050613e97565b8160ff16600a11158015613e5a5750600f8260ff1611155b15613e9257600a827f610000000000000000000000000000000000000000000000000000000000000060f81c010360f81b9050613e97565b600080fd5b919050565b6000613ea7836132e4565b80613eb75750613eb68561355f565b5b80613ec75750613ec68461355f565b5b80613ed25750600082145b9050949350505050565b6000838311158290613f24576040517f08c379a0000000000000000000000000000000000000000000000000000000008152600401613f1b91906158cf565b60405180910390fd5b5060008385039050809150509392505050565b600080828401905083811015613f82576040517f08c379a0000000000000000000000000000000000000000000000000000000008152600401613f79906159b1565b60405180910390fd5b8091505092915050565b6000613fce83836040518060400160405280601e81526020017f536166654d6174683a207375627472616374696f6e206f766572666c6f770000815250613edc565b905092915050565b600080831415613fe95760009050614040565b6000828402905082848281613ffa57fe5b041461403b576040517f08c379a000000000000000000000000000000000000000000000000000000000815260040161403290615ad1565b60405180910390fd5b809150505b92915050565b600061408883836040518060400160405280601a81526020017f536166654d6174683a206469766973696f6e206279207a65726f0000000000008152506140db565b905092915050565b60008060007fc5d2460186f7233c927e7db2dcc703c0e500b653ca82273b7bfad8045d85a47060001b9050833f91506000801b82141580156140d25750808214155b92505050919050565b60008083118290614122576040517f08c379a000000000000000000000000000000000000000000000000000000000815260040161411991906158cf565b60405180910390fd5b50600083858161412e57fe5b049050809150509392505050565b826002810192821561416b579160200282015b8281111561416a57825182559160200191906001019061414f565b5b5090506141789190614253565b5090565b8280548282559060005260206000209081019282156141f5579160200282015b828111156141f45782518260006101000a81548173ffffffffffffffffffffffffffffffffffffffff021916908373ffffffffffffffffffffffffffffffffffffffff1602179055509160200191906001019061419c565b5b5090506142029190614278565b5090565b828054828255906000526020600020908101928215614242579160200282015b82811115614241578251825591602001919060010190614226565b5b50905061424f9190614253565b5090565b61427591905b80821115614271576000816000905550600101614259565b5090565b90565b6142b891905b808211156142b457600081816101000a81549073ffffffffffffffffffffffffffffffffffffffff02191690555060010161427e565b5090565b90565b6000813590506142ca81615f09565b92915050565b60008083601f8401126142e257600080fd5b8235905067ffffffffffffffff8111156142fb57600080fd5b60208301915083602082028301111561431357600080fd5b9250929050565b600082601f83011261432b57600080fd5b813561433e61433982615d6b565b615d3e565b9150818183526020840193506020810190508385602084028201111561436357600080fd5b60005b83811015614393578161437988826142bb565b845260208401935060208301925050600181019050614366565b5050505092915050565b60008083601f8401126143af57600080fd5b8235905067ffffffffffffffff8111156143c857600080fd5b6020830191508360208202830111156143e057600080fd5b9250929050565b600082601f8301126143f857600080fd5b813561440b61440682615d93565b615d3e565b9150818183526020840193506020810190508385602084028201111561443057600080fd5b60005b83811015614460578161444688826144f3565b845260208401935060208301925050600181019050614433565b5050505092915050565b60008135905061447981615f20565b92915050565b60008135905061448e81615f37565b92915050565b6000815190506144a381615f37565b92915050565b60008083601f8401126144bb57600080fd5b8235905067ffffffffffffffff8111156144d457600080fd5b6020830191508360018202830111156144ec57600080fd5b9250929050565b60008135905061450281615f4e565b92915050565b60006020828403121561451a57600080fd5b6000614528848285016142bb565b91505092915050565b6000806040838503121561454457600080fd5b6000614552858286016142bb565b9250506020614563858286016142bb565b9150509250929050565b60008060008060008060008060a0898b03121561458957600080fd5b60006145978b828c016142bb565b98505060206145a88b828c016142bb565b975050604089013567ffffffffffffffff8111156145c557600080fd5b6145d18b828c0161439d565b9650965050606089013567ffffffffffffffff8111156145f057600080fd5b6145fc8b828c0161439d565b9450945050608089013567ffffffffffffffff81111561461b57600080fd5b6146278b828c016144a9565b92509250509295985092959890939650565b60008060008060008060a0878903121561465257600080fd5b600061466089828a016142bb565b965050602061467189828a016142bb565b955050604061468289828a016144f3565b945050606061469389828a016144f3565b935050608087013567ffffffffffffffff8111156146b057600080fd5b6146bc89828a016144a9565b92509250509295509295509295565b600080604083850312156146de57600080fd5b60006146ec858286016142bb565b92505060206146fd8582860161446a565b9150509250929050565b6000806040838503121561471a57600080fd5b6000614728858286016142bb565b9250506020614739858286016144f3565b9150509250929050565b60008060006060848603121561475857600080fd5b6000614766868287016142bb565b9350506020614777868287016144f3565b9250506040614788868287016144f3565b9150509250925092565b6000806000806000806000806000806101008b8d0312156147b257600080fd5b60006147c08d828e016142bb565b9a505060206147d18d828e016144f3565b99505060406147e28d828e016144f3565b98505060606147f38d828e016144f3565b97505060806148048d828e016144f3565b96505060a06148158d828e016144f3565b95505060c08b013567ffffffffffffffff81111561483257600080fd5b61483e8d828e016142d0565b945094505060e08b013567ffffffffffffffff81111561485d57600080fd5b6148698d828e0161439d565b92509250509295989b9194979a5092959850565b6000806040838503121561489057600080fd5b600083013567ffffffffffffffff8111156148aa57600080fd5b6148b68582860161431a565b925050602083013567ffffffffffffffff8111156148d357600080fd5b6148df858286016143e7565b9150509250929050565b6000602082840312156148fb57600080fd5b60006149098482850161447f565b91505092915050565b60006020828403121561492457600080fd5b600061493284828501614494565b91505092915050565b60006020828403121561494d57600080fd5b600061495b848285016144f3565b91505092915050565b6000806040838503121561497757600080fd5b6000614985858286016144f3565b9250506020614996858286016142bb565b9150509250929050565b600080604083850312156149b357600080fd5b60006149c1858286016144f3565b92505060206149d2858286016144f3565b9150509250929050565b60006149e8838361570e565b60208301905092915050565b6149fd81615e42565b82525050565b6000614a0f8385615e04565b93507f07ffffffffffffffffffffffffffffffffffffffffffffffffffffffffffffff831115614a3e57600080fd5b602083029250614a4f838584615eb6565b82840190509392505050565b6000614a6682615dcb565b614a708185615e04565b9350614a7b83615dbb565b8060005b83811015614aac578151614a9388826149dc565b9750614a9e83615df7565b925050600181019050614a7f565b5085935050505092915050565b614ac281615e54565b82525050565b6000614ad382615dd6565b614add8185615e15565b9350614aed818560208601615ec5565b614af681615ef8565b840191505092915050565b6000614b0c82615dd6565b614b168185615e26565b9350614b26818560208601615ec5565b80840191505092915050565b6000614b3d82615dec565b614b478185615e31565b9350614b57818560208601615ec5565b614b6081615ef8565b840191505092915050565b6000614b7682615de1565b614b808185615e31565b9350614b90818560208601615ec5565b614b9981615ef8565b840191505092915050565b6000614bb1601d83615e31565b91507f5374617368426c6f783a205769746864726177616c206661696c65642e0000006000830152602082019050919050565b6000614bf1600683615e31565b91507f4c6f636b656400000000000000000000000000000000000000000000000000006000830152602082019050919050565b6000614c31602083615e31565b91507f5374617368426c6f783a2072656675736543616c6c6261636b206661696c65646000830152602082019050919050565b6000614c71602b83615e31565b91507f455243313135353a2062616c616e636520717565727920666f7220746865207a60008301527f65726f20616464726573730000000000000000000000000000000000000000006020830152604082019050919050565b6000614cd7602683615e31565b91507f4f776e61626c653a206e6577206f776e657220697320746865207a65726f206160008301527f64647265737300000000000000000000000000000000000000000000000000006020830152604082019050919050565b6000614d3d602883615e31565b91507f455243313135353a207461726765742061646472657373206d7573742062652060008301527f6e6f6e2d7a65726f0000000000000000000000000000000000000000000000006020830152604082019050919050565b6000614da3601b83615e31565b91507f536166654d6174683a206164646974696f6e206f766572666c6f7700000000006000830152602082019050919050565b6000614de3602083615e31565b91507f5374617368426c6f783a20496e73756666696369656e742062616c616e63652e6000830152602082019050919050565b6000614e23602c83615e31565b91507f455243313135353a2063616e6e6f742073657420617070726f76616c2073746160008301527f74757320666f722073656c6600000000000000000000000000000000000000006020830152604082019050919050565b6000614e89603583615e31565b91507f5374617368426c6f783a2073746f72616765437265646974436f73742073686f60008301527f756c642062652067726561746572207468616e203000000000000000000000006020830152604082019050919050565b6000614eef602383615e31565b91507f4d696e7461626c653a2063616c6c6572206973206e6f74206120746f6b656e6960008301527f7a657200000000000000000000000000000000000000000000000000000000006020830152604082019050919050565b6000614f55603083615e31565b91507f455243313135353a206163636f756e747320616e6420494473206d757374206860008301527f6176652073616d65206c656e67746873000000000000000000000000000000006020830152604082019050919050565b6000614fbb602a83615e31565b91507f5374617368426c6f783a20737570706c792073686f756c64206265206772656160008301527f746572207468616e2030000000000000000000000000000000000000000000006020830152604082019050919050565b6000615021603683615e31565b91507f455243313135353a20676f7420756e6b6e6f776e2076616c75652066726f6d2060008301527f6f6e4552433131353542617463685265636569766564000000000000000000006020830152604082019050919050565b6000615087603483615e31565b91507f455243313135353a20736f6d65206164647265737320696e206261746368206260008301527f616c616e6365207175657279206973207a65726f0000000000000000000000006020830152604082019050919050565b60006150ed602183615e31565b91507f536166654d6174683a206d756c7469706c69636174696f6e206f766572666c6f60008301527f77000000000000000000000000000000000000000000000000000000000000006020830152604082019050919050565b6000615153601f83615e31565b91507f5374617368426c6f783a20546f6b656e20616c7265616479206d696e746564006000830152602082019050919050565b6000615193602083615e31565b91507f4f776e61626c653a2063616c6c6572206973206e6f7420746865206f776e65726000830152602082019050919050565b60006151d3603c83615e31565b91507f5374617368426c6f783a2066656573526563697069656e747350657263656e7460008301527f6167652073686f756c642062652067726561746572207468616e2030000000006020830152604082019050919050565b6000615239602183615e31565b91507f5374617368426c6f783a2070726f706f736543616c6c6261636b206661696c6560008301527f64000000000000000000000000000000000000000000000000000000000000006020830152604082019050919050565b600061529f604383615e31565b91507f5374617368426c6f783a20546f74616c206f662066656573526563697069656e60008301527f747350657263656e74616765206d75737420626520657175616c20746f20313060208301527f30303000000000000000000000000000000000000000000000000000000000006040830152606082019050919050565b600061532b603783615e31565b91507f455243313135353a206e656564206f70657261746f7220617070726f76616c2060008301527f666f7220337264207061727479207472616e73666572730000000000000000006020830152604082019050919050565b6000615391602e83615e31565b91507f455243313135353a2049447320616e642076616c756573206d7573742068617660008301527f652073616d65206c656e677468730000000000000000000000000000000000006020830152604082019050919050565b60006153f7604483615e31565b91507f5374617368426c6f783a206d696e486f6c64696e67466f7243616c6c6261636b60008301527f2073686f756c64206265206c6f776572206f7220657175616c207468616e203160208301527f30303030000000000000000000000000000000000000000000000000000000006040830152606082019050919050565b6000615483600083615e26565b9150600082019050919050565b600061549d601083615e31565b91507f5472616e73666572206661696c65642e000000000000000000000000000000006000830152602082019050919050565b60006154dd603283615e31565b91507f5374617368426c6f783a20696e76616c69642066656573526563697069656e7460008301527f7350657263656e74616765206c656e67746800000000000000000000000000006020830152604082019050919050565b6000615543602b83615e31565b91507f5374617368426c6f783a206e656564206174206c65617374206f6e652066656560008301527f73526563697069656e74730000000000000000000000000000000000000000006020830152604082019050919050565b60006155a9603183615e31565b91507f455243313135353a20676f7420756e6b6e6f776e2076616c75652066726f6d2060008301527f6f6e4552433131353552656365697665640000000000000000000000000000006020830152604082019050919050565b600061560f603983615e31565b91507f5374617368426c6f783a206d696e486f6c64696e67466f7243616c6c6261636b60008301527f2073686f756c642062652067726561746572207468616e2030000000000000006020830152604082019050919050565b6000615675602083615e31565b91507f5374617368426c6f783a2061636365707443616c6c6261636b206661696c65646000830152602082019050919050565b60006156b5602b83615e31565b91507f455243313135353a20696e73756666696369656e742045544820666f7220747260008301527f616e7366657220666565730000000000000000000000000000000000000000006020830152604082019050919050565b61571781615eac565b82525050565b61572681615eac565b82525050565b60006157388284614b01565b915081905092915050565b600061574e82615476565b9150819050919050565b600060208201905061576d60008301846149f4565b92915050565b600060a08201905061578860008301886149f4565b61579560208301876149f4565b81810360408301526157a78186614a5b565b905081810360608301526157bb8185614a5b565b905081810360808301526157cf8184614ac8565b90509695505050505050565b600060a0820190506157f060008301886149f4565b6157fd60208301876149f4565b61580a604083018661571d565b615817606083018561571d565b81810360808301526158298184614ac8565b90509695505050505050565b60006040820190508181036000830152615850818688614a03565b90508181036020830152615865818486614a03565b905095945050505050565b6000602082019050818103600083015261588a8184614a5b565b905092915050565b60006020820190506158a76000830184614ab9565b92915050565b600060208201905081810360008301526158c78184614b6b565b905092915050565b600060208201905081810360008301526158e98184614b32565b905092915050565b6000602082019050818103600083015261590a81614ba4565b9050919050565b6000602082019050818103600083015261592a81614be4565b9050919050565b6000602082019050818103600083015261594a81614c24565b9050919050565b6000602082019050818103600083015261596a81614c64565b9050919050565b6000602082019050818103600083015261598a81614cca565b9050919050565b600060208201905081810360008301526159aa81614d30565b9050919050565b600060208201905081810360008301526159ca81614d96565b9050919050565b600060208201905081810360008301526159ea81614dd6565b9050919050565b60006020820190508181036000830152615a0a81614e16565b9050919050565b60006020820190508181036000830152615a2a81614e7c565b9050919050565b60006020820190508181036000830152615a4a81614ee2565b9050919050565b60006020820190508181036000830152615a6a81614f48565b9050919050565b60006020820190508181036000830152615a8a81614fae565b9050919050565b60006020820190508181036000830152615aaa81615014565b9050919050565b60006020820190508181036000830152615aca8161507a565b9050919050565b60006020820190508181036000830152615aea816150e0565b9050919050565b60006020820190508181036000830152615b0a81615146565b9050919050565b60006020820190508181036000830152615b2a81615186565b9050919050565b60006020820190508181036000830152615b4a816151c6565b9050919050565b60006020820190508181036000830152615b6a8161522c565b9050919050565b60006020820190508181036000830152615b8a81615292565b9050919050565b60006020820190508181036000830152615baa8161531e565b9050919050565b60006020820190508181036000830152615bca81615384565b9050919050565b60006020820190508181036000830152615bea816153ea565b9050919050565b60006020820190508181036000830152615c0a81615490565b9050919050565b60006020820190508181036000830152615c2a816154d0565b9050919050565b60006020820190508181036000830152615c4a81615536565b9050919050565b60006020820190508181036000830152615c6a8161559c565b9050919050565b60006020820190508181036000830152615c8a81615602565b9050919050565b60006020820190508181036000830152615caa81615668565b9050919050565b60006020820190508181036000830152615cca816156a8565b9050919050565b6000602082019050615ce6600083018461571d565b92915050565b6000604082019050615d01600083018561571d565b615d0e60208301846149f4565b9392505050565b6000604082019050615d2a600083018561571d565b615d37602083018461571d565b9392505050565b6000604051905081810181811067ffffffffffffffff82111715615d6157600080fd5b8060405250919050565b600067ffffffffffffffff821115615d8257600080fd5b602082029050602081019050919050565b600067ffffffffffffffff821115615daa57600080fd5b602082029050602081019050919050565b6000819050602082019050919050565b600081519050919050565b600081519050919050565b600081519050919050565b600081519050919050565b6000602082019050919050565b600082825260208201905092915050565b600082825260208201905092915050565b600081905092915050565b600082825260208201905092915050565b6000615e4d82615e8c565b9050919050565b60008115159050919050565b60007fffffffff0000000000000000000000000000000000000000000000000000000082169050919050565b600073ffffffffffffffffffffffffffffffffffffffff82169050919050565b6000819050919050565b82818337600083830152505050565b60005b83811015615ee3578082015181840152602081019050615ec8565b83811115615ef2576000848401525b50505050565b6000601f19601f8301169050919050565b615f1281615e42565b8114615f1d57600080fd5b50565b615f2981615e54565b8114615f3457600080fd5b50565b615f4081615e60565b8114615f4b57600080fd5b50565b615f5781615eac565b8114615f6257600080fd5b5056fe455243313135353a20696e73756666696369656e742062616c616e636520666f72207472616e73666572a365627a7a723158208719326d12da45712bdb97eb4d947bf2ce987a86525b6e130274fdd364baea7a6c6578706572696d656e74616cf564736f6c634300050c0040",
  "source": "pragma solidity ^0.5.12;\npragma experimental ABIEncoderV2;\n\nimport './lib/ERC1155/ERC1155Mintable.sol';\n\ncontract StashBlox is ERC1155Mintable {\n\n    address callbackContractAddress;\n\n    constructor(address addr) public {\n        callbackContractAddress = addr;\n        _transferOwnership(msg.sender);\n    }\n\n    function proposeCallback(uint256 id, uint256 price) external payable {\n        (bool success, ) = callbackContractAddress.delegatecall(abi.encodeWithSignature(\"proposeCallback(uint256,uint256)\", id, price));\n        require(success, \"StashBlox: proposeCallback failed\");\n    }\n\n    function refuseCallback(uint256 id, address proposer) external onlyOwner {\n        (bool success, ) = callbackContractAddress.delegatecall(abi.encodeWithSignature(\"refuseCallback(uint256,address)\", id, proposer));\n        require(success, \"StashBlox: refuseCallback failed\");\n    }\n\n    function acceptCallback(uint256 id, address proposer) external onlyOwner {\n        (bool success, ) = callbackContractAddress.delegatecall(abi.encodeWithSignature(\"acceptCallback(uint256,address)\", id, proposer));\n        require(success, \"StashBlox: acceptCallback failed\");\n    }\n}\n",
  "sourcePath": "/home/ouziel/Work/StashBloxContracts/contracts/StashBlox.sol",
  "compiler": {
    "name": "solc",
    "version": "0.5.12+commit.7709ece9.Emscripten.clang"
  },
  "schemaVersion": "3.2.3",
  "updatedAt": "2020-09-27T14:48:35.436Z",
  "devdoc": {
    "methods": {
      "balanceOf(address,uint256)": {
        "details": "Get the specified address' balance for token with specified ID. Attempting to query the zero account for a balance will result in a revert.",
        "params": {
          "account": "The address of the token holder",
          "id": "ID of the token"
        },
        "return": "The account's balance of the token type requested"
      },
      "balanceOfBatch(address[],uint256[])": {
        "details": "Get the balance of multiple account/token pairs. If any of the query accounts is the zero account, this query will revert.",
        "params": {
          "accounts": "The addresses of the token holders",
          "ids": "IDs of the tokens"
        },
        "return": "Balances for each account and token id pair"
      },
      "createToken(address,uint256,uint256,uint256,uint256,uint256,address[],uint256[])": {
        "details": "Function to mint an amount of a token with the given ID.",
        "params": {
          "feesRecipients": "list of addresses receiving transfer fees",
          "feesRecipientsPercentage": "list of percentage, each one for the corresponding feesRecipients",
          "id": "ID of the token to be minted",
          "metadataHash": "Metadata file hash",
          "minHoldingForCallback": "minimum holding to propose a callback",
          "recipient": "The address that will own the minted tokens",
          "storageCreditCost": "cost for 24h storage in storageCredit (x 10 ^ 8 for the precision)",
          "supply": "Amount of the token to be minted"
        }
      },
      "isApprovedForAll(address,address)": {
        "params": {
          "account": "The account of the Tokens",
          "operator": "Address of authorized operator"
        },
        "return": "True if the operator is approved, false if not"
      },
      "owner()": {
        "details": "Returns the address of the current owner."
      },
      "safeBatchTransferFrom(address,address,uint256[],uint256[],bytes)": {
        "details": "Transfers `values` amount(s) of `ids` from the `from` address to the `to` address specified. Caller must be approved to manage the tokens being transferred out of the `from` account. If `to` is a smart contract, will call `onERC1155BatchReceived` on `to` and act appropriately.",
        "params": {
          "data": "Data forwarded to `onERC1155Received` if `to` is a contract receiver",
          "from": "Source address",
          "ids": "IDs of each token type",
          "to": "Target address",
          "values": "Transfer amounts per token type"
        }
      },
      "safeTransferFrom(address,address,uint256,uint256,bytes)": {
        "details": "Transfers `value` amount of an `id` from the `from` address to the `to` address specified. Caller must be approved to manage the tokens being transferred out of the `from` account. If `to` is a smart contract, will call `onERC1155Received` on `to` and act appropriately.",
        "params": {
          "data": "Data forwarded to `onERC1155Received` if `to` is a contract receiver",
          "from": "Source address",
          "id": "ID of the token type",
          "to": "Target address",
          "value": "Transfer amount"
        }
      },
      "setApprovalForAll(address,bool)": {
        "details": "Sets or unsets the approval of a given operator.     * An operator is allowed to transfer all tokens of the sender on their behalf.     * Because an account already has operator privileges for itself, this function will revert if the account attempts to set the approval status for itself.",
        "params": {
          "approved": "representing the status of the approval to be set",
          "operator": "address to set the approval"
        }
      },
      "supportsInterface(bytes4)": {
        "params": {
          "_interfaceID": "The interface identifier, as specified in ERC-165"
        },
        "return": "`true` if the contract implements `_interfaceID` and"
      },
      "totalSupply(uint256)": {
        "params": {
          "id": "Token ID"
        },
        "return": "Token supply"
      },
      "transferOwnership(address)": {
        "details": "Transfers ownership of the contract to a new account (`newOwner`). Can only be called by the current owner."
      },
      "uri(uint256)": {
        "params": {
          "id": "Token ID"
        },
        "return": "URI string"
      }
    }
  },
  "userdoc": {
    "methods": {
      "isApprovedForAll(address,address)": {
        "notice": "Queries the approval status of an operator for a given account."
      },
      "supportsInterface(bytes4)": {
        "notice": "Query if a contract implements an interface"
      }
    }
  }
}