{
  "contractName": "StashBloxBase",
  "abi": [
    {
      "anonymous": false,
      "inputs": [
        {
          "indexed": true,
          "internalType": "uint256",
          "name": "_CallbackId",
          "type": "uint256"
        }
      ],
      "name": "CallbackUpdated",
      "type": "event"
    },
    {
      "anonymous": false,
      "inputs": [
        {
          "indexed": true,
          "internalType": "address",
          "name": "previousOwner",
          "type": "address"
        },
        {
          "indexed": true,
          "internalType": "address",
          "name": "newOwner",
          "type": "address"
        }
      ],
      "name": "OwnershipTransferred",
      "type": "event"
    },
    {
      "anonymous": false,
      "inputs": [
        {
          "indexed": true,
          "internalType": "uint256",
          "name": "_id",
          "type": "uint256"
        },
        {
          "indexed": false,
          "internalType": "uint256",
          "name": "_documentHash",
          "type": "uint256"
        }
      ],
      "name": "TokenUpdated",
      "type": "event"
    },
    {
      "inputs": [
        {
          "internalType": "uint256",
          "name": "",
          "type": "uint256"
        }
      ],
      "name": "_callbacks",
      "outputs": [
        {
          "internalType": "uint256",
          "name": "tokenId",
          "type": "uint256"
        },
        {
          "internalType": "uint256",
          "name": "price",
          "type": "uint256"
        },
        {
          "internalType": "uint256",
          "name": "escrowedAmount",
          "type": "uint256"
        },
        {
          "internalType": "uint256",
          "name": "callCounter",
          "type": "uint256"
        },
        {
          "internalType": "uint256",
          "name": "documentHash",
          "type": "uint256"
        },
        {
          "internalType": "address",
          "name": "caller",
          "type": "address"
        },
        {
          "internalType": "bool",
          "name": "needLegalApproval",
          "type": "bool"
        },
        {
          "internalType": "bool",
          "name": "approvedByLegal",
          "type": "bool"
        },
        {
          "internalType": "bool",
          "name": "refused",
          "type": "bool"
        },
        {
          "internalType": "bool",
          "name": "accepted",
          "type": "bool"
        },
        {
          "internalType": "bool",
          "name": "completed",
          "type": "bool"
        }
      ],
      "stateMutability": "view",
      "type": "function"
    },
    {
      "inputs": [],
      "name": "_config",
      "outputs": [
        {
          "internalType": "uint256",
          "name": "callbackAutoExecuteMaxAddresses",
          "type": "uint256"
        },
        {
          "internalType": "string",
          "name": "baseURI",
          "type": "string"
        }
      ],
      "stateMutability": "view",
      "type": "function"
    },
    {
      "inputs": [
        {
          "internalType": "uint256",
          "name": "",
          "type": "uint256"
        }
      ],
      "name": "_templates",
      "outputs": [
        {
          "internalType": "uint256",
          "name": "supply",
          "type": "uint256"
        },
        {
          "internalType": "uint256",
          "name": "decimals",
          "type": "uint256"
        },
        {
          "internalType": "uint256",
          "name": "lumpSumTransactionFees",
          "type": "uint256"
        },
        {
          "internalType": "uint256",
          "name": "valueTransactionFees",
          "type": "uint256"
        },
        {
          "internalType": "uint256",
          "name": "minHoldingForCallback",
          "type": "uint256"
        },
        {
          "internalType": "uint256",
          "name": "metadataHash",
          "type": "uint256"
        },
        {
          "internalType": "address",
          "name": "legalAuthority",
          "type": "address"
        },
        {
          "internalType": "bool",
          "name": "isPrivate",
          "type": "bool"
        },
        {
          "internalType": "bool",
          "name": "locked",
          "type": "bool"
        }
      ],
      "stateMutability": "view",
      "type": "function"
    },
    {
      "inputs": [
        {
          "internalType": "uint256",
          "name": "",
          "type": "uint256"
        }
      ],
      "name": "_tokens",
      "outputs": [
        {
          "internalType": "uint256",
          "name": "supply",
          "type": "uint256"
        },
        {
          "internalType": "uint256",
          "name": "decimals",
          "type": "uint256"
        },
        {
          "internalType": "uint256",
          "name": "lumpSumTransactionFees",
          "type": "uint256"
        },
        {
          "internalType": "uint256",
          "name": "valueTransactionFees",
          "type": "uint256"
        },
        {
          "internalType": "uint256",
          "name": "minHoldingForCallback",
          "type": "uint256"
        },
        {
          "internalType": "uint256",
          "name": "metadataHash",
          "type": "uint256"
        },
        {
          "internalType": "address",
          "name": "legalAuthority",
          "type": "address"
        },
        {
          "internalType": "bool",
          "name": "isPrivate",
          "type": "bool"
        },
        {
          "internalType": "bool",
          "name": "locked",
          "type": "bool"
        }
      ],
      "stateMutability": "view",
      "type": "function"
    },
    {
      "inputs": [
        {
          "internalType": "address",
          "name": "",
          "type": "address"
        }
      ],
      "name": "_users",
      "outputs": [
        {
          "internalType": "bool",
          "name": "isTokenizer",
          "type": "bool"
        },
        {
          "internalType": "bool",
          "name": "isLocked",
          "type": "bool"
        },
        {
          "internalType": "uint256",
          "name": "ETHBalance",
          "type": "uint256"
        }
      ],
      "stateMutability": "view",
      "type": "function"
    },
    {
      "inputs": [],
      "name": "owner",
      "outputs": [
        {
          "internalType": "address",
          "name": "",
          "type": "address"
        }
      ],
      "stateMutability": "view",
      "type": "function"
    },
    {
      "inputs": [
        {
          "internalType": "address",
          "name": "newOwner",
          "type": "address"
        }
      ],
      "name": "transferOwnership",
      "outputs": [],
      "stateMutability": "nonpayable",
      "type": "function"
    }
  ],
  "bytecode": "0x608060405234801561001057600080fd5b5061001a3361001f565b6100d9565b6001600160a01b03811661007e576040517f08c379a00000000000000000000000000000000000000000000000000000000081526004018080602001828103825260268152602001806106fb6026913960400191505060405180910390fd5b600080546040516001600160a01b03808516939216917f8be0079c531659141344cd1fd0a4f28419497f9722a3daafe3b4186f6b6457e091a3600080546001600160a01b0319166001600160a01b0392909216919091179055565b610613806100e86000396000f3fe608060405234801561001057600080fd5b506004361061007d5760003560e01c80634ed7fdcd1161005b5780634ed7fdcd146101d45780638da5cb5b14610245578063ed70554d14610269578063f2fde38b146102865761007d565b80632ed42bf7146100825780633cacd7d614610109578063414ed0ce1461014f575b600080fd5b61008a6102ae565b6040518083815260200180602001828103825283818151815260200191508051906020019080838360005b838110156100cd5781810151838201526020016100b5565b50505050905090810190601f1680156100fa5780820380516001836020036101000a031916815260200191505b50935050505060405180910390f35b61012f6004803603602081101561011f57600080fd5b50356001600160a01b0316610341565b604080519315158452911515602084015282820152519081900360600190f35b61016c6004803603602081101561016557600080fd5b5035610367565b604080519b8c5260208c019a909a528a8a019890985260608a019690965260808901949094526001600160a01b0390921660a0880152151560c0870152151560e086015215156101008501521515610120840152151561014083015251908190036101600190f35b6101f1600480360360208110156101ea57600080fd5b50356103da565b60408051998a5260208a0198909852888801969096526060880194909452608087019290925260a08601526001600160a01b031660c0850152151560e0840152151561010083015251908190036101200190f35b61024d610436565b604080516001600160a01b039092168252519081900360200190f35b6101f16004803603602081101561027f57600080fd5b5035610445565b6102ac6004803603602081101561029c57600080fd5b50356001600160a01b03166104a1565b005b6001805460028054604080516020838716156101000260001901909316849004601f810184900484028201840190925281815293949392918301828280156103375780601f1061030c57610100808354040283529160200191610337565b820191906000526020600020905b81548152906001019060200180831161031a57829003601f168201915b5050505050905082565b600d602052600090815260409020805460019091015460ff808316926101009004169083565b60106020526000908152604090208054600182015460028301546003840154600485015460059095015493949293919290916001600160a01b0381169060ff600160a01b8204811691600160a81b8104821691600160b01b8204811691600160b81b8104821691600160c01b909104168b565b600e60205260009081526040902080546001820154600283015460038401546004850154600586015460069096015494959394929391929091906001600160a01b0381169060ff600160a01b8204811691600160a81b90041689565b6000546001600160a01b031690565b600f60205260009081526040902080546001820154600283015460038401546004850154600586015460069096015494959394929391929091906001600160a01b0381169060ff600160a01b8204811691600160a81b90041689565b6104a9610506565b6104fa576040805162461bcd60e51b815260206004820181905260248201527f4f776e61626c653a2063616c6c6572206973206e6f7420746865206f776e6572604482015290519081900360640190fd5b61050381610517565b50565b6000546001600160a01b0316331490565b6001600160a01b03811661055c5760405162461bcd60e51b81526004018080602001828103825260268152602001806105b86026913960400191505060405180910390fd5b600080546040516001600160a01b03808516939216917f8be0079c531659141344cd1fd0a4f28419497f9722a3daafe3b4186f6b6457e091a3600080546001600160a01b0319166001600160a01b039290921691909117905556fe4f776e61626c653a206e6577206f776e657220697320746865207a65726f2061646472657373a2646970667358221220639527aa8ff91a917b89bb40908e80264c78676c36a57971fd102ce2d6b435af64736f6c634300070100334f776e61626c653a206e6577206f776e657220697320746865207a65726f2061646472657373",
  "immutableReferences": {},
  "source": "// SPDX-License-Identifier: GPL-3.0-or-later\n\npragma solidity ^0.7.1;\n\nimport \"./lib/utils/SafeMath.sol\";\nimport \"./lib/ERC173/ERC173.sol\";\n\ncontract OwnableDelegateProxy { }\n\ncontract ProxyRegistry {\n  mapping(address => OwnableDelegateProxy) public proxies;\n}\n\ncontract StashBloxBase is ERC173 {\n\n    using SafeMath for uint256;\n\n    /***************************************\n    TYPES\n    ****************************************/\n\n\n    struct User {\n        bool isTokenizer;\n        bool isLocked;\n        uint256 ETHBalance;\n        uint256[] tokens;\n    }\n\n    struct Holder {\n        uint256 balance;\n        uint256 birthday;\n        bool isMaintener;\n        bool isHolder; // never come back to false\n        bool isApproved; // for private tokens\n    }\n\n    struct Token {\n        uint256 supply;\n        uint256 decimals;\n        uint256 lumpSumTransactionFees;\n        uint256 valueTransactionFees;\n        uint256 minHoldingForCallback;\n        uint256 metadataHash;\n        address legalAuthority;\n        bool isPrivate;\n        bool locked;\n        mapping(address => Holder) holders;\n        address[] holderList; // Can contains zero balance\n        address[] feesRecipients;\n        uint256[] feesRecipientsPercentage;\n        uint256[2][] storageCostHistory; //list of tuple [timestamp, price]\n    }\n\n    struct Callback {\n        uint256 tokenId;\n        uint256 price;\n        uint256 escrowedAmount;\n        uint256 callCounter;\n        uint256 documentHash;\n        address caller;\n        bool needLegalApproval;\n        bool approvedByLegal;\n        bool refused;\n        bool accepted;\n        bool completed;\n        address[] callees;\n    }\n\n    struct Config {\n        uint256 callbackAutoExecuteMaxAddresses;\n        string baseURI;\n        address[10] proxyRegistryAddresses;\n    }\n\n\n    /***************************************\n    GLOBAL VARIABLES\n    ****************************************/\n\n    Config public  _config;\n    mapping (address => User) public  _users;\n    mapping (uint256 => Token) public _templates;\n    mapping (uint256 => Token) public _tokens;\n    mapping (uint256 => Callback) public _callbacks;\n\n\n    /***************************************\n    EVENTS\n    ****************************************/\n\n\n    event CallbackUpdated(uint256 indexed _CallbackId);\n    event TokenUpdated(uint256 indexed _id, uint256 _documentHash);\n\n\n    /***************************************\n    PERMISSIONS\n    ****************************************/\n\n    function _isTokenizer(address tokenizer) internal view returns (bool) {\n        return _users[tokenizer].isTokenizer || _isOwner();\n    }\n\n    modifier onlyTokenizer() {\n        require(_isTokenizer(msg.sender), \"Insufficient permission\");\n        _;\n    }\n\n    function _isMaintener(uint256 id, address maintener) internal view returns (bool) {\n        return _tokens[id].holders[maintener].isMaintener || _isOwner();\n    }\n\n    modifier onlyMaintener(uint256 id) {\n        require(_isMaintener(id, msg.sender), \"Insufficient permission\");\n        _;\n    }\n\n    function _isLegalAuthority(uint256 id, address legalAuthority) internal view returns (bool) {\n        return _tokens[id].legalAuthority == legalAuthority;\n    }\n\n\n    /***************************************\n    LOCKS FUNCTIONS\n    ****************************************/\n\n\n    function _lockToken(uint256 id, uint256 documentHash) internal {\n        _tokens[id].locked = true;\n        emit TokenUpdated(id, documentHash);\n    }\n\n    function _unlockToken(uint256 id, uint256 documentHash) internal {\n        _tokens[id].locked = false;\n        emit TokenUpdated(id, documentHash);\n    }\n\n    function _isLockedToken(uint256 id) internal view returns (bool) {\n        return _tokens[id].locked;\n    }\n\n    function _isLockedAddress(address addr) internal view returns (bool) {\n        return _users[addr].isLocked;\n    }\n\n    function _isLockedMove(address from, address to, uint256 id, uint256 value) internal view returns (bool) {\n        return _isLockedToken(id) || _isLockedAddress(from) || _isLockedAddress(to) || (value == 0);\n    }\n\n\n    /***************************************\n    TOKENS TRANSFER FUNCTIONS\n    ****************************************/\n\n\n    // update balance, lists of holders and token average age of the recipient\n    function _addToBalance(address recipient, uint256 id, uint256 value) internal {\n        require(!_tokens[id].isPrivate || _tokens[id].holders[recipient].isApproved, \"Address not approved\");\n\n        uint256 newBalance = _tokens[id].holders[recipient].balance.add(value);\n\n        if (_tokens[id].holders[recipient].balance == 0) {\n\n            if (!_tokens[id].holders[recipient].isHolder) {\n                _users[recipient].tokens.push(id);\n                _tokens[id].holderList.push(recipient);\n                _tokens[id].holders[recipient].isHolder;\n            }\n\n            _tokens[id].holders[recipient].birthday = block.timestamp;\n\n        } else {\n\n            // calculate the average birthday of the received and hold tokens\n            uint256 oldTokensAge = block.timestamp.sub(_tokens[id].holders[recipient].birthday);\n            uint256 newTokenAge = (_tokens[id].holders[recipient].balance.mul(oldTokensAge)).div(newBalance);\n\n            _tokens[id].holders[recipient].birthday = block.timestamp - newTokenAge;\n        }\n\n        _tokens[id].holders[recipient].balance = newBalance;\n    }\n\n    // Calculate transaction fees\n    function _transactionFees(address account, uint256 id, uint256 value) internal view returns (uint256) {\n        uint256 totalCost = 0;\n        uint256 timeCursor = block.timestamp;\n\n        for (uint i = _tokens[id].storageCostHistory.length - 1; i >= 0; i--) {\n\n            uint256 costStartAt = _tokens[id].storageCostHistory[i][0];\n            uint256 cost = _tokens[id].storageCostHistory[i][1];\n            uint256 storageDays;\n\n            if (_tokens[id].holders[account].birthday >= costStartAt) {\n                storageDays = (timeCursor.sub(_tokens[id].holders[account].birthday)).div(86400);\n                if (storageDays == 0) storageDays = 1;\n                totalCost += (storageDays.mul(cost)).mul(value);\n                break;\n            } else {\n                storageDays = (timeCursor.sub(costStartAt)).div(86400);\n                if (storageDays == 0) storageDays = 1;\n                timeCursor = costStartAt;\n                totalCost += (storageDays.mul(cost)).mul(value);\n            }\n        }\n\n        // TODO!\n        totalCost = totalCost.div(10**_tokens[id].decimals); // storage cost are for one full token\n\n        uint256 valueFees = (value.mul(_tokens[id].valueTransactionFees)).div(10**8);\n\n        return totalCost.add(_tokens[id].lumpSumTransactionFees.add(valueFees));\n    }\n\n    // Used by ERC1155.sol in safeTransferFrom and safeTransferFromBatch functions\n    function _moveTokens(address from, address to, uint256 id, uint256 value, uint256 feesBalance) internal returns (uint256 fees) {\n        require(!_isLockedMove(from, to, id, value), \"Locked\");\n\n        fees = _transactionFees(from, id, value);\n        require(feesBalance >= fees, \"Insufficient ETH for fees\");\n\n        _tokens[id].holders[from].balance = _tokens[id].holders[from].balance.sub(value, \"Insufficient balance\");\n\n        _addToBalance(to, id, value);\n\n        for (uint256 i = 0; i < _tokens[id].feesRecipients.length; ++i) {\n            address feesRecipient = _tokens[id].feesRecipients[i];\n            uint256 feesRecipientsPercentage = _tokens[id].feesRecipientsPercentage[i];\n            _users[feesRecipient].ETHBalance += (fees.mul(feesRecipientsPercentage)).div(10000);\n        }\n\n        return fees;\n    }\n\n\n    /***************************************\n    TOKENS CREATION AND MAINTENANCE FUNCTIONS\n    ****************************************/\n\n\n    function _createToken(address recipient,\n                          uint256 id,\n                          uint256 supply,\n                          uint256 decimals,\n                          uint256 metadataHash,\n                          uint256[3] memory transactionFees,\n                          address[] memory feesRecipients,\n                          uint256[] memory feesRecipientsPercentage,\n                          uint256 minHoldingForCallback,\n                          bool isPrivate)\n    internal {\n        require(_tokens[id].supply == 0 && supply > 0, \"Invalid arguments\");\n\n        _tokens[id].supply = supply;\n        _tokens[id].decimals = decimals;\n        _tokens[id].holders[msg.sender].isMaintener = true;\n        _tokens[id].holders[recipient].isApproved = true;\n\n        _updateToken(id,\n                     metadataHash,\n                     transactionFees,\n                     feesRecipients,\n                     feesRecipientsPercentage,\n                     minHoldingForCallback,\n                     isPrivate);\n\n        _addToBalance(recipient, id, supply);\n    }\n\n    function _updateToken(uint256 id,\n                          uint256 metadataHash,\n                          uint256[3] memory transactionFees,\n                          address[] memory feesRecipients,\n                          uint256[] memory feesRecipientsPercentage,\n                          uint256 minHoldingForCallback,\n                          bool isPrivate)\n    internal {\n        uint256 totalPercentage = 0;\n        for (uint256 i = 0; i < feesRecipientsPercentage.length; ++i)\n            totalPercentage += feesRecipientsPercentage[i];\n\n        require(feesRecipients.length > 0 && feesRecipients.length == feesRecipients.length &&\n                totalPercentage == 10000 &&\n                minHoldingForCallback < 10000,\n                \"Invalid arguments\");\n\n        _tokens[id].metadataHash = metadataHash;\n        _tokens[id].lumpSumTransactionFees = transactionFees[0];\n        _tokens[id].valueTransactionFees = transactionFees[1];\n        _tokens[id].storageCostHistory.push([block.timestamp, transactionFees[2]]);\n        _tokens[id].feesRecipients = feesRecipients;\n        _tokens[id].feesRecipientsPercentage = feesRecipientsPercentage;\n        _tokens[id].minHoldingForCallback = minHoldingForCallback;\n        _tokens[id].isPrivate = isPrivate;\n    }\n\n\n    function _isWhitelistedOperator(address account, address operator) internal view returns (bool) {\n        for (uint256 i = 0; i < _config.proxyRegistryAddresses.length; ++i) {\n            if (_config.proxyRegistryAddresses[i] != address(0)) {\n                ProxyRegistry proxyRegistry = ProxyRegistry(_config.proxyRegistryAddresses[i]);\n                if (address(proxyRegistry.proxies(account)) == operator) {\n                    return true;\n                }\n            }\n        }\n        return false;\n    }\n\n    function _callbackPrice(uint256 tokenId, uint256 price, address[] memory callees) internal view returns (uint256) {\n        uint256 callbackAmount = 0;\n        if (callees.length == 0) {\n            callbackAmount = _tokens[tokenId].supply.sub(_tokens[tokenId].holders[msg.sender].balance);\n        } else {\n            for (uint i; i < callees.length; i++) {\n                callbackAmount += _tokens[tokenId].holders[callees[i]].balance;\n            }\n        }\n        return callbackAmount.mul(price);\n    }\n\n}\n",
  "sourcePath": "/home/ouziel/Work/StashBloxContracts/contracts/StashBloxBase.sol",
  "compiler": {
    "name": "solc",
    "version": "0.7.1+commit.f4a555be.Emscripten.clang"
  },
  "schemaVersion": "3.2.3",
  "updatedAt": "2020-10-19T23:14:00.263Z",
  "devdoc": {
    "kind": "dev",
    "methods": {
      "owner()": {
        "details": "Returns the address of the current owner."
      },
      "transferOwnership(address)": {
        "details": "Transfers ownership of the contract to a new account (`newOwner`). Can only be called by the current owner."
      }
    },
    "version": 1
  },
  "userdoc": {
    "kind": "user",
    "methods": {},
    "version": 1
  }
}