{
  "contractName": "StashBlox",
  "abi": [
    {
      "inputs": [],
      "stateMutability": "nonpayable",
      "type": "constructor"
    },
    {
      "anonymous": false,
      "inputs": [
        {
          "indexed": true,
          "internalType": "address",
          "name": "_owner",
          "type": "address"
        },
        {
          "indexed": true,
          "internalType": "address",
          "name": "_operator",
          "type": "address"
        },
        {
          "indexed": false,
          "internalType": "bool",
          "name": "_approved",
          "type": "bool"
        }
      ],
      "name": "ApprovalForAll",
      "type": "event"
    },
    {
      "anonymous": false,
      "inputs": [
        {
          "indexed": true,
          "internalType": "uint256",
          "name": "_CallbackId",
          "type": "uint256"
        }
      ],
      "name": "CallbackUpdated",
      "type": "event"
    },
    {
      "anonymous": false,
      "inputs": [
        {
          "indexed": true,
          "internalType": "address",
          "name": "previousOwner",
          "type": "address"
        },
        {
          "indexed": true,
          "internalType": "address",
          "name": "newOwner",
          "type": "address"
        }
      ],
      "name": "OwnershipTransferred",
      "type": "event"
    },
    {
      "anonymous": false,
      "inputs": [
        {
          "indexed": true,
          "internalType": "uint256",
          "name": "_id",
          "type": "uint256"
        },
        {
          "indexed": false,
          "internalType": "uint256",
          "name": "_documentHash",
          "type": "uint256"
        }
      ],
      "name": "TokenUpdated",
      "type": "event"
    },
    {
      "anonymous": false,
      "inputs": [
        {
          "indexed": true,
          "internalType": "address",
          "name": "_operator",
          "type": "address"
        },
        {
          "indexed": true,
          "internalType": "address",
          "name": "_from",
          "type": "address"
        },
        {
          "indexed": true,
          "internalType": "address",
          "name": "_to",
          "type": "address"
        },
        {
          "indexed": false,
          "internalType": "uint256[]",
          "name": "_ids",
          "type": "uint256[]"
        },
        {
          "indexed": false,
          "internalType": "uint256[]",
          "name": "_values",
          "type": "uint256[]"
        }
      ],
      "name": "TransferBatch",
      "type": "event"
    },
    {
      "anonymous": false,
      "inputs": [
        {
          "indexed": true,
          "internalType": "address",
          "name": "_operator",
          "type": "address"
        },
        {
          "indexed": true,
          "internalType": "address",
          "name": "_from",
          "type": "address"
        },
        {
          "indexed": true,
          "internalType": "address",
          "name": "_to",
          "type": "address"
        },
        {
          "indexed": false,
          "internalType": "uint256",
          "name": "_id",
          "type": "uint256"
        },
        {
          "indexed": false,
          "internalType": "uint256",
          "name": "_value",
          "type": "uint256"
        }
      ],
      "name": "TransferSingle",
      "type": "event"
    },
    {
      "anonymous": false,
      "inputs": [
        {
          "indexed": false,
          "internalType": "string",
          "name": "_value",
          "type": "string"
        },
        {
          "indexed": true,
          "internalType": "uint256",
          "name": "_id",
          "type": "uint256"
        }
      ],
      "name": "URI",
      "type": "event"
    },
    {
      "inputs": [
        {
          "internalType": "uint256",
          "name": "",
          "type": "uint256"
        }
      ],
      "name": "_callbacks",
      "outputs": [
        {
          "internalType": "uint256",
          "name": "tokenId",
          "type": "uint256"
        },
        {
          "internalType": "uint256",
          "name": "price",
          "type": "uint256"
        },
        {
          "internalType": "uint256",
          "name": "escrowedAmount",
          "type": "uint256"
        },
        {
          "internalType": "uint256",
          "name": "callCounter",
          "type": "uint256"
        },
        {
          "internalType": "uint256",
          "name": "documentHash",
          "type": "uint256"
        },
        {
          "internalType": "address",
          "name": "caller",
          "type": "address"
        },
        {
          "internalType": "bool",
          "name": "needLegalApproval",
          "type": "bool"
        },
        {
          "internalType": "bool",
          "name": "approvedByLegal",
          "type": "bool"
        },
        {
          "internalType": "bool",
          "name": "refused",
          "type": "bool"
        },
        {
          "internalType": "bool",
          "name": "accepted",
          "type": "bool"
        },
        {
          "internalType": "bool",
          "name": "completed",
          "type": "bool"
        }
      ],
      "stateMutability": "view",
      "type": "function"
    },
    {
      "inputs": [],
      "name": "_config",
      "outputs": [
        {
          "internalType": "uint256",
          "name": "callbackAutoExecuteMaxAddresses",
          "type": "uint256"
        },
        {
          "internalType": "string",
          "name": "baseURI",
          "type": "string"
        }
      ],
      "stateMutability": "view",
      "type": "function"
    },
    {
      "inputs": [
        {
          "internalType": "uint256",
          "name": "",
          "type": "uint256"
        }
      ],
      "name": "_tokens",
      "outputs": [
        {
          "internalType": "uint256",
          "name": "supply",
          "type": "uint256"
        },
        {
          "internalType": "uint256",
          "name": "decimals",
          "type": "uint256"
        },
        {
          "internalType": "uint256",
          "name": "lumpSumTransactionFees",
          "type": "uint256"
        },
        {
          "internalType": "uint256",
          "name": "valueTransactionFees",
          "type": "uint256"
        },
        {
          "internalType": "uint256",
          "name": "minHoldingForCallback",
          "type": "uint256"
        },
        {
          "internalType": "uint256",
          "name": "metadataHash",
          "type": "uint256"
        },
        {
          "internalType": "address",
          "name": "legalAuthority",
          "type": "address"
        },
        {
          "internalType": "bool",
          "name": "isPrivate",
          "type": "bool"
        },
        {
          "internalType": "bool",
          "name": "locked",
          "type": "bool"
        }
      ],
      "stateMutability": "view",
      "type": "function"
    },
    {
      "inputs": [
        {
          "internalType": "address",
          "name": "",
          "type": "address"
        }
      ],
      "name": "_users",
      "outputs": [
        {
          "internalType": "bool",
          "name": "isTokenizer",
          "type": "bool"
        },
        {
          "internalType": "bool",
          "name": "isLocked",
          "type": "bool"
        },
        {
          "internalType": "uint256",
          "name": "ETHBalance",
          "type": "uint256"
        }
      ],
      "stateMutability": "view",
      "type": "function"
    },
    {
      "inputs": [
        {
          "internalType": "address",
          "name": "account",
          "type": "address"
        },
        {
          "internalType": "uint256",
          "name": "id",
          "type": "uint256"
        }
      ],
      "name": "balanceOf",
      "outputs": [
        {
          "internalType": "uint256",
          "name": "",
          "type": "uint256"
        }
      ],
      "stateMutability": "view",
      "type": "function"
    },
    {
      "inputs": [
        {
          "internalType": "address[]",
          "name": "accounts",
          "type": "address[]"
        },
        {
          "internalType": "uint256[]",
          "name": "ids",
          "type": "uint256[]"
        }
      ],
      "name": "balanceOfBatch",
      "outputs": [
        {
          "internalType": "uint256[]",
          "name": "",
          "type": "uint256[]"
        }
      ],
      "stateMutability": "view",
      "type": "function"
    },
    {
      "inputs": [
        {
          "internalType": "address",
          "name": "account",
          "type": "address"
        },
        {
          "internalType": "address",
          "name": "operator",
          "type": "address"
        }
      ],
      "name": "isApprovedForAll",
      "outputs": [
        {
          "internalType": "bool",
          "name": "",
          "type": "bool"
        }
      ],
      "stateMutability": "view",
      "type": "function"
    },
    {
      "inputs": [],
      "name": "owner",
      "outputs": [
        {
          "internalType": "address",
          "name": "",
          "type": "address"
        }
      ],
      "stateMutability": "view",
      "type": "function"
    },
    {
      "inputs": [
        {
          "internalType": "address",
          "name": "from",
          "type": "address"
        },
        {
          "internalType": "address",
          "name": "to",
          "type": "address"
        },
        {
          "internalType": "uint256[]",
          "name": "ids",
          "type": "uint256[]"
        },
        {
          "internalType": "uint256[]",
          "name": "values",
          "type": "uint256[]"
        },
        {
          "internalType": "bytes",
          "name": "data",
          "type": "bytes"
        }
      ],
      "name": "safeBatchTransferFrom",
      "outputs": [],
      "stateMutability": "payable",
      "type": "function"
    },
    {
      "inputs": [
        {
          "internalType": "address",
          "name": "from",
          "type": "address"
        },
        {
          "internalType": "address",
          "name": "to",
          "type": "address"
        },
        {
          "internalType": "uint256",
          "name": "id",
          "type": "uint256"
        },
        {
          "internalType": "uint256",
          "name": "value",
          "type": "uint256"
        },
        {
          "internalType": "bytes",
          "name": "data",
          "type": "bytes"
        }
      ],
      "name": "safeTransferFrom",
      "outputs": [],
      "stateMutability": "payable",
      "type": "function"
    },
    {
      "inputs": [
        {
          "internalType": "address",
          "name": "operator",
          "type": "address"
        },
        {
          "internalType": "bool",
          "name": "approved",
          "type": "bool"
        }
      ],
      "name": "setApprovalForAll",
      "outputs": [],
      "stateMutability": "nonpayable",
      "type": "function"
    },
    {
      "inputs": [
        {
          "internalType": "bytes4",
          "name": "_interfaceID",
          "type": "bytes4"
        }
      ],
      "name": "supportsInterface",
      "outputs": [
        {
          "internalType": "bool",
          "name": "",
          "type": "bool"
        }
      ],
      "stateMutability": "pure",
      "type": "function"
    },
    {
      "inputs": [
        {
          "internalType": "address",
          "name": "newOwner",
          "type": "address"
        }
      ],
      "name": "transferOwnership",
      "outputs": [],
      "stateMutability": "nonpayable",
      "type": "function"
    },
    {
      "stateMutability": "payable",
      "type": "receive"
    },
    {
      "inputs": [
        {
          "internalType": "address",
          "name": "tokenizer",
          "type": "address"
        }
      ],
      "name": "authorizeTokenizer",
      "outputs": [],
      "stateMutability": "nonpayable",
      "type": "function"
    },
    {
      "inputs": [
        {
          "internalType": "address",
          "name": "tokenizer",
          "type": "address"
        }
      ],
      "name": "revokeTokenizer",
      "outputs": [],
      "stateMutability": "nonpayable",
      "type": "function"
    },
    {
      "inputs": [
        {
          "internalType": "address",
          "name": "tokenizer",
          "type": "address"
        }
      ],
      "name": "isTokenizer",
      "outputs": [
        {
          "internalType": "bool",
          "name": "",
          "type": "bool"
        }
      ],
      "stateMutability": "view",
      "type": "function"
    },
    {
      "inputs": [
        {
          "internalType": "uint256",
          "name": "id",
          "type": "uint256"
        },
        {
          "internalType": "address",
          "name": "maintener",
          "type": "address"
        }
      ],
      "name": "authorizeMaintener",
      "outputs": [],
      "stateMutability": "nonpayable",
      "type": "function"
    },
    {
      "inputs": [
        {
          "internalType": "uint256",
          "name": "id",
          "type": "uint256"
        },
        {
          "internalType": "address",
          "name": "maintener",
          "type": "address"
        }
      ],
      "name": "revokeMaintener",
      "outputs": [],
      "stateMutability": "nonpayable",
      "type": "function"
    },
    {
      "inputs": [
        {
          "internalType": "uint256",
          "name": "id",
          "type": "uint256"
        },
        {
          "internalType": "address",
          "name": "maintener",
          "type": "address"
        }
      ],
      "name": "isMaintener",
      "outputs": [
        {
          "internalType": "bool",
          "name": "",
          "type": "bool"
        }
      ],
      "stateMutability": "view",
      "type": "function"
    },
    {
      "inputs": [
        {
          "internalType": "uint256",
          "name": "id",
          "type": "uint256"
        },
        {
          "internalType": "address",
          "name": "holder",
          "type": "address"
        }
      ],
      "name": "approveHolder",
      "outputs": [],
      "stateMutability": "nonpayable",
      "type": "function"
    },
    {
      "inputs": [
        {
          "internalType": "uint256",
          "name": "id",
          "type": "uint256"
        },
        {
          "internalType": "address",
          "name": "holder",
          "type": "address"
        }
      ],
      "name": "revokeHolder",
      "outputs": [],
      "stateMutability": "nonpayable",
      "type": "function"
    },
    {
      "inputs": [
        {
          "internalType": "uint256",
          "name": "id",
          "type": "uint256"
        },
        {
          "internalType": "uint256",
          "name": "documentHash",
          "type": "uint256"
        }
      ],
      "name": "lockToken",
      "outputs": [],
      "stateMutability": "nonpayable",
      "type": "function"
    },
    {
      "inputs": [
        {
          "internalType": "uint256",
          "name": "id",
          "type": "uint256"
        },
        {
          "internalType": "uint256",
          "name": "documentHash",
          "type": "uint256"
        }
      ],
      "name": "unlockToken",
      "outputs": [],
      "stateMutability": "nonpayable",
      "type": "function"
    },
    {
      "inputs": [
        {
          "internalType": "uint256",
          "name": "id",
          "type": "uint256"
        }
      ],
      "name": "isLockedToken",
      "outputs": [
        {
          "internalType": "bool",
          "name": "",
          "type": "bool"
        }
      ],
      "stateMutability": "view",
      "type": "function"
    },
    {
      "inputs": [
        {
          "internalType": "address",
          "name": "addr",
          "type": "address"
        }
      ],
      "name": "lockAddress",
      "outputs": [],
      "stateMutability": "nonpayable",
      "type": "function"
    },
    {
      "inputs": [
        {
          "internalType": "address",
          "name": "addr",
          "type": "address"
        }
      ],
      "name": "unlockAddress",
      "outputs": [],
      "stateMutability": "nonpayable",
      "type": "function"
    },
    {
      "inputs": [
        {
          "internalType": "address",
          "name": "addr",
          "type": "address"
        }
      ],
      "name": "isLockedAddress",
      "outputs": [
        {
          "internalType": "bool",
          "name": "",
          "type": "bool"
        }
      ],
      "stateMutability": "view",
      "type": "function"
    },
    {
      "inputs": [
        {
          "internalType": "address",
          "name": "recipient",
          "type": "address"
        },
        {
          "internalType": "uint256",
          "name": "id",
          "type": "uint256"
        },
        {
          "internalType": "uint256",
          "name": "supply",
          "type": "uint256"
        },
        {
          "internalType": "uint256",
          "name": "decimals",
          "type": "uint256"
        },
        {
          "internalType": "uint256",
          "name": "metadataHash",
          "type": "uint256"
        },
        {
          "internalType": "uint256[3]",
          "name": "transactionFees",
          "type": "uint256[3]"
        },
        {
          "internalType": "address[]",
          "name": "feesRecipients",
          "type": "address[]"
        },
        {
          "internalType": "uint256[]",
          "name": "feesRecipientsPercentage",
          "type": "uint256[]"
        },
        {
          "internalType": "uint256",
          "name": "minHoldingForCallback",
          "type": "uint256"
        },
        {
          "internalType": "bool",
          "name": "isPrivate",
          "type": "bool"
        },
        {
          "internalType": "address",
          "name": "legalAuthority",
          "type": "address"
        }
      ],
      "name": "createToken",
      "outputs": [],
      "stateMutability": "nonpayable",
      "type": "function"
    },
    {
      "inputs": [
        {
          "internalType": "uint256",
          "name": "id",
          "type": "uint256"
        },
        {
          "internalType": "uint256[]",
          "name": "ids",
          "type": "uint256[]"
        },
        {
          "internalType": "uint256[]",
          "name": "metadataHashes",
          "type": "uint256[]"
        }
      ],
      "name": "cloneToken",
      "outputs": [],
      "stateMutability": "nonpayable",
      "type": "function"
    },
    {
      "inputs": [
        {
          "internalType": "uint256",
          "name": "id",
          "type": "uint256"
        },
        {
          "internalType": "uint256",
          "name": "metadataHash",
          "type": "uint256"
        },
        {
          "internalType": "uint256[3]",
          "name": "transactionFees",
          "type": "uint256[3]"
        },
        {
          "internalType": "address[]",
          "name": "feesRecipients",
          "type": "address[]"
        },
        {
          "internalType": "uint256[]",
          "name": "feesRecipientsPercentage",
          "type": "uint256[]"
        },
        {
          "internalType": "uint256",
          "name": "minHoldingForCallback",
          "type": "uint256"
        },
        {
          "internalType": "bool",
          "name": "isPrivate",
          "type": "bool"
        },
        {
          "internalType": "address",
          "name": "legalAuthority",
          "type": "address"
        }
      ],
      "name": "updateToken",
      "outputs": [],
      "stateMutability": "nonpayable",
      "type": "function"
    },
    {
      "inputs": [
        {
          "internalType": "address",
          "name": "account",
          "type": "address"
        },
        {
          "internalType": "uint256",
          "name": "id",
          "type": "uint256"
        },
        {
          "internalType": "uint256",
          "name": "value",
          "type": "uint256"
        }
      ],
      "name": "transactionFees",
      "outputs": [
        {
          "internalType": "uint256",
          "name": "",
          "type": "uint256"
        }
      ],
      "stateMutability": "view",
      "type": "function"
    },
    {
      "inputs": [
        {
          "internalType": "uint256",
          "name": "newMax",
          "type": "uint256"
        }
      ],
      "name": "setCallbackAutoExecuteMaxAddresses",
      "outputs": [],
      "stateMutability": "nonpayable",
      "type": "function"
    },
    {
      "inputs": [
        {
          "internalType": "uint256",
          "name": "callbackId",
          "type": "uint256"
        },
        {
          "internalType": "uint256",
          "name": "tokenId",
          "type": "uint256"
        },
        {
          "internalType": "uint256",
          "name": "price",
          "type": "uint256"
        },
        {
          "internalType": "address[]",
          "name": "callees",
          "type": "address[]"
        },
        {
          "internalType": "uint256",
          "name": "documentHash",
          "type": "uint256"
        }
      ],
      "name": "proposeCallback",
      "outputs": [],
      "stateMutability": "payable",
      "type": "function"
    },
    {
      "inputs": [
        {
          "internalType": "uint256",
          "name": "callbackId",
          "type": "uint256"
        }
      ],
      "name": "refuseCallback",
      "outputs": [],
      "stateMutability": "nonpayable",
      "type": "function"
    },
    {
      "inputs": [
        {
          "internalType": "uint256",
          "name": "callbackId",
          "type": "uint256"
        }
      ],
      "name": "approveCallback",
      "outputs": [],
      "stateMutability": "nonpayable",
      "type": "function"
    },
    {
      "inputs": [
        {
          "internalType": "uint256",
          "name": "callbackId",
          "type": "uint256"
        }
      ],
      "name": "acceptCallback",
      "outputs": [],
      "stateMutability": "nonpayable",
      "type": "function"
    },
    {
      "inputs": [
        {
          "internalType": "uint256",
          "name": "callbackId",
          "type": "uint256"
        },
        {
          "internalType": "uint256",
          "name": "maxCall",
          "type": "uint256"
        }
      ],
      "name": "executeCallback",
      "outputs": [],
      "stateMutability": "nonpayable",
      "type": "function"
    },
    {
      "inputs": [
        {
          "internalType": "address",
          "name": "to",
          "type": "address"
        },
        {
          "internalType": "uint256",
          "name": "amount",
          "type": "uint256"
        }
      ],
      "name": "withdraw",
      "outputs": [],
      "stateMutability": "nonpayable",
      "type": "function"
    },
    {
      "inputs": [
        {
          "internalType": "address",
          "name": "to",
          "type": "address"
        }
      ],
      "name": "deposit",
      "outputs": [],
      "stateMutability": "payable",
      "type": "function"
    },
    {
      "inputs": [
        {
          "internalType": "uint256",
          "name": "id",
          "type": "uint256"
        }
      ],
      "name": "uri",
      "outputs": [
        {
          "internalType": "string",
          "name": "",
          "type": "string"
        }
      ],
      "stateMutability": "view",
      "type": "function"
    },
    {
      "inputs": [
        {
          "internalType": "address[10]",
          "name": "proxyAddresses",
          "type": "address[10]"
        }
      ],
      "name": "setProxyRegistryAddress",
      "outputs": [],
      "stateMutability": "nonpayable",
      "type": "function"
    }
  ],
  "bytecode": "0x60806040523480156200001157600080fd5b506200001d336200007a565b603260015560408051808201909152601c8082527f687474703a2f2f7374617368626c6f782e636f6d2f746f6b656e732f000000006020909201918252620000689160029162000136565b5062000074336200007a565b620001d2565b6001600160a01b038116620000db576040517f08c379a0000000000000000000000000000000000000000000000000000000008152600401808060200182810382526026815260200180620053e66026913960400191505060405180910390fd5b600080546040516001600160a01b03808516939216917f8be0079c531659141344cd1fd0a4f28419497f9722a3daafe3b4186f6b6457e091a3600080546001600160a01b0319166001600160a01b0392909216919091179055565b828054600181600116156101000203166002900490600052602060002090601f016020900481019282601f106200017957805160ff1916838001178555620001a9565b82800160010185558215620001a9579182015b82811115620001a95782518255916020019190600101906200018c565b50620001b7929150620001bb565b5090565b5b80821115620001b75760008155600101620001bc565b61520480620001e26000396000f3fe6080604052600436106102495760003560e01c80638f96f13111610139578063d1660e18116100b6578063f242432a1161007a578063f242432a146110dc578063f2fde38b1461116f578063f340fa01146111a2578063f3fef3a3146111c8578063f8a5a07c14611201578063fc3fcec71461133857610268565b8063d1660e1814610ef5578063d41d0aa314610f34578063d842b67314610f6d578063e985e9c514611023578063ed70554d1461105e57610268565b8063bba75c83116100fd578063bba75c8314610c9e578063c02f303c14610cc8578063c255620a14610cfb578063c40b87ae14610d25578063cba54e6014610ec257610268565b80638f96f13114610ba6578063a22cb46514610bd0578063aba7fe8a14610c0b578063b7eb5e0a14610c3b578063baa3411014610c6e57610268565b80634392e577116101c7578063759c52141161018b578063759c521414610a9d5780637627b73214610ad65780638870147b14610b095780638aeba37e14610b3c5780638da5cb5b14610b7557610268565b80634392e577146106c85780634ab0d253146107295780634e1273f4146108ab5780635dafec1b14610a2b5780635dd2b9a614610a6457610268565b806331d5f78c1161020e57806331d5f78c1461055c57806334a90d0214610586578063369c37e9146105b95780633cacd7d6146105e3578063414ed0ce1461063657610268565b8062fdd58e1461026d57806301ffc9a7146102b85780630e89341c146103005780632eb2c2d61461039f5780632ed42bf7146104c857610268565b3661026857336000908152600d60205260409020600101805434019055005b600080fd5b34801561027957600080fd5b506102a66004803603604081101561029057600080fd5b506001600160a01b038135169060200135611368565b60408051918252519081900360200190f35b3480156102c457600080fd5b506102ec600480360360208110156102db57600080fd5b50356001600160e01b0319166113dd565b604080519115158252519081900360200190f35b34801561030c57600080fd5b5061032a6004803603602081101561032357600080fd5b5035611424565b6040805160208082528351818301528351919283929083019185019080838360005b8381101561036457818101518382015260200161034c565b50505050905090810190601f1680156103915780820380516001836020036101000a031916815260200191505b509250505060405180910390f35b6104c6600480360360a08110156103b557600080fd5b6001600160a01b038235811692602081013590911691810190606081016040820135600160201b8111156103e857600080fd5b8201836020820111156103fa57600080fd5b803590602001918460208302840111600160201b8311171561041b57600080fd5b919390929091602081019035600160201b81111561043857600080fd5b82018360208201111561044a57600080fd5b803590602001918460208302840111600160201b8311171561046b57600080fd5b919390929091602081019035600160201b81111561048857600080fd5b82018360208201111561049a57600080fd5b803590602001918460018302840111600160201b831117156104bb57600080fd5b5090925090506114c3565b005b3480156104d457600080fd5b506104dd611849565b6040518083815260200180602001828103825283818151815260200191508051906020019080838360005b83811015610520578181015183820152602001610508565b50505050905090810190601f16801561054d5780820380516001836020036101000a031916815260200191505b50935050505060405180910390f35b34801561056857600080fd5b506104c66004803603602081101561057f57600080fd5b50356118dc565b34801561059257600080fd5b506104c6600480360360208110156105a957600080fd5b50356001600160a01b0316611aba565b3480156105c557600080fd5b506104c6600480360360208110156105dc57600080fd5b5035611b27565b3480156105ef57600080fd5b506106166004803603602081101561060657600080fd5b50356001600160a01b0316611b73565b604080519315158452911515602084015282820152519081900360600190f35b34801561064257600080fd5b506106606004803603602081101561065957600080fd5b5035611b99565b604080519b8c5260208c019a909a528a8a019890985260608a019690965260808901949094526001600160a01b0390921660a0880152151560c0870152151560e086015215156101008501521515610120840152151561014083015251908190036101600190f35b3480156106d457600080fd5b506104c660048036036101408110156106ec57600080fd5b81019080806101400190600a806020026040519081016040528092919082600a60200280828437600092019190915250919450611c0c9350505050565b34801561073557600080fd5b506104c6600480360361014081101561074d57600080fd5b6040805160608181018352843594602081013594810193909260a08401929091840190600390839083908082843760009201919091525091949392602081019250359050600160201b8111156107a257600080fd5b8201836020820111156107b457600080fd5b803590602001918460208302840111600160201b831117156107d557600080fd5b9190808060200260200160405190810160405280939291908181526020018383602002808284376000920191909152509295949360208101935035915050600160201b81111561082457600080fd5b82018360208201111561083657600080fd5b803590602001918460208302840111600160201b8311171561085757600080fd5b919080806020026020016040519081016040528093929190818152602001838360200280828437600092019190915250929550508235935050506020810135151590604001356001600160a01b0316611c64565b3480156108b757600080fd5b506109db600480360360408110156108ce57600080fd5b810190602081018135600160201b8111156108e857600080fd5b8201836020820111156108fa57600080fd5b803590602001918460208302840111600160201b8311171561091b57600080fd5b9190808060200260200160405190810160405280939291908181526020018383602002808284376000920191909152509295949360208101935035915050600160201b81111561096a57600080fd5b82018360208201111561097c57600080fd5b803590602001918460208302840111600160201b8311171561099d57600080fd5b919080806020026020016040519081016040528093929190818152602001838360200280828437600092019190915250929550611d4f945050505050565b60408051602080825283518183015283519192839290830191858101910280838360005b83811015610a175781810151838201526020016109ff565b505050509050019250505060405180910390f35b348015610a3757600080fd5b506102ec60048036036040811015610a4e57600080fd5b50803590602001356001600160a01b0316611ed3565b348015610a7057600080fd5b506104c660048036036040811015610a8757600080fd5b50803590602001356001600160a01b0316611ee6565b348015610aa957600080fd5b506104c660048036036040811015610ac057600080fd5b50803590602001356001600160a01b0316611f6c565b348015610ae257600080fd5b506104c660048036036020811015610af957600080fd5b50356001600160a01b0316611fed565b348015610b1557600080fd5b506104c660048036036020811015610b2c57600080fd5b50356001600160a01b0316612058565b348015610b4857600080fd5b506104c660048036036040811015610b5f57600080fd5b50803590602001356001600160a01b03166120c0565b348015610b8157600080fd5b50610b8a61213e565b604080516001600160a01b039092168252519081900360200190f35b348015610bb257600080fd5b506104c660048036036020811015610bc957600080fd5b503561214d565b348015610bdc57600080fd5b506104c660048036036040811015610bf357600080fd5b506001600160a01b0381351690602001351515612386565b348015610c1757600080fd5b506104c660048036036040811015610c2e57600080fd5b508035906020013561243c565b348015610c4757600080fd5b506104c660048036036020811015610c5e57600080fd5b50356001600160a01b0316612495565b348015610c7a57600080fd5b506104c660048036036040811015610c9157600080fd5b50803590602001356124fe565b348015610caa57600080fd5b506102ec60048036036020811015610cc157600080fd5b5035612552565b348015610cd457600080fd5b506102ec60048036036020811015610ceb57600080fd5b50356001600160a01b031661255d565b348015610d0757600080fd5b506104c660048036036020811015610d1e57600080fd5b5035612568565b348015610d3157600080fd5b506104c660048036036101a0811015610d4957600080fd5b60408051606081810183526001600160a01b03853516946020810135949381013593828201359360808301359391830192916101008301919060a0840190600390839083908082843760009201919091525091949392602081019250359050600160201b811115610db957600080fd5b820183602082011115610dcb57600080fd5b803590602001918460208302840111600160201b83111715610dec57600080fd5b9190808060200260200160405190810160405280939291908181526020018383602002808284376000920191909152509295949360208101935035915050600160201b811115610e3b57600080fd5b820183602082011115610e4d57600080fd5b803590602001918460208302840111600160201b83111715610e6e57600080fd5b919080806020026020016040519081016040528093929190818152602001838360200280828437600092019190915250929550508235935050506020810135151590604001356001600160a01b03166127da565b348015610ece57600080fd5b506102ec60048036036020811015610ee557600080fd5b50356001600160a01b031661287b565b348015610f0157600080fd5b506102a660048036036060811015610f1857600080fd5b506001600160a01b038135169060208101359060400135612886565b348015610f4057600080fd5b506104c660048036036040811015610f5757600080fd5b50803590602001356001600160a01b031661289b565b6104c6600480360360a0811015610f8357600080fd5b81359160208101359160408201359190810190608081016060820135600160201b811115610fb057600080fd5b820183602082011115610fc257600080fd5b803590602001918460208302840111600160201b83111715610fe357600080fd5b9190808060200260200160405190810160405280939291908181526020018383602002808284376000920191909152509295505091359250612916915050565b34801561102f57600080fd5b506102ec6004803603604081101561104657600080fd5b506001600160a01b0381358116916020013516612ba2565b34801561106a57600080fd5b506110886004803603602081101561108157600080fd5b5035612be3565b60408051998a5260208a0198909852888801969096526060880194909452608087019290925260a08601526001600160a01b031660c0850152151560e0840152151561010083015251908190036101200190f35b6104c6600480360360a08110156110f257600080fd5b6001600160a01b03823581169260208101359091169160408201359160608101359181019060a081016080820135600160201b81111561113157600080fd5b82018360208201111561114357600080fd5b803590602001918460018302840111600160201b8311171561116457600080fd5b509092509050612c3f565b34801561117b57600080fd5b506104c66004803603602081101561119257600080fd5b50356001600160a01b0316612e87565b6104c6600480360360208110156111b857600080fd5b50356001600160a01b0316612eda565b3480156111d457600080fd5b506104c6600480360360408110156111eb57600080fd5b506001600160a01b038135169060200135612efc565b34801561120d57600080fd5b506104c66004803603606081101561122457600080fd5b81359190810190604081016020820135600160201b81111561124557600080fd5b82018360208201111561125757600080fd5b803590602001918460208302840111600160201b8311171561127857600080fd5b9190808060200260200160405190810160405280939291908181526020018383602002808284376000920191909152509295949360208101935035915050600160201b8111156112c757600080fd5b8201836020820111156112d957600080fd5b803590602001918460208302840111600160201b831117156112fa57600080fd5b91908080602002602001604051908101604052809392919081815260200183836020028082843760009201919091525092955061306b945050505050565b34801561134457600080fd5b506104c66004803603604081101561135b57600080fd5b50803590602001356131f0565b60006001600160a01b0383166113af5760405162461bcd60e51b815260040180806020018281038252602b815260200180614f45602b913960400191505060405180910390fd5b506000818152600e602090815260408083206001600160a01b03861684526007019091529020545b92915050565b60006001600160e01b031982166301ffc9a760e01b148061140e57506001600160e01b03198216636cdb3d1360e11b145b1561141b5750600161141f565b5060005b919050565b6002805460408051602060018416156101000260001901909316849004601f81018490048402820184019092528181526060936113d793919290918301828280156114b05780601f10611485576101008083540402835291602001916114b0565b820191906000526020600020905b81548152906001019060200180831161149357829003601f168201915b50505050506114be846133b4565b613470565b8483146115015760405162461bcd60e51b815260040180806020018281038252602e815260200180615170602e913960400191505060405180910390fd5b6001600160a01b0387166115465760405162461bcd60e51b8152600401808060200182810382526028815260200180614fd66028913960400191505060405180910390fd5b6001600160a01b03881633148061156857506115628833612ba2565b15156001145b6115a35760405162461bcd60e51b81526004018080602001828103825260378152602001806151396037913960400191505060405180910390fd5b60008034116115cd576001600160a01b0389166000908152600d60205260409020600101546115cf565b345b905060005b868110156116195761160d8a8a8a8a858181106115ed57fe5b9050602002013589898681811061160057fe5b905060200201358661357a565b909103906001016115d4565b50876001600160a01b0316896001600160a01b0316336001600160a01b03167f4a39dc06d4c0dbc64b70af90fd698a233a518aa5d07e595d983b8c0526c8f7fb8a8a8a8a6040518080602001806020018381038352878782818152602001925060200280828437600083820152601f01601f19169091018481038352858152602090810191508690860280828437600083820152604051601f909101601f19169092018290039850909650505050505050a461176f338a8a8a8a8080602002602001604051908101604052809392919081815260200183836020028082843760009201919091525050604080516020808e0282810182019093528d82529093508d92508c91829185019084908082843760009201919091525050604080516020601f8d018190048102820181019092528b815292508b91508a908190840183828082843760009201919091525061377792505050565b60003411801561177f5750600081115b1561181a57604051600090339083908381818185875af1925050503d80600081146117c6576040519150601f19603f3d011682016040523d82523d6000602084013e6117cb565b606091505b5050905080611814576040805162461bcd60e51b815260206004820152601060248201526f2a3930b739b332b9103330b4b632b21760811b604482015290519081900360640190fd5b5061183e565b3461183e576001600160a01b0389166000908152600d602052604090206001018190555b505050505050505050565b6001805460028054604080516020838716156101000260001901909316849004601f810184900484028201840190925281815293949392918301828280156118d25780601f106118a7576101008083540402835291602001916118d2565b820191906000526020600020905b8154815290600101906020018083116118b557829003601f168201915b5050505050905082565b6118e4614d5c565b6000828152600f602090815260409182902082516101808101845281548152600182015481840152600282015481850152600382015460608201526004820154608082015260058201546001600160a01b03811660a083015260ff600160a01b82048116151560c0840152600160a81b82048116151560e0840152600160b01b820481161515610100840152600160b81b820481161515610120840152600160c01b9091041615156101408201526006820180548551818602810186019096528086529194929361016086019392908301828280156119ec57602002820191906000526020600020905b81546001600160a01b031681526001909101906020018083116119ce575b50505091909252505081519192505015801590611a1057508051611a109033613970565b8015611a1f5750610100810151155b8015611a2e5750610120810151155b611a7f576040805162461bcd60e51b815260206004820152601f60248201527f496e76616c696420617267756d656e7473206f72207065726d697373696f6e00604482015290519081900360640190fd5b6000828152600f6020526040808220600501805460ff60a81b1916600160a81b179055518391600080516020614fb683398151915291a25050565b611ac2613994565b611b01576040805162461bcd60e51b81526020600482018190526024820152600080516020615119833981519152604482015290519081900360640190fd5b6001600160a01b03166000908152600d60205260409020805461ff001916610100179055565b611b2f613994565b611b6e576040805162461bcd60e51b81526020600482018190526024820152600080516020615119833981519152604482015290519081900360640190fd5b600155565b600d602052600090815260409020805460019091015460ff808316926101009004169083565b600f6020526000908152604090208054600182015460028301546003840154600485015460059095015493949293919290916001600160a01b0381169060ff600160a01b8204811691600160a81b8104821691600160b01b8204811691600160b81b8104821691600160c01b909104168b565b611c14613994565b611c53576040805162461bcd60e51b81526020600482018190526024820152600080516020615119833981519152604482015290519081900360640190fd5b611c60600382600a614dd0565b5050565b87611c6f81336139a5565b611cae576040805162461bcd60e51b81526020600482015260176024820152600080516020614f70833981519152604482015290519081900360640190fd5b6000898152600e6020526040902054611cfe576040805162461bcd60e51b815260206004820152600d60248201526c2ab735b737bbb7103a37b5b2b760991b604482015290519081900360640190fd5b611d0e89898989898989896139df565b6040805189815290518a917f199acc06cd2556bbc146fa3cb578799037dffcbf256eca32aaf2ef656925d2fd919081900360200190a2505050505050505050565b60608151835114611d915760405162461bcd60e51b815260040180806020018281038252603081526020018061502a6030913960400191505060405180910390fd5b6060835167ffffffffffffffff81118015611dab57600080fd5b50604051908082528060200260200182016040528015611dd5578160200160208202803683370190505b50905060005b8451811015611ecb5760006001600160a01b0316858281518110611dfb57fe5b60200260200101516001600160a01b03161415611e495760405162461bcd60e51b81526004018080602001828103825260348152602001806150906034913960400191505060405180910390fd5b600e6000858381518110611e5957fe5b602002602001015181526020019081526020016000206007016000868381518110611e8057fe5b60200260200101516001600160a01b03166001600160a01b0316815260200190815260200160002060000154828281518110611eb857fe5b6020908102919091010152600101611ddb565b509392505050565b6000611edf83836139a5565b9392505050565b81611ef181336139a5565b611f30576040805162461bcd60e51b81526020600482015260176024820152600080516020614f70833981519152604482015290519081900360640190fd5b506000918252600e602090815260408084206001600160a01b039093168452600790920190529020600201805462ff0000191662010000179055565b81611f7781336139a5565b611fb6576040805162461bcd60e51b81526020600482015260176024820152600080516020614f70833981519152604482015290519081900360640190fd5b506000918252600e602090815260408084206001600160a01b039093168452600790920190529020600201805462ff000019169055565b611ff5613994565b612034576040805162461bcd60e51b81526020600482018190526024820152600080516020615119833981519152604482015290519081900360640190fd5b6001600160a01b03166000908152600d60205260409020805460ff19166001179055565b612060613994565b61209f576040805162461bcd60e51b81526020600482018190526024820152600080516020615119833981519152604482015290519081900360640190fd5b6001600160a01b03166000908152600d60205260409020805460ff19169055565b6120c8613994565b612107576040805162461bcd60e51b81526020600482018190526024820152600080516020615119833981519152604482015290519081900360640190fd5b6000918252600e602090815260408084206001600160a01b039093168452600790920190529020600201805460ff19166001179055565b6000546001600160a01b031690565b612155614d5c565b6000828152600f602090815260409182902082516101808101845281548152600182015481840152600282015481850152600382015460608201526004820154608082015260058201546001600160a01b03811660a083015260ff600160a01b82048116151560c0840152600160a81b82048116151560e0840152600160b01b820481161515610100840152600160b81b820481161515610120840152600160c01b90910416151561014082015260068201805485518186028101860190965280865291949293610160860193929083018282801561225d57602002820191906000526020600020905b81546001600160a01b0316815260019091019060200180831161223f575b5050509190925250508151919250501580159061227d5750610100810151155b801561228c5750610120810151155b80156122d15750805161229f90336139a5565b806122b1575080516122b19033613970565b806122d157508060a001516001600160a01b0316336001600160a01b0316145b612322576040805162461bcd60e51b815260206004820152601f60248201527f496e76616c696420617267756d656e7473206f72207065726d697373696f6e00604482015290519081900360640190fd5b6000828152600f60209081526040808320600501805460ff60b01b1916600160b01b1790558381015160a08501516001600160a01b03168452600d9092528083206001018054909201909155518391600080516020614fb683398151915291a25050565b336001600160a01b03831614156123ce5760405162461bcd60e51b815260040180806020018281038252602c815260200180614ffe602c913960400191505060405180910390fd5b3360008181526010602090815260408083206001600160a01b03871680855290835292819020805460ff1916861515908117909155815190815290519293927f17307eab39ab6107e8899845ad3d59bd9653f200f220920489ca2b5937696c31929181900390910190a35050565b8161244781336139a5565b612486576040805162461bcd60e51b81526020600482015260176024820152600080516020614f70833981519152604482015290519081900360640190fd5b6124908383613b83565b505050565b61249d613994565b6124dc576040805162461bcd60e51b81526020600482018190526024820152600080516020615119833981519152604482015290519081900360640190fd5b6001600160a01b03166000908152600d60205260409020805461ff0019169055565b8161250981336139a5565b612548576040805162461bcd60e51b81526020600482015260176024820152600080516020614f70833981519152604482015290519081900360640190fd5b6124908383613bd9565b60006113d782613c35565b60006113d782613c54565b612570614d5c565b6000828152600f602090815260409182902082516101808101845281548152600182015481840152600282015481850152600382015460608201526004820154608082015260058201546001600160a01b03811660a083015260ff600160a01b82048116151560c0840152600160a81b82048116151560e0840152600160b01b820481161515610100840152600160b81b820481161515610120840152600160c01b90910416151561014082015260068201805485518186028101860190965280865291949293610160860193929083018282801561267857602002820191906000526020600020905b81546001600160a01b0316815260019091019060200180831161265a575b5050509190925250508151919250501580159061269c5750805161269c90336139a5565b80156126b557508060c0015115806126b557508060e001515b80156126c45750610100810151155b80156126d35750610120810151155b80156126fa57506126f281600001518260200151836101600151613c7e565b816040015110155b6127355760405162461bcd60e51b81526004018080602001828103825260348152602001806150e56034913960400191505060405180910390fd5b6000828152600f6020526040808220600501805460ff60b81b1916600160b81b179055518391600080516020614fb683398151915291a2610160810151511561278d576127888282610160015151613d35565b611c60565b60015481516000908152600e6020526040902060080154116127c85780516000908152600e6020526040902060080154612788908390613d35565b611c6081600001518260800151613bd9565b6127e333613c54565b612822576040805162461bcd60e51b81526020600482015260176024820152600080516020614f70833981519152604482015290519081900360640190fd5b6128358b8b8b8b8b8b8b8b8b8b8b613fd3565b604080518b8152602081018b905281516001600160a01b038e16926000923392600080516020614f25833981519152929181900390910190a45050505050505050505050565b60006113d78261413c565b600061289384848461415f565b949350505050565b6128a3613994565b6128e2576040805162461bcd60e51b81526020600482018190526024820152600080516020615119833981519152604482015290519081900360640190fd5b6000918252600e602090815260408084206001600160a01b039093168452600790920190529020600201805460ff19169055565b6000858152600f602052604090205415801561293f57506000848152600e602052604090205415155b80156129555750612951848484613c7e565b3410155b80156129645750600154825111155b6129b5576040805162461bcd60e51b815260206004820152601a60248201527f496e76616c696420617267756d656e7473206f722076616c7565000000000000604482015290519081900360640190fd5b6000848152600e60205260408120600481015490546129e191612710916129db91614341565b9061439a565b905060405180610180016040528086815260200185815260200134815260200160008152602001838152602001336001600160a01b031681526020018560001480612a4757506000878152600e6020908152604080832033845260070190915290205483115b80612a53575060008551115b151581526000602080830182905260408084018390526060808501849052608080860185905260a09586018a90528c8552600f8452938290208651815586840151600182015591860151600283015585015160038201559184015160048301559183015160058201805460c086015160e08701516101008801516101208901516101408a01511515600160c01b0260ff60c01b19911515600160b81b0260ff60b81b19931515600160b01b0260ff60b01b19951515600160a81b0260ff60a81b19971515600160a01b0260ff60a01b196001600160a01b03909c166001600160a01b0319909a16999099179a909a16979097179590951697909717929092169390931792909216171691909117905561016083015180519192612b7e92600685019290910190614e28565b5050604051879150600080516020614fb683398151915290600090a2505050505050565b6000612bae83836143dc565b80611edf5750506001600160a01b03918216600090815260106020908152604080832093909416825291909152205460ff1690565b600e60205260009081526040902080546001820154600283015460038401546004850154600586015460069096015494959394929391929091906001600160a01b0381169060ff600160a01b8204811691600160a81b90041689565b6001600160a01b038516612c845760405162461bcd60e51b8152600401808060200182810382526028815260200180614fd66028913960400191505060405180910390fd5b6001600160a01b038616331480612ca65750612ca08633612ba2565b15156001145b612ce15760405162461bcd60e51b81526004018080602001828103825260378152602001806151396037913960400191505060405180910390fd5b6000803411612d0b576001600160a01b0387166000908152600d6020526040902060010154612d0d565b345b9050612d1c878787878561357a565b81039050856001600160a01b0316876001600160a01b0316336001600160a01b0316600080516020614f258339815191528888604051808381526020018281526020019250505060405180910390a4612daf338888888888888080601f0160208091040260200160405190810160405280939291908181526020018383808284376000920191909152506144c392505050565b600034118015612dbf5750600081115b15612e5a57604051600090339083908381818185875af1925050503d8060008114612e06576040519150601f19603f3d011682016040523d82523d6000602084013e612e0b565b606091505b5050905080612e54576040805162461bcd60e51b815260206004820152601060248201526f2a3930b739b332b9103330b4b632b21760811b604482015290519081900360640190fd5b50612e7e565b34612e7e576001600160a01b0387166000908152600d602052604090206001018190555b50505050505050565b612e8f613994565b612ece576040805162461bcd60e51b81526020600482018190526024820152600080516020615119833981519152604482015290519081900360640190fd5b612ed781614638565b50565b6001600160a01b03166000908152600d60205260409020600101805434019055565b612f04613994565b612f43576040805162461bcd60e51b81526020600482018190526024820152600080516020615119833981519152604482015290519081900360640190fd5b6001600160a01b0382166000908152600d6020526040902060010154811115612faa576040805162461bcd60e51b8152602060048201526014602482015273496e73756666696369656e742062616c616e636560601b604482015290519081900360640190fd5b6040516000906001600160a01b0384169083908381818185875af1925050503d8060008114612ff5576040519150601f19603f3d011682016040523d82523d6000602084013e612ffa565b606091505b5050905080613044576040805162461bcd60e51b815260206004820152601160248201527015da5d1a191c985dd85b0819985a5b1959607a1b604482015290519081900360640190fd5b506001600160a01b039091166000908152600d602052604090206001018054919091039055565b61307433613c54565b6130b3576040805162461bcd60e51b81526020600482015260176024820152600080516020614f70833981519152604482015290519081900360640190fd5b6000838152600e6020526040902054158015906130d1575080518251145b613116576040805162461bcd60e51b8152602060048201526011602482015270496e76616c696420617267756d656e747360781b604482015290519081900360640190fd5b60005b82518110156131ea576131538484838151811061313257fe5b602002602001015184848151811061314657fe5b60200260200101516146d8565b6000848152600e60205260408120600801805490919061316f57fe5b600091825260208220015484516001600160a01b0390911691903390600080516020614f25833981519152908790869081106131a757fe5b6020026020010151600e60008a815260200190815260200160002060000154604051808381526020018281526020019250505060405180910390a4600101613119565b50505050565b6131f8614d5c565b6000838152600f602090815260409182902082516101808101845281548152600182015481840152600282015481850152600382015460608201526004820154608082015260058201546001600160a01b03811660a083015260ff600160a01b82048116151560c0840152600160a81b82048116151560e0840152600160b01b820481161515610100840152600160b81b820481161515610120840152600160c01b90910416151561014082015260068201805485518186028101860190965280865291949293610160860193929083018282801561330057602002820191906000526020600020905b81546001600160a01b031681526001909101906020018083116132e2575b50505091909252505081519192505015801590613324575061012081015115156001145b80156133335750610140810151155b613377576040805162461bcd60e51b815260206004820152601060248201526f496e76616c69642063616c6c6261636b60801b604482015290519081900360640190fd5b6133818383613d35565b6000838152600f6020526040902060050154600160c01b900460ff16156124905761249081600001518260800151613b83565b60606000825b80156133d05760019190910190601090046133ba565b60608267ffffffffffffffff811180156133e957600080fd5b506040519080825280601f01601f191660200182016040528015613414576020820181803683370190505b50905060005b838110156134675760108606925061343183614875565b826001838703038151811061344257fe5b60200101906001600160f81b031916908160001a90535060108604955060010161341a565b50949350505050565b805182516060918491849184910167ffffffffffffffff8111801561349457600080fd5b506040519080825280601f01601f1916602001820160405280156134bf576020820181803683370190505b509050806000805b8551811015613518578581815181106134dc57fe5b602001015160f81c60f81b8383806001019450815181106134f957fe5b60200101906001600160f81b031916908160001a9053506001016134c7565b5060005b845181101561356d5784818151811061353157fe5b602001015160f81c60f81b83838060010194508151811061354e57fe5b60200101906001600160f81b031916908160001a90535060010161351c565b5090979650505050505050565b6000613588868686866148b9565b156135c3576040805162461bcd60e51b8152602060048201526006602482015265131bd8dad95960d21b604482015290519081900360640190fd5b6135ce86858561415f565b905080821015613625576040805162461bcd60e51b815260206004820152601960248201527f496e73756666696369656e742045544820666f72206665657300000000000000604482015290519081900360640190fd5b6040805180820182526014815273496e73756666696369656e742062616c616e636560601b6020808301919091526000878152600e82528381206001600160a01b038b16825260070190915291909120546136819185906148f1565b6000858152600e602090815260408083206001600160a01b038b1684526007019091529020556136b2858585614988565b60005b6000858152600e602052604090206009015481101561376d576000858152600e602052604081206009018054839081106136eb57fe5b6000918252602080832090910154888352600e90915260408220600a0180546001600160a01b039092169350908490811061372257fe5b60009182526020909120015490506137406127106129db8684614341565b6001600160a01b039092166000908152600d602052604090206001908101805490930190925550016136b5565b5095945050505050565b613789846001600160a01b0316614c24565b156139685763bc197c8160e01b6001600160e01b031916846001600160a01b031663bc197c8188888787876040518663ffffffff1660e01b815260040180866001600160a01b03168152602001856001600160a01b03168152602001806020018060200180602001848103845287818151815260200191508051906020019060200280838360005b83811015613829578181015183820152602001613811565b50505050905001848103835286818151815260200191508051906020019060200280838360005b83811015613868578181015183820152602001613850565b50505050905001848103825285818151815260200191508051906020019080838360005b838110156138a457818101518382015260200161388c565b50505050905090810190601f1680156138d15780820380516001836020036101000a031916815260200191505b5098505050505050505050602060405180830381600087803b1580156138f657600080fd5b505af115801561390a573d6000803e3d6000fd5b505050506040513d602081101561392057600080fd5b50516001600160e01b031916146139685760405162461bcd60e51b815260040180806020018281038252603681526020018061505a6036913960400191505060405180910390fd5b505050505050565b6000918252600e6020526040909120600601546001600160a01b0391821691161490565b6000546001600160a01b0316331490565b6000828152600e602090815260408083206001600160a01b038516845260070190915281206002015460ff1680611edf5750611edf613994565b6000805b8551811015613a0f578581815181106139f857fe5b6020026020010151820191508060010190506139e3565b5060008651118015613a1f575060015b8015613a2c575080612710145b8015613a39575061271084105b613a7e576040805162461bcd60e51b8152602060048201526011602482015270496e76616c696420617267756d656e747360781b604482015290519081900360640190fd5b6000898152600e60209081526040808320600581018c90558a516002808301919091558b840151600383015582518084018452428152928c015183850152600b909101805460018101825590855292909320613ade939283020191614e7c565b506000898152600e602090815260409091208751613b0492600990920191890190614e28565b506000898152600e602090815260409091208651613b2a92600a90920191880190614eb6565b50506000978852600e602052604090972060048101929092556006909101805460ff60a01b1916600160a01b92151592909202919091176001600160a01b0319166001600160a01b039096169590951790945550505050565b6000828152600e6020908152604091829020600601805460ff60a81b191690558151838152915184927f199acc06cd2556bbc146fa3cb578799037dffcbf256eca32aaf2ef656925d2fd92908290030190a25050565b6000828152600e6020908152604091829020600601805460ff60a81b1916600160a81b1790558151838152915184927f199acc06cd2556bbc146fa3cb578799037dffcbf256eca32aaf2ef656925d2fd92908290030190a25050565b6000908152600e6020526040902060060154600160a81b900460ff1690565b6001600160a01b0381166000908152600d602052604081205460ff16806113d757506113d7613994565b80516000908190613cbf576000858152600e60208181526040808420338552600781018352908420549389905291905254613cb891614c5b565b9050613d22565b60005b8351811015613d2057600e60008781526020019081526020016000206007016000858381518110613cef57fe5b6020908102919091018101516001600160a01b03168252810191909152604001600020549190910190600101613cc2565b505b613d2c8185614341565b95945050505050565b6000828152600f602052604090208054600690910154606090613d68576000828152600e60205260409020600801613d7a565b6000848152600f602052604090206006015b805480602002602001604051908101604052809291908181526020018280548015613dce57602002820191906000526020600020905b81546001600160a01b03168152600190910190602001808311613db0575b505083516000898152600f60205260408120600301549596506000199091019493509150508582018311613e025782613e06565b8582015b90506000825b828111613f4e576000868281518110613e2157fe5b60209081029190910181015160008a8152600e835260408082206001600160a01b0384168352600701909352919091205490915015613f45576000888152600e602090815260408083206001600160a01b0385168085526007909101808452828520548f8652600f855292852060010154919094529290915293840193613ea791614341565b6001600160a01b038083166000818152600d6020908152604080832060010180549096019095558e8252600f8152848220600501548d8352600e82528583208484526007018252918590205485518e8152918201528451919093169391923392600080516020614f2583398151915292918290030190a46000888152600e602090815260408083206001600160a01b03851684526007019091528120555b50600101613e0c565b506000888152600f6020526040902060050154613f75906001600160a01b03168783614988565b6000888152600f6020526040902060030182905583821415613fc9576000888152600f6020526040808220600501805460ff60c01b1916600160c01b179055518991600080516020614fb683398151915291a25b5050505050505050565b60008a8152600e6020526040902054158015613fef5750600089115b614034576040805162461bcd60e51b8152602060048201526011602482015270496e76616c696420617267756d656e747360781b604482015290519081900360640190fd5b88600e60008c81526020019081526020016000206000018190555087600e60008c8152602001908152602001600020600101819055506001600e60008c81526020019081526020016000206007016000336001600160a01b03166001600160a01b0316815260200190815260200160002060020160006101000a81548160ff0219169083151502179055506001600e60008c815260200190815260200160002060070160008d6001600160a01b03166001600160a01b0316815260200190815260200160002060020160026101000a81548160ff0219169083151502179055506141248a888888888888886139df565b61412f8b8b8b614988565b5050505050505050505050565b6001600160a01b03166000908152600d6020526040902054610100900460ff1690565b6000828152600e60205260408120600b015481904290600019015b6000868152600e60205260408120600b0180548390811061419757fe5b60009182526020822060029091020101546000888152600e60205260408120600b0180549293509091849081106141ca57fe5b90600052602060002090600202016001600281106141e457fe5b01546000898152600e602090815260408083206001600160a01b038e168452600701909152812060010154919250908311614281576000898152600e602090815260408083206001600160a01b038e1684526007019091529020600101546142569062015180906129db908890614c5b565b905080614261575060015b6142758861426f8385614341565b90614341565b860195505050506142c0565b614292620151806129db8786614c5b565b90508061429d575060015b91935083916142b08861426f8385614341565b909501945050506000190161417a565b506000858152600e60205260409020600101546142e1908390600a0a61439a565b6000868152600e60205260408120600301549193509061430c906305f5e100906129db908890614341565b6000878152600e60205260409020600201549091506143369061432f9083614c9d565b8490614c9d565b979650505050505050565b600082614350575060006113d7565b8282028284828161435d57fe5b0414611edf5760405162461bcd60e51b81526004018080602001828103825260218152602001806150c46021913960400191505060405180910390fd5b6000611edf83836040518060400160405280601a81526020017f536166654d6174683a206469766973696f6e206279207a65726f000000000000815250614cf7565b6000805b600a8110156144b9576000600382600a81106143f857fe5b01546001600160a01b0316146144b1576000600382600a811061441757fe5b01546040805163c455279160e01b81526001600160a01b0388811660048301529151928216935090861691839163c4552791916024808301926020929190829003018186803b15801561446957600080fd5b505afa15801561447d573d6000803e3d6000fd5b505050506040513d602081101561449357600080fd5b50516001600160a01b031614156144af576001925050506113d7565b505b6001016143e0565b5060009392505050565b6144d5846001600160a01b0316614c24565b156139685763f23a6e6160e01b6001600160e01b031916846001600160a01b031663f23a6e6188888787876040518663ffffffff1660e01b815260040180866001600160a01b03168152602001856001600160a01b0316815260200184815260200183815260200180602001828103825283818151815260200191508051906020019080838360005b8381101561457657818101518382015260200161455e565b50505050905090810190601f1680156145a35780820380516001836020036101000a031916815260200191505b509650505050505050602060405180830381600087803b1580156145c657600080fd5b505af11580156145da573d6000803e3d6000fd5b505050506040513d60208110156145f057600080fd5b50516001600160e01b031916146139685760405162461bcd60e51b815260040180806020018281038252603181526020018061519e6031913960400191505060405180910390fd5b6001600160a01b03811661467d5760405162461bcd60e51b8152600401808060200182810382526026815260200180614f906026913960400191505060405180910390fd5b600080546040516001600160a01b03808516939216917f8be0079c531659141344cd1fd0a4f28419497f9722a3daafe3b4186f6b6457e091a3600080546001600160a01b0319166001600160a01b0392909216919091179055565b6000838152600e60205260408120600801805461249092906146f657fe5b6000918252602080832090910154868352600e8083526040808520805460018201548351606081018552600284015481526003840154818901528c895294909652600b90910180546001600160a01b03909516968a96929592948a94909390840192919061476057fe5b906000526020600020906002020160016002811061477a57fe5b0154905260008a8152600e6020908152604091829020600901805483518184028101840190945280845290918301828280156147df57602002820191906000526020600020905b81546001600160a01b031681526001909101906020018083116147c1575b50505060008d8152600e6020908152604091829020600a018054835181840281018401909452808452929450925083018282801561483c57602002820191906000526020600020905b815481526020019060010190808311614828575b50505060008e8152600e60205260409020600481015460069091015490925060ff600160a01b82041691506001600160a01b0316613fd3565b600060098260ff161161488f57506030810160f81b61141f565b8160ff16600a111580156148a75750600f8260ff1611155b1561026857506057810160f81b61141f565b60006148c483613c35565b806148d357506148d38561413c565b806148e257506148e28461413c565b80613d2c575050159392505050565b600081848411156149805760405162461bcd60e51b81526004018080602001828103825283818151815260200191508051906020019080838360005b8381101561494557818101518382015260200161492d565b50505050905090810190601f1680156149725780820380516001836020036101000a031916815260200191505b509250505060405180910390fd5b505050900390565b6000828152600e6020526040902060060154600160a01b900460ff1615806149de57506000828152600e602090815260408083206001600160a01b038716845260070190915290206002015462010000900460ff165b614a26576040805162461bcd60e51b81526020600482015260146024820152731059191c995cdcc81b9bdd08185c1c1c9bdd995960621b604482015290519081900360640190fd5b6000828152600e602090815260408083206001600160a01b0387168452600701909152812054614a569083614c9d565b6000848152600e602090815260408083206001600160a01b0389168452600701909152902054909150614b53576000838152600e602090815260408083206001600160a01b0388168452600701909152902060020154610100900460ff16614b22576001600160a01b0384166000818152600d6020908152604080832060020180546001818101835591855283852001889055878452600e83529083206008810180549283018155845282842090910180546001600160a01b0319168517905592909152600790910190525b6000838152600e602090815260408083206001600160a01b0388168452600701909152902042600190910155614bf4565b6000838152600e602090815260408083206001600160a01b0388168452600701909152812060010154614b87904290614c5b565b6000858152600e602090815260408083206001600160a01b038a16845260070190915281205491925090614bc19084906129db9085614341565b6000868152600e602090815260408083206001600160a01b038b1684526007019091529020429190910360019091015550505b6000928352600e602090815260408085206001600160a01b03909616855260079095019052929091209190915550565b6000813f7fc5d2460186f7233c927e7db2dcc703c0e500b653ca82273b7bfad8045d85a47081158015906128935750141592915050565b6000611edf83836040518060400160405280601e81526020017f536166654d6174683a207375627472616374696f6e206f766572666c6f7700008152506148f1565b600082820183811015611edf576040805162461bcd60e51b815260206004820152601b60248201527f536166654d6174683a206164646974696f6e206f766572666c6f770000000000604482015290519081900360640190fd5b60008183614d465760405162461bcd60e51b815260206004820181815283516024840152835190928392604490910191908501908083836000831561494557818101518382015260200161492d565b506000838581614d5257fe5b0495945050505050565b604051806101800160405280600081526020016000815260200160008152602001600081526020016000815260200160006001600160a01b03168152602001600015158152602001600015158152602001600015158152602001600015158152602001600015158152602001606081525090565b82600a8101928215614e18579160200282015b82811115614e1857825182546001600160a01b0319166001600160a01b03909116178255602090920191600190910190614de3565b50614e24929150614ef0565b5090565b828054828255906000526020600020908101928215614e185791602002820182811115614e1857825182546001600160a01b0319166001600160a01b03909116178255602090920191600190910190614de3565b8260028101928215614eaa579160200282015b82811115614eaa578251825591602001919060010190614e8f565b50614e24929150614f0f565b828054828255906000526020600020908101928215614eaa5791602002820182811115614eaa578251825591602001919060010190614e8f565b5b80821115614e245780546001600160a01b0319168155600101614ef1565b5b80821115614e245760008155600101614f1056fec3d58168c5ae7397731d063d5bbf3d657854427343f4c083240f7aacaa2d0f62455243313135353a2062616c616e636520717565727920666f7220746865207a65726f2061646472657373496e73756666696369656e74207065726d697373696f6e0000000000000000004f776e61626c653a206e6577206f776e657220697320746865207a65726f20616464726573736ce984c7277c5fe8f47fdf17245300ed19587e3bc1041342d79726b2b2f1dc0b455243313135353a207461726765742061646472657373206d757374206265206e6f6e2d7a65726f455243313135353a2063616e6e6f742073657420617070726f76616c2073746174757320666f722073656c66455243313135353a206163636f756e747320616e6420494473206d75737420686176652073616d65206c656e67746873455243313135353a20676f7420756e6b6e6f776e2076616c75652066726f6d206f6e4552433131353542617463685265636569766564455243313135353a20736f6d65206164647265737320696e2062617463682062616c616e6365207175657279206973207a65726f536166654d6174683a206d756c7469706c69636174696f6e206f766572666c6f77496e73756666696369656e742063616c6c6261636b2c207065726d697373696f6e206f7220657363726f77656420616d6f756e744f776e61626c653a2063616c6c6572206973206e6f7420746865206f776e6572455243313135353a206e656564206f70657261746f7220617070726f76616c20666f7220337264207061727479207472616e7366657273455243313135353a2049447320616e642076616c756573206d75737420686176652073616d65206c656e67746873455243313135353a20676f7420756e6b6e6f776e2076616c75652066726f6d206f6e455243313135355265636569766564a26469706673582212205947fd20bd5d40e6bad43c32ae790dada879118d5946f02d4dfcb0f924c4e29164736f6c634300070100334f776e61626c653a206e6577206f776e657220697320746865207a65726f2061646472657373",
  "immutableReferences": {},
  "source": "// SPDX-License-Identifier: GPL-3.0-or-later\n\npragma solidity ^0.7.1;\n\nimport './lib/ERC1155/ERC1155.sol';\nimport \"./lib/utils/SafeMath.sol\";\nimport './lib/ERC1155/IERC1155Metadata.sol';\nimport './lib/utils/StringUtils.sol';\n\ncontract StashBlox is ERC1155, IERC1155Metadata, StringUtils {\n\n    using SafeMath for uint256;\n\n    /**\n     * @dev Initializes the contract setting the deployer as the initial owner.\n     */\n    constructor () {\n        _config.callbackAutoExecuteMaxAddresses = 50;\n        _config.baseURI = \"http://stashblox.com/tokens/\";\n        _transferOwnership(msg.sender);\n    }\n\n    /***************************************\n    TOKENIZERS\n    ****************************************/\n\n\n    /**\n     * @dev Function to authorize an address to create a token.\n     * @param tokenizer The authorized address\n     */\n    function authorizeTokenizer(address tokenizer) external onlyOwner {\n        _users[tokenizer].isTokenizer = true;\n    }\n\n    /**\n     * @dev Function to revoke the authorization to create a token.\n     * @param tokenizer The authorized address\n     */\n    function revokeTokenizer(address tokenizer) external onlyOwner {\n        _users[tokenizer].isTokenizer = false;\n    }\n\n    /**\n     * @dev Function to check if an address is authorized to create a token.\n     * @param tokenizer The authorized address\n     */\n    function isTokenizer(address tokenizer) external view returns (bool) {\n        return _isTokenizer(tokenizer);\n    }\n\n\n    /***************************************\n    MAINTENERS\n    ****************************************/\n\n\n    /**\n     * @dev Function to authorize an address to maintain a token.\n     * @param maintener The authorized address\n     */\n    function authorizeMaintener(uint256 id, address maintener) external onlyOwner {\n        _tokens[id].holders[maintener].isMaintener = true;\n    }\n\n    /**\n     * @dev Function to revoke the authorization to maintain a token.\n     * @param id the token id\n     * @param maintener The authorized address\n     */\n    function revokeMaintener(uint256 id, address maintener) external onlyOwner {\n        _tokens[id].holders[maintener].isMaintener = false;\n    }\n\n    /**\n     * @dev Function to check if an address is authorized to maintain a token.\n     * @param id the token id\n     * @param maintener The authorized address\n     * @return true if it's a maintener address\n     */\n    function isMaintener(uint256 id, address maintener) external view returns (bool) {\n        return _isMaintener(id, maintener);\n    }\n\n    /**\n     * @dev Function to approve holder for a private token.\n     * @param id the token id\n     * @param holder The authorized address\n     */\n    function approveHolder(uint256 id, address holder) external onlyMaintener(id) {\n        _tokens[id].holders[holder].isApproved = true;\n    }\n\n\n    /**\n     * @dev Function to revoke holder for a private token.\n     * @param id the token id\n     * @param holder The authorized address\n     */\n    function revokeHolder(uint256 id, address holder) external onlyMaintener(id) {\n        _tokens[id].holders[holder].isApproved = false;\n    }\n\n\n    /***************************************\n    LOCKS\n    ****************************************/\n\n\n    /**\n     * @dev Function to lock a token.\n     * @param id The token ID\n     */\n    function lockToken(uint256 id, uint256 documentHash) external onlyMaintener(id) {\n        _lockToken(id, documentHash);\n    }\n\n    /**\n     * @dev Function to unlock a token.\n     * @param id The token ID\n     */\n    function unlockToken(uint256 id, uint256 documentHash) external onlyMaintener(id) {\n        _unlockToken(id, documentHash);\n    }\n\n    /**\n     * @dev Function to check if a token is locked.\n     * @param id The token ID\n     */\n    function isLockedToken(uint256 id) external view returns (bool){\n        return _isLockedToken(id);\n    }\n\n    /**\n     * @dev Function to lock an address.\n     * @param addr The address to lock\n     */\n    function lockAddress(address addr) external onlyOwner {\n        _users[addr].isLocked = true;\n    }\n\n    /**\n     * @dev Function to unlock an address.\n     * @param addr The address to unlock\n     */\n    function unlockAddress(address addr) external onlyOwner {\n        _users[addr].isLocked = false;\n    }\n\n    /**\n     * @dev Function to check if an address is lockec.\n     * @param addr The address to check\n     */\n    function isLockedAddress(address addr) external view returns (bool){\n        return _isLockedAddress(addr);\n    }\n\n\n    /***************************************\n    TOKEN CREATION AND MAINTENANCE\n    ****************************************/\n\n\n    /**\n     * @dev Function to mint an amount of a token with the given ID.\n     * @param recipient The address that will own the minted tokens\n     * @param id ID of the token to be minted\n     * @param supply Amount of the token to be minted\n     * @param metadataHash Metadata file hash\n     * @param transactionFees transaction fees: [lumpSumFees (in WEI), valueProportionalFees (ratio of transfered amount * 10**8), storageFees (in storageCredit * 10**8)]\n     * @param feesRecipients list of addresses receiving transfer fees\n     * @param feesRecipientsPercentage list of percentage, each one for the corresponding feesRecipients\n     * @param minHoldingForCallback minimum holding to propose a callback\n     */\n    function createToken(address recipient,\n                         uint256 id,\n                         uint256 supply,\n                         uint256 decimals,\n                         uint256 metadataHash,\n                         uint256[3] memory transactionFees,\n                         address[] memory feesRecipients,\n                         uint256[] memory feesRecipientsPercentage,\n                         uint256 minHoldingForCallback,\n                         bool isPrivate,\n                         address legalAuthority)\n    external onlyTokenizer {\n        _createToken(recipient,\n                     id,\n                     supply,\n                     decimals,\n                     metadataHash,\n                     transactionFees,\n                     feesRecipients,\n                     feesRecipientsPercentage,\n                     minHoldingForCallback,\n                     isPrivate,\n                     legalAuthority);\n        emit TransferSingle(msg.sender, address(0), recipient, id, supply);\n    }\n\n    /**\n     * @dev Function to mint tokens in batch.\n     * @param id Identifier of the template\n     * @param ids list of IDs of the tokens to be minted\n     * @param metadataHashes list of metadata file hashes\n     */\n    function cloneToken(uint256 id,\n                        uint256[] memory ids,\n                        uint256[] memory metadataHashes)\n    external onlyTokenizer {\n        require(_tokens[id].supply > 0 &&\n                ids.length == metadataHashes.length, \"Invalid arguments\");\n\n        for (uint256 i = 0; i < ids.length; ++i) {\n            _cloneToken(id, ids[i], metadataHashes[i]);\n\n            emit TransferSingle(msg.sender,\n                                address(0),\n                                _tokens[id].holderList[0],\n                                ids[i],\n                                _tokens[id].supply);\n        }\n    }\n\n    function updateToken(uint256 id,\n                         uint256 metadataHash,\n                         uint256[3] memory transactionFees,\n                         address[] memory feesRecipients,\n                         uint256[] memory feesRecipientsPercentage,\n                         uint256 minHoldingForCallback,\n                         bool isPrivate,\n                         address legalAuthority) external onlyMaintener(id) {\n        require(_tokens[id].supply > 0, \"Unknown token\");\n\n        _updateToken(id,\n                     metadataHash,\n                     transactionFees,\n                     feesRecipients,\n                     feesRecipientsPercentage,\n                     minHoldingForCallback,\n                     isPrivate,\n                     legalAuthority);\n\n        emit TokenUpdated(id, metadataHash);\n    }\n\n\n    /***************************************\n    TRANSFER PRICE\n    ****************************************/\n\n    /**\n     * @dev Function to get the transaction price to transfer tokens.\n     * @param account the address from where to transfer the tokens\n     * @param id The token ID\n     * @param value The amount to transfer\n     */\n    function transactionFees(address account, uint256 id, uint256 value) public view returns (uint256) {\n        return _transactionFees(account, id, value);\n    }\n\n\n    /***************************************\n    CALLBACKS\n    ****************************************/\n\n    /**\n     * @dev Maximum addresses to execute automatically the callback when is accepted.\n     * @param newMax new maximum\n     */\n    function setCallbackAutoExecuteMaxAddresses(uint256 newMax) external onlyOwner {\n        _config.callbackAutoExecuteMaxAddresses = newMax;\n    }\n\n    /**\n     * @dev Propose to buy the whole supply of a token.\n     * The proposer must hold minHoldingForCallback% of the total supply.\n     * StashBlox must approve the price with acceptCallback();\n     * @param tokenId Token ID\n     * @param price proposed price\n     * @param callees list of calless. Empty list means all holders.\n     */\n    function proposeCallback(uint256 callbackId, uint256 tokenId, uint256 price, address[] memory callees, uint256 documentHash) external payable {\n        require(_callbacks[callbackId].tokenId == 0 && _tokens[tokenId].supply > 0 &&\n                msg.value >= _callbackPrice(tokenId, price, callees) &&\n                callees.length <= _config.callbackAutoExecuteMaxAddresses, \"Invalid arguments or value\");\n\n        uint256 minHolding = (_tokens[tokenId].supply.mul(_tokens[tokenId].minHoldingForCallback)).div(10000);\n\n        _callbacks[callbackId] = Callback({\n            tokenId: tokenId,\n            caller: msg.sender,\n            callees: callees,\n            price: price,\n            escrowedAmount: msg.value,\n            needLegalApproval: (price == 0) ||\n                               (_tokens[tokenId].holders[msg.sender].balance < minHolding) ||\n                               (callees.length > 0),\n            approvedByLegal: false,\n            refused: false,\n            accepted: false,\n            callCounter: 0,\n            completed: false,\n            documentHash: documentHash\n        });\n\n        emit CallbackUpdated(callbackId);\n    }\n\n    /**\n     * @dev Refuse a callback if the price is not enough.\n     * @param callbackId callback proposition ID\n     */\n    function refuseCallback(uint256 callbackId) external {\n        Callback memory callback = _callbacks[callbackId];\n\n        require(callback.tokenId != 0 &&\n                callback.refused == false &&\n                callback.accepted == false &&\n                (_isMaintener(callback.tokenId, msg.sender) ||\n                 _isLegalAuthority(callback.tokenId, msg.sender) ||\n                 msg.sender == callback.caller), \"Invalid arguments or permission\");\n\n        _callbacks[callbackId].refused = true;\n        _users[callback.caller].ETHBalance += callback.escrowedAmount;\n\n        emit CallbackUpdated(callbackId);\n    }\n\n    /**\n     * @dev Approve a callback\n     * @param callbackId callback proposition ID\n     */\n    function approveCallback(uint256 callbackId) external {\n        Callback memory callback = _callbacks[callbackId];\n\n        require(callback.tokenId != 0 &&\n                _isLegalAuthority(callback.tokenId, msg.sender) &&\n                callback.refused == false &&\n                callback.accepted == false, \"Invalid arguments or permission\");\n\n        _callbacks[callbackId].approvedByLegal = true;\n\n        emit CallbackUpdated(callbackId);\n    }\n\n    /**\n     * @dev Accept a callback\n     * @param callbackId callback proposition ID\n     */\n    function acceptCallback(uint256 callbackId) external {\n        Callback memory callback = _callbacks[callbackId];\n\n        require(callback.tokenId != 0 &&\n                _isMaintener(callback.tokenId, msg.sender) &&\n                (!callback.needLegalApproval || callback.approvedByLegal) &&\n                callback.refused == false &&\n                callback.accepted == false &&\n                callback.escrowedAmount >= _callbackPrice(callback.tokenId, callback.price, callback.callees),\n                \"Insufficient callback, permission or escrowed amount\");\n\n        _callbacks[callbackId].accepted = true;\n\n        emit CallbackUpdated(callbackId);\n\n        if (callback.callees.length > 0) {\n            _executeCallback(callbackId, callback.callees.length);\n        } else if (_tokens[callback.tokenId].holderList.length <= _config.callbackAutoExecuteMaxAddresses) {\n            _executeCallback(callbackId, _tokens[callback.tokenId].holderList.length);\n        } else {\n            _lockToken(callback.tokenId, callback.documentHash);\n        }\n    }\n\n    /**\n     * @dev Accept a callback. Caller need to recall the function to continue the callback until completed.\n     * @param callbackId callback proposition ID\n     * @param maxCall maximal call to excute\n     */\n    function executeCallback(uint256 callbackId, uint256 maxCall) external {\n        Callback memory callback = _callbacks[callbackId];\n\n        require(callback.tokenId != 0 &&\n                callback.accepted == true &&\n                callback.completed == false, \"Invalid callback\");\n\n        _executeCallback(callbackId, maxCall);\n\n        if (_callbacks[callbackId].completed) {\n            _unlockToken(callback.tokenId, callback.documentHash);\n        }\n    }\n\n\n    function _executeCallback(uint256 callbackId, uint256 maxCall) internal {\n        uint256 tokenId = _callbacks[callbackId].tokenId;\n\n        address[] memory callees = _callbacks[callbackId].callees.length > 0 ?\n                                   _callbacks[callbackId].callees :\n                                   _tokens[tokenId].holderList;\n\n        uint256 max = callees.length - 1;\n        uint256 start = _callbacks[callbackId].callCounter;\n        uint256 end = start + maxCall <  max ? start + maxCall : max;\n\n        uint256 callbackAmount = 0;\n        for (uint256 i = start; i <= end; i++) {\n            address callee = callees[i];\n            if (_tokens[tokenId].holders[callee].balance > 0) {\n                callbackAmount += _tokens[tokenId].holders[callee].balance;\n                _users[callee].ETHBalance += _tokens[tokenId].holders[callee].balance.mul(_callbacks[callbackId].price);\n\n                emit TransferSingle(msg.sender,\n                                    callee,\n                                    _callbacks[callbackId].caller,\n                                    tokenId,\n                                    _tokens[tokenId].holders[callee].balance);\n\n                _tokens[tokenId].holders[callee].balance = 0;\n            }\n        }\n        _addToBalance(_callbacks[callbackId].caller, tokenId, callbackAmount);\n\n        _callbacks[callbackId].callCounter = end;\n        if (end == max) {\n            _callbacks[callbackId].completed = true;\n            emit CallbackUpdated(callbackId);\n        }\n    }\n\n\n    /***************************************\n    WITHDRAWAL\n    ****************************************/\n\n\n    /**\n     * @dev Function to withdraw ETH from the contract.\n     * @param to recipent address\n     * @param amount amount to withdraw\n     */\n    function withdraw(address to, uint256 amount) external onlyOwner {\n        require(_users[to].ETHBalance >= amount, \"Insufficient balance\");\n        (bool success, ) = to.call{value: amount}(\"\");\n        require(success, \"Withdrawal failed\");\n        _users[to].ETHBalance -= amount;\n    }\n\n    /**\n     * @dev Function to make an ETH deposit that can be used to pay token transfer .\n     * @param to recipent address\n     */\n    function deposit(address to) external payable {\n        _users[to].ETHBalance += msg.value;\n    }\n\n    /**\n     * @dev Receive Ether Function:this is the function that is executed on plain Ether transfers (e.g. via .send() or .transfer()).\n     */\n    receive() external payable {\n        _users[msg.sender].ETHBalance += msg.value;\n    }\n\n\n    /***************************************\n    UTILS\n    ****************************************/\n\n    /**\n     * @param id Token ID\n     * @return URI string\n     */\n    function uri(uint256 id) external view override returns (string memory) {\n        return _strConcat(_config.baseURI, _toHexString(id));\n    }\n\n    /**\n     * @dev Function to update the operator whitelist\n     * @param proxyAddresses List of addresses\n     */\n    function setProxyRegistryAddress(address[10] memory proxyAddresses) external onlyOwner {\n        _config.proxyRegistryAddresses = proxyAddresses;\n    }\n\n\n    // /**\n    //  * @dev Function to get token supply\n    //  * @param id Token ID\n    //  * @return Token supply\n    //  */\n    // function totalSupply(uint256 id) external view returns (uint256) {\n    //     return _supplies[id];\n    // }\n\n\n}\n",
  "sourcePath": "/home/ouziel/Work/StashBloxContracts/contracts/StashBlox.sol",
  "compiler": {
    "name": "solc",
    "version": "0.7.1+commit.f4a555be.Emscripten.clang"
  },
  "schemaVersion": "3.2.3",
  "updatedAt": "2020-10-20T09:37:07.995Z",
  "devdoc": {
    "kind": "dev",
    "methods": {
      "acceptCallback(uint256)": {
        "details": "Accept a callback",
        "params": {
          "callbackId": "callback proposition ID"
        }
      },
      "approveCallback(uint256)": {
        "details": "Approve a callback",
        "params": {
          "callbackId": "callback proposition ID"
        }
      },
      "approveHolder(uint256,address)": {
        "details": "Function to approve holder for a private token.",
        "params": {
          "holder": "The authorized address",
          "id": "the token id"
        }
      },
      "authorizeMaintener(uint256,address)": {
        "details": "Function to authorize an address to maintain a token.",
        "params": {
          "maintener": "The authorized address"
        }
      },
      "authorizeTokenizer(address)": {
        "details": "Function to authorize an address to create a token.",
        "params": {
          "tokenizer": "The authorized address"
        }
      },
      "balanceOf(address,uint256)": {
        "details": "Get the specified address' balance for token with specified ID. Attempting to query the zero account for a balance will result in a revert.",
        "params": {
          "account": "The address of the token holder",
          "id": "ID of the token"
        },
        "returns": {
          "_0": "The account's balance of the token type requested"
        }
      },
      "balanceOfBatch(address[],uint256[])": {
        "details": "Get the balance of multiple account/token pairs. If any of the query accounts is the zero account, this query will revert.",
        "params": {
          "accounts": "The addresses of the token holders",
          "ids": "IDs of the tokens"
        },
        "returns": {
          "_0": "Balances for each account and token id pair"
        }
      },
      "cloneToken(uint256,uint256[],uint256[])": {
        "details": "Function to mint tokens in batch.",
        "params": {
          "id": "Identifier of the template",
          "ids": "list of IDs of the tokens to be minted",
          "metadataHashes": "list of metadata file hashes"
        }
      },
      "constructor": {
        "details": "Initializes the contract setting the deployer as the initial owner."
      },
      "createToken(address,uint256,uint256,uint256,uint256,uint256[3],address[],uint256[],uint256,bool,address)": {
        "details": "Function to mint an amount of a token with the given ID.",
        "params": {
          "feesRecipients": "list of addresses receiving transfer fees",
          "feesRecipientsPercentage": "list of percentage, each one for the corresponding feesRecipients",
          "id": "ID of the token to be minted",
          "metadataHash": "Metadata file hash",
          "minHoldingForCallback": "minimum holding to propose a callback",
          "recipient": "The address that will own the minted tokens",
          "supply": "Amount of the token to be minted",
          "transactionFees": "transaction fees: [lumpSumFees (in WEI), valueProportionalFees (ratio of transfered amount * 10**8), storageFees (in storageCredit * 10**8)]"
        }
      },
      "deposit(address)": {
        "details": "Function to make an ETH deposit that can be used to pay token transfer .",
        "params": {
          "to": "recipent address"
        }
      },
      "executeCallback(uint256,uint256)": {
        "details": "Accept a callback. Caller need to recall the function to continue the callback until completed.",
        "params": {
          "callbackId": "callback proposition ID",
          "maxCall": "maximal call to excute"
        }
      },
      "isApprovedForAll(address,address)": {
        "params": {
          "account": "The account of the Tokens",
          "operator": "Address of authorized operator"
        },
        "returns": {
          "_0": "True if the operator is approved, false if not"
        }
      },
      "isLockedAddress(address)": {
        "details": "Function to check if an address is lockec.",
        "params": {
          "addr": "The address to check"
        }
      },
      "isLockedToken(uint256)": {
        "details": "Function to check if a token is locked.",
        "params": {
          "id": "The token ID"
        }
      },
      "isMaintener(uint256,address)": {
        "details": "Function to check if an address is authorized to maintain a token.",
        "params": {
          "id": "the token id",
          "maintener": "The authorized address"
        },
        "returns": {
          "_0": "true if it's a maintener address"
        }
      },
      "isTokenizer(address)": {
        "details": "Function to check if an address is authorized to create a token.",
        "params": {
          "tokenizer": "The authorized address"
        }
      },
      "lockAddress(address)": {
        "details": "Function to lock an address.",
        "params": {
          "addr": "The address to lock"
        }
      },
      "lockToken(uint256,uint256)": {
        "details": "Function to lock a token.",
        "params": {
          "id": "The token ID"
        }
      },
      "owner()": {
        "details": "Returns the address of the current owner."
      },
      "proposeCallback(uint256,uint256,uint256,address[],uint256)": {
        "details": "Propose to buy the whole supply of a token. The proposer must hold minHoldingForCallback% of the total supply. StashBlox must approve the price with acceptCallback();",
        "params": {
          "callees": "list of calless. Empty list means all holders.",
          "price": "proposed price",
          "tokenId": "Token ID"
        }
      },
      "refuseCallback(uint256)": {
        "details": "Refuse a callback if the price is not enough.",
        "params": {
          "callbackId": "callback proposition ID"
        }
      },
      "revokeHolder(uint256,address)": {
        "details": "Function to revoke holder for a private token.",
        "params": {
          "holder": "The authorized address",
          "id": "the token id"
        }
      },
      "revokeMaintener(uint256,address)": {
        "details": "Function to revoke the authorization to maintain a token.",
        "params": {
          "id": "the token id",
          "maintener": "The authorized address"
        }
      },
      "revokeTokenizer(address)": {
        "details": "Function to revoke the authorization to create a token.",
        "params": {
          "tokenizer": "The authorized address"
        }
      },
      "safeBatchTransferFrom(address,address,uint256[],uint256[],bytes)": {
        "details": "Transfers `values` amount(s) of `ids` from the `from` address to the `to` address specified. Caller must be approved to manage the tokens being transferred out of the `from` account. If `to` is a smart contract, will call `onERC1155BatchReceived` on `to` and act appropriately.",
        "params": {
          "data": "Data forwarded to `onERC1155Received` if `to` is a contract receiver",
          "from": "Source address",
          "ids": "IDs of each token type",
          "to": "Target address",
          "values": "Transfer amounts per token type"
        }
      },
      "safeTransferFrom(address,address,uint256,uint256,bytes)": {
        "details": "Transfers `value` amount of an `id` from the `from` address to the `to` address specified. Caller must be approved to manage the tokens being transferred out of the `from` account. If `to` is a smart contract, will call `onERC1155Received` on `to` and act appropriately.",
        "params": {
          "data": "Data forwarded to `onERC1155Received` if `to` is a contract receiver",
          "from": "Source address",
          "id": "ID of the token type",
          "to": "Target address",
          "value": "Transfer amount"
        }
      },
      "setApprovalForAll(address,bool)": {
        "details": "Sets or unsets the approval of a given operator. An operator is allowed to transfer all tokens of the sender on their behalf. Because an account already has operator privileges for itself, this function will revert if the account attempts to set the approval status for itself.",
        "params": {
          "approved": "representing the status of the approval to be set",
          "operator": "address to set the approval"
        }
      },
      "setCallbackAutoExecuteMaxAddresses(uint256)": {
        "details": "Maximum addresses to execute automatically the callback when is accepted.",
        "params": {
          "newMax": "new maximum"
        }
      },
      "setProxyRegistryAddress(address[10])": {
        "details": "Function to update the operator whitelist",
        "params": {
          "proxyAddresses": "List of addresses"
        }
      },
      "supportsInterface(bytes4)": {
        "params": {
          "_interfaceID": "The interface identifier, as specified in ERC-165"
        },
        "returns": {
          "_0": "`true` if the contract implements `_interfaceID` and"
        }
      },
      "transactionFees(address,uint256,uint256)": {
        "details": "Function to get the transaction price to transfer tokens.",
        "params": {
          "account": "the address from where to transfer the tokens",
          "id": "The token ID",
          "value": "The amount to transfer"
        }
      },
      "transferOwnership(address)": {
        "details": "Transfers ownership of the contract to a new account (`newOwner`). Can only be called by the current owner."
      },
      "unlockAddress(address)": {
        "details": "Function to unlock an address.",
        "params": {
          "addr": "The address to unlock"
        }
      },
      "unlockToken(uint256,uint256)": {
        "details": "Function to unlock a token.",
        "params": {
          "id": "The token ID"
        }
      },
      "uri(uint256)": {
        "params": {
          "id": "Token ID"
        },
        "returns": {
          "_0": "URI string"
        }
      },
      "withdraw(address,uint256)": {
        "details": "Function to withdraw ETH from the contract.",
        "params": {
          "amount": "amount to withdraw",
          "to": "recipent address"
        }
      }
    },
    "version": 1
  },
  "userdoc": {
    "kind": "user",
    "methods": {
      "isApprovedForAll(address,address)": {
        "notice": "Queries the approval status of an operator for a given account."
      },
      "supportsInterface(bytes4)": {
        "notice": "Query if a contract implements an interface"
      }
    },
    "version": 1
  }
}