{
  "contractName": "StashBlox",
  "abi": [
    {
      "anonymous": false,
      "inputs": [
        {
          "indexed": true,
          "internalType": "address",
          "name": "_owner",
          "type": "address"
        },
        {
          "indexed": true,
          "internalType": "address",
          "name": "_operator",
          "type": "address"
        },
        {
          "indexed": false,
          "internalType": "bool",
          "name": "_approved",
          "type": "bool"
        }
      ],
      "name": "ApprovalForAll",
      "type": "event"
    },
    {
      "anonymous": false,
      "inputs": [
        {
          "indexed": true,
          "internalType": "uint256",
          "name": "_id",
          "type": "uint256"
        },
        {
          "indexed": false,
          "internalType": "address",
          "name": "_proposer",
          "type": "address"
        },
        {
          "indexed": false,
          "internalType": "uint256",
          "name": "_price",
          "type": "uint256"
        }
      ],
      "name": "CallbackAccepted",
      "type": "event"
    },
    {
      "anonymous": false,
      "inputs": [
        {
          "indexed": true,
          "internalType": "uint256",
          "name": "_id",
          "type": "uint256"
        },
        {
          "indexed": false,
          "internalType": "address",
          "name": "_proposer",
          "type": "address"
        },
        {
          "indexed": false,
          "internalType": "uint256",
          "name": "_price",
          "type": "uint256"
        }
      ],
      "name": "CallbackProposed",
      "type": "event"
    },
    {
      "anonymous": false,
      "inputs": [
        {
          "indexed": true,
          "internalType": "uint256",
          "name": "_id",
          "type": "uint256"
        },
        {
          "indexed": false,
          "internalType": "address",
          "name": "_proposer",
          "type": "address"
        },
        {
          "indexed": false,
          "internalType": "uint256",
          "name": "_price",
          "type": "uint256"
        }
      ],
      "name": "CallbackRefused",
      "type": "event"
    },
    {
      "anonymous": false,
      "inputs": [
        {
          "indexed": true,
          "internalType": "uint256",
          "name": "_id",
          "type": "uint256"
        },
        {
          "indexed": true,
          "internalType": "uint256",
          "name": "_hash",
          "type": "uint256"
        }
      ],
      "name": "MetadataHashUpdated",
      "type": "event"
    },
    {
      "anonymous": false,
      "inputs": [
        {
          "indexed": true,
          "internalType": "address",
          "name": "previousOwner",
          "type": "address"
        },
        {
          "indexed": true,
          "internalType": "address",
          "name": "newOwner",
          "type": "address"
        }
      ],
      "name": "OwnershipTransferred",
      "type": "event"
    },
    {
      "anonymous": false,
      "inputs": [
        {
          "indexed": true,
          "internalType": "address",
          "name": "_operator",
          "type": "address"
        },
        {
          "indexed": true,
          "internalType": "address",
          "name": "_from",
          "type": "address"
        },
        {
          "indexed": true,
          "internalType": "address",
          "name": "_to",
          "type": "address"
        },
        {
          "indexed": false,
          "internalType": "uint256[]",
          "name": "_ids",
          "type": "uint256[]"
        },
        {
          "indexed": false,
          "internalType": "uint256[]",
          "name": "_values",
          "type": "uint256[]"
        }
      ],
      "name": "TransferBatch",
      "type": "event"
    },
    {
      "anonymous": false,
      "inputs": [
        {
          "indexed": true,
          "internalType": "address",
          "name": "_operator",
          "type": "address"
        },
        {
          "indexed": true,
          "internalType": "address",
          "name": "_from",
          "type": "address"
        },
        {
          "indexed": true,
          "internalType": "address",
          "name": "_to",
          "type": "address"
        },
        {
          "indexed": false,
          "internalType": "uint256",
          "name": "_id",
          "type": "uint256"
        },
        {
          "indexed": false,
          "internalType": "uint256",
          "name": "_value",
          "type": "uint256"
        }
      ],
      "name": "TransferSingle",
      "type": "event"
    },
    {
      "anonymous": false,
      "inputs": [
        {
          "indexed": false,
          "internalType": "string",
          "name": "_value",
          "type": "string"
        },
        {
          "indexed": true,
          "internalType": "uint256",
          "name": "_id",
          "type": "uint256"
        }
      ],
      "name": "URI",
      "type": "event"
    },
    {
      "anonymous": false,
      "inputs": [
        {
          "indexed": true,
          "internalType": "address",
          "name": "_tokenizer",
          "type": "address"
        },
        {
          "indexed": false,
          "internalType": "uint256",
          "name": "_id",
          "type": "uint256"
        },
        {
          "indexed": false,
          "internalType": "uint256",
          "name": "_cost",
          "type": "uint256"
        }
      ],
      "name": "UpdateStorageCost",
      "type": "event"
    },
    {
      "anonymous": false,
      "inputs": [
        {
          "indexed": true,
          "internalType": "address",
          "name": "_owner",
          "type": "address"
        },
        {
          "indexed": false,
          "internalType": "uint256",
          "name": "_price",
          "type": "uint256"
        }
      ],
      "name": "UpdateStorageCreditPrice",
      "type": "event"
    },
    {
      "inputs": [],
      "name": "BASE_URI",
      "outputs": [
        {
          "internalType": "string",
          "name": "",
          "type": "string"
        }
      ],
      "stateMutability": "view",
      "type": "function"
    },
    {
      "inputs": [
        {
          "internalType": "address",
          "name": "",
          "type": "address"
        }
      ],
      "name": "_ETHBalances",
      "outputs": [
        {
          "internalType": "uint256",
          "name": "",
          "type": "uint256"
        }
      ],
      "stateMutability": "view",
      "type": "function"
    },
    {
      "inputs": [
        {
          "internalType": "uint256",
          "name": "",
          "type": "uint256"
        },
        {
          "internalType": "uint256",
          "name": "",
          "type": "uint256"
        }
      ],
      "name": "_addressesByToken",
      "outputs": [
        {
          "internalType": "address",
          "name": "",
          "type": "address"
        }
      ],
      "stateMutability": "view",
      "type": "function"
    },
    {
      "inputs": [
        {
          "internalType": "uint256",
          "name": "",
          "type": "uint256"
        },
        {
          "internalType": "address",
          "name": "",
          "type": "address"
        }
      ],
      "name": "_balances",
      "outputs": [
        {
          "internalType": "uint256",
          "name": "",
          "type": "uint256"
        }
      ],
      "stateMutability": "view",
      "type": "function"
    },
    {
      "inputs": [
        {
          "internalType": "uint256",
          "name": "",
          "type": "uint256"
        },
        {
          "internalType": "address",
          "name": "",
          "type": "address"
        }
      ],
      "name": "_birthdays",
      "outputs": [
        {
          "internalType": "uint256",
          "name": "",
          "type": "uint256"
        }
      ],
      "stateMutability": "view",
      "type": "function"
    },
    {
      "inputs": [
        {
          "internalType": "address",
          "name": "",
          "type": "address"
        },
        {
          "internalType": "uint256",
          "name": "",
          "type": "uint256"
        }
      ],
      "name": "_tokensByAddress",
      "outputs": [
        {
          "internalType": "uint256",
          "name": "",
          "type": "uint256"
        }
      ],
      "stateMutability": "view",
      "type": "function"
    },
    {
      "inputs": [
        {
          "internalType": "address",
          "name": "account",
          "type": "address"
        },
        {
          "internalType": "uint256",
          "name": "id",
          "type": "uint256"
        }
      ],
      "name": "balanceOf",
      "outputs": [
        {
          "internalType": "uint256",
          "name": "",
          "type": "uint256"
        }
      ],
      "stateMutability": "view",
      "type": "function"
    },
    {
      "inputs": [
        {
          "internalType": "address[]",
          "name": "accounts",
          "type": "address[]"
        },
        {
          "internalType": "uint256[]",
          "name": "ids",
          "type": "uint256[]"
        }
      ],
      "name": "balanceOfBatch",
      "outputs": [
        {
          "internalType": "uint256[]",
          "name": "",
          "type": "uint256[]"
        }
      ],
      "stateMutability": "view",
      "type": "function"
    },
    {
      "inputs": [
        {
          "internalType": "address",
          "name": "account",
          "type": "address"
        },
        {
          "internalType": "address",
          "name": "operator",
          "type": "address"
        }
      ],
      "name": "isApprovedForAll",
      "outputs": [
        {
          "internalType": "bool",
          "name": "",
          "type": "bool"
        }
      ],
      "stateMutability": "view",
      "type": "function"
    },
    {
      "inputs": [
        {
          "internalType": "uint256",
          "name": "id",
          "type": "uint256"
        }
      ],
      "name": "metadataHash",
      "outputs": [
        {
          "internalType": "uint256",
          "name": "",
          "type": "uint256"
        }
      ],
      "stateMutability": "view",
      "type": "function"
    },
    {
      "inputs": [],
      "name": "owner",
      "outputs": [
        {
          "internalType": "address",
          "name": "",
          "type": "address"
        }
      ],
      "stateMutability": "view",
      "type": "function"
    },
    {
      "inputs": [
        {
          "internalType": "address",
          "name": "from",
          "type": "address"
        },
        {
          "internalType": "address",
          "name": "to",
          "type": "address"
        },
        {
          "internalType": "uint256[]",
          "name": "ids",
          "type": "uint256[]"
        },
        {
          "internalType": "uint256[]",
          "name": "values",
          "type": "uint256[]"
        },
        {
          "internalType": "bytes",
          "name": "data",
          "type": "bytes"
        }
      ],
      "name": "safeBatchTransferFrom",
      "outputs": [],
      "stateMutability": "payable",
      "type": "function"
    },
    {
      "inputs": [
        {
          "internalType": "address",
          "name": "from",
          "type": "address"
        },
        {
          "internalType": "address",
          "name": "to",
          "type": "address"
        },
        {
          "internalType": "uint256",
          "name": "id",
          "type": "uint256"
        },
        {
          "internalType": "uint256",
          "name": "value",
          "type": "uint256"
        },
        {
          "internalType": "bytes",
          "name": "data",
          "type": "bytes"
        }
      ],
      "name": "safeTransferFrom",
      "outputs": [],
      "stateMutability": "payable",
      "type": "function"
    },
    {
      "inputs": [
        {
          "internalType": "address",
          "name": "operator",
          "type": "address"
        },
        {
          "internalType": "bool",
          "name": "approved",
          "type": "bool"
        }
      ],
      "name": "setApprovalForAll",
      "outputs": [],
      "stateMutability": "nonpayable",
      "type": "function"
    },
    {
      "inputs": [
        {
          "internalType": "bytes4",
          "name": "_interfaceID",
          "type": "bytes4"
        }
      ],
      "name": "supportsInterface",
      "outputs": [
        {
          "internalType": "bool",
          "name": "",
          "type": "bool"
        }
      ],
      "stateMutability": "pure",
      "type": "function"
    },
    {
      "inputs": [
        {
          "internalType": "address",
          "name": "newOwner",
          "type": "address"
        }
      ],
      "name": "transferOwnership",
      "outputs": [],
      "stateMutability": "nonpayable",
      "type": "function"
    },
    {
      "inputs": [
        {
          "internalType": "uint256",
          "name": "id",
          "type": "uint256"
        }
      ],
      "name": "uri",
      "outputs": [
        {
          "internalType": "string",
          "name": "",
          "type": "string"
        }
      ],
      "stateMutability": "pure",
      "type": "function"
    },
    {
      "inputs": [
        {
          "internalType": "address",
          "name": "tokenizer",
          "type": "address"
        }
      ],
      "name": "authorizeTokenizer",
      "outputs": [],
      "stateMutability": "nonpayable",
      "type": "function"
    },
    {
      "inputs": [
        {
          "internalType": "address",
          "name": "tokenizer",
          "type": "address"
        }
      ],
      "name": "revokeTokenizer",
      "outputs": [],
      "stateMutability": "nonpayable",
      "type": "function"
    },
    {
      "inputs": [
        {
          "internalType": "address",
          "name": "tokenizer",
          "type": "address"
        }
      ],
      "name": "isTokenizer",
      "outputs": [
        {
          "internalType": "bool",
          "name": "",
          "type": "bool"
        }
      ],
      "stateMutability": "view",
      "type": "function"
    },
    {
      "inputs": [
        {
          "internalType": "uint256",
          "name": "id",
          "type": "uint256"
        },
        {
          "internalType": "address",
          "name": "maintener",
          "type": "address"
        }
      ],
      "name": "authorizeMaintener",
      "outputs": [],
      "stateMutability": "nonpayable",
      "type": "function"
    },
    {
      "inputs": [
        {
          "internalType": "uint256",
          "name": "id",
          "type": "uint256"
        },
        {
          "internalType": "address",
          "name": "maintener",
          "type": "address"
        }
      ],
      "name": "revokeMaintener",
      "outputs": [],
      "stateMutability": "nonpayable",
      "type": "function"
    },
    {
      "inputs": [
        {
          "internalType": "uint256",
          "name": "id",
          "type": "uint256"
        },
        {
          "internalType": "address",
          "name": "maintener",
          "type": "address"
        }
      ],
      "name": "isMaintener",
      "outputs": [
        {
          "internalType": "bool",
          "name": "",
          "type": "bool"
        }
      ],
      "stateMutability": "view",
      "type": "function"
    },
    {
      "inputs": [
        {
          "internalType": "uint256",
          "name": "id",
          "type": "uint256"
        }
      ],
      "name": "lockToken",
      "outputs": [],
      "stateMutability": "nonpayable",
      "type": "function"
    },
    {
      "inputs": [
        {
          "internalType": "uint256",
          "name": "id",
          "type": "uint256"
        }
      ],
      "name": "unlockToken",
      "outputs": [],
      "stateMutability": "nonpayable",
      "type": "function"
    },
    {
      "inputs": [
        {
          "internalType": "uint256",
          "name": "id",
          "type": "uint256"
        }
      ],
      "name": "isLockedToken",
      "outputs": [
        {
          "internalType": "bool",
          "name": "",
          "type": "bool"
        }
      ],
      "stateMutability": "view",
      "type": "function"
    },
    {
      "inputs": [
        {
          "internalType": "address",
          "name": "addr",
          "type": "address"
        }
      ],
      "name": "lockAddress",
      "outputs": [],
      "stateMutability": "nonpayable",
      "type": "function"
    },
    {
      "inputs": [
        {
          "internalType": "address",
          "name": "addr",
          "type": "address"
        }
      ],
      "name": "unlockAddress",
      "outputs": [],
      "stateMutability": "nonpayable",
      "type": "function"
    },
    {
      "inputs": [
        {
          "internalType": "address",
          "name": "addr",
          "type": "address"
        }
      ],
      "name": "isLockedAddress",
      "outputs": [
        {
          "internalType": "bool",
          "name": "",
          "type": "bool"
        }
      ],
      "stateMutability": "view",
      "type": "function"
    },
    {
      "inputs": [
        {
          "internalType": "address",
          "name": "recipient",
          "type": "address"
        },
        {
          "internalType": "uint256",
          "name": "id",
          "type": "uint256"
        },
        {
          "internalType": "uint256",
          "name": "supply",
          "type": "uint256"
        },
        {
          "internalType": "uint256",
          "name": "metadataHash",
          "type": "uint256"
        },
        {
          "internalType": "uint256",
          "name": "storageCreditCost",
          "type": "uint256"
        },
        {
          "internalType": "uint256",
          "name": "minHoldingForCallback",
          "type": "uint256"
        },
        {
          "internalType": "address[]",
          "name": "feesRecipients",
          "type": "address[]"
        },
        {
          "internalType": "uint256[]",
          "name": "feesRecipientsPercentage",
          "type": "uint256[]"
        }
      ],
      "name": "createToken",
      "outputs": [],
      "stateMutability": "nonpayable",
      "type": "function"
    },
    {
      "inputs": [
        {
          "internalType": "uint256",
          "name": "id",
          "type": "uint256"
        },
        {
          "internalType": "uint256",
          "name": "metadataHash",
          "type": "uint256"
        }
      ],
      "name": "updateMetadataHash",
      "outputs": [],
      "stateMutability": "nonpayable",
      "type": "function"
    },
    {
      "inputs": [
        {
          "internalType": "uint256",
          "name": "id",
          "type": "uint256"
        },
        {
          "internalType": "uint256",
          "name": "newCost",
          "type": "uint256"
        }
      ],
      "name": "updateStorageCost",
      "outputs": [],
      "stateMutability": "nonpayable",
      "type": "function"
    },
    {
      "inputs": [
        {
          "internalType": "uint256",
          "name": "id",
          "type": "uint256"
        },
        {
          "internalType": "uint256",
          "name": "newMinHoldingForCallback",
          "type": "uint256"
        }
      ],
      "name": "updateMinHoldingForCallback",
      "outputs": [],
      "stateMutability": "nonpayable",
      "type": "function"
    },
    {
      "inputs": [
        {
          "internalType": "uint256",
          "name": "id",
          "type": "uint256"
        },
        {
          "internalType": "address[]",
          "name": "newFeesRecipients",
          "type": "address[]"
        },
        {
          "internalType": "uint256[]",
          "name": "newFeesRecipientsPercentage",
          "type": "uint256[]"
        }
      ],
      "name": "updateFeesRecipients",
      "outputs": [],
      "stateMutability": "nonpayable",
      "type": "function"
    },
    {
      "inputs": [
        {
          "internalType": "uint256",
          "name": "newPrice",
          "type": "uint256"
        }
      ],
      "name": "updateStorageCreditPrice",
      "outputs": [],
      "stateMutability": "nonpayable",
      "type": "function"
    },
    {
      "inputs": [
        {
          "internalType": "address",
          "name": "account",
          "type": "address"
        },
        {
          "internalType": "uint256",
          "name": "id",
          "type": "uint256"
        },
        {
          "internalType": "uint256",
          "name": "value",
          "type": "uint256"
        }
      ],
      "name": "storageFees",
      "outputs": [
        {
          "internalType": "uint256",
          "name": "",
          "type": "uint256"
        }
      ],
      "stateMutability": "view",
      "type": "function"
    },
    {
      "inputs": [
        {
          "internalType": "uint256",
          "name": "id",
          "type": "uint256"
        },
        {
          "internalType": "uint256",
          "name": "price",
          "type": "uint256"
        }
      ],
      "name": "proposeCallback",
      "outputs": [],
      "stateMutability": "payable",
      "type": "function"
    },
    {
      "inputs": [
        {
          "internalType": "uint256",
          "name": "id",
          "type": "uint256"
        },
        {
          "internalType": "address",
          "name": "proposer",
          "type": "address"
        }
      ],
      "name": "refuseCallback",
      "outputs": [],
      "stateMutability": "nonpayable",
      "type": "function"
    },
    {
      "inputs": [
        {
          "internalType": "uint256",
          "name": "id",
          "type": "uint256"
        },
        {
          "internalType": "address",
          "name": "proposer",
          "type": "address"
        }
      ],
      "name": "acceptCallback",
      "outputs": [],
      "stateMutability": "nonpayable",
      "type": "function"
    },
    {
      "inputs": [
        {
          "internalType": "address",
          "name": "to",
          "type": "address"
        },
        {
          "internalType": "uint256",
          "name": "amount",
          "type": "uint256"
        }
      ],
      "name": "withdraw",
      "outputs": [],
      "stateMutability": "nonpayable",
      "type": "function"
    },
    {
      "inputs": [
        {
          "internalType": "uint256",
          "name": "id",
          "type": "uint256"
        }
      ],
      "name": "totalSupply",
      "outputs": [
        {
          "internalType": "uint256",
          "name": "",
          "type": "uint256"
        }
      ],
      "stateMutability": "view",
      "type": "function"
    },
    {
      "inputs": [
        {
          "internalType": "address",
          "name": "account",
          "type": "address"
        }
      ],
      "name": "tokensByAddress",
      "outputs": [
        {
          "internalType": "string",
          "name": "result",
          "type": "string"
        }
      ],
      "stateMutability": "view",
      "type": "function"
    },
    {
      "inputs": [
        {
          "internalType": "uint256",
          "name": "id",
          "type": "uint256"
        }
      ],
      "name": "addressesByToken",
      "outputs": [
        {
          "internalType": "string",
          "name": "result",
          "type": "string"
        }
      ],
      "stateMutability": "view",
      "type": "function"
    }
  ],
  "bytecode": "0x60806040526103e86005553480156200001757600080fd5b50620000233362000029565b620000e5565b6001600160a01b0381166200008a576040517f08c379a0000000000000000000000000000000000000000000000000000000008152600401808060200182810382526026815260200180620043556026913960400191505060405180910390fd5b600080546040516001600160a01b03808516939216917f8be0079c531659141344cd1fd0a4f28419497f9722a3daafe3b4186f6b6457e091a3600080546001600160a01b0319166001600160a01b0392909216919091179055565b61426080620000f56000396000f3fe60806040526004361061025b5760003560e01c8063a22cb46511610144578063d6bc5942116100b6578063ea2bd64d1161007a578063ea2bd64d14610e92578063ebc5af5314610ecb578063f242432a14610efb578063f2fde38b14610f8e578063f3fef3a314610fc1578063fc25a4da14610ffa5761025b565b8063d6bc594214610db2578063d7b80ebc14610de5578063dbddb26a14610e18578063dd2e0ac014610e2d578063e985e9c514610e575761025b565b8063bd85b03911610108578063bd85b03914610b4c578063c02f303c14610b76578063c4be3c3c14610ba9578063cba54e6014610be8578063cf6c97ca14610c1b578063d41d0aa314610d795761025b565b8063a22cb46514610a51578063a294007214610a8c578063b5690ac114610ac5578063b7eb5e0a14610aef578063bba75c8314610b225761025b565b80636b62becb116101dd57806380f20363116101a157806380f203631461094c5780638495b141146109765780638870147b146109a05780638aeba37e146109d35780638da5cb5b14610a0c578063939cd64114610a215761025b565b80636b62becb146108545780636eb987c7146108845780636fe8ded2146108bd57806370e0b145146108f65780637627b732146109195761025b565b8063219cc8bc11610224578063219cc8bc146105175780632eb2c2d61461054157806334a90d02146106685780634e1273f41461069b5780635dafec1b1461081b5761025b565b8062fdd58e1461026057806301ffc9a7146102ab5780630d897453146102f35780630e89341c1461042c578063119c0737146104cb575b600080fd5b34801561026c57600080fd5b506102996004803603604081101561028357600080fd5b506001600160a01b038135169060200135611033565b60408051918252519081900360200190f35b3480156102b757600080fd5b506102df600480360360208110156102ce57600080fd5b50356001600160e01b0319166110a5565b604080519115158252519081900360200190f35b3480156102ff57600080fd5b5061042a6004803603606081101561031657600080fd5b81359190810190604081016020820135600160201b81111561033757600080fd5b82018360208201111561034957600080fd5b803590602001918460208302840111600160201b8311171561036a57600080fd5b9190808060200260200160405190810160405280939291908181526020018383602002808284376000920191909152509295949360208101935035915050600160201b8111156103b957600080fd5b8201836020820111156103cb57600080fd5b803590602001918460208302840111600160201b831117156103ec57600080fd5b9190808060200260200160405190810160405280939291908181526020018383602002808284376000920191909152509295506110ec945050505050565b005b34801561043857600080fd5b506104566004803603602081101561044f57600080fd5b5035611143565b6040805160208082528351818301528351919283929083019185019080838360005b83811015610490578181015183820152602001610478565b50505050905090810190601f1680156104bd5780820380516001836020036101000a031916815260200191505b509250505060405180910390f35b3480156104d757600080fd5b506104fb600480360360408110156104ee57600080fd5b508035906020013561118c565b604080516001600160a01b039092168252519081900360200190f35b34801561052357600080fd5b506102996004803603602081101561053a57600080fd5b50356111c1565b61042a600480360360a081101561055757600080fd5b6001600160a01b038235811692602081013590911691810190606081016040820135600160201b81111561058a57600080fd5b82018360208201111561059c57600080fd5b803590602001918460208302840111600160201b831117156105bd57600080fd5b919390929091602081019035600160201b8111156105da57600080fd5b8201836020820111156105ec57600080fd5b803590602001918460208302840111600160201b8311171561060d57600080fd5b919390929091602081019035600160201b81111561062a57600080fd5b82018360208201111561063c57600080fd5b803590602001918460018302840111600160201b8311171561065d57600080fd5b5090925090506111d3565b34801561067457600080fd5b5061042a6004803603602081101561068b57600080fd5b50356001600160a01b03166114f5565b3480156106a757600080fd5b506107cb600480360360408110156106be57600080fd5b810190602081018135600160201b8111156106d857600080fd5b8201836020820111156106ea57600080fd5b803590602001918460208302840111600160201b8311171561070b57600080fd5b9190808060200260200160405190810160405280939291908181526020018383602002808284376000920191909152509295949360208101935035915050600160201b81111561075a57600080fd5b82018360208201111561076c57600080fd5b803590602001918460208302840111600160201b8311171561078d57600080fd5b919080806020026020016040519081016040528093929190818152602001838360200280828437600092019190915250929550611560945050505050565b60408051602080825283518183015283519192839290830191858101910280838360005b838110156108075781810151838201526020016107ef565b505050509050019250505060405180910390f35b34801561082757600080fd5b506102df6004803603604081101561083e57600080fd5b50803590602001356001600160a01b03166116de565b34801561086057600080fd5b5061042a6004803603604081101561087757600080fd5b50803590602001356116f1565b34801561089057600080fd5b50610299600480360360408110156108a757600080fd5b506001600160a01b038135169060200135611746565b3480156108c957600080fd5b5061042a600480360360408110156108e057600080fd5b50803590602001356001600160a01b0316611774565b61042a6004803603604081101561090c57600080fd5b50803590602001356118ba565b34801561092557600080fd5b5061042a6004803603602081101561093c57600080fd5b50356001600160a01b0316611adb565b34801561095857600080fd5b5061042a6004803603602081101561096f57600080fd5b5035611b46565b34801561098257600080fd5b5061042a6004803603602081101561099957600080fd5b5035611ba8565b3480156109ac57600080fd5b5061042a600480360360208110156109c357600080fd5b50356001600160a01b0316611c2d565b3480156109df57600080fd5b5061042a600480360360408110156109f657600080fd5b50803590602001356001600160a01b0316611c95565b348015610a1857600080fd5b506104fb611d0c565b348015610a2d57600080fd5b5061042a60048036036040811015610a4457600080fd5b5080359060200135611d1b565b348015610a5d57600080fd5b5061042a60048036036040811015610a7457600080fd5b506001600160a01b0381351690602001351515611d6b565b348015610a9857600080fd5b5061042a60048036036040811015610aaf57600080fd5b50803590602001356001600160a01b0316611e21565b348015610ad157600080fd5b5061045660048036036020811015610ae857600080fd5b503561217e565b348015610afb57600080fd5b5061042a60048036036020811015610b1257600080fd5b50356001600160a01b0316612257565b348015610b2e57600080fd5b506102df60048036036020811015610b4557600080fd5b50356122bf565b348015610b5857600080fd5b5061029960048036036020811015610b6f57600080fd5b50356122ca565b348015610b8257600080fd5b506102df60048036036020811015610b9957600080fd5b50356001600160a01b03166122dc565b348015610bb557600080fd5b5061029960048036036060811015610bcc57600080fd5b506001600160a01b0381351690602081013590604001356122e7565b348015610bf457600080fd5b506102df60048036036020811015610c0b57600080fd5b50356001600160a01b03166122fc565b348015610c2757600080fd5b5061042a6004803603610100811015610c3f57600080fd5b6001600160a01b038235169160208101359160408201359160608101359160808201359160a08101359181019060e0810160c0820135600160201b811115610c8657600080fd5b820183602082011115610c9857600080fd5b803590602001918460208302840111600160201b83111715610cb957600080fd5b9190808060200260200160405190810160405280939291908181526020018383602002808284376000920191909152509295949360208101935035915050600160201b811115610d0857600080fd5b820183602082011115610d1a57600080fd5b803590602001918460208302840111600160201b83111715610d3b57600080fd5b919080806020026020016040519081016040528093929190818152602001838360200280828437600092019190915250929550612307945050505050565b348015610d8557600080fd5b5061042a60048036036040811015610d9c57600080fd5b50803590602001356001600160a01b03166124a3565b348015610dbe57600080fd5b5061045660048036036020811015610dd557600080fd5b50356001600160a01b0316612517565b348015610df157600080fd5b5061029960048036036020811015610e0857600080fd5b50356001600160a01b031661262e565b348015610e2457600080fd5b50610456612640565b348015610e3957600080fd5b5061042a60048036036020811015610e5057600080fd5b5035612679565b348015610e6357600080fd5b506102df60048036036040811015610e7a57600080fd5b506001600160a01b03813581169160200135166126d8565b348015610e9e57600080fd5b5061029960048036036040811015610eb557600080fd5b50803590602001356001600160a01b0316612706565b348015610ed757600080fd5b5061042a60048036036040811015610eee57600080fd5b5080359060200135612723565b61042a600480360360a0811015610f1157600080fd5b6001600160a01b03823581169260208101359091169160408201359160608101359181019060a081016080820135600160201b811115610f5057600080fd5b820183602082011115610f6257600080fd5b803590602001918460018302840111600160201b83111715610f8357600080fd5b509092509050612773565b348015610f9a57600080fd5b5061042a60048036036020811015610fb157600080fd5b50356001600160a01b0316612969565b348015610fcd57600080fd5b5061042a60048036036040811015610fe457600080fd5b506001600160a01b0381351690602001356129bc565b34801561100657600080fd5b506102996004803603604081101561101d57600080fd5b50803590602001356001600160a01b0316612b3a565b60006001600160a01b03831661107a5760405162461bcd60e51b815260040180806020018281038252602b815260200180613d97602b913960400191505060405180910390fd5b5060008181526001602090815260408083206001600160a01b03861684529091529020545b92915050565b60006001600160e01b031982166301ffc9a760e01b14806110d657506001600160e01b03198216636cdb3d1360e11b145b156110e3575060016110e7565b5060005b919050565b826110f78133612b57565b6111325760405162461bcd60e51b81526004018080602001828103825260298152602001806141a66029913960400191505060405180910390fd5b61113d848484612b8b565b50505050565b606061109f6040518060400160405280601d81526020017f68747470733a2f2f7374617368626c6f782e636f6d2f746f6b656e732f00000081525061118784612cf4565b612db0565b600a60205281600052604060002081815481106111a557fe5b6000918252602090912001546001600160a01b03169150829050565b60009081526013602052604090205490565b8483146112115760405162461bcd60e51b815260040180806020018281038252602e815260200180614178602e913960400191505060405180910390fd5b6001600160a01b0387166112565760405162461bcd60e51b8152600401808060200182810382526028815260200180613de86028913960400191505060405180910390fd5b6001600160a01b038816331480611278575061127288336126d8565b15156001145b6112b35760405162461bcd60e51b81526004018080602001828103825260378152602001806141416037913960400191505060405180910390fd5b3460005b868110156112fc576112f08a8a8a8a858181106112d057fe5b905060200201358989868181106112e357fe5b9050602002013586612eba565b909103906001016112b7565b50876001600160a01b0316896001600160a01b0316336001600160a01b03167f4a39dc06d4c0dbc64b70af90fd698a233a518aa5d07e595d983b8c0526c8f7fb8a8a8a8a6040518080602001806020018381038352878782818152602001925060200280828437600083820152601f01601f19169091018481038352858152602090810191508690860280828437600083820152604051601f909101601f19169092018290039850909650505050505050a4611452338a8a8a8a8080602002602001604051908101604052809392919081815260200183836020028082843760009201919091525050604080516020808e0282810182019093528d82529093508d92508c91829185019084908082843760009201919091525050604080516020601f8d018190048102820181019092528b815292508b91508a908190840183828082843760009201919091525061309692505050565b80156114ea57604051600090339083908381818185875af1925050503d806000811461149a576040519150601f19603f3d011682016040523d82523d6000602084013e61149f565b606091505b50509050806114e8576040805162461bcd60e51b815260206004820152601060248201526f2a3930b739b332b9103330b4b632b21760811b604482015290519081900360640190fd5b505b505050505050505050565b6114fd61328f565b61153c576040805162461bcd60e51b81526020600482018190526024820152600080516020614004833981519152604482015290519081900360640190fd5b6001600160a01b03166000908152600d60205260409020805460ff19166001179055565b606081518351146115a25760405162461bcd60e51b8152600401808060200182810382526030815260200180613ebd6030913960400191505060405180910390fd5b6060835167ffffffffffffffff811180156115bc57600080fd5b506040519080825280602002602001820160405280156115e6578160200160208202803683370190505b50905060005b84518110156116d65760006001600160a01b031685828151811061160c57fe5b60200260200101516001600160a01b0316141561165a5760405162461bcd60e51b8152600401808060200182810382526034815260200180613f4b6034913960400191505060405180910390fd5b6001600085838151811061166a57fe5b60200260200101518152602001908152602001600020600086838151811061168e57fe5b60200260200101516001600160a01b03166001600160a01b03168152602001908152602001600020548282815181106116c357fe5b60209081029190910101526001016115ec565b509392505050565b60006116ea8383612b57565b9392505050565b816116fc8133612b57565b6117375760405162461bcd60e51b81526004018080602001828103825260298152602001806141a66029913960400191505060405180910390fd5b61174183836132a0565b505050565b6009602052816000526040600020818154811061175f57fe5b90600052602060002001600091509150505481565b8161177f8133612b57565b6117ba5760405162461bcd60e51b81526004018080602001828103825260298152602001806141a66029913960400191505060405180910390fd5b6000838152600e602090815260408083206001600160a01b038616845290915290208054600190910154816118205760405162461bcd60e51b815260040180806020018281038252602a815260200180614059602a913960400191505060405180910390fd5b6001600160a01b038416600081815260086020908152604080832080548601905580518082018252838152808301849052898452600e835281842094845293909152902061186f916002613c1e565b50604080516001600160a01b038616815260208101849052815187927fd7e908f6f9af1236bea3e4382bb17cabca5929dec62fbb431284240820150ddd928290030190a25050505050565b60008281526002602052604090205461191a576040805162461bcd60e51b815260206004820152601960248201527f5374617368426c6f783a20556e6b6e6f776e20746f6b656e2e00000000000000604482015290519081900360640190fd5b600081116119595760405162461bcd60e51b8152600401808060200182810382526028815260200180613e3c6028913960400191505060405180910390fd5b600082815260116020908152604080832054600290925282205461198a9161271091611984916132df565b90613338565b60008481526001602090815260408083203384529091529020549091508111156119e55760405162461bcd60e51b8152600401808060200182810382526036815260200180613e876036913960400191505060405180910390fd5b60008381526001602090815260408083203384528252808320548684526002909252822054611a139161337a565b90506000611a2182856132df565b905080341015611a625760405162461bcd60e51b81526004018080602001828103825260358152602001806140246035913960400191505060405180910390fd5b604080518082018252858152346020808301919091526000888152600e825283812033825290915291909120611a99916002613c61565b506040805133815260208101869052815187927f2a7673db20f80755f65f456687dc9fd630454e8c76e428cb4a4ae1d0410cef5e928290030190a25050505050565b611ae361328f565b611b22576040805162461bcd60e51b81526020600482018190526024820152600080516020614004833981519152604482015290519081900360640190fd5b6001600160a01b03166000908152600f60205260409020805460ff19166001179055565b80611b518133612b57565b611b8c5760405162461bcd60e51b81526004018080602001828103825260298152602001806141a66029913960400191505060405180910390fd5b506000908152600c60205260409020805460ff19166001179055565b611bb061328f565b611bef576040805162461bcd60e51b81526020600482018190526024820152600080516020614004833981519152604482015290519081900360640190fd5b600581905560408051828152905133917f5c5a35dc0829d2f6a31d1d6da57c4315ba7b562ee447c87b75c732cfd96abde9919081900360200190a250565b611c3561328f565b611c74576040805162461bcd60e51b81526020600482018190526024820152600080516020614004833981519152604482015290519081900360640190fd5b6001600160a01b03166000908152600f60205260409020805460ff19169055565b611c9d61328f565b611cdc576040805162461bcd60e51b81526020600482018190526024820152600080516020614004833981519152604482015290519081900360640190fd5b60009182526010602090815260408084206001600160a01b0390931684529190529020805460ff19166001179055565b6000546001600160a01b031690565b81611d268133612b57565b611d615760405162461bcd60e51b81526004018080602001828103825260298152602001806141a66029913960400191505060405180910390fd5b61174183836133bc565b336001600160a01b0383161415611db35760405162461bcd60e51b815260040180806020018281038252602c815260200180613e10602c913960400191505060405180910390fd5b3360008181526012602090815260408083206001600160a01b03871680855290835292819020805460ff1916861515908117909155815190815290519293927f17307eab39ab6107e8899845ad3d59bd9653f200f220920489ca2b5937696c31929181900390910190a35050565b81611e2c8133612b57565b611e675760405162461bcd60e51b81526004018080602001828103825260298152602001806141a66029913960400191505060405180910390fd5b6000838152600e602090815260408083206001600160a01b03861684529091529020805460019091015481611ecd5760405162461bcd60e51b815260040180806020018281038252602a815260200180614059602a913960400191505060405180910390fd5b6000858152601160209081526040808320546002909252822054611ef89161271091611984916132df565b60008781526001602090815260408083206001600160a01b038a168452909152902054909150811115611f5c5760405162461bcd60e51b8152600401808060200182810382526038815260200180613d5f6038913960400191505060405180910390fd5b60008681526001602090815260408083206001600160a01b03891684528252808320548984526002909252822054611f939161337a565b90506000611fa182866132df565b905080841015611fe25760405162461bcd60e51b815260040180806020018281038252603f815260200180614102603f913960400191505060405180910390fd5b60005b6000898152600a602052604090205481101561209d576000898152600a6020526040812080548390811061201557fe5b60009182526020808320909101548c83526001825260408084206001600160a01b0390921680855291909252912054909150801561209357600061205989836132df565b6001600160a01b038416600081815260086020908152604080832080549095019094558f8252600181528382209282529190915290812055505b5050600101611fe5565b50600088815260026020908152604080832054600183528184206001600160a01b038c16855290925290912055808411156120f3576001600160a01b038716600090815260086020526040902080548286030190555b604080518082018252600080825260208083018290528b8252600e81528382206001600160a01b038c168352905291909120612130916002613c1e565b50604080516001600160a01b03891681526020810187905281518a927f1a28571d07f35a57e1ed755a57928ae32539f444bbcef661637165f04fb5083f928290030190a25050505050505050565b606060005b6000838152600a6020526040902054811015612251576000838152600a602052604081208054839081106121b357fe5b60009182526020808320909101548683526001825260408084206001600160a01b039092168085529190925291205490915015612248578251156122335761221483604051806040016040528060018152602001600160fd1b815250612db0565b925061222c83611187836001600160a01b0316612cf4565b9250612248565b612245816001600160a01b0316612cf4565b92505b50600101612183565b50919050565b61225f61328f565b61229e576040805162461bcd60e51b81526020600482018190526024820152600080516020614004833981519152604482015290519081900360640190fd5b6001600160a01b03166000908152600d60205260409020805460ff19169055565b600061109f8261343e565b60009081526002602052604090205490565b600061109f82613453565b60006122f484848461347d565b949350505050565b600061109f826135f6565b61231033613453565b61234b5760405162461bcd60e51b8152600401808060200182810382526023815260200180613e646023913960400191505060405180910390fd5b600087815260026020526040902054156123ac576040805162461bcd60e51b815260206004820181905260248201527f5374617368426c6f783a20546f6b656e20494420616c72656164792075736564604482015290519081900360640190fd5b600086116123eb5760405162461bcd60e51b8152600401808060200182810382526028815260200180613f236028913960400191505060405180910390fd5b6000878152600260205260409020869055612407888888613614565b61241187866132a0565b61241b87856133bc565b61242587846137ab565b612430878383612b8b565b600087815260106020908152604080832033808552908352818420805460ff1916600117905581518b81529283018a905281516001600160a01b038d16949391927fc3d58168c5ae7397731d063d5bbf3d657854427343f4c083240f7aacaa2d0f62928290030190a45050505050505050565b6124ab61328f565b6124ea576040805162461bcd60e51b81526020600482018190526024820152600080516020614004833981519152604482015290519081900360640190fd5b60009182526010602090815260408084206001600160a01b0390931684529190529020805460ff19169055565b60606001600160a01b03821661255e5760405162461bcd60e51b815260040180806020018281038252602b815260200180613d97602b913960400191505060405180910390fd5b60005b6001600160a01b038316600090815260096020526040902054811015612251576001600160a01b03831660009081526009602052604081208054839081106125a557fe5b60009182526020808320909101548083526001825260408084206001600160a01b038916855290925291205490915015612625578251156126195761260383604051806040016040528060018152602001600160fd1b815250612db0565b92506126128361118783612cf4565b9250612625565b61262281612cf4565b92505b50600101612561565b60086020526000908152604090205481565b6040518060400160405280601d81526020017f68747470733a2f2f7374617368626c6f782e636f6d2f746f6b656e732f00000081525081565b806126848133612b57565b6126bf5760405162461bcd60e51b81526004018080602001828103825260298152602001806141a66029913960400191505060405180910390fd5b506000908152600c60205260409020805460ff19169055565b6001600160a01b03918216600090815260126020908152604080832093909416825291909152205460ff1690565b600360209081526000928352604080842090915290825290205481565b8161272e8133612b57565b6127695760405162461bcd60e51b81526004018080602001828103825260298152602001806141a66029913960400191505060405180910390fd5b61174183836137ab565b6001600160a01b0385166127b85760405162461bcd60e51b8152600401808060200182810382526028815260200180613de86028913960400191505060405180910390fd5b6001600160a01b0386163314806127da57506127d486336126d8565b15156001145b6128155760405162461bcd60e51b81526004018080602001828103825260378152602001806141416037913960400191505060405180910390fd5b346128238787878785612eba565b81039050856001600160a01b0316876001600160a01b0316336001600160a01b03167fc3d58168c5ae7397731d063d5bbf3d657854427343f4c083240f7aacaa2d0f628888604051808381526020018281526020019250505060405180910390a46128c8338888888888888080601f0160208091040260200160405190810160405280939291908181526020018383808284376000920191909152506137fd92505050565b801561296057604051600090339083908381818185875af1925050503d8060008114612910576040519150601f19603f3d011682016040523d82523d6000602084013e612915565b606091505b505090508061295e576040805162461bcd60e51b815260206004820152601060248201526f2a3930b739b332b9103330b4b632b21760811b604482015290519081900360640190fd5b505b50505050505050565b61297161328f565b6129b0576040805162461bcd60e51b81526020600482018190526024820152600080516020614004833981519152604482015290519081900360640190fd5b6129b981613972565b50565b6129c461328f565b612a03576040805162461bcd60e51b81526020600482018190526024820152600080516020614004833981519152604482015290519081900360640190fd5b6001600160a01b038216600090815260086020526040902054811115612a70576040805162461bcd60e51b815260206004820181905260248201527f5374617368426c6f783a20496e73756666696369656e742062616c616e63652e604482015290519081900360640190fd5b6040516000906001600160a01b0384169083908381818185875af1925050503d8060008114612abb576040519150601f19603f3d011682016040523d82523d6000602084013e612ac0565b606091505b5050905080612b16576040805162461bcd60e51b815260206004820152601d60248201527f5374617368426c6f783a205769746864726177616c206661696c65642e000000604482015290519081900360640190fd5b506001600160a01b0390911660009081526008602052604090208054919091039055565b600160209081526000928352604080842090915290825290205481565b60008281526010602090815260408083206001600160a01b038516845290915281205460ff16806116ea57506116ea61328f565b60008251118015612b9d575080518251145b612bee576040805162461bcd60e51b815260206004820152601c60248201527f5374617368426c6f783a20496e76616c696420617267756d656e747300000000604482015290519081900360640190fd5b6000805b8251811015612c6d57828181518110612c0757fe5b6020026020010151820191506000838281518110612c2157fe5b602002602001015111612c655760405162461bcd60e51b815260040180806020018281038252603c815260200180614083603c913960400191505060405180910390fd5b600101612bf2565b508061271014612cae5760405162461bcd60e51b81526004018080602001828103825260438152602001806140bf6043913960600191505060405180910390fd5b60008481526006602090815260409091208451612ccd92860190613c8f565b5060008481526007602090815260409091208351612ced92850190613cf0565b5050505050565b60606000825b8015612d10576001919091019060109004612cfa565b60608267ffffffffffffffff81118015612d2957600080fd5b506040519080825280601f01601f191660200182016040528015612d54576020820181803683370190505b50905060005b83811015612da757601086069250612d7183613a12565b8260018387030381518110612d8257fe5b60200101906001600160f81b031916908160001a905350601086049550600101612d5a565b50949350505050565b805182516060918491849184910167ffffffffffffffff81118015612dd457600080fd5b506040519080825280601f01601f191660200182016040528015612dff576020820181803683370190505b509050806000805b8551811015612e5857858181518110612e1c57fe5b602001015160f81c60f81b838380600101945081518110612e3957fe5b60200101906001600160f81b031916908160001a905350600101612e07565b5060005b8451811015612ead57848181518110612e7157fe5b602001015160f81c60f81b838380600101945081518110612e8e57fe5b60200101906001600160f81b031916908160001a905350600101612e5c565b5090979650505050505050565b6000612ec886868686613a56565b15612f03576040805162461bcd60e51b8152602060048201526006602482015265131bd8dad95960d21b604482015290519081900360640190fd5b612f0e86858561347d565b905080821015612f4f5760405162461bcd60e51b815260040180806020018281038252602b815260200180614200602b913960400191505060405180910390fd5b612f96836040518060600160405280602a8152602001613f7f602a913960008781526001602090815260408083206001600160a01b038d1684529091529020549190613a91565b60008581526001602090815260408083206001600160a01b038b811685529252808320939093558716815290812054612fcf9085613b28565b9050612fdc868683613614565b60005b60008681526006602052604090205481101561308b57600086815260066020526040812080548390811061300f57fe5b600091825260208083209091015489835260079091526040822080546001600160a01b039092169350908490811061304357fe5b600091825260209091200154905061306161271061198487846132df565b6001600160a01b039092166000908152600860205260409020805490920190915550600101612fdf565b505095945050505050565b6130a8846001600160a01b0316613b82565b156132875763bc197c8160e01b6001600160e01b031916846001600160a01b031663bc197c8188888787876040518663ffffffff1660e01b815260040180866001600160a01b03168152602001856001600160a01b03168152602001806020018060200180602001848103845287818151815260200191508051906020019060200280838360005b83811015613148578181015183820152602001613130565b50505050905001848103835286818151815260200191508051906020019060200280838360005b8381101561318757818101518382015260200161316f565b50505050905001848103825285818151815260200191508051906020019080838360005b838110156131c35781810151838201526020016131ab565b50505050905090810190601f1680156131f05780820380516001836020036101000a031916815260200191505b5098505050505050505050602060405180830381600087803b15801561321557600080fd5b505af1158015613229573d6000803e3d6000fd5b505050506040513d602081101561323f57600080fd5b50516001600160e01b031916146132875760405162461bcd60e51b8152600401808060200182810382526036815260200180613eed6036913960400191505060405180910390fd5b505050505050565b6000546001600160a01b0316331490565b60008281526013602052604080822083905551829184917f9cd9c60390fc75c213fd8d644749f61388dd30ed6c6eb4647b793b5b580fb4309190a35050565b6000826132ee5750600061109f565b828202828482816132fb57fe5b04146116ea5760405162461bcd60e51b8152600401808060200182810382526021815260200180613fe36021913960400191505060405180910390fd5b60006116ea83836040518060400160405280601a81526020017f536166654d6174683a206469766973696f6e206279207a65726f000000000000815250613bb9565b60006116ea83836040518060400160405280601e81526020017f536166654d6174683a207375627472616374696f6e206f766572666c6f770000815250613a91565b600082815260046020908152604080832081518083019092524282528183018590528054600181018255908452919092206133ff92600292830290910191613c61565b506040805183815260208101839052815133927f4bd9446604f43017ac3918d8db419b59a3b6f2a6cdd456eed5de99621bb62765928290030190a25050565b6000908152600c602052604090205460ff1690565b6001600160a01b0381166000908152600f602052604081205460ff168061109f575061109f61328f565b60006001600160a01b0384166134c45760405162461bcd60e51b815260040180806020018281038252602b815260200180613d97602b913960400191505060405180910390fd5b6000838152600460205260408120544290600019015b60008681526004602052604081208054839081106134f457fe5b6000918252602082206002909102010154905060006305f5e100600554600460008b8152602001908152602001600020858154811061352f57fe5b906000526020600020906002020160016002811061354957fe5b0154028161355357fe5b60008a81526003602090815260408083206001600160a01b038f1684529091528120549290910492509083116135c6575060008881526003602090815260408083206001600160a01b038d1684529091529020546201518090850304806135b8575060015b0286029390930192506135eb565b506201518082850304806135d8575060015b02860293909301929150600019016134da565b509095945050505050565b6001600160a01b03166000908152600d602052604090205460ff1690565b60008281526001602090815260408083206001600160a01b03871684529091529020546136f3576000828152600b602090815260408083206001600160a01b038716845290915290205460ff166136c9576001600160a01b038316600081815260096020908152604080832080546001818101835591855283852001879055868452600a83528184208054918201815584528284200180546001600160a01b03191685179055858352600b8252822092909152525b60008281526003602090815260408083206001600160a01b03871684529091529020429055613784565b60008281526003602090815260408083206001600160a01b038716845290915281205461372190429061337a565b60008481526001602090815260408083206001600160a01b03891684529091528120549192509061375890849061198490856132df565b60008581526003602090815260408083206001600160a01b038a16845290915290204291909103905550505b60009182526001602090815260408084206001600160a01b03909516845293905291902055565b61271081106137eb5760405162461bcd60e51b815260040180806020018281038252603a815260200180613fa9603a913960400191505060405180910390fd5b60009182526011602052604090912055565b61380f846001600160a01b0316613b82565b156132875763f23a6e6160e01b6001600160e01b031916846001600160a01b031663f23a6e6188888787876040518663ffffffff1660e01b815260040180866001600160a01b03168152602001856001600160a01b0316815260200184815260200183815260200180602001828103825283818151815260200191508051906020019080838360005b838110156138b0578181015183820152602001613898565b50505050905090810190601f1680156138dd5780820380516001836020036101000a031916815260200191505b509650505050505050602060405180830381600087803b15801561390057600080fd5b505af1158015613914573d6000803e3d6000fd5b505050506040513d602081101561392a57600080fd5b50516001600160e01b031916146132875760405162461bcd60e51b81526004018080602001828103825260318152602001806141cf6031913960400191505060405180910390fd5b6001600160a01b0381166139b75760405162461bcd60e51b8152600401808060200182810382526026815260200180613dc26026913960400191505060405180910390fd5b600080546040516001600160a01b03808516939216917f8be0079c531659141344cd1fd0a4f28419497f9722a3daafe3b4186f6b6457e091a3600080546001600160a01b0319166001600160a01b0392909216919091179055565b600060098260ff1611613a2c57506030810160f81b6110e7565b8160ff16600a11158015613a445750600f8260ff1611155b1561025b57506057810160f81b6110e7565b6000613a618361343e565b80613a705750613a70856135f6565b80613a7f5750613a7f846135f6565b80613a88575081155b95945050505050565b60008184841115613b205760405162461bcd60e51b81526004018080602001828103825283818151815260200191508051906020019080838360005b83811015613ae5578181015183820152602001613acd565b50505050905090810190601f168015613b125780820380516001836020036101000a031916815260200191505b509250505060405180910390fd5b505050900390565b6000828201838110156116ea576040805162461bcd60e51b815260206004820152601b60248201527f536166654d6174683a206164646974696f6e206f766572666c6f770000000000604482015290519081900360640190fd5b6000813f7fc5d2460186f7233c927e7db2dcc703c0e500b653ca82273b7bfad8045d85a47081158015906122f45750141592915050565b60008183613c085760405162461bcd60e51b8152602060048201818152835160248401528351909283926044909101919085019080838360008315613ae5578181015183820152602001613acd565b506000838581613c1457fe5b0495945050505050565b8260028101928215613c51579160200282015b82811115613c51578251829060ff16905591602001919060010190613c31565b50613c5d929150613d2a565b5090565b8260028101928215613c51579160200282015b82811115613c51578251825591602001919060010190613c74565b828054828255906000526020600020908101928215613ce4579160200282015b82811115613ce457825182546001600160a01b0319166001600160a01b03909116178255602090920191600190910190613caf565b50613c5d929150613d3f565b828054828255906000526020600020908101928215613c515791602002820182811115613c51578251825591602001919060010190613c74565b5b80821115613c5d5760008155600101613d2b565b5b80821115613c5d5780546001600160a01b0319168155600101613d4056fe5374617368426c6f783a20696e73756666696369656e742062616c616e636520746f2065786563757465207468652063616c6c6261636b2e455243313135353a2062616c616e636520717565727920666f7220746865207a65726f20616464726573734f776e61626c653a206e6577206f776e657220697320746865207a65726f2061646472657373455243313135353a207461726765742061646472657373206d757374206265206e6f6e2d7a65726f455243313135353a2063616e6e6f742073657420617070726f76616c2073746174757320666f722073656c665374617368426c6f783a205072696365206d7573742062652067726561746572207468616e20302e4d696e7461626c653a2063616c6c6572206973206e6f74206120746f6b656e697a65725374617368426c6f783a20696e73756666696369656e742062616c616e636520746f2070726f706f736520612063616c6c6261636b2e455243313135353a206163636f756e747320616e6420494473206d75737420686176652073616d65206c656e67746873455243313135353a20676f7420756e6b6e6f776e2076616c75652066726f6d206f6e45524331313535426174636852656365697665645374617368426c6f783a20537570706c79206d7573742062652067726561746572207468616e2030455243313135353a20736f6d65206164647265737320696e2062617463682062616c616e6365207175657279206973207a65726f455243313135353a20696e73756666696369656e742062616c616e636520666f72207472616e736665725374617368426c6f783a206d696e696d756d20686f6c64696e67206d757374206265206c6f776572207468616e20313030303020283130302529536166654d6174683a206d756c7469706c69636174696f6e206f766572666c6f774f776e61626c653a2063616c6c6572206973206e6f7420746865206f776e65725374617368426c6f783a20696e73756666696369656e742076616c756520666f72207468652070726f706f7365642070726963652e5374617368426c6f783a2063616c6c6261636b2070726f706f736974696f6e206e6f7420666f756e642e5374617368426c6f783a2066656573526563697069656e747350657263656e746167652073686f756c642062652067726561746572207468616e20305374617368426c6f783a20546f74616c206f662066656573526563697069656e747350657263656e74616765206d75737420626520657175616c20746f2031303030305374617368426c6f783a20696e73756666696369656e7420657363726f7765642076616c756520746f2065786563757465207468652063616c6c6261636b2e455243313135353a206e656564206f70657261746f7220617070726f76616c20666f7220337264207061727479207472616e7366657273455243313135353a2049447320616e642076616c756573206d75737420686176652073616d65206c656e677468734d696e7461626c653a2063616c6c6572206973206e6f74206120746f6b656e206d61696e74656e6572455243313135353a20676f7420756e6b6e6f776e2076616c75652066726f6d206f6e455243313135355265636569766564455243313135353a20696e73756666696369656e742045544820666f72207472616e736665722066656573a2646970667358221220371e2701a560614f63e51605935b5e4b5e138e2f2ea5bedb936f13a908fb15d564736f6c634300070100334f776e61626c653a206e6577206f776e657220697320746865207a65726f2061646472657373",
  "immutableReferences": {},
  "source": "// SPDX-License-Identifier: GPL-3.0-or-later\n\npragma solidity ^0.7.1;\n\nimport './lib/ERC1155/ERC1155.sol';\nimport './lib/ERC1155/ERC1155Metadata.sol';\nimport \"./lib/utils/SafeMath.sol\";\n\ncontract StashBlox is ERC1155, ERC1155Metadata {\n\n    using SafeMath for uint256;\n\n\n    /***************************************\n    TOKENIZERS\n    ****************************************/\n\n\n    /**\n     * @dev Function to authorize an address to create a token.\n     * @param tokenizer The authorized address\n     */\n    function authorizeTokenizer(address tokenizer) external onlyOwner {\n        _authorizedTokenizers[tokenizer] = true;\n    }\n\n    /**\n     * @dev Function to revoke the authorization to create a token.\n     * @param tokenizer The authorized address\n     */\n    function revokeTokenizer(address tokenizer) external onlyOwner {\n        _authorizedTokenizers[tokenizer] = false;\n    }\n\n    /**\n     * @dev Function to check if an address is authorized to create a token.\n     * @param tokenizer The authorized address\n     */\n    function isTokenizer(address tokenizer) external view returns (bool) {\n        return _isTokenizer(tokenizer);\n    }\n\n\n    /***************************************\n    MAINTENERS\n    ****************************************/\n\n\n    /**\n     * @dev Function to authorize an address to maintain a token.\n     * @param maintener The authorized address\n     */\n    function authorizeMaintener(uint256 id, address maintener) external onlyOwner {\n        _tokenMainteners[id][maintener] = true;\n    }\n\n    /**\n     * @dev Function to revoke the authorization to maintain a token.\n     * @param maintener The authorized address\n     */\n    function revokeMaintener(uint256 id, address maintener) external onlyOwner {\n        _tokenMainteners[id][maintener] = false;\n    }\n\n    /**\n     * @dev Function to check if an address is authorized to maintain a token.\n     * @param maintener The authorized address\n     */\n    function isMaintener(uint256 id, address maintener) external view returns (bool) {\n        return _isMaintener(id, maintener);\n    }\n\n\n    /***************************************\n    LOCKS\n    ****************************************/\n\n\n    /**\n     * @dev Function to lock a token.\n     * @param id The token ID\n     */\n    function lockToken(uint256 id) external onlyMaintener(id) {\n        _tokenLocks[id] = true;\n    }\n\n    /**\n     * @dev Function to unlock a token.\n     * @param id The token ID\n     */\n    function unlockToken(uint256 id) external onlyMaintener(id) {\n        _tokenLocks[id] = false;\n    }\n\n    /**\n     * @dev Function to check if a token is locked.\n     * @param id The token ID\n     */\n    function isLockedToken(uint256 id) external view returns (bool){\n        return _isLockedToken(id);\n    }\n\n    /**\n     * @dev Function to lock an address.\n     * @param addr The address to lock\n     */\n    function lockAddress(address addr) external onlyOwner {\n        _addressLocks[addr] = true;\n    }\n\n    /**\n     * @dev Function to unlock an address.\n     * @param addr The address to unlock\n     */\n    function unlockAddress(address addr) external onlyOwner {\n        _addressLocks[addr] = false;\n    }\n\n    /**\n     * @dev Function to check if an address is lockec.\n     * @param addr The address to check\n     */\n    function isLockedAddress(address addr) external view returns (bool){\n        return _isLockedAddress(addr);\n    }\n\n\n    /***************************************\n    TOKEN CREATION AND MAINTENANCE\n    ****************************************/\n\n\n    /**\n     * @dev Function to mint an amount of a token with the given ID.\n     * @param recipient The address that will own the minted tokens\n     * @param id ID of the token to be minted\n     * @param supply Amount of the token to be minted\n     * @param metadataHash Metadata file hash\n     * @param storageCreditCost cost for 24h storage in storageCredit (x 10 ^ 8 for the precision)\n     * @param minHoldingForCallback minimum holding to propose a callback\n     * @param feesRecipients list of addresses receiving transfer fees\n     * @param feesRecipientsPercentage list of percentage, each one for the corresponding feesRecipients\n     */\n    function createToken(address recipient,\n                         uint256 id,\n                         uint256 supply,\n                         uint256 metadataHash,\n                         uint256 storageCreditCost,\n                         uint256 minHoldingForCallback,\n                         address[] memory feesRecipients,\n                         uint256[] memory feesRecipientsPercentage)\n    external onlyTokenizer {\n\n        require(_supplies[id] == 0, \"StashBlox: Token ID already used\");\n        require(supply > 0, \"StashBlox: Supply must be greater than 0\");\n\n        _supplies[id] = supply;\n\n        _setNewBalance(recipient, id, supply);\n        _updateMetadataHash(id, metadataHash);\n        _updateStorageCost(id, storageCreditCost);\n        _updateMinHoldingForCallback(id, minHoldingForCallback);\n        _updateFeesRecipients(id, feesRecipients, feesRecipientsPercentage);\n\n        _tokenMainteners[id][msg.sender] = true;\n\n        emit TransferSingle(msg.sender, address(0), recipient, id, supply);\n    }\n\n    /**\n     * @dev Function to update the metadata hash of a token.\n     * @param id The token ID\n     * @param metadataHash The new metadata hash\n     */\n    function updateMetadataHash(uint256 id, uint256 metadataHash) external onlyMaintener(id) {\n      _updateMetadataHash(id, metadataHash);\n    }\n\n    /**\n     * @dev Function to update the storage cost of a token for one day, expressed in \"storage credit\".\n     * @param id The token ID\n     * @param newCost The new storage cost\n     */\n    function updateStorageCost(uint256 id, uint256 newCost) external onlyMaintener(id) {\n        _updateStorageCost(id, newCost);\n    }\n\n    /**\n     * @dev Function to update the minimum holding to propose a callback.\n     * @param id The token ID\n     * @param newMinHoldingForCallback The new minimum holding\n     */\n    function updateMinHoldingForCallback(uint256 id, uint256 newMinHoldingForCallback) external onlyMaintener(id) {\n        _updateMinHoldingForCallback(id, newMinHoldingForCallback);\n    }\n\n    /**\n     * @dev Function to update the minimum holding to propose a callback.\n     * @param id The token ID\n     * @param newFeesRecipients list of addresses receiving transfer fees\n     * @param newFeesRecipientsPercentage list of percentage, each one for the corresponding feesRecipients\n     */\n    function updateFeesRecipients(uint256 id,\n                                  address[] memory newFeesRecipients,\n                                  uint256[] memory newFeesRecipientsPercentage)\n    external onlyMaintener(id) {\n      _updateFeesRecipients(id, newFeesRecipients, newFeesRecipientsPercentage);\n    }\n\n\n    /***************************************\n    STORAGE PRICE\n    ****************************************/\n\n\n    /**\n     * @dev Function to update the price of one \"storage credit\".\n     * @param newPrice The new price\n     */\n    function updateStorageCreditPrice(uint256 newPrice) external onlyOwner {\n        storageCreditPrice = newPrice;\n        emit UpdateStorageCreditPrice(msg.sender, newPrice);\n    }\n\n    /**\n     * @dev Function to get the transaction price to transfer tokens.\n     * @param account the address from where to transfer the tokens\n     * @param id The token ID\n     * @param value The amount to transfer\n     */\n    function storageFees(address account, uint256 id, uint256 value) public view returns (uint256) {\n        return _storageFees(account, id, value);\n    }\n\n\n    /***************************************\n    CALLBACKS\n    ****************************************/\n\n\n    /**\n     * @dev Propose to buy the whole supply of a token.\n     * The proposer must hold minHoldingForCallback% of the total supply.\n     * StashBlox must approve the price with acceptCallback();\n     * @param id Token ID\n     * @param price proposed price\n     */\n    function proposeCallback(uint256 id, uint256 price) external payable {\n        require(_supplies[id] > 0, \"StashBlox: Unknown token.\");\n        require(price > 0, \"StashBlox: Price must be greater than 0.\");\n\n        uint256 minHolding = (_supplies[id].mul(_minHoldingForCallback[id])).div(10000);\n        require(_balances[id][msg.sender] >= minHolding, \"StashBlox: insufficient balance to propose a callback.\");\n\n        uint256 callbackAmount = _supplies[id].sub(_balances[id][msg.sender]);\n        uint256 callbackPrice = callbackAmount.mul(price);\n        require(msg.value >= callbackPrice, \"StashBlox: insufficient value for the proposed price.\");\n\n        _callbackPropositions[id][msg.sender] = [price, msg.value];\n        emit CallbackProposed(id, msg.sender, price);\n    }\n\n    /**\n     * @dev Refuse a callback if the price is not enough.\n     * @param id Token ID\n     * @param proposer address of the proposer\n     */\n    function refuseCallback(uint256 id, address proposer) external onlyMaintener(id) {\n        uint256 price = _callbackPropositions[id][proposer][0];\n        uint256 escrowedAmount = _callbackPropositions[id][proposer][1];\n\n        require(price > 0, \"StashBlox: callback proposition not found.\");\n\n        // return escrowed amount. Proposer must use withdraw() function to get\n        // escrowed amount.\n        _ETHBalances[proposer] += escrowedAmount;\n\n        _callbackPropositions[id][proposer] = [0, 0];\n        emit CallbackRefused(id, proposer, price);\n    }\n\n    /**\n     * @dev Accept a callback\n     * @param id Token ID\n     * @param proposer address of the proposer\n     */\n    function acceptCallback(uint256 id, address proposer) external onlyMaintener(id) {\n        uint256 price = _callbackPropositions[id][proposer][0];\n        uint256 escrowedAmount = _callbackPropositions[id][proposer][1];\n\n        require(price > 0, \"StashBlox: callback proposition not found.\");\n\n        uint256 minHolding = (_supplies[id].mul(_minHoldingForCallback[id])).div(10000);\n        require(_balances[id][proposer] >= minHolding, \"StashBlox: insufficient balance to execute the callback.\");\n\n        uint256 callbackAmount = _supplies[id].sub(_balances[id][proposer]);\n        uint256 callbackPrice = callbackAmount.mul(price);\n        require(escrowedAmount >= callbackPrice, \"StashBlox: insufficient escrowed value to execute the callback.\");\n\n        // move tokens to the proposer address and escrowed ETH to the holders addresses\n        // Holders must use withdraw() function to get paiement amount.\n        for (uint256 i = 0; i < _addressesByToken[id].length; ++i) {\n            address holderAddress = _addressesByToken[id][i];\n            uint256 holderBalance = _balances[id][holderAddress];\n            if (holderBalance > 0) {\n                uint256 holderPrice = price.mul(holderBalance);\n                _ETHBalances[holderAddress] += holderPrice;\n                _balances[id][holderAddress] = 0;\n            }\n        }\n\n        _balances[id][proposer] = _supplies[id];\n\n        if (escrowedAmount > callbackPrice) {\n            _ETHBalances[proposer] += escrowedAmount - callbackPrice;\n        }\n\n        _callbackPropositions[id][proposer] = [0, 0];\n        emit CallbackAccepted(id, proposer, price);\n    }\n\n\n    /***************************************\n    WITHDRAWAL\n    ****************************************/\n\n\n    /**\n     * @dev Function to withdraw ETH from the contract.\n     * @param to recipent address\n     * @param amount amount to withdraw\n     */\n    function withdraw(address to, uint256 amount) external onlyOwner {\n        require(_ETHBalances[to] >= amount, \"StashBlox: Insufficient balance.\");\n        (bool success, ) = to.call{value: amount}(\"\");\n        require(success, \"StashBlox: Withdrawal failed.\");\n        _ETHBalances[to] -= amount;\n    }\n\n\n    /***************************************\n    UTILS\n    ****************************************/\n\n\n    /**\n     * @dev Function to get token supply\n     * @param id Token ID\n     * @return Token supply\n     */\n    function totalSupply(uint256 id) external view returns (uint256) {\n        return _supplies[id];\n    }\n\n    /**\n     * @dev Function to get the list of token hold by an address\n     * @param account holder address\n     * @return result space separated listof IDs\n     */\n    function tokensByAddress(address account) public view returns (string memory result) {\n        require(account != address(0), \"ERC1155: balance query for the zero address\");\n\n        for (uint i = 0; i < _tokensByAddress[account].length; i++) {\n            uint256 id = _tokensByAddress[account][i];\n            if (_balances[id][account] > 0) {\n                if (bytes(result).length > 0) {\n                    result = _strConcat(result, \" \");\n                    result = _strConcat(result, _toHexString(id));\n                } else {\n                    result = _toHexString(id);\n                }\n            }\n        }\n        return result;\n    }\n\n    /**\n     * @dev Function to get the list of token hold by an address\n     * @param id Token ID\n     * @return result space separated list of addresses\n     */\n    function addressesByToken(uint256 id) public view returns (string memory result) {\n\n        for (uint i = 0; i < _addressesByToken[id].length; i++) {\n            address account = _addressesByToken[id][i];\n            if (_balances[id][account] > 0) {\n                if (bytes(result).length > 0) {\n                    result = _strConcat(result, \" \");\n                    result = _strConcat(result, _toHexString(uint256(account)));\n                } else {\n                    result = _toHexString(uint256(account));\n                }\n            }\n        }\n        return result;\n    }\n}\n",
  "sourcePath": "/home/ouziel/Work/StashBloxContracts/contracts/StashBlox.sol",
  "compiler": {
    "name": "solc",
    "version": "0.7.1+commit.f4a555be.Emscripten.clang"
  },
  "schemaVersion": "3.2.3",
  "updatedAt": "2020-10-02T22:55:29.094Z",
  "devdoc": {
    "kind": "dev",
    "methods": {
      "acceptCallback(uint256,address)": {
        "details": "Accept a callback",
        "params": {
          "id": "Token ID",
          "proposer": "address of the proposer"
        }
      },
      "addressesByToken(uint256)": {
        "details": "Function to get the list of token hold by an address",
        "params": {
          "id": "Token ID"
        },
        "returns": {
          "result": "space separated list of addresses"
        }
      },
      "authorizeMaintener(uint256,address)": {
        "details": "Function to authorize an address to maintain a token.",
        "params": {
          "maintener": "The authorized address"
        }
      },
      "authorizeTokenizer(address)": {
        "details": "Function to authorize an address to create a token.",
        "params": {
          "tokenizer": "The authorized address"
        }
      },
      "balanceOf(address,uint256)": {
        "details": "Get the specified address' balance for token with specified ID. Attempting to query the zero account for a balance will result in a revert.",
        "params": {
          "account": "The address of the token holder",
          "id": "ID of the token"
        },
        "returns": {
          "_0": "The account's balance of the token type requested"
        }
      },
      "balanceOfBatch(address[],uint256[])": {
        "details": "Get the balance of multiple account/token pairs. If any of the query accounts is the zero account, this query will revert.",
        "params": {
          "accounts": "The addresses of the token holders",
          "ids": "IDs of the tokens"
        },
        "returns": {
          "_0": "Balances for each account and token id pair"
        }
      },
      "createToken(address,uint256,uint256,uint256,uint256,uint256,address[],uint256[])": {
        "details": "Function to mint an amount of a token with the given ID.",
        "params": {
          "feesRecipients": "list of addresses receiving transfer fees",
          "feesRecipientsPercentage": "list of percentage, each one for the corresponding feesRecipients",
          "id": "ID of the token to be minted",
          "metadataHash": "Metadata file hash",
          "minHoldingForCallback": "minimum holding to propose a callback",
          "recipient": "The address that will own the minted tokens",
          "storageCreditCost": "cost for 24h storage in storageCredit (x 10 ^ 8 for the precision)",
          "supply": "Amount of the token to be minted"
        }
      },
      "isApprovedForAll(address,address)": {
        "params": {
          "account": "The account of the Tokens",
          "operator": "Address of authorized operator"
        },
        "returns": {
          "_0": "True if the operator is approved, false if not"
        }
      },
      "isLockedAddress(address)": {
        "details": "Function to check if an address is lockec.",
        "params": {
          "addr": "The address to check"
        }
      },
      "isLockedToken(uint256)": {
        "details": "Function to check if a token is locked.",
        "params": {
          "id": "The token ID"
        }
      },
      "isMaintener(uint256,address)": {
        "details": "Function to check if an address is authorized to maintain a token.",
        "params": {
          "maintener": "The authorized address"
        }
      },
      "isTokenizer(address)": {
        "details": "Function to check if an address is authorized to create a token.",
        "params": {
          "tokenizer": "The authorized address"
        }
      },
      "lockAddress(address)": {
        "details": "Function to lock an address.",
        "params": {
          "addr": "The address to lock"
        }
      },
      "lockToken(uint256)": {
        "details": "Function to lock a token.",
        "params": {
          "id": "The token ID"
        }
      },
      "owner()": {
        "details": "Returns the address of the current owner."
      },
      "proposeCallback(uint256,uint256)": {
        "details": "Propose to buy the whole supply of a token. The proposer must hold minHoldingForCallback% of the total supply. StashBlox must approve the price with acceptCallback();",
        "params": {
          "id": "Token ID",
          "price": "proposed price"
        }
      },
      "refuseCallback(uint256,address)": {
        "details": "Refuse a callback if the price is not enough.",
        "params": {
          "id": "Token ID",
          "proposer": "address of the proposer"
        }
      },
      "revokeMaintener(uint256,address)": {
        "details": "Function to revoke the authorization to maintain a token.",
        "params": {
          "maintener": "The authorized address"
        }
      },
      "revokeTokenizer(address)": {
        "details": "Function to revoke the authorization to create a token.",
        "params": {
          "tokenizer": "The authorized address"
        }
      },
      "safeBatchTransferFrom(address,address,uint256[],uint256[],bytes)": {
        "details": "Transfers `values` amount(s) of `ids` from the `from` address to the `to` address specified. Caller must be approved to manage the tokens being transferred out of the `from` account. If `to` is a smart contract, will call `onERC1155BatchReceived` on `to` and act appropriately.",
        "params": {
          "data": "Data forwarded to `onERC1155Received` if `to` is a contract receiver",
          "from": "Source address",
          "ids": "IDs of each token type",
          "to": "Target address",
          "values": "Transfer amounts per token type"
        }
      },
      "safeTransferFrom(address,address,uint256,uint256,bytes)": {
        "details": "Transfers `value` amount of an `id` from the `from` address to the `to` address specified. Caller must be approved to manage the tokens being transferred out of the `from` account. If `to` is a smart contract, will call `onERC1155Received` on `to` and act appropriately.",
        "params": {
          "data": "Data forwarded to `onERC1155Received` if `to` is a contract receiver",
          "from": "Source address",
          "id": "ID of the token type",
          "to": "Target address",
          "value": "Transfer amount"
        }
      },
      "setApprovalForAll(address,bool)": {
        "details": "Sets or unsets the approval of a given operator. An operator is allowed to transfer all tokens of the sender on their behalf. Because an account already has operator privileges for itself, this function will revert if the account attempts to set the approval status for itself.",
        "params": {
          "approved": "representing the status of the approval to be set",
          "operator": "address to set the approval"
        }
      },
      "storageFees(address,uint256,uint256)": {
        "details": "Function to get the transaction price to transfer tokens.",
        "params": {
          "account": "the address from where to transfer the tokens",
          "id": "The token ID",
          "value": "The amount to transfer"
        }
      },
      "supportsInterface(bytes4)": {
        "params": {
          "_interfaceID": "The interface identifier, as specified in ERC-165"
        },
        "returns": {
          "_0": "`true` if the contract implements `_interfaceID` and"
        }
      },
      "tokensByAddress(address)": {
        "details": "Function to get the list of token hold by an address",
        "params": {
          "account": "holder address"
        },
        "returns": {
          "result": "space separated listof IDs"
        }
      },
      "totalSupply(uint256)": {
        "details": "Function to get token supply",
        "params": {
          "id": "Token ID"
        },
        "returns": {
          "_0": "Token supply"
        }
      },
      "transferOwnership(address)": {
        "details": "Transfers ownership of the contract to a new account (`newOwner`). Can only be called by the current owner."
      },
      "unlockAddress(address)": {
        "details": "Function to unlock an address.",
        "params": {
          "addr": "The address to unlock"
        }
      },
      "unlockToken(uint256)": {
        "details": "Function to unlock a token.",
        "params": {
          "id": "The token ID"
        }
      },
      "updateFeesRecipients(uint256,address[],uint256[])": {
        "details": "Function to update the minimum holding to propose a callback.",
        "params": {
          "id": "The token ID",
          "newFeesRecipients": "list of addresses receiving transfer fees",
          "newFeesRecipientsPercentage": "list of percentage, each one for the corresponding feesRecipients"
        }
      },
      "updateMetadataHash(uint256,uint256)": {
        "details": "Function to update the metadata hash of a token.",
        "params": {
          "id": "The token ID",
          "metadataHash": "The new metadata hash"
        }
      },
      "updateMinHoldingForCallback(uint256,uint256)": {
        "details": "Function to update the minimum holding to propose a callback.",
        "params": {
          "id": "The token ID",
          "newMinHoldingForCallback": "The new minimum holding"
        }
      },
      "updateStorageCost(uint256,uint256)": {
        "details": "Function to update the storage cost of a token for one day, expressed in \"storage credit\".",
        "params": {
          "id": "The token ID",
          "newCost": "The new storage cost"
        }
      },
      "updateStorageCreditPrice(uint256)": {
        "details": "Function to update the price of one \"storage credit\".",
        "params": {
          "newPrice": "The new price"
        }
      },
      "uri(uint256)": {
        "params": {
          "id": "Token ID"
        },
        "returns": {
          "_0": "URI string"
        }
      },
      "withdraw(address,uint256)": {
        "details": "Function to withdraw ETH from the contract.",
        "params": {
          "amount": "amount to withdraw",
          "to": "recipent address"
        }
      }
    },
    "version": 1
  },
  "userdoc": {
    "kind": "user",
    "methods": {
      "isApprovedForAll(address,address)": {
        "notice": "Queries the approval status of an operator for a given account."
      },
      "supportsInterface(bytes4)": {
        "notice": "Query if a contract implements an interface"
      }
    },
    "version": 1
  }
}