{
  "contractName": "StashBlox",
  "abi": [
    {
      "anonymous": false,
      "inputs": [
        {
          "indexed": true,
          "internalType": "address",
          "name": "_owner",
          "type": "address"
        },
        {
          "indexed": true,
          "internalType": "address",
          "name": "_operator",
          "type": "address"
        },
        {
          "indexed": false,
          "internalType": "bool",
          "name": "_approved",
          "type": "bool"
        }
      ],
      "name": "ApprovalForAll",
      "type": "event"
    },
    {
      "anonymous": false,
      "inputs": [
        {
          "indexed": true,
          "internalType": "uint256",
          "name": "_id",
          "type": "uint256"
        },
        {
          "indexed": false,
          "internalType": "address",
          "name": "_proposer",
          "type": "address"
        },
        {
          "indexed": false,
          "internalType": "uint256",
          "name": "_price",
          "type": "uint256"
        }
      ],
      "name": "CallbackAccepted",
      "type": "event"
    },
    {
      "anonymous": false,
      "inputs": [
        {
          "indexed": true,
          "internalType": "uint256",
          "name": "_id",
          "type": "uint256"
        },
        {
          "indexed": false,
          "internalType": "address",
          "name": "_proposer",
          "type": "address"
        },
        {
          "indexed": false,
          "internalType": "uint256",
          "name": "_price",
          "type": "uint256"
        }
      ],
      "name": "CallbackCanceled",
      "type": "event"
    },
    {
      "anonymous": false,
      "inputs": [
        {
          "indexed": true,
          "internalType": "uint256",
          "name": "_id",
          "type": "uint256"
        },
        {
          "indexed": false,
          "internalType": "address",
          "name": "_proposer",
          "type": "address"
        },
        {
          "indexed": false,
          "internalType": "uint256",
          "name": "_price",
          "type": "uint256"
        }
      ],
      "name": "CallbackProposed",
      "type": "event"
    },
    {
      "anonymous": false,
      "inputs": [
        {
          "indexed": true,
          "internalType": "uint256",
          "name": "_id",
          "type": "uint256"
        },
        {
          "indexed": false,
          "internalType": "address",
          "name": "_proposer",
          "type": "address"
        },
        {
          "indexed": false,
          "internalType": "uint256",
          "name": "_price",
          "type": "uint256"
        }
      ],
      "name": "CallbackRefused",
      "type": "event"
    },
    {
      "anonymous": false,
      "inputs": [
        {
          "indexed": true,
          "internalType": "uint256",
          "name": "_id",
          "type": "uint256"
        },
        {
          "indexed": true,
          "internalType": "uint256",
          "name": "_hash",
          "type": "uint256"
        }
      ],
      "name": "MetadataHashUpdated",
      "type": "event"
    },
    {
      "anonymous": false,
      "inputs": [
        {
          "indexed": true,
          "internalType": "address",
          "name": "previousOwner",
          "type": "address"
        },
        {
          "indexed": true,
          "internalType": "address",
          "name": "newOwner",
          "type": "address"
        }
      ],
      "name": "OwnershipTransferred",
      "type": "event"
    },
    {
      "anonymous": false,
      "inputs": [
        {
          "indexed": true,
          "internalType": "address",
          "name": "_operator",
          "type": "address"
        },
        {
          "indexed": true,
          "internalType": "address",
          "name": "_from",
          "type": "address"
        },
        {
          "indexed": true,
          "internalType": "address",
          "name": "_to",
          "type": "address"
        },
        {
          "indexed": false,
          "internalType": "uint256[]",
          "name": "_ids",
          "type": "uint256[]"
        },
        {
          "indexed": false,
          "internalType": "uint256[]",
          "name": "_values",
          "type": "uint256[]"
        }
      ],
      "name": "TransferBatch",
      "type": "event"
    },
    {
      "anonymous": false,
      "inputs": [
        {
          "indexed": true,
          "internalType": "address",
          "name": "_operator",
          "type": "address"
        },
        {
          "indexed": true,
          "internalType": "address",
          "name": "_from",
          "type": "address"
        },
        {
          "indexed": true,
          "internalType": "address",
          "name": "_to",
          "type": "address"
        },
        {
          "indexed": false,
          "internalType": "uint256",
          "name": "_id",
          "type": "uint256"
        },
        {
          "indexed": false,
          "internalType": "uint256",
          "name": "_value",
          "type": "uint256"
        }
      ],
      "name": "TransferSingle",
      "type": "event"
    },
    {
      "anonymous": false,
      "inputs": [
        {
          "indexed": false,
          "internalType": "string",
          "name": "_value",
          "type": "string"
        },
        {
          "indexed": true,
          "internalType": "uint256",
          "name": "_id",
          "type": "uint256"
        }
      ],
      "name": "URI",
      "type": "event"
    },
    {
      "anonymous": false,
      "inputs": [
        {
          "indexed": true,
          "internalType": "address",
          "name": "_tokenizer",
          "type": "address"
        },
        {
          "indexed": false,
          "internalType": "uint256",
          "name": "_id",
          "type": "uint256"
        },
        {
          "indexed": false,
          "internalType": "uint256",
          "name": "_cost",
          "type": "uint256"
        }
      ],
      "name": "UpdateStorageCost",
      "type": "event"
    },
    {
      "anonymous": false,
      "inputs": [
        {
          "indexed": true,
          "internalType": "address",
          "name": "_owner",
          "type": "address"
        },
        {
          "indexed": false,
          "internalType": "uint256",
          "name": "_price",
          "type": "uint256"
        }
      ],
      "name": "UpdateStorageCreditPrice",
      "type": "event"
    },
    {
      "constant": true,
      "inputs": [],
      "name": "BASE_URI",
      "outputs": [
        {
          "internalType": "string",
          "name": "",
          "type": "string"
        }
      ],
      "payable": false,
      "stateMutability": "view",
      "type": "function"
    },
    {
      "constant": false,
      "inputs": [
        {
          "internalType": "uint256",
          "name": "id",
          "type": "uint256"
        },
        {
          "internalType": "address",
          "name": "proposer",
          "type": "address"
        }
      ],
      "name": "acceptCallback",
      "outputs": [],
      "payable": false,
      "stateMutability": "nonpayable",
      "type": "function"
    },
    {
      "constant": true,
      "inputs": [
        {
          "internalType": "uint256",
          "name": "id",
          "type": "uint256"
        }
      ],
      "name": "addressesByToken",
      "outputs": [
        {
          "internalType": "string",
          "name": "result",
          "type": "string"
        }
      ],
      "payable": false,
      "stateMutability": "view",
      "type": "function"
    },
    {
      "constant": false,
      "inputs": [
        {
          "internalType": "address",
          "name": "tokenizer",
          "type": "address"
        }
      ],
      "name": "authorizeTokenizer",
      "outputs": [],
      "payable": false,
      "stateMutability": "nonpayable",
      "type": "function"
    },
    {
      "constant": true,
      "inputs": [
        {
          "internalType": "address",
          "name": "account",
          "type": "address"
        },
        {
          "internalType": "uint256",
          "name": "id",
          "type": "uint256"
        }
      ],
      "name": "balanceOf",
      "outputs": [
        {
          "internalType": "uint256",
          "name": "",
          "type": "uint256"
        }
      ],
      "payable": false,
      "stateMutability": "view",
      "type": "function"
    },
    {
      "constant": true,
      "inputs": [
        {
          "internalType": "address[]",
          "name": "accounts",
          "type": "address[]"
        },
        {
          "internalType": "uint256[]",
          "name": "ids",
          "type": "uint256[]"
        }
      ],
      "name": "balanceOfBatch",
      "outputs": [
        {
          "internalType": "uint256[]",
          "name": "",
          "type": "uint256[]"
        }
      ],
      "payable": false,
      "stateMutability": "view",
      "type": "function"
    },
    {
      "constant": true,
      "inputs": [
        {
          "internalType": "address",
          "name": "account",
          "type": "address"
        },
        {
          "internalType": "uint256",
          "name": "id",
          "type": "uint256"
        }
      ],
      "name": "birthdayOf",
      "outputs": [
        {
          "internalType": "uint256",
          "name": "",
          "type": "uint256"
        }
      ],
      "payable": false,
      "stateMutability": "view",
      "type": "function"
    },
    {
      "constant": false,
      "inputs": [
        {
          "internalType": "address",
          "name": "recipient",
          "type": "address"
        },
        {
          "internalType": "uint256",
          "name": "id",
          "type": "uint256"
        },
        {
          "internalType": "uint256",
          "name": "supply",
          "type": "uint256"
        },
        {
          "internalType": "uint256",
          "name": "metadataHash",
          "type": "uint256"
        },
        {
          "internalType": "uint256",
          "name": "storageCreditCost",
          "type": "uint256"
        },
        {
          "internalType": "address[]",
          "name": "feesRecipients",
          "type": "address[]"
        },
        {
          "internalType": "uint256[]",
          "name": "feesRecipientsPercentage",
          "type": "uint256[]"
        }
      ],
      "name": "createToken",
      "outputs": [],
      "payable": false,
      "stateMutability": "nonpayable",
      "type": "function"
    },
    {
      "constant": false,
      "inputs": [
        {
          "internalType": "address",
          "name": "recipient",
          "type": "address"
        },
        {
          "internalType": "uint256[]",
          "name": "ids",
          "type": "uint256[]"
        },
        {
          "internalType": "uint256[]",
          "name": "metadataHashes",
          "type": "uint256[]"
        }
      ],
      "name": "createTokens",
      "outputs": [],
      "payable": false,
      "stateMutability": "nonpayable",
      "type": "function"
    },
    {
      "constant": true,
      "inputs": [
        {
          "internalType": "address",
          "name": "account",
          "type": "address"
        },
        {
          "internalType": "address",
          "name": "operator",
          "type": "address"
        }
      ],
      "name": "isApprovedForAll",
      "outputs": [
        {
          "internalType": "bool",
          "name": "",
          "type": "bool"
        }
      ],
      "payable": false,
      "stateMutability": "view",
      "type": "function"
    },
    {
      "constant": true,
      "inputs": [
        {
          "internalType": "address",
          "name": "addr",
          "type": "address"
        }
      ],
      "name": "isLockedAddress",
      "outputs": [
        {
          "internalType": "bool",
          "name": "",
          "type": "bool"
        }
      ],
      "payable": false,
      "stateMutability": "view",
      "type": "function"
    },
    {
      "constant": true,
      "inputs": [
        {
          "internalType": "uint256",
          "name": "id",
          "type": "uint256"
        }
      ],
      "name": "isLockedToken",
      "outputs": [
        {
          "internalType": "bool",
          "name": "",
          "type": "bool"
        }
      ],
      "payable": false,
      "stateMutability": "view",
      "type": "function"
    },
    {
      "constant": true,
      "inputs": [
        {
          "internalType": "address",
          "name": "tokenizer",
          "type": "address"
        }
      ],
      "name": "isTokenizer",
      "outputs": [
        {
          "internalType": "bool",
          "name": "",
          "type": "bool"
        }
      ],
      "payable": false,
      "stateMutability": "view",
      "type": "function"
    },
    {
      "constant": false,
      "inputs": [
        {
          "internalType": "address",
          "name": "addr",
          "type": "address"
        }
      ],
      "name": "lockAddress",
      "outputs": [],
      "payable": false,
      "stateMutability": "nonpayable",
      "type": "function"
    },
    {
      "constant": false,
      "inputs": [
        {
          "internalType": "uint256",
          "name": "id",
          "type": "uint256"
        }
      ],
      "name": "lockToken",
      "outputs": [],
      "payable": false,
      "stateMutability": "nonpayable",
      "type": "function"
    },
    {
      "constant": true,
      "inputs": [
        {
          "internalType": "uint256",
          "name": "id",
          "type": "uint256"
        }
      ],
      "name": "metadataHash",
      "outputs": [
        {
          "internalType": "uint256",
          "name": "",
          "type": "uint256"
        }
      ],
      "payable": false,
      "stateMutability": "view",
      "type": "function"
    },
    {
      "constant": true,
      "inputs": [],
      "name": "owner",
      "outputs": [
        {
          "internalType": "address",
          "name": "",
          "type": "address"
        }
      ],
      "payable": false,
      "stateMutability": "view",
      "type": "function"
    },
    {
      "constant": false,
      "inputs": [
        {
          "internalType": "uint256",
          "name": "id",
          "type": "uint256"
        },
        {
          "internalType": "uint256",
          "name": "price",
          "type": "uint256"
        }
      ],
      "name": "proposeCallback",
      "outputs": [],
      "payable": true,
      "stateMutability": "payable",
      "type": "function"
    },
    {
      "constant": false,
      "inputs": [
        {
          "internalType": "uint256",
          "name": "id",
          "type": "uint256"
        },
        {
          "internalType": "address",
          "name": "proposer",
          "type": "address"
        }
      ],
      "name": "refuseCallback",
      "outputs": [],
      "payable": false,
      "stateMutability": "nonpayable",
      "type": "function"
    },
    {
      "constant": false,
      "inputs": [
        {
          "internalType": "address",
          "name": "tokenizer",
          "type": "address"
        }
      ],
      "name": "revokeTokenizer",
      "outputs": [],
      "payable": false,
      "stateMutability": "nonpayable",
      "type": "function"
    },
    {
      "constant": false,
      "inputs": [
        {
          "internalType": "address",
          "name": "from",
          "type": "address"
        },
        {
          "internalType": "address",
          "name": "to",
          "type": "address"
        },
        {
          "internalType": "uint256[]",
          "name": "ids",
          "type": "uint256[]"
        },
        {
          "internalType": "uint256[]",
          "name": "values",
          "type": "uint256[]"
        },
        {
          "internalType": "bytes",
          "name": "data",
          "type": "bytes"
        }
      ],
      "name": "safeBatchTransferFrom",
      "outputs": [],
      "payable": true,
      "stateMutability": "payable",
      "type": "function"
    },
    {
      "constant": false,
      "inputs": [
        {
          "internalType": "address",
          "name": "from",
          "type": "address"
        },
        {
          "internalType": "address",
          "name": "to",
          "type": "address"
        },
        {
          "internalType": "uint256",
          "name": "id",
          "type": "uint256"
        },
        {
          "internalType": "uint256",
          "name": "value",
          "type": "uint256"
        },
        {
          "internalType": "bytes",
          "name": "data",
          "type": "bytes"
        }
      ],
      "name": "safeTransferFrom",
      "outputs": [],
      "payable": true,
      "stateMutability": "payable",
      "type": "function"
    },
    {
      "constant": false,
      "inputs": [
        {
          "internalType": "address",
          "name": "operator",
          "type": "address"
        },
        {
          "internalType": "bool",
          "name": "approved",
          "type": "bool"
        }
      ],
      "name": "setApprovalForAll",
      "outputs": [],
      "payable": false,
      "stateMutability": "nonpayable",
      "type": "function"
    },
    {
      "constant": false,
      "inputs": [
        {
          "internalType": "uint256",
          "name": "supply",
          "type": "uint256"
        },
        {
          "internalType": "uint256",
          "name": "storageCreditCost",
          "type": "uint256"
        },
        {
          "internalType": "address[]",
          "name": "feesRecipients",
          "type": "address[]"
        },
        {
          "internalType": "uint256[]",
          "name": "feesRecipientsPercentage",
          "type": "uint256[]"
        }
      ],
      "name": "setCreateTokensDefaultValues",
      "outputs": [],
      "payable": false,
      "stateMutability": "nonpayable",
      "type": "function"
    },
    {
      "constant": true,
      "inputs": [
        {
          "internalType": "address",
          "name": "account",
          "type": "address"
        },
        {
          "internalType": "uint256",
          "name": "id",
          "type": "uint256"
        },
        {
          "internalType": "uint256",
          "name": "value",
          "type": "uint256"
        }
      ],
      "name": "storageFees",
      "outputs": [
        {
          "internalType": "uint256",
          "name": "",
          "type": "uint256"
        }
      ],
      "payable": false,
      "stateMutability": "view",
      "type": "function"
    },
    {
      "constant": true,
      "inputs": [
        {
          "internalType": "bytes4",
          "name": "_interfaceID",
          "type": "bytes4"
        }
      ],
      "name": "supportsInterface",
      "outputs": [
        {
          "internalType": "bool",
          "name": "",
          "type": "bool"
        }
      ],
      "payable": false,
      "stateMutability": "view",
      "type": "function"
    },
    {
      "constant": true,
      "inputs": [
        {
          "internalType": "address",
          "name": "account",
          "type": "address"
        }
      ],
      "name": "tokensByAddress",
      "outputs": [
        {
          "internalType": "string",
          "name": "result",
          "type": "string"
        }
      ],
      "payable": false,
      "stateMutability": "view",
      "type": "function"
    },
    {
      "constant": true,
      "inputs": [
        {
          "internalType": "uint256",
          "name": "id",
          "type": "uint256"
        }
      ],
      "name": "totalSupply",
      "outputs": [
        {
          "internalType": "uint256",
          "name": "",
          "type": "uint256"
        }
      ],
      "payable": false,
      "stateMutability": "view",
      "type": "function"
    },
    {
      "constant": false,
      "inputs": [
        {
          "internalType": "address",
          "name": "newOwner",
          "type": "address"
        }
      ],
      "name": "transferOwnership",
      "outputs": [],
      "payable": false,
      "stateMutability": "nonpayable",
      "type": "function"
    },
    {
      "constant": false,
      "inputs": [
        {
          "internalType": "address",
          "name": "addr",
          "type": "address"
        }
      ],
      "name": "unlockAddress",
      "outputs": [],
      "payable": false,
      "stateMutability": "nonpayable",
      "type": "function"
    },
    {
      "constant": false,
      "inputs": [
        {
          "internalType": "uint256",
          "name": "id",
          "type": "uint256"
        }
      ],
      "name": "unlockToken",
      "outputs": [],
      "payable": false,
      "stateMutability": "nonpayable",
      "type": "function"
    },
    {
      "constant": false,
      "inputs": [
        {
          "internalType": "uint256",
          "name": "id",
          "type": "uint256"
        },
        {
          "internalType": "uint256",
          "name": "metadataHash",
          "type": "uint256"
        }
      ],
      "name": "updateMetadataHash",
      "outputs": [],
      "payable": false,
      "stateMutability": "nonpayable",
      "type": "function"
    },
    {
      "constant": false,
      "inputs": [
        {
          "internalType": "uint256",
          "name": "id",
          "type": "uint256"
        },
        {
          "internalType": "uint256",
          "name": "newCost",
          "type": "uint256"
        }
      ],
      "name": "updateStorageCost",
      "outputs": [],
      "payable": false,
      "stateMutability": "nonpayable",
      "type": "function"
    },
    {
      "constant": false,
      "inputs": [
        {
          "internalType": "uint256",
          "name": "newPrice",
          "type": "uint256"
        }
      ],
      "name": "updateStorageCreditPrice",
      "outputs": [],
      "payable": false,
      "stateMutability": "nonpayable",
      "type": "function"
    },
    {
      "constant": true,
      "inputs": [
        {
          "internalType": "uint256",
          "name": "id",
          "type": "uint256"
        }
      ],
      "name": "uri",
      "outputs": [
        {
          "internalType": "string",
          "name": "",
          "type": "string"
        }
      ],
      "payable": false,
      "stateMutability": "view",
      "type": "function"
    },
    {
      "constant": false,
      "inputs": [
        {
          "internalType": "address",
          "name": "to",
          "type": "address"
        },
        {
          "internalType": "uint256",
          "name": "amount",
          "type": "uint256"
        }
      ],
      "name": "withdraw",
      "outputs": [],
      "payable": false,
      "stateMutability": "nonpayable",
      "type": "function"
    }
  ],
  "bytecode": "0x60806040526103e8600655611f4060115562000021336200002760201b60201c565b620001f3565b600073ffffffffffffffffffffffffffffffffffffffff168173ffffffffffffffffffffffffffffffffffffffff1614156200009a576040517f08c379a00000000000000000000000000000000000000000000000000000000081526004016200009190620001c0565b60405180910390fd5b8073ffffffffffffffffffffffffffffffffffffffff166000809054906101000a900473ffffffffffffffffffffffffffffffffffffffff1673ffffffffffffffffffffffffffffffffffffffff167f8be0079c531659141344cd1fd0a4f28419497f9722a3daafe3b4186f6b6457e060405160405180910390a3806000806101000a81548173ffffffffffffffffffffffffffffffffffffffff021916908373ffffffffffffffffffffffffffffffffffffffff16021790555050565b600062000167602683620001e2565b91507f4f776e61626c653a206e6577206f776e657220697320746865207a65726f206160008301527f64647265737300000000000000000000000000000000000000000000000000006020830152604082019050919050565b60006020820190508181036000830152620001db8162000158565b9050919050565b600082825260208201905092915050565b616a8180620002036000396000f3fe60806040526004361061020e5760003560e01c8063a22cb46511610118578063d6bc5942116100a0578063e985e9c51161006f578063e985e9c5146107f8578063f242432a14610835578063f2fde38b14610851578063f38320ce1461087a578063f3fef3a3146108a35761020e565b8063d6bc59421461072a578063dbddb26a14610767578063dd2e0ac014610792578063e1c95f8a146107bb5761020e565b8063bba75c83116100e7578063bba75c83146105f9578063bd85b03914610636578063c02f303c14610673578063c4be3c3c146106b0578063cba54e60146106ed5761020e565b8063a22cb46514610541578063a29400721461056a578063b5690ac114610593578063b7eb5e0a146105d05761020e565b80636fe8ded21161019b5780638495b1411161016a5780638495b141146104725780638870147b1461049b5780638da5cb5b146104c4578063935a3650146104ef578063939cd641146105185761020e565b80636fe8ded2146103db57806370e0b145146104045780637627b7321461042057806380f20363146104495761020e565b80632eb2c2d6116101e25780632eb2c2d61461030757806334a90d02146103235780634e1273f41461034c5780634fa2dbea146103895780636b62becb146103b25761020e565b8062fdd58e1461021357806301ffc9a7146102505780630e89341c1461028d578063219cc8bc146102ca575b600080fd5b34801561021f57600080fd5b5061023a6004803603610235919081019061505e565b6108cc565b6040516102479190616773565b60405180910390f35b34801561025c57600080fd5b506102776004803603610272919081019061522b565b610996565b6040516102849190616314565b60405180910390f35b34801561029957600080fd5b506102b460048036036102af919081019061527d565b610a47565b6040516102c19190616351565b60405180910390f35b3480156102d657600080fd5b506102f160048036036102ec919081019061527d565b610a97565b6040516102fe9190616773565b60405180910390f35b610321600480360361031c9190810190614e3b565b610ab4565b005b34801561032f57600080fd5b5061034a60048036036103459190810190614dd6565b610e61565b005b34801561035857600080fd5b50610373600480360361036e91908101906151bf565b610f03565b60405161038091906162f2565b60405180910390f35b34801561039557600080fd5b506103b060048036036103ab91908101906150e9565b6110b5565b005b3480156103be57600080fd5b506103d960048036036103d491908101906152e2565b611199565b005b3480156103e757600080fd5b5061040260048036036103fd91908101906152a6565b6111ef565b005b61041e600480360361041991908101906152e2565b611446565b005b34801561042c57600080fd5b5061044760048036036104429190810190614dd6565b61173b565b005b34801561045557600080fd5b50610470600480360361046b919081019061527d565b6117dd565b005b34801561047e57600080fd5b506104996004803603610494919081019061527d565b611852565b005b3480156104a757600080fd5b506104c260048036036104bd9190810190614dd6565b6118f2565b005b3480156104d057600080fd5b506104d9611994565b6040516104e69190616188565b60405180910390f35b3480156104fb57600080fd5b506105166004803603610511919081019061531e565b6119bd565b005b34801561052457600080fd5b5061053f600480360361053a91908101906152e2565b611a3f565b005b34801561054d57600080fd5b5061056860048036036105639190810190615022565b611b3e565b005b34801561057657600080fd5b50610591600480360361058c91908101906152a6565b611caa565b005b34801561059f57600080fd5b506105ba60048036036105b5919081019061527d565b6122b7565b6040516105c79190616351565b60405180910390f35b3480156105dc57600080fd5b506105f760048036036105f29190810190614dd6565b612437565b005b34801561060557600080fd5b50610620600480360361061b919081019061527d565b6124d9565b60405161062d9190616314565b60405180910390f35b34801561064257600080fd5b5061065d6004803603610658919081019061527d565b6124eb565b60405161066a9190616773565b60405180910390f35b34801561067f57600080fd5b5061069a60048036036106959190810190614dd6565b612508565b6040516106a79190616314565b60405180910390f35b3480156106bc57600080fd5b506106d760048036036106d2919081019061509a565b61251a565b6040516106e49190616773565b60405180910390f35b3480156106f957600080fd5b50610714600480360361070f9190810190614dd6565b612530565b6040516107219190616314565b60405180910390f35b34801561073657600080fd5b50610751600480360361074c9190810190614dd6565b612542565b60405161075e9190616351565b60405180910390f35b34801561077357600080fd5b5061077c61273e565b604051610789919061632f565b60405180910390f35b34801561079e57600080fd5b506107b960048036036107b4919081019061527d565b612777565b005b3480156107c757600080fd5b506107e260048036036107dd919081019061505e565b6127ed565b6040516107ef9190616773565b60405180910390f35b34801561080457600080fd5b5061081f600480360361081a9190810190614dff565b612917565b60405161082c9190616314565b60405180910390f35b61084f600480360361084a9190810190614f07565b6129ab565b005b34801561085d57600080fd5b5061087860048036036108739190810190614dd6565b612c47565b005b34801561088657600080fd5b506108a1600480360361089c9190810190614f99565b612c9a565b005b3480156108af57600080fd5b506108ca60048036036108c5919081019061505e565b612e13565b005b60008073ffffffffffffffffffffffffffffffffffffffff168373ffffffffffffffffffffffffffffffffffffffff16141561093d576040517f08c379a0000000000000000000000000000000000000000000000000000000008152600401610934906163d3565b60405180910390fd5b6003600083815260200190815260200160002060008473ffffffffffffffffffffffffffffffffffffffff1673ffffffffffffffffffffffffffffffffffffffff16815260200190815260200160002054905092915050565b60006301ffc9a760e01b7bffffffffffffffffffffffffffffffffffffffffffffffffffffffff1916827bffffffffffffffffffffffffffffffffffffffffffffffffffffffff19161480610a2f575063d9b67a2660e01b7bffffffffffffffffffffffffffffffffffffffffffffffffffffffff1916827bffffffffffffffffffffffffffffffffffffffffffffffffffffffff1916145b15610a3d5760019050610a42565b600090505b919050565b6060610a906040518060400160405280601d81526020017f68747470733a2f2f7374617368626c6f782e636f6d2f746f6b656e732f000000815250610a8b84612f9f565b61308e565b9050919050565b6000600e6000838152602001908152602001600020549050919050565b838390508686905014610afc576040517f08c379a0000000000000000000000000000000000000000000000000000000008152600401610af3906166b3565b60405180910390fd5b600073ffffffffffffffffffffffffffffffffffffffff168773ffffffffffffffffffffffffffffffffffffffff161415610b6c576040517f08c379a0000000000000000000000000000000000000000000000000000000008152600401610b6390616433565b60405180910390fd5b3373ffffffffffffffffffffffffffffffffffffffff168873ffffffffffffffffffffffffffffffffffffffff161480610bb3575060011515610baf8933612917565b1515145b610bf2576040517f08c379a0000000000000000000000000000000000000000000000000000000008152600401610be990616693565b60405180910390fd5b600034905060008090505b87879050811015610c4857610c398a8a8a8a85818110610c1957fe5b90506020020135898986818110610c2c57fe5b90506020020135866131d9565b82039150806001019050610bfd565b508773ffffffffffffffffffffffffffffffffffffffff168973ffffffffffffffffffffffffffffffffffffffff163373ffffffffffffffffffffffffffffffffffffffff167f4a39dc06d4c0dbc64b70af90fd698a233a518aa5d07e595d983b8c0526c8f7fb8a8a8a8a604051610cc394939291906162b7565b60405180910390a4610d9f338a8a8a8a80806020026020016040519081016040528093929190818152602001838360200280828437600081840152601f19601f82011690508083019250505050505050898980806020026020016040519081016040528093929190818152602001838360200280828437600081840152601f19601f8201169050808301925050505050505088888080601f016020809104026020016040519081016040528093929190818152602001838380828437600081840152601f19601f820116905080830192505050505050506138bc565b6000811115610e565760003373ffffffffffffffffffffffffffffffffffffffff1682604051610dce90616173565b60006040518083038185875af1925050503d8060008114610e0b576040519150601f19603f3d011682016040523d82523d6000602084013e610e10565b606091505b5050905080610e54576040517f08c379a0000000000000000000000000000000000000000000000000000000008152600401610e4b906166d3565b60405180910390fd5b505b505050505050505050565b610e69613a1b565b610ea8576040517f08c379a0000000000000000000000000000000000000000000000000000000008152600401610e9f906165d3565b60405180910390fd5b6001600260008373ffffffffffffffffffffffffffffffffffffffff1673ffffffffffffffffffffffffffffffffffffffff16815260200190815260200160002060006101000a81548160ff02191690831515021790555050565b60608151835114610f49576040517f08c379a0000000000000000000000000000000000000000000000000000000008152600401610f4090616513565b60405180910390fd5b60608351604051908082528060200260200182016040528015610f7b5781602001602082028038833980820191505090505b50905060008090505b84518110156110aa57600073ffffffffffffffffffffffffffffffffffffffff16858281518110610fb157fe5b602002602001015173ffffffffffffffffffffffffffffffffffffffff161415611010576040517f08c379a000000000000000000000000000000000000000000000000000000000815260040161100790616573565b60405180910390fd5b6003600085838151811061102057fe5b60200260200101518152602001908152602001600020600086838151811061104457fe5b602002602001015173ffffffffffffffffffffffffffffffffffffffff1673ffffffffffffffffffffffffffffffffffffffff1681526020019081526020016000205482828151811061109357fe5b602002602001018181525050806001019050610f84565b508091505092915050565b6110be33613a72565b6110fd576040517f08c379a00000000000000000000000000000000000000000000000000000000081526004016110f4906164d3565b60405180910390fd5b61118e8989898989898980806020026020016040519081016040528093929190818152602001838360200280828437600081840152601f19601f82011690508083019250505050505050888880806020026020016040519081016040528093929190818152602001838360200280828437600081840152601f19601f82011690508083019250505050505050613ad7565b505050505050505050565b6111a233613a72565b6111e1576040517f08c379a00000000000000000000000000000000000000000000000000000000081526004016111d8906164d3565b60405180910390fd5b6111eb8282613fe7565b5050565b6111f7613a1b565b611236576040517f08c379a000000000000000000000000000000000000000000000000000000000815260040161122d906165d3565b60405180910390fd5b60006012600084815260200190815260200160002060008373ffffffffffffffffffffffffffffffffffffffff1673ffffffffffffffffffffffffffffffffffffffff16815260200190815260200160002060006002811061129457fe5b0154905060006012600085815260200190815260200160002060008473ffffffffffffffffffffffffffffffffffffffff1673ffffffffffffffffffffffffffffffffffffffff1681526020019081526020016000206001600281106112f657fe5b015490506000821161133d576040517f08c379a000000000000000000000000000000000000000000000000000000000815260040161133490616613565b60405180910390fd5b80600960008573ffffffffffffffffffffffffffffffffffffffff1673ffffffffffffffffffffffffffffffffffffffff168152602001908152602001600020600082825401925050819055506040518060400160405280600060ff168152602001600060ff168152506012600086815260200190815260200160002060008573ffffffffffffffffffffffffffffffffffffffff1673ffffffffffffffffffffffffffffffffffffffff1681526020019081526020016000209060026114059291906148d8565b50837fd7e908f6f9af1236bea3e4382bb17cabca5929dec62fbb431284240820150ddd848460405161143892919061628e565b60405180910390a250505050565b6000600f6000848152602001908152602001600020541161149c576040517f08c379a000000000000000000000000000000000000000000000000000000000815260040161149390616413565b60405180910390fd5b600081116114df576040517f08c379a00000000000000000000000000000000000000000000000000000000081526004016114d690616493565b60405180910390fd5b600061151d61271061150f601154600f60008881526020019081526020016000205461403190919063ffffffff16565b6140a190919063ffffffff16565b9050806003600085815260200190815260200160002060003373ffffffffffffffffffffffffffffffffffffffff1673ffffffffffffffffffffffffffffffffffffffff1681526020019081526020016000205410156115b2576040517f08c379a00000000000000000000000000000000000000000000000000000000081526004016115a9906164f3565b60405180910390fd5b600061162a6003600086815260200190815260200160002060003373ffffffffffffffffffffffffffffffffffffffff1673ffffffffffffffffffffffffffffffffffffffff16815260200190815260200160002054600f6000878152602001908152602001600020546140eb90919063ffffffff16565b90506000611641848361403190919063ffffffff16565b905080341015611686576040517f08c379a000000000000000000000000000000000000000000000000000000000815260040161167d906165f3565b60405180910390fd5b6040518060400160405280858152602001348152506012600087815260200190815260200160002060003373ffffffffffffffffffffffffffffffffffffffff1673ffffffffffffffffffffffffffffffffffffffff1681526020019081526020016000209060026116f992919061491d565b50847f2a7673db20f80755f65f456687dc9fd630454e8c76e428cb4a4ae1d0410cef5e338660405161172c9291906161a3565b60405180910390a25050505050565b611743613a1b565b611782576040517f08c379a0000000000000000000000000000000000000000000000000000000008152600401611779906165d3565b60405180910390fd5b6001601060008373ffffffffffffffffffffffffffffffffffffffff1673ffffffffffffffffffffffffffffffffffffffff16815260200190815260200160002060006101000a81548160ff02191690831515021790555050565b6117e5613a1b565b611824576040517f08c379a000000000000000000000000000000000000000000000000000000000815260040161181b906165d3565b60405180910390fd5b600180600083815260200190815260200160002060006101000a81548160ff02191690831515021790555050565b61185b33613a72565b61189a576040517f08c379a0000000000000000000000000000000000000000000000000000000008152600401611891906164d3565b60405180910390fd5b806006819055503373ffffffffffffffffffffffffffffffffffffffff167f5c5a35dc0829d2f6a31d1d6da57c4315ba7b562ee447c87b75c732cfd96abde9826040516118e79190616773565b60405180910390a250565b6118fa613a1b565b611939576040517f08c379a0000000000000000000000000000000000000000000000000000000008152600401611930906165d3565b60405180910390fd5b6000601060008373ffffffffffffffffffffffffffffffffffffffff1673ffffffffffffffffffffffffffffffffffffffff16815260200190815260200160002060006101000a81548160ff02191690831515021790555050565b60008060009054906101000a900473ffffffffffffffffffffffffffffffffffffffff16905090565b6119c633613a72565b611a05576040517f08c379a00000000000000000000000000000000000000000000000000000000081526004016119fc906164d3565b60405180910390fd5b8560138190555084601481905550838360159190611a2492919061495d565b50818160169190611a369291906149fd565b50505050505050565b611a4833613a72565b611a87576040517f08c379a0000000000000000000000000000000000000000000000000000000008152600401611a7e906164d3565b60405180910390fd5b6005600083815260200190815260200160002060405180604001604052804281526020018381525090806001815401808255809150509060018203906000526020600020906002020160009091929091909150906002611ae892919061491d565b50503373ffffffffffffffffffffffffffffffffffffffff167f4bd9446604f43017ac3918d8db419b59a3b6f2a6cdd456eed5de99621bb627658383604051611b3292919061678e565b60405180910390a25050565b8173ffffffffffffffffffffffffffffffffffffffff163373ffffffffffffffffffffffffffffffffffffffff161415611bad576040517f08c379a0000000000000000000000000000000000000000000000000000000008152600401611ba490616473565b60405180910390fd5b80600d60003373ffffffffffffffffffffffffffffffffffffffff1673ffffffffffffffffffffffffffffffffffffffff16815260200190815260200160002060008473ffffffffffffffffffffffffffffffffffffffff1673ffffffffffffffffffffffffffffffffffffffff16815260200190815260200160002060006101000a81548160ff0219169083151502179055508173ffffffffffffffffffffffffffffffffffffffff163373ffffffffffffffffffffffffffffffffffffffff167f17307eab39ab6107e8899845ad3d59bd9653f200f220920489ca2b5937696c3183604051611c9e9190616314565b60405180910390a35050565b611cb2613a1b565b611cf1576040517f08c379a0000000000000000000000000000000000000000000000000000000008152600401611ce8906165d3565b60405180910390fd5b60006012600084815260200190815260200160002060008373ffffffffffffffffffffffffffffffffffffffff1673ffffffffffffffffffffffffffffffffffffffff168152602001908152602001600020600060028110611d4f57fe5b0154905060006012600085815260200190815260200160002060008473ffffffffffffffffffffffffffffffffffffffff1673ffffffffffffffffffffffffffffffffffffffff168152602001908152602001600020600160028110611db157fe5b0154905060008211611df8576040517f08c379a0000000000000000000000000000000000000000000000000000000008152600401611def90616613565b60405180910390fd5b6000611e36612710611e28601154600f60008a81526020019081526020016000205461403190919063ffffffff16565b6140a190919063ffffffff16565b9050806003600087815260200190815260200160002060003373ffffffffffffffffffffffffffffffffffffffff1673ffffffffffffffffffffffffffffffffffffffff168152602001908152602001600020541015611ecb576040517f08c379a0000000000000000000000000000000000000000000000000000000008152600401611ec290616393565b60405180910390fd5b6000611f436003600088815260200190815260200160002060003373ffffffffffffffffffffffffffffffffffffffff1673ffffffffffffffffffffffffffffffffffffffff16815260200190815260200160002054600f6000898152602001908152602001600020546140eb90919063ffffffff16565b90506000611f5a858361403190919063ffffffff16565b905080841015611f9f576040517f08c379a0000000000000000000000000000000000000000000000000000000008152600401611f9690616673565b60405180910390fd5b60008090505b600b600089815260200190815260200160002080549050811015612137576000600b60008a81526020019081526020016000208281548110611fe357fe5b9060005260206000200160009054906101000a900473ffffffffffffffffffffffffffffffffffffffff1690506000600360008b815260200190815260200160002060008373ffffffffffffffffffffffffffffffffffffffff1673ffffffffffffffffffffffffffffffffffffffff168152602001908152602001600020549050600081111561212a576000612083828a61403190919063ffffffff16565b905080600960008573ffffffffffffffffffffffffffffffffffffffff1673ffffffffffffffffffffffffffffffffffffffff168152602001908152602001600020600082825401925050819055506000600360008d815260200190815260200160002060008573ffffffffffffffffffffffffffffffffffffffff1673ffffffffffffffffffffffffffffffffffffffff16815260200190815260200160002081905550505b5050806001019050611fa5565b50600f6000888152602001908152602001600020546003600089815260200190815260200160002060008873ffffffffffffffffffffffffffffffffffffffff1673ffffffffffffffffffffffffffffffffffffffff16815260200190815260200160002081905550808411156121f857808403600960008873ffffffffffffffffffffffffffffffffffffffff1673ffffffffffffffffffffffffffffffffffffffff168152602001908152602001600020600082825401925050819055505b6040518060400160405280600060ff168152602001600060ff168152506012600089815260200190815260200160002060008873ffffffffffffffffffffffffffffffffffffffff1673ffffffffffffffffffffffffffffffffffffffff1681526020019081526020016000209060026122739291906148d8565b50867f1a28571d07f35a57e1ed755a57928ae32539f444bbcef661637165f04fb5083f87876040516122a692919061628e565b60405180910390a250505050505050565b606060008090505b600b60008481526020019081526020016000208054905081101561242e576000600b600085815260200190815260200160002082815481106122fd57fe5b9060005260206000200160009054906101000a900473ffffffffffffffffffffffffffffffffffffffff16905060006003600086815260200190815260200160002060008373ffffffffffffffffffffffffffffffffffffffff1673ffffffffffffffffffffffffffffffffffffffff168152602001908152602001600020541115612420576000835111156123fd576123cc836040518060400160405280600181526020017f200000000000000000000000000000000000000000000000000000000000000081525061308e565b92506123f6836123f18373ffffffffffffffffffffffffffffffffffffffff16612f9f565b61308e565b925061241f565b61241c8173ffffffffffffffffffffffffffffffffffffffff16612f9f565b92505b5b5080806001019150506122bf565b50809050919050565b61243f613a1b565b61247e576040517f08c379a0000000000000000000000000000000000000000000000000000000008152600401612475906165d3565b60405180910390fd5b6000600260008373ffffffffffffffffffffffffffffffffffffffff1673ffffffffffffffffffffffffffffffffffffffff16815260200190815260200160002060006101000a81548160ff02191690831515021790555050565b60006124e482614135565b9050919050565b6000600f6000838152602001908152602001600020549050919050565b600061251382613a72565b9050919050565b600061252784848461415f565b90509392505050565b600061253b826143b0565b9050919050565b6060600073ffffffffffffffffffffffffffffffffffffffff168273ffffffffffffffffffffffffffffffffffffffff1614156125b4576040517f08c379a00000000000000000000000000000000000000000000000000000000081526004016125ab906163d3565b60405180910390fd5b60008090505b600a60008473ffffffffffffffffffffffffffffffffffffffff1673ffffffffffffffffffffffffffffffffffffffff16815260200190815260200160002080549050811015612735576000600a60008573ffffffffffffffffffffffffffffffffffffffff1673ffffffffffffffffffffffffffffffffffffffff168152602001908152602001600020828154811061265057fe5b9060005260206000200154905060006003600083815260200190815260200160002060008673ffffffffffffffffffffffffffffffffffffffff1673ffffffffffffffffffffffffffffffffffffffff1681526020019081526020016000205411156127275760008351111561271a576126ff836040518060400160405280600181526020017f200000000000000000000000000000000000000000000000000000000000000081525061308e565b92506127138361270e83612f9f565b61308e565b9250612726565b61272381612f9f565b92505b5b5080806001019150506125ba565b50809050919050565b6040518060400160405280601d81526020017f68747470733a2f2f7374617368626c6f782e636f6d2f746f6b656e732f00000081525081565b61277f613a1b565b6127be576040517f08c379a00000000000000000000000000000000000000000000000000000000081526004016127b5906165d3565b60405180910390fd5b60006001600083815260200190815260200160002060006101000a81548160ff02191690831515021790555050565b60008073ffffffffffffffffffffffffffffffffffffffff168373ffffffffffffffffffffffffffffffffffffffff16141561285e576040517f08c379a0000000000000000000000000000000000000000000000000000000008152600401612855906163d3565b60405180910390fd5b60006003600084815260200190815260200160002060008573ffffffffffffffffffffffffffffffffffffffff1673ffffffffffffffffffffffffffffffffffffffff168152602001908152602001600020541461290c576004600083815260200190815260200160002060008473ffffffffffffffffffffffffffffffffffffffff1673ffffffffffffffffffffffffffffffffffffffff1681526020019081526020016000205461290f565b60005b905092915050565b6000600d60008473ffffffffffffffffffffffffffffffffffffffff1673ffffffffffffffffffffffffffffffffffffffff16815260200190815260200160002060008373ffffffffffffffffffffffffffffffffffffffff1673ffffffffffffffffffffffffffffffffffffffff16815260200190815260200160002060009054906101000a900460ff16905092915050565b600073ffffffffffffffffffffffffffffffffffffffff168573ffffffffffffffffffffffffffffffffffffffff161415612a1b576040517f08c379a0000000000000000000000000000000000000000000000000000000008152600401612a1290616433565b60405180910390fd5b3373ffffffffffffffffffffffffffffffffffffffff168673ffffffffffffffffffffffffffffffffffffffff161480612a62575060011515612a5e8733612917565b1515145b612aa1576040517f08c379a0000000000000000000000000000000000000000000000000000000008152600401612a9890616693565b60405180910390fd5b6000349050612ab387878787856131d9565b810390508573ffffffffffffffffffffffffffffffffffffffff168773ffffffffffffffffffffffffffffffffffffffff163373ffffffffffffffffffffffffffffffffffffffff167fc3d58168c5ae7397731d063d5bbf3d657854427343f4c083240f7aacaa2d0f628888604051612b2d92919061678e565b60405180910390a4612b87338888888888888080601f016020809104026020016040519081016040528093929190818152602001838380828437600081840152601f19601f82011690508083019250505050505050614406565b6000811115612c3e5760003373ffffffffffffffffffffffffffffffffffffffff1682604051612bb690616173565b60006040518083038185875af1925050503d8060008114612bf3576040519150601f19603f3d011682016040523d82523d6000602084013e612bf8565b606091505b5050905080612c3c576040517f08c379a0000000000000000000000000000000000000000000000000000000008152600401612c33906166d3565b60405180910390fd5b505b50505050505050565b612c4f613a1b565b612c8e576040517f08c379a0000000000000000000000000000000000000000000000000000000008152600401612c85906165d3565b60405180910390fd5b612c9781614565565b50565b612ca333613a72565b612ce2576040517f08c379a0000000000000000000000000000000000000000000000000000000008152600401612cd9906164d3565b60405180910390fd5b60008090505b84849050811015612e0b57612e0086868684818110612d0357fe5b90506020020135601354868686818110612d1957fe5b905060200201356014546015805480602002602001604051908101604052809291908181526020018280548015612da557602002820191906000526020600020905b8160009054906101000a900473ffffffffffffffffffffffffffffffffffffffff1673ffffffffffffffffffffffffffffffffffffffff1681526020019060010190808311612d5b575b50505050506016805480602002602001604051908101604052809291908181526020018280548015612df657602002820191906000526020600020905b815481526020019060010190808311612de2575b5050505050613ad7565b806001019050612ce8565b505050505050565b612e1b613a1b565b612e5a576040517f08c379a0000000000000000000000000000000000000000000000000000000008152600401612e51906165d3565b60405180910390fd5b80600960008473ffffffffffffffffffffffffffffffffffffffff1673ffffffffffffffffffffffffffffffffffffffff1681526020019081526020016000205410612f9b5760008273ffffffffffffffffffffffffffffffffffffffff1682604051612ec690616173565b60006040518083038185875af1925050503d8060008114612f03576040519150601f19603f3d011682016040523d82523d6000602084013e612f08565b606091505b5050905080612f4c576040517f08c379a0000000000000000000000000000000000000000000000000000000008152600401612f4390616373565b60405180910390fd5b81600960008573ffffffffffffffffffffffffffffffffffffffff1673ffffffffffffffffffffffffffffffffffffffff16815260200190815260200160002060008282540392505081905550505b5050565b6060600080905060008390505b60008114612fce57818060010192505060108181612fc657fe5b049050612fac565b6060826040519080825280601f01601f1916602001820160405280156130035781602001600182028038833980820191505090505b50905060008090505b83811015613082576010868161301e57fe5b06925061302a83614693565b826001838703038151811061303b57fe5b60200101907effffffffffffffffffffffffffffffffffffffffffffffffffffffffffffff1916908160001a9053506010868161307457fe5b04955080600101905061300c565b50809350505050919050565b6060808390506060839050606081518351016040519080825280601f01601f1916602001820160405280156130d25781602001600182028038833980820191505090505b509050606081905060008090506000809050600090505b8551811015613157578581815181106130fe57fe5b602001015160f81c60f81b83838060010194508151811061311b57fe5b60200101907effffffffffffffffffffffffffffffffffffffffffffffffffffffffffffff1916908160001a90535080806001019150506130e9565b600090505b84518110156131ca5784818151811061317157fe5b602001015160f81c60f81b83838060010194508151811061318e57fe5b60200101907effffffffffffffffffffffffffffffffffffffffffffffffffffffffffffff1916908160001a905350808060010191505061315c565b82965050505050505092915050565b60006131e78686868661473c565b15613227576040517f08c379a000000000000000000000000000000000000000000000000000000000815260040161321e906163b3565b60405180910390fd5b61323286858561415f565b905080821015613277576040517f08c379a000000000000000000000000000000000000000000000000000000000815260040161326e90616753565b60405180910390fd5b6132f4836040518060600160405280602a8152602001616a15602a91396003600088815260200190815260200160002060008a73ffffffffffffffffffffffffffffffffffffffff1673ffffffffffffffffffffffffffffffffffffffff1681526020019081526020016000205461477c9092919063ffffffff16565b6003600086815260200190815260200160002060008873ffffffffffffffffffffffffffffffffffffffff1673ffffffffffffffffffffffffffffffffffffffff1681526020019081526020016000208190555060006133ad846003600088815260200190815260200160002060008973ffffffffffffffffffffffffffffffffffffffff1673ffffffffffffffffffffffffffffffffffffffff168152602001908152602001600020546147d790919063ffffffff16565b905060006003600087815260200190815260200160002060008873ffffffffffffffffffffffffffffffffffffffff1673ffffffffffffffffffffffffffffffffffffffff16815260200190815260200160002054141561360157600c600086815260200190815260200160002060008773ffffffffffffffffffffffffffffffffffffffff1673ffffffffffffffffffffffffffffffffffffffff16815260200190815260200160002060009054906101000a900460ff166135a757600a60008773ffffffffffffffffffffffffffffffffffffffff1673ffffffffffffffffffffffffffffffffffffffff168152602001908152602001600020859080600181540180825580915050906001820390600052602060002001600090919290919091505550600b60008681526020019081526020016000208690806001815401808255809150509060018203906000526020600020016000909192909190916101000a81548173ffffffffffffffffffffffffffffffffffffffff021916908373ffffffffffffffffffffffffffffffffffffffff16021790555050600c600086815260200190815260200160002060008773ffffffffffffffffffffffffffffffffffffffff1673ffffffffffffffffffffffffffffffffffffffff16815260200190815260200160002060009054906101000a9050505b426004600087815260200190815260200160002060008873ffffffffffffffffffffffffffffffffffffffff1673ffffffffffffffffffffffffffffffffffffffff1681526020019081526020016000208190555061373b565b60006136666004600088815260200190815260200160002060008973ffffffffffffffffffffffffffffffffffffffff1673ffffffffffffffffffffffffffffffffffffffff16815260200190815260200160002054426140eb90919063ffffffff16565b905060006136df836136d184600360008c815260200190815260200160002060008d73ffffffffffffffffffffffffffffffffffffffff1673ffffffffffffffffffffffffffffffffffffffff1681526020019081526020016000205461403190919063ffffffff16565b6140a190919063ffffffff16565b90508042036004600089815260200190815260200160002060008a73ffffffffffffffffffffffffffffffffffffffff1673ffffffffffffffffffffffffffffffffffffffff1681526020019081526020016000208190555050505b806003600087815260200190815260200160002060008873ffffffffffffffffffffffffffffffffffffffff1673ffffffffffffffffffffffffffffffffffffffff1681526020019081526020016000208190555060008090505b60076000878152602001908152602001600020805490508110156138ae5760006007600088815260200190815260200160002082815481106137d457fe5b9060005260206000200160009054906101000a900473ffffffffffffffffffffffffffffffffffffffff169050600060086000898152602001908152602001600020838154811061382157fe5b90600052602060002001549050613855612710613847838861403190919063ffffffff16565b6140a190919063ffffffff16565b600960008473ffffffffffffffffffffffffffffffffffffffff1673ffffffffffffffffffffffffffffffffffffffff168152602001908152602001600020600082825401925050819055505050806001019050613796565b508191505095945050505050565b6138db8473ffffffffffffffffffffffffffffffffffffffff1661482c565b15613a13578373ffffffffffffffffffffffffffffffffffffffff1663bc197c81905060e01b7bffffffffffffffffffffffffffffffffffffffffffffffffffffffff19168473ffffffffffffffffffffffffffffffffffffffff1663bc197c8188888787876040518663ffffffff1660e01b81526004016139619594939291906161cc565b602060405180830381600087803b15801561397b57600080fd5b505af115801561398f573d6000803e3d6000fd5b505050506040513d601f19601f820116820180604052506139b39190810190615254565b7bffffffffffffffffffffffffffffffffffffffffffffffffffffffff191614613a12576040517f08c379a0000000000000000000000000000000000000000000000000000000008152600401613a0990616553565b60405180910390fd5b5b505050505050565b60008060009054906101000a900473ffffffffffffffffffffffffffffffffffffffff1673ffffffffffffffffffffffffffffffffffffffff163373ffffffffffffffffffffffffffffffffffffffff1614905090565b6000601060008373ffffffffffffffffffffffffffffffffffffffff1673ffffffffffffffffffffffffffffffffffffffff16815260200190815260200160002060009054906101000a900460ff1680613ad05750613acf613a1b565b5b9050919050565b6000600f60008881526020019081526020016000205414613b2d576040517f08c379a0000000000000000000000000000000000000000000000000000000008152600401613b24906165b3565b60405180910390fd5b60008511613b70576040517f08c379a0000000000000000000000000000000000000000000000000000000008152600401613b6790616533565b60405180910390fd5b60008311613bb3576040517f08c379a0000000000000000000000000000000000000000000000000000000008152600401613baa906164b3565b60405180910390fd5b6000825111613bf7576040517f08c379a0000000000000000000000000000000000000000000000000000000008152600401613bee90616713565b60405180910390fd5b8051825114613c3b576040517f08c379a0000000000000000000000000000000000000000000000000000000008152600401613c32906166f3565b60405180910390fd5b600080905060008090505b8251811015613cc857828181518110613c5b57fe5b6020026020010151820191506000838281518110613c7557fe5b602002602001015111613cbd576040517f08c379a0000000000000000000000000000000000000000000000000000000008152600401613cb490616633565b60405180910390fd5b806001019050613c46565b506127108114613d0d576040517f08c379a0000000000000000000000000000000000000000000000000000000008152600401613d0490616653565b60405180910390fd5b6001600c600089815260200190815260200160002060008a73ffffffffffffffffffffffffffffffffffffffff1673ffffffffffffffffffffffffffffffffffffffff16815260200190815260200160002060006101000a81548160ff021916908315150217905550600a60008973ffffffffffffffffffffffffffffffffffffffff1673ffffffffffffffffffffffffffffffffffffffff16815260200190815260200160002087908060018154018082558091505090600182039060005260206000200160009091929091909150555085600f600089815260200190815260200160002081905550856003600089815260200190815260200160002060008a73ffffffffffffffffffffffffffffffffffffffff1673ffffffffffffffffffffffffffffffffffffffff16815260200190815260200160002081905550613e568786613fe7565b426004600089815260200190815260200160002060008a73ffffffffffffffffffffffffffffffffffffffff1673ffffffffffffffffffffffffffffffffffffffff168152602001908152602001600020819055506005600088815260200190815260200160002060405180604001604052804281526020018681525090806001815401808255809150509060018203906000526020600020906002020160009091929091909150906002613f0c92919061491d565b505082600760008981526020019081526020016000209080519060200190613f35929190614a4a565b5081600860008981526020019081526020016000209080519060200190613f5d929190614ad4565b508773ffffffffffffffffffffffffffffffffffffffff16600073ffffffffffffffffffffffffffffffffffffffff163373ffffffffffffffffffffffffffffffffffffffff167fc3d58168c5ae7397731d063d5bbf3d657854427343f4c083240f7aacaa2d0f628a8a604051613fd592919061678e565b60405180910390a45050505050505050565b80600e60008481526020019081526020016000208190555080827f9cd9c60390fc75c213fd8d644749f61388dd30ed6c6eb4647b793b5b580fb43060405160405180910390a35050565b600080831415614044576000905061409b565b600082840290508284828161405557fe5b0414614096576040517f08c379a000000000000000000000000000000000000000000000000000000000815260040161408d90616593565b60405180910390fd5b809150505b92915050565b60006140e383836040518060400160405280601a81526020017f536166654d6174683a206469766973696f6e206279207a65726f000000000000815250614877565b905092915050565b600061412d83836040518060400160405280601e81526020017f536166654d6174683a207375627472616374696f6e206f766572666c6f77000081525061477c565b905092915050565b60006001600083815260200190815260200160002060009054906101000a900460ff169050919050565b60008073ffffffffffffffffffffffffffffffffffffffff168473ffffffffffffffffffffffffffffffffffffffff1614156141d0576040517f08c379a00000000000000000000000000000000000000000000000000000000081526004016141c7906163d3565b60405180910390fd5b600080905060004290506000600160056000888152602001908152602001600020805490500390505b600081106143a357600060056000888152602001908152602001600020828154811061422157fe5b906000526020600020906002020160006002811061423b57fe5b0154905060006305f5e100600654600560008b8152602001908152602001600020858154811061426757fe5b906000526020600020906002020160016002811061428157fe5b0154028161428b57fe5b049050600082600460008b815260200190815260200160002060008c73ffffffffffffffffffffffffffffffffffffffff1673ffffffffffffffffffffffffffffffffffffffff16815260200190815260200160002054106143675762015180600460008b815260200190815260200160002060008c73ffffffffffffffffffffffffffffffffffffffff1673ffffffffffffffffffffffffffffffffffffffff1681526020019081526020016000205486038161434557fe5b049050600081141561435657600190505b8782820202860195505050506143a3565b620151808386038161437557fe5b049050600081141561438657600190505b8294508782820202860195505050508080600190039150506141f9565b5081925050509392505050565b6000600260008373ffffffffffffffffffffffffffffffffffffffff1673ffffffffffffffffffffffffffffffffffffffff16815260200190815260200160002060009054906101000a900460ff169050919050565b6144258473ffffffffffffffffffffffffffffffffffffffff1661482c565b1561455d578373ffffffffffffffffffffffffffffffffffffffff1663f23a6e61905060e01b7bffffffffffffffffffffffffffffffffffffffffffffffffffffffff19168473ffffffffffffffffffffffffffffffffffffffff1663f23a6e6188888787876040518663ffffffff1660e01b81526004016144ab959493929190616234565b602060405180830381600087803b1580156144c557600080fd5b505af11580156144d9573d6000803e3d6000fd5b505050506040513d601f19601f820116820180604052506144fd9190810190615254565b7bffffffffffffffffffffffffffffffffffffffffffffffffffffffff19161461455c576040517f08c379a000000000000000000000000000000000000000000000000000000000815260040161455390616733565b60405180910390fd5b5b505050505050565b600073ffffffffffffffffffffffffffffffffffffffff168173ffffffffffffffffffffffffffffffffffffffff1614156145d5576040517f08c379a00000000000000000000000000000000000000000000000000000000081526004016145cc906163f3565b60405180910390fd5b8073ffffffffffffffffffffffffffffffffffffffff166000809054906101000a900473ffffffffffffffffffffffffffffffffffffffff1673ffffffffffffffffffffffffffffffffffffffff167f8be0079c531659141344cd1fd0a4f28419497f9722a3daafe3b4186f6b6457e060405160405180910390a3806000806101000a81548173ffffffffffffffffffffffffffffffffffffffff021916908373ffffffffffffffffffffffffffffffffffffffff16021790555050565b60008160ff166000111580156146ad575060098260ff1611155b156146e257817f300000000000000000000000000000000000000000000000000000000000000060f81c0160f81b9050614737565b8160ff16600a111580156146fa5750600f8260ff1611155b1561473257600a827f610000000000000000000000000000000000000000000000000000000000000060f81c010360f81b9050614737565b600080fd5b919050565b600061474783614135565b806147575750614756856143b0565b5b806147675750614766846143b0565b5b806147725750600082145b9050949350505050565b60008383111582906147c4576040517f08c379a00000000000000000000000000000000000000000000000000000000081526004016147bb9190616351565b60405180910390fd5b5060008385039050809150509392505050565b600080828401905083811015614822576040517f08c379a000000000000000000000000000000000000000000000000000000000815260040161481990616453565b60405180910390fd5b8091505092915050565b60008060007fc5d2460186f7233c927e7db2dcc703c0e500b653ca82273b7bfad8045d85a47060001b9050833f91506000801b821415801561486e5750808214155b92505050919050565b600080831182906148be576040517f08c379a00000000000000000000000000000000000000000000000000000000081526004016148b59190616351565b60405180910390fd5b5060008385816148ca57fe5b049050809150509392505050565b826002810192821561490c579160200282015b8281111561490b578251829060ff169055916020019190600101906148eb565b5b5090506149199190614b21565b5090565b826002810192821561494c579160200282015b8281111561494b578251825591602001919060010190614930565b5b5090506149599190614b21565b5090565b8280548282559060005260206000209081019282156149ec579160200282015b828111156149eb57823573ffffffffffffffffffffffffffffffffffffffff168260006101000a81548173ffffffffffffffffffffffffffffffffffffffff021916908373ffffffffffffffffffffffffffffffffffffffff1602179055509160200191906001019061497d565b5b5090506149f99190614b46565b5090565b828054828255906000526020600020908101928215614a39579160200282015b82811115614a38578235825591602001919060010190614a1d565b5b509050614a469190614b21565b5090565b828054828255906000526020600020908101928215614ac3579160200282015b82811115614ac25782518260006101000a81548173ffffffffffffffffffffffffffffffffffffffff021916908373ffffffffffffffffffffffffffffffffffffffff16021790555091602001919060010190614a6a565b5b509050614ad09190614b46565b5090565b828054828255906000526020600020908101928215614b10579160200282015b82811115614b0f578251825591602001919060010190614af4565b5b509050614b1d9190614b21565b5090565b614b4391905b80821115614b3f576000816000905550600101614b27565b5090565b90565b614b8691905b80821115614b8257600081816101000a81549073ffffffffffffffffffffffffffffffffffffffff021916905550600101614b4c565b5090565b90565b600081359050614b98816169b8565b92915050565b60008083601f840112614bb057600080fd5b8235905067ffffffffffffffff811115614bc957600080fd5b602083019150836020820283011115614be157600080fd5b9250929050565b600082601f830112614bf957600080fd5b8135614c0c614c07826167e4565b6167b7565b91508181835260208401935060208101905083856020840282011115614c3157600080fd5b60005b83811015614c615781614c478882614b89565b845260208401935060208301925050600181019050614c34565b5050505092915050565b60008083601f840112614c7d57600080fd5b8235905067ffffffffffffffff811115614c9657600080fd5b602083019150836020820283011115614cae57600080fd5b9250929050565b600082601f830112614cc657600080fd5b8135614cd9614cd48261680c565b6167b7565b91508181835260208401935060208101905083856020840282011115614cfe57600080fd5b60005b83811015614d2e5781614d148882614dc1565b845260208401935060208301925050600181019050614d01565b5050505092915050565b600081359050614d47816169cf565b92915050565b600081359050614d5c816169e6565b92915050565b600081519050614d71816169e6565b92915050565b60008083601f840112614d8957600080fd5b8235905067ffffffffffffffff811115614da257600080fd5b602083019150836001820283011115614dba57600080fd5b9250929050565b600081359050614dd0816169fd565b92915050565b600060208284031215614de857600080fd5b6000614df684828501614b89565b91505092915050565b60008060408385031215614e1257600080fd5b6000614e2085828601614b89565b9250506020614e3185828601614b89565b9150509250929050565b60008060008060008060008060a0898b031215614e5757600080fd5b6000614e658b828c01614b89565b9850506020614e768b828c01614b89565b975050604089013567ffffffffffffffff811115614e9357600080fd5b614e9f8b828c01614c6b565b9650965050606089013567ffffffffffffffff811115614ebe57600080fd5b614eca8b828c01614c6b565b9450945050608089013567ffffffffffffffff811115614ee957600080fd5b614ef58b828c01614d77565b92509250509295985092959890939650565b60008060008060008060a08789031215614f2057600080fd5b6000614f2e89828a01614b89565b9650506020614f3f89828a01614b89565b9550506040614f5089828a01614dc1565b9450506060614f6189828a01614dc1565b935050608087013567ffffffffffffffff811115614f7e57600080fd5b614f8a89828a01614d77565b92509250509295509295509295565b600080600080600060608688031215614fb157600080fd5b6000614fbf88828901614b89565b955050602086013567ffffffffffffffff811115614fdc57600080fd5b614fe888828901614c6b565b9450945050604086013567ffffffffffffffff81111561500757600080fd5b61501388828901614c6b565b92509250509295509295909350565b6000806040838503121561503557600080fd5b600061504385828601614b89565b925050602061505485828601614d38565b9150509250929050565b6000806040838503121561507157600080fd5b600061507f85828601614b89565b925050602061509085828601614dc1565b9150509250929050565b6000806000606084860312156150af57600080fd5b60006150bd86828701614b89565b93505060206150ce86828701614dc1565b92505060406150df86828701614dc1565b9150509250925092565b600080600080600080600080600060e08a8c03121561510757600080fd5b60006151158c828d01614b89565b99505060206151268c828d01614dc1565b98505060406151378c828d01614dc1565b97505060606151488c828d01614dc1565b96505060806151598c828d01614dc1565b95505060a08a013567ffffffffffffffff81111561517657600080fd5b6151828c828d01614b9e565b945094505060c08a013567ffffffffffffffff8111156151a157600080fd5b6151ad8c828d01614c6b565b92509250509295985092959850929598565b600080604083850312156151d257600080fd5b600083013567ffffffffffffffff8111156151ec57600080fd5b6151f885828601614be8565b925050602083013567ffffffffffffffff81111561521557600080fd5b61522185828601614cb5565b9150509250929050565b60006020828403121561523d57600080fd5b600061524b84828501614d4d565b91505092915050565b60006020828403121561526657600080fd5b600061527484828501614d62565b91505092915050565b60006020828403121561528f57600080fd5b600061529d84828501614dc1565b91505092915050565b600080604083850312156152b957600080fd5b60006152c785828601614dc1565b92505060206152d885828601614b89565b9150509250929050565b600080604083850312156152f557600080fd5b600061530385828601614dc1565b925050602061531485828601614dc1565b9150509250929050565b6000806000806000806080878903121561533757600080fd5b600061534589828a01614dc1565b965050602061535689828a01614dc1565b955050604087013567ffffffffffffffff81111561537357600080fd5b61537f89828a01614b9e565b9450945050606087013567ffffffffffffffff81111561539e57600080fd5b6153aa89828a01614c6b565b92509250509295509295509295565b60006153c58383616155565b60208301905092915050565b6153da8161692f565b82525050565b6153e9816168bb565b82525050565b60006153fb838561687d565b93507f07ffffffffffffffffffffffffffffffffffffffffffffffffffffffffffffff83111561542a57600080fd5b60208302925061543b838584616965565b82840190509392505050565b600061545282616844565b61545c818561687d565b935061546783616834565b8060005b8381101561549857815161547f88826153b9565b975061548a83616870565b92505060018101905061546b565b5085935050505092915050565b6154ae816168cd565b82525050565b60006154bf8261684f565b6154c9818561688e565b93506154d9818560208601616974565b6154e2816169a7565b840191505092915050565b60006154f882616865565b61550281856168aa565b9350615512818560208601616974565b61551b816169a7565b840191505092915050565b60006155318261685a565b61553b81856168aa565b935061554b818560208601616974565b615554816169a7565b840191505092915050565b600061556c601d836168aa565b91507f5374617368426c6f783a205769746864726177616c206661696c65642e0000006000830152602082019050919050565b60006155ac6038836168aa565b91507f5374617368426c6f783a20696e73756666696369656e742062616c616e63652060008301527f746f2065786563757465207468652063616c6c6261636b2e00000000000000006020830152604082019050919050565b60006156126006836168aa565b91507f4c6f636b656400000000000000000000000000000000000000000000000000006000830152602082019050919050565b6000615652602b836168aa565b91507f455243313135353a2062616c616e636520717565727920666f7220746865207a60008301527f65726f20616464726573730000000000000000000000000000000000000000006020830152604082019050919050565b60006156b86026836168aa565b91507f4f776e61626c653a206e6577206f776e657220697320746865207a65726f206160008301527f64647265737300000000000000000000000000000000000000000000000000006020830152604082019050919050565b600061571e6019836168aa565b91507f5374617368426c6f783a20556e6b6e6f776e20746f6b656e2e000000000000006000830152602082019050919050565b600061575e6028836168aa565b91507f455243313135353a207461726765742061646472657373206d7573742062652060008301527f6e6f6e2d7a65726f0000000000000000000000000000000000000000000000006020830152604082019050919050565b60006157c4601b836168aa565b91507f536166654d6174683a206164646974696f6e206f766572666c6f7700000000006000830152602082019050919050565b6000615804602c836168aa565b91507f455243313135353a2063616e6e6f742073657420617070726f76616c2073746160008301527f74757320666f722073656c6600000000000000000000000000000000000000006020830152604082019050919050565b600061586a6028836168aa565b91507f5374617368426c6f783a205072696365206d757374206265206772656174657260008301527f207468616e20302e0000000000000000000000000000000000000000000000006020830152604082019050919050565b60006158d06035836168aa565b91507f5374617368426c6f783a2073746f72616765437265646974436f73742073686f60008301527f756c642062652067726561746572207468616e203000000000000000000000006020830152604082019050919050565b60006159366023836168aa565b91507f4d696e7461626c653a2063616c6c6572206973206e6f74206120746f6b656e6960008301527f7a657200000000000000000000000000000000000000000000000000000000006020830152604082019050919050565b600061599c6036836168aa565b91507f5374617368426c6f783a20696e73756666696369656e742062616c616e63652060008301527f746f2070726f706f736520612063616c6c6261636b2e000000000000000000006020830152604082019050919050565b6000615a026030836168aa565b91507f455243313135353a206163636f756e747320616e6420494473206d757374206860008301527f6176652073616d65206c656e67746873000000000000000000000000000000006020830152604082019050919050565b6000615a68602a836168aa565b91507f5374617368426c6f783a20737570706c792073686f756c64206265206772656160008301527f746572207468616e2030000000000000000000000000000000000000000000006020830152604082019050919050565b6000615ace6036836168aa565b91507f455243313135353a20676f7420756e6b6e6f776e2076616c75652066726f6d2060008301527f6f6e4552433131353542617463685265636569766564000000000000000000006020830152604082019050919050565b6000615b346034836168aa565b91507f455243313135353a20736f6d65206164647265737320696e206261746368206260008301527f616c616e6365207175657279206973207a65726f0000000000000000000000006020830152604082019050919050565b6000615b9a6021836168aa565b91507f536166654d6174683a206d756c7469706c69636174696f6e206f766572666c6f60008301527f77000000000000000000000000000000000000000000000000000000000000006020830152604082019050919050565b6000615c00601f836168aa565b91507f5374617368426c6f783a20546f6b656e20616c7265616479206d696e746564006000830152602082019050919050565b6000615c406020836168aa565b91507f4f776e61626c653a2063616c6c6572206973206e6f7420746865206f776e65726000830152602082019050919050565b6000615c806035836168aa565b91507f5374617368426c6f783a20696e73756666696369656e742076616c756520666f60008301527f72207468652070726f706f7365642070726963652e00000000000000000000006020830152604082019050919050565b6000615ce6602a836168aa565b91507f5374617368426c6f783a2063616c6c6261636b2070726f706f736974696f6e2060008301527f6e6f7420666f756e642e000000000000000000000000000000000000000000006020830152604082019050919050565b6000615d4c603c836168aa565b91507f5374617368426c6f783a2066656573526563697069656e747350657263656e7460008301527f6167652073686f756c642062652067726561746572207468616e2030000000006020830152604082019050919050565b6000615db26043836168aa565b91507f5374617368426c6f783a20546f74616c206f662066656573526563697069656e60008301527f747350657263656e74616765206d75737420626520657175616c20746f20313060208301527f30303000000000000000000000000000000000000000000000000000000000006040830152606082019050919050565b6000615e3e603f836168aa565b91507f5374617368426c6f783a20696e73756666696369656e7420657363726f77656460008301527f2076616c756520746f2065786563757465207468652063616c6c6261636b2e006020830152604082019050919050565b6000615ea46037836168aa565b91507f455243313135353a206e656564206f70657261746f7220617070726f76616c2060008301527f666f7220337264207061727479207472616e73666572730000000000000000006020830152604082019050919050565b6000615f0a602e836168aa565b91507f455243313135353a2049447320616e642076616c756573206d7573742068617660008301527f652073616d65206c656e677468730000000000000000000000000000000000006020830152604082019050919050565b6000615f7060008361689f565b9150600082019050919050565b6000615f8a6010836168aa565b91507f5472616e73666572206661696c65642e000000000000000000000000000000006000830152602082019050919050565b6000615fca6032836168aa565b91507f5374617368426c6f783a20696e76616c69642066656573526563697069656e7460008301527f7350657263656e74616765206c656e67746800000000000000000000000000006020830152604082019050919050565b6000616030602b836168aa565b91507f5374617368426c6f783a206e656564206174206c65617374206f6e652066656560008301527f73526563697069656e74730000000000000000000000000000000000000000006020830152604082019050919050565b60006160966031836168aa565b91507f455243313135353a20676f7420756e6b6e6f776e2076616c75652066726f6d2060008301527f6f6e4552433131353552656365697665640000000000000000000000000000006020830152604082019050919050565b60006160fc602b836168aa565b91507f455243313135353a20696e73756666696369656e742045544820666f7220747260008301527f616e7366657220666565730000000000000000000000000000000000000000006020830152604082019050919050565b61615e81616925565b82525050565b61616d81616925565b82525050565b600061617e82615f63565b9150819050919050565b600060208201905061619d60008301846153e0565b92915050565b60006040820190506161b860008301856153d1565b6161c56020830184616164565b9392505050565b600060a0820190506161e160008301886153e0565b6161ee60208301876153e0565b81810360408301526162008186615447565b905081810360608301526162148185615447565b9050818103608083015261622881846154b4565b90509695505050505050565b600060a08201905061624960008301886153e0565b61625660208301876153e0565b6162636040830186616164565b6162706060830185616164565b818103608083015261628281846154b4565b90509695505050505050565b60006040820190506162a360008301856153e0565b6162b06020830184616164565b9392505050565b600060408201905081810360008301526162d28186886153ef565b905081810360208301526162e78184866153ef565b905095945050505050565b6000602082019050818103600083015261630c8184615447565b905092915050565b600060208201905061632960008301846154a5565b92915050565b600060208201905081810360008301526163498184615526565b905092915050565b6000602082019050818103600083015261636b81846154ed565b905092915050565b6000602082019050818103600083015261638c8161555f565b9050919050565b600060208201905081810360008301526163ac8161559f565b9050919050565b600060208201905081810360008301526163cc81615605565b9050919050565b600060208201905081810360008301526163ec81615645565b9050919050565b6000602082019050818103600083015261640c816156ab565b9050919050565b6000602082019050818103600083015261642c81615711565b9050919050565b6000602082019050818103600083015261644c81615751565b9050919050565b6000602082019050818103600083015261646c816157b7565b9050919050565b6000602082019050818103600083015261648c816157f7565b9050919050565b600060208201905081810360008301526164ac8161585d565b9050919050565b600060208201905081810360008301526164cc816158c3565b9050919050565b600060208201905081810360008301526164ec81615929565b9050919050565b6000602082019050818103600083015261650c8161598f565b9050919050565b6000602082019050818103600083015261652c816159f5565b9050919050565b6000602082019050818103600083015261654c81615a5b565b9050919050565b6000602082019050818103600083015261656c81615ac1565b9050919050565b6000602082019050818103600083015261658c81615b27565b9050919050565b600060208201905081810360008301526165ac81615b8d565b9050919050565b600060208201905081810360008301526165cc81615bf3565b9050919050565b600060208201905081810360008301526165ec81615c33565b9050919050565b6000602082019050818103600083015261660c81615c73565b9050919050565b6000602082019050818103600083015261662c81615cd9565b9050919050565b6000602082019050818103600083015261664c81615d3f565b9050919050565b6000602082019050818103600083015261666c81615da5565b9050919050565b6000602082019050818103600083015261668c81615e31565b9050919050565b600060208201905081810360008301526166ac81615e97565b9050919050565b600060208201905081810360008301526166cc81615efd565b9050919050565b600060208201905081810360008301526166ec81615f7d565b9050919050565b6000602082019050818103600083015261670c81615fbd565b9050919050565b6000602082019050818103600083015261672c81616023565b9050919050565b6000602082019050818103600083015261674c81616089565b9050919050565b6000602082019050818103600083015261676c816160ef565b9050919050565b60006020820190506167886000830184616164565b92915050565b60006040820190506167a36000830185616164565b6167b06020830184616164565b9392505050565b6000604051905081810181811067ffffffffffffffff821117156167da57600080fd5b8060405250919050565b600067ffffffffffffffff8211156167fb57600080fd5b602082029050602081019050919050565b600067ffffffffffffffff82111561682357600080fd5b602082029050602081019050919050565b6000819050602082019050919050565b600081519050919050565b600081519050919050565b600081519050919050565b600081519050919050565b6000602082019050919050565b600082825260208201905092915050565b600082825260208201905092915050565b600081905092915050565b600082825260208201905092915050565b60006168c682616905565b9050919050565b60008115159050919050565b60007fffffffff0000000000000000000000000000000000000000000000000000000082169050919050565b600073ffffffffffffffffffffffffffffffffffffffff82169050919050565b6000819050919050565b600061693a82616941565b9050919050565b600061694c82616953565b9050919050565b600061695e82616905565b9050919050565b82818337600083830152505050565b60005b83811015616992578082015181840152602081019050616977565b838111156169a1576000848401525b50505050565b6000601f19601f8301169050919050565b6169c1816168bb565b81146169cc57600080fd5b50565b6169d8816168cd565b81146169e357600080fd5b50565b6169ef816168d9565b81146169fa57600080fd5b50565b616a0681616925565b8114616a1157600080fd5b5056fe455243313135353a20696e73756666696369656e742062616c616e636520666f72207472616e73666572a365627a7a72315820044c7a93c3f7b8b2baf29fc430e8821e6b3fcca942cbb0680893d70c9dc1af706c6578706572696d656e74616cf564736f6c634300050c0040",
  "source": "pragma solidity ^0.5.12;\npragma experimental ABIEncoderV2;\n\nimport './lib/ERC1155/ERC1155Mintable.sol';\n\ncontract StashBlox is ERC1155Mintable {\n\n}\n",
  "sourcePath": "/home/ouziel/Work/StashBloxContracts/contracts/StashBlox.sol",
  "compiler": {
    "name": "solc",
    "version": "0.5.12+commit.7709ece9.Emscripten.clang"
  },
  "schemaVersion": "3.2.3",
  "updatedAt": "2020-09-25T18:41:58.287Z",
  "devdoc": {
    "methods": {
      "acceptCallback(uint256,address)": {
        "details": "Accept a callback",
        "params": {
          "id": "Token ID",
          "proposer": "address of the proposer"
        }
      },
      "balanceOf(address,uint256)": {
        "details": "Get the specified address' balance for token with specified ID. Attempting to query the zero account for a balance will result in a revert.",
        "params": {
          "account": "The address of the token holder",
          "id": "ID of the token"
        },
        "return": "The account's balance of the token type requested"
      },
      "balanceOfBatch(address[],uint256[])": {
        "details": "Get the balance of multiple account/token pairs. If any of the query accounts is the zero account, this query will revert.",
        "params": {
          "accounts": "The addresses of the token holders",
          "ids": "IDs of the tokens"
        },
        "return": "Balances for each account and token id pair"
      },
      "createToken(address,uint256,uint256,uint256,uint256,address[],uint256[])": {
        "details": "Function to mint an amount of a token with the given ID.",
        "params": {
          "feesRecipients": "list of addresses receiving transfer fees",
          "feesRecipientsPercentage": "list of percentage, each one for the corresponding feesRecipients",
          "id": "ID of the token to be minted",
          "metadataHash": "Metadata file hash",
          "recipient": "The address that will own the minted tokens",
          "storageCreditCost": "cost for 24h storage in storageCredit (x 10 ^ 8 for the precision)",
          "supply": "Amount of the token to be minted"
        }
      },
      "createTokens(address,uint256[],uint256[])": {
        "details": "Function to mint token in batch. Default value must be set with setCreateTokensDefaultValues.",
        "params": {
          "ids": "list of IDs of the tokens to be minted",
          "metadataHashes": "list of Metadata file hash",
          "recipient": "The address that will own the minted tokens"
        }
      },
      "isApprovedForAll(address,address)": {
        "params": {
          "account": "The account of the Tokens",
          "operator": "Address of authorized operator"
        },
        "return": "True if the operator is approved, false if not"
      },
      "owner()": {
        "details": "Returns the address of the current owner."
      },
      "proposeCallback(uint256,uint256)": {
        "details": "Propose to buy the whole supply of a token. The proposer must hold minHoldingForCallback% of the total supply. StashBlox must approve the price with acceptCallback();",
        "params": {
          "id": "Token ID",
          "price": "proposed price"
        }
      },
      "refuseCallback(uint256,address)": {
        "details": "Refuse a callback if the price is not enough.",
        "params": {
          "id": "Token ID",
          "proposer": "address of the proposer"
        }
      },
      "safeBatchTransferFrom(address,address,uint256[],uint256[],bytes)": {
        "details": "Transfers `values` amount(s) of `ids` from the `from` address to the `to` address specified. Caller must be approved to manage the tokens being transferred out of the `from` account. If `to` is a smart contract, will call `onERC1155BatchReceived` on `to` and act appropriately.",
        "params": {
          "data": "Data forwarded to `onERC1155Received` if `to` is a contract receiver",
          "from": "Source address",
          "ids": "IDs of each token type",
          "to": "Target address",
          "values": "Transfer amounts per token type"
        }
      },
      "safeTransferFrom(address,address,uint256,uint256,bytes)": {
        "details": "Transfers `value` amount of an `id` from the `from` address to the `to` address specified. Caller must be approved to manage the tokens being transferred out of the `from` account. If `to` is a smart contract, will call `onERC1155Received` on `to` and act appropriately.",
        "params": {
          "data": "Data forwarded to `onERC1155Received` if `to` is a contract receiver",
          "from": "Source address",
          "id": "ID of the token type",
          "to": "Target address",
          "value": "Transfer amount"
        }
      },
      "setApprovalForAll(address,bool)": {
        "details": "Sets or unsets the approval of a given operator.     * An operator is allowed to transfer all tokens of the sender on their behalf.     * Because an account already has operator privileges for itself, this function will revert if the account attempts to set the approval status for itself.",
        "params": {
          "approved": "representing the status of the approval to be set",
          "operator": "address to set the approval"
        }
      },
      "setCreateTokensDefaultValues(uint256,uint256,address[],uint256[])": {
        "details": "Set default values for batch token creation.",
        "params": {
          "feesRecipients": "list of addresses receiving transfer fees",
          "feesRecipientsPercentage": "list of percentage, each one for the corresponding feesRecipients",
          "storageCreditCost": "cost for 24h storage in storageCredit (x 10 ^ 8 for the precision)",
          "supply": "Amount of the token to be minted"
        }
      },
      "supportsInterface(bytes4)": {
        "params": {
          "_interfaceID": "The interface identifier, as specified in ERC-165"
        },
        "return": "`true` if the contract implements `_interfaceID` and"
      },
      "totalSupply(uint256)": {
        "params": {
          "id": "Token ID"
        },
        "return": "Token supply"
      },
      "transferOwnership(address)": {
        "details": "Transfers ownership of the contract to a new account (`newOwner`). Can only be called by the current owner."
      },
      "uri(uint256)": {
        "params": {
          "id": "Token ID"
        },
        "return": "URI string"
      }
    }
  },
  "userdoc": {
    "methods": {
      "isApprovedForAll(address,address)": {
        "notice": "Queries the approval status of an operator for a given account."
      },
      "supportsInterface(bytes4)": {
        "notice": "Query if a contract implements an interface"
      }
    }
  }
}