{
  "contractName": "StashBlox",
  "abi": [
    {
      "anonymous": false,
      "inputs": [
        {
          "indexed": true,
          "internalType": "address",
          "name": "_owner",
          "type": "address"
        },
        {
          "indexed": true,
          "internalType": "address",
          "name": "_operator",
          "type": "address"
        },
        {
          "indexed": false,
          "internalType": "bool",
          "name": "_approved",
          "type": "bool"
        }
      ],
      "name": "ApprovalForAll",
      "type": "event"
    },
    {
      "anonymous": false,
      "inputs": [
        {
          "indexed": true,
          "internalType": "uint256",
          "name": "dealId",
          "type": "uint256"
        }
      ],
      "name": "DealCancelled",
      "type": "event"
    },
    {
      "anonymous": false,
      "inputs": [
        {
          "indexed": true,
          "internalType": "uint256",
          "name": "dealId",
          "type": "uint256"
        }
      ],
      "name": "DealConfirmed",
      "type": "event"
    },
    {
      "anonymous": false,
      "inputs": [
        {
          "indexed": true,
          "internalType": "uint256",
          "name": "offerId",
          "type": "uint256"
        },
        {
          "indexed": true,
          "internalType": "uint256",
          "name": "dealId",
          "type": "uint256"
        },
        {
          "indexed": true,
          "internalType": "address",
          "name": "buyer",
          "type": "address"
        },
        {
          "indexed": false,
          "internalType": "uint256",
          "name": "amount",
          "type": "uint256"
        },
        {
          "indexed": false,
          "internalType": "uint256",
          "name": "endCancellationPeriod",
          "type": "uint256"
        }
      ],
      "name": "OfferAccepted",
      "type": "event"
    },
    {
      "anonymous": false,
      "inputs": [
        {
          "indexed": true,
          "internalType": "uint256",
          "name": "offerId",
          "type": "uint256"
        }
      ],
      "name": "OfferCancelled",
      "type": "event"
    },
    {
      "anonymous": false,
      "inputs": [
        {
          "indexed": true,
          "internalType": "uint256",
          "name": "offerId",
          "type": "uint256"
        },
        {
          "indexed": true,
          "internalType": "uint256",
          "name": "tokenId",
          "type": "uint256"
        },
        {
          "indexed": true,
          "internalType": "address",
          "name": "from",
          "type": "address"
        },
        {
          "indexed": false,
          "internalType": "uint256",
          "name": "amount",
          "type": "uint256"
        },
        {
          "indexed": false,
          "internalType": "uint256",
          "name": "priceCurrency",
          "type": "uint256"
        },
        {
          "indexed": false,
          "internalType": "uint256",
          "name": "price",
          "type": "uint256"
        }
      ],
      "name": "OfferOpened",
      "type": "event"
    },
    {
      "anonymous": false,
      "inputs": [
        {
          "indexed": true,
          "internalType": "address",
          "name": "previousOwner",
          "type": "address"
        },
        {
          "indexed": true,
          "internalType": "address",
          "name": "newOwner",
          "type": "address"
        }
      ],
      "name": "OwnershipTransferred",
      "type": "event"
    },
    {
      "anonymous": false,
      "inputs": [
        {
          "indexed": true,
          "internalType": "address",
          "name": "_operator",
          "type": "address"
        },
        {
          "indexed": true,
          "internalType": "address",
          "name": "_from",
          "type": "address"
        },
        {
          "indexed": true,
          "internalType": "address",
          "name": "_to",
          "type": "address"
        },
        {
          "indexed": false,
          "internalType": "uint256[]",
          "name": "_ids",
          "type": "uint256[]"
        },
        {
          "indexed": false,
          "internalType": "uint256[]",
          "name": "_values",
          "type": "uint256[]"
        }
      ],
      "name": "TransferBatch",
      "type": "event"
    },
    {
      "anonymous": false,
      "inputs": [
        {
          "indexed": true,
          "internalType": "address",
          "name": "_operator",
          "type": "address"
        },
        {
          "indexed": true,
          "internalType": "address",
          "name": "_from",
          "type": "address"
        },
        {
          "indexed": true,
          "internalType": "address",
          "name": "_to",
          "type": "address"
        },
        {
          "indexed": false,
          "internalType": "uint256",
          "name": "_id",
          "type": "uint256"
        },
        {
          "indexed": false,
          "internalType": "uint256",
          "name": "_value",
          "type": "uint256"
        }
      ],
      "name": "TransferSingle",
      "type": "event"
    },
    {
      "anonymous": false,
      "inputs": [
        {
          "indexed": false,
          "internalType": "string",
          "name": "_value",
          "type": "string"
        },
        {
          "indexed": true,
          "internalType": "uint256",
          "name": "_id",
          "type": "uint256"
        }
      ],
      "name": "URI",
      "type": "event"
    },
    {
      "constant": true,
      "inputs": [],
      "name": "BASE_URI",
      "outputs": [
        {
          "internalType": "string",
          "name": "",
          "type": "string"
        }
      ],
      "payable": false,
      "stateMutability": "view",
      "type": "function"
    },
    {
      "constant": false,
      "inputs": [
        {
          "internalType": "address",
          "name": "tokenizer",
          "type": "address"
        }
      ],
      "name": "authorizeTokenizer",
      "outputs": [],
      "payable": false,
      "stateMutability": "nonpayable",
      "type": "function"
    },
    {
      "constant": true,
      "inputs": [
        {
          "internalType": "address",
          "name": "account",
          "type": "address"
        },
        {
          "internalType": "uint256",
          "name": "id",
          "type": "uint256"
        }
      ],
      "name": "balanceOf",
      "outputs": [
        {
          "internalType": "uint256",
          "name": "",
          "type": "uint256"
        }
      ],
      "payable": false,
      "stateMutability": "view",
      "type": "function"
    },
    {
      "constant": true,
      "inputs": [
        {
          "internalType": "address[]",
          "name": "accounts",
          "type": "address[]"
        },
        {
          "internalType": "uint256[]",
          "name": "ids",
          "type": "uint256[]"
        }
      ],
      "name": "balanceOfBatch",
      "outputs": [
        {
          "internalType": "uint256[]",
          "name": "",
          "type": "uint256[]"
        }
      ],
      "payable": false,
      "stateMutability": "view",
      "type": "function"
    },
    {
      "constant": false,
      "inputs": [
        {
          "internalType": "uint256",
          "name": "offerId",
          "type": "uint256"
        }
      ],
      "name": "cancelOffer",
      "outputs": [],
      "payable": false,
      "stateMutability": "nonpayable",
      "type": "function"
    },
    {
      "constant": false,
      "inputs": [
        {
          "internalType": "uint256",
          "name": "dealId",
          "type": "uint256"
        }
      ],
      "name": "confirmDeal",
      "outputs": [],
      "payable": false,
      "stateMutability": "nonpayable",
      "type": "function"
    },
    {
      "constant": false,
      "inputs": [
        {
          "internalType": "uint256[]",
          "name": "ids",
          "type": "uint256[]"
        },
        {
          "internalType": "address[]",
          "name": "recipients",
          "type": "address[]"
        },
        {
          "internalType": "uint256[]",
          "name": "values",
          "type": "uint256[]"
        },
        {
          "internalType": "uint256[]",
          "name": "metadataHashes",
          "type": "uint256[]"
        }
      ],
      "name": "createTokens",
      "outputs": [],
      "payable": false,
      "stateMutability": "nonpayable",
      "type": "function"
    },
    {
      "constant": true,
      "inputs": [
        {
          "internalType": "address",
          "name": "account",
          "type": "address"
        },
        {
          "internalType": "address",
          "name": "operator",
          "type": "address"
        }
      ],
      "name": "isApprovedForAll",
      "outputs": [
        {
          "internalType": "bool",
          "name": "",
          "type": "bool"
        }
      ],
      "payable": false,
      "stateMutability": "view",
      "type": "function"
    },
    {
      "constant": true,
      "inputs": [
        {
          "internalType": "address",
          "name": "addr",
          "type": "address"
        }
      ],
      "name": "isLockedAddress",
      "outputs": [
        {
          "internalType": "bool",
          "name": "",
          "type": "bool"
        }
      ],
      "payable": false,
      "stateMutability": "view",
      "type": "function"
    },
    {
      "constant": true,
      "inputs": [
        {
          "internalType": "uint256",
          "name": "id",
          "type": "uint256"
        }
      ],
      "name": "isLockedToken",
      "outputs": [
        {
          "internalType": "bool",
          "name": "",
          "type": "bool"
        }
      ],
      "payable": false,
      "stateMutability": "view",
      "type": "function"
    },
    {
      "constant": true,
      "inputs": [
        {
          "internalType": "address",
          "name": "tokenizer",
          "type": "address"
        }
      ],
      "name": "isTokenizer",
      "outputs": [
        {
          "internalType": "bool",
          "name": "",
          "type": "bool"
        }
      ],
      "payable": false,
      "stateMutability": "view",
      "type": "function"
    },
    {
      "constant": false,
      "inputs": [
        {
          "internalType": "address",
          "name": "addr",
          "type": "address"
        }
      ],
      "name": "lockAddress",
      "outputs": [],
      "payable": false,
      "stateMutability": "nonpayable",
      "type": "function"
    },
    {
      "constant": false,
      "inputs": [
        {
          "internalType": "uint256",
          "name": "id",
          "type": "uint256"
        }
      ],
      "name": "lockToken",
      "outputs": [],
      "payable": false,
      "stateMutability": "nonpayable",
      "type": "function"
    },
    {
      "constant": true,
      "inputs": [
        {
          "internalType": "uint256",
          "name": "id",
          "type": "uint256"
        }
      ],
      "name": "metadataHash",
      "outputs": [
        {
          "internalType": "uint256",
          "name": "",
          "type": "uint256"
        }
      ],
      "payable": false,
      "stateMutability": "view",
      "type": "function"
    },
    {
      "constant": false,
      "inputs": [
        {
          "internalType": "uint256",
          "name": "offerId",
          "type": "uint256"
        },
        {
          "internalType": "address",
          "name": "buyer",
          "type": "address"
        },
        {
          "internalType": "uint256",
          "name": "amount",
          "type": "uint256"
        },
        {
          "internalType": "uint256",
          "name": "cancellationPeriod",
          "type": "uint256"
        }
      ],
      "name": "onOfferAccepted",
      "outputs": [
        {
          "internalType": "uint256",
          "name": "dealId",
          "type": "uint256"
        }
      ],
      "payable": false,
      "stateMutability": "nonpayable",
      "type": "function"
    },
    {
      "constant": false,
      "inputs": [
        {
          "internalType": "uint256",
          "name": "dealId",
          "type": "uint256"
        }
      ],
      "name": "onPaymentCancelled",
      "outputs": [],
      "payable": false,
      "stateMutability": "nonpayable",
      "type": "function"
    },
    {
      "constant": false,
      "inputs": [
        {
          "internalType": "uint256",
          "name": "tokenId",
          "type": "uint256"
        },
        {
          "internalType": "uint256",
          "name": "amount",
          "type": "uint256"
        },
        {
          "internalType": "uint256",
          "name": "price",
          "type": "uint256"
        },
        {
          "internalType": "uint256",
          "name": "priceCurrency",
          "type": "uint256"
        },
        {
          "internalType": "bool",
          "name": "acceptPartial",
          "type": "bool"
        },
        {
          "internalType": "address",
          "name": "paymentOfficer",
          "type": "address"
        },
        {
          "internalType": "address[]",
          "name": "authorizedBuyers",
          "type": "address[]"
        }
      ],
      "name": "openOffer",
      "outputs": [
        {
          "internalType": "uint256",
          "name": "offerId",
          "type": "uint256"
        }
      ],
      "payable": false,
      "stateMutability": "nonpayable",
      "type": "function"
    },
    {
      "constant": false,
      "inputs": [
        {
          "internalType": "uint256[]",
          "name": "tokenIds",
          "type": "uint256[]"
        },
        {
          "internalType": "uint256[]",
          "name": "amounts",
          "type": "uint256[]"
        },
        {
          "internalType": "uint256[]",
          "name": "prices",
          "type": "uint256[]"
        },
        {
          "internalType": "uint256",
          "name": "priceCurrency",
          "type": "uint256"
        },
        {
          "internalType": "bool",
          "name": "acceptPartial",
          "type": "bool"
        },
        {
          "internalType": "address",
          "name": "paymentOfficer",
          "type": "address"
        },
        {
          "internalType": "address[]",
          "name": "authorizedBuyers",
          "type": "address[]"
        }
      ],
      "name": "openOffers",
      "outputs": [
        {
          "internalType": "uint256[]",
          "name": "offerIds",
          "type": "uint256[]"
        }
      ],
      "payable": false,
      "stateMutability": "nonpayable",
      "type": "function"
    },
    {
      "constant": true,
      "inputs": [],
      "name": "owner",
      "outputs": [
        {
          "internalType": "address",
          "name": "",
          "type": "address"
        }
      ],
      "payable": false,
      "stateMutability": "view",
      "type": "function"
    },
    {
      "constant": false,
      "inputs": [
        {
          "internalType": "address",
          "name": "tokenizer",
          "type": "address"
        }
      ],
      "name": "revokeTokenizer",
      "outputs": [],
      "payable": false,
      "stateMutability": "nonpayable",
      "type": "function"
    },
    {
      "constant": false,
      "inputs": [
        {
          "internalType": "address",
          "name": "from",
          "type": "address"
        },
        {
          "internalType": "address",
          "name": "to",
          "type": "address"
        },
        {
          "internalType": "uint256[]",
          "name": "ids",
          "type": "uint256[]"
        },
        {
          "internalType": "uint256[]",
          "name": "values",
          "type": "uint256[]"
        },
        {
          "internalType": "bytes",
          "name": "data",
          "type": "bytes"
        }
      ],
      "name": "safeBatchTransferFrom",
      "outputs": [],
      "payable": false,
      "stateMutability": "nonpayable",
      "type": "function"
    },
    {
      "constant": false,
      "inputs": [
        {
          "internalType": "address",
          "name": "from",
          "type": "address"
        },
        {
          "internalType": "address",
          "name": "to",
          "type": "address"
        },
        {
          "internalType": "uint256",
          "name": "id",
          "type": "uint256"
        },
        {
          "internalType": "uint256",
          "name": "value",
          "type": "uint256"
        },
        {
          "internalType": "bytes",
          "name": "data",
          "type": "bytes"
        }
      ],
      "name": "safeTransferFrom",
      "outputs": [],
      "payable": false,
      "stateMutability": "nonpayable",
      "type": "function"
    },
    {
      "constant": false,
      "inputs": [
        {
          "internalType": "address",
          "name": "operator",
          "type": "address"
        },
        {
          "internalType": "bool",
          "name": "approved",
          "type": "bool"
        }
      ],
      "name": "setApprovalForAll",
      "outputs": [],
      "payable": false,
      "stateMutability": "nonpayable",
      "type": "function"
    },
    {
      "constant": true,
      "inputs": [
        {
          "internalType": "bytes4",
          "name": "_interfaceID",
          "type": "bytes4"
        }
      ],
      "name": "supportsInterface",
      "outputs": [
        {
          "internalType": "bool",
          "name": "",
          "type": "bool"
        }
      ],
      "payable": false,
      "stateMutability": "view",
      "type": "function"
    },
    {
      "constant": true,
      "inputs": [
        {
          "internalType": "uint256",
          "name": "id",
          "type": "uint256"
        }
      ],
      "name": "totalSupply",
      "outputs": [
        {
          "internalType": "uint256",
          "name": "",
          "type": "uint256"
        }
      ],
      "payable": false,
      "stateMutability": "view",
      "type": "function"
    },
    {
      "constant": false,
      "inputs": [
        {
          "internalType": "address",
          "name": "newOwner",
          "type": "address"
        }
      ],
      "name": "transferOwnership",
      "outputs": [],
      "payable": false,
      "stateMutability": "nonpayable",
      "type": "function"
    },
    {
      "constant": false,
      "inputs": [
        {
          "internalType": "address",
          "name": "addr",
          "type": "address"
        }
      ],
      "name": "unlockAddress",
      "outputs": [],
      "payable": false,
      "stateMutability": "nonpayable",
      "type": "function"
    },
    {
      "constant": false,
      "inputs": [
        {
          "internalType": "uint256",
          "name": "id",
          "type": "uint256"
        }
      ],
      "name": "unlockToken",
      "outputs": [],
      "payable": false,
      "stateMutability": "nonpayable",
      "type": "function"
    },
    {
      "constant": true,
      "inputs": [
        {
          "internalType": "uint256",
          "name": "id",
          "type": "uint256"
        }
      ],
      "name": "uri",
      "outputs": [
        {
          "internalType": "string",
          "name": "",
          "type": "string"
        }
      ],
      "payable": false,
      "stateMutability": "view",
      "type": "function"
    }
  ],
  "bytecode": "0x608060405262000015336200001b60201b60201c565b620001e9565b600073ffffffffffffffffffffffffffffffffffffffff168173ffffffffffffffffffffffffffffffffffffffff1614156200008e576040517f08c379a00000000000000000000000000000000000000000000000000000000081526004016200008590620001b6565b60405180910390fd5b8073ffffffffffffffffffffffffffffffffffffffff16600260009054906101000a900473ffffffffffffffffffffffffffffffffffffffff1673ffffffffffffffffffffffffffffffffffffffff167f8be0079c531659141344cd1fd0a4f28419497f9722a3daafe3b4186f6b6457e060405160405180910390a380600260006101000a81548173ffffffffffffffffffffffffffffffffffffffff021916908373ffffffffffffffffffffffffffffffffffffffff16021790555050565b60006200015d602683620001d8565b91507f4f776e61626c653a206e6577206f776e657220697320746865207a65726f206160008301527f64647265737300000000000000000000000000000000000000000000000000006020830152604082019050919050565b60006020820190508181036000830152620001d1816200014e565b9050919050565b600082825260208201905092915050565b615b9b80620001f96000396000f3fe608060405234801561001057600080fd5b50600436106101ce5760003560e01c80638da5cb5b11610104578063cba54e60116100a2578063ea2653e311610071578063ea2653e314610597578063ef706adf146105b3578063f242432a146105cf578063f2fde38b146105eb576101ce565b8063cba54e60146104fd578063dbddb26a1461052d578063dd2e0ac01461054b578063e985e9c514610567576101ce565b8063b7eb5e0a116100de578063b7eb5e0a14610451578063bba75c831461046d578063bd85b0391461049d578063c02f303c146104cd576101ce565b80638da5cb5b146103fb57806390490a1d14610419578063a22cb46514610435576101ce565b806349342ac8116101715780635cb442bb1161014b5780635cb442bb1461038b5780637627b732146103a757806380f20363146103c35780638870147b146103df576101ce565b806349342ac8146102fb5780634e1273f41461032b578063577c5a171461035b576101ce565b8063219cc8bc116101ad578063219cc8bc146102635780632eb2c2d61461029357806334a90d02146102af57806346d9beec146102cb576101ce565b8062fdd58e146101d357806301ffc9a7146102035780630e89341c14610233575b600080fd5b6101ed60048036036101e89190810190614384565b610607565b6040516101fa9190615897565b60405180910390f35b61021d60048036036102189190810190614611565b6106d0565b60405161022a9190615478565b60405180910390f35b61024d60048036036102489190810190614663565b610781565b60405161025a91906154b5565b60405180910390f35b61027d60048036036102789190810190614663565b6107d1565b60405161028a9190615897565b60405180910390f35b6102ad60048036036102a891908101906141ea565b6107ee565b005b6102c960048036036102c49190810190614185565b610ad9565b005b6102e560048036036102e091908101906146ef565b610b7b565b6040516102f29190615897565b60405180910390f35b61031560048036036103109190810190614501565b610bdc565b6040516103229190615456565b60405180910390f35b610345600480360361034091908101906143c0565b610d14565b6040516103529190615456565b60405180910390f35b6103756004803603610370919081019061468c565b610ec5565b6040516103829190615897565b60405180910390f35b6103a560048036036103a09190810190614663565b610edd565b005b6103c160048036036103bc9190810190614185565b610ee9565b005b6103dd60048036036103d89190810190614663565b610f8b565b005b6103f960048036036103f49190810190614185565b611001565b005b6104036110a3565b604051610410919061533e565b60405180910390f35b610433600480360361042e919081019061442c565b6110cd565b005b61044f600480360361044a9190810190614348565b6114a7565b005b61046b60048036036104669190810190614185565b611613565b005b61048760048036036104829190810190614663565b6116b5565b6040516104949190615478565b60405180910390f35b6104b760048036036104b29190810190614663565b6116c7565b6040516104c49190615897565b60405180910390f35b6104e760048036036104e29190810190614185565b6116e4565b6040516104f49190615478565b60405180910390f35b61051760048036036105129190810190614185565b61173a565b6040516105249190615478565b60405180910390f35b61053561174c565b6040516105429190615493565b60405180910390f35b61056560048036036105609190810190614663565b611785565b005b610581600480360361057c91908101906141ae565b6117fb565b60405161058e9190615478565b60405180910390f35b6105b160048036036105ac9190810190614663565b61188f565b005b6105cd60048036036105c89190810190614663565b61189b565b005b6105e960048036036105e491908101906142b6565b6118a7565b005b61060560048036036106009190810190614185565b611a81565b005b60008073ffffffffffffffffffffffffffffffffffffffff168373ffffffffffffffffffffffffffffffffffffffff161415610678576040517f08c379a000000000000000000000000000000000000000000000000000000000815260040161066f906154f7565b60405180910390fd5b60008083815260200190815260200160002060008473ffffffffffffffffffffffffffffffffffffffff1673ffffffffffffffffffffffffffffffffffffffff16815260200190815260200160002054905092915050565b60006301ffc9a760e01b7bffffffffffffffffffffffffffffffffffffffffffffffffffffffff1916827bffffffffffffffffffffffffffffffffffffffffffffffffffffffff19161480610769575063d9b67a2660e01b7bffffffffffffffffffffffffffffffffffffffffffffffffffffffff1916827bffffffffffffffffffffffffffffffffffffffffffffffffffffffff1916145b15610777576001905061077c565b600090505b919050565b60606107ca6040518060400160405280601d81526020017f68747470733a2f2f7374617368626c6f782e636f6d2f746f6b656e732f0000008152506107c584611ad4565b611bc3565b9050919050565b600060056000838152602001908152602001600020549050919050565b838390508686905014610836576040517f08c379a000000000000000000000000000000000000000000000000000000000815260040161082d906157b7565b60405180910390fd5b600073ffffffffffffffffffffffffffffffffffffffff168773ffffffffffffffffffffffffffffffffffffffff1614156108a6576040517f08c379a000000000000000000000000000000000000000000000000000000000815260040161089d90615557565b60405180910390fd5b3373ffffffffffffffffffffffffffffffffffffffff168873ffffffffffffffffffffffffffffffffffffffff1614806108ed5750600115156108e989336117fb565b1515145b61092c576040517f08c379a000000000000000000000000000000000000000000000000000000000815260040161092390615797565b60405180910390fd5b60008090505b868690508110156109785761096d898989898581811061094e57fe5b9050602002013588888681811061096157fe5b90506020020135611d0e565b806001019050610932565b508673ffffffffffffffffffffffffffffffffffffffff168873ffffffffffffffffffffffffffffffffffffffff163373ffffffffffffffffffffffffffffffffffffffff167f4a39dc06d4c0dbc64b70af90fd698a233a518aa5d07e595d983b8c0526c8f7fb898989896040516109f3949392919061541b565b60405180910390a4610acf338989898980806020026020016040519081016040528093929190818152602001838360200280828437600081840152601f19601f82011690508083019250505050505050888880806020026020016040519081016040528093929190818152602001838360200280828437600081840152601f19601f8201169050808301925050505050505087878080601f016020809104026020016040519081016040528093929190818152602001838380828437600081840152601f19601f82011690508083019250505050505050611d8d565b5050505050505050565b610ae1611eec565b610b20576040517f08c379a0000000000000000000000000000000000000000000000000000000008152600401610b1790615737565b60405180910390fd5b6001600460008373ffffffffffffffffffffffffffffffffffffffff1673ffffffffffffffffffffffffffffffffffffffff16815260200190815260200160002060006101000a81548160ff02191690831515021790555050565b6000610bce89338a8a8a8a8a8a8a80806020026020016040519081016040528093929190818152602001838360200280828437600081840152601f19601f82011690508083019250505050505050611f44565b905098975050505050505050565b606060008c8c9050118015610bf657508b8b90508a8a9050145b8015610c0757508989905088889050145b610c46576040517f08c379a0000000000000000000000000000000000000000000000000000000008152600401610c3d90615777565b60405180910390fd5b60008090505b8c8c9050811015610d0157610cde8d8d83818110610c6657fe5b90506020020135338d8d85818110610c7a57fe5b905060200201358c8c86818110610c8d57fe5b905060200201358b8b8b8b8b80806020026020016040519081016040528093929190818152602001838360200280828437600081840152601f19601f82011690508083019250505050505050611f44565b828281518110610cea57fe5b602002602001018181525050806001019050610c4c565b508090509b9a5050505050505050505050565b60608151835114610d5a576040517f08c379a0000000000000000000000000000000000000000000000000000000008152600401610d5190615617565b60405180910390fd5b60608351604051908082528060200260200182016040528015610d8c5781602001602082028038833980820191505090505b50905060008090505b8451811015610eba57600073ffffffffffffffffffffffffffffffffffffffff16858281518110610dc257fe5b602002602001015173ffffffffffffffffffffffffffffffffffffffff161415610e21576040517f08c379a0000000000000000000000000000000000000000000000000000000008152600401610e18906156b7565b60405180910390fd5b600080858381518110610e3057fe5b602002602001015181526020019081526020016000206000868381518110610e5457fe5b602002602001015173ffffffffffffffffffffffffffffffffffffffff1673ffffffffffffffffffffffffffffffffffffffff16815260200190815260200160002054828281518110610ea357fe5b602002602001018181525050806001019050610d95565b508091505092915050565b6000610ed38585858561241c565b9050949350505050565b610ee681612ae0565b50565b610ef1611eec565b610f30576040517f08c379a0000000000000000000000000000000000000000000000000000000008152600401610f2790615737565b60405180910390fd5b6001600760008373ffffffffffffffffffffffffffffffffffffffff1673ffffffffffffffffffffffffffffffffffffffff16815260200190815260200160002060006101000a81548160ff02191690831515021790555050565b610f93611eec565b610fd2576040517f08c379a0000000000000000000000000000000000000000000000000000000008152600401610fc990615737565b60405180910390fd5b60016003600083815260200190815260200160002060006101000a81548160ff02191690831515021790555050565b611009611eec565b611048576040517f08c379a000000000000000000000000000000000000000000000000000000000815260040161103f90615737565b60405180910390fd5b6000600760008373ffffffffffffffffffffffffffffffffffffffff1673ffffffffffffffffffffffffffffffffffffffff16815260200190815260200160002060006101000a81548160ff02191690831515021790555050565b6000600260009054906101000a900473ffffffffffffffffffffffffffffffffffffffff16905090565b6110d5611eec565b611114576040517f08c379a000000000000000000000000000000000000000000000000000000000815260040161110b90615737565b60405180910390fd5b600760003373ffffffffffffffffffffffffffffffffffffffff1673ffffffffffffffffffffffffffffffffffffffff16815260200190815260200160002060009054906101000a900460ff166111a0576040517f08c379a000000000000000000000000000000000000000000000000000000000815260040161119790615597565b60405180910390fd5b85859050888890501480156111ba57508383905086869050145b80156111cb57508181905084849050145b61120a576040517f08c379a0000000000000000000000000000000000000000000000000000000008152600401611201906155b7565b60405180910390fd5b60008090505b8888905081101561128e576000600660008b8b8581811061122d57fe5b9050602002013581526020019081526020016000205414611283576040517f08c379a000000000000000000000000000000000000000000000000000000000815260040161127a906156f7565b60405180910390fd5b806001019050611210565b5060008090505b8888905081101561149c5760008989838181106112ae57fe5b90506020020135905060008888848181106112c557fe5b90506020020160206112da9190810190614185565b905060008787858181106112ea57fe5b905060200201359050611319816006600086815260200190815260200160002054612f7c90919063ffffffff16565b600660008581526020019081526020016000208190555085858581811061133c57fe5b9050602002013560056000858152602001908152602001600020819055506113bc8160008086815260200190815260200160002060008573ffffffffffffffffffffffffffffffffffffffff1673ffffffffffffffffffffffffffffffffffffffff16815260200190815260200160002054612f7c90919063ffffffff16565b60008085815260200190815260200160002060008473ffffffffffffffffffffffffffffffffffffffff1673ffffffffffffffffffffffffffffffffffffffff168152602001908152602001600020819055508173ffffffffffffffffffffffffffffffffffffffff16600073ffffffffffffffffffffffffffffffffffffffff163373ffffffffffffffffffffffffffffffffffffffff167fc3d58168c5ae7397731d063d5bbf3d657854427343f4c083240f7aacaa2d0f6286856040516114869291906158b2565b60405180910390a4505050806001019050611295565b505050505050505050565b8173ffffffffffffffffffffffffffffffffffffffff163373ffffffffffffffffffffffffffffffffffffffff161415611516576040517f08c379a000000000000000000000000000000000000000000000000000000000815260040161150d906155d7565b60405180910390fd5b80600160003373ffffffffffffffffffffffffffffffffffffffff1673ffffffffffffffffffffffffffffffffffffffff16815260200190815260200160002060008473ffffffffffffffffffffffffffffffffffffffff1673ffffffffffffffffffffffffffffffffffffffff16815260200190815260200160002060006101000a81548160ff0219169083151502179055508173ffffffffffffffffffffffffffffffffffffffff163373ffffffffffffffffffffffffffffffffffffffff167f17307eab39ab6107e8899845ad3d59bd9653f200f220920489ca2b5937696c31836040516116079190615478565b60405180910390a35050565b61161b611eec565b61165a576040517f08c379a000000000000000000000000000000000000000000000000000000000815260040161165190615737565b60405180910390fd5b6000600460008373ffffffffffffffffffffffffffffffffffffffff1673ffffffffffffffffffffffffffffffffffffffff16815260200190815260200160002060006101000a81548160ff02191690831515021790555050565b60006116c082612fd1565b9050919050565b600060066000838152602001908152602001600020549050919050565b6000600760008373ffffffffffffffffffffffffffffffffffffffff1673ffffffffffffffffffffffffffffffffffffffff16815260200190815260200160002060009054906101000a900460ff169050919050565b600061174582612ffb565b9050919050565b6040518060400160405280601d81526020017f68747470733a2f2f7374617368626c6f782e636f6d2f746f6b656e732f00000081525081565b61178d611eec565b6117cc576040517f08c379a00000000000000000000000000000000000000000000000000000000081526004016117c390615737565b60405180910390fd5b60006003600083815260200190815260200160002060006101000a81548160ff02191690831515021790555050565b6000600160008473ffffffffffffffffffffffffffffffffffffffff1673ffffffffffffffffffffffffffffffffffffffff16815260200190815260200160002060008373ffffffffffffffffffffffffffffffffffffffff1673ffffffffffffffffffffffffffffffffffffffff16815260200190815260200160002060009054906101000a900460ff16905092915050565b61189881613051565b50565b6118a481613508565b50565b600073ffffffffffffffffffffffffffffffffffffffff168573ffffffffffffffffffffffffffffffffffffffff161415611917576040517f08c379a000000000000000000000000000000000000000000000000000000000815260040161190e90615557565b60405180910390fd5b3373ffffffffffffffffffffffffffffffffffffffff168673ffffffffffffffffffffffffffffffffffffffff16148061195e57506001151561195a87336117fb565b1515145b61199d576040517f08c379a000000000000000000000000000000000000000000000000000000000815260040161199490615797565b60405180910390fd5b6119a986868686611d0e565b8473ffffffffffffffffffffffffffffffffffffffff168673ffffffffffffffffffffffffffffffffffffffff163373ffffffffffffffffffffffffffffffffffffffff167fc3d58168c5ae7397731d063d5bbf3d657854427343f4c083240f7aacaa2d0f628787604051611a1f9291906158b2565b60405180910390a4611a79338787878787878080601f016020809104026020016040519081016040528093929190818152602001838380828437600081840152601f19601f8201169050808301925050505050505061383e565b505050505050565b611a89611eec565b611ac8576040517f08c379a0000000000000000000000000000000000000000000000000000000008152600401611abf90615737565b60405180910390fd5b611ad18161399d565b50565b6060600080905060008390505b60008114611b0357818060010192505060108181611afb57fe5b049050611ae1565b6060826040519080825280601f01601f191660200182016040528015611b385781602001600182028038833980820191505090505b50905060008090505b83811015611bb75760108681611b5357fe5b069250611b5f83613acd565b8260018387030381518110611b7057fe5b60200101907effffffffffffffffffffffffffffffffffffffffffffffffffffffffffffff1916908160001a90535060108681611ba957fe5b049550806001019050611b41565b50809350505050919050565b6060808390506060839050606081518351016040519080825280601f01601f191660200182016040528015611c075781602001600182028038833980820191505090505b509050606081905060008090506000809050600090505b8551811015611c8c57858181518110611c3357fe5b602001015160f81c60f81b838380600101945081518110611c5057fe5b60200101907effffffffffffffffffffffffffffffffffffffffffffffffffffffffffffff1916908160001a9053508080600101915050611c1e565b600090505b8451811015611cff57848181518110611ca657fe5b602001015160f81c60f81b838380600101945081518110611cc357fe5b60200101907effffffffffffffffffffffffffffffffffffffffffffffffffffffffffffff1916908160001a9053508080600101915050611c91565b82965050505050505092915050565b611d1782612fd1565b158015611d2a5750611d2884612ffb565b155b8015611d3c5750611d3a83612ffb565b155b611d7b576040517f08c379a0000000000000000000000000000000000000000000000000000000008152600401611d7290615717565b60405180910390fd5b611d8784848484613b76565b50505050565b611dac8473ffffffffffffffffffffffffffffffffffffffff16613d00565b15611ee4578373ffffffffffffffffffffffffffffffffffffffff1663bc197c81905060e01b7bffffffffffffffffffffffffffffffffffffffffffffffffffffffff19168473ffffffffffffffffffffffffffffffffffffffff1663bc197c8188888787876040518663ffffffff1660e01b8152600401611e32959493929190615359565b602060405180830381600087803b158015611e4c57600080fd5b505af1158015611e60573d6000803e3d6000fd5b505050506040513d601f19601f82011682018060405250611e84919081019061463a565b7bffffffffffffffffffffffffffffffffffffffffffffffffffffffff191614611ee3576040517f08c379a0000000000000000000000000000000000000000000000000000000008152600401611eda90615657565b60405180910390fd5b5b505050505050565b6000600260009054906101000a900473ffffffffffffffffffffffffffffffffffffffff1673ffffffffffffffffffffffffffffffffffffffff163373ffffffffffffffffffffffffffffffffffffffff1614905090565b600080600660008b81526020019081526020016000205411611f9b576040517f08c379a0000000000000000000000000000000000000000000000000000000008152600401611f9290615697565b60405180910390fd5b866000808b815260200190815260200160002060003373ffffffffffffffffffffffffffffffffffffffff1673ffffffffffffffffffffffffffffffffffffffff16815260200190815260200160002054101561202d576040517f08c379a000000000000000000000000000000000000000000000000000000000815260040161202490615677565b60405180910390fd5b61203685613d4b565b612075576040517f08c379a000000000000000000000000000000000000000000000000000000000815260040161206c90615637565b60405180910390fd5b600086116120b8576040517f08c379a00000000000000000000000000000000000000000000000000000000081526004016120af906154d7565b60405180910390fd5b60006120c2613d56565b90506120cc613e47565b818160000181815250508a81602001818152505089816040019073ffffffffffffffffffffffffffffffffffffffff16908173ffffffffffffffffffffffffffffffffffffffff168152505088816060018181525050868160c0018181525050878160e001818152505085816101000190151590811515815250508481610120019073ffffffffffffffffffffffffffffffffffffffff16908173ffffffffffffffffffffffffffffffffffffffff168152505060018161016001901515908115158152505080600b6000848152602001908152602001600020600082015181600001556020820151816001015560408201518160020160006101000a81548173ffffffffffffffffffffffffffffffffffffffff021916908373ffffffffffffffffffffffffffffffffffffffff160217905550606082015181600301556080820151816004015560a0820151816005015560c0820151816006015560e082015181600701556101008201518160080160006101000a81548160ff0219169083151502179055506101208201518160080160016101000a81548173ffffffffffffffffffffffffffffffffffffffff021916908373ffffffffffffffffffffffffffffffffffffffff16021790555061014082015181600a015561016082015181600b0160006101000a81548160ff02191690831515021790555061018082015181600b0160016101000a81548160ff02191690831515021790555090505060008090505b84518110156123ab576001600b6000858152602001908152602001600020600901600087848151811061232157fe5b602002602001015173ffffffffffffffffffffffffffffffffffffffff1673ffffffffffffffffffffffffffffffffffffffff16815260200190815260200160002060006101000a81548160ff021916908315150217905550600b6000848152602001908152602001600020600a01600081548092919060010191905055508060010190506122f2565b506123b78b338b613d6e565b8973ffffffffffffffffffffffffffffffffffffffff168b837f917c305b3fd6b7f7a61920199134f9d7f7be34db77537dad166bcebe584dac168c8b8d604051612403939291906158db565b60405180910390a4819250505098975050505050505050565b6000612426613e47565b600b6000878152602001908152602001600020604051806101a001604052908160008201548152602001600182015481526020016002820160009054906101000a900473ffffffffffffffffffffffffffffffffffffffff1673ffffffffffffffffffffffffffffffffffffffff1673ffffffffffffffffffffffffffffffffffffffff16815260200160038201548152602001600482015481526020016005820154815260200160068201548152602001600782015481526020016008820160009054906101000a900460ff161515151581526020016008820160019054906101000a900473ffffffffffffffffffffffffffffffffffffffff1673ffffffffffffffffffffffffffffffffffffffff1673ffffffffffffffffffffffffffffffffffffffff168152602001600a8201548152602001600b820160009054906101000a900460ff16151515158152602001600b820160019054906101000a900460ff1615151515815250509050858160000151146125da576040517f08c379a00000000000000000000000000000000000000000000000000000000081526004016125d190615877565b60405180910390fd5b80610160015161261f576040517f08c379a000000000000000000000000000000000000000000000000000000000815260040161261690615837565b60405180910390fd5b80610120015173ffffffffffffffffffffffffffffffffffffffff163373ffffffffffffffffffffffffffffffffffffffff1614612692576040517f08c379a000000000000000000000000000000000000000000000000000000000815260040161268990615597565b60405180910390fd5b6000816101400151111561274157600b600087815260200190815260200160002060090160008673ffffffffffffffffffffffffffffffffffffffff1673ffffffffffffffffffffffffffffffffffffffff16815260200190815260200160002060009054906101000a900460ff16612740576040517f08c379a000000000000000000000000000000000000000000000000000000000815260040161273790615597565b60405180910390fd5b5b8061010001511561279e578060800151816060015103841115612799576040517f08c379a0000000000000000000000000000000000000000000000000000000008152600401612790906155f7565b60405180910390fd5b6127e5565b806060015184146127e4576040517f08c379a00000000000000000000000000000000000000000000000000000000081526004016127db906155f7565b60405180910390fd5b5b83600b60008881526020019081526020016000206004015401600b6000888152602001908152602001600020600401819055506000612822613da1565b905060008442019050600081421015905061283b613ee1565b838160000181815250508981602001818152505088816040019073ffffffffffffffffffffffffffffffffffffffff16908173ffffffffffffffffffffffffffffffffffffffff16815250508781606001818152505082816080018181525050818160a001901515908115158152505080600c6000868152602001908152602001600020600082015181600001556020820151816001015560408201518160020160006101000a81548173ffffffffffffffffffffffffffffffffffffffff021916908373ffffffffffffffffffffffffffffffffffffffff160217905550606082015181600301556080820151816004015560a08201518160050160006101000a81548160ff02191690831515021790555060c08201518160050160016101000a81548160ff02191690831515021790555090505087600b60008c81526020019081526020016000206004015401600b60008c8152602001908152602001600020600401819055508873ffffffffffffffffffffffffffffffffffffffff16848b7f8f414bb7b1129208b5a842a85f18292a47ad72117cca38e4363cf80dc189ec168b876040516129ee9291906158b2565b60405180910390a48115612a6c57612a0b85602001518a8a613db9565b87600b60008c81526020019081526020016000206005015401600b60008c815260200190815260200160002060050181905550837f9df29a48d557958defdbeb91dda0116b443663f2a358ab8947609973c5a7b51c60405160405180910390a25b600b60008b815260200190815260200160002060030154600b60008c8152602001908152602001600020600501541415612ad0576000600b60008c8152602001908152602001600020600b0160006101000a81548160ff0219169083151502179055505b8395505050505050949350505050565b612ae8613ee1565b600c60008381526020019081526020016000206040518060e001604052908160008201548152602001600182015481526020016002820160009054906101000a900473ffffffffffffffffffffffffffffffffffffffff1673ffffffffffffffffffffffffffffffffffffffff1673ffffffffffffffffffffffffffffffffffffffff16815260200160038201548152602001600482015481526020016005820160009054906101000a900460ff161515151581526020016005820160019054906101000a900460ff161515151581525050905081816000015114612c02576040517f08c379a0000000000000000000000000000000000000000000000000000000008152600401612bf990615517565b60405180910390fd5b8060a00151158015612c1657508060c00151155b612c55576040517f08c379a0000000000000000000000000000000000000000000000000000000008152600401612c4c90615757565b60405180910390fd5b8060800151421015612c9c576040517f08c379a0000000000000000000000000000000000000000000000000000000008152600401612c93906157d7565b60405180910390fd5b612ca4613e47565b600b600083602001518152602001908152602001600020604051806101a001604052908160008201548152602001600182015481526020016002820160009054906101000a900473ffffffffffffffffffffffffffffffffffffffff1673ffffffffffffffffffffffffffffffffffffffff1673ffffffffffffffffffffffffffffffffffffffff16815260200160038201548152602001600482015481526020016005820154815260200160068201548152602001600782015481526020016008820160009054906101000a900460ff161515151581526020016008820160019054906101000a900473ffffffffffffffffffffffffffffffffffffffff1673ffffffffffffffffffffffffffffffffffffffff1673ffffffffffffffffffffffffffffffffffffffff168152602001600a8201548152602001600b820160009054906101000a900460ff16151515158152602001600b820160019054906101000a900460ff16151515158152505090506001600c600085815260200190815260200160002060050160006101000a81548160ff021916908315150217905550612e5c816020015183604001518460600151613db9565b8160600151600b6000836000015181526020019081526020016000206005015401600b600083600001518152602001908152602001600020600501819055508160600151600b6000836000015181526020019081526020016000206004015403600b60008360000151815260200190815260200160002060040181905550827f9df29a48d557958defdbeb91dda0116b443663f2a358ab8947609973c5a7b51c60405160405180910390a2600b60008260000151815260200190815260200160002060030154600b600083600001518152602001908152602001600020600501541415612f77576000600b600083600001518152602001908152602001600020600b0160006101000a81548160ff0219169083151502179055505b505050565b600080828401905083811015612fc7576040517f08c379a0000000000000000000000000000000000000000000000000000000008152600401612fbe90615577565b60405180910390fd5b8091505092915050565b60006003600083815260200190815260200160002060009054906101000a900460ff169050919050565b6000600460008373ffffffffffffffffffffffffffffffffffffffff1673ffffffffffffffffffffffffffffffffffffffff16815260200190815260200160002060009054906101000a900460ff169050919050565b613059613ee1565b600c60008381526020019081526020016000206040518060e001604052908160008201548152602001600182015481526020016002820160009054906101000a900473ffffffffffffffffffffffffffffffffffffffff1673ffffffffffffffffffffffffffffffffffffffff1673ffffffffffffffffffffffffffffffffffffffff16815260200160038201548152602001600482015481526020016005820160009054906101000a900460ff161515151581526020016005820160019054906101000a900460ff161515151581525050905081816000015114613173576040517f08c379a000000000000000000000000000000000000000000000000000000000815260040161316a90615517565b60405180910390fd5b8060a00151156131b8576040517f08c379a00000000000000000000000000000000000000000000000000000000081526004016131af906156d7565b60405180910390fd5b806080015142106131fe576040517f08c379a00000000000000000000000000000000000000000000000000000000081526004016131f590615857565b60405180910390fd5b613206613e47565b600b600083602001518152602001908152602001600020604051806101a001604052908160008201548152602001600182015481526020016002820160009054906101000a900473ffffffffffffffffffffffffffffffffffffffff1673ffffffffffffffffffffffffffffffffffffffff1673ffffffffffffffffffffffffffffffffffffffff16815260200160038201548152602001600482015481526020016005820154815260200160068201548152602001600782015481526020016008820160009054906101000a900460ff161515151581526020016008820160019054906101000a900473ffffffffffffffffffffffffffffffffffffffff1673ffffffffffffffffffffffffffffffffffffffff1673ffffffffffffffffffffffffffffffffffffffff168152602001600a8201548152602001600b820160009054906101000a900460ff16151515158152602001600b820160019054906101000a900460ff161515151581525050905080610120015173ffffffffffffffffffffffffffffffffffffffff163373ffffffffffffffffffffffffffffffffffffffff16146133eb576040517f08c379a00000000000000000000000000000000000000000000000000000000081526004016133e290615597565b60405180910390fd5b6001600c600085815260200190815260200160002060050160016101000a81548160ff0219169083151502179055508160600151600b6000836000015181526020019081526020016000206004015403600b60008360000151815260200190815260200160002060040181905550827f31b0c01e8429f81903c3f8adc204767b8efa7cfca91a00f3b4bb40ce63c8a20660405160405180910390a2600b600082600001518152602001908152602001600020600b0160019054906101000a900460ff16156134cf576134ca816020015182604001518460600151613db9565b613503565b6001600b600083600001518152602001908152602001600020600b0160006101000a81548160ff0219169083151502179055505b505050565b613510613e47565b600b6000838152602001908152602001600020604051806101a001604052908160008201548152602001600182015481526020016002820160009054906101000a900473ffffffffffffffffffffffffffffffffffffffff1673ffffffffffffffffffffffffffffffffffffffff1673ffffffffffffffffffffffffffffffffffffffff16815260200160038201548152602001600482015481526020016005820154815260200160068201548152602001600782015481526020016008820160009054906101000a900460ff161515151581526020016008820160019054906101000a900473ffffffffffffffffffffffffffffffffffffffff1673ffffffffffffffffffffffffffffffffffffffff1673ffffffffffffffffffffffffffffffffffffffff168152602001600a8201548152602001600b820160009054906101000a900460ff16151515158152602001600b820160019054906101000a900460ff1615151515815250509050818160000151146136c4576040517f08c379a00000000000000000000000000000000000000000000000000000000081526004016136bb90615877565b60405180910390fd5b80610160015180156136d95750806101800151155b613718576040517f08c379a000000000000000000000000000000000000000000000000000000000815260040161370f906157f7565b60405180910390fd5b806040015173ffffffffffffffffffffffffffffffffffffffff163373ffffffffffffffffffffffffffffffffffffffff161461378a576040517f08c379a000000000000000000000000000000000000000000000000000000000815260040161378190615597565b60405180910390fd5b6001600b6000848152602001908152602001600020600b0160016101000a81548160ff0219169083151502179055506000600b6000848152602001908152602001600020600b0160006101000a81548160ff02191690831515021790555060008160a00151826080015183606001510303905061380c82602001513383613db9565b827fc28b4aed030bfacc245c0501326e1beb8c0ef0d60e4edc21067fdeb52da2a7aa60405160405180910390a2505050565b61385d8473ffffffffffffffffffffffffffffffffffffffff16613d00565b15613995578373ffffffffffffffffffffffffffffffffffffffff1663f23a6e61905060e01b7bffffffffffffffffffffffffffffffffffffffffffffffffffffffff19168473ffffffffffffffffffffffffffffffffffffffff1663f23a6e6188888787876040518663ffffffff1660e01b81526004016138e39594939291906153c1565b602060405180830381600087803b1580156138fd57600080fd5b505af1158015613911573d6000803e3d6000fd5b505050506040513d601f19601f82011682018060405250613935919081019061463a565b7bffffffffffffffffffffffffffffffffffffffffffffffffffffffff191614613994576040517f08c379a000000000000000000000000000000000000000000000000000000000815260040161398b90615817565b60405180910390fd5b5b505050505050565b600073ffffffffffffffffffffffffffffffffffffffff168173ffffffffffffffffffffffffffffffffffffffff161415613a0d576040517f08c379a0000000000000000000000000000000000000000000000000000000008152600401613a0490615537565b60405180910390fd5b8073ffffffffffffffffffffffffffffffffffffffff16600260009054906101000a900473ffffffffffffffffffffffffffffffffffffffff1673ffffffffffffffffffffffffffffffffffffffff167f8be0079c531659141344cd1fd0a4f28419497f9722a3daafe3b4186f6b6457e060405160405180910390a380600260006101000a81548173ffffffffffffffffffffffffffffffffffffffff021916908373ffffffffffffffffffffffffffffffffffffffff16021790555050565b60008160ff16600011158015613ae7575060098260ff1611155b15613b1c57817f300000000000000000000000000000000000000000000000000000000000000060f81c0160f81b9050613b71565b8160ff16600a11158015613b345750600f8260ff1611155b15613b6c57600a827f610000000000000000000000000000000000000000000000000000000000000060f81c010360f81b9050613b71565b600080fd5b919050565b613bf2816040518060600160405280602a8152602001615b2f602a913960008086815260200190815260200160002060008873ffffffffffffffffffffffffffffffffffffffff1673ffffffffffffffffffffffffffffffffffffffff16815260200190815260200160002054613dec9092919063ffffffff16565b60008084815260200190815260200160002060008673ffffffffffffffffffffffffffffffffffffffff1673ffffffffffffffffffffffffffffffffffffffff16815260200190815260200160002081905550613ca78160008085815260200190815260200160002060008673ffffffffffffffffffffffffffffffffffffffff1673ffffffffffffffffffffffffffffffffffffffff16815260200190815260200160002054612f7c90919063ffffffff16565b60008084815260200190815260200160002060008573ffffffffffffffffffffffffffffffffffffffff1673ffffffffffffffffffffffffffffffffffffffff1681526020019081526020016000208190555050505050565b60008060007fc5d2460186f7233c927e7db2dcc703c0e500b653ca82273b7bfad8045d85a47060001b9050833f91506000801b8214158015613d425750808214155b92505050919050565b600060019050919050565b60006008600081548092919060010191905055905090565b613d9c82600a60009054906101000a900473ffffffffffffffffffffffffffffffffffffffff168584611d0e565b505050565b60006009600081548092919060010191905055905090565b613de7600a60009054906101000a900473ffffffffffffffffffffffffffffffffffffffff16838584611d0e565b505050565b6000838311158290613e34576040517f08c379a0000000000000000000000000000000000000000000000000000000008152600401613e2b91906154b5565b60405180910390fd5b5060008385039050809150509392505050565b604051806101a001604052806000815260200160008152602001600073ffffffffffffffffffffffffffffffffffffffff1681526020016000815260200160008152602001600081526020016000815260200160008152602001600015158152602001600073ffffffffffffffffffffffffffffffffffffffff168152602001600081526020016000151581526020016000151581525090565b6040518060e001604052806000815260200160008152602001600073ffffffffffffffffffffffffffffffffffffffff16815260200160008152602001600081526020016000151581526020016000151581525090565b600081359050613f4781615ad2565b92915050565b60008083601f840112613f5f57600080fd5b8235905067ffffffffffffffff811115613f7857600080fd5b602083019150836020820283011115613f9057600080fd5b9250929050565b600082601f830112613fa857600080fd5b8135613fbb613fb68261593f565b615912565b91508181835260208401935060208101905083856020840282011115613fe057600080fd5b60005b838110156140105781613ff68882613f38565b845260208401935060208301925050600181019050613fe3565b5050505092915050565b60008083601f84011261402c57600080fd5b8235905067ffffffffffffffff81111561404557600080fd5b60208301915083602082028301111561405d57600080fd5b9250929050565b600082601f83011261407557600080fd5b813561408861408382615967565b615912565b915081818352602084019350602081019050838560208402820111156140ad57600080fd5b60005b838110156140dd57816140c38882614170565b8452602084019350602083019250506001810190506140b0565b5050505092915050565b6000813590506140f681615ae9565b92915050565b60008135905061410b81615b00565b92915050565b60008151905061412081615b00565b92915050565b60008083601f84011261413857600080fd5b8235905067ffffffffffffffff81111561415157600080fd5b60208301915083600182028301111561416957600080fd5b9250929050565b60008135905061417f81615b17565b92915050565b60006020828403121561419757600080fd5b60006141a584828501613f38565b91505092915050565b600080604083850312156141c157600080fd5b60006141cf85828601613f38565b92505060206141e085828601613f38565b9150509250929050565b60008060008060008060008060a0898b03121561420657600080fd5b60006142148b828c01613f38565b98505060206142258b828c01613f38565b975050604089013567ffffffffffffffff81111561424257600080fd5b61424e8b828c0161401a565b9650965050606089013567ffffffffffffffff81111561426d57600080fd5b6142798b828c0161401a565b9450945050608089013567ffffffffffffffff81111561429857600080fd5b6142a48b828c01614126565b92509250509295985092959890939650565b60008060008060008060a087890312156142cf57600080fd5b60006142dd89828a01613f38565b96505060206142ee89828a01613f38565b95505060406142ff89828a01614170565b945050606061431089828a01614170565b935050608087013567ffffffffffffffff81111561432d57600080fd5b61433989828a01614126565b92509250509295509295509295565b6000806040838503121561435b57600080fd5b600061436985828601613f38565b925050602061437a858286016140e7565b9150509250929050565b6000806040838503121561439757600080fd5b60006143a585828601613f38565b92505060206143b685828601614170565b9150509250929050565b600080604083850312156143d357600080fd5b600083013567ffffffffffffffff8111156143ed57600080fd5b6143f985828601613f97565b925050602083013567ffffffffffffffff81111561441657600080fd5b61442285828601614064565b9150509250929050565b6000806000806000806000806080898b03121561444857600080fd5b600089013567ffffffffffffffff81111561446257600080fd5b61446e8b828c0161401a565b9850985050602089013567ffffffffffffffff81111561448d57600080fd5b6144998b828c01613f4d565b9650965050604089013567ffffffffffffffff8111156144b857600080fd5b6144c48b828c0161401a565b9450945050606089013567ffffffffffffffff8111156144e357600080fd5b6144ef8b828c0161401a565b92509250509295985092959890939650565b600080600080600080600080600080600060e08c8e03121561452257600080fd5b60008c013567ffffffffffffffff81111561453c57600080fd5b6145488e828f0161401a565b9b509b505060208c013567ffffffffffffffff81111561456757600080fd5b6145738e828f0161401a565b995099505060408c013567ffffffffffffffff81111561459257600080fd5b61459e8e828f0161401a565b975097505060606145b18e828f01614170565b95505060806145c28e828f016140e7565b94505060a06145d38e828f01613f38565b93505060c08c013567ffffffffffffffff8111156145f057600080fd5b6145fc8e828f01613f4d565b92509250509295989b509295989b9093969950565b60006020828403121561462357600080fd5b6000614631848285016140fc565b91505092915050565b60006020828403121561464c57600080fd5b600061465a84828501614111565b91505092915050565b60006020828403121561467557600080fd5b600061468384828501614170565b91505092915050565b600080600080608085870312156146a257600080fd5b60006146b087828801614170565b94505060206146c187828801613f38565b93505060406146d287828801614170565b92505060606146e387828801614170565b91505092959194509250565b60008060008060008060008060e0898b03121561470b57600080fd5b60006147198b828c01614170565b985050602061472a8b828c01614170565b975050604061473b8b828c01614170565b965050606061474c8b828c01614170565b955050608061475d8b828c016140e7565b94505060a061476e8b828c01613f38565b93505060c089013567ffffffffffffffff81111561478b57600080fd5b6147978b828c01613f4d565b92509250509295985092959890939650565b60006147b58383615320565b60208301905092915050565b6147ca81615a0b565b82525050565b60006147dc83856159d8565b93507f07ffffffffffffffffffffffffffffffffffffffffffffffffffffffffffffff83111561480b57600080fd5b60208302925061481c838584615a7f565b82840190509392505050565b60006148338261599f565b61483d81856159d8565b93506148488361598f565b8060005b8381101561487957815161486088826147a9565b975061486b836159cb565b92505060018101905061484c565b5085935050505092915050565b61488f81615a1d565b82525050565b60006148a0826159aa565b6148aa81856159e9565b93506148ba818560208601615a8e565b6148c381615ac1565b840191505092915050565b60006148d9826159c0565b6148e381856159fa565b93506148f3818560208601615a8e565b6148fc81615ac1565b840191505092915050565b6000614912826159b5565b61491c81856159fa565b935061492c818560208601615a8e565b61493581615ac1565b840191505092915050565b600061494d6018836159fa565b91507f5374617368426c6f783a20496e76616c696420707269636500000000000000006000830152602082019050919050565b600061498d602b836159fa565b91507f455243313135353a2062616c616e636520717565727920666f7220746865207a60008301527f65726f20616464726573730000000000000000000000000000000000000000006020830152604082019050919050565b60006149f36017836159fa565b91507f5374617368426c6f783a20556e6b6e6f776e204465616c0000000000000000006000830152602082019050919050565b6000614a336026836159fa565b91507f4f776e61626c653a206e6577206f776e657220697320746865207a65726f206160008301527f64647265737300000000000000000000000000000000000000000000000000006020830152604082019050919050565b6000614a996028836159fa565b91507f455243313135353a207461726765742061646472657373206d7573742062652060008301527f6e6f6e2d7a65726f0000000000000000000000000000000000000000000000006020830152604082019050919050565b6000614aff601b836159fa565b91507f536166654d6174683a206164646974696f6e206f766572666c6f7700000000006000830152602082019050919050565b6000614b3f6017836159fa565b91507f5374617368426c6f783a20556e617574686f72697a65640000000000000000006000830152602082019050919050565b6000614b7f602b836159fa565b91507f5374617368426c6f783a20616c6c206c69737473206d7573742068617665207360008301527f616d65206c656e677468730000000000000000000000000000000000000000006020830152604082019050919050565b6000614be5602c836159fa565b91507f455243313135353a2063616e6e6f742073657420617070726f76616c2073746160008301527f74757320666f722073656c6600000000000000000000000000000000000000006020830152604082019050919050565b6000614c4b6019836159fa565b91507f5374617368426c6f783a20696e76616c696420616d6f756e74000000000000006000830152602082019050919050565b6000614c8b6030836159fa565b91507f455243313135353a206163636f756e747320616e6420494473206d757374206860008301527f6176652073616d65206c656e67746873000000000000000000000000000000006020830152604082019050919050565b6000614cf1601b836159fa565b91507f5374617368426c6f783a20496e76616c69642063757272656e637900000000006000830152602082019050919050565b6000614d316036836159fa565b91507f455243313135353a20676f7420756e6b6e6f776e2076616c75652066726f6d2060008301527f6f6e4552433131353542617463685265636569766564000000000000000000006020830152604082019050919050565b6000614d97601f836159fa565b91507f5374617368426c6f783a20496e73756666696369656e742062616c616e6365006000830152602082019050919050565b6000614dd76018836159fa565b91507f5374617368426c6f783a20556e6b6e6f776e20546f6b656e00000000000000006000830152602082019050919050565b6000614e176034836159fa565b91507f455243313135353a20736f6d65206164647265737320696e206261746368206260008301527f616c616e6365207175657279206973207a65726f0000000000000000000000006020830152604082019050919050565b6000614e7d6021836159fa565b91507f5374617368426c6f783a204465616c20616c726561647920636f6e6669726d6560008301527f64000000000000000000000000000000000000000000000000000000000000006020830152604082019050919050565b6000614ee3601f836159fa565b91507f5374617368426c6f783a20546f6b656e20616c7265616479206d696e746564006000830152602082019050919050565b6000614f236017836159fa565b91507f455243313135354c6f636b61626c653a204c6f636b65640000000000000000006000830152602082019050919050565b6000614f636020836159fa565b91507f4f776e61626c653a2063616c6c6572206973206e6f7420746865206f776e65726000830152602082019050919050565b6000614fa3602d836159fa565b91507f5374617368426c6f783a204465616c20616c726561647920636f6e6669726d6560008301527f64206f722063616e63656c6564000000000000000000000000000000000000006020830152604082019050919050565b60006150096043836159fa565b91507f5374617368426c6f783a20616c6c206c697374206d757374206861766520736160008301527f6d65206c656e6774687320616e64206174206c65617374206f6e6520656c656d60208301527f656e7400000000000000000000000000000000000000000000000000000000006040830152606082019050919050565b60006150956037836159fa565b91507f455243313135353a206e656564206f70657261746f7220617070726f76616c2060008301527f666f7220337264207061727479207472616e73666572730000000000000000006020830152604082019050919050565b60006150fb602e836159fa565b91507f455243313135353a2049447320616e642076616c756573206d7573742068617660008301527f652073616d65206c656e677468730000000000000000000000000000000000006020830152604082019050919050565b60006151616013836159fa565b91507f5374617368426c6f783a20546f6f20736f6f6e000000000000000000000000006000830152602082019050919050565b60006151a16024836159fa565b91507f5374617368426c6f783a204f6666657220636c6f736564206f722063616e636560008301527f6c6c6564000000000000000000000000000000000000000000000000000000006020830152604082019050919050565b60006152076031836159fa565b91507f455243313135353a20676f7420756e6b6e6f776e2076616c75652066726f6d2060008301527f6f6e4552433131353552656365697665640000000000000000000000000000006020830152604082019050919050565b600061526d6017836159fa565b91507f5374617368426c6f783a204f6666657220636c6f7365640000000000000000006000830152602082019050919050565b60006152ad6013836159fa565b91507f5374617368426c6f783a20546f6f206c617465000000000000000000000000006000830152602082019050919050565b60006152ed6018836159fa565b91507f5374617368426c6f783a20556e6b6e6f776e204f6666657200000000000000006000830152602082019050919050565b61532981615a75565b82525050565b61533881615a75565b82525050565b600060208201905061535360008301846147c1565b92915050565b600060a08201905061536e60008301886147c1565b61537b60208301876147c1565b818103604083015261538d8186614828565b905081810360608301526153a18185614828565b905081810360808301526153b58184614895565b90509695505050505050565b600060a0820190506153d660008301886147c1565b6153e360208301876147c1565b6153f0604083018661532f565b6153fd606083018561532f565b818103608083015261540f8184614895565b90509695505050505050565b600060408201905081810360008301526154368186886147d0565b9050818103602083015261544b8184866147d0565b905095945050505050565b600060208201905081810360008301526154708184614828565b905092915050565b600060208201905061548d6000830184614886565b92915050565b600060208201905081810360008301526154ad8184614907565b905092915050565b600060208201905081810360008301526154cf81846148ce565b905092915050565b600060208201905081810360008301526154f081614940565b9050919050565b6000602082019050818103600083015261551081614980565b9050919050565b60006020820190508181036000830152615530816149e6565b9050919050565b6000602082019050818103600083015261555081614a26565b9050919050565b6000602082019050818103600083015261557081614a8c565b9050919050565b6000602082019050818103600083015261559081614af2565b9050919050565b600060208201905081810360008301526155b081614b32565b9050919050565b600060208201905081810360008301526155d081614b72565b9050919050565b600060208201905081810360008301526155f081614bd8565b9050919050565b6000602082019050818103600083015261561081614c3e565b9050919050565b6000602082019050818103600083015261563081614c7e565b9050919050565b6000602082019050818103600083015261565081614ce4565b9050919050565b6000602082019050818103600083015261567081614d24565b9050919050565b6000602082019050818103600083015261569081614d8a565b9050919050565b600060208201905081810360008301526156b081614dca565b9050919050565b600060208201905081810360008301526156d081614e0a565b9050919050565b600060208201905081810360008301526156f081614e70565b9050919050565b6000602082019050818103600083015261571081614ed6565b9050919050565b6000602082019050818103600083015261573081614f16565b9050919050565b6000602082019050818103600083015261575081614f56565b9050919050565b6000602082019050818103600083015261577081614f96565b9050919050565b6000602082019050818103600083015261579081614ffc565b9050919050565b600060208201905081810360008301526157b081615088565b9050919050565b600060208201905081810360008301526157d0816150ee565b9050919050565b600060208201905081810360008301526157f081615154565b9050919050565b6000602082019050818103600083015261581081615194565b9050919050565b60006020820190508181036000830152615830816151fa565b9050919050565b6000602082019050818103600083015261585081615260565b9050919050565b60006020820190508181036000830152615870816152a0565b9050919050565b60006020820190508181036000830152615890816152e0565b9050919050565b60006020820190506158ac600083018461532f565b92915050565b60006040820190506158c7600083018561532f565b6158d4602083018461532f565b9392505050565b60006060820190506158f0600083018661532f565b6158fd602083018561532f565b61590a604083018461532f565b949350505050565b6000604051905081810181811067ffffffffffffffff8211171561593557600080fd5b8060405250919050565b600067ffffffffffffffff82111561595657600080fd5b602082029050602081019050919050565b600067ffffffffffffffff82111561597e57600080fd5b602082029050602081019050919050565b6000819050602082019050919050565b600081519050919050565b600081519050919050565b600081519050919050565b600081519050919050565b6000602082019050919050565b600082825260208201905092915050565b600082825260208201905092915050565b600082825260208201905092915050565b6000615a1682615a55565b9050919050565b60008115159050919050565b60007fffffffff0000000000000000000000000000000000000000000000000000000082169050919050565b600073ffffffffffffffffffffffffffffffffffffffff82169050919050565b6000819050919050565b82818337600083830152505050565b60005b83811015615aac578082015181840152602081019050615a91565b83811115615abb576000848401525b50505050565b6000601f19601f8301169050919050565b615adb81615a0b565b8114615ae657600080fd5b50565b615af281615a1d565b8114615afd57600080fd5b50565b615b0981615a29565b8114615b1457600080fd5b50565b615b2081615a75565b8114615b2b57600080fd5b5056fe455243313135353a20696e73756666696369656e742062616c616e636520666f72207472616e73666572a365627a7a7231582069cb8758c7418adaac551f4ab298be6abba5f8df9b22bf8870619f02e3df00596c6578706572696d656e74616cf564736f6c634300050c0040",
  "source": "pragma solidity ^0.5.12;\npragma experimental ABIEncoderV2;\n\nimport './lib/ERC1155/ERC1155Lockable.sol';\nimport './lib/ERC1155/ERC1155Sellable.sol';\n\ncontract StashBlox is ERC1155Lockable, ERC1155Sellable {\n\n}\n",
  "sourcePath": "/home/ouziel/Work/StashBloxContracts/contracts/StashBlox.sol",
  "compiler": {
    "name": "solc",
    "version": "0.5.12+commit.7709ece9.Emscripten.clang"
  },
  "schemaVersion": "3.0.16",
  "updatedAt": "2019-11-16T17:19:23.632Z",
  "devdoc": {
    "methods": {
      "balanceOf(address,uint256)": {
        "details": "Get the specified address' balance for token with specified ID. Attempting to query the zero account for a balance will result in a revert.",
        "params": {
          "account": "The address of the token holder",
          "id": "ID of the token"
        },
        "return": "The account's balance of the token type requested"
      },
      "balanceOfBatch(address[],uint256[])": {
        "details": "Get the balance of multiple account/token pairs. If any of the query accounts is the zero account, this query will revert.",
        "params": {
          "accounts": "The addresses of the token holders",
          "ids": "IDs of the tokens"
        },
        "return": "Balances for each account and token id pair"
      },
      "createTokens(uint256[],address[],uint256[],uint256[])": {
        "details": "Function to mint an amount of a token with the given ID.",
        "params": {
          "ids": "ID of the token to be minted",
          "recipients": "The addresses that will own the minted token",
          "values": "Amount of the token to be minted for each recipient"
        }
      },
      "isApprovedForAll(address,address)": {
        "params": {
          "account": "The account of the Tokens",
          "operator": "Address of authorized operator"
        },
        "return": "True if the operator is approved, false if not"
      },
      "owner()": {
        "details": "Returns the address of the current owner."
      },
      "safeBatchTransferFrom(address,address,uint256[],uint256[],bytes)": {
        "details": "Transfers `values` amount(s) of `ids` from the `from` address to the `to` address specified. Caller must be approved to manage the tokens being transferred out of the `from` account. If `to` is a smart contract, will call `onERC1155BatchReceived` on `to` and act appropriately.",
        "params": {
          "data": "Data forwarded to `onERC1155Received` if `to` is a contract receiver",
          "from": "Source address",
          "ids": "IDs of each token type",
          "to": "Target address",
          "values": "Transfer amounts per token type"
        }
      },
      "safeTransferFrom(address,address,uint256,uint256,bytes)": {
        "details": "Transfers `value` amount of an `id` from the `from` address to the `to` address specified. Caller must be approved to manage the tokens being transferred out of the `from` account. If `to` is a smart contract, will call `onERC1155Received` on `to` and act appropriately.",
        "params": {
          "data": "Data forwarded to `onERC1155Received` if `to` is a contract receiver",
          "from": "Source address",
          "id": "ID of the token type",
          "to": "Target address",
          "value": "Transfer amount"
        }
      },
      "setApprovalForAll(address,bool)": {
        "details": "Sets or unsets the approval of a given operator.     * An operator is allowed to transfer all tokens of the sender on their behalf.     * Because an account already has operator privileges for itself, this function will revert if the account attempts to set the approval status for itself.",
        "params": {
          "approved": "representing the status of the approval to be set",
          "operator": "address to set the approval"
        }
      },
      "supportsInterface(bytes4)": {
        "params": {
          "_interfaceID": "The interface identifier, as specified in ERC-165"
        },
        "return": "`true` if the contract implements `_interfaceID` and"
      },
      "totalSupply(uint256)": {
        "params": {
          "id": "Token ID"
        },
        "return": "Token supply"
      },
      "transferOwnership(address)": {
        "details": "Transfers ownership of the contract to a new account (`newOwner`). Can only be called by the current owner."
      },
      "uri(uint256)": {
        "params": {
          "id": "Token ID"
        },
        "return": "URI string"
      }
    }
  },
  "userdoc": {
    "methods": {
      "isApprovedForAll(address,address)": {
        "notice": "Queries the approval status of an operator for a given account."
      },
      "supportsInterface(bytes4)": {
        "notice": "Query if a contract implements an interface"
      }
    }
  }
}