{
  "contractName": "StashBloxCallback",
  "abi": [
    {
      "anonymous": false,
      "inputs": [
        {
          "indexed": true,
          "internalType": "uint256",
          "name": "_id",
          "type": "uint256"
        },
        {
          "indexed": false,
          "internalType": "address",
          "name": "_proposer",
          "type": "address"
        },
        {
          "indexed": false,
          "internalType": "uint256",
          "name": "_price",
          "type": "uint256"
        }
      ],
      "name": "CallbackAccepted",
      "type": "event"
    },
    {
      "anonymous": false,
      "inputs": [
        {
          "indexed": true,
          "internalType": "uint256",
          "name": "_id",
          "type": "uint256"
        },
        {
          "indexed": false,
          "internalType": "address",
          "name": "_proposer",
          "type": "address"
        },
        {
          "indexed": false,
          "internalType": "uint256",
          "name": "_price",
          "type": "uint256"
        }
      ],
      "name": "CallbackProposed",
      "type": "event"
    },
    {
      "anonymous": false,
      "inputs": [
        {
          "indexed": true,
          "internalType": "uint256",
          "name": "_id",
          "type": "uint256"
        },
        {
          "indexed": false,
          "internalType": "address",
          "name": "_proposer",
          "type": "address"
        },
        {
          "indexed": false,
          "internalType": "uint256",
          "name": "_price",
          "type": "uint256"
        }
      ],
      "name": "CallbackRefused",
      "type": "event"
    },
    {
      "anonymous": false,
      "inputs": [
        {
          "indexed": true,
          "internalType": "address",
          "name": "previousOwner",
          "type": "address"
        },
        {
          "indexed": true,
          "internalType": "address",
          "name": "newOwner",
          "type": "address"
        }
      ],
      "name": "OwnershipTransferred",
      "type": "event"
    },
    {
      "inputs": [],
      "name": "owner",
      "outputs": [
        {
          "internalType": "address",
          "name": "",
          "type": "address"
        }
      ],
      "stateMutability": "view",
      "type": "function"
    },
    {
      "inputs": [
        {
          "internalType": "address",
          "name": "newOwner",
          "type": "address"
        }
      ],
      "name": "transferOwnership",
      "outputs": [],
      "stateMutability": "nonpayable",
      "type": "function"
    },
    {
      "inputs": [
        {
          "internalType": "uint256",
          "name": "id",
          "type": "uint256"
        },
        {
          "internalType": "uint256",
          "name": "price",
          "type": "uint256"
        }
      ],
      "name": "proposeCallback",
      "outputs": [],
      "stateMutability": "payable",
      "type": "function"
    },
    {
      "inputs": [
        {
          "internalType": "uint256",
          "name": "id",
          "type": "uint256"
        },
        {
          "internalType": "address",
          "name": "proposer",
          "type": "address"
        }
      ],
      "name": "refuseCallback",
      "outputs": [],
      "stateMutability": "nonpayable",
      "type": "function"
    },
    {
      "inputs": [
        {
          "internalType": "uint256",
          "name": "id",
          "type": "uint256"
        },
        {
          "internalType": "address",
          "name": "proposer",
          "type": "address"
        }
      ],
      "name": "acceptCallback",
      "outputs": [],
      "stateMutability": "nonpayable",
      "type": "function"
    }
  ],
  "bytecode": "0x608060405234801561001057600080fd5b5061001a3361001f565b610120565b6001600160a01b038116610068576040517f08c379a000000000000000000000000000000000000000000000000000000000815260040161005f906100c3565b60405180910390fd5b600080546040516001600160a01b03808516939216917f8be0079c531659141344cd1fd0a4f28419497f9722a3daafe3b4186f6b6457e091a3600080546001600160a01b0319166001600160a01b0392909216919091179055565b60208082526026908201527f4f776e61626c653a206e6577206f776e657220697320746865207a65726f206160408201527f6464726573730000000000000000000000000000000000000000000000000000606082015260800190565b610ce48061012f6000396000f3fe60806040526004361061004a5760003560e01c80636fe8ded21461004f57806370e0b145146100715780638da5cb5b14610084578063a2940072146100af578063f2fde38b146100cf575b600080fd5b34801561005b57600080fd5b5061006f61006a3660046108f7565b6100ef565b005b61006f61007f366004610923565b6101f3565b34801561009057600080fd5b50610099610382565b6040516100a69190610944565b60405180910390f35b3480156100bb57600080fd5b5061006f6100ca3660046108f7565b610391565b3480156100db57600080fd5b5061006f6100ea3660046108dc565b610653565b6100f7610683565b61011c5760405162461bcd60e51b815260040161011390610b7d565b60405180910390fd5b60008281526005602090815260408083206001600160a01b038516845290915290208054600190910154816101635760405162461bcd60e51b815260040161011390610c07565b6001600160a01b038316600081815260036020908152604080832080548601905580518082018252838152808301849052888452600583528184209484529390915290206101b291600261083f565b50837fd7e908f6f9af1236bea3e4382bb17cabca5929dec62fbb431284240820150ddd84846040516101e5929190610958565b60405180910390a250505050565b60008281526002602052604090205461021e5760405162461bcd60e51b815260040161011390610a67565b6000811161023e5760405162461bcd60e51b815260040161011390610a9e565b600082815260066020908152604080832054600290925282205461026f916127109161026991610694565b906106d7565b60008481526001602090815260408083203384529091529020549091508111156102ab5760405162461bcd60e51b815260040161011390610ae6565b600083815260016020908152604080832033845282528083205486845260029092528220546102d991610719565b905060006102e78285610694565b9050803410156103095760405162461bcd60e51b815260040161011390610bb2565b6040805180820182528581523460208083019190915260008881526005825283812033825290915291909120610340916002610882565b50847f2a7673db20f80755f65f456687dc9fd630454e8c76e428cb4a4ae1d0410cef5e3386604051610373929190610958565b60405180910390a25050505050565b6000546001600160a01b031690565b610399610683565b6103b55760405162461bcd60e51b815260040161011390610b7d565b60008281526005602090815260408083206001600160a01b038516845290915290208054600190910154816103fc5760405162461bcd60e51b815260040161011390610c07565b6000848152600660209081526040808320546002909252822054610427916127109161026991610694565b60008681526001602090815260408083203384529091529020549091508111156104635760405162461bcd60e51b8152600401610113906109c4565b6000858152600160209081526040808320338452825280832054888452600290925282205461049191610719565b9050600061049f8286610694565b9050808410156104c15760405162461bcd60e51b815260040161011390610c51565b60005b60008881526004602052604090205481101561057c5760008881526004602052604081208054839081106104f457fe5b60009182526020808320909101548b83526001825260408084206001600160a01b039092168085529190925291205490915080156105725760006105388983610694565b6001600160a01b038416600081815260036020908152604080832080549095019094558e8252600181528382209282529190915290812055505b50506001016104c4565b50600087815260026020908152604080832054600183528184206001600160a01b038b16855290925290912055808411156105d2576001600160a01b038616600090815260036020526040902080548286030190555b604080518082018252600080825260208083018290528a8252600581528382206001600160a01b038b16835290529190912061060f91600261083f565b50867f1a28571d07f35a57e1ed755a57928ae32539f444bbcef661637165f04fb5083f8787604051610642929190610958565b60405180910390a250505050505050565b61065b610683565b6106775760405162461bcd60e51b815260040161011390610b7d565b6106808161075b565b50565b6000546001600160a01b0316331490565b6000826106a3575060006106d1565b828202828482816106b057fe5b04146106ce5760405162461bcd60e51b815260040161011390610b3c565b90505b92915050565b60006106ce83836040518060400160405280601a81526020017f536166654d6174683a206469766973696f6e206279207a65726f0000000000008152506107dc565b60006106ce83836040518060400160405280601e81526020017f536166654d6174683a207375627472616374696f6e206f766572666c6f770000815250610813565b6001600160a01b0381166107815760405162461bcd60e51b815260040161011390610a21565b600080546040516001600160a01b03808516939216917f8be0079c531659141344cd1fd0a4f28419497f9722a3daafe3b4186f6b6457e091a3600080546001600160a01b0319166001600160a01b0392909216919091179055565b600081836107fd5760405162461bcd60e51b81526004016101139190610971565b50600083858161080957fe5b0495945050505050565b600081848411156108375760405162461bcd60e51b81526004016101139190610971565b505050900390565b8260028101928215610872579160200282015b82811115610872578251829060ff16905591602001919060010190610852565b5061087e9291506108b0565b5090565b8260028101928215610872579160200282015b82811115610872578251825591602001919060010190610895565b5b8082111561087e57600081556001016108b1565b80356001600160a01b03811681146106d157600080fd5b6000602082840312156108ed578081fd5b6106ce83836108c5565b60008060408385031215610909578081fd5b8235915061091a84602085016108c5565b90509250929050565b60008060408385031215610935578182fd5b50508035926020909101359150565b6001600160a01b0391909116815260200190565b6001600160a01b03929092168252602082015260400190565b6000602080835283518082850152825b8181101561099d57858101830151858201604001528201610981565b818111156109ae5783604083870101525b50601f01601f1916929092016040019392505050565b60208082526038908201527f5374617368426c6f783a20696e73756666696369656e742062616c616e63652060408201527f746f2065786563757465207468652063616c6c6261636b2e0000000000000000606082015260800190565b60208082526026908201527f4f776e61626c653a206e6577206f776e657220697320746865207a65726f206160408201526564647265737360d01b606082015260800190565b60208082526019908201527f5374617368426c6f783a20556e6b6e6f776e20746f6b656e2e00000000000000604082015260600190565b60208082526028908201527f5374617368426c6f783a205072696365206d7573742062652067726561746572604082015267103a3430b710181760c11b606082015260800190565b60208082526036908201527f5374617368426c6f783a20696e73756666696369656e742062616c616e6365206040820152753a3790383937b837b9b290309031b0b6363130b1b59760511b606082015260800190565b60208082526021908201527f536166654d6174683a206d756c7469706c69636174696f6e206f766572666c6f6040820152607760f81b606082015260800190565b6020808252818101527f4f776e61626c653a2063616c6c6572206973206e6f7420746865206f776e6572604082015260600190565b60208082526035908201527f5374617368426c6f783a20696e73756666696369656e742076616c756520666f60408201527439103a343290383937b837b9b2b210383934b1b29760591b606082015260800190565b6020808252602a908201527f5374617368426c6f783a2063616c6c6261636b2070726f706f736974696f6e206040820152693737ba103337bab7321760b11b606082015260800190565b6020808252603f908201527f5374617368426c6f783a20696e73756666696369656e7420657363726f77656460408201527f2076616c756520746f2065786563757465207468652063616c6c6261636b2e0060608201526080019056fea2646970667358221220ca60943c24e6f4bedbaa4d2fae8b99a1d87d727b0286e3f3bcd730b8126af0b664736f6c63430007010033",
  "immutableReferences": {},
  "source": "pragma solidity ^0.7.1;\npragma experimental ABIEncoderV2;\n\nimport \"./lib/ERC173/ERC173.sol\";\nimport \"./lib/utils/SafeMath.sol\";\n\ncontract StashBloxCallback is ERC173 {\n    using SafeMath for uint256;\n\n    // Mapping from token ID to account balances\n    mapping (uint256 => mapping(address => uint256)) _balances;\n\n    // Mapping from token ID to Supply\n    mapping (uint256 => uint256) internal _supplies;\n\n    // Balances ETH for fees recipients and callbacks\n    mapping (address => uint256) internal _ETHBalances;\n\n    // For each token a list of addresses. Can contains zero balance.\n    mapping (uint256 => address[]) internal _addressesByToken;\n\n\n    event CallbackProposed(uint256 indexed _id, address _proposer, uint256 _price);\n    event CallbackRefused(uint256 indexed _id, address _proposer, uint256 _price);\n    event CallbackAccepted(uint256 indexed _id, address _proposer, uint256 _price);\n\n    // list of callback propositions\n    // _callbackPropositions[tokenID][proposer] = [priceForEachToken, ETHAmountEscrowed]\n    mapping (uint256 => mapping(address => uint256[2])) _callbackPropositions;\n    // Minimum holding to propose a callback for each token\n    mapping (uint256 => uint256) _minHoldingForCallback;\n\n    /**\n     * @dev Propose to buy the whole supply of a token.\n     * The proposer must hold minHoldingForCallback% of the total supply.\n     * StashBlox must approve the price with acceptCallback();\n     * @param id Token ID\n     * @param price proposed price\n     */\n    function proposeCallback(uint256 id, uint256 price) external payable {\n      require(_supplies[id] > 0, \"StashBlox: Unknown token.\");\n      require(price > 0, \"StashBlox: Price must be greater than 0.\");\n\n      uint256 minHolding = (_supplies[id].mul(_minHoldingForCallback[id])).div(10000);\n      require(_balances[id][msg.sender] >= minHolding, \"StashBlox: insufficient balance to propose a callback.\");\n\n      uint256 callbackAmount = _supplies[id].sub(_balances[id][msg.sender]);\n      uint256 callbackPrice = callbackAmount.mul(price);\n      require(msg.value >= callbackPrice, \"StashBlox: insufficient value for the proposed price.\");\n\n      _callbackPropositions[id][msg.sender] = [price, msg.value];\n      emit CallbackProposed(id, msg.sender, price);\n    }\n\n    /**\n     * @dev Refuse a callback if the price is not enough.\n     * @param id Token ID\n     * @param proposer address of the proposer\n     */\n    function refuseCallback(uint256 id, address proposer) external onlyOwner {\n      uint256 price = _callbackPropositions[id][proposer][0];\n      uint256 escrowedAmount = _callbackPropositions[id][proposer][1];\n\n      require(price > 0, \"StashBlox: callback proposition not found.\");\n\n      // return escrowed amount. Proposer must use withdraw() function to get\n      // escrowed amount.\n      _ETHBalances[proposer] += escrowedAmount;\n\n      _callbackPropositions[id][proposer] = [0, 0];\n      emit CallbackRefused(id, proposer, price);\n    }\n\n    /**\n     * @dev Accept a callback\n     * @param id Token ID\n     * @param proposer address of the proposer\n     */\n    function acceptCallback(uint256 id, address proposer) external onlyOwner {\n      uint256 price = _callbackPropositions[id][proposer][0];\n      uint256 escrowedAmount = _callbackPropositions[id][proposer][1];\n\n      require(price > 0, \"StashBlox: callback proposition not found.\");\n\n      uint256 minHolding = (_supplies[id].mul(_minHoldingForCallback[id])).div(10000);\n      require(_balances[id][msg.sender] >= minHolding, \"StashBlox: insufficient balance to execute the callback.\");\n\n      uint256 callbackAmount = _supplies[id].sub(_balances[id][msg.sender]);\n      uint256 callbackPrice = callbackAmount.mul(price);\n      require(escrowedAmount >= callbackPrice, \"StashBlox: insufficient escrowed value to execute the callback.\");\n\n      // move tokens to the proposer address and escrowed ETH to the holders addresses\n      // Holders must use withdraw() function to get paiement amount.\n      for (uint256 i = 0; i < _addressesByToken[id].length; ++i) {\n        address holderAddress = _addressesByToken[id][i];\n        uint256 holderBalance = _balances[id][holderAddress];\n        if (holderBalance > 0) {\n          uint256 holderPrice = price.mul(holderBalance);\n          _ETHBalances[holderAddress] += holderPrice;\n          _balances[id][holderAddress] = 0;\n        }\n      }\n      _balances[id][proposer] = _supplies[id];\n      if (escrowedAmount > callbackPrice) {\n        _ETHBalances[proposer] += escrowedAmount - callbackPrice;\n      }\n\n      _callbackPropositions[id][proposer] = [0, 0];\n      emit CallbackAccepted(id, proposer, price);\n    }\n}\n",
  "sourcePath": "/home/ouziel/Work/StashBloxContracts/contracts/StashBloxCallback.sol",
  "compiler": {
    "name": "solc",
    "version": "0.7.1+commit.f4a555be.Emscripten.clang"
  },
  "schemaVersion": "3.2.3",
  "updatedAt": "2020-10-01T11:36:00.991Z",
  "devdoc": {
    "kind": "dev",
    "methods": {
      "acceptCallback(uint256,address)": {
        "details": "Accept a callback",
        "params": {
          "id": "Token ID",
          "proposer": "address of the proposer"
        }
      },
      "owner()": {
        "details": "Returns the address of the current owner."
      },
      "proposeCallback(uint256,uint256)": {
        "details": "Propose to buy the whole supply of a token. The proposer must hold minHoldingForCallback% of the total supply. StashBlox must approve the price with acceptCallback();",
        "params": {
          "id": "Token ID",
          "price": "proposed price"
        }
      },
      "refuseCallback(uint256,address)": {
        "details": "Refuse a callback if the price is not enough.",
        "params": {
          "id": "Token ID",
          "proposer": "address of the proposer"
        }
      },
      "transferOwnership(address)": {
        "details": "Transfers ownership of the contract to a new account (`newOwner`). Can only be called by the current owner."
      }
    },
    "version": 1
  },
  "userdoc": {
    "kind": "user",
    "methods": {},
    "version": 1
  }
}