{
  "contractName": "StashBlox",
  "abi": [
    {
      "inputs": [],
      "stateMutability": "nonpayable",
      "type": "constructor"
    },
    {
      "anonymous": false,
      "inputs": [
        {
          "indexed": true,
          "internalType": "address",
          "name": "_owner",
          "type": "address"
        },
        {
          "indexed": true,
          "internalType": "address",
          "name": "_operator",
          "type": "address"
        },
        {
          "indexed": false,
          "internalType": "bool",
          "name": "_approved",
          "type": "bool"
        }
      ],
      "name": "ApprovalForAll",
      "type": "event"
    },
    {
      "anonymous": false,
      "inputs": [
        {
          "indexed": true,
          "internalType": "uint256",
          "name": "_callbackId",
          "type": "uint256"
        }
      ],
      "name": "CallbackUpdated",
      "type": "event"
    },
    {
      "anonymous": false,
      "inputs": [
        {
          "indexed": true,
          "internalType": "address",
          "name": "previousOwner",
          "type": "address"
        },
        {
          "indexed": true,
          "internalType": "address",
          "name": "newOwner",
          "type": "address"
        }
      ],
      "name": "OwnershipTransferred",
      "type": "event"
    },
    {
      "anonymous": false,
      "inputs": [
        {
          "indexed": true,
          "internalType": "uint256",
          "name": "_id",
          "type": "uint256"
        },
        {
          "indexed": false,
          "internalType": "uint256",
          "name": "_documentHash",
          "type": "uint256"
        }
      ],
      "name": "TokenUpdated",
      "type": "event"
    },
    {
      "anonymous": false,
      "inputs": [
        {
          "indexed": true,
          "internalType": "address",
          "name": "_operator",
          "type": "address"
        },
        {
          "indexed": true,
          "internalType": "address",
          "name": "_from",
          "type": "address"
        },
        {
          "indexed": true,
          "internalType": "address",
          "name": "_to",
          "type": "address"
        },
        {
          "indexed": false,
          "internalType": "uint256[]",
          "name": "_ids",
          "type": "uint256[]"
        },
        {
          "indexed": false,
          "internalType": "uint256[]",
          "name": "_values",
          "type": "uint256[]"
        }
      ],
      "name": "TransferBatch",
      "type": "event"
    },
    {
      "anonymous": false,
      "inputs": [
        {
          "indexed": true,
          "internalType": "address",
          "name": "_operator",
          "type": "address"
        },
        {
          "indexed": true,
          "internalType": "address",
          "name": "_from",
          "type": "address"
        },
        {
          "indexed": true,
          "internalType": "address",
          "name": "_to",
          "type": "address"
        },
        {
          "indexed": false,
          "internalType": "uint256",
          "name": "_id",
          "type": "uint256"
        },
        {
          "indexed": false,
          "internalType": "uint256",
          "name": "_value",
          "type": "uint256"
        }
      ],
      "name": "TransferSingle",
      "type": "event"
    },
    {
      "anonymous": false,
      "inputs": [
        {
          "indexed": false,
          "internalType": "string",
          "name": "_value",
          "type": "string"
        },
        {
          "indexed": true,
          "internalType": "uint256",
          "name": "_id",
          "type": "uint256"
        }
      ],
      "name": "URI",
      "type": "event"
    },
    {
      "inputs": [
        {
          "internalType": "uint256",
          "name": "",
          "type": "uint256"
        }
      ],
      "name": "_callbacks",
      "outputs": [
        {
          "internalType": "uint256",
          "name": "tokenId",
          "type": "uint256"
        },
        {
          "internalType": "uint256",
          "name": "price",
          "type": "uint256"
        },
        {
          "internalType": "uint256",
          "name": "escrowedAmount",
          "type": "uint256"
        },
        {
          "internalType": "uint256",
          "name": "callCounter",
          "type": "uint256"
        },
        {
          "internalType": "uint256",
          "name": "documentHash",
          "type": "uint256"
        },
        {
          "internalType": "address",
          "name": "caller",
          "type": "address"
        },
        {
          "internalType": "bool",
          "name": "needLegalApproval",
          "type": "bool"
        },
        {
          "internalType": "bool",
          "name": "approvedByLegal",
          "type": "bool"
        },
        {
          "internalType": "bool",
          "name": "refused",
          "type": "bool"
        },
        {
          "internalType": "bool",
          "name": "accepted",
          "type": "bool"
        },
        {
          "internalType": "bool",
          "name": "completed",
          "type": "bool"
        }
      ],
      "stateMutability": "view",
      "type": "function"
    },
    {
      "inputs": [],
      "name": "_config",
      "outputs": [
        {
          "internalType": "uint256",
          "name": "callbackAutoExecuteMaxAddresses",
          "type": "uint256"
        },
        {
          "internalType": "string",
          "name": "baseURI",
          "type": "string"
        },
        {
          "internalType": "address",
          "name": "owner",
          "type": "address"
        }
      ],
      "stateMutability": "view",
      "type": "function"
    },
    {
      "inputs": [
        {
          "internalType": "uint256",
          "name": "",
          "type": "uint256"
        }
      ],
      "name": "_tokens",
      "outputs": [
        {
          "internalType": "uint256",
          "name": "supply",
          "type": "uint256"
        },
        {
          "internalType": "uint256",
          "name": "decimals",
          "type": "uint256"
        },
        {
          "internalType": "uint256",
          "name": "lumpSumTransactionFees",
          "type": "uint256"
        },
        {
          "internalType": "uint256",
          "name": "valueTransactionFees",
          "type": "uint256"
        },
        {
          "internalType": "uint256",
          "name": "minHoldingForCallback",
          "type": "uint256"
        },
        {
          "internalType": "uint256",
          "name": "metadataHash",
          "type": "uint256"
        },
        {
          "internalType": "address",
          "name": "legalAuthority",
          "type": "address"
        },
        {
          "internalType": "bool",
          "name": "isPrivate",
          "type": "bool"
        },
        {
          "internalType": "bool",
          "name": "locked",
          "type": "bool"
        }
      ],
      "stateMutability": "view",
      "type": "function"
    },
    {
      "inputs": [
        {
          "internalType": "address",
          "name": "",
          "type": "address"
        }
      ],
      "name": "_users",
      "outputs": [
        {
          "internalType": "bool",
          "name": "isTokenizer",
          "type": "bool"
        },
        {
          "internalType": "bool",
          "name": "isLocked",
          "type": "bool"
        },
        {
          "internalType": "uint256",
          "name": "ETHBalance",
          "type": "uint256"
        }
      ],
      "stateMutability": "view",
      "type": "function"
    },
    {
      "inputs": [
        {
          "internalType": "uint256",
          "name": "callbackId",
          "type": "uint256"
        }
      ],
      "name": "acceptCallback",
      "outputs": [],
      "stateMutability": "nonpayable",
      "type": "function"
    },
    {
      "inputs": [
        {
          "internalType": "uint256",
          "name": "callbackId",
          "type": "uint256"
        }
      ],
      "name": "approveCallback",
      "outputs": [],
      "stateMutability": "nonpayable",
      "type": "function"
    },
    {
      "inputs": [
        {
          "internalType": "uint256",
          "name": "id",
          "type": "uint256"
        },
        {
          "internalType": "address",
          "name": "holder",
          "type": "address"
        }
      ],
      "name": "approveHolder",
      "outputs": [],
      "stateMutability": "nonpayable",
      "type": "function"
    },
    {
      "inputs": [
        {
          "internalType": "uint256",
          "name": "id",
          "type": "uint256"
        },
        {
          "internalType": "address",
          "name": "maintener",
          "type": "address"
        }
      ],
      "name": "authorizeMaintener",
      "outputs": [],
      "stateMutability": "nonpayable",
      "type": "function"
    },
    {
      "inputs": [
        {
          "internalType": "address",
          "name": "tokenizer",
          "type": "address"
        }
      ],
      "name": "authorizeTokenizer",
      "outputs": [],
      "stateMutability": "nonpayable",
      "type": "function"
    },
    {
      "inputs": [
        {
          "internalType": "address",
          "name": "account",
          "type": "address"
        },
        {
          "internalType": "uint256",
          "name": "id",
          "type": "uint256"
        }
      ],
      "name": "averageAge",
      "outputs": [
        {
          "internalType": "uint256",
          "name": "",
          "type": "uint256"
        }
      ],
      "stateMutability": "view",
      "type": "function"
    },
    {
      "inputs": [
        {
          "internalType": "address",
          "name": "account",
          "type": "address"
        },
        {
          "internalType": "uint256",
          "name": "id",
          "type": "uint256"
        }
      ],
      "name": "balanceOf",
      "outputs": [
        {
          "internalType": "uint256",
          "name": "",
          "type": "uint256"
        }
      ],
      "stateMutability": "view",
      "type": "function"
    },
    {
      "inputs": [
        {
          "internalType": "address[]",
          "name": "accounts",
          "type": "address[]"
        },
        {
          "internalType": "uint256[]",
          "name": "ids",
          "type": "uint256[]"
        }
      ],
      "name": "balanceOfBatch",
      "outputs": [
        {
          "internalType": "uint256[]",
          "name": "",
          "type": "uint256[]"
        }
      ],
      "stateMutability": "view",
      "type": "function"
    },
    {
      "inputs": [
        {
          "internalType": "uint256",
          "name": "id",
          "type": "uint256"
        },
        {
          "internalType": "uint256[]",
          "name": "ids",
          "type": "uint256[]"
        },
        {
          "internalType": "uint256[]",
          "name": "metadataHashes",
          "type": "uint256[]"
        }
      ],
      "name": "cloneToken",
      "outputs": [],
      "stateMutability": "nonpayable",
      "type": "function"
    },
    {
      "inputs": [
        {
          "internalType": "address",
          "name": "recipient",
          "type": "address"
        },
        {
          "internalType": "uint256",
          "name": "id",
          "type": "uint256"
        },
        {
          "internalType": "uint256",
          "name": "supply",
          "type": "uint256"
        },
        {
          "internalType": "uint256",
          "name": "decimals",
          "type": "uint256"
        },
        {
          "internalType": "uint256",
          "name": "metadataHash",
          "type": "uint256"
        },
        {
          "internalType": "uint256[3]",
          "name": "transactionFees",
          "type": "uint256[3]"
        },
        {
          "internalType": "address[]",
          "name": "feesRecipients",
          "type": "address[]"
        },
        {
          "internalType": "uint256[]",
          "name": "feesRecipientsPercentage",
          "type": "uint256[]"
        },
        {
          "internalType": "uint256",
          "name": "minHoldingForCallback",
          "type": "uint256"
        },
        {
          "internalType": "bool",
          "name": "isPrivate",
          "type": "bool"
        },
        {
          "internalType": "address",
          "name": "legalAuthority",
          "type": "address"
        }
      ],
      "name": "createToken",
      "outputs": [],
      "stateMutability": "nonpayable",
      "type": "function"
    },
    {
      "inputs": [
        {
          "internalType": "address",
          "name": "to",
          "type": "address"
        }
      ],
      "name": "deposit",
      "outputs": [],
      "stateMutability": "payable",
      "type": "function"
    },
    {
      "inputs": [
        {
          "internalType": "uint256",
          "name": "callbackId",
          "type": "uint256"
        },
        {
          "internalType": "uint256",
          "name": "maxCall",
          "type": "uint256"
        }
      ],
      "name": "executeCallback",
      "outputs": [],
      "stateMutability": "nonpayable",
      "type": "function"
    },
    {
      "inputs": [
        {
          "internalType": "address",
          "name": "account",
          "type": "address"
        },
        {
          "internalType": "address",
          "name": "operator",
          "type": "address"
        }
      ],
      "name": "isApprovedForAll",
      "outputs": [
        {
          "internalType": "bool",
          "name": "",
          "type": "bool"
        }
      ],
      "stateMutability": "view",
      "type": "function"
    },
    {
      "inputs": [
        {
          "internalType": "address",
          "name": "addr",
          "type": "address"
        }
      ],
      "name": "isLockedAddress",
      "outputs": [
        {
          "internalType": "bool",
          "name": "",
          "type": "bool"
        }
      ],
      "stateMutability": "view",
      "type": "function"
    },
    {
      "inputs": [
        {
          "internalType": "uint256",
          "name": "id",
          "type": "uint256"
        }
      ],
      "name": "isLockedToken",
      "outputs": [
        {
          "internalType": "bool",
          "name": "",
          "type": "bool"
        }
      ],
      "stateMutability": "view",
      "type": "function"
    },
    {
      "inputs": [
        {
          "internalType": "uint256",
          "name": "id",
          "type": "uint256"
        },
        {
          "internalType": "address",
          "name": "maintener",
          "type": "address"
        }
      ],
      "name": "isMaintener",
      "outputs": [
        {
          "internalType": "bool",
          "name": "",
          "type": "bool"
        }
      ],
      "stateMutability": "view",
      "type": "function"
    },
    {
      "inputs": [
        {
          "internalType": "address",
          "name": "tokenizer",
          "type": "address"
        }
      ],
      "name": "isTokenizer",
      "outputs": [
        {
          "internalType": "bool",
          "name": "",
          "type": "bool"
        }
      ],
      "stateMutability": "view",
      "type": "function"
    },
    {
      "inputs": [
        {
          "internalType": "address",
          "name": "forwarder",
          "type": "address"
        }
      ],
      "name": "isTrustedForwarder",
      "outputs": [
        {
          "internalType": "bool",
          "name": "",
          "type": "bool"
        }
      ],
      "stateMutability": "view",
      "type": "function"
    },
    {
      "inputs": [
        {
          "internalType": "address",
          "name": "addr",
          "type": "address"
        }
      ],
      "name": "lockAddress",
      "outputs": [],
      "stateMutability": "nonpayable",
      "type": "function"
    },
    {
      "inputs": [
        {
          "internalType": "uint256",
          "name": "id",
          "type": "uint256"
        },
        {
          "internalType": "uint256",
          "name": "documentHash",
          "type": "uint256"
        }
      ],
      "name": "lockToken",
      "outputs": [],
      "stateMutability": "nonpayable",
      "type": "function"
    },
    {
      "inputs": [],
      "name": "owner",
      "outputs": [
        {
          "internalType": "address",
          "name": "",
          "type": "address"
        }
      ],
      "stateMutability": "view",
      "type": "function"
    },
    {
      "inputs": [
        {
          "internalType": "uint256",
          "name": "callbackId",
          "type": "uint256"
        },
        {
          "internalType": "uint256",
          "name": "tokenId",
          "type": "uint256"
        },
        {
          "internalType": "uint256",
          "name": "price",
          "type": "uint256"
        },
        {
          "internalType": "address[]",
          "name": "callees",
          "type": "address[]"
        },
        {
          "internalType": "uint256",
          "name": "documentHash",
          "type": "uint256"
        }
      ],
      "name": "proposeCallback",
      "outputs": [],
      "stateMutability": "payable",
      "type": "function"
    },
    {
      "inputs": [
        {
          "internalType": "uint256",
          "name": "callbackId",
          "type": "uint256"
        }
      ],
      "name": "refuseCallback",
      "outputs": [],
      "stateMutability": "nonpayable",
      "type": "function"
    },
    {
      "inputs": [
        {
          "internalType": "uint256",
          "name": "id",
          "type": "uint256"
        },
        {
          "internalType": "address",
          "name": "holder",
          "type": "address"
        }
      ],
      "name": "revokeHolder",
      "outputs": [],
      "stateMutability": "nonpayable",
      "type": "function"
    },
    {
      "inputs": [
        {
          "internalType": "uint256",
          "name": "id",
          "type": "uint256"
        },
        {
          "internalType": "address",
          "name": "maintener",
          "type": "address"
        }
      ],
      "name": "revokeMaintener",
      "outputs": [],
      "stateMutability": "nonpayable",
      "type": "function"
    },
    {
      "inputs": [
        {
          "internalType": "address",
          "name": "tokenizer",
          "type": "address"
        }
      ],
      "name": "revokeTokenizer",
      "outputs": [],
      "stateMutability": "nonpayable",
      "type": "function"
    },
    {
      "inputs": [
        {
          "internalType": "address",
          "name": "from",
          "type": "address"
        },
        {
          "internalType": "address",
          "name": "to",
          "type": "address"
        },
        {
          "internalType": "uint256[]",
          "name": "ids",
          "type": "uint256[]"
        },
        {
          "internalType": "uint256[]",
          "name": "values",
          "type": "uint256[]"
        },
        {
          "internalType": "bytes",
          "name": "data",
          "type": "bytes"
        }
      ],
      "name": "safeBatchTransferFrom",
      "outputs": [],
      "stateMutability": "payable",
      "type": "function"
    },
    {
      "inputs": [
        {
          "internalType": "address",
          "name": "from",
          "type": "address"
        },
        {
          "internalType": "address",
          "name": "to",
          "type": "address"
        },
        {
          "internalType": "uint256",
          "name": "id",
          "type": "uint256"
        },
        {
          "internalType": "uint256",
          "name": "value",
          "type": "uint256"
        },
        {
          "internalType": "bytes",
          "name": "data",
          "type": "bytes"
        }
      ],
      "name": "safeTransferFrom",
      "outputs": [],
      "stateMutability": "payable",
      "type": "function"
    },
    {
      "inputs": [
        {
          "internalType": "address",
          "name": "operator",
          "type": "address"
        },
        {
          "internalType": "bool",
          "name": "approved",
          "type": "bool"
        }
      ],
      "name": "setApprovalForAll",
      "outputs": [],
      "stateMutability": "nonpayable",
      "type": "function"
    },
    {
      "inputs": [
        {
          "internalType": "uint256",
          "name": "newMax",
          "type": "uint256"
        }
      ],
      "name": "setCallbackAutoExecuteMaxAddresses",
      "outputs": [],
      "stateMutability": "nonpayable",
      "type": "function"
    },
    {
      "inputs": [
        {
          "internalType": "address[10]",
          "name": "proxyAddresses",
          "type": "address[10]"
        }
      ],
      "name": "setProxyRegistryAddress",
      "outputs": [],
      "stateMutability": "nonpayable",
      "type": "function"
    },
    {
      "inputs": [
        {
          "internalType": "bytes4",
          "name": "_interfaceID",
          "type": "bytes4"
        }
      ],
      "name": "supportsInterface",
      "outputs": [
        {
          "internalType": "bool",
          "name": "",
          "type": "bool"
        }
      ],
      "stateMutability": "pure",
      "type": "function"
    },
    {
      "inputs": [
        {
          "internalType": "address",
          "name": "account",
          "type": "address"
        },
        {
          "internalType": "uint256",
          "name": "id",
          "type": "uint256"
        },
        {
          "internalType": "uint256",
          "name": "value",
          "type": "uint256"
        }
      ],
      "name": "transactionFees",
      "outputs": [
        {
          "internalType": "uint256",
          "name": "",
          "type": "uint256"
        }
      ],
      "stateMutability": "view",
      "type": "function"
    },
    {
      "inputs": [
        {
          "internalType": "address",
          "name": "newOwner",
          "type": "address"
        }
      ],
      "name": "transferOwnership",
      "outputs": [],
      "stateMutability": "nonpayable",
      "type": "function"
    },
    {
      "inputs": [],
      "name": "trustedForwarder",
      "outputs": [
        {
          "internalType": "address",
          "name": "",
          "type": "address"
        }
      ],
      "stateMutability": "view",
      "type": "function"
    },
    {
      "inputs": [
        {
          "internalType": "address",
          "name": "addr",
          "type": "address"
        }
      ],
      "name": "unlockAddress",
      "outputs": [],
      "stateMutability": "nonpayable",
      "type": "function"
    },
    {
      "inputs": [
        {
          "internalType": "uint256",
          "name": "id",
          "type": "uint256"
        },
        {
          "internalType": "uint256",
          "name": "documentHash",
          "type": "uint256"
        }
      ],
      "name": "unlockToken",
      "outputs": [],
      "stateMutability": "nonpayable",
      "type": "function"
    },
    {
      "inputs": [
        {
          "internalType": "uint256",
          "name": "id",
          "type": "uint256"
        },
        {
          "internalType": "uint256",
          "name": "metadataHash",
          "type": "uint256"
        },
        {
          "internalType": "uint256[3]",
          "name": "transactionFees",
          "type": "uint256[3]"
        },
        {
          "internalType": "address[]",
          "name": "feesRecipients",
          "type": "address[]"
        },
        {
          "internalType": "uint256[]",
          "name": "feesRecipientsPercentage",
          "type": "uint256[]"
        },
        {
          "internalType": "uint256",
          "name": "minHoldingForCallback",
          "type": "uint256"
        },
        {
          "internalType": "bool",
          "name": "isPrivate",
          "type": "bool"
        },
        {
          "internalType": "address",
          "name": "legalAuthority",
          "type": "address"
        }
      ],
      "name": "updateToken",
      "outputs": [],
      "stateMutability": "nonpayable",
      "type": "function"
    },
    {
      "inputs": [
        {
          "internalType": "uint256",
          "name": "id",
          "type": "uint256"
        }
      ],
      "name": "uri",
      "outputs": [
        {
          "internalType": "string",
          "name": "",
          "type": "string"
        }
      ],
      "stateMutability": "view",
      "type": "function"
    },
    {
      "inputs": [],
      "name": "versionRecipient",
      "outputs": [
        {
          "internalType": "string",
          "name": "",
          "type": "string"
        }
      ],
      "stateMutability": "view",
      "type": "function"
    },
    {
      "inputs": [
        {
          "internalType": "address",
          "name": "to",
          "type": "address"
        },
        {
          "internalType": "uint256",
          "name": "amount",
          "type": "uint256"
        }
      ],
      "name": "withdraw",
      "outputs": [],
      "stateMutability": "nonpayable",
      "type": "function"
    },
    {
      "stateMutability": "payable",
      "type": "receive"
    }
  ],
  "bytecode": "0x60c0604052601760808190527f312e302e302b6f70656e67736e2e7374617368626c6f7800000000000000000060a0908152620000409160019190620001c7565b503480156200004e57600080fd5b50620000636200005d620000c0565b620000f6565b603260025560408051808201909152601c8082527f687474703a2f2f7374617368626c6f782e636f6d2f746f6b656e732f000000006020909201918252620000ae91600391620001c7565b50620000ba33620000f6565b62000263565b600060183610801590620000da5750620000da33620001b3565b15620000f0575060131936013560601c620000f3565b50335b90565b6001600160a01b03811662000157576040517f08c379a0000000000000000000000000000000000000000000000000000000008152600401808060200182810382526026815260200180620057376026913960400191505060405180910390fd5b600e546040516001600160a01b038084169216907f8be0079c531659141344cd1fd0a4f28419497f9722a3daafe3b4186f6b6457e090600090a3600e80546001600160a01b0319166001600160a01b0392909216919091179055565b6000546001600160a01b0390811691161490565b828054600181600116156101000203166002900490600052602060002090601f016020900481019282601f106200020a57805160ff19168380011785556200023a565b828001600101855582156200023a579182015b828111156200023a5782518255916020019190600101906200021d565b50620002489291506200024c565b5090565b5b808211156200024857600081556001016200024d565b6154c480620002736000396000f3fe6080604052600436106102755760003560e01c80638aeba37e1161014f578063cba54e60116100c1578063f242432a1161007a578063f242432a146111f2578063f2fde38b14611285578063f340fa01146112b8578063f3fef3a3146112de578063f8a5a07c14611317578063fc3fcec71461144e576102d8565b8063cba54e6014610fd8578063d1660e181461100b578063d41d0aa31461104a578063d842b67314611083578063e985e9c514611139578063ed70554d14611174576102d8565b8063b7eb5e0a11610113578063b7eb5e0a14610d51578063baa3411014610d84578063bba75c8314610db4578063c02f303c14610dde578063c255620a14610e11578063c40b87ae14610e3b576102d8565b80638aeba37e14610c6e5780638da5cb5b14610ca75780638f96f13114610cbc578063a22cb46514610ce6578063aba7fe8a14610d21576102d8565b8063486ff0cd116101e85780635dafec1b116101ac5780635dafec1b14610b2c5780635dd2b9a614610b65578063759c521414610b9e5780637627b73214610bd75780637da0a87714610c0a5780638870147b14610c3b576102d8565b8063486ff0cd146107a95780634ab0d253146107be5780634e1273f414610940578063572b6c0514610ac0578063585941d514610af3576102d8565b806331d5f78c1161023a57806331d5f78c146105dc57806334a90d0214610606578063369c37e9146106395780633cacd7d614610663578063414ed0ce146106b65780634392e57714610748576102d8565b8062fdd58e146102dd57806301ffc9a7146103285780630e89341c146103705780632eb2c2d61461040f5780632ed42bf714610538576102d8565b366102d8576102ad34600f600061028a61147e565b6001600160a01b03168152602081019190915260400160002060010154906114af565b600f60006102b961147e565b6001600160a01b03168152602081019190915260400160002060010155005b600080fd5b3480156102e957600080fd5b506103166004803603604081101561030057600080fd5b506001600160a01b038135169060200135611512565b60408051918252519081900360200190f35b34801561033457600080fd5b5061035c6004803603602081101561034b57600080fd5b50356001600160e01b031916611585565b604080519115158252519081900360200190f35b34801561037c57600080fd5b5061039a6004803603602081101561039357600080fd5b50356115cc565b6040805160208082528351818301528351919283929083019185019080838360005b838110156103d45781810151838201526020016103bc565b50505050905090810190601f1680156104015780820380516001836020036101000a031916815260200191505b509250505060405180910390f35b610536600480360360a081101561042557600080fd5b6001600160a01b038235811692602081013590911691810190606081016040820135600160201b81111561045857600080fd5b82018360208201111561046a57600080fd5b803590602001918460208302840111600160201b8311171561048b57600080fd5b919390929091602081019035600160201b8111156104a857600080fd5b8201836020820111156104ba57600080fd5b803590602001918460208302840111600160201b831117156104db57600080fd5b919390929091602081019035600160201b8111156104f857600080fd5b82018360208201111561050a57600080fd5b803590602001918460018302840111600160201b8311171561052b57600080fd5b50909250905061166e565b005b34801561054457600080fd5b5061054d611941565b6040518084815260200180602001836001600160a01b03168152602001828103825284818151815260200191508051906020019080838360005b8381101561059f578181015183820152602001610587565b50505050905090810190601f1680156105cc5780820380516001836020036101000a031916815260200191505b5094505050505060405180910390f35b3480156105e857600080fd5b50610536600480360360208110156105ff57600080fd5b50356119e4565b34801561061257600080fd5b506105366004803603602081101561062957600080fd5b50356001600160a01b0316611bc9565b34801561064557600080fd5b506105366004803603602081101561065c57600080fd5b5035611c36565b34801561066f57600080fd5b506106966004803603602081101561068657600080fd5b50356001600160a01b0316611c82565b604080519315158452911515602084015282820152519081900360600190f35b3480156106c257600080fd5b506106e0600480360360208110156106d957600080fd5b5035611ca8565b604080519b8c5260208c019a909a528a8a019890985260608a019690965260808901949094526001600160a01b0390921660a0880152151560c0870152151560e086015215156101008501521515610120840152151561014083015251908190036101600190f35b34801561075457600080fd5b50610536600480360361014081101561076c57600080fd5b81019080806101400190600a806020026040519081016040528092919082600a60200280828437600092019190915250919450611d1b9350505050565b3480156107b557600080fd5b5061039a611d73565b3480156107ca57600080fd5b5061053660048036036101408110156107e257600080fd5b6040805160608181018352843594602081013594810193909260a08401929091840190600390839083908082843760009201919091525091949392602081019250359050600160201b81111561083757600080fd5b82018360208201111561084957600080fd5b803590602001918460208302840111600160201b8311171561086a57600080fd5b9190808060200260200160405190810160405280939291908181526020018383602002808284376000920191909152509295949360208101935035915050600160201b8111156108b957600080fd5b8201836020820111156108cb57600080fd5b803590602001918460208302840111600160201b831117156108ec57600080fd5b919080806020026020016040519081016040528093929190818152602001838360200280828437600092019190915250929550508235935050506020810135151590604001356001600160a01b0316611e00565b34801561094c57600080fd5b50610a706004803603604081101561096357600080fd5b810190602081018135600160201b81111561097d57600080fd5b82018360208201111561098f57600080fd5b803590602001918460208302840111600160201b831117156109b057600080fd5b9190808060200260200160405190810160405280939291908181526020018383602002808284376000920191909152509295949360208101935035915050600160201b8111156109ff57600080fd5b820183602082011115610a1157600080fd5b803590602001918460208302840111600160201b83111715610a3257600080fd5b919080806020026020016040519081016040528093929190818152602001838360200280828437600092019190915250929550611ef2945050505050565b60408051602080825283518183015283519192839290830191858101910280838360005b83811015610aac578181015183820152602001610a94565b505050509050019250505060405180910390f35b348015610acc57600080fd5b5061035c60048036036020811015610ae357600080fd5b50356001600160a01b0316612076565b348015610aff57600080fd5b5061031660048036036040811015610b1657600080fd5b506001600160a01b03813516906020013561208a565b348015610b3857600080fd5b5061035c60048036036040811015610b4f57600080fd5b50803590602001356001600160a01b03166120be565b348015610b7157600080fd5b5061053660048036036040811015610b8857600080fd5b50803590602001356001600160a01b03166120ca565b348015610baa57600080fd5b5061053660048036036040811015610bc157600080fd5b50803590602001356001600160a01b0316612152565b348015610be357600080fd5b5061053660048036036020811015610bfa57600080fd5b50356001600160a01b03166121d5565b348015610c1657600080fd5b50610c1f612240565b604080516001600160a01b039092168252519081900360200190f35b348015610c4757600080fd5b5061053660048036036020811015610c5e57600080fd5b50356001600160a01b031661224f565b348015610c7a57600080fd5b5061053660048036036040811015610c9157600080fd5b50803590602001356001600160a01b03166122b7565b348015610cb357600080fd5b50610c1f612335565b348015610cc857600080fd5b5061053660048036036020811015610cdf57600080fd5b5035612344565b348015610cf257600080fd5b5061053660048036036040811015610d0957600080fd5b506001600160a01b0381351690602001351515612588565b348015610d2d57600080fd5b5061053660048036036040811015610d4457600080fd5b508035906020013561267b565b348015610d5d57600080fd5b5061053660048036036020811015610d7457600080fd5b50356001600160a01b03166126d6565b348015610d9057600080fd5b5061053660048036036040811015610da757600080fd5b508035906020013561273f565b348015610dc057600080fd5b5061035c60048036036020811015610dd757600080fd5b5035612795565b348015610dea57600080fd5b5061035c60048036036020811015610e0157600080fd5b50356001600160a01b03166127a0565b348015610e1d57600080fd5b5061053660048036036020811015610e3457600080fd5b50356127ab565b348015610e4757600080fd5b5061053660048036036101a0811015610e5f57600080fd5b60408051606081810183526001600160a01b03853516946020810135949381013593828201359360808301359391830192916101008301919060a0840190600390839083908082843760009201919091525091949392602081019250359050600160201b811115610ecf57600080fd5b820183602082011115610ee157600080fd5b803590602001918460208302840111600160201b83111715610f0257600080fd5b9190808060200260200160405190810160405280939291908181526020018383602002808284376000920191909152509295949360208101935035915050600160201b811115610f5157600080fd5b820183602082011115610f6357600080fd5b803590602001918460208302840111600160201b83111715610f8457600080fd5b919080806020026020016040519081016040528093929190818152602001838360200280828437600092019190915250929550508235935050506020810135151590604001356001600160a01b0316612a1f565b348015610fe457600080fd5b5061035c60048036036020811015610ffb57600080fd5b50356001600160a01b0316612ad8565b34801561101757600080fd5b506103166004803603606081101561102e57600080fd5b506001600160a01b038135169060208101359060400135612ae3565b34801561105657600080fd5b506105366004803603604081101561106d57600080fd5b50803590602001356001600160a01b0316612af8565b610536600480360360a081101561109957600080fd5b81359160208101359160408201359190810190608081016060820135600160201b8111156110c657600080fd5b8201836020820111156110d857600080fd5b803590602001918460208302840111600160201b831117156110f957600080fd5b9190808060200260200160405190810160405280939291908181526020018383602002808284376000920191909152509295505091359250612b73915050565b34801561114557600080fd5b5061035c6004803603604081101561115c57600080fd5b506001600160a01b0381358116916020013516612e1e565b34801561118057600080fd5b5061119e6004803603602081101561119757600080fd5b5035612e2a565b60408051998a5260208a0198909852888801969096526060880194909452608087019290925260a08601526001600160a01b031660c0850152151560e0840152151561010083015251908190036101200190f35b610536600480360360a081101561120857600080fd5b6001600160a01b03823581169260208101359091169160408201359160608101359181019060a081016080820135600160201b81111561124757600080fd5b82018360208201111561125957600080fd5b803590602001918460018302840111600160201b8311171561127a57600080fd5b509092509050612e86565b34801561129157600080fd5b50610536600480360360208110156112a857600080fd5b50356001600160a01b0316612feb565b610536600480360360208110156112ce57600080fd5b50356001600160a01b031661303e565b3480156112ea57600080fd5b506105366004803603604081101561130157600080fd5b506001600160a01b038135169060200135613083565b34801561132357600080fd5b506105366004803603606081101561133a57600080fd5b81359190810190604081016020820135600160201b81111561135b57600080fd5b82018360208201111561136d57600080fd5b803590602001918460208302840111600160201b8311171561138e57600080fd5b9190808060200260200160405190810160405280939291908181526020018383602002808284376000920191909152509295949360208101935035915050600160201b8111156113dd57600080fd5b8201836020820111156113ef57600080fd5b803590602001918460208302840111600160201b8311171561141057600080fd5b9190808060200260200160405190810160405280939291908181526020018383602002808284376000920191909152509295506131ab945050505050565b34801561145a57600080fd5b506105366004803603604081101561147157600080fd5b508035906020013561333b565b600060183610801590611495575061149533612076565b156114a9575060131936013560601c6114ac565b50335b90565b600082820183811015611509576040805162461bcd60e51b815260206004820152601b60248201527f536166654d6174683a206164646974696f6e206f766572666c6f770000000000604482015290519081900360640190fd5b90505b92915050565b60006001600160a01b0383166115595760405162461bcd60e51b815260040180806020018281038252602b815260200180615205602b913960400191505060405180910390fd5b5060009081526010602090815260408083206001600160a01b0394909416835260079093019052205490565b60006001600160e01b031982166301ffc9a760e01b14806115b657506001600160e01b03198216636cdb3d1360e11b145b156115c3575060016115c7565b5060005b919050565b6003805460408051602060026001851615610100026000190190941693909304601f810184900484028201840190925281815260609361150c939192909183018282801561165b5780601f106116305761010080835404028352916020019161165b565b820191906000526020600020905b81548152906001019060200180831161163e57829003601f168201915b5050505050611669846134ff565b6135bb565b8483146116ac5760405162461bcd60e51b815260040180806020018281038252602e815260200180615430602e913960400191505060405180910390fd5b6001600160a01b0387166116f15760405162461bcd60e51b81526004018080602001828103825260288152602001806152966028913960400191505060405180910390fd5b6116f961147e565b6001600160a01b0316886001600160a01b0316148061172a57506117248861171f61147e565b612e1e565b15156001145b6117655760405162461bcd60e51b81526004018080602001828103825260378152602001806153f96037913960400191505060405180910390fd5b6117d4888888888080602002602001604051908101604052809392919081815260200183836020028082843760009201919091525050604080516020808c0282810182019093528b82529093508b92508a9182918501908490808284376000920191909152506136c592505050565b866001600160a01b0316886001600160a01b03166117f061147e565b6001600160a01b03167f4a39dc06d4c0dbc64b70af90fd698a233a518aa5d07e595d983b8c0526c8f7fb898989896040518080602001806020018381038352878782818152602001925060200280828437600083820152601f01601f19169091018481038352858152602090810191508690860280828437600083820152604051601f909101601f19169092018290039850909650505050505050a461193761189761147e565b898989898080602002602001604051908101604052809392919081815260200183836020028082843760009201919091525050604080516020808d0282810182019093528c82529093508c92508b91829185019084908082843760009201919091525050604080516020601f8c018190048102820181019092528a815292508a915089908190840183828082843760009201919091525061377f92505050565b5050505050505050565b600280546003805460408051602060018416156101000260001901909316869004601f810184900484028201840190925281815293949392918301828280156119cb5780601f106119a0576101008083540402835291602001916119cb565b820191906000526020600020905b8154815290600101906020018083116119ae57829003601f168201915b505050600c90930154919250506001600160a01b031683565b6119ec61501c565b60008281526011602090815260409182902082516101808101845281548152600182015481840152600282015481850152600382015460608201526004820154608082015260058201546001600160a01b03811660a083015260ff600160a01b82048116151560c0840152600160a81b82048116151560e0840152600160b01b820481161515610100840152600160b81b820481161515610120840152600160c01b909104161515610140820152600682018054855181860281018601909652808652919492936101608601939290830182828015611af457602002820191906000526020600020905b81546001600160a01b03168152600190910190602001808311611ad6575b50505091909252505081519192505015801590611b1f57508051611b1f90611b1a61147e565b613970565b8015611b2e5750610100810151155b8015611b3d5750610120810151155b611b8e576040805162461bcd60e51b815260206004820152601f60248201527f496e76616c696420617267756d656e7473206f72207065726d697373696f6e00604482015290519081900360640190fd5b600082815260116020526040808220600501805460ff60a81b1916600160a81b17905551839160008051602061527683398151915291a25050565b611bd1613994565b611c10576040805162461bcd60e51b815260206004820181905260248201526000805160206153d9833981519152604482015290519081900360640190fd5b6001600160a01b03166000908152600f60205260409020805461ff001916610100179055565b611c3e613994565b611c7d576040805162461bcd60e51b815260206004820181905260248201526000805160206153d9833981519152604482015290519081900360640190fd5b600255565b600f602052600090815260409020805460019091015460ff808316926101009004169083565b60116020526000908152604090208054600182015460028301546003840154600485015460059095015493949293919290916001600160a01b0381169060ff600160a01b8204811691600160a81b8104821691600160b01b8204811691600160b81b8104821691600160c01b909104168b565b611d23613994565b611d62576040805162461bcd60e51b815260206004820181905260248201526000805160206153d9833981519152604482015290519081900360640190fd5b611d6f600482600a615090565b5050565b60018054604080516020600284861615610100026000190190941693909304601f81018490048402820184019092528181529291830182828015611df85780601f10611dcd57610100808354040283529160200191611df8565b820191906000526020600020905b815481529060010190602001808311611ddb57829003601f168201915b505050505081565b87611e1281611e0d61147e565b6139ba565b611e51576040805162461bcd60e51b81526020600482015260176024820152600080516020615230833981519152604482015290519081900360640190fd5b600089815260106020526040902054611ea1576040805162461bcd60e51b815260206004820152600d60248201526c2ab735b737bbb7103a37b5b2b760991b604482015290519081900360640190fd5b611eb189898989898989896139f4565b6040805189815290518a917f199acc06cd2556bbc146fa3cb578799037dffcbf256eca32aaf2ef656925d2fd919081900360200190a2505050505050505050565b60608151835114611f345760405162461bcd60e51b81526004018080602001828103825260308152602001806152ea6030913960400191505060405180910390fd5b6060835167ffffffffffffffff81118015611f4e57600080fd5b50604051908082528060200260200182016040528015611f78578160200160208202803683370190505b50905060005b845181101561206e5760006001600160a01b0316858281518110611f9e57fe5b60200260200101516001600160a01b03161415611fec5760405162461bcd60e51b81526004018080602001828103825260348152602001806153506034913960400191505060405180910390fd5b60106000858381518110611ffc57fe5b60200260200101518152602001908152602001600020600701600086838151811061202357fe5b60200260200101516001600160a01b03166001600160a01b031681526020019081526020016000206000015482828151811061205b57fe5b6020908102919091010152600101611f7e565b509392505050565b6000546001600160a01b0390811691161490565b60008181526010602090815260408083206001600160a01b0386168452600701909152812060010154611509904290613b98565b600061150983836139ba565b816120d781611e0d61147e565b612116576040805162461bcd60e51b81526020600482015260176024820152600080516020615230833981519152604482015290519081900360640190fd5b5060009182526010602090815260408084206001600160a01b039093168452600790920190529020600201805462ff0000191662010000179055565b8161215f81611e0d61147e565b61219e576040805162461bcd60e51b81526020600482015260176024820152600080516020615230833981519152604482015290519081900360640190fd5b5060009182526010602090815260408084206001600160a01b039093168452600790920190529020600201805462ff000019169055565b6121dd613994565b61221c576040805162461bcd60e51b815260206004820181905260248201526000805160206153d9833981519152604482015290519081900360640190fd5b6001600160a01b03166000908152600f60205260409020805460ff19166001179055565b6000546001600160a01b031681565b612257613994565b612296576040805162461bcd60e51b815260206004820181905260248201526000805160206153d9833981519152604482015290519081900360640190fd5b6001600160a01b03166000908152600f60205260409020805460ff19169055565b6122bf613994565b6122fe576040805162461bcd60e51b815260206004820181905260248201526000805160206153d9833981519152604482015290519081900360640190fd5b60009182526010602090815260408084206001600160a01b039093168452600790920190529020600201805460ff19166001179055565b600e546001600160a01b031690565b61234c61501c565b60008281526011602090815260409182902082516101808101845281548152600182015481840152600282015481850152600382015460608201526004820154608082015260058201546001600160a01b03811660a083015260ff600160a01b82048116151560c0840152600160a81b82048116151560e0840152600160b01b820481161515610100840152600160b81b820481161515610120840152600160c01b90910416151561014082015260068201805485518186028101860190965280865291949293610160860193929083018282801561245457602002820191906000526020600020905b81546001600160a01b03168152600190910190602001808311612436575b505050919092525050815191925050158015906124745750610100810151155b80156124835750610120810151155b80156124d35750805161249890611e0d61147e565b806124ac575080516124ac90611b1a61147e565b806124d357508060a001516001600160a01b03166124c861147e565b6001600160a01b0316145b612524576040805162461bcd60e51b815260206004820152601f60248201527f496e76616c696420617267756d656e7473206f72207065726d697373696f6e00604482015290519081900360640190fd5b6000828152601160209081526040808320600501805460ff60b01b1916600160b01b1790558381015160a08501516001600160a01b03168452600f909252808320600101805490920190915551839160008051602061527683398151915291a25050565b816001600160a01b031661259a61147e565b6001600160a01b031614156125e05760405162461bcd60e51b815260040180806020018281038252602c8152602001806152be602c913960400191505060405180910390fd5b80600f60006125ed61147e565b6001600160a01b0390811682526020808301939093526040918201600090812091871680825260039092019093529120805460ff19169215159290921790915561263561147e565b6001600160a01b03167f17307eab39ab6107e8899845ad3d59bd9653f200f220920489ca2b5937696c318360405180821515815260200191505060405180910390a35050565b8161268881611e0d61147e565b6126c7576040805162461bcd60e51b81526020600482015260176024820152600080516020615230833981519152604482015290519081900360640190fd5b6126d18383613bda565b505050565b6126de613994565b61271d576040805162461bcd60e51b815260206004820181905260248201526000805160206153d9833981519152604482015290519081900360640190fd5b6001600160a01b03166000908152600f60205260409020805461ff0019169055565b8161274c81611e0d61147e565b61278b576040805162461bcd60e51b81526020600482015260176024820152600080516020615230833981519152604482015290519081900360640190fd5b6126d18383613c30565b600061150c82613c8c565b600061150c82613cab565b6127b361501c565b60008281526011602090815260409182902082516101808101845281548152600182015481840152600282015481850152600382015460608201526004820154608082015260058201546001600160a01b03811660a083015260ff600160a01b82048116151560c0840152600160a81b82048116151560e0840152600160b01b820481161515610100840152600160b81b820481161515610120840152600160c01b9091041615156101408201526006820180548551818602810186019096528086529194929361016086019392908301828280156128bb57602002820191906000526020600020905b81546001600160a01b0316815260019091019060200180831161289d575b505050919092525050815191925050158015906128e1575080516128e190611e0d61147e565b80156128fa57508060c0015115806128fa57508060e001515b80156129095750610100810151155b80156129185750610120810151155b801561293f575061293781600001518260200151836101600151613cd5565b816040015110155b61297a5760405162461bcd60e51b81526004018080602001828103825260348152602001806153a56034913960400191505060405180910390fd5b600082815260116020526040808220600501805460ff60b81b1916600160b81b17905551839160008051602061527683398151915291a261016081015151156129d2576129cd8282610160015151613dac565b611d6f565b600254815160009081526010602052604090206008015411612a0d5780516000908152601060205260409020600801546129cd908390613dac565b611d6f81600001518260800151613c30565b612a2f612a2a61147e565b613cab565b612a6e576040805162461bcd60e51b81526020600482015260176024820152600080516020615230833981519152604482015290519081900360640190fd5b612a818b8b8b8b8b8b8b8b8b8b8b614065565b6001600160a01b038b166000612a9561147e565b6001600160a01b03166000805160206151e58339815191528d8d604051808381526020018281526020019250505060405180910390a45050505050505050505050565b600061150c826141a5565b6000612af08484846141c8565b949350505050565b612b00613994565b612b3f576040805162461bcd60e51b815260206004820181905260248201526000805160206153d9833981519152604482015290519081900360640190fd5b60009182526010602090815260408084206001600160a01b039093168452600790920190529020600201805460ff19169055565b600085815260116020526040902054158015612b9c575060008481526010602052604090205415155b8015612bb25750612bae848484613cd5565b3410155b8015612bc15750600254825111155b612c12576040805162461bcd60e51b815260206004820152601a60248201527f496e76616c696420617267756d656e7473206f722076616c7565000000000000604482015290519081900360640190fd5b600084815260106020526040812060048101549054612c3e9161271091612c38916143aa565b90614403565b905060405180610180016040528086815260200185815260200134815260200160008152602001838152602001612c7361147e565b6001600160a01b03168152602001851580612cc3575060008781526010602052604081208491600790910190612ca761147e565b6001600160a01b03168152602081019190915260400160002054105b80612ccf575060008551115b151581526000602080830182905260408084018390526060808501849052608080860185905260a09586018a90528c855260118452938290208651815586840151600182015591860151600283015585015160038201559184015160048301559183015160058201805460c086015160e08701516101008801516101208901516101408a01511515600160c01b0260ff60c01b19911515600160b81b0260ff60b81b19931515600160b01b0260ff60b01b19951515600160a81b0260ff60a81b19971515600160a01b0260ff60a01b196001600160a01b03909c166001600160a01b0319909a16999099179a909a16979097179590951697909717929092169390931792909216171691909117905561016083015180519192612dfa926006850192909101906150e8565b505060405187915060008051602061527683398151915290600090a2505050505050565b60006115098383614445565b601060205260009081526040902080546001820154600283015460038401546004850154600586015460069096015494959394929391929091906001600160a01b0381169060ff600160a01b8204811691600160a81b90041689565b6001600160a01b038516612ecb5760405162461bcd60e51b81526004018080602001828103825260288152602001806152966028913960400191505060405180910390fd5b612ed361147e565b6001600160a01b0316866001600160a01b03161480612eff5750612ef98661171f61147e565b15156001145b612f3a5760405162461bcd60e51b81526004018080602001828103825260378152602001806153f96037913960400191505060405180910390fd5b612f468686868661448a565b846001600160a01b0316866001600160a01b0316612f6261147e565b6001600160a01b03166000805160206151e58339815191528787604051808381526020018281526020019250505060405180910390a4612fe3612fa361147e565b8787878787878080601f01602080910402602001604051908101604052809392919081815260200183838082843760009201919091525061450292505050565b505050505050565b612ff3613994565b613032576040805162461bcd60e51b815260206004820181905260248201526000805160206153d9833981519152604482015290519081900360640190fd5b61303b81614677565b50565b6001600160a01b0381166000908152600f602052604090206001015461306490346114af565b6001600160a01b039091166000908152600f6020526040902060010155565b6001600160a01b0382166000908152600f60205260409020600101548111156130ea576040805162461bcd60e51b8152602060048201526014602482015273496e73756666696369656e742062616c616e636560601b604482015290519081900360640190fd5b6040516000906001600160a01b0384169083908381818185875af1925050503d8060008114613135576040519150601f19603f3d011682016040523d82523d6000602084013e61313a565b606091505b5050905080613184576040805162461bcd60e51b815260206004820152601160248201527015da5d1a191c985dd85b0819985a5b1959607a1b604482015290519081900360640190fd5b506001600160a01b039091166000908152600f602052604090206001018054919091039055565b6131b6612a2a61147e565b6131f5576040805162461bcd60e51b81526020600482015260176024820152600080516020615230833981519152604482015290519081900360640190fd5b60008381526010602052604090205415801590613213575080518251145b613258576040805162461bcd60e51b8152602060048201526011602482015270496e76616c696420617267756d656e747360781b604482015290519081900360640190fd5b60005b8251811015613335576132958484838151811061327457fe5b602002602001015184848151811061328857fe5b6020026020010151614718565b600084815260106020526040812060080180549091906132b157fe5b60009182526020822001546001600160a01b0316906132ce61147e565b6001600160a01b03166000805160206151e58339815191528685815181106132f257fe5b6020026020010151601060008a815260200190815260200160002060000154604051808381526020018281526020019250505060405180910390a460010161325b565b50505050565b61334361501c565b60008381526011602090815260409182902082516101808101845281548152600182015481840152600282015481850152600382015460608201526004820154608082015260058201546001600160a01b03811660a083015260ff600160a01b82048116151560c0840152600160a81b82048116151560e0840152600160b01b820481161515610100840152600160b81b820481161515610120840152600160c01b90910416151561014082015260068201805485518186028101860190965280865291949293610160860193929083018282801561344b57602002820191906000526020600020905b81546001600160a01b0316815260019091019060200180831161342d575b5050509190925250508151919250501580159061346f575061012081015115156001145b801561347e5750610140810151155b6134c2576040805162461bcd60e51b815260206004820152601060248201526f496e76616c69642063616c6c6261636b60801b604482015290519081900360640190fd5b6134cc8383613dac565b600083815260116020526040902060050154600160c01b900460ff16156126d1576126d181600001518260800151613bda565b60606000825b801561351b576001919091019060109004613505565b60608267ffffffffffffffff8111801561353457600080fd5b506040519080825280601f01601f19166020018201604052801561355f576020820181803683370190505b50905060005b838110156135b25760108606925061357c836148b5565b826001838703038151811061358d57fe5b60200101906001600160f81b031916908160001a905350601086049550600101613565565b50949350505050565b805182516060918491849184910167ffffffffffffffff811180156135df57600080fd5b506040519080825280601f01601f19166020018201604052801561360a576020820181803683370190505b509050806000805b85518110156136635785818151811061362757fe5b602001015160f81c60f81b83838060010194508151811061364457fe5b60200101906001600160f81b031916908160001a905350600101613612565b5060005b84518110156136b85784818151811061367c57fe5b602001015160f81c60f81b83838060010194508151811061369957fe5b60200101906001600160f81b031916908160001a905350600101613667565b5090979650505050505050565b60008034116136ef576001600160a01b0385166000908152600f60205260409020600101546136f1565b345b905060005b835181101561376d57613763613734878787858151811061371357fe5b602002602001015187868151811061372757fe5b60200260200101516148f9565b60408051808201909152601081526f092dce6eaccccd2c6d2cadce8408aa8960831b602082015284919061494e565b91506001016136f6565b5061377885826149e5565b5050505050565b613791846001600160a01b0316614a66565b15612fe35763bc197c8160e01b6001600160e01b031916846001600160a01b031663bc197c8188888787876040518663ffffffff1660e01b815260040180866001600160a01b03168152602001856001600160a01b03168152602001806020018060200180602001848103845287818151815260200191508051906020019060200280838360005b83811015613831578181015183820152602001613819565b50505050905001848103835286818151815260200191508051906020019060200280838360005b83811015613870578181015183820152602001613858565b50505050905001848103825285818151815260200191508051906020019080838360005b838110156138ac578181015183820152602001613894565b50505050905090810190601f1680156138d95780820380516001836020036101000a031916815260200191505b5098505050505050505050602060405180830381600087803b1580156138fe57600080fd5b505af1158015613912573d6000803e3d6000fd5b505050506040513d602081101561392857600080fd5b50516001600160e01b03191614612fe35760405162461bcd60e51b815260040180806020018281038252603681526020018061531a6036913960400191505060405180910390fd5b600091825260106020526040909120600601546001600160a01b0391821691161490565b600e546000906001600160a01b03166139ab61147e565b6001600160a01b031614905090565b60008281526010602090815260408083206001600160a01b038516845260070190915281206002015460ff16806115095750611509613994565b6000805b8551811015613a2457858181518110613a0d57fe5b6020026020010151820191508060010190506139f8565b5060008651118015613a34575060015b8015613a41575080612710145b8015613a4e575061271084105b613a93576040805162461bcd60e51b8152602060048201526011602482015270496e76616c696420617267756d656e747360781b604482015290519081900360640190fd5b6000898152601060209081526040808320600581018c90558a516002808301919091558b840151600383015582518084018452428152928c015183850152600b909101805460018101825590855292909320613af393928302019161513c565b5060008981526010602090815260409091208751613b19926009909201918901906150e8565b5060008981526010602090815260409091208651613b3f92600a90920191880190615176565b505060009788526010602052604090972060048101929092556006909101805460ff60a01b1916600160a01b92151592909202919091176001600160a01b0319166001600160a01b039096169590951790945550505050565b600061150983836040518060400160405280601e81526020017f536166654d6174683a207375627472616374696f6e206f766572666c6f77000081525061494e565b600082815260106020908152604091829020600601805460ff60a81b191690558151838152915184927f199acc06cd2556bbc146fa3cb578799037dffcbf256eca32aaf2ef656925d2fd92908290030190a25050565b600082815260106020908152604091829020600601805460ff60a81b1916600160a81b1790558151838152915184927f199acc06cd2556bbc146fa3cb578799037dffcbf256eca32aaf2ef656925d2fd92908290030190a25050565b600090815260106020526040902060060154600160a81b900460ff1690565b6001600160a01b0381166000908152600f602052604081205460ff168061150c575061150c613994565b80516000908190613d36576000858152601060205260408120613d2f91600790910190613d0061147e565b6001600160a01b0316815260208082019290925260409081016000908120548982526010909352205490613b98565b9050613d99565b60005b8351811015613d9757601060008781526020019081526020016000206007016000858381518110613d6657fe5b6020908102919091018101516001600160a01b03168252810191909152604001600020549190910190600101613d39565b505b613da381856143aa565b95945050505050565b60008281526011602052604090208054600690910154606090613ddf576000828152601060205260409020600801613df1565b60008481526011602052604090206006015b805480602002602001604051908101604052809291908181526020018280548015613e4557602002820191906000526020600020905b81546001600160a01b03168152600190910190602001808311613e27575b505083516000898152601160205260408120600301549596506000199091019493509150508582018311613e795782613e7d565b8582015b90506000825b828111613fe1576000868281518110613e9857fe5b60209081029190910181015160008a81526010835260408082206001600160a01b0384168352600701909352919091205490915015613fd85760008881526010602090815260408083206001600160a01b0385168085526007909101808452828520548f86526011855292852060010154919094529290915293840193613f1e916143aa565b6001600160a01b038083166000818152600f6020908152604080832060010180549096019095558e82526011905292909220600501541690613f5e61147e565b60008b81526010602090815260408083206001600160a01b03888116855260079091018352928190205481518f815292830152805193909216926000805160206151e5833981519152929181900390910190a460008881526010602090815260408083206001600160a01b03851684526007019091528120555b50600101613e83565b50600088815260116020526040902060050154614008906001600160a01b03168783614a9d565b60008881526011602052604090206003018290558382141561193757600088815260116020526040808220600501805460ff60c01b1916600160c01b17905551899160008051602061527683398151915291a25050505050505050565b60008a8152601060205260409020541580156140815750600089115b6140c6576040805162461bcd60e51b8152602060048201526011602482015270496e76616c696420617267756d656e747360781b604482015290519081900360640190fd5b60008a81526010602052604081208a815560018082018b9055916007909101906140ee61147e565b6001600160a01b03166001600160a01b0316815260200190815260200160002060020160006101000a81548160ff0219169083151502179055506001601060008c815260200190815260200160002060070160008d6001600160a01b03166001600160a01b0316815260200190815260200160002060020160026101000a81548160ff02191690831515021790555061418d8a888888888888886139f4565b6141988b8b8b614a9d565b5050505050505050505050565b6001600160a01b03166000908152600f6020526040902054610100900460ff1690565b6000828152601060205260408120600b015481904290600019015b6000868152601060205260408120600b0180548390811061420057fe5b60009182526020822060029091020101546000888152601060205260408120600b01805492935090918490811061423357fe5b906000526020600020906002020160016002811061424d57fe5b015460008981526010602090815260408083206001600160a01b038e1684526007019091528120600101549192509083116142ea5760008981526010602090815260408083206001600160a01b038e1684526007019091529020600101546142bf906201518090612c38908890613b98565b9050806142ca575060015b6142de886142d883856143aa565b906143aa565b86019550505050614329565b6142fb62015180612c388786613b98565b905080614306575060015b9193508391614319886142d883856143aa565b90950194505050600019016141e3565b5060008581526010602052604090206001015461434a908390600a0a614403565b60008681526010602052604081206003015491935090614375906305f5e10090612c389088906143aa565b60008781526010602052604090206002015490915061439f9061439890836114af565b84906114af565b979650505050505050565b6000826143b95750600061150c565b828202828482816143c657fe5b04146115095760405162461bcd60e51b81526004018080602001828103825260218152602001806153846021913960400191505060405180910390fd5b600061150983836040518060400160405280601a81526020017f536166654d6174683a206469766973696f6e206279207a65726f000000000000815250614b46565b60006144518383614bab565b806115095750506001600160a01b039182166000908152600f602090815260408083209390941682526003909201909152205460ff1690565b60008034116144b4576001600160a01b0385166000908152600f60205260409020600101546144b6565b345b90506144f66144c7868686866148f9565b60408051808201909152601081526f092dce6eaccccd2c6d2cadce8408aa8960831b602082015283919061494e565b905061377885826149e5565b614514846001600160a01b0316614a66565b15612fe35763f23a6e6160e01b6001600160e01b031916846001600160a01b031663f23a6e6188888787876040518663ffffffff1660e01b815260040180866001600160a01b03168152602001856001600160a01b0316815260200184815260200183815260200180602001828103825283818151815260200191508051906020019080838360005b838110156145b557818101518382015260200161459d565b50505050905090810190601f1680156145e25780820380516001836020036101000a031916815260200191505b509650505050505050602060405180830381600087803b15801561460557600080fd5b505af1158015614619573d6000803e3d6000fd5b505050506040513d602081101561462f57600080fd5b50516001600160e01b03191614612fe35760405162461bcd60e51b815260040180806020018281038252603181526020018061545e6031913960400191505060405180910390fd5b6001600160a01b0381166146bc5760405162461bcd60e51b81526004018080602001828103825260268152602001806152506026913960400191505060405180910390fd5b600e546040516001600160a01b038084169216907f8be0079c531659141344cd1fd0a4f28419497f9722a3daafe3b4186f6b6457e090600090a3600e80546001600160a01b0319166001600160a01b0392909216919091179055565b600083815260106020526040812060080180546126d1929061473657fe5b600091825260208083209091015486835260108083526040808520805460018201548351606081018552600284015481526003840154818901528c895294909652600b90910180546001600160a01b03909516968a96929592948a9490939084019291906147a057fe5b90600052602060002090600202016001600281106147ba57fe5b0154905260008a8152601060209081526040918290206009018054835181840281018401909452808452909183018282801561481f57602002820191906000526020600020905b81546001600160a01b03168152600190910190602001808311614801575b50505060008d815260106020908152604091829020600a018054835181840281018401909452808452929450925083018282801561487c57602002820191906000526020600020905b815481526020019060010190808311614868575b50505060008e8152601060205260409020600481015460069091015490925060ff600160a01b82041691506001600160a01b0316614065565b600060098260ff16116148cf57506030810160f81b6115c7565b8160ff16600a111580156148e75750600f8260ff1611155b156102d857506057810160f81b6115c7565b600061490785858585614c92565b15614942576040805162461bcd60e51b8152602060048201526006602482015265131bd8dad95960d21b604482015290519081900360640190fd5b613da385858585614cca565b600081848411156149dd5760405162461bcd60e51b81526004018080602001828103825283818151815260200191508051906020019080838360005b838110156149a257818101518382015260200161498a565b50505050905090810190601f1680156149cf5780820380516001836020036101000a031916815260200191505b509250505060405180910390fd5b505050900390565b6000341180156149f55750600081115b15614a41576001600160a01b0382166000908152600f6020526040902060010154614a2090826114af565b6001600160a01b0383166000908152600f6020526040902060010155611d6f565b34611d6f576001600160a01b03919091166000908152600f6020526040902060010155565b6000813f7fc5d2460186f7233c927e7db2dcc703c0e500b653ca82273b7bfad8045d85a4708115801590612af05750141592915050565b600082815260106020526040902060060154600160a01b900460ff161580614af3575060008281526010602090815260408083206001600160a01b038716845260070190915290206002015462010000900460ff165b614b3b576040805162461bcd60e51b81526020600482015260146024820152731059191c995cdcc81b9bdd08185c1c1c9bdd995960621b604482015290519081900360640190fd5b6126d1838383614e1e565b60008183614b955760405162461bcd60e51b81526020600482018181528351602484015283519092839260449091019190850190808383600083156149a257818101518382015260200161498a565b506000838581614ba157fe5b0495945050505050565b6000805b600a811015614c88576000600482600a8110614bc757fe5b01546001600160a01b031614614c80576000600482600a8110614be657fe5b01546040805163c455279160e01b81526001600160a01b0388811660048301529151928216935090861691839163c4552791916024808301926020929190829003018186803b158015614c3857600080fd5b505afa158015614c4c573d6000803e3d6000fd5b505050506040513d6020811015614c6257600080fd5b50516001600160a01b03161415614c7e5760019250505061150c565b505b600101614baf565b5060009392505050565b6000614c9d83613c8c565b80614cac5750614cac856141a5565b80614cbb5750614cbb846141a5565b80613da3575050159392505050565b6040805180820182526014815273496e73756666696369656e742062616c616e636560601b6020808301919091526000858152601082528381206001600160a01b038916825260070190915291822054614d2591849061494e565b60008481526010602090815260408083206001600160a01b038a168452600701909152902055614d56848484614a9d565b614d618584846141c8565b905060005b6000848152601060205260409020600901548110156135b2576000848152601060205260408120600901805483908110614d9c57fe5b6000918252602080832090910154878352601090915260408220600a0180546001600160a01b0390921693509084908110614dd357fe5b6000918252602090912001549050614df1612710612c3886846143aa565b6001600160a01b039092166000908152600f60205260409020600190810180549093019092555001614d66565b60008281526010602090815260408083206001600160a01b0387168452600701909152812054614e4e90836114af565b60008481526010602090815260408083206001600160a01b0389168452600701909152902054909150614f4b5760008381526010602090815260408083206001600160a01b0388168452600701909152902060020154610100900460ff16614f1a576001600160a01b0384166000818152600f6020908152604080832060020180546001818101835591855283852001889055878452601083529083206008810180549283018155845282842090910180546001600160a01b0319168517905592909152600790910190525b60008381526010602090815260408083206001600160a01b0388168452600701909152902042600190910155614fec565b60008381526010602090815260408083206001600160a01b0388168452600701909152812060010154614f7f904290613b98565b60008581526010602090815260408083206001600160a01b038a16845260070190915281205491925090614fb9908490612c3890856143aa565b60008681526010602090815260408083206001600160a01b038b1684526007019091529020429190910360019091015550505b60009283526010602090815260408085206001600160a01b03909616855260079095019052929091209190915550565b604051806101800160405280600081526020016000815260200160008152602001600081526020016000815260200160006001600160a01b03168152602001600015158152602001600015158152602001600015158152602001600015158152602001600015158152602001606081525090565b82600a81019282156150d8579160200282015b828111156150d857825182546001600160a01b0319166001600160a01b039091161782556020909201916001909101906150a3565b506150e49291506151b0565b5090565b8280548282559060005260206000209081019282156150d857916020028201828111156150d857825182546001600160a01b0319166001600160a01b039091161782556020909201916001909101906150a3565b826002810192821561516a579160200282015b8281111561516a57825182559160200191906001019061514f565b506150e49291506151cf565b82805482825590600052602060002090810192821561516a579160200282018281111561516a57825182559160200191906001019061514f565b5b808211156150e45780546001600160a01b03191681556001016151b1565b5b808211156150e457600081556001016151d056fec3d58168c5ae7397731d063d5bbf3d657854427343f4c083240f7aacaa2d0f62455243313135353a2062616c616e636520717565727920666f7220746865207a65726f2061646472657373496e73756666696369656e74207065726d697373696f6e0000000000000000004f776e61626c653a206e6577206f776e657220697320746865207a65726f20616464726573736ce984c7277c5fe8f47fdf17245300ed19587e3bc1041342d79726b2b2f1dc0b455243313135353a207461726765742061646472657373206d757374206265206e6f6e2d7a65726f455243313135353a2063616e6e6f742073657420617070726f76616c2073746174757320666f722073656c66455243313135353a206163636f756e747320616e6420494473206d75737420686176652073616d65206c656e67746873455243313135353a20676f7420756e6b6e6f776e2076616c75652066726f6d206f6e4552433131353542617463685265636569766564455243313135353a20736f6d65206164647265737320696e2062617463682062616c616e6365207175657279206973207a65726f536166654d6174683a206d756c7469706c69636174696f6e206f766572666c6f77496e73756666696369656e742063616c6c6261636b2c207065726d697373696f6e206f7220657363726f77656420616d6f756e744f776e61626c653a2063616c6c6572206973206e6f7420746865206f776e6572455243313135353a206e656564206f70657261746f7220617070726f76616c20666f7220337264207061727479207472616e7366657273455243313135353a2049447320616e642076616c756573206d75737420686176652073616d65206c656e67746873455243313135353a20676f7420756e6b6e6f776e2076616c75652066726f6d206f6e455243313135355265636569766564a2646970667358221220f9ec4da139413278f72f77deb7ee0a1d16f48a579f2d2a0d4a1e1857ec4a1e8064736f6c634300070100334f776e61626c653a206e6577206f776e657220697320746865207a65726f2061646472657373",
  "immutableReferences": {},
  "source": "// SPDX-License-Identifier: GPL-3.0-or-later\npragma solidity ^0.7.1;\n\nimport './lib/Callable.sol';\nimport './lib/Withdrawable.sol';\n\ncontract StashBlox is Callable, Withdrawable {\n\n    /**\n     * @dev Initializes the contract setting the deployer as the initial owner.\n     */\n    constructor () {\n        _config.callbackAutoExecuteMaxAddresses = 50;\n        _config.baseURI = \"http://stashblox.com/tokens/\";\n        _transferOwnership(msg.sender);\n    }\n\n}\n",
  "sourcePath": "/home/ouziel/Work/StashBloxContracts/contracts/StashBlox.sol",
  "compiler": {
    "name": "solc",
    "version": "0.7.1+commit.f4a555be.Emscripten.clang"
  },
  "schemaVersion": "3.2.3",
  "updatedAt": "2020-10-21T21:50:16.080Z",
  "devdoc": {
    "kind": "dev",
    "methods": {
      "acceptCallback(uint256)": {
        "details": "Accept a callback",
        "params": {
          "callbackId": "callback proposition ID"
        }
      },
      "approveCallback(uint256)": {
        "details": "Approve a callback",
        "params": {
          "callbackId": "callback proposition ID"
        }
      },
      "approveHolder(uint256,address)": {
        "details": "Function to approve holder for a private token.",
        "params": {
          "holder": "The authorized address",
          "id": "the token id"
        }
      },
      "authorizeMaintener(uint256,address)": {
        "details": "Function to authorize an address to maintain a token.",
        "params": {
          "maintener": "The authorized address"
        }
      },
      "authorizeTokenizer(address)": {
        "details": "Function to authorize an address to create a token.",
        "params": {
          "tokenizer": "The authorized address"
        }
      },
      "averageAge(address,uint256)": {
        "details": "Function to get the average age of the token for the given address.",
        "params": {
          "account": "the address from where to transfer the tokens",
          "id": "The token ID"
        },
        "returns": {
          "_0": "average age in seconds"
        }
      },
      "balanceOf(address,uint256)": {
        "details": "Get the specified address' balance for token with specified ID. Attempting to query the zero account for a balance will result in a revert.",
        "params": {
          "account": "The address of the token holder",
          "id": "ID of the token"
        },
        "returns": {
          "_0": "The account's balance of the token type requested"
        }
      },
      "balanceOfBatch(address[],uint256[])": {
        "details": "Get the balance of multiple account/token pairs. If any of the query accounts is the zero account, this query will revert.",
        "params": {
          "accounts": "The addresses of the token holders",
          "ids": "IDs of the tokens"
        },
        "returns": {
          "_0": "Balances for each account and token id pair"
        }
      },
      "cloneToken(uint256,uint256[],uint256[])": {
        "details": "Function to mint tokens in batch.",
        "params": {
          "id": "Identifier of the template",
          "ids": "list of IDs of the tokens to be minted",
          "metadataHashes": "list of metadata file hashes"
        }
      },
      "constructor": {
        "details": "Initializes the contract setting the deployer as the initial owner."
      },
      "createToken(address,uint256,uint256,uint256,uint256,uint256[3],address[],uint256[],uint256,bool,address)": {
        "details": "Function to mint an amount of a token with the given ID.",
        "params": {
          "feesRecipients": "list of addresses receiving transfer fees",
          "feesRecipientsPercentage": "list of percentage, each one for the corresponding feesRecipients",
          "id": "ID of the token to be minted",
          "isPrivate": "true if holder need approval",
          "legalAuthority": "address of the legal authority",
          "metadataHash": "Metadata file hash",
          "minHoldingForCallback": "minimum holding to propose a callback",
          "recipient": "The address that will own the minted tokens",
          "supply": "Amount of the token to be minted",
          "transactionFees": "transaction fees: [lumpSumFees (in WEI), valueProportionalFees (ratio of transfered amount * 10**8), storageFees (in storageCredit * 10**8)]"
        }
      },
      "deposit(address)": {
        "details": "Function to make an ETH deposit that can be used to pay token transfer .",
        "params": {
          "to": "recipent address"
        }
      },
      "executeCallback(uint256,uint256)": {
        "details": "Accept a callback. Caller need to recall the function to continue the callback until completed.",
        "params": {
          "callbackId": "callback proposition ID",
          "maxCall": "maximal call to excute"
        }
      },
      "isApprovedForAll(address,address)": {
        "params": {
          "account": "The account of the Tokens",
          "operator": "Address of authorized operator"
        },
        "returns": {
          "_0": "True if the operator is approved, false if not"
        }
      },
      "isLockedAddress(address)": {
        "details": "Function to check if an address is lockec.",
        "params": {
          "addr": "The address to check"
        }
      },
      "isLockedToken(uint256)": {
        "details": "Function to check if a token is locked.",
        "params": {
          "id": "The token ID"
        }
      },
      "isMaintener(uint256,address)": {
        "details": "Function to check if an address is authorized to maintain a token.",
        "params": {
          "id": "the token id",
          "maintener": "The authorized address"
        },
        "returns": {
          "_0": "true if it's a maintener address"
        }
      },
      "isTokenizer(address)": {
        "details": "Function to check if an address is authorized to create a token.",
        "params": {
          "tokenizer": "The authorized address"
        }
      },
      "lockAddress(address)": {
        "details": "Function to lock an address.",
        "params": {
          "addr": "The address to lock"
        }
      },
      "lockToken(uint256,uint256)": {
        "details": "Function to lock a token.",
        "params": {
          "id": "The token ID"
        }
      },
      "owner()": {
        "details": "Returns the address of the current owner."
      },
      "proposeCallback(uint256,uint256,uint256,address[],uint256)": {
        "details": "Propose to buy the whole supply of a token. The proposer must hold minHoldingForCallback% of the total supply. StashBlox must approve the price with acceptCallback();",
        "params": {
          "callees": "list of calless. Empty list means all holders.",
          "price": "proposed price",
          "tokenId": "Token ID"
        }
      },
      "refuseCallback(uint256)": {
        "details": "Refuse a callback if the price is not enough.",
        "params": {
          "callbackId": "callback proposition ID"
        }
      },
      "revokeHolder(uint256,address)": {
        "details": "Function to revoke holder for a private token.",
        "params": {
          "holder": "The authorized address",
          "id": "the token id"
        }
      },
      "revokeMaintener(uint256,address)": {
        "details": "Function to revoke the authorization to maintain a token.",
        "params": {
          "id": "the token id",
          "maintener": "The authorized address"
        }
      },
      "revokeTokenizer(address)": {
        "details": "Function to revoke the authorization to create a token.",
        "params": {
          "tokenizer": "The authorized address"
        }
      },
      "safeBatchTransferFrom(address,address,uint256[],uint256[],bytes)": {
        "details": "Transfers `values` amount(s) of `ids` from the `from` address to the `to` address specified. Caller must be approved to manage the tokens being transferred out of the `from` account. If `to` is a smart contract, will call `onERC1155BatchReceived` on `to` and act appropriately.",
        "params": {
          "data": "Data forwarded to `onERC1155Received` if `to` is a contract receiver",
          "from": "Source address",
          "ids": "IDs of each token type",
          "to": "Target address",
          "values": "Transfer amounts per token type"
        }
      },
      "safeTransferFrom(address,address,uint256,uint256,bytes)": {
        "details": "Transfers `value` amount of an `id` from the `from` address to the `to` address specified. Caller must be approved to manage the tokens being transferred out of the `from` account. If `to` is a smart contract, will call `onERC1155Received` on `to` and act appropriately.",
        "params": {
          "data": "Data forwarded to `onERC1155Received` if `to` is a contract receiver",
          "from": "Source address",
          "id": "ID of the token type",
          "to": "Target address",
          "value": "Transfer amount"
        }
      },
      "setApprovalForAll(address,bool)": {
        "details": "Sets or unsets the approval of a given operator. An operator is allowed to transfer all tokens of the sender on their behalf. Because an account already has operator privileges for itself, this function will revert if the account attempts to set the approval status for itself.",
        "params": {
          "approved": "representing the status of the approval to be set",
          "operator": "address to set the approval"
        }
      },
      "setCallbackAutoExecuteMaxAddresses(uint256)": {
        "details": "Maximum addresses to execute automatically the callback when is accepted.",
        "params": {
          "newMax": "new maximum"
        }
      },
      "setProxyRegistryAddress(address[10])": {
        "details": "Function to update the operator whitelist",
        "params": {
          "proxyAddresses": "List of addresses"
        }
      },
      "supportsInterface(bytes4)": {
        "params": {
          "_interfaceID": "The interface identifier, as specified in ERC-165"
        },
        "returns": {
          "_0": "`true` if the contract implements `_interfaceID` and"
        }
      },
      "transactionFees(address,uint256,uint256)": {
        "details": "Function to get the transaction price to transfer tokens.",
        "params": {
          "account": "the address from where to transfer the tokens",
          "id": "The token ID",
          "value": "The amount to transfer"
        },
        "returns": {
          "_0": "transfer price"
        }
      },
      "transferOwnership(address)": {
        "details": "Transfers ownership of the contract to a new account (`newOwner`). Can only be called by the current owner."
      },
      "unlockAddress(address)": {
        "details": "Function to unlock an address.",
        "params": {
          "addr": "The address to unlock"
        }
      },
      "unlockToken(uint256,uint256)": {
        "details": "Function to unlock a token.",
        "params": {
          "id": "The token ID"
        }
      },
      "updateToken(uint256,uint256,uint256[3],address[],uint256[],uint256,bool,address)": {
        "details": "Function to update a token with the given ID.",
        "params": {
          "feesRecipients": "list of addresses receiving transfer fees",
          "feesRecipientsPercentage": "list of percentage, each one for the corresponding feesRecipients",
          "id": "ID of the token to be updated",
          "isPrivate": "true if holder need approval",
          "legalAuthority": "address of the legal authority",
          "metadataHash": "Metadata file hash",
          "minHoldingForCallback": "minimum holding to propose a callback",
          "transactionFees": "transaction fees: [lumpSumFees (in WEI), valueProportionalFees (ratio of transfered amount * 10**8), storageFees (in storageCredit * 10**8)]"
        }
      },
      "uri(uint256)": {
        "params": {
          "id": "Token ID"
        },
        "returns": {
          "_0": "URI string"
        }
      },
      "withdraw(address,uint256)": {
        "details": "Function to withdraw ETH from the contract. TODO: Add permission ??",
        "params": {
          "amount": "amount to withdraw",
          "to": "recipent address"
        }
      }
    },
    "version": 1
  },
  "userdoc": {
    "kind": "user",
    "methods": {
      "isApprovedForAll(address,address)": {
        "notice": "Queries the approval status of an operator for a given account."
      },
      "isTrustedForwarder(address)": {
        "notice": "return if the forwarder is trusted to forward relayed transactions to us. the forwarder is required to verify the sender's signature, and verify the call is not a replay."
      },
      "supportsInterface(bytes4)": {
        "notice": "Query if a contract implements an interface"
      }
    },
    "version": 1
  }
}