{
  "contractName": "StashBlox",
  "abi": [
    {
      "anonymous": false,
      "inputs": [
        {
          "indexed": true,
          "internalType": "address",
          "name": "_owner",
          "type": "address"
        },
        {
          "indexed": true,
          "internalType": "address",
          "name": "_operator",
          "type": "address"
        },
        {
          "indexed": false,
          "internalType": "bool",
          "name": "_approved",
          "type": "bool"
        }
      ],
      "name": "ApprovalForAll",
      "type": "event"
    },
    {
      "anonymous": false,
      "inputs": [
        {
          "indexed": true,
          "internalType": "address",
          "name": "previousOwner",
          "type": "address"
        },
        {
          "indexed": true,
          "internalType": "address",
          "name": "newOwner",
          "type": "address"
        }
      ],
      "name": "OwnershipTransferred",
      "type": "event"
    },
    {
      "anonymous": false,
      "inputs": [
        {
          "indexed": true,
          "internalType": "address",
          "name": "_operator",
          "type": "address"
        },
        {
          "indexed": true,
          "internalType": "address",
          "name": "_from",
          "type": "address"
        },
        {
          "indexed": true,
          "internalType": "address",
          "name": "_to",
          "type": "address"
        },
        {
          "indexed": false,
          "internalType": "uint256[]",
          "name": "_ids",
          "type": "uint256[]"
        },
        {
          "indexed": false,
          "internalType": "uint256[]",
          "name": "_values",
          "type": "uint256[]"
        }
      ],
      "name": "TransferBatch",
      "type": "event"
    },
    {
      "anonymous": false,
      "inputs": [
        {
          "indexed": true,
          "internalType": "address",
          "name": "_operator",
          "type": "address"
        },
        {
          "indexed": true,
          "internalType": "address",
          "name": "_from",
          "type": "address"
        },
        {
          "indexed": true,
          "internalType": "address",
          "name": "_to",
          "type": "address"
        },
        {
          "indexed": false,
          "internalType": "uint256",
          "name": "_id",
          "type": "uint256"
        },
        {
          "indexed": false,
          "internalType": "uint256",
          "name": "_value",
          "type": "uint256"
        }
      ],
      "name": "TransferSingle",
      "type": "event"
    },
    {
      "anonymous": false,
      "inputs": [
        {
          "indexed": false,
          "internalType": "string",
          "name": "_value",
          "type": "string"
        },
        {
          "indexed": true,
          "internalType": "uint256",
          "name": "_id",
          "type": "uint256"
        }
      ],
      "name": "URI",
      "type": "event"
    },
    {
      "constant": true,
      "inputs": [],
      "name": "BASE_URI",
      "outputs": [
        {
          "internalType": "string",
          "name": "",
          "type": "string"
        }
      ],
      "payable": false,
      "stateMutability": "view",
      "type": "function"
    },
    {
      "constant": false,
      "inputs": [
        {
          "internalType": "address",
          "name": "tokenizer",
          "type": "address"
        }
      ],
      "name": "authorizeTokenizer",
      "outputs": [],
      "payable": false,
      "stateMutability": "nonpayable",
      "type": "function"
    },
    {
      "constant": true,
      "inputs": [
        {
          "internalType": "address",
          "name": "account",
          "type": "address"
        },
        {
          "internalType": "uint256",
          "name": "id",
          "type": "uint256"
        }
      ],
      "name": "balanceOf",
      "outputs": [
        {
          "internalType": "uint256",
          "name": "",
          "type": "uint256"
        }
      ],
      "payable": false,
      "stateMutability": "view",
      "type": "function"
    },
    {
      "constant": true,
      "inputs": [
        {
          "internalType": "address[]",
          "name": "accounts",
          "type": "address[]"
        },
        {
          "internalType": "uint256[]",
          "name": "ids",
          "type": "uint256[]"
        }
      ],
      "name": "balanceOfBatch",
      "outputs": [
        {
          "internalType": "uint256[]",
          "name": "",
          "type": "uint256[]"
        }
      ],
      "payable": false,
      "stateMutability": "view",
      "type": "function"
    },
    {
      "constant": false,
      "inputs": [
        {
          "internalType": "uint256[]",
          "name": "ids",
          "type": "uint256[]"
        },
        {
          "internalType": "address[]",
          "name": "recipients",
          "type": "address[]"
        },
        {
          "internalType": "uint256[]",
          "name": "values",
          "type": "uint256[]"
        },
        {
          "internalType": "uint256[]",
          "name": "metadataHashes",
          "type": "uint256[]"
        }
      ],
      "name": "createTokens",
      "outputs": [],
      "payable": false,
      "stateMutability": "nonpayable",
      "type": "function"
    },
    {
      "constant": true,
      "inputs": [
        {
          "internalType": "address",
          "name": "account",
          "type": "address"
        },
        {
          "internalType": "address",
          "name": "operator",
          "type": "address"
        }
      ],
      "name": "isApprovedForAll",
      "outputs": [
        {
          "internalType": "bool",
          "name": "",
          "type": "bool"
        }
      ],
      "payable": false,
      "stateMutability": "view",
      "type": "function"
    },
    {
      "constant": true,
      "inputs": [
        {
          "internalType": "address",
          "name": "addr",
          "type": "address"
        }
      ],
      "name": "isLockedAddress",
      "outputs": [
        {
          "internalType": "bool",
          "name": "",
          "type": "bool"
        }
      ],
      "payable": false,
      "stateMutability": "view",
      "type": "function"
    },
    {
      "constant": true,
      "inputs": [
        {
          "internalType": "uint256",
          "name": "id",
          "type": "uint256"
        }
      ],
      "name": "isLockedToken",
      "outputs": [
        {
          "internalType": "bool",
          "name": "",
          "type": "bool"
        }
      ],
      "payable": false,
      "stateMutability": "view",
      "type": "function"
    },
    {
      "constant": true,
      "inputs": [
        {
          "internalType": "address",
          "name": "tokenizer",
          "type": "address"
        }
      ],
      "name": "isTokenizer",
      "outputs": [
        {
          "internalType": "bool",
          "name": "",
          "type": "bool"
        }
      ],
      "payable": false,
      "stateMutability": "view",
      "type": "function"
    },
    {
      "constant": false,
      "inputs": [
        {
          "internalType": "address",
          "name": "addr",
          "type": "address"
        }
      ],
      "name": "lockAddress",
      "outputs": [],
      "payable": false,
      "stateMutability": "nonpayable",
      "type": "function"
    },
    {
      "constant": false,
      "inputs": [
        {
          "internalType": "uint256",
          "name": "id",
          "type": "uint256"
        }
      ],
      "name": "lockToken",
      "outputs": [],
      "payable": false,
      "stateMutability": "nonpayable",
      "type": "function"
    },
    {
      "constant": true,
      "inputs": [
        {
          "internalType": "uint256",
          "name": "id",
          "type": "uint256"
        }
      ],
      "name": "metadataHash",
      "outputs": [
        {
          "internalType": "uint256",
          "name": "",
          "type": "uint256"
        }
      ],
      "payable": false,
      "stateMutability": "view",
      "type": "function"
    },
    {
      "constant": true,
      "inputs": [],
      "name": "owner",
      "outputs": [
        {
          "internalType": "address",
          "name": "",
          "type": "address"
        }
      ],
      "payable": false,
      "stateMutability": "view",
      "type": "function"
    },
    {
      "constant": false,
      "inputs": [
        {
          "internalType": "address",
          "name": "tokenizer",
          "type": "address"
        }
      ],
      "name": "revokeTokenizer",
      "outputs": [],
      "payable": false,
      "stateMutability": "nonpayable",
      "type": "function"
    },
    {
      "constant": false,
      "inputs": [
        {
          "internalType": "address",
          "name": "from",
          "type": "address"
        },
        {
          "internalType": "address",
          "name": "to",
          "type": "address"
        },
        {
          "internalType": "uint256[]",
          "name": "ids",
          "type": "uint256[]"
        },
        {
          "internalType": "uint256[]",
          "name": "values",
          "type": "uint256[]"
        },
        {
          "internalType": "bytes",
          "name": "data",
          "type": "bytes"
        }
      ],
      "name": "safeBatchTransferFrom",
      "outputs": [],
      "payable": false,
      "stateMutability": "nonpayable",
      "type": "function"
    },
    {
      "constant": false,
      "inputs": [
        {
          "internalType": "address",
          "name": "from",
          "type": "address"
        },
        {
          "internalType": "address",
          "name": "to",
          "type": "address"
        },
        {
          "internalType": "uint256",
          "name": "id",
          "type": "uint256"
        },
        {
          "internalType": "uint256",
          "name": "value",
          "type": "uint256"
        },
        {
          "internalType": "bytes",
          "name": "data",
          "type": "bytes"
        }
      ],
      "name": "safeTransferFrom",
      "outputs": [],
      "payable": false,
      "stateMutability": "nonpayable",
      "type": "function"
    },
    {
      "constant": false,
      "inputs": [
        {
          "internalType": "address",
          "name": "operator",
          "type": "address"
        },
        {
          "internalType": "bool",
          "name": "approved",
          "type": "bool"
        }
      ],
      "name": "setApprovalForAll",
      "outputs": [],
      "payable": false,
      "stateMutability": "nonpayable",
      "type": "function"
    },
    {
      "constant": true,
      "inputs": [
        {
          "internalType": "bytes4",
          "name": "_interfaceID",
          "type": "bytes4"
        }
      ],
      "name": "supportsInterface",
      "outputs": [
        {
          "internalType": "bool",
          "name": "",
          "type": "bool"
        }
      ],
      "payable": false,
      "stateMutability": "view",
      "type": "function"
    },
    {
      "constant": true,
      "inputs": [
        {
          "internalType": "uint256",
          "name": "id",
          "type": "uint256"
        }
      ],
      "name": "totalSupply",
      "outputs": [
        {
          "internalType": "uint256",
          "name": "",
          "type": "uint256"
        }
      ],
      "payable": false,
      "stateMutability": "view",
      "type": "function"
    },
    {
      "constant": false,
      "inputs": [
        {
          "internalType": "address",
          "name": "newOwner",
          "type": "address"
        }
      ],
      "name": "transferOwnership",
      "outputs": [],
      "payable": false,
      "stateMutability": "nonpayable",
      "type": "function"
    },
    {
      "constant": false,
      "inputs": [
        {
          "internalType": "address",
          "name": "addr",
          "type": "address"
        }
      ],
      "name": "unlockAddress",
      "outputs": [],
      "payable": false,
      "stateMutability": "nonpayable",
      "type": "function"
    },
    {
      "constant": false,
      "inputs": [
        {
          "internalType": "uint256",
          "name": "id",
          "type": "uint256"
        }
      ],
      "name": "unlockToken",
      "outputs": [],
      "payable": false,
      "stateMutability": "nonpayable",
      "type": "function"
    },
    {
      "constant": true,
      "inputs": [
        {
          "internalType": "uint256",
          "name": "id",
          "type": "uint256"
        }
      ],
      "name": "uri",
      "outputs": [
        {
          "internalType": "string",
          "name": "",
          "type": "string"
        }
      ],
      "payable": false,
      "stateMutability": "view",
      "type": "function"
    }
  ],
  "bytecode": "0x608060405262000015336200001b60201b60201c565b620001e9565b600073ffffffffffffffffffffffffffffffffffffffff168173ffffffffffffffffffffffffffffffffffffffff1614156200008e576040517f08c379a00000000000000000000000000000000000000000000000000000000081526004016200008590620001b6565b60405180910390fd5b8073ffffffffffffffffffffffffffffffffffffffff16600260009054906101000a900473ffffffffffffffffffffffffffffffffffffffff1673ffffffffffffffffffffffffffffffffffffffff167f8be0079c531659141344cd1fd0a4f28419497f9722a3daafe3b4186f6b6457e060405160405180910390a380600260006101000a81548173ffffffffffffffffffffffffffffffffffffffff021916908373ffffffffffffffffffffffffffffffffffffffff16021790555050565b60006200015d602683620001d8565b91507f4f776e61626c653a206e6577206f776e657220697320746865207a65726f206160008301527f64647265737300000000000000000000000000000000000000000000000000006020830152604082019050919050565b60006020820190508181036000830152620001d1816200014e565b9050919050565b600082825260208201905092915050565b61364780620001f96000396000f3fe608060405234801561001057600080fd5b506004361061014c5760003560e01c806390490a1d116100c3578063cba54e601161007c578063cba54e60146103cf578063dbddb26a146103ff578063dd2e0ac01461041d578063e985e9c514610439578063f242432a14610469578063f2fde38b146104855761014c565b806390490a1d146102eb578063a22cb46514610307578063b7eb5e0a14610323578063bba75c831461033f578063bd85b0391461036f578063c02f303c1461039f5761014c565b806334a90d021161011557806334a90d021461022d5780634e1273f4146102495780637627b7321461027957806380f20363146102955780638870147b146102b15780638da5cb5b146102cd5761014c565b8062fdd58e1461015157806301ffc9a7146101815780630e89341c146101b1578063219cc8bc146101e15780632eb2c2d614610211575b600080fd5b61016b60048036036101669190810190612692565b6104a1565b604051610178919061337a565b60405180910390f35b61019b6004803603610196919081019061280f565b61056a565b6040516101a8919061311b565b60405180910390f35b6101cb60048036036101c69190810190612861565b61061b565b6040516101d89190613158565b60405180910390f35b6101fb60048036036101f69190810190612861565b61066b565b604051610208919061337a565b60405180910390f35b61022b600480360361022691908101906124f8565b610688565b005b61024760048036036102429190810190612493565b610973565b005b610263600480360361025e91908101906126ce565b610a15565b60405161027091906130f9565b60405180910390f35b610293600480360361028e9190810190612493565b610bc6565b005b6102af60048036036102aa9190810190612861565b610c68565b005b6102cb60048036036102c69190810190612493565b610cde565b005b6102d5610d80565b6040516102e29190612fe1565b60405180910390f35b6103056004803603610300919081019061273a565b610daa565b005b610321600480360361031c9190810190612656565b611184565b005b61033d60048036036103389190810190612493565b6112f0565b005b61035960048036036103549190810190612861565b611392565b604051610366919061311b565b60405180910390f35b61038960048036036103849190810190612861565b6113a4565b604051610396919061337a565b60405180910390f35b6103b960048036036103b49190810190612493565b6113c1565b6040516103c6919061311b565b60405180910390f35b6103e960048036036103e49190810190612493565b611417565b6040516103f6919061311b565b60405180910390f35b610407611429565b6040516104149190613136565b60405180910390f35b61043760048036036104329190810190612861565b611462565b005b610453600480360361044e91908101906124bc565b6114d8565b604051610460919061311b565b60405180910390f35b610483600480360361047e91908101906125c4565b61156c565b005b61049f600480360361049a9190810190612493565b611746565b005b60008073ffffffffffffffffffffffffffffffffffffffff168373ffffffffffffffffffffffffffffffffffffffff161415610512576040517f08c379a00000000000000000000000000000000000000000000000000000000081526004016105099061317a565b60405180910390fd5b60008083815260200190815260200160002060008473ffffffffffffffffffffffffffffffffffffffff1673ffffffffffffffffffffffffffffffffffffffff16815260200190815260200160002054905092915050565b60006301ffc9a760e01b7bffffffffffffffffffffffffffffffffffffffffffffffffffffffff1916827bffffffffffffffffffffffffffffffffffffffffffffffffffffffff19161480610603575063d9b67a2660e01b7bffffffffffffffffffffffffffffffffffffffffffffffffffffffff1916827bffffffffffffffffffffffffffffffffffffffffffffffffffffffff1916145b156106115760019050610616565b600090505b919050565b60606106646040518060400160405280601d81526020017f68747470733a2f2f7374617368626c6f782e636f6d2f746f6b656e732f00000081525061065f84611799565b611888565b9050919050565b600060056000838152602001908152602001600020549050919050565b8383905086869050146106d0576040517f08c379a00000000000000000000000000000000000000000000000000000000081526004016106c79061333a565b60405180910390fd5b600073ffffffffffffffffffffffffffffffffffffffff168773ffffffffffffffffffffffffffffffffffffffff161415610740576040517f08c379a0000000000000000000000000000000000000000000000000000000008152600401610737906131ba565b60405180910390fd5b3373ffffffffffffffffffffffffffffffffffffffff168873ffffffffffffffffffffffffffffffffffffffff16148061078757506001151561078389336114d8565b1515145b6107c6576040517f08c379a00000000000000000000000000000000000000000000000000000000081526004016107bd9061331a565b60405180910390fd5b60008090505b868690508110156108125761080789898989858181106107e857fe5b905060200201358888868181106107fb57fe5b905060200201356119d3565b8060010190506107cc565b508673ffffffffffffffffffffffffffffffffffffffff168873ffffffffffffffffffffffffffffffffffffffff163373ffffffffffffffffffffffffffffffffffffffff167f4a39dc06d4c0dbc64b70af90fd698a233a518aa5d07e595d983b8c0526c8f7fb8989898960405161088d94939291906130be565b60405180910390a4610969338989898980806020026020016040519081016040528093929190818152602001838360200280828437600081840152601f19601f82011690508083019250505050505050888880806020026020016040519081016040528093929190818152602001838360200280828437600081840152601f19601f8201169050808301925050505050505087878080601f016020809104026020016040519081016040528093929190818152602001838380828437600081840152601f19601f82011690508083019250505050505050611a52565b5050505050505050565b61097b611bb1565b6109ba576040517f08c379a00000000000000000000000000000000000000000000000000000000081526004016109b1906132fa565b60405180910390fd5b6001600460008373ffffffffffffffffffffffffffffffffffffffff1673ffffffffffffffffffffffffffffffffffffffff16815260200190815260200160002060006101000a81548160ff02191690831515021790555050565b60608151835114610a5b576040517f08c379a0000000000000000000000000000000000000000000000000000000008152600401610a529061325a565b60405180910390fd5b60608351604051908082528060200260200182016040528015610a8d5781602001602082028038833980820191505090505b50905060008090505b8451811015610bbb57600073ffffffffffffffffffffffffffffffffffffffff16858281518110610ac357fe5b602002602001015173ffffffffffffffffffffffffffffffffffffffff161415610b22576040517f08c379a0000000000000000000000000000000000000000000000000000000008152600401610b199061329a565b60405180910390fd5b600080858381518110610b3157fe5b602002602001015181526020019081526020016000206000868381518110610b5557fe5b602002602001015173ffffffffffffffffffffffffffffffffffffffff1673ffffffffffffffffffffffffffffffffffffffff16815260200190815260200160002054828281518110610ba457fe5b602002602001018181525050806001019050610a96565b508091505092915050565b610bce611bb1565b610c0d576040517f08c379a0000000000000000000000000000000000000000000000000000000008152600401610c04906132fa565b60405180910390fd5b6001600760008373ffffffffffffffffffffffffffffffffffffffff1673ffffffffffffffffffffffffffffffffffffffff16815260200190815260200160002060006101000a81548160ff02191690831515021790555050565b610c70611bb1565b610caf576040517f08c379a0000000000000000000000000000000000000000000000000000000008152600401610ca6906132fa565b60405180910390fd5b60016003600083815260200190815260200160002060006101000a81548160ff02191690831515021790555050565b610ce6611bb1565b610d25576040517f08c379a0000000000000000000000000000000000000000000000000000000008152600401610d1c906132fa565b60405180910390fd5b6000600760008373ffffffffffffffffffffffffffffffffffffffff1673ffffffffffffffffffffffffffffffffffffffff16815260200190815260200160002060006101000a81548160ff02191690831515021790555050565b6000600260009054906101000a900473ffffffffffffffffffffffffffffffffffffffff16905090565b610db2611bb1565b610df1576040517f08c379a0000000000000000000000000000000000000000000000000000000008152600401610de8906132fa565b60405180910390fd5b600760003373ffffffffffffffffffffffffffffffffffffffff1673ffffffffffffffffffffffffffffffffffffffff16815260200190815260200160002060009054906101000a900460ff16610e7d576040517f08c379a0000000000000000000000000000000000000000000000000000000008152600401610e74906131fa565b60405180910390fd5b8585905088889050148015610e9757508383905086869050145b8015610ea857508181905084849050145b610ee7576040517f08c379a0000000000000000000000000000000000000000000000000000000008152600401610ede9061321a565b60405180910390fd5b60008090505b88889050811015610f6b576000600660008b8b85818110610f0a57fe5b9050602002013581526020019081526020016000205414610f60576040517f08c379a0000000000000000000000000000000000000000000000000000000008152600401610f57906132ba565b60405180910390fd5b806001019050610eed565b5060008090505b88889050811015611179576000898983818110610f8b57fe5b9050602002013590506000888884818110610fa257fe5b9050602002016020610fb79190810190612493565b90506000878785818110610fc757fe5b905060200201359050610ff6816006600086815260200190815260200160002054611c0990919063ffffffff16565b600660008581526020019081526020016000208190555085858581811061101957fe5b9050602002013560056000858152602001908152602001600020819055506110998160008086815260200190815260200160002060008573ffffffffffffffffffffffffffffffffffffffff1673ffffffffffffffffffffffffffffffffffffffff16815260200190815260200160002054611c0990919063ffffffff16565b60008085815260200190815260200160002060008473ffffffffffffffffffffffffffffffffffffffff1673ffffffffffffffffffffffffffffffffffffffff168152602001908152602001600020819055508173ffffffffffffffffffffffffffffffffffffffff16600073ffffffffffffffffffffffffffffffffffffffff163373ffffffffffffffffffffffffffffffffffffffff167fc3d58168c5ae7397731d063d5bbf3d657854427343f4c083240f7aacaa2d0f628685604051611163929190613395565b60405180910390a4505050806001019050610f72565b505050505050505050565b8173ffffffffffffffffffffffffffffffffffffffff163373ffffffffffffffffffffffffffffffffffffffff1614156111f3576040517f08c379a00000000000000000000000000000000000000000000000000000000081526004016111ea9061323a565b60405180910390fd5b80600160003373ffffffffffffffffffffffffffffffffffffffff1673ffffffffffffffffffffffffffffffffffffffff16815260200190815260200160002060008473ffffffffffffffffffffffffffffffffffffffff1673ffffffffffffffffffffffffffffffffffffffff16815260200190815260200160002060006101000a81548160ff0219169083151502179055508173ffffffffffffffffffffffffffffffffffffffff163373ffffffffffffffffffffffffffffffffffffffff167f17307eab39ab6107e8899845ad3d59bd9653f200f220920489ca2b5937696c31836040516112e4919061311b565b60405180910390a35050565b6112f8611bb1565b611337576040517f08c379a000000000000000000000000000000000000000000000000000000000815260040161132e906132fa565b60405180910390fd5b6000600460008373ffffffffffffffffffffffffffffffffffffffff1673ffffffffffffffffffffffffffffffffffffffff16815260200190815260200160002060006101000a81548160ff02191690831515021790555050565b600061139d82611c5e565b9050919050565b600060066000838152602001908152602001600020549050919050565b6000600760008373ffffffffffffffffffffffffffffffffffffffff1673ffffffffffffffffffffffffffffffffffffffff16815260200190815260200160002060009054906101000a900460ff169050919050565b600061142282611c88565b9050919050565b6040518060400160405280601d81526020017f68747470733a2f2f7374617368626c6f782e636f6d2f746f6b656e732f00000081525081565b61146a611bb1565b6114a9576040517f08c379a00000000000000000000000000000000000000000000000000000000081526004016114a0906132fa565b60405180910390fd5b60006003600083815260200190815260200160002060006101000a81548160ff02191690831515021790555050565b6000600160008473ffffffffffffffffffffffffffffffffffffffff1673ffffffffffffffffffffffffffffffffffffffff16815260200190815260200160002060008373ffffffffffffffffffffffffffffffffffffffff1673ffffffffffffffffffffffffffffffffffffffff16815260200190815260200160002060009054906101000a900460ff16905092915050565b600073ffffffffffffffffffffffffffffffffffffffff168573ffffffffffffffffffffffffffffffffffffffff1614156115dc576040517f08c379a00000000000000000000000000000000000000000000000000000000081526004016115d3906131ba565b60405180910390fd5b3373ffffffffffffffffffffffffffffffffffffffff168673ffffffffffffffffffffffffffffffffffffffff16148061162357506001151561161f87336114d8565b1515145b611662576040517f08c379a00000000000000000000000000000000000000000000000000000000081526004016116599061331a565b60405180910390fd5b61166e868686866119d3565b8473ffffffffffffffffffffffffffffffffffffffff168673ffffffffffffffffffffffffffffffffffffffff163373ffffffffffffffffffffffffffffffffffffffff167fc3d58168c5ae7397731d063d5bbf3d657854427343f4c083240f7aacaa2d0f6287876040516116e4929190613395565b60405180910390a461173e338787878787878080601f016020809104026020016040519081016040528093929190818152602001838380828437600081840152601f19601f82011690508083019250505050505050611cde565b505050505050565b61174e611bb1565b61178d576040517f08c379a0000000000000000000000000000000000000000000000000000000008152600401611784906132fa565b60405180910390fd5b61179681611e3d565b50565b6060600080905060008390505b600081146117c8578180600101925050601081816117c057fe5b0490506117a6565b6060826040519080825280601f01601f1916602001820160405280156117fd5781602001600182028038833980820191505090505b50905060008090505b8381101561187c576010868161181857fe5b06925061182483611f6d565b826001838703038151811061183557fe5b60200101907effffffffffffffffffffffffffffffffffffffffffffffffffffffffffffff1916908160001a9053506010868161186e57fe5b049550806001019050611806565b50809350505050919050565b6060808390506060839050606081518351016040519080825280601f01601f1916602001820160405280156118cc5781602001600182028038833980820191505090505b509050606081905060008090506000809050600090505b8551811015611951578581815181106118f857fe5b602001015160f81c60f81b83838060010194508151811061191557fe5b60200101907effffffffffffffffffffffffffffffffffffffffffffffffffffffffffffff1916908160001a90535080806001019150506118e3565b600090505b84518110156119c45784818151811061196b57fe5b602001015160f81c60f81b83838060010194508151811061198857fe5b60200101907effffffffffffffffffffffffffffffffffffffffffffffffffffffffffffff1916908160001a9053508080600101915050611956565b82965050505050505092915050565b6119dc82611c5e565b1580156119ef57506119ed84611c88565b155b8015611a0157506119ff83611c88565b155b611a40576040517f08c379a0000000000000000000000000000000000000000000000000000000008152600401611a37906132da565b60405180910390fd5b611a4c84848484612016565b50505050565b611a718473ffffffffffffffffffffffffffffffffffffffff166121a0565b15611ba9578373ffffffffffffffffffffffffffffffffffffffff1663bc197c81905060e01b7bffffffffffffffffffffffffffffffffffffffffffffffffffffffff19168473ffffffffffffffffffffffffffffffffffffffff1663bc197c8188888787876040518663ffffffff1660e01b8152600401611af7959493929190612ffc565b602060405180830381600087803b158015611b1157600080fd5b505af1158015611b25573d6000803e3d6000fd5b505050506040513d601f19601f82011682018060405250611b499190810190612838565b7bffffffffffffffffffffffffffffffffffffffffffffffffffffffff191614611ba8576040517f08c379a0000000000000000000000000000000000000000000000000000000008152600401611b9f9061327a565b60405180910390fd5b5b505050505050565b6000600260009054906101000a900473ffffffffffffffffffffffffffffffffffffffff1673ffffffffffffffffffffffffffffffffffffffff163373ffffffffffffffffffffffffffffffffffffffff1614905090565b600080828401905083811015611c54576040517f08c379a0000000000000000000000000000000000000000000000000000000008152600401611c4b906131da565b60405180910390fd5b8091505092915050565b60006003600083815260200190815260200160002060009054906101000a900460ff169050919050565b6000600460008373ffffffffffffffffffffffffffffffffffffffff1673ffffffffffffffffffffffffffffffffffffffff16815260200190815260200160002060009054906101000a900460ff169050919050565b611cfd8473ffffffffffffffffffffffffffffffffffffffff166121a0565b15611e35578373ffffffffffffffffffffffffffffffffffffffff1663f23a6e61905060e01b7bffffffffffffffffffffffffffffffffffffffffffffffffffffffff19168473ffffffffffffffffffffffffffffffffffffffff1663f23a6e6188888787876040518663ffffffff1660e01b8152600401611d83959493929190613064565b602060405180830381600087803b158015611d9d57600080fd5b505af1158015611db1573d6000803e3d6000fd5b505050506040513d601f19601f82011682018060405250611dd59190810190612838565b7bffffffffffffffffffffffffffffffffffffffffffffffffffffffff191614611e34576040517f08c379a0000000000000000000000000000000000000000000000000000000008152600401611e2b9061335a565b60405180910390fd5b5b505050505050565b600073ffffffffffffffffffffffffffffffffffffffff168173ffffffffffffffffffffffffffffffffffffffff161415611ead576040517f08c379a0000000000000000000000000000000000000000000000000000000008152600401611ea49061319a565b60405180910390fd5b8073ffffffffffffffffffffffffffffffffffffffff16600260009054906101000a900473ffffffffffffffffffffffffffffffffffffffff1673ffffffffffffffffffffffffffffffffffffffff167f8be0079c531659141344cd1fd0a4f28419497f9722a3daafe3b4186f6b6457e060405160405180910390a380600260006101000a81548173ffffffffffffffffffffffffffffffffffffffff021916908373ffffffffffffffffffffffffffffffffffffffff16021790555050565b60008160ff16600011158015611f87575060098260ff1611155b15611fbc57817f300000000000000000000000000000000000000000000000000000000000000060f81c0160f81b9050612011565b8160ff16600a11158015611fd45750600f8260ff1611155b1561200c57600a827f610000000000000000000000000000000000000000000000000000000000000060f81c010360f81b9050612011565b600080fd5b919050565b612092816040518060600160405280602a81526020016135db602a913960008086815260200190815260200160002060008873ffffffffffffffffffffffffffffffffffffffff1673ffffffffffffffffffffffffffffffffffffffff168152602001908152602001600020546121eb9092919063ffffffff16565b60008084815260200190815260200160002060008673ffffffffffffffffffffffffffffffffffffffff1673ffffffffffffffffffffffffffffffffffffffff168152602001908152602001600020819055506121478160008085815260200190815260200160002060008673ffffffffffffffffffffffffffffffffffffffff1673ffffffffffffffffffffffffffffffffffffffff16815260200190815260200160002054611c0990919063ffffffff16565b60008084815260200190815260200160002060008573ffffffffffffffffffffffffffffffffffffffff1673ffffffffffffffffffffffffffffffffffffffff1681526020019081526020016000208190555050505050565b60008060007fc5d2460186f7233c927e7db2dcc703c0e500b653ca82273b7bfad8045d85a47060001b9050833f91506000801b82141580156121e25750808214155b92505050919050565b6000838311158290612233576040517f08c379a000000000000000000000000000000000000000000000000000000000815260040161222a9190613158565b60405180910390fd5b5060008385039050809150509392505050565b6000813590506122558161357e565b92915050565b60008083601f84011261226d57600080fd5b8235905067ffffffffffffffff81111561228657600080fd5b60208301915083602082028301111561229e57600080fd5b9250929050565b600082601f8301126122b657600080fd5b81356122c96122c4826133eb565b6133be565b915081818352602084019350602081019050838560208402820111156122ee57600080fd5b60005b8381101561231e57816123048882612246565b8452602084019350602083019250506001810190506122f1565b5050505092915050565b60008083601f84011261233a57600080fd5b8235905067ffffffffffffffff81111561235357600080fd5b60208301915083602082028301111561236b57600080fd5b9250929050565b600082601f83011261238357600080fd5b813561239661239182613413565b6133be565b915081818352602084019350602081019050838560208402820111156123bb57600080fd5b60005b838110156123eb57816123d1888261247e565b8452602084019350602083019250506001810190506123be565b5050505092915050565b60008135905061240481613595565b92915050565b600081359050612419816135ac565b92915050565b60008151905061242e816135ac565b92915050565b60008083601f84011261244657600080fd5b8235905067ffffffffffffffff81111561245f57600080fd5b60208301915083600182028301111561247757600080fd5b9250929050565b60008135905061248d816135c3565b92915050565b6000602082840312156124a557600080fd5b60006124b384828501612246565b91505092915050565b600080604083850312156124cf57600080fd5b60006124dd85828601612246565b92505060206124ee85828601612246565b9150509250929050565b60008060008060008060008060a0898b03121561251457600080fd5b60006125228b828c01612246565b98505060206125338b828c01612246565b975050604089013567ffffffffffffffff81111561255057600080fd5b61255c8b828c01612328565b9650965050606089013567ffffffffffffffff81111561257b57600080fd5b6125878b828c01612328565b9450945050608089013567ffffffffffffffff8111156125a657600080fd5b6125b28b828c01612434565b92509250509295985092959890939650565b60008060008060008060a087890312156125dd57600080fd5b60006125eb89828a01612246565b96505060206125fc89828a01612246565b955050604061260d89828a0161247e565b945050606061261e89828a0161247e565b935050608087013567ffffffffffffffff81111561263b57600080fd5b61264789828a01612434565b92509250509295509295509295565b6000806040838503121561266957600080fd5b600061267785828601612246565b9250506020612688858286016123f5565b9150509250929050565b600080604083850312156126a557600080fd5b60006126b385828601612246565b92505060206126c48582860161247e565b9150509250929050565b600080604083850312156126e157600080fd5b600083013567ffffffffffffffff8111156126fb57600080fd5b612707858286016122a5565b925050602083013567ffffffffffffffff81111561272457600080fd5b61273085828601612372565b9150509250929050565b6000806000806000806000806080898b03121561275657600080fd5b600089013567ffffffffffffffff81111561277057600080fd5b61277c8b828c01612328565b9850985050602089013567ffffffffffffffff81111561279b57600080fd5b6127a78b828c0161225b565b9650965050604089013567ffffffffffffffff8111156127c657600080fd5b6127d28b828c01612328565b9450945050606089013567ffffffffffffffff8111156127f157600080fd5b6127fd8b828c01612328565b92509250509295985092959890939650565b60006020828403121561282157600080fd5b600061282f8482850161240a565b91505092915050565b60006020828403121561284a57600080fd5b60006128588482850161241f565b91505092915050565b60006020828403121561287357600080fd5b60006128818482850161247e565b91505092915050565b60006128968383612fc3565b60208301905092915050565b6128ab816134b7565b82525050565b60006128bd8385613484565b93507f07ffffffffffffffffffffffffffffffffffffffffffffffffffffffffffffff8311156128ec57600080fd5b6020830292506128fd83858461352b565b82840190509392505050565b60006129148261344b565b61291e8185613484565b93506129298361343b565b8060005b8381101561295a578151612941888261288a565b975061294c83613477565b92505060018101905061292d565b5085935050505092915050565b612970816134c9565b82525050565b600061298182613456565b61298b8185613495565b935061299b81856020860161353a565b6129a48161356d565b840191505092915050565b60006129ba8261346c565b6129c481856134a6565b93506129d481856020860161353a565b6129dd8161356d565b840191505092915050565b60006129f382613461565b6129fd81856134a6565b9350612a0d81856020860161353a565b612a168161356d565b840191505092915050565b6000612a2e602b836134a6565b91507f455243313135353a2062616c616e636520717565727920666f7220746865207a60008301527f65726f20616464726573730000000000000000000000000000000000000000006020830152604082019050919050565b6000612a946026836134a6565b91507f4f776e61626c653a206e6577206f776e657220697320746865207a65726f206160008301527f64647265737300000000000000000000000000000000000000000000000000006020830152604082019050919050565b6000612afa6028836134a6565b91507f455243313135353a207461726765742061646472657373206d7573742062652060008301527f6e6f6e2d7a65726f0000000000000000000000000000000000000000000000006020830152604082019050919050565b6000612b60601b836134a6565b91507f536166654d6174683a206164646974696f6e206f766572666c6f7700000000006000830152602082019050919050565b6000612ba06017836134a6565b91507f5374617368426c6f783a20556e617574686f72697a65640000000000000000006000830152602082019050919050565b6000612be0602b836134a6565b91507f5374617368426c6f783a20616c6c206c69737473206d7573742068617665207360008301527f616d65206c656e677468730000000000000000000000000000000000000000006020830152604082019050919050565b6000612c46602c836134a6565b91507f455243313135353a2063616e6e6f742073657420617070726f76616c2073746160008301527f74757320666f722073656c6600000000000000000000000000000000000000006020830152604082019050919050565b6000612cac6030836134a6565b91507f455243313135353a206163636f756e747320616e6420494473206d757374206860008301527f6176652073616d65206c656e67746873000000000000000000000000000000006020830152604082019050919050565b6000612d126036836134a6565b91507f455243313135353a20676f7420756e6b6e6f776e2076616c75652066726f6d2060008301527f6f6e4552433131353542617463685265636569766564000000000000000000006020830152604082019050919050565b6000612d786034836134a6565b91507f455243313135353a20736f6d65206164647265737320696e206261746368206260008301527f616c616e6365207175657279206973207a65726f0000000000000000000000006020830152604082019050919050565b6000612dde601f836134a6565b91507f5374617368426c6f783a20546f6b656e20616c7265616479206d696e746564006000830152602082019050919050565b6000612e1e6017836134a6565b91507f455243313135354c6f636b61626c653a204c6f636b65640000000000000000006000830152602082019050919050565b6000612e5e6020836134a6565b91507f4f776e61626c653a2063616c6c6572206973206e6f7420746865206f776e65726000830152602082019050919050565b6000612e9e6037836134a6565b91507f455243313135353a206e656564206f70657261746f7220617070726f76616c2060008301527f666f7220337264207061727479207472616e73666572730000000000000000006020830152604082019050919050565b6000612f04602e836134a6565b91507f455243313135353a2049447320616e642076616c756573206d7573742068617660008301527f652073616d65206c656e677468730000000000000000000000000000000000006020830152604082019050919050565b6000612f6a6031836134a6565b91507f455243313135353a20676f7420756e6b6e6f776e2076616c75652066726f6d2060008301527f6f6e4552433131353552656365697665640000000000000000000000000000006020830152604082019050919050565b612fcc81613521565b82525050565b612fdb81613521565b82525050565b6000602082019050612ff660008301846128a2565b92915050565b600060a08201905061301160008301886128a2565b61301e60208301876128a2565b81810360408301526130308186612909565b905081810360608301526130448185612909565b905081810360808301526130588184612976565b90509695505050505050565b600060a08201905061307960008301886128a2565b61308660208301876128a2565b6130936040830186612fd2565b6130a06060830185612fd2565b81810360808301526130b28184612976565b90509695505050505050565b600060408201905081810360008301526130d98186886128b1565b905081810360208301526130ee8184866128b1565b905095945050505050565b600060208201905081810360008301526131138184612909565b905092915050565b60006020820190506131306000830184612967565b92915050565b6000602082019050818103600083015261315081846129e8565b905092915050565b6000602082019050818103600083015261317281846129af565b905092915050565b6000602082019050818103600083015261319381612a21565b9050919050565b600060208201905081810360008301526131b381612a87565b9050919050565b600060208201905081810360008301526131d381612aed565b9050919050565b600060208201905081810360008301526131f381612b53565b9050919050565b6000602082019050818103600083015261321381612b93565b9050919050565b6000602082019050818103600083015261323381612bd3565b9050919050565b6000602082019050818103600083015261325381612c39565b9050919050565b6000602082019050818103600083015261327381612c9f565b9050919050565b6000602082019050818103600083015261329381612d05565b9050919050565b600060208201905081810360008301526132b381612d6b565b9050919050565b600060208201905081810360008301526132d381612dd1565b9050919050565b600060208201905081810360008301526132f381612e11565b9050919050565b6000602082019050818103600083015261331381612e51565b9050919050565b6000602082019050818103600083015261333381612e91565b9050919050565b6000602082019050818103600083015261335381612ef7565b9050919050565b6000602082019050818103600083015261337381612f5d565b9050919050565b600060208201905061338f6000830184612fd2565b92915050565b60006040820190506133aa6000830185612fd2565b6133b76020830184612fd2565b9392505050565b6000604051905081810181811067ffffffffffffffff821117156133e157600080fd5b8060405250919050565b600067ffffffffffffffff82111561340257600080fd5b602082029050602081019050919050565b600067ffffffffffffffff82111561342a57600080fd5b602082029050602081019050919050565b6000819050602082019050919050565b600081519050919050565b600081519050919050565b600081519050919050565b600081519050919050565b6000602082019050919050565b600082825260208201905092915050565b600082825260208201905092915050565b600082825260208201905092915050565b60006134c282613501565b9050919050565b60008115159050919050565b60007fffffffff0000000000000000000000000000000000000000000000000000000082169050919050565b600073ffffffffffffffffffffffffffffffffffffffff82169050919050565b6000819050919050565b82818337600083830152505050565b60005b8381101561355857808201518184015260208101905061353d565b83811115613567576000848401525b50505050565b6000601f19601f8301169050919050565b613587816134b7565b811461359257600080fd5b50565b61359e816134c9565b81146135a957600080fd5b50565b6135b5816134d5565b81146135c057600080fd5b50565b6135cc81613521565b81146135d757600080fd5b5056fe455243313135353a20696e73756666696369656e742062616c616e636520666f72207472616e73666572a365627a7a723158201d0838367dcb65501222f38cac393a1ac796f28e216928eec152812cd46dbd246c6578706572696d656e74616cf564736f6c634300050c0040",
  "source": "pragma solidity ^0.5.12;\npragma experimental ABIEncoderV2;\n\nimport './lib/ERC1155/ERC1155Lockable.sol';\nimport './lib/ERC1155/ERC1155Mintable.sol';\n\ncontract StashBlox is ERC1155Lockable, ERC1155Mintable {\n\n}\n",
  "sourcePath": "/home/ouziel/Work/StashBloxContracts/contracts/StashBlox.sol",
  "compiler": {
    "name": "solc",
    "version": "0.5.12+commit.7709ece9.Emscripten.clang"
  },
  "schemaVersion": "3.0.16",
  "updatedAt": "2020-04-01T16:01:41.405Z",
  "devdoc": {
    "methods": {
      "balanceOf(address,uint256)": {
        "details": "Get the specified address' balance for token with specified ID. Attempting to query the zero account for a balance will result in a revert.",
        "params": {
          "account": "The address of the token holder",
          "id": "ID of the token"
        },
        "return": "The account's balance of the token type requested"
      },
      "balanceOfBatch(address[],uint256[])": {
        "details": "Get the balance of multiple account/token pairs. If any of the query accounts is the zero account, this query will revert.",
        "params": {
          "accounts": "The addresses of the token holders",
          "ids": "IDs of the tokens"
        },
        "return": "Balances for each account and token id pair"
      },
      "createTokens(uint256[],address[],uint256[],uint256[])": {
        "details": "Function to mint an amount of a token with the given ID.",
        "params": {
          "ids": "ID of the token to be minted",
          "recipients": "The addresses that will own the minted token",
          "values": "Amount of the token to be minted for each recipient"
        }
      },
      "isApprovedForAll(address,address)": {
        "params": {
          "account": "The account of the Tokens",
          "operator": "Address of authorized operator"
        },
        "return": "True if the operator is approved, false if not"
      },
      "owner()": {
        "details": "Returns the address of the current owner."
      },
      "safeBatchTransferFrom(address,address,uint256[],uint256[],bytes)": {
        "details": "Transfers `values` amount(s) of `ids` from the `from` address to the `to` address specified. Caller must be approved to manage the tokens being transferred out of the `from` account. If `to` is a smart contract, will call `onERC1155BatchReceived` on `to` and act appropriately.",
        "params": {
          "data": "Data forwarded to `onERC1155Received` if `to` is a contract receiver",
          "from": "Source address",
          "ids": "IDs of each token type",
          "to": "Target address",
          "values": "Transfer amounts per token type"
        }
      },
      "safeTransferFrom(address,address,uint256,uint256,bytes)": {
        "details": "Transfers `value` amount of an `id` from the `from` address to the `to` address specified. Caller must be approved to manage the tokens being transferred out of the `from` account. If `to` is a smart contract, will call `onERC1155Received` on `to` and act appropriately.",
        "params": {
          "data": "Data forwarded to `onERC1155Received` if `to` is a contract receiver",
          "from": "Source address",
          "id": "ID of the token type",
          "to": "Target address",
          "value": "Transfer amount"
        }
      },
      "setApprovalForAll(address,bool)": {
        "details": "Sets or unsets the approval of a given operator.     * An operator is allowed to transfer all tokens of the sender on their behalf.     * Because an account already has operator privileges for itself, this function will revert if the account attempts to set the approval status for itself.",
        "params": {
          "approved": "representing the status of the approval to be set",
          "operator": "address to set the approval"
        }
      },
      "supportsInterface(bytes4)": {
        "params": {
          "_interfaceID": "The interface identifier, as specified in ERC-165"
        },
        "return": "`true` if the contract implements `_interfaceID` and"
      },
      "totalSupply(uint256)": {
        "params": {
          "id": "Token ID"
        },
        "return": "Token supply"
      },
      "transferOwnership(address)": {
        "details": "Transfers ownership of the contract to a new account (`newOwner`). Can only be called by the current owner."
      },
      "uri(uint256)": {
        "params": {
          "id": "Token ID"
        },
        "return": "URI string"
      }
    }
  },
  "userdoc": {
    "methods": {
      "isApprovedForAll(address,address)": {
        "notice": "Queries the approval status of an operator for a given account."
      },
      "supportsInterface(bytes4)": {
        "notice": "Query if a contract implements an interface"
      }
    }
  }
}