{
  "contractName": "StashBlox",
  "abi": [
    {
      "anonymous": false,
      "inputs": [
        {
          "indexed": true,
          "internalType": "address",
          "name": "_owner",
          "type": "address"
        },
        {
          "indexed": true,
          "internalType": "address",
          "name": "_operator",
          "type": "address"
        },
        {
          "indexed": false,
          "internalType": "bool",
          "name": "_approved",
          "type": "bool"
        }
      ],
      "name": "ApprovalForAll",
      "type": "event"
    },
    {
      "anonymous": false,
      "inputs": [
        {
          "indexed": true,
          "internalType": "uint256",
          "name": "dealId",
          "type": "uint256"
        }
      ],
      "name": "DealCancelled",
      "type": "event"
    },
    {
      "anonymous": false,
      "inputs": [
        {
          "indexed": true,
          "internalType": "uint256",
          "name": "dealId",
          "type": "uint256"
        }
      ],
      "name": "DealConfirmed",
      "type": "event"
    },
    {
      "anonymous": false,
      "inputs": [
        {
          "indexed": true,
          "internalType": "uint256",
          "name": "id",
          "type": "uint256"
        },
        {
          "indexed": false,
          "internalType": "uint256",
          "name": "hash",
          "type": "uint256"
        },
        {
          "indexed": false,
          "internalType": "string",
          "name": "name",
          "type": "string"
        }
      ],
      "name": "DocumentAdded",
      "type": "event"
    },
    {
      "anonymous": false,
      "inputs": [
        {
          "indexed": true,
          "internalType": "uint256",
          "name": "offerId",
          "type": "uint256"
        },
        {
          "indexed": true,
          "internalType": "uint256",
          "name": "dealId",
          "type": "uint256"
        },
        {
          "indexed": true,
          "internalType": "address",
          "name": "buyer",
          "type": "address"
        },
        {
          "indexed": false,
          "internalType": "uint256",
          "name": "amount",
          "type": "uint256"
        },
        {
          "indexed": false,
          "internalType": "uint256",
          "name": "endCancellationPeriod",
          "type": "uint256"
        }
      ],
      "name": "OfferAccepted",
      "type": "event"
    },
    {
      "anonymous": false,
      "inputs": [
        {
          "indexed": true,
          "internalType": "uint256",
          "name": "offerId",
          "type": "uint256"
        }
      ],
      "name": "OfferCancelled",
      "type": "event"
    },
    {
      "anonymous": false,
      "inputs": [
        {
          "indexed": true,
          "internalType": "uint256",
          "name": "offerId",
          "type": "uint256"
        },
        {
          "indexed": true,
          "internalType": "uint256",
          "name": "tokenId",
          "type": "uint256"
        },
        {
          "indexed": true,
          "internalType": "address",
          "name": "from",
          "type": "address"
        },
        {
          "indexed": false,
          "internalType": "uint256",
          "name": "amount",
          "type": "uint256"
        },
        {
          "indexed": false,
          "internalType": "uint256",
          "name": "priceCurrency",
          "type": "uint256"
        },
        {
          "indexed": false,
          "internalType": "uint256",
          "name": "price",
          "type": "uint256"
        }
      ],
      "name": "OfferOpened",
      "type": "event"
    },
    {
      "anonymous": false,
      "inputs": [
        {
          "indexed": true,
          "internalType": "address",
          "name": "previousOwner",
          "type": "address"
        },
        {
          "indexed": true,
          "internalType": "address",
          "name": "newOwner",
          "type": "address"
        }
      ],
      "name": "OwnershipTransferred",
      "type": "event"
    },
    {
      "anonymous": false,
      "inputs": [
        {
          "indexed": true,
          "internalType": "address",
          "name": "_operator",
          "type": "address"
        },
        {
          "indexed": true,
          "internalType": "address",
          "name": "_from",
          "type": "address"
        },
        {
          "indexed": true,
          "internalType": "address",
          "name": "_to",
          "type": "address"
        },
        {
          "indexed": false,
          "internalType": "uint256[]",
          "name": "_ids",
          "type": "uint256[]"
        },
        {
          "indexed": false,
          "internalType": "uint256[]",
          "name": "_values",
          "type": "uint256[]"
        }
      ],
      "name": "TransferBatch",
      "type": "event"
    },
    {
      "anonymous": false,
      "inputs": [
        {
          "indexed": true,
          "internalType": "address",
          "name": "_operator",
          "type": "address"
        },
        {
          "indexed": true,
          "internalType": "address",
          "name": "_from",
          "type": "address"
        },
        {
          "indexed": true,
          "internalType": "address",
          "name": "_to",
          "type": "address"
        },
        {
          "indexed": false,
          "internalType": "uint256",
          "name": "_id",
          "type": "uint256"
        },
        {
          "indexed": false,
          "internalType": "uint256",
          "name": "_value",
          "type": "uint256"
        }
      ],
      "name": "TransferSingle",
      "type": "event"
    },
    {
      "anonymous": false,
      "inputs": [
        {
          "indexed": false,
          "internalType": "string",
          "name": "_value",
          "type": "string"
        },
        {
          "indexed": true,
          "internalType": "uint256",
          "name": "_id",
          "type": "uint256"
        }
      ],
      "name": "URI",
      "type": "event"
    },
    {
      "constant": true,
      "inputs": [],
      "name": "BASE_URI",
      "outputs": [
        {
          "internalType": "string",
          "name": "",
          "type": "string"
        }
      ],
      "payable": false,
      "stateMutability": "view",
      "type": "function"
    },
    {
      "constant": true,
      "inputs": [],
      "name": "DOCUMENTS_BASE_URI",
      "outputs": [
        {
          "internalType": "string",
          "name": "",
          "type": "string"
        }
      ],
      "payable": false,
      "stateMutability": "view",
      "type": "function"
    },
    {
      "constant": false,
      "inputs": [
        {
          "internalType": "uint256",
          "name": "id",
          "type": "uint256"
        },
        {
          "internalType": "uint256",
          "name": "docHash",
          "type": "uint256"
        },
        {
          "internalType": "string",
          "name": "docName",
          "type": "string"
        }
      ],
      "name": "addDocument",
      "outputs": [],
      "payable": false,
      "stateMutability": "nonpayable",
      "type": "function"
    },
    {
      "constant": false,
      "inputs": [
        {
          "internalType": "uint256[]",
          "name": "ids",
          "type": "uint256[]"
        },
        {
          "internalType": "uint256[]",
          "name": "docHashes",
          "type": "uint256[]"
        },
        {
          "internalType": "string[]",
          "name": "docNames",
          "type": "string[]"
        }
      ],
      "name": "addDocuments",
      "outputs": [],
      "payable": false,
      "stateMutability": "nonpayable",
      "type": "function"
    },
    {
      "constant": false,
      "inputs": [
        {
          "internalType": "address",
          "name": "tokenizer",
          "type": "address"
        }
      ],
      "name": "authorizeTokenizer",
      "outputs": [],
      "payable": false,
      "stateMutability": "nonpayable",
      "type": "function"
    },
    {
      "constant": true,
      "inputs": [
        {
          "internalType": "address",
          "name": "account",
          "type": "address"
        },
        {
          "internalType": "uint256",
          "name": "id",
          "type": "uint256"
        }
      ],
      "name": "balanceOf",
      "outputs": [
        {
          "internalType": "uint256",
          "name": "",
          "type": "uint256"
        }
      ],
      "payable": false,
      "stateMutability": "view",
      "type": "function"
    },
    {
      "constant": true,
      "inputs": [
        {
          "internalType": "address[]",
          "name": "accounts",
          "type": "address[]"
        },
        {
          "internalType": "uint256[]",
          "name": "ids",
          "type": "uint256[]"
        }
      ],
      "name": "balanceOfBatch",
      "outputs": [
        {
          "internalType": "uint256[]",
          "name": "",
          "type": "uint256[]"
        }
      ],
      "payable": false,
      "stateMutability": "view",
      "type": "function"
    },
    {
      "constant": false,
      "inputs": [
        {
          "internalType": "uint256[]",
          "name": "offerIds",
          "type": "uint256[]"
        }
      ],
      "name": "cancelOffers",
      "outputs": [],
      "payable": false,
      "stateMutability": "nonpayable",
      "type": "function"
    },
    {
      "constant": false,
      "inputs": [
        {
          "internalType": "uint256[]",
          "name": "dealIds",
          "type": "uint256[]"
        }
      ],
      "name": "confirmDeals",
      "outputs": [],
      "payable": false,
      "stateMutability": "nonpayable",
      "type": "function"
    },
    {
      "constant": false,
      "inputs": [
        {
          "internalType": "uint256[]",
          "name": "ids",
          "type": "uint256[]"
        },
        {
          "internalType": "address[]",
          "name": "recipients",
          "type": "address[]"
        },
        {
          "internalType": "uint256[]",
          "name": "values",
          "type": "uint256[]"
        }
      ],
      "name": "createTokens",
      "outputs": [],
      "payable": false,
      "stateMutability": "nonpayable",
      "type": "function"
    },
    {
      "constant": true,
      "inputs": [
        {
          "internalType": "uint256",
          "name": "docHash",
          "type": "uint256"
        }
      ],
      "name": "documentUri",
      "outputs": [
        {
          "internalType": "string",
          "name": "",
          "type": "string"
        }
      ],
      "payable": false,
      "stateMutability": "pure",
      "type": "function"
    },
    {
      "constant": true,
      "inputs": [
        {
          "internalType": "address",
          "name": "account",
          "type": "address"
        },
        {
          "internalType": "address",
          "name": "operator",
          "type": "address"
        }
      ],
      "name": "isApprovedForAll",
      "outputs": [
        {
          "internalType": "bool",
          "name": "",
          "type": "bool"
        }
      ],
      "payable": false,
      "stateMutability": "view",
      "type": "function"
    },
    {
      "constant": true,
      "inputs": [
        {
          "internalType": "address",
          "name": "addr",
          "type": "address"
        }
      ],
      "name": "isLockedAddress",
      "outputs": [
        {
          "internalType": "bool",
          "name": "",
          "type": "bool"
        }
      ],
      "payable": false,
      "stateMutability": "view",
      "type": "function"
    },
    {
      "constant": true,
      "inputs": [
        {
          "internalType": "uint256",
          "name": "id",
          "type": "uint256"
        }
      ],
      "name": "isLockedToken",
      "outputs": [
        {
          "internalType": "bool",
          "name": "",
          "type": "bool"
        }
      ],
      "payable": false,
      "stateMutability": "view",
      "type": "function"
    },
    {
      "constant": true,
      "inputs": [
        {
          "internalType": "address",
          "name": "tokenizer",
          "type": "address"
        }
      ],
      "name": "isTokenizer",
      "outputs": [
        {
          "internalType": "bool",
          "name": "",
          "type": "bool"
        }
      ],
      "payable": false,
      "stateMutability": "view",
      "type": "function"
    },
    {
      "constant": false,
      "inputs": [
        {
          "internalType": "address",
          "name": "addr",
          "type": "address"
        }
      ],
      "name": "lockAddress",
      "outputs": [],
      "payable": false,
      "stateMutability": "nonpayable",
      "type": "function"
    },
    {
      "constant": false,
      "inputs": [
        {
          "internalType": "uint256",
          "name": "id",
          "type": "uint256"
        }
      ],
      "name": "lockToken",
      "outputs": [],
      "payable": false,
      "stateMutability": "nonpayable",
      "type": "function"
    },
    {
      "constant": false,
      "inputs": [
        {
          "internalType": "uint256[]",
          "name": "offerIds",
          "type": "uint256[]"
        },
        {
          "internalType": "address[]",
          "name": "buyers",
          "type": "address[]"
        },
        {
          "internalType": "uint256[]",
          "name": "amounts",
          "type": "uint256[]"
        },
        {
          "internalType": "uint256[]",
          "name": "cancellationPeriods",
          "type": "uint256[]"
        }
      ],
      "name": "onOffersAccepted",
      "outputs": [
        {
          "internalType": "uint256[]",
          "name": "dealIds",
          "type": "uint256[]"
        }
      ],
      "payable": false,
      "stateMutability": "nonpayable",
      "type": "function"
    },
    {
      "constant": false,
      "inputs": [
        {
          "internalType": "uint256[]",
          "name": "dealIds",
          "type": "uint256[]"
        }
      ],
      "name": "onPaymentsCancelled",
      "outputs": [],
      "payable": false,
      "stateMutability": "nonpayable",
      "type": "function"
    },
    {
      "constant": false,
      "inputs": [
        {
          "internalType": "uint256[]",
          "name": "tokenIds",
          "type": "uint256[]"
        },
        {
          "internalType": "uint256[]",
          "name": "amounts",
          "type": "uint256[]"
        },
        {
          "internalType": "uint256[]",
          "name": "prices",
          "type": "uint256[]"
        },
        {
          "internalType": "uint256",
          "name": "priceCurrency",
          "type": "uint256"
        },
        {
          "internalType": "bool",
          "name": "acceptPartial",
          "type": "bool"
        },
        {
          "internalType": "address",
          "name": "paymentOfficer",
          "type": "address"
        },
        {
          "internalType": "address[]",
          "name": "authorizedBuyers",
          "type": "address[]"
        }
      ],
      "name": "openOffers",
      "outputs": [
        {
          "internalType": "uint256[]",
          "name": "offerIds",
          "type": "uint256[]"
        }
      ],
      "payable": false,
      "stateMutability": "nonpayable",
      "type": "function"
    },
    {
      "constant": true,
      "inputs": [],
      "name": "owner",
      "outputs": [
        {
          "internalType": "address",
          "name": "",
          "type": "address"
        }
      ],
      "payable": false,
      "stateMutability": "view",
      "type": "function"
    },
    {
      "constant": false,
      "inputs": [
        {
          "internalType": "address",
          "name": "tokenizer",
          "type": "address"
        }
      ],
      "name": "revokeTokenizer",
      "outputs": [],
      "payable": false,
      "stateMutability": "nonpayable",
      "type": "function"
    },
    {
      "constant": false,
      "inputs": [
        {
          "internalType": "address",
          "name": "from",
          "type": "address"
        },
        {
          "internalType": "address",
          "name": "to",
          "type": "address"
        },
        {
          "internalType": "uint256[]",
          "name": "ids",
          "type": "uint256[]"
        },
        {
          "internalType": "uint256[]",
          "name": "values",
          "type": "uint256[]"
        },
        {
          "internalType": "bytes",
          "name": "data",
          "type": "bytes"
        }
      ],
      "name": "safeBatchTransferFrom",
      "outputs": [],
      "payable": false,
      "stateMutability": "nonpayable",
      "type": "function"
    },
    {
      "constant": false,
      "inputs": [
        {
          "internalType": "address",
          "name": "from",
          "type": "address"
        },
        {
          "internalType": "address",
          "name": "to",
          "type": "address"
        },
        {
          "internalType": "uint256",
          "name": "id",
          "type": "uint256"
        },
        {
          "internalType": "uint256",
          "name": "value",
          "type": "uint256"
        },
        {
          "internalType": "bytes",
          "name": "data",
          "type": "bytes"
        }
      ],
      "name": "safeTransferFrom",
      "outputs": [],
      "payable": false,
      "stateMutability": "nonpayable",
      "type": "function"
    },
    {
      "constant": false,
      "inputs": [
        {
          "internalType": "address",
          "name": "operator",
          "type": "address"
        },
        {
          "internalType": "bool",
          "name": "approved",
          "type": "bool"
        }
      ],
      "name": "setApprovalForAll",
      "outputs": [],
      "payable": false,
      "stateMutability": "nonpayable",
      "type": "function"
    },
    {
      "constant": true,
      "inputs": [
        {
          "internalType": "bytes4",
          "name": "_interfaceID",
          "type": "bytes4"
        }
      ],
      "name": "supportsInterface",
      "outputs": [
        {
          "internalType": "bool",
          "name": "",
          "type": "bool"
        }
      ],
      "payable": false,
      "stateMutability": "view",
      "type": "function"
    },
    {
      "constant": true,
      "inputs": [
        {
          "internalType": "uint256",
          "name": "id",
          "type": "uint256"
        }
      ],
      "name": "totalSupply",
      "outputs": [
        {
          "internalType": "uint256",
          "name": "",
          "type": "uint256"
        }
      ],
      "payable": false,
      "stateMutability": "view",
      "type": "function"
    },
    {
      "constant": false,
      "inputs": [
        {
          "internalType": "address",
          "name": "newOwner",
          "type": "address"
        }
      ],
      "name": "transferOwnership",
      "outputs": [],
      "payable": false,
      "stateMutability": "nonpayable",
      "type": "function"
    },
    {
      "constant": false,
      "inputs": [
        {
          "internalType": "address",
          "name": "addr",
          "type": "address"
        }
      ],
      "name": "unlockAddress",
      "outputs": [],
      "payable": false,
      "stateMutability": "nonpayable",
      "type": "function"
    },
    {
      "constant": false,
      "inputs": [
        {
          "internalType": "uint256",
          "name": "id",
          "type": "uint256"
        }
      ],
      "name": "unlockToken",
      "outputs": [],
      "payable": false,
      "stateMutability": "nonpayable",
      "type": "function"
    },
    {
      "constant": true,
      "inputs": [
        {
          "internalType": "uint256",
          "name": "id",
          "type": "uint256"
        }
      ],
      "name": "uri",
      "outputs": [
        {
          "internalType": "string",
          "name": "",
          "type": "string"
        }
      ],
      "payable": false,
      "stateMutability": "view",
      "type": "function"
    }
  ],
  "bytecode": "0x608060405262000015336200001b60201b60201c565b620001e9565b600073ffffffffffffffffffffffffffffffffffffffff168173ffffffffffffffffffffffffffffffffffffffff1614156200008e576040517f08c379a00000000000000000000000000000000000000000000000000000000081526004016200008590620001b6565b60405180910390fd5b8073ffffffffffffffffffffffffffffffffffffffff16600260009054906101000a900473ffffffffffffffffffffffffffffffffffffffff1673ffffffffffffffffffffffffffffffffffffffff167f8be0079c531659141344cd1fd0a4f28419497f9722a3daafe3b4186f6b6457e060405160405180910390a380600260006101000a81548173ffffffffffffffffffffffffffffffffffffffff021916908373ffffffffffffffffffffffffffffffffffffffff16021790555050565b60006200015d602683620001d8565b91507f4f776e61626c653a206e6577206f776e657220697320746865207a65726f206160008301527f64647265737300000000000000000000000000000000000000000000000000006020830152604082019050919050565b60006020820190508181036000830152620001d1816200014e565b9050919050565b600082825260208201905092915050565b61642d80620001f96000396000f3fe608060405234801561001057600080fd5b50600436106101e45760003560e01c80638842ec221161010f578063cba54e60116100a2578063e985e9c511610071578063e985e9c5146105bf578063f242432a146105ef578063f2fde38b1461060b578063f46e049b14610627576101e4565b8063cba54e6014610539578063dbddb26a14610569578063dd2e0ac014610587578063e5d09afe146105a3576101e4565b8063b7eb5e0a116100de578063b7eb5e0a1461048d578063bba75c83146104a9578063bd85b039146104d9578063c02f303c14610509576101e4565b80638842ec221461041b5780638870147b146104375780638da5cb5b14610453578063a22cb46514610471576101e4565b80634ae25a8611610187578063713b47a111610156578063713b47a1146103ab5780637627b732146103c757806378e81535146103e357806380f20363146103ff576101e4565b80634ae25a86146103115780634e1273f41461032d57806361feed5c1461035d57806364d7e0531461037b576101e4565b80632eb2c2d6116101c35780632eb2c2d61461027957806334a90d02146102955780633c093120146102b157806349342ac8146102e1576101e4565b8062fdd58e146101e957806301ffc9a7146102195780630e89341c14610249575b600080fd5b61020360048036036101fe9190810190614978565b610643565b60405161021091906160f9565b60405180910390f35b610233600480360361022e9190810190614d92565b61070c565b6040516102409190615c7a565b60405180910390f35b610263600480360361025e9190810190614de4565b6107bd565b6040516102709190615cb7565b60405180910390f35b610293600480360361028e91908101906147de565b61080d565b005b6102af60048036036102aa9190810190614779565b610af8565b005b6102cb60048036036102c69190810190614b09565b610b9a565b6040516102d89190615c58565b60405180910390f35b6102fb60048036036102f69190810190614c82565b610cbb565b6040516103089190615c58565b60405180910390f35b61032b60048036036103269190810190614a20565b610df3565b005b610347600480360361034291908101906149b4565b610e2f565b6040516103549190615c58565b60405180910390f35b610365610fe0565b6040516103729190615c95565b60405180910390f35b61039560048036036103909190810190614de4565b611019565b6040516103a29190615cb7565b60405180910390f35b6103c560048036036103c09190810190614a20565b611069565b005b6103e160048036036103dc9190810190614779565b6110a5565b005b6103fd60048036036103f89190810190614a20565b611147565b005b61041960048036036104149190810190614de4565b611183565b005b61043560048036036104309190810190614e0d565b6111f9565b005b610451600480360361044c9190810190614779565b611295565b005b61045b611337565b6040516104689190615b40565b60405180910390f35b61048b6004803603610486919081019061493c565b611361565b005b6104a760048036036104a29190810190614779565b6114cd565b005b6104c360048036036104be9190810190614de4565b61156f565b6040516104d09190615c7a565b60405180910390f35b6104f360048036036104ee9190810190614de4565b611581565b60405161050091906160f9565b60405180910390f35b610523600480360361051e9190810190614779565b61159e565b6040516105309190615c7a565b60405180910390f35b610553600480360361054e9190810190614779565b6115f4565b6040516105609190615c7a565b60405180910390f35b610571611606565b60405161057e9190615c95565b60405180910390f35b6105a1600480360361059c9190810190614de4565b61163f565b005b6105bd60048036036105b89190810190614a65565b6116b5565b005b6105d960048036036105d491908101906147a2565b611a89565b6040516105e69190615c7a565b60405180910390f35b610609600480360361060491908101906148aa565b611b1d565b005b61062560048036036106209190810190614779565b611cf7565b005b610641600480360361063c9190810190614bde565b611d4a565b005b60008073ffffffffffffffffffffffffffffffffffffffff168373ffffffffffffffffffffffffffffffffffffffff1614156106b4576040517f08c379a00000000000000000000000000000000000000000000000000000000081526004016106ab90615cf9565b60405180910390fd5b60008083815260200190815260200160002060008473ffffffffffffffffffffffffffffffffffffffff1673ffffffffffffffffffffffffffffffffffffffff16815260200190815260200160002054905092915050565b60006301ffc9a760e01b7bffffffffffffffffffffffffffffffffffffffffffffffffffffffff1916827bffffffffffffffffffffffffffffffffffffffffffffffffffffffff191614806107a5575063d9b67a2660e01b7bffffffffffffffffffffffffffffffffffffffffffffffffffffffff1916827bffffffffffffffffffffffffffffffffffffffffffffffffffffffff1916145b156107b357600190506107b8565b600090505b919050565b60606108066040518060400160405280601d81526020017f68747470733a2f2f7374617368626c6f782e636f6d2f746f6b656e732f00000081525061080184611f17565b612006565b9050919050565b838390508686905014610855576040517f08c379a000000000000000000000000000000000000000000000000000000000815260040161084c90616019565b60405180910390fd5b600073ffffffffffffffffffffffffffffffffffffffff168773ffffffffffffffffffffffffffffffffffffffff1614156108c5576040517f08c379a00000000000000000000000000000000000000000000000000000000081526004016108bc90615d59565b60405180910390fd5b3373ffffffffffffffffffffffffffffffffffffffff168873ffffffffffffffffffffffffffffffffffffffff16148061090c5750600115156109088933611a89565b1515145b61094b576040517f08c379a000000000000000000000000000000000000000000000000000000000815260040161094290615ff9565b60405180910390fd5b60008090505b868690508110156109975761098c898989898581811061096d57fe5b9050602002013588888681811061098057fe5b90506020020135612151565b806001019050610951565b508673ffffffffffffffffffffffffffffffffffffffff168873ffffffffffffffffffffffffffffffffffffffff163373ffffffffffffffffffffffffffffffffffffffff167f4a39dc06d4c0dbc64b70af90fd698a233a518aa5d07e595d983b8c0526c8f7fb89898989604051610a129493929190615c1d565b60405180910390a4610aee338989898980806020026020016040519081016040528093929190818152602001838360200280828437600081840152601f19601f82011690508083019250505050505050888880806020026020016040519081016040528093929190818152602001838360200280828437600081840152601f19601f8201169050808301925050505050505087878080601f016020809104026020016040519081016040528093929190818152602001838380828437600081840152601f19601f820116905080830192505050505050506121d0565b5050505050505050565b610b0061232f565b610b3f576040517f08c379a0000000000000000000000000000000000000000000000000000000008152600401610b3690615f79565b60405180910390fd5b6001600460008373ffffffffffffffffffffffffffffffffffffffff1673ffffffffffffffffffffffffffffffffffffffff16815260200190815260200160002060006101000a81548160ff02191690831515021790555050565b6060600089899050118015610bb457508888905087879050145b8015610bc557508686905085859050145b8015610bd657508484905083839050145b610c15576040517f08c379a0000000000000000000000000000000000000000000000000000000008152600401610c0c90615fd9565b60405180910390fd5b60008090505b89899050811015610cab57610c888a8a83818110610c3557fe5b90506020020135898984818110610c4857fe5b9050602002016020610c5d9190810190614779565b888885818110610c6957fe5b90506020020135878786818110610c7c57fe5b90506020020135612387565b828281518110610c9457fe5b602002602001018181525050806001019050610c1b565b5080905098975050505050505050565b606060008c8c9050118015610cd557508b8b90508a8a9050145b8015610ce657508989905088889050145b610d25576040517f08c379a0000000000000000000000000000000000000000000000000000000008152600401610d1c90615fd9565b60405180910390fd5b60008090505b8c8c9050811015610de057610dbd8d8d83818110610d4557fe5b90506020020135338d8d85818110610d5957fe5b905060200201358c8c86818110610d6c57fe5b905060200201358b8b8b8b8b80806020026020016040519081016040528093929190818152602001838360200280828437600081840152601f19601f82011690508083019250505050505050612a4b565b828281518110610dc957fe5b602002602001018181525050806001019050610d2b565b508090509b9a5050505050505050505050565b60008090505b82829050811015610e2a57610e1f838383818110610e1357fe5b90506020020135612f23565b806001019050610df9565b505050565b60608151835114610e75576040517f08c379a0000000000000000000000000000000000000000000000000000000008152600401610e6c90615e39565b60405180910390fd5b60608351604051908082528060200260200182016040528015610ea75781602001602082028038833980820191505090505b50905060008090505b8451811015610fd557600073ffffffffffffffffffffffffffffffffffffffff16858281518110610edd57fe5b602002602001015173ffffffffffffffffffffffffffffffffffffffff161415610f3c576040517f08c379a0000000000000000000000000000000000000000000000000000000008152600401610f3390615ef9565b60405180910390fd5b600080858381518110610f4b57fe5b602002602001015181526020019081526020016000206000868381518110610f6f57fe5b602002602001015173ffffffffffffffffffffffffffffffffffffffff1673ffffffffffffffffffffffffffffffffffffffff16815260200190815260200160002054828281518110610fbe57fe5b602002602001018181525050806001019050610eb0565b508091505092915050565b6040518060400160405280602081526020017f68747470733a2f2f7374617368626c6f782e636f6d2f646f63756d656e74732f81525081565b60606110626040518060400160405280602081526020017f68747470733a2f2f7374617368626c6f782e636f6d2f646f63756d656e74732f81525061105d84611f17565b612006565b9050919050565b60008090505b828290508110156110a05761109583838381811061108957fe5b90506020020135613259565b80600101905061106f565b505050565b6110ad61232f565b6110ec576040517f08c379a00000000000000000000000000000000000000000000000000000000081526004016110e390615f79565b60405180910390fd5b6001600660008373ffffffffffffffffffffffffffffffffffffffff1673ffffffffffffffffffffffffffffffffffffffff16815260200190815260200160002060006101000a81548160ff02191690831515021790555050565b60008090505b8282905081101561117e5761117383838381811061116757fe5b905060200201356136f5565b80600101905061114d565b505050565b61118b61232f565b6111ca576040517f08c379a00000000000000000000000000000000000000000000000000000000081526004016111c190615f79565b60405180910390fd5b60016003600083815260200190815260200160002060006101000a81548160ff02191690831515021790555050565b61120161232f565b611240576040517f08c379a000000000000000000000000000000000000000000000000000000000815260040161123790615f79565b60405180910390fd5b61128f848484848080601f016020809104026020016040519081016040528093929190818152602001838380828437600081840152601f19601f82011690508083019250505050505050613bac565b50505050565b61129d61232f565b6112dc576040517f08c379a00000000000000000000000000000000000000000000000000000000081526004016112d390615f79565b60405180910390fd5b6000600660008373ffffffffffffffffffffffffffffffffffffffff1673ffffffffffffffffffffffffffffffffffffffff16815260200190815260200160002060006101000a81548160ff02191690831515021790555050565b6000600260009054906101000a900473ffffffffffffffffffffffffffffffffffffffff16905090565b8173ffffffffffffffffffffffffffffffffffffffff163373ffffffffffffffffffffffffffffffffffffffff1614156113d0576040517f08c379a00000000000000000000000000000000000000000000000000000000081526004016113c790615dd9565b60405180910390fd5b80600160003373ffffffffffffffffffffffffffffffffffffffff1673ffffffffffffffffffffffffffffffffffffffff16815260200190815260200160002060008473ffffffffffffffffffffffffffffffffffffffff1673ffffffffffffffffffffffffffffffffffffffff16815260200190815260200160002060006101000a81548160ff0219169083151502179055508173ffffffffffffffffffffffffffffffffffffffff163373ffffffffffffffffffffffffffffffffffffffff167f17307eab39ab6107e8899845ad3d59bd9653f200f220920489ca2b5937696c31836040516114c19190615c7a565b60405180910390a35050565b6114d561232f565b611514576040517f08c379a000000000000000000000000000000000000000000000000000000000815260040161150b90615f79565b60405180910390fd5b6000600460008373ffffffffffffffffffffffffffffffffffffffff1673ffffffffffffffffffffffffffffffffffffffff16815260200190815260200160002060006101000a81548160ff02191690831515021790555050565b600061157a82613c24565b9050919050565b600060056000838152602001908152602001600020549050919050565b6000600660008373ffffffffffffffffffffffffffffffffffffffff1673ffffffffffffffffffffffffffffffffffffffff16815260200190815260200160002060009054906101000a900460ff169050919050565b60006115ff82613c4e565b9050919050565b6040518060400160405280601d81526020017f68747470733a2f2f7374617368626c6f782e636f6d2f746f6b656e732f00000081525081565b61164761232f565b611686576040517f08c379a000000000000000000000000000000000000000000000000000000000815260040161167d90615f79565b60405180910390fd5b60006003600083815260200190815260200160002060006101000a81548160ff02191690831515021790555050565b6116bd61232f565b6116fc576040517f08c379a00000000000000000000000000000000000000000000000000000000081526004016116f390615f79565b60405180910390fd5b600660003373ffffffffffffffffffffffffffffffffffffffff1673ffffffffffffffffffffffffffffffffffffffff16815260200190815260200160002060009054906101000a900460ff16611788576040517f08c379a000000000000000000000000000000000000000000000000000000000815260040161177f90615d99565b60405180910390fd5b8383905086869050146117d0576040517f08c379a00000000000000000000000000000000000000000000000000000000081526004016117c790615db9565b60405180910390fd5b818190508484905014611818576040517f08c379a000000000000000000000000000000000000000000000000000000000815260040161180f90615e79565b60405180910390fd5b60008090505b8686905081101561189c5760006005600089898581811061183b57fe5b9050602002013581526020019081526020016000205414611891576040517f08c379a000000000000000000000000000000000000000000000000000000000815260040161188890615f39565b60405180910390fd5b80600101905061181e565b5060008090505b86869050811015611a805760008787838181106118bc57fe5b90506020020135905060008686848181106118d357fe5b90506020020160206118e89190810190614779565b905060008585858181106118f857fe5b905060200201359050611927816005600086815260200190815260200160002054613ca490919063ffffffff16565b60056000858152602001908152602001600020819055506119a08160008086815260200190815260200160002060008573ffffffffffffffffffffffffffffffffffffffff1673ffffffffffffffffffffffffffffffffffffffff16815260200190815260200160002054613ca490919063ffffffff16565b60008085815260200190815260200160002060008473ffffffffffffffffffffffffffffffffffffffff1673ffffffffffffffffffffffffffffffffffffffff168152602001908152602001600020819055508173ffffffffffffffffffffffffffffffffffffffff16600073ffffffffffffffffffffffffffffffffffffffff163373ffffffffffffffffffffffffffffffffffffffff167fc3d58168c5ae7397731d063d5bbf3d657854427343f4c083240f7aacaa2d0f628685604051611a6a929190616144565b60405180910390a45050508060010190506118a3565b50505050505050565b6000600160008473ffffffffffffffffffffffffffffffffffffffff1673ffffffffffffffffffffffffffffffffffffffff16815260200190815260200160002060008373ffffffffffffffffffffffffffffffffffffffff1673ffffffffffffffffffffffffffffffffffffffff16815260200190815260200160002060009054906101000a900460ff16905092915050565b600073ffffffffffffffffffffffffffffffffffffffff168573ffffffffffffffffffffffffffffffffffffffff161415611b8d576040517f08c379a0000000000000000000000000000000000000000000000000000000008152600401611b8490615d59565b60405180910390fd5b3373ffffffffffffffffffffffffffffffffffffffff168673ffffffffffffffffffffffffffffffffffffffff161480611bd4575060011515611bd08733611a89565b1515145b611c13576040517f08c379a0000000000000000000000000000000000000000000000000000000008152600401611c0a90615ff9565b60405180910390fd5b611c1f86868686612151565b8473ffffffffffffffffffffffffffffffffffffffff168673ffffffffffffffffffffffffffffffffffffffff163373ffffffffffffffffffffffffffffffffffffffff167fc3d58168c5ae7397731d063d5bbf3d657854427343f4c083240f7aacaa2d0f628787604051611c95929190616144565b60405180910390a4611cef338787878787878080601f016020809104026020016040519081016040528093929190818152602001838380828437600081840152601f19601f82011690508083019250505050505050613cf9565b505050505050565b611cff61232f565b611d3e576040517f08c379a0000000000000000000000000000000000000000000000000000000008152600401611d3590615f79565b60405180910390fd5b611d4781613e58565b50565b611d5261232f565b611d91576040517f08c379a0000000000000000000000000000000000000000000000000000000008152600401611d8890615f79565b60405180910390fd5b838390508686905014611dd9576040517f08c379a0000000000000000000000000000000000000000000000000000000008152600401611dd090615fb9565b60405180910390fd5b818190508484905014611e21576040517f08c379a0000000000000000000000000000000000000000000000000000000008152600401611e1890615e19565b60405180910390fd5b60008090505b86869050811015611f0e57611f03878783818110611e4157fe5b90506020020135868684818110611e5457fe5b90506020020135858585818110611e6757fe5b9050602002810180356001602003833603038112611e8457600080fd5b8083019250508135905060208201915067ffffffffffffffff811115611ea957600080fd5b600181023603821315611ebb57600080fd5b8080601f016020809104026020016040519081016040528093929190818152602001838380828437600081840152601f19601f82011690508083019250505050505050613bac565b806001019050611e27565b50505050505050565b6060600080905060008390505b60008114611f4657818060010192505060108181611f3e57fe5b049050611f24565b6060826040519080825280601f01601f191660200182016040528015611f7b5781602001600182028038833980820191505090505b50905060008090505b83811015611ffa5760108681611f9657fe5b069250611fa283613f88565b8260018387030381518110611fb357fe5b60200101907effffffffffffffffffffffffffffffffffffffffffffffffffffffffffffff1916908160001a90535060108681611fec57fe5b049550806001019050611f84565b50809350505050919050565b6060808390506060839050606081518351016040519080825280601f01601f19166020018201604052801561204a5781602001600182028038833980820191505090505b509050606081905060008090506000809050600090505b85518110156120cf5785818151811061207657fe5b602001015160f81c60f81b83838060010194508151811061209357fe5b60200101907effffffffffffffffffffffffffffffffffffffffffffffffffffffffffffff1916908160001a9053508080600101915050612061565b600090505b8451811015612142578481815181106120e957fe5b602001015160f81c60f81b83838060010194508151811061210657fe5b60200101907effffffffffffffffffffffffffffffffffffffffffffffffffffffffffffff1916908160001a90535080806001019150506120d4565b82965050505050505092915050565b61215a82613c24565b15801561216d575061216b84613c4e565b155b801561217f575061217d83613c4e565b155b6121be576040517f08c379a00000000000000000000000000000000000000000000000000000000081526004016121b590615f59565b60405180910390fd5b6121ca84848484614031565b50505050565b6121ef8473ffffffffffffffffffffffffffffffffffffffff166141bb565b15612327578373ffffffffffffffffffffffffffffffffffffffff1663bc197c81905060e01b7bffffffffffffffffffffffffffffffffffffffffffffffffffffffff19168473ffffffffffffffffffffffffffffffffffffffff1663bc197c8188888787876040518663ffffffff1660e01b8152600401612275959493929190615b5b565b602060405180830381600087803b15801561228f57600080fd5b505af11580156122a3573d6000803e3d6000fd5b505050506040513d601f19601f820116820180604052506122c79190810190614dbb565b7bffffffffffffffffffffffffffffffffffffffffffffffffffffffff191614612326576040517f08c379a000000000000000000000000000000000000000000000000000000000815260040161231d90615e99565b60405180910390fd5b5b505050505050565b6000600260009054906101000a900473ffffffffffffffffffffffffffffffffffffffff1673ffffffffffffffffffffffffffffffffffffffff163373ffffffffffffffffffffffffffffffffffffffff1614905090565b6000612391614302565b600a6000878152602001908152602001600020604051806101a001604052908160008201548152602001600182015481526020016002820160009054906101000a900473ffffffffffffffffffffffffffffffffffffffff1673ffffffffffffffffffffffffffffffffffffffff1673ffffffffffffffffffffffffffffffffffffffff16815260200160038201548152602001600482015481526020016005820154815260200160068201548152602001600782015481526020016008820160009054906101000a900460ff161515151581526020016008820160019054906101000a900473ffffffffffffffffffffffffffffffffffffffff1673ffffffffffffffffffffffffffffffffffffffff1673ffffffffffffffffffffffffffffffffffffffff168152602001600a8201548152602001600b820160009054906101000a900460ff16151515158152602001600b820160019054906101000a900460ff161515151581525050905085816000015114612545576040517f08c379a000000000000000000000000000000000000000000000000000000000815260040161253c906160d9565b60405180910390fd5b80610160015161258a576040517f08c379a000000000000000000000000000000000000000000000000000000000815260040161258190616099565b60405180910390fd5b80610120015173ffffffffffffffffffffffffffffffffffffffff163373ffffffffffffffffffffffffffffffffffffffff16146125fd576040517f08c379a00000000000000000000000000000000000000000000000000000000081526004016125f490615d99565b60405180910390fd5b600081610140015111156126ac57600a600087815260200190815260200160002060090160008673ffffffffffffffffffffffffffffffffffffffff1673ffffffffffffffffffffffffffffffffffffffff16815260200190815260200160002060009054906101000a900460ff166126ab576040517f08c379a00000000000000000000000000000000000000000000000000000000081526004016126a290615d99565b60405180910390fd5b5b80610100015115612709578060800151816060015103841115612704576040517f08c379a00000000000000000000000000000000000000000000000000000000081526004016126fb90615df9565b60405180910390fd5b612750565b8060600151841461274f576040517f08c379a000000000000000000000000000000000000000000000000000000000815260040161274690615df9565b60405180910390fd5b5b83600a60008881526020019081526020016000206004015401600a600088815260200190815260200160002060040181905550600061278d614206565b90506000844201905060008142101590506127a661439c565b838160000181815250508981602001818152505088816040019073ffffffffffffffffffffffffffffffffffffffff16908173ffffffffffffffffffffffffffffffffffffffff16815250508781606001818152505082816080018181525050818160a001901515908115158152505080600b6000868152602001908152602001600020600082015181600001556020820151816001015560408201518160020160006101000a81548173ffffffffffffffffffffffffffffffffffffffff021916908373ffffffffffffffffffffffffffffffffffffffff160217905550606082015181600301556080820151816004015560a08201518160050160006101000a81548160ff02191690831515021790555060c08201518160050160016101000a81548160ff02191690831515021790555090505087600a60008c81526020019081526020016000206004015401600a60008c8152602001908152602001600020600401819055508873ffffffffffffffffffffffffffffffffffffffff16848b7f8f414bb7b1129208b5a842a85f18292a47ad72117cca38e4363cf80dc189ec168b87604051612959929190616144565b60405180910390a481156129d75761297685602001518a8a61421e565b87600a60008c81526020019081526020016000206005015401600a60008c815260200190815260200160002060050181905550837f9df29a48d557958defdbeb91dda0116b443663f2a358ab8947609973c5a7b51c60405160405180910390a25b600a60008b815260200190815260200160002060030154600a60008c8152602001908152602001600020600501541415612a3b576000600a60008c8152602001908152602001600020600b0160006101000a81548160ff0219169083151502179055505b8395505050505050949350505050565b600080600560008b81526020019081526020016000205411612aa2576040517f08c379a0000000000000000000000000000000000000000000000000000000008152600401612a9990615ed9565b60405180910390fd5b866000808b815260200190815260200160002060003373ffffffffffffffffffffffffffffffffffffffff1673ffffffffffffffffffffffffffffffffffffffff168152602001908152602001600020541015612b34576040517f08c379a0000000000000000000000000000000000000000000000000000000008152600401612b2b90615eb9565b60405180910390fd5b612b3d85614251565b612b7c576040517f08c379a0000000000000000000000000000000000000000000000000000000008152600401612b7390615e59565b60405180910390fd5b60008611612bbf576040517f08c379a0000000000000000000000000000000000000000000000000000000008152600401612bb690615cd9565b60405180910390fd5b6000612bc961425c565b9050612bd3614302565b818160000181815250508a81602001818152505089816040019073ffffffffffffffffffffffffffffffffffffffff16908173ffffffffffffffffffffffffffffffffffffffff168152505088816060018181525050868160c0018181525050878160e001818152505085816101000190151590811515815250508481610120019073ffffffffffffffffffffffffffffffffffffffff16908173ffffffffffffffffffffffffffffffffffffffff168152505060018161016001901515908115158152505080600a6000848152602001908152602001600020600082015181600001556020820151816001015560408201518160020160006101000a81548173ffffffffffffffffffffffffffffffffffffffff021916908373ffffffffffffffffffffffffffffffffffffffff160217905550606082015181600301556080820151816004015560a0820151816005015560c0820151816006015560e082015181600701556101008201518160080160006101000a81548160ff0219169083151502179055506101208201518160080160016101000a81548173ffffffffffffffffffffffffffffffffffffffff021916908373ffffffffffffffffffffffffffffffffffffffff16021790555061014082015181600a015561016082015181600b0160006101000a81548160ff02191690831515021790555061018082015181600b0160016101000a81548160ff02191690831515021790555090505060008090505b8451811015612eb2576001600a60008581526020019081526020016000206009016000878481518110612e2857fe5b602002602001015173ffffffffffffffffffffffffffffffffffffffff1673ffffffffffffffffffffffffffffffffffffffff16815260200190815260200160002060006101000a81548160ff021916908315150217905550600a6000848152602001908152602001600020600a0160008154809291906001019190505550806001019050612df9565b50612ebe8b338b614274565b8973ffffffffffffffffffffffffffffffffffffffff168b837f917c305b3fd6b7f7a61920199134f9d7f7be34db77537dad166bcebe584dac168c8b8d604051612f0a9392919061616d565b60405180910390a4819250505098975050505050505050565b612f2b614302565b600a6000838152602001908152602001600020604051806101a001604052908160008201548152602001600182015481526020016002820160009054906101000a900473ffffffffffffffffffffffffffffffffffffffff1673ffffffffffffffffffffffffffffffffffffffff1673ffffffffffffffffffffffffffffffffffffffff16815260200160038201548152602001600482015481526020016005820154815260200160068201548152602001600782015481526020016008820160009054906101000a900460ff161515151581526020016008820160019054906101000a900473ffffffffffffffffffffffffffffffffffffffff1673ffffffffffffffffffffffffffffffffffffffff1673ffffffffffffffffffffffffffffffffffffffff168152602001600a8201548152602001600b820160009054906101000a900460ff16151515158152602001600b820160019054906101000a900460ff1615151515815250509050818160000151146130df576040517f08c379a00000000000000000000000000000000000000000000000000000000081526004016130d6906160d9565b60405180910390fd5b80610160015180156130f45750806101800151155b613133576040517f08c379a000000000000000000000000000000000000000000000000000000000815260040161312a90616059565b60405180910390fd5b806040015173ffffffffffffffffffffffffffffffffffffffff163373ffffffffffffffffffffffffffffffffffffffff16146131a5576040517f08c379a000000000000000000000000000000000000000000000000000000000815260040161319c90615d99565b60405180910390fd5b6001600a6000848152602001908152602001600020600b0160016101000a81548160ff0219169083151502179055506000600a6000848152602001908152602001600020600b0160006101000a81548160ff02191690831515021790555060008160a0015182608001518360600151030390506132278260200151338361421e565b827fc28b4aed030bfacc245c0501326e1beb8c0ef0d60e4edc21067fdeb52da2a7aa60405160405180910390a2505050565b61326161439c565b600b60008381526020019081526020016000206040518060e001604052908160008201548152602001600182015481526020016002820160009054906101000a900473ffffffffffffffffffffffffffffffffffffffff1673ffffffffffffffffffffffffffffffffffffffff1673ffffffffffffffffffffffffffffffffffffffff16815260200160038201548152602001600482015481526020016005820160009054906101000a900460ff161515151581526020016005820160019054906101000a900460ff16151515158152505090508181600001511461337b576040517f08c379a000000000000000000000000000000000000000000000000000000000815260040161337290615d19565b60405180910390fd5b8060a0015115801561338f57508060c00151155b6133ce576040517f08c379a00000000000000000000000000000000000000000000000000000000081526004016133c590615f99565b60405180910390fd5b8060800151421015613415576040517f08c379a000000000000000000000000000000000000000000000000000000000815260040161340c90616039565b60405180910390fd5b61341d614302565b600a600083602001518152602001908152602001600020604051806101a001604052908160008201548152602001600182015481526020016002820160009054906101000a900473ffffffffffffffffffffffffffffffffffffffff1673ffffffffffffffffffffffffffffffffffffffff1673ffffffffffffffffffffffffffffffffffffffff16815260200160038201548152602001600482015481526020016005820154815260200160068201548152602001600782015481526020016008820160009054906101000a900460ff161515151581526020016008820160019054906101000a900473ffffffffffffffffffffffffffffffffffffffff1673ffffffffffffffffffffffffffffffffffffffff1673ffffffffffffffffffffffffffffffffffffffff168152602001600a8201548152602001600b820160009054906101000a900460ff16151515158152602001600b820160019054906101000a900460ff16151515158152505090506001600b600085815260200190815260200160002060050160006101000a81548160ff0219169083151502179055506135d581602001518360400151846060015161421e565b8160600151600a6000836000015181526020019081526020016000206005015401600a600083600001518152602001908152602001600020600501819055508160600151600a6000836000015181526020019081526020016000206004015403600a60008360000151815260200190815260200160002060040181905550827f9df29a48d557958defdbeb91dda0116b443663f2a358ab8947609973c5a7b51c60405160405180910390a2600a60008260000151815260200190815260200160002060030154600a6000836000015181526020019081526020016000206005015414156136f0576000600a600083600001518152602001908152602001600020600b0160006101000a81548160ff0219169083151502179055505b505050565b6136fd61439c565b600b60008381526020019081526020016000206040518060e001604052908160008201548152602001600182015481526020016002820160009054906101000a900473ffffffffffffffffffffffffffffffffffffffff1673ffffffffffffffffffffffffffffffffffffffff1673ffffffffffffffffffffffffffffffffffffffff16815260200160038201548152602001600482015481526020016005820160009054906101000a900460ff161515151581526020016005820160019054906101000a900460ff161515151581525050905081816000015114613817576040517f08c379a000000000000000000000000000000000000000000000000000000000815260040161380e90615d19565b60405180910390fd5b8060a001511561385c576040517f08c379a000000000000000000000000000000000000000000000000000000000815260040161385390615f19565b60405180910390fd5b806080015142106138a2576040517f08c379a0000000000000000000000000000000000000000000000000000000008152600401613899906160b9565b60405180910390fd5b6138aa614302565b600a600083602001518152602001908152602001600020604051806101a001604052908160008201548152602001600182015481526020016002820160009054906101000a900473ffffffffffffffffffffffffffffffffffffffff1673ffffffffffffffffffffffffffffffffffffffff1673ffffffffffffffffffffffffffffffffffffffff16815260200160038201548152602001600482015481526020016005820154815260200160068201548152602001600782015481526020016008820160009054906101000a900460ff161515151581526020016008820160019054906101000a900473ffffffffffffffffffffffffffffffffffffffff1673ffffffffffffffffffffffffffffffffffffffff1673ffffffffffffffffffffffffffffffffffffffff168152602001600a8201548152602001600b820160009054906101000a900460ff16151515158152602001600b820160019054906101000a900460ff161515151581525050905080610120015173ffffffffffffffffffffffffffffffffffffffff163373ffffffffffffffffffffffffffffffffffffffff1614613a8f576040517f08c379a0000000000000000000000000000000000000000000000000000000008152600401613a8690615d99565b60405180910390fd5b6001600b600085815260200190815260200160002060050160016101000a81548160ff0219169083151502179055508160600151600a6000836000015181526020019081526020016000206004015403600a60008360000151815260200190815260200160002060040181905550827f31b0c01e8429f81903c3f8adc204767b8efa7cfca91a00f3b4bb40ce63c8a20660405160405180910390a2600a600082600001518152602001908152602001600020600b0160019054906101000a900460ff1615613b7357613b6e81602001518260400151846060015161421e565b613ba7565b6001600a600083600001518152602001908152602001600020600b0160006101000a81548160ff0219169083151502179055505b505050565b80600c600085815260200190815260200160002060008481526020019081526020016000209080519060200190613be49291906143f3565b50827f7c77b0a5e04b8b0a37a64aa8dd7a24c2cdfb5f2302c065c6044b33077b96abaa8383604051613c17929190616114565b60405180910390a2505050565b60006003600083815260200190815260200160002060009054906101000a900460ff169050919050565b6000600460008373ffffffffffffffffffffffffffffffffffffffff1673ffffffffffffffffffffffffffffffffffffffff16815260200190815260200160002060009054906101000a900460ff169050919050565b600080828401905083811015613cef576040517f08c379a0000000000000000000000000000000000000000000000000000000008152600401613ce690615d79565b60405180910390fd5b8091505092915050565b613d188473ffffffffffffffffffffffffffffffffffffffff166141bb565b15613e50578373ffffffffffffffffffffffffffffffffffffffff1663f23a6e61905060e01b7bffffffffffffffffffffffffffffffffffffffffffffffffffffffff19168473ffffffffffffffffffffffffffffffffffffffff1663f23a6e6188888787876040518663ffffffff1660e01b8152600401613d9e959493929190615bc3565b602060405180830381600087803b158015613db857600080fd5b505af1158015613dcc573d6000803e3d6000fd5b505050506040513d601f19601f82011682018060405250613df09190810190614dbb565b7bffffffffffffffffffffffffffffffffffffffffffffffffffffffff191614613e4f576040517f08c379a0000000000000000000000000000000000000000000000000000000008152600401613e4690616079565b60405180910390fd5b5b505050505050565b600073ffffffffffffffffffffffffffffffffffffffff168173ffffffffffffffffffffffffffffffffffffffff161415613ec8576040517f08c379a0000000000000000000000000000000000000000000000000000000008152600401613ebf90615d39565b60405180910390fd5b8073ffffffffffffffffffffffffffffffffffffffff16600260009054906101000a900473ffffffffffffffffffffffffffffffffffffffff1673ffffffffffffffffffffffffffffffffffffffff167f8be0079c531659141344cd1fd0a4f28419497f9722a3daafe3b4186f6b6457e060405160405180910390a380600260006101000a81548173ffffffffffffffffffffffffffffffffffffffff021916908373ffffffffffffffffffffffffffffffffffffffff16021790555050565b60008160ff16600011158015613fa2575060098260ff1611155b15613fd757817f300000000000000000000000000000000000000000000000000000000000000060f81c0160f81b905061402c565b8160ff16600a11158015613fef5750600f8260ff1611155b1561402757600a827f610000000000000000000000000000000000000000000000000000000000000060f81c010360f81b905061402c565b600080fd5b919050565b6140ad816040518060600160405280602a81526020016163c1602a913960008086815260200190815260200160002060008873ffffffffffffffffffffffffffffffffffffffff1673ffffffffffffffffffffffffffffffffffffffff168152602001908152602001600020546142a79092919063ffffffff16565b60008084815260200190815260200160002060008673ffffffffffffffffffffffffffffffffffffffff1673ffffffffffffffffffffffffffffffffffffffff168152602001908152602001600020819055506141628160008085815260200190815260200160002060008673ffffffffffffffffffffffffffffffffffffffff1673ffffffffffffffffffffffffffffffffffffffff16815260200190815260200160002054613ca490919063ffffffff16565b60008084815260200190815260200160002060008573ffffffffffffffffffffffffffffffffffffffff1673ffffffffffffffffffffffffffffffffffffffff1681526020019081526020016000208190555050505050565b60008060007fc5d2460186f7233c927e7db2dcc703c0e500b653ca82273b7bfad8045d85a47060001b9050833f91506000801b82141580156141fd5750808214155b92505050919050565b60006008600081548092919060010191905055905090565b61424c600960009054906101000a900473ffffffffffffffffffffffffffffffffffffffff16838584612151565b505050565b600060019050919050565b60006007600081548092919060010191905055905090565b6142a282600960009054906101000a900473ffffffffffffffffffffffffffffffffffffffff168584612151565b505050565b60008383111582906142ef576040517f08c379a00000000000000000000000000000000000000000000000000000000081526004016142e69190615cb7565b60405180910390fd5b5060008385039050809150509392505050565b604051806101a001604052806000815260200160008152602001600073ffffffffffffffffffffffffffffffffffffffff1681526020016000815260200160008152602001600081526020016000815260200160008152602001600015158152602001600073ffffffffffffffffffffffffffffffffffffffff168152602001600081526020016000151581526020016000151581525090565b6040518060e001604052806000815260200160008152602001600073ffffffffffffffffffffffffffffffffffffffff16815260200160008152602001600081526020016000151581526020016000151581525090565b828054600181600116156101000203166002900490600052602060002090601f016020900481019282601f1061443457805160ff1916838001178555614462565b82800160010185558215614462579182015b82811115614461578251825591602001919060010190614446565b5b50905061446f9190614473565b5090565b61449591905b80821115614491576000816000905550600101614479565b5090565b90565b6000813590506144a781616364565b92915050565b60008083601f8401126144bf57600080fd5b8235905067ffffffffffffffff8111156144d857600080fd5b6020830191508360208202830111156144f057600080fd5b9250929050565b600082601f83011261450857600080fd5b813561451b614516826161d1565b6161a4565b9150818183526020840193506020810190508385602084028201111561454057600080fd5b60005b8381101561457057816145568882614498565b845260208401935060208301925050600181019050614543565b5050505092915050565b60008083601f84011261458c57600080fd5b8235905067ffffffffffffffff8111156145a557600080fd5b6020830191508360208202830111156145bd57600080fd5b9250929050565b60008083601f8401126145d657600080fd5b8235905067ffffffffffffffff8111156145ef57600080fd5b60208301915083602082028301111561460757600080fd5b9250929050565b600082601f83011261461f57600080fd5b813561463261462d826161f9565b6161a4565b9150818183526020840193506020810190508385602084028201111561465757600080fd5b60005b83811015614687578161466d8882614764565b84526020840193506020830192505060018101905061465a565b5050505092915050565b6000813590506146a08161637b565b92915050565b6000813590506146b581616392565b92915050565b6000815190506146ca81616392565b92915050565b60008083601f8401126146e257600080fd5b8235905067ffffffffffffffff8111156146fb57600080fd5b60208301915083600182028301111561471357600080fd5b9250929050565b60008083601f84011261472c57600080fd5b8235905067ffffffffffffffff81111561474557600080fd5b60208301915083600182028301111561475d57600080fd5b9250929050565b600081359050614773816163a9565b92915050565b60006020828403121561478b57600080fd5b600061479984828501614498565b91505092915050565b600080604083850312156147b557600080fd5b60006147c385828601614498565b92505060206147d485828601614498565b9150509250929050565b60008060008060008060008060a0898b0312156147fa57600080fd5b60006148088b828c01614498565b98505060206148198b828c01614498565b975050604089013567ffffffffffffffff81111561483657600080fd5b6148428b828c016145c4565b9650965050606089013567ffffffffffffffff81111561486157600080fd5b61486d8b828c016145c4565b9450945050608089013567ffffffffffffffff81111561488c57600080fd5b6148988b828c016146d0565b92509250509295985092959890939650565b60008060008060008060a087890312156148c357600080fd5b60006148d189828a01614498565b96505060206148e289828a01614498565b95505060406148f389828a01614764565b945050606061490489828a01614764565b935050608087013567ffffffffffffffff81111561492157600080fd5b61492d89828a016146d0565b92509250509295509295509295565b6000806040838503121561494f57600080fd5b600061495d85828601614498565b925050602061496e85828601614691565b9150509250929050565b6000806040838503121561498b57600080fd5b600061499985828601614498565b92505060206149aa85828601614764565b9150509250929050565b600080604083850312156149c757600080fd5b600083013567ffffffffffffffff8111156149e157600080fd5b6149ed858286016144f7565b925050602083013567ffffffffffffffff811115614a0a57600080fd5b614a168582860161460e565b9150509250929050565b60008060208385031215614a3357600080fd5b600083013567ffffffffffffffff811115614a4d57600080fd5b614a59858286016145c4565b92509250509250929050565b60008060008060008060608789031215614a7e57600080fd5b600087013567ffffffffffffffff811115614a9857600080fd5b614aa489828a016145c4565b9650965050602087013567ffffffffffffffff811115614ac357600080fd5b614acf89828a016144ad565b9450945050604087013567ffffffffffffffff811115614aee57600080fd5b614afa89828a016145c4565b92509250509295509295509295565b6000806000806000806000806080898b031215614b2557600080fd5b600089013567ffffffffffffffff811115614b3f57600080fd5b614b4b8b828c016145c4565b9850985050602089013567ffffffffffffffff811115614b6a57600080fd5b614b768b828c016144ad565b9650965050604089013567ffffffffffffffff811115614b9557600080fd5b614ba18b828c016145c4565b9450945050606089013567ffffffffffffffff811115614bc057600080fd5b614bcc8b828c016145c4565b92509250509295985092959890939650565b60008060008060008060608789031215614bf757600080fd5b600087013567ffffffffffffffff811115614c1157600080fd5b614c1d89828a016145c4565b9650965050602087013567ffffffffffffffff811115614c3c57600080fd5b614c4889828a016145c4565b9450945050604087013567ffffffffffffffff811115614c6757600080fd5b614c7389828a0161457a565b92509250509295509295509295565b600080600080600080600080600080600060e08c8e031215614ca357600080fd5b60008c013567ffffffffffffffff811115614cbd57600080fd5b614cc98e828f016145c4565b9b509b505060208c013567ffffffffffffffff811115614ce857600080fd5b614cf48e828f016145c4565b995099505060408c013567ffffffffffffffff811115614d1357600080fd5b614d1f8e828f016145c4565b97509750506060614d328e828f01614764565b9550506080614d438e828f01614691565b94505060a0614d548e828f01614498565b93505060c08c013567ffffffffffffffff811115614d7157600080fd5b614d7d8e828f016144ad565b92509250509295989b509295989b9093969950565b600060208284031215614da457600080fd5b6000614db2848285016146a6565b91505092915050565b600060208284031215614dcd57600080fd5b6000614ddb848285016146bb565b91505092915050565b600060208284031215614df657600080fd5b6000614e0484828501614764565b91505092915050565b60008060008060608587031215614e2357600080fd5b6000614e3187828801614764565b9450506020614e4287828801614764565b935050604085013567ffffffffffffffff811115614e5f57600080fd5b614e6b8782880161471a565b925092505092959194509250565b6000614e858383615b22565b60208301905092915050565b614e9a8161629d565b82525050565b6000614eac838561626a565b93507f07ffffffffffffffffffffffffffffffffffffffffffffffffffffffffffffff831115614edb57600080fd5b602083029250614eec838584616311565b82840190509392505050565b6000614f0382616231565b614f0d818561626a565b9350614f1883616221565b8060005b83811015614f49578151614f308882614e79565b9750614f3b8361625d565b925050600181019050614f1c565b5085935050505092915050565b614f5f816162af565b82525050565b6000614f708261623c565b614f7a818561627b565b9350614f8a818560208601616320565b614f9381616353565b840191505092915050565b6000614fa982616252565b614fb3818561628c565b9350614fc3818560208601616320565b614fcc81616353565b840191505092915050565b6000614fe282616247565b614fec818561628c565b9350614ffc818560208601616320565b61500581616353565b840191505092915050565b600061501d60188361628c565b91507f5374617368426c6f783a20496e76616c696420707269636500000000000000006000830152602082019050919050565b600061505d602b8361628c565b91507f455243313135353a2062616c616e636520717565727920666f7220746865207a60008301527f65726f20616464726573730000000000000000000000000000000000000000006020830152604082019050919050565b60006150c360178361628c565b91507f5374617368426c6f783a20556e6b6e6f776e204465616c0000000000000000006000830152602082019050919050565b600061510360268361628c565b91507f4f776e61626c653a206e6577206f776e657220697320746865207a65726f206160008301527f64647265737300000000000000000000000000000000000000000000000000006020830152604082019050919050565b600061516960288361628c565b91507f455243313135353a207461726765742061646472657373206d7573742062652060008301527f6e6f6e2d7a65726f0000000000000000000000000000000000000000000000006020830152604082019050919050565b60006151cf601b8361628c565b91507f536166654d6174683a206164646974696f6e206f766572666c6f7700000000006000830152602082019050919050565b600061520f60178361628c565b91507f5374617368426c6f783a20556e617574686f72697a65640000000000000000006000830152602082019050919050565b600061524f60348361628c565b91507f5374617368426c6f783a2069647320616e6420726563697069656e7473206d7560008301527f737420686176652073616d65206c656e677468730000000000000000000000006020830152604082019050919050565b60006152b5602c8361628c565b91507f455243313135353a2063616e6e6f742073657420617070726f76616c2073746160008301527f74757320666f722073656c6600000000000000000000000000000000000000006020830152604082019050919050565b600061531b60198361628c565b91507f5374617368426c6f783a20696e76616c696420616d6f756e74000000000000006000830152602082019050919050565b600061535b60328361628c565b91507f5374617368426c6f783a2068617368657320616e64206e616d6573206d75737460008301527f20686176652073616d65206c656e6774687300000000000000000000000000006020830152604082019050919050565b60006153c160308361628c565b91507f455243313135353a206163636f756e747320616e6420494473206d757374206860008301527f6176652073616d65206c656e67746873000000000000000000000000000000006020830152604082019050919050565b6000615427601b8361628c565b91507f5374617368426c6f783a20496e76616c69642063757272656e637900000000006000830152602082019050919050565b600061546760378361628c565b91507f5374617368426c6f783a20726563697069656e747320616e642076616c75657360008301527f206d75737420686176652073616d65206c656e677468730000000000000000006020830152604082019050919050565b60006154cd60368361628c565b91507f455243313135353a20676f7420756e6b6e6f776e2076616c75652066726f6d2060008301527f6f6e4552433131353542617463685265636569766564000000000000000000006020830152604082019050919050565b6000615533601f8361628c565b91507f5374617368426c6f783a20496e73756666696369656e742062616c616e6365006000830152602082019050919050565b600061557360188361628c565b91507f5374617368426c6f783a20556e6b6e6f776e20546f6b656e00000000000000006000830152602082019050919050565b60006155b360348361628c565b91507f455243313135353a20736f6d65206164647265737320696e206261746368206260008301527f616c616e6365207175657279206973207a65726f0000000000000000000000006020830152604082019050919050565b600061561960218361628c565b91507f5374617368426c6f783a204465616c20616c726561647920636f6e6669726d6560008301527f64000000000000000000000000000000000000000000000000000000000000006020830152604082019050919050565b600061567f601f8361628c565b91507f5374617368426c6f783a20546f6b656e20616c7265616479206d696e746564006000830152602082019050919050565b60006156bf60178361628c565b91507f455243313135354c6f636b61626c653a204c6f636b65640000000000000000006000830152602082019050919050565b60006156ff60208361628c565b91507f4f776e61626c653a2063616c6c6572206973206e6f7420746865206f776e65726000830152602082019050919050565b600061573f602d8361628c565b91507f5374617368426c6f783a204465616c20616c726561647920636f6e6669726d6560008301527f64206f722063616e63656c6564000000000000000000000000000000000000006020830152604082019050919050565b60006157a560308361628c565b91507f5374617368426c6f783a2069647320616e6420686173686573206d757374206860008301527f6176652073616d65206c656e67746873000000000000000000000000000000006020830152604082019050919050565b600061580b60438361628c565b91507f5374617368426c6f783a20616c6c206c697374206d757374206861766520736160008301527f6d65206c656e6774687320616e64206174206c65617374206f6e6520656c656d60208301527f656e7400000000000000000000000000000000000000000000000000000000006040830152606082019050919050565b600061589760378361628c565b91507f455243313135353a206e656564206f70657261746f7220617070726f76616c2060008301527f666f7220337264207061727479207472616e73666572730000000000000000006020830152604082019050919050565b60006158fd602e8361628c565b91507f455243313135353a2049447320616e642076616c756573206d7573742068617660008301527f652073616d65206c656e677468730000000000000000000000000000000000006020830152604082019050919050565b600061596360138361628c565b91507f5374617368426c6f783a20546f6f20736f6f6e000000000000000000000000006000830152602082019050919050565b60006159a360248361628c565b91507f5374617368426c6f783a204f6666657220636c6f736564206f722063616e636560008301527f6c6c6564000000000000000000000000000000000000000000000000000000006020830152604082019050919050565b6000615a0960318361628c565b91507f455243313135353a20676f7420756e6b6e6f776e2076616c75652066726f6d2060008301527f6f6e4552433131353552656365697665640000000000000000000000000000006020830152604082019050919050565b6000615a6f60178361628c565b91507f5374617368426c6f783a204f6666657220636c6f7365640000000000000000006000830152602082019050919050565b6000615aaf60138361628c565b91507f5374617368426c6f783a20546f6f206c617465000000000000000000000000006000830152602082019050919050565b6000615aef60188361628c565b91507f5374617368426c6f783a20556e6b6e6f776e204f6666657200000000000000006000830152602082019050919050565b615b2b81616307565b82525050565b615b3a81616307565b82525050565b6000602082019050615b556000830184614e91565b92915050565b600060a082019050615b706000830188614e91565b615b7d6020830187614e91565b8181036040830152615b8f8186614ef8565b90508181036060830152615ba38185614ef8565b90508181036080830152615bb78184614f65565b90509695505050505050565b600060a082019050615bd86000830188614e91565b615be56020830187614e91565b615bf26040830186615b31565b615bff6060830185615b31565b8181036080830152615c118184614f65565b90509695505050505050565b60006040820190508181036000830152615c38818688614ea0565b90508181036020830152615c4d818486614ea0565b905095945050505050565b60006020820190508181036000830152615c728184614ef8565b905092915050565b6000602082019050615c8f6000830184614f56565b92915050565b60006020820190508181036000830152615caf8184614fd7565b905092915050565b60006020820190508181036000830152615cd18184614f9e565b905092915050565b60006020820190508181036000830152615cf281615010565b9050919050565b60006020820190508181036000830152615d1281615050565b9050919050565b60006020820190508181036000830152615d32816150b6565b9050919050565b60006020820190508181036000830152615d52816150f6565b9050919050565b60006020820190508181036000830152615d728161515c565b9050919050565b60006020820190508181036000830152615d92816151c2565b9050919050565b60006020820190508181036000830152615db281615202565b9050919050565b60006020820190508181036000830152615dd281615242565b9050919050565b60006020820190508181036000830152615df2816152a8565b9050919050565b60006020820190508181036000830152615e128161530e565b9050919050565b60006020820190508181036000830152615e328161534e565b9050919050565b60006020820190508181036000830152615e52816153b4565b9050919050565b60006020820190508181036000830152615e728161541a565b9050919050565b60006020820190508181036000830152615e928161545a565b9050919050565b60006020820190508181036000830152615eb2816154c0565b9050919050565b60006020820190508181036000830152615ed281615526565b9050919050565b60006020820190508181036000830152615ef281615566565b9050919050565b60006020820190508181036000830152615f12816155a6565b9050919050565b60006020820190508181036000830152615f328161560c565b9050919050565b60006020820190508181036000830152615f5281615672565b9050919050565b60006020820190508181036000830152615f72816156b2565b9050919050565b60006020820190508181036000830152615f92816156f2565b9050919050565b60006020820190508181036000830152615fb281615732565b9050919050565b60006020820190508181036000830152615fd281615798565b9050919050565b60006020820190508181036000830152615ff2816157fe565b9050919050565b600060208201905081810360008301526160128161588a565b9050919050565b60006020820190508181036000830152616032816158f0565b9050919050565b6000602082019050818103600083015261605281615956565b9050919050565b6000602082019050818103600083015261607281615996565b9050919050565b60006020820190508181036000830152616092816159fc565b9050919050565b600060208201905081810360008301526160b281615a62565b9050919050565b600060208201905081810360008301526160d281615aa2565b9050919050565b600060208201905081810360008301526160f281615ae2565b9050919050565b600060208201905061610e6000830184615b31565b92915050565b60006040820190506161296000830185615b31565b818103602083015261613b8184614f9e565b90509392505050565b60006040820190506161596000830185615b31565b6161666020830184615b31565b9392505050565b60006060820190506161826000830186615b31565b61618f6020830185615b31565b61619c6040830184615b31565b949350505050565b6000604051905081810181811067ffffffffffffffff821117156161c757600080fd5b8060405250919050565b600067ffffffffffffffff8211156161e857600080fd5b602082029050602081019050919050565b600067ffffffffffffffff82111561621057600080fd5b602082029050602081019050919050565b6000819050602082019050919050565b600081519050919050565b600081519050919050565b600081519050919050565b600081519050919050565b6000602082019050919050565b600082825260208201905092915050565b600082825260208201905092915050565b600082825260208201905092915050565b60006162a8826162e7565b9050919050565b60008115159050919050565b60007fffffffff0000000000000000000000000000000000000000000000000000000082169050919050565b600073ffffffffffffffffffffffffffffffffffffffff82169050919050565b6000819050919050565b82818337600083830152505050565b60005b8381101561633e578082015181840152602081019050616323565b8381111561634d576000848401525b50505050565b6000601f19601f8301169050919050565b61636d8161629d565b811461637857600080fd5b50565b616384816162af565b811461638f57600080fd5b50565b61639b816162bb565b81146163a657600080fd5b50565b6163b281616307565b81146163bd57600080fd5b5056fe455243313135353a20696e73756666696369656e742062616c616e636520666f72207472616e73666572a365627a7a723158208f07312ed2814194c838a10b3f81e4acee62dc3dffc91626dd8ffd85c2d426f16c6578706572696d656e74616cf564736f6c634300050c0040",
  "source": "pragma solidity ^0.5.12;\npragma experimental ABIEncoderV2;\n\nimport './lib/ERC1155/ERC1155Lockable.sol';\nimport './lib/ERC1155/ERC1155Documents.sol';\nimport './lib/ERC1155/ERC1155Metadata.sol';\nimport './lib/ERC1155/ERC1155Sellable.sol';\n\ncontract StashBlox is ERC1155Lockable, ERC1155Sellable, ERC1155Documents, ERC1155Metadata {\n\n}\n",
  "sourcePath": "/home/ouziel/Work/StashBloxContracts/contracts/StashBlox.sol",
  "compiler": {
    "name": "solc",
    "version": "0.5.12+commit.7709ece9.Emscripten.clang"
  },
  "schemaVersion": "3.0.16",
  "updatedAt": "2019-11-11T09:16:23.411Z",
  "devdoc": {
    "methods": {
      "balanceOf(address,uint256)": {
        "details": "Get the specified address' balance for token with specified ID. Attempting to query the zero account for a balance will result in a revert.",
        "params": {
          "account": "The address of the token holder",
          "id": "ID of the token"
        },
        "return": "The account's balance of the token type requested"
      },
      "balanceOfBatch(address[],uint256[])": {
        "details": "Get the balance of multiple account/token pairs. If any of the query accounts is the zero account, this query will revert.",
        "params": {
          "accounts": "The addresses of the token holders",
          "ids": "IDs of the tokens"
        },
        "return": "Balances for each account and token id pair"
      },
      "createTokens(uint256[],address[],uint256[])": {
        "details": "Function to mint an amount of a token with the given ID.",
        "params": {
          "ids": "ID of the token to be minted",
          "recipients": "The addresses that will own the minted token",
          "values": "Amount of the token to be minted for each recipient"
        }
      },
      "isApprovedForAll(address,address)": {
        "params": {
          "account": "The account of the Tokens",
          "operator": "Address of authorized operator"
        },
        "return": "True if the operator is approved, false if not"
      },
      "owner()": {
        "details": "Returns the address of the current owner."
      },
      "safeBatchTransferFrom(address,address,uint256[],uint256[],bytes)": {
        "details": "Transfers `values` amount(s) of `ids` from the `from` address to the `to` address specified. Caller must be approved to manage the tokens being transferred out of the `from` account. If `to` is a smart contract, will call `onERC1155BatchReceived` on `to` and act appropriately.",
        "params": {
          "data": "Data forwarded to `onERC1155Received` if `to` is a contract receiver",
          "from": "Source address",
          "ids": "IDs of each token type",
          "to": "Target address",
          "values": "Transfer amounts per token type"
        }
      },
      "safeTransferFrom(address,address,uint256,uint256,bytes)": {
        "details": "Transfers `value` amount of an `id` from the `from` address to the `to` address specified. Caller must be approved to manage the tokens being transferred out of the `from` account. If `to` is a smart contract, will call `onERC1155Received` on `to` and act appropriately.",
        "params": {
          "data": "Data forwarded to `onERC1155Received` if `to` is a contract receiver",
          "from": "Source address",
          "id": "ID of the token type",
          "to": "Target address",
          "value": "Transfer amount"
        }
      },
      "setApprovalForAll(address,bool)": {
        "details": "Sets or unsets the approval of a given operator.     * An operator is allowed to transfer all tokens of the sender on their behalf.     * Because an account already has operator privileges for itself, this function will revert if the account attempts to set the approval status for itself.",
        "params": {
          "approved": "representing the status of the approval to be set",
          "operator": "address to set the approval"
        }
      },
      "supportsInterface(bytes4)": {
        "params": {
          "_interfaceID": "The interface identifier, as specified in ERC-165"
        },
        "return": "`true` if the contract implements `_interfaceID` and"
      },
      "totalSupply(uint256)": {
        "params": {
          "id": "Token ID"
        },
        "return": "Token supply"
      },
      "transferOwnership(address)": {
        "details": "Transfers ownership of the contract to a new account (`newOwner`). Can only be called by the current owner."
      },
      "uri(uint256)": {
        "params": {
          "id": "Token ID"
        },
        "return": "URI string"
      }
    }
  },
  "userdoc": {
    "methods": {
      "isApprovedForAll(address,address)": {
        "notice": "Queries the approval status of an operator for a given account."
      },
      "supportsInterface(bytes4)": {
        "notice": "Query if a contract implements an interface"
      }
    }
  }
}