{
  "contractName": "StashBlox",
  "abi": [
    {
      "anonymous": false,
      "inputs": [
        {
          "indexed": true,
          "internalType": "address",
          "name": "_owner",
          "type": "address"
        },
        {
          "indexed": true,
          "internalType": "address",
          "name": "_operator",
          "type": "address"
        },
        {
          "indexed": false,
          "internalType": "bool",
          "name": "_approved",
          "type": "bool"
        }
      ],
      "name": "ApprovalForAll",
      "type": "event"
    },
    {
      "anonymous": false,
      "inputs": [
        {
          "indexed": true,
          "internalType": "uint256",
          "name": "_id",
          "type": "uint256"
        },
        {
          "indexed": true,
          "internalType": "uint256",
          "name": "_hash",
          "type": "uint256"
        }
      ],
      "name": "MetadataHashUpdated",
      "type": "event"
    },
    {
      "anonymous": false,
      "inputs": [
        {
          "indexed": true,
          "internalType": "address",
          "name": "previousOwner",
          "type": "address"
        },
        {
          "indexed": true,
          "internalType": "address",
          "name": "newOwner",
          "type": "address"
        }
      ],
      "name": "OwnershipTransferred",
      "type": "event"
    },
    {
      "anonymous": false,
      "inputs": [
        {
          "indexed": true,
          "internalType": "address",
          "name": "_operator",
          "type": "address"
        },
        {
          "indexed": true,
          "internalType": "address",
          "name": "_from",
          "type": "address"
        },
        {
          "indexed": true,
          "internalType": "address",
          "name": "_to",
          "type": "address"
        },
        {
          "indexed": false,
          "internalType": "uint256[]",
          "name": "_ids",
          "type": "uint256[]"
        },
        {
          "indexed": false,
          "internalType": "uint256[]",
          "name": "_values",
          "type": "uint256[]"
        }
      ],
      "name": "TransferBatch",
      "type": "event"
    },
    {
      "anonymous": false,
      "inputs": [
        {
          "indexed": true,
          "internalType": "address",
          "name": "_operator",
          "type": "address"
        },
        {
          "indexed": true,
          "internalType": "address",
          "name": "_from",
          "type": "address"
        },
        {
          "indexed": true,
          "internalType": "address",
          "name": "_to",
          "type": "address"
        },
        {
          "indexed": false,
          "internalType": "uint256",
          "name": "_id",
          "type": "uint256"
        },
        {
          "indexed": false,
          "internalType": "uint256",
          "name": "_value",
          "type": "uint256"
        }
      ],
      "name": "TransferSingle",
      "type": "event"
    },
    {
      "anonymous": false,
      "inputs": [
        {
          "indexed": false,
          "internalType": "string",
          "name": "_value",
          "type": "string"
        },
        {
          "indexed": true,
          "internalType": "uint256",
          "name": "_id",
          "type": "uint256"
        }
      ],
      "name": "URI",
      "type": "event"
    },
    {
      "constant": true,
      "inputs": [],
      "name": "BASE_URI",
      "outputs": [
        {
          "internalType": "string",
          "name": "",
          "type": "string"
        }
      ],
      "payable": false,
      "stateMutability": "view",
      "type": "function"
    },
    {
      "constant": false,
      "inputs": [
        {
          "internalType": "address",
          "name": "tokenizer",
          "type": "address"
        }
      ],
      "name": "authorizeTokenizer",
      "outputs": [],
      "payable": false,
      "stateMutability": "nonpayable",
      "type": "function"
    },
    {
      "constant": true,
      "inputs": [
        {
          "internalType": "address",
          "name": "account",
          "type": "address"
        },
        {
          "internalType": "uint256",
          "name": "id",
          "type": "uint256"
        }
      ],
      "name": "balanceOf",
      "outputs": [
        {
          "internalType": "uint256",
          "name": "",
          "type": "uint256"
        }
      ],
      "payable": false,
      "stateMutability": "view",
      "type": "function"
    },
    {
      "constant": true,
      "inputs": [
        {
          "internalType": "address[]",
          "name": "accounts",
          "type": "address[]"
        },
        {
          "internalType": "uint256[]",
          "name": "ids",
          "type": "uint256[]"
        }
      ],
      "name": "balanceOfBatch",
      "outputs": [
        {
          "internalType": "uint256[]",
          "name": "",
          "type": "uint256[]"
        }
      ],
      "payable": false,
      "stateMutability": "view",
      "type": "function"
    },
    {
      "constant": true,
      "inputs": [
        {
          "internalType": "address",
          "name": "account",
          "type": "address"
        },
        {
          "internalType": "uint256",
          "name": "id",
          "type": "uint256"
        }
      ],
      "name": "birthdayOf",
      "outputs": [
        {
          "internalType": "uint256",
          "name": "",
          "type": "uint256"
        }
      ],
      "payable": false,
      "stateMutability": "view",
      "type": "function"
    },
    {
      "constant": false,
      "inputs": [
        {
          "internalType": "uint256[]",
          "name": "ids",
          "type": "uint256[]"
        },
        {
          "internalType": "address[]",
          "name": "recipients",
          "type": "address[]"
        },
        {
          "internalType": "uint256[]",
          "name": "values",
          "type": "uint256[]"
        },
        {
          "internalType": "uint256[]",
          "name": "metadataHashes",
          "type": "uint256[]"
        },
        {
          "internalType": "uint256[]",
          "name": "storagePrices",
          "type": "uint256[]"
        }
      ],
      "name": "createTokens",
      "outputs": [],
      "payable": false,
      "stateMutability": "nonpayable",
      "type": "function"
    },
    {
      "constant": true,
      "inputs": [
        {
          "internalType": "address",
          "name": "account",
          "type": "address"
        },
        {
          "internalType": "address",
          "name": "operator",
          "type": "address"
        }
      ],
      "name": "isApprovedForAll",
      "outputs": [
        {
          "internalType": "bool",
          "name": "",
          "type": "bool"
        }
      ],
      "payable": false,
      "stateMutability": "view",
      "type": "function"
    },
    {
      "constant": true,
      "inputs": [
        {
          "internalType": "address",
          "name": "addr",
          "type": "address"
        }
      ],
      "name": "isLockedAddress",
      "outputs": [
        {
          "internalType": "bool",
          "name": "",
          "type": "bool"
        }
      ],
      "payable": false,
      "stateMutability": "view",
      "type": "function"
    },
    {
      "constant": true,
      "inputs": [
        {
          "internalType": "uint256",
          "name": "id",
          "type": "uint256"
        }
      ],
      "name": "isLockedToken",
      "outputs": [
        {
          "internalType": "bool",
          "name": "",
          "type": "bool"
        }
      ],
      "payable": false,
      "stateMutability": "view",
      "type": "function"
    },
    {
      "constant": true,
      "inputs": [
        {
          "internalType": "address",
          "name": "tokenizer",
          "type": "address"
        }
      ],
      "name": "isTokenizer",
      "outputs": [
        {
          "internalType": "bool",
          "name": "",
          "type": "bool"
        }
      ],
      "payable": false,
      "stateMutability": "view",
      "type": "function"
    },
    {
      "constant": false,
      "inputs": [
        {
          "internalType": "address",
          "name": "addr",
          "type": "address"
        }
      ],
      "name": "lockAddress",
      "outputs": [],
      "payable": false,
      "stateMutability": "nonpayable",
      "type": "function"
    },
    {
      "constant": false,
      "inputs": [
        {
          "internalType": "uint256",
          "name": "id",
          "type": "uint256"
        }
      ],
      "name": "lockToken",
      "outputs": [],
      "payable": false,
      "stateMutability": "nonpayable",
      "type": "function"
    },
    {
      "constant": true,
      "inputs": [
        {
          "internalType": "uint256",
          "name": "id",
          "type": "uint256"
        }
      ],
      "name": "metadataHash",
      "outputs": [
        {
          "internalType": "uint256",
          "name": "",
          "type": "uint256"
        }
      ],
      "payable": false,
      "stateMutability": "view",
      "type": "function"
    },
    {
      "constant": true,
      "inputs": [],
      "name": "owner",
      "outputs": [
        {
          "internalType": "address",
          "name": "",
          "type": "address"
        }
      ],
      "payable": false,
      "stateMutability": "view",
      "type": "function"
    },
    {
      "constant": false,
      "inputs": [
        {
          "internalType": "address",
          "name": "tokenizer",
          "type": "address"
        }
      ],
      "name": "revokeTokenizer",
      "outputs": [],
      "payable": false,
      "stateMutability": "nonpayable",
      "type": "function"
    },
    {
      "constant": false,
      "inputs": [
        {
          "internalType": "address",
          "name": "from",
          "type": "address"
        },
        {
          "internalType": "address",
          "name": "to",
          "type": "address"
        },
        {
          "internalType": "uint256[]",
          "name": "ids",
          "type": "uint256[]"
        },
        {
          "internalType": "uint256[]",
          "name": "values",
          "type": "uint256[]"
        },
        {
          "internalType": "bytes",
          "name": "data",
          "type": "bytes"
        }
      ],
      "name": "safeBatchTransferFrom",
      "outputs": [],
      "payable": false,
      "stateMutability": "nonpayable",
      "type": "function"
    },
    {
      "constant": false,
      "inputs": [
        {
          "internalType": "address",
          "name": "from",
          "type": "address"
        },
        {
          "internalType": "address",
          "name": "to",
          "type": "address"
        },
        {
          "internalType": "uint256",
          "name": "id",
          "type": "uint256"
        },
        {
          "internalType": "uint256",
          "name": "value",
          "type": "uint256"
        },
        {
          "internalType": "bytes",
          "name": "data",
          "type": "bytes"
        }
      ],
      "name": "safeTransferFrom",
      "outputs": [],
      "payable": false,
      "stateMutability": "nonpayable",
      "type": "function"
    },
    {
      "constant": false,
      "inputs": [
        {
          "internalType": "address",
          "name": "operator",
          "type": "address"
        },
        {
          "internalType": "bool",
          "name": "approved",
          "type": "bool"
        }
      ],
      "name": "setApprovalForAll",
      "outputs": [],
      "payable": false,
      "stateMutability": "nonpayable",
      "type": "function"
    },
    {
      "constant": true,
      "inputs": [
        {
          "internalType": "bytes4",
          "name": "_interfaceID",
          "type": "bytes4"
        }
      ],
      "name": "supportsInterface",
      "outputs": [
        {
          "internalType": "bool",
          "name": "",
          "type": "bool"
        }
      ],
      "payable": false,
      "stateMutability": "view",
      "type": "function"
    },
    {
      "constant": true,
      "inputs": [
        {
          "internalType": "address",
          "name": "account",
          "type": "address"
        }
      ],
      "name": "tokensByAddress",
      "outputs": [
        {
          "internalType": "string",
          "name": "result",
          "type": "string"
        }
      ],
      "payable": false,
      "stateMutability": "view",
      "type": "function"
    },
    {
      "constant": true,
      "inputs": [
        {
          "internalType": "uint256",
          "name": "id",
          "type": "uint256"
        }
      ],
      "name": "totalSupply",
      "outputs": [
        {
          "internalType": "uint256",
          "name": "",
          "type": "uint256"
        }
      ],
      "payable": false,
      "stateMutability": "view",
      "type": "function"
    },
    {
      "constant": false,
      "inputs": [
        {
          "internalType": "address",
          "name": "newOwner",
          "type": "address"
        }
      ],
      "name": "transferOwnership",
      "outputs": [],
      "payable": false,
      "stateMutability": "nonpayable",
      "type": "function"
    },
    {
      "constant": false,
      "inputs": [
        {
          "internalType": "address",
          "name": "addr",
          "type": "address"
        }
      ],
      "name": "unlockAddress",
      "outputs": [],
      "payable": false,
      "stateMutability": "nonpayable",
      "type": "function"
    },
    {
      "constant": false,
      "inputs": [
        {
          "internalType": "uint256",
          "name": "id",
          "type": "uint256"
        }
      ],
      "name": "unlockToken",
      "outputs": [],
      "payable": false,
      "stateMutability": "nonpayable",
      "type": "function"
    },
    {
      "constant": false,
      "inputs": [
        {
          "internalType": "uint256",
          "name": "id",
          "type": "uint256"
        },
        {
          "internalType": "uint256",
          "name": "metadataHash",
          "type": "uint256"
        }
      ],
      "name": "updateMetadataHash",
      "outputs": [],
      "payable": false,
      "stateMutability": "nonpayable",
      "type": "function"
    },
    {
      "constant": true,
      "inputs": [
        {
          "internalType": "uint256",
          "name": "id",
          "type": "uint256"
        }
      ],
      "name": "uri",
      "outputs": [
        {
          "internalType": "string",
          "name": "",
          "type": "string"
        }
      ],
      "payable": false,
      "stateMutability": "view",
      "type": "function"
    }
  ],
  "bytecode": "0x608060405262000015336200001b60201b60201c565b620001e7565b600073ffffffffffffffffffffffffffffffffffffffff168173ffffffffffffffffffffffffffffffffffffffff1614156200008e576040517f08c379a00000000000000000000000000000000000000000000000000000000081526004016200008590620001b4565b60405180910390fd5b8073ffffffffffffffffffffffffffffffffffffffff166000809054906101000a900473ffffffffffffffffffffffffffffffffffffffff1673ffffffffffffffffffffffffffffffffffffffff167f8be0079c531659141344cd1fd0a4f28419497f9722a3daafe3b4186f6b6457e060405160405180910390a3806000806101000a81548173ffffffffffffffffffffffffffffffffffffffff021916908373ffffffffffffffffffffffffffffffffffffffff16021790555050565b60006200015b602683620001d6565b91507f4f776e61626c653a206e6577206f776e657220697320746865207a65726f206160008301527f64647265737300000000000000000000000000000000000000000000000000006020830152604082019050919050565b60006020820190508181036000830152620001cf816200014c565b9050919050565b600082825260208201905092915050565b613fb480620001f76000396000f3fe608060405234801561001057600080fd5b506004361061018d5760003560e01c8063a22cb465116100de578063d6bc594211610097578063e1c95f8a11610071578063e1c95f8a146104c6578063e985e9c5146104f6578063f242432a14610526578063f2fde38b146105425761018d565b8063d6bc59421461045c578063dbddb26a1461048c578063dd2e0ac0146104aa5761018d565b8063a22cb46514610364578063b7eb5e0a14610380578063bba75c831461039c578063bd85b039146103cc578063c02f303c146103fc578063cba54e601461042c5761018d565b80634e1273f41161014b57806380f203631161012557806380f20363146102f257806383fd5a0e1461030e5780638870147b1461032a5780638da5cb5b146103465761018d565b80634e1273f41461028a5780636b62becb146102ba5780637627b732146102d65761018d565b8062fdd58e1461019257806301ffc9a7146101c25780630e89341c146101f2578063219cc8bc146102225780632eb2c2d61461025257806334a90d021461026e575b600080fd5b6101ac60048036036101a79190810190612ee7565b61055e565b6040516101b99190613ce7565b60405180910390f35b6101dc60048036036101d79190810190613094565b610628565b6040516101e99190613a68565b60405180910390f35b61020c600480360361020791908101906130e6565b6106d9565b6040516102199190613aa5565b60405180910390f35b61023c600480360361023791908101906130e6565b610729565b6040516102499190613ce7565b60405180910390f35b61026c60048036036102679190810190612d4d565b610746565b005b61028860048036036102839190810190612ce8565b610a31565b005b6102a4600480360361029f9190810190612f23565b610ad3565b6040516102b19190613a46565b60405180910390f35b6102d460048036036102cf919081019061310f565b610c85565b005b6102f060048036036102eb9190810190612ce8565b610cdb565b005b61030c600480360361030791908101906130e6565b610d7d565b005b61032860048036036103239190810190612f8f565b610df2565b005b610344600480360361033f9190810190612ce8565b611143565b005b61034e6111e5565b60405161035b919061392e565b60405180910390f35b61037e60048036036103799190810190612eab565b61120e565b005b61039a60048036036103959190810190612ce8565b61137a565b005b6103b660048036036103b191908101906130e6565b61141c565b6040516103c39190613a68565b60405180910390f35b6103e660048036036103e191908101906130e6565b61142e565b6040516103f39190613ce7565b60405180910390f35b61041660048036036104119190810190612ce8565b61144b565b6040516104239190613a68565b60405180910390f35b61044660048036036104419190810190612ce8565b61145d565b6040516104539190613a68565b60405180910390f35b61047660048036036104719190810190612ce8565b61146f565b6040516104839190613aa5565b60405180910390f35b610494611678565b6040516104a19190613a83565b60405180910390f35b6104c460048036036104bf91908101906130e6565b6116b1565b005b6104e060048036036104db9190810190612ee7565b611727565b6040516104ed9190613ce7565b60405180910390f35b610510600480360361050b9190810190612d11565b6117f1565b60405161051d9190613a68565b60405180910390f35b610540600480360361053b9190810190612e19565b611885565b005b61055c60048036036105579190810190612ce8565b611a5f565b005b60008073ffffffffffffffffffffffffffffffffffffffff168373ffffffffffffffffffffffffffffffffffffffff1614156105cf576040517f08c379a00000000000000000000000000000000000000000000000000000000081526004016105c690613ae7565b60405180910390fd5b6003600083815260200190815260200160002060008473ffffffffffffffffffffffffffffffffffffffff1673ffffffffffffffffffffffffffffffffffffffff16815260200190815260200160002054905092915050565b60006301ffc9a760e01b7bffffffffffffffffffffffffffffffffffffffffffffffffffffffff1916827bffffffffffffffffffffffffffffffffffffffffffffffffffffffff191614806106c1575063d9b67a2660e01b7bffffffffffffffffffffffffffffffffffffffffffffffffffffffff1916827bffffffffffffffffffffffffffffffffffffffffffffffffffffffff1916145b156106cf57600190506106d4565b600090505b919050565b60606107226040518060400160405280601d81526020017f68747470733a2f2f7374617368626c6f782e636f6d2f746f6b656e732f00000081525061071d84611ab2565b611ba1565b9050919050565b600060076000838152602001908152602001600020549050919050565b83839050868690501461078e576040517f08c379a000000000000000000000000000000000000000000000000000000000815260040161078590613ca7565b60405180910390fd5b600073ffffffffffffffffffffffffffffffffffffffff168773ffffffffffffffffffffffffffffffffffffffff1614156107fe576040517f08c379a00000000000000000000000000000000000000000000000000000000081526004016107f590613b27565b60405180910390fd5b3373ffffffffffffffffffffffffffffffffffffffff168873ffffffffffffffffffffffffffffffffffffffff16148061084557506001151561084189336117f1565b1515145b610884576040517f08c379a000000000000000000000000000000000000000000000000000000000815260040161087b90613c87565b60405180910390fd5b60008090505b868690508110156108d0576108c589898989858181106108a657fe5b905060200201358888868181106108b957fe5b90506020020135611cec565b80600101905061088a565b508673ffffffffffffffffffffffffffffffffffffffff168873ffffffffffffffffffffffffffffffffffffffff163373ffffffffffffffffffffffffffffffffffffffff167f4a39dc06d4c0dbc64b70af90fd698a233a518aa5d07e595d983b8c0526c8f7fb8989898960405161094b9493929190613a0b565b60405180910390a4610a27338989898980806020026020016040519081016040528093929190818152602001838360200280828437600081840152601f19601f82011690508083019250505050505050888880806020026020016040519081016040528093929190818152602001838360200280828437600081840152601f19601f8201169050808301925050505050505087878080601f016020809104026020016040519081016040528093929190818152602001838380828437600081840152601f19601f82011690508083019250505050505050612138565b5050505050505050565b610a39612297565b610a78576040517f08c379a0000000000000000000000000000000000000000000000000000000008152600401610a6f90613c67565b60405180910390fd5b6001600260008373ffffffffffffffffffffffffffffffffffffffff1673ffffffffffffffffffffffffffffffffffffffff16815260200190815260200160002060006101000a81548160ff02191690831515021790555050565b60608151835114610b19576040517f08c379a0000000000000000000000000000000000000000000000000000000008152600401610b1090613bc7565b60405180910390fd5b60608351604051908082528060200260200182016040528015610b4b5781602001602082028038833980820191505090505b50905060008090505b8451811015610c7a57600073ffffffffffffffffffffffffffffffffffffffff16858281518110610b8157fe5b602002602001015173ffffffffffffffffffffffffffffffffffffffff161415610be0576040517f08c379a0000000000000000000000000000000000000000000000000000000008152600401610bd790613c07565b60405180910390fd5b60036000858381518110610bf057fe5b602002602001015181526020019081526020016000206000868381518110610c1457fe5b602002602001015173ffffffffffffffffffffffffffffffffffffffff1673ffffffffffffffffffffffffffffffffffffffff16815260200190815260200160002054828281518110610c6357fe5b602002602001018181525050806001019050610b54565b508091505092915050565b610c8e336122ee565b610ccd576040517f08c379a0000000000000000000000000000000000000000000000000000000008152600401610cc490613ba7565b60405180910390fd5b610cd78282612353565b5050565b610ce3612297565b610d22576040517f08c379a0000000000000000000000000000000000000000000000000000000008152600401610d1990613c67565b60405180910390fd5b6001600960008373ffffffffffffffffffffffffffffffffffffffff1673ffffffffffffffffffffffffffffffffffffffff16815260200190815260200160002060006101000a81548160ff02191690831515021790555050565b610d85612297565b610dc4576040517f08c379a0000000000000000000000000000000000000000000000000000000008152600401610dbb90613c67565b60405180910390fd5b600180600083815260200190815260200160002060006101000a81548160ff02191690831515021790555050565b610dfb336122ee565b610e3a576040517f08c379a0000000000000000000000000000000000000000000000000000000008152600401610e3190613ba7565b60405180910390fd5b878790508a8a9050148015610e5457508585905088889050145b8015610e6557508383905086869050145b610ea4576040517f08c379a0000000000000000000000000000000000000000000000000000000008152600401610e9b90613b67565b60405180910390fd5b60008090505b8a8a9050811015610f28576000600860008d8d85818110610ec757fe5b9050602002013581526020019081526020016000205414610f1d576040517f08c379a0000000000000000000000000000000000000000000000000000000008152600401610f1490613c47565b60405180910390fd5b806001019050610eaa565b5060008090505b8a8a90508110156111365760008b8b83818110610f4857fe5b90506020020135905060008a8a84818110610f5f57fe5b9050602002016020610f749190810190612ce8565b90506000898985818110610f8457fe5b905060200201359050806008600085815260200190815260200160002081905550858585818110610fb157fe5b90506020020135600a600085815260200190815260200160002081905550806003600085815260200190815260200160002060008473ffffffffffffffffffffffffffffffffffffffff1673ffffffffffffffffffffffffffffffffffffffff16815260200190815260200160002081905550600560008373ffffffffffffffffffffffffffffffffffffffff1673ffffffffffffffffffffffffffffffffffffffff1681526020019081526020016000208390806001815401808255809150509060018203906000526020600020016000909192909190915055508173ffffffffffffffffffffffffffffffffffffffff16600073ffffffffffffffffffffffffffffffffffffffff163373ffffffffffffffffffffffffffffffffffffffff167fc3d58168c5ae7397731d063d5bbf3d657854427343f4c083240f7aacaa2d0f628685604051611104929190613d02565b60405180910390a46111288389898781811061111c57fe5b90506020020135612353565b505050806001019050610f2f565b5050505050505050505050565b61114b612297565b61118a576040517f08c379a000000000000000000000000000000000000000000000000000000000815260040161118190613c67565b60405180910390fd5b6000600960008373ffffffffffffffffffffffffffffffffffffffff1673ffffffffffffffffffffffffffffffffffffffff16815260200190815260200160002060006101000a81548160ff02191690831515021790555050565b60008060009054906101000a900473ffffffffffffffffffffffffffffffffffffffff16905090565b8173ffffffffffffffffffffffffffffffffffffffff163373ffffffffffffffffffffffffffffffffffffffff16141561127d576040517f08c379a000000000000000000000000000000000000000000000000000000000815260040161127490613b87565b60405180910390fd5b80600660003373ffffffffffffffffffffffffffffffffffffffff1673ffffffffffffffffffffffffffffffffffffffff16815260200190815260200160002060008473ffffffffffffffffffffffffffffffffffffffff1673ffffffffffffffffffffffffffffffffffffffff16815260200190815260200160002060006101000a81548160ff0219169083151502179055508173ffffffffffffffffffffffffffffffffffffffff163373ffffffffffffffffffffffffffffffffffffffff167f17307eab39ab6107e8899845ad3d59bd9653f200f220920489ca2b5937696c318360405161136e9190613a68565b60405180910390a35050565b611382612297565b6113c1576040517f08c379a00000000000000000000000000000000000000000000000000000000081526004016113b890613c67565b60405180910390fd5b6000600260008373ffffffffffffffffffffffffffffffffffffffff1673ffffffffffffffffffffffffffffffffffffffff16815260200190815260200160002060006101000a81548160ff02191690831515021790555050565b60006114278261239d565b9050919050565b600060086000838152602001908152602001600020549050919050565b6000611456826122ee565b9050919050565b6000611468826123c7565b9050919050565b6060600073ffffffffffffffffffffffffffffffffffffffff168273ffffffffffffffffffffffffffffffffffffffff1614156114e1576040517f08c379a00000000000000000000000000000000000000000000000000000000081526004016114d890613ae7565b60405180910390fd5b60008090505b600560008473ffffffffffffffffffffffffffffffffffffffff1673ffffffffffffffffffffffffffffffffffffffff1681526020019081526020016000208054905081101561166f576000600560008573ffffffffffffffffffffffffffffffffffffffff1673ffffffffffffffffffffffffffffffffffffffff168152602001908152602001600020828154811061157d57fe5b9060005260206000200154905060006003600083815260200190815260200160002060008673ffffffffffffffffffffffffffffffffffffffff1673ffffffffffffffffffffffffffffffffffffffff1681526020019081526020016000205411156116615760606115ee82611ab2565b905060008451111561165b57611604818561241d565b61165657611647846040518060400160405280600181526020017f2000000000000000000000000000000000000000000000000000000000000000815250611ba1565b93506116538482611ba1565b93505b61165f565b8093505b505b5080806001019150506114e7565b50809050919050565b6040518060400160405280601d81526020017f68747470733a2f2f7374617368626c6f782e636f6d2f746f6b656e732f00000081525081565b6116b9612297565b6116f8576040517f08c379a00000000000000000000000000000000000000000000000000000000081526004016116ef90613c67565b60405180910390fd5b60006001600083815260200190815260200160002060006101000a81548160ff02191690831515021790555050565b60008073ffffffffffffffffffffffffffffffffffffffff168373ffffffffffffffffffffffffffffffffffffffff161415611798576040517f08c379a000000000000000000000000000000000000000000000000000000000815260040161178f90613ae7565b60405180910390fd5b6004600083815260200190815260200160002060008473ffffffffffffffffffffffffffffffffffffffff1673ffffffffffffffffffffffffffffffffffffffff16815260200190815260200160002054905092915050565b6000600660008473ffffffffffffffffffffffffffffffffffffffff1673ffffffffffffffffffffffffffffffffffffffff16815260200190815260200160002060008373ffffffffffffffffffffffffffffffffffffffff1673ffffffffffffffffffffffffffffffffffffffff16815260200190815260200160002060009054906101000a900460ff16905092915050565b600073ffffffffffffffffffffffffffffffffffffffff168573ffffffffffffffffffffffffffffffffffffffff1614156118f5576040517f08c379a00000000000000000000000000000000000000000000000000000000081526004016118ec90613b27565b60405180910390fd5b3373ffffffffffffffffffffffffffffffffffffffff168673ffffffffffffffffffffffffffffffffffffffff16148061193c57506001151561193887336117f1565b1515145b61197b576040517f08c379a000000000000000000000000000000000000000000000000000000000815260040161197290613c87565b60405180910390fd5b61198786868686611cec565b8473ffffffffffffffffffffffffffffffffffffffff168673ffffffffffffffffffffffffffffffffffffffff163373ffffffffffffffffffffffffffffffffffffffff167fc3d58168c5ae7397731d063d5bbf3d657854427343f4c083240f7aacaa2d0f6287876040516119fd929190613d02565b60405180910390a4611a57338787878787878080601f016020809104026020016040519081016040528093929190818152602001838380828437600081840152601f19601f8201169050808301925050505050505061250f565b505050505050565b611a67612297565b611aa6576040517f08c379a0000000000000000000000000000000000000000000000000000000008152600401611a9d90613c67565b60405180910390fd5b611aaf8161266e565b50565b6060600080905060008390505b60008114611ae157818060010192505060108181611ad957fe5b049050611abf565b6060826040519080825280601f01601f191660200182016040528015611b165781602001600182028038833980820191505090505b50905060008090505b83811015611b955760108681611b3157fe5b069250611b3d8361279c565b8260018387030381518110611b4e57fe5b60200101907effffffffffffffffffffffffffffffffffffffffffffffffffffffffffffff1916908160001a90535060108681611b8757fe5b049550806001019050611b1f565b50809350505050919050565b6060808390506060839050606081518351016040519080825280601f01601f191660200182016040528015611be55781602001600182028038833980820191505090505b509050606081905060008090506000809050600090505b8551811015611c6a57858181518110611c1157fe5b602001015160f81c60f81b838380600101945081518110611c2e57fe5b60200101907effffffffffffffffffffffffffffffffffffffffffffffffffffffffffffff1916908160001a9053508080600101915050611bfc565b600090505b8451811015611cdd57848181518110611c8457fe5b602001015160f81c60f81b838380600101945081518110611ca157fe5b60200101907effffffffffffffffffffffffffffffffffffffffffffffffffffffffffffff1916908160001a9053508080600101915050611c6f565b82965050505050505092915050565b611cf884848484612845565b15611d38576040517f08c379a0000000000000000000000000000000000000000000000000000000008152600401611d2f90613ac7565b60405180910390fd5b611db5816040518060600160405280602a8152602001613f48602a91396003600086815260200190815260200160002060008873ffffffffffffffffffffffffffffffffffffffff1673ffffffffffffffffffffffffffffffffffffffff168152602001908152602001600020546128859092919063ffffffff16565b6003600084815260200190815260200160002060008673ffffffffffffffffffffffffffffffffffffffff1673ffffffffffffffffffffffffffffffffffffffff168152602001908152602001600020819055506000611e6e826003600086815260200190815260200160002060008773ffffffffffffffffffffffffffffffffffffffff1673ffffffffffffffffffffffffffffffffffffffff168152602001908152602001600020546128e090919063ffffffff16565b905060006003600085815260200190815260200160002060008673ffffffffffffffffffffffffffffffffffffffff1673ffffffffffffffffffffffffffffffffffffffff168152602001908152602001600020541415611f8c57600560008573ffffffffffffffffffffffffffffffffffffffff1673ffffffffffffffffffffffffffffffffffffffff168152602001908152602001600020839080600181540180825580915050906001820390600052602060002001600090919290919091505550426004600085815260200190815260200160002060008673ffffffffffffffffffffffffffffffffffffffff1673ffffffffffffffffffffffffffffffffffffffff168152602001908152602001600020819055506120dc565b60006120416004600086815260200190815260200160002060008773ffffffffffffffffffffffffffffffffffffffff1673ffffffffffffffffffffffffffffffffffffffff168152602001908152602001600020546003600087815260200190815260200160002060008873ffffffffffffffffffffffffffffffffffffffff1673ffffffffffffffffffffffffffffffffffffffff1681526020019081526020016000205461293590919063ffffffff16565b90506000612058428561293590919063ffffffff16565b9050600061206f82846128e090919063ffffffff16565b905061208484826129a590919063ffffffff16565b6004600088815260200190815260200160002060008973ffffffffffffffffffffffffffffffffffffffff1673ffffffffffffffffffffffffffffffffffffffff168152602001908152602001600020819055505050505b806003600085815260200190815260200160002060008673ffffffffffffffffffffffffffffffffffffffff1673ffffffffffffffffffffffffffffffffffffffff168152602001908152602001600020819055505050505050565b6121578473ffffffffffffffffffffffffffffffffffffffff166129ef565b1561228f578373ffffffffffffffffffffffffffffffffffffffff1663bc197c81905060e01b7bffffffffffffffffffffffffffffffffffffffffffffffffffffffff19168473ffffffffffffffffffffffffffffffffffffffff1663bc197c8188888787876040518663ffffffff1660e01b81526004016121dd959493929190613949565b602060405180830381600087803b1580156121f757600080fd5b505af115801561220b573d6000803e3d6000fd5b505050506040513d601f19601f8201168201806040525061222f91908101906130bd565b7bffffffffffffffffffffffffffffffffffffffffffffffffffffffff19161461228e576040517f08c379a000000000000000000000000000000000000000000000000000000000815260040161228590613be7565b60405180910390fd5b5b505050505050565b60008060009054906101000a900473ffffffffffffffffffffffffffffffffffffffff1673ffffffffffffffffffffffffffffffffffffffff163373ffffffffffffffffffffffffffffffffffffffff1614905090565b6000600960008373ffffffffffffffffffffffffffffffffffffffff1673ffffffffffffffffffffffffffffffffffffffff16815260200190815260200160002060009054906101000a900460ff168061234c575061234b612297565b5b9050919050565b80600760008481526020019081526020016000208190555080827f9cd9c60390fc75c213fd8d644749f61388dd30ed6c6eb4647b793b5b580fb43060405160405180910390a35050565b60006001600083815260200190815260200160002060009054906101000a900460ff169050919050565b6000600260008373ffffffffffffffffffffffffffffffffffffffff1673ffffffffffffffffffffffffffffffffffffffff16815260200190815260200160002060009054906101000a900460ff169050919050565b60006060839050606083905060008090505b82518251038110156125015760006001905060008090505b84518110156124df5784818151811061245c57fe5b602001015160f81c60f81b7effffffffffffffffffffffffffffffffffffffffffffffffffffffffffffff1916848285018151811061249757fe5b602001015160f81c60f81b7effffffffffffffffffffffffffffffffffffffffffffffffffffffffffffff1916146124d257600091506124df565b8080600101915050612447565b5080156124f3576001945050505050612509565b50808060010191505061242f565b506000925050505b92915050565b61252e8473ffffffffffffffffffffffffffffffffffffffff166129ef565b15612666578373ffffffffffffffffffffffffffffffffffffffff1663f23a6e61905060e01b7bffffffffffffffffffffffffffffffffffffffffffffffffffffffff19168473ffffffffffffffffffffffffffffffffffffffff1663f23a6e6188888787876040518663ffffffff1660e01b81526004016125b49594939291906139b1565b602060405180830381600087803b1580156125ce57600080fd5b505af11580156125e2573d6000803e3d6000fd5b505050506040513d601f19601f8201168201806040525061260691908101906130bd565b7bffffffffffffffffffffffffffffffffffffffffffffffffffffffff191614612665576040517f08c379a000000000000000000000000000000000000000000000000000000000815260040161265c90613cc7565b60405180910390fd5b5b505050505050565b600073ffffffffffffffffffffffffffffffffffffffff168173ffffffffffffffffffffffffffffffffffffffff1614156126de576040517f08c379a00000000000000000000000000000000000000000000000000000000081526004016126d590613b07565b60405180910390fd5b8073ffffffffffffffffffffffffffffffffffffffff166000809054906101000a900473ffffffffffffffffffffffffffffffffffffffff1673ffffffffffffffffffffffffffffffffffffffff167f8be0079c531659141344cd1fd0a4f28419497f9722a3daafe3b4186f6b6457e060405160405180910390a3806000806101000a81548173ffffffffffffffffffffffffffffffffffffffff021916908373ffffffffffffffffffffffffffffffffffffffff16021790555050565b60008160ff166000111580156127b6575060098260ff1611155b156127eb57817f300000000000000000000000000000000000000000000000000000000000000060f81c0160f81b9050612840565b8160ff16600a111580156128035750600f8260ff1611155b1561283b57600a827f610000000000000000000000000000000000000000000000000000000000000060f81c010360f81b9050612840565b600080fd5b919050565b60006128508361239d565b80612860575061285f856123c7565b5b80612870575061286f846123c7565b5b8061287b5750600082145b9050949350505050565b60008383111582906128cd576040517f08c379a00000000000000000000000000000000000000000000000000000000081526004016128c49190613aa5565b60405180910390fd5b5060008385039050809150509392505050565b60008082840190508381101561292b576040517f08c379a000000000000000000000000000000000000000000000000000000000815260040161292290613b47565b60405180910390fd5b8091505092915050565b600080831415612948576000905061299f565b600082840290508284828161295957fe5b041461299a576040517f08c379a000000000000000000000000000000000000000000000000000000000815260040161299190613c27565b60405180910390fd5b809150505b92915050565b60006129e783836040518060400160405280601a81526020017f536166654d6174683a206469766973696f6e206279207a65726f000000000000815250612a3a565b905092915050565b60008060007fc5d2460186f7233c927e7db2dcc703c0e500b653ca82273b7bfad8045d85a47060001b9050833f91506000801b8214158015612a315750808214155b92505050919050565b60008083118290612a81576040517f08c379a0000000000000000000000000000000000000000000000000000000008152600401612a789190613aa5565b60405180910390fd5b506000838581612a8d57fe5b049050809150509392505050565b600081359050612aaa81613eeb565b92915050565b60008083601f840112612ac257600080fd5b8235905067ffffffffffffffff811115612adb57600080fd5b602083019150836020820283011115612af357600080fd5b9250929050565b600082601f830112612b0b57600080fd5b8135612b1e612b1982613d58565b613d2b565b91508181835260208401935060208101905083856020840282011115612b4357600080fd5b60005b83811015612b735781612b598882612a9b565b845260208401935060208301925050600181019050612b46565b5050505092915050565b60008083601f840112612b8f57600080fd5b8235905067ffffffffffffffff811115612ba857600080fd5b602083019150836020820283011115612bc057600080fd5b9250929050565b600082601f830112612bd857600080fd5b8135612beb612be682613d80565b613d2b565b91508181835260208401935060208101905083856020840282011115612c1057600080fd5b60005b83811015612c405781612c268882612cd3565b845260208401935060208301925050600181019050612c13565b5050505092915050565b600081359050612c5981613f02565b92915050565b600081359050612c6e81613f19565b92915050565b600081519050612c8381613f19565b92915050565b60008083601f840112612c9b57600080fd5b8235905067ffffffffffffffff811115612cb457600080fd5b602083019150836001820283011115612ccc57600080fd5b9250929050565b600081359050612ce281613f30565b92915050565b600060208284031215612cfa57600080fd5b6000612d0884828501612a9b565b91505092915050565b60008060408385031215612d2457600080fd5b6000612d3285828601612a9b565b9250506020612d4385828601612a9b565b9150509250929050565b60008060008060008060008060a0898b031215612d6957600080fd5b6000612d778b828c01612a9b565b9850506020612d888b828c01612a9b565b975050604089013567ffffffffffffffff811115612da557600080fd5b612db18b828c01612b7d565b9650965050606089013567ffffffffffffffff811115612dd057600080fd5b612ddc8b828c01612b7d565b9450945050608089013567ffffffffffffffff811115612dfb57600080fd5b612e078b828c01612c89565b92509250509295985092959890939650565b60008060008060008060a08789031215612e3257600080fd5b6000612e4089828a01612a9b565b9650506020612e5189828a01612a9b565b9550506040612e6289828a01612cd3565b9450506060612e7389828a01612cd3565b935050608087013567ffffffffffffffff811115612e9057600080fd5b612e9c89828a01612c89565b92509250509295509295509295565b60008060408385031215612ebe57600080fd5b6000612ecc85828601612a9b565b9250506020612edd85828601612c4a565b9150509250929050565b60008060408385031215612efa57600080fd5b6000612f0885828601612a9b565b9250506020612f1985828601612cd3565b9150509250929050565b60008060408385031215612f3657600080fd5b600083013567ffffffffffffffff811115612f5057600080fd5b612f5c85828601612afa565b925050602083013567ffffffffffffffff811115612f7957600080fd5b612f8585828601612bc7565b9150509250929050565b60008060008060008060008060008060a08b8d031215612fae57600080fd5b60008b013567ffffffffffffffff811115612fc857600080fd5b612fd48d828e01612b7d565b9a509a505060208b013567ffffffffffffffff811115612ff357600080fd5b612fff8d828e01612ab0565b985098505060408b013567ffffffffffffffff81111561301e57600080fd5b61302a8d828e01612b7d565b965096505060608b013567ffffffffffffffff81111561304957600080fd5b6130558d828e01612b7d565b945094505060808b013567ffffffffffffffff81111561307457600080fd5b6130808d828e01612b7d565b92509250509295989b9194979a5092959850565b6000602082840312156130a657600080fd5b60006130b484828501612c5f565b91505092915050565b6000602082840312156130cf57600080fd5b60006130dd84828501612c74565b91505092915050565b6000602082840312156130f857600080fd5b600061310684828501612cd3565b91505092915050565b6000806040838503121561312257600080fd5b600061313085828601612cd3565b925050602061314185828601612cd3565b9150509250929050565b60006131578383613910565b60208301905092915050565b61316c81613e24565b82525050565b600061317e8385613df1565b93507f07ffffffffffffffffffffffffffffffffffffffffffffffffffffffffffffff8311156131ad57600080fd5b6020830292506131be838584613e98565b82840190509392505050565b60006131d582613db8565b6131df8185613df1565b93506131ea83613da8565b8060005b8381101561321b578151613202888261314b565b975061320d83613de4565b9250506001810190506131ee565b5085935050505092915050565b61323181613e36565b82525050565b600061324282613dc3565b61324c8185613e02565b935061325c818560208601613ea7565b61326581613eda565b840191505092915050565b600061327b82613dd9565b6132858185613e13565b9350613295818560208601613ea7565b61329e81613eda565b840191505092915050565b60006132b482613dce565b6132be8185613e13565b93506132ce818560208601613ea7565b6132d781613eda565b840191505092915050565b60006132ef600683613e13565b91507f4c6f636b656400000000000000000000000000000000000000000000000000006000830152602082019050919050565b600061332f602b83613e13565b91507f455243313135353a2062616c616e636520717565727920666f7220746865207a60008301527f65726f20616464726573730000000000000000000000000000000000000000006020830152604082019050919050565b6000613395602683613e13565b91507f4f776e61626c653a206e6577206f776e657220697320746865207a65726f206160008301527f64647265737300000000000000000000000000000000000000000000000000006020830152604082019050919050565b60006133fb602883613e13565b91507f455243313135353a207461726765742061646472657373206d7573742062652060008301527f6e6f6e2d7a65726f0000000000000000000000000000000000000000000000006020830152604082019050919050565b6000613461601b83613e13565b91507f536166654d6174683a206164646974696f6e206f766572666c6f7700000000006000830152602082019050919050565b60006134a1602b83613e13565b91507f5374617368426c6f783a20616c6c206c69737473206d7573742068617665207360008301527f616d65206c656e677468730000000000000000000000000000000000000000006020830152604082019050919050565b6000613507602c83613e13565b91507f455243313135353a2063616e6e6f742073657420617070726f76616c2073746160008301527f74757320666f722073656c6600000000000000000000000000000000000000006020830152604082019050919050565b600061356d602383613e13565b91507f4d696e7461626c653a2063616c6c6572206973206e6f74206120746f6b656e6960008301527f7a657200000000000000000000000000000000000000000000000000000000006020830152604082019050919050565b60006135d3603083613e13565b91507f455243313135353a206163636f756e747320616e6420494473206d757374206860008301527f6176652073616d65206c656e67746873000000000000000000000000000000006020830152604082019050919050565b6000613639603683613e13565b91507f455243313135353a20676f7420756e6b6e6f776e2076616c75652066726f6d2060008301527f6f6e4552433131353542617463685265636569766564000000000000000000006020830152604082019050919050565b600061369f603483613e13565b91507f455243313135353a20736f6d65206164647265737320696e206261746368206260008301527f616c616e6365207175657279206973207a65726f0000000000000000000000006020830152604082019050919050565b6000613705602183613e13565b91507f536166654d6174683a206d756c7469706c69636174696f6e206f766572666c6f60008301527f77000000000000000000000000000000000000000000000000000000000000006020830152604082019050919050565b600061376b601f83613e13565b91507f5374617368426c6f783a20546f6b656e20616c7265616479206d696e746564006000830152602082019050919050565b60006137ab602083613e13565b91507f4f776e61626c653a2063616c6c6572206973206e6f7420746865206f776e65726000830152602082019050919050565b60006137eb603783613e13565b91507f455243313135353a206e656564206f70657261746f7220617070726f76616c2060008301527f666f7220337264207061727479207472616e73666572730000000000000000006020830152604082019050919050565b6000613851602e83613e13565b91507f455243313135353a2049447320616e642076616c756573206d7573742068617660008301527f652073616d65206c656e677468730000000000000000000000000000000000006020830152604082019050919050565b60006138b7603183613e13565b91507f455243313135353a20676f7420756e6b6e6f776e2076616c75652066726f6d2060008301527f6f6e4552433131353552656365697665640000000000000000000000000000006020830152604082019050919050565b61391981613e8e565b82525050565b61392881613e8e565b82525050565b60006020820190506139436000830184613163565b92915050565b600060a08201905061395e6000830188613163565b61396b6020830187613163565b818103604083015261397d81866131ca565b9050818103606083015261399181856131ca565b905081810360808301526139a58184613237565b90509695505050505050565b600060a0820190506139c66000830188613163565b6139d36020830187613163565b6139e0604083018661391f565b6139ed606083018561391f565b81810360808301526139ff8184613237565b90509695505050505050565b60006040820190508181036000830152613a26818688613172565b90508181036020830152613a3b818486613172565b905095945050505050565b60006020820190508181036000830152613a6081846131ca565b905092915050565b6000602082019050613a7d6000830184613228565b92915050565b60006020820190508181036000830152613a9d81846132a9565b905092915050565b60006020820190508181036000830152613abf8184613270565b905092915050565b60006020820190508181036000830152613ae0816132e2565b9050919050565b60006020820190508181036000830152613b0081613322565b9050919050565b60006020820190508181036000830152613b2081613388565b9050919050565b60006020820190508181036000830152613b40816133ee565b9050919050565b60006020820190508181036000830152613b6081613454565b9050919050565b60006020820190508181036000830152613b8081613494565b9050919050565b60006020820190508181036000830152613ba0816134fa565b9050919050565b60006020820190508181036000830152613bc081613560565b9050919050565b60006020820190508181036000830152613be0816135c6565b9050919050565b60006020820190508181036000830152613c008161362c565b9050919050565b60006020820190508181036000830152613c2081613692565b9050919050565b60006020820190508181036000830152613c40816136f8565b9050919050565b60006020820190508181036000830152613c608161375e565b9050919050565b60006020820190508181036000830152613c808161379e565b9050919050565b60006020820190508181036000830152613ca0816137de565b9050919050565b60006020820190508181036000830152613cc081613844565b9050919050565b60006020820190508181036000830152613ce0816138aa565b9050919050565b6000602082019050613cfc600083018461391f565b92915050565b6000604082019050613d17600083018561391f565b613d24602083018461391f565b9392505050565b6000604051905081810181811067ffffffffffffffff82111715613d4e57600080fd5b8060405250919050565b600067ffffffffffffffff821115613d6f57600080fd5b602082029050602081019050919050565b600067ffffffffffffffff821115613d9757600080fd5b602082029050602081019050919050565b6000819050602082019050919050565b600081519050919050565b600081519050919050565b600081519050919050565b600081519050919050565b6000602082019050919050565b600082825260208201905092915050565b600082825260208201905092915050565b600082825260208201905092915050565b6000613e2f82613e6e565b9050919050565b60008115159050919050565b60007fffffffff0000000000000000000000000000000000000000000000000000000082169050919050565b600073ffffffffffffffffffffffffffffffffffffffff82169050919050565b6000819050919050565b82818337600083830152505050565b60005b83811015613ec5578082015181840152602081019050613eaa565b83811115613ed4576000848401525b50505050565b6000601f19601f8301169050919050565b613ef481613e24565b8114613eff57600080fd5b50565b613f0b81613e36565b8114613f1657600080fd5b50565b613f2281613e42565b8114613f2d57600080fd5b50565b613f3981613e8e565b8114613f4457600080fd5b5056fe455243313135353a20696e73756666696369656e742062616c616e636520666f72207472616e73666572a365627a7a723158205c1148e7c2b0648094e42ca16577c4d05eda08671719367855daf74247b941046c6578706572696d656e74616cf564736f6c634300050c0040",
  "source": "pragma solidity ^0.5.12;\npragma experimental ABIEncoderV2;\n\nimport './lib/ERC1155/ERC1155Mintable.sol';\n\ncontract StashBlox is ERC1155Mintable {\n\n}\n",
  "sourcePath": "/home/ouziel/Work/StashBloxContracts/contracts/StashBlox.sol",
  "compiler": {
    "name": "solc",
    "version": "0.5.12+commit.7709ece9.Emscripten.clang"
  },
  "schemaVersion": "3.0.16",
  "updatedAt": "2020-07-27T15:09:24.204Z",
  "devdoc": {
    "methods": {
      "balanceOf(address,uint256)": {
        "details": "Get the specified address' balance for token with specified ID. Attempting to query the zero account for a balance will result in a revert.",
        "params": {
          "account": "The address of the token holder",
          "id": "ID of the token"
        },
        "return": "The account's balance of the token type requested"
      },
      "balanceOfBatch(address[],uint256[])": {
        "details": "Get the balance of multiple account/token pairs. If any of the query accounts is the zero account, this query will revert.",
        "params": {
          "accounts": "The addresses of the token holders",
          "ids": "IDs of the tokens"
        },
        "return": "Balances for each account and token id pair"
      },
      "createTokens(uint256[],address[],uint256[],uint256[],uint256[])": {
        "details": "Function to mint an amount of a token with the given ID.",
        "params": {
          "ids": "ID of the token to be minted",
          "metadataHashes": "Metadata files hashes",
          "recipients": "The addresses that will own the minted token",
          "storagePrices": "price for 24h storage",
          "values": "Amount of the token to be minted for each recipient"
        }
      },
      "isApprovedForAll(address,address)": {
        "params": {
          "account": "The account of the Tokens",
          "operator": "Address of authorized operator"
        },
        "return": "True if the operator is approved, false if not"
      },
      "owner()": {
        "details": "Returns the address of the current owner."
      },
      "safeBatchTransferFrom(address,address,uint256[],uint256[],bytes)": {
        "details": "Transfers `values` amount(s) of `ids` from the `from` address to the `to` address specified. Caller must be approved to manage the tokens being transferred out of the `from` account. If `to` is a smart contract, will call `onERC1155BatchReceived` on `to` and act appropriately.",
        "params": {
          "data": "Data forwarded to `onERC1155Received` if `to` is a contract receiver",
          "from": "Source address",
          "ids": "IDs of each token type",
          "to": "Target address",
          "values": "Transfer amounts per token type"
        }
      },
      "safeTransferFrom(address,address,uint256,uint256,bytes)": {
        "details": "Transfers `value` amount of an `id` from the `from` address to the `to` address specified. Caller must be approved to manage the tokens being transferred out of the `from` account. If `to` is a smart contract, will call `onERC1155Received` on `to` and act appropriately.",
        "params": {
          "data": "Data forwarded to `onERC1155Received` if `to` is a contract receiver",
          "from": "Source address",
          "id": "ID of the token type",
          "to": "Target address",
          "value": "Transfer amount"
        }
      },
      "setApprovalForAll(address,bool)": {
        "details": "Sets or unsets the approval of a given operator.     * An operator is allowed to transfer all tokens of the sender on their behalf.     * Because an account already has operator privileges for itself, this function will revert if the account attempts to set the approval status for itself.",
        "params": {
          "approved": "representing the status of the approval to be set",
          "operator": "address to set the approval"
        }
      },
      "supportsInterface(bytes4)": {
        "params": {
          "_interfaceID": "The interface identifier, as specified in ERC-165"
        },
        "return": "`true` if the contract implements `_interfaceID` and"
      },
      "totalSupply(uint256)": {
        "params": {
          "id": "Token ID"
        },
        "return": "Token supply"
      },
      "transferOwnership(address)": {
        "details": "Transfers ownership of the contract to a new account (`newOwner`). Can only be called by the current owner."
      },
      "uri(uint256)": {
        "params": {
          "id": "Token ID"
        },
        "return": "URI string"
      }
    }
  },
  "userdoc": {
    "methods": {
      "isApprovedForAll(address,address)": {
        "notice": "Queries the approval status of an operator for a given account."
      },
      "supportsInterface(bytes4)": {
        "notice": "Query if a contract implements an interface"
      }
    }
  }
}