{
  "contractName": "Withdrawable",
  "abi": [
    {
      "inputs": [
        {
          "internalType": "uint256",
          "name": "",
          "type": "uint256"
        }
      ],
      "name": "_callbacks",
      "outputs": [
        {
          "internalType": "uint256",
          "name": "tokenId",
          "type": "uint256"
        },
        {
          "internalType": "uint256",
          "name": "price",
          "type": "uint256"
        },
        {
          "internalType": "uint256",
          "name": "escrowedAmount",
          "type": "uint256"
        },
        {
          "internalType": "uint256",
          "name": "callCounter",
          "type": "uint256"
        },
        {
          "internalType": "uint256",
          "name": "documentHash",
          "type": "uint256"
        },
        {
          "internalType": "address",
          "name": "caller",
          "type": "address"
        },
        {
          "internalType": "bool",
          "name": "needLegalApproval",
          "type": "bool"
        },
        {
          "internalType": "bool",
          "name": "approvedByLegal",
          "type": "bool"
        },
        {
          "internalType": "bool",
          "name": "refused",
          "type": "bool"
        },
        {
          "internalType": "bool",
          "name": "accepted",
          "type": "bool"
        },
        {
          "internalType": "bool",
          "name": "completed",
          "type": "bool"
        }
      ],
      "stateMutability": "view",
      "type": "function"
    },
    {
      "inputs": [],
      "name": "_config",
      "outputs": [
        {
          "internalType": "uint256",
          "name": "callbackAutoExecuteMaxAddresses",
          "type": "uint256"
        },
        {
          "internalType": "string",
          "name": "baseURI",
          "type": "string"
        },
        {
          "internalType": "address",
          "name": "owner",
          "type": "address"
        }
      ],
      "stateMutability": "view",
      "type": "function"
    },
    {
      "inputs": [
        {
          "internalType": "uint256",
          "name": "",
          "type": "uint256"
        }
      ],
      "name": "_tokens",
      "outputs": [
        {
          "internalType": "uint256",
          "name": "supply",
          "type": "uint256"
        },
        {
          "internalType": "uint256",
          "name": "decimals",
          "type": "uint256"
        },
        {
          "internalType": "uint256",
          "name": "lumpSumTransactionFees",
          "type": "uint256"
        },
        {
          "internalType": "uint256",
          "name": "valueTransactionFees",
          "type": "uint256"
        },
        {
          "internalType": "uint256",
          "name": "minHoldingForCallback",
          "type": "uint256"
        },
        {
          "internalType": "uint256",
          "name": "metadataHash",
          "type": "uint256"
        },
        {
          "internalType": "address",
          "name": "legalAuthority",
          "type": "address"
        },
        {
          "internalType": "bool",
          "name": "isPrivate",
          "type": "bool"
        },
        {
          "internalType": "bool",
          "name": "locked",
          "type": "bool"
        }
      ],
      "stateMutability": "view",
      "type": "function"
    },
    {
      "inputs": [
        {
          "internalType": "address",
          "name": "",
          "type": "address"
        }
      ],
      "name": "_users",
      "outputs": [
        {
          "internalType": "bool",
          "name": "isTokenizer",
          "type": "bool"
        },
        {
          "internalType": "bool",
          "name": "isLocked",
          "type": "bool"
        },
        {
          "internalType": "uint256",
          "name": "ETHBalance",
          "type": "uint256"
        }
      ],
      "stateMutability": "view",
      "type": "function"
    },
    {
      "inputs": [
        {
          "internalType": "address",
          "name": "forwarder",
          "type": "address"
        }
      ],
      "name": "isTrustedForwarder",
      "outputs": [
        {
          "internalType": "bool",
          "name": "",
          "type": "bool"
        }
      ],
      "stateMutability": "view",
      "type": "function"
    },
    {
      "inputs": [],
      "name": "trustedForwarder",
      "outputs": [
        {
          "internalType": "address",
          "name": "",
          "type": "address"
        }
      ],
      "stateMutability": "view",
      "type": "function"
    },
    {
      "inputs": [
        {
          "internalType": "uint256",
          "name": "id",
          "type": "uint256"
        }
      ],
      "name": "uri",
      "outputs": [
        {
          "internalType": "string",
          "name": "",
          "type": "string"
        }
      ],
      "stateMutability": "view",
      "type": "function"
    },
    {
      "inputs": [],
      "name": "versionRecipient",
      "outputs": [
        {
          "internalType": "string",
          "name": "",
          "type": "string"
        }
      ],
      "stateMutability": "view",
      "type": "function"
    },
    {
      "stateMutability": "payable",
      "type": "receive"
    },
    {
      "inputs": [
        {
          "internalType": "address",
          "name": "to",
          "type": "address"
        },
        {
          "internalType": "uint256",
          "name": "amount",
          "type": "uint256"
        }
      ],
      "name": "withdraw",
      "outputs": [],
      "stateMutability": "nonpayable",
      "type": "function"
    },
    {
      "inputs": [
        {
          "internalType": "address",
          "name": "to",
          "type": "address"
        }
      ],
      "name": "deposit",
      "outputs": [],
      "stateMutability": "payable",
      "type": "function"
    }
  ],
  "bytecode": "0x60c0604052601760808190527f312e302e302b6f70656e67736e2e7374617368626c6f7800000000000000000060a090815261003e9160019190610051565b5034801561004b57600080fd5b506100e4565b828054600181600116156101000203166002900490600052602060002090601f016020900481019282601f1061009257805160ff19168380011785556100bf565b828001600101855582156100bf579182015b828111156100bf5782518255916020019190600101906100a4565b506100cb9291506100cf565b5090565b5b808211156100cb57600081556001016100d0565b610bc2806100f36000396000f3fe6080604052600436106100955760003560e01c8063572b6c0511610059578063572b6c051461033a5780637da0a87714610381578063ed70554d146103b2578063f340fa0114610430578063f3fef3a314610458576100f8565b80630e89341c146100fd5780632ed42bf71461019c5780633cacd7d614610240578063414ed0ce14610293578063486ff0cd14610325576100f8565b366100f8576100cd34600f60006100aa610491565b6001600160a01b03168152602081019190915260400160002060010154906104c2565b600f60006100d9610491565b6001600160a01b03168152602081019190915260400160002060010155005b600080fd5b34801561010957600080fd5b506101276004803603602081101561012057600080fd5b5035610523565b6040805160208082528351818301528351919283929083019185019080838360005b83811015610161578181015183820152602001610149565b50505050905090810190601f16801561018e5780820380516001836020036101000a031916815260200191505b509250505060405180910390f35b3480156101a857600080fd5b506101b16105cd565b6040518084815260200180602001836001600160a01b03168152602001828103825284818151815260200191508051906020019080838360005b838110156102035781810151838201526020016101eb565b50505050905090810190601f1680156102305780820380516001836020036101000a031916815260200191505b5094505050505060405180910390f35b34801561024c57600080fd5b506102736004803603602081101561026357600080fd5b50356001600160a01b0316610670565b604080519315158452911515602084015282820152519081900360600190f35b34801561029f57600080fd5b506102bd600480360360208110156102b657600080fd5b5035610696565b604080519b8c5260208c019a909a528a8a019890985260608a019690965260808901949094526001600160a01b0390921660a0880152151560c0870152151560e086015215156101008501521515610120840152151561014083015251908190036101600190f35b34801561033157600080fd5b50610127610709565b34801561034657600080fd5b5061036d6004803603602081101561035d57600080fd5b50356001600160a01b0316610796565b604080519115158252519081900360200190f35b34801561038d57600080fd5b506103966107aa565b604080516001600160a01b039092168252519081900360200190f35b3480156103be57600080fd5b506103dc600480360360208110156103d557600080fd5b50356107b9565b60408051998a5260208a0198909852888801969096526060880194909452608087019290925260a08601526001600160a01b031660c0850152151560e0840152151561010083015251908190036101200190f35b6104566004803603602081101561044657600080fd5b50356001600160a01b0316610815565b005b34801561046457600080fd5b506104566004803603604081101561047b57600080fd5b506001600160a01b03813516906020013561085a565b6000601836108015906104a857506104a833610796565b156104bc575060131936013560601c6104bf565b50335b90565b60008282018381101561051c576040805162461bcd60e51b815260206004820152601b60248201527f536166654d6174683a206164646974696f6e206f766572666c6f770000000000604482015290519081900360640190fd5b9392505050565b6003805460408051602060026001851615610100026000190190941693909304601f81018490048402820184019092528181526060936105c593919290918301828280156105b25780601f10610587576101008083540402835291602001916105b2565b820191906000526020600020905b81548152906001019060200180831161059557829003601f168201915b50505050506105c084610982565b610a3e565b90505b919050565b600280546003805460408051602060018416156101000260001901909316869004601f810184900484028201840190925281815293949392918301828280156106575780601f1061062c57610100808354040283529160200191610657565b820191906000526020600020905b81548152906001019060200180831161063a57829003601f168201915b505050600c90930154919250506001600160a01b031683565b600f602052600090815260409020805460019091015460ff808316926101009004169083565b60116020526000908152604090208054600182015460028301546003840154600485015460059095015493949293919290916001600160a01b0381169060ff600160a01b8204811691600160a81b8104821691600160b01b8204811691600160b81b8104821691600160c01b909104168b565b60018054604080516020600284861615610100026000190190941693909304601f8101849004840282018401909252818152929183018282801561078e5780601f106107635761010080835404028352916020019161078e565b820191906000526020600020905b81548152906001019060200180831161077157829003601f168201915b505050505081565b6000546001600160a01b0390811691161490565b6000546001600160a01b031681565b601060205260009081526040902080546001820154600283015460038401546004850154600586015460069096015494959394929391929091906001600160a01b0381169060ff600160a01b8204811691600160a81b90041689565b6001600160a01b0381166000908152600f602052604090206001015461083b90346104c2565b6001600160a01b039091166000908152600f6020526040902060010155565b6001600160a01b0382166000908152600f60205260409020600101548111156108c1576040805162461bcd60e51b8152602060048201526014602482015273496e73756666696369656e742062616c616e636560601b604482015290519081900360640190fd5b6040516000906001600160a01b0384169083908381818185875af1925050503d806000811461090c576040519150601f19603f3d011682016040523d82523d6000602084013e610911565b606091505b505090508061095b576040805162461bcd60e51b815260206004820152601160248201527015da5d1a191c985dd85b0819985a5b1959607a1b604482015290519081900360640190fd5b506001600160a01b039091166000908152600f602052604090206001018054919091039055565b60606000825b801561099e576001919091019060109004610988565b60608267ffffffffffffffff811180156109b757600080fd5b506040519080825280601f01601f1916602001820160405280156109e2576020820181803683370190505b50905060005b83811015610a35576010860692506109ff83610b48565b8260018387030381518110610a1057fe5b60200101906001600160f81b031916908160001a9053506010860495506001016109e8565b50949350505050565b805182516060918491849184910167ffffffffffffffff81118015610a6257600080fd5b506040519080825280601f01601f191660200182016040528015610a8d576020820181803683370190505b509050806000805b8551811015610ae657858181518110610aaa57fe5b602001015160f81c60f81b838380600101945081518110610ac757fe5b60200101906001600160f81b031916908160001a905350600101610a95565b5060005b8451811015610b3b57848181518110610aff57fe5b602001015160f81c60f81b838380600101945081518110610b1c57fe5b60200101906001600160f81b031916908160001a905350600101610aea565b5090979650505050505050565b600060098260ff1611610b6257506030810160f81b6105c8565b8160ff16600a11158015610b7a5750600f8260ff1611155b156100f857506057810160f81b6105c856fea2646970667358221220497d2919617a7cb90d6b031c94505831c1af6294e479a2d1b0994bfa6875636064736f6c63430007010033",
  "immutableReferences": {},
  "source": "// SPDX-License-Identifier: GPL-3.0-or-later\npragma solidity ^0.7.1;\n\nimport \"../utils/SafeMath.sol\";\nimport './Data.sol';\n\ncontract Withdrawable is Data {\n\n    using SafeMath for uint256;\n\n\n    /****************************\n    EXTERNAL FUNCTIONS\n    *****************************/\n\n\n    /**\n     * @dev Function to withdraw ETH from the contract. TODO: Add permission ??\n     * @param to recipent address\n     * @param amount amount to withdraw\n     */\n    function withdraw(address to, uint256 amount) external {\n        require(_users[to].ETHBalance >= amount, \"Insufficient balance\");\n        (bool success, ) = to.call{value: amount}(\"\");\n        require(success, \"Withdrawal failed\");\n        _users[to].ETHBalance -= amount;\n    }\n\n    /**\n     * @dev Function to make an ETH deposit that can be used to pay token transfer .\n     * @param to recipent address\n     */\n    function deposit(address to) external payable {\n        _users[to].ETHBalance = _users[to].ETHBalance.add(msg.value);\n    }\n\n    /**\n     * @dev Receive Ether Function:this is the function that is executed on plain Ether transfers (e.g. via .send() or .transfer()).\n     */\n    receive() external payable {\n        _users[_msgSender()].ETHBalance = _users[_msgSender()].ETHBalance.add(msg.value);\n    }\n\n\n}\n",
  "sourcePath": "/home/ouziel/Work/StashBloxContracts/contracts/lib/Withdrawable.sol",
  "compiler": {
    "name": "solc",
    "version": "0.7.1+commit.f4a555be.Emscripten.clang"
  },
  "schemaVersion": "3.2.3",
  "updatedAt": "2020-10-21T21:50:16.166Z",
  "devdoc": {
    "kind": "dev",
    "methods": {
      "deposit(address)": {
        "details": "Function to make an ETH deposit that can be used to pay token transfer .",
        "params": {
          "to": "recipent address"
        }
      },
      "uri(uint256)": {
        "params": {
          "id": "Token ID"
        },
        "returns": {
          "_0": "URI string"
        }
      },
      "withdraw(address,uint256)": {
        "details": "Function to withdraw ETH from the contract. TODO: Add permission ??",
        "params": {
          "amount": "amount to withdraw",
          "to": "recipent address"
        }
      }
    },
    "version": 1
  },
  "userdoc": {
    "kind": "user",
    "methods": {
      "isTrustedForwarder(address)": {
        "notice": "return if the forwarder is trusted to forward relayed transactions to us. the forwarder is required to verify the sender's signature, and verify the call is not a replay."
      }
    },
    "version": 1
  }
}